{
  "address": "0xB2D749117A2cac266F54b65b5EEEEEaC4C217e3A",
  "abi": [
    {
      "anonymous": false,
      "inputs": [
        {
          "indexed": true,
          "internalType": "address",
          "name": "owner",
          "type": "address"
        },
        {
          "indexed": true,
          "internalType": "address",
          "name": "spender",
          "type": "address"
        },
        {
          "indexed": false,
          "internalType": "uint256",
          "name": "value",
          "type": "uint256"
        }
      ],
      "name": "Approval",
      "type": "event"
    },
    {
      "anonymous": false,
      "inputs": [
        {
          "indexed": true,
          "internalType": "address",
          "name": "from",
          "type": "address"
        },
        {
          "indexed": true,
          "internalType": "address",
          "name": "account",
          "type": "address"
        },
        {
          "indexed": false,
          "internalType": "uint256",
          "name": "amount",
          "type": "uint256"
        },
        {
          "indexed": false,
          "internalType": "uint256",
          "name": "fee",
          "type": "uint256"
        }
      ],
      "name": "CollateralDeposited",
      "type": "event"
    },
    {
      "anonymous": false,
      "inputs": [
        {
          "indexed": true,
          "internalType": "address",
          "name": "account",
          "type": "address"
        },
        {
          "indexed": true,
          "internalType": "address",
          "name": "to",
          "type": "address"
        },
        {
          "indexed": false,
          "internalType": "uint256",
          "name": "amount",
          "type": "uint256"
        },
        {
          "indexed": false,
          "internalType": "uint256",
          "name": "fee",
          "type": "uint256"
        }
      ],
      "name": "CollateralWithdrawn",
      "type": "event"
    },
    {
      "anonymous": false,
      "inputs": [
        {
          "indexed": false,
          "internalType": "uint256",
          "name": "oldCollateralizationRatio",
          "type": "uint256"
        },
        {
          "indexed": false,
          "internalType": "uint256",
          "name": "newCollateralizationRatio",
          "type": "uint256"
        }
      ],
      "name": "CollateralizationRatioUpdated",
      "type": "event"
    },
    {
      "anonymous": false,
      "inputs": [
        {
          "indexed": false,
          "internalType": "bool",
          "name": "oldActive",
          "type": "bool"
        },
        {
          "indexed": false,
          "internalType": "bool",
          "name": "newActive",
          "type": "bool"
        }
      ],
      "name": "DepositTokenActiveUpdated",
      "type": "event"
    },
    {
      "anonymous": false,
      "inputs": [
        {
          "indexed": false,
          "internalType": "uint256",
          "name": "oldMaxTotalSupplyInUsd",
          "type": "uint256"
        },
        {
          "indexed": false,
          "internalType": "uint256",
          "name": "newMaxTotalSupplyInUsd",
          "type": "uint256"
        }
      ],
      "name": "MaxTotalSupplyUpdated",
      "type": "event"
    },
    {
      "anonymous": false,
      "inputs": [
        {
          "indexed": false,
          "internalType": "uint256",
          "name": "oldMinDepositTime",
          "type": "uint256"
        },
        {
          "indexed": false,
          "internalType": "uint256",
          "name": "newMinDepositTime",
          "type": "uint256"
        }
      ],
      "name": "MinDepositTimeUpdated",
      "type": "event"
    },
    {
      "anonymous": false,
      "inputs": [
        {
          "indexed": true,
          "internalType": "address",
          "name": "from",
          "type": "address"
        },
        {
          "indexed": true,
          "internalType": "address",
          "name": "to",
          "type": "address"
        },
        {
          "indexed": false,
          "internalType": "uint256",
          "name": "value",
          "type": "uint256"
        }
      ],
      "name": "Transfer",
      "type": "event"
    },
    {
      "inputs": [],
      "name": "VERSION",
      "outputs": [
        {
          "internalType": "string",
          "name": "",
          "type": "string"
        }
      ],
      "stateMutability": "view",
      "type": "function"
    },
    {
      "inputs": [
        {
          "internalType": "address",
          "name": "",
          "type": "address"
        },
        {
          "internalType": "address",
          "name": "",
          "type": "address"
        }
      ],
      "name": "allowance",
      "outputs": [
        {
          "internalType": "uint256",
          "name": "",
          "type": "uint256"
        }
      ],
      "stateMutability": "view",
      "type": "function"
    },
    {
      "inputs": [
        {
          "internalType": "address",
          "name": "spender",
          "type": "address"
        },
        {
          "internalType": "uint256",
          "name": "_amount",
          "type": "uint256"
        }
      ],
      "name": "approve",
      "outputs": [
        {
          "internalType": "bool",
          "name": "",
          "type": "bool"
        }
      ],
      "stateMutability": "nonpayable",
      "type": "function"
    },
    {
      "inputs": [
        {
          "internalType": "address",
          "name": "",
          "type": "address"
        }
      ],
      "name": "balanceOf",
      "outputs": [
        {
          "internalType": "uint256",
          "name": "",
          "type": "uint256"
        }
      ],
      "stateMutability": "view",
      "type": "function"
    },
    {
      "inputs": [
        {
          "internalType": "address",
          "name": "_from",
          "type": "address"
        },
        {
          "internalType": "uint256",
          "name": "_amount",
          "type": "uint256"
        }
      ],
      "name": "burn",
      "outputs": [],
      "stateMutability": "nonpayable",
      "type": "function"
    },
    {
      "inputs": [],
      "name": "collateralizationRatio",
      "outputs": [
        {
          "internalType": "uint256",
          "name": "",
          "type": "uint256"
        }
      ],
      "stateMutability": "view",
      "type": "function"
    },
    {
      "inputs": [],
      "name": "controller",
      "outputs": [
        {
          "internalType": "contract IController",
          "name": "",
          "type": "address"
        }
      ],
      "stateMutability": "view",
      "type": "function"
    },
    {
      "inputs": [],
      "name": "decimals",
      "outputs": [
        {
          "internalType": "uint8",
          "name": "",
          "type": "uint8"
        }
      ],
      "stateMutability": "view",
      "type": "function"
    },
    {
      "inputs": [
        {
          "internalType": "address",
          "name": "spender",
          "type": "address"
        },
        {
          "internalType": "uint256",
          "name": "subtractedValue",
          "type": "uint256"
        }
      ],
      "name": "decreaseAllowance",
      "outputs": [
        {
          "internalType": "bool",
          "name": "",
          "type": "bool"
        }
      ],
      "stateMutability": "nonpayable",
      "type": "function"
    },
    {
      "inputs": [
        {
          "internalType": "uint256",
          "name": "_amount",
          "type": "uint256"
        },
        {
          "internalType": "address",
          "name": "_onBehalfOf",
          "type": "address"
        }
      ],
      "name": "deposit",
      "outputs": [],
      "stateMutability": "nonpayable",
      "type": "function"
    },
    {
      "inputs": [],
      "name": "governor",
      "outputs": [
        {
          "internalType": "address",
          "name": "_governor",
          "type": "address"
        }
      ],
      "stateMutability": "view",
      "type": "function"
    },
    {
      "inputs": [
        {
          "internalType": "address",
          "name": "spender",
          "type": "address"
        },
        {
          "internalType": "uint256",
          "name": "addedValue",
          "type": "uint256"
        }
      ],
      "name": "increaseAllowance",
      "outputs": [
        {
          "internalType": "bool",
          "name": "",
          "type": "bool"
        }
      ],
      "stateMutability": "nonpayable",
      "type": "function"
    },
    {
      "inputs": [
        {
          "internalType": "contract IERC20",
          "name": "_underlying",
          "type": "address"
        },
        {
          "internalType": "contract IController",
          "name": "_controller",
          "type": "address"
        },
        {
          "internalType": "string",
          "name": "_symbol",
          "type": "string"
        },
        {
          "internalType": "uint8",
          "name": "_decimals",
          "type": "uint8"
        },
        {
          "internalType": "uint128",
          "name": "_collateralizationRatio",
          "type": "uint128"
        },
        {
          "internalType": "uint256",
          "name": "_maxTotalSupplyInUsd",
          "type": "uint256"
        }
      ],
      "name": "initialize",
      "outputs": [],
      "stateMutability": "nonpayable",
      "type": "function"
    },
    {
      "inputs": [],
      "name": "isActive",
      "outputs": [
        {
          "internalType": "bool",
          "name": "",
          "type": "bool"
        }
      ],
      "stateMutability": "view",
      "type": "function"
    },
    {
      "inputs": [
        {
          "internalType": "address",
          "name": "",
          "type": "address"
        }
      ],
      "name": "lastDepositOf",
      "outputs": [
        {
          "internalType": "uint256",
          "name": "",
          "type": "uint256"
        }
      ],
      "stateMutability": "view",
      "type": "function"
    },
    {
      "inputs": [
        {
          "internalType": "address",
          "name": "_account",
          "type": "address"
        }
      ],
      "name": "lockedBalanceOf",
      "outputs": [
        {
          "internalType": "uint256",
          "name": "_lockedBalance",
          "type": "uint256"
        }
      ],
      "stateMutability": "view",
      "type": "function"
    },
    {
      "inputs": [],
      "name": "maxTotalSupplyInUsd",
      "outputs": [
        {
          "internalType": "uint256",
          "name": "",
          "type": "uint256"
        }
      ],
      "stateMutability": "view",
      "type": "function"
    },
    {
      "inputs": [],
      "name": "minDepositTime",
      "outputs": [
        {
          "internalType": "uint256",
          "name": "",
          "type": "uint256"
        }
      ],
      "stateMutability": "view",
      "type": "function"
    },
    {
      "inputs": [
        {
          "internalType": "address",
          "name": "_to",
          "type": "address"
        },
        {
          "internalType": "uint256",
          "name": "_amount",
          "type": "uint256"
        }
      ],
      "name": "mint",
      "outputs": [],
      "stateMutability": "nonpayable",
      "type": "function"
    },
    {
      "inputs": [],
      "name": "name",
      "outputs": [
        {
          "internalType": "string",
          "name": "",
          "type": "string"
        }
      ],
      "stateMutability": "view",
      "type": "function"
    },
    {
      "inputs": [
        {
          "internalType": "address",
          "name": "_from",
          "type": "address"
        },
        {
          "internalType": "address",
          "name": "_to",
          "type": "address"
        },
        {
          "internalType": "uint256",
          "name": "_amount",
          "type": "uint256"
        }
      ],
      "name": "seize",
      "outputs": [],
      "stateMutability": "nonpayable",
      "type": "function"
    },
    {
      "inputs": [
        {
          "internalType": "contract IController",
          "name": "_controller",
          "type": "address"
        }
      ],
      "name": "setController",
      "outputs": [],
      "stateMutability": "nonpayable",
      "type": "function"
    },
    {
      "inputs": [],
      "name": "symbol",
      "outputs": [
        {
          "internalType": "string",
          "name": "",
          "type": "string"
        }
      ],
      "stateMutability": "view",
      "type": "function"
    },
    {
      "inputs": [],
      "name": "toggleIsActive",
      "outputs": [],
      "stateMutability": "nonpayable",
      "type": "function"
    },
    {
      "inputs": [],
      "name": "totalSupply",
      "outputs": [
        {
          "internalType": "uint256",
          "name": "",
          "type": "uint256"
        }
      ],
      "stateMutability": "view",
      "type": "function"
    },
    {
      "inputs": [
        {
          "internalType": "address",
          "name": "_to",
          "type": "address"
        },
        {
          "internalType": "uint256",
          "name": "_amount",
          "type": "uint256"
        }
      ],
      "name": "transfer",
      "outputs": [
        {
          "internalType": "bool",
          "name": "",
          "type": "bool"
        }
      ],
      "stateMutability": "nonpayable",
      "type": "function"
    },
    {
      "inputs": [
        {
          "internalType": "address",
          "name": "_sender",
          "type": "address"
        },
        {
          "internalType": "address",
          "name": "_recipient",
          "type": "address"
        },
        {
          "internalType": "uint256",
          "name": "_amount",
          "type": "uint256"
        }
      ],
      "name": "transferFrom",
      "outputs": [
        {
          "internalType": "bool",
          "name": "",
          "type": "bool"
        }
      ],
      "stateMutability": "nonpayable",
      "type": "function"
    },
    {
      "inputs": [],
      "name": "underlying",
      "outputs": [
        {
          "internalType": "contract IERC20",
          "name": "",
          "type": "address"
        }
      ],
      "stateMutability": "view",
      "type": "function"
    },
    {
      "inputs": [
        {
          "internalType": "address",
          "name": "_account",
          "type": "address"
        }
      ],
      "name": "unlockedBalanceOf",
      "outputs": [
        {
          "internalType": "uint256",
          "name": "_unlockedBalance",
          "type": "uint256"
        }
      ],
      "stateMutability": "view",
      "type": "function"
    },
    {
      "inputs": [
        {
          "internalType": "uint128",
          "name": "_newCollateralizationRatio",
          "type": "uint128"
        }
      ],
      "name": "updateCollateralizationRatio",
      "outputs": [],
      "stateMutability": "nonpayable",
      "type": "function"
    },
    {
      "inputs": [
        {
          "internalType": "uint256",
          "name": "_newMaxTotalSupplyInUsd",
          "type": "uint256"
        }
      ],
      "name": "updateMaxTotalSupplyInUsd",
      "outputs": [],
      "stateMutability": "nonpayable",
      "type": "function"
    },
    {
      "inputs": [
        {
          "internalType": "uint256",
          "name": "_newMinDepositTime",
          "type": "uint256"
        }
      ],
      "name": "updateMinDepositTime",
      "outputs": [],
      "stateMutability": "nonpayable",
      "type": "function"
    },
    {
      "inputs": [
        {
          "internalType": "uint256",
          "name": "_amount",
          "type": "uint256"
        },
        {
          "internalType": "address",
          "name": "_to",
          "type": "address"
        }
      ],
      "name": "withdraw",
      "outputs": [],
      "stateMutability": "nonpayable",
      "type": "function"
    }
  ],
  "transactionHash": "0x6478cba72139fc4f3c02fed8f6e3f512b0613b9a0347185ef288e6bf3cb1d8fe",
  "args": [],
  "numDeployments": 1,
  "solcInputHash": "0077a7bd8b2b7c639ec050e1f3a43041",
  "bytecode": "0x608060405234801561001057600080fd5b50613042806100206000396000f3fe608060405234801561001057600080fd5b50600436106101ba5760003560e01c806384955c88116100fa578063c2d275ba1161009d578063c2d275ba1461039e578063d2593329146103b1578063dcaf9c44146103b9578063dd62ed3e146103c2578063ea180f27146103ed578063f46c3c5114610400578063f77c479114610420578063f9bd04e414610433578063ffa1ad741461044657600080fd5b806384955c881461031b57806392eefe9b1461032e578063934472f51461034157806395d89b411461034a5780639dc29fac14610352578063a457c2d714610365578063a9059cbb14610378578063b2a02ff11461038b57600080fd5b80633950935111610162578063395093511461028057806340c10f19146102935780634dac5650146102a657806359355736146102af5780635af52016146102c25780636e553f65146102d55780636f307dc3146102e857806370a08231146102fb57600080fd5b8062f714ce146101bf57806306fdde03146101d4578063095ea7b3146101f25780630c340a241461021557806318160ddd1461022a57806322f3e2d41461024157806323b872dd1461024e578063313ce56714610261575b600080fd5b6101d26101cd366004612897565b61046a565b005b6101dc61085c565b6040516101e991906128f3565b60405180910390f35b610205610200366004612926565b6108ea565b60405190151581526020016101e9565b61021d610901565b6040516101e99190612952565b61023360395481565b6040519081526020016101e9565b603f546102059060ff1681565b61020561025c366004612966565b610983565b60385461026e9060ff1681565b60405160ff90911681526020016101e9565b61020561028e366004612926565b610a4b565b6101d26102a1366004612926565b610a87565b610233603a5481565b6102336102bd3660046129a7565b610ac8565b6101d26102d03660046129c4565b610af6565b6101d26102e3366004612897565b610b90565b603b5461021d906001600160a01b031681565b6102336103093660046129a7565b60346020526000908152604090205481565b6102336103293660046129a7565b611029565b6101d261033c3660046129a7565b6111f4565b610233603d5481565b6101dc6112a4565b6101d2610360366004612926565b6112b1565b610205610373366004612926565b6112ee565b610205610386366004612926565b611379565b6101d2610399366004612966565b611386565b6101d26103ac3660046129f9565b6113c9565b6101d26114ae565b610233603c5481565b6102336103d0366004612a14565b603560209081526000928352604080842090915290825290205481565b6101d26103fb366004612a53565b61153b565b61023361040e3660046129a7565b603e6020526000908152604090205481565b60025461021d906001600160a01b031681565b6101d26104413660046129c4565b611745565b6101dc604051806040016040528060058152602001640312e302e360dc1b81525081565b600260009054906101000a90046001600160a01b03166001600160a01b031663ecf3a3f96040518163ffffffff1660e01b8152600401602060405180830381600087803b1580156104ba57600080fd5b505af11580156104ce573d6000803e3d6000fd5b505050506040513d601f19601f820116820180604052508101906104f29190612b26565b156105335760405162461bcd60e51b815260206004820152600c60248201526b3737ba16b9b43aba3237bbb760a11b60448201526064015b60405180910390fd5b600260015414156105565760405162461bcd60e51b815260040161052a90612b41565b6002600181905554604051633af5be4760e01b81526001600160a01b0390911690633af5be479061058b903090600401612952565b60206040518083038186803b1580156105a357600080fd5b505afa1580156105b7573d6000803e3d6000fd5b505050506040513d601f19601f820116820180604052508101906105db9190612b26565b6105f75760405162461bcd60e51b815260040161052a90612b78565b600082116106175760405162461bcd60e51b815260040161052a90612ba7565b3361062181611029565b8311156106655760405162461bcd60e51b8152602060048201526012602482015271185b5bdd5b9d0b59dd0b5d5b9b1bd8dad95960721b604482015260640161052a565b600254604080516361d027b360e01b815290516000926001600160a01b0316916361d027b3916004808301926020929190829003018186803b1580156106aa57600080fd5b505afa1580156106be573d6000803e3d6000fd5b505050506040513d601f19601f820116820180604052508101906106e29190612bcf565b90506000600260009054906101000a90046001600160a01b03166001600160a01b031663e941fa786040518163ffffffff1660e01b8152600401602060405180830381600087803b15801561073657600080fd5b505af115801561074a573d6000803e3d6000fd5b505050506040513d601f19601f8201168201806040525081019061076e9190612bec565b9050846000821561079d5761078387846117df565b9050610790858583611832565b61079a8183612c1b565b91505b6107a78583611b4c565b60405163f2d5d56b60e01b81526001600160a01b0385169063f2d5d56b906107d59089908690600401612c32565b600060405180830381600087803b1580156107ef57600080fd5b505af1158015610803573d6000803e3d6000fd5b5050604080518a8152602081018590526001600160a01b03808b169450891692507f4700a5c58c58ea6536703185e43dae38bfd4158ee5330c70988f02a65562a36e910160405180910390a35050600180555050505050565b6036805461086990612c4b565b80601f016020809104026020016040519081016040528092919081815260200182805461089590612c4b565b80156108e25780601f106108b7576101008083540402835291602001916108e2565b820191906000526020600020905b8154815290600101906020018083116108c557829003601f168201915b505050505081565b60006108f7338484611bd3565b5060015b92915050565b6002546040805163030d028960e21b815290516000926001600160a01b031691630c340a24916004808301926020929190829003018186803b15801561094657600080fd5b505afa15801561095a573d6000803e3d6000fd5b505050506040513d601f19601f8201168201806040525081019061097e9190612bcf565b905090565b6000600260015414156109a85760405162461bcd60e51b815260040161052a90612b41565b60026001556109b8848484611ce0565b6001600160a01b03841660009081526035602090815260408083203384529091529020546000198114610a3d5782811015610a305760405162461bcd60e51b8152602060048201526018602482015277616d6f756e742d657863656564732d616c6c6f77616e636560401b604482015260640161052a565b610a3d8533858403611bd3565b505060018080559392505050565b3360008181526035602090815260408083206001600160a01b038716845290915281205490916108f7918590610a82908690612c80565b611bd3565b6002546001600160a01b0316336001600160a01b031614610aba5760405162461bcd60e51b815260040161052a90612c98565b610ac48282611d69565b5050565b6000610ad382611029565b6001600160a01b0390921660009081526034602052604090205491909103919050565b610afe610901565b6001600160a01b0316336001600160a01b031614610b2e5760405162461bcd60e51b815260040161052a90612cc0565b603d5481811415610b515760405162461bcd60e51b815260040161052a90612ce6565b60408051828152602081018490527f13a5338cedaf884869364b517145af7d6887a75a5f17c4ff3981cee30b7b68e5910160405180910390a150603d55565b600260009054906101000a90046001600160a01b03166001600160a01b0316635c975abb6040518163ffffffff1660e01b8152600401602060405180830381600087803b158015610be057600080fd5b505af1158015610bf4573d6000803e3d6000fd5b505050506040513d601f19601f82011682018060405250810190610c189190612b26565b15610c4e5760405162461bcd60e51b81526020600482015260066024820152651c185d5cd95960d21b604482015260640161052a565b60026001541415610c715760405162461bcd60e51b815260040161052a90612b41565b6002600155603f5460ff16610c985760405162461bcd60e51b815260040161052a90612d13565b600254604051633af5be4760e01b81526001600160a01b0390911690633af5be4790610cc8903090600401612952565b60206040518083038186803b158015610ce057600080fd5b505afa158015610cf4573d6000803e3d6000fd5b505050506040513d601f19601f82011682018060405250810190610d189190612b26565b610d345760405162461bcd60e51b815260040161052a90612b78565b60008211610d545760405162461bcd60e51b815260040161052a90612ba7565b600254604080516361d027b360e01b8152905133926000926001600160a01b03909116916361d027b391600480820192602092909190829003018186803b158015610d9e57600080fd5b505afa158015610db2573d6000803e3d6000fd5b505050506040513d601f19601f82011682018060405250810190610dd69190612bcf565b603b546040516370a0823160e01b81529192506000916001600160a01b03909116906370a0823190610e0c908590600401612952565b60206040518083038186803b158015610e2457600080fd5b505afa158015610e38573d6000803e3d6000fd5b505050506040513d601f19601f82011682018060405250810190610e5c9190612bec565b603b54909150610e77906001600160a01b031684848861211e565b603b546040516370a0823160e01b815282916001600160a01b0316906370a0823190610ea7908690600401612952565b60206040518083038186803b158015610ebf57600080fd5b505afa158015610ed3573d6000803e3d6000fd5b505050506040513d601f19601f82011682018060405250810190610ef79190612bec565b610f019190612c1b565b94506000600260009054906101000a90046001600160a01b03166001600160a01b03166367a527936040518163ffffffff1660e01b8152600401602060405180830381600087803b158015610f5557600080fd5b505af1158015610f69573d6000803e3d6000fd5b505050506040513d601f19601f82011682018060405250810190610f8d9190612bec565b90508560008215610fbb57610fa288846117df565b9050610fae8582611d69565b610fb88183612c1b565b91505b610fc58783611d69565b866001600160a01b0316866001600160a01b03167f95d16db8c4932fcf5d6de67364791e7178ec505c7d3829a8b34d18959c01552c8a84604051611013929190918252602082015260400190565b60405180910390a3505060018055505050505050565b60025460405163dde3ab9560e01b815260009182916001600160a01b039091169063dde3ab959061105e908690600401612952565b60a06040518083038186803b15801561107657600080fd5b505afa15801561108a573d6000803e3d6000fd5b505050506040513d601f19601f820116820180604052508101906110ae9190612d46565b94505050505060008111156111ee5760006110d4603c548361217e90919063ffffffff16565b6001600160a01b03808616600090815260346020908152604091829020546002548351637556d1c160e11b815293519596506111ea959194169263eaada382926004808301939192829003018186803b15801561113057600080fd5b505afa158015611144573d6000803e3d6000fd5b505050506040513d601f19601f820116820180604052508101906111689190612bcf565b6001600160a01b03166357f1915d30856040518363ffffffff1660e01b8152600401611195929190612c32565b60206040518083038186803b1580156111ad57600080fd5b505afa1580156111c1573d6000803e3d6000fd5b505050506040513d601f19601f820116820180604052508101906111e59190612bec565b61219e565b9250505b50919050565b6111fc610901565b6001600160a01b0316336001600160a01b03161461122c5760405162461bcd60e51b815260040161052a90612cc0565b6001600160a01b0381166112825760405162461bcd60e51b815260206004820152601e60248201527f6e65772d636f6e74726f6c6c65722d616464726573732d69732d7a65726f0000604482015260640161052a565b600280546001600160a01b0319166001600160a01b0392909216919091179055565b6037805461086990612c4b565b6002546001600160a01b0316336001600160a01b0316146112e45760405162461bcd60e51b815260040161052a90612c98565b610ac482826121b4565b3360009081526035602090815260408083206001600160a01b0386168452909152812054828110156113625760405162461bcd60e51b815260206004820152601e60248201527f6465637265617365642d616c6c6f77616e63652d62656c6f772d7a65726f0000604482015260640161052a565b61136f3385858403611bd3565b5060019392505050565b60006108f7338484611ce0565b6002546001600160a01b0316336001600160a01b0316146113b95760405162461bcd60e51b815260040161052a90612c98565b6113c4838383611832565b505050565b6113d1610901565b6001600160a01b0316336001600160a01b0316146114015760405162461bcd60e51b815260040161052a90612cc0565b670de0b6b3a7640000816001600160801b031611156114325760405162461bcd60e51b815260040161052a90612d8d565b603c546001600160801b03821681141561145e5760405162461bcd60e51b815260040161052a90612ce6565b604080518281526001600160801b03841660208201527ff84d4544cfaedc7b1b8b7fa92b1f758aea3e3e69dfb321343825e4dd86f8147a910160405180910390a1506001600160801b0316603c55565b6114b6610901565b6001600160a01b0316336001600160a01b0316146114e65760405162461bcd60e51b815260040161052a90612cc0565b603f546040805160ff9092168015801584526020840152917fe922a12e8e36a37e6ad78a6c8aa4c2d6dec08b3a104e133ada714b606c87ca2e910160405180910390a1603f805460ff19169115919091179055565b600054610100900460ff1680611554575060005460ff16155b6115705760405162461bcd60e51b815260040161052a90612dc4565b600054610100900460ff16158015611592576000805461ffff19166101011790555b6001600160a01b0388166115dd5760405162461bcd60e51b81526020600482015260126024820152711d5b99195c9b1e5a5b99cb5a5ccb5b9d5b1b60721b604482015260640161052a565b6001600160a01b0387166116335760405162461bcd60e51b815260206004820152601a60248201527f636f6e74726f6c6c65722d616464726573732d69732d7a65726f000000000000604482015260640161052a565b670de0b6b3a7640000836001600160801b031611156116645760405162461bcd60e51b815260040161052a90612d8d565b61166c612427565b600280546001600160a01b0319166001600160a01b03891617905560408051808201909152601a8082527f546f6b656e697a6564206465706f73697420706f736974696f6e00000000000060209092019182526116cb91603691612775565b506116d8603787876127f9565b50603b80546001600160a01b0319166001600160a01b038a161790556000603d55603f805460ff199081166001179091556038805490911660ff86161790556001600160801b038316603c55603a829055801561173b576000805461ff00191690555b5050505050505050565b61174d610901565b6001600160a01b0316336001600160a01b03161461177d5760405162461bcd60e51b815260040161052a90612cc0565b603a54818114156117a05760405162461bcd60e51b815260040161052a90612ce6565b60408051828152602081018490527fc58cd6132bb46df23d468939c03dd023b74b509aaa6b04c39d5a6461c65963bd910160405180910390a150603a55565b60008215806117ec575081155b156117f9575060006108fb565b670de0b6b3a764000061180d600282612e12565b6118178486612e34565b6118219190612c80565b61182b9190612e12565b9392505050565b82826000600260009054906101000a90046001600160a01b03166001600160a01b0316633605b51b6040518163ffffffff1660e01b815260040160006040518083038186803b15801561188457600080fd5b505afa158015611898573d6000803e3d6000fd5b505050506040513d6000823e601f3d908101601f191682016040526118c09190810190612e74565b805190915060005b8181101561196a578281815181106118e2576118e2612f39565b602090810291909101015160405163058bd91d60e51b81523060048201526001600160a01b03878116602483015286811660448301529091169063b17b23a090606401600060405180830381600087803b15801561193f57600080fd5b505af1158015611953573d6000803e3d6000fd5b50505050808061196290612f4f565b9150506118c8565b506001600160a01b0387166119c15760405162461bcd60e51b815260206004820152601e60248201527f7472616e736665722d66726f6d2d7468652d7a65726f2d616464726573730000604482015260640161052a565b6001600160a01b038616611a175760405162461bcd60e51b815260206004820152601c60248201527f7472616e736665722d746f2d7468652d7a65726f2d6164647265737300000000604482015260640161052a565b6001600160a01b03871660009081526034602052604090205485811015611a805760405162461bcd60e51b815260206004820152601f60248201527f7472616e736665722d616d6f756e742d657863656564732d62616c616e636500604482015260640161052a565b6001600160a01b03808916600090815260346020526040808220898503905591891681529081208054889290611ab7908490612c80565b92505081905550866001600160a01b0316886001600160a01b0316600080516020612fed83398151915288604051611af191815260200190565b60405180910390a36001600160a01b038716600090815260346020526040902054611b28908890611b23908990612c1b565b612493565b6001600160a01b03881660009081526034602052604090205461173b9089906124f6565b81816000611b5983611029565b905081811015611b7b5760405162461bcd60e51b815260040161052a90612f6a565b603d546001600160a01b0386166000908152603e60205260409020548691611ba291612c80565b421015611bc15760405162461bcd60e51b815260040161052a90612f9b565b611bcb86866121b4565b505050505050565b6001600160a01b038316611c295760405162461bcd60e51b815260206004820152601d60248201527f617070726f76652d66726f6d2d7468652d7a65726f2d61646472657373000000604482015260640161052a565b6001600160a01b038216611c7f5760405162461bcd60e51b815260206004820152601b60248201527f617070726f76652d746f2d7468652d7a65726f2d616464726573730000000000604482015260640161052a565b6001600160a01b0383811660008181526035602090815260408083209487168084529482529182902085905590518481527f8c5be1e5ebec7d5bd14f71427d1e84f3dd0314c0f7b2291e5b200ac8c7c3b925910160405180910390a3505050565b82816000611ced83611029565b905081811015611d0f5760405162461bcd60e51b815260040161052a90612f6a565b603d546001600160a01b0387166000908152603e60205260409020548791611d3691612c80565b421015611d555760405162461bcd60e51b815260040161052a90612f9b565b611d60878787611832565b50505050505050565b603f5460ff16611d8b5760405162461bcd60e51b815260040161052a90612d13565b816000600260009054906101000a90046001600160a01b03166001600160a01b0316633605b51b6040518163ffffffff1660e01b815260040160006040518083038186803b158015611ddc57600080fd5b505afa158015611df0573d6000803e3d6000fd5b505050506040513d6000823e601f3d908101601f19168201604052611e189190810190612e74565b905060005b8151811015611eb757818181518110611e3857611e38612f39565b6020908102919091010151604051626cc3c360e61b81523060048201526001600160a01b03858116602483015290911690631b30f0c090604401600060405180830381600087803b158015611e8c57600080fd5b505af1158015611ea0573d6000803e3d6000fd5b505050508080611eaf90612f4f565b915050611e1d565b506001600160a01b038416611f095760405162461bcd60e51b81526020600482015260186024820152776d696e742d746f2d7468652d7a65726f2d6164647265737360401b604482015260640161052a565b60025460408051637556d1c160e11b815290516000926001600160a01b03169163eaada382916004808301926020929190829003018186803b158015611f4e57600080fd5b505afa158015611f62573d6000803e3d6000fd5b505050506040513d601f19601f82011682018060405250810190611f869190612bcf565b6001600160a01b031663ee9579963086603954611fa39190612c80565b6040518363ffffffff1660e01b8152600401611fc0929190612c32565b60206040518083038186803b158015611fd857600080fd5b505afa158015611fec573d6000803e3d6000fd5b505050506040513d601f19601f820116820180604052508101906120109190612bec565b9050603a5481111561205f5760405162461bcd60e51b8152602060048201526018602482015277737572706173732d6d61782d746f74616c2d737570706c7960401b604482015260640161052a565b6001600160a01b0385166000908152603e602052604081204290556039805486929061208c908490612c80565b90915550506001600160a01b038516600090815260346020526040812080548692906120b9908490612c80565b90915550506040518481526001600160a01b03861690600090600080516020612fed8339815191529060200160405180910390a36001600160a01b038516600090815260346020526040902054612117908690611b23908790612c1b565b5050505050565b604080516001600160a01b0385811660248301528416604482015260648082018490528251808303909101815260849091019091526020810180516001600160e01b03166323b872dd60e01b17905261217890859061252b565b50505050565b60008161218c600282612e12565b611817670de0b6b3a764000086612e34565b60008183106121ad578161182b565b5090919050565b816000600260009054906101000a90046001600160a01b03166001600160a01b0316633605b51b6040518163ffffffff1660e01b815260040160006040518083038186803b15801561220557600080fd5b505afa158015612219573d6000803e3d6000fd5b505050506040513d6000823e601f3d908101601f191682016040526122419190810190612e74565b905060005b81518110156122e05781818151811061226157612261612f39565b6020908102919091010151604051626cc3c360e61b81523060048201526001600160a01b03858116602483015290911690631b30f0c090604401600060405180830381600087803b1580156122b557600080fd5b505af11580156122c9573d6000803e3d6000fd5b5050505080806122d890612f4f565b915050612246565b506001600160a01b0384166123375760405162461bcd60e51b815260206004820152601a60248201527f6275726e2d66726f6d2d7468652d7a65726f2d61646472657373000000000000604482015260640161052a565b6001600160a01b038416600090815260346020526040902054838110156123a05760405162461bcd60e51b815260206004820152601b60248201527f6275726e2d616d6f756e742d657863656564732d62616c616e63650000000000604482015260640161052a565b6001600160a01b03851660009081526034602052604081208583039055603980548692906123cf908490612c1b565b90915550506040518481526000906001600160a01b03871690600080516020612fed8339815191529060200160405180910390a36001600160a01b0385166000908152603460205260409020546121179086906124f6565b600054610100900460ff1680612440575060005460ff16155b61245c5760405162461bcd60e51b815260040161052a90612dc4565b600054610100900460ff1615801561247e576000805461ffff19166101011790555b8015612490576000805461ff00191690555b50565b80610ac457600254604051633f5fc13160e01b81526001600160a01b0390911690633f5fc131906124c8908590600401612952565b600060405180830381600087803b1580156124e257600080fd5b505af1158015611bcb573d6000803e3d6000fd5b80610ac457600254604051630275038d60e41b81526001600160a01b039091169063275038d0906124c8908590600401612952565b6000612580826040518060400160405280602081526020017f5361666545524332303a206c6f772d6c6576656c2063616c6c206661696c6564815250856001600160a01b03166125fd9092919063ffffffff16565b8051909150156113c4578080602001905181019061259e9190612b26565b6113c45760405162461bcd60e51b815260206004820152602a60248201527f5361666545524332303a204552433230206f7065726174696f6e20646964206e6044820152691bdd081cdd58d8d9595960b21b606482015260840161052a565b606061260c8484600085612614565b949350505050565b6060824710156126755760405162461bcd60e51b815260206004820152602660248201527f416464726573733a20696e73756666696369656e742062616c616e636520666f6044820152651c8818d85b1b60d21b606482015260840161052a565b843b6126c35760405162461bcd60e51b815260206004820152601d60248201527f416464726573733a2063616c6c20746f206e6f6e2d636f6e7472616374000000604482015260640161052a565b600080866001600160a01b031685876040516126df9190612fd0565b60006040518083038185875af1925050503d806000811461271c576040519150601f19603f3d011682016040523d82523d6000602084013e612721565b606091505b509150915061273182828661273c565b979650505050505050565b6060831561274b57508161182b565b82511561275b5782518084602001fd5b8160405162461bcd60e51b815260040161052a91906128f3565b82805461278190612c4b565b90600052602060002090601f0160209004810192826127a357600085556127e9565b82601f106127bc57805160ff19168380011785556127e9565b828001600101855582156127e9579182015b828111156127e95782518255916020019190600101906127ce565b506127f592915061286d565b5090565b82805461280590612c4b565b90600052602060002090601f01602090048101928261282757600085556127e9565b82601f106128405782800160ff198235161785556127e9565b828001600101855582156127e9579182015b828111156127e9578235825591602001919060010190612852565b5b808211156127f5576000815560010161286e565b6001600160a01b038116811461249057600080fd5b600080604083850312156128aa57600080fd5b8235915060208301356128bc81612882565b809150509250929050565b60005b838110156128e25781810151838201526020016128ca565b838111156121785750506000910152565b60208152600082518060208401526129128160408501602087016128c7565b601f01601f19169190910160400192915050565b6000806040838503121561293957600080fd5b823561294481612882565b946020939093013593505050565b6001600160a01b0391909116815260200190565b60008060006060848603121561297b57600080fd5b833561298681612882565b9250602084013561299681612882565b929592945050506040919091013590565b6000602082840312156129b957600080fd5b813561182b81612882565b6000602082840312156129d657600080fd5b5035919050565b80356001600160801b03811681146129f457600080fd5b919050565b600060208284031215612a0b57600080fd5b61182b826129dd565b60008060408385031215612a2757600080fd5b8235612a3281612882565b915060208301356128bc81612882565b803560ff811681146129f457600080fd5b600080600080600080600060c0888a031215612a6e57600080fd5b8735612a7981612882565b96506020880135612a8981612882565b9550604088013567ffffffffffffffff80821115612aa657600080fd5b818a0191508a601f830112612aba57600080fd5b813581811115612ac957600080fd5b8b6020828501011115612adb57600080fd5b602083019750809650505050612af360608901612a42565b9250612b01608089016129dd565b915060a0880135905092959891949750929550565b805180151581146129f457600080fd5b600060208284031215612b3857600080fd5b61182b82612b16565b6020808252601f908201527f5265656e7472616e637947756172643a207265656e7472616e742063616c6c00604082015260600190565b60208082526015908201527418dbdb1b185d195c985b0b5a5b995e1a5cdd195b9d605a1b604082015260600190565b6020808252600e908201526d616d6f756e742d69732d7a65726f60901b604082015260600190565b600060208284031215612be157600080fd5b815161182b81612882565b600060208284031215612bfe57600080fd5b5051919050565b634e487b7160e01b600052601160045260246000fd5b600082821015612c2d57612c2d612c05565b500390565b6001600160a01b03929092168252602082015260400190565b600181811c90821680612c5f57607f821691505b602082108114156111ee57634e487b7160e01b600052602260045260246000fd5b60008219821115612c9357612c93612c05565b500190565b6020808252600e908201526d3737ba16b1b7b73a3937b63632b960911b604082015260600190565b6020808252600c908201526b3737ba16b3b7bb32b93737b960a11b604082015260600190565b6020808252601390820152721b995dcb5cd85b594b585ccb58dd5c9c995b9d606a1b604082015260600190565b6020808252601990820152786465706f7369742d746f6b656e2d69732d696e61637469766560381b604082015260600190565b600080600080600060a08688031215612d5e57600080fd5b612d6786612b16565b602087015160408801516060890151608090990151929a91995097965090945092505050565b6020808252601d908201527f636f6c6c61746572697a6174696f6e2d726174696f2d67742d31303025000000604082015260600190565b6020808252602e908201527f496e697469616c697a61626c653a20636f6e747261637420697320616c72656160408201526d191e481a5b9a5d1a585b1a5e995960921b606082015260800190565b600082612e2f57634e487b7160e01b600052601260045260246000fd5b500490565b6000816000190483118215151615612e4e57612e4e612c05565b500290565b634e487b7160e01b600052604160045260246000fd5b80516129f481612882565b60006020808385031215612e8757600080fd5b825167ffffffffffffffff80821115612e9f57600080fd5b818501915085601f830112612eb357600080fd5b815181811115612ec557612ec5612e53565b8060051b604051601f19603f83011681018181108582111715612eea57612eea612e53565b604052918252848201925083810185019188831115612f0857600080fd5b938501935b82851015612f2d57612f1e85612e69565b84529385019392850192612f0d565b98975050505050505050565b634e487b7160e01b600052603260045260246000fd5b6000600019821415612f6357612f63612c05565b5060010190565b6020808252601790820152766e6f742d656e6f7567682d667265652d62616c616e636560481b604082015260600190565b6020808252818101527f6d696e2d6465706f7369742d74696d652d686176652d6e6f742d706173736564604082015260600190565b60008251612fe28184602087016128c7565b919091019291505056feddf252ad1be2c89b69c2b068fc378daa952ba7f163c4a11628f55a4df523b3efa264697066735822122065057226d0ab857fde2cf168bb2cec80d8c6867fc26518ab613732cff0adf63b64736f6c63430008090033",
  "devdoc": {
    "kind": "dev",
    "methods": {
      "burn(address,uint256)": {
        "params": {
          "_amount": "The amount to burn",
          "_from": "The account to burn from"
        }
      },
      "deposit(uint256,address)": {
        "params": {
          "_amount": "The amount of collateral tokens to deposit",
          "_onBehalfOf": "The account to deposit to"
        }
      },
      "lockedBalanceOf(address)": {
        "params": {
          "_account": "The account to check"
        },
        "returns": {
          "_lockedBalance": "The locked amount"
        }
      },
      "mint(address,uint256)": {
        "params": {
          "_amount": "The amount to mint",
          "_to": "The account to mint to"
        }
      },
      "seize(address,address,uint256)": {
        "details": "Same as _transfer",
        "params": {
          "_amount": "The amount to seize",
          "_from": "The account to seize from",
          "_to": "The beneficiary account"
        }
      },
      "setController(address)": {
        "params": {
          "_controller": "The new Controller contract"
        }
      },
      "unlockedBalanceOf(address)": {
        "params": {
          "_account": "The account to check"
        },
        "returns": {
          "_unlockedBalance": "The amount that user can transfer or withdraw"
        }
      },
      "updateCollateralizationRatio(uint128)": {
        "params": {
          "_newCollateralizationRatio": "The new CR value"
        }
      },
      "updateMaxTotalSupplyInUsd(uint256)": {
        "params": {
          "_newMaxTotalSupplyInUsd": "The new max total supply"
        }
      },
      "withdraw(uint256,address)": {
        "params": {
          "_amount": "The amount of collateral to withdraw",
          "_to": "The account that will receive withdrawn collateral"
        }
      }
    },
    "title": "Represents the users' deposits",
    "version": 1
  },
  "userdoc": {
    "events": {
      "CollateralDeposited(address,address,uint256,uint256)": {
        "notice": "Emitted when collateral is deposited"
      },
      "CollateralWithdrawn(address,address,uint256,uint256)": {
        "notice": "Emitted when collateral is withdrawn"
      },
      "CollateralizationRatioUpdated(uint256,uint256)": {
        "notice": "Emitted when CR is updated"
      },
      "DepositTokenActiveUpdated(bool,bool)": {
        "notice": "Emitted when active flag is updated"
      },
      "MaxTotalSupplyUpdated(uint256,uint256)": {
        "notice": "Emitted when max total supply is updated"
      },
      "MinDepositTimeUpdated(uint256,uint256)": {
        "notice": "Emitted when minimum deposit time is updated"
      }
    },
    "kind": "user",
    "methods": {
      "burn(address,uint256)": {
        "notice": "Burn deposit tokens"
      },
      "collateralizationRatio()": {
        "notice": "Collaterization ration for the deposit token"
      },
      "controller()": {
        "notice": "Controller contract"
      },
      "deposit(uint256,address)": {
        "notice": "Deposit colleteral and mint vsdTOKEN (tokenized deposit position)"
      },
      "isActive()": {
        "notice": "If a collateral isn't active, it disables minting new tokens"
      },
      "lastDepositOf(address)": {
        "notice": "Stores de timestamp of last deposit event of each account. It's used combined with `minDepositTime`."
      },
      "lockedBalanceOf(address)": {
        "notice": "Get the locked balance"
      },
      "minDepositTime()": {
        "notice": "The min amount of time that an account should wait after deposit collateral before be able to withdraw"
      },
      "mint(address,uint256)": {
        "notice": "Mint deposit token when an account deposits collateral"
      },
      "seize(address,address,uint256)": {
        "notice": "Seize tokens"
      },
      "setController(address)": {
        "notice": "Update Controller contract"
      },
      "toggleIsActive()": {
        "notice": "Enable/Disable the Deposit Token"
      },
      "underlying()": {
        "notice": "Deposit underlying asset (e.g. MET)"
      },
      "unlockedBalanceOf(address)": {
        "notice": "Get the unlocked balance (i.e. transfarable, withdrawable)"
      },
      "updateCollateralizationRatio(uint128)": {
        "notice": "Update collateralization ratio"
      },
      "updateMaxTotalSupplyInUsd(uint256)": {
        "notice": "Update max total supply"
      },
      "updateMinDepositTime(uint256)": {
        "notice": "Update minimum deposit time"
      },
      "withdraw(uint256,address)": {
        "notice": "Burn vsdTOKEN and withdraw collateral"
      }
    },
    "version": 1
  },
  "storageLayout": {
    "storage": [
      {
        "astId": 7181,
        "contract": "contracts/DepositToken.sol:DepositToken",
        "label": "_initialized",
        "offset": 0,
        "slot": "0",
        "type": "t_bool"
      },
      {
        "astId": 7184,
        "contract": "contracts/DepositToken.sol:DepositToken",
        "label": "_initializing",
        "offset": 1,
        "slot": "0",
        "type": "t_bool"
      },
      {
        "astId": 7235,
        "contract": "contracts/DepositToken.sol:DepositToken",
        "label": "_status",
        "offset": 0,
        "slot": "1",
        "type": "t_uint256"
      },
      {
        "astId": 6152,
        "contract": "contracts/DepositToken.sol:DepositToken",
        "label": "controller",
        "offset": 0,
        "slot": "2",
        "type": "t_contract(IController)10865"
      },
      {
        "astId": 6260,
        "contract": "contracts/DepositToken.sol:DepositToken",
        "label": "__gap",
        "offset": 0,
        "slot": "3",
        "type": "t_array(t_uint256)49_storage"
      },
      {
        "astId": 14822,
        "contract": "contracts/DepositToken.sol:DepositToken",
        "label": "balanceOf",
        "offset": 0,
        "slot": "52",
        "type": "t_mapping(t_address,t_uint256)"
      },
      {
        "astId": 14828,
        "contract": "contracts/DepositToken.sol:DepositToken",
        "label": "allowance",
        "offset": 0,
        "slot": "53",
        "type": "t_mapping(t_address,t_mapping(t_address,t_uint256))"
      },
      {
        "astId": 14830,
        "contract": "contracts/DepositToken.sol:DepositToken",
        "label": "name",
        "offset": 0,
        "slot": "54",
        "type": "t_string_storage"
      },
      {
        "astId": 14832,
        "contract": "contracts/DepositToken.sol:DepositToken",
        "label": "symbol",
        "offset": 0,
        "slot": "55",
        "type": "t_string_storage"
      },
      {
        "astId": 14834,
        "contract": "contracts/DepositToken.sol:DepositToken",
        "label": "decimals",
        "offset": 0,
        "slot": "56",
        "type": "t_uint8"
      },
      {
        "astId": 14836,
        "contract": "contracts/DepositToken.sol:DepositToken",
        "label": "totalSupply",
        "offset": 0,
        "slot": "57",
        "type": "t_uint256"
      },
      {
        "astId": 14838,
        "contract": "contracts/DepositToken.sol:DepositToken",
        "label": "maxTotalSupplyInUsd",
        "offset": 0,
        "slot": "58",
        "type": "t_uint256"
      },
      {
        "astId": 14842,
        "contract": "contracts/DepositToken.sol:DepositToken",
        "label": "underlying",
        "offset": 0,
        "slot": "59",
        "type": "t_contract(IERC20)7890"
      },
      {
        "astId": 14845,
        "contract": "contracts/DepositToken.sol:DepositToken",
        "label": "collateralizationRatio",
        "offset": 0,
        "slot": "60",
        "type": "t_uint256"
      },
      {
        "astId": 14848,
        "contract": "contracts/DepositToken.sol:DepositToken",
        "label": "minDepositTime",
        "offset": 0,
        "slot": "61",
        "type": "t_uint256"
      },
      {
        "astId": 14853,
        "contract": "contracts/DepositToken.sol:DepositToken",
        "label": "lastDepositOf",
        "offset": 0,
        "slot": "62",
        "type": "t_mapping(t_address,t_uint256)"
      },
      {
        "astId": 14856,
        "contract": "contracts/DepositToken.sol:DepositToken",
        "label": "isActive",
        "offset": 0,
        "slot": "63",
        "type": "t_bool"
      }
    ],
    "types": {
      "t_address": {
        "encoding": "inplace",
        "label": "address",
        "numberOfBytes": "20"
      },
      "t_array(t_uint256)49_storage": {
        "base": "t_uint256",
        "encoding": "inplace",
        "label": "uint256[49]",
        "numberOfBytes": "1568"
      },
      "t_bool": {
        "encoding": "inplace",
        "label": "bool",
        "numberOfBytes": "1"
      },
      "t_contract(IController)10865": {
        "encoding": "inplace",
        "label": "contract IController",
        "numberOfBytes": "20"
      },
      "t_contract(IERC20)7890": {
        "encoding": "inplace",
        "label": "contract IERC20",
        "numberOfBytes": "20"
      },
      "t_mapping(t_address,t_mapping(t_address,t_uint256))": {
        "encoding": "mapping",
        "key": "t_address",
        "label": "mapping(address => mapping(address => uint256))",
        "numberOfBytes": "32",
        "value": "t_mapping(t_address,t_uint256)"
      },
      "t_mapping(t_address,t_uint256)": {
        "encoding": "mapping",
        "key": "t_address",
        "label": "mapping(address => uint256)",
        "numberOfBytes": "32",
        "value": "t_uint256"
      },
      "t_string_storage": {
        "encoding": "bytes",
        "label": "string",
        "numberOfBytes": "32"
      },
      "t_uint256": {
        "encoding": "inplace",
        "label": "uint256",
        "numberOfBytes": "32"
      },
      "t_uint8": {
        "encoding": "inplace",
        "label": "uint8",
        "numberOfBytes": "1"
      }
    }
  }
}