{
  "address": "0xAa7584C7d375694B4351e520Af1097D9a36fCee2",
  "abi": [
    {
      "anonymous": false,
      "inputs": [
        {
          "indexed": true,
          "internalType": "contract IERC20",
          "name": "asset",
          "type": "address"
        },
        {
          "indexed": false,
          "internalType": "enum DefaultOracle.Protocol",
          "name": "protocol",
          "type": "uint8"
        },
        {
          "indexed": false,
          "internalType": "bytes",
          "name": "assetData",
          "type": "bytes"
        },
        {
          "indexed": false,
          "internalType": "bool",
          "name": "isUsd",
          "type": "bool"
        },
        {
          "indexed": false,
          "internalType": "uint256",
          "name": "stalePeriod",
          "type": "uint256"
        }
      ],
      "name": "AssetUpdated",
      "type": "event"
    },
    {
      "anonymous": false,
      "inputs": [
        {
          "indexed": false,
          "internalType": "enum DefaultOracle.Protocol",
          "name": "protocol",
          "type": "uint8"
        },
        {
          "indexed": false,
          "internalType": "contract IPriceProvider",
          "name": "oldPriceProvider",
          "type": "address"
        },
        {
          "indexed": false,
          "internalType": "contract IPriceProvider",
          "name": "newPriceProvider",
          "type": "address"
        }
      ],
      "name": "PriceProviderUpdated",
      "type": "event"
    },
    {
      "anonymous": false,
      "inputs": [
        {
          "indexed": true,
          "internalType": "address",
          "name": "previousGovernor",
          "type": "address"
        },
        {
          "indexed": true,
          "internalType": "address",
          "name": "proposedGovernor",
          "type": "address"
        }
      ],
      "name": "UpdatedGovernor",
      "type": "event"
    },
    {
      "inputs": [],
      "name": "ONE_USD",
      "outputs": [
        {
          "internalType": "uint256",
          "name": "",
          "type": "uint256"
        }
      ],
      "stateMutability": "view",
      "type": "function"
    },
    {
      "inputs": [],
      "name": "acceptGovernorship",
      "outputs": [],
      "stateMutability": "nonpayable",
      "type": "function"
    },
    {
      "inputs": [
        {
          "internalType": "contract IERC20Metadata",
          "name": "_asset",
          "type": "address"
        },
        {
          "internalType": "address",
          "name": "_aggregator",
          "type": "address"
        },
        {
          "internalType": "uint256",
          "name": "_stalePeriod",
          "type": "uint256"
        }
      ],
      "name": "addOrUpdateAssetThatUsesChainlink",
      "outputs": [],
      "stateMutability": "nonpayable",
      "type": "function"
    },
    {
      "inputs": [
        {
          "internalType": "contract IERC20",
          "name": "_asset",
          "type": "address"
        },
        {
          "internalType": "contract IERC20",
          "name": "_underlying",
          "type": "address"
        },
        {
          "internalType": "uint256",
          "name": "_stalePeriod",
          "type": "uint256"
        }
      ],
      "name": "addOrUpdateAssetThatUsesUniswapV2",
      "outputs": [],
      "stateMutability": "nonpayable",
      "type": "function"
    },
    {
      "inputs": [
        {
          "internalType": "contract IERC20",
          "name": "_asset",
          "type": "address"
        },
        {
          "internalType": "contract IERC20",
          "name": "_underlying",
          "type": "address"
        }
      ],
      "name": "addOrUpdateAssetThatUsesUniswapV3",
      "outputs": [],
      "stateMutability": "nonpayable",
      "type": "function"
    },
    {
      "inputs": [
        {
          "internalType": "contract IERC20",
          "name": "_asset",
          "type": "address"
        }
      ],
      "name": "addOrUpdateUsdAsset",
      "outputs": [],
      "stateMutability": "nonpayable",
      "type": "function"
    },
    {
      "inputs": [
        {
          "internalType": "contract IERC20",
          "name": "",
          "type": "address"
        }
      ],
      "name": "assets",
      "outputs": [
        {
          "internalType": "enum DefaultOracle.Protocol",
          "name": "protocol",
          "type": "uint8"
        },
        {
          "internalType": "bytes",
          "name": "assetData",
          "type": "bytes"
        },
        {
          "internalType": "bool",
          "name": "isUsd",
          "type": "bool"
        },
        {
          "internalType": "uint256",
          "name": "stalePeriod",
          "type": "uint256"
        }
      ],
      "stateMutability": "view",
      "type": "function"
    },
    {
      "inputs": [
        {
          "internalType": "contract IERC20",
          "name": "_asset",
          "type": "address"
        }
      ],
      "name": "getPriceInUsd",
      "outputs": [
        {
          "internalType": "uint256",
          "name": "_priceInUsd",
          "type": "uint256"
        }
      ],
      "stateMutability": "view",
      "type": "function"
    },
    {
      "inputs": [],
      "name": "governor",
      "outputs": [
        {
          "internalType": "address",
          "name": "",
          "type": "address"
        }
      ],
      "stateMutability": "view",
      "type": "function"
    },
    {
      "inputs": [],
      "name": "proposedGovernor",
      "outputs": [
        {
          "internalType": "address",
          "name": "",
          "type": "address"
        }
      ],
      "stateMutability": "view",
      "type": "function"
    },
    {
      "inputs": [
        {
          "internalType": "enum DefaultOracle.Protocol",
          "name": "",
          "type": "uint8"
        }
      ],
      "name": "providerByProtocol",
      "outputs": [
        {
          "internalType": "contract IPriceProvider",
          "name": "",
          "type": "address"
        }
      ],
      "stateMutability": "view",
      "type": "function"
    },
    {
      "inputs": [
        {
          "internalType": "enum DefaultOracle.Protocol",
          "name": "_protocol",
          "type": "uint8"
        },
        {
          "internalType": "contract IPriceProvider",
          "name": "_priceProvider",
          "type": "address"
        }
      ],
      "name": "setPriceProvider",
      "outputs": [],
      "stateMutability": "nonpayable",
      "type": "function"
    },
    {
      "inputs": [
        {
          "internalType": "address",
          "name": "_proposedGovernor",
          "type": "address"
        }
      ],
      "name": "transferGovernorship",
      "outputs": [],
      "stateMutability": "nonpayable",
      "type": "function"
    },
    {
      "inputs": [
        {
          "internalType": "contract IERC20",
          "name": "_asset",
          "type": "address"
        }
      ],
      "name": "update",
      "outputs": [],
      "stateMutability": "nonpayable",
      "type": "function"
    }
  ],
  "transactionHash": "0x1e912a95394fefde3b486a4a05af32034022c310e762673e542376e13674e425",
  "args": [],
  "numDeployments": 2,
  "solcInputHash": "9d493da7ad7feb9d41baa9f03a4d1394",
  "bytecode": "0x608060405234801561001057600080fd5b506000805462010000600160b01b03191633620100008102919091178255604051909182917fd4459d5b8b913cab0244230fd9b1c08b6ceace7fe9230e60d0f74cbffdf849d0908290a35061116b8061006a6000396000f3fe608060405234801561001057600080fd5b50600436106100ca5760003560e01c80637b60e2671161007c5780637b60e267146101785780638a11a3701461018b578063b6aa515b1461019e578063bbcb75c6146101b1578063d6d88396146101c4578063f11b8188146101ed578063f3b27bc31461021057600080fd5b806307ee40bf146100cf5780630c340a24146100f55780630fd012281461011b5780631c1b8772146101305780635b919f3d1461014357806367781c0e1461015657806370eb205e14610165575b600080fd5b6100e26100dd366004610e10565b610218565b6040519081526020015b60405180910390f35b60005461010e906201000090046001600160a01b031681565b6040516100ec9190610e34565b61012e610129366004610e5c565b6103d7565b005b61012e61013e366004610e10565b61057e565b61012e610151366004610e93565b610622565b6100e2670de0b6b3a764000081565b61012e610173366004610e10565b6106ac565b61012e610186366004610ed4565b6106fd565b60015461010e906001600160a01b031681565b61012e6101ac366004610e10565b610788565b61012e6101bf366004610e93565b61082d565b61010e6101d2366004610ef2565b6003602052600090815260409020546001600160a01b031681565b6102006101fb366004610e10565b610977565b6040516100ec9493929190610f92565b61012e610a30565b6001600160a01b038116600090815260026020819052604082200154829060ff168061026f57506001600160a01b03811660009081526002602052604081205460ff16600381111561026c5761026c610f0d565b14155b6102c05760405162461bcd60e51b815260206004820152601b60248201527f61737365742d6861732d6e6f2d70726963652d70726f7669646572000000000060448201526064015b60405180910390fd5b6001600160a01b0383166000908152600260208190526040909120015460ff16156102f557670de0b6b3a764000091506103d1565b600061030084610afe565b6001600160a01b031663b826844361031786610b60565b6040518263ffffffff1660e01b81526004016103339190610fc5565b604080518083038186803b15801561034a57600080fd5b505afa15801561035e573d6000803e3d6000fd5b505050506040513d601f19601f820116820180604052508101906103829190610fd8565b90935090506103918482610c0f565b156103cf5760405162461bcd60e51b815260206004820152600e60248201526d70726963652d69732d7374616c6560901b60448201526064016102b7565b505b50919050565b6000546001600160a01b03620100009091041633146104085760405162461bcd60e51b81526004016102b790610ffc565b6001600160a01b0381166104565760405162461bcd60e51b81526020600482015260156024820152741c1c9bdd9a59195c8b5859191c995cdccb5b9d5b1b605a1b60448201526064016102b7565b60006003600084600381111561046e5761046e610f0d565b600381111561047f5761047f610f0d565b81526020810191909152604001600020546001600160a01b03908116915082168114156104e45760405162461bcd60e51b81526020600482015260136024820152721b995dcb5cd85b594b585ccb58dd5c9c995b9d606a1b60448201526064016102b7565b81600360008560038111156104fb576104fb610f0d565b600381111561050c5761050c610f0d565b815260200190815260200160002060006101000a8154816001600160a01b0302191690836001600160a01b031602179055507f6d8522a73cf263ee8c1097d5bd32695416c18e9df8cfc47b646f465297177f8e83828460405161057193929190611022565b60405180910390a1505050565b6001600160a01b03811660009081526002602052604081205460ff1660038111156105ab576105ab610f0d565b1461061f576105b981610afe565b6001600160a01b031663c43ed2c86105d083610b60565b6040518263ffffffff1660e01b81526004016105ec9190610fc5565b600060405180830381600087803b15801561060657600080fd5b505af115801561061a573d6000803e3d6000fd5b505050505b50565b6000546001600160a01b03620100009091041633146106535760405162461bcd60e51b81526004016102b790610ffc565b6001600160a01b0382166106795760405162461bcd60e51b81526004016102b790611052565b6106a7836002846040516020016106909190610e34565b604051602081830303815290604052600085610c3d565b505050565b6000546001600160a01b03620100009091041633146106dd5760405162461bcd60e51b81526004016102b790610ffc565b6040805160008082526020820190925261061f9183916001600019610c3d565b6000546001600160a01b036201000090910416331461072e5760405162461bcd60e51b81526004016102b790610ffc565b6001600160a01b0381166107545760405162461bcd60e51b81526004016102b790611052565b6107848260018360405160200161076b9190610e34565b6040516020818303038152906040526000600019610c3d565b5050565b6000546001600160a01b03620100009091041633146107b95760405162461bcd60e51b81526004016102b790610ffc565b6001600160a01b03811661080b5760405162461bcd60e51b815260206004820152601960248201527870726f706f7365642d676f7665726e6f722d69732d7a65726f60381b60448201526064016102b7565b600180546001600160a01b0319166001600160a01b0392909216919091179055565b6000546001600160a01b036201000090910416331461085e5760405162461bcd60e51b81526004016102b790610ffc565b6001600160a01b0383166108845760405162461bcd60e51b81526004016102b790611089565b6001600160a01b0382166108da5760405162461bcd60e51b815260206004820152601a60248201527f61676772656761746f722d616464726573732d69732d6e756c6c00000000000060448201526064016102b7565b6106a783600384866001600160a01b031663313ce5676040518163ffffffff1660e01b815260040160206040518083038186803b15801561091a57600080fd5b505afa15801561092e573d6000803e3d6000fd5b505050506040513d601f19601f8201168201806040525081019061095291906110b8565b604080516001600160a01b03909316602084015260ff90911690820152606001610690565b6002602052600090815260409020805460018201805460ff909216929161099d906110db565b80601f01602080910402602001604051908101604052809291908181526020018280546109c9906110db565b8015610a165780601f106109eb57610100808354040283529160200191610a16565b820191906000526020600020905b8154815290600101906020018083116109f957829003601f168201915b505050506002830154600390930154919260ff1691905084565b6001546001600160a01b03163314610a865760405162461bcd60e51b81526020600482015260196024820152783737ba16ba343296b83937b837b9b2b216b3b7bb32b93737b960391b60448201526064016102b7565b600154600080546040516001600160a01b039384169362010000909204909116917fd4459d5b8b913cab0244230fd9b1c08b6ceace7fe9230e60d0f74cbffdf849d091a3600180546000805462010000600160b01b0319166001600160a01b03831662010000021790556001600160a01b0319169055565b6001600160a01b038116600090815260026020526040812054600390829060ff1682811115610b2f57610b2f610f0d565b6003811115610b4057610b40610f0d565b81526020810191909152604001600020546001600160a01b031692915050565b6001600160a01b0381166000908152600260205260409020600101805460609190610b8a906110db565b80601f0160208091040260200160405190810160405280929190818152602001828054610bb6906110db565b8015610c035780601f10610bd857610100808354040283529160200191610c03565b820191906000526020600020905b815481529060010190602001808311610be657829003601f168201915b50505050509050919050565b6001600160a01b038216600090815260026020526040812060030154610c358342611110565b119392505050565b6001600160a01b038516610c635760405162461bcd60e51b81526004016102b790611089565b6040518060800160405280856003811115610c8057610c80610f0d565b8152602080820186905284151560408084019190915260609092018490526001600160a01b038816600090815260029091522081518154829060ff19166001836003811115610cd157610cd1610f0d565b02179055506020828101518051610cee9260018501920190610d62565b5060408281015160028301805460ff1916911515919091179055606090920151600390910155516001600160a01b038616907f69ae030a9c1ed4bbd36dad4672404e234c548ed7e64bbe08ef17e30c05f860a090610d53908790879087908790610f92565b60405180910390a25050505050565b828054610d6e906110db565b90600052602060002090601f016020900481019282610d905760008555610dd6565b82601f10610da957805160ff1916838001178555610dd6565b82800160010185558215610dd6579182015b82811115610dd6578251825591602001919060010190610dbb565b50610de2929150610de6565b5090565b5b80821115610de25760008155600101610de7565b6001600160a01b038116811461061f57600080fd5b600060208284031215610e2257600080fd5b8135610e2d81610dfb565b9392505050565b6001600160a01b0391909116815260200190565b803560048110610e5757600080fd5b919050565b60008060408385031215610e6f57600080fd5b610e7883610e48565b91506020830135610e8881610dfb565b809150509250929050565b600080600060608486031215610ea857600080fd5b8335610eb381610dfb565b92506020840135610ec381610dfb565b929592945050506040919091013590565b60008060408385031215610ee757600080fd5b8235610e7881610dfb565b600060208284031215610f0457600080fd5b610e2d82610e48565b634e487b7160e01b600052602160045260246000fd5b60048110610f4157634e487b7160e01b600052602160045260246000fd5b9052565b6000815180845260005b81811015610f6b57602081850181015186830182015201610f4f565b81811115610f7d576000602083870101525b50601f01601f19169290920160200192915050565b610f9c8186610f23565b608060208201526000610fb26080830186610f45565b9315156040830152506060015292915050565b602081526000610e2d6020830184610f45565b60008060408385031215610feb57600080fd5b505080516020909101519092909150565b6020808252600c908201526b3737ba16b3b7bb32b93737b960a11b604082015260600190565b606081016110308286610f23565b6001600160a01b03938416602083015291909216604090920191909152919050565b6020808252601a908201527f756e6465726c79696e672d616464726573732d69732d6e756c6c000000000000604082015260600190565b602080825260159082015274185cdcd95d0b5859191c995cdccb5a5ccb5b9d5b1b605a1b604082015260600190565b6000602082840312156110ca57600080fd5b815160ff81168114610e2d57600080fd5b600181811c908216806110ef57607f821691505b602082108114156103d157634e487b7160e01b600052602260045260246000fd5b60008282101561113057634e487b7160e01b600052601160045260246000fd5b50039056fea2646970667358221220f267845865e628c4b8c6706ff1c7cec73c1d2391157e823e7d8c1b4925b3466164736f6c63430008090033",
  "devdoc": {
    "kind": "dev",
    "methods": {
      "acceptGovernorship()": {
        "details": "Allows new governor to accept governorship of the contract."
      },
      "addOrUpdateAssetThatUsesChainlink(address,address,uint256)": {
        "params": {
          "_aggregator": "The asset's chainlink aggregator contract",
          "_asset": "The asset to store",
          "_stalePeriod": "The stale period"
        }
      },
      "addOrUpdateAssetThatUsesUniswapV2(address,address,uint256)": {
        "params": {
          "_asset": "The asset to store",
          "_stalePeriod": "The stale period",
          "_underlying": "The actual asset to get prices from (e.g. vsETH uses WETH)"
        }
      },
      "addOrUpdateAssetThatUsesUniswapV3(address,address)": {
        "details": "This function is also used for update a asset setup",
        "params": {
          "_asset": "The asset to store",
          "_underlying": "The actual asset to get prices from (e.g. vsETH uses WETH)"
        }
      },
      "addOrUpdateUsdAsset(address)": {
        "params": {
          "_asset": "The asset to store"
        }
      },
      "getPriceInUsd(address)": {
        "params": {
          "_asset": "The asset's to get price from"
        },
        "returns": {
          "_priceInUsd": "The amount in USD (18 decimals)"
        }
      },
      "setPriceProvider(uint8,address)": {
        "details": "This function is also used for update a price provider",
        "params": {
          "_priceProvider": "The price provider protocol",
          "_protocol": "The protocol"
        }
      },
      "transferGovernorship(address)": {
        "details": "Transfers governorship of the contract to a new account (`proposedGovernor`). Can only be called by the current owner."
      },
      "update(address)": {
        "params": {
          "_asset": "The asset to update"
        }
      }
    },
    "title": "Oracle contract that encapsulates 3rd-party protocols' oracles",
    "version": 1
  },
  "userdoc": {
    "events": {
      "AssetUpdated(address,uint8,bytes,bool,uint256)": {
        "notice": "Emitted when asset setup is updated"
      },
      "PriceProviderUpdated(uint8,address,address)": {
        "notice": "Emitted when a price provider is updated"
      }
    },
    "kind": "user",
    "methods": {
      "addOrUpdateAssetThatUsesChainlink(address,address,uint256)": {
        "notice": "Store an asset that uses Chainlink source of price"
      },
      "addOrUpdateAssetThatUsesUniswapV2(address,address,uint256)": {
        "notice": "Store an asset that uses UniswapV2 source of price"
      },
      "addOrUpdateAssetThatUsesUniswapV3(address,address)": {
        "notice": "Store an asset that uses UniswapV3 source of price"
      },
      "addOrUpdateUsdAsset(address)": {
        "notice": "Store an USD asset (no protocol)"
      },
      "assets(address)": {
        "notice": "Avaliable assets"
      },
      "getPriceInUsd(address)": {
        "notice": "Get asset's USD price"
      },
      "providerByProtocol(uint8)": {
        "notice": "Get the price provider contract for each protocol"
      },
      "setPriceProvider(uint8,address)": {
        "notice": "Set the price provider of a protocol"
      },
      "update(address)": {
        "notice": "Update a asset's price"
      }
    },
    "version": 1
  },
  "storageLayout": {
    "storage": [
      {
        "astId": 7184,
        "contract": "contracts/oracle/DefaultOracle.sol:DefaultOracle",
        "label": "_initialized",
        "offset": 0,
        "slot": "0",
        "type": "t_bool"
      },
      {
        "astId": 7187,
        "contract": "contracts/oracle/DefaultOracle.sol:DefaultOracle",
        "label": "_initializing",
        "offset": 1,
        "slot": "0",
        "type": "t_bool"
      },
      {
        "astId": 6020,
        "contract": "contracts/oracle/DefaultOracle.sol:DefaultOracle",
        "label": "governor",
        "offset": 2,
        "slot": "0",
        "type": "t_address"
      },
      {
        "astId": 6022,
        "contract": "contracts/oracle/DefaultOracle.sol:DefaultOracle",
        "label": "proposedGovernor",
        "offset": 0,
        "slot": "1",
        "type": "t_address"
      },
      {
        "astId": 13048,
        "contract": "contracts/oracle/DefaultOracle.sol:DefaultOracle",
        "label": "assets",
        "offset": 0,
        "slot": "2",
        "type": "t_mapping(t_contract(IERC20)7893,t_struct(Asset)13041_storage)"
      },
      {
        "astId": 13055,
        "contract": "contracts/oracle/DefaultOracle.sol:DefaultOracle",
        "label": "providerByProtocol",
        "offset": 0,
        "slot": "3",
        "type": "t_mapping(t_enum(Protocol)13031,t_contract(IPriceProvider)11359)"
      }
    ],
    "types": {
      "t_address": {
        "encoding": "inplace",
        "label": "address",
        "numberOfBytes": "20"
      },
      "t_bool": {
        "encoding": "inplace",
        "label": "bool",
        "numberOfBytes": "1"
      },
      "t_bytes_storage": {
        "encoding": "bytes",
        "label": "bytes",
        "numberOfBytes": "32"
      },
      "t_contract(IERC20)7893": {
        "encoding": "inplace",
        "label": "contract IERC20",
        "numberOfBytes": "20"
      },
      "t_contract(IPriceProvider)11359": {
        "encoding": "inplace",
        "label": "contract IPriceProvider",
        "numberOfBytes": "20"
      },
      "t_enum(Protocol)13031": {
        "encoding": "inplace",
        "label": "enum DefaultOracle.Protocol",
        "numberOfBytes": "1"
      },
      "t_mapping(t_contract(IERC20)7893,t_struct(Asset)13041_storage)": {
        "encoding": "mapping",
        "key": "t_contract(IERC20)7893",
        "label": "mapping(contract IERC20 => struct DefaultOracle.Asset)",
        "numberOfBytes": "32",
        "value": "t_struct(Asset)13041_storage"
      },
      "t_mapping(t_enum(Protocol)13031,t_contract(IPriceProvider)11359)": {
        "encoding": "mapping",
        "key": "t_enum(Protocol)13031",
        "label": "mapping(enum DefaultOracle.Protocol => contract IPriceProvider)",
        "numberOfBytes": "32",
        "value": "t_contract(IPriceProvider)11359"
      },
      "t_struct(Asset)13041_storage": {
        "encoding": "inplace",
        "label": "struct DefaultOracle.Asset",
        "members": [
          {
            "astId": 13034,
            "contract": "contracts/oracle/DefaultOracle.sol:DefaultOracle",
            "label": "protocol",
            "offset": 0,
            "slot": "0",
            "type": "t_enum(Protocol)13031"
          },
          {
            "astId": 13036,
            "contract": "contracts/oracle/DefaultOracle.sol:DefaultOracle",
            "label": "assetData",
            "offset": 0,
            "slot": "1",
            "type": "t_bytes_storage"
          },
          {
            "astId": 13038,
            "contract": "contracts/oracle/DefaultOracle.sol:DefaultOracle",
            "label": "isUsd",
            "offset": 0,
            "slot": "2",
            "type": "t_bool"
          },
          {
            "astId": 13040,
            "contract": "contracts/oracle/DefaultOracle.sol:DefaultOracle",
            "label": "stalePeriod",
            "offset": 0,
            "slot": "3",
            "type": "t_uint256"
          }
        ],
        "numberOfBytes": "128"
      },
      "t_uint256": {
        "encoding": "inplace",
        "label": "uint256",
        "numberOfBytes": "32"
      }
    }
  }
}