{
  "address": "0x602F56453cdBf7C3Cd1a82F114Ae61c71Ed5c29F",
  "abi": [
    {
      "inputs": [
        {
          "internalType": "contract IWETH",
          "name": "_nativeToken",
          "type": "address"
        }
      ],
      "stateMutability": "nonpayable",
      "type": "constructor"
    },
    {
      "anonymous": false,
      "inputs": [
        {
          "indexed": true,
          "internalType": "address",
          "name": "previousGovernor",
          "type": "address"
        },
        {
          "indexed": true,
          "internalType": "address",
          "name": "proposedGovernor",
          "type": "address"
        }
      ],
      "name": "UpdatedGovernor",
      "type": "event"
    },
    {
      "stateMutability": "payable",
      "type": "fallback"
    },
    {
      "inputs": [],
      "name": "acceptGovernorship",
      "outputs": [],
      "stateMutability": "nonpayable",
      "type": "function"
    },
    {
      "inputs": [
        {
          "internalType": "contract IController",
          "name": "_controller",
          "type": "address"
        }
      ],
      "name": "deposit",
      "outputs": [],
      "stateMutability": "payable",
      "type": "function"
    },
    {
      "inputs": [
        {
          "internalType": "contract IERC20",
          "name": "_token",
          "type": "address"
        },
        {
          "internalType": "address",
          "name": "_to",
          "type": "address"
        },
        {
          "internalType": "uint256",
          "name": "_amount",
          "type": "uint256"
        }
      ],
      "name": "emergencyTokenTransfer",
      "outputs": [],
      "stateMutability": "nonpayable",
      "type": "function"
    },
    {
      "inputs": [],
      "name": "governor",
      "outputs": [
        {
          "internalType": "address",
          "name": "",
          "type": "address"
        }
      ],
      "stateMutability": "view",
      "type": "function"
    },
    {
      "inputs": [],
      "name": "nativeToken",
      "outputs": [
        {
          "internalType": "contract IWETH",
          "name": "",
          "type": "address"
        }
      ],
      "stateMutability": "view",
      "type": "function"
    },
    {
      "inputs": [],
      "name": "proposedGovernor",
      "outputs": [
        {
          "internalType": "address",
          "name": "",
          "type": "address"
        }
      ],
      "stateMutability": "view",
      "type": "function"
    },
    {
      "inputs": [
        {
          "internalType": "address",
          "name": "_proposedGovernor",
          "type": "address"
        }
      ],
      "name": "transferGovernorship",
      "outputs": [],
      "stateMutability": "nonpayable",
      "type": "function"
    },
    {
      "inputs": [
        {
          "internalType": "contract IController",
          "name": "_controller",
          "type": "address"
        },
        {
          "internalType": "uint256",
          "name": "_amount",
          "type": "uint256"
        }
      ],
      "name": "withdraw",
      "outputs": [],
      "stateMutability": "nonpayable",
      "type": "function"
    },
    {
      "stateMutability": "payable",
      "type": "receive"
    }
  ],
  "transactionHash": "0x5edf5f7500dc99ed024ee99afea9f5955638d2854bdb90906323b3c13762f196",
  "args": [
    "0xB31f66AA3C1e785363F0875A1B74E27b85FD66c7"
  ],
  "numDeployments": 2,
  "solcInputHash": "9d493da7ad7feb9d41baa9f03a4d1394",
  "bytecode": "0x60a060405234801561001057600080fd5b50604051610f4e380380610f4e83398101604081905261002f9161008a565b6000805462010000600160b01b03191633620100008102919091178255604051909182917fd4459d5b8b913cab0244230fd9b1c08b6ceace7fe9230e60d0f74cbffdf849d0908290a3506001600160a01b03166080526100ba565b60006020828403121561009c57600080fd5b81516001600160a01b03811681146100b357600080fd5b9392505050565b608051610e506100fe60003960008181607f015281816101d601528181610331015281816103ca01528181610451015281816105d001526106d10152610e506000f3fe60806040526004361061006f5760003560e01c80630c340a24146101285780638a11a37014610164578063a3d5b25514610184578063b6aa515b146101a4578063e1758bd8146101c4578063f340fa01146101f8578063f3b27bc31461020b578063f3fef3a314610220576100e9565b366100e957336001600160a01b037f000000000000000000000000000000000000000000000000000000000000000016146100e75760405162461bcd60e51b81526020600482015260136024820152721c9958d95a5d994b5b9bdd0b585b1b1bddd959606a1b60448201526064015b60405180910390fd5b005b60405162461bcd60e51b815260206004820152601460248201527319985b1b189858dacb5b9bdd0b585b1b1bddd95960621b60448201526064016100de565b34801561013457600080fd5b5060005461014e906201000090046001600160a01b031681565b60405161015b9190610c6b565b60405180910390f35b34801561017057600080fd5b5060015461014e906001600160a01b031681565b34801561019057600080fd5b506100e761019f366004610c97565b610240565b3480156101b057600080fd5b506100e76101bf366004610cd8565b61028a565b3480156101d057600080fd5b5061014e7f000000000000000000000000000000000000000000000000000000000000000081565b6100e7610206366004610cd8565b61032f565b34801561021757600080fd5b506100e76104db565b34801561022c57600080fd5b506100e761023b366004610cf5565b6105a9565b6000546001600160a01b03620100009091041633146102715760405162461bcd60e51b81526004016100de90610d21565b6102856001600160a01b0384168383610741565b505050565b6000546001600160a01b03620100009091041633146102bb5760405162461bcd60e51b81526004016100de90610d21565b6001600160a01b03811661030d5760405162461bcd60e51b815260206004820152601960248201527870726f706f7365642d676f7665726e6f722d69732d7a65726f60381b60448201526064016100de565b600180546001600160a01b0319166001600160a01b0392909216919091179055565b7f00000000000000000000000000000000000000000000000000000000000000006001600160a01b031663d0e30db0346040518263ffffffff1660e01b81526004016000604051808303818588803b15801561038a57600080fd5b505af115801561039e573d6000803e3d6000fd5b50506040516343e6ee4360e11b8152600093506001600160a01b03851692506387cddc8691506103f2907f000000000000000000000000000000000000000000000000000000000000000090600401610c6b565b60206040518083038186803b15801561040a57600080fd5b505afa15801561041e573d6000803e3d6000fd5b505050506040513d601f19601f820116820180604052508101906104429190610d47565b90506104786001600160a01b037f00000000000000000000000000000000000000000000000000000000000000001682346107a4565b604051636e553f6560e01b81523460048201523360248201526001600160a01b03821690636e553f6590604401600060405180830381600087803b1580156104bf57600080fd5b505af11580156104d3573d6000803e3d6000fd5b505050505050565b6001546001600160a01b031633146105315760405162461bcd60e51b81526020600482015260196024820152783737ba16ba343296b83937b837b9b2b216b3b7bb32b93737b960391b60448201526064016100de565b600154600080546040516001600160a01b039384169362010000909204909116917fd4459d5b8b913cab0244230fd9b1c08b6ceace7fe9230e60d0f74cbffdf849d091a3600180546000805462010000600160b01b0319166001600160a01b03831662010000021790556001600160a01b0319169055565b6040516343e6ee4360e11b81526000906001600160a01b038416906387cddc86906105f8907f000000000000000000000000000000000000000000000000000000000000000090600401610c6b565b60206040518083038186803b15801561061057600080fd5b505afa158015610624573d6000803e3d6000fd5b505050506040513d601f19601f820116820180604052508101906106489190610d47565b905061065f6001600160a01b0382163330856108c8565b604051627b8a6760e11b8152600481018390523060248201526001600160a01b0382169062f714ce90604401600060405180830381600087803b1580156106a557600080fd5b505af11580156106b9573d6000803e3d6000fd5b5050604051632e1a7d4d60e01b8152600481018590527f00000000000000000000000000000000000000000000000000000000000000006001600160a01b03169250632e1a7d4d9150602401600060405180830381600087803b15801561071f57600080fd5b505af1158015610733573d6000803e3d6000fd5b505050506102853383610906565b6040516001600160a01b03831660248201526044810182905261028590849063a9059cbb60e01b906064015b60408051601f198184030181529190526020810180516001600160e01b03166001600160e01b031990931692909217909152610a1f565b80158061082d5750604051636eb1769f60e11b81523060048201526001600160a01b03838116602483015284169063dd62ed3e9060440160206040518083038186803b1580156107f357600080fd5b505afa158015610807573d6000803e3d6000fd5b505050506040513d601f19601f8201168201806040525081019061082b9190610d64565b155b6108985760405162461bcd60e51b815260206004820152603660248201527f5361666545524332303a20617070726f76652066726f6d206e6f6e2d7a65726f60448201527520746f206e6f6e2d7a65726f20616c6c6f77616e636560501b60648201526084016100de565b6040516001600160a01b03831660248201526044810182905261028590849063095ea7b360e01b9060640161076d565b6040516001600160a01b03808516602483015283166044820152606481018290526109009085906323b872dd60e01b9060840161076d565b50505050565b804710156109565760405162461bcd60e51b815260206004820152601d60248201527f416464726573733a20696e73756666696369656e742062616c616e636500000060448201526064016100de565b6000826001600160a01b03168260405160006040518083038185875af1925050503d80600081146109a3576040519150601f19603f3d011682016040523d82523d6000602084013e6109a8565b606091505b50509050806102855760405162461bcd60e51b815260206004820152603a60248201527f416464726573733a20756e61626c6520746f2073656e642076616c75652c207260448201527f6563697069656e74206d6179206861766520726576657274656400000000000060648201526084016100de565b6000610a74826040518060400160405280602081526020017f5361666545524332303a206c6f772d6c6576656c2063616c6c206661696c6564815250856001600160a01b0316610af19092919063ffffffff16565b8051909150156102855780806020019051810190610a929190610d7d565b6102855760405162461bcd60e51b815260206004820152602a60248201527f5361666545524332303a204552433230206f7065726174696f6e20646964206e6044820152691bdd081cdd58d8d9595960b21b60648201526084016100de565b6060610b008484600085610b0a565b90505b9392505050565b606082471015610b6b5760405162461bcd60e51b815260206004820152602660248201527f416464726573733a20696e73756666696369656e742062616c616e636520666f6044820152651c8818d85b1b60d21b60648201526084016100de565b843b610bb95760405162461bcd60e51b815260206004820152601d60248201527f416464726573733a2063616c6c20746f206e6f6e2d636f6e747261637400000060448201526064016100de565b600080866001600160a01b03168587604051610bd59190610dcb565b60006040518083038185875af1925050503d8060008114610c12576040519150601f19603f3d011682016040523d82523d6000602084013e610c17565b606091505b5091509150610c27828286610c32565b979650505050505050565b60608315610c41575081610b03565b825115610c515782518084602001fd5b8160405162461bcd60e51b81526004016100de9190610de7565b6001600160a01b0391909116815260200190565b6001600160a01b0381168114610c9457600080fd5b50565b600080600060608486031215610cac57600080fd5b8335610cb781610c7f565b92506020840135610cc781610c7f565b929592945050506040919091013590565b600060208284031215610cea57600080fd5b8135610b0381610c7f565b60008060408385031215610d0857600080fd5b8235610d1381610c7f565b946020939093013593505050565b6020808252600c908201526b3737ba16b3b7bb32b93737b960a11b604082015260600190565b600060208284031215610d5957600080fd5b8151610b0381610c7f565b600060208284031215610d7657600080fd5b5051919050565b600060208284031215610d8f57600080fd5b81518015158114610b0357600080fd5b60005b83811015610dba578181015183820152602001610da2565b838111156109005750506000910152565b60008251610ddd818460208701610d9f565b9190910192915050565b6020815260008251806020840152610e06816040850160208701610d9f565b601f01601f1916919091016040019291505056fea264697066735822122006fcbcf62f79cd98aef6dd0665a2958d81f473498f3299a76f2640ff9d1d925864736f6c63430008090033",
  "devdoc": {
    "kind": "dev",
    "methods": {
      "acceptGovernorship()": {
        "details": "Allows new governor to accept governorship of the contract."
      },
      "deposit(address)": {
        "params": {
          "_controller": "The Controller contract"
        }
      },
      "emergencyTokenTransfer(address,address,uint256)": {
        "params": {
          "_amount": "The amount to send",
          "_to": "The recipient of the transfer",
          "_token": "The token to transfer"
        }
      },
      "transferGovernorship(address)": {
        "details": "Transfers governorship of the contract to a new account (`proposedGovernor`). Can only be called by the current owner."
      },
      "withdraw(address,uint256)": {
        "params": {
          "_amount": "The amount of deposit tokens to withdraw and receive native ETH",
          "_controller": "The Controller contract"
        }
      }
    },
    "title": "Helper contract to easily support native tokens (e.g. ETH/AVAX) as collateral",
    "version": 1
  },
  "userdoc": {
    "kind": "user",
    "methods": {
      "deposit(address)": {
        "notice": "deposits NATIVE_TOKEN as collateral using native. A corresponding amount of the deposit token is minted."
      },
      "emergencyTokenTransfer(address,address,uint256)": {
        "notice": "ERC20 recovery in case of stuck tokens due direct transfers to the contract address."
      },
      "withdraw(address,uint256)": {
        "notice": "withdraws the NATIVE_TOKEN deposit of msg.sender."
      }
    },
    "version": 1
  },
  "storageLayout": {
    "storage": [
      {
        "astId": 7184,
        "contract": "contracts/NativeTokenGateway.sol:NativeTokenGateway",
        "label": "_initialized",
        "offset": 0,
        "slot": "0",
        "type": "t_bool"
      },
      {
        "astId": 7187,
        "contract": "contracts/NativeTokenGateway.sol:NativeTokenGateway",
        "label": "_initializing",
        "offset": 1,
        "slot": "0",
        "type": "t_bool"
      },
      {
        "astId": 6020,
        "contract": "contracts/NativeTokenGateway.sol:NativeTokenGateway",
        "label": "governor",
        "offset": 2,
        "slot": "0",
        "type": "t_address"
      },
      {
        "astId": 6022,
        "contract": "contracts/NativeTokenGateway.sol:NativeTokenGateway",
        "label": "proposedGovernor",
        "offset": 0,
        "slot": "1",
        "type": "t_address"
      }
    ],
    "types": {
      "t_address": {
        "encoding": "inplace",
        "label": "address",
        "numberOfBytes": "20"
      },
      "t_bool": {
        "encoding": "inplace",
        "label": "bool",
        "numberOfBytes": "1"
      }
    }
  }
}