{
  "address": "0x0C3497c91291F6a8DB73EFA7565a83f89CCb67D6",
  "abi": [
    {
      "inputs": [],
      "name": "VERSION",
      "outputs": [
        {
          "internalType": "string",
          "name": "",
          "type": "string"
        }
      ],
      "stateMutability": "view",
      "type": "function"
    },
    {
      "inputs": [],
      "name": "controller",
      "outputs": [
        {
          "internalType": "contract IController",
          "name": "",
          "type": "address"
        }
      ],
      "stateMutability": "view",
      "type": "function"
    },
    {
      "inputs": [],
      "name": "governor",
      "outputs": [
        {
          "internalType": "address",
          "name": "_governor",
          "type": "address"
        }
      ],
      "stateMutability": "view",
      "type": "function"
    },
    {
      "inputs": [
        {
          "internalType": "contract IController",
          "name": "_controller",
          "type": "address"
        }
      ],
      "name": "initialize",
      "outputs": [],
      "stateMutability": "nonpayable",
      "type": "function"
    },
    {
      "inputs": [
        {
          "internalType": "address",
          "name": "_newTreasury",
          "type": "address"
        }
      ],
      "name": "migrateTo",
      "outputs": [],
      "stateMutability": "nonpayable",
      "type": "function"
    },
    {
      "inputs": [
        {
          "internalType": "address",
          "name": "_to",
          "type": "address"
        },
        {
          "internalType": "uint256",
          "name": "_amount",
          "type": "uint256"
        }
      ],
      "name": "pull",
      "outputs": [],
      "stateMutability": "nonpayable",
      "type": "function"
    },
    {
      "inputs": [
        {
          "internalType": "contract IController",
          "name": "_controller",
          "type": "address"
        }
      ],
      "name": "setController",
      "outputs": [],
      "stateMutability": "nonpayable",
      "type": "function"
    }
  ],
  "transactionHash": "0x6be8b42422358cd5ca981f0719c59654885c0ad2575b53fc9cf792b497c2440a",
  "args": [],
  "numDeployments": 1,
  "solcInputHash": "0077a7bd8b2b7c639ec050e1f3a43041",
  "bytecode": "0x608060405234801561001057600080fd5b5061100a806100206000396000f3fe608060405234801561001057600080fd5b506004361061006d5760003560e01c80630c340a24146100725780634ddaf8f21461009057806392eefe9b146100a5578063c4d66de8146100b8578063f2d5d56b146100cb578063f77c4791146100de578063ffa1ad74146100f1575b600080fd5b61007a610122565b6040516100879190610d13565b60405180910390f35b6100a361009e366004610d3c565b6101a4565b005b6100a36100b3366004610d3c565b610639565b6100a36100c6366004610d3c565b610708565b6100a36100d9366004610d59565b6107f6565b60025461007a906001600160a01b031681565b610115604051806040016040528060058152602001640312e302e360dc1b81525081565b6040516100879190610db5565b6002546040805163030d028960e21b815290516000926001600160a01b031691630c340a24916004808301926020929190829003018186803b15801561016757600080fd5b505afa15801561017b573d6000803e3d6000fd5b505050506040513d601f19601f8201168201806040525081019061019f9190610df8565b905090565b6002546001600160a01b0316336001600160a01b0316146101fd5760405162461bcd60e51b815260206004820152600e60248201526d3737ba16b1b7b73a3937b63632b960911b60448201526064015b60405180910390fd5b6002546040805163fb01600d60e01b815290516000926001600160a01b03169163fb01600d9160048083019286929190829003018186803b15801561024157600080fd5b505afa158015610255573d6000803e3d6000fd5b505050506040513d6000823e601f3d908101601f1916820160405261027d9190810190610e2b565b805190915060005b818110156104d55760008382815181106102a1576102a1610ef0565b602002602001015190506000816001600160a01b03166370a08231306040518263ffffffff1660e01b81526004016102d99190610d13565b60206040518083038186803b1580156102f157600080fd5b505afa158015610305573d6000803e3d6000fd5b505050506040513d601f19601f820116820180604052508101906103299190610f06565b90506000826001600160a01b0316636f307dc36040518163ffffffff1660e01b815260040160206040518083038186803b15801561036657600080fd5b505afa15801561037a573d6000803e3d6000fd5b505050506040513d601f19601f8201168201806040525081019061039e9190610df8565b6001600160a01b03166370a08231306040518263ffffffff1660e01b81526004016103c99190610d13565b60206040518083038186803b1580156103e157600080fd5b505afa1580156103f5573d6000803e3d6000fd5b505050506040513d601f19601f820116820180604052508101906104199190610f06565b90508115610435576104356001600160a01b0384168884610995565b80156104c1576104c18782856001600160a01b0316636f307dc36040518163ffffffff1660e01b815260040160206040518083038186803b15801561047957600080fd5b505afa15801561048d573d6000803e3d6000fd5b505050506040513d601f19601f820116820180604052508101906104b19190610df8565b6001600160a01b03169190610995565b505050806104ce90610f1f565b9050610285565b5060025460408051633409c87360e11b815290516000926001600160a01b03169163681390e69160048083019286929190829003018186803b15801561051a57600080fd5b505afa15801561052e573d6000803e3d6000fd5b505050506040513d6000823e601f3d908101601f191682016040526105569190810190610e2b565b805190915060005b8181101561063157600083828151811061057a5761057a610ef0565b602002602001015190506000816001600160a01b03166370a08231306040518263ffffffff1660e01b81526004016105b29190610d13565b60206040518083038186803b1580156105ca57600080fd5b505afa1580156105de573d6000803e3d6000fd5b505050506040513d601f19601f820116820180604052508101906106029190610f06565b9050801561061e5761061e6001600160a01b0383168983610995565b50508061062a90610f1f565b905061055e565b505050505050565b610641610122565b6001600160a01b0316336001600160a01b0316146106905760405162461bcd60e51b815260206004820152600c60248201526b3737ba16b3b7bb32b93737b960a11b60448201526064016101f4565b6001600160a01b0381166106e65760405162461bcd60e51b815260206004820152601e60248201527f6e65772d636f6e74726f6c6c65722d616464726573732d69732d7a65726f000060448201526064016101f4565b600280546001600160a01b0319166001600160a01b0392909216919091179055565b600054610100900460ff1680610721575060005460ff16155b61073d5760405162461bcd60e51b81526004016101f490610f48565b600054610100900460ff1615801561075f576000805461ffff19166101011790555b6001600160a01b0382166107b55760405162461bcd60e51b815260206004820152601a60248201527f636f6e74726f6c6c65722d616464726573732d69732d7a65726f00000000000060448201526064016101f4565b6107bd6109ec565b6107c5610a5c565b600280546001600160a01b0319166001600160a01b03841617905580156107f2576000805461ff00191690555b5050565b600260015414156108495760405162461bcd60e51b815260206004820152601f60248201527f5265656e7472616e637947756172643a207265656e7472616e742063616c6c0060448201526064016101f4565b6002600181905554604051633af5be4760e01b81526001600160a01b0390911690633af5be479061087e903390600401610d13565b60206040518083038186803b15801561089657600080fd5b505afa1580156108aa573d6000803e3d6000fd5b505050506040513d601f19601f820116820180604052508101906108ce9190610f96565b61090e5760405162461bcd60e51b81526020600482015260116024820152703737ba16b232b837b9b4ba16ba37b5b2b760791b60448201526064016101f4565b6000811161094f5760405162461bcd60e51b815260206004820152600e60248201526d616d6f756e742d69732d7a65726f60901b60448201526064016101f4565b61098d8282336001600160a01b0316636f307dc36040518163ffffffff1660e01b815260040160206040518083038186803b15801561047957600080fd5b505060018055565b604080516001600160a01b038416602482015260448082018490528251808303909101815260649091019091526020810180516001600160e01b031663a9059cbb60e01b1790526109e7908490610ac7565b505050565b600054610100900460ff1680610a05575060005460ff16155b610a215760405162461bcd60e51b81526004016101f490610f48565b600054610100900460ff16158015610a43576000805461ffff19166101011790555b600180558015610a59576000805461ff00191690555b50565b600054610100900460ff1680610a75575060005460ff16155b610a915760405162461bcd60e51b81526004016101f490610f48565b600054610100900460ff16158015610ab3576000805461ffff19166101011790555b8015610a59576000805461ff001916905550565b6000610b1c826040518060400160405280602081526020017f5361666545524332303a206c6f772d6c6576656c2063616c6c206661696c6564815250856001600160a01b0316610b999092919063ffffffff16565b8051909150156109e75780806020019051810190610b3a9190610f96565b6109e75760405162461bcd60e51b815260206004820152602a60248201527f5361666545524332303a204552433230206f7065726174696f6e20646964206e6044820152691bdd081cdd58d8d9595960b21b60648201526084016101f4565b6060610ba88484600085610bb2565b90505b9392505050565b606082471015610c135760405162461bcd60e51b815260206004820152602660248201527f416464726573733a20696e73756666696369656e742062616c616e636520666f6044820152651c8818d85b1b60d21b60648201526084016101f4565b843b610c615760405162461bcd60e51b815260206004820152601d60248201527f416464726573733a2063616c6c20746f206e6f6e2d636f6e747261637400000060448201526064016101f4565b600080866001600160a01b03168587604051610c7d9190610fb8565b60006040518083038185875af1925050503d8060008114610cba576040519150601f19603f3d011682016040523d82523d6000602084013e610cbf565b606091505b5091509150610ccf828286610cda565b979650505050505050565b60608315610ce9575081610bab565b825115610cf95782518084602001fd5b8160405162461bcd60e51b81526004016101f49190610db5565b6001600160a01b0391909116815260200190565b6001600160a01b0381168114610a5957600080fd5b600060208284031215610d4e57600080fd5b8135610bab81610d27565b60008060408385031215610d6c57600080fd5b8235610d7781610d27565b946020939093013593505050565b60005b83811015610da0578181015183820152602001610d88565b83811115610daf576000848401525b50505050565b6020815260008251806020840152610dd4816040850160208701610d85565b601f01601f19169190910160400192915050565b8051610df381610d27565b919050565b600060208284031215610e0a57600080fd5b8151610bab81610d27565b634e487b7160e01b600052604160045260246000fd5b60006020808385031215610e3e57600080fd5b825167ffffffffffffffff80821115610e5657600080fd5b818501915085601f830112610e6a57600080fd5b815181811115610e7c57610e7c610e15565b8060051b604051601f19603f83011681018181108582111715610ea157610ea1610e15565b604052918252848201925083810185019188831115610ebf57600080fd5b938501935b82851015610ee457610ed585610de8565b84529385019392850192610ec4565b98975050505050505050565b634e487b7160e01b600052603260045260246000fd5b600060208284031215610f1857600080fd5b5051919050565b6000600019821415610f4157634e487b7160e01b600052601160045260246000fd5b5060010190565b6020808252602e908201527f496e697469616c697a61626c653a20636f6e747261637420697320616c72656160408201526d191e481a5b9a5d1a585b1a5e995960921b606082015260800190565b600060208284031215610fa857600080fd5b81518015158114610bab57600080fd5b60008251610fca818460208701610d85565b919091019291505056fea2646970667358221220b97354cbb185e3586f52e4e64f143ac8780f5a8b97886363bfc681f7f1689dc364736f6c63430008090033",
  "devdoc": {
    "kind": "dev",
    "methods": {
      "migrateTo(address)": {
        "details": "This function can become too expensive depending on the length of the arrays"
      },
      "setController(address)": {
        "params": {
          "_controller": "The new Controller contract"
        }
      }
    },
    "title": "Treasury contract",
    "version": 1
  },
  "userdoc": {
    "kind": "user",
    "methods": {
      "controller()": {
        "notice": "Controller contract"
      },
      "migrateTo(address)": {
        "notice": "Transfer all funds to another contract"
      },
      "pull(address,uint256)": {
        "notice": "Pull token from the Treasury"
      },
      "setController(address)": {
        "notice": "Update Controller contract"
      }
    },
    "version": 1
  },
  "storageLayout": {
    "storage": [
      {
        "astId": 7181,
        "contract": "contracts/Treasury.sol:Treasury",
        "label": "_initialized",
        "offset": 0,
        "slot": "0",
        "type": "t_bool"
      },
      {
        "astId": 7184,
        "contract": "contracts/Treasury.sol:Treasury",
        "label": "_initializing",
        "offset": 1,
        "slot": "0",
        "type": "t_bool"
      },
      {
        "astId": 7235,
        "contract": "contracts/Treasury.sol:Treasury",
        "label": "_status",
        "offset": 0,
        "slot": "1",
        "type": "t_uint256"
      },
      {
        "astId": 6152,
        "contract": "contracts/Treasury.sol:Treasury",
        "label": "controller",
        "offset": 0,
        "slot": "2",
        "type": "t_contract(IController)10865"
      },
      {
        "astId": 6260,
        "contract": "contracts/Treasury.sol:Treasury",
        "label": "__gap",
        "offset": 0,
        "slot": "3",
        "type": "t_array(t_uint256)49_storage"
      }
    ],
    "types": {
      "t_array(t_uint256)49_storage": {
        "base": "t_uint256",
        "encoding": "inplace",
        "label": "uint256[49]",
        "numberOfBytes": "1568"
      },
      "t_bool": {
        "encoding": "inplace",
        "label": "bool",
        "numberOfBytes": "1"
      },
      "t_contract(IController)10865": {
        "encoding": "inplace",
        "label": "contract IController",
        "numberOfBytes": "20"
      },
      "t_uint256": {
        "encoding": "inplace",
        "label": "uint256",
        "numberOfBytes": "32"
      }
    }
  }
}