{
  "address": "0xD8AFC0a74C02F0B5f8b51bFE954340Ed0c76999d",
  "abi": [
    {
      "anonymous": false,
      "inputs": [
        {
          "indexed": true,
          "internalType": "address",
          "name": "owner",
          "type": "address"
        },
        {
          "indexed": true,
          "internalType": "address",
          "name": "spender",
          "type": "address"
        },
        {
          "indexed": false,
          "internalType": "uint256",
          "name": "value",
          "type": "uint256"
        }
      ],
      "name": "Approval",
      "type": "event"
    },
    {
      "anonymous": false,
      "inputs": [
        {
          "indexed": true,
          "internalType": "address",
          "name": "from",
          "type": "address"
        },
        {
          "indexed": true,
          "internalType": "address",
          "name": "to",
          "type": "address"
        },
        {
          "indexed": false,
          "internalType": "uint256",
          "name": "value",
          "type": "uint256"
        }
      ],
      "name": "Transfer",
      "type": "event"
    },
    {
      "inputs": [],
      "name": "VERSION",
      "outputs": [
        {
          "internalType": "string",
          "name": "",
          "type": "string"
        }
      ],
      "stateMutability": "view",
      "type": "function"
    },
    {
      "inputs": [],
      "name": "accrueInterest",
      "outputs": [
        {
          "internalType": "uint256",
          "name": "_interestAmountAccrued",
          "type": "uint256"
        }
      ],
      "stateMutability": "nonpayable",
      "type": "function"
    },
    {
      "inputs": [
        {
          "internalType": "address",
          "name": "",
          "type": "address"
        },
        {
          "internalType": "address",
          "name": "",
          "type": "address"
        }
      ],
      "name": "allowance",
      "outputs": [
        {
          "internalType": "uint256",
          "name": "",
          "type": "uint256"
        }
      ],
      "stateMutability": "pure",
      "type": "function"
    },
    {
      "inputs": [
        {
          "internalType": "address",
          "name": "",
          "type": "address"
        },
        {
          "internalType": "uint256",
          "name": "",
          "type": "uint256"
        }
      ],
      "name": "approve",
      "outputs": [
        {
          "internalType": "bool",
          "name": "",
          "type": "bool"
        }
      ],
      "stateMutability": "pure",
      "type": "function"
    },
    {
      "inputs": [
        {
          "internalType": "address",
          "name": "_account",
          "type": "address"
        }
      ],
      "name": "balanceOf",
      "outputs": [
        {
          "internalType": "uint256",
          "name": "",
          "type": "uint256"
        }
      ],
      "stateMutability": "view",
      "type": "function"
    },
    {
      "inputs": [
        {
          "internalType": "address",
          "name": "_from",
          "type": "address"
        },
        {
          "internalType": "uint256",
          "name": "_amount",
          "type": "uint256"
        }
      ],
      "name": "burn",
      "outputs": [],
      "stateMutability": "nonpayable",
      "type": "function"
    },
    {
      "inputs": [],
      "name": "controller",
      "outputs": [
        {
          "internalType": "contract IController",
          "name": "",
          "type": "address"
        }
      ],
      "stateMutability": "view",
      "type": "function"
    },
    {
      "inputs": [],
      "name": "debtIndex",
      "outputs": [
        {
          "internalType": "uint256",
          "name": "",
          "type": "uint256"
        }
      ],
      "stateMutability": "view",
      "type": "function"
    },
    {
      "inputs": [],
      "name": "decimals",
      "outputs": [
        {
          "internalType": "uint8",
          "name": "",
          "type": "uint8"
        }
      ],
      "stateMutability": "view",
      "type": "function"
    },
    {
      "inputs": [
        {
          "internalType": "address",
          "name": "",
          "type": "address"
        },
        {
          "internalType": "uint256",
          "name": "",
          "type": "uint256"
        }
      ],
      "name": "decreaseAllowance",
      "outputs": [
        {
          "internalType": "bool",
          "name": "",
          "type": "bool"
        }
      ],
      "stateMutability": "pure",
      "type": "function"
    },
    {
      "inputs": [],
      "name": "getBlockNumber",
      "outputs": [
        {
          "internalType": "uint256",
          "name": "_blockNumber",
          "type": "uint256"
        }
      ],
      "stateMutability": "view",
      "type": "function"
    },
    {
      "inputs": [],
      "name": "governor",
      "outputs": [
        {
          "internalType": "address",
          "name": "_governor",
          "type": "address"
        }
      ],
      "stateMutability": "view",
      "type": "function"
    },
    {
      "inputs": [
        {
          "internalType": "address",
          "name": "",
          "type": "address"
        },
        {
          "internalType": "uint256",
          "name": "",
          "type": "uint256"
        }
      ],
      "name": "increaseAllowance",
      "outputs": [
        {
          "internalType": "bool",
          "name": "",
          "type": "bool"
        }
      ],
      "stateMutability": "pure",
      "type": "function"
    },
    {
      "inputs": [
        {
          "internalType": "string",
          "name": "_name",
          "type": "string"
        },
        {
          "internalType": "string",
          "name": "_symbol",
          "type": "string"
        },
        {
          "internalType": "uint8",
          "name": "_decimals",
          "type": "uint8"
        },
        {
          "internalType": "contract IController",
          "name": "_controller",
          "type": "address"
        }
      ],
      "name": "initialize",
      "outputs": [],
      "stateMutability": "nonpayable",
      "type": "function"
    },
    {
      "inputs": [],
      "name": "lastBlockAccrued",
      "outputs": [
        {
          "internalType": "uint256",
          "name": "",
          "type": "uint256"
        }
      ],
      "stateMutability": "view",
      "type": "function"
    },
    {
      "inputs": [
        {
          "internalType": "address",
          "name": "_to",
          "type": "address"
        },
        {
          "internalType": "uint256",
          "name": "_amount",
          "type": "uint256"
        }
      ],
      "name": "mint",
      "outputs": [],
      "stateMutability": "nonpayable",
      "type": "function"
    },
    {
      "inputs": [],
      "name": "name",
      "outputs": [
        {
          "internalType": "string",
          "name": "",
          "type": "string"
        }
      ],
      "stateMutability": "view",
      "type": "function"
    },
    {
      "inputs": [
        {
          "internalType": "contract IController",
          "name": "_controller",
          "type": "address"
        }
      ],
      "name": "setController",
      "outputs": [],
      "stateMutability": "nonpayable",
      "type": "function"
    },
    {
      "inputs": [
        {
          "internalType": "contract ISyntheticToken",
          "name": "_syntheticToken",
          "type": "address"
        }
      ],
      "name": "setSyntheticToken",
      "outputs": [],
      "stateMutability": "nonpayable",
      "type": "function"
    },
    {
      "inputs": [],
      "name": "symbol",
      "outputs": [
        {
          "internalType": "string",
          "name": "",
          "type": "string"
        }
      ],
      "stateMutability": "view",
      "type": "function"
    },
    {
      "inputs": [],
      "name": "syntheticToken",
      "outputs": [
        {
          "internalType": "contract ISyntheticToken",
          "name": "",
          "type": "address"
        }
      ],
      "stateMutability": "view",
      "type": "function"
    },
    {
      "inputs": [],
      "name": "totalSupply",
      "outputs": [
        {
          "internalType": "uint256",
          "name": "",
          "type": "uint256"
        }
      ],
      "stateMutability": "view",
      "type": "function"
    },
    {
      "inputs": [
        {
          "internalType": "address",
          "name": "",
          "type": "address"
        },
        {
          "internalType": "uint256",
          "name": "",
          "type": "uint256"
        }
      ],
      "name": "transfer",
      "outputs": [
        {
          "internalType": "bool",
          "name": "",
          "type": "bool"
        }
      ],
      "stateMutability": "pure",
      "type": "function"
    },
    {
      "inputs": [
        {
          "internalType": "address",
          "name": "",
          "type": "address"
        },
        {
          "internalType": "address",
          "name": "",
          "type": "address"
        },
        {
          "internalType": "uint256",
          "name": "",
          "type": "uint256"
        }
      ],
      "name": "transferFrom",
      "outputs": [
        {
          "internalType": "bool",
          "name": "",
          "type": "bool"
        }
      ],
      "stateMutability": "pure",
      "type": "function"
    }
  ],
  "transactionHash": "0x20467ae9f09b930cc785af2d1663bde4d525ae7579fa26b4a6f485b0b6a6bb3d",
  "args": [],
  "numDeployments": 2,
  "solcInputHash": "9d493da7ad7feb9d41baa9f03a4d1394",
  "bytecode": "0x608060405234801561001057600080fd5b5061167f806100206000396000f3fe608060405234801561001057600080fd5b50600436106101585760003560e01c806392eefe9b116100c3578063a9059cbb1161007c578063a9059cbb146102a1578063bb8c631f146102af578063dd62ed3e146102b8578063de7ea79d146102c6578063f77c4791146102d9578063ffa1ad74146102f257600080fd5b806392eefe9b1461026257806395d89b41146102755780639d57cf431461027d5780639dc29fac14610286578063a457c2d714610210578063a6afed951461029957600080fd5b8063313ce56711610115578063313ce567146101f1578063395093511461021057806340c10f191461022357806342cbb15c1461023657806370a082311461023c5780638230ecd61461024f57600080fd5b806306fdde031461015d578063095ea7b31461017b5780630c340a241461019e57806318160ddd146101b357806320b74e73146101c957806323b872dd146101de575b600080fd5b610165610316565b6040516101729190611147565b60405180910390f35b61018e6101893660046111b1565b6103a4565b6040519015158152602001610172565b6101a66103ed565b60405161017291906111dd565b6101bb610479565b604051908152602001610172565b6101dc6101d73660046111f1565b61049c565b005b61018e6101ec36600461120e565b61054f565b6035546101fe9060ff1681565b60405160ff9091168152602001610172565b61018e61021e3660046111b1565b610593565b6101dc6102313660046111b1565b6105d8565b436101bb565b6101bb61024a3660046111f1565b610619565b6038546101a6906001600160a01b031681565b6101dc6102703660046111f1565b61068f565b610165610747565b6101bb60395481565b6101dc6102943660046111b1565b610754565b6101bb6107c4565b61018e6101ec3660046111b1565b6101bb603a5481565b6101bb61021e36600461124f565b6101dc6102d436600461133f565b610843565b6000546101a6906201000090046001600160a01b031681565b610165604051806040016040528060058152602001640312e302e360dc1b81525081565b60368054610323906113ce565b80601f016020809104026020016040519081016040528092919081815260200182805461034f906113ce565b801561039c5780601f106103715761010080835404028352916020019161039c565b820191906000526020600020905b81548152906001019060200180831161037f57829003601f168201915b505050505081565b60405162461bcd60e51b8152602060048201526016602482015275185c1c1c9bdd985b0b5b9bdd0b5cdd5c1c1bdc9d195960521b60448201526000906064015b60405180910390fd5b60008060029054906101000a90046001600160a01b03166001600160a01b0316630c340a246040518163ffffffff1660e01b815260040160206040518083038186803b15801561043c57600080fd5b505afa158015610450573d6000803e3d6000fd5b505050506040513d601f19601f820116820180604052508101906104749190611409565b905090565b60008061048461097a565b5050905080603454610496919061143c565b91505090565b6104a46103ed565b6001600160a01b0316336001600160a01b0316146104d45760405162461bcd60e51b81526004016103e490611454565b6038546001600160a01b03161561052d5760405162461bcd60e51b815260206004820181905260248201527f73796e7468657469632d746f6b656e2d616c72656164792d61737369676e656460448201526064016103e4565b603880546001600160a01b0319166001600160a01b0392909216919091179055565b60405162461bcd60e51b81526020600482015260166024820152751d1c985b9cd9995c8b5b9bdd0b5cdd5c1c1bdc9d195960521b60448201526000906064016103e4565b60405162461bcd60e51b8152602060048201526017602482015276185b1b1bddd85b98d94b5b9bdd0b5cdd5c1c1bdc9d1959604a1b60448201526000906064016103e4565b6038546001600160a01b0316336001600160a01b03161461060b5760405162461bcd60e51b81526004016103e49061147a565b6106158282610a82565b5050565b6001600160a01b03811660009081526032602052604081205461063e57506000919050565b600061064861097a565b506001600160a01b038516600090815260336020908152604080832054603290925290912054919350915061067e9083906114a7565b61068891906114c6565b9392505050565b6106976103ed565b6001600160a01b0316336001600160a01b0316146106c75760405162461bcd60e51b81526004016103e490611454565b6001600160a01b03811661071d5760405162461bcd60e51b815260206004820152601e60248201527f6e65772d636f6e74726f6c6c65722d616464726573732d69732d7a65726f000060448201526064016103e4565b600080546001600160a01b03909216620100000262010000600160b01b0319909216919091179055565b60378054610323906113ce565b6000546201000090046001600160a01b031633148061077d57506038546001600160a01b031633145b6107ba5760405162461bcd60e51b815260206004820152600e60248201526d1b9bdd0b585d5d1a1bdc9a5e995960921b60448201526064016103e4565b6106158282610cc4565b6038546000906001600160a01b0316336001600160a01b0316146107fa5760405162461bcd60e51b81526004016103e49061147a565b60008061080561097a565b60395492955090935091508114156108205760009250505090565b8260346000828254610832919061143c565b9091555050603a9190915560395590565b600054610100900460ff168061085c575060005460ff16155b6108785760405162461bcd60e51b81526004016103e4906114e8565b600054610100900460ff1615801561089a576000805461ffff19166101011790555b6001600160a01b0382166108f05760405162461bcd60e51b815260206004820152601a60248201527f636f6e74726f6c6c65722d616464726573732d69732d7a65726f00000000000060448201526064016103e4565b6108f8610f4b565b6000805462010000600160b01b031916620100006001600160a01b03851602179055845161092d9060369060208801906110ae565b5083516109419060379060208701906110ae565b506035805460ff191660ff851617905543603955670de0b6b3a7640000603a558015610973576000805461ff00191690555b5050505050565b60008080439050806039541415610999576000603a5492509250909192565b6000603954826109a99190611536565b9050600081603860009054906101000a90046001600160a01b03166001600160a01b0316632ff7709e6040518163ffffffff1660e01b815260040160206040518083038186803b1580156109fc57600080fd5b505afa158015610a10573d6000803e3d6000fd5b505050506040513d601f19601f82011682018060405250810190610a34919061154d565b610a3e91906114a7565b9050610a5560345482610fb790919063ffffffff16565b9450610a6c603a5482610fb790919063ffffffff16565b603a54610a79919061143c565b93505050909192565b8160008060029054906101000a90046001600160a01b03166001600160a01b0316633605b51b6040518163ffffffff1660e01b815260040160006040518083038186803b158015610ad257600080fd5b505afa158015610ae6573d6000803e3d6000fd5b505050506040513d6000823e601f3d908101601f19168201604052610b0e9190810190611566565b805190915060005b81811015610bb357828181518110610b3057610b30611618565b6020908102919091010151603854604051626cc3c360e61b81526001600160a01b0391821660048201528682166024820152911690631b30f0c090604401600060405180830381600087803b158015610b8857600080fd5b505af1158015610b9c573d6000803e3d6000fd5b505050508080610bab9061162e565b915050610b16565b506001600160a01b038516610c055760405162461bcd60e51b81526020600482015260186024820152776d696e742d746f2d7468652d7a65726f2d6164647265737360401b60448201526064016103e4565b6000610c1086610619565b90508460346000828254610c24919061143c565b90915550506001600160a01b03861660009081526032602052604081208054879290610c5190849061143c565b9091555050603a546001600160a01b0387166000818152603360205260408082209390935591519091907fddf252ad1be2c89b69c2b068fc378daa952ba7f163c4a11628f55a4df523b3ef90610caa9089815260200190565b60405180910390a3610cbc868261100c565b505050505050565b8160008060029054906101000a90046001600160a01b03166001600160a01b0316633605b51b6040518163ffffffff1660e01b815260040160006040518083038186803b158015610d1457600080fd5b505afa158015610d28573d6000803e3d6000fd5b505050506040513d6000823e601f3d908101601f19168201604052610d509190810190611566565b805190915060005b81811015610df557828181518110610d7257610d72611618565b6020908102919091010151603854604051626cc3c360e61b81526001600160a01b0391821660048201528682166024820152911690631b30f0c090604401600060405180830381600087803b158015610dca57600080fd5b505af1158015610dde573d6000803e3d6000fd5b505050508080610ded9061162e565b915050610d58565b506001600160a01b038516610e4c5760405162461bcd60e51b815260206004820152601a60248201527f6275726e2d66726f6d2d7468652d7a65726f2d6164647265737300000000000060448201526064016103e4565b6000610e5786610619565b905084811015610ea95760405162461bcd60e51b815260206004820152601b60248201527f6275726e2d616d6f756e742d657863656564732d62616c616e6365000000000060448201526064016103e4565b610eb38582611536565b6001600160a01b038716600090815260326020908152604080832093909355603a5460339091529181209190915560348054879290610ef3908490611536565b90915550506040518581526000906001600160a01b038816907fddf252ad1be2c89b69c2b068fc378daa952ba7f163c4a11628f55a4df523b3ef9060200160405180910390a3610cbc86610f4688610619565b611074565b600054610100900460ff1680610f64575060005460ff16155b610f805760405162461bcd60e51b81526004016103e4906114e8565b600054610100900460ff16158015610fa2576000805461ffff19166101011790555b8015610fb4576000805461ff00191690555b50565b6000821580610fc4575081155b15610fd157506000611006565b670de0b6b3a7640000610fe56002826114c6565b610fef84866114a7565b610ff9919061143c565b61100391906114c6565b90505b92915050565b8061061557600054604051631dc2da6d60e21b8152620100009091046001600160a01b03169063770b69b4906110469085906004016111dd565b600060405180830381600087803b15801561106057600080fd5b505af1158015610cbc573d6000803e3d6000fd5b8061061557600054604051631d71be3b60e21b8152620100009091046001600160a01b0316906375c6f8ec906110469085906004016111dd565b8280546110ba906113ce565b90600052602060002090601f0160209004810192826110dc5760008555611122565b82601f106110f557805160ff1916838001178555611122565b82800160010185558215611122579182015b82811115611122578251825591602001919060010190611107565b5061112e929150611132565b5090565b5b8082111561112e5760008155600101611133565b600060208083528351808285015260005b8181101561117457858101830151858201604001528201611158565b81811115611186576000604083870101525b50601f01601f1916929092016040019392505050565b6001600160a01b0381168114610fb457600080fd5b600080604083850312156111c457600080fd5b82356111cf8161119c565b946020939093013593505050565b6001600160a01b0391909116815260200190565b60006020828403121561120357600080fd5b81356106888161119c565b60008060006060848603121561122357600080fd5b833561122e8161119c565b9250602084013561123e8161119c565b929592945050506040919091013590565b6000806040838503121561126257600080fd5b823561126d8161119c565b9150602083013561127d8161119c565b809150509250929050565b634e487b7160e01b600052604160045260246000fd5b604051601f8201601f1916810167ffffffffffffffff811182821017156112c7576112c7611288565b604052919050565b600082601f8301126112e057600080fd5b813567ffffffffffffffff8111156112fa576112fa611288565b61130d601f8201601f191660200161129e565b81815284602083860101111561132257600080fd5b816020850160208301376000918101602001919091529392505050565b6000806000806080858703121561135557600080fd5b843567ffffffffffffffff8082111561136d57600080fd5b611379888389016112cf565b9550602087013591508082111561138f57600080fd5b5061139c878288016112cf565b935050604085013560ff811681146113b357600080fd5b915060608501356113c38161119c565b939692955090935050565b600181811c908216806113e257607f821691505b6020821081141561140357634e487b7160e01b600052602260045260246000fd5b50919050565b60006020828403121561141b57600080fd5b81516106888161119c565b634e487b7160e01b600052601160045260246000fd5b6000821982111561144f5761144f611426565b500190565b6020808252600c908201526b3737ba16b3b7bb32b93737b960a11b604082015260600190565b6020808252601390820152723737ba16b9bcb73a3432ba34b196ba37b5b2b760691b604082015260600190565b60008160001904831182151516156114c1576114c1611426565b500290565b6000826114e357634e487b7160e01b600052601260045260246000fd5b500490565b6020808252602e908201527f496e697469616c697a61626c653a20636f6e747261637420697320616c72656160408201526d191e481a5b9a5d1a585b1a5e995960921b606082015260800190565b60008282101561154857611548611426565b500390565b60006020828403121561155f57600080fd5b5051919050565b6000602080838503121561157957600080fd5b825167ffffffffffffffff8082111561159157600080fd5b818501915085601f8301126115a557600080fd5b8151818111156115b7576115b7611288565b8060051b91506115c884830161129e565b81815291830184019184810190888411156115e257600080fd5b938501935b8385101561160c57845192506115fc8361119c565b82825293850193908501906115e7565b98975050505050505050565b634e487b7160e01b600052603260045260246000fd5b600060001982141561164257611642611426565b506001019056fea26469706673582212207858a441c15a0e96c54f6c1c5df6005a598b275531cd5c0f89f12ca726c6601964736f6c63430008090033",
  "devdoc": {
    "kind": "dev",
    "methods": {
      "accrueInterest()": {
        "returns": {
          "_interestAmountAccrued": "The total amount of debt tokens accrued"
        }
      },
      "burn(address,uint256)": {
        "params": {
          "_amount": "The amount to burn",
          "_from": "The account to burn from"
        }
      },
      "getBlockNumber()": {
        "details": "Having this temporarily as virtual for make test easier since for now hardhat doesn't support mine several blocks See more: https://github.com/nomiclabs/hardhat/issues/1112"
      },
      "mint(address,uint256)": {
        "params": {
          "_amount": "The amount to mint",
          "_to": "The account to mint to"
        }
      },
      "setController(address)": {
        "params": {
          "_controller": "The new Controller contract"
        }
      },
      "totalSupply()": {
        "details": "Returns the amount of tokens in existence."
      }
    },
    "title": "Non-transferable token that represents users' debts",
    "version": 1
  },
  "userdoc": {
    "kind": "user",
    "methods": {
      "accrueInterest()": {
        "notice": "Accrue interest over debt supply"
      },
      "balanceOf(address)": {
        "notice": "Get the updated (principal + interest) user's debt"
      },
      "burn(address,uint256)": {
        "notice": "Burn debt token"
      },
      "controller()": {
        "notice": "Controller contract"
      },
      "debtIndex()": {
        "notice": "Accumulator of the total earned interest rate since the beginning"
      },
      "getBlockNumber()": {
        "notice": "Get current block number"
      },
      "lastBlockAccrued()": {
        "notice": "The block when interest accrual was calculated for the last time"
      },
      "mint(address,uint256)": {
        "notice": "Mint debt token"
      },
      "setController(address)": {
        "notice": "Update Controller contract"
      }
    },
    "version": 1
  },
  "storageLayout": {
    "storage": [
      {
        "astId": 7184,
        "contract": "contracts/DebtToken.sol:DebtToken",
        "label": "_initialized",
        "offset": 0,
        "slot": "0",
        "type": "t_bool"
      },
      {
        "astId": 7187,
        "contract": "contracts/DebtToken.sol:DebtToken",
        "label": "_initializing",
        "offset": 1,
        "slot": "0",
        "type": "t_bool"
      },
      {
        "astId": 6155,
        "contract": "contracts/DebtToken.sol:DebtToken",
        "label": "controller",
        "offset": 2,
        "slot": "0",
        "type": "t_contract(IController)10868"
      },
      {
        "astId": 6263,
        "contract": "contracts/DebtToken.sol:DebtToken",
        "label": "__gap",
        "offset": 0,
        "slot": "1",
        "type": "t_array(t_uint256)49_storage"
      },
      {
        "astId": 14796,
        "contract": "contracts/DebtToken.sol:DebtToken",
        "label": "principalOf",
        "offset": 0,
        "slot": "50",
        "type": "t_mapping(t_address,t_uint256)"
      },
      {
        "astId": 14801,
        "contract": "contracts/DebtToken.sol:DebtToken",
        "label": "debtIndexOf",
        "offset": 0,
        "slot": "51",
        "type": "t_mapping(t_address,t_uint256)"
      },
      {
        "astId": 14803,
        "contract": "contracts/DebtToken.sol:DebtToken",
        "label": "totalSupply_",
        "offset": 0,
        "slot": "52",
        "type": "t_uint256"
      },
      {
        "astId": 14805,
        "contract": "contracts/DebtToken.sol:DebtToken",
        "label": "decimals",
        "offset": 0,
        "slot": "53",
        "type": "t_uint8"
      },
      {
        "astId": 14807,
        "contract": "contracts/DebtToken.sol:DebtToken",
        "label": "name",
        "offset": 0,
        "slot": "54",
        "type": "t_string_storage"
      },
      {
        "astId": 14809,
        "contract": "contracts/DebtToken.sol:DebtToken",
        "label": "symbol",
        "offset": 0,
        "slot": "55",
        "type": "t_string_storage"
      },
      {
        "astId": 14812,
        "contract": "contracts/DebtToken.sol:DebtToken",
        "label": "syntheticToken",
        "offset": 0,
        "slot": "56",
        "type": "t_contract(ISyntheticToken)11208"
      },
      {
        "astId": 14815,
        "contract": "contracts/DebtToken.sol:DebtToken",
        "label": "lastBlockAccrued",
        "offset": 0,
        "slot": "57",
        "type": "t_uint256"
      },
      {
        "astId": 14819,
        "contract": "contracts/DebtToken.sol:DebtToken",
        "label": "debtIndex",
        "offset": 0,
        "slot": "58",
        "type": "t_uint256"
      }
    ],
    "types": {
      "t_address": {
        "encoding": "inplace",
        "label": "address",
        "numberOfBytes": "20"
      },
      "t_array(t_uint256)49_storage": {
        "base": "t_uint256",
        "encoding": "inplace",
        "label": "uint256[49]",
        "numberOfBytes": "1568"
      },
      "t_bool": {
        "encoding": "inplace",
        "label": "bool",
        "numberOfBytes": "1"
      },
      "t_contract(IController)10868": {
        "encoding": "inplace",
        "label": "contract IController",
        "numberOfBytes": "20"
      },
      "t_contract(ISyntheticToken)11208": {
        "encoding": "inplace",
        "label": "contract ISyntheticToken",
        "numberOfBytes": "20"
      },
      "t_mapping(t_address,t_uint256)": {
        "encoding": "mapping",
        "key": "t_address",
        "label": "mapping(address => uint256)",
        "numberOfBytes": "32",
        "value": "t_uint256"
      },
      "t_string_storage": {
        "encoding": "bytes",
        "label": "string",
        "numberOfBytes": "32"
      },
      "t_uint256": {
        "encoding": "inplace",
        "label": "uint256",
        "numberOfBytes": "32"
      },
      "t_uint8": {
        "encoding": "inplace",
        "label": "uint8",
        "numberOfBytes": "1"
      }
    }
  }
}