{
  "address": "0x66F5834C93661516F06C78B03F2296F145Ba036D",
  "abi": [
    {
      "anonymous": false,
      "inputs": [
        {
          "indexed": true,
          "internalType": "address",
          "name": "owner",
          "type": "address"
        },
        {
          "indexed": true,
          "internalType": "address",
          "name": "spender",
          "type": "address"
        },
        {
          "indexed": false,
          "internalType": "uint256",
          "name": "value",
          "type": "uint256"
        }
      ],
      "name": "Approval",
      "type": "event"
    },
    {
      "anonymous": false,
      "inputs": [
        {
          "indexed": true,
          "internalType": "address",
          "name": "payer",
          "type": "address"
        },
        {
          "indexed": true,
          "internalType": "address",
          "name": "account",
          "type": "address"
        },
        {
          "indexed": false,
          "internalType": "uint256",
          "name": "amount",
          "type": "uint256"
        },
        {
          "indexed": false,
          "internalType": "uint256",
          "name": "fee",
          "type": "uint256"
        }
      ],
      "name": "DebtRepaid",
      "type": "event"
    },
    {
      "anonymous": false,
      "inputs": [
        {
          "indexed": false,
          "internalType": "bool",
          "name": "newActive",
          "type": "bool"
        }
      ],
      "name": "DebtTokenActiveUpdated",
      "type": "event"
    },
    {
      "anonymous": false,
      "inputs": [
        {
          "indexed": false,
          "internalType": "uint256",
          "name": "oldInterestRate",
          "type": "uint256"
        },
        {
          "indexed": false,
          "internalType": "uint256",
          "name": "newInterestRate",
          "type": "uint256"
        }
      ],
      "name": "InterestRateUpdated",
      "type": "event"
    },
    {
      "anonymous": false,
      "inputs": [
        {
          "indexed": false,
          "internalType": "uint256",
          "name": "oldMaxTotalSupply",
          "type": "uint256"
        },
        {
          "indexed": false,
          "internalType": "uint256",
          "name": "newMaxTotalSupply",
          "type": "uint256"
        }
      ],
      "name": "MaxTotalSupplyUpdated",
      "type": "event"
    },
    {
      "anonymous": false,
      "inputs": [
        {
          "indexed": true,
          "internalType": "address",
          "name": "account",
          "type": "address"
        },
        {
          "indexed": true,
          "internalType": "address",
          "name": "to",
          "type": "address"
        },
        {
          "indexed": false,
          "internalType": "uint256",
          "name": "amount",
          "type": "uint256"
        },
        {
          "indexed": false,
          "internalType": "uint256",
          "name": "fee",
          "type": "uint256"
        }
      ],
      "name": "SyntheticTokenIssued",
      "type": "event"
    },
    {
      "anonymous": false,
      "inputs": [
        {
          "indexed": true,
          "internalType": "address",
          "name": "from",
          "type": "address"
        },
        {
          "indexed": true,
          "internalType": "address",
          "name": "to",
          "type": "address"
        },
        {
          "indexed": false,
          "internalType": "uint256",
          "name": "value",
          "type": "uint256"
        }
      ],
      "name": "Transfer",
      "type": "event"
    },
    {
      "stateMutability": "payable",
      "type": "fallback"
    },
    {
      "inputs": [],
      "name": "SECONDS_PER_YEAR",
      "outputs": [
        {
          "internalType": "uint256",
          "name": "",
          "type": "uint256"
        }
      ],
      "stateMutability": "view",
      "type": "function"
    },
    {
      "inputs": [],
      "name": "VERSION",
      "outputs": [
        {
          "internalType": "string",
          "name": "",
          "type": "string"
        }
      ],
      "stateMutability": "view",
      "type": "function"
    },
    {
      "inputs": [],
      "name": "accrueInterest",
      "outputs": [],
      "stateMutability": "nonpayable",
      "type": "function"
    },
    {
      "inputs": [
        {
          "internalType": "address",
          "name": "",
          "type": "address"
        },
        {
          "internalType": "address",
          "name": "",
          "type": "address"
        }
      ],
      "name": "allowance",
      "outputs": [
        {
          "internalType": "uint256",
          "name": "",
          "type": "uint256"
        }
      ],
      "stateMutability": "pure",
      "type": "function"
    },
    {
      "inputs": [
        {
          "internalType": "address",
          "name": "",
          "type": "address"
        },
        {
          "internalType": "uint256",
          "name": "",
          "type": "uint256"
        }
      ],
      "name": "approve",
      "outputs": [
        {
          "internalType": "bool",
          "name": "",
          "type": "bool"
        }
      ],
      "stateMutability": "nonpayable",
      "type": "function"
    },
    {
      "inputs": [
        {
          "internalType": "address",
          "name": "account_",
          "type": "address"
        }
      ],
      "name": "balanceOf",
      "outputs": [
        {
          "internalType": "uint256",
          "name": "",
          "type": "uint256"
        }
      ],
      "stateMutability": "view",
      "type": "function"
    },
    {
      "inputs": [
        {
          "internalType": "address",
          "name": "from_",
          "type": "address"
        },
        {
          "internalType": "uint256",
          "name": "amount_",
          "type": "uint256"
        }
      ],
      "name": "burn",
      "outputs": [],
      "stateMutability": "nonpayable",
      "type": "function"
    },
    {
      "inputs": [],
      "name": "debtIndex",
      "outputs": [
        {
          "internalType": "uint256",
          "name": "",
          "type": "uint256"
        }
      ],
      "stateMutability": "view",
      "type": "function"
    },
    {
      "inputs": [],
      "name": "decimals",
      "outputs": [
        {
          "internalType": "uint8",
          "name": "",
          "type": "uint8"
        }
      ],
      "stateMutability": "view",
      "type": "function"
    },
    {
      "inputs": [],
      "name": "governor",
      "outputs": [
        {
          "internalType": "address",
          "name": "_governor",
          "type": "address"
        }
      ],
      "stateMutability": "view",
      "type": "function"
    },
    {
      "inputs": [
        {
          "internalType": "string",
          "name": "name_",
          "type": "string"
        },
        {
          "internalType": "string",
          "name": "symbol_",
          "type": "string"
        },
        {
          "internalType": "contract IPool",
          "name": "pool_",
          "type": "address"
        },
        {
          "internalType": "contract ISyntheticToken",
          "name": "syntheticToken_",
          "type": "address"
        },
        {
          "internalType": "uint256",
          "name": "interestRate_",
          "type": "uint256"
        },
        {
          "internalType": "uint256",
          "name": "maxTotalSupply_",
          "type": "uint256"
        }
      ],
      "name": "initialize",
      "outputs": [],
      "stateMutability": "nonpayable",
      "type": "function"
    },
    {
      "inputs": [],
      "name": "interestRate",
      "outputs": [
        {
          "internalType": "uint256",
          "name": "",
          "type": "uint256"
        }
      ],
      "stateMutability": "view",
      "type": "function"
    },
    {
      "inputs": [],
      "name": "interestRatePerSecond",
      "outputs": [
        {
          "internalType": "uint256",
          "name": "",
          "type": "uint256"
        }
      ],
      "stateMutability": "view",
      "type": "function"
    },
    {
      "inputs": [],
      "name": "isActive",
      "outputs": [
        {
          "internalType": "bool",
          "name": "",
          "type": "bool"
        }
      ],
      "stateMutability": "view",
      "type": "function"
    },
    {
      "inputs": [
        {
          "internalType": "uint256",
          "name": "amount_",
          "type": "uint256"
        },
        {
          "internalType": "address",
          "name": "to_",
          "type": "address"
        }
      ],
      "name": "issue",
      "outputs": [
        {
          "internalType": "uint256",
          "name": "_issued",
          "type": "uint256"
        }
      ],
      "stateMutability": "nonpayable",
      "type": "function"
    },
    {
      "inputs": [],
      "name": "lastTimestampAccrued",
      "outputs": [
        {
          "internalType": "uint256",
          "name": "",
          "type": "uint256"
        }
      ],
      "stateMutability": "view",
      "type": "function"
    },
    {
      "inputs": [],
      "name": "maxTotalSupply",
      "outputs": [
        {
          "internalType": "uint256",
          "name": "",
          "type": "uint256"
        }
      ],
      "stateMutability": "view",
      "type": "function"
    },
    {
      "inputs": [],
      "name": "name",
      "outputs": [
        {
          "internalType": "string",
          "name": "",
          "type": "string"
        }
      ],
      "stateMutability": "view",
      "type": "function"
    },
    {
      "inputs": [],
      "name": "pool",
      "outputs": [
        {
          "internalType": "contract IPool",
          "name": "",
          "type": "address"
        }
      ],
      "stateMutability": "view",
      "type": "function"
    },
    {
      "inputs": [
        {
          "internalType": "address",
          "name": "onBehalfOf_",
          "type": "address"
        },
        {
          "internalType": "uint256",
          "name": "amount_",
          "type": "uint256"
        }
      ],
      "name": "repay",
      "outputs": [
        {
          "internalType": "uint256",
          "name": "_repaid",
          "type": "uint256"
        }
      ],
      "stateMutability": "nonpayable",
      "type": "function"
    },
    {
      "inputs": [
        {
          "internalType": "contract IERC20",
          "name": "token_",
          "type": "address"
        },
        {
          "internalType": "address",
          "name": "to_",
          "type": "address"
        },
        {
          "internalType": "uint256",
          "name": "amount_",
          "type": "uint256"
        }
      ],
      "name": "sweep",
      "outputs": [],
      "stateMutability": "nonpayable",
      "type": "function"
    },
    {
      "inputs": [],
      "name": "symbol",
      "outputs": [
        {
          "internalType": "string",
          "name": "",
          "type": "string"
        }
      ],
      "stateMutability": "view",
      "type": "function"
    },
    {
      "inputs": [],
      "name": "syntheticToken",
      "outputs": [
        {
          "internalType": "contract ISyntheticToken",
          "name": "",
          "type": "address"
        }
      ],
      "stateMutability": "view",
      "type": "function"
    },
    {
      "inputs": [],
      "name": "toggleIsActive",
      "outputs": [],
      "stateMutability": "nonpayable",
      "type": "function"
    },
    {
      "inputs": [],
      "name": "totalSupply",
      "outputs": [
        {
          "internalType": "uint256",
          "name": "",
          "type": "uint256"
        }
      ],
      "stateMutability": "view",
      "type": "function"
    },
    {
      "inputs": [
        {
          "internalType": "address",
          "name": "",
          "type": "address"
        },
        {
          "internalType": "uint256",
          "name": "",
          "type": "uint256"
        }
      ],
      "name": "transfer",
      "outputs": [
        {
          "internalType": "bool",
          "name": "",
          "type": "bool"
        }
      ],
      "stateMutability": "nonpayable",
      "type": "function"
    },
    {
      "inputs": [
        {
          "internalType": "address",
          "name": "",
          "type": "address"
        },
        {
          "internalType": "address",
          "name": "",
          "type": "address"
        },
        {
          "internalType": "uint256",
          "name": "",
          "type": "uint256"
        }
      ],
      "name": "transferFrom",
      "outputs": [
        {
          "internalType": "bool",
          "name": "",
          "type": "bool"
        }
      ],
      "stateMutability": "nonpayable",
      "type": "function"
    },
    {
      "inputs": [
        {
          "internalType": "uint256",
          "name": "newInterestRate_",
          "type": "uint256"
        }
      ],
      "name": "updateInterestRate",
      "outputs": [],
      "stateMutability": "nonpayable",
      "type": "function"
    },
    {
      "inputs": [
        {
          "internalType": "uint256",
          "name": "newMaxTotalSupply_",
          "type": "uint256"
        }
      ],
      "name": "updateMaxTotalSupply",
      "outputs": [],
      "stateMutability": "nonpayable",
      "type": "function"
    },
    {
      "stateMutability": "payable",
      "type": "receive"
    }
  ],
  "transactionHash": "0x3fd64fd6c99621d91486d089296ea178f964ced8c02b0d3334a1e6723787383d",
  "args": [],
  "numDeployments": 1,
  "solcInputHash": "d4de23420259fd811f95bb7990a3cd60",
  "bytecode": "0x608060405234801561001057600080fd5b50612ea7806100206000396000f3fe6080604052600436106101c65760003560e01c806374e87e1e116100f7578063a6afed9511610095578063d259332911610064578063d259332914610560578063dd62ed3e14610575578063e6a69ab814610595578063ffa1ad74146105ad5761020e565b8063a6afed95146104fa578063a9059cbb1461050f578063b696a6ad1461052a578063bb8c631f1461054a5761020e565b80638230ecd6116100d15780638230ecd61461049057806395d89b41146104b05780639cc820da146104c55780639dc29fac146104da5761020e565b806374e87e1e1461043a578063752a50a61461045a5780637c3a00fd1461047a5761020e565b806322f3e2d411610164578063313ce5671161013e578063313ce567146103b1578063565f3d4f146103e457806362c06767146103fa57806370a082311461041a5761020e565b806322f3e2d41461035a57806323b872dd1461037b5780632ab4d0521461039b5761020e565b806316f0115b116101a057806316f0115b146102d5578063172f50a4146102f557806318160ddd1461031757806322867d781461033a5761020e565b806306fdde031461024d578063095ea7b3146102785780630c340a24146102a85761020e565b3661020e5760405162461bcd60e51b81526020600482015260136024820152721c9958d95a5d994b5b9bdd0b585b1b1bddd959606a1b60448201526064015b60405180910390fd5b60405162461bcd60e51b815260206004820152601460248201527319985b1b189858dacb5b9bdd0b585b1b1bddd95960621b6044820152606401610205565b34801561025957600080fd5b506102626105de565b60405161026f9190612900565b60405180910390f35b34801561028457600080fd5b50610298610293366004612948565b61066c565b604051901515815260200161026f565b3480156102b457600080fd5b506102bd6106b0565b6040516001600160a01b03909116815260200161026f565b3480156102e157600080fd5b506002546102bd906001600160a01b031681565b34801561030157600080fd5b50610315610310366004612974565b610732565b005b34801561032357600080fd5b5061032c6107f2565b60405190815260200161026f565b34801561034657600080fd5b5061032c610355366004612948565b610815565b34801561036657600080fd5b50603d5461029890600160a01b900460ff1681565b34801561038757600080fd5b5061029861039636600461298d565b610dc4565b3480156103a757600080fd5b5061032c60385481565b3480156103bd57600080fd5b50603d546103d290600160a81b900460ff1681565b60405160ff909116815260200161026f565b3480156103f057600080fd5b5061032c603a5481565b34801561040657600080fd5b5061031561041536600461298d565b610e08565b34801561042657600080fd5b5061032c6104353660046129ce565b610e41565b34801561044657600080fd5b50610315610455366004612a34565b610ead565b34801561046657600080fd5b50610315610475366004612974565b611061565b34801561048657600080fd5b5061032c603c5481565b34801561049c57600080fd5b50603d546102bd906001600160a01b031681565b3480156104bc57600080fd5b50610262611129565b3480156104d157600080fd5b5061032c611136565b3480156104e657600080fd5b506103156104f5366004612948565b61114a565b34801561050657600080fd5b5061031561119d565b34801561051b57600080fd5b50610298610396366004612948565b34801561053657600080fd5b5061032c610545366004612adb565b6112cf565b34801561055657600080fd5b5061032c603b5481565b34801561056c57600080fd5b50610315611b95565b34801561058157600080fd5b5061032c610590366004612b0b565b611c2e565b3480156105a157600080fd5b5061032c6301e1338081565b3480156105b957600080fd5b50610262604051806040016040528060058152602001640312e302e360dc1b81525081565b603480546105eb90612b39565b80601f016020809104026020016040519081016040528092919081815260200182805461061790612b39565b80156106645780601f1061063957610100808354040283529160200191610664565b820191906000526020600020905b81548152906001019060200180831161064757829003601f168201915b505050505081565b60405162461bcd60e51b8152602060048201526016602482015275185c1c1c9bdd985b0b5b9bdd0b5cdd5c1c1bdc9d195960521b6044820152600090606401610205565b6002546040805163030d028960e21b815290516000926001600160a01b031691630c340a24916004808301926020929190829003018186803b1580156106f557600080fd5b505afa158015610709573d6000803e3d6000fd5b505050506040513d601f19601f8201168201806040525081019061072d9190612b74565b905090565b61073a6106b0565b6001600160a01b0316336001600160a01b03161461076a5760405162461bcd60e51b815260040161020590612b91565b603854818114156107b35760405162461bcd60e51b81526020600482015260136024820152721b995dcb5cd85b594b585ccb58dd5c9c995b9d606a1b6044820152606401610205565b60408051828152602081018490527fc58cd6132bb46df23d468939c03dd023b74b509aaa6b04c39d5a6461c65963bd910160405180910390a150603855565b6000806107fd611c79565b505090508060395461080f9190612bcd565b91505090565b6002546040805163ecf3a3f960e01b815290516000926001600160a01b03169163ecf3a3f9916004808301926020929190829003018186803b15801561085a57600080fd5b505afa15801561086e573d6000803e3d6000fd5b505050506040513d601f19601f820116820180604052508101906108929190612bfa565b156108ca5760405162461bcd60e51b815260206004820152600860248201526739b43aba3237bbb760c11b6044820152606401610205565b6002600154141561091d5760405162461bcd60e51b815260206004820152601f60248201527f5265656e7472616e637947756172643a207265656e7472616e742063616c6c006044820152606401610205565b6002600155816109605760405162461bcd60e51b815260206004820152600e60248201526d616d6f756e742d69732d7a65726f60901b6044820152606401610205565b61096861119d565b60025460408051631f03d67d60e21b815290516000926001600160a01b031691637c0f59f4916004808301926020929190829003018186803b1580156109ad57600080fd5b505afa1580156109c1573d6000803e3d6000fd5b505050506040513d601f19601f820116820180604052508101906109e59190612c15565b839250905060008115610b0e57610a0e610a0783670de0b6b3a7640000612bcd565b8590611ce9565b9250610a1a8385612c2e565b603d54600254604080516331056e5760e21b815290519394506001600160a01b039283169363b2a02ff1933393169163c415b95c916004808301926020929190829003018186803b158015610a6e57600080fd5b505afa158015610a82573d6000803e3d6000fd5b505050506040513d601f19601f82011682018060405250810190610aa69190612b74565b6040516001600160e01b031960e085901b1681526001600160a01b0392831660048201529116602482015260448101849052606401600060405180830381600087803b158015610af557600080fd5b505af1158015610b09573d6000803e3d6000fd5b505050505b6002546040805163f609280960e01b815290516000926001600160a01b03169163f6092809916004808301926020929190829003018186803b158015610b5357600080fd5b505afa158015610b67573d6000803e3d6000fd5b505050506040513d601f19601f82011682018060405250810190610b8b9190612c15565b90508015610d035760025460408051637556d1c160e11b815290516000926001600160a01b03169163eaada382916004808301926020929190829003018186803b158015610bd857600080fd5b505afa158015610bec573d6000803e3d6000fd5b505050506040513d601f19601f82011682018060405250810190610c109190612b74565b603d546001600160a01b0391821691638d0dba00911687610c308b610e41565b610c3a9190612c2e565b6040516001600160e01b031960e085901b1681526001600160a01b039092166004830152602482015260440160206040518083038186803b158015610c7e57600080fd5b505afa158015610c92573d6000803e3d6000fd5b505050506040513d601f19601f82011682018060405250810190610cb69190612c15565b9050801580610cc55750818110155b610d015760405162461bcd60e51b815260206004820152600d60248201526c3232b13a16b63a16b33637b7b960991b6044820152606401610205565b505b603d54604051632770a7eb60e21b8152336004820152602481018690526001600160a01b0390911690639dc29fac90604401600060405180830381600087803b158015610d4f57600080fd5b505af1158015610d63573d6000803e3d6000fd5b50505050610d718685611d26565b60408051868152602081018490526001600160a01b0388169133917fb2828294ad940d9ae096e368b4f878a8dabf30da36ce9dca5f5ad8eaf6ed052a910160405180910390a35050600180555092915050565b60405162461bcd60e51b81526020600482015260166024820152751d1c985b9cd9995c8b5b9bdd0b5cdd5c1c1bdc9d195960521b6044820152600090606401610205565b610e10611f8d565b6001600160a01b038316610e2d57610e288282611fc7565b505050565b610e286001600160a01b03841683836120e0565b6001600160a01b03811660009081526036602052604081205480610e685750600092915050565b6000610e72611c79565b506001600160a01b0386166000908152603760205260409020549092509050610e9b8284612c45565b610ea59190612c64565b949350505050565b600054610100900460ff1680610ec6575060005460ff16155b610ee25760405162461bcd60e51b815260040161020590612c86565b600054610100900460ff16158015610f04576000805461ffff19166101011790555b6001600160a01b038416610f4e5760405162461bcd60e51b81526020600482015260116024820152701cde5b9d1a195d1a58cb5a5ccb5b9d5b1b607a1b6044820152606401610205565b610f56612132565b610f5f856121a2565b610f6b60348a8a612837565b50610f7860358888612837565b50836001600160a01b031663313ce5676040518163ffffffff1660e01b815260040160206040518083038186803b158015610fb257600080fd5b505afa158015610fc6573d6000803e3d6000fd5b505050506040513d601f19601f82011682018060405250810190610fea9190612cd4565b603d805442603a55670de0b6b3a7640000603b55603c86905560388590556001600160a81b031960ff93909316600160a81b02929092166001600160b01b0319909216919091176001600160a01b03861617600160a01b1790558015611056576000805461ff00191690555b505050505050505050565b6110696106b0565b6001600160a01b0316336001600160a01b0316146110995760405162461bcd60e51b815260040161020590612b91565b6110a161119d565b603c54818114156110ea5760405162461bcd60e51b81526020600482015260136024820152721b995dcb5cd85b594b585ccb58dd5c9c995b9d606a1b6044820152606401610205565b60408051828152602081018490527f41e376fd99913dea7fda140f5c0bd997515b1a181acc58737320322548ec6e72910160405180910390a150603c55565b603580546105eb90612b39565b60006301e13380603c5461072d9190612c64565b6002546001600160a01b0316331461118f5760405162461bcd60e51b81526020600482015260086024820152671b9bdd0b5c1bdbdb60c21b6044820152606401610205565b6111998282611d26565b5050565b60008060006111aa611c79565b925092509250804214156111bd57505050565b42603a558215610e285782603960008282546111d99190612bcd565b9091555050603b829055603d54600254604080516331056e5760e21b815290516001600160a01b03938416936340c10f1993169163c415b95c916004808301926020929190829003018186803b15801561123257600080fd5b505afa158015611246573d6000803e3d6000fd5b505050506040513d601f19601f8201168201806040525081019061126a9190612b74565b6040516001600160e01b031960e084901b1681526001600160a01b03909116600482015260248101869052604401600060405180830381600087803b1580156112b257600080fd5b505af11580156112c6573d6000803e3d6000fd5b50505050505050565b6002546040805163ecf3a3f960e01b815290516000926001600160a01b03169163ecf3a3f9916004808301926020929190829003018186803b15801561131457600080fd5b505afa158015611328573d6000803e3d6000fd5b505050506040513d601f19601f8201168201806040525081019061134c9190612bfa565b156113845760405162461bcd60e51b815260206004820152600860248201526739b43aba3237bbb760c11b6044820152606401610205565b600260015414156113d75760405162461bcd60e51b815260206004820152601f60248201527f5265656e7472616e637947756172643a207265656e7472616e742063616c6c006044820152606401610205565b6002600181905554603d546040516309bf6ca360e31b81526001600160a01b039182166004820152911690634dfb65189060240160206040518083038186803b15801561142357600080fd5b505afa158015611437573d6000803e3d6000fd5b505050506040513d601f19601f8201168201806040525081019061145b9190612bfa565b61149e5760405162461bcd60e51b81526020600482015260146024820152731cde5b9d1a195d1a58cb5a5b995e1a5cdd195b9d60621b6044820152606401610205565b603d60009054906101000a90046001600160a01b03166001600160a01b03166322f3e2d46040518163ffffffff1660e01b815260040160206040518083038186803b1580156114ec57600080fd5b505afa158015611500573d6000803e3d6000fd5b505050506040513d601f19601f820116820180604052508101906115249190612bfa565b6115655760405162461bcd60e51b815260206004820152601260248201527173796e7468657469632d696e61637469766560701b6044820152606401610205565b603d54600160a01b900460ff166115b45760405162461bcd60e51b8152602060048201526013602482015272646562742d746f6b656e2d696e61637469766560681b6044820152606401610205565b600083116115f55760405162461bcd60e51b815260206004820152600e60248201526d616d6f756e742d69732d7a65726f60901b6044820152606401610205565b6115fd61119d565b60025460405163dde3ab9560e01b81523360048201526000916001600160a01b03169063dde3ab959060240160a06040518083038186803b15801561164157600080fd5b505afa158015611655573d6000803e3d6000fd5b505050506040513d601f19601f820116820180604052508101906116799190612cf7565b9450505050506000600260009054906101000a90046001600160a01b03166001600160a01b031663eaada3826040518163ffffffff1660e01b815260040160206040518083038186803b1580156116cf57600080fd5b505afa1580156116e3573d6000803e3d6000fd5b505050506040513d601f19601f820116820180604052508101906117079190612b74565b603d5460405163b5e9bef560e01b81526001600160a01b0391821660048201526024810185905291925082169063b5e9bef59060440160206040518083038186803b15801561175557600080fd5b505afa158015611769573d6000803e3d6000fd5b505050506040513d601f19601f8201168201806040525081019061178d9190612c15565b8511156117d45760405162461bcd60e51b81526020600482015260156024820152741b9bdd0b595b9bdd59da0b58dbdb1b185d195c985b605a1b6044820152606401610205565b6002546040805163f609280960e01b815290516000926001600160a01b03169163f6092809916004808301926020929190829003018186803b15801561181957600080fd5b505afa15801561182d573d6000803e3d6000fd5b505050506040513d601f19601f820116820180604052508101906118519190612c15565b9050801561193f57603d5481906001600160a01b0380851691638d0dba0091168961187b33610e41565b6118859190612bcd565b6040516001600160e01b031960e085901b1681526001600160a01b039092166004830152602482015260440160206040518083038186803b1580156118c957600080fd5b505afa1580156118dd573d6000803e3d6000fd5b505050506040513d601f19601f820116820180604052508101906119019190612c15565b101561193f5760405162461bcd60e51b815260206004820152600d60248201526c3232b13a16b63a16b33637b7b960991b6044820152606401610205565b60025460408051632a9133c160e01b815290516000926001600160a01b031691632a9133c1916004808301926020929190829003018186803b15801561198457600080fd5b505afa158015611998573d6000803e3d6000fd5b505050506040513d601f19601f820116820180604052508101906119bc9190612c15565b879550905060008115611acf576119d38883612276565b603d54600254604080516331056e5760e21b815290519394506001600160a01b03928316936340c10f19939092169163c415b95c91600480820192602092909190829003018186803b158015611a2857600080fd5b505afa158015611a3c573d6000803e3d6000fd5b505050506040513d601f19601f82011682018060405250810190611a609190612b74565b6040516001600160e01b031960e084901b1681526001600160a01b03909116600482015260248101849052604401600060405180830381600087803b158015611aa857600080fd5b505af1158015611abc573d6000803e3d6000fd5b505050508086611acc9190612c2e565b95505b603d546040516340c10f1960e01b81526001600160a01b03898116600483015260248201899052909116906340c10f1990604401600060405180830381600087803b158015611b1d57600080fd5b505af1158015611b31573d6000803e3d6000fd5b50505050611b3f33896122ae565b60408051898152602081018390526001600160a01b0389169133917f8ed56bdcd59d676b8a4feb74d858ffa2bc47f80b291f9df3ced2fad3d953f798910160405180910390a35050600180555091949350505050565b611b9d6106b0565b6001600160a01b0316336001600160a01b031614611bcd5760405162461bcd60e51b815260040161020590612b91565b603d54604051600160a01b90910460ff1615808252907fb1d9ceb4467fd05a16930f966760d70eb5926cf0c1c19a7b6bfe59d805c190459060200160405180910390a1603d8054911515600160a01b0260ff60a01b19909216919091179055565b60405162461bcd60e51b815260206004820152601760248201527f616c6c6f77616e63652d6e6f742d737570706f727465640000000000000000006044820152600090606401610205565b603a54603b5460009142811015611ce4576000611c968242612c2e565b611c9e611136565b611ca89190612c45565b90508015611ce257603954611cbe908290612276565b9350611cd5603b548261227690919063ffffffff16565b611cdf9084612bcd565b92505b505b909192565b600081611cf7600282612c64565b611d09670de0b6b3a764000086612c45565b611d139190612bcd565b611d1d9190612c64565b90505b92915050565b816000600260009054906101000a90046001600160a01b03166001600160a01b0316633605b51b6040518163ffffffff1660e01b815260040160006040518083038186803b158015611d7757600080fd5b505afa158015611d8b573d6000803e3d6000fd5b505050506040513d6000823e601f3d908101601f19168201604052611db39190810190612d5f565b603d5481519192506001600160a01b03169060005b81811015611e6157838181518110611de257611de2612e24565b6020908102919091010151604051626cc3c360e61b81526001600160a01b038581166004830152878116602483015290911690631b30f0c090604401600060405180830381600087803b158015611e3857600080fd5b505af1158015611e4c573d6000803e3d6000fd5b5050505080611e5a90612e3a565b9050611dc8565b506001600160a01b038616611eb85760405162461bcd60e51b815260206004820152601a60248201527f6275726e2d66726f6d2d7468652d7a65726f2d616464726573730000000000006044820152606401610205565b6000611ec387610e41565b905085811015611f155760405162461bcd60e51b815260206004820152601b60248201527f6275726e2d616d6f756e742d657863656564732d62616c616e636500000000006044820152606401610205565b6001600160a01b03871660008181526036602090815260408083208a86039055603b546037835281842055603980548b90039055518981529192917fddf252ad1be2c89b69c2b068fc378daa952ba7f163c4a11628f55a4df523b3ef910160405180910390a36112c687611f8889610e41565b61254b565b611f956106b0565b6001600160a01b0316336001600160a01b031614611fc55760405162461bcd60e51b815260040161020590612b91565b565b804710156120175760405162461bcd60e51b815260206004820152601d60248201527f416464726573733a20696e73756666696369656e742062616c616e63650000006044820152606401610205565b6000826001600160a01b03168260405160006040518083038185875af1925050503d8060008114612064576040519150601f19603f3d011682016040523d82523d6000602084013e612069565b606091505b5050905080610e285760405162461bcd60e51b815260206004820152603a60248201527f416464726573733a20756e61626c6520746f2073656e642076616c75652c207260448201527f6563697069656e74206d617920686176652072657665727465640000000000006064820152608401610205565b604080516001600160a01b038416602482015260448082018490528251808303909101815260649091019091526020810180516001600160e01b031663a9059cbb60e01b179052610e289084906125b4565b600054610100900460ff168061214b575060005460ff16155b6121675760405162461bcd60e51b815260040161020590612c86565b600054610100900460ff16158015612189576000805461ffff19166101011790555b60018055801561219f576000805461ff00191690555b50565b600054610100900460ff16806121bb575060005460ff16155b6121d75760405162461bcd60e51b815260040161020590612c86565b600054610100900460ff161580156121f9576000805461ffff19166101011790555b6001600160a01b0382166122465760405162461bcd60e51b8152602060048201526014602482015273706f6f6c2d616464726573732d69732d7a65726f60601b6044820152606401610205565b600280546001600160a01b0319166001600160a01b0384161790558015611199576000805461ff00191690555050565b6000821580612283575081155b1561229057506000611d20565b670de0b6b3a76400006122a4600282612c64565b611d098486612c45565b816000600260009054906101000a90046001600160a01b03166001600160a01b0316633605b51b6040518163ffffffff1660e01b815260040160006040518083038186803b1580156122ff57600080fd5b505afa158015612313573d6000803e3d6000fd5b505050506040513d6000823e601f3d908101601f1916820160405261233b9190810190612d5f565b603d5481519192506001600160a01b03169060005b818110156123e95783818151811061236a5761236a612e24565b6020908102919091010151604051626cc3c360e61b81526001600160a01b038581166004830152878116602483015290911690631b30f0c090604401600060405180830381600087803b1580156123c057600080fd5b505af11580156123d4573d6000803e3d6000fd5b50505050806123e290612e3a565b9050612350565b506001600160a01b0386166124405760405162461bcd60e51b815260206004820152601860248201527f6d696e742d746f2d7468652d7a65726f2d6164647265737300000000000000006044820152606401610205565b600061244b87610e41565b9050856039600082825461245f9190612bcd565b909155505060385460395411156124b85760405162461bcd60e51b815260206004820152601760248201527f737572706173732d6d61782d646562742d737570706c790000000000000000006044820152606401610205565b6001600160a01b038716600090815260366020526040812080548892906124e0908490612bcd565b9091555050603b546001600160a01b0388166000818152603760205260408082209390935591519091907fddf252ad1be2c89b69c2b068fc378daa952ba7f163c4a11628f55a4df523b3ef90612539908a815260200190565b60405180910390a36112c68782612686565b8061119957600254604051631d71be3b60e21b81526001600160a01b038481166004830152909116906375c6f8ec906024015b600060405180830381600087803b15801561259857600080fd5b505af11580156125ac573d6000803e3d6000fd5b505050505050565b6000612609826040518060400160405280602081526020017f5361666545524332303a206c6f772d6c6576656c2063616c6c206661696c6564815250856001600160a01b03166126bd9092919063ffffffff16565b805190915015610e2857808060200190518101906126279190612bfa565b610e285760405162461bcd60e51b815260206004820152602a60248201527f5361666545524332303a204552433230206f7065726174696f6e20646964206e6044820152691bdd081cdd58d8d9595960b21b6064820152608401610205565b8061119957600254604051631dc2da6d60e21b81526001600160a01b0384811660048301529091169063770b69b49060240161257e565b60606126cc84846000856126d6565b90505b9392505050565b6060824710156127375760405162461bcd60e51b815260206004820152602660248201527f416464726573733a20696e73756666696369656e742062616c616e636520666f6044820152651c8818d85b1b60d21b6064820152608401610205565b843b6127855760405162461bcd60e51b815260206004820152601d60248201527f416464726573733a2063616c6c20746f206e6f6e2d636f6e74726163740000006044820152606401610205565b600080866001600160a01b031685876040516127a19190612e55565b60006040518083038185875af1925050503d80600081146127de576040519150601f19603f3d011682016040523d82523d6000602084013e6127e3565b606091505b50915091506127f38282866127fe565b979650505050505050565b6060831561280d5750816126cf565b82511561281d5782518084602001fd5b8160405162461bcd60e51b81526004016102059190612900565b82805461284390612b39565b90600052602060002090601f01602090048101928261286557600085556128ab565b82601f1061287e5782800160ff198235161785556128ab565b828001600101855582156128ab579182015b828111156128ab578235825591602001919060010190612890565b506128b79291506128bb565b5090565b5b808211156128b757600081556001016128bc565b60005b838110156128eb5781810151838201526020016128d3565b838111156128fa576000848401525b50505050565b602081526000825180602084015261291f8160408501602087016128d0565b601f01601f19169190910160400192915050565b6001600160a01b038116811461219f57600080fd5b6000806040838503121561295b57600080fd5b823561296681612933565b946020939093013593505050565b60006020828403121561298657600080fd5b5035919050565b6000806000606084860312156129a257600080fd5b83356129ad81612933565b925060208401356129bd81612933565b929592945050506040919091013590565b6000602082840312156129e057600080fd5b81356126cf81612933565b60008083601f8401126129fd57600080fd5b50813567ffffffffffffffff811115612a1557600080fd5b602083019150836020828501011115612a2d57600080fd5b9250929050565b60008060008060008060008060c0898b031215612a5057600080fd5b883567ffffffffffffffff80821115612a6857600080fd5b612a748c838d016129eb565b909a50985060208b0135915080821115612a8d57600080fd5b50612a9a8b828c016129eb565b9097509550506040890135612aae81612933565b93506060890135612abe81612933565b979a969950949793969295929450505060808201359160a0013590565b60008060408385031215612aee57600080fd5b823591506020830135612b0081612933565b809150509250929050565b60008060408385031215612b1e57600080fd5b8235612b2981612933565b91506020830135612b0081612933565b600181811c90821680612b4d57607f821691505b60208210811415612b6e57634e487b7160e01b600052602260045260246000fd5b50919050565b600060208284031215612b8657600080fd5b81516126cf81612933565b6020808252600c908201526b3737ba16b3b7bb32b93737b960a11b604082015260600190565b634e487b7160e01b600052601160045260246000fd5b60008219821115612be057612be0612bb7565b500190565b80518015158114612bf557600080fd5b919050565b600060208284031215612c0c57600080fd5b611d1d82612be5565b600060208284031215612c2757600080fd5b5051919050565b600082821015612c4057612c40612bb7565b500390565b6000816000190483118215151615612c5f57612c5f612bb7565b500290565b600082612c8157634e487b7160e01b600052601260045260246000fd5b500490565b6020808252602e908201527f496e697469616c697a61626c653a20636f6e747261637420697320616c72656160408201526d191e481a5b9a5d1a585b1a5e995960921b606082015260800190565b600060208284031215612ce657600080fd5b815160ff811681146126cf57600080fd5b600080600080600060a08688031215612d0f57600080fd5b612d1886612be5565b602087015160408801516060890151608090990151929a91995097965090945092505050565b634e487b7160e01b600052604160045260246000fd5b8051612bf581612933565b60006020808385031215612d7257600080fd5b825167ffffffffffffffff80821115612d8a57600080fd5b818501915085601f830112612d9e57600080fd5b815181811115612db057612db0612d3e565b8060051b604051601f19603f83011681018181108582111715612dd557612dd5612d3e565b604052918252848201925083810185019188831115612df357600080fd5b938501935b82851015612e1857612e0985612d54565b84529385019392850192612df8565b98975050505050505050565b634e487b7160e01b600052603260045260246000fd5b6000600019821415612e4e57612e4e612bb7565b5060010190565b60008251612e678184602087016128d0565b919091019291505056fea2646970667358221220518799ea3f823da5d990399d0f7f7dbbcfbae2506c426b903756601eb5822afa64736f6c63430008090033",
  "devdoc": {
    "kind": "dev",
    "methods": {
      "burn(address,uint256)": {
        "params": {
          "amount_": "The amount to burn",
          "from_": "The account to burn from"
        }
      },
      "issue(uint256,address)": {
        "params": {
          "amount_": "The amount to mint",
          "to_": "The beneficiary account"
        },
        "returns": {
          "_issued": "The amount issued after fees"
        }
      },
      "repay(address,uint256)": {
        "details": "The msg.sender is the payer and the account beneficed",
        "params": {
          "amount_": "The amount of synthetic token to burn (this is the gross amount, the repay fee will be subtracted from it)",
          "onBehalfOf_": "The account that will have debt decreased"
        },
        "returns": {
          "_repaid": "The amount repaid after fees"
        }
      },
      "sweep(address,address,uint256)": {
        "params": {
          "amount_": "The amount to send",
          "to_": "The recipient of the transfer",
          "token_": "The token to transfer"
        }
      }
    },
    "title": "Non-transferable token that represents users' debts",
    "version": 1
  },
  "userdoc": {
    "events": {
      "DebtRepaid(address,address,uint256,uint256)": {
        "notice": "Emitted when synthetic's debt is repaid"
      },
      "DebtTokenActiveUpdated(bool)": {
        "notice": "Emitted when active flag is updated"
      },
      "InterestRateUpdated(uint256,uint256)": {
        "notice": "Emitted when interest rate is updated"
      },
      "MaxTotalSupplyUpdated(uint256,uint256)": {
        "notice": "Emitted when max total supply is updated"
      },
      "SyntheticTokenIssued(address,address,uint256,uint256)": {
        "notice": "Emitted when synthetic token is issued"
      }
    },
    "kind": "user",
    "methods": {
      "accrueInterest()": {
        "notice": "Accrue interest over debt supply"
      },
      "balanceOf(address)": {
        "notice": "Get the updated (principal + interest) user's debt"
      },
      "burn(address,uint256)": {
        "notice": "Burn debt token"
      },
      "debtIndex()": {
        "notice": "Accumulator of the total earned interest rate since the beginning"
      },
      "decimals()": {
        "notice": "The decimals of the token"
      },
      "interestRate()": {
        "notice": "Interest rate"
      },
      "interestRatePerSecond()": {
        "notice": "Return interest rate (in percent) per second"
      },
      "isActive()": {
        "notice": "If true, disables msAsset minting on this pool"
      },
      "issue(uint256,address)": {
        "notice": "Lock collateral and mint synthetic token"
      },
      "lastTimestampAccrued()": {
        "notice": "The timestamp when interest accrual was calculated for the last time"
      },
      "maxTotalSupply()": {
        "notice": "The supply cap"
      },
      "name()": {
        "notice": "The name of the token"
      },
      "pool()": {
        "notice": "Pool contract"
      },
      "repay(address,uint256)": {
        "notice": "Send synthetic token to decrease debt"
      },
      "sweep(address,address,uint256)": {
        "notice": "ERC20 recovery in case of stuck tokens due direct transfers to the contract address."
      },
      "symbol()": {
        "notice": "The symbol of the token"
      },
      "syntheticToken()": {
        "notice": "The Synthetic token"
      },
      "toggleIsActive()": {
        "notice": "Enable/Disable the Debt Token"
      },
      "totalSupply()": {
        "notice": "Return the total supply"
      },
      "updateInterestRate(uint256)": {
        "notice": "Update interest rate (APR)"
      },
      "updateMaxTotalSupply(uint256)": {
        "notice": "Update max total supply"
      }
    },
    "version": 1
  },
  "storageLayout": {
    "storage": [
      {
        "astId": 6563,
        "contract": "contracts/DebtToken.sol:DebtToken",
        "label": "_initialized",
        "offset": 0,
        "slot": "0",
        "type": "t_bool"
      },
      {
        "astId": 6566,
        "contract": "contracts/DebtToken.sol:DebtToken",
        "label": "_initializing",
        "offset": 1,
        "slot": "0",
        "type": "t_bool"
      },
      {
        "astId": 6617,
        "contract": "contracts/DebtToken.sol:DebtToken",
        "label": "_status",
        "offset": 0,
        "slot": "1",
        "type": "t_uint256"
      },
      {
        "astId": 6448,
        "contract": "contracts/DebtToken.sol:DebtToken",
        "label": "pool",
        "offset": 0,
        "slot": "2",
        "type": "t_contract(IPool)8890"
      },
      {
        "astId": 6556,
        "contract": "contracts/DebtToken.sol:DebtToken",
        "label": "__gap",
        "offset": 0,
        "slot": "3",
        "type": "t_array(t_uint256)49_storage"
      },
      {
        "astId": 10183,
        "contract": "contracts/DebtToken.sol:DebtToken",
        "label": "name",
        "offset": 0,
        "slot": "52",
        "type": "t_string_storage"
      },
      {
        "astId": 10186,
        "contract": "contracts/DebtToken.sol:DebtToken",
        "label": "symbol",
        "offset": 0,
        "slot": "53",
        "type": "t_string_storage"
      },
      {
        "astId": 10191,
        "contract": "contracts/DebtToken.sol:DebtToken",
        "label": "principalOf",
        "offset": 0,
        "slot": "54",
        "type": "t_mapping(t_address,t_uint256)"
      },
      {
        "astId": 10196,
        "contract": "contracts/DebtToken.sol:DebtToken",
        "label": "debtIndexOf",
        "offset": 0,
        "slot": "55",
        "type": "t_mapping(t_address,t_uint256)"
      },
      {
        "astId": 10199,
        "contract": "contracts/DebtToken.sol:DebtToken",
        "label": "maxTotalSupply",
        "offset": 0,
        "slot": "56",
        "type": "t_uint256"
      },
      {
        "astId": 10202,
        "contract": "contracts/DebtToken.sol:DebtToken",
        "label": "totalSupply_",
        "offset": 0,
        "slot": "57",
        "type": "t_uint256"
      },
      {
        "astId": 10205,
        "contract": "contracts/DebtToken.sol:DebtToken",
        "label": "lastTimestampAccrued",
        "offset": 0,
        "slot": "58",
        "type": "t_uint256"
      },
      {
        "astId": 10209,
        "contract": "contracts/DebtToken.sol:DebtToken",
        "label": "debtIndex",
        "offset": 0,
        "slot": "59",
        "type": "t_uint256"
      },
      {
        "astId": 10212,
        "contract": "contracts/DebtToken.sol:DebtToken",
        "label": "interestRate",
        "offset": 0,
        "slot": "60",
        "type": "t_uint256"
      },
      {
        "astId": 10216,
        "contract": "contracts/DebtToken.sol:DebtToken",
        "label": "syntheticToken",
        "offset": 0,
        "slot": "61",
        "type": "t_contract(ISyntheticToken)9052"
      },
      {
        "astId": 10219,
        "contract": "contracts/DebtToken.sol:DebtToken",
        "label": "isActive",
        "offset": 20,
        "slot": "61",
        "type": "t_bool"
      },
      {
        "astId": 10222,
        "contract": "contracts/DebtToken.sol:DebtToken",
        "label": "decimals",
        "offset": 21,
        "slot": "61",
        "type": "t_uint8"
      }
    ],
    "types": {
      "t_address": {
        "encoding": "inplace",
        "label": "address",
        "numberOfBytes": "20"
      },
      "t_array(t_uint256)49_storage": {
        "base": "t_uint256",
        "encoding": "inplace",
        "label": "uint256[49]",
        "numberOfBytes": "1568"
      },
      "t_bool": {
        "encoding": "inplace",
        "label": "bool",
        "numberOfBytes": "1"
      },
      "t_contract(IPool)8890": {
        "encoding": "inplace",
        "label": "contract IPool",
        "numberOfBytes": "20"
      },
      "t_contract(ISyntheticToken)9052": {
        "encoding": "inplace",
        "label": "contract ISyntheticToken",
        "numberOfBytes": "20"
      },
      "t_mapping(t_address,t_uint256)": {
        "encoding": "mapping",
        "key": "t_address",
        "label": "mapping(address => uint256)",
        "numberOfBytes": "32",
        "value": "t_uint256"
      },
      "t_string_storage": {
        "encoding": "bytes",
        "label": "string",
        "numberOfBytes": "32"
      },
      "t_uint256": {
        "encoding": "inplace",
        "label": "uint256",
        "numberOfBytes": "32"
      },
      "t_uint8": {
        "encoding": "inplace",
        "label": "uint8",
        "numberOfBytes": "1"
      }
    }
  }
}