{
  "address": "0x85be65902a9bB75BB09C8839b2309b7546c02C05",
  "abi": [
    {
      "anonymous": false,
      "inputs": [
        {
          "indexed": true,
          "internalType": "address",
          "name": "owner",
          "type": "address"
        },
        {
          "indexed": true,
          "internalType": "address",
          "name": "spender",
          "type": "address"
        },
        {
          "indexed": false,
          "internalType": "uint256",
          "name": "value",
          "type": "uint256"
        }
      ],
      "name": "Approval",
      "type": "event"
    },
    {
      "anonymous": false,
      "inputs": [
        {
          "indexed": true,
          "internalType": "address",
          "name": "from",
          "type": "address"
        },
        {
          "indexed": true,
          "internalType": "address",
          "name": "account",
          "type": "address"
        },
        {
          "indexed": false,
          "internalType": "uint256",
          "name": "amount",
          "type": "uint256"
        },
        {
          "indexed": false,
          "internalType": "uint256",
          "name": "fee",
          "type": "uint256"
        }
      ],
      "name": "CollateralDeposited",
      "type": "event"
    },
    {
      "anonymous": false,
      "inputs": [
        {
          "indexed": true,
          "internalType": "address",
          "name": "account",
          "type": "address"
        },
        {
          "indexed": true,
          "internalType": "address",
          "name": "to",
          "type": "address"
        },
        {
          "indexed": false,
          "internalType": "uint256",
          "name": "amount",
          "type": "uint256"
        },
        {
          "indexed": false,
          "internalType": "uint256",
          "name": "fee",
          "type": "uint256"
        }
      ],
      "name": "CollateralWithdrawn",
      "type": "event"
    },
    {
      "anonymous": false,
      "inputs": [
        {
          "indexed": false,
          "internalType": "uint256",
          "name": "oldCollateralizationRatio",
          "type": "uint256"
        },
        {
          "indexed": false,
          "internalType": "uint256",
          "name": "newCollateralizationRatio",
          "type": "uint256"
        }
      ],
      "name": "CollateralizationRatioUpdated",
      "type": "event"
    },
    {
      "anonymous": false,
      "inputs": [
        {
          "indexed": false,
          "internalType": "bool",
          "name": "newActive",
          "type": "bool"
        }
      ],
      "name": "DepositTokenActiveUpdated",
      "type": "event"
    },
    {
      "anonymous": false,
      "inputs": [
        {
          "indexed": false,
          "internalType": "uint256",
          "name": "oldMaxTotalSupply",
          "type": "uint256"
        },
        {
          "indexed": false,
          "internalType": "uint256",
          "name": "newMaxTotalSupply",
          "type": "uint256"
        }
      ],
      "name": "MaxTotalSupplyUpdated",
      "type": "event"
    },
    {
      "anonymous": false,
      "inputs": [
        {
          "indexed": true,
          "internalType": "address",
          "name": "from",
          "type": "address"
        },
        {
          "indexed": true,
          "internalType": "address",
          "name": "to",
          "type": "address"
        },
        {
          "indexed": false,
          "internalType": "uint256",
          "name": "value",
          "type": "uint256"
        }
      ],
      "name": "Transfer",
      "type": "event"
    },
    {
      "stateMutability": "payable",
      "type": "fallback"
    },
    {
      "inputs": [],
      "name": "VERSION",
      "outputs": [
        {
          "internalType": "string",
          "name": "",
          "type": "string"
        }
      ],
      "stateMutability": "view",
      "type": "function"
    },
    {
      "inputs": [
        {
          "internalType": "address",
          "name": "",
          "type": "address"
        },
        {
          "internalType": "address",
          "name": "",
          "type": "address"
        }
      ],
      "name": "allowance",
      "outputs": [
        {
          "internalType": "uint256",
          "name": "",
          "type": "uint256"
        }
      ],
      "stateMutability": "view",
      "type": "function"
    },
    {
      "inputs": [
        {
          "internalType": "address",
          "name": "spender_",
          "type": "address"
        },
        {
          "internalType": "uint256",
          "name": "amount_",
          "type": "uint256"
        }
      ],
      "name": "approve",
      "outputs": [
        {
          "internalType": "bool",
          "name": "",
          "type": "bool"
        }
      ],
      "stateMutability": "nonpayable",
      "type": "function"
    },
    {
      "inputs": [
        {
          "internalType": "address",
          "name": "",
          "type": "address"
        }
      ],
      "name": "balanceOf",
      "outputs": [
        {
          "internalType": "uint256",
          "name": "",
          "type": "uint256"
        }
      ],
      "stateMutability": "view",
      "type": "function"
    },
    {
      "inputs": [],
      "name": "collateralizationRatio",
      "outputs": [
        {
          "internalType": "uint256",
          "name": "",
          "type": "uint256"
        }
      ],
      "stateMutability": "view",
      "type": "function"
    },
    {
      "inputs": [],
      "name": "decimals",
      "outputs": [
        {
          "internalType": "uint8",
          "name": "",
          "type": "uint8"
        }
      ],
      "stateMutability": "view",
      "type": "function"
    },
    {
      "inputs": [
        {
          "internalType": "address",
          "name": "spender_",
          "type": "address"
        },
        {
          "internalType": "uint256",
          "name": "subtractedValue_",
          "type": "uint256"
        }
      ],
      "name": "decreaseAllowance",
      "outputs": [
        {
          "internalType": "bool",
          "name": "",
          "type": "bool"
        }
      ],
      "stateMutability": "nonpayable",
      "type": "function"
    },
    {
      "inputs": [
        {
          "internalType": "uint256",
          "name": "amount_",
          "type": "uint256"
        },
        {
          "internalType": "address",
          "name": "onBehalfOf_",
          "type": "address"
        }
      ],
      "name": "deposit",
      "outputs": [
        {
          "internalType": "uint256",
          "name": "_deposited",
          "type": "uint256"
        }
      ],
      "stateMutability": "nonpayable",
      "type": "function"
    },
    {
      "inputs": [],
      "name": "governor",
      "outputs": [
        {
          "internalType": "address",
          "name": "_governor",
          "type": "address"
        }
      ],
      "stateMutability": "view",
      "type": "function"
    },
    {
      "inputs": [
        {
          "internalType": "address",
          "name": "spender_",
          "type": "address"
        },
        {
          "internalType": "uint256",
          "name": "addedValue_",
          "type": "uint256"
        }
      ],
      "name": "increaseAllowance",
      "outputs": [
        {
          "internalType": "bool",
          "name": "",
          "type": "bool"
        }
      ],
      "stateMutability": "nonpayable",
      "type": "function"
    },
    {
      "inputs": [
        {
          "internalType": "contract IERC20",
          "name": "underlying_",
          "type": "address"
        },
        {
          "internalType": "contract IPool",
          "name": "pool_",
          "type": "address"
        },
        {
          "internalType": "string",
          "name": "symbol_",
          "type": "string"
        },
        {
          "internalType": "uint8",
          "name": "decimals_",
          "type": "uint8"
        },
        {
          "internalType": "uint128",
          "name": "collateralizationRatio_",
          "type": "uint128"
        },
        {
          "internalType": "uint256",
          "name": "maxTotalSupply_",
          "type": "uint256"
        }
      ],
      "name": "initialize",
      "outputs": [],
      "stateMutability": "nonpayable",
      "type": "function"
    },
    {
      "inputs": [],
      "name": "isActive",
      "outputs": [
        {
          "internalType": "bool",
          "name": "",
          "type": "bool"
        }
      ],
      "stateMutability": "view",
      "type": "function"
    },
    {
      "inputs": [
        {
          "internalType": "address",
          "name": "",
          "type": "address"
        }
      ],
      "name": "lastDepositOf",
      "outputs": [
        {
          "internalType": "uint256",
          "name": "",
          "type": "uint256"
        }
      ],
      "stateMutability": "view",
      "type": "function"
    },
    {
      "inputs": [
        {
          "internalType": "address",
          "name": "account_",
          "type": "address"
        }
      ],
      "name": "lockedBalanceOf",
      "outputs": [
        {
          "internalType": "uint256",
          "name": "_lockedBalance",
          "type": "uint256"
        }
      ],
      "stateMutability": "view",
      "type": "function"
    },
    {
      "inputs": [],
      "name": "maxTotalSupply",
      "outputs": [
        {
          "internalType": "uint256",
          "name": "",
          "type": "uint256"
        }
      ],
      "stateMutability": "view",
      "type": "function"
    },
    {
      "inputs": [],
      "name": "name",
      "outputs": [
        {
          "internalType": "string",
          "name": "",
          "type": "string"
        }
      ],
      "stateMutability": "view",
      "type": "function"
    },
    {
      "inputs": [],
      "name": "pool",
      "outputs": [
        {
          "internalType": "contract IPool",
          "name": "",
          "type": "address"
        }
      ],
      "stateMutability": "view",
      "type": "function"
    },
    {
      "inputs": [
        {
          "internalType": "address",
          "name": "from_",
          "type": "address"
        },
        {
          "internalType": "address",
          "name": "to_",
          "type": "address"
        },
        {
          "internalType": "uint256",
          "name": "amount_",
          "type": "uint256"
        }
      ],
      "name": "seize",
      "outputs": [],
      "stateMutability": "nonpayable",
      "type": "function"
    },
    {
      "inputs": [
        {
          "internalType": "contract IERC20",
          "name": "token_",
          "type": "address"
        },
        {
          "internalType": "address",
          "name": "to_",
          "type": "address"
        },
        {
          "internalType": "uint256",
          "name": "amount_",
          "type": "uint256"
        }
      ],
      "name": "sweep",
      "outputs": [],
      "stateMutability": "nonpayable",
      "type": "function"
    },
    {
      "inputs": [],
      "name": "symbol",
      "outputs": [
        {
          "internalType": "string",
          "name": "",
          "type": "string"
        }
      ],
      "stateMutability": "view",
      "type": "function"
    },
    {
      "inputs": [],
      "name": "toggleIsActive",
      "outputs": [],
      "stateMutability": "nonpayable",
      "type": "function"
    },
    {
      "inputs": [],
      "name": "totalSupply",
      "outputs": [
        {
          "internalType": "uint256",
          "name": "",
          "type": "uint256"
        }
      ],
      "stateMutability": "view",
      "type": "function"
    },
    {
      "inputs": [
        {
          "internalType": "address",
          "name": "to_",
          "type": "address"
        },
        {
          "internalType": "uint256",
          "name": "amount_",
          "type": "uint256"
        }
      ],
      "name": "transfer",
      "outputs": [
        {
          "internalType": "bool",
          "name": "",
          "type": "bool"
        }
      ],
      "stateMutability": "nonpayable",
      "type": "function"
    },
    {
      "inputs": [
        {
          "internalType": "address",
          "name": "sender_",
          "type": "address"
        },
        {
          "internalType": "address",
          "name": "recipient_",
          "type": "address"
        },
        {
          "internalType": "uint256",
          "name": "amount_",
          "type": "uint256"
        }
      ],
      "name": "transferFrom",
      "outputs": [
        {
          "internalType": "bool",
          "name": "",
          "type": "bool"
        }
      ],
      "stateMutability": "nonpayable",
      "type": "function"
    },
    {
      "inputs": [],
      "name": "underlying",
      "outputs": [
        {
          "internalType": "contract IERC20",
          "name": "",
          "type": "address"
        }
      ],
      "stateMutability": "view",
      "type": "function"
    },
    {
      "inputs": [
        {
          "internalType": "address",
          "name": "account_",
          "type": "address"
        }
      ],
      "name": "unlockedBalanceOf",
      "outputs": [
        {
          "internalType": "uint256",
          "name": "_unlockedBalance",
          "type": "uint256"
        }
      ],
      "stateMutability": "view",
      "type": "function"
    },
    {
      "inputs": [
        {
          "internalType": "uint128",
          "name": "newCollateralizationRatio_",
          "type": "uint128"
        }
      ],
      "name": "updateCollateralizationRatio",
      "outputs": [],
      "stateMutability": "nonpayable",
      "type": "function"
    },
    {
      "inputs": [
        {
          "internalType": "uint256",
          "name": "newMaxTotalSupply_",
          "type": "uint256"
        }
      ],
      "name": "updateMaxTotalSupply",
      "outputs": [],
      "stateMutability": "nonpayable",
      "type": "function"
    },
    {
      "inputs": [
        {
          "internalType": "uint256",
          "name": "amount_",
          "type": "uint256"
        },
        {
          "internalType": "address",
          "name": "to_",
          "type": "address"
        }
      ],
      "name": "withdraw",
      "outputs": [
        {
          "internalType": "uint256",
          "name": "_withdrawn",
          "type": "uint256"
        }
      ],
      "stateMutability": "nonpayable",
      "type": "function"
    },
    {
      "stateMutability": "payable",
      "type": "receive"
    }
  ],
  "transactionHash": "0xc8a08bf024a19ed1217e5a902b7ee59b13113f7dcf63f59a21bcb5637d3e5255",
  "args": [],
  "numDeployments": 1,
  "solcInputHash": "d4de23420259fd811f95bb7990a3cd60",
  "bytecode": "0x608060405234801561001057600080fd5b5061311f806100206000396000f3fe6080604052600436106101c55760003560e01c80636e553f65116100f7578063b2a02ff111610095578063dd62ed3e11610064578063dd62ed3e1461058d578063ea180f27146105c5578063f46c3c51146105e5578063ffa1ad74146106125761020d565b8063b2a02ff114610522578063c2d275ba14610542578063d259332914610562578063dcaf9c44146105775761020d565b806384955c88116100d157806384955c88146104ad57806395d89b41146104cd578063a457c2d7146104e2578063a9059cbb146105025761020d565b80636e553f65146104405780636f307dc31461046057806370a08231146104805761020d565b806322f3e2d411610164578063313ce5671161013e578063313ce567146103ad57806339509351146103e0578063593557361461040057806362c06767146104205761020d565b806322f3e2d41461035657806323b872dd146103775780632ab4d052146103975761020d565b80630c340a24116101a05780630c340a24146102d157806316f0115b146102fe578063172f50a41461031e57806318160ddd146103405761020d565b8062f714ce1461024c57806306fdde031461027f578063095ea7b3146102a15761020d565b3661020d5760405162461bcd60e51b81526020600482015260136024820152721c9958d95a5d994b5b9bdd0b585b1b1bddd959606a1b60448201526064015b60405180910390fd5b60405162461bcd60e51b815260206004820152601460248201527319985b1b189858dacb5b9bdd0b585b1b1bddd95960621b6044820152606401610204565b34801561025857600080fd5b5061026c610267366004612b3d565b610643565b6040519081526020015b60405180910390f35b34801561028b57600080fd5b50610294610ab0565b6040516102769190612b99565b3480156102ad57600080fd5b506102c16102bc366004612bcc565b610b3e565b6040519015158152602001610276565b3480156102dd57600080fd5b506102e6610b55565b6040516001600160a01b039091168152602001610276565b34801561030a57600080fd5b506002546102e6906001600160a01b031681565b34801561032a57600080fd5b5061033e610339366004612bf8565b610bd7565b005b34801561034c57600080fd5b5061026c60395481565b34801561036257600080fd5b50603c546102c190600160a01b900460ff1681565b34801561038357600080fd5b506102c1610392366004612c11565b610c97565b3480156103a357600080fd5b5061026c603a5481565b3480156103b957600080fd5b50603c546103ce90600160a81b900460ff1681565b60405160ff9091168152602001610276565b3480156103ec57600080fd5b506102c16103fb366004612bcc565b610dba565b34801561040c57600080fd5b5061026c61041b366004612c52565b610df6565b34801561042c57600080fd5b5061033e61043b366004612c11565b610e24565b34801561044c57600080fd5b5061026c61045b366004612b3d565b610e5d565b34801561046c57600080fd5b50603c546102e6906001600160a01b031681565b34801561048c57600080fd5b5061026c61049b366004612c52565b60346020526000908152604090205481565b3480156104b957600080fd5b5061026c6104c8366004612c52565b6113ca565b3480156104d957600080fd5b5061029461159b565b3480156104ee57600080fd5b506102c16104fd366004612bcc565b6115a8565b34801561050e57600080fd5b506102c161051d366004612bcc565b611633565b34801561052e57600080fd5b5061033e61053d366004612c11565b61169f565b34801561054e57600080fd5b5061033e61055d366004612c8b565b6116ef565b34801561056e57600080fd5b5061033e61182a565b34801561058357600080fd5b5061026c603b5481565b34801561059957600080fd5b5061026c6105a8366004612ca6565b603560209081526000928352604080842090915290825290205481565b3480156105d157600080fd5b5061033e6105e0366004612ce5565b6118c3565b3480156105f157600080fd5b5061026c610600366004612c52565b60366020526000908152604090205481565b34801561061e57600080fd5b50610294604051806040016040528060058152602001640312e302e360dc1b81525081565b6002546040805163ecf3a3f960e01b815290516000926001600160a01b03169163ecf3a3f9916004808301926020929190829003018186803b15801561068857600080fd5b505afa15801561069c573d6000803e3d6000fd5b505050506040513d601f19601f820116820180604052508101906106c09190612db8565b156106f85760405162461bcd60e51b815260206004820152600860248201526739b43aba3237bbb760c11b6044820152606401610204565b6002600154141561071b5760405162461bcd60e51b815260040161020490612dd3565b6002600181905554604051633af5be4760e01b81523060048201526001600160a01b0390911690633af5be479060240160206040518083038186803b15801561076357600080fd5b505afa158015610777573d6000803e3d6000fd5b505050506040513d601f19601f8201168201806040525081019061079b9190612db8565b6107df5760405162461bcd60e51b815260206004820152601560248201527418dbdb1b185d195c985b0b5a5b995e1a5cdd195b9d605a1b6044820152606401610204565b6000831180156107f757506107f3336113ca565b8311155b6108375760405162461bcd60e51b8152602060048201526011602482015270185b5bdd5b9d0b5a5ccb5a5b9d985b1a59607a1b6044820152606401610204565b60025460408051631d283f4f60e31b815290516000926001600160a01b03169163e941fa78916004808301926020929190829003018186803b15801561087c57600080fd5b505afa158015610890573d6000803e3d6000fd5b505050506040513d601f19601f820116820180604052508101906108b49190612e0a565b84925090506000811561096a576108cb8583611a8f565b905061095d33600260009054906101000a90046001600160a01b03166001600160a01b031663c415b95c6040518163ffffffff1660e01b815260040160206040518083038186803b15801561091f57600080fd5b505afa158015610933573d6000803e3d6000fd5b505050506040513d601f19601f820116820180604052508101906109579190612e23565b83611ae2565b6109678184612e56565b92505b6109743384611db7565b600260009054906101000a90046001600160a01b03166001600160a01b03166361d027b36040518163ffffffff1660e01b815260040160206040518083038186803b1580156109c257600080fd5b505afa1580156109d6573d6000803e3d6000fd5b505050506040513d601f19601f820116820180604052508101906109fa9190612e23565b60405163f2d5d56b60e01b81526001600160a01b03868116600483015260248201869052919091169063f2d5d56b90604401600060405180830381600087803b158015610a4657600080fd5b505af1158015610a5a573d6000803e3d6000fd5b505060408051888152602081018590526001600160a01b03881693503392507f4700a5c58c58ea6536703185e43dae38bfd4158ee5330c70988f02a65562a36e910160405180910390a350506001805592915050565b60378054610abd90612e6d565b80601f0160208091040260200160405190810160405280929190818152602001828054610ae990612e6d565b8015610b365780601f10610b0b57610100808354040283529160200191610b36565b820191906000526020600020905b815481529060010190602001808311610b1957829003601f168201915b505050505081565b6000610b4b338484612014565b5060015b92915050565b6002546040805163030d028960e21b815290516000926001600160a01b031691630c340a24916004808301926020929190829003018186803b158015610b9a57600080fd5b505afa158015610bae573d6000803e3d6000fd5b505050506040513d601f19601f82011682018060405250810190610bd29190612e23565b905090565b610bdf610b55565b6001600160a01b0316336001600160a01b031614610c0f5760405162461bcd60e51b815260040161020490612ea2565b603a5481811415610c585760405162461bcd60e51b81526020600482015260136024820152721b995dcb5cd85b594b585ccb58dd5c9c995b9d606a1b6044820152606401610204565b60408051828152602081018490527fc58cd6132bb46df23d468939c03dd023b74b509aaa6b04c39d5a6461c65963bd910160405180910390a150603a55565b600060026001541415610cbc5760405162461bcd60e51b815260040161020490612dd3565b6002600155838280610ccd836113ca565b1015610d155760405162461bcd60e51b81526020600482015260176024820152766e6f742d656e6f7567682d667265652d62616c616e636560481b6044820152606401610204565b610d20868686611ae2565b6001600160a01b03861660009081526035602090815260408083203384529091529020546000198114610daa5784811015610d9d5760405162461bcd60e51b815260206004820152601860248201527f616d6f756e742d657863656564732d616c6c6f77616e636500000000000000006044820152606401610204565b610daa8733878403612014565b5050600180805595945050505050565b3360008181526035602090815260408083206001600160a01b03871684529091528120549091610b4b918590610df1908690612ec8565b612014565b6000610e01826113ca565b6001600160a01b0390921660009081526034602052604090205491909103919050565b610e2c612121565b6001600160a01b038316610e4957610e44828261215b565b505050565b610e446001600160a01b0384168383612274565b60025460408051635c975abb60e01b815290516000926001600160a01b031691635c975abb916004808301926020929190829003018186803b158015610ea257600080fd5b505afa158015610eb6573d6000803e3d6000fd5b505050506040513d601f19601f82011682018060405250810190610eda9190612db8565b15610f105760405162461bcd60e51b81526020600482015260066024820152651c185d5cd95960d21b6044820152606401610204565b60026001541415610f335760405162461bcd60e51b815260040161020490612dd3565b6002600155603c54600160a01b900460ff16610f8a5760405162461bcd60e51b81526020600482015260166024820152756465706f7369742d746f6b656e2d696e61637469766560501b6044820152606401610204565b600254604051633af5be4760e01b81523060048201526001600160a01b0390911690633af5be479060240160206040518083038186803b158015610fcd57600080fd5b505afa158015610fe1573d6000803e3d6000fd5b505050506040513d601f19601f820116820180604052508101906110059190612db8565b6110495760405162461bcd60e51b815260206004820152601560248201527418dbdb1b185d195c985b0b5a5b995e1a5cdd195b9d605a1b6044820152606401610204565b6000831161108a5760405162461bcd60e51b815260206004820152600e60248201526d616d6f756e742d69732d7a65726f60901b6044820152606401610204565b600254604080516361d027b360e01b815290516000926001600160a01b0316916361d027b3916004808301926020929190829003018186803b1580156110cf57600080fd5b505afa1580156110e3573d6000803e3d6000fd5b505050506040513d601f19601f820116820180604052508101906111079190612e23565b603c546040516370a0823160e01b81526001600160a01b038084166004830152929350600092909116906370a082319060240160206040518083038186803b15801561115257600080fd5b505afa158015611166573d6000803e3d6000fd5b505050506040513d601f19601f8201168201806040525081019061118a9190612e0a565b603c549091506111a5906001600160a01b03163384886122d7565b603c546040516370a0823160e01b81526001600160a01b038481166004830152839216906370a082319060240160206040518083038186803b1580156111ea57600080fd5b505afa1580156111fe573d6000803e3d6000fd5b505050506040513d601f19601f820116820180604052508101906112229190612e0a565b61122c9190612e56565b94506000600260009054906101000a90046001600160a01b03166001600160a01b03166367a527936040518163ffffffff1660e01b815260040160206040518083038186803b15801561127e57600080fd5b505afa158015611292573d6000803e3d6000fd5b505050506040513d601f19601f820116820180604052508101906112b69190612e0a565b86945090506000811561136b576112cd8783611a8f565b905061135e600260009054906101000a90046001600160a01b03166001600160a01b031663c415b95c6040518163ffffffff1660e01b815260040160206040518083038186803b15801561132057600080fd5b505afa158015611334573d6000803e3d6000fd5b505050506040513d601f19601f820116820180604052508101906113589190612e23565b82612315565b6113688186612e56565b94505b6113758686612315565b60408051888152602081018390526001600160a01b0388169133917f95d16db8c4932fcf5d6de67364791e7178ec505c7d3829a8b34d18959c01552c910160405180910390a350506001805550909392505050565b60025460405163dde3ab9560e01b81526001600160a01b038381166004830152600092839291169063dde3ab959060240160a06040518083038186803b15801561141357600080fd5b505afa158015611427573d6000803e3d6000fd5b505050506040513d601f19601f8201168201806040525081019061144b9190612ee0565b9450505050506000811115611595576001600160a01b03808416600090815260346020908152604091829020546002548351637556d1c160e11b81529351611592959294919092169263eaada38292600480840193829003018186803b1580156114b457600080fd5b505afa1580156114c8573d6000803e3d6000fd5b505050506040513d601f19601f820116820180604052508101906114ec9190612e23565b603c54603b546001600160a01b039283169263b5e9bef59216906115119087906125be565b6040516001600160e01b031960e085901b1681526001600160a01b039092166004830152602482015260440160206040518083038186803b15801561155557600080fd5b505afa158015611569573d6000803e3d6000fd5b505050506040513d601f19601f8201168201806040525081019061158d9190612e0a565b6125de565b91505b50919050565b60388054610abd90612e6d565b3360009081526035602090815260408083206001600160a01b03861684529091528120548281101561161c5760405162461bcd60e51b815260206004820152601e60248201527f6465637265617365642d616c6c6f77616e63652d62656c6f772d7a65726f00006044820152606401610204565b6116293385858403612014565b5060019392505050565b6000338280611641836113ca565b10156116895760405162461bcd60e51b81526020600482015260176024820152766e6f742d656e6f7567682d667265652d62616c616e636560481b6044820152606401610204565b611694338686611ae2565b506001949350505050565b6002546001600160a01b031633146116e45760405162461bcd60e51b81526020600482015260086024820152671b9bdd0b5c1bdbdb60c21b6044820152606401610204565b610e44838383611ae2565b6116f7610b55565b6001600160a01b0316336001600160a01b0316146117275760405162461bcd60e51b815260040161020490612ea2565b670de0b6b3a7640000816001600160801b031611156117885760405162461bcd60e51b815260206004820152601f60248201527f636f6c6c61746572616c697a6174696f6e2d726174696f2d67742d31303025006044820152606401610204565b603b546001600160801b0382168114156117da5760405162461bcd60e51b81526020600482015260136024820152721b995dcb5cd85b594b585ccb58dd5c9c995b9d606a1b6044820152606401610204565b604080518281526001600160801b03841660208201527ff84d4544cfaedc7b1b8b7fa92b1f758aea3e3e69dfb321343825e4dd86f8147a910160405180910390a1506001600160801b0316603b55565b611832610b55565b6001600160a01b0316336001600160a01b0316146118625760405162461bcd60e51b815260040161020490612ea2565b603c54604051600160a01b90910460ff1615808252907fb2f86f872205a47e0890262c11c93dba2270b3f079ada3dbe9cb6f755f4ddc9f9060200160405180910390a1603c8054911515600160a01b0260ff60a01b19909216919091179055565b600054610100900460ff16806118dc575060005460ff16155b6118f85760405162461bcd60e51b815260040161020490612f27565b600054610100900460ff1615801561191a576000805461ffff19166101011790555b6001600160a01b0388166119655760405162461bcd60e51b81526020600482015260126024820152711d5b99195c9b1e5a5b99cb5a5ccb5b9d5b1b60721b6044820152606401610204565b670de0b6b3a7640000836001600160801b031611156119c65760405162461bcd60e51b815260206004820152601f60248201527f636f6c6c61746572616c697a6174696f6e2d726174696f2d67742d31303025006044820152606401610204565b6119ce6125f4565b6119d787612664565b60408051808201909152601a8082527f546f6b656e697a6564206465706f73697420706f736974696f6e0000000000006020909201918252611a1b91603791612a1b565b50611a2860388787612a9f565b50603c805460ff8616600160a81b0260ff60a81b196001600160a81b03199092166001600160a01b038c1617600160a01b17919091161790556001600160801b038316603b55603a8290558015611a85576000805461ff00191690555b5050505050505050565b6000821580611a9c575081155b15611aa957506000610b4f565b670de0b6b3a7640000611abd600282612f75565b611ac78486612f97565b611ad19190612ec8565b611adb9190612f75565b9392505050565b82826000600260009054906101000a90046001600160a01b03166001600160a01b0316633605b51b6040518163ffffffff1660e01b815260040160006040518083038186803b158015611b3457600080fd5b505afa158015611b48573d6000803e3d6000fd5b505050506040513d6000823e601f3d908101601f19168201604052611b709190810190612fd7565b805190915060005b81811015611c1857828181518110611b9257611b9261309c565b602090810291909101015160405163058bd91d60e51b81523060048201526001600160a01b03878116602483015286811660448301529091169063b17b23a090606401600060405180830381600087803b158015611bef57600080fd5b505af1158015611c03573d6000803e3d6000fd5b5050505080611c11906130b2565b9050611b78565b506001600160a01b038716611c6f5760405162461bcd60e51b815260206004820152601e60248201527f7472616e736665722d66726f6d2d7468652d7a65726f2d6164647265737300006044820152606401610204565b6001600160a01b038616611cc55760405162461bcd60e51b815260206004820152601c60248201527f7472616e736665722d746f2d7468652d7a65726f2d61646472657373000000006044820152606401610204565b6001600160a01b03871660009081526034602052604090205485811015611d2e5760405162461bcd60e51b815260206004820152601f60248201527f7472616e736665722d616d6f756e742d657863656564732d62616c616e6365006044820152606401610204565b6001600160a01b03878116600081815260346020908152604080832080548c8101909155948d16808452928190208b87039081905590518b8152909392917fddf252ad1be2c89b69c2b068fc378daa952ba7f163c4a11628f55a4df523b3ef910160405180910390a3611da18983612739565b611dab8a8261279a565b50505050505050505050565b816000600260009054906101000a90046001600160a01b03166001600160a01b0316633605b51b6040518163ffffffff1660e01b815260040160006040518083038186803b158015611e0857600080fd5b505afa158015611e1c573d6000803e3d6000fd5b505050506040513d6000823e601f3d908101601f19168201604052611e449190810190612fd7565b805190915060005b81811015611ee357828181518110611e6657611e6661309c565b6020908102919091010151604051626cc3c360e61b81523060048201526001600160a01b03868116602483015290911690631b30f0c090604401600060405180830381600087803b158015611eba57600080fd5b505af1158015611ece573d6000803e3d6000fd5b5050505080611edc906130b2565b9050611e4c565b506001600160a01b038516611f3a5760405162461bcd60e51b815260206004820152601a60248201527f6275726e2d66726f6d2d7468652d7a65726f2d616464726573730000000000006044820152606401610204565b6001600160a01b03851660009081526034602052604090205484811015611fa35760405162461bcd60e51b815260206004820152601b60248201527f6275726e2d616d6f756e742d657863656564732d62616c616e636500000000006044820152606401610204565b6039805486900390556001600160a01b03861660008181526034602090815260408083208986039081905590518981529093917fddf252ad1be2c89b69c2b068fc378daa952ba7f163c4a11628f55a4df523b3ef910160405180910390a361200b878261279a565b50505050505050565b6001600160a01b03831661206a5760405162461bcd60e51b815260206004820152601d60248201527f617070726f76652d66726f6d2d7468652d7a65726f2d616464726573730000006044820152606401610204565b6001600160a01b0382166120c05760405162461bcd60e51b815260206004820152601b60248201527f617070726f76652d746f2d7468652d7a65726f2d6164647265737300000000006044820152606401610204565b6001600160a01b0383811660008181526035602090815260408083209487168084529482529182902085905590518481527f8c5be1e5ebec7d5bd14f71427d1e84f3dd0314c0f7b2291e5b200ac8c7c3b925910160405180910390a3505050565b612129610b55565b6001600160a01b0316336001600160a01b0316146121595760405162461bcd60e51b815260040161020490612ea2565b565b804710156121ab5760405162461bcd60e51b815260206004820152601d60248201527f416464726573733a20696e73756666696369656e742062616c616e63650000006044820152606401610204565b6000826001600160a01b03168260405160006040518083038185875af1925050503d80600081146121f8576040519150601f19603f3d011682016040523d82523d6000602084013e6121fd565b606091505b5050905080610e445760405162461bcd60e51b815260206004820152603a60248201527f416464726573733a20756e61626c6520746f2073656e642076616c75652c207260448201527f6563697069656e74206d617920686176652072657665727465640000000000006064820152608401610204565b6040516001600160a01b038316602482015260448101829052610e4490849063a9059cbb60e01b906064015b60408051601f198184030181529190526020810180516001600160e01b03166001600160e01b0319909316929092179091526127d1565b6040516001600160a01b038085166024830152831660448201526064810182905261230f9085906323b872dd60e01b906084016122a0565b50505050565b603c54600160a01b900460ff166123675760405162461bcd60e51b81526020600482015260166024820152756465706f7369742d746f6b656e2d696e61637469766560501b6044820152606401610204565b816000600260009054906101000a90046001600160a01b03166001600160a01b0316633605b51b6040518163ffffffff1660e01b815260040160006040518083038186803b1580156123b857600080fd5b505afa1580156123cc573d6000803e3d6000fd5b505050506040513d6000823e601f3d908101601f191682016040526123f49190810190612fd7565b805190915060005b81811015612493578281815181106124165761241661309c565b6020908102919091010151604051626cc3c360e61b81523060048201526001600160a01b03868116602483015290911690631b30f0c090604401600060405180830381600087803b15801561246a57600080fd5b505af115801561247e573d6000803e3d6000fd5b505050508061248c906130b2565b90506123fc565b506001600160a01b0385166124ea5760405162461bcd60e51b815260206004820152601860248201527f6d696e742d746f2d7468652d7a65726f2d6164647265737300000000000000006044820152606401610204565b83603960008282546124fc9190612ec8565b9091555050603a5460395411156125555760405162461bcd60e51b815260206004820152601a60248201527f737572706173732d6d61782d6465706f7369742d737570706c790000000000006044820152606401610204565b6001600160a01b038516600081815260346020908152604080832080548981019091559051888152909392917fddf252ad1be2c89b69c2b068fc378daa952ba7f163c4a11628f55a4df523b3ef910160405180910390a36125b68682612739565b505050505050565b6000816125cc600282612f75565b611ac7670de0b6b3a764000086612f97565b60008183106125ed5781611adb565b5090919050565b600054610100900460ff168061260d575060005460ff16155b6126295760405162461bcd60e51b815260040161020490612f27565b600054610100900460ff1615801561264b576000805461ffff19166101011790555b600180558015612661576000805461ff00191690555b50565b600054610100900460ff168061267d575060005460ff16155b6126995760405162461bcd60e51b815260040161020490612f27565b600054610100900460ff161580156126bb576000805461ffff19166101011790555b6001600160a01b0382166127085760405162461bcd60e51b8152602060048201526014602482015273706f6f6c2d616464726573732d69732d7a65726f60601b6044820152606401610204565b600280546001600160a01b0319166001600160a01b0384161790558015612735576000805461ff00191690555b5050565b8061273557600254604051633f5fc13160e01b81526001600160a01b03848116600483015290911690633f5fc131906024015b600060405180830381600087803b15801561278657600080fd5b505af11580156125b6573d6000803e3d6000fd5b8061273557600254604051630275038d60e41b81526001600160a01b0384811660048301529091169063275038d09060240161276c565b6000612826826040518060400160405280602081526020017f5361666545524332303a206c6f772d6c6576656c2063616c6c206661696c6564815250856001600160a01b03166128a39092919063ffffffff16565b805190915015610e4457808060200190518101906128449190612db8565b610e445760405162461bcd60e51b815260206004820152602a60248201527f5361666545524332303a204552433230206f7065726174696f6e20646964206e6044820152691bdd081cdd58d8d9595960b21b6064820152608401610204565b60606128b284846000856128ba565b949350505050565b60608247101561291b5760405162461bcd60e51b815260206004820152602660248201527f416464726573733a20696e73756666696369656e742062616c616e636520666f6044820152651c8818d85b1b60d21b6064820152608401610204565b843b6129695760405162461bcd60e51b815260206004820152601d60248201527f416464726573733a2063616c6c20746f206e6f6e2d636f6e74726163740000006044820152606401610204565b600080866001600160a01b0316858760405161298591906130cd565b60006040518083038185875af1925050503d80600081146129c2576040519150601f19603f3d011682016040523d82523d6000602084013e6129c7565b606091505b50915091506129d78282866129e2565b979650505050505050565b606083156129f1575081611adb565b825115612a015782518084602001fd5b8160405162461bcd60e51b81526004016102049190612b99565b828054612a2790612e6d565b90600052602060002090601f016020900481019282612a495760008555612a8f565b82601f10612a6257805160ff1916838001178555612a8f565b82800160010185558215612a8f579182015b82811115612a8f578251825591602001919060010190612a74565b50612a9b929150612b13565b5090565b828054612aab90612e6d565b90600052602060002090601f016020900481019282612acd5760008555612a8f565b82601f10612ae65782800160ff19823516178555612a8f565b82800160010185558215612a8f579182015b82811115612a8f578235825591602001919060010190612af8565b5b80821115612a9b5760008155600101612b14565b6001600160a01b038116811461266157600080fd5b60008060408385031215612b5057600080fd5b823591506020830135612b6281612b28565b809150509250929050565b60005b83811015612b88578181015183820152602001612b70565b8381111561230f5750506000910152565b6020815260008251806020840152612bb8816040850160208701612b6d565b601f01601f19169190910160400192915050565b60008060408385031215612bdf57600080fd5b8235612bea81612b28565b946020939093013593505050565b600060208284031215612c0a57600080fd5b5035919050565b600080600060608486031215612c2657600080fd5b8335612c3181612b28565b92506020840135612c4181612b28565b929592945050506040919091013590565b600060208284031215612c6457600080fd5b8135611adb81612b28565b80356001600160801b0381168114612c8657600080fd5b919050565b600060208284031215612c9d57600080fd5b611adb82612c6f565b60008060408385031215612cb957600080fd5b8235612cc481612b28565b91506020830135612b6281612b28565b803560ff81168114612c8657600080fd5b600080600080600080600060c0888a031215612d0057600080fd5b8735612d0b81612b28565b96506020880135612d1b81612b28565b9550604088013567ffffffffffffffff80821115612d3857600080fd5b818a0191508a601f830112612d4c57600080fd5b813581811115612d5b57600080fd5b8b6020828501011115612d6d57600080fd5b602083019750809650505050612d8560608901612cd4565b9250612d9360808901612c6f565b915060a0880135905092959891949750929550565b80518015158114612c8657600080fd5b600060208284031215612dca57600080fd5b611adb82612da8565b6020808252601f908201527f5265656e7472616e637947756172643a207265656e7472616e742063616c6c00604082015260600190565b600060208284031215612e1c57600080fd5b5051919050565b600060208284031215612e3557600080fd5b8151611adb81612b28565b634e487b7160e01b600052601160045260246000fd5b600082821015612e6857612e68612e40565b500390565b600181811c90821680612e8157607f821691505b6020821081141561159557634e487b7160e01b600052602260045260246000fd5b6020808252600c908201526b3737ba16b3b7bb32b93737b960a11b604082015260600190565b60008219821115612edb57612edb612e40565b500190565b600080600080600060a08688031215612ef857600080fd5b612f0186612da8565b602087015160408801516060890151608090990151929a91995097965090945092505050565b6020808252602e908201527f496e697469616c697a61626c653a20636f6e747261637420697320616c72656160408201526d191e481a5b9a5d1a585b1a5e995960921b606082015260800190565b600082612f9257634e487b7160e01b600052601260045260246000fd5b500490565b6000816000190483118215151615612fb157612fb1612e40565b500290565b634e487b7160e01b600052604160045260246000fd5b8051612c8681612b28565b60006020808385031215612fea57600080fd5b825167ffffffffffffffff8082111561300257600080fd5b818501915085601f83011261301657600080fd5b81518181111561302857613028612fb6565b8060051b604051601f19603f8301168101818110858211171561304d5761304d612fb6565b60405291825284820192508381018501918883111561306b57600080fd5b938501935b828510156130905761308185612fcc565b84529385019392850192613070565b98975050505050505050565b634e487b7160e01b600052603260045260246000fd5b60006000198214156130c6576130c6612e40565b5060010190565b600082516130df818460208701612b6d565b919091019291505056fea264697066735822122086a1aa65bc9d46f5d32b7fffc27c385e3da1a21aa14030a9c07580fd76c76cb664736f6c63430008090033",
  "devdoc": {
    "kind": "dev",
    "methods": {
      "deposit(uint256,address)": {
        "params": {
          "amount_": "The amount of collateral tokens to deposit",
          "onBehalfOf_": "The account to deposit to"
        },
        "returns": {
          "_deposited": "The amount deposited after fees"
        }
      },
      "lockedBalanceOf(address)": {
        "params": {
          "account_": "The account to check"
        },
        "returns": {
          "_lockedBalance": "The locked amount"
        }
      },
      "seize(address,address,uint256)": {
        "details": "Same as _transfer",
        "params": {
          "amount_": "The amount to seize",
          "from_": "The account to seize from",
          "to_": "The beneficiary account"
        }
      },
      "sweep(address,address,uint256)": {
        "params": {
          "amount_": "The amount to send",
          "to_": "The recipient of the transfer",
          "token_": "The token to transfer"
        }
      },
      "unlockedBalanceOf(address)": {
        "params": {
          "account_": "The account to check"
        },
        "returns": {
          "_unlockedBalance": "The amount that user can transfer or withdraw"
        }
      },
      "updateCollateralizationRatio(uint128)": {
        "params": {
          "newCollateralizationRatio_": "The new CR value"
        }
      },
      "updateMaxTotalSupply(uint256)": {
        "params": {
          "newMaxTotalSupply_": "The new max total supply"
        }
      },
      "withdraw(uint256,address)": {
        "params": {
          "amount_": "The amount of collateral to withdraw",
          "to_": "The account that will receive withdrawn collateral"
        },
        "returns": {
          "_withdrawn": "The amount withdrawn after fees"
        }
      }
    },
    "title": "Represents the users' deposits",
    "version": 1
  },
  "userdoc": {
    "events": {
      "CollateralDeposited(address,address,uint256,uint256)": {
        "notice": "Emitted when collateral is deposited"
      },
      "CollateralWithdrawn(address,address,uint256,uint256)": {
        "notice": "Emitted when collateral is withdrawn"
      },
      "CollateralizationRatioUpdated(uint256,uint256)": {
        "notice": "Emitted when CR is updated"
      },
      "DepositTokenActiveUpdated(bool)": {
        "notice": "Emitted when active flag is updated"
      },
      "MaxTotalSupplyUpdated(uint256,uint256)": {
        "notice": "Emitted when max total supply is updated"
      }
    },
    "kind": "user",
    "methods": {
      "approve(address,uint256)": {
        "notice": "Set `amount` as the allowance of `spender` over the caller's tokens"
      },
      "collateralizationRatio()": {
        "notice": "Collateralization ration for the deposit token"
      },
      "decimals()": {
        "notice": "The decimals of the token"
      },
      "decreaseAllowance(address,uint256)": {
        "notice": "Atomically decrease the allowance granted to `spender` by the caller"
      },
      "deposit(uint256,address)": {
        "notice": "Deposit collateral and mint msdTOKEN (tokenized deposit position)"
      },
      "increaseAllowance(address,uint256)": {
        "notice": "Atomically increase the allowance granted to `spender` by the caller"
      },
      "isActive()": {
        "notice": "If a collateral isn't active, it disables minting new tokens"
      },
      "lastDepositOf(address)": {
        "notice": "Stores de timestamp of last deposit event of each account. It's used combined with `minDepositTime`."
      },
      "lockedBalanceOf(address)": {
        "notice": "Get the locked balance"
      },
      "maxTotalSupply()": {
        "notice": "The supply cap (in USD)"
      },
      "name()": {
        "notice": "The name of the token"
      },
      "pool()": {
        "notice": "Pool contract"
      },
      "seize(address,address,uint256)": {
        "notice": "Seize tokens"
      },
      "sweep(address,address,uint256)": {
        "notice": "ERC20 recovery in case of stuck tokens due direct transfers to the contract address."
      },
      "symbol()": {
        "notice": "The symbol of the token"
      },
      "toggleIsActive()": {
        "notice": "Enable/Disable the Deposit Token"
      },
      "transfer(address,uint256)": {
        "notice": "Move `amount` tokens from the caller's account to `recipient`"
      },
      "transferFrom(address,address,uint256)": {
        "notice": "Move `amount` tokens from `sender` to `recipient` using the allowance mechanism. `amount` is then deducted from the caller's allowance"
      },
      "underlying()": {
        "notice": "Deposit underlying asset (e.g. MET)"
      },
      "unlockedBalanceOf(address)": {
        "notice": "Get the unlocked balance (i.e. transferable, withdrawable)"
      },
      "updateCollateralizationRatio(uint128)": {
        "notice": "Update collateralization ratio"
      },
      "updateMaxTotalSupply(uint256)": {
        "notice": "Update max total supply"
      },
      "withdraw(uint256,address)": {
        "notice": "Burn msdTOKEN and withdraw collateral"
      }
    },
    "version": 1
  },
  "storageLayout": {
    "storage": [
      {
        "astId": 6563,
        "contract": "contracts/DepositToken.sol:DepositToken",
        "label": "_initialized",
        "offset": 0,
        "slot": "0",
        "type": "t_bool"
      },
      {
        "astId": 6566,
        "contract": "contracts/DepositToken.sol:DepositToken",
        "label": "_initializing",
        "offset": 1,
        "slot": "0",
        "type": "t_bool"
      },
      {
        "astId": 6617,
        "contract": "contracts/DepositToken.sol:DepositToken",
        "label": "_status",
        "offset": 0,
        "slot": "1",
        "type": "t_uint256"
      },
      {
        "astId": 6448,
        "contract": "contracts/DepositToken.sol:DepositToken",
        "label": "pool",
        "offset": 0,
        "slot": "2",
        "type": "t_contract(IPool)8890"
      },
      {
        "astId": 6556,
        "contract": "contracts/DepositToken.sol:DepositToken",
        "label": "__gap",
        "offset": 0,
        "slot": "3",
        "type": "t_array(t_uint256)49_storage"
      },
      {
        "astId": 10233,
        "contract": "contracts/DepositToken.sol:DepositToken",
        "label": "balanceOf",
        "offset": 0,
        "slot": "52",
        "type": "t_mapping(t_address,t_uint256)"
      },
      {
        "astId": 10240,
        "contract": "contracts/DepositToken.sol:DepositToken",
        "label": "allowance",
        "offset": 0,
        "slot": "53",
        "type": "t_mapping(t_address,t_mapping(t_address,t_uint256))"
      },
      {
        "astId": 10245,
        "contract": "contracts/DepositToken.sol:DepositToken",
        "label": "lastDepositOf",
        "offset": 0,
        "slot": "54",
        "type": "t_mapping(t_address,t_uint256)"
      },
      {
        "astId": 10248,
        "contract": "contracts/DepositToken.sol:DepositToken",
        "label": "name",
        "offset": 0,
        "slot": "55",
        "type": "t_string_storage"
      },
      {
        "astId": 10251,
        "contract": "contracts/DepositToken.sol:DepositToken",
        "label": "symbol",
        "offset": 0,
        "slot": "56",
        "type": "t_string_storage"
      },
      {
        "astId": 10254,
        "contract": "contracts/DepositToken.sol:DepositToken",
        "label": "totalSupply",
        "offset": 0,
        "slot": "57",
        "type": "t_uint256"
      },
      {
        "astId": 10257,
        "contract": "contracts/DepositToken.sol:DepositToken",
        "label": "maxTotalSupply",
        "offset": 0,
        "slot": "58",
        "type": "t_uint256"
      },
      {
        "astId": 10260,
        "contract": "contracts/DepositToken.sol:DepositToken",
        "label": "collateralizationRatio",
        "offset": 0,
        "slot": "59",
        "type": "t_uint256"
      },
      {
        "astId": 10264,
        "contract": "contracts/DepositToken.sol:DepositToken",
        "label": "underlying",
        "offset": 0,
        "slot": "60",
        "type": "t_contract(IERC20)6726"
      },
      {
        "astId": 10267,
        "contract": "contracts/DepositToken.sol:DepositToken",
        "label": "isActive",
        "offset": 20,
        "slot": "60",
        "type": "t_bool"
      },
      {
        "astId": 10270,
        "contract": "contracts/DepositToken.sol:DepositToken",
        "label": "decimals",
        "offset": 21,
        "slot": "60",
        "type": "t_uint8"
      }
    ],
    "types": {
      "t_address": {
        "encoding": "inplace",
        "label": "address",
        "numberOfBytes": "20"
      },
      "t_array(t_uint256)49_storage": {
        "base": "t_uint256",
        "encoding": "inplace",
        "label": "uint256[49]",
        "numberOfBytes": "1568"
      },
      "t_bool": {
        "encoding": "inplace",
        "label": "bool",
        "numberOfBytes": "1"
      },
      "t_contract(IERC20)6726": {
        "encoding": "inplace",
        "label": "contract IERC20",
        "numberOfBytes": "20"
      },
      "t_contract(IPool)8890": {
        "encoding": "inplace",
        "label": "contract IPool",
        "numberOfBytes": "20"
      },
      "t_mapping(t_address,t_mapping(t_address,t_uint256))": {
        "encoding": "mapping",
        "key": "t_address",
        "label": "mapping(address => mapping(address => uint256))",
        "numberOfBytes": "32",
        "value": "t_mapping(t_address,t_uint256)"
      },
      "t_mapping(t_address,t_uint256)": {
        "encoding": "mapping",
        "key": "t_address",
        "label": "mapping(address => uint256)",
        "numberOfBytes": "32",
        "value": "t_uint256"
      },
      "t_string_storage": {
        "encoding": "bytes",
        "label": "string",
        "numberOfBytes": "32"
      },
      "t_uint256": {
        "encoding": "inplace",
        "label": "uint256",
        "numberOfBytes": "32"
      },
      "t_uint8": {
        "encoding": "inplace",
        "label": "uint8",
        "numberOfBytes": "1"
      }
    }
  }
}