{
  "address": "0xC00BAD84447390D6a0d65988e60073D7bC40A42C",
  "abi": [
    {
      "inputs": [
        {
          "internalType": "contract IWETH",
          "name": "nativeToken_",
          "type": "address"
        }
      ],
      "stateMutability": "nonpayable",
      "type": "constructor"
    },
    {
      "anonymous": false,
      "inputs": [
        {
          "indexed": true,
          "internalType": "address",
          "name": "previousGovernor",
          "type": "address"
        },
        {
          "indexed": true,
          "internalType": "address",
          "name": "proposedGovernor",
          "type": "address"
        }
      ],
      "name": "UpdatedGovernor",
      "type": "event"
    },
    {
      "stateMutability": "payable",
      "type": "fallback"
    },
    {
      "inputs": [],
      "name": "acceptGovernorship",
      "outputs": [],
      "stateMutability": "nonpayable",
      "type": "function"
    },
    {
      "inputs": [
        {
          "internalType": "contract IPool",
          "name": "pool_",
          "type": "address"
        }
      ],
      "name": "deposit",
      "outputs": [],
      "stateMutability": "payable",
      "type": "function"
    },
    {
      "inputs": [],
      "name": "governor",
      "outputs": [
        {
          "internalType": "address",
          "name": "",
          "type": "address"
        }
      ],
      "stateMutability": "view",
      "type": "function"
    },
    {
      "inputs": [],
      "name": "nativeToken",
      "outputs": [
        {
          "internalType": "contract IWETH",
          "name": "",
          "type": "address"
        }
      ],
      "stateMutability": "view",
      "type": "function"
    },
    {
      "inputs": [],
      "name": "proposedGovernor",
      "outputs": [
        {
          "internalType": "address",
          "name": "",
          "type": "address"
        }
      ],
      "stateMutability": "view",
      "type": "function"
    },
    {
      "inputs": [
        {
          "internalType": "contract IERC20",
          "name": "token_",
          "type": "address"
        },
        {
          "internalType": "address",
          "name": "to_",
          "type": "address"
        },
        {
          "internalType": "uint256",
          "name": "amount_",
          "type": "uint256"
        }
      ],
      "name": "sweep",
      "outputs": [],
      "stateMutability": "nonpayable",
      "type": "function"
    },
    {
      "inputs": [
        {
          "internalType": "address",
          "name": "proposedGovernor_",
          "type": "address"
        }
      ],
      "name": "transferGovernorship",
      "outputs": [],
      "stateMutability": "nonpayable",
      "type": "function"
    },
    {
      "inputs": [
        {
          "internalType": "contract IPool",
          "name": "pool_",
          "type": "address"
        },
        {
          "internalType": "uint256",
          "name": "amount_",
          "type": "uint256"
        }
      ],
      "name": "withdraw",
      "outputs": [],
      "stateMutability": "nonpayable",
      "type": "function"
    },
    {
      "stateMutability": "payable",
      "type": "receive"
    }
  ],
  "transactionHash": "0x70d443a55d8d4af7c0779500bb1c145f6cea6eca7c3a7fe97e5ba59879142939",
  "args": [
    "0xe9e7CEA3DedcA5984780Bafc599bD69ADd087D56"
  ],
  "numDeployments": 1,
  "solcInputHash": "d4de23420259fd811f95bb7990a3cd60",
  "bytecode": "0x60a060405234801561001057600080fd5b50604051610ff9380380610ff983398101604081905261002f91610080565b600280546001600160a01b031916339081179091556040516000907fd4459d5b8b913cab0244230fd9b1c08b6ceace7fe9230e60d0f74cbffdf849d0908290a36001600160a01b03166080526100b0565b60006020828403121561009257600080fd5b81516001600160a01b03811681146100a957600080fd5b9392505050565b608051610f056100f460003960008181608f015281816101e60152818161034c015281816103d2015281816104690152818161063c015261076e0152610f056000f3fe60806040526004361061007f5760003560e01c8063e1758bd81161004e578063e1758bd8146101d4578063f340fa0114610208578063f3b27bc31461021b578063f3fef3a314610230576100f9565b80630c340a241461013857806362c06767146101745780638a11a37014610194578063b6aa515b146101b4576100f9565b366100f957336001600160a01b037f000000000000000000000000000000000000000000000000000000000000000016146100f75760405162461bcd60e51b81526020600482015260136024820152721c9958d95a5d994b5b9bdd0b585b1b1bddd959606a1b60448201526064015b60405180910390fd5b005b60405162461bcd60e51b815260206004820152601460248201527319985b1b189858dacb5b9bdd0b585b1b1bddd95960621b60448201526064016100ee565b34801561014457600080fd5b50600254610158906001600160a01b031681565b6040516001600160a01b03909116815260200160405180910390f35b34801561018057600080fd5b506100f761018f366004610d72565b610250565b3480156101a057600080fd5b50600354610158906001600160a01b031681565b3480156101c057600080fd5b506100f76101cf366004610db3565b610289565b3480156101e057600080fd5b506101587f000000000000000000000000000000000000000000000000000000000000000081565b6100f7610216366004610db3565b61034a565b34801561022757600080fd5b506100f761050f565b34801561023c57600080fd5b506100f761024b366004610dd0565b6105cd565b6102586107e5565b6001600160a01b038316610275576102708282610830565b505050565b6102706001600160a01b0384168383610949565b6002546001600160a01b031633146102d25760405162461bcd60e51b815260206004820152600c60248201526b3737ba16b3b7bb32b93737b960a11b60448201526064016100ee565b6001600160a01b0381166103285760405162461bcd60e51b815260206004820152601960248201527f70726f706f7365642d676f7665726e6f722d69732d7a65726f0000000000000060448201526064016100ee565b600380546001600160a01b0319166001600160a01b0392909216919091179055565b7f00000000000000000000000000000000000000000000000000000000000000006001600160a01b031663d0e30db0346040518263ffffffff1660e01b81526004016000604051808303818588803b1580156103a557600080fd5b505af11580156103b9573d6000803e3d6000fd5b50506040516343e6ee4360e11b81526001600160a01b037f00000000000000000000000000000000000000000000000000000000000000008116600483015260009450851692506387cddc86915060240160206040518083038186803b15801561042257600080fd5b505afa158015610436573d6000803e3d6000fd5b505050506040513d601f19601f8201168201806040525081019061045a9190610dfc565b90506104906001600160a01b037f00000000000000000000000000000000000000000000000000000000000000001682346109ac565b604051636e553f6560e01b81523460048201523360248201526001600160a01b03821690636e553f6590604401602060405180830381600087803b1580156104d757600080fd5b505af11580156104eb573d6000803e3d6000fd5b505050506040513d601f19601f820116820180604052508101906102709190610e19565b6003546001600160a01b031633811461056a5760405162461bcd60e51b815260206004820152601960248201527f6e6f742d7468652d70726f706f7365642d676f7665726e6f720000000000000060448201526064016100ee565b6002546040516001600160a01b038084169216907fd4459d5b8b913cab0244230fd9b1c08b6ceace7fe9230e60d0f74cbffdf849d090600090a3600280546001600160a01b039092166001600160a01b0319928316179055600380549091169055565b600260015414156106205760405162461bcd60e51b815260206004820152601f60248201527f5265656e7472616e637947756172643a207265656e7472616e742063616c6c0060448201526064016100ee565b60026001556040516343e6ee4360e11b81526001600160a01b037f000000000000000000000000000000000000000000000000000000000000000081166004830152600091908416906387cddc869060240160206040518083038186803b15801561068a57600080fd5b505afa15801561069e573d6000803e3d6000fd5b505050506040513d601f19601f820116820180604052508101906106c29190610dfc565b90506106d96001600160a01b038216333085610ad0565b604051627b8a6760e11b8152600481018390523060248201526001600160a01b0382169062f714ce90604401602060405180830381600087803b15801561071f57600080fd5b505af1158015610733573d6000803e3d6000fd5b505050506040513d601f19601f820116820180604052508101906107579190610e19565b50604051632e1a7d4d60e01b8152600481018390527f00000000000000000000000000000000000000000000000000000000000000006001600160a01b031690632e1a7d4d90602401600060405180830381600087803b1580156107ba57600080fd5b505af11580156107ce573d6000803e3d6000fd5b505050506107dc3383610830565b50506001805550565b6002546001600160a01b0316331461082e5760405162461bcd60e51b815260206004820152600c60248201526b3737ba16b3b7bb32b93737b960a11b60448201526064016100ee565b565b804710156108805760405162461bcd60e51b815260206004820152601d60248201527f416464726573733a20696e73756666696369656e742062616c616e636500000060448201526064016100ee565b6000826001600160a01b03168260405160006040518083038185875af1925050503d80600081146108cd576040519150601f19603f3d011682016040523d82523d6000602084013e6108d2565b606091505b50509050806102705760405162461bcd60e51b815260206004820152603a60248201527f416464726573733a20756e61626c6520746f2073656e642076616c75652c207260448201527f6563697069656e74206d6179206861766520726576657274656400000000000060648201526084016100ee565b6040516001600160a01b03831660248201526044810182905261027090849063a9059cbb60e01b906064015b60408051601f198184030181529190526020810180516001600160e01b03166001600160e01b031990931692909217909152610b0e565b801580610a355750604051636eb1769f60e11b81523060048201526001600160a01b03838116602483015284169063dd62ed3e9060440160206040518083038186803b1580156109fb57600080fd5b505afa158015610a0f573d6000803e3d6000fd5b505050506040513d601f19601f82011682018060405250810190610a339190610e19565b155b610aa05760405162461bcd60e51b815260206004820152603660248201527f5361666545524332303a20617070726f76652066726f6d206e6f6e2d7a65726f60448201527520746f206e6f6e2d7a65726f20616c6c6f77616e636560501b60648201526084016100ee565b6040516001600160a01b03831660248201526044810182905261027090849063095ea7b360e01b90606401610975565b6040516001600160a01b0380851660248301528316604482015260648101829052610b089085906323b872dd60e01b90608401610975565b50505050565b6000610b63826040518060400160405280602081526020017f5361666545524332303a206c6f772d6c6576656c2063616c6c206661696c6564815250856001600160a01b0316610be09092919063ffffffff16565b8051909150156102705780806020019051810190610b819190610e32565b6102705760405162461bcd60e51b815260206004820152602a60248201527f5361666545524332303a204552433230206f7065726174696f6e20646964206e6044820152691bdd081cdd58d8d9595960b21b60648201526084016100ee565b6060610bef8484600085610bf9565b90505b9392505050565b606082471015610c5a5760405162461bcd60e51b815260206004820152602660248201527f416464726573733a20696e73756666696369656e742062616c616e636520666f6044820152651c8818d85b1b60d21b60648201526084016100ee565b843b610ca85760405162461bcd60e51b815260206004820152601d60248201527f416464726573733a2063616c6c20746f206e6f6e2d636f6e747261637400000060448201526064016100ee565b600080866001600160a01b03168587604051610cc49190610e80565b60006040518083038185875af1925050503d8060008114610d01576040519150601f19603f3d011682016040523d82523d6000602084013e610d06565b606091505b5091509150610d16828286610d21565b979650505050505050565b60608315610d30575081610bf2565b825115610d405782518084602001fd5b8160405162461bcd60e51b81526004016100ee9190610e9c565b6001600160a01b0381168114610d6f57600080fd5b50565b600080600060608486031215610d8757600080fd5b8335610d9281610d5a565b92506020840135610da281610d5a565b929592945050506040919091013590565b600060208284031215610dc557600080fd5b8135610bf281610d5a565b60008060408385031215610de357600080fd5b8235610dee81610d5a565b946020939093013593505050565b600060208284031215610e0e57600080fd5b8151610bf281610d5a565b600060208284031215610e2b57600080fd5b5051919050565b600060208284031215610e4457600080fd5b81518015158114610bf257600080fd5b60005b83811015610e6f578181015183820152602001610e57565b83811115610b085750506000910152565b60008251610e92818460208701610e54565b9190910192915050565b6020815260008251806020840152610ebb816040850160208701610e54565b601f01601f1916919091016040019291505056fea2646970667358221220a2ce9b9e020e7d825daef50dee1cb1497f9eb7a2aa59f386e76c2ad919cccbd264736f6c63430008090033",
  "devdoc": {
    "kind": "dev",
    "methods": {
      "acceptGovernorship()": {
        "details": "Allows new governor to accept governorship of the contract."
      },
      "deposit(address)": {
        "params": {
          "pool_": "The Pool contract"
        }
      },
      "sweep(address,address,uint256)": {
        "params": {
          "amount_": "The amount to send",
          "to_": "The recipient of the transfer",
          "token_": "The token to transfer"
        }
      },
      "transferGovernorship(address)": {
        "details": "Transfers governorship of the contract to a new account (`proposedGovernor`). Can only be called by the current owner."
      },
      "withdraw(address,uint256)": {
        "params": {
          "amount_": "The amount of deposit tokens to withdraw and receive native ETH",
          "pool_": "The Pool contract"
        }
      }
    },
    "title": "Helper contract to easily support native tokens (e.g. ETH/AVAX) as collateral",
    "version": 1
  },
  "userdoc": {
    "kind": "user",
    "methods": {
      "deposit(address)": {
        "notice": "deposits NATIVE_TOKEN as collateral using native. A corresponding amount of the deposit token is minted."
      },
      "sweep(address,address,uint256)": {
        "notice": "ERC20 recovery in case of stuck tokens due direct transfers to the contract address."
      },
      "withdraw(address,uint256)": {
        "notice": "withdraws the NATIVE_TOKEN deposit of msg.sender."
      }
    },
    "version": 1
  },
  "storageLayout": {
    "storage": [
      {
        "astId": 6563,
        "contract": "contracts/NativeTokenGateway.sol:NativeTokenGateway",
        "label": "_initialized",
        "offset": 0,
        "slot": "0",
        "type": "t_bool"
      },
      {
        "astId": 6566,
        "contract": "contracts/NativeTokenGateway.sol:NativeTokenGateway",
        "label": "_initializing",
        "offset": 1,
        "slot": "0",
        "type": "t_bool"
      },
      {
        "astId": 6617,
        "contract": "contracts/NativeTokenGateway.sol:NativeTokenGateway",
        "label": "_status",
        "offset": 0,
        "slot": "1",
        "type": "t_uint256"
      },
      {
        "astId": 6306,
        "contract": "contracts/NativeTokenGateway.sol:NativeTokenGateway",
        "label": "governor",
        "offset": 0,
        "slot": "2",
        "type": "t_address"
      },
      {
        "astId": 6308,
        "contract": "contracts/NativeTokenGateway.sol:NativeTokenGateway",
        "label": "proposedGovernor",
        "offset": 0,
        "slot": "3",
        "type": "t_address"
      }
    ],
    "types": {
      "t_address": {
        "encoding": "inplace",
        "label": "address",
        "numberOfBytes": "20"
      },
      "t_bool": {
        "encoding": "inplace",
        "label": "bool",
        "numberOfBytes": "1"
      },
      "t_uint256": {
        "encoding": "inplace",
        "label": "uint256",
        "numberOfBytes": "32"
      }
    }
  }
}