{
  "address": "0x0CF1923Ff6dE0EBa9c30ef9a1e57476b5511E288",
  "abi": [
    {
      "anonymous": false,
      "inputs": [
        {
          "indexed": true,
          "internalType": "address",
          "name": "owner",
          "type": "address"
        },
        {
          "indexed": true,
          "internalType": "address",
          "name": "spender",
          "type": "address"
        },
        {
          "indexed": false,
          "internalType": "uint256",
          "name": "value",
          "type": "uint256"
        }
      ],
      "name": "Approval",
      "type": "event"
    },
    {
      "anonymous": false,
      "inputs": [
        {
          "indexed": false,
          "internalType": "uint256",
          "name": "oldMaxTotalSupply",
          "type": "uint256"
        },
        {
          "indexed": false,
          "internalType": "uint256",
          "name": "newMaxTotalSupply",
          "type": "uint256"
        }
      ],
      "name": "MaxTotalSupplyUpdated",
      "type": "event"
    },
    {
      "anonymous": false,
      "inputs": [
        {
          "indexed": false,
          "internalType": "bool",
          "name": "newActive",
          "type": "bool"
        }
      ],
      "name": "SyntheticTokenActiveUpdated",
      "type": "event"
    },
    {
      "anonymous": false,
      "inputs": [
        {
          "indexed": true,
          "internalType": "address",
          "name": "from",
          "type": "address"
        },
        {
          "indexed": true,
          "internalType": "address",
          "name": "to",
          "type": "address"
        },
        {
          "indexed": false,
          "internalType": "uint256",
          "name": "value",
          "type": "uint256"
        }
      ],
      "name": "Transfer",
      "type": "event"
    },
    {
      "inputs": [],
      "name": "VERSION",
      "outputs": [
        {
          "internalType": "string",
          "name": "",
          "type": "string"
        }
      ],
      "stateMutability": "view",
      "type": "function"
    },
    {
      "inputs": [
        {
          "internalType": "address",
          "name": "",
          "type": "address"
        },
        {
          "internalType": "address",
          "name": "",
          "type": "address"
        }
      ],
      "name": "allowance",
      "outputs": [
        {
          "internalType": "uint256",
          "name": "",
          "type": "uint256"
        }
      ],
      "stateMutability": "view",
      "type": "function"
    },
    {
      "inputs": [
        {
          "internalType": "address",
          "name": "spender_",
          "type": "address"
        },
        {
          "internalType": "uint256",
          "name": "amount_",
          "type": "uint256"
        }
      ],
      "name": "approve",
      "outputs": [
        {
          "internalType": "bool",
          "name": "",
          "type": "bool"
        }
      ],
      "stateMutability": "nonpayable",
      "type": "function"
    },
    {
      "inputs": [
        {
          "internalType": "address",
          "name": "",
          "type": "address"
        }
      ],
      "name": "balanceOf",
      "outputs": [
        {
          "internalType": "uint256",
          "name": "",
          "type": "uint256"
        }
      ],
      "stateMutability": "view",
      "type": "function"
    },
    {
      "inputs": [
        {
          "internalType": "address",
          "name": "from_",
          "type": "address"
        },
        {
          "internalType": "uint256",
          "name": "amount_",
          "type": "uint256"
        }
      ],
      "name": "burn",
      "outputs": [],
      "stateMutability": "nonpayable",
      "type": "function"
    },
    {
      "inputs": [],
      "name": "decimals",
      "outputs": [
        {
          "internalType": "uint8",
          "name": "",
          "type": "uint8"
        }
      ],
      "stateMutability": "view",
      "type": "function"
    },
    {
      "inputs": [
        {
          "internalType": "address",
          "name": "spender_",
          "type": "address"
        },
        {
          "internalType": "uint256",
          "name": "subtractedValue_",
          "type": "uint256"
        }
      ],
      "name": "decreaseAllowance",
      "outputs": [
        {
          "internalType": "bool",
          "name": "",
          "type": "bool"
        }
      ],
      "stateMutability": "nonpayable",
      "type": "function"
    },
    {
      "inputs": [
        {
          "internalType": "address",
          "name": "spender_",
          "type": "address"
        },
        {
          "internalType": "uint256",
          "name": "addedValue_",
          "type": "uint256"
        }
      ],
      "name": "increaseAllowance",
      "outputs": [
        {
          "internalType": "bool",
          "name": "",
          "type": "bool"
        }
      ],
      "stateMutability": "nonpayable",
      "type": "function"
    },
    {
      "inputs": [
        {
          "internalType": "string",
          "name": "name_",
          "type": "string"
        },
        {
          "internalType": "string",
          "name": "symbol_",
          "type": "string"
        },
        {
          "internalType": "uint8",
          "name": "decimals_",
          "type": "uint8"
        },
        {
          "internalType": "contract IPoolRegistry",
          "name": "poolRegistry_",
          "type": "address"
        }
      ],
      "name": "initialize",
      "outputs": [],
      "stateMutability": "nonpayable",
      "type": "function"
    },
    {
      "inputs": [],
      "name": "isActive",
      "outputs": [
        {
          "internalType": "bool",
          "name": "",
          "type": "bool"
        }
      ],
      "stateMutability": "view",
      "type": "function"
    },
    {
      "inputs": [],
      "name": "maxTotalSupply",
      "outputs": [
        {
          "internalType": "uint256",
          "name": "",
          "type": "uint256"
        }
      ],
      "stateMutability": "view",
      "type": "function"
    },
    {
      "inputs": [
        {
          "internalType": "address",
          "name": "to_",
          "type": "address"
        },
        {
          "internalType": "uint256",
          "name": "amount_",
          "type": "uint256"
        }
      ],
      "name": "mint",
      "outputs": [],
      "stateMutability": "nonpayable",
      "type": "function"
    },
    {
      "inputs": [],
      "name": "name",
      "outputs": [
        {
          "internalType": "string",
          "name": "",
          "type": "string"
        }
      ],
      "stateMutability": "view",
      "type": "function"
    },
    {
      "inputs": [],
      "name": "poolRegistry",
      "outputs": [
        {
          "internalType": "contract IPoolRegistry",
          "name": "",
          "type": "address"
        }
      ],
      "stateMutability": "view",
      "type": "function"
    },
    {
      "inputs": [
        {
          "internalType": "address",
          "name": "from_",
          "type": "address"
        },
        {
          "internalType": "address",
          "name": "to_",
          "type": "address"
        },
        {
          "internalType": "uint256",
          "name": "amount_",
          "type": "uint256"
        }
      ],
      "name": "seize",
      "outputs": [],
      "stateMutability": "nonpayable",
      "type": "function"
    },
    {
      "inputs": [],
      "name": "symbol",
      "outputs": [
        {
          "internalType": "string",
          "name": "",
          "type": "string"
        }
      ],
      "stateMutability": "view",
      "type": "function"
    },
    {
      "inputs": [],
      "name": "toggleIsActive",
      "outputs": [],
      "stateMutability": "nonpayable",
      "type": "function"
    },
    {
      "inputs": [],
      "name": "totalSupply",
      "outputs": [
        {
          "internalType": "uint256",
          "name": "",
          "type": "uint256"
        }
      ],
      "stateMutability": "view",
      "type": "function"
    },
    {
      "inputs": [
        {
          "internalType": "address",
          "name": "recipient_",
          "type": "address"
        },
        {
          "internalType": "uint256",
          "name": "amount_",
          "type": "uint256"
        }
      ],
      "name": "transfer",
      "outputs": [
        {
          "internalType": "bool",
          "name": "",
          "type": "bool"
        }
      ],
      "stateMutability": "nonpayable",
      "type": "function"
    },
    {
      "inputs": [
        {
          "internalType": "address",
          "name": "sender_",
          "type": "address"
        },
        {
          "internalType": "address",
          "name": "recipient_",
          "type": "address"
        },
        {
          "internalType": "uint256",
          "name": "amount_",
          "type": "uint256"
        }
      ],
      "name": "transferFrom",
      "outputs": [
        {
          "internalType": "bool",
          "name": "",
          "type": "bool"
        }
      ],
      "stateMutability": "nonpayable",
      "type": "function"
    },
    {
      "inputs": [
        {
          "internalType": "uint256",
          "name": "newMaxTotalSupply_",
          "type": "uint256"
        }
      ],
      "name": "updateMaxTotalSupply",
      "outputs": [],
      "stateMutability": "nonpayable",
      "type": "function"
    }
  ],
  "transactionHash": "0x7805ed768bf722cb70ca4af29b1d518d36ed463ca0ea20755402d751c22b73aa",
  "args": [],
  "numDeployments": 1,
  "solcInputHash": "d4de23420259fd811f95bb7990a3cd60",
  "bytecode": "0x608060405234801561001057600080fd5b50611645806100206000396000f3fe608060405234801561001057600080fd5b50600436106101375760003560e01c806370a08231116100b8578063afcff50f1161007c578063afcff50f14610286578063b2a02ff1146102b1578063d2593329146102c4578063dd62ed3e146102cc578063de7ea79d146102f7578063ffa1ad741461030a57600080fd5b806370a082311461022557806395d89b41146102455780639dc29fac1461024d578063a457c2d714610260578063a9059cbb1461027357600080fd5b806323b872dd116100ff57806323b872dd146101bd5780632ab4d052146101d0578063313ce567146101d957806339509351146101ff57806340c10f191461021257600080fd5b806306fdde031461013c578063095ea7b31461015a578063172f50a41461017d57806318160ddd1461019257806322f3e2d4146101a9575b600080fd5b61014461032e565b604051610151919061133b565b60405180910390f35b61016d6101683660046113a8565b6103bc565b6040519015158152602001610151565b61019061018b3660046113d4565b6103d2565b005b61019b60055481565b604051908152602001610151565b60075461016d90600160a01b900460ff1681565b61016d6101cb3660046113ed565b610534565b61019b60065481565b6007546101ed90600160a81b900460ff1681565b60405160ff9091168152602001610151565b61016d61020d3660046113a8565b6105d6565b6101906102203660046113a8565b610612565b61019b61023336600461142e565b60036020526000908152604090205481565b610144610675565b61019061025b3660046113a8565b610682565b61016d61026e3660046113a8565b6106e1565b61016d6102813660046113a8565b61076c565b600754610299906001600160a01b031681565b6040516001600160a01b039091168152602001610151565b6101906102bf3660046113ed565b610779565b6101906107df565b61019b6102da366004611452565b600460209081526000928352604080842090915290825290205481565b6101906103053660046114d4565b610915565b610144604051806040016040528060058152602001640312e302e360dc1b81525081565b6001805461033b9061156f565b80601f01602080910402602001604051908101604052809291908181526020018280546103679061156f565b80156103b45780601f10610389576101008083540402835291602001916103b4565b820191906000526020600020905b81548152906001019060200180831161039757829003601f168201915b505050505081565b60006103c9338484610a7f565b50600192915050565b600760009054906101000a90046001600160a01b03166001600160a01b0316630c340a246040518163ffffffff1660e01b815260040160206040518083038186803b15801561042057600080fd5b505afa158015610434573d6000803e3d6000fd5b505050506040513d601f19601f8201168201806040525081019061045891906115aa565b6001600160a01b0316336001600160a01b0316146104ac5760405162461bcd60e51b815260206004820152600c60248201526b3737ba16b3b7bb32b93737b960a11b60448201526064015b60405180910390fd5b600654818114156104f55760405162461bcd60e51b81526020600482015260136024820152721b995dcb5cd85b594b585ccb58dd5c9c995b9d606a1b60448201526064016104a3565b60408051828152602081018490527fc58cd6132bb46df23d468939c03dd023b74b509aaa6b04c39d5a6461c65963bd910160405180910390a150600655565b6000610541848484610b8d565b6001600160a01b038416600090815260046020908152604080832033845290915290205460001981146105cb57828110156105be5760405162461bcd60e51b815260206004820152601860248201527f616d6f756e742d657863656564732d616c6c6f77616e6365000000000000000060448201526064016104a3565b6105cb8533858403610a7f565b506001949350505050565b3360008181526004602090815260408083206001600160a01b038716845290915281205490916103c991859061060d9086906115c7565b610a7f565b61061a610d10565b806106285750610628610e06565b6106675760405162461bcd60e51b815260206004820152601060248201526f1cd95b99195c8b58d85b9d0b5b5a5b9d60821b60448201526064016104a3565b610671828261100a565b5050565b6002805461033b9061156f565b61068a610d10565b806106985750610698610e06565b6106d75760405162461bcd60e51b815260206004820152601060248201526f39b2b73232b916b1b0b73a16b13ab93760811b60448201526064016104a3565b610671828261118b565b3360009081526004602090815260408083206001600160a01b0386168452909152812054828110156107555760405162461bcd60e51b815260206004820152601e60248201527f6465637265617365642d616c6c6f77616e63652d62656c6f772d7a65726f000060448201526064016104a3565b6107623385858403610a7f565b5060019392505050565b60006103c9338484610b8d565b610781610d10565b8061078f575061078f610e06565b6107cf5760405162461bcd60e51b815260206004820152601160248201527073656e6465722d63616e742d7365697a6560781b60448201526064016104a3565b6107da838383610b8d565b505050565b600760009054906101000a90046001600160a01b03166001600160a01b0316630c340a246040518163ffffffff1660e01b815260040160206040518083038186803b15801561082d57600080fd5b505afa158015610841573d6000803e3d6000fd5b505050506040513d601f19601f8201168201806040525081019061086591906115aa565b6001600160a01b0316336001600160a01b0316146108b45760405162461bcd60e51b815260206004820152600c60248201526b3737ba16b3b7bb32b93737b960a11b60448201526064016104a3565b600754604051600160a01b90910460ff1615808252907f79e35d0afb37464963b458a448d257d695a4dc4406dc45df01e4c7b38e2732cb9060200160405180910390a160078054911515600160a01b0260ff60a01b19909216919091179055565b600054610100900460ff168061092e575060005460ff16155b6109915760405162461bcd60e51b815260206004820152602e60248201527f496e697469616c697a61626c653a20636f6e747261637420697320616c72656160448201526d191e481a5b9a5d1a585b1a5e995960921b60648201526084016104a3565b600054610100900460ff161580156109b3576000805461ffff19166101011790555b6001600160a01b038216610a015760405162461bcd60e51b81526020600482015260156024820152741c1bdbdb0b5c9959da5cdd1c9e4b5a5ccb5b9d5b1b605a1b60448201526064016104a3565b600780546001600160a01b0319166001600160a01b038416179055610a28600188886112a2565b50610a35600286866112a2565b506007805460ff60a01b1960ff8616600160a81b021661ffff60a01b1990911617600160a01b1790556000196006558015610a76576000805461ff00191690555b50505050505050565b6001600160a01b038316610ad55760405162461bcd60e51b815260206004820152601d60248201527f617070726f76652d66726f6d2d7468652d7a65726f2d6164647265737300000060448201526064016104a3565b6001600160a01b038216610b2b5760405162461bcd60e51b815260206004820152601b60248201527f617070726f76652d746f2d7468652d7a65726f2d61646472657373000000000060448201526064016104a3565b6001600160a01b0383811660008181526004602090815260408083209487168084529482529182902085905590518481527f8c5be1e5ebec7d5bd14f71427d1e84f3dd0314c0f7b2291e5b200ac8c7c3b92591015b60405180910390a3505050565b6001600160a01b038316610be35760405162461bcd60e51b815260206004820152601e60248201527f7472616e736665722d66726f6d2d7468652d7a65726f2d61646472657373000060448201526064016104a3565b6001600160a01b038216610c395760405162461bcd60e51b815260206004820152601c60248201527f7472616e736665722d746f2d7468652d7a65726f2d616464726573730000000060448201526064016104a3565b6001600160a01b03831660009081526003602052604090205481811015610ca25760405162461bcd60e51b815260206004820152601f60248201527f7472616e736665722d616d6f756e742d657863656564732d62616c616e63650060448201526064016104a3565b6001600160a01b0380851660008181526003602052604080822086860390559286168082529083902080548601905591517fddf252ad1be2c89b69c2b068fc378daa952ba7f163c4a11628f55a4df523b3ef90610d029086815260200190565b60405180910390a350505050565b600754604051631e1c6a0760e01b81523360048201526000916001600160a01b031690631e1c6a079060240160206040518083038186803b158015610d5457600080fd5b505afa158015610d68573d6000803e3d6000fd5b505050506040513d601f19601f82011682018060405250810190610d8c91906115ed565b8015610e0157506040516309bf6ca360e31b81523060048201523390634dfb65189060240160206040518083038186803b158015610dc957600080fd5b505afa158015610ddd573d6000803e3d6000fd5b505050506040513d601f19601f82011682018060405250810190610e0191906115ed565b905090565b600080336001600160a01b03166316f0115b6040518163ffffffff1660e01b815260040160206040518083038186803b158015610e4257600080fd5b505afa158015610e56573d6000803e3d6000fd5b505050506040513d601f19601f82011682018060405250810190610e7a91906115aa565b600754604051631e1c6a0760e01b81526001600160a01b038084166004830152929350911690631e1c6a079060240160206040518083038186803b158015610ec157600080fd5b505afa158015610ed5573d6000803e3d6000fd5b505050506040513d601f19601f82011682018060405250810190610ef991906115ed565b8015610f77575060405163020484bb60e11b81523360048201526001600160a01b0382169063040909769060240160206040518083038186803b158015610f3f57600080fd5b505afa158015610f53573d6000803e3d6000fd5b505050506040513d601f19601f82011682018060405250810190610f7791906115ed565b80156110045750306001600160a01b0316336001600160a01b0316638230ecd66040518163ffffffff1660e01b815260040160206040518083038186803b158015610fc157600080fd5b505afa158015610fd5573d6000803e3d6000fd5b505050506040513d601f19601f82011682018060405250810190610ff991906115aa565b6001600160a01b0316145b91505090565b600754600160a01b900460ff166110585760405162461bcd60e51b815260206004820152601260248201527173796e7468657469632d696e61637469766560701b60448201526064016104a3565b6001600160a01b0382166110ae5760405162461bcd60e51b815260206004820152601860248201527f6d696e742d746f2d7468652d7a65726f2d61646472657373000000000000000060448201526064016104a3565b80600560008282546110c091906115c7565b909155505060065460055411156111195760405162461bcd60e51b815260206004820152601860248201527f737572706173732d6d61782d73796e74682d737570706c79000000000000000060448201526064016104a3565b6001600160a01b038216600090815260036020526040812080548392906111419084906115c7565b90915550506040518181526001600160a01b038316906000907fddf252ad1be2c89b69c2b068fc378daa952ba7f163c4a11628f55a4df523b3ef9060200160405180910390a35050565b6001600160a01b0382166111e15760405162461bcd60e51b815260206004820152601a60248201527f6275726e2d66726f6d2d7468652d7a65726f2d6164647265737300000000000060448201526064016104a3565b6001600160a01b0382166000908152600360205260409020548181101561124a5760405162461bcd60e51b815260206004820152601b60248201527f6275726e2d616d6f756e742d657863656564732d62616c616e6365000000000060448201526064016104a3565b6001600160a01b03831660008181526003602090815260408083208686039055600580548790039055518581529192917fddf252ad1be2c89b69c2b068fc378daa952ba7f163c4a11628f55a4df523b3ef9101610b80565b8280546112ae9061156f565b90600052602060002090601f0160209004810192826112d05760008555611316565b82601f106112e95782800160ff19823516178555611316565b82800160010185558215611316579182015b828111156113165782358255916020019190600101906112fb565b50611322929150611326565b5090565b5b808211156113225760008155600101611327565b600060208083528351808285015260005b818110156113685785810183015185820160400152820161134c565b8181111561137a576000604083870101525b50601f01601f1916929092016040019392505050565b6001600160a01b03811681146113a557600080fd5b50565b600080604083850312156113bb57600080fd5b82356113c681611390565b946020939093013593505050565b6000602082840312156113e657600080fd5b5035919050565b60008060006060848603121561140257600080fd5b833561140d81611390565b9250602084013561141d81611390565b929592945050506040919091013590565b60006020828403121561144057600080fd5b813561144b81611390565b9392505050565b6000806040838503121561146557600080fd5b823561147081611390565b9150602083013561148081611390565b809150509250929050565b60008083601f84011261149d57600080fd5b50813567ffffffffffffffff8111156114b557600080fd5b6020830191508360208285010111156114cd57600080fd5b9250929050565b600080600080600080608087890312156114ed57600080fd5b863567ffffffffffffffff8082111561150557600080fd5b6115118a838b0161148b565b9098509650602089013591508082111561152a57600080fd5b5061153789828a0161148b565b909550935050604087013560ff8116811461155157600080fd5b9150606087013561156181611390565b809150509295509295509295565b600181811c9082168061158357607f821691505b602082108114156115a457634e487b7160e01b600052602260045260246000fd5b50919050565b6000602082840312156115bc57600080fd5b815161144b81611390565b600082198211156115e857634e487b7160e01b600052601160045260246000fd5b500190565b6000602082840312156115ff57600080fd5b8151801515811461144b57600080fdfea264697066735822122044c78fa5ea00e595632957287f87709d666a92059b77531ba7a0ce43cd5543c764736f6c63430008090033",
  "devdoc": {
    "kind": "dev",
    "methods": {
      "burn(address,uint256)": {
        "params": {
          "amount_": "The amount to burn",
          "from_": "The account to burn from"
        }
      },
      "mint(address,uint256)": {
        "params": {
          "amount_": "The amount to mint",
          "to_": "The account to mint to"
        }
      },
      "seize(address,address,uint256)": {
        "details": "Same as _transfer",
        "params": {
          "amount_": "The amount to seize",
          "to_": "The beneficiary account"
        }
      },
      "updateMaxTotalSupply(uint256)": {
        "params": {
          "newMaxTotalSupply_": "The new max total supply"
        }
      }
    },
    "title": "Synthetic Token contract",
    "version": 1
  },
  "userdoc": {
    "events": {
      "MaxTotalSupplyUpdated(uint256,uint256)": {
        "notice": "Emitted when max total supply is updated"
      },
      "SyntheticTokenActiveUpdated(bool)": {
        "notice": "Emitted when active flag is updated"
      }
    },
    "kind": "user",
    "methods": {
      "approve(address,uint256)": {
        "notice": "Set `amount` as the allowance of `spender` over the caller's tokens"
      },
      "burn(address,uint256)": {
        "notice": "Burn synthetic token"
      },
      "decimals()": {
        "notice": "The decimals of the token"
      },
      "decreaseAllowance(address,uint256)": {
        "notice": "Atomically decrease the allowance granted to `spender` by the caller"
      },
      "increaseAllowance(address,uint256)": {
        "notice": "Atomically increase the allowance granted to `spender` by the caller"
      },
      "isActive()": {
        "notice": "If true, disables msAsset minting globally"
      },
      "maxTotalSupply()": {
        "notice": "The supply cap"
      },
      "mint(address,uint256)": {
        "notice": "Mint synthetic token"
      },
      "name()": {
        "notice": "The name of the token"
      },
      "seize(address,address,uint256)": {
        "notice": "Seize synthetic tokens"
      },
      "symbol()": {
        "notice": "The symbol of the token"
      },
      "toggleIsActive()": {
        "notice": "Enable/Disable Synthetic Token"
      },
      "transfer(address,uint256)": {
        "notice": "Move `amount` tokens from the caller's account to `recipient`"
      },
      "transferFrom(address,address,uint256)": {
        "notice": "Move `amount` tokens from `sender` to `recipient` using the allowance mechanism. `amount` is then deducted from the caller's allowance"
      },
      "updateMaxTotalSupply(uint256)": {
        "notice": "Update max total supply"
      }
    },
    "version": 1
  },
  "storageLayout": {
    "storage": [
      {
        "astId": 6563,
        "contract": "contracts/SyntheticToken.sol:SyntheticToken",
        "label": "_initialized",
        "offset": 0,
        "slot": "0",
        "type": "t_bool"
      },
      {
        "astId": 6566,
        "contract": "contracts/SyntheticToken.sol:SyntheticToken",
        "label": "_initializing",
        "offset": 1,
        "slot": "0",
        "type": "t_bool"
      },
      {
        "astId": 10429,
        "contract": "contracts/SyntheticToken.sol:SyntheticToken",
        "label": "name",
        "offset": 0,
        "slot": "1",
        "type": "t_string_storage"
      },
      {
        "astId": 10432,
        "contract": "contracts/SyntheticToken.sol:SyntheticToken",
        "label": "symbol",
        "offset": 0,
        "slot": "2",
        "type": "t_string_storage"
      },
      {
        "astId": 10437,
        "contract": "contracts/SyntheticToken.sol:SyntheticToken",
        "label": "balanceOf",
        "offset": 0,
        "slot": "3",
        "type": "t_mapping(t_address,t_uint256)"
      },
      {
        "astId": 10444,
        "contract": "contracts/SyntheticToken.sol:SyntheticToken",
        "label": "allowance",
        "offset": 0,
        "slot": "4",
        "type": "t_mapping(t_address,t_mapping(t_address,t_uint256))"
      },
      {
        "astId": 10447,
        "contract": "contracts/SyntheticToken.sol:SyntheticToken",
        "label": "totalSupply",
        "offset": 0,
        "slot": "5",
        "type": "t_uint256"
      },
      {
        "astId": 10450,
        "contract": "contracts/SyntheticToken.sol:SyntheticToken",
        "label": "maxTotalSupply",
        "offset": 0,
        "slot": "6",
        "type": "t_uint256"
      },
      {
        "astId": 10454,
        "contract": "contracts/SyntheticToken.sol:SyntheticToken",
        "label": "poolRegistry",
        "offset": 0,
        "slot": "7",
        "type": "t_contract(IPoolRegistry)8941"
      },
      {
        "astId": 10457,
        "contract": "contracts/SyntheticToken.sol:SyntheticToken",
        "label": "isActive",
        "offset": 20,
        "slot": "7",
        "type": "t_bool"
      },
      {
        "astId": 10460,
        "contract": "contracts/SyntheticToken.sol:SyntheticToken",
        "label": "decimals",
        "offset": 21,
        "slot": "7",
        "type": "t_uint8"
      }
    ],
    "types": {
      "t_address": {
        "encoding": "inplace",
        "label": "address",
        "numberOfBytes": "20"
      },
      "t_bool": {
        "encoding": "inplace",
        "label": "bool",
        "numberOfBytes": "1"
      },
      "t_contract(IPoolRegistry)8941": {
        "encoding": "inplace",
        "label": "contract IPoolRegistry",
        "numberOfBytes": "20"
      },
      "t_mapping(t_address,t_mapping(t_address,t_uint256))": {
        "encoding": "mapping",
        "key": "t_address",
        "label": "mapping(address => mapping(address => uint256))",
        "numberOfBytes": "32",
        "value": "t_mapping(t_address,t_uint256)"
      },
      "t_mapping(t_address,t_uint256)": {
        "encoding": "mapping",
        "key": "t_address",
        "label": "mapping(address => uint256)",
        "numberOfBytes": "32",
        "value": "t_uint256"
      },
      "t_string_storage": {
        "encoding": "bytes",
        "label": "string",
        "numberOfBytes": "32"
      },
      "t_uint256": {
        "encoding": "inplace",
        "label": "uint256",
        "numberOfBytes": "32"
      },
      "t_uint8": {
        "encoding": "inplace",
        "label": "uint8",
        "numberOfBytes": "1"
      }
    }
  }
}