{
  "address": "0x275468d5fE0e128868AfC0b60723751D821e8815",
  "abi": [
    {
      "inputs": [],
      "stateMutability": "nonpayable",
      "type": "constructor"
    },
    {
      "inputs": [],
      "name": "AddressIsNull",
      "type": "error"
    },
    {
      "inputs": [],
      "name": "BridgeTokenNotSupported",
      "type": "error"
    },
    {
      "inputs": [],
      "name": "BridgingIsPaused",
      "type": "error"
    },
    {
      "inputs": [],
      "name": "DestinationChainNotAllowed",
      "type": "error"
    },
    {
      "inputs": [],
      "name": "InvalidFromAddress",
      "type": "error"
    },
    {
      "inputs": [],
      "name": "InvalidMsgSender",
      "type": "error"
    },
    {
      "inputs": [],
      "name": "InvalidOperationType",
      "type": "error"
    },
    {
      "inputs": [],
      "name": "InvalidPayload",
      "type": "error"
    },
    {
      "inputs": [],
      "name": "InvalidSlippageParam",
      "type": "error"
    },
    {
      "inputs": [],
      "name": "NewValueIsSameAsCurrent",
      "type": "error"
    },
    {
      "inputs": [],
      "name": "SenderIsNotGovernor",
      "type": "error"
    },
    {
      "anonymous": false,
      "inputs": [
        {
          "indexed": false,
          "internalType": "bool",
          "name": "newIsActive",
          "type": "bool"
        }
      ],
      "name": "BridgingIsActiveUpdated",
      "type": "event"
    },
    {
      "anonymous": false,
      "inputs": [
        {
          "indexed": false,
          "internalType": "uint16",
          "name": "chainId",
          "type": "uint16"
        },
        {
          "indexed": false,
          "internalType": "address",
          "name": "oldCrossChainDispatcher",
          "type": "address"
        },
        {
          "indexed": false,
          "internalType": "address",
          "name": "newCrossChainDispatcher",
          "type": "address"
        }
      ],
      "name": "CrossChainDispatcherUpdated",
      "type": "event"
    },
    {
      "anonymous": false,
      "inputs": [
        {
          "indexed": false,
          "internalType": "uint16",
          "name": "chainId",
          "type": "uint16"
        },
        {
          "indexed": false,
          "internalType": "bool",
          "name": "newIsSupported",
          "type": "bool"
        }
      ],
      "name": "DestinationChainIsSupportedUpdated",
      "type": "event"
    },
    {
      "anonymous": false,
      "inputs": [
        {
          "indexed": false,
          "internalType": "uint64",
          "name": "oldCallbackTxGasLimit",
          "type": "uint64"
        },
        {
          "indexed": false,
          "internalType": "uint64",
          "name": "newCallbackTxGasLimit",
          "type": "uint64"
        }
      ],
      "name": "FlashRepayCallbackTxGasLimitUpdated",
      "type": "event"
    },
    {
      "anonymous": false,
      "inputs": [
        {
          "indexed": false,
          "internalType": "uint64",
          "name": "oldSwapTxGasLimit",
          "type": "uint64"
        },
        {
          "indexed": false,
          "internalType": "uint64",
          "name": "newSwapTxGasLimit",
          "type": "uint64"
        }
      ],
      "name": "FlashRepaySwapTxGasLimitUpdated",
      "type": "event"
    },
    {
      "anonymous": false,
      "inputs": [
        {
          "indexed": false,
          "internalType": "uint8",
          "name": "version",
          "type": "uint8"
        }
      ],
      "name": "Initialized",
      "type": "event"
    },
    {
      "anonymous": false,
      "inputs": [
        {
          "indexed": false,
          "internalType": "uint64",
          "name": "oldCallbackTxGasLimit",
          "type": "uint64"
        },
        {
          "indexed": false,
          "internalType": "uint64",
          "name": "newCallbackTxGasLimit",
          "type": "uint64"
        }
      ],
      "name": "LeverageCallbackTxGasLimitUpdated",
      "type": "event"
    },
    {
      "anonymous": false,
      "inputs": [
        {
          "indexed": false,
          "internalType": "uint64",
          "name": "oldSwapTxGasLimit",
          "type": "uint64"
        },
        {
          "indexed": false,
          "internalType": "uint64",
          "name": "newSwapTxGasLimit",
          "type": "uint64"
        }
      ],
      "name": "LeverageSwapTxGasLimitUpdated",
      "type": "event"
    },
    {
      "anonymous": false,
      "inputs": [
        {
          "indexed": false,
          "internalType": "uint256",
          "name": "oldLzBaseGasLimit",
          "type": "uint256"
        },
        {
          "indexed": false,
          "internalType": "uint256",
          "name": "newLzBaseGasLimit",
          "type": "uint256"
        }
      ],
      "name": "LzBaseGasLimitUpdated",
      "type": "event"
    },
    {
      "anonymous": false,
      "inputs": [
        {
          "indexed": false,
          "internalType": "contract IStargateComposer",
          "name": "oldStargateComposer",
          "type": "address"
        },
        {
          "indexed": false,
          "internalType": "contract IStargateComposer",
          "name": "newStargateComposer",
          "type": "address"
        }
      ],
      "name": "StargateComposerUpdated",
      "type": "event"
    },
    {
      "anonymous": false,
      "inputs": [
        {
          "indexed": true,
          "internalType": "address",
          "name": "token",
          "type": "address"
        },
        {
          "indexed": false,
          "internalType": "uint256",
          "name": "oldPoolId",
          "type": "uint256"
        },
        {
          "indexed": false,
          "internalType": "uint256",
          "name": "newPoolId",
          "type": "uint256"
        }
      ],
      "name": "StargatePoolIdUpdated",
      "type": "event"
    },
    {
      "anonymous": false,
      "inputs": [
        {
          "indexed": false,
          "internalType": "uint256",
          "name": "oldStargateSlippage",
          "type": "uint256"
        },
        {
          "indexed": false,
          "internalType": "uint256",
          "name": "newStargateSlippage",
          "type": "uint256"
        }
      ],
      "name": "StargateSlippageUpdated",
      "type": "event"
    },
    {
      "inputs": [],
      "name": "VERSION",
      "outputs": [
        {
          "internalType": "string",
          "name": "",
          "type": "string"
        }
      ],
      "stateMutability": "view",
      "type": "function"
    },
    {
      "inputs": [
        {
          "internalType": "uint16",
          "name": "",
          "type": "uint16"
        }
      ],
      "name": "crossChainDispatcherOf",
      "outputs": [
        {
          "internalType": "address",
          "name": "",
          "type": "address"
        }
      ],
      "stateMutability": "view",
      "type": "function"
    },
    {
      "inputs": [
        {
          "internalType": "uint256",
          "name": "",
          "type": "uint256"
        }
      ],
      "name": "extraCallbackTxNativeFee",
      "outputs": [
        {
          "internalType": "uint256",
          "name": "",
          "type": "uint256"
        }
      ],
      "stateMutability": "view",
      "type": "function"
    },
    {
      "inputs": [],
      "name": "flashRepayCallbackTxGasLimit",
      "outputs": [
        {
          "internalType": "uint64",
          "name": "",
          "type": "uint64"
        }
      ],
      "stateMutability": "view",
      "type": "function"
    },
    {
      "inputs": [],
      "name": "flashRepaySwapTxGasLimit",
      "outputs": [
        {
          "internalType": "uint64",
          "name": "",
          "type": "uint64"
        }
      ],
      "stateMutability": "view",
      "type": "function"
    },
    {
      "inputs": [
        {
          "internalType": "contract IPoolRegistry",
          "name": "poolRegistry_",
          "type": "address"
        },
        {
          "internalType": "address",
          "name": "weth_",
          "type": "address"
        },
        {
          "internalType": "address",
          "name": "sgeth_",
          "type": "address"
        }
      ],
      "name": "initialize",
      "outputs": [],
      "stateMutability": "nonpayable",
      "type": "function"
    },
    {
      "inputs": [],
      "name": "isBridgingActive",
      "outputs": [
        {
          "internalType": "bool",
          "name": "",
          "type": "bool"
        }
      ],
      "stateMutability": "view",
      "type": "function"
    },
    {
      "inputs": [
        {
          "internalType": "uint16",
          "name": "",
          "type": "uint16"
        }
      ],
      "name": "isDestinationChainSupported",
      "outputs": [
        {
          "internalType": "bool",
          "name": "",
          "type": "bool"
        }
      ],
      "stateMutability": "view",
      "type": "function"
    },
    {
      "inputs": [],
      "name": "leverageCallbackTxGasLimit",
      "outputs": [
        {
          "internalType": "uint64",
          "name": "",
          "type": "uint64"
        }
      ],
      "stateMutability": "view",
      "type": "function"
    },
    {
      "inputs": [],
      "name": "leverageSwapTxGasLimit",
      "outputs": [
        {
          "internalType": "uint64",
          "name": "",
          "type": "uint64"
        }
      ],
      "stateMutability": "view",
      "type": "function"
    },
    {
      "inputs": [],
      "name": "lzBaseGasLimit",
      "outputs": [
        {
          "internalType": "uint256",
          "name": "",
          "type": "uint256"
        }
      ],
      "stateMutability": "view",
      "type": "function"
    },
    {
      "inputs": [
        {
          "internalType": "uint16",
          "name": "srcChainId_",
          "type": "uint16"
        },
        {
          "internalType": "bytes",
          "name": "",
          "type": "bytes"
        },
        {
          "internalType": "uint64",
          "name": "",
          "type": "uint64"
        },
        {
          "internalType": "bytes",
          "name": "from_",
          "type": "bytes"
        },
        {
          "internalType": "uint256",
          "name": "amount_",
          "type": "uint256"
        },
        {
          "internalType": "bytes",
          "name": "payload_",
          "type": "bytes"
        }
      ],
      "name": "onOFTReceived",
      "outputs": [],
      "stateMutability": "nonpayable",
      "type": "function"
    },
    {
      "inputs": [],
      "name": "poolRegistry",
      "outputs": [
        {
          "internalType": "contract IPoolRegistry",
          "name": "",
          "type": "address"
        }
      ],
      "stateMutability": "view",
      "type": "function"
    },
    {
      "inputs": [
        {
          "internalType": "uint16",
          "name": "srcChainId_",
          "type": "uint16"
        },
        {
          "internalType": "bytes",
          "name": "srcAddress_",
          "type": "bytes"
        },
        {
          "internalType": "uint64",
          "name": "nonce_",
          "type": "uint64"
        },
        {
          "internalType": "address",
          "name": "token_",
          "type": "address"
        },
        {
          "internalType": "uint256",
          "name": "amount_",
          "type": "uint256"
        },
        {
          "internalType": "bytes",
          "name": "payload_",
          "type": "bytes"
        },
        {
          "internalType": "uint256",
          "name": "newAmountOutMin_",
          "type": "uint256"
        }
      ],
      "name": "retrySwapAndTriggerFlashRepayCallback",
      "outputs": [],
      "stateMutability": "payable",
      "type": "function"
    },
    {
      "inputs": [
        {
          "internalType": "uint16",
          "name": "srcChainId_",
          "type": "uint16"
        },
        {
          "internalType": "bytes",
          "name": "srcAddress_",
          "type": "bytes"
        },
        {
          "internalType": "uint64",
          "name": "nonce_",
          "type": "uint64"
        },
        {
          "internalType": "uint256",
          "name": "amount_",
          "type": "uint256"
        },
        {
          "internalType": "bytes",
          "name": "payload_",
          "type": "bytes"
        },
        {
          "internalType": "uint256",
          "name": "newAmountOutMin_",
          "type": "uint256"
        }
      ],
      "name": "retrySwapAndTriggerLeverageCallback",
      "outputs": [],
      "stateMutability": "payable",
      "type": "function"
    },
    {
      "inputs": [
        {
          "internalType": "uint16",
          "name": "srcChainId_",
          "type": "uint16"
        },
        {
          "internalType": "bytes",
          "name": "srcAddress_",
          "type": "bytes"
        },
        {
          "internalType": "uint256",
          "name": "",
          "type": "uint256"
        },
        {
          "internalType": "address",
          "name": "token_",
          "type": "address"
        },
        {
          "internalType": "uint256",
          "name": "amountLD_",
          "type": "uint256"
        },
        {
          "internalType": "bytes",
          "name": "payload_",
          "type": "bytes"
        }
      ],
      "name": "sgReceive",
      "outputs": [],
      "stateMutability": "nonpayable",
      "type": "function"
    },
    {
      "inputs": [],
      "name": "sgeth",
      "outputs": [
        {
          "internalType": "address",
          "name": "",
          "type": "address"
        }
      ],
      "stateMutability": "view",
      "type": "function"
    },
    {
      "inputs": [],
      "name": "stargateComposer",
      "outputs": [
        {
          "internalType": "contract IStargateComposer",
          "name": "",
          "type": "address"
        }
      ],
      "stateMutability": "view",
      "type": "function"
    },
    {
      "inputs": [
        {
          "internalType": "address",
          "name": "",
          "type": "address"
        }
      ],
      "name": "stargatePoolIdOf",
      "outputs": [
        {
          "internalType": "uint256",
          "name": "",
          "type": "uint256"
        }
      ],
      "stateMutability": "view",
      "type": "function"
    },
    {
      "inputs": [],
      "name": "stargateSlippage",
      "outputs": [
        {
          "internalType": "uint256",
          "name": "",
          "type": "uint256"
        }
      ],
      "stateMutability": "view",
      "type": "function"
    },
    {
      "inputs": [
        {
          "internalType": "uint256",
          "name": "",
          "type": "uint256"
        }
      ],
      "name": "swapAmountOutMin",
      "outputs": [
        {
          "internalType": "uint256",
          "name": "",
          "type": "uint256"
        }
      ],
      "stateMutability": "view",
      "type": "function"
    },
    {
      "inputs": [],
      "name": "toggleBridgingIsActive",
      "outputs": [],
      "stateMutability": "nonpayable",
      "type": "function"
    },
    {
      "inputs": [
        {
          "internalType": "uint16",
          "name": "chainId_",
          "type": "uint16"
        }
      ],
      "name": "toggleDestinationChainIsActive",
      "outputs": [],
      "stateMutability": "nonpayable",
      "type": "function"
    },
    {
      "inputs": [
        {
          "internalType": "uint256",
          "name": "requestId_",
          "type": "uint256"
        },
        {
          "internalType": "address payable",
          "name": "account_",
          "type": "address"
        },
        {
          "internalType": "address",
          "name": "tokenIn_",
          "type": "address"
        },
        {
          "internalType": "address",
          "name": "tokenOut_",
          "type": "address"
        },
        {
          "internalType": "uint256",
          "name": "amountIn_",
          "type": "uint256"
        },
        {
          "internalType": "uint256",
          "name": "amountOutMin_",
          "type": "uint256"
        },
        {
          "internalType": "bytes",
          "name": "lzArgs_",
          "type": "bytes"
        }
      ],
      "name": "triggerFlashRepaySwap",
      "outputs": [],
      "stateMutability": "payable",
      "type": "function"
    },
    {
      "inputs": [
        {
          "internalType": "uint256",
          "name": "requestId_",
          "type": "uint256"
        },
        {
          "internalType": "address payable",
          "name": "account_",
          "type": "address"
        },
        {
          "internalType": "address",
          "name": "tokenIn_",
          "type": "address"
        },
        {
          "internalType": "address",
          "name": "tokenOut_",
          "type": "address"
        },
        {
          "internalType": "uint256",
          "name": "amountIn_",
          "type": "uint256"
        },
        {
          "internalType": "uint256",
          "name": "amountOutMin_",
          "type": "uint256"
        },
        {
          "internalType": "bytes",
          "name": "lzArgs_",
          "type": "bytes"
        }
      ],
      "name": "triggerLeverageSwap",
      "outputs": [],
      "stateMutability": "payable",
      "type": "function"
    },
    {
      "inputs": [
        {
          "internalType": "uint16",
          "name": "chainId_",
          "type": "uint16"
        },
        {
          "internalType": "address",
          "name": "crossChainDispatcher_",
          "type": "address"
        }
      ],
      "name": "updateCrossChainDispatcherOf",
      "outputs": [],
      "stateMutability": "nonpayable",
      "type": "function"
    },
    {
      "inputs": [
        {
          "internalType": "uint64",
          "name": "newFlashRepayCallbackTxGasLimit_",
          "type": "uint64"
        }
      ],
      "name": "updateFlashRepayCallbackTxGasLimit",
      "outputs": [],
      "stateMutability": "nonpayable",
      "type": "function"
    },
    {
      "inputs": [
        {
          "internalType": "uint64",
          "name": "newFlashRepaySwapTxGasLimit_",
          "type": "uint64"
        }
      ],
      "name": "updateFlashRepaySwapTxGasLimit",
      "outputs": [],
      "stateMutability": "nonpayable",
      "type": "function"
    },
    {
      "inputs": [
        {
          "internalType": "uint64",
          "name": "newLeverageCallbackTxGasLimit_",
          "type": "uint64"
        }
      ],
      "name": "updateLeverageCallbackTxGasLimit",
      "outputs": [],
      "stateMutability": "nonpayable",
      "type": "function"
    },
    {
      "inputs": [
        {
          "internalType": "uint64",
          "name": "newLeverageSwapTxGasLimit_",
          "type": "uint64"
        }
      ],
      "name": "updateLeverageSwapTxGasLimit",
      "outputs": [],
      "stateMutability": "nonpayable",
      "type": "function"
    },
    {
      "inputs": [
        {
          "internalType": "uint256",
          "name": "newLzBaseGasLimit_",
          "type": "uint256"
        }
      ],
      "name": "updateLzBaseGasLimit",
      "outputs": [],
      "stateMutability": "nonpayable",
      "type": "function"
    },
    {
      "inputs": [
        {
          "internalType": "contract IStargateComposer",
          "name": "newStargateComposer_",
          "type": "address"
        }
      ],
      "name": "updateStargateComposer",
      "outputs": [],
      "stateMutability": "nonpayable",
      "type": "function"
    },
    {
      "inputs": [
        {
          "internalType": "address",
          "name": "token_",
          "type": "address"
        },
        {
          "internalType": "uint256",
          "name": "newPoolId_",
          "type": "uint256"
        }
      ],
      "name": "updateStargatePoolIdOf",
      "outputs": [],
      "stateMutability": "nonpayable",
      "type": "function"
    },
    {
      "inputs": [
        {
          "internalType": "uint256",
          "name": "newStargateSlippage_",
          "type": "uint256"
        }
      ],
      "name": "updateStargateSlippage",
      "outputs": [],
      "stateMutability": "nonpayable",
      "type": "function"
    },
    {
      "inputs": [],
      "name": "weth",
      "outputs": [
        {
          "internalType": "address",
          "name": "",
          "type": "address"
        }
      ],
      "stateMutability": "view",
      "type": "function"
    },
    {
      "stateMutability": "payable",
      "type": "receive"
    }
  ],
  "transactionHash": "0x744d4ed65e084702f5a6718977d88bd2e906ea2b006b73d01b32d2e4b0d9da23",
  "args": [],
  "numDeployments": 5,
  "solcInputHash": "210845288ae75ad5da12a755a9f52e1f",
  "bytecode": "0x60806040523480156200001157600080fd5b506200001c62000022565b62000152565b6200002e60ff62000031565b50565b60008054610100900460ff1615620000ca578160ff1660011480156200006a575062000068306200014360201b620026e41760201c565b155b620000c25760405162461bcd60e51b815260206004820152602e602482015260008051602062004bd683398151915260448201526d191e481a5b9a5d1a585b1a5e995960921b60648201526084015b60405180910390fd5b506000919050565b60005460ff808416911610620001295760405162461bcd60e51b815260206004820152602e602482015260008051602062004bd683398151915260448201526d191e481a5b9a5d1a585b1a5e995960921b6064820152608401620000b9565b506000805460ff191660ff92909216919091179055600190565b6001600160a01b03163b151590565b614a7480620001626000396000f3fe6080604052600436106102075760003560e01c80638a9cadaf11610118578063b71b42ec116100a0578063dfda255f1161006f578063dfda255f14610602578063e3499aa414610638578063e3d47ece14610668578063e7f4c16b1461068f578063ffa1ad74146106b657600080fd5b8063b71b42ec14610582578063b9d81720146105a2578063c0c53b8b146105b5578063d89921cb146105d557600080fd5b8063ab4193e2116100e7578063ab4193e2146104d5578063ab8236f314610502578063ac18fce614610522578063afcff50f14610542578063b2d083c11461056257600080fd5b80638a9cadaf146104555780638ece685714610468578063a6bd364614610488578063a761f5f0146104b557600080fd5b80633413f1c11161019b5780636a46aa381161016a5780636a46aa38146103ca5780636c77d24f146103ea5780636e406753146104005780637b7305d314610420578063833667df1461044057600080fd5b80633413f1c11461035357806339f648bf146103775780633fc8cef31461038a57806362491b35146103aa57600080fd5b80631e492d56116101d75780631e492d56146102ac5780632b80cc52146102cc5780632e369cf2146102f65780633352b6081461031657600080fd5b8062bc9db9146102135780630b211f0f14610228578063147a7d711461026c5780631a607f9a1461028c57600080fd5b3661020e57005b600080fd5b610226610221366004613de0565b6106f4565b005b34801561023457600080fd5b5060075461024f90600160801b90046001600160401b031681565b6040516001600160401b0390911681526020015b60405180910390f35b34801561027857600080fd5b50610226610287366004613e9c565b610c10565b34801561029857600080fd5b506102266102a7366004613f68565b610d6e565b3480156102b857600080fd5b506102266102c7366004613f81565b610e88565b3480156102d857600080fd5b506008546102e69060ff1681565b6040519015158152602001610263565b34801561030257600080fd5b50610226610311366004613f9e565b610fe3565b34801561032257600080fd5b5060085461033b9061010090046001600160a01b031681565b6040516001600160a01b039091168152602001610263565b34801561035f57600080fd5b5061036960065481565b604051908152602001610263565b610226610385366004613de0565b61113c565b34801561039657600080fd5b50600b5461033b906001600160a01b031681565b3480156103b657600080fd5b5060075461024f906001600160401b031681565b3480156103d657600080fd5b506102266103e5366004613f68565b61167e565b3480156103f657600080fd5b5061036960055481565b34801561040c57600080fd5b5061022661041b366004613f81565b611798565b34801561042c57600080fd5b5061022661043b366004613fbb565b6118f8565b34801561044c57600080fd5b50610226611a4a565b610226610463366004613fe7565b611b51565b34801561047457600080fd5b506102266104833660046140a3565b611d4e565b34801561049457600080fd5b506103696104a3366004613f68565b600d6020526000908152604090205481565b3480156104c157600080fd5b50600c5461033b906001600160a01b031681565b3480156104e157600080fd5b506103696104f0366004613f68565b60036020526000908152604090205481565b34801561050e57600080fd5b5061022661051d36600461419f565b611ec9565b34801561052e57600080fd5b5061022661053d366004613f81565b612033565b34801561054e57600080fd5b5060025461033b906001600160a01b031681565b34801561056e57600080fd5b5061022661057d36600461423b565b612182565b34801561058e57600080fd5b5061022661059d366004613f81565b6122ae565b6102266105b0366004614258565b612413565b3480156105c157600080fd5b506102266105d03660046142ff565b6125dd565b3480156105e157600080fd5b506103696105f0366004613f9e565b60096020526000908152604090205481565b34801561060e57600080fd5b5061033b61061d36600461423b565b6004602052600090815260409020546001600160a01b031681565b34801561064457600080fd5b506102e661065336600461423b565b600a6020526000908152604090205460ff1681565b34801561067457600080fd5b5060075461024f90600160c01b90046001600160401b031681565b34801561069b57600080fd5b5060075461024f90600160401b90046001600160401b031681565b3480156106c257600080fd5b506106e7604051806040016040528060058152602001640312e332e360dc1b81525081565b60405161026391906143a2565b600260015414156107205760405162461bcd60e51b8152600401610717906143b5565b60405180910390fd5b60026001819055506000336001600160a01b03166316f0115b6040518163ffffffff1660e01b815260040160206040518083038186803b15801561076357600080fd5b505afa158015610777573d6000803e3d6000fd5b505050506040513d601f19601f8201168201806040525081019061079b91906143ec565b60025460405163c673bdaf60e01b81526001600160a01b03808416600483015292935091169063c673bdaf9060240160206040518083038186803b1580156107e257600080fd5b505afa1580156107f6573d6000803e3d6000fd5b505050506040513d601f19601f8201168201806040525081019061081a9190614409565b61083757604051633bfe162b60e01b815260040160405180910390fd5b806001600160a01b03166396aaccfe6040518163ffffffff1660e01b815260040160206040518083038186803b15801561087057600080fd5b505afa158015610884573d6000803e3d6000fd5b505050506040513d601f19601f820116820180604052508101906108a891906143ec565b6001600160a01b0316336001600160a01b0316146108d957604051633bfe162b60e01b815260040160405180910390fd5b60085460ff1615806109c95750336001600160a01b03166316f0115b6040518163ffffffff1660e01b815260040160206040518083038186803b15801561091f57600080fd5b505afa158015610933573d6000803e3d6000fd5b505050506040513d601f19601f8201168201806040525081019061095791906143ec565b6001600160a01b0316632b80cc526040518163ffffffff1660e01b815260040160206040518083038186803b15801561098f57600080fd5b505afa1580156109a3573d6000803e3d6000fd5b505050506040513d601f19601f820116820180604052508101906109c79190614409565b155b156109e757604051635621fccf60e01b815260040160405180910390fd5b60008890506000806000610a3087878080601f0160208091040260200160405190810160405280939291908181526020018383808284376000920191909152506126f392505050565b925092509250606060008b6001600160a01b0316636d1bb8f76040518163ffffffff1660e01b815260040160206040518083038186803b158015610a7357600080fd5b505afa158015610a87573d6000803e3d6000fd5b505050506040513d601f19601f82011682018060405250810190610aab91906143ec565b6040516001627dd58f60e11b0319815261ffff871660048201526001600160a01b03919091169063ff0454e29060240160206040518083038186803b158015610af357600080fd5b505afa158015610b07573d6000803e3d6000fd5b505050506040513d601f19601f82011682018060405250810190610b2b91906143ec565b90506001600160a01b038116610b545760405163fb7566d760e01b815260040160405180910390fd5b61ffff85166000908152600a602052604090205460ff16610b885760405163334dc1fd60e01b815260040160405180910390fd5b8e610b973383838a8f8a612719565b92505050610bfc6040518061010001604052808e6001600160a01b031681526020018661ffff1681526020018c8152602001348152602001838152602001876001600160a01b03168152602001846001600160401b0316815260200185815250612791565b505060018055505050505050505050505050565b610c1933612a61565b610c3657604051633bfe162b60e01b815260040160405180910390fd5b6000610c7c600087878080601f0160208091040260200160405190810160405280939291908181526020018383808284376000920191909152509293925050612bfc9050565b90506001600160a01b0381161580610cb3575061ffff8a166000908152600460205260409020546001600160a01b03828116911614155b15610cd157604051637ab628f960e01b815260040160405180910390fd5b6000610d1284848080601f016020809104026020016040519081016040528093929190818152602001838380828437600092019190915250612c6192505050565b905060ff811660021415610d3057610d2b858585612c7e565b610d61565b60ff811660011415610d4857610d2b8b868686612de7565b604051630ead561960e11b815260040160405180910390fd5b5050505050505050505050565b600260009054906101000a90046001600160a01b03166001600160a01b0316630c340a246040518163ffffffff1660e01b815260040160206040518083038186803b158015610dbc57600080fd5b505afa158015610dd0573d6000803e3d6000fd5b505050506040513d601f19601f82011682018060405250810190610df491906143ec565b6001600160a01b0316336001600160a01b031614610e2557604051634b98449160e11b815260040160405180910390fd5b60065481811415610e4957604051630333a68160e41b815260040160405180910390fd5b60408051828152602081018490527f5cac1093ddd8c1e9cbcd89b2f36fa1889e966cc257753af2d160888564fd9818910160405180910390a150600655565b600260009054906101000a90046001600160a01b03166001600160a01b0316630c340a246040518163ffffffff1660e01b815260040160206040518083038186803b158015610ed657600080fd5b505afa158015610eea573d6000803e3d6000fd5b505050506040513d601f19601f82011682018060405250810190610f0e91906143ec565b6001600160a01b0316336001600160a01b031614610f3f57604051634b98449160e11b815260040160405180910390fd5b6007546001600160401b03600160c01b9091048116908216811415610f7757604051630333a68160e41b815260040160405180910390fd5b604080516001600160401b038084168252841660208201527f7dd9d7c71da5859a7d6e34c00f4889cb529dbbc009a358db124855baa125a4dc910160405180910390a150600780546001600160401b03909216600160c01b026001600160c01b03909216919091179055565b600260009054906101000a90046001600160a01b03166001600160a01b0316630c340a246040518163ffffffff1660e01b815260040160206040518083038186803b15801561103157600080fd5b505afa158015611045573d6000803e3d6000fd5b505050506040513d601f19601f8201168201806040525081019061106991906143ec565b6001600160a01b0316336001600160a01b03161461109a57604051634b98449160e11b815260040160405180910390fd5b6008546001600160a01b0361010090910481169082168114156110d057604051630333a68160e41b815260040160405180910390fd5b604080516001600160a01b038084168252841660208201527f398baf83f237e7e1e1ce6637c69193c52e8b6382036ceb3c6eba08401e327667910160405180910390a150600880546001600160a01b0390921661010002610100600160a81b0319909216919091179055565b6002600154141561115f5760405162461bcd60e51b8152600401610717906143b5565b60026001819055506000336001600160a01b03166316f0115b6040518163ffffffff1660e01b815260040160206040518083038186803b1580156111a257600080fd5b505afa1580156111b6573d6000803e3d6000fd5b505050506040513d601f19601f820116820180604052508101906111da91906143ec565b60025460405163c673bdaf60e01b81526001600160a01b03808416600483015292935091169063c673bdaf9060240160206040518083038186803b15801561122157600080fd5b505afa158015611235573d6000803e3d6000fd5b505050506040513d601f19601f820116820180604052508101906112599190614409565b61127657604051633bfe162b60e01b815260040160405180910390fd5b806001600160a01b03166396aaccfe6040518163ffffffff1660e01b815260040160206040518083038186803b1580156112af57600080fd5b505afa1580156112c3573d6000803e3d6000fd5b505050506040513d601f19601f820116820180604052508101906112e791906143ec565b6001600160a01b0316336001600160a01b03161461131857604051633bfe162b60e01b815260040160405180910390fd5b60085460ff1615806114085750336001600160a01b03166316f0115b6040518163ffffffff1660e01b815260040160206040518083038186803b15801561135e57600080fd5b505afa158015611372573d6000803e3d6000fd5b505050506040513d601f19601f8201168201806040525081019061139691906143ec565b6001600160a01b0316632b80cc526040518163ffffffff1660e01b815260040160206040518083038186803b1580156113ce57600080fd5b505afa1580156113e2573d6000803e3d6000fd5b505050506040513d601f19601f820116820180604052508101906114069190614409565b155b1561142657604051635621fccf60e01b815260040160405180910390fd5b6000889050600080600061146f87878080601f0160208091040260200160405190810160405280939291908181526020018383808284376000920191909152506126f392505050565b925092509250606060008b905060008f905060008b905060008f6001600160a01b0316636d1bb8f76040518163ffffffff1660e01b815260040160206040518083038186803b1580156114c157600080fd5b505afa1580156114d5573d6000803e3d6000fd5b505050506040513d601f19601f820116820180604052508101906114f991906143ec565b6040516001627dd58f60e11b0319815261ffff8a1660048201526001600160a01b03919091169063ff0454e29060240160206040518083038186803b15801561154157600080fd5b505afa158015611555573d6000803e3d6000fd5b505050506040513d601f19601f8201168201806040525081019061157991906143ec565b6001600160a01b0380861660009081526009602052604090205491925082166115b55760405163fb7566d760e01b815260040160405180910390fd5b61ffff89166000908152600a602052604090205460ff166115e95760405163334dc1fd60e01b815260040160405180910390fd5b806116075760405163029c545360e41b815260040160405180910390fd5b611616338386848e888e613100565b95505050505050610bfc6040518061010001604052808e6001600160a01b031681526020018661ffff1681526020018c8152602001348152602001838152602001876001600160a01b03168152602001846001600160401b0316815260200185815250613181565b600260009054906101000a90046001600160a01b03166001600160a01b0316630c340a246040518163ffffffff1660e01b815260040160206040518083038186803b1580156116cc57600080fd5b505afa1580156116e0573d6000803e3d6000fd5b505050506040513d601f19601f8201168201806040525081019061170491906143ec565b6001600160a01b0316336001600160a01b03161461173557604051634b98449160e11b815260040160405180910390fd5b6005548181141561175957604051630333a68160e41b815260040160405180910390fd5b60408051828152602081018490527f83c9ee8eed7101992146d1c75610cc54c1db740210cde12e135fa657a7850854910160405180910390a150600555565b600260009054906101000a90046001600160a01b03166001600160a01b0316630c340a246040518163ffffffff1660e01b815260040160206040518083038186803b1580156117e657600080fd5b505afa1580156117fa573d6000803e3d6000fd5b505050506040513d601f19601f8201168201806040525081019061181e91906143ec565b6001600160a01b0316336001600160a01b03161461184f57604051634b98449160e11b815260040160405180910390fd5b6007546001600160401b03600160801b909104811690821681141561188757604051630333a68160e41b815260040160405180910390fd5b604080516001600160401b038084168252841660208201527fce0317145f704f138aad728eeb9d95c91260950871930acca6e659f1b0883364910160405180910390a150600780546001600160401b03909216600160801b0267ffffffffffffffff60801b19909216919091179055565b600260009054906101000a90046001600160a01b03166001600160a01b0316630c340a246040518163ffffffff1660e01b815260040160206040518083038186803b15801561194657600080fd5b505afa15801561195a573d6000803e3d6000fd5b505050506040513d601f19601f8201168201806040525081019061197e91906143ec565b6001600160a01b0316336001600160a01b0316146119af57604051634b98449160e11b815260040160405180910390fd5b6001600160a01b038216600090815260096020526040902054818114156119e957604051630333a68160e41b815260040160405180910390fd5b60408051828152602081018490526001600160a01b038516917ffa622ae921e227a42afec644139331c019f4157c54e93c82dd5f811ba210ac15910160405180910390a2506001600160a01b03909116600090815260096020526040902055565b600260009054906101000a90046001600160a01b03166001600160a01b0316630c340a246040518163ffffffff1660e01b815260040160206040518083038186803b158015611a9857600080fd5b505afa158015611aac573d6000803e3d6000fd5b505050506040513d601f19601f82011682018060405250810190611ad091906143ec565b6001600160a01b0316336001600160a01b031614611b0157604051634b98449160e11b815260040160405180910390fd5b60085460405160ff90911615808252907f0269774d3426d7e61b04b7d5129948b9f4edf9b937bb0c657fbb32a94a7996ec9060200160405180910390a16008805460ff1916911515919091179055565b60026001541415611b745760405162461bcd60e51b8152600401610717906143b5565b600260015560085461ffff8a1660009081526004602090815260408083205490516001600160a01b0361010090950485169463ab8236f360e01b938f93611bbe939216910161442b565b60408051601f1981840301815290829052611be692918c908c908c908c908c90602401614471565b604051602081830303815290604052906001600160e01b0319166020820180516001600160e01b0383818316178352505050509050600080611c5d87878080601f01602080910402602001604051908101604052809392919081815260200183838082843760009201919091525061336192505050565b50509350935050506000341115611c92576000828152600d602052604081208054349290611c8c9084906144ea565b90915550505b336001600160a01b0382161415611cd35784611cc157604051634c3ce71f60e11b815260040160405180910390fd5b60008281526003602052604090208590555b836001600160a01b031663c0e6ac6c8e8e8e8e30896040518763ffffffff1660e01b8152600401611d0996959493929190614502565b600060405180830381600087803b158015611d2357600080fd5b505af1158015611d37573d6000803e3d6000fd5b505060018055505050505050505050505050505050565b600260009054906101000a90046001600160a01b03166001600160a01b0316630c340a246040518163ffffffff1660e01b815260040160206040518083038186803b158015611d9c57600080fd5b505afa158015611db0573d6000803e3d6000fd5b505050506040513d601f19601f82011682018060405250810190611dd491906143ec565b6001600160a01b0316336001600160a01b031614611e0557604051634b98449160e11b815260040160405180910390fd5b61ffff82166000908152600460205260409020546001600160a01b03908116908216811415611e4757604051630333a68160e41b815260040160405180910390fd5b6040805161ffff851681526001600160a01b03838116602083015284168183015290517fa0670378b7d4511893529175129417ed82867197a3ea18eb2743483bd4f00c2a9181900360600190a15061ffff91909116600090815260046020526040902080546001600160a01b0319166001600160a01b03909216919091179055565b60085461010090046001600160a01b03163314611ef957604051633bfe162b60e01b815260040160405180910390fd5b600c546001600160a01b0384811691161415611f8757600b60009054906101000a90046001600160a01b03166001600160a01b031663d0e30db0836040518263ffffffff1660e01b81526004016000604051808303818588803b158015611f5f57600080fd5b505af1158015611f73573d6000803e3d6000fd5b5050600b546001600160a01b031695505050505b6000611f938682612bfc565b90506001600160a01b0381161580611fca575061ffff87166000908152600460205260409020546001600160a01b03828116911614155b15611fe857604051637ab628f960e01b815260040160405180910390fd5b6000611ff383612c61565b905060ff8116600114156120115761200c8585856133ab565b612029565b60ff811660021415610d485761200c8886868661346e565b5050505050505050565b600260009054906101000a90046001600160a01b03166001600160a01b0316630c340a246040518163ffffffff1660e01b815260040160206040518083038186803b15801561208157600080fd5b505afa158015612095573d6000803e3d6000fd5b505050506040513d601f19601f820116820180604052508101906120b991906143ec565b6001600160a01b0316336001600160a01b0316146120ea57604051634b98449160e11b815260040160405180910390fd5b6007546001600160401b0390811690821681141561211b57604051630333a68160e41b815260040160405180910390fd5b604080516001600160401b038084168252841660208201527f1701885e1db4da3ff923033aa465855dde857275866d4f132af5384aa880554f910160405180910390a1506007805467ffffffffffffffff19166001600160401b0392909216919091179055565b600260009054906101000a90046001600160a01b03166001600160a01b0316630c340a246040518163ffffffff1660e01b815260040160206040518083038186803b1580156121d057600080fd5b505afa1580156121e4573d6000803e3d6000fd5b505050506040513d601f19601f8201168201806040525081019061220891906143ec565b6001600160a01b0316336001600160a01b03161461223957604051634b98449160e11b815260040160405180910390fd5b61ffff81166000908152600a602090815260409182902054915160ff90921615808352917f0269774d3426d7e61b04b7d5129948b9f4edf9b937bb0c657fbb32a94a7996ec910160405180910390a161ffff919091166000908152600a60205260409020805460ff1916911515919091179055565b600260009054906101000a90046001600160a01b03166001600160a01b0316630c340a246040518163ffffffff1660e01b815260040160206040518083038186803b1580156122fc57600080fd5b505afa158015612310573d6000803e3d6000fd5b505050506040513d601f19601f8201168201806040525081019061233491906143ec565b6001600160a01b0316336001600160a01b03161461236557604051634b98449160e11b815260040160405180910390fd5b6007546001600160401b03600160401b909104811690821681141561239d57604051630333a68160e41b815260040160405180910390fd5b604080516001600160401b038084168252841660208201527f8dbd2ecaaca80db9e2e655edc0f1b4df2c87f441eaedf46e0b7b00358d97ad30910160405180910390a150600780546001600160401b03909216600160401b026fffffffffffffffff000000000000000019909216919091179055565b600260015414156124365760405162461bcd60e51b8152600401610717906143b5565b6002600181905550600080600061248286868080601f01602080910402602001604051908101604052809392919081815260200183838082843760009201919091525061362292505050565b5050945050935093505061249583612a61565b6124b257604051637c6953f960e01b815260040160405180910390fd5b34156124dc576000828152600d6020526040812080543492906124d69084906144ea565b90915550505b336001600160a01b038216141561251d578361250b57604051634c3ce71f60e11b815260040160405180910390fd5b60008281526003602052604090208490555b61ffff8b16600090815260046020908152604080832054905161254c926001600160a01b03909216910161442b565b6040516020818303038152906040529050836001600160a01b031663cfd6528e8d8d8d8d86308f8f8f6040518a63ffffffff1660e01b81526004016125999998979695949392919061455d565b600060405180830381600087803b1580156125b357600080fd5b505af11580156125c7573d6000803e3d6000fd5b5050600180555050505050505050505050505050565b60006125e96001613671565b90508015612601576000805461ff0019166101001790555b6001600160a01b0384166126285760405163fb7566d760e01b815260040160405180910390fd5b6126306136f9565b600280546001600160a01b038087166001600160a01b031992831617909255603260065562030d406005557a0b71b000000000000b71b0000000000007a12000000000000b71b0600755600b8054868416908316179055600c80549285169290911691909117905580156126de576000805461ff0019169055604051600181527f7f26b83ff96e1f2b6a682f133852f6798a09c465da95921460cefb38474024989060200160405180910390a15b50505050565b6001600160a01b03163b151590565b60008060008380602001905181019061270c91906145d7565b9250925092509193909250565b604080516001600160a01b038881166020830152878116828401526060808301889052908616608083015260a0820185905260c08083018590528351808403909101815260e083019093529161277691600291906101000161460f565b60405160208183030381529060405290509695505050505050565b6127b560405180606001604052806000815260200160008152602001606081525090565b60208083015161ffff16600090815260048252604080822054905191926127e8926001600160a01b03909216910161442b565b60408051601f19818403018152919052905060006128068282612bfc565b6001600160a01b0316141561282e5760405163fb7566d760e01b815260040160405180910390fd5b60405180606001604052808460c001516001600160401b031681526020018460e00151815260200160008560e001511161288257604080516000602082015201604051602081830303815290604052612884565b825b905283516001600160a01b0316600090815260096020526040902054909250806128c15760405163029c545360e41b815260040160405180910390fd5b60006127106006546127106128d6919061462b565b86604001516128e59190614642565b6128ef9190614661565b6080860151600854600b54885193945091926001600160a01b03610100909204821692908216911614156129a457600b546040808901519051632e1a7d4d60e01b81526001600160a01b0390921691632e1a7d4d916129549160040190815260200190565b600060405180830381600087803b15801561296e57600080fd5b505af1158015612982573d6000803e3d6000fd5b5050505086604001518760600181815161299c91906144ea565b9052506129d9565b86516129bb906001600160a01b031682600061372a565b604087015187516129d9916001600160a01b0390911690839061372a565b806001600160a01b0316639fbf10fc8860600151896020015187888c60a001518d604001518a8e8e8c6040518b63ffffffff1660e01b8152600401612a2699989796959493929190614683565b6000604051808303818588803b158015612a3f57600080fd5b505af1158015612a53573d6000803e3d6000fd5b505050505050505050505050565b600080826001600160a01b031663fc0c546a6040518163ffffffff1660e01b815260040160206040518083038186803b158015612a9d57600080fd5b505afa158015612ab1573d6000803e3d6000fd5b505050506040513d601f19601f82011682018060405250810190612ad591906143ec565b600254604051631a0dd00b60e01b81526001600160a01b038084166004830152929350911690631a0dd00b9060240160206040518083038186803b158015612b1c57600080fd5b505afa158015612b30573d6000803e3d6000fd5b505050506040513d601f19601f82011682018060405250810190612b549190614409565b612b615750600092915050565b806001600160a01b0316636d1bb8f76040518163ffffffff1660e01b815260040160206040518083038186803b158015612b9a57600080fd5b505afa158015612bae573d6000803e3d6000fd5b505050506040513d601f19601f82011682018060405250810190612bd291906143ec565b6001600160a01b0316836001600160a01b031614612bf35750600092915050565b50600192915050565b6000612c098260146144ea565b83511015612c515760405162461bcd60e51b8152602060048201526015602482015274746f416464726573735f6f75744f66426f756e647360581b6044820152606401610717565b500160200151600160601b900490565b600081806020019051810190612c779190614711565b5092915050565b6000806000612cc285858080601f01602080910402602001604051908101604052809392919081815260200183838082843760009201919091525061387592505050565b9250925092506000836001600160a01b031663fc0c546a6040518163ffffffff1660e01b815260040160206040518083038186803b158015612d0357600080fd5b505afa158015612d17573d6000803e3d6000fd5b505050506040513d601f19601f82011682018060405250810190612d3b91906143ec565b9050612d526001600160a01b03821684600061372a565b612d666001600160a01b038216848961372a565b604051636455bf6f60e01b815260048101839052602481018890526001600160a01b03841690636455bf6f90604401602060405180830381600087803b158015612daf57600080fd5b505af1158015612dc3573d6000803e3d6000fd5b505050506040513d601f19601f8201168201806040525081019061202991906147a3565b6000806000806000806000612e3189898080601f01602080910402602001604051908101604052809392919081815260200183838082843760009201919091525061362292505050565b96509650965096509650965096506000600860019054906101000a90046001600160a01b03166001600160a01b031663c45a01556040518163ffffffff1660e01b815260040160206040518083038186803b158015612e8f57600080fd5b505afa158015612ea3573d6000803e3d6000fd5b505050506040513d601f19601f82011682018060405250810190612ec791906143ec565b6001600160a01b031663068bcd8d866040518263ffffffff1660e01b8152600401612ef491815260200190565b60206040518083038186803b158015612f0c57600080fd5b505afa158015612f20573d6000803e3d6000fd5b505050506040513d601f19601f82011682018060405250810190612f4491906143ec565b6001600160a01b031663fc0c546a6040518163ffffffff1660e01b815260040160206040518083038186803b158015612f7c57600080fd5b505afa158015612f90573d6000803e3d6000fd5b505050506040513d601f19601f82011682018060405250810190612fb491906143ec565b600c549091506001600160a01b0380831691161415612fdb5750600b546001600160a01b03165b61305886886001600160a01b031663fc0c546a6040518163ffffffff1660e01b815260040160206040518083038186803b15801561301857600080fd5b505afa15801561302c573d6000803e3d6000fd5b505050506040513d601f19601f8201168201806040525081019061305091906143ec565b838e876138a7565b9a5060008c90506130f1604051806101000160405280846001600160a01b031681526020018361ffff1681526020018e8152602001600d60008b815260200190815260200160002054866130ac91906144ea565b81526020016130bb8c8b613a1a565b81526001600160a01b0388166020820152600754600160801b90046001600160401b031660408201526000606090910152612791565b50505050505050505050505050565b604080516001600160a01b0389811660208301528881168284015260608083018990526080830188905290861660a083015260c0820185905260e08083018590528351808403909101815261010083019093529161316591600191906101200161460f565b6040516020818303038152906040529050979650505050505050565b60208082015161ffff166000908152600490915260409020546001600160a01b0316806131c15760405163fb7566d760e01b815260040160405180910390fd5b600060028360c001516001600160401b03166005546131e091906144ea565b60e0850151806131f15760006131f3565b845b60405160200161323d949392919060f09490941b6001600160f01b03191684526002840192909252602283015260601b6bffffffffffffffffffffffff1916604282015260560190565b604051602081830303815290604052905082600001516001600160a01b0316636d1bb8f76040518163ffffffff1660e01b815260040160206040518083038186803b15801561328b57600080fd5b505afa15801561329f573d6000803e3d6000fd5b505050506040513d601f19601f820116820180604052508101906132c391906143ec565b6001600160a01b031663e7f0c59f8460600151308660200151866040516020016132ed919061442b565b60408051601f19818403018152828252908a015160808b015160c08c015160a08d01516001600160e01b031960e08b901b1686526133349796956000908d906004016147bc565b6000604051808303818588803b15801561334d57600080fd5b505af1158015612029573d6000803e3d6000fd5b6000806000806000808680602001905181019061337e9190614711565b805190985061339791508801602090810190890161483a565b949c939b5091995097509550909350915050565b6000806133b783613a6b565b90925090506133d16001600160a01b03861683600061372a565b6133e56001600160a01b038616838661372a565b6040516320159ddd60e21b815260048101829052602481018590526001600160a01b03831690638056777490604401602060405180830381600087803b15801561342e57600080fd5b505af1158015613442573d6000803e3d6000fd5b505050506040513d601f19601f8201168201806040525081019061346691906147a3565b505050505050565b60008060008060008061348087613361565b9550955095509550955095506000856001600160a01b031663fc0c546a6040518163ffffffff1660e01b815260040160206040518083038186803b1580156134c757600080fd5b505afa1580156134db573d6000803e3d6000fd5b505050506040513d601f19601f820116820180604052508101906134ff91906143ec565b905061350e858b838c876138a7565b6040516001627dd58f60e11b0319815261ffff8d1660048201529099508b906000906001600160a01b0389169063ff0454e29060240160206040518083038186803b15801561355c57600080fd5b505afa158015613570573d6000803e3d6000fd5b505050506040513d601f19601f8201168201806040525081019061359491906143ec565b90506130f1604051806101000160405280856001600160a01b031681526020018461ffff1681526020018d8152602001600d60008b815260200190815260200160002054876135e391906144ea565b81526020016135f3848d8c613aa4565b81526001600160a01b03891660208201526007546001600160401b031660408201526000606090910152613181565b6000806000806000806000878060200190518101906136419190614711565b805190995061365a915089016020908101908a016148a3565b959e949d50929b5090995097509550909350915050565b60008054610100900460ff16156136b8578160ff1660011480156136945750303b155b6136b05760405162461bcd60e51b815260040161071790614918565b506000919050565b60005460ff8084169116106136df5760405162461bcd60e51b815260040161071790614918565b506000805460ff191660ff92909216919091179055600190565b600054610100900460ff166137205760405162461bcd60e51b815260040161071790614966565b613728613b00565b565b8015806137b35750604051636eb1769f60e11b81523060048201526001600160a01b03838116602483015284169063dd62ed3e9060440160206040518083038186803b15801561377957600080fd5b505afa15801561378d573d6000803e3d6000fd5b505050506040513d601f19601f820116820180604052508101906137b191906147a3565b155b61381e5760405162461bcd60e51b815260206004820152603660248201527f5361666545524332303a20617070726f76652066726f6d206e6f6e2d7a65726f60448201527520746f206e6f6e2d7a65726f20616c6c6f77616e636560501b6064820152608401610717565b604080516001600160a01b038416602482015260448082018490528251808303909101815260649091019091526020810180516001600160e01b031663095ea7b360e01b179052613870908490613b2d565b505050565b60008060008380602001905181019061388e9190614711565b805190955061270c9150850160209081019086016149b1565b60008581526003602052604081205480156138cf576000878152600360205260408120559150815b60025460408051632b3297f960e01b815290516000926001600160a01b031691632b3297f9916004808301926020929190829003018186803b15801561391457600080fd5b505afa158015613928573d6000803e3d6000fd5b505050506040513d601f19601f8201168201806040525081019061394c91906143ec565b90506139636001600160a01b03881682600061372a565b6139776001600160a01b038816828761372a565b604051636ccb2b0160e01b81526001600160a01b03888116600483015287811660248301526044820187905260648201869052306084830152821690636ccb2b019060a401602060405180830381600087803b1580156139d657600080fd5b505af11580156139ea573d6000803e3d6000fd5b505050506040513d601f19601f82011682018060405250810190613a0e91906147a3565b98975050505050505050565b604080516001600160a01b03841660208201528082018390528151808203830181526060808301909352613a54916001919060800161460f565b604051602081830303815290604052905092915050565b60008082806020019051810190613a829190614711565b8051909450613a9b9150840160209081019085016149f4565b91509150915091565b604080516001600160a01b03858116602083015284168183015260608082018490528251808303820181526080830190935291613ae7916002919060a00161460f565b60405160208183030381529060405290505b9392505050565b600054610100900460ff16613b275760405162461bcd60e51b815260040161071790614966565b60018055565b6000613b82826040518060400160405280602081526020017f5361666545524332303a206c6f772d6c6576656c2063616c6c206661696c6564815250856001600160a01b0316613bff9092919063ffffffff16565b8051909150156138705780806020019051810190613ba09190614409565b6138705760405162461bcd60e51b815260206004820152602a60248201527f5361666545524332303a204552433230206f7065726174696f6e20646964206e6044820152691bdd081cdd58d8d9595960b21b6064820152608401610717565b6060613c0e8484600085613c16565b949350505050565b606082471015613c775760405162461bcd60e51b815260206004820152602660248201527f416464726573733a20696e73756666696369656e742062616c616e636520666f6044820152651c8818d85b1b60d21b6064820152608401610717565b6001600160a01b0385163b613cce5760405162461bcd60e51b815260206004820152601d60248201527f416464726573733a2063616c6c20746f206e6f6e2d636f6e74726163740000006044820152606401610717565b600080866001600160a01b03168587604051613cea9190614a22565b60006040518083038185875af1925050503d8060008114613d27576040519150601f19603f3d011682016040523d82523d6000602084013e613d2c565b606091505b5091509150613d3c828286613d47565b979650505050505050565b60608315613d56575081613af9565b825115613d665782518084602001fd5b8160405162461bcd60e51b815260040161071791906143a2565b6001600160a01b0381168114613d9557600080fd5b50565b60008083601f840112613daa57600080fd5b5081356001600160401b03811115613dc157600080fd5b602083019150836020828501011115613dd957600080fd5b9250929050565b60008060008060008060008060e0898b031215613dfc57600080fd5b883597506020890135613e0e81613d80565b96506040890135613e1e81613d80565b95506060890135613e2e81613d80565b94506080890135935060a0890135925060c08901356001600160401b03811115613e5757600080fd5b613e638b828c01613d98565b999c989b5096995094979396929594505050565b61ffff81168114613d9557600080fd5b6001600160401b0381168114613d9557600080fd5b600080600080600080600080600060c08a8c031215613eba57600080fd5b8935613ec581613e77565b985060208a01356001600160401b0380821115613ee157600080fd5b613eed8d838e01613d98565b909a50985060408c01359150613f0282613e87565b90965060608b01359080821115613f1857600080fd5b613f248d838e01613d98565b909750955060808c0135945060a08c0135915080821115613f4457600080fd5b50613f518c828d01613d98565b915080935050809150509295985092959850929598565b600060208284031215613f7a57600080fd5b5035919050565b600060208284031215613f9357600080fd5b8135613af981613e87565b600060208284031215613fb057600080fd5b8135613af981613d80565b60008060408385031215613fce57600080fd5b8235613fd981613d80565b946020939093013593505050565b600080600080600080600080600060e08a8c03121561400557600080fd5b893561401081613e77565b985060208a01356001600160401b038082111561402c57600080fd5b6140388d838e01613d98565b909a50985060408c0135915061404d82613e87565b90965060608b01359061405f82613d80565b90955060808b0135945060a08b0135908082111561407c57600080fd5b506140898c828d01613d98565b9a9d999c50979a9699959894979660c00135949350505050565b600080604083850312156140b657600080fd5b82356140c181613e77565b915060208301356140d181613d80565b809150509250929050565b634e487b7160e01b600052604160045260246000fd5b604051601f8201601f191681016001600160401b038111828210171561411a5761411a6140dc565b604052919050565b60006001600160401b0382111561413b5761413b6140dc565b50601f01601f191660200190565b600082601f83011261415a57600080fd5b813561416d61416882614122565b6140f2565b81815284602083860101111561418257600080fd5b816020850160208301376000918101602001919091529392505050565b60008060008060008060c087890312156141b857600080fd5b86356141c381613e77565b955060208701356001600160401b03808211156141df57600080fd5b6141eb8a838b01614149565b9650604089013595506060890135915061420482613d80565b9093506080880135925060a0880135908082111561422157600080fd5b5061422e89828a01614149565b9150509295509295509295565b60006020828403121561424d57600080fd5b8135613af981613e77565b60008060008060008060008060c0898b03121561427457600080fd5b883561427f81613e77565b975060208901356001600160401b038082111561429b57600080fd5b6142a78c838d01613d98565b909950975060408b013591506142bc82613e87565b90955060608a0135945060808a013590808211156142d957600080fd5b506142e68b828c01613d98565b999c989b50969995989497949560a00135949350505050565b60008060006060848603121561431457600080fd5b833561431f81613d80565b9250602084013561432f81613d80565b9150604084013561433f81613d80565b809150509250925092565b60005b8381101561436557818101518382015260200161434d565b838111156126de5750506000910152565b6000815180845261438e81602086016020860161434a565b601f01601f19169290920160200192915050565b602081526000613af96020830184614376565b6020808252601f908201527f5265656e7472616e637947756172643a207265656e7472616e742063616c6c00604082015260600190565b6000602082840312156143fe57600080fd5b8151613af981613d80565b60006020828403121561441b57600080fd5b81518015158114613af957600080fd5b60609190911b6bffffffffffffffffffffffff1916815260140190565b81835281816020850137506000828201602090810191909152601f909101601f19169091010190565b61ffff8816815260c06020820152600061448e60c0830189614376565b6001600160401b03881660408401526001600160a01b03871660608401526080830186905282810360a08401526144c6818587614448565b9a9950505050505050505050565b634e487b7160e01b600052601160045260246000fd5b600082198211156144fd576144fd6144d4565b500190565b61ffff8716815260a06020820152600061452060a083018789614448565b6001600160401b03861660408401526001600160a01b038516606084015282810360808401526145508185614376565b9998505050505050505050565b61ffff8a16815260e06020820152600061457b60e083018a8c614448565b6001600160401b0389166040840152828103606084015261459c8189614376565b6001600160a01b038816608085015260a0840187905283810360c085015290506145c7818587614448565b9c9b505050505050505050505050565b6000806000606084860312156145ec57600080fd5b83516145f781613e77565b60208501516040860151919450925061433f81613e87565b60ff83168152604060208201526000613c0e6040830184614376565b60008282101561463d5761463d6144d4565b500390565b600081600019048311821515161561465c5761465c6144d4565b500290565b60008261467e57634e487b7160e01b600052601260045260246000fd5b500490565b600061012061ffff8c1683528a602084015289604084015260018060a01b03891660608401528760808401528660a08401528060c0840152855181840152506020850151610140830152604085015160606101608401526146e8610180840182614376565b905082810360e08401526146fc8186614376565b90508281036101008401526145c78185614376565b6000806040838503121561472457600080fd5b825160ff8116811461473557600080fd5b60208401519092506001600160401b0381111561475157600080fd5b8301601f8101851361476257600080fd5b805161477061416882614122565b81815286602083850101111561478557600080fd5b61479682602083016020860161434a565b8093505050509250929050565b6000602082840312156147b557600080fd5b5051919050565b6001600160a01b038a8116825261ffff8a166020830152610120604083018190526000916147ec8483018c614376565b91508960608501528382036080850152614806828a614376565b6001600160401b03891660a086015287821660c086015290861660e085015283810361010085015290506145c78185614376565b60008060008060008060c0878903121561485357600080fd5b865161485e81613d80565b602088015190965061486f81613d80565b60408801516060890151919650945061488781613d80565b809350506080870151915060a087015190509295509295509295565b600080600080600080600060e0888a0312156148be57600080fd5b87516148c981613d80565b60208901519097506148da81613d80565b80965050604088015194506060880151935060808801516148fa81613d80565b8093505060a0880151915060c0880151905092959891949750929550565b6020808252602e908201527f496e697469616c697a61626c653a20636f6e747261637420697320616c72656160408201526d191e481a5b9a5d1a585b1a5e995960921b606082015260800190565b6020808252602b908201527f496e697469616c697a61626c653a20636f6e7472616374206973206e6f74206960408201526a6e697469616c697a696e6760a81b606082015260800190565b6000806000606084860312156149c657600080fd5b83516149d181613d80565b60208501519093506149e281613d80565b80925050604084015190509250925092565b60008060408385031215614a0757600080fd5b8251614a1281613d80565b6020939093015192949293505050565b60008251614a3481846020870161434a565b919091019291505056fea2646970667358221220046653a5ba87dfd7d7659ec799417395545c9a8c022207679388dbea325b0e6564736f6c63430008090033496e697469616c697a61626c653a20636f6e747261637420697320616c726561",
  "devdoc": {
    "kind": "dev",
    "methods": {
      "onOFTReceived(uint16,bytes,uint64,bytes,uint256,bytes)": {
        "details": "Token received are swapped to another token",
        "params": {
          "amount_": "The amount of tokens to transfer.",
          "from_": "The address of the account who calls the sendAndCall() on the source chain.",
          "payload_": "Additional data with no specified format.",
          "srcChainId_": "The chain id of the source chain."
        }
      },
      "retrySwapAndTriggerFlashRepayCallback(uint16,bytes,uint64,address,uint256,bytes,uint256)": {
        "params": {
          "amount_": "The amountIn of failed tx",
          "newAmountOutMin_": "If swap failed due to slippage, caller may set lower newAmountOutMin_",
          "nonce_": "The nonce of failed tx",
          "payload_": "The payload of failed tx",
          "srcAddress_": "The source path of failed tx",
          "srcChainId_": "The source chain of failed tx",
          "token_": "The token of failed tx"
        }
      },
      "retrySwapAndTriggerLeverageCallback(uint16,bytes,uint64,uint256,bytes,uint256)": {
        "params": {
          "amount_": "The amountIn of failed tx",
          "newAmountOutMin_": "If swap failed due to slippage, caller may set lower newAmountOutMin_",
          "nonce_": "The nonce of failed tx",
          "payload_": "The payload of failed tx",
          "srcAddress_": "The source path of failed tx",
          "srcChainId_": "The source chain of failed tx"
        }
      },
      "sgReceive(uint16,bytes,uint256,address,uint256,bytes)": {
        "params": {
          "amountLD_": "The qty of local _token contract tokens",
          "payload_": "The payload",
          "srcAddress_": "The remote Bridge address",
          "srcChainId_": "The chain id of the source chain.",
          "token_": "The token contract on the local chain"
        }
      },
      "toggleDestinationChainIsActive(uint16)": {
        "details": "Use LZ chain id"
      },
      "updateStargatePoolIdOf(address,uint256)": {
        "details": "Use LZ ids (https://stargateprotocol.gitbook.io/stargate/developers/pool-ids)"
      }
    },
    "stateVariables": {
      "LZ_ADAPTER_PARAMS_VERSION": {
        "details": "LayerZero adapter param version See more: https://layerzero.gitbook.io/docs/evm-guides/advanced/relayer-adapter-parameters"
      }
    },
    "title": "Cross-chain dispatcher",
    "version": 1
  },
  "userdoc": {
    "events": {
      "BridgingIsActiveUpdated(bool)": {
        "notice": "Emitted when flag for pause bridge transfer is toggled"
      },
      "CrossChainDispatcherUpdated(uint16,address,address)": {
        "notice": "Emitted when a Cross-chain dispatcher mapping is updated"
      },
      "DestinationChainIsSupportedUpdated(uint16,bool)": {
        "notice": "Emitted when flag for support chain is toggled"
      },
      "FlashRepayCallbackTxGasLimitUpdated(uint64,uint64)": {
        "notice": "Emitted when flash repay callback gas limit is updated"
      },
      "FlashRepaySwapTxGasLimitUpdated(uint64,uint64)": {
        "notice": "Emitted when underlying->synth L1 swap gas limit is updated"
      },
      "LeverageCallbackTxGasLimitUpdated(uint64,uint64)": {
        "notice": "Emitted when leverage callback gas limit is updated"
      },
      "LeverageSwapTxGasLimitUpdated(uint64,uint64)": {
        "notice": "Emitted when synth->underlying L1 swap gas limit is updated"
      },
      "LzBaseGasLimitUpdated(uint256,uint256)": {
        "notice": "Emitted when Lz base gas limit updated"
      },
      "StargateComposerUpdated(address,address)": {
        "notice": "Emitted when Stargate composer is updated"
      },
      "StargatePoolIdUpdated(address,uint256,uint256)": {
        "notice": "Emitted when Stargate pool id is updated"
      },
      "StargateSlippageUpdated(uint256,uint256)": {
        "notice": "Emitted when Stargate slippage is updated"
      }
    },
    "kind": "user",
    "methods": {
      "crossChainDispatcherOf(uint16)": {
        "notice": "Maps other chains `CrossChainDispatcher` contracts"
      },
      "extraCallbackTxNativeFee(uint256)": {
        "notice": "Store extra amount sent when retrying a failed tx due to low native fee"
      },
      "flashRepayCallbackTxGasLimit()": {
        "notice": "The gas limit to cover `_crossChainFlashRepayCallback()` call"
      },
      "flashRepaySwapTxGasLimit()": {
        "notice": "The gas limit to cover `_swapAndTriggerFlashRepayCallback()` call"
      },
      "isBridgingActive()": {
        "notice": "Flag that pause/unpause all cross-chain activities"
      },
      "isDestinationChainSupported(uint16)": {
        "notice": "Maps supported cross-chain routes (i.e. which chains are allowed to be used as source of liquidity)"
      },
      "leverageCallbackTxGasLimit()": {
        "notice": "The gas limit to cover `_crossChainLeverageCallback()` call"
      },
      "leverageSwapTxGasLimit()": {
        "notice": "The gas limit to cover `_swapAndTriggerLeverageCallback()` call"
      },
      "lzBaseGasLimit()": {
        "notice": "The base gas to pay for cross-chain calls"
      },
      "onOFTReceived(uint16,bytes,uint64,bytes,uint256,bytes)": {
        "notice": "Called by the OFT contract when tokens are received from source chain."
      },
      "poolRegistry()": {
        "notice": "The pool registry contract"
      },
      "retrySwapAndTriggerFlashRepayCallback(uint16,bytes,uint64,address,uint256,bytes,uint256)": {
        "notice": "Retry swap underlying and trigger callback."
      },
      "retrySwapAndTriggerLeverageCallback(uint16,bytes,uint64,uint256,bytes,uint256)": {
        "notice": "Retry swap and trigger callback."
      },
      "sgReceive(uint16,bytes,uint256,address,uint256,bytes)": {
        "notice": "Receive token and payload from Stargate"
      },
      "sgeth()": {
        "notice": "SGETH contract"
      },
      "stargateComposer()": {
        "notice": "The Stargate Router contract"
      },
      "stargatePoolIdOf(address)": {
        "notice": "Maps Stargate's token pools"
      },
      "stargateSlippage()": {
        "notice": "The slippage we're willing to accept for SG like:like transfers"
      },
      "swapAmountOutMin(uint256)": {
        "notice": "Overwritten swap slippage params"
      },
      "toggleBridgingIsActive()": {
        "notice": "Pause/Unpause bridge transfers"
      },
      "toggleDestinationChainIsActive(uint16)": {
        "notice": "Allow/Disallow destination chain"
      },
      "updateCrossChainDispatcherOf(uint16,address)": {
        "notice": "Update Cross-chain dispatcher mapping"
      },
      "updateFlashRepayCallbackTxGasLimit(uint64)": {
        "notice": "Update flash repay callback tx gas limit"
      },
      "updateFlashRepaySwapTxGasLimit(uint64)": {
        "notice": "Update flash repay swap tx gas limit"
      },
      "updateLeverageCallbackTxGasLimit(uint64)": {
        "notice": "Update leverage callback tx gas limit"
      },
      "updateLeverageSwapTxGasLimit(uint64)": {
        "notice": "Update leverage swap tx gas limit"
      },
      "updateLzBaseGasLimit(uint256)": {
        "notice": "Update Lz base gas limit"
      },
      "updateStargateComposer(address)": {
        "notice": "Update StargateComposer"
      },
      "updateStargatePoolIdOf(address,uint256)": {
        "notice": "Update Stargate pool id of token."
      },
      "updateStargateSlippage(uint256)": {
        "notice": "Update Stargate slippage"
      },
      "weth()": {
        "notice": "WETH contract"
      }
    },
    "version": 1
  },
  "storageLayout": {
    "storage": [
      {
        "astId": 19848,
        "contract": "contracts/CrossChainDispatcher.sol:CrossChainDispatcher",
        "label": "_initialized",
        "offset": 0,
        "slot": "0",
        "type": "t_uint8"
      },
      {
        "astId": 19851,
        "contract": "contracts/CrossChainDispatcher.sol:CrossChainDispatcher",
        "label": "_initializing",
        "offset": 1,
        "slot": "0",
        "type": "t_bool"
      },
      {
        "astId": 33742,
        "contract": "contracts/CrossChainDispatcher.sol:CrossChainDispatcher",
        "label": "_status",
        "offset": 0,
        "slot": "1",
        "type": "t_uint256"
      },
      {
        "astId": 30933,
        "contract": "contracts/CrossChainDispatcher.sol:CrossChainDispatcher",
        "label": "poolRegistry",
        "offset": 0,
        "slot": "2",
        "type": "t_contract(IPoolRegistry)28094"
      },
      {
        "astId": 30938,
        "contract": "contracts/CrossChainDispatcher.sol:CrossChainDispatcher",
        "label": "swapAmountOutMin",
        "offset": 0,
        "slot": "3",
        "type": "t_mapping(t_uint256,t_uint256)"
      },
      {
        "astId": 30943,
        "contract": "contracts/CrossChainDispatcher.sol:CrossChainDispatcher",
        "label": "crossChainDispatcherOf",
        "offset": 0,
        "slot": "4",
        "type": "t_mapping(t_uint16,t_address)"
      },
      {
        "astId": 30946,
        "contract": "contracts/CrossChainDispatcher.sol:CrossChainDispatcher",
        "label": "lzBaseGasLimit",
        "offset": 0,
        "slot": "5",
        "type": "t_uint256"
      },
      {
        "astId": 30949,
        "contract": "contracts/CrossChainDispatcher.sol:CrossChainDispatcher",
        "label": "stargateSlippage",
        "offset": 0,
        "slot": "6",
        "type": "t_uint256"
      },
      {
        "astId": 30952,
        "contract": "contracts/CrossChainDispatcher.sol:CrossChainDispatcher",
        "label": "flashRepayCallbackTxGasLimit",
        "offset": 0,
        "slot": "7",
        "type": "t_uint64"
      },
      {
        "astId": 30955,
        "contract": "contracts/CrossChainDispatcher.sol:CrossChainDispatcher",
        "label": "flashRepaySwapTxGasLimit",
        "offset": 8,
        "slot": "7",
        "type": "t_uint64"
      },
      {
        "astId": 30958,
        "contract": "contracts/CrossChainDispatcher.sol:CrossChainDispatcher",
        "label": "leverageCallbackTxGasLimit",
        "offset": 16,
        "slot": "7",
        "type": "t_uint64"
      },
      {
        "astId": 30961,
        "contract": "contracts/CrossChainDispatcher.sol:CrossChainDispatcher",
        "label": "leverageSwapTxGasLimit",
        "offset": 24,
        "slot": "7",
        "type": "t_uint64"
      },
      {
        "astId": 30964,
        "contract": "contracts/CrossChainDispatcher.sol:CrossChainDispatcher",
        "label": "isBridgingActive",
        "offset": 0,
        "slot": "8",
        "type": "t_bool"
      },
      {
        "astId": 30968,
        "contract": "contracts/CrossChainDispatcher.sol:CrossChainDispatcher",
        "label": "stargateComposer",
        "offset": 1,
        "slot": "8",
        "type": "t_contract(IStargateComposer)26995"
      },
      {
        "astId": 30973,
        "contract": "contracts/CrossChainDispatcher.sol:CrossChainDispatcher",
        "label": "stargatePoolIdOf",
        "offset": 0,
        "slot": "9",
        "type": "t_mapping(t_address,t_uint256)"
      },
      {
        "astId": 30978,
        "contract": "contracts/CrossChainDispatcher.sol:CrossChainDispatcher",
        "label": "isDestinationChainSupported",
        "offset": 0,
        "slot": "10",
        "type": "t_mapping(t_uint16,t_bool)"
      },
      {
        "astId": 30981,
        "contract": "contracts/CrossChainDispatcher.sol:CrossChainDispatcher",
        "label": "weth",
        "offset": 0,
        "slot": "11",
        "type": "t_address"
      },
      {
        "astId": 30984,
        "contract": "contracts/CrossChainDispatcher.sol:CrossChainDispatcher",
        "label": "sgeth",
        "offset": 0,
        "slot": "12",
        "type": "t_address"
      },
      {
        "astId": 30992,
        "contract": "contracts/CrossChainDispatcher.sol:CrossChainDispatcher",
        "label": "extraCallbackTxNativeFee",
        "offset": 0,
        "slot": "13",
        "type": "t_mapping(t_uint256,t_uint256)"
      }
    ],
    "types": {
      "t_address": {
        "encoding": "inplace",
        "label": "address",
        "numberOfBytes": "20"
      },
      "t_bool": {
        "encoding": "inplace",
        "label": "bool",
        "numberOfBytes": "1"
      },
      "t_contract(IPoolRegistry)28094": {
        "encoding": "inplace",
        "label": "contract IPoolRegistry",
        "numberOfBytes": "20"
      },
      "t_contract(IStargateComposer)26995": {
        "encoding": "inplace",
        "label": "contract IStargateComposer",
        "numberOfBytes": "20"
      },
      "t_mapping(t_address,t_uint256)": {
        "encoding": "mapping",
        "key": "t_address",
        "label": "mapping(address => uint256)",
        "numberOfBytes": "32",
        "value": "t_uint256"
      },
      "t_mapping(t_uint16,t_address)": {
        "encoding": "mapping",
        "key": "t_uint16",
        "label": "mapping(uint16 => address)",
        "numberOfBytes": "32",
        "value": "t_address"
      },
      "t_mapping(t_uint16,t_bool)": {
        "encoding": "mapping",
        "key": "t_uint16",
        "label": "mapping(uint16 => bool)",
        "numberOfBytes": "32",
        "value": "t_bool"
      },
      "t_mapping(t_uint256,t_uint256)": {
        "encoding": "mapping",
        "key": "t_uint256",
        "label": "mapping(uint256 => uint256)",
        "numberOfBytes": "32",
        "value": "t_uint256"
      },
      "t_uint16": {
        "encoding": "inplace",
        "label": "uint16",
        "numberOfBytes": "2"
      },
      "t_uint256": {
        "encoding": "inplace",
        "label": "uint256",
        "numberOfBytes": "32"
      },
      "t_uint64": {
        "encoding": "inplace",
        "label": "uint64",
        "numberOfBytes": "8"
      },
      "t_uint8": {
        "encoding": "inplace",
        "label": "uint8",
        "numberOfBytes": "1"
      }
    }
  }
}