{
  "address": "0xe2aDB496684eb9C43b5025f05b50EE492C77f938",
  "abi": [
    {
      "inputs": [],
      "stateMutability": "nonpayable",
      "type": "constructor"
    },
    {
      "inputs": [],
      "name": "AddressIsNull",
      "type": "error"
    },
    {
      "inputs": [],
      "name": "BridgingIsPaused",
      "type": "error"
    },
    {
      "inputs": [],
      "name": "DestinationChainNotAllowed",
      "type": "error"
    },
    {
      "inputs": [],
      "name": "InvalidCallData",
      "type": "error"
    },
    {
      "inputs": [],
      "name": "InvalidFromAddress",
      "type": "error"
    },
    {
      "inputs": [],
      "name": "InvalidMsgSender",
      "type": "error"
    },
    {
      "inputs": [],
      "name": "InvalidOperationType",
      "type": "error"
    },
    {
      "inputs": [],
      "name": "InvalidPayload",
      "type": "error"
    },
    {
      "inputs": [],
      "name": "NewValueIsSameAsCurrent",
      "type": "error"
    },
    {
      "inputs": [],
      "name": "SenderIsNotGovernor",
      "type": "error"
    },
    {
      "anonymous": false,
      "inputs": [
        {
          "indexed": false,
          "internalType": "bool",
          "name": "newIsActive",
          "type": "bool"
        }
      ],
      "name": "BridgingIsActiveUpdated",
      "type": "event"
    },
    {
      "anonymous": false,
      "inputs": [
        {
          "indexed": false,
          "internalType": "uint16",
          "name": "chainId",
          "type": "uint16"
        },
        {
          "indexed": false,
          "internalType": "address",
          "name": "oldCrossChainDispatcher",
          "type": "address"
        },
        {
          "indexed": false,
          "internalType": "address",
          "name": "newCrossChainDispatcher",
          "type": "address"
        }
      ],
      "name": "CrossChainDispatcherUpdated",
      "type": "event"
    },
    {
      "anonymous": false,
      "inputs": [
        {
          "indexed": false,
          "internalType": "uint16",
          "name": "chainId",
          "type": "uint16"
        },
        {
          "indexed": false,
          "internalType": "bool",
          "name": "newIsSupported",
          "type": "bool"
        }
      ],
      "name": "DestinationChainIsSupportedUpdated",
      "type": "event"
    },
    {
      "anonymous": false,
      "inputs": [
        {
          "indexed": false,
          "internalType": "uint64",
          "name": "oldCallbackTxGasLimit",
          "type": "uint64"
        },
        {
          "indexed": false,
          "internalType": "uint64",
          "name": "newCallbackTxGasLimit",
          "type": "uint64"
        }
      ],
      "name": "FlashRepayCallbackTxGasLimitUpdated",
      "type": "event"
    },
    {
      "anonymous": false,
      "inputs": [
        {
          "indexed": false,
          "internalType": "uint64",
          "name": "oldSwapTxGasLimit",
          "type": "uint64"
        },
        {
          "indexed": false,
          "internalType": "uint64",
          "name": "newSwapTxGasLimit",
          "type": "uint64"
        }
      ],
      "name": "FlashRepaySwapTxGasLimitUpdated",
      "type": "event"
    },
    {
      "anonymous": false,
      "inputs": [
        {
          "indexed": false,
          "internalType": "uint8",
          "name": "version",
          "type": "uint8"
        }
      ],
      "name": "Initialized",
      "type": "event"
    },
    {
      "anonymous": false,
      "inputs": [
        {
          "indexed": false,
          "internalType": "uint64",
          "name": "oldCallbackTxGasLimit",
          "type": "uint64"
        },
        {
          "indexed": false,
          "internalType": "uint64",
          "name": "newCallbackTxGasLimit",
          "type": "uint64"
        }
      ],
      "name": "LeverageCallbackTxGasLimitUpdated",
      "type": "event"
    },
    {
      "anonymous": false,
      "inputs": [
        {
          "indexed": false,
          "internalType": "uint64",
          "name": "oldSwapTxGasLimit",
          "type": "uint64"
        },
        {
          "indexed": false,
          "internalType": "uint64",
          "name": "newSwapTxGasLimit",
          "type": "uint64"
        }
      ],
      "name": "LeverageSwapTxGasLimitUpdated",
      "type": "event"
    },
    {
      "anonymous": false,
      "inputs": [
        {
          "indexed": false,
          "internalType": "uint256",
          "name": "oldLzBaseGasLimit",
          "type": "uint256"
        },
        {
          "indexed": false,
          "internalType": "uint256",
          "name": "newLzBaseGasLimit",
          "type": "uint256"
        }
      ],
      "name": "LzBaseGasLimitUpdated",
      "type": "event"
    },
    {
      "anonymous": false,
      "inputs": [
        {
          "indexed": false,
          "internalType": "contract IStargateComposer",
          "name": "oldStargateComposer",
          "type": "address"
        },
        {
          "indexed": false,
          "internalType": "contract IStargateComposer",
          "name": "newStargateComposer",
          "type": "address"
        }
      ],
      "name": "StargateComposerUpdated",
      "type": "event"
    },
    {
      "anonymous": false,
      "inputs": [
        {
          "indexed": true,
          "internalType": "address",
          "name": "token",
          "type": "address"
        },
        {
          "indexed": false,
          "internalType": "uint256",
          "name": "oldPoolId",
          "type": "uint256"
        },
        {
          "indexed": false,
          "internalType": "uint256",
          "name": "newPoolId",
          "type": "uint256"
        }
      ],
      "name": "StargatePoolIdUpdated",
      "type": "event"
    },
    {
      "anonymous": false,
      "inputs": [
        {
          "indexed": false,
          "internalType": "uint256",
          "name": "oldStargateSlippage",
          "type": "uint256"
        },
        {
          "indexed": false,
          "internalType": "uint256",
          "name": "newStargateSlippage",
          "type": "uint256"
        }
      ],
      "name": "StargateSlippageUpdated",
      "type": "event"
    },
    {
      "inputs": [],
      "name": "VERSION",
      "outputs": [
        {
          "internalType": "string",
          "name": "",
          "type": "string"
        }
      ],
      "stateMutability": "view",
      "type": "function"
    },
    {
      "inputs": [
        {
          "internalType": "uint16",
          "name": "",
          "type": "uint16"
        }
      ],
      "name": "crossChainDispatcherOf",
      "outputs": [
        {
          "internalType": "address",
          "name": "",
          "type": "address"
        }
      ],
      "stateMutability": "view",
      "type": "function"
    },
    {
      "inputs": [],
      "name": "flashRepayCallbackTxGasLimit",
      "outputs": [
        {
          "internalType": "uint64",
          "name": "",
          "type": "uint64"
        }
      ],
      "stateMutability": "view",
      "type": "function"
    },
    {
      "inputs": [],
      "name": "flashRepaySwapTxGasLimit",
      "outputs": [
        {
          "internalType": "uint64",
          "name": "",
          "type": "uint64"
        }
      ],
      "stateMutability": "view",
      "type": "function"
    },
    {
      "inputs": [
        {
          "internalType": "contract IPoolRegistry",
          "name": "poolRegistry_",
          "type": "address"
        },
        {
          "internalType": "address",
          "name": "weth_",
          "type": "address"
        },
        {
          "internalType": "address",
          "name": "sgeth_",
          "type": "address"
        }
      ],
      "name": "initialize",
      "outputs": [],
      "stateMutability": "nonpayable",
      "type": "function"
    },
    {
      "inputs": [],
      "name": "isBridgingActive",
      "outputs": [
        {
          "internalType": "bool",
          "name": "",
          "type": "bool"
        }
      ],
      "stateMutability": "view",
      "type": "function"
    },
    {
      "inputs": [
        {
          "internalType": "uint16",
          "name": "",
          "type": "uint16"
        }
      ],
      "name": "isDestinationChainSupported",
      "outputs": [
        {
          "internalType": "bool",
          "name": "",
          "type": "bool"
        }
      ],
      "stateMutability": "view",
      "type": "function"
    },
    {
      "inputs": [],
      "name": "leverageCallbackTxGasLimit",
      "outputs": [
        {
          "internalType": "uint64",
          "name": "",
          "type": "uint64"
        }
      ],
      "stateMutability": "view",
      "type": "function"
    },
    {
      "inputs": [],
      "name": "leverageSwapTxGasLimit",
      "outputs": [
        {
          "internalType": "uint64",
          "name": "",
          "type": "uint64"
        }
      ],
      "stateMutability": "view",
      "type": "function"
    },
    {
      "inputs": [],
      "name": "lzBaseGasLimit",
      "outputs": [
        {
          "internalType": "uint256",
          "name": "",
          "type": "uint256"
        }
      ],
      "stateMutability": "view",
      "type": "function"
    },
    {
      "inputs": [
        {
          "internalType": "uint16",
          "name": "srcChainId_",
          "type": "uint16"
        },
        {
          "internalType": "bytes",
          "name": "",
          "type": "bytes"
        },
        {
          "internalType": "uint64",
          "name": "",
          "type": "uint64"
        },
        {
          "internalType": "bytes",
          "name": "from_",
          "type": "bytes"
        },
        {
          "internalType": "uint256",
          "name": "amount_",
          "type": "uint256"
        },
        {
          "internalType": "bytes",
          "name": "payload_",
          "type": "bytes"
        }
      ],
      "name": "onOFTReceived",
      "outputs": [],
      "stateMutability": "nonpayable",
      "type": "function"
    },
    {
      "inputs": [],
      "name": "poolRegistry",
      "outputs": [
        {
          "internalType": "contract IPoolRegistry",
          "name": "",
          "type": "address"
        }
      ],
      "stateMutability": "view",
      "type": "function"
    },
    {
      "inputs": [
        {
          "internalType": "uint16",
          "name": "srcChainId_",
          "type": "uint16"
        },
        {
          "internalType": "bytes",
          "name": "srcAddress_",
          "type": "bytes"
        },
        {
          "internalType": "uint64",
          "name": "nonce_",
          "type": "uint64"
        },
        {
          "internalType": "address",
          "name": "token_",
          "type": "address"
        },
        {
          "internalType": "uint256",
          "name": "amount_",
          "type": "uint256"
        },
        {
          "internalType": "bytes",
          "name": "payload_",
          "type": "bytes"
        },
        {
          "internalType": "uint256",
          "name": "newAmountOutMin_",
          "type": "uint256"
        }
      ],
      "name": "retrySwapAndTriggerFlashRepayCallback",
      "outputs": [],
      "stateMutability": "nonpayable",
      "type": "function"
    },
    {
      "inputs": [
        {
          "internalType": "uint16",
          "name": "srcChainId_",
          "type": "uint16"
        },
        {
          "internalType": "bytes",
          "name": "srcAddress_",
          "type": "bytes"
        },
        {
          "internalType": "uint64",
          "name": "nonce_",
          "type": "uint64"
        },
        {
          "internalType": "uint256",
          "name": "amount_",
          "type": "uint256"
        },
        {
          "internalType": "bytes",
          "name": "payload_",
          "type": "bytes"
        },
        {
          "internalType": "uint256",
          "name": "newAmountOutMin_",
          "type": "uint256"
        }
      ],
      "name": "retrySwapAndTriggerLeverageCallback",
      "outputs": [],
      "stateMutability": "nonpayable",
      "type": "function"
    },
    {
      "inputs": [
        {
          "internalType": "uint16",
          "name": "srcChainId_",
          "type": "uint16"
        },
        {
          "internalType": "bytes",
          "name": "srcAddress_",
          "type": "bytes"
        },
        {
          "internalType": "uint256",
          "name": "",
          "type": "uint256"
        },
        {
          "internalType": "address",
          "name": "token_",
          "type": "address"
        },
        {
          "internalType": "uint256",
          "name": "amountLD_",
          "type": "uint256"
        },
        {
          "internalType": "bytes",
          "name": "payload_",
          "type": "bytes"
        }
      ],
      "name": "sgReceive",
      "outputs": [],
      "stateMutability": "nonpayable",
      "type": "function"
    },
    {
      "inputs": [],
      "name": "sgeth",
      "outputs": [
        {
          "internalType": "address",
          "name": "",
          "type": "address"
        }
      ],
      "stateMutability": "view",
      "type": "function"
    },
    {
      "inputs": [],
      "name": "stargateComposer",
      "outputs": [
        {
          "internalType": "contract IStargateComposer",
          "name": "",
          "type": "address"
        }
      ],
      "stateMutability": "view",
      "type": "function"
    },
    {
      "inputs": [
        {
          "internalType": "address",
          "name": "",
          "type": "address"
        }
      ],
      "name": "stargatePoolIdOf",
      "outputs": [
        {
          "internalType": "uint256",
          "name": "",
          "type": "uint256"
        }
      ],
      "stateMutability": "view",
      "type": "function"
    },
    {
      "inputs": [],
      "name": "stargateSlippage",
      "outputs": [
        {
          "internalType": "uint256",
          "name": "",
          "type": "uint256"
        }
      ],
      "stateMutability": "view",
      "type": "function"
    },
    {
      "inputs": [
        {
          "internalType": "uint256",
          "name": "",
          "type": "uint256"
        }
      ],
      "name": "swapAmountOutMin",
      "outputs": [
        {
          "internalType": "uint256",
          "name": "",
          "type": "uint256"
        }
      ],
      "stateMutability": "view",
      "type": "function"
    },
    {
      "inputs": [],
      "name": "toggleBridgingIsActive",
      "outputs": [],
      "stateMutability": "nonpayable",
      "type": "function"
    },
    {
      "inputs": [
        {
          "internalType": "uint16",
          "name": "chainId_",
          "type": "uint16"
        }
      ],
      "name": "toggleDestinationChainIsActive",
      "outputs": [],
      "stateMutability": "nonpayable",
      "type": "function"
    },
    {
      "inputs": [
        {
          "internalType": "uint256",
          "name": "requestId_",
          "type": "uint256"
        },
        {
          "internalType": "address payable",
          "name": "account_",
          "type": "address"
        },
        {
          "internalType": "address",
          "name": "tokenIn_",
          "type": "address"
        },
        {
          "internalType": "address",
          "name": "tokenOut_",
          "type": "address"
        },
        {
          "internalType": "uint256",
          "name": "amountIn_",
          "type": "uint256"
        },
        {
          "internalType": "uint256",
          "name": "amountOutMin_",
          "type": "uint256"
        },
        {
          "internalType": "bytes",
          "name": "lzArgs_",
          "type": "bytes"
        }
      ],
      "name": "triggerFlashRepaySwap",
      "outputs": [],
      "stateMutability": "payable",
      "type": "function"
    },
    {
      "inputs": [
        {
          "internalType": "uint256",
          "name": "requestId_",
          "type": "uint256"
        },
        {
          "internalType": "address payable",
          "name": "account_",
          "type": "address"
        },
        {
          "internalType": "address",
          "name": "tokenIn_",
          "type": "address"
        },
        {
          "internalType": "address",
          "name": "tokenOut_",
          "type": "address"
        },
        {
          "internalType": "uint256",
          "name": "amountIn_",
          "type": "uint256"
        },
        {
          "internalType": "uint256",
          "name": "amountOutMin_",
          "type": "uint256"
        },
        {
          "internalType": "bytes",
          "name": "lzArgs_",
          "type": "bytes"
        }
      ],
      "name": "triggerLeverageSwap",
      "outputs": [],
      "stateMutability": "payable",
      "type": "function"
    },
    {
      "inputs": [
        {
          "internalType": "uint16",
          "name": "chainId_",
          "type": "uint16"
        },
        {
          "internalType": "address",
          "name": "crossChainDispatcher_",
          "type": "address"
        }
      ],
      "name": "updateCrossChainDispatcherOf",
      "outputs": [],
      "stateMutability": "nonpayable",
      "type": "function"
    },
    {
      "inputs": [
        {
          "internalType": "uint64",
          "name": "newFlashRepayCallbackTxGasLimit_",
          "type": "uint64"
        }
      ],
      "name": "updateFlashRepayCallbackTxGasLimit",
      "outputs": [],
      "stateMutability": "nonpayable",
      "type": "function"
    },
    {
      "inputs": [
        {
          "internalType": "uint64",
          "name": "newFlashRepaySwapTxGasLimit_",
          "type": "uint64"
        }
      ],
      "name": "updateFlashRepaySwapTxGasLimit",
      "outputs": [],
      "stateMutability": "nonpayable",
      "type": "function"
    },
    {
      "inputs": [
        {
          "internalType": "uint64",
          "name": "newLeverageCallbackTxGasLimit_",
          "type": "uint64"
        }
      ],
      "name": "updateLeverageCallbackTxGasLimit",
      "outputs": [],
      "stateMutability": "nonpayable",
      "type": "function"
    },
    {
      "inputs": [
        {
          "internalType": "uint64",
          "name": "newLeverageSwapTxGasLimit_",
          "type": "uint64"
        }
      ],
      "name": "updateLeverageSwapTxGasLimit",
      "outputs": [],
      "stateMutability": "nonpayable",
      "type": "function"
    },
    {
      "inputs": [
        {
          "internalType": "uint256",
          "name": "newLzBaseGasLimit_",
          "type": "uint256"
        }
      ],
      "name": "updateLzBaseGasLimit",
      "outputs": [],
      "stateMutability": "nonpayable",
      "type": "function"
    },
    {
      "inputs": [
        {
          "internalType": "contract IStargateComposer",
          "name": "newStargateComposer_",
          "type": "address"
        }
      ],
      "name": "updateStargateComposer",
      "outputs": [],
      "stateMutability": "nonpayable",
      "type": "function"
    },
    {
      "inputs": [
        {
          "internalType": "address",
          "name": "token_",
          "type": "address"
        },
        {
          "internalType": "uint256",
          "name": "newPoolId_",
          "type": "uint256"
        }
      ],
      "name": "updateStargatePoolIdOf",
      "outputs": [],
      "stateMutability": "nonpayable",
      "type": "function"
    },
    {
      "inputs": [
        {
          "internalType": "uint256",
          "name": "newStargateSlippage_",
          "type": "uint256"
        }
      ],
      "name": "updateStargateSlippage",
      "outputs": [],
      "stateMutability": "nonpayable",
      "type": "function"
    },
    {
      "inputs": [],
      "name": "weth",
      "outputs": [
        {
          "internalType": "address",
          "name": "",
          "type": "address"
        }
      ],
      "stateMutability": "view",
      "type": "function"
    },
    {
      "stateMutability": "payable",
      "type": "receive"
    }
  ],
  "transactionHash": "0xecc9fea8f3729a100ba950ebb199101466752a32340d97bb5eefb322b4cbf2ea",
  "args": [],
  "numDeployments": 3,
  "solcInputHash": "5b8ff7c4ef385ed284d7d4ad5ad9b0e8",
  "bytecode": "0x60806040523480156200001157600080fd5b506200001c62000022565b62000152565b6200002e60ff62000031565b50565b60008054610100900460ff1615620000ca578160ff1660011480156200006a575062000068306200014360201b6200251d1760201c565b155b620000c25760405162461bcd60e51b815260206004820152602e602482015260008051602062004be383398151915260448201526d191e481a5b9a5d1a585b1a5e995960921b60648201526084015b60405180910390fd5b506000919050565b60005460ff808416911610620001295760405162461bcd60e51b815260206004820152602e602482015260008051602062004be383398151915260448201526d191e481a5b9a5d1a585b1a5e995960921b6064820152608401620000b9565b506000805460ff191660ff92909216919091179055600190565b6001600160a01b03163b151590565b614a8180620001626000396000f3fe6080604052600436106101fc5760003560e01c80638a9cadaf1161010d578063b71b42ec116100a0578063dfda255f1161006f578063dfda255f146105e4578063e3499aa41461061a578063e3d47ece1461064a578063e7f4c16b14610671578063ffa1ad741461069857600080fd5b8063b71b42ec14610557578063b9d8172014610577578063c0c53b8b14610597578063d89921cb146105b757600080fd5b8063ab8236f3116100dc578063ab8236f3146104d7578063ac18fce6146104f7578063afcff50f14610517578063b2d083c11461053757600080fd5b80638a9cadaf1461044a5780638ece68571461046a578063a761f5f01461048a578063ab4193e2146104aa57600080fd5b80633413f1c1116101905780636a46aa381161015f5780636a46aa38146103bf5780636c77d24f146103df5780636e406753146103f55780637b7305d314610415578063833667df1461043557600080fd5b80633413f1c11461034857806339f648bf1461036c5780633fc8cef31461037f57806362491b351461039f57600080fd5b80631e492d56116101cc5780631e492d56146102a15780632b80cc52146102c15780632e369cf2146102eb5780633352b6081461030b57600080fd5b8062bc9db9146102085780630b211f0f1461021d578063147a7d71146102615780631a607f9a1461028157600080fd5b3661020357005b600080fd5b61021b610216366004613d90565b6106d6565b005b34801561022957600080fd5b5060075461024490600160801b90046001600160401b031681565b6040516001600160401b0390911681526020015b60405180910390f35b34801561026d57600080fd5b5061021b61027c366004613e4c565b610b06565b34801561028d57600080fd5b5061021b61029c366004613f18565b610c64565b3480156102ad57600080fd5b5061021b6102bc366004613f31565b610d7e565b3480156102cd57600080fd5b506008546102db9060ff1681565b6040519015158152602001610258565b3480156102f757600080fd5b5061021b610306366004613f4e565b610ed9565b34801561031757600080fd5b506008546103309061010090046001600160a01b031681565b6040516001600160a01b039091168152602001610258565b34801561035457600080fd5b5061035e60065481565b604051908152602001610258565b61021b61037a366004613d90565b611032565b34801561038b57600080fd5b50600b54610330906001600160a01b031681565b3480156103ab57600080fd5b50600754610244906001600160401b031681565b3480156103cb57600080fd5b5061021b6103da366004613f18565b611446565b3480156103eb57600080fd5b5061035e60055481565b34801561040157600080fd5b5061021b610410366004613f31565b611560565b34801561042157600080fd5b5061021b610430366004613f6b565b6116c0565b34801561044157600080fd5b5061021b611812565b34801561045657600080fd5b5061021b610465366004613f97565b611919565b34801561047657600080fd5b5061021b610485366004614053565b611bbe565b34801561049657600080fd5b50600c54610330906001600160a01b031681565b3480156104b657600080fd5b5061035e6104c5366004613f18565b60036020526000908152604090205481565b3480156104e357600080fd5b5061021b6104f236600461414f565b611d39565b34801561050357600080fd5b5061021b610512366004613f31565b611ea3565b34801561052357600080fd5b50600254610330906001600160a01b031681565b34801561054357600080fd5b5061021b6105523660046141eb565b611ff2565b34801561056357600080fd5b5061021b610572366004613f31565b61211e565b34801561058357600080fd5b5061021b610592366004614208565b612283565b3480156105a357600080fd5b5061021b6105b23660046142af565b612416565b3480156105c357600080fd5b5061035e6105d2366004613f4e565b60096020526000908152604090205481565b3480156105f057600080fd5b506103306105ff3660046141eb565b6004602052600090815260409020546001600160a01b031681565b34801561062657600080fd5b506102db6106353660046141eb565b600a6020526000908152604090205460ff1681565b34801561065657600080fd5b5060075461024490600160c01b90046001600160401b031681565b34801561067d57600080fd5b5060075461024490600160401b90046001600160401b031681565b3480156106a457600080fd5b506106c9604051806040016040528060058152602001640312e332e360dc1b81525081565b6040516102589190614352565b600260015414156107025760405162461bcd60e51b81526004016106f990614365565b60405180910390fd5b60026001819055506000336001600160a01b03166316f0115b6040518163ffffffff1660e01b815260040160206040518083038186803b15801561074557600080fd5b505afa158015610759573d6000803e3d6000fd5b505050506040513d601f19601f8201168201806040525081019061077d919061439c565b60025460405163c673bdaf60e01b81526001600160a01b03808416600483015292935091169063c673bdaf9060240160206040518083038186803b1580156107c457600080fd5b505afa1580156107d8573d6000803e3d6000fd5b505050506040513d601f19601f820116820180604052508101906107fc91906143b9565b61081957604051633bfe162b60e01b815260040160405180910390fd5b806001600160a01b03166396aaccfe6040518163ffffffff1660e01b815260040160206040518083038186803b15801561085257600080fd5b505afa158015610866573d6000803e3d6000fd5b505050506040513d601f19601f8201168201806040525081019061088a919061439c565b6001600160a01b0316336001600160a01b0316146108bb57604051633bfe162b60e01b815260040160405180910390fd5b60085460ff166108de57604051635621fccf60e01b815260040160405180910390fd5b6000889050600080600061092787878080601f01602080910402602001604051908101604052809392919081815260200183838082843760009201919091525061252c92505050565b925092509250606060008b6001600160a01b0316636d1bb8f76040518163ffffffff1660e01b815260040160206040518083038186803b15801561096a57600080fd5b505afa15801561097e573d6000803e3d6000fd5b505050506040513d601f19601f820116820180604052508101906109a2919061439c565b6040516001627dd58f60e11b0319815261ffff871660048201526001600160a01b03919091169063ff0454e29060240160206040518083038186803b1580156109ea57600080fd5b505afa1580156109fe573d6000803e3d6000fd5b505050506040513d601f19601f82011682018060405250810190610a22919061439c565b90506001600160a01b038116610a4b5760405163fb7566d760e01b815260040160405180910390fd5b61ffff85166000908152600a602052604090205460ff16610a7f5760405163334dc1fd60e01b815260040160405180910390fd5b8e610a8d3383838a8f612552565b92505050610af26040518061010001604052808e6001600160a01b031681526020018661ffff1681526020018c8152602001348152602001838152602001876001600160a01b03168152602001846001600160401b03168152602001858152506125c1565b505060018055505050505050505050505050565b610b0f33612870565b610b2c57604051633bfe162b60e01b815260040160405180910390fd5b6000610b72600087878080601f0160208091040260200160405190810160405280939291908181526020018383808284376000920191909152509293925050612a0b9050565b90506001600160a01b0381161580610ba9575061ffff8a166000908152600460205260409020546001600160a01b03828116911614155b15610bc757604051637ab628f960e01b815260040160405180910390fd5b6000610c0884848080601f016020809104026020016040519081016040528093929190818152602001838380828437600092019190915250612a7092505050565b905060ff811660021415610c2657610c21858585612a8d565b610c57565b60ff811660011415610c3e57610c218b868686612bf6565b604051630ead561960e11b815260040160405180910390fd5b5050505050505050505050565b600260009054906101000a90046001600160a01b03166001600160a01b0316630c340a246040518163ffffffff1660e01b815260040160206040518083038186803b158015610cb257600080fd5b505afa158015610cc6573d6000803e3d6000fd5b505050506040513d601f19601f82011682018060405250810190610cea919061439c565b6001600160a01b0316336001600160a01b031614610d1b57604051634b98449160e11b815260040160405180910390fd5b60065481811415610d3f57604051630333a68160e41b815260040160405180910390fd5b60408051828152602081018490527f5cac1093ddd8c1e9cbcd89b2f36fa1889e966cc257753af2d160888564fd9818910160405180910390a150600655565b600260009054906101000a90046001600160a01b03166001600160a01b0316630c340a246040518163ffffffff1660e01b815260040160206040518083038186803b158015610dcc57600080fd5b505afa158015610de0573d6000803e3d6000fd5b505050506040513d601f19601f82011682018060405250810190610e04919061439c565b6001600160a01b0316336001600160a01b031614610e3557604051634b98449160e11b815260040160405180910390fd5b6007546001600160401b03600160c01b9091048116908216811415610e6d57604051630333a68160e41b815260040160405180910390fd5b604080516001600160401b038084168252841660208201527f7dd9d7c71da5859a7d6e34c00f4889cb529dbbc009a358db124855baa125a4dc910160405180910390a150600780546001600160401b03909216600160c01b026001600160c01b03909216919091179055565b600260009054906101000a90046001600160a01b03166001600160a01b0316630c340a246040518163ffffffff1660e01b815260040160206040518083038186803b158015610f2757600080fd5b505afa158015610f3b573d6000803e3d6000fd5b505050506040513d601f19601f82011682018060405250810190610f5f919061439c565b6001600160a01b0316336001600160a01b031614610f9057604051634b98449160e11b815260040160405180910390fd5b6008546001600160a01b036101009091048116908216811415610fc657604051630333a68160e41b815260040160405180910390fd5b604080516001600160a01b038084168252841660208201527f398baf83f237e7e1e1ce6637c69193c52e8b6382036ceb3c6eba08401e327667910160405180910390a150600880546001600160a01b0390921661010002610100600160a81b0319909216919091179055565b600260015414156110555760405162461bcd60e51b81526004016106f990614365565b60026001819055506000336001600160a01b03166316f0115b6040518163ffffffff1660e01b815260040160206040518083038186803b15801561109857600080fd5b505afa1580156110ac573d6000803e3d6000fd5b505050506040513d601f19601f820116820180604052508101906110d0919061439c565b60025460405163c673bdaf60e01b81526001600160a01b03808416600483015292935091169063c673bdaf9060240160206040518083038186803b15801561111757600080fd5b505afa15801561112b573d6000803e3d6000fd5b505050506040513d601f19601f8201168201806040525081019061114f91906143b9565b61116c57604051633bfe162b60e01b815260040160405180910390fd5b806001600160a01b03166396aaccfe6040518163ffffffff1660e01b815260040160206040518083038186803b1580156111a557600080fd5b505afa1580156111b9573d6000803e3d6000fd5b505050506040513d601f19601f820116820180604052508101906111dd919061439c565b6001600160a01b0316336001600160a01b03161461120e57604051633bfe162b60e01b815260040160405180910390fd5b6000889050600080600061125787878080601f01602080910402602001604051908101604052809392919081815260200183838082843760009201919091525061252c92505050565b925092509250606060008c6001600160a01b0316636d1bb8f76040518163ffffffff1660e01b815260040160206040518083038186803b15801561129a57600080fd5b505afa1580156112ae573d6000803e3d6000fd5b505050506040513d601f19601f820116820180604052508101906112d2919061439c565b6040516001627dd58f60e11b0319815261ffff871660048201526001600160a01b03919091169063ff0454e29060240160206040518083038186803b15801561131a57600080fd5b505afa15801561132e573d6000803e3d6000fd5b505050506040513d601f19601f82011682018060405250810190611352919061439c565b90506001600160a01b03811661137b5760405163fb7566d760e01b815260040160405180910390fd5b61ffff85166000908152600a602052604090205460ff166113af5760405163334dc1fd60e01b815260040160405180910390fd5b6001600160a01b038c166000908152600960205260409020548f908d908c906113df903390869086908d86612fe0565b945050505050610af26040518061010001604052808e6001600160a01b031681526020018661ffff1681526020018c8152602001348152602001838152602001876001600160a01b03168152602001846001600160401b0316815260200185815250613058565b600260009054906101000a90046001600160a01b03166001600160a01b0316630c340a246040518163ffffffff1660e01b815260040160206040518083038186803b15801561149457600080fd5b505afa1580156114a8573d6000803e3d6000fd5b505050506040513d601f19601f820116820180604052508101906114cc919061439c565b6001600160a01b0316336001600160a01b0316146114fd57604051634b98449160e11b815260040160405180910390fd5b6005548181141561152157604051630333a68160e41b815260040160405180910390fd5b60408051828152602081018490527f83c9ee8eed7101992146d1c75610cc54c1db740210cde12e135fa657a7850854910160405180910390a150600555565b600260009054906101000a90046001600160a01b03166001600160a01b0316630c340a246040518163ffffffff1660e01b815260040160206040518083038186803b1580156115ae57600080fd5b505afa1580156115c2573d6000803e3d6000fd5b505050506040513d601f19601f820116820180604052508101906115e6919061439c565b6001600160a01b0316336001600160a01b03161461161757604051634b98449160e11b815260040160405180910390fd5b6007546001600160401b03600160801b909104811690821681141561164f57604051630333a68160e41b815260040160405180910390fd5b604080516001600160401b038084168252841660208201527fce0317145f704f138aad728eeb9d95c91260950871930acca6e659f1b0883364910160405180910390a150600780546001600160401b03909216600160801b0267ffffffffffffffff60801b19909216919091179055565b600260009054906101000a90046001600160a01b03166001600160a01b0316630c340a246040518163ffffffff1660e01b815260040160206040518083038186803b15801561170e57600080fd5b505afa158015611722573d6000803e3d6000fd5b505050506040513d601f19601f82011682018060405250810190611746919061439c565b6001600160a01b0316336001600160a01b03161461177757604051634b98449160e11b815260040160405180910390fd5b6001600160a01b038216600090815260096020526040902054818114156117b157604051630333a68160e41b815260040160405180910390fd5b60408051828152602081018490526001600160a01b038516917ffa622ae921e227a42afec644139331c019f4157c54e93c82dd5f811ba210ac15910160405180910390a2506001600160a01b03909116600090815260096020526040902055565b600260009054906101000a90046001600160a01b03166001600160a01b0316630c340a246040518163ffffffff1660e01b815260040160206040518083038186803b15801561186057600080fd5b505afa158015611874573d6000803e3d6000fd5b505050506040513d601f19601f82011682018060405250810190611898919061439c565b6001600160a01b0316336001600160a01b0316146118c957604051634b98449160e11b815260040160405180910390fd5b60085460405160ff90911615808252907f0269774d3426d7e61b04b7d5129948b9f4edf9b937bb0c657fbb32a94a7996ec9060200160405180910390a16008805460ff1916911515919091179055565b6002600154141561193c5760405162461bcd60e51b81526004016106f990614365565b600260015560085461ffff8a1660009081526004602090815260408083205490516001600160a01b0361010090950485169463ab8236f360e01b938f9361198693921691016143db565b60408051601f19818403018152908290526119ae92918c908c908c908c908c90602401614421565b60408051601f19818403018152918152602080830180516001600160e01b03166001600160e01b031990951694909417909352519092506000916119f6913091859101614484565b60408051601f198184030181529082905280516020909101206302902aeb60e41b825291506001600160a01b03841690632902aeb090611a40908f908f908f908f906004016144bc565b60206040518083038186803b158015611a5857600080fd5b505afa158015611a6c573d6000803e3d6000fd5b505050506040513d601f19601f82011682018060405250810190611a9091906144f4565b8114611aaf57604051631c49f4d160e01b815260040160405180910390fd5b600080611af188888080601f01602080910402602001604051908101604052809392919081815260200183838082843760009201919091525061323892505050565b50935093505050806001600160a01b0316336001600160a01b031614611b2a57604051633bfe162b60e01b815260040160405180910390fd5b856003600084815260200190815260200160002081905550846001600160a01b031663c0e6ac6c8f8f8f8f308a6040518763ffffffff1660e01b8152600401611b789695949392919061450d565b600060405180830381600087803b158015611b9257600080fd5b505af1158015611ba6573d6000803e3d6000fd5b50506001805550505050505050505050505050505050565b600260009054906101000a90046001600160a01b03166001600160a01b0316630c340a246040518163ffffffff1660e01b815260040160206040518083038186803b158015611c0c57600080fd5b505afa158015611c20573d6000803e3d6000fd5b505050506040513d601f19601f82011682018060405250810190611c44919061439c565b6001600160a01b0316336001600160a01b031614611c7557604051634b98449160e11b815260040160405180910390fd5b61ffff82166000908152600460205260409020546001600160a01b03908116908216811415611cb757604051630333a68160e41b815260040160405180910390fd5b6040805161ffff851681526001600160a01b03838116602083015284168183015290517fa0670378b7d4511893529175129417ed82867197a3ea18eb2743483bd4f00c2a9181900360600190a15061ffff91909116600090815260046020526040902080546001600160a01b0319166001600160a01b03909216919091179055565b60085461010090046001600160a01b03163314611d6957604051633bfe162b60e01b815260040160405180910390fd5b600c546001600160a01b0384811691161415611df757600b60009054906101000a90046001600160a01b03166001600160a01b031663d0e30db0836040518263ffffffff1660e01b81526004016000604051808303818588803b158015611dcf57600080fd5b505af1158015611de3573d6000803e3d6000fd5b5050600b546001600160a01b031695505050505b6000611e038682612a0b565b90506001600160a01b0381161580611e3a575061ffff87166000908152600460205260409020546001600160a01b03828116911614155b15611e5857604051637ab628f960e01b815260040160405180910390fd5b6000611e6383612a70565b905060ff811660011415611e8157611e7c85858561327f565b611e99565b60ff811660021415610c3e57611e7c88868686613342565b5050505050505050565b600260009054906101000a90046001600160a01b03166001600160a01b0316630c340a246040518163ffffffff1660e01b815260040160206040518083038186803b158015611ef157600080fd5b505afa158015611f05573d6000803e3d6000fd5b505050506040513d601f19601f82011682018060405250810190611f29919061439c565b6001600160a01b0316336001600160a01b031614611f5a57604051634b98449160e11b815260040160405180910390fd5b6007546001600160401b03908116908216811415611f8b57604051630333a68160e41b815260040160405180910390fd5b604080516001600160401b038084168252841660208201527f1701885e1db4da3ff923033aa465855dde857275866d4f132af5384aa880554f910160405180910390a1506007805467ffffffffffffffff19166001600160401b0392909216919091179055565b600260009054906101000a90046001600160a01b03166001600160a01b0316630c340a246040518163ffffffff1660e01b815260040160206040518083038186803b15801561204057600080fd5b505afa158015612054573d6000803e3d6000fd5b505050506040513d601f19601f82011682018060405250810190612078919061439c565b6001600160a01b0316336001600160a01b0316146120a957604051634b98449160e11b815260040160405180910390fd5b61ffff81166000908152600a602090815260409182902054915160ff90921615808352917f0269774d3426d7e61b04b7d5129948b9f4edf9b937bb0c657fbb32a94a7996ec910160405180910390a161ffff919091166000908152600a60205260409020805460ff1916911515919091179055565b600260009054906101000a90046001600160a01b03166001600160a01b0316630c340a246040518163ffffffff1660e01b815260040160206040518083038186803b15801561216c57600080fd5b505afa158015612180573d6000803e3d6000fd5b505050506040513d601f19601f820116820180604052508101906121a4919061439c565b6001600160a01b0316336001600160a01b0316146121d557604051634b98449160e11b815260040160405180910390fd5b6007546001600160401b03600160401b909104811690821681141561220d57604051630333a68160e41b815260040160405180910390fd5b604080516001600160401b038084168252841660208201527f8dbd2ecaaca80db9e2e655edc0f1b4df2c87f441eaedf46e0b7b00358d97ad30910160405180910390a150600780546001600160401b03909216600160401b026fffffffffffffffff000000000000000019909216919091179055565b600260015414156122a65760405162461bcd60e51b81526004016106f990614365565b600260018190555060008060006122f286868080601f0160208091040260200160405190810160405280939291908181526020018383808284376000920191909152506135d792505050565b50945050935093505061230483612870565b61232157604051637c6953f960e01b815260040160405180910390fd5b336001600160a01b0382161461234a57604051633bfe162b60e01b815260040160405180910390fd5b600082815260036020908152604080832087905561ffff8e16835260048252808320549051612385926001600160a01b0390921691016143db565b6040516020818303038152906040529050836001600160a01b031663cfd6528e8d8d8d8d86308f8f8f6040518a63ffffffff1660e01b81526004016123d299989796959493929190614568565b600060405180830381600087803b1580156123ec57600080fd5b505af1158015612400573d6000803e3d6000fd5b5050600180555050505050505050505050505050565b60006124226001613621565b9050801561243a576000805461ff0019166101001790555b6001600160a01b0384166124615760405163fb7566d760e01b815260040160405180910390fd5b6124696136a9565b600280546001600160a01b038087166001600160a01b031992831617909255603260065562030d406005557a0b71b000000000000b71b0000000000007a12000000000000b71b0600755600b8054868416908316179055600c8054928516929091169190911790558015612517576000805461ff0019169055604051600181527f7f26b83ff96e1f2b6a682f133852f6798a09c465da95921460cefb38474024989060200160405180910390a15b50505050565b6001600160a01b03163b151590565b60008060008380602001905181019061254591906145e2565b9250925092509193909250565b604080516001600160a01b038781166020830152868116828401526060808301879052908516608083015260a08083018590528351808403909101815260c08301909352916125a7916002919060e00161461a565b604051602081830303815290604052905095945050505050565b6125e560405180606001604052806000815260200160008152602001606081525090565b60208083015161ffff1660009081526004825260408082205490519192612618926001600160a01b0390921691016143db565b60408051601f19818403018152919052905060006126368282612a0b565b6001600160a01b0316141561265e5760405163fb7566d760e01b815260040160405180910390fd5b60405180606001604052808460c001516001600160401b031681526020018460e00151815260200160008560e00151116126b2576040805160006020820152016040516020818303038152906040526126b4565b825b905283516001600160a01b031660009081526009602052604081205460065492945091612710906126e5908261464c565b86604001516126f49190614663565b6126fe9190614682565b6080860151600854600b54885193945091926001600160a01b03610100909204821692908216911614156127b357600b546040808901519051632e1a7d4d60e01b81526001600160a01b0390921691632e1a7d4d916127639160040190815260200190565b600060405180830381600087803b15801561277d57600080fd5b505af1158015612791573d6000803e3d6000fd5b505050508660400151876060018181516127ab91906146a4565b9052506127e8565b86516127ca906001600160a01b03168260006136da565b604087015187516127e8916001600160a01b039091169083906136da565b806001600160a01b0316639fbf10fc8860600151896020015187888c60a001518d604001518a8e8e8c6040518b63ffffffff1660e01b8152600401612835999897969594939291906146bc565b6000604051808303818588803b15801561284e57600080fd5b505af1158015612862573d6000803e3d6000fd5b505050505050505050505050565b600080826001600160a01b031663fc0c546a6040518163ffffffff1660e01b815260040160206040518083038186803b1580156128ac57600080fd5b505afa1580156128c0573d6000803e3d6000fd5b505050506040513d601f19601f820116820180604052508101906128e4919061439c565b600254604051631a0dd00b60e01b81526001600160a01b038084166004830152929350911690631a0dd00b9060240160206040518083038186803b15801561292b57600080fd5b505afa15801561293f573d6000803e3d6000fd5b505050506040513d601f19601f8201168201806040525081019061296391906143b9565b6129705750600092915050565b806001600160a01b0316636d1bb8f76040518163ffffffff1660e01b815260040160206040518083038186803b1580156129a957600080fd5b505afa1580156129bd573d6000803e3d6000fd5b505050506040513d601f19601f820116820180604052508101906129e1919061439c565b6001600160a01b0316836001600160a01b031614612a025750600092915050565b50600192915050565b6000612a188260146146a4565b83511015612a605760405162461bcd60e51b8152602060048201526015602482015274746f416464726573735f6f75744f66426f756e647360581b60448201526064016106f9565b500160200151600160601b900490565b600081806020019051810190612a86919061474a565b5092915050565b6000806000612ad185858080601f01602080910402602001604051908101604052809392919081815260200183838082843760009201919091525061382592505050565b9250925092506000836001600160a01b031663fc0c546a6040518163ffffffff1660e01b815260040160206040518083038186803b158015612b1257600080fd5b505afa158015612b26573d6000803e3d6000fd5b505050506040513d601f19601f82011682018060405250810190612b4a919061439c565b9050612b616001600160a01b0382168460006136da565b612b756001600160a01b03821684896136da565b604051636455bf6f60e01b815260048101839052602481018890526001600160a01b03841690636455bf6f90604401602060405180830381600087803b158015612bbe57600080fd5b505af1158015612bd2573d6000803e3d6000fd5b505050506040513d601f19601f82011682018060405250810190611e9991906144f4565b600080600080600080612c3e88888080601f0160208091040260200160405190810160405280939291908181526020018383808284376000920191909152506135d792505050565b9550955095509550955095506000600860019054906101000a90046001600160a01b03166001600160a01b031663c45a01556040518163ffffffff1660e01b815260040160206040518083038186803b158015612c9a57600080fd5b505afa158015612cae573d6000803e3d6000fd5b505050506040513d601f19601f82011682018060405250810190612cd2919061439c565b6001600160a01b031663068bcd8d856040518263ffffffff1660e01b8152600401612cff91815260200190565b60206040518083038186803b158015612d1757600080fd5b505afa158015612d2b573d6000803e3d6000fd5b505050506040513d601f19601f82011682018060405250810190612d4f919061439c565b6001600160a01b031663fc0c546a6040518163ffffffff1660e01b815260040160206040518083038186803b158015612d8757600080fd5b505afa158015612d9b573d6000803e3d6000fd5b505050506040513d601f19601f82011682018060405250810190612dbf919061439c565b600c549091506001600160a01b0380831691161415612de65750600b546001600160a01b03165b612e6385876001600160a01b031663fc0c546a6040518163ffffffff1660e01b815260040160206040518083038186803b158015612e2357600080fd5b505afa158015612e37573d6000803e3d6000fd5b505050506040513d601f19601f82011682018060405250810190612e5b919061439c565b838d86613857565b995060008b9050612862604051806101000160405280846001600160a01b031681526020018361ffff1681526020018d8152602001600260009054906101000a90046001600160a01b03166001600160a01b031663c6bbd5a76040518163ffffffff1660e01b815260040160206040518083038186803b158015612ee657600080fd5b505afa158015612efa573d6000803e3d6000fd5b505050506040513d601f19601f82011682018060405250810190612f1e919061439c565b60405163d81e47d360e01b815261ffff861660048201526001600160a01b03919091169063d81e47d39060240160206040518083038186803b158015612f6357600080fd5b505afa158015612f77573d6000803e3d6000fd5b505050506040513d601f19601f82011682018060405250810190612f9b91906144f4565b8152602001612faa8b8a6139ca565b81526001600160a01b0387166020820152600754600160801b90046001600160401b0316604082015260006060909101526125c1565b604080516001600160a01b0388811660208301528781168284015260608083018890526080830187905290851660a083015260c08083018590528351808403909101815260e083019093529161303d91600191906101000161461a565b60405160208183030381529060405290509695505050505050565b60208082015161ffff166000908152600490915260409020546001600160a01b0316806130985760405163fb7566d760e01b815260040160405180910390fd5b600060028360c001516001600160401b03166005546130b791906146a4565b60e0850151806130c85760006130ca565b845b604051602001613114949392919060f09490941b6001600160f01b03191684526002840192909252602283015260601b6bffffffffffffffffffffffff1916604282015260560190565b604051602081830303815290604052905082600001516001600160a01b0316636d1bb8f76040518163ffffffff1660e01b815260040160206040518083038186803b15801561316257600080fd5b505afa158015613176573d6000803e3d6000fd5b505050506040513d601f19601f8201168201806040525081019061319a919061439c565b6001600160a01b031663e7f0c59f8460600151308660200151866040516020016131c491906143db565b60408051601f19818403018152828252908a015160808b015160c08c015160a08d01516001600160e01b031960e08b901b16865261320b9796956000908d906004016147dc565b6000604051808303818588803b15801561322457600080fd5b505af1158015611e99573d6000803e3d6000fd5b600080600080600085806020019051810190613254919061474a565b805190975061326d91508701602090810190880161485a565b939a9299509097509550909350915050565b60008061328b83613a1b565b90925090506132a56001600160a01b0386168360006136da565b6132b96001600160a01b03861683866136da565b6040516320159ddd60e21b815260048101829052602481018590526001600160a01b03831690638056777490604401602060405180830381600087803b15801561330257600080fd5b505af1158015613316573d6000803e3d6000fd5b505050506040513d601f19601f8201168201806040525081019061333a91906144f4565b505050505050565b600080600080600061335386613238565b945094509450945094506000846001600160a01b031663fc0c546a6040518163ffffffff1660e01b815260040160206040518083038186803b15801561339857600080fd5b505afa1580156133ac573d6000803e3d6000fd5b505050506040513d601f19601f820116820180604052508101906133d0919061439c565b90506133df848a838b86613857565b6040516001627dd58f60e11b0319815261ffff8c1660048201529098508a906000906001600160a01b0388169063ff0454e29060240160206040518083038186803b15801561342d57600080fd5b505afa158015613441573d6000803e3d6000fd5b505050506040513d601f19601f82011682018060405250810190613465919061439c565b9050612862604051806101000160405280856001600160a01b031681526020018461ffff1681526020018c8152602001600260009054906101000a90046001600160a01b03166001600160a01b031663c6bbd5a76040518163ffffffff1660e01b815260040160206040518083038186803b1580156134e357600080fd5b505afa1580156134f7573d6000803e3d6000fd5b505050506040513d601f19601f8201168201806040525081019061351b919061439c565b60405163665471cd60e11b815261ffff871660048201526001600160a01b03919091169063cca8e39a9060240160206040518083038186803b15801561356057600080fd5b505afa158015613574573d6000803e3d6000fd5b505050506040513d601f19601f8201168201806040525081019061359891906144f4565b81526020016135a8848c8b613a54565b81526001600160a01b03881660208201526007546001600160401b031660408201526000606090910152613058565b600080600080600080868060200190518101906135f4919061474a565b805190985061360d9150880160209081019089016148bb565b949c939b5091995097509550909350915050565b60008054610100900460ff1615613668578160ff1660011480156136445750303b155b6136605760405162461bcd60e51b81526004016106f990614925565b506000919050565b60005460ff80841691161061368f5760405162461bcd60e51b81526004016106f990614925565b506000805460ff191660ff92909216919091179055600190565b600054610100900460ff166136d05760405162461bcd60e51b81526004016106f990614973565b6136d8613ab0565b565b8015806137635750604051636eb1769f60e11b81523060048201526001600160a01b03838116602483015284169063dd62ed3e9060440160206040518083038186803b15801561372957600080fd5b505afa15801561373d573d6000803e3d6000fd5b505050506040513d601f19601f8201168201806040525081019061376191906144f4565b155b6137ce5760405162461bcd60e51b815260206004820152603660248201527f5361666545524332303a20617070726f76652066726f6d206e6f6e2d7a65726f60448201527520746f206e6f6e2d7a65726f20616c6c6f77616e636560501b60648201526084016106f9565b604080516001600160a01b038416602482015260448082018490528251808303909101815260649091019091526020810180516001600160e01b031663095ea7b360e01b179052613820908490613add565b505050565b60008060008380602001905181019061383e919061474a565b80519095506125459150850160209081019086016149be565b600085815260036020526040812054801561387f576000878152600360205260408120559150815b60025460408051632b3297f960e01b815290516000926001600160a01b031691632b3297f9916004808301926020929190829003018186803b1580156138c457600080fd5b505afa1580156138d8573d6000803e3d6000fd5b505050506040513d601f19601f820116820180604052508101906138fc919061439c565b90506139136001600160a01b0388168260006136da565b6139276001600160a01b03881682876136da565b604051636ccb2b0160e01b81526001600160a01b03888116600483015287811660248301526044820187905260648201869052306084830152821690636ccb2b019060a401602060405180830381600087803b15801561398657600080fd5b505af115801561399a573d6000803e3d6000fd5b505050506040513d601f19601f820116820180604052508101906139be91906144f4565b98975050505050505050565b604080516001600160a01b03841660208201528082018390528151808203830181526060808301909352613a04916001919060800161461a565b604051602081830303815290604052905092915050565b60008082806020019051810190613a32919061474a565b8051909450613a4b915084016020908101908501614a01565b91509150915091565b604080516001600160a01b03858116602083015284168183015260608082018490528251808303820181526080830190935291613a97916002919060a00161461a565b60405160208183030381529060405290505b9392505050565b600054610100900460ff16613ad75760405162461bcd60e51b81526004016106f990614973565b60018055565b6000613b32826040518060400160405280602081526020017f5361666545524332303a206c6f772d6c6576656c2063616c6c206661696c6564815250856001600160a01b0316613baf9092919063ffffffff16565b8051909150156138205780806020019051810190613b5091906143b9565b6138205760405162461bcd60e51b815260206004820152602a60248201527f5361666545524332303a204552433230206f7065726174696f6e20646964206e6044820152691bdd081cdd58d8d9595960b21b60648201526084016106f9565b6060613bbe8484600085613bc6565b949350505050565b606082471015613c275760405162461bcd60e51b815260206004820152602660248201527f416464726573733a20696e73756666696369656e742062616c616e636520666f6044820152651c8818d85b1b60d21b60648201526084016106f9565b6001600160a01b0385163b613c7e5760405162461bcd60e51b815260206004820152601d60248201527f416464726573733a2063616c6c20746f206e6f6e2d636f6e747261637400000060448201526064016106f9565b600080866001600160a01b03168587604051613c9a9190614a2f565b60006040518083038185875af1925050503d8060008114613cd7576040519150601f19603f3d011682016040523d82523d6000602084013e613cdc565b606091505b5091509150613cec828286613cf7565b979650505050505050565b60608315613d06575081613aa9565b825115613d165782518084602001fd5b8160405162461bcd60e51b81526004016106f99190614352565b6001600160a01b0381168114613d4557600080fd5b50565b60008083601f840112613d5a57600080fd5b5081356001600160401b03811115613d7157600080fd5b602083019150836020828501011115613d8957600080fd5b9250929050565b60008060008060008060008060e0898b031215613dac57600080fd5b883597506020890135613dbe81613d30565b96506040890135613dce81613d30565b95506060890135613dde81613d30565b94506080890135935060a0890135925060c08901356001600160401b03811115613e0757600080fd5b613e138b828c01613d48565b999c989b5096995094979396929594505050565b61ffff81168114613d4557600080fd5b6001600160401b0381168114613d4557600080fd5b600080600080600080600080600060c08a8c031215613e6a57600080fd5b8935613e7581613e27565b985060208a01356001600160401b0380821115613e9157600080fd5b613e9d8d838e01613d48565b909a50985060408c01359150613eb282613e37565b90965060608b01359080821115613ec857600080fd5b613ed48d838e01613d48565b909750955060808c0135945060a08c0135915080821115613ef457600080fd5b50613f018c828d01613d48565b915080935050809150509295985092959850929598565b600060208284031215613f2a57600080fd5b5035919050565b600060208284031215613f4357600080fd5b8135613aa981613e37565b600060208284031215613f6057600080fd5b8135613aa981613d30565b60008060408385031215613f7e57600080fd5b8235613f8981613d30565b946020939093013593505050565b600080600080600080600080600060e08a8c031215613fb557600080fd5b8935613fc081613e27565b985060208a01356001600160401b0380821115613fdc57600080fd5b613fe88d838e01613d48565b909a50985060408c01359150613ffd82613e37565b90965060608b01359061400f82613d30565b90955060808b0135945060a08b0135908082111561402c57600080fd5b506140398c828d01613d48565b9a9d999c50979a9699959894979660c00135949350505050565b6000806040838503121561406657600080fd5b823561407181613e27565b9150602083013561408181613d30565b809150509250929050565b634e487b7160e01b600052604160045260246000fd5b604051601f8201601f191681016001600160401b03811182821017156140ca576140ca61408c565b604052919050565b60006001600160401b038211156140eb576140eb61408c565b50601f01601f191660200190565b600082601f83011261410a57600080fd5b813561411d614118826140d2565b6140a2565b81815284602083860101111561413257600080fd5b816020850160208301376000918101602001919091529392505050565b60008060008060008060c0878903121561416857600080fd5b863561417381613e27565b955060208701356001600160401b038082111561418f57600080fd5b61419b8a838b016140f9565b965060408901359550606089013591506141b482613d30565b9093506080880135925060a088013590808211156141d157600080fd5b506141de89828a016140f9565b9150509295509295509295565b6000602082840312156141fd57600080fd5b8135613aa981613e27565b60008060008060008060008060c0898b03121561422457600080fd5b883561422f81613e27565b975060208901356001600160401b038082111561424b57600080fd5b6142578c838d01613d48565b909950975060408b0135915061426c82613e37565b90955060608a0135945060808a0135908082111561428957600080fd5b506142968b828c01613d48565b999c989b50969995989497949560a00135949350505050565b6000806000606084860312156142c457600080fd5b83356142cf81613d30565b925060208401356142df81613d30565b915060408401356142ef81613d30565b809150509250925092565b60005b838110156143155781810151838201526020016142fd565b838111156125175750506000910152565b6000815180845261433e8160208601602086016142fa565b601f01601f19169290920160200192915050565b602081526000613aa96020830184614326565b6020808252601f908201527f5265656e7472616e637947756172643a207265656e7472616e742063616c6c00604082015260600190565b6000602082840312156143ae57600080fd5b8151613aa981613d30565b6000602082840312156143cb57600080fd5b81518015158114613aa957600080fd5b60609190911b6bffffffffffffffffffffffff1916815260140190565b81835281816020850137506000828201602090810191909152601f909101601f19169091010190565b61ffff8816815260c06020820152600061443e60c0830189614326565b6001600160401b03881660408401526001600160a01b03871660608401526080830186905282810360a08401526144768185876143f8565b9a9950505050505050505050565b6bffffffffffffffffffffffff198360601b168152600082516144ae8160148501602087016142fa565b919091016014019392505050565b61ffff851681526060602082015260006144da6060830185876143f8565b90506001600160401b038316604083015295945050505050565b60006020828403121561450657600080fd5b5051919050565b61ffff8716815260a06020820152600061452b60a0830187896143f8565b6001600160401b03861660408401526001600160a01b0385166060840152828103608084015261455b8185614326565b9998505050505050505050565b61ffff8a16815260e06020820152600061458660e083018a8c6143f8565b6001600160401b038916604084015282810360608401526145a78189614326565b6001600160a01b038816608085015260a0840187905283810360c085015290506145d28185876143f8565b9c9b505050505050505050505050565b6000806000606084860312156145f757600080fd5b835161460281613e27565b6020850151604086015191945092506142ef81613e37565b60ff83168152604060208201526000613bbe6040830184614326565b634e487b7160e01b600052601160045260246000fd5b60008282101561465e5761465e614636565b500390565b600081600019048311821515161561467d5761467d614636565b500290565b60008261469f57634e487b7160e01b600052601260045260246000fd5b500490565b600082198211156146b7576146b7614636565b500190565b600061012061ffff8c1683528a602084015289604084015260018060a01b03891660608401528760808401528660a08401528060c084015285518184015250602085015161014083015260408501516060610160840152614721610180840182614326565b905082810360e08401526147358186614326565b90508281036101008401526145d28185614326565b6000806040838503121561475d57600080fd5b825160ff8116811461476e57600080fd5b60208401519092506001600160401b0381111561478a57600080fd5b8301601f8101851361479b57600080fd5b80516147a9614118826140d2565b8181528660208385010111156147be57600080fd5b6147cf8260208301602086016142fa565b8093505050509250929050565b6001600160a01b038a8116825261ffff8a1660208301526101206040830181905260009161480c8483018c614326565b91508960608501528382036080850152614826828a614326565b6001600160401b03891660a086015287821660c086015290861660e085015283810361010085015290506145d28185614326565b600080600080600060a0868803121561487257600080fd5b855161487d81613d30565b602087015190955061488e81613d30565b6040870151606088015191955093506148a681613d30565b80925050608086015190509295509295909350565b60008060008060008060c087890312156148d457600080fd5b86516148df81613d30565b60208801519096506148f081613d30565b809550506040870151935060608701519250608087015161491081613d30565b8092505060a087015190509295509295509295565b6020808252602e908201527f496e697469616c697a61626c653a20636f6e747261637420697320616c72656160408201526d191e481a5b9a5d1a585b1a5e995960921b606082015260800190565b6020808252602b908201527f496e697469616c697a61626c653a20636f6e7472616374206973206e6f74206960408201526a6e697469616c697a696e6760a81b606082015260800190565b6000806000606084860312156149d357600080fd5b83516149de81613d30565b60208501519093506149ef81613d30565b80925050604084015190509250925092565b60008060408385031215614a1457600080fd5b8251614a1f81613d30565b6020939093015192949293505050565b60008251614a418184602087016142fa565b919091019291505056fea26469706673582212205c2b013588d662f1788335f277c81bde3395dfcb769803875155cb83f22cf5e364736f6c63430008090033496e697469616c697a61626c653a20636f6e747261637420697320616c726561",
  "devdoc": {
    "kind": "dev",
    "methods": {
      "onOFTReceived(uint16,bytes,uint64,bytes,uint256,bytes)": {
        "details": "Token received are swapped to another token",
        "params": {
          "amount_": "The amount of tokens to transfer.",
          "from_": "The address of the account who calls the sendAndCall() on the source chain.",
          "payload_": "Additional data with no specified format.",
          "srcChainId_": "The chain id of the source chain."
        }
      },
      "retrySwapAndTriggerFlashRepayCallback(uint16,bytes,uint64,address,uint256,bytes,uint256)": {
        "params": {
          "amount_": "The amountIn of failed tx",
          "newAmountOutMin_": "If swap failed due to slippage, caller may send lower newAmountOutMin_",
          "nonce_": "The nonce of failed tx",
          "payload_": "The payload of failed tx",
          "srcAddress_": "The source path of failed tx",
          "srcChainId_": "The source chain of failed tx",
          "token_": "The token of failed tx"
        }
      },
      "retrySwapAndTriggerLeverageCallback(uint16,bytes,uint64,uint256,bytes,uint256)": {
        "params": {
          "amount_": "The amountIn of failed tx",
          "newAmountOutMin_": "If swap failed due to slippage, caller may send lower newAmountOutMin_",
          "nonce_": "The nonce of failed tx",
          "payload_": "The payload of failed tx",
          "srcAddress_": "The source path of failed tx",
          "srcChainId_": "The source chain of failed tx"
        }
      },
      "sgReceive(uint16,bytes,uint256,address,uint256,bytes)": {
        "params": {
          "amountLD_": "The qty of local _token contract tokens",
          "payload_": "The payload",
          "srcAddress_": "The remote Bridge address",
          "srcChainId_": "The chain id of the source chain.",
          "token_": "The token contract on the local chain"
        }
      },
      "toggleDestinationChainIsActive(uint16)": {
        "details": "Use LZ chain id"
      },
      "updateStargatePoolIdOf(address,uint256)": {
        "details": "Use LZ ids (https://stargateprotocol.gitbook.io/stargate/developers/pool-ids)"
      }
    },
    "stateVariables": {
      "LZ_ADAPTER_PARAMS_VERSION": {
        "details": "LayerZero adapter param version See more: https://layerzero.gitbook.io/docs/evm-guides/advanced/relayer-adapter-parameters"
      }
    },
    "title": "Cross-chain dispatcher",
    "version": 1
  },
  "userdoc": {
    "events": {
      "BridgingIsActiveUpdated(bool)": {
        "notice": "Emitted when flag for pause bridge transfer is toggled"
      },
      "CrossChainDispatcherUpdated(uint16,address,address)": {
        "notice": "Emitted when a Cross-chain dispatcher mapping is updated"
      },
      "DestinationChainIsSupportedUpdated(uint16,bool)": {
        "notice": "Emitted when flag for support chain is toggled"
      },
      "FlashRepayCallbackTxGasLimitUpdated(uint64,uint64)": {
        "notice": "Emitted when flash repay callback gas limit is updated"
      },
      "FlashRepaySwapTxGasLimitUpdated(uint64,uint64)": {
        "notice": "Emitted when underlying->synth L1 swap gas limit is updated"
      },
      "LeverageCallbackTxGasLimitUpdated(uint64,uint64)": {
        "notice": "Emitted when leverage callback gas limit is updated"
      },
      "LeverageSwapTxGasLimitUpdated(uint64,uint64)": {
        "notice": "Emitted when synth->underlying L1 swap gas limit is updated"
      },
      "LzBaseGasLimitUpdated(uint256,uint256)": {
        "notice": "Emitted when Lz base gas limit updated"
      },
      "StargateComposerUpdated(address,address)": {
        "notice": "Emitted when Stargate composer is updated"
      },
      "StargatePoolIdUpdated(address,uint256,uint256)": {
        "notice": "Emitted when Stargate pool id is updated"
      },
      "StargateSlippageUpdated(uint256,uint256)": {
        "notice": "Emitted when Stargate slippage is updated"
      }
    },
    "kind": "user",
    "methods": {
      "crossChainDispatcherOf(uint16)": {
        "notice": "Maps other chains `CrossChainDispatcher` contracts"
      },
      "flashRepayCallbackTxGasLimit()": {
        "notice": "The gas limit to cover `_crossChainFlashRepayCallback()` call"
      },
      "flashRepaySwapTxGasLimit()": {
        "notice": "The gas limit to cover `_swapAndTriggerFlashRepayCallback()` call"
      },
      "isBridgingActive()": {
        "notice": "Flag that pause/unpause all cross-chain activities"
      },
      "isDestinationChainSupported(uint16)": {
        "notice": "Maps supported cross-chain routes (i.e. which chains are allowed to be used as source of liquidity)"
      },
      "leverageCallbackTxGasLimit()": {
        "notice": "The gas limit to cover `_crossChainLeverageCallback()` call"
      },
      "leverageSwapTxGasLimit()": {
        "notice": "The gas limit to cover `_swapAndTriggerLeverageCallback()` call"
      },
      "lzBaseGasLimit()": {
        "notice": "The base gas to pay for cross-chain calls"
      },
      "onOFTReceived(uint16,bytes,uint64,bytes,uint256,bytes)": {
        "notice": "Called by the OFT contract when tokens are received from source chain."
      },
      "poolRegistry()": {
        "notice": "The pool registry contract"
      },
      "retrySwapAndTriggerFlashRepayCallback(uint16,bytes,uint64,address,uint256,bytes,uint256)": {
        "notice": "Retry swap underlying and trigger callback."
      },
      "retrySwapAndTriggerLeverageCallback(uint16,bytes,uint64,uint256,bytes,uint256)": {
        "notice": "Retry swap and trigger callback."
      },
      "sgReceive(uint16,bytes,uint256,address,uint256,bytes)": {
        "notice": "Receive token and payload from Stargate"
      },
      "sgeth()": {
        "notice": "SGETH contract"
      },
      "stargateComposer()": {
        "notice": "The Stargate Router contract"
      },
      "stargatePoolIdOf(address)": {
        "notice": "Maps Stargate's token pools"
      },
      "stargateSlippage()": {
        "notice": "The slippage we're willing to accept for SG like:like transfers"
      },
      "swapAmountOutMin(uint256)": {
        "notice": "Overwritten swap slippage params"
      },
      "toggleBridgingIsActive()": {
        "notice": "Pause/Unpause bridge transfers"
      },
      "toggleDestinationChainIsActive(uint16)": {
        "notice": "Allow/Disallow destination chain"
      },
      "updateCrossChainDispatcherOf(uint16,address)": {
        "notice": "Update Cross-chain dispatcher mapping"
      },
      "updateFlashRepayCallbackTxGasLimit(uint64)": {
        "notice": "Update flash repay callback tx gas limit"
      },
      "updateFlashRepaySwapTxGasLimit(uint64)": {
        "notice": "Update flash repay swap tx gas limit"
      },
      "updateLeverageCallbackTxGasLimit(uint64)": {
        "notice": "Update leverage callback tx gas limit"
      },
      "updateLeverageSwapTxGasLimit(uint64)": {
        "notice": "Update leverage swap tx gas limit"
      },
      "updateLzBaseGasLimit(uint256)": {
        "notice": "Update Lz base gas limit"
      },
      "updateStargateComposer(address)": {
        "notice": "Update StargateComposer"
      },
      "updateStargatePoolIdOf(address,uint256)": {
        "notice": "Update Stargate pool id of token."
      },
      "updateStargateSlippage(uint256)": {
        "notice": "Update Stargate slippage"
      },
      "weth()": {
        "notice": "WETH contract"
      }
    },
    "version": 1
  },
  "storageLayout": {
    "storage": [
      {
        "astId": 19524,
        "contract": "contracts/CrossChainDispatcher.sol:CrossChainDispatcher",
        "label": "_initialized",
        "offset": 0,
        "slot": "0",
        "type": "t_uint8"
      },
      {
        "astId": 19527,
        "contract": "contracts/CrossChainDispatcher.sol:CrossChainDispatcher",
        "label": "_initializing",
        "offset": 1,
        "slot": "0",
        "type": "t_bool"
      },
      {
        "astId": 33343,
        "contract": "contracts/CrossChainDispatcher.sol:CrossChainDispatcher",
        "label": "_status",
        "offset": 0,
        "slot": "1",
        "type": "t_uint256"
      },
      {
        "astId": 30595,
        "contract": "contracts/CrossChainDispatcher.sol:CrossChainDispatcher",
        "label": "poolRegistry",
        "offset": 0,
        "slot": "2",
        "type": "t_contract(IPoolRegistry)27770"
      },
      {
        "astId": 30600,
        "contract": "contracts/CrossChainDispatcher.sol:CrossChainDispatcher",
        "label": "swapAmountOutMin",
        "offset": 0,
        "slot": "3",
        "type": "t_mapping(t_uint256,t_uint256)"
      },
      {
        "astId": 30605,
        "contract": "contracts/CrossChainDispatcher.sol:CrossChainDispatcher",
        "label": "crossChainDispatcherOf",
        "offset": 0,
        "slot": "4",
        "type": "t_mapping(t_uint16,t_address)"
      },
      {
        "astId": 30608,
        "contract": "contracts/CrossChainDispatcher.sol:CrossChainDispatcher",
        "label": "lzBaseGasLimit",
        "offset": 0,
        "slot": "5",
        "type": "t_uint256"
      },
      {
        "astId": 30611,
        "contract": "contracts/CrossChainDispatcher.sol:CrossChainDispatcher",
        "label": "stargateSlippage",
        "offset": 0,
        "slot": "6",
        "type": "t_uint256"
      },
      {
        "astId": 30614,
        "contract": "contracts/CrossChainDispatcher.sol:CrossChainDispatcher",
        "label": "flashRepayCallbackTxGasLimit",
        "offset": 0,
        "slot": "7",
        "type": "t_uint64"
      },
      {
        "astId": 30617,
        "contract": "contracts/CrossChainDispatcher.sol:CrossChainDispatcher",
        "label": "flashRepaySwapTxGasLimit",
        "offset": 8,
        "slot": "7",
        "type": "t_uint64"
      },
      {
        "astId": 30620,
        "contract": "contracts/CrossChainDispatcher.sol:CrossChainDispatcher",
        "label": "leverageCallbackTxGasLimit",
        "offset": 16,
        "slot": "7",
        "type": "t_uint64"
      },
      {
        "astId": 30623,
        "contract": "contracts/CrossChainDispatcher.sol:CrossChainDispatcher",
        "label": "leverageSwapTxGasLimit",
        "offset": 24,
        "slot": "7",
        "type": "t_uint64"
      },
      {
        "astId": 30626,
        "contract": "contracts/CrossChainDispatcher.sol:CrossChainDispatcher",
        "label": "isBridgingActive",
        "offset": 0,
        "slot": "8",
        "type": "t_bool"
      },
      {
        "astId": 30630,
        "contract": "contracts/CrossChainDispatcher.sol:CrossChainDispatcher",
        "label": "stargateComposer",
        "offset": 1,
        "slot": "8",
        "type": "t_contract(IStargateComposer)26671"
      },
      {
        "astId": 30635,
        "contract": "contracts/CrossChainDispatcher.sol:CrossChainDispatcher",
        "label": "stargatePoolIdOf",
        "offset": 0,
        "slot": "9",
        "type": "t_mapping(t_address,t_uint256)"
      },
      {
        "astId": 30640,
        "contract": "contracts/CrossChainDispatcher.sol:CrossChainDispatcher",
        "label": "isDestinationChainSupported",
        "offset": 0,
        "slot": "10",
        "type": "t_mapping(t_uint16,t_bool)"
      },
      {
        "astId": 30643,
        "contract": "contracts/CrossChainDispatcher.sol:CrossChainDispatcher",
        "label": "weth",
        "offset": 0,
        "slot": "11",
        "type": "t_address"
      },
      {
        "astId": 30646,
        "contract": "contracts/CrossChainDispatcher.sol:CrossChainDispatcher",
        "label": "sgeth",
        "offset": 0,
        "slot": "12",
        "type": "t_address"
      }
    ],
    "types": {
      "t_address": {
        "encoding": "inplace",
        "label": "address",
        "numberOfBytes": "20"
      },
      "t_bool": {
        "encoding": "inplace",
        "label": "bool",
        "numberOfBytes": "1"
      },
      "t_contract(IPoolRegistry)27770": {
        "encoding": "inplace",
        "label": "contract IPoolRegistry",
        "numberOfBytes": "20"
      },
      "t_contract(IStargateComposer)26671": {
        "encoding": "inplace",
        "label": "contract IStargateComposer",
        "numberOfBytes": "20"
      },
      "t_mapping(t_address,t_uint256)": {
        "encoding": "mapping",
        "key": "t_address",
        "label": "mapping(address => uint256)",
        "numberOfBytes": "32",
        "value": "t_uint256"
      },
      "t_mapping(t_uint16,t_address)": {
        "encoding": "mapping",
        "key": "t_uint16",
        "label": "mapping(uint16 => address)",
        "numberOfBytes": "32",
        "value": "t_address"
      },
      "t_mapping(t_uint16,t_bool)": {
        "encoding": "mapping",
        "key": "t_uint16",
        "label": "mapping(uint16 => bool)",
        "numberOfBytes": "32",
        "value": "t_bool"
      },
      "t_mapping(t_uint256,t_uint256)": {
        "encoding": "mapping",
        "key": "t_uint256",
        "label": "mapping(uint256 => uint256)",
        "numberOfBytes": "32",
        "value": "t_uint256"
      },
      "t_uint16": {
        "encoding": "inplace",
        "label": "uint16",
        "numberOfBytes": "2"
      },
      "t_uint256": {
        "encoding": "inplace",
        "label": "uint256",
        "numberOfBytes": "32"
      },
      "t_uint64": {
        "encoding": "inplace",
        "label": "uint64",
        "numberOfBytes": "8"
      },
      "t_uint8": {
        "encoding": "inplace",
        "label": "uint8",
        "numberOfBytes": "1"
      }
    }
  }
}