{
  "address": "0x82a9C9F5ffE06F2E5F403b8f90e13388c6C07085",
  "abi": [
    {
      "inputs": [],
      "name": "AllowanceNotSupported",
      "type": "error"
    },
    {
      "inputs": [],
      "name": "AmountIsZero",
      "type": "error"
    },
    {
      "inputs": [],
      "name": "ApprovalNotSupported",
      "type": "error"
    },
    {
      "inputs": [],
      "name": "BurnAmountExceedsBalance",
      "type": "error"
    },
    {
      "inputs": [],
      "name": "BurnFromNullAddress",
      "type": "error"
    },
    {
      "inputs": [],
      "name": "DebtLowerThanTheFloor",
      "type": "error"
    },
    {
      "inputs": [],
      "name": "DebtTokenInactive",
      "type": "error"
    },
    {
      "inputs": [],
      "name": "FallbackIsNotAllowed",
      "type": "error"
    },
    {
      "inputs": [],
      "name": "IsShutdown",
      "type": "error"
    },
    {
      "inputs": [],
      "name": "MintToNullAddress",
      "type": "error"
    },
    {
      "inputs": [],
      "name": "NameIsNull",
      "type": "error"
    },
    {
      "inputs": [],
      "name": "NewValueIsSameAsCurrent",
      "type": "error"
    },
    {
      "inputs": [],
      "name": "NotEnoughCollateral",
      "type": "error"
    },
    {
      "inputs": [],
      "name": "PoolAddressIsNull",
      "type": "error"
    },
    {
      "inputs": [],
      "name": "PoolIsNull",
      "type": "error"
    },
    {
      "inputs": [],
      "name": "ReceiveIsNotAllowed",
      "type": "error"
    },
    {
      "inputs": [],
      "name": "RemainingDebtIsLowerThanTheFloor",
      "type": "error"
    },
    {
      "inputs": [],
      "name": "SenderIsNotGovernor",
      "type": "error"
    },
    {
      "inputs": [],
      "name": "SenderIsNotPool",
      "type": "error"
    },
    {
      "inputs": [],
      "name": "SurpassMaxDebtSupply",
      "type": "error"
    },
    {
      "inputs": [],
      "name": "SymbolIsNull",
      "type": "error"
    },
    {
      "inputs": [],
      "name": "SyntheticDoesNotExist",
      "type": "error"
    },
    {
      "inputs": [],
      "name": "SyntheticIsInactive",
      "type": "error"
    },
    {
      "inputs": [],
      "name": "SyntheticIsNull",
      "type": "error"
    },
    {
      "inputs": [],
      "name": "TransferNotSupported",
      "type": "error"
    },
    {
      "anonymous": false,
      "inputs": [
        {
          "indexed": true,
          "internalType": "address",
          "name": "owner",
          "type": "address"
        },
        {
          "indexed": true,
          "internalType": "address",
          "name": "spender",
          "type": "address"
        },
        {
          "indexed": false,
          "internalType": "uint256",
          "name": "value",
          "type": "uint256"
        }
      ],
      "name": "Approval",
      "type": "event"
    },
    {
      "anonymous": false,
      "inputs": [
        {
          "indexed": true,
          "internalType": "address",
          "name": "payer",
          "type": "address"
        },
        {
          "indexed": true,
          "internalType": "address",
          "name": "account",
          "type": "address"
        },
        {
          "indexed": false,
          "internalType": "uint256",
          "name": "amount",
          "type": "uint256"
        },
        {
          "indexed": false,
          "internalType": "uint256",
          "name": "repaid",
          "type": "uint256"
        },
        {
          "indexed": false,
          "internalType": "uint256",
          "name": "fee",
          "type": "uint256"
        }
      ],
      "name": "DebtRepaid",
      "type": "event"
    },
    {
      "anonymous": false,
      "inputs": [
        {
          "indexed": false,
          "internalType": "bool",
          "name": "newActive",
          "type": "bool"
        }
      ],
      "name": "DebtTokenActiveUpdated",
      "type": "event"
    },
    {
      "anonymous": false,
      "inputs": [
        {
          "indexed": false,
          "internalType": "uint256",
          "name": "oldInterestRate",
          "type": "uint256"
        },
        {
          "indexed": false,
          "internalType": "uint256",
          "name": "newInterestRate",
          "type": "uint256"
        }
      ],
      "name": "InterestRateUpdated",
      "type": "event"
    },
    {
      "anonymous": false,
      "inputs": [
        {
          "indexed": false,
          "internalType": "uint256",
          "name": "oldMaxTotalSupply",
          "type": "uint256"
        },
        {
          "indexed": false,
          "internalType": "uint256",
          "name": "newMaxTotalSupply",
          "type": "uint256"
        }
      ],
      "name": "MaxTotalSupplyUpdated",
      "type": "event"
    },
    {
      "anonymous": false,
      "inputs": [
        {
          "indexed": true,
          "internalType": "address",
          "name": "account",
          "type": "address"
        },
        {
          "indexed": true,
          "internalType": "address",
          "name": "to",
          "type": "address"
        },
        {
          "indexed": false,
          "internalType": "uint256",
          "name": "amount",
          "type": "uint256"
        },
        {
          "indexed": false,
          "internalType": "uint256",
          "name": "issued",
          "type": "uint256"
        },
        {
          "indexed": false,
          "internalType": "uint256",
          "name": "fee",
          "type": "uint256"
        }
      ],
      "name": "SyntheticTokenIssued",
      "type": "event"
    },
    {
      "anonymous": false,
      "inputs": [
        {
          "indexed": true,
          "internalType": "address",
          "name": "from",
          "type": "address"
        },
        {
          "indexed": true,
          "internalType": "address",
          "name": "to",
          "type": "address"
        },
        {
          "indexed": false,
          "internalType": "uint256",
          "name": "value",
          "type": "uint256"
        }
      ],
      "name": "Transfer",
      "type": "event"
    },
    {
      "stateMutability": "payable",
      "type": "fallback"
    },
    {
      "inputs": [],
      "name": "SECONDS_PER_YEAR",
      "outputs": [
        {
          "internalType": "uint256",
          "name": "",
          "type": "uint256"
        }
      ],
      "stateMutability": "view",
      "type": "function"
    },
    {
      "inputs": [],
      "name": "VERSION",
      "outputs": [
        {
          "internalType": "string",
          "name": "",
          "type": "string"
        }
      ],
      "stateMutability": "view",
      "type": "function"
    },
    {
      "inputs": [],
      "name": "accrueInterest",
      "outputs": [],
      "stateMutability": "nonpayable",
      "type": "function"
    },
    {
      "inputs": [
        {
          "internalType": "address",
          "name": "",
          "type": "address"
        },
        {
          "internalType": "address",
          "name": "",
          "type": "address"
        }
      ],
      "name": "allowance",
      "outputs": [
        {
          "internalType": "uint256",
          "name": "",
          "type": "uint256"
        }
      ],
      "stateMutability": "pure",
      "type": "function"
    },
    {
      "inputs": [
        {
          "internalType": "address",
          "name": "",
          "type": "address"
        },
        {
          "internalType": "uint256",
          "name": "",
          "type": "uint256"
        }
      ],
      "name": "approve",
      "outputs": [
        {
          "internalType": "bool",
          "name": "",
          "type": "bool"
        }
      ],
      "stateMutability": "nonpayable",
      "type": "function"
    },
    {
      "inputs": [
        {
          "internalType": "address",
          "name": "account_",
          "type": "address"
        }
      ],
      "name": "balanceOf",
      "outputs": [
        {
          "internalType": "uint256",
          "name": "",
          "type": "uint256"
        }
      ],
      "stateMutability": "view",
      "type": "function"
    },
    {
      "inputs": [
        {
          "internalType": "address",
          "name": "from_",
          "type": "address"
        },
        {
          "internalType": "uint256",
          "name": "amount_",
          "type": "uint256"
        }
      ],
      "name": "burn",
      "outputs": [],
      "stateMutability": "nonpayable",
      "type": "function"
    },
    {
      "inputs": [],
      "name": "collectPendingInterestFee",
      "outputs": [],
      "stateMutability": "nonpayable",
      "type": "function"
    },
    {
      "inputs": [],
      "name": "debtIndex",
      "outputs": [
        {
          "internalType": "uint256",
          "name": "",
          "type": "uint256"
        }
      ],
      "stateMutability": "view",
      "type": "function"
    },
    {
      "inputs": [],
      "name": "decimals",
      "outputs": [
        {
          "internalType": "uint8",
          "name": "",
          "type": "uint8"
        }
      ],
      "stateMutability": "view",
      "type": "function"
    },
    {
      "inputs": [
        {
          "internalType": "address",
          "name": "borrower_",
          "type": "address"
        },
        {
          "internalType": "uint256",
          "name": "amount_",
          "type": "uint256"
        }
      ],
      "name": "flashIssue",
      "outputs": [
        {
          "internalType": "uint256",
          "name": "_issued",
          "type": "uint256"
        },
        {
          "internalType": "uint256",
          "name": "_fee",
          "type": "uint256"
        }
      ],
      "stateMutability": "nonpayable",
      "type": "function"
    },
    {
      "inputs": [],
      "name": "governor",
      "outputs": [
        {
          "internalType": "address",
          "name": "_governor",
          "type": "address"
        }
      ],
      "stateMutability": "view",
      "type": "function"
    },
    {
      "inputs": [
        {
          "internalType": "string",
          "name": "name_",
          "type": "string"
        },
        {
          "internalType": "string",
          "name": "symbol_",
          "type": "string"
        },
        {
          "internalType": "contract IPool",
          "name": "pool_",
          "type": "address"
        },
        {
          "internalType": "contract ISyntheticToken",
          "name": "syntheticToken_",
          "type": "address"
        },
        {
          "internalType": "uint256",
          "name": "interestRate_",
          "type": "uint256"
        },
        {
          "internalType": "uint256",
          "name": "maxTotalSupply_",
          "type": "uint256"
        }
      ],
      "name": "initialize",
      "outputs": [],
      "stateMutability": "nonpayable",
      "type": "function"
    },
    {
      "inputs": [],
      "name": "interestRate",
      "outputs": [
        {
          "internalType": "uint256",
          "name": "",
          "type": "uint256"
        }
      ],
      "stateMutability": "view",
      "type": "function"
    },
    {
      "inputs": [],
      "name": "interestRatePerSecond",
      "outputs": [
        {
          "internalType": "uint256",
          "name": "",
          "type": "uint256"
        }
      ],
      "stateMutability": "view",
      "type": "function"
    },
    {
      "inputs": [],
      "name": "isActive",
      "outputs": [
        {
          "internalType": "bool",
          "name": "",
          "type": "bool"
        }
      ],
      "stateMutability": "view",
      "type": "function"
    },
    {
      "inputs": [
        {
          "internalType": "uint256",
          "name": "amount_",
          "type": "uint256"
        },
        {
          "internalType": "address",
          "name": "to_",
          "type": "address"
        }
      ],
      "name": "issue",
      "outputs": [
        {
          "internalType": "uint256",
          "name": "_issued",
          "type": "uint256"
        },
        {
          "internalType": "uint256",
          "name": "_fee",
          "type": "uint256"
        }
      ],
      "stateMutability": "nonpayable",
      "type": "function"
    },
    {
      "inputs": [],
      "name": "lastTimestampAccrued",
      "outputs": [
        {
          "internalType": "uint256",
          "name": "",
          "type": "uint256"
        }
      ],
      "stateMutability": "view",
      "type": "function"
    },
    {
      "inputs": [],
      "name": "maxTotalSupply",
      "outputs": [
        {
          "internalType": "uint256",
          "name": "",
          "type": "uint256"
        }
      ],
      "stateMutability": "view",
      "type": "function"
    },
    {
      "inputs": [],
      "name": "name",
      "outputs": [
        {
          "internalType": "string",
          "name": "",
          "type": "string"
        }
      ],
      "stateMutability": "view",
      "type": "function"
    },
    {
      "inputs": [],
      "name": "pendingInterestFee",
      "outputs": [
        {
          "internalType": "uint256",
          "name": "",
          "type": "uint256"
        }
      ],
      "stateMutability": "view",
      "type": "function"
    },
    {
      "inputs": [],
      "name": "pool",
      "outputs": [
        {
          "internalType": "contract IPool",
          "name": "",
          "type": "address"
        }
      ],
      "stateMutability": "view",
      "type": "function"
    },
    {
      "inputs": [
        {
          "internalType": "uint256",
          "name": "amountToIssue_",
          "type": "uint256"
        }
      ],
      "name": "quoteIssueIn",
      "outputs": [
        {
          "internalType": "uint256",
          "name": "_amount",
          "type": "uint256"
        },
        {
          "internalType": "uint256",
          "name": "_fee",
          "type": "uint256"
        }
      ],
      "stateMutability": "view",
      "type": "function"
    },
    {
      "inputs": [
        {
          "internalType": "uint256",
          "name": "amount_",
          "type": "uint256"
        }
      ],
      "name": "quoteIssueOut",
      "outputs": [
        {
          "internalType": "uint256",
          "name": "_amountToIssue",
          "type": "uint256"
        },
        {
          "internalType": "uint256",
          "name": "_fee",
          "type": "uint256"
        }
      ],
      "stateMutability": "view",
      "type": "function"
    },
    {
      "inputs": [
        {
          "internalType": "uint256",
          "name": "amountToRepay_",
          "type": "uint256"
        }
      ],
      "name": "quoteRepayIn",
      "outputs": [
        {
          "internalType": "uint256",
          "name": "_amount",
          "type": "uint256"
        },
        {
          "internalType": "uint256",
          "name": "_fee",
          "type": "uint256"
        }
      ],
      "stateMutability": "view",
      "type": "function"
    },
    {
      "inputs": [
        {
          "internalType": "uint256",
          "name": "amount_",
          "type": "uint256"
        }
      ],
      "name": "quoteRepayOut",
      "outputs": [
        {
          "internalType": "uint256",
          "name": "_amountToRepay",
          "type": "uint256"
        },
        {
          "internalType": "uint256",
          "name": "_fee",
          "type": "uint256"
        }
      ],
      "stateMutability": "view",
      "type": "function"
    },
    {
      "inputs": [
        {
          "internalType": "address",
          "name": "onBehalfOf_",
          "type": "address"
        },
        {
          "internalType": "uint256",
          "name": "amount_",
          "type": "uint256"
        }
      ],
      "name": "repay",
      "outputs": [
        {
          "internalType": "uint256",
          "name": "_repaid",
          "type": "uint256"
        },
        {
          "internalType": "uint256",
          "name": "_fee",
          "type": "uint256"
        }
      ],
      "stateMutability": "nonpayable",
      "type": "function"
    },
    {
      "inputs": [
        {
          "internalType": "address",
          "name": "onBehalfOf_",
          "type": "address"
        }
      ],
      "name": "repayAll",
      "outputs": [
        {
          "internalType": "uint256",
          "name": "_repaid",
          "type": "uint256"
        },
        {
          "internalType": "uint256",
          "name": "_fee",
          "type": "uint256"
        }
      ],
      "stateMutability": "nonpayable",
      "type": "function"
    },
    {
      "inputs": [
        {
          "internalType": "contract IERC20",
          "name": "token_",
          "type": "address"
        },
        {
          "internalType": "address",
          "name": "to_",
          "type": "address"
        },
        {
          "internalType": "uint256",
          "name": "amount_",
          "type": "uint256"
        }
      ],
      "name": "sweep",
      "outputs": [],
      "stateMutability": "nonpayable",
      "type": "function"
    },
    {
      "inputs": [],
      "name": "symbol",
      "outputs": [
        {
          "internalType": "string",
          "name": "",
          "type": "string"
        }
      ],
      "stateMutability": "view",
      "type": "function"
    },
    {
      "inputs": [],
      "name": "syntheticToken",
      "outputs": [
        {
          "internalType": "contract ISyntheticToken",
          "name": "",
          "type": "address"
        }
      ],
      "stateMutability": "view",
      "type": "function"
    },
    {
      "inputs": [],
      "name": "toggleIsActive",
      "outputs": [],
      "stateMutability": "nonpayable",
      "type": "function"
    },
    {
      "inputs": [],
      "name": "totalSupply",
      "outputs": [
        {
          "internalType": "uint256",
          "name": "",
          "type": "uint256"
        }
      ],
      "stateMutability": "view",
      "type": "function"
    },
    {
      "inputs": [
        {
          "internalType": "address",
          "name": "",
          "type": "address"
        },
        {
          "internalType": "uint256",
          "name": "",
          "type": "uint256"
        }
      ],
      "name": "transfer",
      "outputs": [
        {
          "internalType": "bool",
          "name": "",
          "type": "bool"
        }
      ],
      "stateMutability": "nonpayable",
      "type": "function"
    },
    {
      "inputs": [
        {
          "internalType": "address",
          "name": "",
          "type": "address"
        },
        {
          "internalType": "address",
          "name": "",
          "type": "address"
        },
        {
          "internalType": "uint256",
          "name": "",
          "type": "uint256"
        }
      ],
      "name": "transferFrom",
      "outputs": [
        {
          "internalType": "bool",
          "name": "",
          "type": "bool"
        }
      ],
      "stateMutability": "nonpayable",
      "type": "function"
    },
    {
      "inputs": [
        {
          "internalType": "uint256",
          "name": "newInterestRate_",
          "type": "uint256"
        }
      ],
      "name": "updateInterestRate",
      "outputs": [],
      "stateMutability": "nonpayable",
      "type": "function"
    },
    {
      "inputs": [
        {
          "internalType": "uint256",
          "name": "newMaxTotalSupply_",
          "type": "uint256"
        }
      ],
      "name": "updateMaxTotalSupply",
      "outputs": [],
      "stateMutability": "nonpayable",
      "type": "function"
    },
    {
      "stateMutability": "payable",
      "type": "receive"
    }
  ],
  "transactionHash": "0x1e8b958482cad509fa20e98caa57183bb5511b9eef4263815c2c293af94866ca",
  "args": [],
  "numDeployments": 1,
  "solcInputHash": "39157ddb13861b2afdd6feacda57f5f0",
  "bytecode": "0x608060405234801561001057600080fd5b50613858806100206000396000f3fe60806040526004361061021e5760003560e01c8063752a50a611610123578063b696a6ad116100ab578063d38f2ba91161006f578063d38f2ba914610647578063d7da606614610667578063dd62ed3e1461067d578063e6a69ab81461069d578063ffa1ad74146106b55761023c565b8063b696a6ad146105bc578063bb8c631f146105dc578063bfa17656146105f2578063c9dc4b4d14610612578063d2593329146106325761023c565b806395d89b41116100f257806395d89b41146105425780639cc820da146105575780639dc29fac1461056c578063a6afed951461058c578063a9059cbb146105a15761023c565b8063752a50a6146104cc5780637c27383b146104ec5780637c3a00fd1461050c5780638230ecd6146105225761023c565b80632ab4d052116101a65780634754d176116101755780634754d17614610436578063565f3d4f1461045657806362c067671461046c57806370a082311461048c57806374e87e1e146104ac5761023c565b80632ab4d052146103b85780632d4aeea1146103ce578063313ce567146103ee57806336248ab4146104215761023c565b8063172f50a4116101ed578063172f50a4146102fd57806318160ddd1461031f57806322867d781461034257806322f3e2d41461037757806323b872dd146103985761023c565b806306fdde0314610255578063095ea7b3146102805780630c340a24146102b057806316f0115b146102dd5761023c565b3661023c57604051636436c22d60e11b815260040160405180910390fd5b60405163a0152e6360e01b815260040160405180910390fd5b34801561026157600080fd5b5061026a6106e6565b6040516102779190613287565b60405180910390f35b34801561028c57600080fd5b506102a061029b3660046132cf565b610774565b6040519015158152602001610277565b3480156102bc57600080fd5b506102c561078f565b6040516001600160a01b039091168152602001610277565b3480156102e957600080fd5b506002546102c5906001600160a01b031681565b34801561030957600080fd5b5061031d6103183660046132fb565b610811565b005b34801561032b57600080fd5b506103346108ad565b604051908152602001610277565b34801561034e57600080fd5b5061036261035d3660046132cf565b6108d0565b60408051928352602083019190915201610277565b34801561038357600080fd5b50603d546102a090600160a01b900460ff1681565b3480156103a457600080fd5b506102a06103b3366004613314565b610df1565b3480156103c457600080fd5b5061033460385481565b3480156103da57600080fd5b506103626103e93660046132fb565b610e0c565b3480156103fa57600080fd5b50603d5461040f90600160a81b900460ff1681565b60405160ff9091168152602001610277565b34801561042d57600080fd5b5061031d610f45565b34801561044257600080fd5b506103626104513660046132fb565b61102e565b34801561046257600080fd5b50610334603a5481565b34801561047857600080fd5b5061031d610487366004613314565b611155565b34801561049857600080fd5b506103346104a7366004613355565b61118e565b3480156104b857600080fd5b5061031d6104c73660046133bb565b6111fa565b3480156104d857600080fd5b5061031d6104e73660046132fb565b6113ee565b3480156104f857600080fd5b50610362610507366004613355565b611492565b34801561051857600080fd5b50610334603c5481565b34801561052e57600080fd5b50603d546102c5906001600160a01b031681565b34801561054e57600080fd5b5061026a611812565b34801561056357600080fd5b5061033461181f565b34801561057857600080fd5b5061031d6105873660046132cf565b611833565b34801561059857600080fd5b5061031d61186c565b3480156105ad57600080fd5b506102a06103b33660046132cf565b3480156105c857600080fd5b506103626105d7366004613462565b6119b9565b3480156105e857600080fd5b50610334603b5481565b3480156105fe57600080fd5b5061036261060d3660046132cf565b611dd8565b34801561061e57600080fd5b5061036261062d3660046132fb565b61210b565b34801561063e57600080fd5b5061031d61222a565b34801561065357600080fd5b506103626106623660046132fb565b6122c4565b34801561067357600080fd5b50610334603e5481565b34801561068957600080fd5b50610334610698366004613492565b6123ee565b3480156106a957600080fd5b506103346301e187e081565b3480156106c157600080fd5b5061026a604051806040016040528060058152602001640312e322e360dc1b81525081565b603480546106f3906134c0565b80601f016020809104026020016040519081016040528092919081815260200182805461071f906134c0565b801561076c5780601f106107415761010080835404028352916020019161076c565b820191906000526020600020905b81548152906001019060200180831161074f57829003601f168201915b505050505081565b6000604051631b48e8f360e21b815260040160405180910390fd5b6002546040805163030d028960e21b815290516000926001600160a01b031691630c340a24916004808301926020929190829003018186803b1580156107d457600080fd5b505afa1580156107e8573d6000803e3d6000fd5b505050506040513d601f19601f8201168201806040525081019061080c919061350b565b905090565b61081961078f565b6001600160a01b0316336001600160a01b03161461084a57604051634b98449160e11b815260040160405180910390fd5b6038548181141561086e57604051630333a68160e41b815260040160405180910390fd5b60408051828152602081018490527fc58cd6132bb46df23d468939c03dd023b74b509aaa6b04c39d5a6461c65963bd910160405180910390a150603855565b6000806108b8612409565b50509050806039546108ca919061353e565b91505090565b600080600260009054906101000a90046001600160a01b03166001600160a01b031663ecf3a3f96040518163ffffffff1660e01b815260040160206040518083038186803b15801561092157600080fd5b505afa158015610935573d6000803e3d6000fd5b505050506040513d601f19601f820116820180604052508101906109599190613566565b1561097757604051631b0e923f60e11b815260040160405180910390fd5b600260015414156109a35760405162461bcd60e51b815260040161099a90613581565b60405180910390fd5b6002600181905554603d54604051631a0dd00b60e01b81526001600160a01b039182166004820152911690631a0dd00b9060240160206040518083038186803b1580156109ef57600080fd5b505afa158015610a03573d6000803e3d6000fd5b505050506040513d601f19601f82011682018060405250810190610a279190613566565b610a445760405163a596698b60e01b815260040160405180910390fd5b82610a62576040516310eb483f60e21b815260040160405180910390fd5b610a6a61186c565b600254603d546001600160a01b039182169116610a8685610e0c565b90945092508215610b7a57806001600160a01b031663b2a02ff133846001600160a01b031663c415b95c6040518163ffffffff1660e01b815260040160206040518083038186803b158015610ada57600080fd5b505afa158015610aee573d6000803e3d6000fd5b505050506040513d601f19601f82011682018060405250810190610b12919061350b565b6040516001600160e01b031960e085901b1681526001600160a01b0392831660048201529116602482015260448101869052606401600060405180830381600087803b158015610b6157600080fd5b505af1158015610b75573d6000803e3d6000fd5b505050505b6000826001600160a01b031663f60928096040518163ffffffff1660e01b815260040160206040518083038186803b158015610bb557600080fd5b505afa158015610bc9573d6000803e3d6000fd5b505050506040513d601f19601f82011682018060405250810190610bed91906135b8565b90508015610d29576000836001600160a01b031663eaada3826040518163ffffffff1660e01b815260040160206040518083038186803b158015610c3057600080fd5b505afa158015610c44573d6000803e3d6000fd5b505050506040513d601f19601f82011682018060405250810190610c68919061350b565b6001600160a01b0316638d0dba008488610c818c61118e565b610c8b91906135d1565b6040518363ffffffff1660e01b8152600401610ca89291906135e8565b60206040518083038186803b158015610cc057600080fd5b505afa158015610cd4573d6000803e3d6000fd5b505050506040513d601f19601f82011682018060405250810190610cf891906135b8565b9050600081118015610d0957508181105b15610d27576040516332b9d47360e01b815260040160405180910390fd5b505b604051632770a7eb60e21b81526001600160a01b03831690639dc29fac90610d5790339089906004016135e8565b600060405180830381600087803b158015610d7157600080fd5b505af1158015610d85573d6000803e3d6000fd5b50505050610d938786612479565b60408051878152602081018790529081018590526001600160a01b0388169033907fe02887340b03318642b6755f258294b795be42ed57d4b5d0ef27be3038d8a7649060600160405180910390a35050600180555090939092509050565b600060405163d21ad44b60e01b815260040160405180910390fd5b6000806000600260009054906101000a90046001600160a01b03166001600160a01b0316634066fdea6040518163ffffffff1660e01b815260040160206040518083038186803b158015610e5f57600080fd5b505afa158015610e73573d6000803e3d6000fd5b505050506040513d601f19601f82011682018060405250810190610e97919061350b565b6001600160a01b0316637c0f59f46040518163ffffffff1660e01b815260040160206040518083038186803b158015610ecf57600080fd5b505afa158015610ee3573d6000803e3d6000fd5b505050506040513d601f19601f82011682018060405250810190610f0791906135b8565b905080610f15575091929050565b610f31610f2a82670de0b6b3a764000061353e565b85906126f5565b9250610f3d83856135d1565b915050915091565b603e54801561102b57603d54600254604080516331056e5760e21b815290516001600160a01b03938416936340c10f1993169163c415b95c916004808301926020929190829003018186803b158015610f9d57600080fd5b505afa158015610fb1573d6000803e3d6000fd5b505050506040513d601f19601f82011682018060405250810190610fd5919061350b565b836040518363ffffffff1660e01b8152600401610ff39291906135e8565b600060405180830381600087803b15801561100d57600080fd5b505af1158015611021573d6000803e3d6000fd5b50506000603e5550505b50565b6000806000600260009054906101000a90046001600160a01b03166001600160a01b0316634066fdea6040518163ffffffff1660e01b815260040160206040518083038186803b15801561108157600080fd5b505afa158015611095573d6000803e3d6000fd5b505050506040513d601f19601f820116820180604052508101906110b9919061350b565b6001600160a01b0316632a9133c16040518163ffffffff1660e01b815260040160206040518083038186803b1580156110f157600080fd5b505afa158015611105573d6000803e3d6000fd5b505050506040513d601f19601f8201168201806040525081019061112991906135b8565b905080611137575091929050565b6111418482612732565b915061114d82856135d1565b925050915091565b61115d61276a565b6001600160a01b03831661117a5761117582826127a5565b505050565b6111756001600160a01b03841683836128be565b6001600160a01b038116600090815260366020526040812054806111b55750600092915050565b60006111bf612409565b506001600160a01b03861660009081526037602052604090205490925090506111e88284613601565b6111f29190613620565b949350505050565b600054610100900460ff1680611213575060005460ff16155b61122f5760405162461bcd60e51b815260040161099a90613642565b600054610100900460ff16158015611251576000805461ffff19166101011790555b8761126f57604051636e83f50760e01b815260040160405180910390fd5b8561128d576040516330507cff60e11b815260040160405180910390fd5b6001600160a01b0385166112b457604051633cb1fb1f60e11b815260040160405180910390fd5b6001600160a01b0384166112db5760405163013a1b4360e51b815260040160405180910390fd5b6112e3612914565b6112ec85612983565b6112f860348a8a6131be565b50611305603588886131be565b50836001600160a01b031663313ce5676040518163ffffffff1660e01b815260040160206040518083038186803b15801561133f57600080fd5b505afa158015611353573d6000803e3d6000fd5b505050506040513d601f19601f820116820180604052508101906113779190613690565b603d805442603a55670de0b6b3a7640000603b55603c86905560388590556001600160a81b031960ff93909316600160a81b02929092166001600160b01b0319909216919091176001600160a01b03861617600160a01b17905580156113e3576000805461ff00191690555b505050505050505050565b6113f661078f565b6001600160a01b0316336001600160a01b03161461142757604051634b98449160e11b815260040160405180910390fd5b61142f61186c565b603c548181141561145357604051630333a68160e41b815260040160405180910390fd5b60408051828152602081018490527f41e376fd99913dea7fda140f5c0bd997515b1a181acc58737320322548ec6e72910160405180910390a150603c55565b600080600260009054906101000a90046001600160a01b03166001600160a01b031663ecf3a3f96040518163ffffffff1660e01b815260040160206040518083038186803b1580156114e357600080fd5b505afa1580156114f7573d6000803e3d6000fd5b505050506040513d601f19601f8201168201806040525081019061151b9190613566565b1561153957604051631b0e923f60e11b815260040160405180910390fd5b6002600154141561155c5760405162461bcd60e51b815260040161099a90613581565b6002600181905554603d54604051631a0dd00b60e01b81526001600160a01b039182166004820152911690631a0dd00b9060240160206040518083038186803b1580156115a857600080fd5b505afa1580156115bc573d6000803e3d6000fd5b505050506040513d601f19601f820116820180604052508101906115e09190613566565b6115fd5760405163a596698b60e01b815260040160405180910390fd5b61160561186c565b61160e8361118e565b91508161162e576040516310eb483f60e21b815260040160405180910390fd5b603d546001600160a01b031660006116458461210b565b93509050821561174d57816001600160a01b031663b2a02ff133600260009054906101000a90046001600160a01b03166001600160a01b031663c415b95c6040518163ffffffff1660e01b815260040160206040518083038186803b1580156116ad57600080fd5b505afa1580156116c1573d6000803e3d6000fd5b505050506040513d601f19601f820116820180604052508101906116e5919061350b565b6040516001600160e01b031960e085901b1681526001600160a01b0392831660048201529116602482015260448101869052606401600060405180830381600087803b15801561173457600080fd5b505af1158015611748573d6000803e3d6000fd5b505050505b604051632770a7eb60e21b81526001600160a01b03831690639dc29fac9061177b90339088906004016135e8565b600060405180830381600087803b15801561179557600080fd5b505af11580156117a9573d6000803e3d6000fd5b505050506117b78585612479565b60408051828152602081018690529081018490526001600160a01b0386169033907fe02887340b03318642b6755f258294b795be42ed57d4b5d0ef27be3038d8a7649060600160405180910390a35050600180559092909150565b603580546106f3906134c0565b60006301e187e0603c5461080c9190613620565b6002546001600160a01b0316331461185e5760405163531f2aa960e11b815260040160405180910390fd5b6118688282612479565b5050565b6000806000611879612409565b9250925092508042141561188c57505050565b42603a5582156111755782603960008282546118a8919061353e565b9091555050603b829055603d54600254604080516331056e5760e21b815290516001600160a01b03938416936340c10f1993169163c415b95c916004808301926020929190829003018186803b15801561190157600080fd5b505afa158015611915573d6000803e3d6000fd5b505050506040513d601f19601f82011682018060405250810190611939919061350b565b603e54611946908761353e565b6040518363ffffffff1660e01b81526004016119639291906135e8565b600060405180830381600087803b15801561197d57600080fd5b505af192505050801561198e575060015b6119af5782603e60008282546119a4919061353e565b909155506111759050565b6000603e55505050565b600080600260009054906101000a90046001600160a01b03166001600160a01b031663ecf3a3f96040518163ffffffff1660e01b815260040160206040518083038186803b158015611a0a57600080fd5b505afa158015611a1e573d6000803e3d6000fd5b505050506040513d601f19601f82011682018060405250810190611a429190613566565b15611a6057604051631b0e923f60e11b815260040160405180910390fd5b60026001541415611a835760405162461bcd60e51b815260040161099a90613581565b6002600181905554603d54604051631a0dd00b60e01b81526001600160a01b039182166004820152911690631a0dd00b9060240160206040518083038186803b158015611acf57600080fd5b505afa158015611ae3573d6000803e3d6000fd5b505050506040513d601f19601f82011682018060405250810190611b079190613566565b611b245760405163a596698b60e01b815260040160405180910390fd5b603d60009054906101000a90046001600160a01b03166001600160a01b03166322f3e2d46040518163ffffffff1660e01b815260040160206040518083038186803b158015611b7257600080fd5b505afa158015611b86573d6000803e3d6000fd5b505050506040513d601f19601f82011682018060405250810190611baa9190613566565b611bc7576040516303127d9160e31b815260040160405180910390fd5b603d54600160a01b900460ff16611bf15760405163a4382ae360e01b815260040160405180910390fd5b83611c0f576040516310eb483f60e21b815260040160405180910390fd5b611c1761186c565b600254603d5460405163dde3ab9560e01b81523360048201526001600160a01b039283169290911690600090839063dde3ab959060240160a06040518083038186803b158015611c6657600080fd5b505afa158015611c7a573d6000803e3d6000fd5b505050506040513d601f19601f82011682018060405250810190611c9e91906136b3565b9450505050506000836001600160a01b031663eaada3826040518163ffffffff1660e01b815260040160206040518083038186803b158015611cdf57600080fd5b505afa158015611cf3573d6000803e3d6000fd5b505050506040513d601f19601f82011682018060405250810190611d17919061350b565b60405163b5e9bef560e01b81529091506001600160a01b0382169063b5e9bef590611d4890869086906004016135e8565b60206040518083038186803b158015611d6057600080fd5b505afa158015611d74573d6000803e3d6000fd5b505050506040513d601f19601f82011682018060405250810190611d9891906135b8565b881115611db75760405162d11df360e61b815260040160405180910390fd5b611dc5848285338c8c612a31565b6001805590999098509650505050505050565b60025460009081906001600160a01b03163314611e085760405163531f2aa960e11b815260040160405180910390fd5b600260009054906101000a90046001600160a01b03166001600160a01b031663ecf3a3f96040518163ffffffff1660e01b815260040160206040518083038186803b158015611e5657600080fd5b505afa158015611e6a573d6000803e3d6000fd5b505050506040513d601f19601f82011682018060405250810190611e8e9190613566565b15611eac57604051631b0e923f60e11b815260040160405180910390fd5b60026001541415611ecf5760405162461bcd60e51b815260040161099a90613581565b6002600181905554603d54604051631a0dd00b60e01b81526001600160a01b039182166004820152911690631a0dd00b9060240160206040518083038186803b158015611f1b57600080fd5b505afa158015611f2f573d6000803e3d6000fd5b505050506040513d601f19601f82011682018060405250810190611f539190613566565b611f705760405163a596698b60e01b815260040160405180910390fd5b603d60009054906101000a90046001600160a01b03166001600160a01b03166322f3e2d46040518163ffffffff1660e01b815260040160206040518083038186803b158015611fbe57600080fd5b505afa158015611fd2573d6000803e3d6000fd5b505050506040513d601f19601f82011682018060405250810190611ff69190613566565b612013576040516303127d9160e31b815260040160405180910390fd5b603d54600160a01b900460ff1661203d5760405163a4382ae360e01b815260040160405180910390fd5b8261205b576040516310eb483f60e21b815260040160405180910390fd5b61206361186c565b60025460408051637556d1c160e11b815290516001600160a01b03909216916120fb918391829163eaada382916004808301926020929190829003018186803b1580156120af57600080fd5b505afa1580156120c3573d6000803e3d6000fd5b505050506040513d601f19601f820116820180604052508101906120e7919061350b565b603d546001600160a01b0316888833612a31565b6001805590969095509350505050565b6000806000600260009054906101000a90046001600160a01b03166001600160a01b0316634066fdea6040518163ffffffff1660e01b815260040160206040518083038186803b15801561215e57600080fd5b505afa158015612172573d6000803e3d6000fd5b505050506040513d601f19601f82011682018060405250810190612196919061350b565b6001600160a01b0316637c0f59f46040518163ffffffff1660e01b815260040160206040518083038186803b1580156121ce57600080fd5b505afa1580156121e2573d6000803e3d6000fd5b505050506040513d601f19601f8201168201806040525081019061220691906135b8565b905080612214575091929050565b61221e8482612732565b915061114d828561353e565b61223261078f565b6001600160a01b0316336001600160a01b03161461226357604051634b98449160e11b815260040160405180910390fd5b603d54604051600160a01b90910460ff1615808252907fb1d9ceb4467fd05a16930f966760d70eb5926cf0c1c19a7b6bfe59d805c190459060200160405180910390a1603d8054911515600160a01b0260ff60a01b19909216919091179055565b6000806000600260009054906101000a90046001600160a01b03166001600160a01b0316634066fdea6040518163ffffffff1660e01b815260040160206040518083038186803b15801561231757600080fd5b505afa15801561232b573d6000803e3d6000fd5b505050506040513d601f19601f8201168201806040525081019061234f919061350b565b6001600160a01b0316632a9133c16040518163ffffffff1660e01b815260040160206040518083038186803b15801561238757600080fd5b505afa15801561239b573d6000803e3d6000fd5b505050506040513d601f19601f820116820180604052508101906123bf91906135b8565b9050806123cd575091929050565b6123e2610f2a82670de0b6b3a76400006135d1565b9250610f3d84846135d1565b600060405163effde13d60e01b815260040160405180910390fd5b603a54603b546000914281101561247457600061242682426135d1565b61242e61181f565b6124389190613601565b905080156124725760395461244e908290612732565b9350612465603b548261273290919063ffffffff16565b61246f908461353e565b92505b505b909192565b816000600260009054906101000a90046001600160a01b03166001600160a01b0316633605b51b6040518163ffffffff1660e01b815260040160006040518083038186803b1580156124ca57600080fd5b505afa1580156124de573d6000803e3d6000fd5b505050506040513d6000823e601f3d908101601f191682016040526125069190810190613710565b603d5481519192506001600160a01b03169060005b818110156125b457838181518110612535576125356137d5565b6020908102919091010151604051626cc3c360e61b81526001600160a01b038581166004830152878116602483015290911690631b30f0c090604401600060405180830381600087803b15801561258b57600080fd5b505af115801561259f573d6000803e3d6000fd5b50505050806125ad906137eb565b905061251b565b506001600160a01b0386166125dc5760405163170476af60e21b815260040160405180910390fd5b60006125e78761118e565b90508581101561260a57604051630bba337f60e11b815260040160405180910390fd5b6001600160a01b03871660008181526036602090815260408083208a86039055603b546037835281842055603980548b90039055518981529192917fddf252ad1be2c89b69c2b068fc378daa952ba7f163c4a11628f55a4df523b3ef910160405180910390a360008611801561268657506126848761118e565b155b156126ec57600254604051631d71be3b60e21b81526001600160a01b038981166004830152909116906375c6f8ec906024015b600060405180830381600087803b1580156126d357600080fd5b505af11580156126e7573d6000803e3d6000fd5b505050505b50505050505050565b600081612703600282613620565b612715670de0b6b3a764000086613601565b61271f919061353e565b6127299190613620565b90505b92915050565b600082158061273f575081155b1561274c5750600061272c565b670de0b6b3a7640000612760600282613620565b6127158486613601565b61277261078f565b6001600160a01b0316336001600160a01b0316146127a357604051634b98449160e11b815260040160405180910390fd5b565b804710156127f55760405162461bcd60e51b815260206004820152601d60248201527f416464726573733a20696e73756666696369656e742062616c616e6365000000604482015260640161099a565b6000826001600160a01b03168260405160006040518083038185875af1925050503d8060008114612842576040519150601f19603f3d011682016040523d82523d6000602084013e612847565b606091505b50509050806111755760405162461bcd60e51b815260206004820152603a60248201527f416464726573733a20756e61626c6520746f2073656e642076616c75652c207260448201527f6563697069656e74206d61792068617665207265766572746564000000000000606482015260840161099a565b6111758363a9059cbb60e01b84846040516024016128dd9291906135e8565b60408051601f198184030181529190526020810180516001600160e01b03166001600160e01b031990931692909217909152612d19565b600054610100900460ff168061292d575060005460ff16155b6129495760405162461bcd60e51b815260040161099a90613642565b600054610100900460ff1615801561296b576000805461ffff19166101011790555b60018055801561102b576000805461ff001916905550565b600054610100900460ff168061299c575060005460ff16155b6129b85760405162461bcd60e51b815260040161099a90613642565b600054610100900460ff161580156129da576000805461ffff19166101011790555b6001600160a01b038216612a015760405163724f500960e01b815260040160405180910390fd5b600280546001600160a01b0319166001600160a01b0384161790558015611868576000805461ff00191690555050565b6000806000886001600160a01b031663f60928096040518163ffffffff1660e01b815260040160206040518083038186803b158015612a6f57600080fd5b505afa158015612a83573d6000803e3d6000fd5b505050506040513d601f19601f82011682018060405250810190612aa791906135b8565b9050600081118015612b4f5750603d5481906001600160a01b03808b1691638d0dba00911688612ad68b61118e565b612ae0919061353e565b6040518363ffffffff1660e01b8152600401612afd9291906135e8565b60206040518083038186803b158015612b1557600080fd5b505afa158015612b29573d6000803e3d6000fd5b505050506040513d601f19601f82011682018060405250810190612b4d91906135b8565b105b15612b6d57604051637e76d52960e11b815260040160405180910390fd5b612b768561102e565b90935091508115612c5257866001600160a01b03166340c10f198a6001600160a01b031663c415b95c6040518163ffffffff1660e01b815260040160206040518083038186803b158015612bc957600080fd5b505afa158015612bdd573d6000803e3d6000fd5b505050506040513d601f19601f82011682018060405250810190612c01919061350b565b846040518363ffffffff1660e01b8152600401612c1f9291906135e8565b600060405180830381600087803b158015612c3957600080fd5b505af1158015612c4d573d6000803e3d6000fd5b505050505b6040516340c10f1960e01b81526001600160a01b038816906340c10f1990612c8090879087906004016135e8565b600060405180830381600087803b158015612c9a57600080fd5b505af1158015612cae573d6000803e3d6000fd5b50505050612cbc8686612deb565b60408051868152602081018590529081018390526001600160a01b0380861691908816907f197d5e1e72d62df9dad3add8609553402104dbeb4f83f9789e33aeb6723a78399060600160405180910390a350965096945050505050565b6000612d6e826040518060400160405280602081526020017f5361666545524332303a206c6f772d6c6576656c2063616c6c206661696c6564815250856001600160a01b03166130449092919063ffffffff16565b8051909150156111755780806020019051810190612d8c9190613566565b6111755760405162461bcd60e51b815260206004820152602a60248201527f5361666545524332303a204552433230206f7065726174696f6e20646964206e6044820152691bdd081cdd58d8d9595960b21b606482015260840161099a565b816000600260009054906101000a90046001600160a01b03166001600160a01b0316633605b51b6040518163ffffffff1660e01b815260040160006040518083038186803b158015612e3c57600080fd5b505afa158015612e50573d6000803e3d6000fd5b505050506040513d6000823e601f3d908101601f19168201604052612e789190810190613710565b603d5481519192506001600160a01b03169060005b81811015612f2657838181518110612ea757612ea76137d5565b6020908102919091010151604051626cc3c360e61b81526001600160a01b038581166004830152878116602483015290911690631b30f0c090604401600060405180830381600087803b158015612efd57600080fd5b505af1158015612f11573d6000803e3d6000fd5b5050505080612f1f906137eb565b9050612e8d565b506001600160a01b038616612f4e57604051632b61339160e21b815260040160405180910390fd5b6000612f598761118e565b90508560396000828254612f6d919061353e565b90915550506038546039541115612f9757604051634aed251160e11b815260040160405180910390fd5b612fa1868261353e565b6001600160a01b038816600081815260366020908152604080832094909455603b5460378252848320559251898152919290917fddf252ad1be2c89b69c2b068fc378daa952ba7f163c4a11628f55a4df523b3ef910160405180910390a38015801561300d5750600086115b156126ec57600254604051631dc2da6d60e21b81526001600160a01b0389811660048301529091169063770b69b4906024016126b9565b6060613053848460008561305d565b90505b9392505050565b6060824710156130be5760405162461bcd60e51b815260206004820152602660248201527f416464726573733a20696e73756666696369656e742062616c616e636520666f6044820152651c8818d85b1b60d21b606482015260840161099a565b843b61310c5760405162461bcd60e51b815260206004820152601d60248201527f416464726573733a2063616c6c20746f206e6f6e2d636f6e7472616374000000604482015260640161099a565b600080866001600160a01b031685876040516131289190613806565b60006040518083038185875af1925050503d8060008114613165576040519150601f19603f3d011682016040523d82523d6000602084013e61316a565b606091505b509150915061317a828286613185565b979650505050505050565b60608315613194575081613056565b8251156131a45782518084602001fd5b8160405162461bcd60e51b815260040161099a9190613287565b8280546131ca906134c0565b90600052602060002090601f0160209004810192826131ec5760008555613232565b82601f106132055782800160ff19823516178555613232565b82800160010185558215613232579182015b82811115613232578235825591602001919060010190613217565b5061323e929150613242565b5090565b5b8082111561323e5760008155600101613243565b60005b8381101561327257818101518382015260200161325a565b83811115613281576000848401525b50505050565b60208152600082518060208401526132a6816040850160208701613257565b601f01601f19169190910160400192915050565b6001600160a01b038116811461102b57600080fd5b600080604083850312156132e257600080fd5b82356132ed816132ba565b946020939093013593505050565b60006020828403121561330d57600080fd5b5035919050565b60008060006060848603121561332957600080fd5b8335613334816132ba565b92506020840135613344816132ba565b929592945050506040919091013590565b60006020828403121561336757600080fd5b8135613056816132ba565b60008083601f84011261338457600080fd5b50813567ffffffffffffffff81111561339c57600080fd5b6020830191508360208285010111156133b457600080fd5b9250929050565b60008060008060008060008060c0898b0312156133d757600080fd5b883567ffffffffffffffff808211156133ef57600080fd5b6133fb8c838d01613372565b909a50985060208b013591508082111561341457600080fd5b506134218b828c01613372565b9097509550506040890135613435816132ba565b93506060890135613445816132ba565b979a969950949793969295929450505060808201359160a0013590565b6000806040838503121561347557600080fd5b823591506020830135613487816132ba565b809150509250929050565b600080604083850312156134a557600080fd5b82356134b0816132ba565b91506020830135613487816132ba565b600181811c908216806134d457607f821691505b602082108114156134f557634e487b7160e01b600052602260045260246000fd5b50919050565b8051613506816132ba565b919050565b60006020828403121561351d57600080fd5b8151613056816132ba565b634e487b7160e01b600052601160045260246000fd5b6000821982111561355157613551613528565b500190565b8051801515811461350657600080fd5b60006020828403121561357857600080fd5b61272982613556565b6020808252601f908201527f5265656e7472616e637947756172643a207265656e7472616e742063616c6c00604082015260600190565b6000602082840312156135ca57600080fd5b5051919050565b6000828210156135e3576135e3613528565b500390565b6001600160a01b03929092168252602082015260400190565b600081600019048311821515161561361b5761361b613528565b500290565b60008261363d57634e487b7160e01b600052601260045260246000fd5b500490565b6020808252602e908201527f496e697469616c697a61626c653a20636f6e747261637420697320616c72656160408201526d191e481a5b9a5d1a585b1a5e995960921b606082015260800190565b6000602082840312156136a257600080fd5b815160ff8116811461305657600080fd5b600080600080600060a086880312156136cb57600080fd5b6136d486613556565b602087015160408801516060890151608090990151929a91995097965090945092505050565b634e487b7160e01b600052604160045260246000fd5b6000602080838503121561372357600080fd5b825167ffffffffffffffff8082111561373b57600080fd5b818501915085601f83011261374f57600080fd5b815181811115613761576137616136fa565b8060051b604051601f19603f83011681018181108582111715613786576137866136fa565b6040529182528482019250838101850191888311156137a457600080fd5b938501935b828510156137c9576137ba856134fb565b845293850193928501926137a9565b98975050505050505050565b634e487b7160e01b600052603260045260246000fd5b60006000198214156137ff576137ff613528565b5060010190565b60008251613818818460208701613257565b919091019291505056fea2646970667358221220b685175892ef791903c99c1c321a13ec713fb43e10de5eeaa7711f93de841cca64736f6c63430008090033",
  "devdoc": {
    "kind": "dev",
    "methods": {
      "allowance(address,address)": {
        "details": "Returns the remaining number of tokens that `spender` will be allowed to spend on behalf of `owner` through {transferFrom}. This is zero by default. This value changes when {approve} or {transferFrom} are called."
      },
      "approve(address,uint256)": {
        "details": "Sets `amount` as the allowance of `spender` over the caller's tokens. Returns a boolean value indicating whether the operation succeeded. IMPORTANT: Beware that changing an allowance with this method brings the risk that someone may use both the old and the new allowance by unfortunate transaction ordering. One possible solution to mitigate this race condition is to first reduce the spender's allowance to 0 and set the desired value afterwards: https://github.com/ethereum/EIPs/issues/20#issuecomment-263524729 Emits an {Approval} event."
      },
      "burn(address,uint256)": {
        "params": {
          "amount_": "The amount to burn",
          "from_": "The account to burn from"
        }
      },
      "flashIssue(address,uint256)": {
        "details": "The healthy of outcome position must be done afterhand",
        "params": {
          "amount_": "The amount to mint",
          "borrower_": "The debtor account"
        },
        "returns": {
          "_fee": "The fee amount collected",
          "_issued": "The amount issued after fees"
        }
      },
      "governor()": {
        "returns": {
          "_governor": "The governor"
        }
      },
      "issue(uint256,address)": {
        "params": {
          "amount_": "The amount to mint",
          "to_": "The beneficiary account"
        },
        "returns": {
          "_fee": "The fee amount collected",
          "_issued": "The amount issued after fees"
        }
      },
      "quoteIssueIn(uint256)": {
        "params": {
          "amountToIssue_": "Synth to issue"
        },
        "returns": {
          "_amount": "Gross amount",
          "_fee": "The fee amount to collect"
        }
      },
      "quoteIssueOut(uint256)": {
        "params": {
          "amount_": "Gross amount"
        },
        "returns": {
          "_amountToIssue": "Synth to issue",
          "_fee": "The fee amount to collect"
        }
      },
      "quoteRepayIn(uint256)": {
        "params": {
          "amountToRepay_": "Debt amount to repay"
        },
        "returns": {
          "_amount": "Gross amount",
          "_fee": "The fee amount to collect"
        }
      },
      "quoteRepayOut(uint256)": {
        "params": {
          "amount_": "Gross amount"
        },
        "returns": {
          "_amountToRepay": "Debt amount to repay",
          "_fee": "The fee amount to collect"
        }
      },
      "repay(address,uint256)": {
        "details": "The msg.sender is the payer and the account beneficed",
        "params": {
          "amount_": "The amount of synthetic token to burn (this is the gross amount, the repay fee will be subtracted from it)",
          "onBehalfOf_": "The account that will have debt decreased"
        },
        "returns": {
          "_repaid": "The amount repaid after fees"
        }
      },
      "repayAll(address)": {
        "details": "This function helps users to no leave debt dust behind",
        "params": {
          "onBehalfOf_": "The account that will have debt decreased"
        },
        "returns": {
          "_fee": "The fee amount collected",
          "_repaid": "The amount repaid after fees"
        }
      },
      "sweep(address,address,uint256)": {
        "params": {
          "amount_": "The amount to send",
          "to_": "The recipient of the transfer",
          "token_": "The token to transfer"
        }
      },
      "transfer(address,uint256)": {
        "details": "Moves `amount` tokens from the caller's account to `recipient`. Returns a boolean value indicating whether the operation succeeded. Emits a {Transfer} event."
      },
      "transferFrom(address,address,uint256)": {
        "details": "Moves `amount` tokens from `sender` to `recipient` using the allowance mechanism. `amount` is then deducted from the caller's allowance. Returns a boolean value indicating whether the operation succeeded. Emits a {Transfer} event."
      }
    },
    "title": "Non-transferable token that represents users' debts",
    "version": 1
  },
  "userdoc": {
    "events": {
      "DebtRepaid(address,address,uint256,uint256,uint256)": {
        "notice": "Emitted when synthetic's debt is repaid"
      },
      "DebtTokenActiveUpdated(bool)": {
        "notice": "Emitted when active flag is updated"
      },
      "InterestRateUpdated(uint256,uint256)": {
        "notice": "Emitted when interest rate is updated"
      },
      "MaxTotalSupplyUpdated(uint256,uint256)": {
        "notice": "Emitted when max total supply is updated"
      },
      "SyntheticTokenIssued(address,address,uint256,uint256,uint256)": {
        "notice": "Emitted when synthetic token is issued"
      }
    },
    "kind": "user",
    "methods": {
      "accrueInterest()": {
        "notice": "Accrue interest over debt supply"
      },
      "balanceOf(address)": {
        "notice": "Get the updated (principal + interest) user's debt"
      },
      "burn(address,uint256)": {
        "notice": "Burn debt token"
      },
      "collectPendingInterestFee()": {
        "notice": "Collect pending interest fee if any"
      },
      "debtIndex()": {
        "notice": "Accumulator of the total earned interest rate since the beginning"
      },
      "decimals()": {
        "notice": "The decimals of the token"
      },
      "flashIssue(address,uint256)": {
        "notice": "Issue synth without checking collateral"
      },
      "governor()": {
        "notice": "Get the governor"
      },
      "interestRate()": {
        "notice": "Interest rate"
      },
      "interestRatePerSecond()": {
        "notice": "Return interest rate (in percent) per second"
      },
      "isActive()": {
        "notice": "If true, disables msAsset minting on this pool"
      },
      "issue(uint256,address)": {
        "notice": "Lock collateral and mint synthetic token"
      },
      "lastTimestampAccrued()": {
        "notice": "The timestamp when interest accrual was calculated for the last time"
      },
      "maxTotalSupply()": {
        "notice": "The supply cap"
      },
      "name()": {
        "notice": "The name of the token"
      },
      "pendingInterestFee()": {
        "notice": "Pending interest fee to collect"
      },
      "pool()": {
        "notice": "Pool contract"
      },
      "quoteIssueIn(uint256)": {
        "notice": "Quote gross `_amount` to issue `amountToIssue_` synthetic tokens"
      },
      "quoteIssueOut(uint256)": {
        "notice": "Quote synthetic tokens `_amountToIssue` by using gross `_amount`"
      },
      "quoteRepayIn(uint256)": {
        "notice": "Quote synthetic token `_amount` need to repay `amountToRepay_` debt"
      },
      "quoteRepayOut(uint256)": {
        "notice": "Quote debt `_amountToRepay` by burning `_amount` synthetic tokens"
      },
      "repay(address,uint256)": {
        "notice": "Send synthetic token to decrease debt"
      },
      "repayAll(address)": {
        "notice": "Send synthetic token to decrease debt"
      },
      "sweep(address,address,uint256)": {
        "notice": "ERC20 recovery in case of stuck tokens due direct transfers to the contract address."
      },
      "symbol()": {
        "notice": "The symbol of the token"
      },
      "syntheticToken()": {
        "notice": "The Synthetic token"
      },
      "toggleIsActive()": {
        "notice": "Enable/Disable the Debt Token"
      },
      "totalSupply()": {
        "notice": "Return the total supply"
      },
      "updateInterestRate(uint256)": {
        "notice": "Update interest rate (APR)"
      },
      "updateMaxTotalSupply(uint256)": {
        "notice": "Update max total supply"
      }
    },
    "version": 1
  },
  "storageLayout": {
    "storage": [
      {
        "astId": 9979,
        "contract": "contracts/DebtToken.sol:DebtToken",
        "label": "_initialized",
        "offset": 0,
        "slot": "0",
        "type": "t_bool"
      },
      {
        "astId": 9982,
        "contract": "contracts/DebtToken.sol:DebtToken",
        "label": "_initializing",
        "offset": 1,
        "slot": "0",
        "type": "t_bool"
      },
      {
        "astId": 10033,
        "contract": "contracts/DebtToken.sol:DebtToken",
        "label": "_status",
        "offset": 0,
        "slot": "1",
        "type": "t_uint256"
      },
      {
        "astId": 9002,
        "contract": "contracts/DebtToken.sol:DebtToken",
        "label": "pool",
        "offset": 0,
        "slot": "2",
        "type": "t_contract(IPool)13119"
      },
      {
        "astId": 9104,
        "contract": "contracts/DebtToken.sol:DebtToken",
        "label": "__gap",
        "offset": 0,
        "slot": "3",
        "type": "t_array(t_uint256)49_storage"
      },
      {
        "astId": 15362,
        "contract": "contracts/DebtToken.sol:DebtToken",
        "label": "name",
        "offset": 0,
        "slot": "52",
        "type": "t_string_storage"
      },
      {
        "astId": 15366,
        "contract": "contracts/DebtToken.sol:DebtToken",
        "label": "symbol",
        "offset": 0,
        "slot": "53",
        "type": "t_string_storage"
      },
      {
        "astId": 15371,
        "contract": "contracts/DebtToken.sol:DebtToken",
        "label": "principalOf",
        "offset": 0,
        "slot": "54",
        "type": "t_mapping(t_address,t_uint256)"
      },
      {
        "astId": 15376,
        "contract": "contracts/DebtToken.sol:DebtToken",
        "label": "debtIndexOf",
        "offset": 0,
        "slot": "55",
        "type": "t_mapping(t_address,t_uint256)"
      },
      {
        "astId": 15380,
        "contract": "contracts/DebtToken.sol:DebtToken",
        "label": "maxTotalSupply",
        "offset": 0,
        "slot": "56",
        "type": "t_uint256"
      },
      {
        "astId": 15383,
        "contract": "contracts/DebtToken.sol:DebtToken",
        "label": "totalSupply_",
        "offset": 0,
        "slot": "57",
        "type": "t_uint256"
      },
      {
        "astId": 15387,
        "contract": "contracts/DebtToken.sol:DebtToken",
        "label": "lastTimestampAccrued",
        "offset": 0,
        "slot": "58",
        "type": "t_uint256"
      },
      {
        "astId": 15391,
        "contract": "contracts/DebtToken.sol:DebtToken",
        "label": "debtIndex",
        "offset": 0,
        "slot": "59",
        "type": "t_uint256"
      },
      {
        "astId": 15395,
        "contract": "contracts/DebtToken.sol:DebtToken",
        "label": "interestRate",
        "offset": 0,
        "slot": "60",
        "type": "t_uint256"
      },
      {
        "astId": 15400,
        "contract": "contracts/DebtToken.sol:DebtToken",
        "label": "syntheticToken",
        "offset": 0,
        "slot": "61",
        "type": "t_contract(ISyntheticToken)13383"
      },
      {
        "astId": 15404,
        "contract": "contracts/DebtToken.sol:DebtToken",
        "label": "isActive",
        "offset": 20,
        "slot": "61",
        "type": "t_bool"
      },
      {
        "astId": 15408,
        "contract": "contracts/DebtToken.sol:DebtToken",
        "label": "decimals",
        "offset": 21,
        "slot": "61",
        "type": "t_uint8"
      },
      {
        "astId": 15414,
        "contract": "contracts/DebtToken.sol:DebtToken",
        "label": "pendingInterestFee",
        "offset": 0,
        "slot": "62",
        "type": "t_uint256"
      }
    ],
    "types": {
      "t_address": {
        "encoding": "inplace",
        "label": "address",
        "numberOfBytes": "20"
      },
      "t_array(t_uint256)49_storage": {
        "base": "t_uint256",
        "encoding": "inplace",
        "label": "uint256[49]",
        "numberOfBytes": "1568"
      },
      "t_bool": {
        "encoding": "inplace",
        "label": "bool",
        "numberOfBytes": "1"
      },
      "t_contract(IPool)13119": {
        "encoding": "inplace",
        "label": "contract IPool",
        "numberOfBytes": "20"
      },
      "t_contract(ISyntheticToken)13383": {
        "encoding": "inplace",
        "label": "contract ISyntheticToken",
        "numberOfBytes": "20"
      },
      "t_mapping(t_address,t_uint256)": {
        "encoding": "mapping",
        "key": "t_address",
        "label": "mapping(address => uint256)",
        "numberOfBytes": "32",
        "value": "t_uint256"
      },
      "t_string_storage": {
        "encoding": "bytes",
        "label": "string",
        "numberOfBytes": "32"
      },
      "t_uint256": {
        "encoding": "inplace",
        "label": "uint256",
        "numberOfBytes": "32"
      },
      "t_uint8": {
        "encoding": "inplace",
        "label": "uint8",
        "numberOfBytes": "1"
      }
    }
  }
}