{
  "address": "0x0557B0a016166FA113CC090869C3d98bBFE911Fa",
  "abi": [
    {
      "inputs": [],
      "name": "AddressIsNull",
      "type": "error"
    },
    {
      "inputs": [],
      "name": "AmountGreaterThanMaxLiquidable",
      "type": "error"
    },
    {
      "inputs": [],
      "name": "AmountInIsInvalid",
      "type": "error"
    },
    {
      "inputs": [],
      "name": "AmountIsTooHigh",
      "type": "error"
    },
    {
      "inputs": [],
      "name": "AmountIsZero",
      "type": "error"
    },
    {
      "inputs": [],
      "name": "CanNotLiquidateOwnPosition",
      "type": "error"
    },
    {
      "inputs": [],
      "name": "CollateralDoesNotExist",
      "type": "error"
    },
    {
      "inputs": [],
      "name": "DebtTokenAlreadyExists",
      "type": "error"
    },
    {
      "inputs": [],
      "name": "DebtTokenDoesNotExist",
      "type": "error"
    },
    {
      "inputs": [],
      "name": "DepositTokenAlreadyExists",
      "type": "error"
    },
    {
      "inputs": [],
      "name": "DepositTokenDoesNotExist",
      "type": "error"
    },
    {
      "inputs": [],
      "name": "FallbackIsNotAllowed",
      "type": "error"
    },
    {
      "inputs": [],
      "name": "FlashRepaySlippageTooHigh",
      "type": "error"
    },
    {
      "inputs": [],
      "name": "IsNotPaused",
      "type": "error"
    },
    {
      "inputs": [],
      "name": "IsNotShutdown",
      "type": "error"
    },
    {
      "inputs": [],
      "name": "IsPaused",
      "type": "error"
    },
    {
      "inputs": [],
      "name": "IsShutdown",
      "type": "error"
    },
    {
      "inputs": [],
      "name": "LeverageSlippageTooHigh",
      "type": "error"
    },
    {
      "inputs": [],
      "name": "LeverageTooHigh",
      "type": "error"
    },
    {
      "inputs": [],
      "name": "LeverageTooLow",
      "type": "error"
    },
    {
      "inputs": [],
      "name": "MaxLiquidableTooHigh",
      "type": "error"
    },
    {
      "inputs": [],
      "name": "NewValueIsSameAsCurrent",
      "type": "error"
    },
    {
      "inputs": [],
      "name": "PoolRegistryIsNull",
      "type": "error"
    },
    {
      "inputs": [],
      "name": "PositionIsHealthy",
      "type": "error"
    },
    {
      "inputs": [],
      "name": "PositionIsNotHealthy",
      "type": "error"
    },
    {
      "inputs": [],
      "name": "ProposedGovernorIsNull",
      "type": "error"
    },
    {
      "inputs": [],
      "name": "ReachedMaxDepositTokens",
      "type": "error"
    },
    {
      "inputs": [],
      "name": "ReceiveIsNotAllowed",
      "type": "error"
    },
    {
      "inputs": [],
      "name": "RemainingDebtIsLowerThanTheFloor",
      "type": "error"
    },
    {
      "inputs": [],
      "name": "RewardDistributorAlreadyExists",
      "type": "error"
    },
    {
      "inputs": [],
      "name": "RewardDistributorDoesNotExist",
      "type": "error"
    },
    {
      "inputs": [],
      "name": "SenderIsNotDebtToken",
      "type": "error"
    },
    {
      "inputs": [],
      "name": "SenderIsNotDepositToken",
      "type": "error"
    },
    {
      "inputs": [],
      "name": "SenderIsNotGovernor",
      "type": "error"
    },
    {
      "inputs": [],
      "name": "SenderIsNotTheProposedGovernor",
      "type": "error"
    },
    {
      "inputs": [],
      "name": "SwapFeatureIsInactive",
      "type": "error"
    },
    {
      "inputs": [],
      "name": "SyntheticDoesNotExist",
      "type": "error"
    },
    {
      "inputs": [],
      "name": "SyntheticIsInUse",
      "type": "error"
    },
    {
      "inputs": [],
      "name": "SyntheticIsNull",
      "type": "error"
    },
    {
      "inputs": [],
      "name": "TotalSupplyIsNotZero",
      "type": "error"
    },
    {
      "inputs": [],
      "name": "UnderlyingAssetInUse",
      "type": "error"
    },
    {
      "inputs": [],
      "name": "UserReachedMaxTokens",
      "type": "error"
    },
    {
      "anonymous": false,
      "inputs": [
        {
          "indexed": false,
          "internalType": "uint256",
          "name": "oldDebtFloorInUsd",
          "type": "uint256"
        },
        {
          "indexed": false,
          "internalType": "uint256",
          "name": "newDebtFloorInUsd",
          "type": "uint256"
        }
      ],
      "name": "DebtFloorUpdated",
      "type": "event"
    },
    {
      "anonymous": false,
      "inputs": [
        {
          "indexed": true,
          "internalType": "contract IDebtToken",
          "name": "debtToken",
          "type": "address"
        }
      ],
      "name": "DebtTokenAdded",
      "type": "event"
    },
    {
      "anonymous": false,
      "inputs": [
        {
          "indexed": true,
          "internalType": "contract IDebtToken",
          "name": "debtToken",
          "type": "address"
        }
      ],
      "name": "DebtTokenRemoved",
      "type": "event"
    },
    {
      "anonymous": false,
      "inputs": [
        {
          "indexed": true,
          "internalType": "address",
          "name": "depositToken",
          "type": "address"
        }
      ],
      "name": "DepositTokenAdded",
      "type": "event"
    },
    {
      "anonymous": false,
      "inputs": [
        {
          "indexed": true,
          "internalType": "contract IDepositToken",
          "name": "depositToken",
          "type": "address"
        }
      ],
      "name": "DepositTokenRemoved",
      "type": "event"
    },
    {
      "anonymous": false,
      "inputs": [
        {
          "indexed": true,
          "internalType": "contract IFeeProvider",
          "name": "oldFeeProvider",
          "type": "address"
        },
        {
          "indexed": true,
          "internalType": "contract IFeeProvider",
          "name": "newFeeProvider",
          "type": "address"
        }
      ],
      "name": "FeeProviderUpdated",
      "type": "event"
    },
    {
      "anonymous": false,
      "inputs": [
        {
          "indexed": false,
          "internalType": "uint256",
          "name": "oldMaxLiquidable",
          "type": "uint256"
        },
        {
          "indexed": false,
          "internalType": "uint256",
          "name": "newMaxLiquidable",
          "type": "uint256"
        }
      ],
      "name": "MaxLiquidableUpdated",
      "type": "event"
    },
    {
      "anonymous": false,
      "inputs": [
        {
          "indexed": true,
          "internalType": "address",
          "name": "caller",
          "type": "address"
        }
      ],
      "name": "Open",
      "type": "event"
    },
    {
      "anonymous": false,
      "inputs": [
        {
          "indexed": true,
          "internalType": "address",
          "name": "caller",
          "type": "address"
        }
      ],
      "name": "Paused",
      "type": "event"
    },
    {
      "anonymous": false,
      "inputs": [
        {
          "indexed": true,
          "internalType": "address",
          "name": "liquidator",
          "type": "address"
        },
        {
          "indexed": true,
          "internalType": "address",
          "name": "account",
          "type": "address"
        },
        {
          "indexed": true,
          "internalType": "contract ISyntheticToken",
          "name": "syntheticToken",
          "type": "address"
        },
        {
          "indexed": false,
          "internalType": "uint256",
          "name": "amountRepaid",
          "type": "uint256"
        },
        {
          "indexed": false,
          "internalType": "uint256",
          "name": "depositSeized",
          "type": "uint256"
        },
        {
          "indexed": false,
          "internalType": "uint256",
          "name": "fee",
          "type": "uint256"
        }
      ],
      "name": "PositionLiquidated",
      "type": "event"
    },
    {
      "anonymous": false,
      "inputs": [
        {
          "indexed": true,
          "internalType": "contract IRewardsDistributor",
          "name": "_distributor",
          "type": "address"
        }
      ],
      "name": "RewardsDistributorAdded",
      "type": "event"
    },
    {
      "anonymous": false,
      "inputs": [
        {
          "indexed": false,
          "internalType": "contract IRewardsDistributor",
          "name": "_distributor",
          "type": "address"
        }
      ],
      "name": "RewardsDistributorRemoved",
      "type": "event"
    },
    {
      "anonymous": false,
      "inputs": [
        {
          "indexed": true,
          "internalType": "address",
          "name": "caller",
          "type": "address"
        }
      ],
      "name": "Shutdown",
      "type": "event"
    },
    {
      "anonymous": false,
      "inputs": [
        {
          "indexed": false,
          "internalType": "bool",
          "name": "newActive",
          "type": "bool"
        }
      ],
      "name": "SwapActiveUpdated",
      "type": "event"
    },
    {
      "anonymous": false,
      "inputs": [
        {
          "indexed": false,
          "internalType": "contract ISwapper",
          "name": "oldSwapFee",
          "type": "address"
        },
        {
          "indexed": false,
          "internalType": "contract ISwapper",
          "name": "newSwapFee",
          "type": "address"
        }
      ],
      "name": "SwapperUpdated",
      "type": "event"
    },
    {
      "anonymous": false,
      "inputs": [
        {
          "indexed": true,
          "internalType": "address",
          "name": "account",
          "type": "address"
        },
        {
          "indexed": true,
          "internalType": "contract ISyntheticToken",
          "name": "syntheticTokenIn",
          "type": "address"
        },
        {
          "indexed": true,
          "internalType": "contract ISyntheticToken",
          "name": "syntheticTokenOut",
          "type": "address"
        },
        {
          "indexed": false,
          "internalType": "uint256",
          "name": "amountIn",
          "type": "uint256"
        },
        {
          "indexed": false,
          "internalType": "uint256",
          "name": "amountOut",
          "type": "uint256"
        },
        {
          "indexed": false,
          "internalType": "uint256",
          "name": "fee",
          "type": "uint256"
        }
      ],
      "name": "SyntheticTokenSwapped",
      "type": "event"
    },
    {
      "anonymous": false,
      "inputs": [
        {
          "indexed": true,
          "internalType": "contract ITreasury",
          "name": "oldTreasury",
          "type": "address"
        },
        {
          "indexed": true,
          "internalType": "contract ITreasury",
          "name": "newTreasury",
          "type": "address"
        }
      ],
      "name": "TreasuryUpdated",
      "type": "event"
    },
    {
      "anonymous": false,
      "inputs": [
        {
          "indexed": true,
          "internalType": "address",
          "name": "caller",
          "type": "address"
        }
      ],
      "name": "Unpaused",
      "type": "event"
    },
    {
      "anonymous": false,
      "inputs": [
        {
          "indexed": true,
          "internalType": "address",
          "name": "previousGovernor",
          "type": "address"
        },
        {
          "indexed": true,
          "internalType": "address",
          "name": "proposedGovernor",
          "type": "address"
        }
      ],
      "name": "UpdatedGovernor",
      "type": "event"
    },
    {
      "stateMutability": "payable",
      "type": "fallback"
    },
    {
      "inputs": [],
      "name": "MAX_TOKENS_PER_USER",
      "outputs": [
        {
          "internalType": "uint256",
          "name": "",
          "type": "uint256"
        }
      ],
      "stateMutability": "view",
      "type": "function"
    },
    {
      "inputs": [],
      "name": "VERSION",
      "outputs": [
        {
          "internalType": "string",
          "name": "",
          "type": "string"
        }
      ],
      "stateMutability": "view",
      "type": "function"
    },
    {
      "inputs": [],
      "name": "acceptGovernorship",
      "outputs": [],
      "stateMutability": "nonpayable",
      "type": "function"
    },
    {
      "inputs": [
        {
          "internalType": "contract IDebtToken",
          "name": "debtToken_",
          "type": "address"
        }
      ],
      "name": "addDebtToken",
      "outputs": [],
      "stateMutability": "nonpayable",
      "type": "function"
    },
    {
      "inputs": [
        {
          "internalType": "address",
          "name": "depositToken_",
          "type": "address"
        }
      ],
      "name": "addDepositToken",
      "outputs": [],
      "stateMutability": "nonpayable",
      "type": "function"
    },
    {
      "inputs": [
        {
          "internalType": "contract IRewardsDistributor",
          "name": "distributor_",
          "type": "address"
        }
      ],
      "name": "addRewardsDistributor",
      "outputs": [],
      "stateMutability": "nonpayable",
      "type": "function"
    },
    {
      "inputs": [
        {
          "internalType": "address",
          "name": "account_",
          "type": "address"
        }
      ],
      "name": "addToDebtTokensOfAccount",
      "outputs": [],
      "stateMutability": "nonpayable",
      "type": "function"
    },
    {
      "inputs": [
        {
          "internalType": "address",
          "name": "account_",
          "type": "address"
        }
      ],
      "name": "addToDepositTokensOfAccount",
      "outputs": [],
      "stateMutability": "nonpayable",
      "type": "function"
    },
    {
      "inputs": [],
      "name": "debtFloorInUsd",
      "outputs": [
        {
          "internalType": "uint256",
          "name": "",
          "type": "uint256"
        }
      ],
      "stateMutability": "view",
      "type": "function"
    },
    {
      "inputs": [
        {
          "internalType": "address",
          "name": "account_",
          "type": "address"
        }
      ],
      "name": "debtOf",
      "outputs": [
        {
          "internalType": "uint256",
          "name": "_debtInUsd",
          "type": "uint256"
        }
      ],
      "stateMutability": "view",
      "type": "function"
    },
    {
      "inputs": [
        {
          "internalType": "address",
          "name": "account_",
          "type": "address"
        }
      ],
      "name": "debtPositionOf",
      "outputs": [
        {
          "internalType": "bool",
          "name": "_isHealthy",
          "type": "bool"
        },
        {
          "internalType": "uint256",
          "name": "_depositInUsd",
          "type": "uint256"
        },
        {
          "internalType": "uint256",
          "name": "_debtInUsd",
          "type": "uint256"
        },
        {
          "internalType": "uint256",
          "name": "_issuableLimitInUsd",
          "type": "uint256"
        },
        {
          "internalType": "uint256",
          "name": "_issuableInUsd",
          "type": "uint256"
        }
      ],
      "stateMutability": "view",
      "type": "function"
    },
    {
      "inputs": [
        {
          "internalType": "contract ISyntheticToken",
          "name": "",
          "type": "address"
        }
      ],
      "name": "debtTokenOf",
      "outputs": [
        {
          "internalType": "contract IDebtToken",
          "name": "",
          "type": "address"
        }
      ],
      "stateMutability": "view",
      "type": "function"
    },
    {
      "inputs": [
        {
          "internalType": "address",
          "name": "account_",
          "type": "address"
        }
      ],
      "name": "depositOf",
      "outputs": [
        {
          "internalType": "uint256",
          "name": "_depositInUsd",
          "type": "uint256"
        },
        {
          "internalType": "uint256",
          "name": "_issuableLimitInUsd",
          "type": "uint256"
        }
      ],
      "stateMutability": "view",
      "type": "function"
    },
    {
      "inputs": [
        {
          "internalType": "contract IERC20",
          "name": "",
          "type": "address"
        }
      ],
      "name": "depositTokenOf",
      "outputs": [
        {
          "internalType": "contract IDepositToken",
          "name": "",
          "type": "address"
        }
      ],
      "stateMutability": "view",
      "type": "function"
    },
    {
      "inputs": [
        {
          "internalType": "contract IDebtToken",
          "name": "debtToken_",
          "type": "address"
        }
      ],
      "name": "doesDebtTokenExist",
      "outputs": [
        {
          "internalType": "bool",
          "name": "",
          "type": "bool"
        }
      ],
      "stateMutability": "view",
      "type": "function"
    },
    {
      "inputs": [
        {
          "internalType": "contract IDepositToken",
          "name": "depositToken_",
          "type": "address"
        }
      ],
      "name": "doesDepositTokenExist",
      "outputs": [
        {
          "internalType": "bool",
          "name": "",
          "type": "bool"
        }
      ],
      "stateMutability": "view",
      "type": "function"
    },
    {
      "inputs": [
        {
          "internalType": "contract ISyntheticToken",
          "name": "syntheticToken_",
          "type": "address"
        }
      ],
      "name": "doesSyntheticTokenExist",
      "outputs": [
        {
          "internalType": "bool",
          "name": "",
          "type": "bool"
        }
      ],
      "stateMutability": "view",
      "type": "function"
    },
    {
      "inputs": [],
      "name": "everythingStopped",
      "outputs": [
        {
          "internalType": "bool",
          "name": "",
          "type": "bool"
        }
      ],
      "stateMutability": "view",
      "type": "function"
    },
    {
      "inputs": [],
      "name": "feeCollector",
      "outputs": [
        {
          "internalType": "address",
          "name": "",
          "type": "address"
        }
      ],
      "stateMutability": "view",
      "type": "function"
    },
    {
      "inputs": [],
      "name": "feeProvider",
      "outputs": [
        {
          "internalType": "contract IFeeProvider",
          "name": "",
          "type": "address"
        }
      ],
      "stateMutability": "view",
      "type": "function"
    },
    {
      "inputs": [
        {
          "internalType": "contract ISyntheticToken",
          "name": "syntheticToken_",
          "type": "address"
        },
        {
          "internalType": "contract IDepositToken",
          "name": "depositToken_",
          "type": "address"
        },
        {
          "internalType": "uint256",
          "name": "withdrawAmount_",
          "type": "uint256"
        },
        {
          "internalType": "uint256",
          "name": "repayAmountMin_",
          "type": "uint256"
        }
      ],
      "name": "flashRepay",
      "outputs": [
        {
          "internalType": "uint256",
          "name": "_withdrawn",
          "type": "uint256"
        },
        {
          "internalType": "uint256",
          "name": "_repaid",
          "type": "uint256"
        }
      ],
      "stateMutability": "nonpayable",
      "type": "function"
    },
    {
      "inputs": [],
      "name": "getDebtTokens",
      "outputs": [
        {
          "internalType": "address[]",
          "name": "",
          "type": "address[]"
        }
      ],
      "stateMutability": "view",
      "type": "function"
    },
    {
      "inputs": [
        {
          "internalType": "address",
          "name": "account_",
          "type": "address"
        }
      ],
      "name": "getDebtTokensOfAccount",
      "outputs": [
        {
          "internalType": "address[]",
          "name": "",
          "type": "address[]"
        }
      ],
      "stateMutability": "view",
      "type": "function"
    },
    {
      "inputs": [],
      "name": "getDepositTokens",
      "outputs": [
        {
          "internalType": "address[]",
          "name": "",
          "type": "address[]"
        }
      ],
      "stateMutability": "view",
      "type": "function"
    },
    {
      "inputs": [
        {
          "internalType": "address",
          "name": "account_",
          "type": "address"
        }
      ],
      "name": "getDepositTokensOfAccount",
      "outputs": [
        {
          "internalType": "address[]",
          "name": "",
          "type": "address[]"
        }
      ],
      "stateMutability": "view",
      "type": "function"
    },
    {
      "inputs": [],
      "name": "getRewardsDistributors",
      "outputs": [
        {
          "internalType": "address[]",
          "name": "",
          "type": "address[]"
        }
      ],
      "stateMutability": "view",
      "type": "function"
    },
    {
      "inputs": [],
      "name": "governor",
      "outputs": [
        {
          "internalType": "address",
          "name": "",
          "type": "address"
        }
      ],
      "stateMutability": "view",
      "type": "function"
    },
    {
      "inputs": [
        {
          "internalType": "contract IPoolRegistry",
          "name": "poolRegistry_",
          "type": "address"
        }
      ],
      "name": "initialize",
      "outputs": [],
      "stateMutability": "nonpayable",
      "type": "function"
    },
    {
      "inputs": [],
      "name": "isSwapActive",
      "outputs": [
        {
          "internalType": "bool",
          "name": "",
          "type": "bool"
        }
      ],
      "stateMutability": "view",
      "type": "function"
    },
    {
      "inputs": [
        {
          "internalType": "contract IERC20",
          "name": "tokenIn_",
          "type": "address"
        },
        {
          "internalType": "contract IDepositToken",
          "name": "depositToken_",
          "type": "address"
        },
        {
          "internalType": "contract ISyntheticToken",
          "name": "syntheticToken_",
          "type": "address"
        },
        {
          "internalType": "uint256",
          "name": "amountIn_",
          "type": "uint256"
        },
        {
          "internalType": "uint256",
          "name": "leverage_",
          "type": "uint256"
        },
        {
          "internalType": "uint256",
          "name": "depositAmountMin_",
          "type": "uint256"
        }
      ],
      "name": "leverage",
      "outputs": [
        {
          "internalType": "uint256",
          "name": "_deposited",
          "type": "uint256"
        },
        {
          "internalType": "uint256",
          "name": "_issued",
          "type": "uint256"
        }
      ],
      "stateMutability": "nonpayable",
      "type": "function"
    },
    {
      "inputs": [
        {
          "internalType": "contract ISyntheticToken",
          "name": "syntheticToken_",
          "type": "address"
        },
        {
          "internalType": "address",
          "name": "account_",
          "type": "address"
        },
        {
          "internalType": "uint256",
          "name": "amountToRepay_",
          "type": "uint256"
        },
        {
          "internalType": "contract IDepositToken",
          "name": "depositToken_",
          "type": "address"
        }
      ],
      "name": "liquidate",
      "outputs": [
        {
          "internalType": "uint256",
          "name": "_totalSeized",
          "type": "uint256"
        },
        {
          "internalType": "uint256",
          "name": "_toLiquidator",
          "type": "uint256"
        },
        {
          "internalType": "uint256",
          "name": "_fee",
          "type": "uint256"
        }
      ],
      "stateMutability": "nonpayable",
      "type": "function"
    },
    {
      "inputs": [],
      "name": "masterOracle",
      "outputs": [
        {
          "internalType": "contract IMasterOracle",
          "name": "",
          "type": "address"
        }
      ],
      "stateMutability": "view",
      "type": "function"
    },
    {
      "inputs": [],
      "name": "maxLiquidable",
      "outputs": [
        {
          "internalType": "uint256",
          "name": "",
          "type": "uint256"
        }
      ],
      "stateMutability": "view",
      "type": "function"
    },
    {
      "inputs": [],
      "name": "open",
      "outputs": [],
      "stateMutability": "nonpayable",
      "type": "function"
    },
    {
      "inputs": [],
      "name": "pause",
      "outputs": [],
      "stateMutability": "nonpayable",
      "type": "function"
    },
    {
      "inputs": [],
      "name": "paused",
      "outputs": [
        {
          "internalType": "bool",
          "name": "",
          "type": "bool"
        }
      ],
      "stateMutability": "view",
      "type": "function"
    },
    {
      "inputs": [],
      "name": "poolRegistry",
      "outputs": [
        {
          "internalType": "contract IPoolRegistry",
          "name": "",
          "type": "address"
        }
      ],
      "stateMutability": "view",
      "type": "function"
    },
    {
      "inputs": [],
      "name": "proposedGovernor",
      "outputs": [
        {
          "internalType": "address",
          "name": "",
          "type": "address"
        }
      ],
      "stateMutability": "view",
      "type": "function"
    },
    {
      "inputs": [
        {
          "internalType": "contract ISyntheticToken",
          "name": "syntheticToken_",
          "type": "address"
        },
        {
          "internalType": "uint256",
          "name": "totalToSeize_",
          "type": "uint256"
        },
        {
          "internalType": "contract IDepositToken",
          "name": "depositToken_",
          "type": "address"
        }
      ],
      "name": "quoteLiquidateIn",
      "outputs": [
        {
          "internalType": "uint256",
          "name": "_amountToRepay",
          "type": "uint256"
        },
        {
          "internalType": "uint256",
          "name": "_toLiquidator",
          "type": "uint256"
        },
        {
          "internalType": "uint256",
          "name": "_fee",
          "type": "uint256"
        }
      ],
      "stateMutability": "view",
      "type": "function"
    },
    {
      "inputs": [
        {
          "internalType": "contract ISyntheticToken",
          "name": "syntheticToken_",
          "type": "address"
        },
        {
          "internalType": "address",
          "name": "account_",
          "type": "address"
        },
        {
          "internalType": "contract IDepositToken",
          "name": "depositToken_",
          "type": "address"
        }
      ],
      "name": "quoteLiquidateMax",
      "outputs": [
        {
          "internalType": "uint256",
          "name": "_maxAmountToRepay",
          "type": "uint256"
        }
      ],
      "stateMutability": "view",
      "type": "function"
    },
    {
      "inputs": [
        {
          "internalType": "contract ISyntheticToken",
          "name": "syntheticToken_",
          "type": "address"
        },
        {
          "internalType": "uint256",
          "name": "amountToRepay_",
          "type": "uint256"
        },
        {
          "internalType": "contract IDepositToken",
          "name": "depositToken_",
          "type": "address"
        }
      ],
      "name": "quoteLiquidateOut",
      "outputs": [
        {
          "internalType": "uint256",
          "name": "_totalToSeize",
          "type": "uint256"
        },
        {
          "internalType": "uint256",
          "name": "_toLiquidator",
          "type": "uint256"
        },
        {
          "internalType": "uint256",
          "name": "_fee",
          "type": "uint256"
        }
      ],
      "stateMutability": "view",
      "type": "function"
    },
    {
      "inputs": [
        {
          "internalType": "contract ISyntheticToken",
          "name": "syntheticTokenIn_",
          "type": "address"
        },
        {
          "internalType": "contract ISyntheticToken",
          "name": "syntheticTokenOut_",
          "type": "address"
        },
        {
          "internalType": "uint256",
          "name": "amountOut_",
          "type": "uint256"
        }
      ],
      "name": "quoteSwapIn",
      "outputs": [
        {
          "internalType": "uint256",
          "name": "_amountIn",
          "type": "uint256"
        },
        {
          "internalType": "uint256",
          "name": "_fee",
          "type": "uint256"
        }
      ],
      "stateMutability": "view",
      "type": "function"
    },
    {
      "inputs": [
        {
          "internalType": "contract ISyntheticToken",
          "name": "syntheticTokenIn_",
          "type": "address"
        },
        {
          "internalType": "contract ISyntheticToken",
          "name": "syntheticTokenOut_",
          "type": "address"
        },
        {
          "internalType": "uint256",
          "name": "amountIn_",
          "type": "uint256"
        }
      ],
      "name": "quoteSwapOut",
      "outputs": [
        {
          "internalType": "uint256",
          "name": "_amountOut",
          "type": "uint256"
        },
        {
          "internalType": "uint256",
          "name": "_fee",
          "type": "uint256"
        }
      ],
      "stateMutability": "view",
      "type": "function"
    },
    {
      "inputs": [
        {
          "internalType": "contract IDebtToken",
          "name": "debtToken_",
          "type": "address"
        }
      ],
      "name": "removeDebtToken",
      "outputs": [],
      "stateMutability": "nonpayable",
      "type": "function"
    },
    {
      "inputs": [
        {
          "internalType": "contract IDepositToken",
          "name": "depositToken_",
          "type": "address"
        }
      ],
      "name": "removeDepositToken",
      "outputs": [],
      "stateMutability": "nonpayable",
      "type": "function"
    },
    {
      "inputs": [
        {
          "internalType": "address",
          "name": "account_",
          "type": "address"
        }
      ],
      "name": "removeFromDebtTokensOfAccount",
      "outputs": [],
      "stateMutability": "nonpayable",
      "type": "function"
    },
    {
      "inputs": [
        {
          "internalType": "address",
          "name": "account_",
          "type": "address"
        }
      ],
      "name": "removeFromDepositTokensOfAccount",
      "outputs": [],
      "stateMutability": "nonpayable",
      "type": "function"
    },
    {
      "inputs": [
        {
          "internalType": "contract IRewardsDistributor",
          "name": "distributor_",
          "type": "address"
        }
      ],
      "name": "removeRewardsDistributor",
      "outputs": [],
      "stateMutability": "nonpayable",
      "type": "function"
    },
    {
      "inputs": [],
      "name": "shutdown",
      "outputs": [],
      "stateMutability": "nonpayable",
      "type": "function"
    },
    {
      "inputs": [
        {
          "internalType": "contract ISyntheticToken",
          "name": "syntheticTokenIn_",
          "type": "address"
        },
        {
          "internalType": "contract ISyntheticToken",
          "name": "syntheticTokenOut_",
          "type": "address"
        },
        {
          "internalType": "uint256",
          "name": "amountIn_",
          "type": "uint256"
        }
      ],
      "name": "swap",
      "outputs": [
        {
          "internalType": "uint256",
          "name": "_amountOut",
          "type": "uint256"
        },
        {
          "internalType": "uint256",
          "name": "_fee",
          "type": "uint256"
        }
      ],
      "stateMutability": "nonpayable",
      "type": "function"
    },
    {
      "inputs": [],
      "name": "swapper",
      "outputs": [
        {
          "internalType": "contract ISwapper",
          "name": "",
          "type": "address"
        }
      ],
      "stateMutability": "view",
      "type": "function"
    },
    {
      "inputs": [
        {
          "internalType": "contract IERC20",
          "name": "token_",
          "type": "address"
        },
        {
          "internalType": "address",
          "name": "to_",
          "type": "address"
        },
        {
          "internalType": "uint256",
          "name": "amount_",
          "type": "uint256"
        }
      ],
      "name": "sweep",
      "outputs": [],
      "stateMutability": "nonpayable",
      "type": "function"
    },
    {
      "inputs": [],
      "name": "toggleIsSwapActive",
      "outputs": [],
      "stateMutability": "nonpayable",
      "type": "function"
    },
    {
      "inputs": [
        {
          "internalType": "address",
          "name": "proposedGovernor_",
          "type": "address"
        }
      ],
      "name": "transferGovernorship",
      "outputs": [],
      "stateMutability": "nonpayable",
      "type": "function"
    },
    {
      "inputs": [],
      "name": "treasury",
      "outputs": [
        {
          "internalType": "contract ITreasury",
          "name": "",
          "type": "address"
        }
      ],
      "stateMutability": "view",
      "type": "function"
    },
    {
      "inputs": [],
      "name": "unpause",
      "outputs": [],
      "stateMutability": "nonpayable",
      "type": "function"
    },
    {
      "inputs": [
        {
          "internalType": "uint256",
          "name": "newDebtFloorInUsd_",
          "type": "uint256"
        }
      ],
      "name": "updateDebtFloor",
      "outputs": [],
      "stateMutability": "nonpayable",
      "type": "function"
    },
    {
      "inputs": [
        {
          "internalType": "contract IFeeProvider",
          "name": "feeProvider_",
          "type": "address"
        }
      ],
      "name": "updateFeeProvider",
      "outputs": [],
      "stateMutability": "nonpayable",
      "type": "function"
    },
    {
      "inputs": [
        {
          "internalType": "uint256",
          "name": "newMaxLiquidable_",
          "type": "uint256"
        }
      ],
      "name": "updateMaxLiquidable",
      "outputs": [],
      "stateMutability": "nonpayable",
      "type": "function"
    },
    {
      "inputs": [
        {
          "internalType": "contract ISwapper",
          "name": "newSwapper_",
          "type": "address"
        }
      ],
      "name": "updateSwapper",
      "outputs": [],
      "stateMutability": "nonpayable",
      "type": "function"
    },
    {
      "inputs": [
        {
          "internalType": "contract ITreasury",
          "name": "newTreasury_",
          "type": "address"
        }
      ],
      "name": "updateTreasury",
      "outputs": [],
      "stateMutability": "nonpayable",
      "type": "function"
    },
    {
      "stateMutability": "payable",
      "type": "receive"
    }
  ],
  "transactionHash": "0xad7ac8f49e38de304ac52b6d32ca1b97aa9f22b4d040eddd56c27426965f5198",
  "args": [],
  "numDeployments": 2,
  "solcInputHash": "1d1eeb3af7f52d90d255aace1e1587c6",
  "bytecode": "0x608060405234801561001057600080fd5b50600280546001600160a01b031916339081179091556040516000907fd4459d5b8b913cab0244230fd9b1c08b6ceace7fe9230e60d0f74cbffdf849d0908290a3615442806100606000396000f3fe6080604052600436106103a65760003560e01c806379e40cba116101e7578063d283e75f1161010d578063f0c80d3b116100a0578063fb01600d1161006f578063fb01600d14610b41578063fc0e74d114610b56578063fcfff16f14610b6b578063ffa1ad7414610b80576103c4565b8063f0c80d3b14610ad6578063f3b27bc314610af6578063f609280914610b0b578063f8977b8414610b21576103c4565b8063df791e50116100dc578063df791e5014610a6b578063e35bff9614610a8b578063eaada38214610aac578063ecf3a3f914610ac1576103c4565b8063d283e75f146109c1578063d3033c39146109e1578063dbe466b114610a01578063dde3ab9514610a21576103c4565b80639ab620dd11610185578063c415b95c11610154578063c415b95c1461094c578063c4d66de814610961578063c4d68a1a14610981578063d176e05f146109a1576103c4565b80639ab620dd146108c15780639f8f0fa8146108d6578063afcff50f1461090c578063b6aa515b1461092c576103c4565b80638456cb59116101c15780638456cb591461083657806387cddc861461084b5780638a11a37014610881578063984a68b5146108a1576103c4565b806379e40cba146107d65780637d355163146107f65780637f51bb1f14610816576103c4565b80633f5fc131116102cc57806361d027b31161026a5780636b4f41af116102395780636b4f41af146107565780636c3393671461077657806375c6f8ec14610796578063770b69b4146107b6576103c4565b806361d027b3146106e157806362c067671461070157806363c56d421461072157806369c5dfd814610741576103c4565b80634d7e9a76116102a65780634d7e9a76146106775780634ff9b74a1461069757806356aaee2d146106ac5780635c975abb146106cc576103c4565b80633f5fc131146106175780634066fdea14610637578063450058f814610657576103c4565b80632b3297f911610344578063364fda0011610313578063364fda00146105875780633c2dc254146105a75780633de2f6b2146105e25780633f4ba83a14610602576103c4565b80632b3297f9146105015780632bcb849c146105215780632dd6adb5146105415780633605b51b14610565576103c4565b80631ccfbc4f116103805780631ccfbc4f1461046c57806323e3fbd5146104a1578063275038d0146104c15780632adcb0c6146104e1576103c4565b80630c340a24146103dd5780631a0dd00b1461041a5780631a4660ce1461044a576103c4565b366103c457604051636436c22d60e11b815260040160405180910390fd5b60405163a0152e6360e01b815260040160405180910390fd5b3480156103e957600080fd5b506002546103fd906001600160a01b031681565b6040516001600160a01b0390911681526020015b60405180910390f35b34801561042657600080fd5b5061043a610435366004614ec8565b610bbe565b6040519015158152602001610411565b34801561045657600080fd5b5061046a610465366004614ee5565b610bde565b005b34801561047857600080fd5b5061048c610487366004614efe565b610c6c565b60408051928352602083019190915201610411565b3480156104ad57600080fd5b5061048c6104bc366004614ec8565b610e2f565b3480156104cd57600080fd5b5061046a6104dc366004614ec8565b611080565b3480156104ed57600080fd5b5061048c6104fc366004614efe565b6110d2565b34801561050d57600080fd5b506017546103fd906001600160a01b031681565b34801561052d57600080fd5b5061046a61053c366004614ec8565b611282565b34801561054d57600080fd5b50610557600b5481565b604051908152602001610411565b34801561057157600080fd5b5061057a611368565b6040516104119190614f3f565b34801561059357600080fd5b5061048c6105a2366004614f8c565b611379565b3480156105b357600080fd5b506105c76105c2366004614fd2565b611767565b60408051938452602084019290925290820152606001610411565b3480156105ee57600080fd5b506105c76105fd366004615014565b61198c565b34801561060e57600080fd5b5061046a611fc5565b34801561062357600080fd5b5061046a610632366004614ec8565b612075565b34801561064357600080fd5b506018546103fd906001600160a01b031681565b34801561066357600080fd5b5061043a610672366004614ec8565b612109565b34801561068357600080fd5b5061048c610692366004615067565b61211c565b3480156106a357600080fd5b5061057a6125e4565b3480156106b857600080fd5b5061046a6106c7366004614ec8565b6125f0565b3480156106d857600080fd5b5061043a6126a1565b3480156106ed57600080fd5b50600d546103fd906001600160a01b031681565b34801561070d57600080fd5b5061046a61071c366004614efe565b61273d565b34801561072d57600080fd5b5061046a61073c366004614ec8565b612776565b34801561074d57600080fd5b50610557601e81565b34801561076257600080fd5b5061046a610771366004614ec8565b61282f565b34801561078257600080fd5b506105c7610791366004614fd2565b6129d5565b3480156107a257600080fd5b5061046a6107b1366004614ec8565b612bbf565b3480156107c257600080fd5b5061046a6107d1366004614ec8565b612c0e565b3480156107e257600080fd5b5061046a6107f1366004614ec8565b612c9e565b34801561080257600080fd5b5061057a610811366004614ec8565b612e48565b34801561082257600080fd5b5061046a610831366004614ec8565b612e55565b34801561084257600080fd5b5061046a612fa6565b34801561085757600080fd5b506103fd610866366004614ec8565b6010602052600090815260409020546001600160a01b031681565b34801561088d57600080fd5b506003546103fd906001600160a01b031681565b3480156108ad57600080fd5b506105576108bc3660046150cc565b613037565b3480156108cd57600080fd5b5061046a613192565b3480156108e257600080fd5b506103fd6108f1366004614ec8565b6016602052600090815260409020546001600160a01b031681565b34801561091857600080fd5b50600c546103fd906001600160a01b031681565b34801561093857600080fd5b5061046a610947366004614ec8565b61321e565b34801561095857600080fd5b506103fd613292565b34801561096d57600080fd5b5061046a61097c366004614ec8565b61330f565b34801561098d57600080fd5b5061046a61099c366004614ec8565b6133df565b3480156109ad57600080fd5b5061057a6109bc366004614ec8565b613593565b3480156109cd57600080fd5b506105576109dc366004614ec8565b6135a0565b3480156109ed57600080fd5b5061046a6109fc366004614ec8565b613763565b348015610a0d57600080fd5b5061046a610a1c366004614ec8565b61384c565b348015610a2d57600080fd5b50610a41610a3c366004614ec8565b613a00565b6040805195151586526020860194909452928401919091526060830152608082015260a001610411565b348015610a7757600080fd5b5061048c610a86366004614efe565b613a4a565b348015610a9757600080fd5b50600c5461043a90600160a01b900460ff1681565b348015610ab857600080fd5b506103fd613dd1565b348015610acd57600080fd5b5061043a613e16565b348015610ae257600080fd5b5061046a610af1366004614ee5565b613e7a565b348015610b0257600080fd5b5061046a613f31565b348015610b1757600080fd5b5061055760045481565b348015610b2d57600080fd5b5061043a610b3c366004614ec8565b613fc0565b348015610b4d57600080fd5b5061057a613fcd565b348015610b6257600080fd5b5061046a613fd9565b348015610b7757600080fd5b5061046a61406c565b348015610b8c57600080fd5b50610bb1604051806040016040528060058152602001640312e322e360dc1b81525081565b6040516104119190615138565b6001600160a01b0390811660009081526016602052604090205416151590565b6002546001600160a01b03163314610c0957604051634b98449160e11b815260040160405180910390fd5b60045481811415610c2d57604051630333a68160e41b815260040160405180910390fd5b60408051828152602081018490527f0662703672e57800b9439de3a419c9155283ad25ea7776c139c876bd8b93bb98910160405180910390a150600455565b60185460405163d2d6b5a360e01b8152336004820152600091829182916001600160a01b03169063d2d6b5a39060240160206040518083038186803b158015610cb457600080fd5b505afa158015610cc8573d6000803e3d6000fd5b505050506040513d601f19601f82011682018060405250810190610cec919061516b565b90508015610d1f57610d10610d0982670de0b6b3a764000061519a565b85906140f6565b9350610d1c848261412a565b91505b600c60009054906101000a90046001600160a01b03166001600160a01b031663eaada3826040518163ffffffff1660e01b815260040160206040518083038186803b158015610d6d57600080fd5b505afa158015610d81573d6000803e3d6000fd5b505050506040513d601f19601f82011682018060405250810190610da591906151b1565b6001600160a01b031663b64663848688876040518463ffffffff1660e01b8152600401610dd4939291906151ce565b60206040518083038186803b158015610dec57600080fd5b505afa158015610e00573d6000803e3d6000fd5b505050506040513d601f19601f82011682018060405250810190610e24919061516b565b925050935093915050565b6000806000610e3c613dd1565b90506000610e4b601386614162565b905060005b81811015611078576000610e6660138884614180565b90506000846001600160a01b0316638d0dba00836001600160a01b0316636f307dc36040518163ffffffff1660e01b815260040160206040518083038186803b158015610eb257600080fd5b505afa158015610ec6573d6000803e3d6000fd5b505050506040513d601f19601f82011682018060405250810190610eea91906151b1565b6040516370a0823160e01b81526001600160a01b038c811660048301528616906370a082319060240160206040518083038186803b158015610f2b57600080fd5b505afa158015610f3f573d6000803e3d6000fd5b505050506040513d601f19601f82011682018060405250810190610f63919061516b565b6040518363ffffffff1660e01b8152600401610f809291906151f2565b60206040518083038186803b158015610f9857600080fd5b505afa158015610fac573d6000803e3d6000fd5b505050506040513d601f19601f82011682018060405250810190610fd0919061516b565b9050610fdc818861520b565b9650611059826001600160a01b031663df011c416040518163ffffffff1660e01b815260040160206040518083038186803b15801561101a57600080fd5b505afa15801561102e573d6000803e3d6000fd5b505050506040513d601f19601f82011682018060405250810190611052919061516b565b829061412a565b611063908761520b565b955050508061107190615223565b9050610e50565b505050915091565b61108933613fc0565b6110a6576040516326688ebb60e11b815260040160405180910390fd5b6110b260138233614195565b6110cf5760405163a67d528360e01b815260040160405180910390fd5b50565b600080600c60009054906101000a90046001600160a01b03166001600160a01b031663eaada3826040518163ffffffff1660e01b815260040160206040518083038186803b15801561112357600080fd5b505afa158015611137573d6000803e3d6000fd5b505050506040513d601f19601f8201168201806040525081019061115b91906151b1565b6001600160a01b031663b64663848686866040518463ffffffff1660e01b815260040161118a939291906151ce565b60206040518083038186803b1580156111a257600080fd5b505afa1580156111b6573d6000803e3d6000fd5b505050506040513d601f19601f820116820180604052508101906111da919061516b565b60185460405163d2d6b5a360e01b81523360048201529193506000916001600160a01b039091169063d2d6b5a39060240160206040518083038186803b15801561122357600080fd5b505afa158015611237573d6000803e3d6000fd5b505050506040513d601f19601f8201168201806040525081019061125b919061516b565b905080156112795761126d838261412a565b9150610e24828461519a565b50935093915050565b6002546001600160a01b031633146112ad57604051634b98449160e11b815260040160405180910390fd5b6001600160a01b0381166112d45760405163fb7566d760e01b815260040160405180910390fd5b6018546001600160a01b0390811690821681141561130557604051630333a68160e41b815260040160405180910390fd5b816001600160a01b0316816001600160a01b03167f66fa9df7ccacf7a0c110fd7dd4591f59c76a798409b4aeaf850002679baca45560405160405180910390a350601880546001600160a01b0319166001600160a01b0392909216919091179055565b606061137460196141a2565b905090565b600080611384613e16565b156113a257604051631b0e923f60e11b815260040160405180910390fd5b600260015414156113ce5760405162461bcd60e51b81526004016113c59061523e565b60405180910390fd5b6002600155846113dd81613fc0565b6113fa57604051630d8b6eb760e01b815260040160405180910390fd5b8661140481610bbe565b6114215760405163a596698b60e01b815260040160405180910390fd5b6040516370a0823160e01b81523360048201526001600160a01b038816906370a082319060240160206040518083038186803b15801561146057600080fd5b505afa158015611474573d6000803e3d6000fd5b505050506040513d601f19601f82011682018060405250810190611498919061516b565b8611156114b857604051635de1e54160e01b815260040160405180910390fd5b6001600160a01b03888116600090815260166020526040908190205490516370a0823160e01b815233600482015291169081906370a082319060240160206040518083038186803b15801561150c57600080fd5b505afa158015611520573d6000803e3d6000fd5b505050506040513d601f19601f82011682018060405250810190611544919061516b565b86111561156457604051635de1e54160e01b815260040160405180910390fd5b6040516336e1668760e11b81526001600160a01b03891690636dc2cd0e906115929033908b906004016151f2565b6040805180830381600087803b1580156115ab57600080fd5b505af11580156115bf573d6000803e3d6000fd5b505050506040513d601f19601f820116820180604052508101906115e39190615275565b5080955050600061167d601760009054906101000a90046001600160a01b03168a6001600160a01b0316636f307dc36040518163ffffffff1660e01b815260040160206040518083038186803b15801561163c57600080fd5b505afa158015611650573d6000803e3d6000fd5b505050506040513d601f19601f8201168201806040525081019061167491906151b1565b8c8960006141af565b604051630450cfaf60e31b81529091506001600160a01b038316906322867d78906116ae90339085906004016151f2565b6040805180830381600087803b1580156116c757600080fd5b505af11580156116db573d6000803e3d6000fd5b505050506040513d601f19601f820116820180604052508101906116ff9190615275565b5094508685101561172357604051634394bddf60e11b815260040160405180910390fd5b600061172e33613a00565b505050509050806117525760405163cfd3600360e01b815260040160405180910390fd5b50505050506001808190555094509492505050565b6018546040805163cfc0c69f60e01b8152815160009384938493849384936001600160a01b03169263cfc0c69f9260048082019391829003018186803b1580156117b057600080fd5b505afa1580156117c4573d6000803e3d6000fd5b505050506040513d601f19601f820116820180604052508101906117e891906152b5565b909250905060006117f983836152e8565b6001600160801b0316905087811561182a5761182761182083670de0b6b3a764000061520b565b82906140f6565b90505b611832613dd1565b6001600160a01b031663b6466384896001600160a01b0316636f307dc36040518163ffffffff1660e01b815260040160206040518083038186803b15801561187957600080fd5b505afa15801561188d573d6000803e3d6000fd5b505050506040513d601f19601f820116820180604052508101906118b191906151b1565b8c846040518463ffffffff1660e01b81526004016118d1939291906151ce565b60206040518083038186803b1580156118e957600080fd5b505afa1580156118fd573d6000803e3d6000fd5b505050506040513d601f19601f82011682018060405250810190611921919061516b565b96506001600160801b0383161561194857611945816001600160801b03851661412a565b94505b6001600160801b0384161561197f5761197c61196c85670de0b6b3a76400006152e8565b82906001600160801b031661412a565b95505b5050505093509350939050565b6000806000611999613e16565b156119b757604051631b0e923f60e11b815260040160405180910390fd5b600260015414156119da5760405162461bcd60e51b81526004016113c59061523e565b6002600155866119e981610bbe565b611a065760405163a596698b60e01b815260040160405180910390fd5b84611a1081613fc0565b611a2d57604051630d8b6eb760e01b815260040160405180910390fd5b86611a4b576040516310eb483f60e21b815260040160405180910390fd5b336001600160a01b0389161415611a7557604051630ecda8a760e01b815260040160405180910390fd5b6001600160a01b03808a1660009081526016602052604080822054815163a6afed9560e01b81529151931692839263a6afed95926004808201939182900301818387803b158015611ac557600080fd5b505af1158015611ad9573d6000803e3d6000fd5b505050506000611ae88a613a00565b5050505090508015611b0d5760405163202881bd60e11b815260040160405180910390fd5b6040516370a0823160e01b81526001600160a01b038b81166004830152600091908416906370a082319060240160206040518083038186803b158015611b5257600080fd5b505afa158015611b66573d6000803e3d6000fd5b505050506040513d601f19601f82011682018060405250810190611b8a919061516b565b600b54909150611b9a8b836140f6565b1115611bb95760405163e292f24f60e01b815260040160405180910390fd5b6000611bc3613dd1565b60045490915015611c8a5760006001600160a01b038216638d0dba008f611bea8f8761519a565b6040518363ffffffff1660e01b8152600401611c079291906151f2565b60206040518083038186803b158015611c1f57600080fd5b505afa158015611c33573d6000803e3d6000fd5b505050506040513d601f19601f82011682018060405250810190611c57919061516b565b9050600081118015611c6a575060045481105b15611c88576040516332b9d47360e01b815260040160405180910390fd5b505b611c958d8c8c6129d5565b6040516370a0823160e01b8152929b5090995097506001600160a01b038b16906370a0823190611cd8908f906004016001600160a01b0391909116815260200190565b60206040518083038186803b158015611cf057600080fd5b505afa158015611d04573d6000803e3d6000fd5b505050506040513d601f19601f82011682018060405250810190611d28919061516b565b891115611d4857604051635de1e54160e01b815260040160405180910390fd5b604051632770a7eb60e21b81526001600160a01b038e1690639dc29fac90611d769033908f906004016151f2565b600060405180830381600087803b158015611d9057600080fd5b505af1158015611da4573d6000803e3d6000fd5b5050604051632770a7eb60e21b81526001600160a01b0387169250639dc29fac9150611dd6908f908f906004016151f2565b600060405180830381600087803b158015611df057600080fd5b505af1158015611e04573d6000803e3d6000fd5b505060405163b2a02ff160e01b81526001600160a01b038d16925063b2a02ff19150611e38908f9033908d906004016151ce565b600060405180830381600087803b158015611e5257600080fd5b505af1158015611e66573d6000803e3d6000fd5b505050506000871115611f5b57896001600160a01b031663b2a02ff18d600c60009054906101000a90046001600160a01b03166001600160a01b031663c415b95c6040518163ffffffff1660e01b815260040160206040518083038186803b158015611ed157600080fd5b505afa158015611ee5573d6000803e3d6000fd5b505050506040513d601f19601f82011682018060405250810190611f0991906151b1565b8a6040518463ffffffff1660e01b8152600401611f28939291906151ce565b600060405180830381600087803b158015611f4257600080fd5b505af1158015611f56573d6000803e3d6000fd5b505050505b604080518c8152602081018b90529081018890526001600160a01b03808f1691908e169033907fe1c3870e3d7d5199a16d200133088e6e3f7012d28571e442a110b4c83b5e3b949060600160405180910390a4505050505050600180819055509450945094915050565b611fcd6126a1565b611fea5760405163bc871ce560e01b815260040160405180910390fd5b611ff2613e16565b1561201057604051631b0e923f60e11b815260040160405180910390fd5b6002546001600160a01b0316331461203b57604051634b98449160e11b815260040160405180910390fd5b6003805460ff60a01b1916905560405133907f5db9ee0a495bf2e6ff9c91a7834c1ba4fdd244a5e8aa4e537bd38aeae4b073aa90600090a2565b61207e33613fc0565b61209b576040516326688ebb60e11b815260040160405180910390fd5b80601e6120a9601383614162565b6120b4601484614162565b6120be919061520b565b106120dc576040516306ceeb8360e21b815260040160405180910390fd5b6120e86013833361437d565b6121055760405163dd40dad960e01b815260040160405180910390fd5b5050565b600061211660118361438a565b92915050565b600080612127613e16565b1561214557604051631b0e923f60e11b815260040160405180910390fd5b600260015414156121685760405162461bcd60e51b81526004016113c59061523e565b60026001558661217781613fc0565b61219457604051630d8b6eb760e01b815260040160405180910390fd5b8661219e81610bbe565b6121bb5760405163a596698b60e01b815260040160405180910390fd5b670de0b6b3a764000086116121e357604051631907e1ff60e21b815260040160405180910390fd5b612278896001600160a01b031663df011c416040518163ffffffff1660e01b815260040160206040518083038186803b15801561221f57600080fd5b505afa158015612233573d6000803e3d6000fd5b505050506040513d601f19601f82011682018060405250810190612257919061516b565b61226990670de0b6b3a764000061519a565b670de0b6b3a7640000906140f6565b86111561229857604051630a4f5a0760e01b815260040160405180910390fd5b6000601760009054906101000a90046001600160a01b0316905060008a6001600160a01b0316636f307dc36040518163ffffffff1660e01b815260040160206040518083038186803b1580156122ed57600080fd5b505afa158015612301573d6000803e3d6000fd5b505050506040513d601f19601f8201168201806040525081019061232591906151b1565b90506001600160a01b038c1661233957809b505b61234e6001600160a01b038d1633308c6143ac565b806001600160a01b03168c6001600160a01b03161461237857612375828d838c60006141af565b98505b6000612382613dd1565b6001600160a01b031663b6466384838d6123b08e670de0b6b3a76400008f6123aa919061519a565b9061412a565b6040518463ffffffff1660e01b81526004016123ce939291906151ce565b60206040518083038186803b1580156123e657600080fd5b505afa1580156123fa573d6000803e3d6000fd5b505050506040513d601f19601f8201168201806040525081019061241e919061516b565b6001600160a01b03808d1660009081526016602052604090819020549051635fd0bb2b60e11b8152929350169063bfa176569061246190339085906004016151f2565b6040805180830381600087803b15801561247a57600080fd5b505af115801561248e573d6000803e3d6000fd5b505050506040513d601f19601f820116820180604052508101906124b29190615275565b50955060006124c4848d858a856141af565b6124ce908c61520b565b9050888110156124f15760405163c724afdf60e01b815260040160405180910390fd5b6125066001600160a01b0384168e600061440a565b61251a6001600160a01b0384168e8361440a565b604051636e553f6560e01b8152600481018290523360248201526001600160a01b038e1690636e553f65906044016040805180830381600087803b15801561256157600080fd5b505af1158015612575573d6000803e3d6000fd5b505050506040513d601f19601f820116820180604052508101906125999190615275565b50975060006125a733613a00565b505050509050806125cb5760405163cfd3600360e01b815260040160405180910390fd5b5050505050505060018081905550965096945050505050565b606061137460116141a2565b6002546001600160a01b0316331461261b57604051634b98449160e11b815260040160405180910390fd5b6001600160a01b0381166126425760405163fb7566d760e01b815260040160405180910390fd5b61264d60198261451d565b61266a57604051631e577fa560e31b815260040160405180910390fd5b6040516001600160a01b038216907f5579b1eead2d904c2b05255a92f5a4a4f3e234ae0a4efe538adef3c1794e1cea90600090a250565b600354600090600160a01b900460ff16806113745750600c60009054906101000a90046001600160a01b03166001600160a01b0316635c975abb6040518163ffffffff1660e01b815260040160206040518083038186803b15801561270557600080fd5b505afa158015612719573d6000803e3d6000fd5b505050506040513d601f19601f820116820180604052508101906113749190615313565b612745614532565b6001600160a01b0383166127625761275d828261455f565b505050565b61275d6001600160a01b0384168383614678565b6002546001600160a01b031633146127a157604051634b98449160e11b815260040160405180910390fd5b6001600160a01b0381166127c85760405163fb7566d760e01b815260040160405180910390fd5b6127d3601982614697565b6127f0576040516362c4c75f60e01b815260040160405180910390fd5b6040516001600160a01b03821681527f5412e32b52c11e4b232ab59f3660d55b48eb20735ccb2c67a0a1ebea0d6fe0199060200160405180910390a150565b6002546001600160a01b0316331461285a57604051634b98449160e11b815260040160405180910390fd5b6001600160a01b0381166128815760405163fb7566d760e01b815260040160405180910390fd5b6000816001600160a01b0316638230ecd66040518163ffffffff1660e01b815260040160206040518083038186803b1580156128bc57600080fd5b505afa1580156128d0573d6000803e3d6000fd5b505050506040513d601f19601f820116820180604052508101906128f491906151b1565b90506001600160a01b03811661291d5760405163013a1b4360e51b815260040160405180910390fd5b6001600160a01b0381811660009081526016602052604090205416156129565760405163fa9b809960e01b815260040160405180910390fd5b61296160118361451d565b61297e57604051631f477b5760e11b815260040160405180910390fd5b6001600160a01b0381811660009081526016602052604080822080546001600160a01b0319169386169384179055517fad48bee6bbb1b8ece321157ad29afc3c6baa177f8dc043132d65038cc601cdd69190a25050565b60008060006129e2613dd1565b6001600160a01b031663b646638487866001600160a01b0316636f307dc36040518163ffffffff1660e01b815260040160206040518083038186803b158015612a2a57600080fd5b505afa158015612a3e573d6000803e3d6000fd5b505050506040513d601f19601f82011682018060405250810190612a6291906151b1565b886040518463ffffffff1660e01b8152600401612a81939291906151ce565b60206040518083038186803b158015612a9957600080fd5b505afa158015612aad573d6000803e3d6000fd5b505050506040513d601f19601f82011682018060405250810190612ad1919061516b565b6018546040805163cfc0c69f60e01b8152815193955060009384936001600160a01b03169263cfc0c69f9260048082019391829003018186803b158015612b1757600080fd5b505afa158015612b2b573d6000803e3d6000fd5b505050506040513d601f19601f82011682018060405250810190612b4f91906152b5565b90925090506001600160801b03811615612b7957612b76846001600160801b03831661412a565b92505b6001600160801b03821615612ba857612b9b846001600160801b03841661412a565b612ba5908561520b565b93505b612bb2848461520b565b9450505093509350939050565b612bc833612109565b612be5576040516304f8b91760e51b815260040160405180910390fd5b612bf160148233614195565b6110cf576040516359c937f160e01b815260040160405180910390fd5b612c1733612109565b612c34576040516304f8b91760e51b815260040160405180910390fd5b80601e612c42601383614162565b612c4d601484614162565b612c57919061520b565b10612c75576040516306ceeb8360e21b815260040160405180910390fd5b612c816014833361437d565b61210557604051631f477b5760e11b815260040160405180910390fd5b6002546001600160a01b03163314612cc957604051634b98449160e11b815260040160405180910390fd5b6001600160a01b038116612cf05760405163fb7566d760e01b815260040160405180910390fd5b6000816001600160a01b0316636f307dc36040518163ffffffff1660e01b815260040160206040518083038186803b158015612d2b57600080fd5b505afa158015612d3f573d6000803e3d6000fd5b505050506040513d601f19601f82011682018060405250810190612d6391906151b1565b6001600160a01b038082166000908152601060205260409020549192501615612d9f5760405163374f601360e11b815260040160405180910390fd5b601e612dab600e6146ac565b10612dc95760405163225b605b60e21b815260040160405180910390fd5b612dd4600e8361451d565b612df15760405163dd40dad960e01b815260040160405180910390fd5b6001600160a01b0381811660009081526010602052604080822080546001600160a01b0319169386169384179055517fdc705e658c7b6c6c01f5802457bf4ffb99f204bf1603e7b1ae3d4c7536611bc29190a25050565b60606121166013836146b6565b6002546001600160a01b03163314612e8057604051634b98449160e11b815260040160405180910390fd5b6001600160a01b038116612ea75760405163fb7566d760e01b815260040160405180910390fd5b600d546001600160a01b03908116908216811415612ed857604051630333a68160e41b815260040160405180910390fd5b6001600160a01b03811615612f43576040516326ed7c7960e11b81526001600160a01b038381166004830152821690634ddaf8f290602401600060405180830381600087803b158015612f2a57600080fd5b505af1158015612f3e573d6000803e3d6000fd5b505050505b816001600160a01b0316816001600160a01b03167f4ab5be82436d353e61ca18726e984e561f5c1cc7c6d38b29d2553c790434705a60405160405180910390a350600d80546001600160a01b0319166001600160a01b0392909216919091179055565b612fae6126a1565b15612fcc57604051631309a56360e01b815260040160405180910390fd5b6002546001600160a01b03163314612ff757604051634b98449160e11b815260040160405180910390fd5b6003805460ff60a01b1916600160a01b17905560405133907f62e78cea01bee320cd4e420270b5ea74000d11b0c9f74754ebdbfc544b05a25890600090a2565b60008061304384613a00565b505050509050801561305957600091505061318b565b6040516370a0823160e01b81526001600160a01b0385811660048301526000916130e2918891908716906370a082319060240160206040518083038186803b1580156130a457600080fd5b505afa1580156130b8573d6000803e3d6000fd5b505050506040513d601f19601f820116820180604052508101906130dc919061516b565b86611767565b5050600b546001600160a01b03888116600090815260166020526040908190205490516370a0823160e01b8152898316600482015293945061317a939116906370a082319060240160206040518083038186803b15801561314257600080fd5b505afa158015613156573d6000803e3d6000fd5b505050506040513d601f19601f820116820180604052508101906123aa919061516b565b925082811015613188578092505b50505b9392505050565b6002546001600160a01b031633146131bd57604051634b98449160e11b815260040160405180910390fd5b600c54604051600160a01b90910460ff1615808252907fc8011ac148e14ab1e8f93a022ebc29088beedc705027c8eb9514d6d69c5b23639060200160405180910390a1600c8054911515600160a01b0260ff60a01b19909216919091179055565b6002546001600160a01b0316331461324957604051634b98449160e11b815260040160405180910390fd5b6001600160a01b03811661327057604051634c267bfb60e01b815260040160405180910390fd5b600380546001600160a01b0319166001600160a01b0392909216919091179055565b600c54604080516331056e5760e21b815290516000926001600160a01b03169163c415b95c916004808301926020929190829003018186803b1580156132d757600080fd5b505afa1580156132eb573d6000803e3d6000fd5b505050506040513d601f19601f8201168201806040525081019061137491906151b1565b600054610100900460ff1680613328575060005460ff16155b6133445760405162461bcd60e51b81526004016113c590615335565b600054610100900460ff16158015613366576000805461ffff19166101011790555b6001600160a01b03821661338d57604051637cb62f2b60e11b815260040160405180910390fd5b6133956146c4565b61339d614733565b600c80546001600160a81b0319166001600160a01b03841617600160a01b1790556706f05b59d3b20000600b558015612105576000805461ff00191690555050565b6002546001600160a01b0316331461340a57604051634b98449160e11b815260040160405180910390fd5b6000816001600160a01b03166318160ddd6040518163ffffffff1660e01b815260040160206040518083038186803b15801561344557600080fd5b505afa158015613459573d6000803e3d6000fd5b505050506040513d601f19601f8201168201806040525081019061347d919061516b565b111561349c5760405163066097f160e31b815260040160405180910390fd5b6134a7601182614697565b6134c4576040516359c937f160e01b815260040160405180910390fd5b60166000826001600160a01b0316638230ecd66040518163ffffffff1660e01b815260040160206040518083038186803b15801561350157600080fd5b505afa158015613515573d6000803e3d6000fd5b505050506040513d601f19601f8201168201806040525081019061353991906151b1565b6001600160a01b03908116825260208201929092526040908101600090812080546001600160a01b03191690559051918316917f81e9205ee5a9e1289fad5baa5e74bd49d4613652eb4626bb15925bf9fdbc0feb9190a250565b60606121166014836146b6565b6000806135ab613dd1565b905060006135ba601485614162565b905060005b8181101561375b5760006135d560148784614180565b9050836001600160a01b0316638d0dba00826001600160a01b0316638230ecd66040518163ffffffff1660e01b815260040160206040518083038186803b15801561361f57600080fd5b505afa158015613633573d6000803e3d6000fd5b505050506040513d601f19601f8201168201806040525081019061365791906151b1565b6040516370a0823160e01b81526001600160a01b038a811660048301528516906370a082319060240160206040518083038186803b15801561369857600080fd5b505afa1580156136ac573d6000803e3d6000fd5b505050506040513d601f19601f820116820180604052508101906136d0919061516b565b6040518363ffffffff1660e01b81526004016136ed9291906151f2565b60206040518083038186803b15801561370557600080fd5b505afa158015613719573d6000803e3d6000fd5b505050506040513d601f19601f8201168201806040525081019061373d919061516b565b613747908661520b565b9450508061375490615223565b90506135bf565b505050919050565b6002546001600160a01b0316331461378e57604051634b98449160e11b815260040160405180910390fd5b6001600160a01b0381166137b55760405163fb7566d760e01b815260040160405180910390fd5b6017546001600160a01b039081169082168114156137e657604051630333a68160e41b815260040160405180910390fd5b604080516001600160a01b038084168252841660208201527ffb7a5f1d35a7022d9d6343bfc9a25035829d0ea72da06978793c945b1d94a17f910160405180910390a150601780546001600160a01b0319166001600160a01b0392909216919091179055565b6002546001600160a01b0316331461387757604051634b98449160e11b815260040160405180910390fd5b6000816001600160a01b03166318160ddd6040518163ffffffff1660e01b815260040160206040518083038186803b1580156138b257600080fd5b505afa1580156138c6573d6000803e3d6000fd5b505050506040513d601f19601f820116820180604052508101906138ea919061516b565b11156139095760405163066097f160e31b815260040160405180910390fd5b613914600e82614697565b6139315760405163a67d528360e01b815260040160405180910390fd5b60106000826001600160a01b0316636f307dc36040518163ffffffff1660e01b815260040160206040518083038186803b15801561396e57600080fd5b505afa158015613982573d6000803e3d6000fd5b505050506040513d601f19601f820116820180604052508101906139a691906151b1565b6001600160a01b03908116825260208201929092526040908101600090812080546001600160a01b03191690559051918316917fe5a19a76470297a1f85f9a38f3ff148b4c8cdc1209e074dbe59db5e22eb31a3a9190a250565b6000806000806000613a11866135a0565b9250613a1c86610e2f565b8085111596509094509150818310613a35576000613a3f565b613a3f838361519a565b905091939590929450565b600080613a55613e16565b15613a7357604051631b0e923f60e11b815260040160405180910390fd5b60026001541415613a965760405162461bcd60e51b81526004016113c59061523e565b600260015584613aa581610bbe565b613ac25760405163a596698b60e01b815260040160405180910390fd5b84613acc81610bbe565b613ae95760405163a596698b60e01b815260040160405180910390fd5b600c54600160a01b900460ff16613b1357604051633840404b60e21b815260040160405180910390fd5b841580613b9557506040516370a0823160e01b81523360048201526001600160a01b038816906370a082319060240160206040518083038186803b158015613b5a57600080fd5b505afa158015613b6e573d6000803e3d6000fd5b505050506040513d601f19601f82011682018060405250810190613b92919061516b565b85115b15613bb35760405163ca99073960e01b815260040160405180910390fd5b604051632770a7eb60e21b81526001600160a01b03881690639dc29fac90613be190339089906004016151f2565b600060405180830381600087803b158015613bfb57600080fd5b505af1158015613c0f573d6000803e3d6000fd5b50505050613c1e8787876110d2565b90945092508215613d0f57856001600160a01b03166340c10f19600c60009054906101000a90046001600160a01b03166001600160a01b031663c415b95c6040518163ffffffff1660e01b815260040160206040518083038186803b158015613c8657600080fd5b505afa158015613c9a573d6000803e3d6000fd5b505050506040513d601f19601f82011682018060405250810190613cbe91906151b1565b856040518363ffffffff1660e01b8152600401613cdc9291906151f2565b600060405180830381600087803b158015613cf657600080fd5b505af1158015613d0a573d6000803e3d6000fd5b505050505b6040516340c10f1960e01b81526001600160a01b038716906340c10f1990613d3d90339088906004016151f2565b600060405180830381600087803b158015613d5757600080fd5b505af1158015613d6b573d6000803e3d6000fd5b505060408051888152602081018890529081018690526001600160a01b03808a1693508a16915033907fafd74f009c0ff7627726f24b568ee5529cd297f6a7a1e43ec363443a13a584209060600160405180910390a45050600180559094909350915050565b600c5460408051637556d1c160e11b815290516000926001600160a01b03169163eaada382916004808301926020929190829003018186803b1580156132d757600080fd5b600354600090600160a81b900460ff16806113745750600c60009054906101000a90046001600160a01b03166001600160a01b031663ecf3a3f96040518163ffffffff1660e01b815260040160206040518083038186803b15801561270557600080fd5b6002546001600160a01b03163314613ea557604051634b98449160e11b815260040160405180910390fd5b670de0b6b3a7640000811115613ece57604051633c2c00b560e21b815260040160405180910390fd5b600b5481811415613ef257604051630333a68160e41b815260040160405180910390fd5b60408051828152602081018490527f6d8ed4ad9ba67058e16e32fc3c8da2e3358da6cd1599e0e0fb2630d0a19fd49c910160405180910390a150600b55565b6003546001600160a01b0316338114613f5d5760405163038cdbad60e31b815260040160405180910390fd5b6002546040516001600160a01b038084169216907fd4459d5b8b913cab0244230fd9b1c08b6ceace7fe9230e60d0f74cbffdf849d090600090a3600280546001600160a01b039092166001600160a01b0319928316179055600380549091169055565b6000612116600e8361438a565b6060611374600e6141a2565b613fe1613e16565b15613fff57604051631b0e923f60e11b815260040160405180910390fd5b6002546001600160a01b0316331461402a57604051634b98449160e11b815260040160405180910390fd5b6003805461ffff60a01b191661010160a01b17905560405133907f28b4c24cb1012c094cd2f59f98e89d791973295f8fda6eaa118022d6d318960a90600090a2565b614074613e16565b61409157604051636e2cff4560e01b815260040160405180910390fd5b6002546001600160a01b031633146140bc57604051634b98449160e11b815260040160405180910390fd5b6003805460ff60a81b1916905560405133907fece7583a70a505ef0e36d4dec768f5ae597713e09c26011022599ee01abdabfc90600090a2565b600081614104600282615383565b614116670de0b6b3a7640000866153a5565b614120919061520b565b61318b9190615383565b6000821580614137575081155b1561414457506000612116565b670de0b6b3a7640000614158600282615383565b61411684866153a5565b6001600160a01b03811660009081526020839052604081205461318b565b600061418d8484846147a6565b949350505050565b600061418d8484846147ed565b6060600061318b8361499a565b60006141c56001600160a01b038616878361440a565b6141d96001600160a01b038616878561440a565b6040516370a0823160e01b81523060048201526000906001600160a01b038616906370a082319060240160206040518083038186803b15801561421b57600080fd5b505afa15801561422f573d6000803e3d6000fd5b505050506040513d601f19601f82011682018060405250810190614253919061516b565b604051636ccb2b0160e01b81526001600160a01b0388811660048301528781166024830152604482018790526064820186905230608483015291925090881690636ccb2b019060a401602060405180830381600087803b1580156142b657600080fd5b505af11580156142ca573d6000803e3d6000fd5b505050506040513d601f19601f820116820180604052508101906142ee919061516b565b506040516370a0823160e01b815230600482015281906001600160a01b038716906370a082319060240160206040518083038186803b15801561433057600080fd5b505afa158015614344573d6000803e3d6000fd5b505050506040513d601f19601f82011682018060405250810190614368919061516b565b614372919061519a565b979650505050505050565b600061418d8484846149f6565b6001600160a01b0381166000908152600183016020526040812054151561318b565b614404846323b872dd60e01b8585856040516024016143cd939291906151ce565b60408051601f198184030181529190526020810180516001600160e01b03166001600160e01b031990931692909217909152614a84565b50505050565b8015806144935750604051636eb1769f60e11b81523060048201526001600160a01b03838116602483015284169063dd62ed3e9060440160206040518083038186803b15801561445957600080fd5b505afa15801561446d573d6000803e3d6000fd5b505050506040513d601f19601f82011682018060405250810190614491919061516b565b155b6144fe5760405162461bcd60e51b815260206004820152603660248201527f5361666545524332303a20617070726f76652066726f6d206e6f6e2d7a65726f60448201527520746f206e6f6e2d7a65726f20616c6c6f77616e636560501b60648201526084016113c5565b61275d8363095ea7b360e01b84846040516024016143cd9291906151f2565b600061318b836001600160a01b038416614b56565b6002546001600160a01b0316331461455d57604051634b98449160e11b815260040160405180910390fd5b565b804710156145af5760405162461bcd60e51b815260206004820152601d60248201527f416464726573733a20696e73756666696369656e742062616c616e636500000060448201526064016113c5565b6000826001600160a01b03168260405160006040518083038185875af1925050503d80600081146145fc576040519150601f19603f3d011682016040523d82523d6000602084013e614601565b606091505b505090508061275d5760405162461bcd60e51b815260206004820152603a60248201527f416464726573733a20756e61626c6520746f2073656e642076616c75652c207260448201527f6563697069656e74206d6179206861766520726576657274656400000000000060648201526084016113c5565b61275d8363a9059cbb60e01b84846040516024016143cd9291906151f2565b600061318b836001600160a01b038416614ba5565b6000612116825490565b6060600061418d8484614c98565b600054610100900460ff16806146dd575060005460ff16155b6146f95760405162461bcd60e51b81526004016113c590615335565b600054610100900460ff1615801561471b576000805461ffff19166101011790555b6001805580156110cf576000805461ff001916905550565b600054610100900460ff168061474c575060005460ff16155b6147685760405162461bcd60e51b81526004016113c590615335565b600054610100900460ff1615801561478a576000805461ffff19166101011790555b614792614d0d565b80156110cf576000805461ff001916905550565b6001600160a01b03821660009081526020849052604081208054839081106147d0576147d06153c4565b6000918252602090912001546001600160a01b0316949350505050565b6001600160a01b0380831660009081526020858152604080832093851683526001909301905290812054801561499057600061482a60018361519a565b6001600160a01b038616600090815260208890526040812054919250906148539060019061519a565b905081811461490f576001600160a01b0386166000908152602088905260408120805483908110614886576148866153c4565b60009182526020808320909101546001600160a01b038a81168452918b905260409092208054919092169250829190859081106148c5576148c56153c4565b600091825260208083209190910180546001600160a01b0319166001600160a01b0394851617905589831682528a8152604080832094909316825260019390930190925290208390555b6001600160a01b0386166000908152602088905260409020805480614936576149366153da565b60008281526020808220830160001990810180546001600160a01b03191690559092019092556001600160a01b03888116835289825260408084209189168452600191820190925290822091909155935061318b92505050565b600091505061318b565b6060816000018054806020026020016040519081016040528092919081815260200182805480156149ea57602002820191906000526020600020905b8154815260200190600101908083116149d6575b50505050509050919050565b6001600160a01b0380831660009081526020858152604080832093851683526001909301905290812054614a7c57506001600160a01b0382811660009081526020858152604080832080546001808201835582865284862090910180546001600160a01b031916968816968717905581549585529081019092529091209190915561318b565b50600061318b565b6000614ad9826040518060400160405280602081526020017f5361666545524332303a206c6f772d6c6576656c2063616c6c206661696c6564815250856001600160a01b0316614db89092919063ffffffff16565b80519091501561275d5780806020019051810190614af79190615313565b61275d5760405162461bcd60e51b815260206004820152602a60248201527f5361666545524332303a204552433230206f7065726174696f6e20646964206e6044820152691bdd081cdd58d8d9595960b21b60648201526084016113c5565b6000818152600183016020526040812054614b9d57508154600181810184556000848152602080822090930184905584548482528286019093526040902091909155612116565b506000612116565b60008181526001830160205260408120548015614c8e576000614bc960018361519a565b8554909150600090614bdd9060019061519a565b9050818114614c42576000866000018281548110614bfd57614bfd6153c4565b9060005260206000200154905080876000018481548110614c2057614c206153c4565b6000918252602080832090910192909255918252600188019052604090208390555b8554869080614c5357614c536153da565b600190038181906000526020600020016000905590558560010160008681526020019081526020016000206000905560019350505050612116565b6000915050612116565b6001600160a01b03811660009081526020838152604091829020805483518184028101840190945280845260609392830182828015614d0057602002820191906000526020600020905b81546001600160a01b03168152600190910190602001808311614ce2575b5050505050905092915050565b600054610100900460ff1680614d26575060005460ff16155b614d425760405162461bcd60e51b81526004016113c590615335565b600054610100900460ff16158015614d64576000805461ffff19166101011790555b600280546001600160a01b031916339081179091556040516000907fd4459d5b8b913cab0244230fd9b1c08b6ceace7fe9230e60d0f74cbffdf849d0908290a380156110cf576000805461ff001916905550565b606061418d848460008585843b614e115760405162461bcd60e51b815260206004820152601d60248201527f416464726573733a2063616c6c20746f206e6f6e2d636f6e747261637400000060448201526064016113c5565b600080866001600160a01b03168587604051614e2d91906153f0565b60006040518083038185875af1925050503d8060008114614e6a576040519150601f19603f3d011682016040523d82523d6000602084013e614e6f565b606091505b509150915061437282828660608315614e8957508161318b565b825115614e995782518084602001fd5b8160405162461bcd60e51b81526004016113c59190615138565b6001600160a01b03811681146110cf57600080fd5b600060208284031215614eda57600080fd5b813561318b81614eb3565b600060208284031215614ef757600080fd5b5035919050565b600080600060608486031215614f1357600080fd5b8335614f1e81614eb3565b92506020840135614f2e81614eb3565b929592945050506040919091013590565b6020808252825182820181905260009190848201906040850190845b81811015614f805783516001600160a01b031683529284019291840191600101614f5b565b50909695505050505050565b60008060008060808587031215614fa257600080fd5b8435614fad81614eb3565b93506020850135614fbd81614eb3565b93969395505050506040820135916060013590565b600080600060608486031215614fe757600080fd5b8335614ff281614eb3565b925060208401359150604084013561500981614eb3565b809150509250925092565b6000806000806080858703121561502a57600080fd5b843561503581614eb3565b9350602085013561504581614eb3565b925060408501359150606085013561505c81614eb3565b939692955090935050565b60008060008060008060c0878903121561508057600080fd5b863561508b81614eb3565b9550602087013561509b81614eb3565b945060408701356150ab81614eb3565b959894975094956060810135955060808101359460a0909101359350915050565b6000806000606084860312156150e157600080fd5b83356150ec81614eb3565b925060208401356150fc81614eb3565b9150604084013561500981614eb3565b60005b8381101561512757818101518382015260200161510f565b838111156144045750506000910152565b602081526000825180602084015261515781604085016020870161510c565b601f01601f19169190910160400192915050565b60006020828403121561517d57600080fd5b5051919050565b634e487b7160e01b600052601160045260246000fd5b6000828210156151ac576151ac615184565b500390565b6000602082840312156151c357600080fd5b815161318b81614eb3565b6001600160a01b039384168152919092166020820152604081019190915260600190565b6001600160a01b03929092168252602082015260400190565b6000821982111561521e5761521e615184565b500190565b600060001982141561523757615237615184565b5060010190565b6020808252601f908201527f5265656e7472616e637947756172643a207265656e7472616e742063616c6c00604082015260600190565b6000806040838503121561528857600080fd5b505080516020909101519092909150565b80516001600160801b03811681146152b057600080fd5b919050565b600080604083850312156152c857600080fd5b6152d183615299565b91506152df60208401615299565b90509250929050565b60006001600160801b0380831681851680830382111561530a5761530a615184565b01949350505050565b60006020828403121561532557600080fd5b8151801515811461318b57600080fd5b6020808252602e908201527f496e697469616c697a61626c653a20636f6e747261637420697320616c72656160408201526d191e481a5b9a5d1a585b1a5e995960921b606082015260800190565b6000826153a057634e487b7160e01b600052601260045260246000fd5b500490565b60008160001904831182151516156153bf576153bf615184565b500290565b634e487b7160e01b600052603260045260246000fd5b634e487b7160e01b600052603160045260246000fd5b6000825161540281846020870161510c565b919091019291505056fea2646970667358221220ab50c378711b9359cf71e20e376a9d582561282bcf584e6279d3d7426fc1018464736f6c63430008090033",
  "devdoc": {
    "kind": "dev",
    "methods": {
      "addDebtToken(address)": {
        "details": "Must keep `debtTokenOf` mapping updated"
      },
      "addToDebtTokensOfAccount(address)": {
        "details": "This function is called from `DebtToken` when user's balance changes from `0`The caller should ensure to not pass `address(0)` as `_account`",
        "params": {
          "account_": "The account address"
        }
      },
      "addToDepositTokensOfAccount(address)": {
        "details": "This function is called from `DepositToken` when user's balance changes from `0`The caller should ensure to not pass `address(0)` as `_account`",
        "params": {
          "account_": "The account address"
        }
      },
      "debtOf(address)": {
        "params": {
          "account_": "The account to check"
        },
        "returns": {
          "_debtInUsd": "The debt value in USD"
        }
      },
      "debtPositionOf(address)": {
        "params": {
          "account_": "The account to check"
        },
        "returns": {
          "_debtInUsd": "The total debt in USD",
          "_depositInUsd": "The total collateral deposited in USD",
          "_isHealthy": "Whether the account's position is healthy",
          "_issuableInUsd": "The amount of debt (is USD) that is free (i.e. can be used to issue synthetic tokens)",
          "_issuableLimitInUsd": "The max amount of debt (is USD) that can be created (considering collateral factors)"
        }
      },
      "depositOf(address)": {
        "params": {
          "account_": "The account to check"
        },
        "returns": {
          "_depositInUsd": "The total deposit value in USD among all collaterals",
          "_issuableLimitInUsd": "The max value in USD that can be used to issue synthetic tokens"
        }
      },
      "doesDebtTokenExist(address)": {
        "params": {
          "debtToken_": "Asset to check"
        },
        "returns": {
          "_0": "true if exist"
        }
      },
      "doesDepositTokenExist(address)": {
        "params": {
          "depositToken_": "Asset to check"
        },
        "returns": {
          "_0": "true if exist"
        }
      },
      "doesSyntheticTokenExist(address)": {
        "params": {
          "syntheticToken_": "Asset to check"
        },
        "returns": {
          "_0": "true if exist"
        }
      },
      "flashRepay(address,address,uint256,uint256)": {
        "params": {
          "depositToken_": "The collateral to withdraw",
          "repayAmountMin_": "The minimum amount to repay (slippage check)",
          "syntheticToken_": "The debt token to repay",
          "withdrawAmount_": "The amount to withdraw"
        }
      },
      "getDebtTokens()": {
        "details": "WARNING: This operation will copy the entire storage to memory, which can be quite expensive. This is designed to mostly be used by view accessors that are queried without any gas fees."
      },
      "getDebtTokensOfAccount(address)": {
        "details": "WARNING: This operation will copy the entire storage to memory, which can be quite expensive. This is designed to mostly be used by view accessors that are queried without any gas fees."
      },
      "getDepositTokens()": {
        "details": "WARNING: This operation will copy the entire storage to memory, which can be quite expensive. This is designed to mostly be used by view accessors that are queried without any gas fees."
      },
      "getDepositTokensOfAccount(address)": {
        "details": "WARNING: This operation will copy the entire storage to memory, which can be quite expensive. This is designed to mostly be used by view accessors that are queried without any gas fees."
      },
      "leverage(address,address,address,uint256,uint256,uint256)": {
        "params": {
          "amountIn_": "The amount to deposit",
          "depositAmountMin_": "The min final deposit amount (slippage)",
          "depositToken_": "The collateral to deposit",
          "leverage_": "The leverage X param (e.g. 1.5e18 for 1.5X)",
          "syntheticToken_": "The msAsset to mint",
          "tokenIn_": "The token to transfer"
        }
      },
      "liquidate(address,address,uint256,address)": {
        "params": {
          "account_": "The account with an unhealthy position",
          "amountToRepay_": "The amount to repay in synthetic token",
          "depositToken_": "The collateral to seize from",
          "syntheticToken_": "The msAsset to use for repayment"
        },
        "returns": {
          "_fee": "Share of `_totalSeized` collected as fee",
          "_toLiquidator": "Share of `_totalSeized` sent to the liquidator",
          "_totalSeized": "Total deposit amount seized from the liquidated account"
        }
      },
      "open()": {
        "details": "Open contract operations, if contract is in shutdown state"
      },
      "pause()": {
        "details": "Suspend deposit feature, if contract is not paused."
      },
      "quoteLiquidateIn(address,uint256,address)": {
        "params": {
          "depositToken_": "Collateral's deposit token",
          "syntheticToken_": "Synth for repayment",
          "totalToSeize_": "Collateral total amount to size"
        },
        "returns": {
          "_amountToRepay": "Synth amount to burn",
          "_fee": "The fee amount to collect",
          "_toLiquidator": "Seized amount to the liquidator"
        }
      },
      "quoteLiquidateMax(address,address,address)": {
        "details": "I.e. Considers the min amount between collateral's balance and `maxLiquidable` param",
        "params": {
          "account_": "The account to liquidate",
          "depositToken_": "Collateral's deposit token",
          "syntheticToken_": "Synth for repayment"
        },
        "returns": {
          "_maxAmountToRepay": "Synth amount to burn"
        }
      },
      "quoteLiquidateOut(address,uint256,address)": {
        "params": {
          "amountToRepay_": "Synth amount to burn",
          "depositToken_": "Collateral's deposit token",
          "syntheticToken_": "Synth for repayment"
        },
        "returns": {
          "_fee": "The fee amount to collect",
          "_toLiquidator": "Seized amount to the liquidator",
          "_totalToSeize": "Collateral total amount to size"
        }
      },
      "quoteSwapIn(address,address,uint256)": {
        "params": {
          "amountOut_": "Amount out",
          "syntheticTokenIn_": "Synth in",
          "syntheticTokenOut_": "Synth out"
        },
        "returns": {
          "_amountIn": "Amount in",
          "_fee": "Fee to charge in `syntheticTokenOut_`"
        }
      },
      "quoteSwapOut(address,address,uint256)": {
        "params": {
          "amountIn_": "Amount in",
          "syntheticTokenIn_": "Synth in",
          "syntheticTokenOut_": "Synth out"
        },
        "returns": {
          "_amountOut": "Amount out",
          "_fee": "Fee to charge in `syntheticTokenOut_`"
        }
      },
      "removeDebtToken(address)": {
        "details": "Must keep `debtTokenOf` mapping updated"
      },
      "removeFromDebtTokensOfAccount(address)": {
        "details": "This function is called from `DebtToken` when user's balance changes to `0`The caller should ensure to not pass `address(0)` as `_account`",
        "params": {
          "account_": "The account address"
        }
      },
      "removeFromDepositTokensOfAccount(address)": {
        "details": "This function is called from `DepositToken` when user's balance changes to `0`The caller should ensure to not pass `address(0)` as `_account`",
        "params": {
          "account_": "The account address"
        }
      },
      "shutdown()": {
        "details": "Suspend all features (issue, repay, deposit, withdraw, liquidate and swap), if not already shutdown."
      },
      "swap(address,address,uint256)": {
        "params": {
          "amountIn_": "Amount to swap",
          "syntheticTokenIn_": "Synthetic token to sell",
          "syntheticTokenOut_": "Synthetic token to buy"
        }
      },
      "sweep(address,address,uint256)": {
        "params": {
          "amount_": "The amount to send",
          "to_": "The recipient of the transfer",
          "token_": "The token to transfer"
        }
      },
      "transferGovernorship(address)": {
        "details": "Can only be called by the current owner.",
        "params": {
          "proposedGovernor_": "The new proposed governor"
        }
      },
      "unpause()": {
        "details": "Unpause contract operations, allow only if contract is paused and not shutdown."
      }
    },
    "title": "Pool contract",
    "version": 1
  },
  "userdoc": {
    "events": {
      "DebtFloorUpdated(uint256,uint256)": {
        "notice": "Emitted when protocol liquidation fee is updated"
      },
      "DebtTokenAdded(address)": {
        "notice": "Emitted when debt token is enabled"
      },
      "DebtTokenRemoved(address)": {
        "notice": "Emitted when debt token is disabled"
      },
      "DepositTokenAdded(address)": {
        "notice": "Emitted when deposit token is enabled"
      },
      "DepositTokenRemoved(address)": {
        "notice": "Emitted when deposit token is disabled"
      },
      "FeeProviderUpdated(address,address)": {
        "notice": "Emitted when fee provider contract is updated"
      },
      "MaxLiquidableUpdated(uint256,uint256)": {
        "notice": "Emitted when maxLiquidable (liquidation cap) is updated"
      },
      "Open(address)": {
        "notice": "Emitted when contract is turned on"
      },
      "Paused(address)": {
        "notice": "Emitted when contract is paused"
      },
      "PositionLiquidated(address,address,address,uint256,uint256,uint256)": {
        "notice": "Emitted when a position is liquidated"
      },
      "RewardsDistributorAdded(address)": {
        "notice": "Emitted when rewards distributor contract is added"
      },
      "RewardsDistributorRemoved(address)": {
        "notice": "Emitted when rewards distributor contract is removed"
      },
      "Shutdown(address)": {
        "notice": "Emitted when contract is shuted down"
      },
      "SwapActiveUpdated(bool)": {
        "notice": "Emitted when the swap active flag is updated"
      },
      "SwapperUpdated(address,address)": {
        "notice": "Emitted when swapper contract is updated"
      },
      "SyntheticTokenSwapped(address,address,address,uint256,uint256,uint256)": {
        "notice": "Emitted when synthetic token is swapped"
      },
      "TreasuryUpdated(address,address)": {
        "notice": "Emitted when treasury contract is updated"
      },
      "Unpaused(address)": {
        "notice": "Emitted when contract is unpaused"
      }
    },
    "kind": "user",
    "methods": {
      "MAX_TOKENS_PER_USER()": {
        "notice": "Maximum tokens per pool a user may have"
      },
      "acceptGovernorship()": {
        "notice": "Allows new governor to accept governorship of the contract."
      },
      "addDebtToken(address)": {
        "notice": "Add debt token to offerings"
      },
      "addDepositToken(address)": {
        "notice": "Add deposit token (i.e. collateral) to Synth"
      },
      "addRewardsDistributor(address)": {
        "notice": "Add a RewardsDistributor contract"
      },
      "addToDebtTokensOfAccount(address)": {
        "notice": "Add a debt token to the per-account list"
      },
      "addToDepositTokensOfAccount(address)": {
        "notice": "Add a deposit token to the per-account list"
      },
      "debtFloorInUsd()": {
        "notice": "The debt floor (in USD) for each synthetic token This parameters is used to keep incentive for liquidators (i.e. cover gas and provide enough profit)"
      },
      "debtOf(address)": {
        "notice": "Get account's debt by querying latest prices from oracles"
      },
      "debtPositionOf(address)": {
        "notice": "Returns whether the debt position from an account is healthy"
      },
      "debtTokenOf(address)": {
        "notice": "Get the debt token's address from given synthetic asset"
      },
      "depositOf(address)": {
        "notice": "Get account's total collateral deposited by querying latest prices from oracles"
      },
      "depositTokenOf(address)": {
        "notice": "Get the deposit token's address from given underlying asset"
      },
      "doesDebtTokenExist(address)": {
        "notice": "Check if token is part of the debt offerings"
      },
      "doesDepositTokenExist(address)": {
        "notice": "Check if collateral is supported"
      },
      "doesSyntheticTokenExist(address)": {
        "notice": "Check if token is part of the synthetic offerings"
      },
      "everythingStopped()": {
        "notice": "Return `true` if contract is shutdown"
      },
      "feeCollector()": {
        "notice": "Returns fee collector address"
      },
      "feeProvider()": {
        "notice": "FeeProvider contract"
      },
      "flashRepay(address,address,uint256,uint256)": {
        "notice": "Flash debt repayment"
      },
      "getDebtTokens()": {
        "notice": "Get all debt tokens"
      },
      "getDebtTokensOfAccount(address)": {
        "notice": "Get all debt tokens"
      },
      "getDepositTokens()": {
        "notice": "Get all deposit tokens"
      },
      "getDepositTokensOfAccount(address)": {
        "notice": "Get deposit tokens of an account"
      },
      "getRewardsDistributors()": {
        "notice": "Get all rewards distributors"
      },
      "governor()": {
        "notice": "The governor"
      },
      "isSwapActive()": {
        "notice": "Swap feature on/off flag"
      },
      "leverage(address,address,address,uint256,uint256,uint256)": {
        "notice": "Leverage yield position"
      },
      "liquidate(address,address,uint256,address)": {
        "notice": "Burn synthetic token, unlock deposit token and send liquidator incentive"
      },
      "masterOracle()": {
        "notice": "Get MasterOracle contract"
      },
      "maxLiquidable()": {
        "notice": "The max percent of the debt allowed to liquidate"
      },
      "paused()": {
        "notice": "Return `true` if contract is paused"
      },
      "poolRegistry()": {
        "notice": "PoolRegistry"
      },
      "proposedGovernor()": {
        "notice": "The proposed governor"
      },
      "quoteLiquidateIn(address,uint256,address)": {
        "notice": "Quote synth  `_amountToRepay` in order to seize `totalToSeized_`"
      },
      "quoteLiquidateMax(address,address,address)": {
        "notice": "Quote max allowed synth to repay"
      },
      "quoteLiquidateOut(address,uint256,address)": {
        "notice": "Quote collateral  `totalToSeized_` by repaying `amountToRepay_`"
      },
      "quoteSwapIn(address,address,uint256)": {
        "notice": "Quote `_amountIn` to get `amountOut_`"
      },
      "quoteSwapOut(address,address,uint256)": {
        "notice": "Quote `amountOut_` get from `amountIn_`"
      },
      "removeDebtToken(address)": {
        "notice": "Remove debt token from offerings"
      },
      "removeDepositToken(address)": {
        "notice": "Remove deposit token (i.e. collateral) from Synth"
      },
      "removeFromDebtTokensOfAccount(address)": {
        "notice": "Remove a debt token from the per-account list"
      },
      "removeFromDepositTokensOfAccount(address)": {
        "notice": "Remove a deposit token from the per-account list"
      },
      "removeRewardsDistributor(address)": {
        "notice": "Remove a RewardsDistributor contract"
      },
      "swap(address,address,uint256)": {
        "notice": "Swap synthetic tokens"
      },
      "swapper()": {
        "notice": "Swapper contract"
      },
      "sweep(address,address,uint256)": {
        "notice": "ERC20 recovery in case of stuck tokens due direct transfers to the contract address."
      },
      "toggleIsSwapActive()": {
        "notice": "Turn swap on/off"
      },
      "transferGovernorship(address)": {
        "notice": "Transfers governorship of the contract to a new account (`proposedGovernor`)."
      },
      "treasury()": {
        "notice": "Treasury contract"
      },
      "updateDebtFloor(uint256)": {
        "notice": "Update debt floor"
      },
      "updateFeeProvider(address)": {
        "notice": "Update FeeProvider contract"
      },
      "updateMaxLiquidable(uint256)": {
        "notice": "Update maxLiquidable (liquidation cap)"
      },
      "updateSwapper(address)": {
        "notice": "Update swapper contract"
      },
      "updateTreasury(address)": {
        "notice": "Update treasury contract - will migrate funds to the new contract"
      }
    },
    "version": 1
  },
  "storageLayout": {
    "storage": [
      {
        "astId": 10100,
        "contract": "contracts/Pool.sol:Pool",
        "label": "_initialized",
        "offset": 0,
        "slot": "0",
        "type": "t_bool"
      },
      {
        "astId": 10103,
        "contract": "contracts/Pool.sol:Pool",
        "label": "_initializing",
        "offset": 1,
        "slot": "0",
        "type": "t_bool"
      },
      {
        "astId": 10154,
        "contract": "contracts/Pool.sol:Pool",
        "label": "_status",
        "offset": 0,
        "slot": "1",
        "type": "t_uint256"
      },
      {
        "astId": 8973,
        "contract": "contracts/Pool.sol:Pool",
        "label": "governor",
        "offset": 0,
        "slot": "2",
        "type": "t_address"
      },
      {
        "astId": 8976,
        "contract": "contracts/Pool.sol:Pool",
        "label": "proposedGovernor",
        "offset": 0,
        "slot": "3",
        "type": "t_address"
      },
      {
        "astId": 17085,
        "contract": "contracts/Pool.sol:Pool",
        "label": "_paused",
        "offset": 20,
        "slot": "3",
        "type": "t_bool"
      },
      {
        "astId": 17087,
        "contract": "contracts/Pool.sol:Pool",
        "label": "_everythingStopped",
        "offset": 21,
        "slot": "3",
        "type": "t_bool"
      },
      {
        "astId": 15801,
        "contract": "contracts/Pool.sol:Pool",
        "label": "debtFloorInUsd",
        "offset": 0,
        "slot": "4",
        "type": "t_uint256"
      },
      {
        "astId": 15803,
        "contract": "contracts/Pool.sol:Pool",
        "label": "depositFee__DEPRECATED",
        "offset": 0,
        "slot": "5",
        "type": "t_uint256"
      },
      {
        "astId": 15805,
        "contract": "contracts/Pool.sol:Pool",
        "label": "issueFee__DEPRECATED",
        "offset": 0,
        "slot": "6",
        "type": "t_uint256"
      },
      {
        "astId": 15807,
        "contract": "contracts/Pool.sol:Pool",
        "label": "withdrawFee__DEPRECATED",
        "offset": 0,
        "slot": "7",
        "type": "t_uint256"
      },
      {
        "astId": 15809,
        "contract": "contracts/Pool.sol:Pool",
        "label": "repayFee__DEPRECATED",
        "offset": 0,
        "slot": "8",
        "type": "t_uint256"
      },
      {
        "astId": 15811,
        "contract": "contracts/Pool.sol:Pool",
        "label": "swapFee__DEPRECATED",
        "offset": 0,
        "slot": "9",
        "type": "t_uint256"
      },
      {
        "astId": 15813,
        "contract": "contracts/Pool.sol:Pool",
        "label": "liquidationFees__DEPRECATED",
        "offset": 0,
        "slot": "10",
        "type": "t_uint256"
      },
      {
        "astId": 15817,
        "contract": "contracts/Pool.sol:Pool",
        "label": "maxLiquidable",
        "offset": 0,
        "slot": "11",
        "type": "t_uint256"
      },
      {
        "astId": 15822,
        "contract": "contracts/Pool.sol:Pool",
        "label": "poolRegistry",
        "offset": 0,
        "slot": "12",
        "type": "t_contract(IPoolRegistry)13318"
      },
      {
        "astId": 15826,
        "contract": "contracts/Pool.sol:Pool",
        "label": "isSwapActive",
        "offset": 20,
        "slot": "12",
        "type": "t_bool"
      },
      {
        "astId": 15831,
        "contract": "contracts/Pool.sol:Pool",
        "label": "treasury",
        "offset": 0,
        "slot": "13",
        "type": "t_contract(ITreasury)13519"
      },
      {
        "astId": 15835,
        "contract": "contracts/Pool.sol:Pool",
        "label": "depositTokens",
        "offset": 0,
        "slot": "14",
        "type": "t_struct(AddressSet)12230_storage"
      },
      {
        "astId": 15843,
        "contract": "contracts/Pool.sol:Pool",
        "label": "depositTokenOf",
        "offset": 0,
        "slot": "16",
        "type": "t_mapping(t_contract(IERC20)10809,t_contract(IDepositToken)12793)"
      },
      {
        "astId": 15847,
        "contract": "contracts/Pool.sol:Pool",
        "label": "debtTokens",
        "offset": 0,
        "slot": "17",
        "type": "t_struct(AddressSet)12230_storage"
      },
      {
        "astId": 15851,
        "contract": "contracts/Pool.sol:Pool",
        "label": "depositTokensOfAccount",
        "offset": 0,
        "slot": "19",
        "type": "t_struct(AddressSet)13742_storage"
      },
      {
        "astId": 15855,
        "contract": "contracts/Pool.sol:Pool",
        "label": "debtTokensOfAccount",
        "offset": 0,
        "slot": "20",
        "type": "t_struct(AddressSet)13742_storage"
      },
      {
        "astId": 15860,
        "contract": "contracts/Pool.sol:Pool",
        "label": "rewardsDistributors__DEPRECATED",
        "offset": 0,
        "slot": "21",
        "type": "t_array(t_contract(IRewardsDistributor)13449)dyn_storage"
      },
      {
        "astId": 15868,
        "contract": "contracts/Pool.sol:Pool",
        "label": "debtTokenOf",
        "offset": 0,
        "slot": "22",
        "type": "t_mapping(t_contract(ISyntheticToken)13504,t_contract(IDebtToken)12661)"
      },
      {
        "astId": 15875,
        "contract": "contracts/Pool.sol:Pool",
        "label": "swapper",
        "offset": 0,
        "slot": "23",
        "type": "t_contract(ISwapper)13685"
      },
      {
        "astId": 15880,
        "contract": "contracts/Pool.sol:Pool",
        "label": "feeProvider",
        "offset": 0,
        "slot": "24",
        "type": "t_contract(IFeeProvider)12841"
      },
      {
        "astId": 15884,
        "contract": "contracts/Pool.sol:Pool",
        "label": "rewardsDistributors",
        "offset": 0,
        "slot": "25",
        "type": "t_struct(AddressSet)12230_storage"
      }
    ],
    "types": {
      "t_address": {
        "encoding": "inplace",
        "label": "address",
        "numberOfBytes": "20"
      },
      "t_array(t_address)dyn_storage": {
        "base": "t_address",
        "encoding": "dynamic_array",
        "label": "address[]",
        "numberOfBytes": "32"
      },
      "t_array(t_bytes32)dyn_storage": {
        "base": "t_bytes32",
        "encoding": "dynamic_array",
        "label": "bytes32[]",
        "numberOfBytes": "32"
      },
      "t_array(t_contract(IRewardsDistributor)13449)dyn_storage": {
        "base": "t_contract(IRewardsDistributor)13449",
        "encoding": "dynamic_array",
        "label": "contract IRewardsDistributor[]",
        "numberOfBytes": "32"
      },
      "t_bool": {
        "encoding": "inplace",
        "label": "bool",
        "numberOfBytes": "1"
      },
      "t_bytes32": {
        "encoding": "inplace",
        "label": "bytes32",
        "numberOfBytes": "32"
      },
      "t_contract(IDebtToken)12661": {
        "encoding": "inplace",
        "label": "contract IDebtToken",
        "numberOfBytes": "20"
      },
      "t_contract(IDepositToken)12793": {
        "encoding": "inplace",
        "label": "contract IDepositToken",
        "numberOfBytes": "20"
      },
      "t_contract(IERC20)10809": {
        "encoding": "inplace",
        "label": "contract IERC20",
        "numberOfBytes": "20"
      },
      "t_contract(IFeeProvider)12841": {
        "encoding": "inplace",
        "label": "contract IFeeProvider",
        "numberOfBytes": "20"
      },
      "t_contract(IPoolRegistry)13318": {
        "encoding": "inplace",
        "label": "contract IPoolRegistry",
        "numberOfBytes": "20"
      },
      "t_contract(IRewardsDistributor)13449": {
        "encoding": "inplace",
        "label": "contract IRewardsDistributor",
        "numberOfBytes": "20"
      },
      "t_contract(ISwapper)13685": {
        "encoding": "inplace",
        "label": "contract ISwapper",
        "numberOfBytes": "20"
      },
      "t_contract(ISyntheticToken)13504": {
        "encoding": "inplace",
        "label": "contract ISyntheticToken",
        "numberOfBytes": "20"
      },
      "t_contract(ITreasury)13519": {
        "encoding": "inplace",
        "label": "contract ITreasury",
        "numberOfBytes": "20"
      },
      "t_mapping(t_address,t_struct(Set)13736_storage)": {
        "encoding": "mapping",
        "key": "t_address",
        "label": "mapping(address => struct MappedEnumerableSet.Set)",
        "numberOfBytes": "32",
        "value": "t_struct(Set)13736_storage"
      },
      "t_mapping(t_address,t_uint256)": {
        "encoding": "mapping",
        "key": "t_address",
        "label": "mapping(address => uint256)",
        "numberOfBytes": "32",
        "value": "t_uint256"
      },
      "t_mapping(t_bytes32,t_uint256)": {
        "encoding": "mapping",
        "key": "t_bytes32",
        "label": "mapping(bytes32 => uint256)",
        "numberOfBytes": "32",
        "value": "t_uint256"
      },
      "t_mapping(t_contract(IERC20)10809,t_contract(IDepositToken)12793)": {
        "encoding": "mapping",
        "key": "t_contract(IERC20)10809",
        "label": "mapping(contract IERC20 => contract IDepositToken)",
        "numberOfBytes": "32",
        "value": "t_contract(IDepositToken)12793"
      },
      "t_mapping(t_contract(ISyntheticToken)13504,t_contract(IDebtToken)12661)": {
        "encoding": "mapping",
        "key": "t_contract(ISyntheticToken)13504",
        "label": "mapping(contract ISyntheticToken => contract IDebtToken)",
        "numberOfBytes": "32",
        "value": "t_contract(IDebtToken)12661"
      },
      "t_struct(AddressSet)12230_storage": {
        "encoding": "inplace",
        "label": "struct EnumerableSet.AddressSet",
        "members": [
          {
            "astId": 12229,
            "contract": "contracts/Pool.sol:Pool",
            "label": "_inner",
            "offset": 0,
            "slot": "0",
            "type": "t_struct(Set)11929_storage"
          }
        ],
        "numberOfBytes": "64"
      },
      "t_struct(AddressSet)13742_storage": {
        "encoding": "inplace",
        "label": "struct MappedEnumerableSet.AddressSet",
        "members": [
          {
            "astId": 13741,
            "contract": "contracts/Pool.sol:Pool",
            "label": "_ofAddress",
            "offset": 0,
            "slot": "0",
            "type": "t_mapping(t_address,t_struct(Set)13736_storage)"
          }
        ],
        "numberOfBytes": "32"
      },
      "t_struct(Set)11929_storage": {
        "encoding": "inplace",
        "label": "struct EnumerableSet.Set",
        "members": [
          {
            "astId": 11924,
            "contract": "contracts/Pool.sol:Pool",
            "label": "_values",
            "offset": 0,
            "slot": "0",
            "type": "t_array(t_bytes32)dyn_storage"
          },
          {
            "astId": 11928,
            "contract": "contracts/Pool.sol:Pool",
            "label": "_indexes",
            "offset": 0,
            "slot": "1",
            "type": "t_mapping(t_bytes32,t_uint256)"
          }
        ],
        "numberOfBytes": "64"
      },
      "t_struct(Set)13736_storage": {
        "encoding": "inplace",
        "label": "struct MappedEnumerableSet.Set",
        "members": [
          {
            "astId": 13731,
            "contract": "contracts/Pool.sol:Pool",
            "label": "_values",
            "offset": 0,
            "slot": "0",
            "type": "t_array(t_address)dyn_storage"
          },
          {
            "astId": 13735,
            "contract": "contracts/Pool.sol:Pool",
            "label": "_indexes",
            "offset": 0,
            "slot": "1",
            "type": "t_mapping(t_address,t_uint256)"
          }
        ],
        "numberOfBytes": "64"
      },
      "t_uint256": {
        "encoding": "inplace",
        "label": "uint256",
        "numberOfBytes": "32"
      }
    }
  }
}