{
  "address": "0x119B9ce7b2087153d02c8aA8F7dc914BB7E5FB5F",
  "abi": [
    {
      "inputs": [],
      "name": "ArraysLengthDoNotMatch",
      "type": "error"
    },
    {
      "inputs": [],
      "name": "DistributorDoesNotExist",
      "type": "error"
    },
    {
      "inputs": [],
      "name": "InvalidToken",
      "type": "error"
    },
    {
      "inputs": [],
      "name": "PoolAddressIsNull",
      "type": "error"
    },
    {
      "inputs": [],
      "name": "ReachedMaxRewardTokens",
      "type": "error"
    },
    {
      "inputs": [],
      "name": "RewardTokenIsNull",
      "type": "error"
    },
    {
      "inputs": [],
      "name": "SenderIsNotGovernor",
      "type": "error"
    },
    {
      "anonymous": false,
      "inputs": [
        {
          "indexed": true,
          "internalType": "address",
          "name": "account",
          "type": "address"
        },
        {
          "indexed": false,
          "internalType": "uint256",
          "name": "amount",
          "type": "uint256"
        }
      ],
      "name": "RewardClaimed",
      "type": "event"
    },
    {
      "anonymous": false,
      "inputs": [
        {
          "indexed": false,
          "internalType": "uint224",
          "name": "newIndex",
          "type": "uint224"
        },
        {
          "indexed": false,
          "internalType": "uint32",
          "name": "newTimestamp",
          "type": "uint32"
        }
      ],
      "name": "TokenIndexUpdated",
      "type": "event"
    },
    {
      "anonymous": false,
      "inputs": [
        {
          "indexed": true,
          "internalType": "contract IERC20",
          "name": "token",
          "type": "address"
        },
        {
          "indexed": false,
          "internalType": "uint256",
          "name": "oldSpeed",
          "type": "uint256"
        },
        {
          "indexed": false,
          "internalType": "uint256",
          "name": "newSpeed",
          "type": "uint256"
        }
      ],
      "name": "TokenSpeedUpdated",
      "type": "event"
    },
    {
      "anonymous": false,
      "inputs": [
        {
          "indexed": true,
          "internalType": "contract IERC20",
          "name": "token",
          "type": "address"
        },
        {
          "indexed": true,
          "internalType": "address",
          "name": "account",
          "type": "address"
        },
        {
          "indexed": false,
          "internalType": "uint256",
          "name": "tokensDelta",
          "type": "uint256"
        },
        {
          "indexed": false,
          "internalType": "uint256",
          "name": "supplyIndex",
          "type": "uint256"
        }
      ],
      "name": "TokensAccruedUpdated",
      "type": "event"
    },
    {
      "inputs": [],
      "name": "INITIAL_INDEX",
      "outputs": [
        {
          "internalType": "uint224",
          "name": "",
          "type": "uint224"
        }
      ],
      "stateMutability": "view",
      "type": "function"
    },
    {
      "inputs": [],
      "name": "MAX_REWARD_TOKENS",
      "outputs": [
        {
          "internalType": "uint224",
          "name": "",
          "type": "uint224"
        }
      ],
      "stateMutability": "view",
      "type": "function"
    },
    {
      "inputs": [],
      "name": "VERSION",
      "outputs": [
        {
          "internalType": "string",
          "name": "",
          "type": "string"
        }
      ],
      "stateMutability": "view",
      "type": "function"
    },
    {
      "inputs": [
        {
          "internalType": "contract IERC20",
          "name": "",
          "type": "address"
        },
        {
          "internalType": "address",
          "name": "",
          "type": "address"
        }
      ],
      "name": "accountIndexOf",
      "outputs": [
        {
          "internalType": "uint256",
          "name": "",
          "type": "uint256"
        }
      ],
      "stateMutability": "view",
      "type": "function"
    },
    {
      "inputs": [
        {
          "internalType": "address",
          "name": "account_",
          "type": "address"
        },
        {
          "internalType": "contract IERC20[]",
          "name": "tokens_",
          "type": "address[]"
        }
      ],
      "name": "claimRewards",
      "outputs": [],
      "stateMutability": "nonpayable",
      "type": "function"
    },
    {
      "inputs": [
        {
          "internalType": "address[]",
          "name": "accounts_",
          "type": "address[]"
        },
        {
          "internalType": "contract IERC20[]",
          "name": "tokens_",
          "type": "address[]"
        }
      ],
      "name": "claimRewards",
      "outputs": [],
      "stateMutability": "nonpayable",
      "type": "function"
    },
    {
      "inputs": [
        {
          "internalType": "address",
          "name": "account_",
          "type": "address"
        }
      ],
      "name": "claimRewards",
      "outputs": [],
      "stateMutability": "nonpayable",
      "type": "function"
    },
    {
      "inputs": [
        {
          "internalType": "address",
          "name": "account_",
          "type": "address"
        }
      ],
      "name": "claimable",
      "outputs": [
        {
          "internalType": "uint256",
          "name": "_claimable",
          "type": "uint256"
        }
      ],
      "stateMutability": "view",
      "type": "function"
    },
    {
      "inputs": [
        {
          "internalType": "address",
          "name": "account_",
          "type": "address"
        },
        {
          "internalType": "contract IERC20",
          "name": "token_",
          "type": "address"
        }
      ],
      "name": "claimable",
      "outputs": [
        {
          "internalType": "uint256",
          "name": "_claimable",
          "type": "uint256"
        }
      ],
      "stateMutability": "view",
      "type": "function"
    },
    {
      "inputs": [],
      "name": "governor",
      "outputs": [
        {
          "internalType": "address",
          "name": "_governor",
          "type": "address"
        }
      ],
      "stateMutability": "view",
      "type": "function"
    },
    {
      "inputs": [
        {
          "internalType": "contract IPool",
          "name": "pool_",
          "type": "address"
        },
        {
          "internalType": "contract IERC20",
          "name": "rewardToken_",
          "type": "address"
        }
      ],
      "name": "initialize",
      "outputs": [],
      "stateMutability": "nonpayable",
      "type": "function"
    },
    {
      "inputs": [],
      "name": "pool",
      "outputs": [
        {
          "internalType": "contract IPool",
          "name": "",
          "type": "address"
        }
      ],
      "stateMutability": "view",
      "type": "function"
    },
    {
      "inputs": [],
      "name": "rewardToken",
      "outputs": [
        {
          "internalType": "contract IERC20",
          "name": "",
          "type": "address"
        }
      ],
      "stateMutability": "view",
      "type": "function"
    },
    {
      "inputs": [
        {
          "internalType": "contract IERC20",
          "name": "",
          "type": "address"
        }
      ],
      "name": "tokenSpeeds",
      "outputs": [
        {
          "internalType": "uint256",
          "name": "",
          "type": "uint256"
        }
      ],
      "stateMutability": "view",
      "type": "function"
    },
    {
      "inputs": [
        {
          "internalType": "contract IERC20",
          "name": "",
          "type": "address"
        }
      ],
      "name": "tokenStates",
      "outputs": [
        {
          "internalType": "uint224",
          "name": "index",
          "type": "uint224"
        },
        {
          "internalType": "uint32",
          "name": "timestamp",
          "type": "uint32"
        }
      ],
      "stateMutability": "view",
      "type": "function"
    },
    {
      "inputs": [
        {
          "internalType": "uint256",
          "name": "",
          "type": "uint256"
        }
      ],
      "name": "tokens",
      "outputs": [
        {
          "internalType": "contract IERC20",
          "name": "",
          "type": "address"
        }
      ],
      "stateMutability": "view",
      "type": "function"
    },
    {
      "inputs": [
        {
          "internalType": "address",
          "name": "",
          "type": "address"
        }
      ],
      "name": "tokensAccruedOf",
      "outputs": [
        {
          "internalType": "uint256",
          "name": "",
          "type": "uint256"
        }
      ],
      "stateMutability": "view",
      "type": "function"
    },
    {
      "inputs": [
        {
          "internalType": "contract IERC20",
          "name": "token_",
          "type": "address"
        },
        {
          "internalType": "address",
          "name": "account_",
          "type": "address"
        }
      ],
      "name": "updateBeforeMintOrBurn",
      "outputs": [],
      "stateMutability": "nonpayable",
      "type": "function"
    },
    {
      "inputs": [
        {
          "internalType": "contract IERC20",
          "name": "token_",
          "type": "address"
        },
        {
          "internalType": "address",
          "name": "from_",
          "type": "address"
        },
        {
          "internalType": "address",
          "name": "to_",
          "type": "address"
        }
      ],
      "name": "updateBeforeTransfer",
      "outputs": [],
      "stateMutability": "nonpayable",
      "type": "function"
    },
    {
      "inputs": [
        {
          "internalType": "contract IERC20",
          "name": "token_",
          "type": "address"
        },
        {
          "internalType": "uint256",
          "name": "newSpeed_",
          "type": "uint256"
        }
      ],
      "name": "updateTokenSpeed",
      "outputs": [],
      "stateMutability": "nonpayable",
      "type": "function"
    },
    {
      "inputs": [
        {
          "internalType": "contract IERC20[]",
          "name": "tokens_",
          "type": "address[]"
        },
        {
          "internalType": "uint256[]",
          "name": "speeds_",
          "type": "uint256[]"
        }
      ],
      "name": "updateTokenSpeeds",
      "outputs": [],
      "stateMutability": "nonpayable",
      "type": "function"
    }
  ],
  "transactionHash": "0xef49e467519749585b5b8fd7c7d0fcc90ebbd8b3f6fd6738261b47f95f4d2f0a",
  "args": [],
  "numDeployments": 1,
  "solcInputHash": "39157ddb13861b2afdd6feacda57f5f0",
  "bytecode": "0x608060405234801561001057600080fd5b50611ef3806100206000396000f3fe608060405234801561001057600080fd5b50600436106101375760003560e01c80635d0cde97116100b8578063b17b23a01161007c578063b17b23a0146102e9578063b9afda2d146102fc578063d4570c1c1461030f578063ef5cfb8c14610322578063f7c618c114610335578063ffa1ad741461034857600080fd5b80635d0cde971461024857806389cb096a14610250578063a0cfa0dd14610296578063a428d9c8146102b6578063aa629975146102c957600080fd5b80631b30f0c0116100ff5780631b30f0c0146101e95780632026ffa3146101fc578063402914f51461020f578063485cc955146102225780634f64b2be1461023557600080fd5b8063013bc51c1461013c57806301bc3acb1461017a5780630c340a241461018f578063160c3a03146101af57806316f0115b146101d6575b600080fd5b61016761014a3660046118b2565b603860209081526000928352604080842090915290825290205481565b6040519081526020015b60405180910390f35b61018d610188366004611937565b610379565b005b61019761043e565b6040516001600160a01b039091168152602001610171565b6101be670de0b6b3a764000081565b6040516001600160e01b039091168152602001610171565b600254610197906001600160a01b031681565b61018d6101f73660046118b2565b6104c0565b61018d61020a366004611a82565b6104fe565b61016761021d366004611ad2565b610563565b61018d6102303660046118b2565b6105c4565b610197610243366004611aef565b61068d565b6101be601481565b61028861025e366004611ad2565b6037602052600090815260409020546001600160e01b03811690600160e01b900463ffffffff1682565b604051610171929190611b08565b6101676102a4366004611ad2565b60366020526000908152604090205481565b61018d6102c4366004611b27565b6106b7565b6101676102d7366004611ad2565b60396020526000908152604090205481565b61018d6102f7366004611bdf565b61083c565b61018d61030a366004611c2a565b610880565b61016761031d3660046118b2565b6108c3565b61018d610330366004611ad2565b610996565b603454610197906001600160a01b031681565b61036c604051806040016040528060058152602001640312e322e360dc1b81525081565b6040516101719190611c82565b61038161043e565b6001600160a01b0316336001600160a01b0316146103b257604051634b98449160e11b815260040160405180910390fd5b828181146103d357604051631dc1520760e31b815260040160405180910390fd5b60005b81811015610436576104268686838181106103f3576103f3611cb5565b90506020020160208101906104089190611ad2565b85858481811061041a5761041a611cb5565b905060200201356109fd565b61042f81611ce1565b90506103d6565b505050505050565b6002546040805163030d028960e21b815290516000926001600160a01b031691630c340a24916004808301926020929190829003018186803b15801561048357600080fd5b505afa158015610497573d6000803e3d6000fd5b505050506040513d601f19601f820116820180604052508101906104bb9190611cfc565b905090565b6001600160a01b0382166000908152603760205260409020546001600160e01b0316156104fa576104f082610e05565b6104fa8282610f49565b5050565b60408051600180825281830190925260009160208083019080368337019050509050828160008151811061053457610534611cb5565b60200260200101906001600160a01b031690816001600160a01b03168152505061055e81836106b7565b505050565b6000805b6035548110156105be576105a2836035838154811061058857610588611cb5565b6000918252602090912001546001600160a01b03166108c3565b6105ac9083611d19565b91506105b781611ce1565b9050610567565b50919050565b600054610100900460ff16806105dd575060005460ff16155b6106025760405162461bcd60e51b81526004016105f990611d31565b60405180910390fd5b600054610100900460ff16158015610624576000805461ffff19166101011790555b6001600160a01b03821661064b57604051636d4b163760e11b815260040160405180910390fd5b61065361101b565b61065c8361108a565b603480546001600160a01b0319166001600160a01b038416179055801561055e576000805461ff0019169055505050565b6035818154811061069d57600080fd5b6000918252602090912001546001600160a01b0316905081565b6002600154141561070a5760405162461bcd60e51b815260206004820152601f60248201527f5265656e7472616e637947756172643a207265656e7472616e742063616c6c0060448201526064016105f9565b60026001558151815160005b818110156107c557600084828151811061073257610732611cb5565b6020908102919091018101516001600160a01b038116600090815260379092526040909120549091506001600160e01b0316156107b45761077281610e05565b60005b848110156107b2576107a08288838151811061079357610793611cb5565b6020026020010151610f49565b806107aa81611ce1565b915050610775565b505b506107be81611ce1565b9050610716565b5060005b828110156108315760008582815181106107e5576107e5611cb5565b6020026020010151905061081e8160396000846001600160a01b03166001600160a01b0316815260200190815260200160002054611138565b508061082981611ce1565b9150506107c9565b505060018055505050565b6001600160a01b0383166000908152603760205260409020546001600160e01b03161561055e5761086c83610e05565b6108768383610f49565b61055e8382610f49565b61088861043e565b6001600160a01b0316336001600160a01b0316146108b957604051634b98449160e11b815260040160405180910390fd5b6104fa82826109fd565b6001600160a01b03811660009081526037602090815260408083208151808301909252546001600160e01b0381168252600160e01b900463ffffffff16918101919091528180610913838661123f565b915091506000826001600160e01b0316118015610936575060008163ffffffff16115b15610966576040518060400160405280836001600160e01b031681526020018263ffffffff16815250925061097f565b63ffffffff81161561097f5763ffffffff811660208401525b61098a838688611392565b98975050505050505050565b6109fa8160358054806020026020016040519081016040528092919081815260200182805480156109f057602002820191906000526020600020905b81546001600160a01b031681526001909101906020018083116109d2575b50505050506104fe565b50565b600080600260009054906101000a90046001600160a01b03166001600160a01b0316633605b51b6040518163ffffffff1660e01b815260040160006040518083038186803b158015610a4e57600080fd5b505afa158015610a62573d6000803e3d6000fd5b505050506040513d6000823e601f3d908101601f19168201604052610a8a9190810190611d7f565b805190915060005b81811015610ae657306001600160a01b0316838281518110610ab657610ab6611cb5565b60200260200101516001600160a01b03161415610ad65760019350610ae6565b610adf81611ce1565b9050610a92565b5082610b0557604051634757a01f60e01b815260040160405180910390fd5b6002546040516308a00b1f60e31b81526001600160a01b03808816600483015287921690819063450058f89060240160206040518083038186803b158015610b4c57600080fd5b505afa158015610b60573d6000803e3d6000fd5b505050506040513d601f19601f82011682018060405250810190610b849190611e0e565b158015610c075750604051633e25dee160e21b81526001600160a01b03838116600483015282169063f8977b849060240160206040518083038186803b158015610bcd57600080fd5b505afa158015610be1573d6000803e3d6000fd5b505050506040513d601f19601f82011682018060405250810190610c059190611e0e565b155b15610c255760405163c1ab6dc160e01b815260040160405180910390fd5b6001600160a01b0387166000908152603660205260409020548015610c5257610c4d88610e05565b610d9e565b8615610d9e576001600160a01b0388166000908152603760205260409020546001600160e01b0316610d5a5760355460141415610ca257604051639e8b4a2160e01b815260040160405180910390fd5b6040518060400160405280670de0b6b3a76400006001600160e01b03168152602001610ccd426114b8565b63ffffffff9081169091526001600160a01b038a166000818152603760209081526040822085519590910151909316600160e01b026001600160e01b03909416939093179091556035805460018101825592527fcfa4bec1d3298408bb5afcfcd9c430549c5b31f8aa5c5848151c0a55f473c34d90910180546001600160a01b0319169091179055610d9e565b610d63426114b8565b6001600160a01b0389166000908152603760205260409020805463ffffffff92909216600160e01b026001600160e01b039092169190911790555b868114610dfb576001600160a01b0388166000818152603660209081526040918290208a905581518481529081018a90527f07295410ddc875d5ff9b778ece2c279c9b91abeefd296803662b28cf6ad33c08910160405180910390a25b5050505050505050565b6001600160a01b0381166000908152603760209081526040808320815180830190925280546001600160e01b0381168352600160e01b900463ffffffff16928201929092529091908190610e59908561123f565b915091506000826001600160e01b0316118015610e7c575060008163ffffffff16115b15610eda5763ffffffff8116600160e01b026001600160e01b0383161783556040517f883d8b44a1f0e651bb0d11a8e962de03c77a351328bbeb12b702e5632288ee6f90610ecd9084908490611b08565b60405180910390a1610f43565b63ffffffff811615610f4357825463ffffffff8216600160e01b026001600160e01b0391821681811786556040517f883d8b44a1f0e651bb0d11a8e962de03c77a351328bbeb12b702e5632288ee6f93610f3a9316909117908490611b08565b60405180910390a15b50505050565b6001600160a01b03821660009081526037602090815260408083208151808301909252546001600160e01b0381168252600160e01b900463ffffffff169181019190915281908190610f9c908686611392565b6001600160a01b038881166000818152603860209081526040808320948c16808452948252808320889055603982529182902085905581518681529081018790529598509396509194509290917f49abdf3748a8d465b0d3d5d126dab076f5109ea80b761c4c1c45b2710165087b910160405180910390a35050505050565b600054610100900460ff1680611034575060005460ff16155b6110505760405162461bcd60e51b81526004016105f990611d31565b600054610100900460ff16158015611072576000805461ffff19166101011790555b6001805580156109fa576000805461ff001916905550565b600054610100900460ff16806110a3575060005460ff16155b6110bf5760405162461bcd60e51b81526004016105f990611d31565b600054610100900460ff161580156110e1576000805461ffff19166101011790555b6001600160a01b0382166111085760405163724f500960e01b815260040160405180910390fd5b600280546001600160a01b0319166001600160a01b03841617905580156104fa576000805461ff00191690555050565b6034546040516370a0823160e01b81523060048201526001600160a01b039091169060009082906370a082319060240160206040518083038186803b15801561118057600080fd5b505afa158015611194573d6000803e3d6000fd5b505050506040513d601f19601f820116820180604052508101906111b89190611e30565b90506000831180156111ca5750808311155b15610f43576001600160a01b038085166000908152603960205260408120556111f69083168585611521565b836001600160a01b03167f106f923f993c2149d49b4255ff723acafa1f2d94393f561d3eda32ae348f72418460405161123191815260200190565b60405180910390a250505050565b6001600160a01b03811660009081526036602090815260408220549084015182919082906112739063ffffffff1642611e49565b90506000811180156112855750600082115b1561135f576000856001600160a01b03166318160ddd6040518163ffffffff1660e01b815260040160206040518083038186803b1580156112c557600080fd5b505afa1580156112d9573d6000803e3d6000fd5b505050506040513d601f19601f820116820180604052508101906112fd9190611e30565b9050600061130b8484611e60565b9050600080831161131d576000611327565b6113278284611573565b905061134a818a600001516001600160e01b03166113459190611d19565b6115b0565b9650611355426114b8565b9550505050611389565b600081118015611378575085516001600160e01b031615155b1561138957611386426114b8565b92505b50509250929050565b82516001600160a01b0380841660009081526038602090815260408083209386168352929052908120546001600160e01b03909216918190801580156113df5750670de0b6b3a764000084115b156113ef5750670de0b6b3a76400005b60006113fb8286611e49565b6040516370a0823160e01b81526001600160a01b038881166004830152919250611484918391908a16906370a082319060240160206040518083038186803b15801561144657600080fd5b505afa15801561145a573d6000803e3d6000fd5b505050506040513d601f19601f8201168201806040525081019061147e9190611e30565b90611619565b6001600160a01b0387166000908152603960205260409020549094506114ab908590611d19565b9250505093509350939050565b600063ffffffff82111561151d5760405162461bcd60e51b815260206004820152602660248201527f53616665436173743a2076616c756520646f65736e27742066697420696e203360448201526532206269747360d01b60648201526084016105f9565b5090565b604080516001600160a01b038416602482015260448082018490528251808303909101815260649091019091526020810180516001600160e01b031663a9059cbb60e01b17905261055e908490611651565b600081611581600282611e7f565b611593670de0b6b3a764000086611e60565b61159d9190611d19565b6115a79190611e7f565b90505b92915050565b60006001600160e01b0382111561151d5760405162461bcd60e51b815260206004820152602760248201527f53616665436173743a2076616c756520646f65736e27742066697420696e20326044820152663234206269747360c81b60648201526084016105f9565b6000821580611626575081155b15611633575060006115aa565b670de0b6b3a7640000611647600282611e7f565b6115938486611e60565b60006116a6826040518060400160405280602081526020017f5361666545524332303a206c6f772d6c6576656c2063616c6c206661696c6564815250856001600160a01b03166117239092919063ffffffff16565b80519091501561055e57808060200190518101906116c49190611e0e565b61055e5760405162461bcd60e51b815260206004820152602a60248201527f5361666545524332303a204552433230206f7065726174696f6e20646964206e6044820152691bdd081cdd58d8d9595960b21b60648201526084016105f9565b6060611732848460008561173c565b90505b9392505050565b60608247101561179d5760405162461bcd60e51b815260206004820152602660248201527f416464726573733a20696e73756666696369656e742062616c616e636520666f6044820152651c8818d85b1b60d21b60648201526084016105f9565b843b6117eb5760405162461bcd60e51b815260206004820152601d60248201527f416464726573733a2063616c6c20746f206e6f6e2d636f6e747261637400000060448201526064016105f9565b600080866001600160a01b031685876040516118079190611ea1565b60006040518083038185875af1925050503d8060008114611844576040519150601f19603f3d011682016040523d82523d6000602084013e611849565b606091505b5091509150611859828286611864565b979650505050505050565b60608315611873575081611735565b8251156118835782518084602001fd5b8160405162461bcd60e51b81526004016105f99190611c82565b6001600160a01b03811681146109fa57600080fd5b600080604083850312156118c557600080fd5b82356118d08161189d565b915060208301356118e08161189d565b809150509250929050565b60008083601f8401126118fd57600080fd5b50813567ffffffffffffffff81111561191557600080fd5b6020830191508360208260051b850101111561193057600080fd5b9250929050565b6000806000806040858703121561194d57600080fd5b843567ffffffffffffffff8082111561196557600080fd5b611971888389016118eb565b9096509450602087013591508082111561198a57600080fd5b50611997878288016118eb565b95989497509550505050565b634e487b7160e01b600052604160045260246000fd5b604051601f8201601f1916810167ffffffffffffffff811182821017156119e2576119e26119a3565b604052919050565b600067ffffffffffffffff821115611a0457611a046119a3565b5060051b60200190565b600082601f830112611a1f57600080fd5b81356020611a34611a2f836119ea565b6119b9565b82815260059290921b84018101918181019086841115611a5357600080fd5b8286015b84811015611a77578035611a6a8161189d565b8352918301918301611a57565b509695505050505050565b60008060408385031215611a9557600080fd5b8235611aa08161189d565b9150602083013567ffffffffffffffff811115611abc57600080fd5b611ac885828601611a0e565b9150509250929050565b600060208284031215611ae457600080fd5b81356117358161189d565b600060208284031215611b0157600080fd5b5035919050565b6001600160e01b0392909216825263ffffffff16602082015260400190565b60008060408385031215611b3a57600080fd5b823567ffffffffffffffff80821115611b5257600080fd5b818501915085601f830112611b6657600080fd5b81356020611b76611a2f836119ea565b82815260059290921b84018101918181019089841115611b9557600080fd5b948201945b83861015611bbc578535611bad8161189d565b82529482019490820190611b9a565b96505086013592505080821115611bd257600080fd5b50611ac885828601611a0e565b600080600060608486031215611bf457600080fd5b8335611bff8161189d565b92506020840135611c0f8161189d565b91506040840135611c1f8161189d565b809150509250925092565b60008060408385031215611c3d57600080fd5b8235611c488161189d565b946020939093013593505050565b60005b83811015611c71578181015183820152602001611c59565b83811115610f435750506000910152565b6020815260008251806020840152611ca1816040850160208701611c56565b601f01601f19169190910160400192915050565b634e487b7160e01b600052603260045260246000fd5b634e487b7160e01b600052601160045260246000fd5b6000600019821415611cf557611cf5611ccb565b5060010190565b600060208284031215611d0e57600080fd5b81516117358161189d565b60008219821115611d2c57611d2c611ccb565b500190565b6020808252602e908201527f496e697469616c697a61626c653a20636f6e747261637420697320616c72656160408201526d191e481a5b9a5d1a585b1a5e995960921b606082015260800190565b60006020808385031215611d9257600080fd5b825167ffffffffffffffff811115611da957600080fd5b8301601f81018513611dba57600080fd5b8051611dc8611a2f826119ea565b81815260059190911b82018301908381019087831115611de757600080fd5b928401925b82841015611859578351611dff8161189d565b82529284019290840190611dec565b600060208284031215611e2057600080fd5b8151801515811461173557600080fd5b600060208284031215611e4257600080fd5b5051919050565b600082821015611e5b57611e5b611ccb565b500390565b6000816000190483118215151615611e7a57611e7a611ccb565b500290565b600082611e9c57634e487b7160e01b600052601260045260246000fd5b500490565b60008251611eb3818460208701611c56565b919091019291505056fea264697066735822122075df41d13735d1fa72795712e82291a38bb4a89c2b8353229530e426d512bca264736f6c63430008090033",
  "devdoc": {
    "kind": "dev",
    "methods": {
      "governor()": {
        "returns": {
          "_governor": "The governor"
        }
      },
      "updateBeforeMintOrBurn(address,address)": {
        "details": "Called by DepositToken and DebtToken contracts This function also may be called by anyone to update stored indexes"
      },
      "updateBeforeTransfer(address,address,address)": {
        "details": "Called by DepositToken and DebtToken contracts"
      }
    },
    "title": "RewardsDistributor contract",
    "version": 1
  },
  "userdoc": {
    "events": {
      "RewardClaimed(address,uint256)": {
        "notice": "Emitted when reward is claimed"
      },
      "TokenIndexUpdated(uint224,uint32)": {
        "notice": "Emitted when updating token index"
      },
      "TokenSpeedUpdated(address,uint256,uint256)": {
        "notice": "Emitted when updating token speed"
      },
      "TokensAccruedUpdated(address,address,uint256,uint256)": {
        "notice": "Emitted when updating accrued token"
      }
    },
    "kind": "user",
    "methods": {
      "INITIAL_INDEX()": {
        "notice": "The initial index"
      },
      "MAX_REWARD_TOKENS()": {
        "notice": "Max reward tokens to avoid DoS scenario"
      },
      "accountIndexOf(address,address)": {
        "notice": "The supply index for each token for each account as of the last time they accrued token"
      },
      "claimRewards(address)": {
        "notice": "Claim tokens accrued by account in all tokens"
      },
      "claimRewards(address,address[])": {
        "notice": "Claim tokens accrued by account in the specified tokens"
      },
      "claimRewards(address[],address[])": {
        "notice": "Claim tokens accrued by the accounts in the specified tokens"
      },
      "claimable(address)": {
        "notice": "Returns claimable amount consider all tokens"
      },
      "claimable(address,address)": {
        "notice": "Returns updated claimable amount for given token"
      },
      "governor()": {
        "notice": "Get the governor"
      },
      "pool()": {
        "notice": "Pool contract"
      },
      "rewardToken()": {
        "notice": "The token to reward"
      },
      "tokenSpeeds(address)": {
        "notice": "The amount of token distributed for each token per second"
      },
      "tokenStates(address)": {
        "notice": "The reward state for each token"
      },
      "tokens(uint256)": {
        "notice": "Track tokens for reward"
      },
      "tokensAccruedOf(address)": {
        "notice": "The token accrued but not yet transferred to each user"
      },
      "updateBeforeMintOrBurn(address,address)": {
        "notice": "Update indexes on pre-mint and pre-burn"
      },
      "updateBeforeTransfer(address,address,address)": {
        "notice": "Update indexes on pre-transfer"
      },
      "updateTokenSpeed(address,uint256)": {
        "notice": "Update speed for a single deposit token"
      },
      "updateTokenSpeeds(address[],uint256[])": {
        "notice": "Update token speeds"
      }
    },
    "version": 1
  },
  "storageLayout": {
    "storage": [
      {
        "astId": 9979,
        "contract": "contracts/RewardsDistributor.sol:RewardsDistributor",
        "label": "_initialized",
        "offset": 0,
        "slot": "0",
        "type": "t_bool"
      },
      {
        "astId": 9982,
        "contract": "contracts/RewardsDistributor.sol:RewardsDistributor",
        "label": "_initializing",
        "offset": 1,
        "slot": "0",
        "type": "t_bool"
      },
      {
        "astId": 10033,
        "contract": "contracts/RewardsDistributor.sol:RewardsDistributor",
        "label": "_status",
        "offset": 0,
        "slot": "1",
        "type": "t_uint256"
      },
      {
        "astId": 9002,
        "contract": "contracts/RewardsDistributor.sol:RewardsDistributor",
        "label": "pool",
        "offset": 0,
        "slot": "2",
        "type": "t_contract(IPool)13119"
      },
      {
        "astId": 9104,
        "contract": "contracts/RewardsDistributor.sol:RewardsDistributor",
        "label": "__gap",
        "offset": 0,
        "slot": "3",
        "type": "t_array(t_uint256)49_storage"
      },
      {
        "astId": 15664,
        "contract": "contracts/RewardsDistributor.sol:RewardsDistributor",
        "label": "rewardToken",
        "offset": 0,
        "slot": "52",
        "type": "t_contract(IERC20)10688"
      },
      {
        "astId": 15670,
        "contract": "contracts/RewardsDistributor.sol:RewardsDistributor",
        "label": "tokens",
        "offset": 0,
        "slot": "53",
        "type": "t_array(t_contract(IERC20)10688)dyn_storage"
      },
      {
        "astId": 15677,
        "contract": "contracts/RewardsDistributor.sol:RewardsDistributor",
        "label": "tokenSpeeds",
        "offset": 0,
        "slot": "54",
        "type": "t_mapping(t_contract(IERC20)10688,t_uint256)"
      },
      {
        "astId": 15685,
        "contract": "contracts/RewardsDistributor.sol:RewardsDistributor",
        "label": "tokenStates",
        "offset": 0,
        "slot": "55",
        "type": "t_mapping(t_contract(IERC20)10688,t_struct(TokenState)15659_storage)"
      },
      {
        "astId": 15694,
        "contract": "contracts/RewardsDistributor.sol:RewardsDistributor",
        "label": "accountIndexOf",
        "offset": 0,
        "slot": "56",
        "type": "t_mapping(t_contract(IERC20)10688,t_mapping(t_address,t_uint256))"
      },
      {
        "astId": 15700,
        "contract": "contracts/RewardsDistributor.sol:RewardsDistributor",
        "label": "tokensAccruedOf",
        "offset": 0,
        "slot": "57",
        "type": "t_mapping(t_address,t_uint256)"
      }
    ],
    "types": {
      "t_address": {
        "encoding": "inplace",
        "label": "address",
        "numberOfBytes": "20"
      },
      "t_array(t_contract(IERC20)10688)dyn_storage": {
        "base": "t_contract(IERC20)10688",
        "encoding": "dynamic_array",
        "label": "contract IERC20[]",
        "numberOfBytes": "32"
      },
      "t_array(t_uint256)49_storage": {
        "base": "t_uint256",
        "encoding": "inplace",
        "label": "uint256[49]",
        "numberOfBytes": "1568"
      },
      "t_bool": {
        "encoding": "inplace",
        "label": "bool",
        "numberOfBytes": "1"
      },
      "t_contract(IERC20)10688": {
        "encoding": "inplace",
        "label": "contract IERC20",
        "numberOfBytes": "20"
      },
      "t_contract(IPool)13119": {
        "encoding": "inplace",
        "label": "contract IPool",
        "numberOfBytes": "20"
      },
      "t_mapping(t_address,t_uint256)": {
        "encoding": "mapping",
        "key": "t_address",
        "label": "mapping(address => uint256)",
        "numberOfBytes": "32",
        "value": "t_uint256"
      },
      "t_mapping(t_contract(IERC20)10688,t_mapping(t_address,t_uint256))": {
        "encoding": "mapping",
        "key": "t_contract(IERC20)10688",
        "label": "mapping(contract IERC20 => mapping(address => uint256))",
        "numberOfBytes": "32",
        "value": "t_mapping(t_address,t_uint256)"
      },
      "t_mapping(t_contract(IERC20)10688,t_struct(TokenState)15659_storage)": {
        "encoding": "mapping",
        "key": "t_contract(IERC20)10688",
        "label": "mapping(contract IERC20 => struct RewardsDistributorStorageV1.TokenState)",
        "numberOfBytes": "32",
        "value": "t_struct(TokenState)15659_storage"
      },
      "t_mapping(t_contract(IERC20)10688,t_uint256)": {
        "encoding": "mapping",
        "key": "t_contract(IERC20)10688",
        "label": "mapping(contract IERC20 => uint256)",
        "numberOfBytes": "32",
        "value": "t_uint256"
      },
      "t_struct(TokenState)15659_storage": {
        "encoding": "inplace",
        "label": "struct RewardsDistributorStorageV1.TokenState",
        "members": [
          {
            "astId": 15656,
            "contract": "contracts/RewardsDistributor.sol:RewardsDistributor",
            "label": "index",
            "offset": 0,
            "slot": "0",
            "type": "t_uint224"
          },
          {
            "astId": 15658,
            "contract": "contracts/RewardsDistributor.sol:RewardsDistributor",
            "label": "timestamp",
            "offset": 28,
            "slot": "0",
            "type": "t_uint32"
          }
        ],
        "numberOfBytes": "32"
      },
      "t_uint224": {
        "encoding": "inplace",
        "label": "uint224",
        "numberOfBytes": "28"
      },
      "t_uint256": {
        "encoding": "inplace",
        "label": "uint256",
        "numberOfBytes": "32"
      },
      "t_uint32": {
        "encoding": "inplace",
        "label": "uint32",
        "numberOfBytes": "4"
      }
    }
  }
}