{
  "address": "0x62316768ef954734445AAB3273Fd6077005FfABf",
  "abi": [
    {
      "inputs": [],
      "name": "AddressIsNull",
      "type": "error"
    },
    {
      "inputs": [],
      "name": "ArraysLengthDoNotMatch",
      "type": "error"
    },
    {
      "inputs": [],
      "name": "DistributorDoesNotExist",
      "type": "error"
    },
    {
      "inputs": [],
      "name": "InvalidToken",
      "type": "error"
    },
    {
      "inputs": [],
      "name": "NotTokenSpeedKeeper",
      "type": "error"
    },
    {
      "inputs": [],
      "name": "PoolAddressIsNull",
      "type": "error"
    },
    {
      "inputs": [],
      "name": "ReachedMaxRewardTokens",
      "type": "error"
    },
    {
      "inputs": [],
      "name": "RewardTokenIsNull",
      "type": "error"
    },
    {
      "inputs": [],
      "name": "SenderIsNotGovernor",
      "type": "error"
    },
    {
      "anonymous": false,
      "inputs": [
        {
          "indexed": true,
          "internalType": "address",
          "name": "account",
          "type": "address"
        },
        {
          "indexed": false,
          "internalType": "uint256",
          "name": "amount",
          "type": "uint256"
        }
      ],
      "name": "RewardClaimed",
      "type": "event"
    },
    {
      "anonymous": false,
      "inputs": [
        {
          "indexed": false,
          "internalType": "uint224",
          "name": "newIndex",
          "type": "uint224"
        },
        {
          "indexed": false,
          "internalType": "uint32",
          "name": "newTimestamp",
          "type": "uint32"
        }
      ],
      "name": "TokenIndexUpdated",
      "type": "event"
    },
    {
      "anonymous": false,
      "inputs": [
        {
          "indexed": true,
          "internalType": "contract IERC20",
          "name": "token",
          "type": "address"
        },
        {
          "indexed": false,
          "internalType": "uint256",
          "name": "oldSpeed",
          "type": "uint256"
        },
        {
          "indexed": false,
          "internalType": "uint256",
          "name": "newSpeed",
          "type": "uint256"
        }
      ],
      "name": "TokenSpeedUpdated",
      "type": "event"
    },
    {
      "anonymous": false,
      "inputs": [
        {
          "indexed": true,
          "internalType": "contract IERC20",
          "name": "token",
          "type": "address"
        },
        {
          "indexed": true,
          "internalType": "address",
          "name": "account",
          "type": "address"
        },
        {
          "indexed": false,
          "internalType": "uint256",
          "name": "tokensDelta",
          "type": "uint256"
        },
        {
          "indexed": false,
          "internalType": "uint256",
          "name": "supplyIndex",
          "type": "uint256"
        }
      ],
      "name": "TokensAccruedUpdated",
      "type": "event"
    },
    {
      "inputs": [],
      "name": "INITIAL_INDEX",
      "outputs": [
        {
          "internalType": "uint224",
          "name": "",
          "type": "uint224"
        }
      ],
      "stateMutability": "view",
      "type": "function"
    },
    {
      "inputs": [],
      "name": "MAX_REWARD_TOKENS",
      "outputs": [
        {
          "internalType": "uint224",
          "name": "",
          "type": "uint224"
        }
      ],
      "stateMutability": "view",
      "type": "function"
    },
    {
      "inputs": [],
      "name": "VERSION",
      "outputs": [
        {
          "internalType": "string",
          "name": "",
          "type": "string"
        }
      ],
      "stateMutability": "view",
      "type": "function"
    },
    {
      "inputs": [
        {
          "internalType": "contract IERC20",
          "name": "",
          "type": "address"
        },
        {
          "internalType": "address",
          "name": "",
          "type": "address"
        }
      ],
      "name": "accountIndexOf",
      "outputs": [
        {
          "internalType": "uint256",
          "name": "",
          "type": "uint256"
        }
      ],
      "stateMutability": "view",
      "type": "function"
    },
    {
      "inputs": [
        {
          "internalType": "address",
          "name": "account_",
          "type": "address"
        },
        {
          "internalType": "contract IERC20[]",
          "name": "tokens_",
          "type": "address[]"
        }
      ],
      "name": "claimRewards",
      "outputs": [],
      "stateMutability": "nonpayable",
      "type": "function"
    },
    {
      "inputs": [
        {
          "internalType": "address[]",
          "name": "accounts_",
          "type": "address[]"
        },
        {
          "internalType": "contract IERC20[]",
          "name": "tokens_",
          "type": "address[]"
        }
      ],
      "name": "claimRewards",
      "outputs": [],
      "stateMutability": "nonpayable",
      "type": "function"
    },
    {
      "inputs": [
        {
          "internalType": "address",
          "name": "account_",
          "type": "address"
        }
      ],
      "name": "claimRewards",
      "outputs": [],
      "stateMutability": "nonpayable",
      "type": "function"
    },
    {
      "inputs": [
        {
          "internalType": "address",
          "name": "account_",
          "type": "address"
        }
      ],
      "name": "claimable",
      "outputs": [
        {
          "internalType": "uint256",
          "name": "_claimable",
          "type": "uint256"
        }
      ],
      "stateMutability": "view",
      "type": "function"
    },
    {
      "inputs": [
        {
          "internalType": "address",
          "name": "",
          "type": "address"
        },
        {
          "internalType": "contract IERC20",
          "name": "",
          "type": "address"
        }
      ],
      "name": "claimable",
      "outputs": [
        {
          "internalType": "uint256",
          "name": "",
          "type": "uint256"
        }
      ],
      "stateMutability": "view",
      "type": "function"
    },
    {
      "inputs": [],
      "name": "governor",
      "outputs": [
        {
          "internalType": "address",
          "name": "_governor",
          "type": "address"
        }
      ],
      "stateMutability": "view",
      "type": "function"
    },
    {
      "inputs": [
        {
          "internalType": "contract IPool",
          "name": "pool_",
          "type": "address"
        },
        {
          "internalType": "contract IERC20",
          "name": "rewardToken_",
          "type": "address"
        }
      ],
      "name": "initialize",
      "outputs": [],
      "stateMutability": "nonpayable",
      "type": "function"
    },
    {
      "inputs": [],
      "name": "pool",
      "outputs": [
        {
          "internalType": "contract IPool",
          "name": "",
          "type": "address"
        }
      ],
      "stateMutability": "view",
      "type": "function"
    },
    {
      "inputs": [],
      "name": "rewardToken",
      "outputs": [
        {
          "internalType": "contract IERC20",
          "name": "",
          "type": "address"
        }
      ],
      "stateMutability": "view",
      "type": "function"
    },
    {
      "inputs": [
        {
          "internalType": "contract IDepositToken",
          "name": "depositToken_",
          "type": "address"
        }
      ],
      "name": "syncTokenSpeed",
      "outputs": [],
      "stateMutability": "nonpayable",
      "type": "function"
    },
    {
      "inputs": [],
      "name": "tokenSpeedKeeper",
      "outputs": [
        {
          "internalType": "address",
          "name": "",
          "type": "address"
        }
      ],
      "stateMutability": "view",
      "type": "function"
    },
    {
      "inputs": [
        {
          "internalType": "contract IERC20",
          "name": "",
          "type": "address"
        }
      ],
      "name": "tokenSpeeds",
      "outputs": [
        {
          "internalType": "uint256",
          "name": "",
          "type": "uint256"
        }
      ],
      "stateMutability": "view",
      "type": "function"
    },
    {
      "inputs": [
        {
          "internalType": "contract IERC20",
          "name": "",
          "type": "address"
        }
      ],
      "name": "tokenStates",
      "outputs": [
        {
          "internalType": "uint224",
          "name": "index",
          "type": "uint224"
        },
        {
          "internalType": "uint32",
          "name": "timestamp",
          "type": "uint32"
        }
      ],
      "stateMutability": "view",
      "type": "function"
    },
    {
      "inputs": [
        {
          "internalType": "uint256",
          "name": "",
          "type": "uint256"
        }
      ],
      "name": "tokens",
      "outputs": [
        {
          "internalType": "contract IERC20",
          "name": "",
          "type": "address"
        }
      ],
      "stateMutability": "view",
      "type": "function"
    },
    {
      "inputs": [
        {
          "internalType": "address",
          "name": "",
          "type": "address"
        }
      ],
      "name": "tokensAccruedOf",
      "outputs": [
        {
          "internalType": "uint256",
          "name": "",
          "type": "uint256"
        }
      ],
      "stateMutability": "view",
      "type": "function"
    },
    {
      "inputs": [
        {
          "internalType": "contract IERC20",
          "name": "token_",
          "type": "address"
        },
        {
          "internalType": "address",
          "name": "account_",
          "type": "address"
        }
      ],
      "name": "updateBeforeMintOrBurn",
      "outputs": [],
      "stateMutability": "nonpayable",
      "type": "function"
    },
    {
      "inputs": [
        {
          "internalType": "contract IERC20",
          "name": "token_",
          "type": "address"
        },
        {
          "internalType": "address",
          "name": "from_",
          "type": "address"
        },
        {
          "internalType": "address",
          "name": "to_",
          "type": "address"
        }
      ],
      "name": "updateBeforeTransfer",
      "outputs": [],
      "stateMutability": "nonpayable",
      "type": "function"
    },
    {
      "inputs": [
        {
          "internalType": "contract IERC20",
          "name": "token_",
          "type": "address"
        },
        {
          "internalType": "uint256",
          "name": "newSpeed_",
          "type": "uint256"
        }
      ],
      "name": "updateTokenSpeed",
      "outputs": [],
      "stateMutability": "nonpayable",
      "type": "function"
    },
    {
      "inputs": [
        {
          "internalType": "address",
          "name": "keeper_",
          "type": "address"
        }
      ],
      "name": "updateTokenSpeedKeeper",
      "outputs": [],
      "stateMutability": "nonpayable",
      "type": "function"
    },
    {
      "inputs": [
        {
          "internalType": "contract IERC20[]",
          "name": "tokens_",
          "type": "address[]"
        },
        {
          "internalType": "uint256[]",
          "name": "speeds_",
          "type": "uint256[]"
        }
      ],
      "name": "updateTokenSpeeds",
      "outputs": [],
      "stateMutability": "nonpayable",
      "type": "function"
    }
  ],
  "transactionHash": "0xc0a62c757b50dc9afd97591e3a2858900846121538766dba73898292550a381d",
  "args": [],
  "numDeployments": 3,
  "solcInputHash": "17e39ddd4010a283fb231bf0f9bb6e30",
  "bytecode": "0x608060405234801561001057600080fd5b5061233e806100206000396000f3fe608060405234801561001057600080fd5b50600436106101585760003560e01c80634f64b2be116100c3578063b17b23a01161007c578063b17b23a014610343578063b9afda2d14610356578063d4570c1c14610369578063ef5cfb8c1461037c578063f7c618c11461038f578063ffa1ad74146103a257600080fd5b80634f64b2be1461028f5780635d0cde97146102a257806389cb096a146102aa578063a0cfa0dd146102f0578063a428d9c814610310578063aa6299751461032357600080fd5b80631b30f0c0116101155780631b30f0c01461021d5780632026ffa3146102305780633ddc9ce314610243578063402914f514610256578063485cc955146102695780634b38585a1461027c57600080fd5b8063013bc51c1461015d57806301bc3acb1461019b57806306b997ea146101b05780630c340a24146101db578063160c3a03146101e357806316f0115b1461020a575b600080fd5b61018861016b366004611cfd565b603860209081526000928352604080842090915290825290205481565b6040519081526020015b60405180910390f35b6101ae6101a9366004611d82565b6103d3565b005b603a546101c3906001600160a01b031681565b6040516001600160a01b039091168152602001610192565b6101c3610498565b6101f2670de0b6b3a764000081565b6040516001600160e01b039091168152602001610192565b6002546101c3906001600160a01b031681565b6101ae61022b366004611cfd565b61051a565b6101ae61023e366004611ecd565b610558565b6101ae610251366004611f1d565b6105bd565b610188610264366004611f1d565b6108f6565b6101ae610277366004611cfd565b61096e565b6101ae61028a366004611f1d565b610a37565b6101c361029d366004611f3a565b610ab9565b6101f2601481565b6102e26102b8366004611f1d565b6037602052600090815260409020546001600160e01b03811690600160e01b900463ffffffff1682565b604051610192929190611f53565b6101886102fe366004611f1d565b60366020526000908152604090205481565b6101ae61031e366004611f72565b610ae3565b610188610331366004611f1d565b60396020526000908152604090205481565b6101ae61035136600461202a565b610c68565b6101ae610364366004612075565b610cac565b610188610377366004611cfd565b610cef565b6101ae61038a366004611f1d565b610d28565b6034546101c3906001600160a01b031681565b6103c6604051806040016040528060058152602001640312e322e360dc1b81525081565b60405161019291906120cd565b6103db610498565b6001600160a01b0316336001600160a01b03161461040c57604051634b98449160e11b815260040160405180910390fd5b8281811461042d57604051631dc1520760e31b815260040160405180910390fd5b60005b818110156104905761048086868381811061044d5761044d612100565b90506020020160208101906104629190611f1d565b85858481811061047457610474612100565b90506020020135610d8f565b6104898161212c565b9050610430565b505050505050565b6002546040805163030d028960e21b815290516000926001600160a01b031691630c340a24916004808301926020929190829003018186803b1580156104dd57600080fd5b505afa1580156104f1573d6000803e3d6000fd5b505050506040513d601f19601f820116820180604052508101906105159190612147565b905090565b6001600160a01b0382166000908152603760205260409020546001600160e01b0316156105545761054a82611197565b61055482826112da565b5050565b60408051600180825281830190925260009160208083019080368337019050509050828160008151811061058e5761058e612100565b60200260200101906001600160a01b031690816001600160a01b0316815250506105b88183610ae3565b505050565b603a546001600160a01b031633146105e8576040516355bbb60960e11b815260040160405180910390fd5b6000816001600160a01b0316636f307dc36040518163ffffffff1660e01b815260040160206040518083038186803b15801561062357600080fd5b505afa158015610637573d6000803e3d6000fd5b505050506040513d601f19601f8201168201806040525081019061065b9190612147565b90506000816001600160a01b0316638bc6beb26040518163ffffffff1660e01b815260040160206040518083038186803b15801561069857600080fd5b505afa1580156106ac573d6000803e3d6000fd5b505050506040513d601f19601f820116820180604052508101906106d09190612147565b90506000826001600160a01b03166318160ddd6040518163ffffffff1660e01b815260040160206040518083038186803b15801561070d57600080fd5b505afa158015610721573d6000803e3d6000fd5b505050506040513d601f19601f820116820180604052508101906107459190612164565b836001600160a01b03166370a08231600260009054906101000a90046001600160a01b03166001600160a01b03166361d027b36040518163ffffffff1660e01b815260040160206040518083038186803b1580156107a257600080fd5b505afa1580156107b6573d6000803e3d6000fd5b505050506040513d601f19601f820116820180604052508101906107da9190612147565b6040516001600160e01b031960e084901b1681526001600160a01b03909116600482015260240160206040518083038186803b15801561081957600080fd5b505afa15801561082d573d6000803e3d6000fd5b505050506040513d601f19601f820116820180604052508101906108519190612164565b603454604051633d3b260360e01b81526001600160a01b03918216600482015290851690633d3b260390602401602060405180830381600087803b15801561089857600080fd5b505af11580156108ac573d6000803e3d6000fd5b505050506040513d601f19601f820116820180604052508101906108d09190612164565b6108da919061217d565b6108e4919061219c565b90506108f08482610d8f565b50505050565b6001600160a01b038116600090815260396020526040812054905b6035548110156109685761094c836035838154811061093257610932612100565b6000918252602090912001546001600160a01b03166113ce565b61095690836121be565b91506109618161212c565b9050610911565b50919050565b600054610100900460ff1680610987575060005460ff16155b6109ac5760405162461bcd60e51b81526004016109a3906121d6565b60405180910390fd5b600054610100900460ff161580156109ce576000805461ffff19166101011790555b6001600160a01b0382166109f557604051636d4b163760e11b815260040160405180910390fd5b6109fd6114a0565b610a068361150f565b603480546001600160a01b0319166001600160a01b03841617905580156105b8576000805461ff0019169055505050565b610a3f610498565b6001600160a01b0316336001600160a01b031614610a7057604051634b98449160e11b815260040160405180910390fd5b6001600160a01b038116610a975760405163fb7566d760e01b815260040160405180910390fd5b603a80546001600160a01b0319166001600160a01b0392909216919091179055565b60358181548110610ac957600080fd5b6000918252602090912001546001600160a01b0316905081565b60026001541415610b365760405162461bcd60e51b815260206004820152601f60248201527f5265656e7472616e637947756172643a207265656e7472616e742063616c6c0060448201526064016109a3565b60026001558151815160005b81811015610bf1576000848281518110610b5e57610b5e612100565b6020908102919091018101516001600160a01b038116600090815260379092526040909120549091506001600160e01b031615610be057610b9e81611197565b60005b84811015610bde57610bcc82888381518110610bbf57610bbf612100565b60200260200101516112da565b80610bd68161212c565b915050610ba1565b505b50610bea8161212c565b9050610b42565b5060005b82811015610c5d576000858281518110610c1157610c11612100565b60200260200101519050610c4a8160396000846001600160a01b03166001600160a01b03168152602001908152602001600020546115bd565b5080610c558161212c565b915050610bf5565b505060018055505050565b6001600160a01b0383166000908152603760205260409020546001600160e01b0316156105b857610c9883611197565b610ca283836112da565b6105b883826112da565b610cb4610498565b6001600160a01b0316336001600160a01b031614610ce557604051634b98449160e11b815260040160405180910390fd5b6105548282610d8f565b60405162461bcd60e51b815260206004820152600b60248201526a155b9cdd5c1c1bdc9d195960aa1b60448201526000906064016109a3565b610d8c816035805480602002602001604051908101604052809291908181526020018280548015610d8257602002820191906000526020600020905b81546001600160a01b03168152600190910190602001808311610d64575b5050505050610558565b50565b600080600260009054906101000a90046001600160a01b03166001600160a01b0316633605b51b6040518163ffffffff1660e01b815260040160006040518083038186803b158015610de057600080fd5b505afa158015610df4573d6000803e3d6000fd5b505050506040513d6000823e601f3d908101601f19168201604052610e1c9190810190612224565b805190915060005b81811015610e7857306001600160a01b0316838281518110610e4857610e48612100565b60200260200101516001600160a01b03161415610e685760019350610e78565b610e718161212c565b9050610e24565b5082610e9757604051634757a01f60e01b815260040160405180910390fd5b6002546040516308a00b1f60e31b81526001600160a01b03808816600483015287921690819063450058f89060240160206040518083038186803b158015610ede57600080fd5b505afa158015610ef2573d6000803e3d6000fd5b505050506040513d601f19601f82011682018060405250810190610f1691906122b3565b158015610f995750604051633e25dee160e21b81526001600160a01b03838116600483015282169063f8977b849060240160206040518083038186803b158015610f5f57600080fd5b505afa158015610f73573d6000803e3d6000fd5b505050506040513d601f19601f82011682018060405250810190610f9791906122b3565b155b15610fb75760405163c1ab6dc160e01b815260040160405180910390fd5b6001600160a01b0387166000908152603660205260409020548015610fe457610fdf88611197565b611130565b8615611130576001600160a01b0388166000908152603760205260409020546001600160e01b03166110ec576035546014141561103457604051639e8b4a2160e01b815260040160405180910390fd5b6040518060400160405280670de0b6b3a76400006001600160e01b0316815260200161105f426116c4565b63ffffffff9081169091526001600160a01b038a166000818152603760209081526040822085519590910151909316600160e01b026001600160e01b03909416939093179091556035805460018101825592527fcfa4bec1d3298408bb5afcfcd9c430549c5b31f8aa5c5848151c0a55f473c34d90910180546001600160a01b0319169091179055611130565b6110f5426116c4565b6001600160a01b0389166000908152603760205260409020805463ffffffff92909216600160e01b026001600160e01b039092169190911790555b86811461118d576001600160a01b0388166000818152603660209081526040918290208a905581518481529081018a90527f07295410ddc875d5ff9b778ece2c279c9b91abeefd296803662b28cf6ad33c08910160405180910390a25b5050505050505050565b6001600160a01b0381166000908152603760209081526040808320815180830190925280546001600160e01b0381168352600160e01b900463ffffffff169282019290925290919081906111eb908561172d565b915091506000826001600160e01b031611801561120e575060008163ffffffff16115b1561126c5763ffffffff8116600160e01b026001600160e01b0383161783556040517f883d8b44a1f0e651bb0d11a8e962de03c77a351328bbeb12b702e5632288ee6f9061125f9084908490611f53565b60405180910390a16108f0565b63ffffffff8116156108f057825463ffffffff8216600160e01b026001600160e01b0391821681811786556040517f883d8b44a1f0e651bb0d11a8e962de03c77a351328bbeb12b702e5632288ee6f936112cc9316909117908490611f53565b60405180910390a150505050565b6001600160a01b03821660009081526037602090815260408083208151808301909252546001600160e01b0381168252600160e01b900463ffffffff1691810191909152819061132b908585611880565b6001600160a01b0380871660009081526038602090815260408083209389168352928152828220859055603990522054919350915061136b9082906121be565b6001600160a01b038481166000818152603960209081526040918290209490945580518581529384018690529092918716917f49abdf3748a8d465b0d3d5d126dab076f5109ea80b761c4c1c45b2710165087b910160405180910390a350505050565b6001600160a01b03811660009081526037602090815260408083208151808301909252546001600160e01b0381168252600160e01b900463ffffffff1691810191909152818061141e838661172d565b915091506000826001600160e01b0316118015611441575060008163ffffffff16115b15611471576040518060400160405280836001600160e01b031681526020018263ffffffff16815250925061148a565b63ffffffff81161561148a5763ffffffff811660208401525b611495838688611880565b979650505050505050565b600054610100900460ff16806114b9575060005460ff16155b6114d55760405162461bcd60e51b81526004016109a3906121d6565b600054610100900460ff161580156114f7576000805461ffff19166101011790555b600180558015610d8c576000805461ff001916905550565b600054610100900460ff1680611528575060005460ff16155b6115445760405162461bcd60e51b81526004016109a3906121d6565b600054610100900460ff16158015611566576000805461ffff19166101011790555b6001600160a01b03821661158d5760405163724f500960e01b815260040160405180910390fd5b600280546001600160a01b0319166001600160a01b0384161790558015610554576000805461ff00191690555050565b6034546040516370a0823160e01b81523060048201526001600160a01b039091169060009082906370a082319060240160206040518083038186803b15801561160557600080fd5b505afa158015611619573d6000803e3d6000fd5b505050506040513d601f19601f8201168201806040525081019061163d9190612164565b905060008311801561164f5750808311155b156108f0576001600160a01b0380851660009081526039602052604081205561167b908316858561197c565b836001600160a01b03167f106f923f993c2149d49b4255ff723acafa1f2d94393f561d3eda32ae348f7241846040516116b691815260200190565b60405180910390a250505050565b600063ffffffff8211156117295760405162461bcd60e51b815260206004820152602660248201527f53616665436173743a2076616c756520646f65736e27742066697420696e203360448201526532206269747360d01b60648201526084016109a3565b5090565b6001600160a01b03811660009081526036602090815260408220549084015182919082906117619063ffffffff16426122d5565b90506000811180156117735750600082115b1561184d576000856001600160a01b03166318160ddd6040518163ffffffff1660e01b815260040160206040518083038186803b1580156117b357600080fd5b505afa1580156117c7573d6000803e3d6000fd5b505050506040513d601f19601f820116820180604052508101906117eb9190612164565b905060006117f9848461217d565b9050600080831161180b576000611815565b61181582846119ce565b9050611838818a600001516001600160e01b031661183391906121be565b611a0b565b9650611843426116c4565b9550505050611877565b600081118015611866575085516001600160e01b031615155b1561187757611874426116c4565b92505b50509250929050565b82516001600160a01b0380841660009081526038602090815260408083209386168352929052908120546001600160e01b0390921691801580156118cb5750670de0b6b3a764000083115b156118db5750670de0b6b3a76400005b60006118e782856122d5565b6040516370a0823160e01b81526001600160a01b038781166004830152919250611970918391908916906370a082319060240160206040518083038186803b15801561193257600080fd5b505afa158015611946573d6000803e3d6000fd5b505050506040513d601f19601f8201168201806040525081019061196a9190612164565b90611a74565b92505050935093915050565b604080516001600160a01b038416602482015260448082018490528251808303909101815260649091019091526020810180516001600160e01b031663a9059cbb60e01b1790526105b8908490611aac565b6000816119dc60028261219c565b6119ee670de0b6b3a76400008661217d565b6119f891906121be565b611a02919061219c565b90505b92915050565b60006001600160e01b038211156117295760405162461bcd60e51b815260206004820152602760248201527f53616665436173743a2076616c756520646f65736e27742066697420696e20326044820152663234206269747360c81b60648201526084016109a3565b6000821580611a81575081155b15611a8e57506000611a05565b670de0b6b3a7640000611aa260028261219c565b6119ee848661217d565b6000611b01826040518060400160405280602081526020017f5361666545524332303a206c6f772d6c6576656c2063616c6c206661696c6564815250856001600160a01b0316611b7e9092919063ffffffff16565b8051909150156105b85780806020019051810190611b1f91906122b3565b6105b85760405162461bcd60e51b815260206004820152602a60248201527f5361666545524332303a204552433230206f7065726174696f6e20646964206e6044820152691bdd081cdd58d8d9595960b21b60648201526084016109a3565b6060611b8d8484600085611b97565b90505b9392505050565b606082471015611bf85760405162461bcd60e51b815260206004820152602660248201527f416464726573733a20696e73756666696369656e742062616c616e636520666f6044820152651c8818d85b1b60d21b60648201526084016109a3565b843b611c465760405162461bcd60e51b815260206004820152601d60248201527f416464726573733a2063616c6c20746f206e6f6e2d636f6e747261637400000060448201526064016109a3565b600080866001600160a01b03168587604051611c6291906122ec565b60006040518083038185875af1925050503d8060008114611c9f576040519150601f19603f3d011682016040523d82523d6000602084013e611ca4565b606091505b509150915061149582828660608315611cbe575081611b90565b825115611cce5782518084602001fd5b8160405162461bcd60e51b81526004016109a391906120cd565b6001600160a01b0381168114610d8c57600080fd5b60008060408385031215611d1057600080fd5b8235611d1b81611ce8565b91506020830135611d2b81611ce8565b809150509250929050565b60008083601f840112611d4857600080fd5b50813567ffffffffffffffff811115611d6057600080fd5b6020830191508360208260051b8501011115611d7b57600080fd5b9250929050565b60008060008060408587031215611d9857600080fd5b843567ffffffffffffffff80821115611db057600080fd5b611dbc88838901611d36565b90965094506020870135915080821115611dd557600080fd5b50611de287828801611d36565b95989497509550505050565b634e487b7160e01b600052604160045260246000fd5b604051601f8201601f1916810167ffffffffffffffff81118282101715611e2d57611e2d611dee565b604052919050565b600067ffffffffffffffff821115611e4f57611e4f611dee565b5060051b60200190565b600082601f830112611e6a57600080fd5b81356020611e7f611e7a83611e35565b611e04565b82815260059290921b84018101918181019086841115611e9e57600080fd5b8286015b84811015611ec2578035611eb581611ce8565b8352918301918301611ea2565b509695505050505050565b60008060408385031215611ee057600080fd5b8235611eeb81611ce8565b9150602083013567ffffffffffffffff811115611f0757600080fd5b611f1385828601611e59565b9150509250929050565b600060208284031215611f2f57600080fd5b8135611b9081611ce8565b600060208284031215611f4c57600080fd5b5035919050565b6001600160e01b0392909216825263ffffffff16602082015260400190565b60008060408385031215611f8557600080fd5b823567ffffffffffffffff80821115611f9d57600080fd5b818501915085601f830112611fb157600080fd5b81356020611fc1611e7a83611e35565b82815260059290921b84018101918181019089841115611fe057600080fd5b948201945b83861015612007578535611ff881611ce8565b82529482019490820190611fe5565b9650508601359250508082111561201d57600080fd5b50611f1385828601611e59565b60008060006060848603121561203f57600080fd5b833561204a81611ce8565b9250602084013561205a81611ce8565b9150604084013561206a81611ce8565b809150509250925092565b6000806040838503121561208857600080fd5b823561209381611ce8565b946020939093013593505050565b60005b838110156120bc5781810151838201526020016120a4565b838111156108f05750506000910152565b60208152600082518060208401526120ec8160408501602087016120a1565b601f01601f19169190910160400192915050565b634e487b7160e01b600052603260045260246000fd5b634e487b7160e01b600052601160045260246000fd5b600060001982141561214057612140612116565b5060010190565b60006020828403121561215957600080fd5b8151611b9081611ce8565b60006020828403121561217657600080fd5b5051919050565b600081600019048311821515161561219757612197612116565b500290565b6000826121b957634e487b7160e01b600052601260045260246000fd5b500490565b600082198211156121d1576121d1612116565b500190565b6020808252602e908201527f496e697469616c697a61626c653a20636f6e747261637420697320616c72656160408201526d191e481a5b9a5d1a585b1a5e995960921b606082015260800190565b6000602080838503121561223757600080fd5b825167ffffffffffffffff81111561224e57600080fd5b8301601f8101851361225f57600080fd5b805161226d611e7a82611e35565b81815260059190911b8201830190838101908783111561228c57600080fd5b928401925b828410156114955783516122a481611ce8565b82529284019290840190612291565b6000602082840312156122c557600080fd5b81518015158114611b9057600080fd5b6000828210156122e7576122e7612116565b500390565b600082516122fe8184602087016120a1565b919091019291505056fea264697066735822122083a3d4732533164966aa60cb19134856a5c9bb3d4fbe1ea54e4703ead438bf8864736f6c63430008090033",
  "devdoc": {
    "kind": "dev",
    "methods": {
      "claimable(address,address)": {
        "details": "Removing this function will change interface and will result updating other contracts using interface."
      },
      "governor()": {
        "returns": {
          "_governor": "The governor"
        }
      },
      "updateBeforeMintOrBurn(address,address)": {
        "details": "Called by DepositToken and DebtToken contracts This function also may be called by anyone to update stored indexes"
      },
      "updateBeforeTransfer(address,address,address)": {
        "details": "Called by DepositToken and DebtToken contracts"
      }
    },
    "title": "RewardsDistributor contract",
    "version": 1
  },
  "userdoc": {
    "events": {
      "RewardClaimed(address,uint256)": {
        "notice": "Emitted when reward is claimed"
      },
      "TokenIndexUpdated(uint224,uint32)": {
        "notice": "Emitted when updating token index"
      },
      "TokenSpeedUpdated(address,uint256,uint256)": {
        "notice": "Emitted when updating token speed"
      },
      "TokensAccruedUpdated(address,address,uint256,uint256)": {
        "notice": "Emitted when updating accrued token"
      }
    },
    "kind": "user",
    "methods": {
      "INITIAL_INDEX()": {
        "notice": "The initial index"
      },
      "MAX_REWARD_TOKENS()": {
        "notice": "Max reward tokens to avoid DoS scenario"
      },
      "accountIndexOf(address,address)": {
        "notice": "The supply index for each token for each account as of the last time they accrued token"
      },
      "claimRewards(address)": {
        "notice": "Claim tokens accrued by account in all tokens"
      },
      "claimRewards(address,address[])": {
        "notice": "Claim tokens accrued by account in the specified tokens"
      },
      "claimRewards(address[],address[])": {
        "notice": "Claim tokens accrued by the accounts in the specified tokens"
      },
      "claimable(address)": {
        "notice": "Returns claimable amount consider all tokens"
      },
      "claimable(address,address)": {
        "notice": "Returns updated claimable amount for given token"
      },
      "governor()": {
        "notice": "Get the governor"
      },
      "pool()": {
        "notice": "Pool contract"
      },
      "rewardToken()": {
        "notice": "The token to reward"
      },
      "syncTokenSpeed(address)": {
        "notice": "This is temporary fix to keep tokenSpeed and rewardRate from Vesper in sync."
      },
      "tokenSpeeds(address)": {
        "notice": "The amount of token distributed for each token per second"
      },
      "tokenStates(address)": {
        "notice": "The reward state for each token"
      },
      "tokens(uint256)": {
        "notice": "Track tokens for reward"
      },
      "tokensAccruedOf(address)": {
        "notice": "The token accrued but not yet transferred to each user"
      },
      "updateBeforeMintOrBurn(address,address)": {
        "notice": "Update indexes on pre-mint and pre-burn"
      },
      "updateBeforeTransfer(address,address,address)": {
        "notice": "Update indexes on pre-transfer"
      },
      "updateTokenSpeed(address,uint256)": {
        "notice": "Update speed for a single deposit token"
      },
      "updateTokenSpeedKeeper(address)": {
        "notice": "This function is part of temporary fix to keep tokenSpeed and rewardRate in sync."
      },
      "updateTokenSpeeds(address[],uint256[])": {
        "notice": "Update token speeds"
      }
    },
    "version": 1
  },
  "storageLayout": {
    "storage": [
      {
        "astId": 10225,
        "contract": "contracts/RewardsDistributor.sol:RewardsDistributor",
        "label": "_initialized",
        "offset": 0,
        "slot": "0",
        "type": "t_bool"
      },
      {
        "astId": 10228,
        "contract": "contracts/RewardsDistributor.sol:RewardsDistributor",
        "label": "_initializing",
        "offset": 1,
        "slot": "0",
        "type": "t_bool"
      },
      {
        "astId": 10279,
        "contract": "contracts/RewardsDistributor.sol:RewardsDistributor",
        "label": "_status",
        "offset": 0,
        "slot": "1",
        "type": "t_uint256"
      },
      {
        "astId": 9248,
        "contract": "contracts/RewardsDistributor.sol:RewardsDistributor",
        "label": "pool",
        "offset": 0,
        "slot": "2",
        "type": "t_contract(IPool)13365"
      },
      {
        "astId": 9350,
        "contract": "contracts/RewardsDistributor.sol:RewardsDistributor",
        "label": "__gap",
        "offset": 0,
        "slot": "3",
        "type": "t_array(t_uint256)49_storage"
      },
      {
        "astId": 16025,
        "contract": "contracts/RewardsDistributor.sol:RewardsDistributor",
        "label": "rewardToken",
        "offset": 0,
        "slot": "52",
        "type": "t_contract(IERC20)10934"
      },
      {
        "astId": 16031,
        "contract": "contracts/RewardsDistributor.sol:RewardsDistributor",
        "label": "tokens",
        "offset": 0,
        "slot": "53",
        "type": "t_array(t_contract(IERC20)10934)dyn_storage"
      },
      {
        "astId": 16038,
        "contract": "contracts/RewardsDistributor.sol:RewardsDistributor",
        "label": "tokenSpeeds",
        "offset": 0,
        "slot": "54",
        "type": "t_mapping(t_contract(IERC20)10934,t_uint256)"
      },
      {
        "astId": 16046,
        "contract": "contracts/RewardsDistributor.sol:RewardsDistributor",
        "label": "tokenStates",
        "offset": 0,
        "slot": "55",
        "type": "t_mapping(t_contract(IERC20)10934,t_struct(TokenState)16020_storage)"
      },
      {
        "astId": 16055,
        "contract": "contracts/RewardsDistributor.sol:RewardsDistributor",
        "label": "accountIndexOf",
        "offset": 0,
        "slot": "56",
        "type": "t_mapping(t_contract(IERC20)10934,t_mapping(t_address,t_uint256))"
      },
      {
        "astId": 16061,
        "contract": "contracts/RewardsDistributor.sol:RewardsDistributor",
        "label": "tokensAccruedOf",
        "offset": 0,
        "slot": "57",
        "type": "t_mapping(t_address,t_uint256)"
      },
      {
        "astId": 16066,
        "contract": "contracts/RewardsDistributor.sol:RewardsDistributor",
        "label": "tokenSpeedKeeper",
        "offset": 0,
        "slot": "58",
        "type": "t_address"
      }
    ],
    "types": {
      "t_address": {
        "encoding": "inplace",
        "label": "address",
        "numberOfBytes": "20"
      },
      "t_array(t_contract(IERC20)10934)dyn_storage": {
        "base": "t_contract(IERC20)10934",
        "encoding": "dynamic_array",
        "label": "contract IERC20[]",
        "numberOfBytes": "32"
      },
      "t_array(t_uint256)49_storage": {
        "base": "t_uint256",
        "encoding": "inplace",
        "label": "uint256[49]",
        "numberOfBytes": "1568"
      },
      "t_bool": {
        "encoding": "inplace",
        "label": "bool",
        "numberOfBytes": "1"
      },
      "t_contract(IERC20)10934": {
        "encoding": "inplace",
        "label": "contract IERC20",
        "numberOfBytes": "20"
      },
      "t_contract(IPool)13365": {
        "encoding": "inplace",
        "label": "contract IPool",
        "numberOfBytes": "20"
      },
      "t_mapping(t_address,t_uint256)": {
        "encoding": "mapping",
        "key": "t_address",
        "label": "mapping(address => uint256)",
        "numberOfBytes": "32",
        "value": "t_uint256"
      },
      "t_mapping(t_contract(IERC20)10934,t_mapping(t_address,t_uint256))": {
        "encoding": "mapping",
        "key": "t_contract(IERC20)10934",
        "label": "mapping(contract IERC20 => mapping(address => uint256))",
        "numberOfBytes": "32",
        "value": "t_mapping(t_address,t_uint256)"
      },
      "t_mapping(t_contract(IERC20)10934,t_struct(TokenState)16020_storage)": {
        "encoding": "mapping",
        "key": "t_contract(IERC20)10934",
        "label": "mapping(contract IERC20 => struct RewardsDistributorStorageV1.TokenState)",
        "numberOfBytes": "32",
        "value": "t_struct(TokenState)16020_storage"
      },
      "t_mapping(t_contract(IERC20)10934,t_uint256)": {
        "encoding": "mapping",
        "key": "t_contract(IERC20)10934",
        "label": "mapping(contract IERC20 => uint256)",
        "numberOfBytes": "32",
        "value": "t_uint256"
      },
      "t_struct(TokenState)16020_storage": {
        "encoding": "inplace",
        "label": "struct RewardsDistributorStorageV1.TokenState",
        "members": [
          {
            "astId": 16017,
            "contract": "contracts/RewardsDistributor.sol:RewardsDistributor",
            "label": "index",
            "offset": 0,
            "slot": "0",
            "type": "t_uint224"
          },
          {
            "astId": 16019,
            "contract": "contracts/RewardsDistributor.sol:RewardsDistributor",
            "label": "timestamp",
            "offset": 28,
            "slot": "0",
            "type": "t_uint32"
          }
        ],
        "numberOfBytes": "32"
      },
      "t_uint224": {
        "encoding": "inplace",
        "label": "uint224",
        "numberOfBytes": "28"
      },
      "t_uint256": {
        "encoding": "inplace",
        "label": "uint256",
        "numberOfBytes": "32"
      },
      "t_uint32": {
        "encoding": "inplace",
        "label": "uint32",
        "numberOfBytes": "4"
      }
    }
  }
}