{
  "address": "0xcd618Dec2ecBD3688672CF53a90425211F38283f",
  "abi": [
    {
      "inputs": [],
      "stateMutability": "nonpayable",
      "type": "constructor"
    },
    {
      "inputs": [],
      "name": "AmountIsTooHigh",
      "type": "error"
    },
    {
      "inputs": [],
      "name": "AmountIsZero",
      "type": "error"
    },
    {
      "inputs": [],
      "name": "CrossChainRequestCompletedAlready",
      "type": "error"
    },
    {
      "inputs": [],
      "name": "CrossChainRequestInvalidKey",
      "type": "error"
    },
    {
      "inputs": [],
      "name": "DepositTokenDoesNotExist",
      "type": "error"
    },
    {
      "inputs": [],
      "name": "FlashRepaySlippageTooHigh",
      "type": "error"
    },
    {
      "inputs": [],
      "name": "IsShutdown",
      "type": "error"
    },
    {
      "inputs": [],
      "name": "LeverageSlippageTooHigh",
      "type": "error"
    },
    {
      "inputs": [],
      "name": "LeverageTooHigh",
      "type": "error"
    },
    {
      "inputs": [],
      "name": "LeverageTooLow",
      "type": "error"
    },
    {
      "inputs": [],
      "name": "PoolAddressIsNull",
      "type": "error"
    },
    {
      "inputs": [],
      "name": "PoolIsNull",
      "type": "error"
    },
    {
      "inputs": [],
      "name": "PositionIsNotHealthy",
      "type": "error"
    },
    {
      "inputs": [],
      "name": "SenderIsNotAccount",
      "type": "error"
    },
    {
      "inputs": [],
      "name": "SenderIsNotCrossChainDispatcher",
      "type": "error"
    },
    {
      "inputs": [],
      "name": "SyntheticDoesNotExist",
      "type": "error"
    },
    {
      "inputs": [],
      "name": "TokenInIsNull",
      "type": "error"
    },
    {
      "anonymous": false,
      "inputs": [
        {
          "indexed": true,
          "internalType": "uint256",
          "name": "id",
          "type": "uint256"
        }
      ],
      "name": "CrossChainFlashRepayFinished",
      "type": "event"
    },
    {
      "anonymous": false,
      "inputs": [
        {
          "indexed": true,
          "internalType": "uint256",
          "name": "id",
          "type": "uint256"
        }
      ],
      "name": "CrossChainFlashRepayStarted",
      "type": "event"
    },
    {
      "anonymous": false,
      "inputs": [
        {
          "indexed": true,
          "internalType": "uint256",
          "name": "id",
          "type": "uint256"
        }
      ],
      "name": "CrossChainLeverageFinished",
      "type": "event"
    },
    {
      "anonymous": false,
      "inputs": [
        {
          "indexed": true,
          "internalType": "uint256",
          "name": "id",
          "type": "uint256"
        }
      ],
      "name": "CrossChainLeverageStarted",
      "type": "event"
    },
    {
      "anonymous": false,
      "inputs": [
        {
          "indexed": true,
          "internalType": "contract ISyntheticToken",
          "name": "syntheticToken",
          "type": "address"
        },
        {
          "indexed": true,
          "internalType": "contract IDepositToken",
          "name": "depositToken",
          "type": "address"
        },
        {
          "indexed": false,
          "internalType": "uint256",
          "name": "withdrawn",
          "type": "uint256"
        },
        {
          "indexed": false,
          "internalType": "uint256",
          "name": "repaid",
          "type": "uint256"
        }
      ],
      "name": "FlashRepaid",
      "type": "event"
    },
    {
      "anonymous": false,
      "inputs": [
        {
          "indexed": false,
          "internalType": "uint8",
          "name": "version",
          "type": "uint8"
        }
      ],
      "name": "Initialized",
      "type": "event"
    },
    {
      "anonymous": false,
      "inputs": [
        {
          "indexed": true,
          "internalType": "contract IERC20",
          "name": "tokenIn",
          "type": "address"
        },
        {
          "indexed": true,
          "internalType": "contract IDepositToken",
          "name": "depositToken",
          "type": "address"
        },
        {
          "indexed": true,
          "internalType": "contract ISyntheticToken",
          "name": "syntheticToken",
          "type": "address"
        },
        {
          "indexed": false,
          "internalType": "uint256",
          "name": "leverage",
          "type": "uint256"
        },
        {
          "indexed": false,
          "internalType": "uint256",
          "name": "amountIn",
          "type": "uint256"
        },
        {
          "indexed": false,
          "internalType": "uint256",
          "name": "issued",
          "type": "uint256"
        },
        {
          "indexed": false,
          "internalType": "uint256",
          "name": "deposited",
          "type": "uint256"
        }
      ],
      "name": "Leveraged",
      "type": "event"
    },
    {
      "inputs": [],
      "name": "VERSION",
      "outputs": [
        {
          "internalType": "string",
          "name": "",
          "type": "string"
        }
      ],
      "stateMutability": "view",
      "type": "function"
    },
    {
      "inputs": [],
      "name": "crossChainDispatcher",
      "outputs": [
        {
          "internalType": "contract ICrossChainDispatcher",
          "name": "_crossChainDispatcher",
          "type": "address"
        }
      ],
      "stateMutability": "view",
      "type": "function"
    },
    {
      "inputs": [
        {
          "internalType": "contract ISyntheticToken",
          "name": "syntheticToken_",
          "type": "address"
        },
        {
          "internalType": "contract IDepositToken",
          "name": "depositToken_",
          "type": "address"
        },
        {
          "internalType": "uint256",
          "name": "withdrawAmount_",
          "type": "uint256"
        },
        {
          "internalType": "contract IERC20",
          "name": "bridgeToken_",
          "type": "address"
        },
        {
          "internalType": "uint256",
          "name": "bridgeTokenAmountMin_",
          "type": "uint256"
        },
        {
          "internalType": "uint256",
          "name": "swapAmountOutMin_",
          "type": "uint256"
        },
        {
          "internalType": "uint256",
          "name": "repayAmountMin_",
          "type": "uint256"
        },
        {
          "internalType": "bytes",
          "name": "lzArgs_",
          "type": "bytes"
        }
      ],
      "name": "crossChainFlashRepay",
      "outputs": [],
      "stateMutability": "payable",
      "type": "function"
    },
    {
      "inputs": [
        {
          "internalType": "uint256",
          "name": "id_",
          "type": "uint256"
        },
        {
          "internalType": "uint256",
          "name": "swapAmountOut_",
          "type": "uint256"
        }
      ],
      "name": "crossChainFlashRepayCallback",
      "outputs": [
        {
          "internalType": "uint256",
          "name": "_repaid",
          "type": "uint256"
        }
      ],
      "stateMutability": "nonpayable",
      "type": "function"
    },
    {
      "inputs": [
        {
          "internalType": "uint256",
          "name": "",
          "type": "uint256"
        }
      ],
      "name": "crossChainFlashRepays",
      "outputs": [
        {
          "internalType": "uint16",
          "name": "dstChainId",
          "type": "uint16"
        },
        {
          "internalType": "contract ISyntheticToken",
          "name": "syntheticToken",
          "type": "address"
        },
        {
          "internalType": "uint256",
          "name": "repayAmountMin",
          "type": "uint256"
        },
        {
          "internalType": "address",
          "name": "account",
          "type": "address"
        },
        {
          "internalType": "bool",
          "name": "finished",
          "type": "bool"
        }
      ],
      "stateMutability": "view",
      "type": "function"
    },
    {
      "inputs": [
        {
          "internalType": "contract IERC20",
          "name": "tokenIn_",
          "type": "address"
        },
        {
          "internalType": "contract IDepositToken",
          "name": "depositToken_",
          "type": "address"
        },
        {
          "internalType": "contract ISyntheticToken",
          "name": "syntheticToken_",
          "type": "address"
        },
        {
          "internalType": "uint256",
          "name": "amountIn_",
          "type": "uint256"
        },
        {
          "internalType": "uint256",
          "name": "leverage_",
          "type": "uint256"
        },
        {
          "internalType": "uint256",
          "name": "swapAmountOutMin_",
          "type": "uint256"
        },
        {
          "internalType": "uint256",
          "name": "depositAmountMin_",
          "type": "uint256"
        },
        {
          "internalType": "bytes",
          "name": "lzArgs_",
          "type": "bytes"
        }
      ],
      "name": "crossChainLeverage",
      "outputs": [],
      "stateMutability": "payable",
      "type": "function"
    },
    {
      "inputs": [
        {
          "internalType": "uint256",
          "name": "id_",
          "type": "uint256"
        },
        {
          "internalType": "uint256",
          "name": "swapAmountOut_",
          "type": "uint256"
        }
      ],
      "name": "crossChainLeverageCallback",
      "outputs": [
        {
          "internalType": "uint256",
          "name": "_deposited",
          "type": "uint256"
        }
      ],
      "stateMutability": "nonpayable",
      "type": "function"
    },
    {
      "inputs": [
        {
          "internalType": "uint256",
          "name": "",
          "type": "uint256"
        }
      ],
      "name": "crossChainLeverages",
      "outputs": [
        {
          "internalType": "uint16",
          "name": "dstChainId",
          "type": "uint16"
        },
        {
          "internalType": "contract IERC20",
          "name": "bridgeToken",
          "type": "address"
        },
        {
          "internalType": "contract IDepositToken",
          "name": "depositToken",
          "type": "address"
        },
        {
          "internalType": "contract ISyntheticToken",
          "name": "syntheticToken",
          "type": "address"
        },
        {
          "internalType": "uint256",
          "name": "bridgeTokenAmountIn",
          "type": "uint256"
        },
        {
          "internalType": "uint256",
          "name": "debtAmount",
          "type": "uint256"
        },
        {
          "internalType": "uint256",
          "name": "depositAmountMin",
          "type": "uint256"
        },
        {
          "internalType": "address",
          "name": "account",
          "type": "address"
        },
        {
          "internalType": "bool",
          "name": "finished",
          "type": "bool"
        }
      ],
      "stateMutability": "view",
      "type": "function"
    },
    {
      "inputs": [],
      "name": "crossChainRequestsLength",
      "outputs": [
        {
          "internalType": "uint256",
          "name": "",
          "type": "uint256"
        }
      ],
      "stateMutability": "view",
      "type": "function"
    },
    {
      "inputs": [
        {
          "internalType": "contract ISyntheticToken",
          "name": "syntheticToken_",
          "type": "address"
        },
        {
          "internalType": "contract IDepositToken",
          "name": "depositToken_",
          "type": "address"
        },
        {
          "internalType": "uint256",
          "name": "withdrawAmount_",
          "type": "uint256"
        },
        {
          "internalType": "uint256",
          "name": "repayAmountMin_",
          "type": "uint256"
        }
      ],
      "name": "flashRepay",
      "outputs": [
        {
          "internalType": "uint256",
          "name": "_withdrawn",
          "type": "uint256"
        },
        {
          "internalType": "uint256",
          "name": "_repaid",
          "type": "uint256"
        }
      ],
      "stateMutability": "nonpayable",
      "type": "function"
    },
    {
      "inputs": [],
      "name": "governor",
      "outputs": [
        {
          "internalType": "address",
          "name": "_governor",
          "type": "address"
        }
      ],
      "stateMutability": "view",
      "type": "function"
    },
    {
      "inputs": [
        {
          "internalType": "contract IPool",
          "name": "pool_",
          "type": "address"
        }
      ],
      "name": "initialize",
      "outputs": [],
      "stateMutability": "nonpayable",
      "type": "function"
    },
    {
      "inputs": [
        {
          "internalType": "contract IERC20",
          "name": "tokenIn_",
          "type": "address"
        },
        {
          "internalType": "contract IDepositToken",
          "name": "depositToken_",
          "type": "address"
        },
        {
          "internalType": "contract ISyntheticToken",
          "name": "syntheticToken_",
          "type": "address"
        },
        {
          "internalType": "uint256",
          "name": "amountIn_",
          "type": "uint256"
        },
        {
          "internalType": "uint256",
          "name": "leverage_",
          "type": "uint256"
        },
        {
          "internalType": "uint256",
          "name": "depositAmountMin_",
          "type": "uint256"
        }
      ],
      "name": "leverage",
      "outputs": [
        {
          "internalType": "uint256",
          "name": "_deposited",
          "type": "uint256"
        },
        {
          "internalType": "uint256",
          "name": "_issued",
          "type": "uint256"
        }
      ],
      "stateMutability": "nonpayable",
      "type": "function"
    },
    {
      "inputs": [],
      "name": "pool",
      "outputs": [
        {
          "internalType": "contract IPool",
          "name": "",
          "type": "address"
        }
      ],
      "stateMutability": "view",
      "type": "function"
    },
    {
      "inputs": [
        {
          "internalType": "uint256",
          "name": "id_",
          "type": "uint256"
        },
        {
          "internalType": "uint256",
          "name": "newRepayAmountMin_",
          "type": "uint256"
        },
        {
          "internalType": "uint16",
          "name": "srcChainId_",
          "type": "uint16"
        },
        {
          "internalType": "bytes",
          "name": "srcAddress_",
          "type": "bytes"
        },
        {
          "internalType": "uint64",
          "name": "nonce_",
          "type": "uint64"
        },
        {
          "internalType": "uint256",
          "name": "amount_",
          "type": "uint256"
        },
        {
          "internalType": "bytes",
          "name": "payload_",
          "type": "bytes"
        }
      ],
      "name": "retryCrossChainFlashRepayCallback",
      "outputs": [],
      "stateMutability": "nonpayable",
      "type": "function"
    },
    {
      "inputs": [
        {
          "internalType": "uint256",
          "name": "id_",
          "type": "uint256"
        },
        {
          "internalType": "uint256",
          "name": "newDepositAmountMin_",
          "type": "uint256"
        },
        {
          "internalType": "uint16",
          "name": "srcChainId_",
          "type": "uint16"
        },
        {
          "internalType": "bytes",
          "name": "srcAddress_",
          "type": "bytes"
        },
        {
          "internalType": "uint256",
          "name": "nonce_",
          "type": "uint256"
        }
      ],
      "name": "retryCrossChainLeverageCallback",
      "outputs": [],
      "stateMutability": "nonpayable",
      "type": "function"
    },
    {
      "inputs": [],
      "name": "swapper",
      "outputs": [
        {
          "internalType": "contract ISwapper",
          "name": "_swapper",
          "type": "address"
        }
      ],
      "stateMutability": "view",
      "type": "function"
    }
  ],
  "transactionHash": "0x1d61c345cfd68f3cdf07b1bf2e0cc006457676f5bb4034153012247e7f67aad4",
  "args": [],
  "numDeployments": 1,
  "solcInputHash": "545cb6254fd08cfae8ffa56eab2faa67",
  "bytecode": "0x60806040523480156200001157600080fd5b506200001c62000022565b62000152565b6200002e60ff62000031565b50565b60008054610100900460ff1615620000ca578160ff1660011480156200006a575062000068306200014360201b620028b61760201c565b155b620000c25760405162461bcd60e51b815260206004820152602e6024820152600080516020620041bd83398151915260448201526d191e481a5b9a5d1a585b1a5e995960921b60648201526084015b60405180910390fd5b506000919050565b60005460ff808416911610620001295760405162461bcd60e51b815260206004820152602e6024820152600080516020620041bd83398151915260448201526d191e481a5b9a5d1a585b1a5e995960921b6064820152608401620000b9565b506000805460ff191660ff92909216919091179055600190565b6001600160a01b03163b151590565b61405b80620001626000396000f3fe6080604052600436106100fe5760003560e01c806377b66768116100955780639b6623d8116100645780639b6623d8146103c9578063c3557691146103df578063c4d66de8146103f2578063f1c0ca3f14610412578063ffa1ad741461043257600080fd5b806377b66768146102175780638056777414610237578063823185611461025757806399e5e6551461032e57600080fd5b8063364fda00116100d1578063364fda001461017f57806339c9a98e146101b45780634d7e9a76146101c95780636455bf6f146101e957600080fd5b80630c340a241461010357806316f0115b146101355780632b3297f91461015557806332c615b41461016a575b600080fd5b34801561010f57600080fd5b50610118610470565b6040516001600160a01b0390911681526020015b60405180910390f35b34801561014157600080fd5b50600254610118906001600160a01b031681565b34801561016157600080fd5b506101186104f2565b34801561017657600080fd5b506101186105a7565b34801561018b57600080fd5b5061019f61019a366004613831565b61065c565b6040805192835260208301919091520161012c565b6101c76101c23660046138c0565b610c8a565b005b3480156101d557600080fd5b5061019f6101e4366004613965565b611052565b3480156101f557600080fd5b506102096102043660046139ca565b6116e6565b60405190815260200161012c565b34801561022357600080fd5b506101c7610232366004613a12565b611a20565b34801561024357600080fd5b506102096102523660046139ca565b611cc3565b34801561026357600080fd5b506102d4610272366004613ab1565b603560205260009081526040902080546001820154600283015460038401546004850154600586015460069096015461ffff861696620100009096046001600160a01b039081169695811695948116949190811690600160a01b900460ff1689565b6040805161ffff909a168a526001600160a01b0398891660208b0152968816968901969096529386166060880152608087019290925260a086015260c08501529190911660e083015215156101008201526101200161012c565b34801561033a57600080fd5b5061038f610349366004613ab1565b60366020526000908152604090208054600182015460029092015461ffff821692620100009092046001600160a01b03908116929190811690600160a01b900460ff1685565b6040805161ffff90961686526001600160a01b0394851660208701528501929092529190911660608301521515608082015260a00161012c565b3480156103d557600080fd5b5061020960345481565b6101c76103ed366004613aca565b6121e4565b3480156103fe57600080fd5b506101c761040d366004613b4c565b61259c565b34801561041e57600080fd5b506101c761042d366004613b69565b612642565b34801561043e57600080fd5b50610463604051806040016040528060058152602001640312e332e360dc1b81525081565b60405161012c9190613c33565b6002546040805163030d028960e21b815290516000926001600160a01b031691630c340a24916004808301926020929190829003018186803b1580156104b557600080fd5b505afa1580156104c9573d6000803e3d6000fd5b505050506040513d601f19601f820116820180604052508101906104ed9190613c46565b905090565b6002546040805163afcff50f60e01b815290516000926001600160a01b03169163afcff50f916004808301926020929190829003018186803b15801561053757600080fd5b505afa15801561054b573d6000803e3d6000fd5b505050506040513d601f19601f8201168201806040525081019061056f9190613c46565b6001600160a01b0316632b3297f96040518163ffffffff1660e01b815260040160206040518083038186803b1580156104b557600080fd5b6002546040805163afcff50f60e01b815290516000926001600160a01b03169163afcff50f916004808301926020929190829003018186803b1580156105ec57600080fd5b505afa158015610600573d6000803e3d6000fd5b505050506040513d601f19601f820116820180604052508101906106249190613c46565b6001600160a01b03166332c615b46040518163ffffffff1660e01b815260040160206040518083038186803b1580156104b557600080fd5b600080600260009054906101000a90046001600160a01b03166001600160a01b031663ecf3a3f96040518163ffffffff1660e01b815260040160206040518083038186803b1580156106ad57600080fd5b505afa1580156106c1573d6000803e3d6000fd5b505050506040513d601f19601f820116820180604052508101906106e59190613c73565b1561070357604051631b0e923f60e11b815260040160405180910390fd5b6002600154141561072f5760405162461bcd60e51b815260040161072690613c8e565b60405180910390fd5b6002600181905554604051633e25dee160e21b81526001600160a01b0380881660048301528792169063f8977b849060240160206040518083038186803b15801561077957600080fd5b505afa15801561078d573d6000803e3d6000fd5b505050506040513d601f19601f820116820180604052508101906107b19190613c73565b6107ce5760405163a67d528360e01b815260040160405180910390fd5b600254604051631a0dd00b60e01b81526001600160a01b03808a16600483015289921690631a0dd00b9060240160206040518083038186803b15801561081357600080fd5b505afa158015610827573d6000803e3d6000fd5b505050506040513d601f19601f8201168201806040525081019061084b9190613c73565b6108685760405163a596698b60e01b815260040160405180910390fd5b85610886576040516310eb483f60e21b815260040160405180910390fd5b6040516370a0823160e01b81523360048201526001600160a01b038816906370a082319060240160206040518083038186803b1580156108c557600080fd5b505afa1580156108d9573d6000803e3d6000fd5b505050506040513d601f19601f820116820180604052508101906108fd9190613cc5565b86111561091d57604051635de1e54160e01b815260040160405180910390fd5b6002546040516313f1e1f560e31b81526001600160a01b038a81166004830152909116906000908290639f8f0fa89060240160206040518083038186803b15801561096757600080fd5b505afa15801561097b573d6000803e3d6000fd5b505050506040513d601f19601f8201168201806040525081019061099f9190613c46565b6040516370a0823160e01b81523360048201529091506001600160a01b038216906370a082319060240160206040518083038186803b1580156109e157600080fd5b505afa1580156109f5573d6000803e3d6000fd5b505050506040513d601f19601f82011682018060405250810190610a199190613cc5565b871115610a3957604051635de1e54160e01b815260040160405180910390fd5b6040516336e1668760e11b81526001600160a01b038a1690636dc2cd0e90610a679033908c90600401613cde565b6040805180830381600087803b158015610a8057600080fd5b505af1158015610a94573d6000803e3d6000fd5b505050506040513d601f19601f82011682018060405250810190610ab89190613cf7565b5095506000610ada610ac86104f2565b610ad18c6128c5565b8d8a600061293e565b604051630450cfaf60e31b81529091506001600160a01b038316906322867d7890610b0b9033908590600401613cde565b6040805180830381600087803b158015610b2457600080fd5b505af1158015610b38573d6000803e3d6000fd5b505050506040513d601f19601f82011682018060405250810190610b5c9190613cf7565b50955087861015610b8057604051634394bddf60e11b815260040160405180910390fd5b60405163dde3ab9560e01b81523360048201526000906001600160a01b0385169063dde3ab959060240160a06040518083038186803b158015610bc257600080fd5b505afa158015610bd6573d6000803e3d6000fd5b505050506040513d601f19601f82011682018060405250810190610bfa9190613d1b565b50505050905080610c1e5760405163cfd3600360e01b815260040160405180910390fd5b8a6001600160a01b03168c6001600160a01b03167f70e2337c0939e469d0c3d069c581bc0b72c541a70c592cdd46087d24e5e980d28a8a604051610c6c929190918252602082015260400190565b60405180910390a35050505050506001808190555094509492505050565b60026001541415610cad5760405162461bcd60e51b815260040161072690613c8e565b6002600181905554604051633e25dee160e21b81526001600160a01b03808b1660048301528a92169063f8977b849060240160206040518083038186803b158015610cf757600080fd5b505afa158015610d0b573d6000803e3d6000fd5b505050506040513d601f19601f82011682018060405250810190610d2f9190613c73565b610d4c5760405163a67d528360e01b815260040160405180910390fd5b600254604051631a0dd00b60e01b81526001600160a01b03808b1660048301528a921690631a0dd00b9060240160206040518083038186803b158015610d9157600080fd5b505afa158015610da5573d6000803e3d6000fd5b505050506040513d601f19601f82011682018060405250810190610dc99190613c73565b610de65760405163a596698b60e01b815260040160405180910390fd5b8a88610e05576040516310eb483f60e21b815260040160405180910390fd5b670de0b6b3a76400008811610e2d57604051631907e1ff60e21b815260040160405180910390fd5b610ec28b6001600160a01b031663df011c416040518163ffffffff1660e01b815260040160206040518083038186803b158015610e6957600080fd5b505afa158015610e7d573d6000803e3d6000fd5b505050506040513d601f19601f82011682018060405250810190610ea19190613cc5565b610eb390670de0b6b3a7640000613d78565b670de0b6b3a764000090612958565b881115610ee257604051630a4f5a0760e01b815260040160405180910390fd5b6001600160a01b038116610f0957604051634f70ad6b60e01b815260040160405180910390fd5b600080610f1783338d612993565b9a50610f25838d8d8d612ab2565b6002546040516313f1e1f560e31b81526001600160a01b038f81166004830152929450911690639f8f0fa89060240160206040518083038186803b158015610f6c57600080fd5b505afa158015610f80573d6000803e3d6000fd5b505050506040513d601f19601f82011682018060405250810190610fa49190613c46565b6001600160a01b031663bfa17656610fba6105a7565b846040518363ffffffff1660e01b8152600401610fd8929190613cde565b6040805180830381600087803b158015610ff157600080fd5b505af1158015611005573d6000803e3d6000fd5b505050506040513d601f19601f820116820180604052508101906110299190613cf7565b50905061103e8d8c848f87868f8f8f8f612be0565b505060018055505050505050505050505050565b600080600260009054906101000a90046001600160a01b03166001600160a01b031663ecf3a3f96040518163ffffffff1660e01b815260040160206040518083038186803b1580156110a357600080fd5b505afa1580156110b7573d6000803e3d6000fd5b505050506040513d601f19601f820116820180604052508101906110db9190613c73565b156110f957604051631b0e923f60e11b815260040160405180910390fd5b6002600154141561111c5760405162461bcd60e51b815260040161072690613c8e565b6002600181905554604051633e25dee160e21b81526001600160a01b03808a1660048301528992169063f8977b849060240160206040518083038186803b15801561116657600080fd5b505afa15801561117a573d6000803e3d6000fd5b505050506040513d601f19601f8201168201806040525081019061119e9190613c73565b6111bb5760405163a67d528360e01b815260040160405180910390fd5b600254604051631a0dd00b60e01b81526001600160a01b03808a16600483015289921690631a0dd00b9060240160206040518083038186803b15801561120057600080fd5b505afa158015611214573d6000803e3d6000fd5b505050506040513d601f19601f820116820180604052508101906112389190613c73565b6112555760405163a596698b60e01b815260040160405180910390fd5b86611273576040516310eb483f60e21b815260040160405180910390fd5b670de0b6b3a7640000861161129b57604051631907e1ff60e21b815260040160405180910390fd5b6112d7896001600160a01b031663df011c416040518163ffffffff1660e01b815260040160206040518083038186803b158015610e6957600080fd5b8611156112f757604051630a4f5a0760e01b815260040160405180910390fd5b60006113016104f2565b9050600061130e8b6128c5565b90506001600160a01b038c1661132257809b505b61132d8c338b612993565b9850806001600160a01b03168c6001600160a01b03161461135957611356828d838c600061293e565b98505b6000611367828c8c8c612ab2565b6002546040516313f1e1f560e31b81526001600160a01b038e8116600483015292935060009290911690639f8f0fa89060240160206040518083038186803b1580156113b257600080fd5b505afa1580156113c6573d6000803e3d6000fd5b505050506040513d601f19601f820116820180604052508101906113ea9190613c46565b604051635fd0bb2b60e11b81529091506001600160a01b0382169063bfa176569061141b9030908690600401613cde565b6040805180830381600087803b15801561143457600080fd5b505af1158015611448573d6000803e3d6000fd5b505050506040513d601f19601f8201168201806040525081019061146c9190613cf7565b506040516340c10f1960e01b81529097506001600160a01b038216906340c10f199061149e9033908690600401613cde565b600060405180830381600087803b1580156114b857600080fd5b505af11580156114cc573d6000803e3d6000fd5b50505050505060006114e2838c8489600061293e565b6114ec908b613d8f565b90508781101561150f5760405163c724afdf60e01b815260040160405180910390fd5b6115246001600160a01b0383168d6000612e75565b6115386001600160a01b0383168d83612e75565b604051636e553f6560e01b8152600481018290523360248201526001600160a01b038d1690636e553f65906044016040805180830381600087803b15801561157f57600080fd5b505af1158015611593573d6000803e3d6000fd5b505050506040513d601f19601f820116820180604052508101906115b79190613cf7565b5060025460405163dde3ab9560e01b81523360048201529198506000916001600160a01b039091169063dde3ab959060240160a06040518083038186803b15801561160157600080fd5b505afa158015611615573d6000803e3d6000fd5b505050506040513d601f19601f820116820180604052508101906116399190613d1b565b5050505090508061165d5760405163cfd3600360e01b815260040160405180910390fd5b8b6001600160a01b03168d6001600160a01b03168f6001600160a01b03167fd82c156e929db20771fc8413cc0789925f6c666a3e5076d5844765ee28bb3a958d8f8c8e6040516116c6949392919093845260208401929092526040830152606082015260800190565b60405180910390a450505050505060018081905550965096945050505050565b6002546040805163ecf3a3f960e01b815290516000926001600160a01b03169163ecf3a3f9916004808301926020929190829003018186803b15801561172b57600080fd5b505afa15801561173f573d6000803e3d6000fd5b505050506040513d601f19601f820116820180604052508101906117639190613c73565b1561178157604051631b0e923f60e11b815260040160405180910390fd5b600260015414156117a45760405162461bcd60e51b815260040161072690613c8e565b60026001556117b16105a7565b6001600160a01b0316336001600160a01b0316146117e257604051632b78ce1b60e11b815260040160405180910390fd5b600083815260366020908152604091829020825160a081018452815461ffff811682526201000090046001600160a01b03908116938201939093526001820154938101939093526002015490811660608301819052600160a01b90910460ff1615156080830152611866576040516311bf899560e21b815260040160405180910390fd5b80608001511561188957604051630814de4560e11b815260040160405180910390fd5b6000848152603660209081526040909120600201805460ff60a01b1916600160a01b1790558101516118bc903385612993565b60025460208301516040516313f1e1f560e31b81526001600160a01b0391821660048201529295501690639f8f0fa89060240160206040518083038186803b15801561190757600080fd5b505afa15801561191b573d6000803e3d6000fd5b505050506040513d601f19601f8201168201806040525081019061193f9190613c46565b6001600160a01b03166322867d788260600151856040518363ffffffff1660e01b8152600401611970929190613cde565b6040805180830381600087803b15801561198957600080fd5b505af115801561199d573d6000803e3d6000fd5b505050506040513d601f19601f820116820180604052508101906119c19190613cf7565b5060408201519092508210156119ea57604051634394bddf60e11b815260040160405180910390fd5b60405184907f46da7fdc7ceed834de258df19d8f9ebd7082810a4eb45732d1401df31e5aaa1390600090a2506001805592915050565b600089815260366020908152604091829020825160a081018452815461ffff811682526201000090046001600160a01b03908116938201939093526001820154938101939093526002015490811660608301819052600160a01b90910460ff1615156080830152611aa4576040516311bf899560e21b815260040160405180910390fd5b80606001516001600160a01b0316336001600160a01b031614611ada576040516387ab7e7760e01b815260040160405180910390fd5b806080015115611afd57604051630814de4560e11b815260040160405180910390fd5b60008a81526036602052604081206001018a9055611b196105a7565b60405163dfda255f60e01b815261ffff8b1660048201529091506000906001600160a01b0383169063dfda255f9060240160206040518083038186803b158015611b6257600080fd5b505afa158015611b76573d6000803e3d6000fd5b505050506040513d601f19601f82011682018060405250810190611b9a9190613c46565b604051602001611bc2919060609190911b6bffffffffffffffffffffffff1916815260140190565b604051602081830303815290604052905082602001516001600160a01b0316636d1bb8f76040518163ffffffff1660e01b815260040160206040518083038186803b158015611c1057600080fd5b505afa158015611c24573d6000803e3d6000fd5b505050506040513d601f19601f82011682018060405250810190611c489190613c46565b6001600160a01b031663cfd6528e8b8b8b8b86888d8d8d6040518a63ffffffff1660e01b8152600401611c8399989796959493929190613dd0565b600060405180830381600087803b158015611c9d57600080fd5b505af1158015611cb1573d6000803e3d6000fd5b50505050505050505050505050505050565b6002546040805163ecf3a3f960e01b815290516000926001600160a01b03169163ecf3a3f9916004808301926020929190829003018186803b158015611d0857600080fd5b505afa158015611d1c573d6000803e3d6000fd5b505050506040513d601f19601f82011682018060405250810190611d409190613c73565b15611d5e57604051631b0e923f60e11b815260040160405180910390fd5b60026001541415611d815760405162461bcd60e51b815260040161072690613c8e565b6002600155611d8e6105a7565b6001600160a01b0316336001600160a01b031614611dbf57604051632b78ce1b60e11b815260040160405180910390fd5b600083815260356020908152604091829020825161012081018452815461ffff811682526201000090046001600160a01b0390811693820193909352600182015483169381019390935260028101548216606084015260038101546080840152600481015460a0840152600581015460c08401526006015490811660e08301819052600160a01b90910460ff161515610100830152611e71576040516311bf899560e21b815260040160405180910390fd5b80610100015115611e9557604051630814de4560e11b815260040160405180910390fd5b6000611ea482604001516128c5565b6000868152603560209081526040909120600601805460ff60a01b1916600160a01b179055830151909150611eda903386612993565b93506000848360800151611eee9190613d8f565b90506000826001600160a01b031684602001516001600160a01b031614611f2d57611f28611f1a6104f2565b85602001518585600061293e565b611f2f565b815b90508360c00151811015611f565760405163c724afdf60e01b815260040160405180910390fd5b6040840151611f71906001600160a01b038516906000612e75565b6040840151611f8b906001600160a01b0385169083612e75565b60408085015160e08601519151636e553f6560e01b8152600481018490526001600160a01b039283166024820152911690636e553f65906044016040805180830381600087803b158015611fde57600080fd5b505af1158015611ff2573d6000803e3d6000fd5b505050506040513d601f19601f820116820180604052508101906120169190613cf7565b5060025460608601516040516313f1e1f560e31b81526001600160a01b03918216600482015292975016908190639f8f0fa89060240160206040518083038186803b15801561206457600080fd5b505afa158015612078573d6000803e3d6000fd5b505050506040513d601f19601f8201168201806040525081019061209c9190613c46565b6001600160a01b03166340c10f198660e001518760a001516040518363ffffffff1660e01b81526004016120d1929190613cde565b600060405180830381600087803b1580156120eb57600080fd5b505af11580156120ff573d6000803e3d6000fd5b5050505060e085015160405163dde3ab9560e01b81526001600160a01b03918216600482015260009183169063dde3ab959060240160a06040518083038186803b15801561214c57600080fd5b505afa158015612160573d6000803e3d6000fd5b505050506040513d601f19601f820116820180604052508101906121849190613d1b565b505050509050806121a85760405163cfd3600360e01b815260040160405180910390fd5b60405189907f8e4ff8e32fb3b90b184bdac5bf0d9b2a0fe19baa9dfea95c0fcd7d8e3842e80e90600090a2505060018055509295945050505050565b600260015414156122075760405162461bcd60e51b815260040161072690613c8e565b6002600181905554604051633e25dee160e21b81526001600160a01b03808b1660048301528a92169063f8977b849060240160206040518083038186803b15801561225157600080fd5b505afa158015612265573d6000803e3d6000fd5b505050506040513d601f19601f820116820180604052508101906122899190613c73565b6122a65760405163a67d528360e01b815260040160405180910390fd5b600254604051631a0dd00b60e01b81526001600160a01b03808d1660048301528c921690631a0dd00b9060240160206040518083038186803b1580156122eb57600080fd5b505afa1580156122ff573d6000803e3d6000fd5b505050506040513d601f19601f820116820180604052508101906123239190613c73565b6123405760405163a596698b60e01b815260040160405180910390fd5b8861235e576040516310eb483f60e21b815260040160405180910390fd5b6002546040516313f1e1f560e31b81526001600160a01b038d811660048301526000928392911690639f8f0fa89060240160206040518083038186803b1580156123a757600080fd5b505afa1580156123bb573d6000803e3d6000fd5b505050506040513d601f19601f820116820180604052508101906123df9190613c46565b9050806001600160a01b031663a6afed956040518163ffffffff1660e01b8152600401600060405180830381600087803b15801561241c57600080fd5b505af1158015612430573d6000803e3d6000fd5b50506040516370a0823160e01b81523360048201526001600160a01b03841692506370a08231915060240160206040518083038186803b15801561247357600080fd5b505afa158015612487573d6000803e3d6000fd5b505050506040513d601f19601f820116820180604052508101906124ab9190613cc5565b8711156124cb57604051635de1e54160e01b815260040160405180910390fd5b6124d36105a7565b91505060008b6001600160a01b0316639470b0bd338d6040518363ffffffff1660e01b8152600401612506929190613cde565b6040805180830381600087803b15801561251f57600080fd5b505af1158015612533573d6000803e3d6000fd5b505050506040513d601f19601f820116820180604052508101906125579190613cf7565b5090506125776125656104f2565b61256e8e6128c5565b8c848d87612fc4565b9050612589828b8f848c8c8c8c6131e0565b5050600180555050505050505050505050565b60006125a86001613369565b905080156125c0576000805461ff0019166101001790555b6001600160a01b0382166125e757604051633cb1fb1f60e11b815260040160405180910390fd5b6125ef6133f6565b6125f882613427565b801561263e576000805461ff0019169055604051600181527f7f26b83ff96e1f2b6a682f133852f6798a09c465da95921460cefb38474024989060200160405180910390a15b5050565b600086815260356020908152604091829020825161012081018452815461ffff811682526201000090046001600160a01b0390811693820193909352600182015483169381019390935260028101548216606084015260038101546080840152600481015460a0840152600581015460c08401526006015490811660e08301819052600160a01b90910460ff1615156101008301526126f4576040516311bf899560e21b815260040160405180910390fd5b8060e001516001600160a01b0316336001600160a01b03161461272a576040516387ab7e7760e01b815260040160405180910390fd5b8061010001511561274e57604051630814de4560e11b815260040160405180910390fd5b600087815260356020526040902060050186905561276a6105a7565b6001600160a01b0316633352b6086040518163ffffffff1660e01b815260040160206040518083038186803b1580156127a257600080fd5b505afa1580156127b6573d6000803e3d6000fd5b505050506040513d601f19601f820116820180604052508101906127da9190613c46565b6001600160a01b031663a9e56f3c6040518163ffffffff1660e01b815260040160206040518083038186803b15801561281257600080fd5b505afa158015612826573d6000803e3d6000fd5b505050506040513d601f19601f8201168201806040525081019061284a9190613c46565b6001600160a01b031663403a9f7a868686866040518563ffffffff1660e01b815260040161287b9493929190613e4b565b600060405180830381600087803b15801561289557600080fd5b505af11580156128a9573d6000803e3d6000fd5b5050505050505050505050565b6001600160a01b03163b151590565b6000816001600160a01b0316636f307dc36040518163ffffffff1660e01b815260040160206040518083038186803b15801561290057600080fd5b505afa158015612914573d6000803e3d6000fd5b505050506040513d601f19601f820116820180604052508101906129389190613c46565b92915050565b600061294e868686868630612fc4565b9695505050505050565b600081612966600282613e7a565b612978670de0b6b3a764000086613e9c565b6129829190613d8f565b61298c9190613e7a565b9392505050565b6040516370a0823160e01b815230600482015260009081906001600160a01b038616906370a082319060240160206040518083038186803b1580156129d757600080fd5b505afa1580156129eb573d6000803e3d6000fd5b505050506040513d601f19601f82011682018060405250810190612a0f9190613cc5565b9050612a266001600160a01b038616853086613497565b6040516370a0823160e01b815230600482015281906001600160a01b038716906370a082319060240160206040518083038186803b158015612a6757600080fd5b505afa158015612a7b573d6000803e3d6000fd5b505050506040513d601f19601f82011682018060405250810190612a9f9190613cc5565b612aa99190613d78565b95945050505050565b60025460408051637556d1c160e11b815290516000926001600160a01b03169163eaada382916004808301926020929190829003018186803b158015612af757600080fd5b505afa158015612b0b573d6000803e3d6000fd5b505050506040513d601f19601f82011682018060405250810190612b2f9190613c46565b6001600160a01b031663b64663848686612b5b87612b55670de0b6b3a764000089613d78565b906134d5565b6040516001600160e01b031960e086901b1681526001600160a01b039384166004820152929091166024830152604482015260640160206040518083038186803b158015612ba857600080fd5b505afa158015612bbc573d6000803e3d6000fd5b505050506040513d601f19601f82011682018060405250810190612aa99190613cc5565b6000612bea61350d565b90506000612c2d84848080601f01602080910402602001604051908101604052809392919081815260200183838082843760009201919091525061355492505050565b505090506040518061012001604052808261ffff168152602001896001600160a01b031681526020018d6001600160a01b031681526020018a6001600160a01b031681526020018c81526020018b8152602001868152602001336001600160a01b03168152602001600015158152506035600084815260200190815260200160002060008201518160000160006101000a81548161ffff021916908361ffff16021790555060208201518160000160026101000a8154816001600160a01b0302191690836001600160a01b0316021790555060408201518160010160006101000a8154816001600160a01b0302191690836001600160a01b0316021790555060608201518160020160006101000a8154816001600160a01b0302191690836001600160a01b031602179055506080820151816003015560a0820151816004015560c0820151816005015560e08201518160060160006101000a8154816001600160a01b0302191690836001600160a01b031602179055506101008201518160060160146101000a81548160ff02191690831515021790555090505050612dd16105a7565b6001600160a01b03166339f648bf3483338c8c8c8c8b8b6040518a63ffffffff1660e01b8152600401612e0b989796959493929190613ebb565b6000604051808303818588803b158015612e2457600080fd5b505af1158015612e38573d6000803e3d6000fd5b50506040518493507f46a791deaa2c43990d6e3b60a320fbebef9a6677379f326b308fb9efc8128619925060009150a25050505050505050505050565b801580612efe5750604051636eb1769f60e11b81523060048201526001600160a01b03838116602483015284169063dd62ed3e9060440160206040518083038186803b158015612ec457600080fd5b505afa158015612ed8573d6000803e3d6000fd5b505050506040513d601f19601f82011682018060405250810190612efc9190613cc5565b155b612f695760405162461bcd60e51b815260206004820152603660248201527f5361666545524332303a20617070726f76652066726f6d206e6f6e2d7a65726f60448201527520746f206e6f6e2d7a65726f20616c6c6f77616e636560501b6064820152608401610726565b612fbf8363095ea7b360e01b8484604051602401612f88929190613cde565b60408051601f198184030181529190526020810180516001600160e01b03166001600160e01b03199093169290921790915261357a565b505050565b6000846001600160a01b0316866001600160a01b0316146131b157612ff46001600160a01b038716886000612e75565b6130086001600160a01b0387168886612e75565b6040516370a0823160e01b81526001600160a01b038381166004830152600091908716906370a082319060240160206040518083038186803b15801561304d57600080fd5b505afa158015613061573d6000803e3d6000fd5b505050506040513d601f19601f820116820180604052508101906130859190613cc5565b604051636ccb2b0160e01b81526001600160a01b03898116600483015288811660248301526044820188905260648201879052858116608483015291925090891690636ccb2b019060a401602060405180830381600087803b1580156130ea57600080fd5b505af11580156130fe573d6000803e3d6000fd5b505050506040513d601f19601f820116820180604052508101906131229190613cc5565b506040516370a0823160e01b81526001600160a01b0384811660048301528291908816906370a082319060240160206040518083038186803b15801561316757600080fd5b505afa15801561317b573d6000803e3d6000fd5b505050506040513d601f19601f8201168201806040525081019061319f9190613cc5565b6131a99190613d78565b91505061294e565b6001600160a01b03821630146131d5576131d56001600160a01b038716838661364c565b509195945050505050565b60006131ea61350d565b9050600061322d84848080601f01602080910402602001604051908101604052809392919081815260200183838082843760009201919091525061355492505050565b50506040805160a08101825261ffff80841682526001600160a01b03808d1660208085019182528486018c815233606087018181526000608089018181528d82526036909552899020975188549551871662010000026001600160b01b031990961697169690961793909317865551600186015592516002909401805493511515600160a01b026001600160a81b03199094169483169490941792909217909255915162bc9db960e01b81529293508c169162bc9db99134916133009187918f908f908f908f908e908e90600401613ebb565b6000604051808303818588803b15801561331957600080fd5b505af115801561332d573d6000803e3d6000fd5b50506040518593507ff83a8331f3e68a894879f051738cb73cdced1709a214e49f6dc1d541a0415e8b925060009150a250505050505050505050565b60008054610100900460ff16156133b0578160ff16600114801561338c5750303b155b6133a85760405162461bcd60e51b815260040161072690613f12565b506000919050565b60005460ff8084169116106133d75760405162461bcd60e51b815260040161072690613f12565b506000805460ff191660ff92909216919091179055600190565b919050565b600054610100900460ff1661341d5760405162461bcd60e51b815260040161072690613f60565b61342561366b565b565b600054610100900460ff1661344e5760405162461bcd60e51b815260040161072690613f60565b6001600160a01b0381166134755760405163724f500960e01b815260040160405180910390fd5b600280546001600160a01b0319166001600160a01b0392909216919091179055565b6040516001600160a01b03808516602483015283166044820152606481018290526134cf9085906323b872dd60e01b90608401612f88565b50505050565b60008215806134e2575081155b156134ef57506000612938565b670de0b6b3a7640000613503600282613e7a565b6129788486613e9c565b60004660346000815461351f90613fab565b91829055506040805160208101939093528201526060016040516020818303038152906040528051906020012060001c905090565b60008060008380602001905181019061356d9190613fc6565b9250925092509193909250565b60006135cf826040518060400160405280602081526020017f5361666545524332303a206c6f772d6c6576656c2063616c6c206661696c6564815250856001600160a01b03166136989092919063ffffffff16565b805190915015612fbf57808060200190518101906135ed9190613c73565b612fbf5760405162461bcd60e51b815260206004820152602a60248201527f5361666545524332303a204552433230206f7065726174696f6e20646964206e6044820152691bdd081cdd58d8d9595960b21b6064820152608401610726565b612fbf8363a9059cbb60e01b8484604051602401612f88929190613cde565b600054610100900460ff166136925760405162461bcd60e51b815260040161072690613f60565b60018055565b60606136a784846000856136af565b949350505050565b6060824710156137105760405162461bcd60e51b815260206004820152602660248201527f416464726573733a20696e73756666696369656e742062616c616e636520666f6044820152651c8818d85b1b60d21b6064820152608401610726565b6001600160a01b0385163b6137675760405162461bcd60e51b815260206004820152601d60248201527f416464726573733a2063616c6c20746f206e6f6e2d636f6e74726163740000006044820152606401610726565b600080866001600160a01b031685876040516137839190614009565b60006040518083038185875af1925050503d80600081146137c0576040519150601f19603f3d011682016040523d82523d6000602084013e6137c5565b606091505b50915091506137d58282866137e0565b979650505050505050565b606083156137ef57508161298c565b8251156137ff5782518084602001fd5b8160405162461bcd60e51b81526004016107269190613c33565b6001600160a01b038116811461382e57600080fd5b50565b6000806000806080858703121561384757600080fd5b843561385281613819565b9350602085013561386281613819565b93969395505050506040820135916060013590565b60008083601f84011261388957600080fd5b50813567ffffffffffffffff8111156138a157600080fd5b6020830191508360208285010111156138b957600080fd5b9250929050565b60008060008060008060008060006101008a8c0312156138df57600080fd5b89356138ea81613819565b985060208a01356138fa81613819565b975060408a013561390a81613819565b965060608a0135955060808a0135945060a08a0135935060c08a0135925060e08a013567ffffffffffffffff81111561394257600080fd5b61394e8c828d01613877565b915080935050809150509295985092959850929598565b60008060008060008060c0878903121561397e57600080fd5b863561398981613819565b9550602087013561399981613819565b945060408701356139a981613819565b959894975094956060810135955060808101359460a0909101359350915050565b600080604083850312156139dd57600080fd5b50508035926020909101359150565b61ffff8116811461382e57600080fd5b67ffffffffffffffff8116811461382e57600080fd5b600080600080600080600080600060e08a8c031215613a3057600080fd5b8935985060208a0135975060408a0135613a49816139ec565b965060608a013567ffffffffffffffff80821115613a6657600080fd5b613a728d838e01613877565b909850965060808c01359150613a87826139fc565b90945060a08b0135935060c08b01359080821115613aa457600080fd5b5061394e8c828d01613877565b600060208284031215613ac357600080fd5b5035919050565b60008060008060008060008060006101008a8c031215613ae957600080fd5b8935613af481613819565b985060208a0135613b0481613819565b975060408a0135965060608a0135613b1b81613819565b955060808a0135945060a08a0135935060c08a0135925060e08a013567ffffffffffffffff81111561394257600080fd5b600060208284031215613b5e57600080fd5b813561298c81613819565b60008060008060008060a08789031215613b8257600080fd5b86359550602087013594506040870135613b9b816139ec565b9350606087013567ffffffffffffffff811115613bb757600080fd5b613bc389828a01613877565b979a9699509497949695608090950135949350505050565b60005b83811015613bf6578181015183820152602001613bde565b838111156134cf5750506000910152565b60008151808452613c1f816020860160208601613bdb565b601f01601f19169290920160200192915050565b60208152600061298c6020830184613c07565b600060208284031215613c5857600080fd5b815161298c81613819565b805180151581146133f157600080fd5b600060208284031215613c8557600080fd5b61298c82613c63565b6020808252601f908201527f5265656e7472616e637947756172643a207265656e7472616e742063616c6c00604082015260600190565b600060208284031215613cd757600080fd5b5051919050565b6001600160a01b03929092168252602082015260400190565b60008060408385031215613d0a57600080fd5b505080516020909101519092909150565b600080600080600060a08688031215613d3357600080fd5b613d3c86613c63565b602087015160408801516060890151608090990151929a91995097965090945092505050565b634e487b7160e01b600052601160045260246000fd5b600082821015613d8a57613d8a613d62565b500390565b60008219821115613da257613da2613d62565b500190565b81835281816020850137506000828201602090810191909152601f909101601f19169091010190565b61ffff8a16815260e060208201526000613dee60e083018a8c613da7565b67ffffffffffffffff891660408401528281036060840152613e108189613c07565b6001600160a01b038816608085015260a0840187905283810360c08501529050613e3b818587613da7565b9c9b505050505050505050505050565b61ffff85168152606060208201526000613e69606083018587613da7565b905082604083015295945050505050565b600082613e9757634e487b7160e01b600052601260045260246000fd5b500490565b6000816000190483118215151615613eb657613eb6613d62565b500290565b8881526001600160a01b0388811660208301528781166040830152861660608201526080810185905260a0810184905260e060c08201819052600090613f049083018486613da7565b9a9950505050505050505050565b6020808252602e908201527f496e697469616c697a61626c653a20636f6e747261637420697320616c72656160408201526d191e481a5b9a5d1a585b1a5e995960921b606082015260800190565b6020808252602b908201527f496e697469616c697a61626c653a20636f6e7472616374206973206e6f74206960408201526a6e697469616c697a696e6760a81b606082015260800190565b6000600019821415613fbf57613fbf613d62565b5060010190565b600080600060608486031215613fdb57600080fd5b8351613fe6816139ec565b602085015160408601519194509250613ffe816139fc565b809150509250925092565b6000825161401b818460208701613bdb565b919091019291505056fea2646970667358221220610ea8448fdcb35a1a77673c36b1d3f99eae806760411172a0a802df7000f21564736f6c63430008090033496e697469616c697a61626c653a20636f6e747261637420697320616c726561",
  "devdoc": {
    "kind": "dev",
    "methods": {
      "crossChainFlashRepayCallback(uint256,uint256)": {
        "details": "Receives msAsset from L1 and use it to repay",
        "params": {
          "id_": "The id of the request",
          "swapAmountOut_": "The msAsset amount received from L1 swap"
        },
        "returns": {
          "_repaid": "The debt amount repaid"
        }
      },
      "crossChainLeverageCallback(uint256,uint256)": {
        "details": "Receives bridged token (aka naked token) use it to deposit",
        "params": {
          "id_": "The id of the request",
          "swapAmountOut_": "The amount received from swap"
        },
        "returns": {
          "_deposited": "The amount deposited"
        }
      },
      "flashRepay(address,address,uint256,uint256)": {
        "params": {
          "depositToken_": "The collateral to withdraw",
          "repayAmountMin_": "The minimum amount to repay (slippage check)",
          "syntheticToken_": "The debt token to repay",
          "withdrawAmount_": "The amount to withdraw"
        }
      },
      "governor()": {
        "returns": {
          "_governor": "The governor"
        }
      },
      "leverage(address,address,address,uint256,uint256,uint256)": {
        "params": {
          "amountIn_": "The amount to deposit",
          "depositAmountMin_": "The min final deposit amount (slippage)",
          "depositToken_": "The collateral to deposit",
          "leverage_": "The leverage X param (e.g. 1.5e18 for 1.5X)",
          "syntheticToken_": "The msAsset to mint",
          "tokenIn_": "The token to transfer"
        }
      },
      "retryCrossChainFlashRepayCallback(uint256,uint256,uint16,bytes,uint64,uint256,bytes)": {
        "details": "This function is used to recover from callback failures due to slippage",
        "params": {
          "amount_": "The amount of failed tx",
          "id_": "The id of the request",
          "newRepayAmountMin_": "Updated slippage check param",
          "nonce_": "The nonce of failed tx",
          "payload_": "The payload of failed tx",
          "srcAddress_": "The source path of failed tx",
          "srcChainId_": "The source chain of failed tx"
        }
      },
      "retryCrossChainLeverageCallback(uint256,uint256,uint16,bytes,uint256)": {
        "details": "This function is used to recover from callback failures due to slippage",
        "params": {
          "id_": "The id of the request",
          "newDepositAmountMin_": "Updated slippage check param",
          "nonce_": "The nonce of failed tx",
          "srcAddress_": "The source path of failed tx",
          "srcChainId_": "The source chain of failed tx"
        }
      }
    },
    "title": "SmartFarmingManager contract",
    "version": 1
  },
  "userdoc": {
    "events": {
      "CrossChainFlashRepayFinished(uint256)": {
        "notice": "Emitted when a cross-chain flash repay request is finalized"
      },
      "CrossChainFlashRepayStarted(uint256)": {
        "notice": "Emitted when a cross-chain flash repay request is created"
      },
      "CrossChainLeverageFinished(uint256)": {
        "notice": "Emitted when a cross-chain leverage request is finalized"
      },
      "CrossChainLeverageStarted(uint256)": {
        "notice": "Emitted when a cross-chain leverage request is created"
      },
      "FlashRepaid(address,address,uint256,uint256)": {
        "notice": "Emitted when debt is flash repaid"
      },
      "Leveraged(address,address,address,uint256,uint256,uint256,uint256)": {
        "notice": "Emitted when deposit is leveraged"
      }
    },
    "kind": "user",
    "methods": {
      "crossChainDispatcher()": {
        "notice": "Get the Cross-chain dispatcher contract"
      },
      "crossChainFlashRepayCallback(uint256,uint256)": {
        "notice": "Finalize cross-chain flash debt repayment process"
      },
      "crossChainFlashRepays(uint256)": {
        "notice": "Cross-chain flash repay requests"
      },
      "crossChainLeverageCallback(uint256,uint256)": {
        "notice": "Finalize cross-chain leverage process"
      },
      "crossChainLeverages(uint256)": {
        "notice": "Cross-chain leverage requests"
      },
      "crossChainRequestsLength()": {
        "notice": "Cross-chain requests counter"
      },
      "flashRepay(address,address,uint256,uint256)": {
        "notice": "Flash debt repayment"
      },
      "governor()": {
        "notice": "Get the governor"
      },
      "leverage(address,address,address,uint256,uint256,uint256)": {
        "notice": "Leverage yield position"
      },
      "pool()": {
        "notice": "Pool contract"
      },
      "retryCrossChainFlashRepayCallback(uint256,uint256,uint16,bytes,uint64,uint256,bytes)": {
        "notice": "Retry cross-chain flash repay callback"
      },
      "retryCrossChainLeverageCallback(uint256,uint256,uint16,bytes,uint256)": {
        "notice": "Retry cross-chain leverage callback"
      },
      "swapper()": {
        "notice": "Get the swapper contract"
      }
    },
    "version": 1
  },
  "storageLayout": {
    "storage": [
      {
        "astId": 19514,
        "contract": "contracts/SmartFarmingManager.sol:SmartFarmingManager",
        "label": "_initialized",
        "offset": 0,
        "slot": "0",
        "type": "t_uint8"
      },
      {
        "astId": 19517,
        "contract": "contracts/SmartFarmingManager.sol:SmartFarmingManager",
        "label": "_initializing",
        "offset": 1,
        "slot": "0",
        "type": "t_bool"
      },
      {
        "astId": 33193,
        "contract": "contracts/SmartFarmingManager.sol:SmartFarmingManager",
        "label": "_status",
        "offset": 0,
        "slot": "1",
        "type": "t_uint256"
      },
      {
        "astId": 14015,
        "contract": "contracts/SmartFarmingManager.sol:SmartFarmingManager",
        "label": "pool",
        "offset": 0,
        "slot": "2",
        "type": "t_contract(IPool)27664"
      },
      {
        "astId": 14117,
        "contract": "contracts/SmartFarmingManager.sol:SmartFarmingManager",
        "label": "__gap",
        "offset": 0,
        "slot": "3",
        "type": "t_array(t_uint256)49_storage"
      },
      {
        "astId": 31045,
        "contract": "contracts/SmartFarmingManager.sol:SmartFarmingManager",
        "label": "crossChainRequestsLength",
        "offset": 0,
        "slot": "52",
        "type": "t_uint256"
      },
      {
        "astId": 31051,
        "contract": "contracts/SmartFarmingManager.sol:SmartFarmingManager",
        "label": "crossChainLeverages",
        "offset": 0,
        "slot": "53",
        "type": "t_mapping(t_uint256,t_struct(CrossChainLeverage)31030_storage)"
      },
      {
        "astId": 31057,
        "contract": "contracts/SmartFarmingManager.sol:SmartFarmingManager",
        "label": "crossChainFlashRepays",
        "offset": 0,
        "slot": "54",
        "type": "t_mapping(t_uint256,t_struct(CrossChainFlashRepay)31042_storage)"
      }
    ],
    "types": {
      "t_address": {
        "encoding": "inplace",
        "label": "address",
        "numberOfBytes": "20"
      },
      "t_array(t_uint256)49_storage": {
        "base": "t_uint256",
        "encoding": "inplace",
        "label": "uint256[49]",
        "numberOfBytes": "1568"
      },
      "t_bool": {
        "encoding": "inplace",
        "label": "bool",
        "numberOfBytes": "1"
      },
      "t_contract(IDepositToken)27255": {
        "encoding": "inplace",
        "label": "contract IDepositToken",
        "numberOfBytes": "20"
      },
      "t_contract(IERC20)21685": {
        "encoding": "inplace",
        "label": "contract IERC20",
        "numberOfBytes": "20"
      },
      "t_contract(IPool)27664": {
        "encoding": "inplace",
        "label": "contract IPool",
        "numberOfBytes": "20"
      },
      "t_contract(ISyntheticToken)28137": {
        "encoding": "inplace",
        "label": "contract ISyntheticToken",
        "numberOfBytes": "20"
      },
      "t_mapping(t_uint256,t_struct(CrossChainFlashRepay)31042_storage)": {
        "encoding": "mapping",
        "key": "t_uint256",
        "label": "mapping(uint256 => struct SmartFarmingManagerStorageV1.CrossChainFlashRepay)",
        "numberOfBytes": "32",
        "value": "t_struct(CrossChainFlashRepay)31042_storage"
      },
      "t_mapping(t_uint256,t_struct(CrossChainLeverage)31030_storage)": {
        "encoding": "mapping",
        "key": "t_uint256",
        "label": "mapping(uint256 => struct SmartFarmingManagerStorageV1.CrossChainLeverage)",
        "numberOfBytes": "32",
        "value": "t_struct(CrossChainLeverage)31030_storage"
      },
      "t_struct(CrossChainFlashRepay)31042_storage": {
        "encoding": "inplace",
        "label": "struct SmartFarmingManagerStorageV1.CrossChainFlashRepay",
        "members": [
          {
            "astId": 31032,
            "contract": "contracts/SmartFarmingManager.sol:SmartFarmingManager",
            "label": "dstChainId",
            "offset": 0,
            "slot": "0",
            "type": "t_uint16"
          },
          {
            "astId": 31035,
            "contract": "contracts/SmartFarmingManager.sol:SmartFarmingManager",
            "label": "syntheticToken",
            "offset": 2,
            "slot": "0",
            "type": "t_contract(ISyntheticToken)28137"
          },
          {
            "astId": 31037,
            "contract": "contracts/SmartFarmingManager.sol:SmartFarmingManager",
            "label": "repayAmountMin",
            "offset": 0,
            "slot": "1",
            "type": "t_uint256"
          },
          {
            "astId": 31039,
            "contract": "contracts/SmartFarmingManager.sol:SmartFarmingManager",
            "label": "account",
            "offset": 0,
            "slot": "2",
            "type": "t_address"
          },
          {
            "astId": 31041,
            "contract": "contracts/SmartFarmingManager.sol:SmartFarmingManager",
            "label": "finished",
            "offset": 20,
            "slot": "2",
            "type": "t_bool"
          }
        ],
        "numberOfBytes": "96"
      },
      "t_struct(CrossChainLeverage)31030_storage": {
        "encoding": "inplace",
        "label": "struct SmartFarmingManagerStorageV1.CrossChainLeverage",
        "members": [
          {
            "astId": 31010,
            "contract": "contracts/SmartFarmingManager.sol:SmartFarmingManager",
            "label": "dstChainId",
            "offset": 0,
            "slot": "0",
            "type": "t_uint16"
          },
          {
            "astId": 31013,
            "contract": "contracts/SmartFarmingManager.sol:SmartFarmingManager",
            "label": "bridgeToken",
            "offset": 2,
            "slot": "0",
            "type": "t_contract(IERC20)21685"
          },
          {
            "astId": 31016,
            "contract": "contracts/SmartFarmingManager.sol:SmartFarmingManager",
            "label": "depositToken",
            "offset": 0,
            "slot": "1",
            "type": "t_contract(IDepositToken)27255"
          },
          {
            "astId": 31019,
            "contract": "contracts/SmartFarmingManager.sol:SmartFarmingManager",
            "label": "syntheticToken",
            "offset": 0,
            "slot": "2",
            "type": "t_contract(ISyntheticToken)28137"
          },
          {
            "astId": 31021,
            "contract": "contracts/SmartFarmingManager.sol:SmartFarmingManager",
            "label": "bridgeTokenAmountIn",
            "offset": 0,
            "slot": "3",
            "type": "t_uint256"
          },
          {
            "astId": 31023,
            "contract": "contracts/SmartFarmingManager.sol:SmartFarmingManager",
            "label": "debtAmount",
            "offset": 0,
            "slot": "4",
            "type": "t_uint256"
          },
          {
            "astId": 31025,
            "contract": "contracts/SmartFarmingManager.sol:SmartFarmingManager",
            "label": "depositAmountMin",
            "offset": 0,
            "slot": "5",
            "type": "t_uint256"
          },
          {
            "astId": 31027,
            "contract": "contracts/SmartFarmingManager.sol:SmartFarmingManager",
            "label": "account",
            "offset": 0,
            "slot": "6",
            "type": "t_address"
          },
          {
            "astId": 31029,
            "contract": "contracts/SmartFarmingManager.sol:SmartFarmingManager",
            "label": "finished",
            "offset": 20,
            "slot": "6",
            "type": "t_bool"
          }
        ],
        "numberOfBytes": "224"
      },
      "t_uint16": {
        "encoding": "inplace",
        "label": "uint16",
        "numberOfBytes": "2"
      },
      "t_uint256": {
        "encoding": "inplace",
        "label": "uint256",
        "numberOfBytes": "32"
      },
      "t_uint8": {
        "encoding": "inplace",
        "label": "uint8",
        "numberOfBytes": "1"
      }
    }
  }
}