{
  "address": "0x4F2aCD70a590736BB6185A7AAb503971e61BD83e",
  "abi": [
    {
      "inputs": [],
      "stateMutability": "nonpayable",
      "type": "constructor"
    },
    {
      "inputs": [],
      "name": "AmountIsTooHigh",
      "type": "error"
    },
    {
      "inputs": [],
      "name": "AmountIsZero",
      "type": "error"
    },
    {
      "inputs": [],
      "name": "CrossChainRequestCompletedAlready",
      "type": "error"
    },
    {
      "inputs": [],
      "name": "CrossChainRequestInvalidKey",
      "type": "error"
    },
    {
      "inputs": [],
      "name": "DepositTokenDoesNotExist",
      "type": "error"
    },
    {
      "inputs": [],
      "name": "FlashRepaySlippageTooHigh",
      "type": "error"
    },
    {
      "inputs": [],
      "name": "IsShutdown",
      "type": "error"
    },
    {
      "inputs": [],
      "name": "LeverageSlippageTooHigh",
      "type": "error"
    },
    {
      "inputs": [],
      "name": "LeverageTooHigh",
      "type": "error"
    },
    {
      "inputs": [],
      "name": "LeverageTooLow",
      "type": "error"
    },
    {
      "inputs": [],
      "name": "PoolAddressIsNull",
      "type": "error"
    },
    {
      "inputs": [],
      "name": "PoolIsNull",
      "type": "error"
    },
    {
      "inputs": [],
      "name": "PositionIsNotHealthy",
      "type": "error"
    },
    {
      "inputs": [],
      "name": "SenderIsNotAccount",
      "type": "error"
    },
    {
      "inputs": [],
      "name": "SenderIsNotCrossChainDispatcher",
      "type": "error"
    },
    {
      "inputs": [],
      "name": "SyntheticDoesNotExist",
      "type": "error"
    },
    {
      "inputs": [],
      "name": "TokenInIsNull",
      "type": "error"
    },
    {
      "anonymous": false,
      "inputs": [
        {
          "indexed": true,
          "internalType": "uint256",
          "name": "id",
          "type": "uint256"
        }
      ],
      "name": "CrossChainFlashRepayFinished",
      "type": "event"
    },
    {
      "anonymous": false,
      "inputs": [
        {
          "indexed": true,
          "internalType": "uint256",
          "name": "id",
          "type": "uint256"
        }
      ],
      "name": "CrossChainFlashRepayStarted",
      "type": "event"
    },
    {
      "anonymous": false,
      "inputs": [
        {
          "indexed": true,
          "internalType": "uint256",
          "name": "id",
          "type": "uint256"
        }
      ],
      "name": "CrossChainLeverageFinished",
      "type": "event"
    },
    {
      "anonymous": false,
      "inputs": [
        {
          "indexed": true,
          "internalType": "uint256",
          "name": "id",
          "type": "uint256"
        }
      ],
      "name": "CrossChainLeverageStarted",
      "type": "event"
    },
    {
      "anonymous": false,
      "inputs": [
        {
          "indexed": true,
          "internalType": "contract ISyntheticToken",
          "name": "syntheticToken",
          "type": "address"
        },
        {
          "indexed": true,
          "internalType": "contract IDepositToken",
          "name": "depositToken",
          "type": "address"
        },
        {
          "indexed": false,
          "internalType": "uint256",
          "name": "withdrawn",
          "type": "uint256"
        },
        {
          "indexed": false,
          "internalType": "uint256",
          "name": "repaid",
          "type": "uint256"
        }
      ],
      "name": "FlashRepaid",
      "type": "event"
    },
    {
      "anonymous": false,
      "inputs": [
        {
          "indexed": false,
          "internalType": "uint8",
          "name": "version",
          "type": "uint8"
        }
      ],
      "name": "Initialized",
      "type": "event"
    },
    {
      "anonymous": false,
      "inputs": [
        {
          "indexed": true,
          "internalType": "contract IERC20",
          "name": "tokenIn",
          "type": "address"
        },
        {
          "indexed": true,
          "internalType": "contract IDepositToken",
          "name": "depositToken",
          "type": "address"
        },
        {
          "indexed": true,
          "internalType": "contract ISyntheticToken",
          "name": "syntheticToken",
          "type": "address"
        },
        {
          "indexed": false,
          "internalType": "uint256",
          "name": "leverage",
          "type": "uint256"
        },
        {
          "indexed": false,
          "internalType": "uint256",
          "name": "amountIn",
          "type": "uint256"
        },
        {
          "indexed": false,
          "internalType": "uint256",
          "name": "issued",
          "type": "uint256"
        },
        {
          "indexed": false,
          "internalType": "uint256",
          "name": "deposited",
          "type": "uint256"
        }
      ],
      "name": "Leveraged",
      "type": "event"
    },
    {
      "inputs": [],
      "name": "VERSION",
      "outputs": [
        {
          "internalType": "string",
          "name": "",
          "type": "string"
        }
      ],
      "stateMutability": "view",
      "type": "function"
    },
    {
      "inputs": [],
      "name": "crossChainDispatcher",
      "outputs": [
        {
          "internalType": "contract ICrossChainDispatcher",
          "name": "_crossChainDispatcher",
          "type": "address"
        }
      ],
      "stateMutability": "view",
      "type": "function"
    },
    {
      "inputs": [
        {
          "internalType": "contract ISyntheticToken",
          "name": "syntheticToken_",
          "type": "address"
        },
        {
          "internalType": "contract IDepositToken",
          "name": "depositToken_",
          "type": "address"
        },
        {
          "internalType": "uint256",
          "name": "withdrawAmount_",
          "type": "uint256"
        },
        {
          "internalType": "contract IERC20",
          "name": "bridgeToken_",
          "type": "address"
        },
        {
          "internalType": "uint256",
          "name": "bridgeTokenAmountMin_",
          "type": "uint256"
        },
        {
          "internalType": "uint256",
          "name": "swapAmountOutMin_",
          "type": "uint256"
        },
        {
          "internalType": "uint256",
          "name": "repayAmountMin_",
          "type": "uint256"
        },
        {
          "internalType": "bytes",
          "name": "lzArgs_",
          "type": "bytes"
        }
      ],
      "name": "crossChainFlashRepay",
      "outputs": [],
      "stateMutability": "payable",
      "type": "function"
    },
    {
      "inputs": [
        {
          "internalType": "uint256",
          "name": "id_",
          "type": "uint256"
        },
        {
          "internalType": "uint256",
          "name": "swapAmountOut_",
          "type": "uint256"
        }
      ],
      "name": "crossChainFlashRepayCallback",
      "outputs": [
        {
          "internalType": "uint256",
          "name": "_repaid",
          "type": "uint256"
        }
      ],
      "stateMutability": "nonpayable",
      "type": "function"
    },
    {
      "inputs": [
        {
          "internalType": "uint256",
          "name": "",
          "type": "uint256"
        }
      ],
      "name": "crossChainFlashRepays",
      "outputs": [
        {
          "internalType": "uint16",
          "name": "dstChainId",
          "type": "uint16"
        },
        {
          "internalType": "contract ISyntheticToken",
          "name": "syntheticToken",
          "type": "address"
        },
        {
          "internalType": "uint256",
          "name": "repayAmountMin",
          "type": "uint256"
        },
        {
          "internalType": "address",
          "name": "account",
          "type": "address"
        },
        {
          "internalType": "bool",
          "name": "finished",
          "type": "bool"
        }
      ],
      "stateMutability": "view",
      "type": "function"
    },
    {
      "inputs": [
        {
          "internalType": "contract IERC20",
          "name": "tokenIn_",
          "type": "address"
        },
        {
          "internalType": "contract IDepositToken",
          "name": "depositToken_",
          "type": "address"
        },
        {
          "internalType": "contract ISyntheticToken",
          "name": "syntheticToken_",
          "type": "address"
        },
        {
          "internalType": "uint256",
          "name": "amountIn_",
          "type": "uint256"
        },
        {
          "internalType": "uint256",
          "name": "leverage_",
          "type": "uint256"
        },
        {
          "internalType": "uint256",
          "name": "swapAmountOutMin_",
          "type": "uint256"
        },
        {
          "internalType": "uint256",
          "name": "depositAmountMin_",
          "type": "uint256"
        },
        {
          "internalType": "bytes",
          "name": "lzArgs_",
          "type": "bytes"
        }
      ],
      "name": "crossChainLeverage",
      "outputs": [],
      "stateMutability": "payable",
      "type": "function"
    },
    {
      "inputs": [
        {
          "internalType": "uint256",
          "name": "id_",
          "type": "uint256"
        },
        {
          "internalType": "uint256",
          "name": "swapAmountOut_",
          "type": "uint256"
        }
      ],
      "name": "crossChainLeverageCallback",
      "outputs": [
        {
          "internalType": "uint256",
          "name": "_deposited",
          "type": "uint256"
        }
      ],
      "stateMutability": "nonpayable",
      "type": "function"
    },
    {
      "inputs": [
        {
          "internalType": "uint256",
          "name": "",
          "type": "uint256"
        }
      ],
      "name": "crossChainLeverages",
      "outputs": [
        {
          "internalType": "uint16",
          "name": "dstChainId",
          "type": "uint16"
        },
        {
          "internalType": "contract IERC20",
          "name": "bridgeToken",
          "type": "address"
        },
        {
          "internalType": "contract IDepositToken",
          "name": "depositToken",
          "type": "address"
        },
        {
          "internalType": "contract ISyntheticToken",
          "name": "syntheticToken",
          "type": "address"
        },
        {
          "internalType": "uint256",
          "name": "bridgeTokenAmountIn",
          "type": "uint256"
        },
        {
          "internalType": "uint256",
          "name": "debtAmount",
          "type": "uint256"
        },
        {
          "internalType": "uint256",
          "name": "depositAmountMin",
          "type": "uint256"
        },
        {
          "internalType": "address",
          "name": "account",
          "type": "address"
        },
        {
          "internalType": "bool",
          "name": "finished",
          "type": "bool"
        }
      ],
      "stateMutability": "view",
      "type": "function"
    },
    {
      "inputs": [],
      "name": "crossChainRequestsLength",
      "outputs": [
        {
          "internalType": "uint256",
          "name": "",
          "type": "uint256"
        }
      ],
      "stateMutability": "view",
      "type": "function"
    },
    {
      "inputs": [
        {
          "internalType": "contract ISyntheticToken",
          "name": "syntheticToken_",
          "type": "address"
        },
        {
          "internalType": "contract IDepositToken",
          "name": "depositToken_",
          "type": "address"
        },
        {
          "internalType": "uint256",
          "name": "withdrawAmount_",
          "type": "uint256"
        },
        {
          "internalType": "uint256",
          "name": "repayAmountMin_",
          "type": "uint256"
        }
      ],
      "name": "flashRepay",
      "outputs": [
        {
          "internalType": "uint256",
          "name": "_withdrawn",
          "type": "uint256"
        },
        {
          "internalType": "uint256",
          "name": "_repaid",
          "type": "uint256"
        }
      ],
      "stateMutability": "nonpayable",
      "type": "function"
    },
    {
      "inputs": [],
      "name": "governor",
      "outputs": [
        {
          "internalType": "address",
          "name": "_governor",
          "type": "address"
        }
      ],
      "stateMutability": "view",
      "type": "function"
    },
    {
      "inputs": [
        {
          "internalType": "contract IPool",
          "name": "pool_",
          "type": "address"
        }
      ],
      "name": "initialize",
      "outputs": [],
      "stateMutability": "nonpayable",
      "type": "function"
    },
    {
      "inputs": [
        {
          "internalType": "contract IERC20",
          "name": "tokenIn_",
          "type": "address"
        },
        {
          "internalType": "contract IDepositToken",
          "name": "depositToken_",
          "type": "address"
        },
        {
          "internalType": "contract ISyntheticToken",
          "name": "syntheticToken_",
          "type": "address"
        },
        {
          "internalType": "uint256",
          "name": "amountIn_",
          "type": "uint256"
        },
        {
          "internalType": "uint256",
          "name": "leverage_",
          "type": "uint256"
        },
        {
          "internalType": "uint256",
          "name": "depositAmountMin_",
          "type": "uint256"
        }
      ],
      "name": "leverage",
      "outputs": [
        {
          "internalType": "uint256",
          "name": "_deposited",
          "type": "uint256"
        },
        {
          "internalType": "uint256",
          "name": "_issued",
          "type": "uint256"
        }
      ],
      "stateMutability": "nonpayable",
      "type": "function"
    },
    {
      "inputs": [],
      "name": "pool",
      "outputs": [
        {
          "internalType": "contract IPool",
          "name": "",
          "type": "address"
        }
      ],
      "stateMutability": "view",
      "type": "function"
    },
    {
      "inputs": [
        {
          "internalType": "uint16",
          "name": "srcChainId_",
          "type": "uint16"
        },
        {
          "internalType": "bytes",
          "name": "srcAddress_",
          "type": "bytes"
        },
        {
          "internalType": "uint64",
          "name": "nonce_",
          "type": "uint64"
        },
        {
          "internalType": "uint256",
          "name": "amount_",
          "type": "uint256"
        },
        {
          "internalType": "bytes",
          "name": "payload_",
          "type": "bytes"
        },
        {
          "internalType": "uint256",
          "name": "newRepayAmountMin_",
          "type": "uint256"
        }
      ],
      "name": "retryCrossChainFlashRepayCallback",
      "outputs": [],
      "stateMutability": "nonpayable",
      "type": "function"
    },
    {
      "inputs": [
        {
          "internalType": "uint16",
          "name": "srcChainId_",
          "type": "uint16"
        },
        {
          "internalType": "bytes",
          "name": "srcAddress_",
          "type": "bytes"
        },
        {
          "internalType": "uint64",
          "name": "nonce_",
          "type": "uint64"
        },
        {
          "internalType": "address",
          "name": "token_",
          "type": "address"
        },
        {
          "internalType": "uint256",
          "name": "amount_",
          "type": "uint256"
        },
        {
          "internalType": "bytes",
          "name": "payload_",
          "type": "bytes"
        },
        {
          "internalType": "uint256",
          "name": "newDepositAmountMin_",
          "type": "uint256"
        }
      ],
      "name": "retryCrossChainLeverageCallback",
      "outputs": [],
      "stateMutability": "nonpayable",
      "type": "function"
    },
    {
      "inputs": [],
      "name": "swapper",
      "outputs": [
        {
          "internalType": "contract ISwapper",
          "name": "_swapper",
          "type": "address"
        }
      ],
      "stateMutability": "view",
      "type": "function"
    }
  ],
  "transactionHash": "0xd73fe1474abe2858b3e09ca1f5f5731bfda7b2d834a2e9d40a54e75420ec97ea",
  "args": [],
  "numDeployments": 2,
  "solcInputHash": "5b8ff7c4ef385ed284d7d4ad5ad9b0e8",
  "bytecode": "0x60806040523480156200001157600080fd5b506200001c62000022565b62000152565b6200002e60ff62000031565b50565b60008054610100900460ff1615620000ca578160ff1660011480156200006a575062000068306200014360201b620029f01760201c565b155b620000c25760405162461bcd60e51b815260206004820152602e60248201526000805160206200458983398151915260448201526d191e481a5b9a5d1a585b1a5e995960921b60648201526084015b60405180910390fd5b506000919050565b60005460ff808416911610620001295760405162461bcd60e51b815260206004820152602e60248201526000805160206200458983398151915260448201526d191e481a5b9a5d1a585b1a5e995960921b6064820152608401620000b9565b506000805460ff191660ff92909216919091179055600190565b6001600160a01b03163b151590565b61442780620001626000396000f3fe6080604052600436106100fe5760003560e01c8063583bfe761161009557806399e5e6551161006457806399e5e6551461034e5780639b6623d8146103e9578063c3557691146103ff578063c4d66de814610412578063ffa1ad741461043257600080fd5b8063583bfe76146102095780636455bf6f146102295780638056777414610257578063823185611461027757600080fd5b8063364fda00116100d1578063364fda001461017f57806339c9a98e146101b45780633bb1f3d0146101c95780634d7e9a76146101e957600080fd5b80630c340a241461010357806316f0115b146101355780632b3297f91461015557806332c615b41461016a575b600080fd5b34801561010f57600080fd5b50610118610470565b6040516001600160a01b0390911681526020015b60405180910390f35b34801561014157600080fd5b50600254610118906001600160a01b031681565b34801561016157600080fd5b506101186104f2565b34801561017657600080fd5b506101186105a7565b34801561018b57600080fd5b5061019f61019a3660046139d6565b61065c565b6040805192835260208301919091520161012c565b6101c76101c2366004613a65565b610c8a565b005b3480156101d557600080fd5b506101c76101e4366004613b30565b611052565b3480156101f557600080fd5b5061019f610204366004613bd8565b61133f565b34801561021557600080fd5b506101c7610224366004613c3d565b6119d3565b34801561023557600080fd5b50610249610244366004613cfa565b611d37565b60405190815260200161012c565b34801561026357600080fd5b50610249610272366004613cfa565b612071565b34801561028357600080fd5b506102f4610292366004613d1c565b603560205260009081526040902080546001820154600283015460038401546004850154600586015460069096015461ffff861696620100009096046001600160a01b039081169695811695948116949190811690600160a01b900460ff1689565b6040805161ffff909a168a526001600160a01b0398891660208b0152968816968901969096529386166060880152608087019290925260a086015260c08501529190911660e083015215156101008201526101200161012c565b34801561035a57600080fd5b506103af610369366004613d1c565b60366020526000908152604090208054600182015460029092015461ffff821692620100009092046001600160a01b03908116929190811690600160a01b900460ff1685565b6040805161ffff90961686526001600160a01b0394851660208701528501929092529190911660608301521515608082015260a00161012c565b3480156103f557600080fd5b5061024960345481565b6101c761040d366004613d35565b612592565b34801561041e57600080fd5b506101c761042d366004613db7565b61294a565b34801561043e57600080fd5b50610463604051806040016040528060058152602001640312e332e360dc1b81525081565b60405161012c9190613e2c565b6002546040805163030d028960e21b815290516000926001600160a01b031691630c340a24916004808301926020929190829003018186803b1580156104b557600080fd5b505afa1580156104c9573d6000803e3d6000fd5b505050506040513d601f19601f820116820180604052508101906104ed9190613e3f565b905090565b6002546040805163afcff50f60e01b815290516000926001600160a01b03169163afcff50f916004808301926020929190829003018186803b15801561053757600080fd5b505afa15801561054b573d6000803e3d6000fd5b505050506040513d601f19601f8201168201806040525081019061056f9190613e3f565b6001600160a01b0316632b3297f96040518163ffffffff1660e01b815260040160206040518083038186803b1580156104b557600080fd5b6002546040805163afcff50f60e01b815290516000926001600160a01b03169163afcff50f916004808301926020929190829003018186803b1580156105ec57600080fd5b505afa158015610600573d6000803e3d6000fd5b505050506040513d601f19601f820116820180604052508101906106249190613e3f565b6001600160a01b03166332c615b46040518163ffffffff1660e01b815260040160206040518083038186803b1580156104b557600080fd5b600080600260009054906101000a90046001600160a01b03166001600160a01b031663ecf3a3f96040518163ffffffff1660e01b815260040160206040518083038186803b1580156106ad57600080fd5b505afa1580156106c1573d6000803e3d6000fd5b505050506040513d601f19601f820116820180604052508101906106e59190613e6c565b1561070357604051631b0e923f60e11b815260040160405180910390fd5b6002600154141561072f5760405162461bcd60e51b815260040161072690613e87565b60405180910390fd5b6002600181905554604051633e25dee160e21b81526001600160a01b0380881660048301528792169063f8977b849060240160206040518083038186803b15801561077957600080fd5b505afa15801561078d573d6000803e3d6000fd5b505050506040513d601f19601f820116820180604052508101906107b19190613e6c565b6107ce5760405163a67d528360e01b815260040160405180910390fd5b600254604051631a0dd00b60e01b81526001600160a01b03808a16600483015289921690631a0dd00b9060240160206040518083038186803b15801561081357600080fd5b505afa158015610827573d6000803e3d6000fd5b505050506040513d601f19601f8201168201806040525081019061084b9190613e6c565b6108685760405163a596698b60e01b815260040160405180910390fd5b85610886576040516310eb483f60e21b815260040160405180910390fd5b6040516370a0823160e01b81523360048201526001600160a01b038816906370a082319060240160206040518083038186803b1580156108c557600080fd5b505afa1580156108d9573d6000803e3d6000fd5b505050506040513d601f19601f820116820180604052508101906108fd9190613ebe565b86111561091d57604051635de1e54160e01b815260040160405180910390fd5b6002546040516313f1e1f560e31b81526001600160a01b038a81166004830152909116906000908290639f8f0fa89060240160206040518083038186803b15801561096757600080fd5b505afa15801561097b573d6000803e3d6000fd5b505050506040513d601f19601f8201168201806040525081019061099f9190613e3f565b6040516370a0823160e01b81523360048201529091506001600160a01b038216906370a082319060240160206040518083038186803b1580156109e157600080fd5b505afa1580156109f5573d6000803e3d6000fd5b505050506040513d601f19601f82011682018060405250810190610a199190613ebe565b871115610a3957604051635de1e54160e01b815260040160405180910390fd5b6040516336e1668760e11b81526001600160a01b038a1690636dc2cd0e90610a679033908c90600401613ed7565b6040805180830381600087803b158015610a8057600080fd5b505af1158015610a94573d6000803e3d6000fd5b505050506040513d601f19601f82011682018060405250810190610ab89190613ef0565b5095506000610ada610ac86104f2565b610ad18c6129ff565b8d8a6000612a78565b604051630450cfaf60e31b81529091506001600160a01b038316906322867d7890610b0b9033908590600401613ed7565b6040805180830381600087803b158015610b2457600080fd5b505af1158015610b38573d6000803e3d6000fd5b505050506040513d601f19601f82011682018060405250810190610b5c9190613ef0565b50955087861015610b8057604051634394bddf60e11b815260040160405180910390fd5b60405163dde3ab9560e01b81523360048201526000906001600160a01b0385169063dde3ab959060240160a06040518083038186803b158015610bc257600080fd5b505afa158015610bd6573d6000803e3d6000fd5b505050506040513d601f19601f82011682018060405250810190610bfa9190613f14565b50505050905080610c1e5760405163cfd3600360e01b815260040160405180910390fd5b8a6001600160a01b03168c6001600160a01b03167f70e2337c0939e469d0c3d069c581bc0b72c541a70c592cdd46087d24e5e980d28a8a604051610c6c929190918252602082015260400190565b60405180910390a35050505050506001808190555094509492505050565b60026001541415610cad5760405162461bcd60e51b815260040161072690613e87565b6002600181905554604051633e25dee160e21b81526001600160a01b03808b1660048301528a92169063f8977b849060240160206040518083038186803b158015610cf757600080fd5b505afa158015610d0b573d6000803e3d6000fd5b505050506040513d601f19601f82011682018060405250810190610d2f9190613e6c565b610d4c5760405163a67d528360e01b815260040160405180910390fd5b600254604051631a0dd00b60e01b81526001600160a01b03808b1660048301528a921690631a0dd00b9060240160206040518083038186803b158015610d9157600080fd5b505afa158015610da5573d6000803e3d6000fd5b505050506040513d601f19601f82011682018060405250810190610dc99190613e6c565b610de65760405163a596698b60e01b815260040160405180910390fd5b8a88610e05576040516310eb483f60e21b815260040160405180910390fd5b670de0b6b3a76400008811610e2d57604051631907e1ff60e21b815260040160405180910390fd5b610ec28b6001600160a01b031663df011c416040518163ffffffff1660e01b815260040160206040518083038186803b158015610e6957600080fd5b505afa158015610e7d573d6000803e3d6000fd5b505050506040513d601f19601f82011682018060405250810190610ea19190613ebe565b610eb390670de0b6b3a7640000613f71565b670de0b6b3a764000090612a92565b881115610ee257604051630a4f5a0760e01b815260040160405180910390fd5b6001600160a01b038116610f0957604051634f70ad6b60e01b815260040160405180910390fd5b600080610f1783338d612acd565b9a50610f25838d8d8d612bec565b6002546040516313f1e1f560e31b81526001600160a01b038f81166004830152929450911690639f8f0fa89060240160206040518083038186803b158015610f6c57600080fd5b505afa158015610f80573d6000803e3d6000fd5b505050506040513d601f19601f82011682018060405250810190610fa49190613e3f565b6001600160a01b031663bfa17656610fba6105a7565b846040518363ffffffff1660e01b8152600401610fd8929190613ed7565b6040805180830381600087803b158015610ff157600080fd5b505af1158015611005573d6000803e3d6000fd5b505050506040513d601f19601f820116820180604052508101906110299190613ef0565b50905061103e8d8c848f87868f8f8f8f612d1a565b505060018055505050505050505050505050565b600061109384848080601f016020809104026020016040519081016040528093929190818152602001838380828437600092019190915250612faf92505050565b600081815260366020908152604091829020825160a081018452815461ffff811682526201000090046001600160a01b03908116938201939093526001820154938101939093526002015490811660608301819052600160a01b90910460ff1615156080830152919450925015159050611120576040516311bf899560e21b815260040160405180910390fd5b80606001516001600160a01b0316336001600160a01b031614611156576040516387ab7e7760e01b815260040160405180910390fd5b80608001511561117957604051630814de4560e11b815260040160405180910390fd5b60008281526036602052604081206001018490556111956105a7565b60405163dfda255f60e01b815261ffff8d1660048201529091506000906001600160a01b0383169063dfda255f9060240160206040518083038186803b1580156111de57600080fd5b505afa1580156111f2573d6000803e3d6000fd5b505050506040513d601f19601f820116820180604052508101906112169190613e3f565b60405160200161123e919060609190911b6bffffffffffffffffffffffff1916815260140190565b604051602081830303815290604052905082602001516001600160a01b0316636d1bb8f76040518163ffffffff1660e01b815260040160206040518083038186803b15801561128c57600080fd5b505afa1580156112a0573d6000803e3d6000fd5b505050506040513d601f19601f820116820180604052508101906112c49190613e3f565b6001600160a01b031663cfd6528e8d8d8d8d86888f8f8f6040518a63ffffffff1660e01b81526004016112ff99989796959493929190613fb1565b600060405180830381600087803b15801561131957600080fd5b505af115801561132d573d6000803e3d6000fd5b50505050505050505050505050505050565b600080600260009054906101000a90046001600160a01b03166001600160a01b031663ecf3a3f96040518163ffffffff1660e01b815260040160206040518083038186803b15801561139057600080fd5b505afa1580156113a4573d6000803e3d6000fd5b505050506040513d601f19601f820116820180604052508101906113c89190613e6c565b156113e657604051631b0e923f60e11b815260040160405180910390fd5b600260015414156114095760405162461bcd60e51b815260040161072690613e87565b6002600181905554604051633e25dee160e21b81526001600160a01b03808a1660048301528992169063f8977b849060240160206040518083038186803b15801561145357600080fd5b505afa158015611467573d6000803e3d6000fd5b505050506040513d601f19601f8201168201806040525081019061148b9190613e6c565b6114a85760405163a67d528360e01b815260040160405180910390fd5b600254604051631a0dd00b60e01b81526001600160a01b03808a16600483015289921690631a0dd00b9060240160206040518083038186803b1580156114ed57600080fd5b505afa158015611501573d6000803e3d6000fd5b505050506040513d601f19601f820116820180604052508101906115259190613e6c565b6115425760405163a596698b60e01b815260040160405180910390fd5b86611560576040516310eb483f60e21b815260040160405180910390fd5b670de0b6b3a7640000861161158857604051631907e1ff60e21b815260040160405180910390fd5b6115c4896001600160a01b031663df011c416040518163ffffffff1660e01b815260040160206040518083038186803b158015610e6957600080fd5b8611156115e457604051630a4f5a0760e01b815260040160405180910390fd5b60006115ee6104f2565b905060006115fb8b6129ff565b90506001600160a01b038c1661160f57809b505b61161a8c338b612acd565b9850806001600160a01b03168c6001600160a01b03161461164657611643828d838c6000612a78565b98505b6000611654828c8c8c612bec565b6002546040516313f1e1f560e31b81526001600160a01b038e8116600483015292935060009290911690639f8f0fa89060240160206040518083038186803b15801561169f57600080fd5b505afa1580156116b3573d6000803e3d6000fd5b505050506040513d601f19601f820116820180604052508101906116d79190613e3f565b604051635fd0bb2b60e11b81529091506001600160a01b0382169063bfa17656906117089030908690600401613ed7565b6040805180830381600087803b15801561172157600080fd5b505af1158015611735573d6000803e3d6000fd5b505050506040513d601f19601f820116820180604052508101906117599190613ef0565b506040516340c10f1960e01b81529097506001600160a01b038216906340c10f199061178b9033908690600401613ed7565b600060405180830381600087803b1580156117a557600080fd5b505af11580156117b9573d6000803e3d6000fd5b50505050505060006117cf838c84896000612a78565b6117d9908b61402c565b9050878110156117fc5760405163c724afdf60e01b815260040160405180910390fd5b6118116001600160a01b0383168d6000612fee565b6118256001600160a01b0383168d83612fee565b604051636e553f6560e01b8152600481018290523360248201526001600160a01b038d1690636e553f65906044016040805180830381600087803b15801561186c57600080fd5b505af1158015611880573d6000803e3d6000fd5b505050506040513d601f19601f820116820180604052508101906118a49190613ef0565b5060025460405163dde3ab9560e01b81523360048201529198506000916001600160a01b039091169063dde3ab959060240160a06040518083038186803b1580156118ee57600080fd5b505afa158015611902573d6000803e3d6000fd5b505050506040513d601f19601f820116820180604052508101906119269190613f14565b5050505090508061194a5760405163cfd3600360e01b815260040160405180910390fd5b8b6001600160a01b03168d6001600160a01b03168f6001600160a01b03167fd82c156e929db20771fc8413cc0789925f6c666a3e5076d5844765ee28bb3a958d8f8c8e6040516119b3949392919093845260208401929092526040830152606082015260800190565b60405180910390a450505050505060018081905550965096945050505050565b6000611a1484848080601f01602080910402602001604051908101604052809392919081815260200183838082843760009201919091525061313d92505050565b600081815260356020908152604091829020825161012081018452815461ffff811682526201000090046001600160a01b0390811693820193909352600182015483169381019390935260028101548216606084015260038101546080840152600481015460a0840152600581015460c08401526006015490811660e08301819052600160a01b90910460ff1615156101008301529193509150611acb576040516311bf899560e21b815260040160405180910390fd5b8060e001516001600160a01b0316336001600160a01b031614611b01576040516387ab7e7760e01b815260040160405180910390fd5b80610100015115611b2557604051630814de4560e11b815260040160405180910390fd5b6000828152603560205260408120600501849055611b416105a7565b60405163dfda255f60e01b815261ffff8e1660048201529091506000906001600160a01b0383169063dfda255f9060240160206040518083038186803b158015611b8a57600080fd5b505afa158015611b9e573d6000803e3d6000fd5b505050506040513d601f19601f82011682018060405250810190611bc29190613e3f565b6040516bffffffffffffffffffffffff19606083901b16602082015290915060009063ab8236f360e01b908f9060340160408051601f1981840301815290829052611c1a92918f908f908f908f908f90602401614044565b604051602081830303815290604052906001600160e01b0319166020820180516001600160e01b0383818316178352505050509050826001600160a01b0316633352b6086040518163ffffffff1660e01b815260040160206040518083038186803b158015611c8857600080fd5b505afa158015611c9c573d6000803e3d6000fd5b505050506040513d601f19601f82011682018060405250810190611cc09190613e3f565b6001600160a01b031663c0e6ac6c8f8f8f8f88876040518763ffffffff1660e01b8152600401611cf5969594939291906140a8565b600060405180830381600087803b158015611d0f57600080fd5b505af1158015611d23573d6000803e3d6000fd5b505050505050505050505050505050505050565b6002546040805163ecf3a3f960e01b815290516000926001600160a01b03169163ecf3a3f9916004808301926020929190829003018186803b158015611d7c57600080fd5b505afa158015611d90573d6000803e3d6000fd5b505050506040513d601f19601f82011682018060405250810190611db49190613e6c565b15611dd257604051631b0e923f60e11b815260040160405180910390fd5b60026001541415611df55760405162461bcd60e51b815260040161072690613e87565b6002600155611e026105a7565b6001600160a01b0316336001600160a01b031614611e3357604051632b78ce1b60e11b815260040160405180910390fd5b600083815260366020908152604091829020825160a081018452815461ffff811682526201000090046001600160a01b03908116938201939093526001820154938101939093526002015490811660608301819052600160a01b90910460ff1615156080830152611eb7576040516311bf899560e21b815260040160405180910390fd5b806080015115611eda57604051630814de4560e11b815260040160405180910390fd5b6000848152603660209081526040909120600201805460ff60a01b1916600160a01b179055810151611f0d903385612acd565b60025460208301516040516313f1e1f560e31b81526001600160a01b0391821660048201529295501690639f8f0fa89060240160206040518083038186803b158015611f5857600080fd5b505afa158015611f6c573d6000803e3d6000fd5b505050506040513d601f19601f82011682018060405250810190611f909190613e3f565b6001600160a01b03166322867d788260600151856040518363ffffffff1660e01b8152600401611fc1929190613ed7565b6040805180830381600087803b158015611fda57600080fd5b505af1158015611fee573d6000803e3d6000fd5b505050506040513d601f19601f820116820180604052508101906120129190613ef0565b50604082015190925082101561203b57604051634394bddf60e11b815260040160405180910390fd5b60405184907f46da7fdc7ceed834de258df19d8f9ebd7082810a4eb45732d1401df31e5aaa1390600090a2506001805592915050565b6002546040805163ecf3a3f960e01b815290516000926001600160a01b03169163ecf3a3f9916004808301926020929190829003018186803b1580156120b657600080fd5b505afa1580156120ca573d6000803e3d6000fd5b505050506040513d601f19601f820116820180604052508101906120ee9190613e6c565b1561210c57604051631b0e923f60e11b815260040160405180910390fd5b6002600154141561212f5760405162461bcd60e51b815260040161072690613e87565b600260015561213c6105a7565b6001600160a01b0316336001600160a01b03161461216d57604051632b78ce1b60e11b815260040160405180910390fd5b600083815260356020908152604091829020825161012081018452815461ffff811682526201000090046001600160a01b0390811693820193909352600182015483169381019390935260028101548216606084015260038101546080840152600481015460a0840152600581015460c08401526006015490811660e08301819052600160a01b90910460ff16151561010083015261221f576040516311bf899560e21b815260040160405180910390fd5b8061010001511561224357604051630814de4560e11b815260040160405180910390fd5b600061225282604001516129ff565b6000868152603560209081526040909120600601805460ff60a01b1916600160a01b179055830151909150612288903386612acd565b9350600084836080015161229c919061402c565b90506000826001600160a01b031684602001516001600160a01b0316146122db576122d66122c86104f2565b856020015185856000612a78565b6122dd565b815b90508360c001518110156123045760405163c724afdf60e01b815260040160405180910390fd5b604084015161231f906001600160a01b038516906000612fee565b6040840151612339906001600160a01b0385169083612fee565b60408085015160e08601519151636e553f6560e01b8152600481018490526001600160a01b039283166024820152911690636e553f65906044016040805180830381600087803b15801561238c57600080fd5b505af11580156123a0573d6000803e3d6000fd5b505050506040513d601f19601f820116820180604052508101906123c49190613ef0565b5060025460608601516040516313f1e1f560e31b81526001600160a01b03918216600482015292975016908190639f8f0fa89060240160206040518083038186803b15801561241257600080fd5b505afa158015612426573d6000803e3d6000fd5b505050506040513d601f19601f8201168201806040525081019061244a9190613e3f565b6001600160a01b03166340c10f198660e001518760a001516040518363ffffffff1660e01b815260040161247f929190613ed7565b600060405180830381600087803b15801561249957600080fd5b505af11580156124ad573d6000803e3d6000fd5b5050505060e085015160405163dde3ab9560e01b81526001600160a01b03918216600482015260009183169063dde3ab959060240160a06040518083038186803b1580156124fa57600080fd5b505afa15801561250e573d6000803e3d6000fd5b505050506040513d601f19601f820116820180604052508101906125329190613f14565b505050509050806125565760405163cfd3600360e01b815260040160405180910390fd5b60405189907f8e4ff8e32fb3b90b184bdac5bf0d9b2a0fe19baa9dfea95c0fcd7d8e3842e80e90600090a2505060018055509295945050505050565b600260015414156125b55760405162461bcd60e51b815260040161072690613e87565b6002600181905554604051633e25dee160e21b81526001600160a01b03808b1660048301528a92169063f8977b849060240160206040518083038186803b1580156125ff57600080fd5b505afa158015612613573d6000803e3d6000fd5b505050506040513d601f19601f820116820180604052508101906126379190613e6c565b6126545760405163a67d528360e01b815260040160405180910390fd5b600254604051631a0dd00b60e01b81526001600160a01b03808d1660048301528c921690631a0dd00b9060240160206040518083038186803b15801561269957600080fd5b505afa1580156126ad573d6000803e3d6000fd5b505050506040513d601f19601f820116820180604052508101906126d19190613e6c565b6126ee5760405163a596698b60e01b815260040160405180910390fd5b8861270c576040516310eb483f60e21b815260040160405180910390fd5b6002546040516313f1e1f560e31b81526001600160a01b038d811660048301526000928392911690639f8f0fa89060240160206040518083038186803b15801561275557600080fd5b505afa158015612769573d6000803e3d6000fd5b505050506040513d601f19601f8201168201806040525081019061278d9190613e3f565b9050806001600160a01b031663a6afed956040518163ffffffff1660e01b8152600401600060405180830381600087803b1580156127ca57600080fd5b505af11580156127de573d6000803e3d6000fd5b50506040516370a0823160e01b81523360048201526001600160a01b03841692506370a08231915060240160206040518083038186803b15801561282157600080fd5b505afa158015612835573d6000803e3d6000fd5b505050506040513d601f19601f820116820180604052508101906128599190613ebe565b87111561287957604051635de1e54160e01b815260040160405180910390fd5b6128816105a7565b91505060008b6001600160a01b0316639470b0bd338d6040518363ffffffff1660e01b81526004016128b4929190613ed7565b6040805180830381600087803b1580156128cd57600080fd5b505af11580156128e1573d6000803e3d6000fd5b505050506040513d601f19601f820116820180604052508101906129059190613ef0565b5090506129256129136104f2565b61291c8e6129ff565b8c848d87613176565b9050612937828b8f848c8c8c8c613392565b5050600180555050505050505050505050565b6000612956600161351b565b9050801561296e576000805461ff0019166101001790555b6001600160a01b03821661299557604051633cb1fb1f60e11b815260040160405180910390fd5b61299d6135a8565b6129a6826135d9565b80156129ec576000805461ff0019169055604051600181527f7f26b83ff96e1f2b6a682f133852f6798a09c465da95921460cefb38474024989060200160405180910390a15b5050565b6001600160a01b03163b151590565b6000816001600160a01b0316636f307dc36040518163ffffffff1660e01b815260040160206040518083038186803b158015612a3a57600080fd5b505afa158015612a4e573d6000803e3d6000fd5b505050506040513d601f19601f82011682018060405250810190612a729190613e3f565b92915050565b6000612a88868686868630613176565b9695505050505050565b600081612aa0600282614104565b612ab2670de0b6b3a764000086614126565b612abc919061402c565b612ac69190614104565b9392505050565b6040516370a0823160e01b815230600482015260009081906001600160a01b038616906370a082319060240160206040518083038186803b158015612b1157600080fd5b505afa158015612b25573d6000803e3d6000fd5b505050506040513d601f19601f82011682018060405250810190612b499190613ebe565b9050612b606001600160a01b038616853086613649565b6040516370a0823160e01b815230600482015281906001600160a01b038716906370a082319060240160206040518083038186803b158015612ba157600080fd5b505afa158015612bb5573d6000803e3d6000fd5b505050506040513d601f19601f82011682018060405250810190612bd99190613ebe565b612be39190613f71565b95945050505050565b60025460408051637556d1c160e11b815290516000926001600160a01b03169163eaada382916004808301926020929190829003018186803b158015612c3157600080fd5b505afa158015612c45573d6000803e3d6000fd5b505050506040513d601f19601f82011682018060405250810190612c699190613e3f565b6001600160a01b031663b64663848686612c9587612c8f670de0b6b3a764000089613f71565b90613687565b6040516001600160e01b031960e086901b1681526001600160a01b039384166004820152929091166024830152604482015260640160206040518083038186803b158015612ce257600080fd5b505afa158015612cf6573d6000803e3d6000fd5b505050506040513d601f19601f82011682018060405250810190612be39190613ebe565b6000612d246136bf565b90506000612d6784848080601f01602080910402602001604051908101604052809392919081815260200183838082843760009201919091525061370692505050565b505090506040518061012001604052808261ffff168152602001896001600160a01b031681526020018d6001600160a01b031681526020018a6001600160a01b031681526020018c81526020018b8152602001868152602001336001600160a01b03168152602001600015158152506035600084815260200190815260200160002060008201518160000160006101000a81548161ffff021916908361ffff16021790555060208201518160000160026101000a8154816001600160a01b0302191690836001600160a01b0316021790555060408201518160010160006101000a8154816001600160a01b0302191690836001600160a01b0316021790555060608201518160020160006101000a8154816001600160a01b0302191690836001600160a01b031602179055506080820151816003015560a0820151816004015560c0820151816005015560e08201518160060160006101000a8154816001600160a01b0302191690836001600160a01b031602179055506101008201518160060160146101000a81548160ff02191690831515021790555090505050612f0b6105a7565b6001600160a01b03166339f648bf3483338c8c8c8c8b8b6040518a63ffffffff1660e01b8152600401612f45989796959493929190614145565b6000604051808303818588803b158015612f5e57600080fd5b505af1158015612f72573d6000803e3d6000fd5b50506040518493507f46a791deaa2c43990d6e3b60a320fbebef9a6677379f326b308fb9efc8128619925060009150a25050505050505050505050565b600080600083806020019051810190612fc891906141a4565b8051909550612fe191508501602090810190860161426d565b9250925092509193909250565b8015806130775750604051636eb1769f60e11b81523060048201526001600160a01b03838116602483015284169063dd62ed3e9060440160206040518083038186803b15801561303d57600080fd5b505afa158015613051573d6000803e3d6000fd5b505050506040513d601f19601f820116820180604052508101906130759190613ebe565b155b6130e25760405162461bcd60e51b815260206004820152603660248201527f5361666545524332303a20617070726f76652066726f6d206e6f6e2d7a65726f60448201527520746f206e6f6e2d7a65726f20616c6c6f77616e636560501b6064820152608401610726565b6131388363095ea7b360e01b8484604051602401613101929190613ed7565b60408051601f198184030181529190526020810180516001600160e01b03166001600160e01b03199093169290921790915261371f565b505050565b6000808280602001905181019061315491906141a4565b805190945061316d9150840160209081019085016142b0565b91509150915091565b6000846001600160a01b0316866001600160a01b031614613363576131a66001600160a01b038716886000612fee565b6131ba6001600160a01b0387168886612fee565b6040516370a0823160e01b81526001600160a01b038381166004830152600091908716906370a082319060240160206040518083038186803b1580156131ff57600080fd5b505afa158015613213573d6000803e3d6000fd5b505050506040513d601f19601f820116820180604052508101906132379190613ebe565b604051636ccb2b0160e01b81526001600160a01b03898116600483015288811660248301526044820188905260648201879052858116608483015291925090891690636ccb2b019060a401602060405180830381600087803b15801561329c57600080fd5b505af11580156132b0573d6000803e3d6000fd5b505050506040513d601f19601f820116820180604052508101906132d49190613ebe565b506040516370a0823160e01b81526001600160a01b0384811660048301528291908816906370a082319060240160206040518083038186803b15801561331957600080fd5b505afa15801561332d573d6000803e3d6000fd5b505050506040513d601f19601f820116820180604052508101906133519190613ebe565b61335b9190613f71565b915050612a88565b6001600160a01b0382163014613387576133876001600160a01b03871683866137f1565b509195945050505050565b600061339c6136bf565b905060006133df84848080601f01602080910402602001604051908101604052809392919081815260200183838082843760009201919091525061370692505050565b50506040805160a08101825261ffff80841682526001600160a01b03808d1660208085019182528486018c815233606087018181526000608089018181528d82526036909552899020975188549551871662010000026001600160b01b031990961697169690961793909317865551600186015592516002909401805493511515600160a01b026001600160a81b03199094169483169490941792909217909255915162bc9db960e01b81529293508c169162bc9db99134916134b29187918f908f908f908f908e908e90600401614145565b6000604051808303818588803b1580156134cb57600080fd5b505af11580156134df573d6000803e3d6000fd5b50506040518593507ff83a8331f3e68a894879f051738cb73cdced1709a214e49f6dc1d541a0415e8b925060009150a250505050505050505050565b60008054610100900460ff1615613562578160ff16600114801561353e5750303b155b61355a5760405162461bcd60e51b8152600401610726906142de565b506000919050565b60005460ff8084169116106135895760405162461bcd60e51b8152600401610726906142de565b506000805460ff191660ff92909216919091179055600190565b919050565b600054610100900460ff166135cf5760405162461bcd60e51b81526004016107269061432c565b6135d7613810565b565b600054610100900460ff166136005760405162461bcd60e51b81526004016107269061432c565b6001600160a01b0381166136275760405163724f500960e01b815260040160405180910390fd5b600280546001600160a01b0319166001600160a01b0392909216919091179055565b6040516001600160a01b03808516602483015283166044820152606481018290526136819085906323b872dd60e01b90608401613101565b50505050565b6000821580613694575081155b156136a157506000612a72565b670de0b6b3a76400006136b5600282614104565b612ab28486614126565b6000466034600081546136d190614377565b91829055506040805160208101939093528201526060016040516020818303038152906040528051906020012060001c905090565b600080600083806020019051810190612fe19190614392565b6000613774826040518060400160405280602081526020017f5361666545524332303a206c6f772d6c6576656c2063616c6c206661696c6564815250856001600160a01b031661383d9092919063ffffffff16565b80519091501561313857808060200190518101906137929190613e6c565b6131385760405162461bcd60e51b815260206004820152602a60248201527f5361666545524332303a204552433230206f7065726174696f6e20646964206e6044820152691bdd081cdd58d8d9595960b21b6064820152608401610726565b6131388363a9059cbb60e01b8484604051602401613101929190613ed7565b600054610100900460ff166138375760405162461bcd60e51b81526004016107269061432c565b60018055565b606061384c8484600085613854565b949350505050565b6060824710156138b55760405162461bcd60e51b815260206004820152602660248201527f416464726573733a20696e73756666696369656e742062616c616e636520666f6044820152651c8818d85b1b60d21b6064820152608401610726565b6001600160a01b0385163b61390c5760405162461bcd60e51b815260206004820152601d60248201527f416464726573733a2063616c6c20746f206e6f6e2d636f6e74726163740000006044820152606401610726565b600080866001600160a01b0316858760405161392891906143d5565b60006040518083038185875af1925050503d8060008114613965576040519150601f19603f3d011682016040523d82523d6000602084013e61396a565b606091505b509150915061397a828286613985565b979650505050505050565b60608315613994575081612ac6565b8251156139a45782518084602001fd5b8160405162461bcd60e51b81526004016107269190613e2c565b6001600160a01b03811681146139d357600080fd5b50565b600080600080608085870312156139ec57600080fd5b84356139f7816139be565b93506020850135613a07816139be565b93969395505050506040820135916060013590565b60008083601f840112613a2e57600080fd5b50813567ffffffffffffffff811115613a4657600080fd5b602083019150836020828501011115613a5e57600080fd5b9250929050565b60008060008060008060008060006101008a8c031215613a8457600080fd5b8935613a8f816139be565b985060208a0135613a9f816139be565b975060408a0135613aaf816139be565b965060608a0135955060808a0135945060a08a0135935060c08a0135925060e08a013567ffffffffffffffff811115613ae757600080fd5b613af38c828d01613a1c565b915080935050809150509295985092959850929598565b61ffff811681146139d357600080fd5b67ffffffffffffffff811681146139d357600080fd5b60008060008060008060008060c0898b031215613b4c57600080fd5b8835613b5781613b0a565b9750602089013567ffffffffffffffff80821115613b7457600080fd5b613b808c838d01613a1c565b909950975060408b01359150613b9582613b1a565b90955060608a0135945060808a01359080821115613bb257600080fd5b50613bbf8b828c01613a1c565b999c989b50969995989497949560a00135949350505050565b60008060008060008060c08789031215613bf157600080fd5b8635613bfc816139be565b95506020870135613c0c816139be565b94506040870135613c1c816139be565b959894975094956060810135955060808101359460a0909101359350915050565b600080600080600080600080600060e08a8c031215613c5b57600080fd5b8935613c6681613b0a565b985060208a013567ffffffffffffffff80821115613c8357600080fd5b613c8f8d838e01613a1c565b909a50985060408c01359150613ca482613b1a565b90965060608b013590613cb6826139be565b90955060808b0135945060a08b01359080821115613cd357600080fd5b50613ce08c828d01613a1c565b9a9d999c50979a9699959894979660c00135949350505050565b60008060408385031215613d0d57600080fd5b50508035926020909101359150565b600060208284031215613d2e57600080fd5b5035919050565b60008060008060008060008060006101008a8c031215613d5457600080fd5b8935613d5f816139be565b985060208a0135613d6f816139be565b975060408a0135965060608a0135613d86816139be565b955060808a0135945060a08a0135935060c08a0135925060e08a013567ffffffffffffffff811115613ae757600080fd5b600060208284031215613dc957600080fd5b8135612ac6816139be565b60005b83811015613def578181015183820152602001613dd7565b838111156136815750506000910152565b60008151808452613e18816020860160208601613dd4565b601f01601f19169290920160200192915050565b602081526000612ac66020830184613e00565b600060208284031215613e5157600080fd5b8151612ac6816139be565b805180151581146135a357600080fd5b600060208284031215613e7e57600080fd5b612ac682613e5c565b6020808252601f908201527f5265656e7472616e637947756172643a207265656e7472616e742063616c6c00604082015260600190565b600060208284031215613ed057600080fd5b5051919050565b6001600160a01b03929092168252602082015260400190565b60008060408385031215613f0357600080fd5b505080516020909101519092909150565b600080600080600060a08688031215613f2c57600080fd5b613f3586613e5c565b602087015160408801516060890151608090990151929a91995097965090945092505050565b634e487b7160e01b600052601160045260246000fd5b600082821015613f8357613f83613f5b565b500390565b81835281816020850137506000828201602090810191909152601f909101601f19169091010190565b61ffff8a16815260e060208201526000613fcf60e083018a8c613f88565b67ffffffffffffffff891660408401528281036060840152613ff18189613e00565b6001600160a01b038816608085015260a0840187905283810360c0850152905061401c818587613f88565b9c9b505050505050505050505050565b6000821982111561403f5761403f613f5b565b500190565b61ffff8816815260c06020820152600061406160c0830189613e00565b67ffffffffffffffff881660408401526001600160a01b03871660608401526080830186905282810360a084015261409a818587613f88565b9a9950505050505050505050565b61ffff8716815260a0602082015260006140c660a083018789613f88565b67ffffffffffffffff861660408401526001600160a01b038516606084015282810360808401526140f78185613e00565b9998505050505050505050565b60008261412157634e487b7160e01b600052601260045260246000fd5b500490565b600081600019048311821515161561414057614140613f5b565b500290565b8881526001600160a01b0388811660208301528781166040830152861660608201526080810185905260a0810184905260e060c0820181905260009061409a9083018486613f88565b634e487b7160e01b600052604160045260246000fd5b600080604083850312156141b757600080fd5b825160ff811681146141c857600080fd5b602084015190925067ffffffffffffffff808211156141e657600080fd5b818501915085601f8301126141fa57600080fd5b81518181111561420c5761420c61418e565b604051601f8201601f19908116603f011681019083821181831017156142345761423461418e565b8160405282815288602084870101111561424d57600080fd5b61425e836020830160208801613dd4565b80955050505050509250929050565b60008060006060848603121561428257600080fd5b835161428d816139be565b602085015190935061429e816139be565b80925050604084015190509250925092565b600080604083850312156142c357600080fd5b82516142ce816139be565b6020939093015192949293505050565b6020808252602e908201527f496e697469616c697a61626c653a20636f6e747261637420697320616c72656160408201526d191e481a5b9a5d1a585b1a5e995960921b606082015260800190565b6020808252602b908201527f496e697469616c697a61626c653a20636f6e7472616374206973206e6f74206960408201526a6e697469616c697a696e6760a81b606082015260800190565b600060001982141561438b5761438b613f5b565b5060010190565b6000806000606084860312156143a757600080fd5b83516143b281613b0a565b6020850151604086015191945092506143ca81613b1a565b809150509250925092565b600082516143e7818460208701613dd4565b919091019291505056fea2646970667358221220542011671db719c2bf3af890e7b7f90cc6b40a01b9d31e3b267472d3668c7eb764736f6c63430008090033496e697469616c697a61626c653a20636f6e747261637420697320616c726561",
  "devdoc": {
    "kind": "dev",
    "methods": {
      "crossChainFlashRepayCallback(uint256,uint256)": {
        "details": "Receives msAsset from L1 and use it to repay",
        "params": {
          "id_": "The id of the request",
          "swapAmountOut_": "The msAsset amount received from L1 swap"
        },
        "returns": {
          "_repaid": "The debt amount repaid"
        }
      },
      "crossChainLeverageCallback(uint256,uint256)": {
        "details": "Receives bridged token (aka naked token) use it to deposit",
        "params": {
          "id_": "The id of the request",
          "swapAmountOut_": "The amount received from swap"
        },
        "returns": {
          "_deposited": "The amount deposited"
        }
      },
      "flashRepay(address,address,uint256,uint256)": {
        "params": {
          "depositToken_": "The collateral to withdraw",
          "repayAmountMin_": "The minimum amount to repay (slippage check)",
          "syntheticToken_": "The debt token to repay",
          "withdrawAmount_": "The amount to withdraw"
        }
      },
      "governor()": {
        "returns": {
          "_governor": "The governor"
        }
      },
      "leverage(address,address,address,uint256,uint256,uint256)": {
        "params": {
          "amountIn_": "The amount to deposit",
          "depositAmountMin_": "The min final deposit amount (slippage)",
          "depositToken_": "The collateral to deposit",
          "leverage_": "The leverage X param (e.g. 1.5e18 for 1.5X)",
          "syntheticToken_": "The msAsset to mint",
          "tokenIn_": "The token to transfer"
        }
      },
      "retryCrossChainFlashRepayCallback(uint16,bytes,uint64,uint256,bytes,uint256)": {
        "details": "This function is used to recover from callback failures due to slippage",
        "params": {
          "amount_": "The amount of failed tx",
          "newRepayAmountMin_": "If repayment failed due to slippage, caller may send lower newRepayAmountMin_",
          "nonce_": "The nonce of failed tx",
          "payload_": "The payload of failed tx",
          "srcAddress_": "The source path of failed tx",
          "srcChainId_": "The source chain of failed tx"
        }
      },
      "retryCrossChainLeverageCallback(uint16,bytes,uint64,address,uint256,bytes,uint256)": {
        "details": "This function is used to recover from callback failures due to slippage",
        "params": {
          "amount_": "The amountIn of failed tx",
          "newDepositAmountMin_": "If deposit failed due to slippage, caller may send lower newDepositAmountMin_",
          "nonce_": "The nonce of failed tx",
          "payload_": "The payload of failed tx",
          "srcAddress_": "The source path of failed tx",
          "srcChainId_": "The source chain of failed tx",
          "token_": "The token of failed tx"
        }
      }
    },
    "title": "SmartFarmingManager contract",
    "version": 1
  },
  "userdoc": {
    "events": {
      "CrossChainFlashRepayFinished(uint256)": {
        "notice": "Emitted when a cross-chain flash repay request is finalized"
      },
      "CrossChainFlashRepayStarted(uint256)": {
        "notice": "Emitted when a cross-chain flash repay request is created"
      },
      "CrossChainLeverageFinished(uint256)": {
        "notice": "Emitted when a cross-chain leverage request is finalized"
      },
      "CrossChainLeverageStarted(uint256)": {
        "notice": "Emitted when a cross-chain leverage request is created"
      },
      "FlashRepaid(address,address,uint256,uint256)": {
        "notice": "Emitted when debt is flash repaid"
      },
      "Leveraged(address,address,address,uint256,uint256,uint256,uint256)": {
        "notice": "Emitted when deposit is leveraged"
      }
    },
    "kind": "user",
    "methods": {
      "crossChainDispatcher()": {
        "notice": "Get the Cross-chain dispatcher contract"
      },
      "crossChainFlashRepayCallback(uint256,uint256)": {
        "notice": "Finalize cross-chain flash debt repayment process"
      },
      "crossChainFlashRepays(uint256)": {
        "notice": "Cross-chain flash repay requests"
      },
      "crossChainLeverageCallback(uint256,uint256)": {
        "notice": "Finalize cross-chain leverage process"
      },
      "crossChainLeverages(uint256)": {
        "notice": "Cross-chain leverage requests"
      },
      "crossChainRequestsLength()": {
        "notice": "Cross-chain requests counter"
      },
      "flashRepay(address,address,uint256,uint256)": {
        "notice": "Flash debt repayment"
      },
      "governor()": {
        "notice": "Get the governor"
      },
      "leverage(address,address,address,uint256,uint256,uint256)": {
        "notice": "Leverage yield position"
      },
      "pool()": {
        "notice": "Pool contract"
      },
      "retryCrossChainFlashRepayCallback(uint16,bytes,uint64,uint256,bytes,uint256)": {
        "notice": "Retry cross-chain flash repay callback"
      },
      "retryCrossChainLeverageCallback(uint16,bytes,uint64,address,uint256,bytes,uint256)": {
        "notice": "Retry cross-chain leverage callback"
      },
      "swapper()": {
        "notice": "Get the swapper contract"
      }
    },
    "version": 1
  },
  "storageLayout": {
    "storage": [
      {
        "astId": 19524,
        "contract": "contracts/SmartFarmingManager.sol:SmartFarmingManager",
        "label": "_initialized",
        "offset": 0,
        "slot": "0",
        "type": "t_uint8"
      },
      {
        "astId": 19527,
        "contract": "contracts/SmartFarmingManager.sol:SmartFarmingManager",
        "label": "_initializing",
        "offset": 1,
        "slot": "0",
        "type": "t_bool"
      },
      {
        "astId": 33343,
        "contract": "contracts/SmartFarmingManager.sol:SmartFarmingManager",
        "label": "_status",
        "offset": 0,
        "slot": "1",
        "type": "t_uint256"
      },
      {
        "astId": 14025,
        "contract": "contracts/SmartFarmingManager.sol:SmartFarmingManager",
        "label": "pool",
        "offset": 0,
        "slot": "2",
        "type": "t_contract(IPool)27674"
      },
      {
        "astId": 14127,
        "contract": "contracts/SmartFarmingManager.sol:SmartFarmingManager",
        "label": "__gap",
        "offset": 0,
        "slot": "3",
        "type": "t_array(t_uint256)49_storage"
      },
      {
        "astId": 31085,
        "contract": "contracts/SmartFarmingManager.sol:SmartFarmingManager",
        "label": "crossChainRequestsLength",
        "offset": 0,
        "slot": "52",
        "type": "t_uint256"
      },
      {
        "astId": 31091,
        "contract": "contracts/SmartFarmingManager.sol:SmartFarmingManager",
        "label": "crossChainLeverages",
        "offset": 0,
        "slot": "53",
        "type": "t_mapping(t_uint256,t_struct(CrossChainLeverage)31070_storage)"
      },
      {
        "astId": 31097,
        "contract": "contracts/SmartFarmingManager.sol:SmartFarmingManager",
        "label": "crossChainFlashRepays",
        "offset": 0,
        "slot": "54",
        "type": "t_mapping(t_uint256,t_struct(CrossChainFlashRepay)31082_storage)"
      }
    ],
    "types": {
      "t_address": {
        "encoding": "inplace",
        "label": "address",
        "numberOfBytes": "20"
      },
      "t_array(t_uint256)49_storage": {
        "base": "t_uint256",
        "encoding": "inplace",
        "label": "uint256[49]",
        "numberOfBytes": "1568"
      },
      "t_bool": {
        "encoding": "inplace",
        "label": "bool",
        "numberOfBytes": "1"
      },
      "t_contract(IDepositToken)27265": {
        "encoding": "inplace",
        "label": "contract IDepositToken",
        "numberOfBytes": "20"
      },
      "t_contract(IERC20)21695": {
        "encoding": "inplace",
        "label": "contract IERC20",
        "numberOfBytes": "20"
      },
      "t_contract(IPool)27674": {
        "encoding": "inplace",
        "label": "contract IPool",
        "numberOfBytes": "20"
      },
      "t_contract(ISyntheticToken)28147": {
        "encoding": "inplace",
        "label": "contract ISyntheticToken",
        "numberOfBytes": "20"
      },
      "t_mapping(t_uint256,t_struct(CrossChainFlashRepay)31082_storage)": {
        "encoding": "mapping",
        "key": "t_uint256",
        "label": "mapping(uint256 => struct SmartFarmingManagerStorageV1.CrossChainFlashRepay)",
        "numberOfBytes": "32",
        "value": "t_struct(CrossChainFlashRepay)31082_storage"
      },
      "t_mapping(t_uint256,t_struct(CrossChainLeverage)31070_storage)": {
        "encoding": "mapping",
        "key": "t_uint256",
        "label": "mapping(uint256 => struct SmartFarmingManagerStorageV1.CrossChainLeverage)",
        "numberOfBytes": "32",
        "value": "t_struct(CrossChainLeverage)31070_storage"
      },
      "t_struct(CrossChainFlashRepay)31082_storage": {
        "encoding": "inplace",
        "label": "struct SmartFarmingManagerStorageV1.CrossChainFlashRepay",
        "members": [
          {
            "astId": 31072,
            "contract": "contracts/SmartFarmingManager.sol:SmartFarmingManager",
            "label": "dstChainId",
            "offset": 0,
            "slot": "0",
            "type": "t_uint16"
          },
          {
            "astId": 31075,
            "contract": "contracts/SmartFarmingManager.sol:SmartFarmingManager",
            "label": "syntheticToken",
            "offset": 2,
            "slot": "0",
            "type": "t_contract(ISyntheticToken)28147"
          },
          {
            "astId": 31077,
            "contract": "contracts/SmartFarmingManager.sol:SmartFarmingManager",
            "label": "repayAmountMin",
            "offset": 0,
            "slot": "1",
            "type": "t_uint256"
          },
          {
            "astId": 31079,
            "contract": "contracts/SmartFarmingManager.sol:SmartFarmingManager",
            "label": "account",
            "offset": 0,
            "slot": "2",
            "type": "t_address"
          },
          {
            "astId": 31081,
            "contract": "contracts/SmartFarmingManager.sol:SmartFarmingManager",
            "label": "finished",
            "offset": 20,
            "slot": "2",
            "type": "t_bool"
          }
        ],
        "numberOfBytes": "96"
      },
      "t_struct(CrossChainLeverage)31070_storage": {
        "encoding": "inplace",
        "label": "struct SmartFarmingManagerStorageV1.CrossChainLeverage",
        "members": [
          {
            "astId": 31050,
            "contract": "contracts/SmartFarmingManager.sol:SmartFarmingManager",
            "label": "dstChainId",
            "offset": 0,
            "slot": "0",
            "type": "t_uint16"
          },
          {
            "astId": 31053,
            "contract": "contracts/SmartFarmingManager.sol:SmartFarmingManager",
            "label": "bridgeToken",
            "offset": 2,
            "slot": "0",
            "type": "t_contract(IERC20)21695"
          },
          {
            "astId": 31056,
            "contract": "contracts/SmartFarmingManager.sol:SmartFarmingManager",
            "label": "depositToken",
            "offset": 0,
            "slot": "1",
            "type": "t_contract(IDepositToken)27265"
          },
          {
            "astId": 31059,
            "contract": "contracts/SmartFarmingManager.sol:SmartFarmingManager",
            "label": "syntheticToken",
            "offset": 0,
            "slot": "2",
            "type": "t_contract(ISyntheticToken)28147"
          },
          {
            "astId": 31061,
            "contract": "contracts/SmartFarmingManager.sol:SmartFarmingManager",
            "label": "bridgeTokenAmountIn",
            "offset": 0,
            "slot": "3",
            "type": "t_uint256"
          },
          {
            "astId": 31063,
            "contract": "contracts/SmartFarmingManager.sol:SmartFarmingManager",
            "label": "debtAmount",
            "offset": 0,
            "slot": "4",
            "type": "t_uint256"
          },
          {
            "astId": 31065,
            "contract": "contracts/SmartFarmingManager.sol:SmartFarmingManager",
            "label": "depositAmountMin",
            "offset": 0,
            "slot": "5",
            "type": "t_uint256"
          },
          {
            "astId": 31067,
            "contract": "contracts/SmartFarmingManager.sol:SmartFarmingManager",
            "label": "account",
            "offset": 0,
            "slot": "6",
            "type": "t_address"
          },
          {
            "astId": 31069,
            "contract": "contracts/SmartFarmingManager.sol:SmartFarmingManager",
            "label": "finished",
            "offset": 20,
            "slot": "6",
            "type": "t_bool"
          }
        ],
        "numberOfBytes": "224"
      },
      "t_uint16": {
        "encoding": "inplace",
        "label": "uint16",
        "numberOfBytes": "2"
      },
      "t_uint256": {
        "encoding": "inplace",
        "label": "uint256",
        "numberOfBytes": "32"
      },
      "t_uint8": {
        "encoding": "inplace",
        "label": "uint8",
        "numberOfBytes": "1"
      }
    }
  }
}