{
  "address": "0xF538F18c3cC1cDB70aa054cc3d0C2C2262Ba95E6",
  "abi": [
    {
      "inputs": [],
      "name": "AmountExceedsAllowance",
      "type": "error"
    },
    {
      "inputs": [],
      "name": "ApproveFromTheZeroAddress",
      "type": "error"
    },
    {
      "inputs": [],
      "name": "ApproveToTheZeroAddress",
      "type": "error"
    },
    {
      "inputs": [],
      "name": "BurnAmountExceedsBalance",
      "type": "error"
    },
    {
      "inputs": [],
      "name": "BurnFromTheZeroAddress",
      "type": "error"
    },
    {
      "inputs": [],
      "name": "DecimalsIsNull",
      "type": "error"
    },
    {
      "inputs": [],
      "name": "DecreasedAllowanceBelowZero",
      "type": "error"
    },
    {
      "inputs": [],
      "name": "MintToTheZeroAddress",
      "type": "error"
    },
    {
      "inputs": [],
      "name": "NameIsNull",
      "type": "error"
    },
    {
      "inputs": [],
      "name": "NewValueIsSameAsCurrent",
      "type": "error"
    },
    {
      "inputs": [],
      "name": "PoolRegistryIsNull",
      "type": "error"
    },
    {
      "inputs": [],
      "name": "SenderCanNotBurn",
      "type": "error"
    },
    {
      "inputs": [],
      "name": "SenderCanNotMint",
      "type": "error"
    },
    {
      "inputs": [],
      "name": "SenderCanNotSeize",
      "type": "error"
    },
    {
      "inputs": [],
      "name": "SenderIsNotGovernor",
      "type": "error"
    },
    {
      "inputs": [],
      "name": "SurpassMaxSynthSupply",
      "type": "error"
    },
    {
      "inputs": [],
      "name": "SymbolIsNull",
      "type": "error"
    },
    {
      "inputs": [],
      "name": "SyntheticIsInactive",
      "type": "error"
    },
    {
      "inputs": [],
      "name": "TransferAmountExceedsBalance",
      "type": "error"
    },
    {
      "inputs": [],
      "name": "TransferFromTheZeroAddress",
      "type": "error"
    },
    {
      "inputs": [],
      "name": "TransferToTheZeroAddress",
      "type": "error"
    },
    {
      "anonymous": false,
      "inputs": [
        {
          "indexed": true,
          "internalType": "address",
          "name": "owner",
          "type": "address"
        },
        {
          "indexed": true,
          "internalType": "address",
          "name": "spender",
          "type": "address"
        },
        {
          "indexed": false,
          "internalType": "uint256",
          "name": "value",
          "type": "uint256"
        }
      ],
      "name": "Approval",
      "type": "event"
    },
    {
      "anonymous": false,
      "inputs": [
        {
          "indexed": false,
          "internalType": "uint256",
          "name": "oldMaxTotalSupply",
          "type": "uint256"
        },
        {
          "indexed": false,
          "internalType": "uint256",
          "name": "newMaxTotalSupply",
          "type": "uint256"
        }
      ],
      "name": "MaxTotalSupplyUpdated",
      "type": "event"
    },
    {
      "anonymous": false,
      "inputs": [
        {
          "indexed": false,
          "internalType": "bool",
          "name": "newActive",
          "type": "bool"
        }
      ],
      "name": "SyntheticTokenActiveUpdated",
      "type": "event"
    },
    {
      "anonymous": false,
      "inputs": [
        {
          "indexed": true,
          "internalType": "address",
          "name": "from",
          "type": "address"
        },
        {
          "indexed": true,
          "internalType": "address",
          "name": "to",
          "type": "address"
        },
        {
          "indexed": false,
          "internalType": "uint256",
          "name": "value",
          "type": "uint256"
        }
      ],
      "name": "Transfer",
      "type": "event"
    },
    {
      "inputs": [],
      "name": "VERSION",
      "outputs": [
        {
          "internalType": "string",
          "name": "",
          "type": "string"
        }
      ],
      "stateMutability": "view",
      "type": "function"
    },
    {
      "inputs": [
        {
          "internalType": "address",
          "name": "",
          "type": "address"
        },
        {
          "internalType": "address",
          "name": "",
          "type": "address"
        }
      ],
      "name": "allowance",
      "outputs": [
        {
          "internalType": "uint256",
          "name": "",
          "type": "uint256"
        }
      ],
      "stateMutability": "view",
      "type": "function"
    },
    {
      "inputs": [
        {
          "internalType": "address",
          "name": "spender_",
          "type": "address"
        },
        {
          "internalType": "uint256",
          "name": "amount_",
          "type": "uint256"
        }
      ],
      "name": "approve",
      "outputs": [
        {
          "internalType": "bool",
          "name": "",
          "type": "bool"
        }
      ],
      "stateMutability": "nonpayable",
      "type": "function"
    },
    {
      "inputs": [
        {
          "internalType": "address",
          "name": "",
          "type": "address"
        }
      ],
      "name": "balanceOf",
      "outputs": [
        {
          "internalType": "uint256",
          "name": "",
          "type": "uint256"
        }
      ],
      "stateMutability": "view",
      "type": "function"
    },
    {
      "inputs": [
        {
          "internalType": "address",
          "name": "from_",
          "type": "address"
        },
        {
          "internalType": "uint256",
          "name": "amount_",
          "type": "uint256"
        }
      ],
      "name": "burn",
      "outputs": [],
      "stateMutability": "nonpayable",
      "type": "function"
    },
    {
      "inputs": [],
      "name": "decimals",
      "outputs": [
        {
          "internalType": "uint8",
          "name": "",
          "type": "uint8"
        }
      ],
      "stateMutability": "view",
      "type": "function"
    },
    {
      "inputs": [
        {
          "internalType": "address",
          "name": "spender_",
          "type": "address"
        },
        {
          "internalType": "uint256",
          "name": "subtractedValue_",
          "type": "uint256"
        }
      ],
      "name": "decreaseAllowance",
      "outputs": [
        {
          "internalType": "bool",
          "name": "",
          "type": "bool"
        }
      ],
      "stateMutability": "nonpayable",
      "type": "function"
    },
    {
      "inputs": [
        {
          "internalType": "address",
          "name": "spender_",
          "type": "address"
        },
        {
          "internalType": "uint256",
          "name": "addedValue_",
          "type": "uint256"
        }
      ],
      "name": "increaseAllowance",
      "outputs": [
        {
          "internalType": "bool",
          "name": "",
          "type": "bool"
        }
      ],
      "stateMutability": "nonpayable",
      "type": "function"
    },
    {
      "inputs": [
        {
          "internalType": "string",
          "name": "name_",
          "type": "string"
        },
        {
          "internalType": "string",
          "name": "symbol_",
          "type": "string"
        },
        {
          "internalType": "uint8",
          "name": "decimals_",
          "type": "uint8"
        },
        {
          "internalType": "contract IPoolRegistry",
          "name": "poolRegistry_",
          "type": "address"
        }
      ],
      "name": "initialize",
      "outputs": [],
      "stateMutability": "nonpayable",
      "type": "function"
    },
    {
      "inputs": [],
      "name": "isActive",
      "outputs": [
        {
          "internalType": "bool",
          "name": "",
          "type": "bool"
        }
      ],
      "stateMutability": "view",
      "type": "function"
    },
    {
      "inputs": [],
      "name": "maxTotalSupply",
      "outputs": [
        {
          "internalType": "uint256",
          "name": "",
          "type": "uint256"
        }
      ],
      "stateMutability": "view",
      "type": "function"
    },
    {
      "inputs": [
        {
          "internalType": "address",
          "name": "to_",
          "type": "address"
        },
        {
          "internalType": "uint256",
          "name": "amount_",
          "type": "uint256"
        }
      ],
      "name": "mint",
      "outputs": [],
      "stateMutability": "nonpayable",
      "type": "function"
    },
    {
      "inputs": [],
      "name": "name",
      "outputs": [
        {
          "internalType": "string",
          "name": "",
          "type": "string"
        }
      ],
      "stateMutability": "view",
      "type": "function"
    },
    {
      "inputs": [],
      "name": "poolRegistry",
      "outputs": [
        {
          "internalType": "contract IPoolRegistry",
          "name": "",
          "type": "address"
        }
      ],
      "stateMutability": "view",
      "type": "function"
    },
    {
      "inputs": [
        {
          "internalType": "address",
          "name": "from_",
          "type": "address"
        },
        {
          "internalType": "address",
          "name": "to_",
          "type": "address"
        },
        {
          "internalType": "uint256",
          "name": "amount_",
          "type": "uint256"
        }
      ],
      "name": "seize",
      "outputs": [],
      "stateMutability": "nonpayable",
      "type": "function"
    },
    {
      "inputs": [],
      "name": "symbol",
      "outputs": [
        {
          "internalType": "string",
          "name": "",
          "type": "string"
        }
      ],
      "stateMutability": "view",
      "type": "function"
    },
    {
      "inputs": [],
      "name": "toggleIsActive",
      "outputs": [],
      "stateMutability": "nonpayable",
      "type": "function"
    },
    {
      "inputs": [],
      "name": "totalSupply",
      "outputs": [
        {
          "internalType": "uint256",
          "name": "",
          "type": "uint256"
        }
      ],
      "stateMutability": "view",
      "type": "function"
    },
    {
      "inputs": [
        {
          "internalType": "address",
          "name": "recipient_",
          "type": "address"
        },
        {
          "internalType": "uint256",
          "name": "amount_",
          "type": "uint256"
        }
      ],
      "name": "transfer",
      "outputs": [
        {
          "internalType": "bool",
          "name": "",
          "type": "bool"
        }
      ],
      "stateMutability": "nonpayable",
      "type": "function"
    },
    {
      "inputs": [
        {
          "internalType": "address",
          "name": "sender_",
          "type": "address"
        },
        {
          "internalType": "address",
          "name": "recipient_",
          "type": "address"
        },
        {
          "internalType": "uint256",
          "name": "amount_",
          "type": "uint256"
        }
      ],
      "name": "transferFrom",
      "outputs": [
        {
          "internalType": "bool",
          "name": "",
          "type": "bool"
        }
      ],
      "stateMutability": "nonpayable",
      "type": "function"
    },
    {
      "inputs": [
        {
          "internalType": "uint256",
          "name": "newMaxTotalSupply_",
          "type": "uint256"
        }
      ],
      "name": "updateMaxTotalSupply",
      "outputs": [],
      "stateMutability": "nonpayable",
      "type": "function"
    }
  ],
  "transactionHash": "0xf6547c64555ee1d430fc17d3d03ca675c3109f66d9384f53f6c22339dd5d1af5",
  "args": [],
  "numDeployments": 1,
  "solcInputHash": "39157ddb13861b2afdd6feacda57f5f0",
  "bytecode": "0x608060405234801561001057600080fd5b50611395806100206000396000f3fe608060405234801561001057600080fd5b50600436106101375760003560e01c806370a08231116100b8578063afcff50f1161007c578063afcff50f14610286578063b2a02ff1146102b1578063d2593329146102c4578063dd62ed3e146102cc578063de7ea79d146102f7578063ffa1ad741461030a57600080fd5b806370a082311461022557806395d89b41146102455780639dc29fac1461024d578063a457c2d714610260578063a9059cbb1461027357600080fd5b806323b872dd116100ff57806323b872dd146101bd5780632ab4d052146101d0578063313ce567146101d957806339509351146101ff57806340c10f191461021257600080fd5b806306fdde031461013c578063095ea7b31461015a578063172f50a41461017d57806318160ddd1461019257806322f3e2d4146101a9575b600080fd5b61014461032e565b604051610151919061108b565b60405180910390f35b61016d6101683660046110f8565b6103bc565b6040519015158152602001610151565b61019061018b366004611124565b6103d2565b005b61019b60055481565b604051908152602001610151565b60075461016d90600160a01b900460ff1681565b61016d6101cb36600461113d565b6104ec565b61019b60065481565b6007546101ed90600160a81b900460ff1681565b60405160ff9091168152602001610151565b61016d61020d3660046110f8565b61055d565b6101906102203660046110f8565b610599565b61019b61023336600461117e565b60036020526000908152604090205481565b6101446105df565b61019061025b3660046110f8565b6105ec565b61016d61026e3660046110f8565b61062e565b61016d6102813660046110f8565b61068a565b600754610299906001600160a01b031681565b6040516001600160a01b039091168152602001610151565b6101906102bf36600461113d565b610697565b6101906106de565b61019b6102da3660046111a2565b600460209081526000928352604080842090915290825290205481565b610190610305366004611224565b6107f6565b610144604051806040016040528060058152602001640312e322e360dc1b81525081565b6001805461033b906112bf565b80601f0160208091040260200160405190810160405280929190818152602001828054610367906112bf565b80156103b45780601f10610389576101008083540402835291602001916103b4565b820191906000526020600020905b81548152906001019060200180831161039757829003601f168201915b505050505081565b60006103c933848461099a565b50600192915050565b600760009054906101000a90046001600160a01b03166001600160a01b0316630c340a246040518163ffffffff1660e01b815260040160206040518083038186803b15801561042057600080fd5b505afa158015610434573d6000803e3d6000fd5b505050506040513d601f19601f8201168201806040525081019061045891906112fa565b6001600160a01b0316336001600160a01b03161461048957604051634b98449160e11b815260040160405180910390fd5b600654818114156104ad57604051630333a68160e41b815260040160405180910390fd5b60408051828152602081018490527fc58cd6132bb46df23d468939c03dd023b74b509aaa6b04c39d5a6461c65963bd910160405180910390a150600655565b6001600160a01b03831660009081526004602090815260408083203384529091528120546000198114610547578281101561053a576040516303814af160e61b815260040160405180910390fd5b610547853385840361099a565b610552858585610a4a565b506001949350505050565b3360008181526004602090815260408083206001600160a01b038716845290915281205490916103c9918590610594908690611317565b61099a565b6105a1610b40565b1580156105b357506105b1610c36565b155b156105d15760405163168504c160e21b815260040160405180910390fd5b6105db8282610e3a565b5050565b6002805461033b906112bf565b6105f4610b40565b1580156106065750610604610c36565b155b156106245760405163848003b560e01b815260040160405180910390fd5b6105db8282610f39565b3360009081526004602090815260408083206001600160a01b0386168452909152812054828110156106735760405163189dd6af60e31b815260040160405180910390fd5b610680338585840361099a565b5060019392505050565b60006103c9338484610a4a565b61069f610b40565b1580156106b157506106af610c36565b155b156106ce576040516249987f60e01b815260040160405180910390fd5b6106d9838383610a4a565b505050565b600760009054906101000a90046001600160a01b03166001600160a01b0316630c340a246040518163ffffffff1660e01b815260040160206040518083038186803b15801561072c57600080fd5b505afa158015610740573d6000803e3d6000fd5b505050506040513d601f19601f8201168201806040525081019061076491906112fa565b6001600160a01b0316336001600160a01b03161461079557604051634b98449160e11b815260040160405180910390fd5b600754604051600160a01b90910460ff1615808252907f79e35d0afb37464963b458a448d257d695a4dc4406dc45df01e4c7b38e2732cb9060200160405180910390a160078054911515600160a01b0260ff60a01b19909216919091179055565b600054610100900460ff168061080f575060005460ff16155b6108765760405162461bcd60e51b815260206004820152602e60248201527f496e697469616c697a61626c653a20636f6e747261637420697320616c72656160448201526d191e481a5b9a5d1a585b1a5e995960921b606482015260840160405180910390fd5b600054610100900460ff16158015610898576000805461ffff19166101011790555b856108b657604051636e83f50760e01b815260040160405180910390fd5b836108d4576040516330507cff60e11b815260040160405180910390fd5b60ff83166108f557604051634dc4784160e11b815260040160405180910390fd5b6001600160a01b03821661091c57604051637cb62f2b60e11b815260040160405180910390fd5b600780546001600160a01b0319166001600160a01b03841617905561094360018888610ff2565b5061095060028686610ff2565b506007805460ff60a01b1960ff8616600160a81b021661ffff60a01b1990911617600160a01b1790556000196006558015610991576000805461ff00191690555b50505050505050565b6001600160a01b0383166109c1576040516356fdae6560e11b815260040160405180910390fd5b6001600160a01b0382166109e85760405163b2fa1ef360e01b815260040160405180910390fd5b6001600160a01b0383811660008181526004602090815260408083209487168084529482529182902085905590518481527f8c5be1e5ebec7d5bd14f71427d1e84f3dd0314c0f7b2291e5b200ac8c7c3b92591015b60405180910390a3505050565b6001600160a01b038316610a7157604051630240531760e41b815260040160405180910390fd5b6001600160a01b038216610a985760405163671d1add60e11b815260040160405180910390fd5b6001600160a01b03831660009081526003602052604090205481811015610ad257604051635dd58b8b60e01b815260040160405180910390fd5b6001600160a01b0380851660008181526003602052604080822086860390559286168082529083902080548601905591517fddf252ad1be2c89b69c2b068fc378daa952ba7f163c4a11628f55a4df523b3ef90610b329086815260200190565b60405180910390a350505050565b60075460405163c673bdaf60e01b81523360048201526000916001600160a01b03169063c673bdaf9060240160206040518083038186803b158015610b8457600080fd5b505afa158015610b98573d6000803e3d6000fd5b505050506040513d601f19601f82011682018060405250810190610bbc919061133d565b8015610c315750604051631a0dd00b60e01b81523060048201523390631a0dd00b9060240160206040518083038186803b158015610bf957600080fd5b505afa158015610c0d573d6000803e3d6000fd5b505050506040513d601f19601f82011682018060405250810190610c31919061133d565b905090565b600080336001600160a01b03166316f0115b6040518163ffffffff1660e01b815260040160206040518083038186803b158015610c7257600080fd5b505afa158015610c86573d6000803e3d6000fd5b505050506040513d601f19601f82011682018060405250810190610caa91906112fa565b60075460405163c673bdaf60e01b81526001600160a01b03808416600483015292935091169063c673bdaf9060240160206040518083038186803b158015610cf157600080fd5b505afa158015610d05573d6000803e3d6000fd5b505050506040513d601f19601f82011682018060405250810190610d29919061133d565b8015610da757506040516308a00b1f60e31b81523360048201526001600160a01b0382169063450058f89060240160206040518083038186803b158015610d6f57600080fd5b505afa158015610d83573d6000803e3d6000fd5b505050506040513d601f19601f82011682018060405250810190610da7919061133d565b8015610e345750306001600160a01b0316336001600160a01b0316638230ecd66040518163ffffffff1660e01b815260040160206040518083038186803b158015610df157600080fd5b505afa158015610e05573d6000803e3d6000fd5b505050506040513d601f19601f82011682018060405250810190610e2991906112fa565b6001600160a01b0316145b91505090565b600754600160a01b900460ff16610e64576040516303127d9160e31b815260040160405180910390fd5b6001600160a01b038216610e8b5760405163c96c2a0b60e01b815260040160405180910390fd5b8060056000828254610e9d9190611317565b90915550506006546005541115610ec7576040516309e0f0fd60e31b815260040160405180910390fd5b6001600160a01b03821660009081526003602052604081208054839290610eef908490611317565b90915550506040518181526001600160a01b038316906000907fddf252ad1be2c89b69c2b068fc378daa952ba7f163c4a11628f55a4df523b3ef9060200160405180910390a35050565b6001600160a01b038216610f60576040516304fca6bd60e41b815260040160405180910390fd5b6001600160a01b03821660009081526003602052604090205481811015610f9a57604051630bba337f60e11b815260040160405180910390fd5b6001600160a01b03831660008181526003602090815260408083208686039055600580548790039055518581529192917fddf252ad1be2c89b69c2b068fc378daa952ba7f163c4a11628f55a4df523b3ef9101610a3d565b828054610ffe906112bf565b90600052602060002090601f0160209004810192826110205760008555611066565b82601f106110395782800160ff19823516178555611066565b82800160010185558215611066579182015b8281111561106657823582559160200191906001019061104b565b50611072929150611076565b5090565b5b808211156110725760008155600101611077565b600060208083528351808285015260005b818110156110b85785810183015185820160400152820161109c565b818111156110ca576000604083870101525b50601f01601f1916929092016040019392505050565b6001600160a01b03811681146110f557600080fd5b50565b6000806040838503121561110b57600080fd5b8235611116816110e0565b946020939093013593505050565b60006020828403121561113657600080fd5b5035919050565b60008060006060848603121561115257600080fd5b833561115d816110e0565b9250602084013561116d816110e0565b929592945050506040919091013590565b60006020828403121561119057600080fd5b813561119b816110e0565b9392505050565b600080604083850312156111b557600080fd5b82356111c0816110e0565b915060208301356111d0816110e0565b809150509250929050565b60008083601f8401126111ed57600080fd5b50813567ffffffffffffffff81111561120557600080fd5b60208301915083602082850101111561121d57600080fd5b9250929050565b6000806000806000806080878903121561123d57600080fd5b863567ffffffffffffffff8082111561125557600080fd5b6112618a838b016111db565b9098509650602089013591508082111561127a57600080fd5b5061128789828a016111db565b909550935050604087013560ff811681146112a157600080fd5b915060608701356112b1816110e0565b809150509295509295509295565b600181811c908216806112d357607f821691505b602082108114156112f457634e487b7160e01b600052602260045260246000fd5b50919050565b60006020828403121561130c57600080fd5b815161119b816110e0565b6000821982111561133857634e487b7160e01b600052601160045260246000fd5b500190565b60006020828403121561134f57600080fd5b8151801515811461119b57600080fdfea264697066735822122007dd622a8e0f7f213a1791cd0b4e57167f1737f6efdfbaeb68a0f1943bc5a70964736f6c63430008090033",
  "devdoc": {
    "kind": "dev",
    "methods": {
      "burn(address,uint256)": {
        "params": {
          "amount_": "The amount to burn",
          "from_": "The account to burn from"
        }
      },
      "mint(address,uint256)": {
        "params": {
          "amount_": "The amount to mint",
          "to_": "The account to mint to"
        }
      },
      "seize(address,address,uint256)": {
        "details": "Same as _transfer",
        "params": {
          "amount_": "The amount to seize",
          "to_": "The beneficiary account"
        }
      },
      "transfer(address,uint256)": {
        "details": "Moves `amount` tokens from the caller's account to `recipient`. Returns a boolean value indicating whether the operation succeeded. Emits a {Transfer} event."
      },
      "transferFrom(address,address,uint256)": {
        "details": "Moves `amount` tokens from `sender` to `recipient` using the allowance mechanism. `amount` is then deducted from the caller's allowance. Returns a boolean value indicating whether the operation succeeded. Emits a {Transfer} event."
      },
      "updateMaxTotalSupply(uint256)": {
        "params": {
          "newMaxTotalSupply_": "The new max total supply"
        }
      }
    },
    "title": "Synthetic Token contract",
    "version": 1
  },
  "userdoc": {
    "events": {
      "MaxTotalSupplyUpdated(uint256,uint256)": {
        "notice": "Emitted when max total supply is updated"
      },
      "SyntheticTokenActiveUpdated(bool)": {
        "notice": "Emitted when active flag is updated"
      }
    },
    "kind": "user",
    "methods": {
      "approve(address,uint256)": {
        "notice": "Set `amount` as the allowance of `spender` over the caller's tokens"
      },
      "burn(address,uint256)": {
        "notice": "Burn synthetic token"
      },
      "decimals()": {
        "notice": "The decimals of the token"
      },
      "decreaseAllowance(address,uint256)": {
        "notice": "Atomically decrease the allowance granted to `spender` by the caller"
      },
      "increaseAllowance(address,uint256)": {
        "notice": "Atomically increase the allowance granted to `spender` by the caller"
      },
      "isActive()": {
        "notice": "If true, disables msAsset minting globally"
      },
      "maxTotalSupply()": {
        "notice": "The supply cap"
      },
      "mint(address,uint256)": {
        "notice": "Mint synthetic token"
      },
      "name()": {
        "notice": "The name of the token"
      },
      "seize(address,address,uint256)": {
        "notice": "Seize synthetic tokens"
      },
      "symbol()": {
        "notice": "The symbol of the token"
      },
      "toggleIsActive()": {
        "notice": "Enable/Disable Synthetic Token"
      },
      "updateMaxTotalSupply(uint256)": {
        "notice": "Update max total supply"
      }
    },
    "version": 1
  },
  "storageLayout": {
    "storage": [
      {
        "astId": 9979,
        "contract": "contracts/SyntheticToken.sol:SyntheticToken",
        "label": "_initialized",
        "offset": 0,
        "slot": "0",
        "type": "t_bool"
      },
      {
        "astId": 9982,
        "contract": "contracts/SyntheticToken.sol:SyntheticToken",
        "label": "_initializing",
        "offset": 1,
        "slot": "0",
        "type": "t_bool"
      },
      {
        "astId": 15710,
        "contract": "contracts/SyntheticToken.sol:SyntheticToken",
        "label": "name",
        "offset": 0,
        "slot": "1",
        "type": "t_string_storage"
      },
      {
        "astId": 15714,
        "contract": "contracts/SyntheticToken.sol:SyntheticToken",
        "label": "symbol",
        "offset": 0,
        "slot": "2",
        "type": "t_string_storage"
      },
      {
        "astId": 15720,
        "contract": "contracts/SyntheticToken.sol:SyntheticToken",
        "label": "balanceOf",
        "offset": 0,
        "slot": "3",
        "type": "t_mapping(t_address,t_uint256)"
      },
      {
        "astId": 15728,
        "contract": "contracts/SyntheticToken.sol:SyntheticToken",
        "label": "allowance",
        "offset": 0,
        "slot": "4",
        "type": "t_mapping(t_address,t_mapping(t_address,t_uint256))"
      },
      {
        "astId": 15732,
        "contract": "contracts/SyntheticToken.sol:SyntheticToken",
        "label": "totalSupply",
        "offset": 0,
        "slot": "5",
        "type": "t_uint256"
      },
      {
        "astId": 15736,
        "contract": "contracts/SyntheticToken.sol:SyntheticToken",
        "label": "maxTotalSupply",
        "offset": 0,
        "slot": "6",
        "type": "t_uint256"
      },
      {
        "astId": 15741,
        "contract": "contracts/SyntheticToken.sol:SyntheticToken",
        "label": "poolRegistry",
        "offset": 0,
        "slot": "7",
        "type": "t_contract(IPoolRegistry)13197"
      },
      {
        "astId": 15745,
        "contract": "contracts/SyntheticToken.sol:SyntheticToken",
        "label": "isActive",
        "offset": 20,
        "slot": "7",
        "type": "t_bool"
      },
      {
        "astId": 15749,
        "contract": "contracts/SyntheticToken.sol:SyntheticToken",
        "label": "decimals",
        "offset": 21,
        "slot": "7",
        "type": "t_uint8"
      }
    ],
    "types": {
      "t_address": {
        "encoding": "inplace",
        "label": "address",
        "numberOfBytes": "20"
      },
      "t_bool": {
        "encoding": "inplace",
        "label": "bool",
        "numberOfBytes": "1"
      },
      "t_contract(IPoolRegistry)13197": {
        "encoding": "inplace",
        "label": "contract IPoolRegistry",
        "numberOfBytes": "20"
      },
      "t_mapping(t_address,t_mapping(t_address,t_uint256))": {
        "encoding": "mapping",
        "key": "t_address",
        "label": "mapping(address => mapping(address => uint256))",
        "numberOfBytes": "32",
        "value": "t_mapping(t_address,t_uint256)"
      },
      "t_mapping(t_address,t_uint256)": {
        "encoding": "mapping",
        "key": "t_address",
        "label": "mapping(address => uint256)",
        "numberOfBytes": "32",
        "value": "t_uint256"
      },
      "t_string_storage": {
        "encoding": "bytes",
        "label": "string",
        "numberOfBytes": "32"
      },
      "t_uint256": {
        "encoding": "inplace",
        "label": "uint256",
        "numberOfBytes": "32"
      },
      "t_uint8": {
        "encoding": "inplace",
        "label": "uint8",
        "numberOfBytes": "1"
      }
    }
  }
}