{
  "address": "0x12e4844258F76c07c6E4437d6C9Ba3dF7d81c723",
  "abi": [
    {
      "inputs": [],
      "name": "AddressIsNull",
      "type": "error"
    },
    {
      "inputs": [],
      "name": "AmountIsZero",
      "type": "error"
    },
    {
      "inputs": [],
      "name": "PoolAddressIsNull",
      "type": "error"
    },
    {
      "inputs": [],
      "name": "RecipientIsNull",
      "type": "error"
    },
    {
      "inputs": [],
      "name": "SenderIsNotDepositToken",
      "type": "error"
    },
    {
      "inputs": [],
      "name": "SenderIsNotGovernor",
      "type": "error"
    },
    {
      "inputs": [],
      "name": "SenderIsNotPool",
      "type": "error"
    },
    {
      "inputs": [],
      "name": "VERSION",
      "outputs": [
        {
          "internalType": "string",
          "name": "",
          "type": "string"
        }
      ],
      "stateMutability": "view",
      "type": "function"
    },
    {
      "inputs": [
        {
          "internalType": "contract IVPool",
          "name": "vPool_",
          "type": "address"
        },
        {
          "internalType": "address",
          "name": "to_",
          "type": "address"
        }
      ],
      "name": "claimFromVesper",
      "outputs": [],
      "stateMutability": "nonpayable",
      "type": "function"
    },
    {
      "inputs": [],
      "name": "governor",
      "outputs": [
        {
          "internalType": "address",
          "name": "_governor",
          "type": "address"
        }
      ],
      "stateMutability": "view",
      "type": "function"
    },
    {
      "inputs": [
        {
          "internalType": "contract IPool",
          "name": "pool_",
          "type": "address"
        }
      ],
      "name": "initialize",
      "outputs": [],
      "stateMutability": "nonpayable",
      "type": "function"
    },
    {
      "inputs": [
        {
          "internalType": "address",
          "name": "newTreasury_",
          "type": "address"
        }
      ],
      "name": "migrateTo",
      "outputs": [],
      "stateMutability": "nonpayable",
      "type": "function"
    },
    {
      "inputs": [],
      "name": "pool",
      "outputs": [
        {
          "internalType": "contract IPool",
          "name": "",
          "type": "address"
        }
      ],
      "stateMutability": "view",
      "type": "function"
    },
    {
      "inputs": [
        {
          "internalType": "address",
          "name": "to_",
          "type": "address"
        },
        {
          "internalType": "uint256",
          "name": "amount_",
          "type": "uint256"
        }
      ],
      "name": "pull",
      "outputs": [],
      "stateMutability": "nonpayable",
      "type": "function"
    }
  ],
  "transactionHash": "0x35304cc9b20964e11fc5fb24b7ec66bcd40475cb2f5202d7c2df816d96e318ec",
  "args": [],
  "numDeployments": 2,
  "solcInputHash": "1d1eeb3af7f52d90d255aace1e1587c6",
  "bytecode": "0x608060405234801561001057600080fd5b506110e9806100206000396000f3fe608060405234801561001057600080fd5b506004361061007d5760003560e01c8063c4d66de81161005b578063c4d66de8146100cf578063f2d5d56b146100e2578063f4ef8fcc146100f5578063ffa1ad741461010857600080fd5b80630c340a241461008257806316f0115b146100a75780634ddaf8f2146100ba575b600080fd5b61008a610139565b6040516001600160a01b0390911681526020015b60405180910390f35b60025461008a906001600160a01b031681565b6100cd6100c8366004610dc7565b6101bb565b005b6100cd6100dd366004610dc7565b6103db565b6100cd6100f0366004610de4565b610462565b6100cd610103366004610e10565b610625565b61012c604051806040016040528060058152602001640312e322e360dc1b81525081565b60405161009e9190610e75565b6002546040805163030d028960e21b815290516000926001600160a01b031691630c340a24916004808301926020929190829003018186803b15801561017e57600080fd5b505afa158015610192573d6000803e3d6000fd5b505050506040513d601f19601f820116820180604052508101906101b69190610eb8565b905090565b6002546001600160a01b031633146101e65760405163531f2aa960e11b815260040160405180910390fd5b6001600160a01b03811661020d5760405163fb7566d760e01b815260040160405180910390fd5b6002546040805163fb01600d60e01b815290516000926001600160a01b03169163fb01600d9160048083019286929190829003018186803b15801561025157600080fd5b505afa158015610265573d6000803e3d6000fd5b505050506040513d6000823e601f3d908101601f1916820160405261028d9190810190610eeb565b805190915060005b818110156103d55760008382815181106102b1576102b1610fb0565b60200260200101516001600160a01b0316636f307dc36040518163ffffffff1660e01b815260040160206040518083038186803b1580156102f157600080fd5b505afa158015610305573d6000803e3d6000fd5b505050506040513d601f19601f820116820180604052508101906103299190610eb8565b6040516370a0823160e01b81523060048201529091506000906001600160a01b038316906370a082319060240160206040518083038186803b15801561036e57600080fd5b505afa158015610382573d6000803e3d6000fd5b505050506040513d601f19601f820116820180604052508101906103a69190610fc6565b905080156103c2576103c26001600160a01b03831687836109f1565b5050806103ce90610ff5565b9050610295565b50505050565b600054610100900460ff16806103f4575060005460ff16155b6104195760405162461bcd60e51b815260040161041090611010565b60405180910390fd5b600054610100900460ff1615801561043b576000805461ffff19166101011790555b610443610a48565b61044c82610ab8565b801561045e576000805461ff00191690555b5050565b600260015414156104b55760405162461bcd60e51b815260206004820152601f60248201527f5265656e7472616e637947756172643a207265656e7472616e742063616c6c006044820152606401610410565b6002600181905554604051633e25dee160e21b81523360048201526001600160a01b039091169063f8977b849060240160206040518083038186803b1580156104fd57600080fd5b505afa158015610511573d6000803e3d6000fd5b505050506040513d601f19601f82011682018060405250810190610535919061105e565b610552576040516326688ebb60e11b815260040160405180910390fd5b6001600160a01b03821661057957604051634c96446b60e01b815260040160405180910390fd5b80610597576040516310eb483f60e21b815260040160405180910390fd5b61061d8282336001600160a01b0316636f307dc36040518163ffffffff1660e01b815260040160206040518083038186803b1580156105d557600080fd5b505afa1580156105e9573d6000803e3d6000fd5b505050506040513d601f19601f8201168201806040525081019061060d9190610eb8565b6001600160a01b031691906109f1565b505060018055565b61062d610139565b6001600160a01b0316336001600160a01b03161461065e57604051634b98449160e11b815260040160405180910390fd5b6000826001600160a01b0316638bc6beb26040518163ffffffff1660e01b815260040160206040518083038186803b15801561069957600080fd5b505afa1580156106ad573d6000803e3d6000fd5b505050506040513d601f19601f820116820180604052508101906106d19190610eb8565b60405163632447c960e01b81523060048201529091506001600160a01b0382169063632447c990602401600060405180830381600087803b15801561071557600080fd5b505af1158015610729573d6000803e3d6000fd5b505060405163d279c19160e01b81523060048201526001600160a01b038416925063d279c1919150602401600060405180830381600087803b15801561076e57600080fd5b505af1158015610782573d6000803e3d6000fd5b505050506000816001600160a01b031663c4f59f9b6040518163ffffffff1660e01b815260040160006040518083038186803b1580156107c157600080fd5b505afa1580156107d5573d6000803e3d6000fd5b505050506040513d6000823e601f3d908101601f191682016040526107fd9190810190610eeb565b805190915060005b818110156109e957600083828151811061082157610821610fb0565b60209081029190910101516040516370a0823160e01b81523060048201529091506000906001600160a01b038316906370a082319060240160206040518083038186803b15801561087157600080fd5b505afa158015610885573d6000803e3d6000fd5b505050506040513d601f19601f820116820180604052508101906108a99190610fc6565b6002546040516343e6ee4360e11b81526001600160a01b038581166004830152929350600092909116906387cddc869060240160206040518083038186803b1580156108f457600080fd5b505afa158015610908573d6000803e3d6000fd5b505050506040513d601f19601f8201168201806040525081019061092c9190610eb8565b90506001600160a01b038116156109bb57806001600160a01b03166318160ddd6040518163ffffffff1660e01b815260040160206040518083038186803b15801561097657600080fd5b505afa15801561098a573d6000803e3d6000fd5b505050506040513d601f19601f820116820180604052508101906109ae9190610fc6565b6109b89083611080565b91505b81156109d5576109d56001600160a01b03841689846109f1565b505050806109e290610ff5565b9050610805565b505050505050565b604080516001600160a01b038416602482015260448082018490528251808303909101815260649091019091526020810180516001600160e01b031663a9059cbb60e01b179052610a43908490610b66565b505050565b600054610100900460ff1680610a61575060005460ff16155b610a7d5760405162461bcd60e51b815260040161041090611010565b600054610100900460ff16158015610a9f576000805461ffff19166101011790555b600180558015610ab5576000805461ff00191690555b50565b600054610100900460ff1680610ad1575060005460ff16155b610aed5760405162461bcd60e51b815260040161041090611010565b600054610100900460ff16158015610b0f576000805461ffff19166101011790555b6001600160a01b038216610b365760405163724f500960e01b815260040160405180910390fd5b600280546001600160a01b0319166001600160a01b038416179055801561045e576000805461ff00191690555050565b6000610bbb826040518060400160405280602081526020017f5361666545524332303a206c6f772d6c6576656c2063616c6c206661696c6564815250856001600160a01b0316610c389092919063ffffffff16565b805190915015610a435780806020019051810190610bd9919061105e565b610a435760405162461bcd60e51b815260206004820152602a60248201527f5361666545524332303a204552433230206f7065726174696f6e20646964206e6044820152691bdd081cdd58d8d9595960b21b6064820152608401610410565b6060610c478484600085610c51565b90505b9392505050565b606082471015610cb25760405162461bcd60e51b815260206004820152602660248201527f416464726573733a20696e73756666696369656e742062616c616e636520666f6044820152651c8818d85b1b60d21b6064820152608401610410565b843b610d005760405162461bcd60e51b815260206004820152601d60248201527f416464726573733a2063616c6c20746f206e6f6e2d636f6e74726163740000006044820152606401610410565b600080866001600160a01b03168587604051610d1c9190611097565b60006040518083038185875af1925050503d8060008114610d59576040519150601f19603f3d011682016040523d82523d6000602084013e610d5e565b606091505b5091509150610d6e828286610d79565b979650505050505050565b60608315610d88575081610c4a565b825115610d985782518084602001fd5b8160405162461bcd60e51b81526004016104109190610e75565b6001600160a01b0381168114610ab557600080fd5b600060208284031215610dd957600080fd5b8135610c4a81610db2565b60008060408385031215610df757600080fd5b8235610e0281610db2565b946020939093013593505050565b60008060408385031215610e2357600080fd5b8235610e2e81610db2565b91506020830135610e3e81610db2565b809150509250929050565b60005b83811015610e64578181015183820152602001610e4c565b838111156103d55750506000910152565b6020815260008251806020840152610e94816040850160208701610e49565b601f01601f19169190910160400192915050565b8051610eb381610db2565b919050565b600060208284031215610eca57600080fd5b8151610c4a81610db2565b634e487b7160e01b600052604160045260246000fd5b60006020808385031215610efe57600080fd5b825167ffffffffffffffff80821115610f1657600080fd5b818501915085601f830112610f2a57600080fd5b815181811115610f3c57610f3c610ed5565b8060051b604051601f19603f83011681018181108582111715610f6157610f61610ed5565b604052918252848201925083810185019188831115610f7f57600080fd5b938501935b82851015610fa457610f9585610ea8565b84529385019392850192610f84565b98975050505050505050565b634e487b7160e01b600052603260045260246000fd5b600060208284031215610fd857600080fd5b5051919050565b634e487b7160e01b600052601160045260246000fd5b600060001982141561100957611009610fdf565b5060010190565b6020808252602e908201527f496e697469616c697a61626c653a20636f6e747261637420697320616c72656160408201526d191e481a5b9a5d1a585b1a5e995960921b606082015260800190565b60006020828403121561107057600080fd5b81518015158114610c4a57600080fd5b60008282101561109257611092610fdf565b500390565b600082516110a9818460208701610e49565b919091019291505056fea2646970667358221220218657393ca92225be4b4963b8bb45e568857027ac49d4454ffcc8987ccf094964736f6c63430008090033",
  "devdoc": {
    "kind": "dev",
    "methods": {
      "claimFromVesper(address,address)": {
        "params": {
          "to_": "The transfer recipient",
          "vPool_": "The Vesper pool to collect rewards from"
        }
      },
      "governor()": {
        "returns": {
          "_governor": "The governor"
        }
      },
      "migrateTo(address)": {
        "details": "This function can become too expensive depending on the length of the arrays",
        "params": {
          "newTreasury_": "The new treasury"
        }
      },
      "pull(address,uint256)": {
        "params": {
          "amount_": "The transfer amount",
          "to_": "The transfer recipient"
        }
      }
    },
    "title": "Treasury contract",
    "version": 1
  },
  "userdoc": {
    "kind": "user",
    "methods": {
      "claimFromVesper(address,address)": {
        "notice": "Claim and withdraw rewards from Vesper"
      },
      "governor()": {
        "notice": "Get the governor"
      },
      "migrateTo(address)": {
        "notice": "Transfer all funds to another contract"
      },
      "pool()": {
        "notice": "Pool contract"
      },
      "pull(address,uint256)": {
        "notice": "Pull token from the Treasury"
      }
    },
    "version": 1
  },
  "storageLayout": {
    "storage": [
      {
        "astId": 10100,
        "contract": "contracts/Treasury.sol:Treasury",
        "label": "_initialized",
        "offset": 0,
        "slot": "0",
        "type": "t_bool"
      },
      {
        "astId": 10103,
        "contract": "contracts/Treasury.sol:Treasury",
        "label": "_initializing",
        "offset": 1,
        "slot": "0",
        "type": "t_bool"
      },
      {
        "astId": 10154,
        "contract": "contracts/Treasury.sol:Treasury",
        "label": "_status",
        "offset": 0,
        "slot": "1",
        "type": "t_uint256"
      },
      {
        "astId": 9123,
        "contract": "contracts/Treasury.sol:Treasury",
        "label": "pool",
        "offset": 0,
        "slot": "2",
        "type": "t_contract(IPool)13240"
      },
      {
        "astId": 9225,
        "contract": "contracts/Treasury.sol:Treasury",
        "label": "__gap",
        "offset": 0,
        "slot": "3",
        "type": "t_array(t_uint256)49_storage"
      }
    ],
    "types": {
      "t_array(t_uint256)49_storage": {
        "base": "t_uint256",
        "encoding": "inplace",
        "label": "uint256[49]",
        "numberOfBytes": "1568"
      },
      "t_bool": {
        "encoding": "inplace",
        "label": "bool",
        "numberOfBytes": "1"
      },
      "t_contract(IPool)13240": {
        "encoding": "inplace",
        "label": "contract IPool",
        "numberOfBytes": "20"
      },
      "t_uint256": {
        "encoding": "inplace",
        "label": "uint256",
        "numberOfBytes": "32"
      }
    }
  }
}