{
  "address": "0x2B70E663bA015C59556B6186822D90159d5F7C16",
  "abi": [
    {
      "inputs": [],
      "name": "TEN_DECIMALS",
      "outputs": [
        {
          "internalType": "uint256",
          "name": "",
          "type": "uint256"
        }
      ],
      "stateMutability": "view",
      "type": "function"
    },
    {
      "inputs": [
        {
          "internalType": "bytes",
          "name": "_assetData",
          "type": "bytes"
        }
      ],
      "name": "getPriceInUsd",
      "outputs": [
        {
          "internalType": "uint256",
          "name": "_priceInUsd",
          "type": "uint256"
        },
        {
          "internalType": "uint256",
          "name": "_lastUpdatedAt",
          "type": "uint256"
        }
      ],
      "stateMutability": "view",
      "type": "function"
    },
    {
      "inputs": [
        {
          "internalType": "bytes",
          "name": "",
          "type": "bytes"
        }
      ],
      "name": "update",
      "outputs": [],
      "stateMutability": "nonpayable",
      "type": "function"
    }
  ],
  "transactionHash": "0x42c9ba46d3baf7ef49a68120cba7c2c926dd966ca26c955451bce6f491de286c",
  "args": [],
  "numDeployments": 2,
  "solcInputHash": "9d493da7ad7feb9d41baa9f03a4d1394",
  "bytecode": "0x608060405234801561001057600080fd5b5061036c806100206000396000f3fe608060405234801561001057600080fd5b50600436106100415760003560e01c80635d499b1b14610046578063b826844314610065578063c43ed2c81461008d575b600080fd5b6100526402540be40081565b6040519081526020015b60405180910390f35b6100786100733660046101dd565b6100a1565b6040805192835260208301919091520161005c565b61009f61009b3660046101dd565b5050565b005b60008060006100b085856100c8565b5090506100bc816100e2565b90969095509350505050565b6000806100d78385018561024f565b909590945092505050565b600080600080846001600160a01b031663feaf968c6040518163ffffffff1660e01b815260040160a06040518083038186803b15801561012157600080fd5b505afa158015610135573d6000803e3d6000fd5b505050506040513d601f19601f8201168201806040525081019061015991906102b9565b509350509250506402540be40061016f83610183565b6101799190610309565b9590945092505050565b6000808212156101d95760405162461bcd60e51b815260206004820181905260248201527f53616665436173743a2076616c7565206d75737420626520706f736974697665604482015260640160405180910390fd5b5090565b600080602083850312156101f057600080fd5b823567ffffffffffffffff8082111561020857600080fd5b818501915085601f83011261021c57600080fd5b81358181111561022b57600080fd5b86602082850101111561023d57600080fd5b60209290920196919550909350505050565b6000806040838503121561026257600080fd5b82356001600160a01b038116811461027957600080fd5b9150602083013560ff8116811461028f57600080fd5b809150509250929050565b805169ffffffffffffffffffff811681146102b457600080fd5b919050565b600080600080600060a086880312156102d157600080fd5b6102da8661029a565b94506020860151935060408601519250606086015191506102fd6080870161029a565b90509295509295909350565b600081600019048311821515161561033157634e487b7160e01b600052601160045260246000fd5b50029056fea2646970667358221220879d6764a0872c3e4125c7ac0fc8db7f2cc03f42448a2a711e138e0e2091a82a64736f6c63430008090033",
  "devdoc": {
    "details": "This contract wrapps chainlink agreggators",
    "kind": "dev",
    "methods": {
      "getPriceInUsd(bytes)": {
        "params": {
          "_assetData": "The asset's query encoded data"
        },
        "returns": {
          "_lastUpdatedAt": "The timestamp of the price used to convert",
          "_priceInUsd": "The amount in USD (18 decimals)"
        }
      },
      "update(bytes)": {
        "details": "This function is here just to follow IPriceProvider"
      }
    },
    "title": "ChainLink's price provider",
    "version": 1
  },
  "userdoc": {
    "kind": "user",
    "methods": {
      "TEN_DECIMALS()": {
        "notice": "Used to convert 8-decimals from Chainlink to 18-decimals values"
      },
      "getPriceInUsd(bytes)": {
        "notice": "Get asset's USD price"
      }
    },
    "version": 1
  },
  "storageLayout": {
    "storage": [],
    "types": null
  }
}