{
  "address": "0x04Db2DA16318e616d28f0DA7AA59EEb12AcEc72c",
  "abi": [
    {
      "inputs": [
        {
          "internalType": "bytes",
          "name": "_assetData",
          "type": "bytes"
        }
      ],
      "name": "getPriceInUsd",
      "outputs": [
        {
          "internalType": "uint256",
          "name": "_priceInUsd",
          "type": "uint256"
        },
        {
          "internalType": "uint256",
          "name": "_lastUpdatedAt",
          "type": "uint256"
        }
      ],
      "stateMutability": "view",
      "type": "function"
    },
    {
      "inputs": [
        {
          "internalType": "bytes",
          "name": "",
          "type": "bytes"
        }
      ],
      "name": "update",
      "outputs": [],
      "stateMutability": "nonpayable",
      "type": "function"
    }
  ],
  "transactionHash": "0x43db81f4844696cfff336f6a0ff8df6b2a5bf305687c101fe6d587149707fadf",
  "args": [],
  "numDeployments": 1,
  "solcInputHash": "0077a7bd8b2b7c639ec050e1f3a43041",
  "bytecode": "0x608060405234801561001057600080fd5b50610345806100206000396000f3fe608060405234801561001057600080fd5b50600436106100365760003560e01c8063b82684431461003b578063c43ed2c814610067575b600080fd5b61004e6100493660046101b6565b61007b565b6040805192835260208301919091520160405180910390f35b6100796100753660046101b6565b5050565b005b600080600061008a85856100a2565b509050610096816100bc565b90969095509350505050565b6000806100b183850185610228565b909590945092505050565b600080600080846001600160a01b031663feaf968c6040518163ffffffff1660e01b815260040160a06040518083038186803b1580156100fb57600080fd5b505afa15801561010f573d6000803e3d6000fd5b505050506040513d601f19601f820116820180604052508101906101339190610292565b509350509250506101438261015c565b610152906402540be4006102e2565b9590945092505050565b6000808212156101b25760405162461bcd60e51b815260206004820181905260248201527f53616665436173743a2076616c7565206d75737420626520706f736974697665604482015260640160405180910390fd5b5090565b600080602083850312156101c957600080fd5b823567ffffffffffffffff808211156101e157600080fd5b818501915085601f8301126101f557600080fd5b81358181111561020457600080fd5b86602082850101111561021657600080fd5b60209290920196919550909350505050565b6000806040838503121561023b57600080fd5b82356001600160a01b038116811461025257600080fd5b9150602083013560ff8116811461026857600080fd5b809150509250929050565b805169ffffffffffffffffffff8116811461028d57600080fd5b919050565b600080600080600060a086880312156102aa57600080fd5b6102b386610273565b94506020860151935060408601519250606086015191506102d660808701610273565b90509295509295909350565b600081600019048311821515161561030a57634e487b7160e01b600052601160045260246000fd5b50029056fea264697066735822122049e2c875c0ff9019200beff7c486f4263dcc9118f05358d1b23e317156ea16fb64736f6c63430008090033",
  "devdoc": {
    "details": "This contract wrapps chainlink agreggators",
    "kind": "dev",
    "methods": {
      "getPriceInUsd(bytes)": {
        "params": {
          "_assetData": "The asset's query encoded data"
        },
        "returns": {
          "_lastUpdatedAt": "The timestamp of the price used to convert",
          "_priceInUsd": "The amount in USD (18 decimals)"
        }
      },
      "update(bytes)": {
        "details": "This function is here just to follow IPriceProvider"
      }
    },
    "title": "ChainLink's price provider",
    "version": 1
  },
  "userdoc": {
    "kind": "user",
    "methods": {
      "getPriceInUsd(bytes)": {
        "notice": "Get asset's USD price"
      }
    },
    "version": 1
  },
  "storageLayout": {
    "storage": [],
    "types": null
  }
}