{
  "address": "0xFF1057506c031557DC9f2a54bc29D0493913F272",
  "abi": [
    {
      "anonymous": false,
      "inputs": [
        {
          "indexed": false,
          "internalType": "uint256",
          "name": "oldDebtFloorInUsd",
          "type": "uint256"
        },
        {
          "indexed": false,
          "internalType": "uint256",
          "name": "newDebtFloorInUsd",
          "type": "uint256"
        }
      ],
      "name": "DebtFloorUpdated",
      "type": "event"
    },
    {
      "anonymous": false,
      "inputs": [
        {
          "indexed": false,
          "internalType": "uint256",
          "name": "oldDepositFee",
          "type": "uint256"
        },
        {
          "indexed": false,
          "internalType": "uint256",
          "name": "newDepositFee",
          "type": "uint256"
        }
      ],
      "name": "DepositFeeUpdated",
      "type": "event"
    },
    {
      "anonymous": false,
      "inputs": [
        {
          "indexed": true,
          "internalType": "address",
          "name": "depositToken",
          "type": "address"
        }
      ],
      "name": "DepositTokenAdded",
      "type": "event"
    },
    {
      "anonymous": false,
      "inputs": [
        {
          "indexed": true,
          "internalType": "contract IDepositToken",
          "name": "depositToken",
          "type": "address"
        }
      ],
      "name": "DepositTokenRemoved",
      "type": "event"
    },
    {
      "anonymous": false,
      "inputs": [
        {
          "indexed": false,
          "internalType": "uint256",
          "name": "oldIssueFee",
          "type": "uint256"
        },
        {
          "indexed": false,
          "internalType": "uint256",
          "name": "newIssueFee",
          "type": "uint256"
        }
      ],
      "name": "IssueFeeUpdated",
      "type": "event"
    },
    {
      "anonymous": false,
      "inputs": [
        {
          "indexed": false,
          "internalType": "uint256",
          "name": "oldLiquidatorLiquidationFee",
          "type": "uint256"
        },
        {
          "indexed": false,
          "internalType": "uint256",
          "name": "newLiquidatorLiquidationFee",
          "type": "uint256"
        }
      ],
      "name": "LiquidatorLiquidationFeeUpdated",
      "type": "event"
    },
    {
      "anonymous": false,
      "inputs": [
        {
          "indexed": true,
          "internalType": "contract IMasterOracle",
          "name": "oldOracle",
          "type": "address"
        },
        {
          "indexed": true,
          "internalType": "contract IMasterOracle",
          "name": "newOracle",
          "type": "address"
        }
      ],
      "name": "MasterOracleUpdated",
      "type": "event"
    },
    {
      "anonymous": false,
      "inputs": [
        {
          "indexed": false,
          "internalType": "uint256",
          "name": "oldMaxLiquidable",
          "type": "uint256"
        },
        {
          "indexed": false,
          "internalType": "uint256",
          "name": "newMaxLiquidable",
          "type": "uint256"
        }
      ],
      "name": "MaxLiquidableUpdated",
      "type": "event"
    },
    {
      "anonymous": false,
      "inputs": [
        {
          "indexed": false,
          "internalType": "address",
          "name": "account",
          "type": "address"
        }
      ],
      "name": "Open",
      "type": "event"
    },
    {
      "anonymous": false,
      "inputs": [
        {
          "indexed": false,
          "internalType": "address",
          "name": "account",
          "type": "address"
        }
      ],
      "name": "Paused",
      "type": "event"
    },
    {
      "anonymous": false,
      "inputs": [
        {
          "indexed": true,
          "internalType": "address",
          "name": "liquidator",
          "type": "address"
        },
        {
          "indexed": true,
          "internalType": "address",
          "name": "account",
          "type": "address"
        },
        {
          "indexed": true,
          "internalType": "contract ISyntheticToken",
          "name": "syntheticToken",
          "type": "address"
        },
        {
          "indexed": false,
          "internalType": "uint256",
          "name": "amountRepaid",
          "type": "uint256"
        },
        {
          "indexed": false,
          "internalType": "uint256",
          "name": "depositSeized",
          "type": "uint256"
        },
        {
          "indexed": false,
          "internalType": "uint256",
          "name": "fee",
          "type": "uint256"
        }
      ],
      "name": "PositionLiquidated",
      "type": "event"
    },
    {
      "anonymous": false,
      "inputs": [
        {
          "indexed": false,
          "internalType": "uint256",
          "name": "oldProtocolLiquidationFee",
          "type": "uint256"
        },
        {
          "indexed": false,
          "internalType": "uint256",
          "name": "newProtocolLiquidationFee",
          "type": "uint256"
        }
      ],
      "name": "ProtocolLiquidationFeeUpdated",
      "type": "event"
    },
    {
      "anonymous": false,
      "inputs": [
        {
          "indexed": false,
          "internalType": "uint256",
          "name": "oldRefinanceFee",
          "type": "uint256"
        },
        {
          "indexed": false,
          "internalType": "uint256",
          "name": "newRefinanceFee",
          "type": "uint256"
        }
      ],
      "name": "RefinanceFeeUpdated",
      "type": "event"
    },
    {
      "anonymous": false,
      "inputs": [
        {
          "indexed": false,
          "internalType": "uint256",
          "name": "oldRepayFee",
          "type": "uint256"
        },
        {
          "indexed": false,
          "internalType": "uint256",
          "name": "newRepayFee",
          "type": "uint256"
        }
      ],
      "name": "RepayFeeUpdated",
      "type": "event"
    },
    {
      "anonymous": false,
      "inputs": [
        {
          "indexed": false,
          "internalType": "contract IRewardsDistributor",
          "name": "_distributor",
          "type": "address"
        }
      ],
      "name": "RewardsDistributorAdded",
      "type": "event"
    },
    {
      "anonymous": false,
      "inputs": [
        {
          "indexed": false,
          "internalType": "address",
          "name": "account",
          "type": "address"
        }
      ],
      "name": "Shutdown",
      "type": "event"
    },
    {
      "anonymous": false,
      "inputs": [
        {
          "indexed": false,
          "internalType": "uint256",
          "name": "oldSwapFee",
          "type": "uint256"
        },
        {
          "indexed": false,
          "internalType": "uint256",
          "name": "newSwapFee",
          "type": "uint256"
        }
      ],
      "name": "SwapFeeUpdated",
      "type": "event"
    },
    {
      "anonymous": false,
      "inputs": [
        {
          "indexed": true,
          "internalType": "address",
          "name": "syntheticToken",
          "type": "address"
        }
      ],
      "name": "SyntheticTokenAdded",
      "type": "event"
    },
    {
      "anonymous": false,
      "inputs": [
        {
          "indexed": true,
          "internalType": "contract ISyntheticToken",
          "name": "syntheticToken",
          "type": "address"
        }
      ],
      "name": "SyntheticTokenRemoved",
      "type": "event"
    },
    {
      "anonymous": false,
      "inputs": [
        {
          "indexed": true,
          "internalType": "address",
          "name": "account",
          "type": "address"
        },
        {
          "indexed": true,
          "internalType": "contract ISyntheticToken",
          "name": "syntheticTokenIn",
          "type": "address"
        },
        {
          "indexed": true,
          "internalType": "contract ISyntheticToken",
          "name": "syntheticTokenOut",
          "type": "address"
        },
        {
          "indexed": false,
          "internalType": "uint256",
          "name": "amountIn",
          "type": "uint256"
        },
        {
          "indexed": false,
          "internalType": "uint256",
          "name": "amountOut",
          "type": "uint256"
        },
        {
          "indexed": false,
          "internalType": "uint256",
          "name": "fee",
          "type": "uint256"
        }
      ],
      "name": "SyntheticTokenSwapped",
      "type": "event"
    },
    {
      "anonymous": false,
      "inputs": [
        {
          "indexed": true,
          "internalType": "contract ITreasury",
          "name": "oldTreasury",
          "type": "address"
        },
        {
          "indexed": true,
          "internalType": "contract ITreasury",
          "name": "newTreasury",
          "type": "address"
        }
      ],
      "name": "TreasuryUpdated",
      "type": "event"
    },
    {
      "anonymous": false,
      "inputs": [
        {
          "indexed": false,
          "internalType": "address",
          "name": "account",
          "type": "address"
        }
      ],
      "name": "Unpaused",
      "type": "event"
    },
    {
      "anonymous": false,
      "inputs": [
        {
          "indexed": true,
          "internalType": "address",
          "name": "previousGovernor",
          "type": "address"
        },
        {
          "indexed": true,
          "internalType": "address",
          "name": "proposedGovernor",
          "type": "address"
        }
      ],
      "name": "UpdatedGovernor",
      "type": "event"
    },
    {
      "anonymous": false,
      "inputs": [
        {
          "indexed": false,
          "internalType": "uint256",
          "name": "oldWithdrawFee",
          "type": "uint256"
        },
        {
          "indexed": false,
          "internalType": "uint256",
          "name": "newWithdrawFee",
          "type": "uint256"
        }
      ],
      "name": "WithdrawFeeUpdated",
      "type": "event"
    },
    {
      "stateMutability": "payable",
      "type": "fallback"
    },
    {
      "inputs": [],
      "name": "VERSION",
      "outputs": [
        {
          "internalType": "string",
          "name": "",
          "type": "string"
        }
      ],
      "stateMutability": "view",
      "type": "function"
    },
    {
      "inputs": [],
      "name": "acceptGovernorship",
      "outputs": [],
      "stateMutability": "nonpayable",
      "type": "function"
    },
    {
      "inputs": [
        {
          "internalType": "address",
          "name": "_depositToken",
          "type": "address"
        }
      ],
      "name": "addDepositToken",
      "outputs": [],
      "stateMutability": "nonpayable",
      "type": "function"
    },
    {
      "inputs": [
        {
          "internalType": "contract IRewardsDistributor",
          "name": "_distributor",
          "type": "address"
        }
      ],
      "name": "addRewardsDistributor",
      "outputs": [],
      "stateMutability": "nonpayable",
      "type": "function"
    },
    {
      "inputs": [
        {
          "internalType": "address",
          "name": "_syntheticToken",
          "type": "address"
        }
      ],
      "name": "addSyntheticToken",
      "outputs": [],
      "stateMutability": "nonpayable",
      "type": "function"
    },
    {
      "inputs": [
        {
          "internalType": "address",
          "name": "_account",
          "type": "address"
        }
      ],
      "name": "addToDebtTokensOfAccount",
      "outputs": [],
      "stateMutability": "nonpayable",
      "type": "function"
    },
    {
      "inputs": [
        {
          "internalType": "address",
          "name": "_account",
          "type": "address"
        }
      ],
      "name": "addToDepositTokensOfAccount",
      "outputs": [],
      "stateMutability": "nonpayable",
      "type": "function"
    },
    {
      "inputs": [],
      "name": "debtFloorInUsd",
      "outputs": [
        {
          "internalType": "uint256",
          "name": "",
          "type": "uint256"
        }
      ],
      "stateMutability": "view",
      "type": "function"
    },
    {
      "inputs": [
        {
          "internalType": "address",
          "name": "_account",
          "type": "address"
        }
      ],
      "name": "debtOf",
      "outputs": [
        {
          "internalType": "uint256",
          "name": "_debtInUsd",
          "type": "uint256"
        }
      ],
      "stateMutability": "view",
      "type": "function"
    },
    {
      "inputs": [
        {
          "internalType": "address",
          "name": "_account",
          "type": "address"
        }
      ],
      "name": "debtPositionOf",
      "outputs": [
        {
          "internalType": "bool",
          "name": "_isHealthy",
          "type": "bool"
        },
        {
          "internalType": "uint256",
          "name": "_depositInUsd",
          "type": "uint256"
        },
        {
          "internalType": "uint256",
          "name": "_debtInUsd",
          "type": "uint256"
        },
        {
          "internalType": "uint256",
          "name": "_issuableLimitInUsd",
          "type": "uint256"
        },
        {
          "internalType": "uint256",
          "name": "_issuableInUsd",
          "type": "uint256"
        }
      ],
      "stateMutability": "view",
      "type": "function"
    },
    {
      "inputs": [],
      "name": "depositFee",
      "outputs": [
        {
          "internalType": "uint256",
          "name": "",
          "type": "uint256"
        }
      ],
      "stateMutability": "view",
      "type": "function"
    },
    {
      "inputs": [
        {
          "internalType": "address",
          "name": "_account",
          "type": "address"
        }
      ],
      "name": "depositOf",
      "outputs": [
        {
          "internalType": "uint256",
          "name": "_depositInUsd",
          "type": "uint256"
        },
        {
          "internalType": "uint256",
          "name": "_issuableLimitInUsd",
          "type": "uint256"
        }
      ],
      "stateMutability": "view",
      "type": "function"
    },
    {
      "inputs": [
        {
          "internalType": "contract IERC20",
          "name": "",
          "type": "address"
        }
      ],
      "name": "depositTokenOf",
      "outputs": [
        {
          "internalType": "contract IDepositToken",
          "name": "",
          "type": "address"
        }
      ],
      "stateMutability": "view",
      "type": "function"
    },
    {
      "inputs": [],
      "name": "everythingStopped",
      "outputs": [
        {
          "internalType": "bool",
          "name": "",
          "type": "bool"
        }
      ],
      "stateMutability": "view",
      "type": "function"
    },
    {
      "inputs": [
        {
          "internalType": "address",
          "name": "_account",
          "type": "address"
        }
      ],
      "name": "getDebtTokensOfAccount",
      "outputs": [
        {
          "internalType": "address[]",
          "name": "",
          "type": "address[]"
        }
      ],
      "stateMutability": "view",
      "type": "function"
    },
    {
      "inputs": [],
      "name": "getDepositTokens",
      "outputs": [
        {
          "internalType": "address[]",
          "name": "",
          "type": "address[]"
        }
      ],
      "stateMutability": "view",
      "type": "function"
    },
    {
      "inputs": [
        {
          "internalType": "address",
          "name": "_account",
          "type": "address"
        }
      ],
      "name": "getDepositTokensOfAccount",
      "outputs": [
        {
          "internalType": "address[]",
          "name": "",
          "type": "address[]"
        }
      ],
      "stateMutability": "view",
      "type": "function"
    },
    {
      "inputs": [],
      "name": "getRewardsDistributors",
      "outputs": [
        {
          "internalType": "contract IRewardsDistributor[]",
          "name": "",
          "type": "address[]"
        }
      ],
      "stateMutability": "view",
      "type": "function"
    },
    {
      "inputs": [],
      "name": "getSyntheticTokens",
      "outputs": [
        {
          "internalType": "address[]",
          "name": "",
          "type": "address[]"
        }
      ],
      "stateMutability": "view",
      "type": "function"
    },
    {
      "inputs": [],
      "name": "governor",
      "outputs": [
        {
          "internalType": "address",
          "name": "",
          "type": "address"
        }
      ],
      "stateMutability": "view",
      "type": "function"
    },
    {
      "inputs": [
        {
          "internalType": "contract IMasterOracle",
          "name": "_masterOracle",
          "type": "address"
        }
      ],
      "name": "initialize",
      "outputs": [],
      "stateMutability": "nonpayable",
      "type": "function"
    },
    {
      "inputs": [
        {
          "internalType": "contract IDepositToken",
          "name": "_depositToken",
          "type": "address"
        }
      ],
      "name": "isDepositTokenExists",
      "outputs": [
        {
          "internalType": "bool",
          "name": "",
          "type": "bool"
        }
      ],
      "stateMutability": "view",
      "type": "function"
    },
    {
      "inputs": [
        {
          "internalType": "contract ISyntheticToken",
          "name": "_syntheticToken",
          "type": "address"
        }
      ],
      "name": "isSyntheticTokenExists",
      "outputs": [
        {
          "internalType": "bool",
          "name": "",
          "type": "bool"
        }
      ],
      "stateMutability": "view",
      "type": "function"
    },
    {
      "inputs": [],
      "name": "issueFee",
      "outputs": [
        {
          "internalType": "uint256",
          "name": "",
          "type": "uint256"
        }
      ],
      "stateMutability": "view",
      "type": "function"
    },
    {
      "inputs": [
        {
          "internalType": "contract ISyntheticToken",
          "name": "_syntheticToken",
          "type": "address"
        },
        {
          "internalType": "address",
          "name": "_account",
          "type": "address"
        },
        {
          "internalType": "uint256",
          "name": "_amountToRepay",
          "type": "uint256"
        },
        {
          "internalType": "contract IDepositToken",
          "name": "_depositToken",
          "type": "address"
        }
      ],
      "name": "liquidate",
      "outputs": [],
      "stateMutability": "nonpayable",
      "type": "function"
    },
    {
      "inputs": [],
      "name": "liquidatorLiquidationFee",
      "outputs": [
        {
          "internalType": "uint256",
          "name": "",
          "type": "uint256"
        }
      ],
      "stateMutability": "view",
      "type": "function"
    },
    {
      "inputs": [],
      "name": "masterOracle",
      "outputs": [
        {
          "internalType": "contract IMasterOracle",
          "name": "",
          "type": "address"
        }
      ],
      "stateMutability": "view",
      "type": "function"
    },
    {
      "inputs": [],
      "name": "maxLiquidable",
      "outputs": [
        {
          "internalType": "uint256",
          "name": "",
          "type": "uint256"
        }
      ],
      "stateMutability": "view",
      "type": "function"
    },
    {
      "inputs": [],
      "name": "open",
      "outputs": [],
      "stateMutability": "nonpayable",
      "type": "function"
    },
    {
      "inputs": [],
      "name": "pause",
      "outputs": [],
      "stateMutability": "nonpayable",
      "type": "function"
    },
    {
      "inputs": [],
      "name": "paused",
      "outputs": [
        {
          "internalType": "bool",
          "name": "",
          "type": "bool"
        }
      ],
      "stateMutability": "view",
      "type": "function"
    },
    {
      "inputs": [],
      "name": "proposedGovernor",
      "outputs": [
        {
          "internalType": "address",
          "name": "",
          "type": "address"
        }
      ],
      "stateMutability": "view",
      "type": "function"
    },
    {
      "inputs": [],
      "name": "protocolLiquidationFee",
      "outputs": [
        {
          "internalType": "uint256",
          "name": "",
          "type": "uint256"
        }
      ],
      "stateMutability": "view",
      "type": "function"
    },
    {
      "inputs": [
        {
          "internalType": "contract IDepositToken",
          "name": "_depositToken",
          "type": "address"
        }
      ],
      "name": "removeDepositToken",
      "outputs": [],
      "stateMutability": "nonpayable",
      "type": "function"
    },
    {
      "inputs": [
        {
          "internalType": "address",
          "name": "_account",
          "type": "address"
        }
      ],
      "name": "removeFromDebtTokensOfAccount",
      "outputs": [],
      "stateMutability": "nonpayable",
      "type": "function"
    },
    {
      "inputs": [
        {
          "internalType": "address",
          "name": "_account",
          "type": "address"
        }
      ],
      "name": "removeFromDepositTokensOfAccount",
      "outputs": [],
      "stateMutability": "nonpayable",
      "type": "function"
    },
    {
      "inputs": [
        {
          "internalType": "contract ISyntheticToken",
          "name": "_syntheticToken",
          "type": "address"
        }
      ],
      "name": "removeSyntheticToken",
      "outputs": [],
      "stateMutability": "nonpayable",
      "type": "function"
    },
    {
      "inputs": [],
      "name": "repayFee",
      "outputs": [
        {
          "internalType": "uint256",
          "name": "",
          "type": "uint256"
        }
      ],
      "stateMutability": "view",
      "type": "function"
    },
    {
      "inputs": [],
      "name": "shutdown",
      "outputs": [],
      "stateMutability": "nonpayable",
      "type": "function"
    },
    {
      "inputs": [
        {
          "internalType": "contract ISyntheticToken",
          "name": "_syntheticTokenIn",
          "type": "address"
        },
        {
          "internalType": "contract ISyntheticToken",
          "name": "_syntheticTokenOut",
          "type": "address"
        },
        {
          "internalType": "uint256",
          "name": "_amountIn",
          "type": "uint256"
        }
      ],
      "name": "swap",
      "outputs": [
        {
          "internalType": "uint256",
          "name": "_amountOut",
          "type": "uint256"
        }
      ],
      "stateMutability": "nonpayable",
      "type": "function"
    },
    {
      "inputs": [],
      "name": "swapFee",
      "outputs": [
        {
          "internalType": "uint256",
          "name": "",
          "type": "uint256"
        }
      ],
      "stateMutability": "view",
      "type": "function"
    },
    {
      "inputs": [
        {
          "internalType": "contract IERC20",
          "name": "_token",
          "type": "address"
        },
        {
          "internalType": "address",
          "name": "_to",
          "type": "address"
        },
        {
          "internalType": "uint256",
          "name": "_amount",
          "type": "uint256"
        }
      ],
      "name": "sweep",
      "outputs": [],
      "stateMutability": "nonpayable",
      "type": "function"
    },
    {
      "inputs": [
        {
          "internalType": "address",
          "name": "_proposedGovernor",
          "type": "address"
        }
      ],
      "name": "transferGovernorship",
      "outputs": [],
      "stateMutability": "nonpayable",
      "type": "function"
    },
    {
      "inputs": [],
      "name": "treasury",
      "outputs": [
        {
          "internalType": "contract ITreasury",
          "name": "",
          "type": "address"
        }
      ],
      "stateMutability": "view",
      "type": "function"
    },
    {
      "inputs": [],
      "name": "unpause",
      "outputs": [],
      "stateMutability": "nonpayable",
      "type": "function"
    },
    {
      "inputs": [
        {
          "internalType": "uint256",
          "name": "_newDebtFloorInUsd",
          "type": "uint256"
        }
      ],
      "name": "updateDebtFloor",
      "outputs": [],
      "stateMutability": "nonpayable",
      "type": "function"
    },
    {
      "inputs": [
        {
          "internalType": "uint256",
          "name": "_newDepositFee",
          "type": "uint256"
        }
      ],
      "name": "updateDepositFee",
      "outputs": [],
      "stateMutability": "nonpayable",
      "type": "function"
    },
    {
      "inputs": [
        {
          "internalType": "uint256",
          "name": "_newIssueFee",
          "type": "uint256"
        }
      ],
      "name": "updateIssueFee",
      "outputs": [],
      "stateMutability": "nonpayable",
      "type": "function"
    },
    {
      "inputs": [
        {
          "internalType": "uint256",
          "name": "_newLiquidatorLiquidationFee",
          "type": "uint256"
        }
      ],
      "name": "updateLiquidatorLiquidationFee",
      "outputs": [],
      "stateMutability": "nonpayable",
      "type": "function"
    },
    {
      "inputs": [
        {
          "internalType": "contract IMasterOracle",
          "name": "_newMasterOracle",
          "type": "address"
        }
      ],
      "name": "updateMasterOracle",
      "outputs": [],
      "stateMutability": "nonpayable",
      "type": "function"
    },
    {
      "inputs": [
        {
          "internalType": "uint256",
          "name": "_newMaxLiquidable",
          "type": "uint256"
        }
      ],
      "name": "updateMaxLiquidable",
      "outputs": [],
      "stateMutability": "nonpayable",
      "type": "function"
    },
    {
      "inputs": [
        {
          "internalType": "uint256",
          "name": "_newProtocolLiquidationFee",
          "type": "uint256"
        }
      ],
      "name": "updateProtocolLiquidationFee",
      "outputs": [],
      "stateMutability": "nonpayable",
      "type": "function"
    },
    {
      "inputs": [
        {
          "internalType": "uint256",
          "name": "_newRepayFee",
          "type": "uint256"
        }
      ],
      "name": "updateRepayFee",
      "outputs": [],
      "stateMutability": "nonpayable",
      "type": "function"
    },
    {
      "inputs": [
        {
          "internalType": "uint256",
          "name": "_newSwapFee",
          "type": "uint256"
        }
      ],
      "name": "updateSwapFee",
      "outputs": [],
      "stateMutability": "nonpayable",
      "type": "function"
    },
    {
      "inputs": [
        {
          "internalType": "contract ITreasury",
          "name": "_newTreasury",
          "type": "address"
        },
        {
          "internalType": "bool",
          "name": "_withMigration",
          "type": "bool"
        }
      ],
      "name": "updateTreasury",
      "outputs": [],
      "stateMutability": "nonpayable",
      "type": "function"
    },
    {
      "inputs": [
        {
          "internalType": "uint256",
          "name": "_newWithdrawFee",
          "type": "uint256"
        }
      ],
      "name": "updateWithdrawFee",
      "outputs": [],
      "stateMutability": "nonpayable",
      "type": "function"
    },
    {
      "inputs": [],
      "name": "withdrawFee",
      "outputs": [
        {
          "internalType": "uint256",
          "name": "",
          "type": "uint256"
        }
      ],
      "stateMutability": "view",
      "type": "function"
    },
    {
      "stateMutability": "payable",
      "type": "receive"
    }
  ],
  "transactionHash": "0xab9acb934447f10abd22ab692ab87eba87648a55d85ea7a6f9558d921651dc2a",
  "args": [],
  "numDeployments": 1,
  "solcInputHash": "d8b118bc2b869f1cad3e67e355255d78",
  "bytecode": "0x608060405234801561001057600080fd5b50600280546001600160a01b0319163390811790915560405181906000907fd4459d5b8b913cab0244230fd9b1c08b6ceace7fe9230e60d0f74cbffdf849d0908290a3506145e0806100636000396000f3fe6080604052600436106102fa5760003560e01c80638456cb5911610191578063dbe466b1116100e2578063f0c80d3b11610090578063f0c80d3b146109bf578063f36c7d98146109df578063f3b27bc3146109ff578063f609280914610a14578063fb01600d14610a2a578063fc0e74d114610a3f578063fcfff16f14610a54578063ffa1ad7414610a6957610342565b8063dbe466b1146108c8578063dde3ab95146108e8578063df791e5014610932578063e941fa7814610952578063eaada38214610968578063eafecffa14610988578063ecf3a3f91461099e57610342565b8063b2d90ebb1161013f578063b2d90ebb146107f2578063b6aa515b14610808578063bf16f65a14610828578063c4d66de814610848578063d176e05f14610868578063d283e75f14610888578063daf635de146108a857610342565b80638456cb591461070757806384d6f1ce1461071c57806387cddc861461073c57806388156a35146107725780638a11a37014610792578063a20f37e7146107b2578063abc9b45e146107d257610342565b806356aaee2d1161024b578063681390e6116101f9578063681390e61461063c57806375c6f8ec14610651578063770b69b41461067157806379e40cba146106915780637c0f59f4146106b15780637c7d7484146106c75780637d355163146106e757610342565b806356aaee2d1461056557806357f2e581146105855780635c975abb146105a557806361d027b3146105c657806362c06767146105e657806364831b311461060657806367a527931461062657610342565b80633605b51b116102a85780633605b51b146104885780633af5be47146104aa5780633de2f6b2146104da5780633f4ba83a146104fa5780633f5fc1311461050f5780634dfb65181461052f57806354cf2aeb1461054f57610342565b8063017def57146103815780630c340a24146103a35780631a4660ce146103d957806323e3fbd5146103f9578063275038d01461042e5780632a9133c11461044e5780632dd6adb51461047257610342565b366103425760405162461bcd60e51b81526020600482015260136024820152721c9958d95a5d994b5b9bdd0b585b1b1bddd959606a1b60448201526064015b60405180910390fd5b60405162461bcd60e51b815260206004820152601460248201527319985b1b189858dacb5b9bdd0b585b1b1bddd95960621b6044820152606401610339565b34801561038d57600080fd5b506103a161039c366004613faf565b610aa7565b005b3480156103af57600080fd5b506002546103c3906001600160a01b031681565b6040516103d09190613fc8565b60405180910390f35b3480156103e557600080fd5b506103a16103f4366004613faf565b610b5b565b34801561040557600080fd5b50610419610414366004613ff1565b610be7565b604080519283526020830191909152016103d0565b34801561043a57600080fd5b506103a1610449366004613ff1565b610dbe565b34801561045a57600080fd5b5061046460065481565b6040519081526020016103d0565b34801561047e57600080fd5b50610464600c5481565b34801561049457600080fd5b5061049d610e12565b6040516103d0919061400e565b3480156104b657600080fd5b506104ca6104c5366004613ff1565b610e74565b60405190151581526020016103d0565b3480156104e657600080fd5b506103a16104f536600461405b565b610e87565b34801561050657600080fd5b506103a161161e565b34801561051b57600080fd5b506103a161052a366004613ff1565b6116ff565b34801561053b57600080fd5b506104ca61054a366004613ff1565b61174c565b34801561055b57600080fd5b5061046460095481565b34801561057157600080fd5b506103a1610580366004613ff1565b611759565b34801561059157600080fd5b506103a16105a0366004613faf565b6118c2565b3480156105b157600080fd5b506003546104ca90600160a01b900460ff1681565b3480156105d257600080fd5b50600e546103c3906001600160a01b031681565b3480156105f257600080fd5b506103a16106013660046140ae565b611976565b34801561061257600080fd5b506103a1610621366004613faf565b6119af565b34801561063257600080fd5b5061046460055481565b34801561064857600080fd5b5061049d611a63565b34801561065d57600080fd5b506103a161066c366004613ff1565b611a74565b34801561067d57600080fd5b506103a161068c366004613ff1565b611bf3565b34801561069d57600080fd5b506103a16106ac366004613ff1565b611d68565b3480156106bd57600080fd5b5061046460085481565b3480156106d357600080fd5b506103a16106e23660046140fd565b611eb5565b3480156106f357600080fd5b5061049d610702366004613ff1565b611ffe565b34801561071357600080fd5b506103a161200b565b34801561072857600080fd5b506103a1610737366004613faf565b6120b3565b34801561074857600080fd5b506103c3610757366004613ff1565b6011602052600090815260409020546001600160a01b031681565b34801561077e57600080fd5b506103a161078d366004613faf565b612167565b34801561079e57600080fd5b506003546103c3906001600160a01b031681565b3480156107be57600080fd5b506103a16107cd366004613ff1565b61221b565b3480156107de57600080fd5b506103a16107ed366004613ff1565b6122ec565b3480156107fe57600080fd5b50610464600a5481565b34801561081457600080fd5b506103a1610823366004613ff1565b6123cf565b34801561083457600080fd5b506103a1610843366004613faf565b61246d565b34801561085457600080fd5b506103a1610863366004613ff1565b612521565b34801561087457600080fd5b5061049d610883366004613ff1565b612639565b34801561089457600080fd5b506104646108a3366004613ff1565b612646565b3480156108b457600080fd5b506103a16108c3366004613faf565b612806565b3480156108d457600080fd5b506103a16108e3366004613ff1565b6128ba565b3480156108f457600080fd5b50610908610903366004613ff1565b612a8f565b6040805195151586526020860194909452928401919091526060830152608082015260a0016103d0565b34801561093e57600080fd5b5061046461094d3660046140ae565b612ad9565b34801561095e57600080fd5b5061046460075481565b34801561097457600080fd5b50600d546103c3906001600160a01b031681565b34801561099457600080fd5b50610464600b5481565b3480156109aa57600080fd5b506003546104ca90600160a81b900460ff1681565b3480156109cb57600080fd5b506103a16109da366004613faf565b61301c565b3480156109eb57600080fd5b506103a16109fa366004613ff1565b6130d0565b348015610a0b57600080fd5b506103a1613364565b348015610a2057600080fd5b5061046460045481565b348015610a3657600080fd5b5061049d613420565b348015610a4b57600080fd5b506103a161342c565b348015610a6057600080fd5b506103a16134bc565b348015610a7557600080fd5b50610a9a604051806040016040528060058152602001640312e302e360dc1b81525081565b6040516103d09190614166565b6002546001600160a01b03163314610ad15760405162461bcd60e51b815260040161033990614199565b670de0b6b3a7640000811115610af95760405162461bcd60e51b8152600401610339906141bf565b60055481811415610b1c5760405162461bcd60e51b8152600401610339906141e4565b60408051828152602081018490527f828cf983933545af35b9ba46eec951db1cb4c5433c3ec403aeced2963c264790910160405180910390a150600555565b6002546001600160a01b03163314610b855760405162461bcd60e51b815260040161033990614199565b60045481811415610ba85760405162461bcd60e51b8152600401610339906141e4565b60408051828152602081018490527f0662703672e57800b9439de3a419c9155283ad25ea7776c139c876bd8b93bb98910160405180910390a150600455565b60008080610bf6601485613562565b905060005b81811015610db7576000610c1160148784613583565b600d546040516370a0823160e01b81529192506000916001600160a01b0391821691638d0dba009185918216906370a0823190610c52908d90600401613fc8565b60206040518083038186803b158015610c6a57600080fd5b505afa158015610c7e573d6000803e3d6000fd5b505050506040513d601f19601f82011682018060405250810190610ca29190614211565b6040518363ffffffff1660e01b8152600401610cbf92919061422a565b60206040518083038186803b158015610cd757600080fd5b505afa158015610ceb573d6000803e3d6000fd5b505050506040513d601f19601f82011682018060405250810190610d0f9190614211565b9050610d1b8187614259565b9550610d98826001600160a01b031663dcaf9c446040518163ffffffff1660e01b815260040160206040518083038186803b158015610d5957600080fd5b505afa158015610d6d573d6000803e3d6000fd5b505050506040513d601f19601f82011682018060405250810190610d919190614211565b8290613598565b610da29086614259565b9450505080610db090614271565b9050610bfb565b5050915091565b610dcb335b600f906135e4565b610de75760405162461bcd60e51b81526004016103399061428c565b610df360148233613606565b610e0f5760405162461bcd60e51b8152600401610339906142c3565b50565b60606016805480602002602001604051908101604052809291908181526020018280548015610e6a57602002820191906000526020600020905b81546001600160a01b03168152600190910190602001808311610e4c575b5050505050905090565b6000610e81600f836135e4565b92915050565b600354600160a81b900460ff1615610eb15760405162461bcd60e51b8152600401610339906142fa565b60026001541415610ed45760405162461bcd60e51b81526004016103399061431c565b600260015580610ee381610e74565b610eff5760405162461bcd60e51b815260040161033990614353565b60008311610f405760405162461bcd60e51b815260206004820152600e60248201526d616d6f756e742d69732d7a65726f60901b6044820152606401610339565b336001600160a01b038516811415610f9a5760405162461bcd60e51b815260206004820152601e60248201527f63616e2d6e6f742d6c69717569646174652d6f776e2d706f736974696f6e00006044820152606401610339565b856001600160a01b031663a6afed956040518163ffffffff1660e01b8152600401600060405180830381600087803b158015610fd557600080fd5b505af1158015610fe9573d6000803e3d6000fd5b505050506000610ff886612a8f565b50505050905080156110425760405162461bcd60e51b8152602060048201526013602482015272706f736974696f6e2d69732d6865616c74687960681b6044820152606401610339565b6000876001600160a01b031663f8d898986040518163ffffffff1660e01b815260040160206040518083038186803b15801561107d57600080fd5b505afa158015611091573d6000803e3d6000fd5b505050506040513d601f19601f820116820180604052508101906110b59190614382565b90506000816001600160a01b03166370a08231896040518263ffffffff1660e01b81526004016110e59190613fc8565b60206040518083038186803b1580156110fd57600080fd5b505afa158015611111573d6000803e3d6000fd5b505050506040513d601f19601f820116820180604052508101906111359190614211565b600c549091506111458883613613565b111561118e5760405162461bcd60e51b8152602060048201526018602482015277616d6f756e742d67742d6d61782d6c697175696461626c6560401b6044820152606401610339565b6004541561127b57600d546000906001600160a01b0316638d0dba008b6111b58b8661439f565b6040518363ffffffff1660e01b81526004016111d292919061422a565b60206040518083038186803b1580156111ea57600080fd5b505afa1580156111fe573d6000803e3d6000fd5b505050506040513d601f19601f820116820180604052508101906112229190614211565b905080158061123357506004548110155b6112795760405162461bcd60e51b81526020600482015260176024820152763932b6b0b4b734b73396b232b13a16b63a16b33637b7b960491b6044820152606401610339565b505b600d54604051632d9198e160e21b81526000916001600160a01b03169063b6466384906112b0908d908b908d906004016143b6565b60206040518083038186803b1580156112c857600080fd5b505afa1580156112dc573d6000803e3d6000fd5b505050506040513d601f19601f820116820180604052508101906113009190614211565b9050600080600b5411611314576000611322565b600b54611322908390613598565b90506000611346600a54670de0b6b3a764000061133f9190614259565b8490613598565b905060006113548284614259565b6040516370a0823160e01b81529091506001600160a01b038b16906370a0823190611383908f90600401613fc8565b60206040518083038186803b15801561139b57600080fd5b505afa1580156113af573d6000803e3d6000fd5b505050506040513d601f19601f820116820180604052508101906113d39190614211565b8111156114145760405162461bcd60e51b815260206004820152600f60248201526e0c2dadeeadce85ae8dede5ad0d2ced608b1b6044820152606401610339565b604051632770a7eb60e21b81526001600160a01b038e1690639dc29fac90611442908b908f9060040161422a565b600060405180830381600087803b15801561145c57600080fd5b505af1158015611470573d6000803e3d6000fd5b5050604051632770a7eb60e21b81526001600160a01b0389169250639dc29fac91506114a2908f908f9060040161422a565b600060405180830381600087803b1580156114bc57600080fd5b505af11580156114d0573d6000803e3d6000fd5b505060405163b2a02ff160e01b81526001600160a01b038d16925063b2a02ff19150611504908f908c9087906004016143b6565b600060405180830381600087803b15801561151e57600080fd5b505af1158015611532573d6000803e3d6000fd5b5050505060008311156115b757896001600160a01b031663b2a02ff18d600e60009054906101000a90046001600160a01b0316866040518463ffffffff1660e01b8152600401611584939291906143b6565b600060405180830381600087803b15801561159e57600080fd5b505af11580156115b2573d6000803e3d6000fd5b505050505b604080518c8152602081018390529081018490526001600160a01b03808f16918e8216918b16907fe1c3870e3d7d5199a16d200133088e6e3f7012d28571e442a110b4c83b5e3b949060600160405180910390a45050600180555050505050505050505050565b600354600160a01b900460ff166116645760405162461bcd60e51b815260206004820152600a6024820152691b9bdd0b5c185d5cd95960b21b6044820152606401610339565b600354600160a81b900460ff161561168e5760405162461bcd60e51b8152600401610339906142fa565b6002546001600160a01b031633146116b85760405162461bcd60e51b815260040161033990614199565b6003805460ff60a01b191690557f5db9ee0a495bf2e6ff9c91a7834c1ba4fdd244a5e8aa4e537bd38aeae4b073aa335b6040516116f59190613fc8565b60405180910390a1565b61170833610dc3565b6117245760405162461bcd60e51b81526004016103399061428c565b61173060148233613633565b610e0f5760405162461bcd60e51b8152600401610339906143da565b6000610e816012836135e4565b6002546001600160a01b031633146117835760405162461bcd60e51b815260040161033990614199565b6001600160a01b0381166117a95760405162461bcd60e51b815260040161033990614408565b60005b60165481101561183b57601681815481106117c9576117c9614431565b6000918252602090912001546001600160a01b03838116911614156118295760405162461bcd60e51b815260206004820152601660248201527518dbdb9d1c9858dd0b585b1c9958591e4b585919195960521b6044820152606401610339565b8061183381614271565b9150506117ac565b50601680546001810182556000919091527fd833147d7dc355ba459fc788f669e58cfaf9dc25ddcd0702e87d69c7b51242890180546001600160a01b0319166001600160a01b0383161790556040517f5579b1eead2d904c2b05255a92f5a4a4f3e234ae0a4efe538adef3c1794e1cea906118b7908390613fc8565b60405180910390a150565b6002546001600160a01b031633146118ec5760405162461bcd60e51b815260040161033990614199565b670de0b6b3a76400008111156119145760405162461bcd60e51b8152600401610339906141bf565b600654818114156119375760405162461bcd60e51b8152600401610339906141e4565b60408051828152602081018490527f7aef17a0caeda11810cdf2a40c79ac1340553588671fb35d5cc8d0a3fe2883be910160405180910390a150600655565b61197e613640565b6001600160a01b03831661199b57611996828261366c565b505050565b6119966001600160a01b0384168383613785565b6002546001600160a01b031633146119d95760405162461bcd60e51b815260040161033990614199565b670de0b6b3a7640000811115611a015760405162461bcd60e51b8152600401610339906141bf565b600a5481811415611a245760405162461bcd60e51b8152600401610339906141e4565b60408051828152602081018490527f457d9e7f8f7a13610e084de82e6b40a65eddd57ff51a358ef64e1199c37c676a910160405180910390a150600a55565b6060611a6f60126137db565b905090565b6000336001600160a01b0316638230ecd66040518163ffffffff1660e01b815260040160206040518083038186803b158015611aaf57600080fd5b505afa158015611ac3573d6000803e3d6000fd5b505050506040513d601f19601f82011682018060405250810190611ae79190614382565b9050611af46012826135e4565b8015611b815750806001600160a01b031663f8d898986040518163ffffffff1660e01b815260040160206040518083038186803b158015611b3457600080fd5b505afa158015611b48573d6000803e3d6000fd5b505050506040513d601f19601f82011682018060405250810190611b6c9190614382565b6001600160a01b0316336001600160a01b0316145b611b9d5760405162461bcd60e51b815260040161033990614447565b611ba960158333613606565b611bef5760405162461bcd60e51b81526020600482015260176024820152761919589d0b5d1bdad95b8b591bd95cdb9d0b595e1a5cdd604a1b6044820152606401610339565b5050565b6000336001600160a01b0316638230ecd66040518163ffffffff1660e01b815260040160206040518083038186803b158015611c2e57600080fd5b505afa158015611c42573d6000803e3d6000fd5b505050506040513d601f19601f82011682018060405250810190611c669190614382565b9050611c736012826135e4565b8015611d005750806001600160a01b031663f8d898986040518163ffffffff1660e01b815260040160206040518083038186803b158015611cb357600080fd5b505afa158015611cc7573d6000803e3d6000fd5b505050506040513d601f19601f82011682018060405250810190611ceb9190614382565b6001600160a01b0316336001600160a01b0316145b611d1c5760405162461bcd60e51b815260040161033990614447565b611d2860158333613633565b611bef5760405162461bcd60e51b8152602060048201526011602482015270646562742d746f6b656e2d65786973747360781b6044820152606401610339565b6002546001600160a01b03163314611d925760405162461bcd60e51b815260040161033990614199565b6001600160a01b038116611db85760405162461bcd60e51b815260040161033990614408565b611dc3600f826137e8565b611ddf5760405162461bcd60e51b8152600401610339906143da565b8060116000836001600160a01b0316636f307dc36040518163ffffffff1660e01b815260040160206040518083038186803b158015611e1d57600080fd5b505afa158015611e31573d6000803e3d6000fd5b505050506040513d601f19601f82011682018060405250810190611e559190614382565b6001600160a01b03908116825260208201929092526040908101600090812080546001600160a01b0319169484169490941790935551908316917fdc705e658c7b6c6c01f5802457bf4ffb99f204bf1603e7b1ae3d4c7536611bc291a250565b6002546001600160a01b03163314611edf5760405162461bcd60e51b815260040161033990614199565b6001600160a01b038216611f055760405162461bcd60e51b815260040161033990614408565b600e546001600160a01b03908116908316811415611f355760405162461bcd60e51b8152600401610339906141e4565b8115611f9a576040516326ed7c7960e11b81526001600160a01b03821690634ddaf8f290611f67908690600401613fc8565b600060405180830381600087803b158015611f8157600080fd5b505af1158015611f95573d6000803e3d6000fd5b505050505b826001600160a01b0316816001600160a01b03167f4ab5be82436d353e61ca18726e984e561f5c1cc7c6d38b29d2553c790434705a60405160405180910390a35050600e80546001600160a01b0319166001600160a01b0392909216919091179055565b6060610e816014836137fd565b600354600160a01b900460ff161561204e5760405162461bcd60e51b81526020600482015260066024820152651c185d5cd95960d21b6044820152606401610339565b6002546001600160a01b031633146120785760405162461bcd60e51b815260040161033990614199565b6003805460ff60a01b1916600160a01b1790557f62e78cea01bee320cd4e420270b5ea74000d11b0c9f74754ebdbfc544b05a2586116e83390565b6002546001600160a01b031633146120dd5760405162461bcd60e51b815260040161033990614199565b670de0b6b3a76400008111156121055760405162461bcd60e51b8152600401610339906141bf565b600b54818114156121285760405162461bcd60e51b8152600401610339906141e4565b60408051828152602081018490527fe0dac1dcc46eceed1fdb7416944e7161273637fb346a67d6f0fce8de3e952f2f910160405180910390a150600b55565b6002546001600160a01b031633146121915760405162461bcd60e51b815260040161033990614199565b670de0b6b3a76400008111156121b95760405162461bcd60e51b8152600401610339906141bf565b600854818114156121dc5760405162461bcd60e51b8152600401610339906141e4565b60408051828152602081018490527fdd45ca427fa57d0870314eb55586e91bcdd31d7cd393e3278caaae9dfb749688910160405180910390a150600855565b6002546001600160a01b031633146122455760405162461bcd60e51b815260040161033990614199565b6001600160a01b03811661226b5760405162461bcd60e51b815260040161033990614408565b6122766012826137e8565b6122b55760405162461bcd60e51b815260206004820152601060248201526f73796e7468657469632d65786973747360801b6044820152606401610339565b6040516001600160a01b038216907f6b5a83f4cf73e3df48c170415d0be65d33e1cedc4eecd090d47189119061eb4890600090a250565b6002546001600160a01b031633146123165760405162461bcd60e51b815260040161033990614199565b6001600160a01b03811661233c5760405162461bcd60e51b815260040161033990614408565b600d546001600160a01b0390811690821681141561236c5760405162461bcd60e51b8152600401610339906141e4565b816001600160a01b0316816001600160a01b03167fc96bca3f57d35a1057a3357bced51fac157918147faa56845639671c516ec69c60405160405180910390a350600d80546001600160a01b0319166001600160a01b0392909216919091179055565b6002546001600160a01b031633146123f95760405162461bcd60e51b815260040161033990614199565b6001600160a01b03811661244b5760405162461bcd60e51b815260206004820152601960248201527870726f706f7365642d676f7665726e6f722d69732d7a65726f60381b6044820152606401610339565b600380546001600160a01b0319166001600160a01b0392909216919091179055565b6002546001600160a01b031633146124975760405162461bcd60e51b815260040161033990614199565b670de0b6b3a76400008111156124bf5760405162461bcd60e51b8152600401610339906141bf565b600954818114156124e25760405162461bcd60e51b8152600401610339906141e4565b60408051828152602081018490527fc8273cce54f5cf71712dee009c7e6438ae7e1db578da0ec076cf360af45501b9910160405180910390a150600955565b600054610100900460ff168061253a575060005460ff16155b6125565760405162461bcd60e51b815260040161033990614479565b600054610100900460ff16158015612578576000805461ffff19166101011790555b6001600160a01b0382166125bf5760405162461bcd60e51b815260206004820152600e60248201526d1bdc9858db194b5a5ccb5b9d5b1b60921b6044820152606401610339565b6125c761380b565b6125cf61387a565b600d80546001600160a01b0319166001600160a01b038416179055660aa87bee538000600855661550f7dca7000060095567016345785d8a0000600a5567011c37937e080000600b556706f05b59d3b20000600c558015611bef576000805461ff00191690555050565b6060610e816015836137fd565b600080612654601584613562565b905060005b818110156127ff57600061266f60158684613583565b90506000816001600160a01b0316638230ecd66040518163ffffffff1660e01b815260040160206040518083038186803b1580156126ac57600080fd5b505afa1580156126c0573d6000803e3d6000fd5b505050506040513d601f19601f820116820180604052508101906126e49190614382565b600d546040516370a0823160e01b81529192506001600160a01b0390811691638d0dba00918491908616906370a0823190612723908c90600401613fc8565b60206040518083038186803b15801561273b57600080fd5b505afa15801561274f573d6000803e3d6000fd5b505050506040513d601f19601f820116820180604052508101906127739190614211565b6040518363ffffffff1660e01b815260040161279092919061422a565b60206040518083038186803b1580156127a857600080fd5b505afa1580156127bc573d6000803e3d6000fd5b505050506040513d601f19601f820116820180604052508101906127e09190614211565b6127ea9086614259565b94505050806127f890614271565b9050612659565b5050919050565b6002546001600160a01b031633146128305760405162461bcd60e51b815260040161033990614199565b670de0b6b3a76400008111156128585760405162461bcd60e51b8152600401610339906141bf565b6007548181141561287b5760405162461bcd60e51b8152600401610339906141e4565b60408051828152602081018490527f733071ab8253b372ed26a6d1b04aec71c4bfcd209c93397df32bb77478cdd2c8910160405180910390a150600755565b6002546001600160a01b031633146128e45760405162461bcd60e51b815260040161033990614199565b806128ee81610e74565b61290a5760405162461bcd60e51b815260040161033990614353565b816001600160a01b03166318160ddd6040518163ffffffff1660e01b815260040160206040518083038186803b15801561294357600080fd5b505afa158015612957573d6000803e3d6000fd5b505050506040513d601f19601f8201168201806040525081019061297b9190614211565b156129985760405162461bcd60e51b8152600401610339906144c7565b6129a3600f83613928565b6129bf5760405162461bcd60e51b8152600401610339906142c3565b60116000836001600160a01b0316636f307dc36040518163ffffffff1660e01b815260040160206040518083038186803b1580156129fc57600080fd5b505afa158015612a10573d6000803e3d6000fd5b505050506040513d601f19601f82011682018060405250810190612a349190614382565b6001600160a01b03908116825260208201929092526040908101600090812080546001600160a01b03191690559051918416917fe5a19a76470297a1f85f9a38f3ff148b4c8cdc1209e074dbe59db5e22eb31a3a9190a25050565b6000806000806000612aa086612646565b9250612aab86610be7565b8085111596509094509150818310612ac4576000612ace565b612ace838361439f565b905091939590929450565b600354600090600160a81b900460ff1615612b065760405162461bcd60e51b8152600401610339906142fa565b60026001541415612b295760405162461bcd60e51b81526004016103399061431c565b600260015583612b388161174c565b612b545760405162461bcd60e51b8152600401610339906144ec565b83612b5e8161174c565b612b7a5760405162461bcd60e51b8152600401610339906144ec565b84806001600160a01b03166322f3e2d46040518163ffffffff1660e01b815260040160206040518083038186803b158015612bb457600080fd5b505afa158015612bc8573d6000803e3d6000fd5b505050506040513d601f19601f82011682018060405250810190612bec919061451a565b612c2d5760405162461bcd60e51b815260206004820152601260248201527173796e7468657469632d696e61637469766560701b6044820152606401610339565b866001600160a01b031663a6afed956040518163ffffffff1660e01b8152600401600060405180830381600087803b158015612c6857600080fd5b505af1158015612c7c573d6000803e3d6000fd5b50505050856001600160a01b031663a6afed956040518163ffffffff1660e01b8152600401600060405180830381600087803b158015612cbb57600080fd5b505af1158015612ccf573d6000803e3d6000fd5b505050506000612cdc3390565b905060008611612d1f5760405162461bcd60e51b815260206004820152600e60248201526d0616d6f756e742d696e2d69732d360941b6044820152606401610339565b6040516370a0823160e01b81526001600160a01b038916906370a0823190612d4b908490600401613fc8565b60206040518083038186803b158015612d6357600080fd5b505afa158015612d77573d6000803e3d6000fd5b505050506040513d601f19601f82011682018060405250810190612d9b9190614211565b861115612de15760405162461bcd60e51b8152602060048201526014602482015273616d6f756e742d696e2d67742d62616c616e636560601b6044820152606401610339565b604051632770a7eb60e21b81526001600160a01b03891690639dc29fac90612e0f9084908a9060040161422a565b600060405180830381600087803b158015612e2957600080fd5b505af1158015612e3d573d6000803e3d6000fd5b5050600d54604051632d9198e160e21b81526001600160a01b03909116925063b64663849150612e75908b908b908b906004016143b6565b60206040518083038186803b158015612e8d57600080fd5b505afa158015612ea1573d6000803e3d6000fd5b505050506040513d601f19601f82011682018060405250810190612ec59190614211565b94506000806009541115612f5757600954612ee1908790613598565b600e546040516340c10f1960e01b81529192506001600160a01b03808b16926340c10f1992612f16921690859060040161422a565b600060405180830381600087803b158015612f3057600080fd5b505af1158015612f44573d6000803e3d6000fd5b505050508086612f54919061439f565b95505b6040516340c10f1960e01b81526001600160a01b038916906340c10f1990612f859085908a9060040161422a565b600060405180830381600087803b158015612f9f57600080fd5b505af1158015612fb3573d6000803e3d6000fd5b5050604080518a8152602081018a90529081018490526001600160a01b03808c1693508c811692508516907fafd74f009c0ff7627726f24b568ee5529cd297f6a7a1e43ec363443a13a584209060600160405180910390a4505060018055509195945050505050565b6002546001600160a01b031633146130465760405162461bcd60e51b815260040161033990614199565b670de0b6b3a764000081111561306e5760405162461bcd60e51b8152600401610339906141bf565b600c54818114156130915760405162461bcd60e51b8152600401610339906141e4565b60408051828152602081018490527f6d8ed4ad9ba67058e16e32fc3c8da2e3358da6cd1599e0e0fb2630d0a19fd49c910160405180910390a150600c55565b6002546001600160a01b031633146130fa5760405162461bcd60e51b815260040161033990614199565b806131048161174c565b6131205760405162461bcd60e51b8152600401610339906144ec565b816001600160a01b03166318160ddd6040518163ffffffff1660e01b815260040160206040518083038186803b15801561315957600080fd5b505afa15801561316d573d6000803e3d6000fd5b505050506040513d601f19601f820116820180604052508101906131919190614211565b156131ae5760405162461bcd60e51b8152600401610339906144c7565b816001600160a01b031663f8d898986040518163ffffffff1660e01b815260040160206040518083038186803b1580156131e757600080fd5b505afa1580156131fb573d6000803e3d6000fd5b505050506040513d601f19601f8201168201806040525081019061321f9190614382565b6001600160a01b03166318160ddd6040518163ffffffff1660e01b815260040160206040518083038186803b15801561325757600080fd5b505afa15801561326b573d6000803e3d6000fd5b505050506040513d601f19601f8201168201806040525081019061328f9190614211565b156132dc5760405162461bcd60e51b815260206004820152601a60248201527f73796e7468657469632d776974682d646562742d737570706c790000000000006044820152606401610339565b6132e7601283613928565b61332c5760405162461bcd60e51b81526020600482015260166024820152751cde5b9d1a195d1a58cb591bd95cdb9d0b595e1a5cdd60521b6044820152606401610339565b6040516001600160a01b038316907fc6410e68b378721373b73ca2a05e332f27c833f6aca80f67ce583292e01f3bc490600090a25050565b6003546001600160a01b031633146133ba5760405162461bcd60e51b81526020600482015260196024820152783737ba16ba343296b83937b837b9b2b216b3b7bb32b93737b960391b6044820152606401610339565b6003546002546040516001600160a01b0392831692909116907fd4459d5b8b913cab0244230fd9b1c08b6ceace7fe9230e60d0f74cbffdf849d090600090a360038054600280546001600160a01b03199081166001600160a01b03841617909155169055565b6060611a6f600f6137db565b600354600160a81b900460ff16156134565760405162461bcd60e51b8152600401610339906142fa565b6002546001600160a01b031633146134805760405162461bcd60e51b815260040161033990614199565b6003805461ffff60a01b191661010160a01b1790557f28b4c24cb1012c094cd2f59f98e89d791973295f8fda6eaa118022d6d318960a336116e8565b600354600160a81b900460ff166135045760405162461bcd60e51b815260206004820152600c60248201526b3737ba16b9b43aba3237bbb760a11b6044820152606401610339565b6002546001600160a01b0316331461352e5760405162461bcd60e51b815260040161033990614199565b6003805460ff60a81b191690557fece7583a70a505ef0e36d4dec768f5ae597713e09c26011022599ee01abdabfc336116e8565b6001600160a01b0381166000908152602083905260408120545b9392505050565b600061359084848461393d565b949350505050565b60008215806135a5575081155b156135b257506000610e81565b670de0b6b3a76400006135c6600282614537565b6135d08486614559565b6135da9190614259565b61357c9190614537565b6001600160a01b0381166000908152600183016020526040812054151561357c565b6000613590848484613984565b600081613621600282614537565b6135d0670de0b6b3a764000086614559565b6000613590848484613b31565b6002546001600160a01b0316331461366a5760405162461bcd60e51b815260040161033990614199565b565b804710156136bc5760405162461bcd60e51b815260206004820152601d60248201527f416464726573733a20696e73756666696369656e742062616c616e63650000006044820152606401610339565b6000826001600160a01b03168260405160006040518083038185875af1925050503d8060008114613709576040519150601f19603f3d011682016040523d82523d6000602084013e61370e565b606091505b50509050806119965760405162461bcd60e51b815260206004820152603a60248201527f416464726573733a20756e61626c6520746f2073656e642076616c75652c207260448201527f6563697069656e74206d617920686176652072657665727465640000000000006064820152608401610339565b6119968363a9059cbb60e01b84846040516024016137a492919061422a565b60408051601f198184030181529190526020810180516001600160e01b03166001600160e01b031990931692909217909152613bbf565b6060600061357c83613c91565b600061357c836001600160a01b038416613ced565b606060006135908484613d3c565b600054610100900460ff1680613824575060005460ff16155b6138405760405162461bcd60e51b815260040161033990614479565b600054610100900460ff16158015613862576000805461ffff19166101011790555b600180558015610e0f576000805461ff001916905550565b600054610100900460ff1680613893575060005460ff16155b6138af5760405162461bcd60e51b815260040161033990614479565b600054610100900460ff161580156138d1576000805461ffff19166101011790555b600280546001600160a01b0319163390811790915560405181906000907fd4459d5b8b913cab0244230fd9b1c08b6ceace7fe9230e60d0f74cbffdf849d0908290a3508015610e0f576000805461ff001916905550565b600061357c836001600160a01b038416613db1565b6001600160a01b038216600090815260208490526040812080548390811061396757613967614431565b6000918252602090912001546001600160a01b0316949350505050565b6001600160a01b03808316600090815260208581526040808320938516835260019093019052908120548015613b275760006139c160018361439f565b6001600160a01b038616600090815260208890526040812054919250906139ea9060019061439f565b9050818114613aa6576001600160a01b0386166000908152602088905260408120805483908110613a1d57613a1d614431565b60009182526020808320909101546001600160a01b038a81168452918b90526040909220805491909216925082919085908110613a5c57613a5c614431565b600091825260208083209190910180546001600160a01b0319166001600160a01b0394851617905589831682528a8152604080832094909316825260019390930190925290208390555b6001600160a01b0386166000908152602088905260409020805480613acd57613acd614578565b60008281526020808220830160001990810180546001600160a01b03191690559092019092556001600160a01b03888116835289825260408084209189168452600191820190925290822091909155935061357c92505050565b600091505061357c565b6001600160a01b0380831660009081526020858152604080832093851683526001909301905290812054613bb757506001600160a01b0382811660009081526020858152604080832080546001808201835582865284862090910180546001600160a01b031916968816968717905581549585529081019092529091209190915561357c565b50600061357c565b6000613c14826040518060400160405280602081526020017f5361666545524332303a206c6f772d6c6576656c2063616c6c206661696c6564815250856001600160a01b0316613ea49092919063ffffffff16565b8051909150156119965780806020019051810190613c32919061451a565b6119965760405162461bcd60e51b815260206004820152602a60248201527f5361666545524332303a204552433230206f7065726174696f6e20646964206e6044820152691bdd081cdd58d8d9595960b21b6064820152608401610339565b606081600001805480602002602001604051908101604052809291908181526020018280548015613ce157602002820191906000526020600020905b815481526020019060010190808311613ccd575b50505050509050919050565b6000818152600183016020526040812054613d3457508154600181810184556000848152602080822090930184905584548482528286019093526040902091909155610e81565b506000610e81565b6001600160a01b03811660009081526020838152604091829020805483518184028101840190945280845260609392830182828015613da457602002820191906000526020600020905b81546001600160a01b03168152600190910190602001808311613d86575b5050505050905092915050565b60008181526001830160205260408120548015613e9a576000613dd560018361439f565b8554909150600090613de99060019061439f565b9050818114613e4e576000866000018281548110613e0957613e09614431565b9060005260206000200154905080876000018481548110613e2c57613e2c614431565b6000918252602080832090910192909255918252600188019052604090208390555b8554869080613e5f57613e5f614578565b600190038181906000526020600020016000905590558560010160008681526020019081526020016000206000905560019350505050610e81565b6000915050610e81565b6060613590848460008585843b613efd5760405162461bcd60e51b815260206004820152601d60248201527f416464726573733a2063616c6c20746f206e6f6e2d636f6e74726163740000006044820152606401610339565b600080866001600160a01b03168587604051613f19919061458e565b60006040518083038185875af1925050503d8060008114613f56576040519150601f19603f3d011682016040523d82523d6000602084013e613f5b565b606091505b5091509150613f6b828286613f76565b979650505050505050565b60608315613f8557508161357c565b825115613f955782518084602001fd5b8160405162461bcd60e51b81526004016103399190614166565b600060208284031215613fc157600080fd5b5035919050565b6001600160a01b0391909116815260200190565b6001600160a01b0381168114610e0f57600080fd5b60006020828403121561400357600080fd5b813561357c81613fdc565b6020808252825182820181905260009190848201906040850190845b8181101561404f5783516001600160a01b03168352928401929184019160010161402a565b50909695505050505050565b6000806000806080858703121561407157600080fd5b843561407c81613fdc565b9350602085013561408c81613fdc565b92506040850135915060608501356140a381613fdc565b939692955090935050565b6000806000606084860312156140c357600080fd5b83356140ce81613fdc565b925060208401356140de81613fdc565b929592945050506040919091013590565b8015158114610e0f57600080fd5b6000806040838503121561411057600080fd5b823561411b81613fdc565b9150602083013561412b816140ef565b809150509250929050565b60005b83811015614151578181015183820152602001614139565b83811115614160576000848401525b50505050565b6020815260008251806020840152614185816040850160208701614136565b601f01601f19169190910160400192915050565b6020808252600c908201526b3737ba16b3b7bb32b93737b960a11b604082015260600190565b6020808252600b908201526a6d61782d69732d3130302560a81b604082015260600190565b6020808252601390820152721b995dcb5cd85b594b585ccb58dd5c9c995b9d606a1b604082015260600190565b60006020828403121561422357600080fd5b5051919050565b6001600160a01b03929092168252602082015260400190565b634e487b7160e01b600052601160045260246000fd5b6000821982111561426c5761426c614243565b500190565b600060001982141561428557614285614243565b5060010190565b6020808252601b908201527f63616c6c65722d69732d6e6f742d6465706f7369742d746f6b656e0000000000604082015260600190565b6020808252601a908201527f6465706f7369742d746f6b656e2d646f65736e742d6578697374000000000000604082015260600190565b60208082526008908201526739b43aba3237bbb760c11b604082015260600190565b6020808252601f908201527f5265656e7472616e637947756172643a207265656e7472616e742063616c6c00604082015260600190565b60208082526015908201527418dbdb1b185d195c985b0b5a5b995e1a5cdd195b9d605a1b604082015260600190565b60006020828403121561439457600080fd5b815161357c81613fdc565b6000828210156143b1576143b1614243565b500390565b6001600160a01b039384168152919092166020820152604081019190915260600190565b6020808252601490820152736465706f7369742d746f6b656e2d65786973747360601b604082015260600190565b6020808252600f908201526e1859191c995cdccb5a5ccb5b9d5b1b608a1b604082015260600190565b634e487b7160e01b600052603260045260246000fd5b60208082526018908201527731b0b63632b916b4b996b737ba16b232b13a16ba37b5b2b760411b604082015260600190565b6020808252602e908201527f496e697469616c697a61626c653a20636f6e747261637420697320616c72656160408201526d191e481a5b9a5d1a585b1a5e995960921b606082015260800190565b6020808252600b908201526a0737570706c792d67742d360ac1b604082015260600190565b6020808252601490820152731cde5b9d1a195d1a58cb5a5b995e1a5cdd195b9d60621b604082015260600190565b60006020828403121561452c57600080fd5b815161357c816140ef565b60008261455457634e487b7160e01b600052601260045260246000fd5b500490565b600081600019048311821515161561457357614573614243565b500290565b634e487b7160e01b600052603160045260246000fd5b600082516145a0818460208701614136565b919091019291505056fea26469706673582212205e9be46c50c92fa7407082f8925f00882c322f21286628de23e3a057e3b80b1164736f6c63430008090033",
  "devdoc": {
    "kind": "dev",
    "methods": {
      "acceptGovernorship()": {
        "details": "Allows new governor to accept governorship of the contract."
      },
      "addToDebtTokensOfAccount(address)": {
        "details": "This function is called from `DebtToken` when user's balance changes from `0`The caller should ensure to not pass `address(0)` as `_account`",
        "params": {
          "_account": "The account address"
        }
      },
      "addToDepositTokensOfAccount(address)": {
        "details": "This function is called from `DepositToken` when user's balance changes from `0`The caller should ensure to not pass `address(0)` as `_account`",
        "params": {
          "_account": "The account address"
        }
      },
      "debtOf(address)": {
        "params": {
          "_account": "The account to check"
        },
        "returns": {
          "_debtInUsd": "The debt value in USD"
        }
      },
      "debtPositionOf(address)": {
        "params": {
          "_account": "The account to check"
        },
        "returns": {
          "_debtInUsd": "The total debt in USD",
          "_depositInUsd": "The total collateral deposited in USD",
          "_isHealthy": "Whether the account's position is healthy",
          "_issuableInUsd": "The amount of debt (is USD) that is free (i.e. can be used to issue synthetic tokens)",
          "_issuableLimitInUsd": "The max amount of debt (is USD) that can be created (considering collateralization ratios)"
        }
      },
      "depositOf(address)": {
        "params": {
          "_account": "The account to check"
        },
        "returns": {
          "_depositInUsd": "The total deposit value in USD among all collaterals",
          "_issuableLimitInUsd": "The max value in USD that can be used to issue synthetic tokens"
        }
      },
      "getDebtTokensOfAccount(address)": {
        "details": "WARNING: This operation will copy the entire storage to memory, which can be quite expensive. This is designed to mostly be used by view accessors that are queried without any gas fees."
      },
      "getDepositTokens()": {
        "details": "WARNING: This operation will copy the entire storage to memory, which can be quite expensive. This is designed to mostly be used by view accessors that are queried without any gas fees."
      },
      "getDepositTokensOfAccount(address)": {
        "details": "WARNING: This operation will copy the entire storage to memory, which can be quite expensive. This is designed to mostly be used by view accessors that are queried without any gas fees."
      },
      "getSyntheticTokens()": {
        "details": "WARNING: This operation will copy the entire storage to memory, which can be quite expensive. This is designed to mostly be used by view accessors that are queried without any gas fees."
      },
      "isDepositTokenExists(address)": {
        "params": {
          "_depositToken": "Asset to check"
        },
        "returns": {
          "_0": "true if exist"
        }
      },
      "isSyntheticTokenExists(address)": {
        "params": {
          "_syntheticToken": "Asset to check"
        },
        "returns": {
          "_0": "true if exist"
        }
      },
      "liquidate(address,address,uint256,address)": {
        "params": {
          "_account": "The account with an unhealthy position",
          "_amountToRepay": "The amount to repay in synthetic token",
          "_depositToken": "The collateral to seize from",
          "_syntheticToken": "The vsAsset to use for repayment"
        }
      },
      "open()": {
        "details": "Open contract operations, if contract is in shutdown state"
      },
      "pause()": {
        "details": "Pause contract operations, if contract is not paused."
      },
      "removeFromDebtTokensOfAccount(address)": {
        "details": "This function is called from `DebtToken` when user's balance changes to `0`The caller should ensure to not pass `address(0)` as `_account`",
        "params": {
          "_account": "The account address"
        }
      },
      "removeFromDepositTokensOfAccount(address)": {
        "details": "This function is called from `DepositToken` when user's balance changes to `0`The caller should ensure to not pass `address(0)` as `_account`",
        "params": {
          "_account": "The account address"
        }
      },
      "shutdown()": {
        "details": "Shutdown contract operations, if not already shutdown."
      },
      "swap(address,address,uint256)": {
        "params": {
          "_amountIn": "Amount to swap",
          "_syntheticTokenIn": "Synthetic token to sell",
          "_syntheticTokenOut": "Synthetic token to buy"
        }
      },
      "sweep(address,address,uint256)": {
        "params": {
          "_amount": "The amount to send",
          "_to": "The recipient of the transfer",
          "_token": "The token to transfer"
        }
      },
      "transferGovernorship(address)": {
        "details": "Transfers governorship of the contract to a new account (`proposedGovernor`). Can only be called by the current owner."
      },
      "unpause()": {
        "details": "Unpause contract operations, allow only if contract is paused and not shutdown."
      }
    },
    "title": "Controller contract",
    "version": 1
  },
  "userdoc": {
    "events": {
      "DebtFloorUpdated(uint256,uint256)": {
        "notice": "Emitted when protocol liquidation fee is updated"
      },
      "DepositFeeUpdated(uint256,uint256)": {
        "notice": "Emitted when deposit fee is updated"
      },
      "DepositTokenAdded(address)": {
        "notice": "Emitted when deposit token is enabled"
      },
      "DepositTokenRemoved(address)": {
        "notice": "Emitted when deposit token is disabled"
      },
      "IssueFeeUpdated(uint256,uint256)": {
        "notice": "Emitted when issue fee is updated"
      },
      "LiquidatorLiquidationFeeUpdated(uint256,uint256)": {
        "notice": "Emitted when liquidator liquidation fee is updated"
      },
      "MasterOracleUpdated(address,address)": {
        "notice": "Emitted when master oracle contract is updated"
      },
      "MaxLiquidableUpdated(uint256,uint256)": {
        "notice": "Emitted when maxLiquidable (liquidation cap) is updated"
      },
      "PositionLiquidated(address,address,address,uint256,uint256,uint256)": {
        "notice": "Emitted when a position is liquidated"
      },
      "ProtocolLiquidationFeeUpdated(uint256,uint256)": {
        "notice": "Emitted when protocol liquidation fee is updated"
      },
      "RefinanceFeeUpdated(uint256,uint256)": {
        "notice": "Emitted when refinance fee is updated"
      },
      "RepayFeeUpdated(uint256,uint256)": {
        "notice": "Emitted when repay fee is updated"
      },
      "RewardsDistributorAdded(address)": {
        "notice": "Emitted when rewards distributor contract is added"
      },
      "SwapFeeUpdated(uint256,uint256)": {
        "notice": "Emitted when swap fee is updated"
      },
      "SyntheticTokenAdded(address)": {
        "notice": "Emitted when synthetic token is enabled"
      },
      "SyntheticTokenRemoved(address)": {
        "notice": "Emitted when synthetic token is disabled"
      },
      "SyntheticTokenSwapped(address,address,address,uint256,uint256,uint256)": {
        "notice": "Emitted when synthetic token is swapped"
      },
      "TreasuryUpdated(address,address)": {
        "notice": "Emitted when treasury contract is updated"
      },
      "WithdrawFeeUpdated(uint256,uint256)": {
        "notice": "Emitted when withdraw fee is updated"
      }
    },
    "kind": "user",
    "methods": {
      "addDepositToken(address)": {
        "notice": "Add deposit token (i.e. collateral) to vSynth"
      },
      "addRewardsDistributor(address)": {
        "notice": "Add a RewardsDistributor contract"
      },
      "addSyntheticToken(address)": {
        "notice": "Add synthetic token to vSynth offerings"
      },
      "addToDebtTokensOfAccount(address)": {
        "notice": "Add a debt token to the per-account list"
      },
      "addToDepositTokensOfAccount(address)": {
        "notice": "Add a deposit token to the per-account list"
      },
      "debtFloorInUsd()": {
        "notice": "The debt floor (in USD) for each synthetic token This parameters is used to keep incentive for liquidators (i.e. cover gas and provide enough profit)"
      },
      "debtOf(address)": {
        "notice": "Get account's debt by querying latest prices from oracles"
      },
      "debtPositionOf(address)": {
        "notice": "Get if the debt position from an account is healthy"
      },
      "depositFee()": {
        "notice": "The fee charged when depositing collateral"
      },
      "depositOf(address)": {
        "notice": "Get account's total collateral deposited by querying latest prices from oracles"
      },
      "depositTokenOf(address)": {
        "notice": "Get the deposit token's address from given underlying asset"
      },
      "getDebtTokensOfAccount(address)": {
        "notice": "Get all debt tokens"
      },
      "getDepositTokens()": {
        "notice": "Get all deposit tokens"
      },
      "getDepositTokensOfAccount(address)": {
        "notice": "Get deposit tokens of an account"
      },
      "getRewardsDistributors()": {
        "notice": "Get all rewards distributors"
      },
      "getSyntheticTokens()": {
        "notice": "Get all synthetic tokens"
      },
      "isDepositTokenExists(address)": {
        "notice": "Check if collateral is supported"
      },
      "isSyntheticTokenExists(address)": {
        "notice": "Check if token is part of the synthetic offerings"
      },
      "issueFee()": {
        "notice": "The fee charged when minting a synthetic token"
      },
      "liquidate(address,address,uint256,address)": {
        "notice": "Burn synthetic token, unlock deposit token and send liquidator liquidation fee"
      },
      "liquidatorLiquidationFee()": {
        "notice": "The fee charged from liquidated deposit that goes to the liquidator"
      },
      "masterOracle()": {
        "notice": "Prices oracle"
      },
      "maxLiquidable()": {
        "notice": "The max percent of the debt allowed to liquidate"
      },
      "protocolLiquidationFee()": {
        "notice": "The fee charged when liquidating a position"
      },
      "removeDepositToken(address)": {
        "notice": "Remove deposit token (i.e. collateral) from vSynth"
      },
      "removeFromDebtTokensOfAccount(address)": {
        "notice": "Remove a debt token from the per-account list"
      },
      "removeFromDepositTokensOfAccount(address)": {
        "notice": "Remove a deposit token from the per-account list"
      },
      "removeSyntheticToken(address)": {
        "notice": "Remove synthetic token from vSynth offerings"
      },
      "repayFee()": {
        "notice": "The fee charged when repaying debt"
      },
      "swap(address,address,uint256)": {
        "notice": "Swap synthetic tokens"
      },
      "swapFee()": {
        "notice": "The fee charged when swapping synthetic tokens"
      },
      "sweep(address,address,uint256)": {
        "notice": "ERC20 recovery in case of stuck tokens due direct transfers to the contract address."
      },
      "treasury()": {
        "notice": "Treasury contract"
      },
      "updateDebtFloor(uint256)": {
        "notice": "Update debt floor"
      },
      "updateDepositFee(uint256)": {
        "notice": "Update deposit fee"
      },
      "updateIssueFee(uint256)": {
        "notice": "Update issue fee"
      },
      "updateLiquidatorLiquidationFee(uint256)": {
        "notice": "Update liquidator liquidation fee"
      },
      "updateMasterOracle(address)": {
        "notice": "Update master oracle contract"
      },
      "updateMaxLiquidable(uint256)": {
        "notice": "Update maxLiquidable (liquidation cap)"
      },
      "updateProtocolLiquidationFee(uint256)": {
        "notice": "Update protocol liquidation fee"
      },
      "updateRepayFee(uint256)": {
        "notice": "Update repay fee"
      },
      "updateSwapFee(uint256)": {
        "notice": "Update swap fee"
      },
      "updateTreasury(address,bool)": {
        "notice": "Update treasury contract - will migrate funds to the new contract"
      },
      "updateWithdrawFee(uint256)": {
        "notice": "Update withdraw fee"
      },
      "withdrawFee()": {
        "notice": "The fee charged when withdrawing collateral"
      }
    },
    "version": 1
  },
  "storageLayout": {
    "storage": [
      {
        "astId": 7131,
        "contract": "contracts/Controller.sol:Controller",
        "label": "_initialized",
        "offset": 0,
        "slot": "0",
        "type": "t_bool"
      },
      {
        "astId": 7134,
        "contract": "contracts/Controller.sol:Controller",
        "label": "_initializing",
        "offset": 1,
        "slot": "0",
        "type": "t_bool"
      },
      {
        "astId": 7185,
        "contract": "contracts/Controller.sol:Controller",
        "label": "_status",
        "offset": 0,
        "slot": "1",
        "type": "t_uint256"
      },
      {
        "astId": 5950,
        "contract": "contracts/Controller.sol:Controller",
        "label": "governor",
        "offset": 0,
        "slot": "2",
        "type": "t_address"
      },
      {
        "astId": 5952,
        "contract": "contracts/Controller.sol:Controller",
        "label": "proposedGovernor",
        "offset": 0,
        "slot": "3",
        "type": "t_address"
      },
      {
        "astId": 3775,
        "contract": "contracts/Controller.sol:Controller",
        "label": "paused",
        "offset": 20,
        "slot": "3",
        "type": "t_bool"
      },
      {
        "astId": 3778,
        "contract": "contracts/Controller.sol:Controller",
        "label": "everythingStopped",
        "offset": 21,
        "slot": "3",
        "type": "t_bool"
      },
      {
        "astId": 14462,
        "contract": "contracts/Controller.sol:Controller",
        "label": "debtFloorInUsd",
        "offset": 0,
        "slot": "4",
        "type": "t_uint256"
      },
      {
        "astId": 14465,
        "contract": "contracts/Controller.sol:Controller",
        "label": "depositFee",
        "offset": 0,
        "slot": "5",
        "type": "t_uint256"
      },
      {
        "astId": 14468,
        "contract": "contracts/Controller.sol:Controller",
        "label": "issueFee",
        "offset": 0,
        "slot": "6",
        "type": "t_uint256"
      },
      {
        "astId": 14471,
        "contract": "contracts/Controller.sol:Controller",
        "label": "withdrawFee",
        "offset": 0,
        "slot": "7",
        "type": "t_uint256"
      },
      {
        "astId": 14474,
        "contract": "contracts/Controller.sol:Controller",
        "label": "repayFee",
        "offset": 0,
        "slot": "8",
        "type": "t_uint256"
      },
      {
        "astId": 14477,
        "contract": "contracts/Controller.sol:Controller",
        "label": "swapFee",
        "offset": 0,
        "slot": "9",
        "type": "t_uint256"
      },
      {
        "astId": 14480,
        "contract": "contracts/Controller.sol:Controller",
        "label": "liquidatorLiquidationFee",
        "offset": 0,
        "slot": "10",
        "type": "t_uint256"
      },
      {
        "astId": 14483,
        "contract": "contracts/Controller.sol:Controller",
        "label": "protocolLiquidationFee",
        "offset": 0,
        "slot": "11",
        "type": "t_uint256"
      },
      {
        "astId": 14486,
        "contract": "contracts/Controller.sol:Controller",
        "label": "maxLiquidable",
        "offset": 0,
        "slot": "12",
        "type": "t_uint256"
      },
      {
        "astId": 14490,
        "contract": "contracts/Controller.sol:Controller",
        "label": "masterOracle",
        "offset": 0,
        "slot": "13",
        "type": "t_contract(IMasterOracle)11244"
      },
      {
        "astId": 14494,
        "contract": "contracts/Controller.sol:Controller",
        "label": "treasury",
        "offset": 0,
        "slot": "14",
        "type": "t_contract(ITreasury)11160"
      },
      {
        "astId": 14498,
        "contract": "contracts/Controller.sol:Controller",
        "label": "depositTokens",
        "offset": 0,
        "slot": "15",
        "type": "t_struct(AddressSet)9261_storage"
      },
      {
        "astId": 14505,
        "contract": "contracts/Controller.sol:Controller",
        "label": "depositTokenOf",
        "offset": 0,
        "slot": "17",
        "type": "t_mapping(t_contract(IERC20)7840,t_contract(IDepositToken)10955)"
      },
      {
        "astId": 14509,
        "contract": "contracts/Controller.sol:Controller",
        "label": "syntheticTokens",
        "offset": 0,
        "slot": "18",
        "type": "t_struct(AddressSet)9261_storage"
      },
      {
        "astId": 14513,
        "contract": "contracts/Controller.sol:Controller",
        "label": "depositTokensOfAccount",
        "offset": 0,
        "slot": "20",
        "type": "t_struct(AddressSet)11348_storage"
      },
      {
        "astId": 14517,
        "contract": "contracts/Controller.sol:Controller",
        "label": "debtTokensOfAccount",
        "offset": 0,
        "slot": "21",
        "type": "t_struct(AddressSet)11348_storage"
      },
      {
        "astId": 14522,
        "contract": "contracts/Controller.sol:Controller",
        "label": "rewardsDistributors",
        "offset": 0,
        "slot": "22",
        "type": "t_array(t_contract(IRewardsDistributor)11068)dyn_storage"
      }
    ],
    "types": {
      "t_address": {
        "encoding": "inplace",
        "label": "address",
        "numberOfBytes": "20"
      },
      "t_array(t_address)dyn_storage": {
        "base": "t_address",
        "encoding": "dynamic_array",
        "label": "address[]",
        "numberOfBytes": "32"
      },
      "t_array(t_bytes32)dyn_storage": {
        "base": "t_bytes32",
        "encoding": "dynamic_array",
        "label": "bytes32[]",
        "numberOfBytes": "32"
      },
      "t_array(t_contract(IRewardsDistributor)11068)dyn_storage": {
        "base": "t_contract(IRewardsDistributor)11068",
        "encoding": "dynamic_array",
        "label": "contract IRewardsDistributor[]",
        "numberOfBytes": "32"
      },
      "t_bool": {
        "encoding": "inplace",
        "label": "bool",
        "numberOfBytes": "1"
      },
      "t_bytes32": {
        "encoding": "inplace",
        "label": "bytes32",
        "numberOfBytes": "32"
      },
      "t_contract(IDepositToken)10955": {
        "encoding": "inplace",
        "label": "contract IDepositToken",
        "numberOfBytes": "20"
      },
      "t_contract(IERC20)7840": {
        "encoding": "inplace",
        "label": "contract IERC20",
        "numberOfBytes": "20"
      },
      "t_contract(IMasterOracle)11244": {
        "encoding": "inplace",
        "label": "contract IMasterOracle",
        "numberOfBytes": "20"
      },
      "t_contract(IRewardsDistributor)11068": {
        "encoding": "inplace",
        "label": "contract IRewardsDistributor",
        "numberOfBytes": "20"
      },
      "t_contract(ITreasury)11160": {
        "encoding": "inplace",
        "label": "contract ITreasury",
        "numberOfBytes": "20"
      },
      "t_mapping(t_address,t_struct(Set)11342_storage)": {
        "encoding": "mapping",
        "key": "t_address",
        "label": "mapping(address => struct MappedEnumerableSet.Set)",
        "numberOfBytes": "32",
        "value": "t_struct(Set)11342_storage"
      },
      "t_mapping(t_address,t_uint256)": {
        "encoding": "mapping",
        "key": "t_address",
        "label": "mapping(address => uint256)",
        "numberOfBytes": "32",
        "value": "t_uint256"
      },
      "t_mapping(t_bytes32,t_uint256)": {
        "encoding": "mapping",
        "key": "t_bytes32",
        "label": "mapping(bytes32 => uint256)",
        "numberOfBytes": "32",
        "value": "t_uint256"
      },
      "t_mapping(t_contract(IERC20)7840,t_contract(IDepositToken)10955)": {
        "encoding": "mapping",
        "key": "t_contract(IERC20)7840",
        "label": "mapping(contract IERC20 => contract IDepositToken)",
        "numberOfBytes": "32",
        "value": "t_contract(IDepositToken)10955"
      },
      "t_struct(AddressSet)11348_storage": {
        "encoding": "inplace",
        "label": "struct MappedEnumerableSet.AddressSet",
        "members": [
          {
            "astId": 11347,
            "contract": "contracts/Controller.sol:Controller",
            "label": "_ofAddress",
            "offset": 0,
            "slot": "0",
            "type": "t_mapping(t_address,t_struct(Set)11342_storage)"
          }
        ],
        "numberOfBytes": "32"
      },
      "t_struct(AddressSet)9261_storage": {
        "encoding": "inplace",
        "label": "struct EnumerableSet.AddressSet",
        "members": [
          {
            "astId": 9260,
            "contract": "contracts/Controller.sol:Controller",
            "label": "_inner",
            "offset": 0,
            "slot": "0",
            "type": "t_struct(Set)8960_storage"
          }
        ],
        "numberOfBytes": "64"
      },
      "t_struct(Set)11342_storage": {
        "encoding": "inplace",
        "label": "struct MappedEnumerableSet.Set",
        "members": [
          {
            "astId": 11337,
            "contract": "contracts/Controller.sol:Controller",
            "label": "_values",
            "offset": 0,
            "slot": "0",
            "type": "t_array(t_address)dyn_storage"
          },
          {
            "astId": 11341,
            "contract": "contracts/Controller.sol:Controller",
            "label": "_indexes",
            "offset": 0,
            "slot": "1",
            "type": "t_mapping(t_address,t_uint256)"
          }
        ],
        "numberOfBytes": "64"
      },
      "t_struct(Set)8960_storage": {
        "encoding": "inplace",
        "label": "struct EnumerableSet.Set",
        "members": [
          {
            "astId": 8955,
            "contract": "contracts/Controller.sol:Controller",
            "label": "_values",
            "offset": 0,
            "slot": "0",
            "type": "t_array(t_bytes32)dyn_storage"
          },
          {
            "astId": 8959,
            "contract": "contracts/Controller.sol:Controller",
            "label": "_indexes",
            "offset": 0,
            "slot": "1",
            "type": "t_mapping(t_bytes32,t_uint256)"
          }
        ],
        "numberOfBytes": "64"
      },
      "t_uint256": {
        "encoding": "inplace",
        "label": "uint256",
        "numberOfBytes": "32"
      }
    }
  }
}