{
  "address": "0x5D1f1ce0E510eAD3b79d1b2AF62775a3D9D3F8A3",
  "abi": [
    {
      "anonymous": false,
      "inputs": [
        {
          "indexed": false,
          "internalType": "uint256",
          "name": "oldDebtFloorInUsd",
          "type": "uint256"
        },
        {
          "indexed": false,
          "internalType": "uint256",
          "name": "newDebtFloorInUsd",
          "type": "uint256"
        }
      ],
      "name": "DebtFloorUpdated",
      "type": "event"
    },
    {
      "anonymous": false,
      "inputs": [
        {
          "indexed": true,
          "internalType": "address",
          "name": "account",
          "type": "address"
        },
        {
          "indexed": false,
          "internalType": "contract ISyntheticToken",
          "name": "syntheticToken",
          "type": "address"
        },
        {
          "indexed": false,
          "internalType": "uint256",
          "name": "amountIn",
          "type": "uint256"
        },
        {
          "indexed": false,
          "internalType": "uint256",
          "name": "amountOut",
          "type": "uint256"
        },
        {
          "indexed": false,
          "internalType": "uint256",
          "name": "fee",
          "type": "uint256"
        }
      ],
      "name": "DebtRefinancied",
      "type": "event"
    },
    {
      "anonymous": false,
      "inputs": [
        {
          "indexed": false,
          "internalType": "uint256",
          "name": "oldDepositFee",
          "type": "uint256"
        },
        {
          "indexed": false,
          "internalType": "uint256",
          "name": "newDepositFee",
          "type": "uint256"
        }
      ],
      "name": "DepositFeeUpdated",
      "type": "event"
    },
    {
      "anonymous": false,
      "inputs": [
        {
          "indexed": true,
          "internalType": "address",
          "name": "depositToken",
          "type": "address"
        }
      ],
      "name": "DepositTokenAdded",
      "type": "event"
    },
    {
      "anonymous": false,
      "inputs": [
        {
          "indexed": true,
          "internalType": "contract IDepositToken",
          "name": "depositToken",
          "type": "address"
        }
      ],
      "name": "DepositTokenRemoved",
      "type": "event"
    },
    {
      "anonymous": false,
      "inputs": [
        {
          "indexed": false,
          "internalType": "uint256",
          "name": "oldIssueFee",
          "type": "uint256"
        },
        {
          "indexed": false,
          "internalType": "uint256",
          "name": "newIssueFee",
          "type": "uint256"
        }
      ],
      "name": "IssueFeeUpdated",
      "type": "event"
    },
    {
      "anonymous": false,
      "inputs": [
        {
          "indexed": false,
          "internalType": "uint256",
          "name": "oldLiquidatorLiquidationFee",
          "type": "uint256"
        },
        {
          "indexed": false,
          "internalType": "uint256",
          "name": "newLiquidatorLiquidationFee",
          "type": "uint256"
        }
      ],
      "name": "LiquidatorLiquidationFeeUpdated",
      "type": "event"
    },
    {
      "anonymous": false,
      "inputs": [
        {
          "indexed": true,
          "internalType": "contract IMasterOracle",
          "name": "oldOracle",
          "type": "address"
        },
        {
          "indexed": true,
          "internalType": "contract IMasterOracle",
          "name": "newOracle",
          "type": "address"
        }
      ],
      "name": "MasterOracleUpdated",
      "type": "event"
    },
    {
      "anonymous": false,
      "inputs": [
        {
          "indexed": false,
          "internalType": "uint256",
          "name": "oldMaxLiquidable",
          "type": "uint256"
        },
        {
          "indexed": false,
          "internalType": "uint256",
          "name": "newMaxLiquidable",
          "type": "uint256"
        }
      ],
      "name": "MaxLiquidableUpdated",
      "type": "event"
    },
    {
      "anonymous": false,
      "inputs": [
        {
          "indexed": false,
          "internalType": "address",
          "name": "account",
          "type": "address"
        }
      ],
      "name": "Open",
      "type": "event"
    },
    {
      "anonymous": false,
      "inputs": [
        {
          "indexed": false,
          "internalType": "address",
          "name": "account",
          "type": "address"
        }
      ],
      "name": "Paused",
      "type": "event"
    },
    {
      "anonymous": false,
      "inputs": [
        {
          "indexed": true,
          "internalType": "address",
          "name": "liquidator",
          "type": "address"
        },
        {
          "indexed": true,
          "internalType": "address",
          "name": "account",
          "type": "address"
        },
        {
          "indexed": true,
          "internalType": "contract ISyntheticToken",
          "name": "syntheticToken",
          "type": "address"
        },
        {
          "indexed": false,
          "internalType": "uint256",
          "name": "amountRepayed",
          "type": "uint256"
        },
        {
          "indexed": false,
          "internalType": "uint256",
          "name": "depositSeized",
          "type": "uint256"
        },
        {
          "indexed": false,
          "internalType": "uint256",
          "name": "fee",
          "type": "uint256"
        }
      ],
      "name": "PositionLiquidated",
      "type": "event"
    },
    {
      "anonymous": false,
      "inputs": [
        {
          "indexed": false,
          "internalType": "uint256",
          "name": "oldProtocolLiquidationFee",
          "type": "uint256"
        },
        {
          "indexed": false,
          "internalType": "uint256",
          "name": "newProtocolLiquidationFee",
          "type": "uint256"
        }
      ],
      "name": "ProtocolLiquidationFeeUpdated",
      "type": "event"
    },
    {
      "anonymous": false,
      "inputs": [
        {
          "indexed": false,
          "internalType": "uint256",
          "name": "oldRefinanceFee",
          "type": "uint256"
        },
        {
          "indexed": false,
          "internalType": "uint256",
          "name": "newRefinanceFee",
          "type": "uint256"
        }
      ],
      "name": "RefinanceFeeUpdated",
      "type": "event"
    },
    {
      "anonymous": false,
      "inputs": [
        {
          "indexed": false,
          "internalType": "uint256",
          "name": "oldRepayFee",
          "type": "uint256"
        },
        {
          "indexed": false,
          "internalType": "uint256",
          "name": "newRepayFee",
          "type": "uint256"
        }
      ],
      "name": "RepayFeeUpdated",
      "type": "event"
    },
    {
      "anonymous": false,
      "inputs": [
        {
          "indexed": false,
          "internalType": "contract IRewardsDistributor",
          "name": "_distributor",
          "type": "address"
        }
      ],
      "name": "RewardsDistributorAdded",
      "type": "event"
    },
    {
      "anonymous": false,
      "inputs": [
        {
          "indexed": false,
          "internalType": "address",
          "name": "account",
          "type": "address"
        }
      ],
      "name": "Shutdown",
      "type": "event"
    },
    {
      "anonymous": false,
      "inputs": [
        {
          "indexed": false,
          "internalType": "uint256",
          "name": "oldSwapFee",
          "type": "uint256"
        },
        {
          "indexed": false,
          "internalType": "uint256",
          "name": "newSwapFee",
          "type": "uint256"
        }
      ],
      "name": "SwapFeeUpdated",
      "type": "event"
    },
    {
      "anonymous": false,
      "inputs": [
        {
          "indexed": true,
          "internalType": "address",
          "name": "syntheticToken",
          "type": "address"
        }
      ],
      "name": "SyntheticTokenAdded",
      "type": "event"
    },
    {
      "anonymous": false,
      "inputs": [
        {
          "indexed": true,
          "internalType": "contract ISyntheticToken",
          "name": "syntheticToken",
          "type": "address"
        }
      ],
      "name": "SyntheticTokenRemoved",
      "type": "event"
    },
    {
      "anonymous": false,
      "inputs": [
        {
          "indexed": true,
          "internalType": "address",
          "name": "account",
          "type": "address"
        },
        {
          "indexed": true,
          "internalType": "contract ISyntheticToken",
          "name": "syntheticTokenIn",
          "type": "address"
        },
        {
          "indexed": true,
          "internalType": "contract ISyntheticToken",
          "name": "syntheticTokenOut",
          "type": "address"
        },
        {
          "indexed": false,
          "internalType": "uint256",
          "name": "amountIn",
          "type": "uint256"
        },
        {
          "indexed": false,
          "internalType": "uint256",
          "name": "amountOut",
          "type": "uint256"
        },
        {
          "indexed": false,
          "internalType": "uint256",
          "name": "fee",
          "type": "uint256"
        }
      ],
      "name": "SyntheticTokenSwapped",
      "type": "event"
    },
    {
      "anonymous": false,
      "inputs": [
        {
          "indexed": true,
          "internalType": "contract ITreasury",
          "name": "oldTreasury",
          "type": "address"
        },
        {
          "indexed": true,
          "internalType": "contract ITreasury",
          "name": "newTreasury",
          "type": "address"
        }
      ],
      "name": "TreasuryUpdated",
      "type": "event"
    },
    {
      "anonymous": false,
      "inputs": [
        {
          "indexed": false,
          "internalType": "address",
          "name": "account",
          "type": "address"
        }
      ],
      "name": "Unpaused",
      "type": "event"
    },
    {
      "anonymous": false,
      "inputs": [
        {
          "indexed": true,
          "internalType": "address",
          "name": "previousGovernor",
          "type": "address"
        },
        {
          "indexed": true,
          "internalType": "address",
          "name": "proposedGovernor",
          "type": "address"
        }
      ],
      "name": "UpdatedGovernor",
      "type": "event"
    },
    {
      "anonymous": false,
      "inputs": [
        {
          "indexed": false,
          "internalType": "uint256",
          "name": "oldWithdrawFee",
          "type": "uint256"
        },
        {
          "indexed": false,
          "internalType": "uint256",
          "name": "newWithdrawFee",
          "type": "uint256"
        }
      ],
      "name": "WithdrawFeeUpdated",
      "type": "event"
    },
    {
      "inputs": [],
      "name": "VERSION",
      "outputs": [
        {
          "internalType": "string",
          "name": "",
          "type": "string"
        }
      ],
      "stateMutability": "view",
      "type": "function"
    },
    {
      "inputs": [],
      "name": "acceptGovernorship",
      "outputs": [],
      "stateMutability": "nonpayable",
      "type": "function"
    },
    {
      "inputs": [
        {
          "internalType": "address",
          "name": "_depositToken",
          "type": "address"
        }
      ],
      "name": "addDepositToken",
      "outputs": [],
      "stateMutability": "nonpayable",
      "type": "function"
    },
    {
      "inputs": [
        {
          "internalType": "contract IRewardsDistributor",
          "name": "_distributor",
          "type": "address"
        }
      ],
      "name": "addRewardsDistributor",
      "outputs": [],
      "stateMutability": "nonpayable",
      "type": "function"
    },
    {
      "inputs": [
        {
          "internalType": "address",
          "name": "_syntheticToken",
          "type": "address"
        }
      ],
      "name": "addSyntheticToken",
      "outputs": [],
      "stateMutability": "nonpayable",
      "type": "function"
    },
    {
      "inputs": [
        {
          "internalType": "address",
          "name": "_account",
          "type": "address"
        }
      ],
      "name": "addToDebtTokensOfAccount",
      "outputs": [],
      "stateMutability": "nonpayable",
      "type": "function"
    },
    {
      "inputs": [
        {
          "internalType": "address",
          "name": "_account",
          "type": "address"
        }
      ],
      "name": "addToDepositTokensOfAccount",
      "outputs": [],
      "stateMutability": "nonpayable",
      "type": "function"
    },
    {
      "inputs": [],
      "name": "debtFloorInUsd",
      "outputs": [
        {
          "internalType": "uint256",
          "name": "",
          "type": "uint256"
        }
      ],
      "stateMutability": "view",
      "type": "function"
    },
    {
      "inputs": [
        {
          "internalType": "address",
          "name": "_account",
          "type": "address"
        }
      ],
      "name": "debtOf",
      "outputs": [
        {
          "internalType": "uint256",
          "name": "_debtInUsd",
          "type": "uint256"
        }
      ],
      "stateMutability": "view",
      "type": "function"
    },
    {
      "inputs": [
        {
          "internalType": "address",
          "name": "_account",
          "type": "address"
        }
      ],
      "name": "debtPositionOf",
      "outputs": [
        {
          "internalType": "bool",
          "name": "_isHealthy",
          "type": "bool"
        },
        {
          "internalType": "uint256",
          "name": "_depositInUsd",
          "type": "uint256"
        },
        {
          "internalType": "uint256",
          "name": "_debtInUsd",
          "type": "uint256"
        },
        {
          "internalType": "uint256",
          "name": "_issuableLimitInUsd",
          "type": "uint256"
        },
        {
          "internalType": "uint256",
          "name": "_issuableInUsd",
          "type": "uint256"
        }
      ],
      "stateMutability": "view",
      "type": "function"
    },
    {
      "inputs": [],
      "name": "depositFee",
      "outputs": [
        {
          "internalType": "uint256",
          "name": "",
          "type": "uint256"
        }
      ],
      "stateMutability": "view",
      "type": "function"
    },
    {
      "inputs": [
        {
          "internalType": "address",
          "name": "_account",
          "type": "address"
        }
      ],
      "name": "depositOf",
      "outputs": [
        {
          "internalType": "uint256",
          "name": "_depositInUsd",
          "type": "uint256"
        },
        {
          "internalType": "uint256",
          "name": "_issuableLimitInUsd",
          "type": "uint256"
        }
      ],
      "stateMutability": "view",
      "type": "function"
    },
    {
      "inputs": [
        {
          "internalType": "contract IERC20",
          "name": "",
          "type": "address"
        }
      ],
      "name": "depositTokenOf",
      "outputs": [
        {
          "internalType": "contract IDepositToken",
          "name": "",
          "type": "address"
        }
      ],
      "stateMutability": "view",
      "type": "function"
    },
    {
      "inputs": [],
      "name": "everythingStopped",
      "outputs": [
        {
          "internalType": "bool",
          "name": "",
          "type": "bool"
        }
      ],
      "stateMutability": "view",
      "type": "function"
    },
    {
      "inputs": [
        {
          "internalType": "address",
          "name": "_account",
          "type": "address"
        }
      ],
      "name": "getDebtTokensOfAccount",
      "outputs": [
        {
          "internalType": "address[]",
          "name": "",
          "type": "address[]"
        }
      ],
      "stateMutability": "view",
      "type": "function"
    },
    {
      "inputs": [],
      "name": "getDepositTokens",
      "outputs": [
        {
          "internalType": "address[]",
          "name": "",
          "type": "address[]"
        }
      ],
      "stateMutability": "view",
      "type": "function"
    },
    {
      "inputs": [
        {
          "internalType": "address",
          "name": "_account",
          "type": "address"
        }
      ],
      "name": "getDepositTokensOfAccount",
      "outputs": [
        {
          "internalType": "address[]",
          "name": "",
          "type": "address[]"
        }
      ],
      "stateMutability": "view",
      "type": "function"
    },
    {
      "inputs": [],
      "name": "getRewardsDistributors",
      "outputs": [
        {
          "internalType": "contract IRewardsDistributor[]",
          "name": "",
          "type": "address[]"
        }
      ],
      "stateMutability": "view",
      "type": "function"
    },
    {
      "inputs": [],
      "name": "getSyntheticTokens",
      "outputs": [
        {
          "internalType": "address[]",
          "name": "",
          "type": "address[]"
        }
      ],
      "stateMutability": "view",
      "type": "function"
    },
    {
      "inputs": [],
      "name": "governor",
      "outputs": [
        {
          "internalType": "address",
          "name": "",
          "type": "address"
        }
      ],
      "stateMutability": "view",
      "type": "function"
    },
    {
      "inputs": [
        {
          "internalType": "contract IMasterOracle",
          "name": "_masterOracle",
          "type": "address"
        }
      ],
      "name": "initialize",
      "outputs": [],
      "stateMutability": "nonpayable",
      "type": "function"
    },
    {
      "inputs": [
        {
          "internalType": "contract IDepositToken",
          "name": "_depositToken",
          "type": "address"
        }
      ],
      "name": "isDepositTokenExists",
      "outputs": [
        {
          "internalType": "bool",
          "name": "",
          "type": "bool"
        }
      ],
      "stateMutability": "view",
      "type": "function"
    },
    {
      "inputs": [
        {
          "internalType": "contract ISyntheticToken",
          "name": "_syntheticToken",
          "type": "address"
        }
      ],
      "name": "isSyntheticTokenExists",
      "outputs": [
        {
          "internalType": "bool",
          "name": "",
          "type": "bool"
        }
      ],
      "stateMutability": "view",
      "type": "function"
    },
    {
      "inputs": [],
      "name": "issueFee",
      "outputs": [
        {
          "internalType": "uint256",
          "name": "",
          "type": "uint256"
        }
      ],
      "stateMutability": "view",
      "type": "function"
    },
    {
      "inputs": [
        {
          "internalType": "contract ISyntheticToken",
          "name": "_syntheticToken",
          "type": "address"
        },
        {
          "internalType": "address",
          "name": "_account",
          "type": "address"
        },
        {
          "internalType": "uint256",
          "name": "_amountToRepay",
          "type": "uint256"
        },
        {
          "internalType": "contract IDepositToken",
          "name": "_depositToken",
          "type": "address"
        }
      ],
      "name": "liquidate",
      "outputs": [],
      "stateMutability": "nonpayable",
      "type": "function"
    },
    {
      "inputs": [],
      "name": "liquidatorLiquidationFee",
      "outputs": [
        {
          "internalType": "uint256",
          "name": "",
          "type": "uint256"
        }
      ],
      "stateMutability": "view",
      "type": "function"
    },
    {
      "inputs": [],
      "name": "masterOracle",
      "outputs": [
        {
          "internalType": "contract IMasterOracle",
          "name": "",
          "type": "address"
        }
      ],
      "stateMutability": "view",
      "type": "function"
    },
    {
      "inputs": [],
      "name": "maxLiquidable",
      "outputs": [
        {
          "internalType": "uint256",
          "name": "",
          "type": "uint256"
        }
      ],
      "stateMutability": "view",
      "type": "function"
    },
    {
      "inputs": [],
      "name": "open",
      "outputs": [],
      "stateMutability": "nonpayable",
      "type": "function"
    },
    {
      "inputs": [],
      "name": "pause",
      "outputs": [],
      "stateMutability": "nonpayable",
      "type": "function"
    },
    {
      "inputs": [],
      "name": "paused",
      "outputs": [
        {
          "internalType": "bool",
          "name": "",
          "type": "bool"
        }
      ],
      "stateMutability": "view",
      "type": "function"
    },
    {
      "inputs": [],
      "name": "proposedGovernor",
      "outputs": [
        {
          "internalType": "address",
          "name": "",
          "type": "address"
        }
      ],
      "stateMutability": "view",
      "type": "function"
    },
    {
      "inputs": [],
      "name": "protocolLiquidationFee",
      "outputs": [
        {
          "internalType": "uint256",
          "name": "",
          "type": "uint256"
        }
      ],
      "stateMutability": "view",
      "type": "function"
    },
    {
      "inputs": [
        {
          "internalType": "contract IDepositToken",
          "name": "_depositToken",
          "type": "address"
        }
      ],
      "name": "removeDepositToken",
      "outputs": [],
      "stateMutability": "nonpayable",
      "type": "function"
    },
    {
      "inputs": [
        {
          "internalType": "address",
          "name": "_account",
          "type": "address"
        }
      ],
      "name": "removeFromDebtTokensOfAccount",
      "outputs": [],
      "stateMutability": "nonpayable",
      "type": "function"
    },
    {
      "inputs": [
        {
          "internalType": "address",
          "name": "_account",
          "type": "address"
        }
      ],
      "name": "removeFromDepositTokensOfAccount",
      "outputs": [],
      "stateMutability": "nonpayable",
      "type": "function"
    },
    {
      "inputs": [
        {
          "internalType": "contract ISyntheticToken",
          "name": "_syntheticToken",
          "type": "address"
        }
      ],
      "name": "removeSyntheticToken",
      "outputs": [],
      "stateMutability": "nonpayable",
      "type": "function"
    },
    {
      "inputs": [],
      "name": "repayFee",
      "outputs": [
        {
          "internalType": "uint256",
          "name": "",
          "type": "uint256"
        }
      ],
      "stateMutability": "view",
      "type": "function"
    },
    {
      "inputs": [],
      "name": "shutdown",
      "outputs": [],
      "stateMutability": "nonpayable",
      "type": "function"
    },
    {
      "inputs": [
        {
          "internalType": "contract ISyntheticToken",
          "name": "_syntheticTokenIn",
          "type": "address"
        },
        {
          "internalType": "contract ISyntheticToken",
          "name": "_syntheticTokenOut",
          "type": "address"
        },
        {
          "internalType": "uint256",
          "name": "_amountIn",
          "type": "uint256"
        }
      ],
      "name": "swap",
      "outputs": [
        {
          "internalType": "uint256",
          "name": "_amountOut",
          "type": "uint256"
        }
      ],
      "stateMutability": "nonpayable",
      "type": "function"
    },
    {
      "inputs": [],
      "name": "swapFee",
      "outputs": [
        {
          "internalType": "uint256",
          "name": "",
          "type": "uint256"
        }
      ],
      "stateMutability": "view",
      "type": "function"
    },
    {
      "inputs": [
        {
          "internalType": "address",
          "name": "_proposedGovernor",
          "type": "address"
        }
      ],
      "name": "transferGovernorship",
      "outputs": [],
      "stateMutability": "nonpayable",
      "type": "function"
    },
    {
      "inputs": [],
      "name": "treasury",
      "outputs": [
        {
          "internalType": "contract ITreasury",
          "name": "",
          "type": "address"
        }
      ],
      "stateMutability": "view",
      "type": "function"
    },
    {
      "inputs": [],
      "name": "unpause",
      "outputs": [],
      "stateMutability": "nonpayable",
      "type": "function"
    },
    {
      "inputs": [
        {
          "internalType": "uint256",
          "name": "_newDebtFloorInUsd",
          "type": "uint256"
        }
      ],
      "name": "updateDebtFloor",
      "outputs": [],
      "stateMutability": "nonpayable",
      "type": "function"
    },
    {
      "inputs": [
        {
          "internalType": "uint256",
          "name": "_newDepositFee",
          "type": "uint256"
        }
      ],
      "name": "updateDepositFee",
      "outputs": [],
      "stateMutability": "nonpayable",
      "type": "function"
    },
    {
      "inputs": [
        {
          "internalType": "uint256",
          "name": "_newIssueFee",
          "type": "uint256"
        }
      ],
      "name": "updateIssueFee",
      "outputs": [],
      "stateMutability": "nonpayable",
      "type": "function"
    },
    {
      "inputs": [
        {
          "internalType": "uint256",
          "name": "_newLiquidatorLiquidationFee",
          "type": "uint256"
        }
      ],
      "name": "updateLiquidatorLiquidationFee",
      "outputs": [],
      "stateMutability": "nonpayable",
      "type": "function"
    },
    {
      "inputs": [
        {
          "internalType": "contract IMasterOracle",
          "name": "_newMasterOracle",
          "type": "address"
        }
      ],
      "name": "updateMasterOracle",
      "outputs": [],
      "stateMutability": "nonpayable",
      "type": "function"
    },
    {
      "inputs": [
        {
          "internalType": "uint256",
          "name": "_newMaxLiquidable",
          "type": "uint256"
        }
      ],
      "name": "updateMaxLiquidable",
      "outputs": [],
      "stateMutability": "nonpayable",
      "type": "function"
    },
    {
      "inputs": [
        {
          "internalType": "uint256",
          "name": "_newProtocolLiquidationFee",
          "type": "uint256"
        }
      ],
      "name": "updateProtocolLiquidationFee",
      "outputs": [],
      "stateMutability": "nonpayable",
      "type": "function"
    },
    {
      "inputs": [
        {
          "internalType": "uint256",
          "name": "_newRepayFee",
          "type": "uint256"
        }
      ],
      "name": "updateRepayFee",
      "outputs": [],
      "stateMutability": "nonpayable",
      "type": "function"
    },
    {
      "inputs": [
        {
          "internalType": "uint256",
          "name": "_newSwapFee",
          "type": "uint256"
        }
      ],
      "name": "updateSwapFee",
      "outputs": [],
      "stateMutability": "nonpayable",
      "type": "function"
    },
    {
      "inputs": [
        {
          "internalType": "contract ITreasury",
          "name": "_newTreasury",
          "type": "address"
        },
        {
          "internalType": "bool",
          "name": "_withMigration",
          "type": "bool"
        }
      ],
      "name": "updateTreasury",
      "outputs": [],
      "stateMutability": "nonpayable",
      "type": "function"
    },
    {
      "inputs": [
        {
          "internalType": "uint256",
          "name": "_newWithdrawFee",
          "type": "uint256"
        }
      ],
      "name": "updateWithdrawFee",
      "outputs": [],
      "stateMutability": "nonpayable",
      "type": "function"
    },
    {
      "inputs": [],
      "name": "withdrawFee",
      "outputs": [
        {
          "internalType": "uint256",
          "name": "",
          "type": "uint256"
        }
      ],
      "stateMutability": "view",
      "type": "function"
    }
  ],
  "transactionHash": "0x0fc70eaf59f999d3140b5f706830c0154bcfbc2a5f4ac8fc712f106708a863f6",
  "args": [],
  "numDeployments": 2,
  "solcInputHash": "9d493da7ad7feb9d41baa9f03a4d1394",
  "bytecode": "0x608060405234801561001057600080fd5b50600280546001600160a01b0319163390811790915560405181906000907fd4459d5b8b913cab0244230fd9b1c08b6ceace7fe9230e60d0f74cbffdf849d0908290a350613fe6806100636000396000f3fe608060405234801561001057600080fd5b50600436106102f85760003560e01c806384d6f1ce11610193578063dde3ab95116100e4578063f36c7d9811610092578063f36c7d98146106be578063f3b27bc3146106d1578063f6092809146106d9578063fb01600d146106e2578063fc0e74d1146106ea578063fcfff16f146106f2578063ffa1ad74146106fa57600080fd5b8063dde3ab9514610622578063df791e501461065f578063e941fa7814610672578063eaada3821461067b578063eafecffa1461068e578063ecf3a3f914610697578063f0c80d3b146106ab57600080fd5b8063b6aa515b11610141578063b6aa515b1461059d578063bf16f65a146105b0578063c4d66de8146105c3578063d176e05f146105d6578063d283e75f146105e9578063daf635de146105fc578063dbe466b11461060f57600080fd5b806384d6f1ce1461050c57806387cddc861461051f57806388156a35146105485780638a11a3701461055b578063a20f37e71461056e578063abc9b45e14610581578063b2d90ebb1461059457600080fd5b806356aaee2d1161024d57806375c6f8ec116101fb57806375c6f8ec1461049c578063770b69b4146104af57806379e40cba146104c25780637c0f59f4146104d55780637c7d7484146104de5780637d355163146104f15780638456cb591461050457600080fd5b806356aaee2d1461042b57806357f2e5811461043e5780635c975abb1461045157806361d027b31461046557806364831b311461047857806367a527931461048b578063681390e61461049457600080fd5b80633605b51b116102aa5780633605b51b146103a95780633af5be47146103be5780633de2f6b2146103e15780633f4ba83a146103f45780633f5fc131146103fc5780634dfb65181461040f57806354cf2aeb1461042257600080fd5b8063017def57146102fd5780630c340a24146103125780631a4660ce1461033b57806323e3fbd51461034e578063275038d0146103765780632a9133c1146103895780632dd6adb5146103a0575b600080fd5b61031061030b3660046139df565b61072b565b005b600254610325906001600160a01b031681565b60405161033291906139f8565b60405180910390f35b6103106103493660046139df565b6107e8565b61036161035c366004613a21565b610874565b60408051928352602083019190915201610332565b610310610384366004613a21565b610a4b565b61039260065481565b604051908152602001610332565b610392600c5481565b6103b1610a9f565b6040516103329190613a3e565b6103d16103cc366004613a21565b610b01565b6040519015158152602001610332565b6103106103ef366004613a8b565b610b14565b6103106113f3565b61031061040a366004613a21565b6114d4565b6103d161041d366004613a21565b611521565b61039260095481565b610310610439366004613a21565b61152e565b61031061044c3660046139df565b611697565b6003546103d190600160a01b900460ff1681565b600e54610325906001600160a01b031681565b6103106104863660046139df565b61174b565b61039260055481565b6103b16117ff565b6103106104aa366004613a21565b611810565b6103106104bd366004613a21565b611995565b6103106104d0366004613a21565b611b0f565b61039260085481565b6103106104ec366004613aec565b611c5c565b6103b16104ff366004613a21565b611da0565b610310611dad565b61031061051a3660046139df565b611e55565b61032561052d366004613a21565b6011602052600090815260409020546001600160a01b031681565b6103106105563660046139df565b611f09565b600354610325906001600160a01b031681565b61031061057c366004613a21565b611fbd565b61031061058f366004613a21565b61208e565b610392600a5481565b6103106105ab366004613a21565b612171565b6103106105be3660046139df565b61220f565b6103106105d1366004613a21565b6122c3565b6103b16105e4366004613a21565b6123dc565b6103926105f7366004613a21565b6123e9565b61031061060a3660046139df565b6125ae565b61031061061d366004613a21565b612662565b610635610630366004613a21565b612837565b6040805195151586526020860194909452928401919091526060830152608082015260a001610332565b61039261066d366004613b25565b612881565b61039260075481565b600d54610325906001600160a01b031681565b610392600b5481565b6003546103d190600160a81b900460ff1681565b6103106106b93660046139df565b612dc4565b6103106106cc366004613a21565b612e78565b61031061310c565b61039260045481565b6103b16131c8565b6103106131d4565b610310613264565b61071e604051806040016040528060058152602001640312e302e360dc1b81525081565b6040516103329190613b66565b6002546001600160a01b0316331461075e5760405162461bcd60e51b815260040161075590613bbb565b60405180910390fd5b670de0b6b3a76400008111156107865760405162461bcd60e51b815260040161075590613be1565b600554818114156107a95760405162461bcd60e51b815260040161075590613c06565b60408051828152602081018490527f828cf983933545af35b9ba46eec951db1cb4c5433c3ec403aeced2963c264790910160405180910390a150600555565b6002546001600160a01b031633146108125760405162461bcd60e51b815260040161075590613bbb565b600454818114156108355760405162461bcd60e51b815260040161075590613c06565b60408051828152602081018490527f0662703672e57800b9439de3a419c9155283ad25ea7776c139c876bd8b93bb98910160405180910390a150600455565b6000808061088360148561330a565b905060005b81811015610a4457600061089e6014878461332b565b600d546040516370a0823160e01b81529192506000916001600160a01b039182169163ee9579969185918216906370a08231906108df908d906004016139f8565b60206040518083038186803b1580156108f757600080fd5b505afa15801561090b573d6000803e3d6000fd5b505050506040513d601f19601f8201168201806040525081019061092f9190613c33565b6040518363ffffffff1660e01b815260040161094c929190613c4c565b60206040518083038186803b15801561096457600080fd5b505afa158015610978573d6000803e3d6000fd5b505050506040513d601f19601f8201168201806040525081019061099c9190613c33565b90506109a88187613c7b565b9550610a25826001600160a01b031663dcaf9c446040518163ffffffff1660e01b815260040160206040518083038186803b1580156109e657600080fd5b505afa1580156109fa573d6000803e3d6000fd5b505050506040513d601f19601f82011682018060405250810190610a1e9190613c33565b8290613340565b610a2f9086613c7b565b9450505080610a3d90613c93565b9050610888565b5050915091565b610a58335b600f9061338c565b610a745760405162461bcd60e51b815260040161075590613cae565b610a80601482336133ae565b610a9c5760405162461bcd60e51b815260040161075590613ce5565b50565b60606016805480602002602001604051908101604052809291908181526020018280548015610af757602002820191906000526020600020905b81546001600160a01b03168152600190910190602001808311610ad9575b5050505050905090565b6000610b0e600f8361338c565b92915050565b600354600160a81b900460ff1615610b3e5760405162461bcd60e51b815260040161075590613d1c565b60026001541415610b615760405162461bcd60e51b815260040161075590613d3e565b600260015580610b7081610b01565b610b8c5760405162461bcd60e51b815260040161075590613d75565b60008311610bcd5760405162461bcd60e51b815260206004820152600e60248201526d616d6f756e742d69732d7a65726f60901b6044820152606401610755565b336001600160a01b038516811415610c275760405162461bcd60e51b815260206004820152601e60248201527f63616e2d6e6f742d6c69717569646174652d6f776e2d706f736974696f6e00006044820152606401610755565b856001600160a01b031663a6afed956040518163ffffffff1660e01b8152600401600060405180830381600087803b158015610c6257600080fd5b505af1158015610c76573d6000803e3d6000fd5b50505050600c54610d73876001600160a01b031663f8d898986040518163ffffffff1660e01b815260040160206040518083038186803b158015610cb957600080fd5b505afa158015610ccd573d6000803e3d6000fd5b505050506040513d601f19601f82011682018060405250810190610cf19190613da4565b6001600160a01b03166370a08231886040518263ffffffff1660e01b8152600401610d1c91906139f8565b60206040518083038186803b158015610d3457600080fd5b505afa158015610d48573d6000803e3d6000fd5b505050506040513d601f19601f82011682018060405250810190610d6c9190613c33565b86906133bb565b1115610dbc5760405162461bcd60e51b8152602060048201526018602482015277616d6f756e742d67742d6d61782d6c697175696461626c6560401b6044820152606401610755565b60045415610f9e576000600d60009054906101000a90046001600160a01b03166001600160a01b031663ee95799688878a6001600160a01b031663f8d898986040518163ffffffff1660e01b815260040160206040518083038186803b158015610e2557600080fd5b505afa158015610e39573d6000803e3d6000fd5b505050506040513d601f19601f82011682018060405250810190610e5d9190613da4565b6001600160a01b03166370a082318b6040518263ffffffff1660e01b8152600401610e8891906139f8565b60206040518083038186803b158015610ea057600080fd5b505afa158015610eb4573d6000803e3d6000fd5b505050506040513d601f19601f82011682018060405250810190610ed89190613c33565b610ee29190613dc1565b6040518363ffffffff1660e01b8152600401610eff929190613c4c565b60206040518083038186803b158015610f1757600080fd5b505afa158015610f2b573d6000803e3d6000fd5b505050506040513d601f19601f82011682018060405250810190610f4f9190613c33565b9050801580610f6057506004548110155b610f9c5760405162461bcd60e51b815260206004820152600d60248201526c3232b13a16b63a16b33637b7b960991b6044820152606401610755565b505b6000610fa986612837565b5050505090508015610ff35760405162461bcd60e51b8152602060048201526013602482015272706f736974696f6e2d69732d6865616c74687960681b6044820152606401610755565b600d5460405163248391ff60e01b81526000916001600160a01b03169063248391ff90611028908b9089908b90600401613dd8565b60206040518083038186803b15801561104057600080fd5b505afa158015611054573d6000803e3d6000fd5b505050506040513d601f19601f820116820180604052508101906110789190613c33565b9050600080600b541161108c57600061109a565b600b5461109a908390613340565b905060006110be600a54670de0b6b3a76400006110b79190613c7b565b8490613340565b905060006110cc8284613c7b565b6040516370a0823160e01b81529091506001600160a01b038916906370a08231906110fb908d906004016139f8565b60206040518083038186803b15801561111357600080fd5b505afa158015611127573d6000803e3d6000fd5b505050506040513d601f19601f8201168201806040525081019061114b9190613c33565b81111561118c5760405162461bcd60e51b815260206004820152600f60248201526e0c2dadeeadce85ae8dede5ad0d2ced608b1b6044820152606401610755565b604051632770a7eb60e21b81526001600160a01b038c1690639dc29fac906111ba9089908d90600401613c4c565b600060405180830381600087803b1580156111d457600080fd5b505af11580156111e8573d6000803e3d6000fd5b505050508a6001600160a01b031663f8d898986040518163ffffffff1660e01b815260040160206040518083038186803b15801561122557600080fd5b505afa158015611239573d6000803e3d6000fd5b505050506040513d601f19601f8201168201806040525081019061125d9190613da4565b6001600160a01b0316639dc29fac8b8b6040518363ffffffff1660e01b815260040161128a929190613c4c565b600060405180830381600087803b1580156112a457600080fd5b505af11580156112b8573d6000803e3d6000fd5b505060405163b2a02ff160e01b81526001600160a01b038b16925063b2a02ff191506112ec908d908a908790600401613dd8565b600060405180830381600087803b15801561130657600080fd5b505af115801561131a573d6000803e3d6000fd5b50505050600083111561138e57600e5460405163b2a02ff160e01b81526001600160a01b03808b169263b2a02ff19261135b928f9216908890600401613dd8565b600060405180830381600087803b15801561137557600080fd5b505af1158015611389573d6000803e3d6000fd5b505050505b604080518a8152602081018390529081018490526001600160a01b03808d16918c8216918916907fe1c3870e3d7d5199a16d200133088e6e3f7012d28571e442a110b4c83b5e3b949060600160405180910390a4505060018055505050505050505050565b600354600160a01b900460ff166114395760405162461bcd60e51b815260206004820152600a6024820152691b9bdd0b5c185d5cd95960b21b6044820152606401610755565b600354600160a81b900460ff16156114635760405162461bcd60e51b815260040161075590613d1c565b6002546001600160a01b0316331461148d5760405162461bcd60e51b815260040161075590613bbb565b6003805460ff60a01b191690557f5db9ee0a495bf2e6ff9c91a7834c1ba4fdd244a5e8aa4e537bd38aeae4b073aa335b6040516114ca91906139f8565b60405180910390a1565b6114dd33610a50565b6114f95760405162461bcd60e51b815260040161075590613cae565b611505601482336133db565b610a9c5760405162461bcd60e51b815260040161075590613dfc565b6000610b0e60128361338c565b6002546001600160a01b031633146115585760405162461bcd60e51b815260040161075590613bbb565b6001600160a01b03811661157e5760405162461bcd60e51b815260040161075590613e2a565b60005b601654811015611610576016818154811061159e5761159e613e53565b6000918252602090912001546001600160a01b03838116911614156115fe5760405162461bcd60e51b815260206004820152601660248201527518dbdb9d1c9858dd0b585b1c9958591e4b585919195960521b6044820152606401610755565b8061160881613c93565b915050611581565b50601680546001810182556000919091527fd833147d7dc355ba459fc788f669e58cfaf9dc25ddcd0702e87d69c7b51242890180546001600160a01b0319166001600160a01b0383161790556040517f5579b1eead2d904c2b05255a92f5a4a4f3e234ae0a4efe538adef3c1794e1cea9061168c9083906139f8565b60405180910390a150565b6002546001600160a01b031633146116c15760405162461bcd60e51b815260040161075590613bbb565b670de0b6b3a76400008111156116e95760405162461bcd60e51b815260040161075590613be1565b6006548181141561170c5760405162461bcd60e51b815260040161075590613c06565b60408051828152602081018490527f7aef17a0caeda11810cdf2a40c79ac1340553588671fb35d5cc8d0a3fe2883be910160405180910390a150600655565b6002546001600160a01b031633146117755760405162461bcd60e51b815260040161075590613bbb565b670de0b6b3a764000081111561179d5760405162461bcd60e51b815260040161075590613be1565b600a54818114156117c05760405162461bcd60e51b815260040161075590613c06565b60408051828152602081018490527f457d9e7f8f7a13610e084de82e6b40a65eddd57ff51a358ef64e1199c37c676a910160405180910390a150600a55565b606061180b60126133e8565b905090565b60003390506000816001600160a01b0316638230ecd66040518163ffffffff1660e01b815260040160206040518083038186803b15801561185057600080fd5b505afa158015611864573d6000803e3d6000fd5b505050506040513d601f19601f820116820180604052508101906118889190613da4565b905061189560128261338c565b80156119225750806001600160a01b031663f8d898986040518163ffffffff1660e01b815260040160206040518083038186803b1580156118d557600080fd5b505afa1580156118e9573d6000803e3d6000fd5b505050506040513d601f19601f8201168201806040525081019061190d9190613da4565b6001600160a01b0316336001600160a01b0316145b61193e5760405162461bcd60e51b815260040161075590613e69565b61194a601584336133ae565b6119905760405162461bcd60e51b81526020600482015260176024820152761919589d0b5d1bdad95b8b591bd95cdb9d0b595e1a5cdd604a1b6044820152606401610755565b505050565b60003390506000816001600160a01b0316638230ecd66040518163ffffffff1660e01b815260040160206040518083038186803b1580156119d557600080fd5b505afa1580156119e9573d6000803e3d6000fd5b505050506040513d601f19601f82011682018060405250810190611a0d9190613da4565b9050611a1a60128261338c565b8015611aa75750806001600160a01b031663f8d898986040518163ffffffff1660e01b815260040160206040518083038186803b158015611a5a57600080fd5b505afa158015611a6e573d6000803e3d6000fd5b505050506040513d601f19601f82011682018060405250810190611a929190613da4565b6001600160a01b0316336001600160a01b0316145b611ac35760405162461bcd60e51b815260040161075590613e69565b611acf601584336133db565b6119905760405162461bcd60e51b8152602060048201526011602482015270646562742d746f6b656e2d65786973747360781b6044820152606401610755565b6002546001600160a01b03163314611b395760405162461bcd60e51b815260040161075590613bbb565b6001600160a01b038116611b5f5760405162461bcd60e51b815260040161075590613e2a565b611b6a600f826133f5565b611b865760405162461bcd60e51b815260040161075590613dfc565b8060116000836001600160a01b0316636f307dc36040518163ffffffff1660e01b815260040160206040518083038186803b158015611bc457600080fd5b505afa158015611bd8573d6000803e3d6000fd5b505050506040513d601f19601f82011682018060405250810190611bfc9190613da4565b6001600160a01b03908116825260208201929092526040908101600090812080546001600160a01b0319169484169490941790935551908316917fdc705e658c7b6c6c01f5802457bf4ffb99f204bf1603e7b1ae3d4c7536611bc291a250565b6002546001600160a01b03163314611c865760405162461bcd60e51b815260040161075590613bbb565b6001600160a01b038216611cac5760405162461bcd60e51b815260040161075590613e2a565b600e546001600160a01b0383811691161415611cda5760405162461bcd60e51b815260040161075590613c06565b8015611d4357600e546040516326ed7c7960e11b81526001600160a01b0390911690634ddaf8f290611d109085906004016139f8565b600060405180830381600087803b158015611d2a57600080fd5b505af1158015611d3e573d6000803e3d6000fd5b505050505b600e546040516001600160a01b038085169216907f4ab5be82436d353e61ca18726e984e561f5c1cc7c6d38b29d2553c790434705a90600090a350600e80546001600160a01b0319166001600160a01b0392909216919091179055565b6060610b0e60148361340a565b600354600160a01b900460ff1615611df05760405162461bcd60e51b81526020600482015260066024820152651c185d5cd95960d21b6044820152606401610755565b6002546001600160a01b03163314611e1a5760405162461bcd60e51b815260040161075590613bbb565b6003805460ff60a01b1916600160a01b1790557f62e78cea01bee320cd4e420270b5ea74000d11b0c9f74754ebdbfc544b05a2586114bd3390565b6002546001600160a01b03163314611e7f5760405162461bcd60e51b815260040161075590613bbb565b670de0b6b3a7640000811115611ea75760405162461bcd60e51b815260040161075590613be1565b600b5481811415611eca5760405162461bcd60e51b815260040161075590613c06565b60408051828152602081018490527fe0dac1dcc46eceed1fdb7416944e7161273637fb346a67d6f0fce8de3e952f2f910160405180910390a150600b55565b6002546001600160a01b03163314611f335760405162461bcd60e51b815260040161075590613bbb565b670de0b6b3a7640000811115611f5b5760405162461bcd60e51b815260040161075590613be1565b60085481811415611f7e5760405162461bcd60e51b815260040161075590613c06565b60408051828152602081018490527fdd45ca427fa57d0870314eb55586e91bcdd31d7cd393e3278caaae9dfb749688910160405180910390a150600855565b6002546001600160a01b03163314611fe75760405162461bcd60e51b815260040161075590613bbb565b6001600160a01b03811661200d5760405162461bcd60e51b815260040161075590613e2a565b6120186012826133f5565b6120575760405162461bcd60e51b815260206004820152601060248201526f73796e7468657469632d65786973747360801b6044820152606401610755565b6040516001600160a01b038216907f6b5a83f4cf73e3df48c170415d0be65d33e1cedc4eecd090d47189119061eb4890600090a250565b6002546001600160a01b031633146120b85760405162461bcd60e51b815260040161075590613bbb565b6001600160a01b0381166120de5760405162461bcd60e51b815260040161075590613e2a565b600d546001600160a01b0390811690821681141561210e5760405162461bcd60e51b815260040161075590613c06565b816001600160a01b0316816001600160a01b03167fc96bca3f57d35a1057a3357bced51fac157918147faa56845639671c516ec69c60405160405180910390a350600d80546001600160a01b0319166001600160a01b0392909216919091179055565b6002546001600160a01b0316331461219b5760405162461bcd60e51b815260040161075590613bbb565b6001600160a01b0381166121ed5760405162461bcd60e51b815260206004820152601960248201527870726f706f7365642d676f7665726e6f722d69732d7a65726f60381b6044820152606401610755565b600380546001600160a01b0319166001600160a01b0392909216919091179055565b6002546001600160a01b031633146122395760405162461bcd60e51b815260040161075590613bbb565b670de0b6b3a76400008111156122615760405162461bcd60e51b815260040161075590613be1565b600954818114156122845760405162461bcd60e51b815260040161075590613c06565b60408051828152602081018490527fc8273cce54f5cf71712dee009c7e6438ae7e1db578da0ec076cf360af45501b9910160405180910390a150600955565b600054610100900460ff16806122dc575060005460ff16155b6122f85760405162461bcd60e51b815260040161075590613e9b565b600054610100900460ff1615801561231a576000805461ffff19166101011790555b6001600160a01b0382166123615760405162461bcd60e51b815260206004820152600e60248201526d1bdc9858db194b5a5ccb5b9d5b1b60921b6044820152606401610755565b612369613418565b612371613487565b600d80546001600160a01b0319166001600160a01b038416179055660aa87bee538000600855661550f7dca7000060095567016345785d8a0000600a5567011c37937e080000600b55670de0b6b3a7640000600c5580156123d8576000805461ff00191690555b5050565b6060610b0e60158361340a565b6000806123f760158461330a565b905060005b818110156125a75760006124126015868461332b565b90506000816001600160a01b0316638230ecd66040518163ffffffff1660e01b815260040160206040518083038186803b15801561244f57600080fd5b505afa158015612463573d6000803e3d6000fd5b505050506040513d601f19601f820116820180604052508101906124879190613da4565b600d546040516370a0823160e01b81529192506000916001600160a01b039182169163ee9579969185918716906370a08231906124c8908d906004016139f8565b60206040518083038186803b1580156124e057600080fd5b505afa1580156124f4573d6000803e3d6000fd5b505050506040513d601f19601f820116820180604052508101906125189190613c33565b6040518363ffffffff1660e01b8152600401612535929190613c4c565b60206040518083038186803b15801561254d57600080fd5b505afa158015612561573d6000803e3d6000fd5b505050506040513d601f19601f820116820180604052508101906125859190613c33565b90506125918187613c7b565b9550505050806125a090613c93565b90506123fc565b5050919050565b6002546001600160a01b031633146125d85760405162461bcd60e51b815260040161075590613bbb565b670de0b6b3a76400008111156126005760405162461bcd60e51b815260040161075590613be1565b600754818114156126235760405162461bcd60e51b815260040161075590613c06565b60408051828152602081018490527f733071ab8253b372ed26a6d1b04aec71c4bfcd209c93397df32bb77478cdd2c8910160405180910390a150600755565b6002546001600160a01b0316331461268c5760405162461bcd60e51b815260040161075590613bbb565b8061269681610b01565b6126b25760405162461bcd60e51b815260040161075590613d75565b816001600160a01b03166318160ddd6040518163ffffffff1660e01b815260040160206040518083038186803b1580156126eb57600080fd5b505afa1580156126ff573d6000803e3d6000fd5b505050506040513d601f19601f820116820180604052508101906127239190613c33565b156127405760405162461bcd60e51b815260040161075590613ee9565b61274b600f83613535565b6127675760405162461bcd60e51b815260040161075590613ce5565b60116000836001600160a01b0316636f307dc36040518163ffffffff1660e01b815260040160206040518083038186803b1580156127a457600080fd5b505afa1580156127b8573d6000803e3d6000fd5b505050506040513d601f19601f820116820180604052508101906127dc9190613da4565b6001600160a01b03908116825260208201929092526040908101600090812080546001600160a01b03191690559051918416917fe5a19a76470297a1f85f9a38f3ff148b4c8cdc1209e074dbe59db5e22eb31a3a9190a25050565b6000806000806000612848866123e9565b925061285386610874565b808511159650909450915081831061286c576000612876565b6128768383613dc1565b905091939590929450565b600354600090600160a81b900460ff16156128ae5760405162461bcd60e51b815260040161075590613d1c565b600260015414156128d15760405162461bcd60e51b815260040161075590613d3e565b6002600155836128e081611521565b6128fc5760405162461bcd60e51b815260040161075590613f0e565b8361290681611521565b6129225760405162461bcd60e51b815260040161075590613f0e565b84806001600160a01b03166322f3e2d46040518163ffffffff1660e01b815260040160206040518083038186803b15801561295c57600080fd5b505afa158015612970573d6000803e3d6000fd5b505050506040513d601f19601f820116820180604052508101906129949190613f3c565b6129d55760405162461bcd60e51b815260206004820152601260248201527173796e7468657469632d696e61637469766560701b6044820152606401610755565b866001600160a01b031663a6afed956040518163ffffffff1660e01b8152600401600060405180830381600087803b158015612a1057600080fd5b505af1158015612a24573d6000803e3d6000fd5b50505050856001600160a01b031663a6afed956040518163ffffffff1660e01b8152600401600060405180830381600087803b158015612a6357600080fd5b505af1158015612a77573d6000803e3d6000fd5b505050506000612a843390565b905060008611612ac75760405162461bcd60e51b815260206004820152600e60248201526d0616d6f756e742d696e2d69732d360941b6044820152606401610755565b6040516370a0823160e01b81526001600160a01b038916906370a0823190612af39084906004016139f8565b60206040518083038186803b158015612b0b57600080fd5b505afa158015612b1f573d6000803e3d6000fd5b505050506040513d601f19601f82011682018060405250810190612b439190613c33565b861115612b895760405162461bcd60e51b8152602060048201526014602482015273616d6f756e742d696e2d67742d62616c616e636560601b6044820152606401610755565b604051632770a7eb60e21b81526001600160a01b03891690639dc29fac90612bb79084908a90600401613c4c565b600060405180830381600087803b158015612bd157600080fd5b505af1158015612be5573d6000803e3d6000fd5b5050600d5460405163248391ff60e01b81526001600160a01b03909116925063248391ff9150612c1d908b908b908b90600401613dd8565b60206040518083038186803b158015612c3557600080fd5b505afa158015612c49573d6000803e3d6000fd5b505050506040513d601f19601f82011682018060405250810190612c6d9190613c33565b94506000806009541115612cff57600954612c89908790613340565b600e546040516340c10f1960e01b81529192506001600160a01b03808b16926340c10f1992612cbe9216908590600401613c4c565b600060405180830381600087803b158015612cd857600080fd5b505af1158015612cec573d6000803e3d6000fd5b505050508086612cfc9190613dc1565b95505b6040516340c10f1960e01b81526001600160a01b038916906340c10f1990612d2d9085908a90600401613c4c565b600060405180830381600087803b158015612d4757600080fd5b505af1158015612d5b573d6000803e3d6000fd5b5050604080518a8152602081018a90529081018490526001600160a01b03808c1693508c811692508516907fafd74f009c0ff7627726f24b568ee5529cd297f6a7a1e43ec363443a13a584209060600160405180910390a4505060018055509195945050505050565b6002546001600160a01b03163314612dee5760405162461bcd60e51b815260040161075590613bbb565b670de0b6b3a7640000811115612e165760405162461bcd60e51b815260040161075590613be1565b600c5481811415612e395760405162461bcd60e51b815260040161075590613c06565b60408051828152602081018490527f6d8ed4ad9ba67058e16e32fc3c8da2e3358da6cd1599e0e0fb2630d0a19fd49c910160405180910390a150600c55565b6002546001600160a01b03163314612ea25760405162461bcd60e51b815260040161075590613bbb565b80612eac81611521565b612ec85760405162461bcd60e51b815260040161075590613f0e565b816001600160a01b03166318160ddd6040518163ffffffff1660e01b815260040160206040518083038186803b158015612f0157600080fd5b505afa158015612f15573d6000803e3d6000fd5b505050506040513d601f19601f82011682018060405250810190612f399190613c33565b15612f565760405162461bcd60e51b815260040161075590613ee9565b816001600160a01b031663f8d898986040518163ffffffff1660e01b815260040160206040518083038186803b158015612f8f57600080fd5b505afa158015612fa3573d6000803e3d6000fd5b505050506040513d601f19601f82011682018060405250810190612fc79190613da4565b6001600160a01b03166318160ddd6040518163ffffffff1660e01b815260040160206040518083038186803b158015612fff57600080fd5b505afa158015613013573d6000803e3d6000fd5b505050506040513d601f19601f820116820180604052508101906130379190613c33565b156130845760405162461bcd60e51b815260206004820152601a60248201527f73796e7468657469632d776974682d646562742d737570706c790000000000006044820152606401610755565b61308f601283613535565b6130d45760405162461bcd60e51b81526020600482015260166024820152751cde5b9d1a195d1a58cb591bd95cdb9d0b595e1a5cdd60521b6044820152606401610755565b6040516001600160a01b038316907fc6410e68b378721373b73ca2a05e332f27c833f6aca80f67ce583292e01f3bc490600090a25050565b6003546001600160a01b031633146131625760405162461bcd60e51b81526020600482015260196024820152783737ba16ba343296b83937b837b9b2b216b3b7bb32b93737b960391b6044820152606401610755565b6003546002546040516001600160a01b0392831692909116907fd4459d5b8b913cab0244230fd9b1c08b6ceace7fe9230e60d0f74cbffdf849d090600090a360038054600280546001600160a01b03199081166001600160a01b03841617909155169055565b606061180b600f6133e8565b600354600160a81b900460ff16156131fe5760405162461bcd60e51b815260040161075590613d1c565b6002546001600160a01b031633146132285760405162461bcd60e51b815260040161075590613bbb565b6003805461ffff60a01b191661010160a01b1790557f28b4c24cb1012c094cd2f59f98e89d791973295f8fda6eaa118022d6d318960a336114bd565b600354600160a81b900460ff166132ac5760405162461bcd60e51b815260206004820152600c60248201526b3737ba16b9b43aba3237bbb760a11b6044820152606401610755565b6002546001600160a01b031633146132d65760405162461bcd60e51b815260040161075590613bbb565b6003805460ff60a81b191690557fece7583a70a505ef0e36d4dec768f5ae597713e09c26011022599ee01abdabfc336114bd565b6001600160a01b0381166000908152602083905260408120545b9392505050565b600061333884848461354a565b949350505050565b600082158061334d575081155b1561335a57506000610b0e565b670de0b6b3a764000061336e600282613f59565b6133788486613f7b565b6133829190613c7b565b6133249190613f59565b6001600160a01b03811660009081526001830160205260408120541515613324565b6000613338848484613591565b6000816133c9600282613f59565b613378670de0b6b3a764000086613f7b565b600061333884848461373e565b60606000613324836137cc565b6000613324836001600160a01b038416613828565b606060006133388484613877565b600054610100900460ff1680613431575060005460ff16155b61344d5760405162461bcd60e51b815260040161075590613e9b565b600054610100900460ff1615801561346f576000805461ffff19166101011790555b600180558015610a9c576000805461ff001916905550565b600054610100900460ff16806134a0575060005460ff16155b6134bc5760405162461bcd60e51b815260040161075590613e9b565b600054610100900460ff161580156134de576000805461ffff19166101011790555b600280546001600160a01b0319163390811790915560405181906000907fd4459d5b8b913cab0244230fd9b1c08b6ceace7fe9230e60d0f74cbffdf849d0908290a3508015610a9c576000805461ff001916905550565b6000613324836001600160a01b0384166138ec565b6001600160a01b038216600090815260208490526040812080548390811061357457613574613e53565b6000918252602090912001546001600160a01b0316949350505050565b6001600160a01b038083166000908152602085815260408083209385168352600190930190529081205480156137345760006135ce600183613dc1565b6001600160a01b038616600090815260208890526040812054919250906135f790600190613dc1565b90508181146136b3576001600160a01b038616600090815260208890526040812080548390811061362a5761362a613e53565b60009182526020808320909101546001600160a01b038a81168452918b9052604090922080549190921692508291908590811061366957613669613e53565b600091825260208083209190910180546001600160a01b0319166001600160a01b0394851617905589831682528a8152604080832094909316825260019390930190925290208390555b6001600160a01b03861660009081526020889052604090208054806136da576136da613f9a565b60008281526020808220830160001990810180546001600160a01b03191690559092019092556001600160a01b03888116835289825260408084209189168452600191820190925290822091909155935061332492505050565b6000915050613324565b6001600160a01b03808316600090815260208581526040808320938516835260019093019052908120546137c457506001600160a01b0382811660009081526020858152604080832080546001808201835582865284862090910180546001600160a01b0319169688169687179055815495855290810190925290912091909155613324565b506000613324565b60608160000180548060200260200160405190810160405280929190818152602001828054801561381c57602002820191906000526020600020905b815481526020019060010190808311613808575b50505050509050919050565b600081815260018301602052604081205461386f57508154600181810184556000848152602080822090930184905584548482528286019093526040902091909155610b0e565b506000610b0e565b6001600160a01b038116600090815260208381526040918290208054835181840281018401909452808452606093928301828280156138df57602002820191906000526020600020905b81546001600160a01b031681526001909101906020018083116138c1575b5050505050905092915050565b600081815260018301602052604081205480156139d5576000613910600183613dc1565b855490915060009061392490600190613dc1565b905081811461398957600086600001828154811061394457613944613e53565b906000526020600020015490508087600001848154811061396757613967613e53565b6000918252602080832090910192909255918252600188019052604090208390555b855486908061399a5761399a613f9a565b600190038181906000526020600020016000905590558560010160008681526020019081526020016000206000905560019350505050610b0e565b6000915050610b0e565b6000602082840312156139f157600080fd5b5035919050565b6001600160a01b0391909116815260200190565b6001600160a01b0381168114610a9c57600080fd5b600060208284031215613a3357600080fd5b813561332481613a0c565b6020808252825182820181905260009190848201906040850190845b81811015613a7f5783516001600160a01b031683529284019291840191600101613a5a565b50909695505050505050565b60008060008060808587031215613aa157600080fd5b8435613aac81613a0c565b93506020850135613abc81613a0c565b9250604085013591506060850135613ad381613a0c565b939692955090935050565b8015158114610a9c57600080fd5b60008060408385031215613aff57600080fd5b8235613b0a81613a0c565b91506020830135613b1a81613ade565b809150509250929050565b600080600060608486031215613b3a57600080fd5b8335613b4581613a0c565b92506020840135613b5581613a0c565b929592945050506040919091013590565b600060208083528351808285015260005b81811015613b9357858101830151858201604001528201613b77565b81811115613ba5576000604083870101525b50601f01601f1916929092016040019392505050565b6020808252600c908201526b3737ba16b3b7bb32b93737b960a11b604082015260600190565b6020808252600b908201526a6d61782d69732d3130302560a81b604082015260600190565b6020808252601390820152721b995dcb5cd85b594b585ccb58dd5c9c995b9d606a1b604082015260600190565b600060208284031215613c4557600080fd5b5051919050565b6001600160a01b03929092168252602082015260400190565b634e487b7160e01b600052601160045260246000fd5b60008219821115613c8e57613c8e613c65565b500190565b6000600019821415613ca757613ca7613c65565b5060010190565b6020808252601b908201527f63616c6c65722d69732d6e6f742d6465706f7369742d746f6b656e0000000000604082015260600190565b6020808252601a908201527f6465706f7369742d746f6b656e2d646f65736e742d6578697374000000000000604082015260600190565b60208082526008908201526739b43aba3237bbb760c11b604082015260600190565b6020808252601f908201527f5265656e7472616e637947756172643a207265656e7472616e742063616c6c00604082015260600190565b60208082526015908201527418dbdb1b185d195c985b0b5a5b995e1a5cdd195b9d605a1b604082015260600190565b600060208284031215613db657600080fd5b815161332481613a0c565b600082821015613dd357613dd3613c65565b500390565b6001600160a01b039384168152919092166020820152604081019190915260600190565b6020808252601490820152736465706f7369742d746f6b656e2d65786973747360601b604082015260600190565b6020808252600f908201526e1859191c995cdccb5a5ccb5b9d5b1b608a1b604082015260600190565b634e487b7160e01b600052603260045260246000fd5b60208082526018908201527731b0b63632b916b4b996b737ba16b232b13a16ba37b5b2b760411b604082015260600190565b6020808252602e908201527f496e697469616c697a61626c653a20636f6e747261637420697320616c72656160408201526d191e481a5b9a5d1a585b1a5e995960921b606082015260800190565b6020808252600b908201526a0737570706c792d67742d360ac1b604082015260600190565b6020808252601490820152731cde5b9d1a195d1a58cb5a5b995e1a5cdd195b9d60621b604082015260600190565b600060208284031215613f4e57600080fd5b815161332481613ade565b600082613f7657634e487b7160e01b600052601260045260246000fd5b500490565b6000816000190483118215151615613f9557613f95613c65565b500290565b634e487b7160e01b600052603160045260246000fdfea26469706673582212205138cf83725d8ec2be224a1efec45f293c0a745f2a2a475746c4359fb3fc22cc64736f6c63430008090033",
  "devdoc": {
    "kind": "dev",
    "methods": {
      "acceptGovernorship()": {
        "details": "Allows new governor to accept governorship of the contract."
      },
      "addToDebtTokensOfAccount(address)": {
        "details": "This function is called from `DebtToken._beforeTokenTransfer` hookThe caller should ensure to not pass `address(0)` as `_account`",
        "params": {
          "_account": "The account address"
        }
      },
      "addToDepositTokensOfAccount(address)": {
        "details": "This function is called from `DepositToken._beforeTokenTransfer` hookThe caller should ensure to not pass `address(0)` as `_account`",
        "params": {
          "_account": "The account address"
        }
      },
      "debtOf(address)": {
        "params": {
          "_account": "The account to check"
        },
        "returns": {
          "_debtInUsd": "The debt value in USD"
        }
      },
      "debtPositionOf(address)": {
        "params": {
          "_account": "The account to check"
        },
        "returns": {
          "_debtInUsd": "The total debt in USD",
          "_depositInUsd": "The total collateral deposited in USD",
          "_isHealthy": "Whether the account's position is healthy",
          "_issuableInUsd": "The amount of debt (is USD) that is free (i.e. can be used to issue synthetic tokens)",
          "_issuableLimitInUsd": "The max amount of debt (is USD) that can be created (considering collateralization ratios)"
        }
      },
      "depositOf(address)": {
        "params": {
          "_account": "The account to check"
        },
        "returns": {
          "_depositInUsd": "The total deposit value in USD among all collaterals",
          "_issuableLimitInUsd": "The max value in USD that can be used to issue synthetic tokens"
        }
      },
      "getDebtTokensOfAccount(address)": {
        "details": "WARNING: This operation will copy the entire storage to memory, which can be quite expensive. This is designed to mostly be used by view accessors that are queried without any gas fees."
      },
      "getDepositTokens()": {
        "details": "WARNING: This operation will copy the entire storage to memory, which can be quite expensive. This is designed to mostly be used by view accessors that are queried without any gas fees."
      },
      "getDepositTokensOfAccount(address)": {
        "details": "WARNING: This operation will copy the entire storage to memory, which can be quite expensive. This is designed to mostly be used by view accessors that are queried without any gas fees."
      },
      "getSyntheticTokens()": {
        "details": "WARNING: This operation will copy the entire storage to memory, which can be quite expensive. This is designed to mostly be used by view accessors that are queried without any gas fees."
      },
      "isDepositTokenExists(address)": {
        "params": {
          "_depositToken": "Asset to check"
        },
        "returns": {
          "_0": "true if exist"
        }
      },
      "isSyntheticTokenExists(address)": {
        "params": {
          "_syntheticToken": "Asset to check"
        },
        "returns": {
          "_0": "true if exist"
        }
      },
      "liquidate(address,address,uint256,address)": {
        "params": {
          "_account": "The account with an unhealty position",
          "_amountToRepay": "The amount to repay in synthetic token",
          "_depositToken": "The collateral to seize from",
          "_syntheticToken": "The vsAsset to use for repayment"
        }
      },
      "open()": {
        "details": "Open contract operations, if contract is in shutdown state"
      },
      "pause()": {
        "details": "Pause contract operations, if contract is not paused."
      },
      "removeFromDebtTokensOfAccount(address)": {
        "details": "This function is called from `DebtToken._afterTokenTransfer` hookThe caller should ensure to not pass `address(0)` as `_account`",
        "params": {
          "_account": "The account address"
        }
      },
      "removeFromDepositTokensOfAccount(address)": {
        "details": "This function is called from `DepositToken._afterTokenTransfer` hookThe caller should ensure to not pass `address(0)` as `_account`",
        "params": {
          "_account": "The account address"
        }
      },
      "shutdown()": {
        "details": "Shutdown contract operations, if not already shutdown."
      },
      "swap(address,address,uint256)": {
        "params": {
          "_amountIn": "Amount to swap",
          "_syntheticTokenIn": "Synthetic token to sell",
          "_syntheticTokenOut": "Synthetic token to buy"
        }
      },
      "transferGovernorship(address)": {
        "details": "Transfers governorship of the contract to a new account (`proposedGovernor`). Can only be called by the current owner."
      },
      "unpause()": {
        "details": "Unpause contract operations, allow only if contract is paused and not shutdown."
      }
    },
    "title": "Controller contract",
    "version": 1
  },
  "userdoc": {
    "events": {
      "DebtFloorUpdated(uint256,uint256)": {
        "notice": "Emitted when protocol liquidation fee is updated"
      },
      "DebtRefinancied(address,address,uint256,uint256,uint256)": {
        "notice": "Emitted when debt is refinancied"
      },
      "DepositFeeUpdated(uint256,uint256)": {
        "notice": "Emitted when deposit fee is updated"
      },
      "DepositTokenAdded(address)": {
        "notice": "Emitted when deposit token is enabled"
      },
      "DepositTokenRemoved(address)": {
        "notice": "Emitted when deposit token is disabled"
      },
      "IssueFeeUpdated(uint256,uint256)": {
        "notice": "Emitted when issue fee is updated"
      },
      "LiquidatorLiquidationFeeUpdated(uint256,uint256)": {
        "notice": "Emitted when liquidator liquidation fee is updated"
      },
      "MasterOracleUpdated(address,address)": {
        "notice": "Emitted when master oracle contract is updated"
      },
      "MaxLiquidableUpdated(uint256,uint256)": {
        "notice": "Emitted when maxLiquidable (liquidation cap) is updated"
      },
      "PositionLiquidated(address,address,address,uint256,uint256,uint256)": {
        "notice": "Emitted when a position is liquidated"
      },
      "ProtocolLiquidationFeeUpdated(uint256,uint256)": {
        "notice": "Emitted when protocol liquidation fee is updated"
      },
      "RefinanceFeeUpdated(uint256,uint256)": {
        "notice": "Emitted when refinance fee is updated"
      },
      "RepayFeeUpdated(uint256,uint256)": {
        "notice": "Emitted when repay fee is updated"
      },
      "RewardsDistributorAdded(address)": {
        "notice": "Emitted when rewards distributor contract is added"
      },
      "SwapFeeUpdated(uint256,uint256)": {
        "notice": "Emitted when swap fee is updated"
      },
      "SyntheticTokenAdded(address)": {
        "notice": "Emitted when synthetic token is enabled"
      },
      "SyntheticTokenRemoved(address)": {
        "notice": "Emitted when synthetic token is disabled"
      },
      "SyntheticTokenSwapped(address,address,address,uint256,uint256,uint256)": {
        "notice": "Emitted when synthetic token is swapped"
      },
      "TreasuryUpdated(address,address)": {
        "notice": "Emitted when treasury contract is updated"
      },
      "WithdrawFeeUpdated(uint256,uint256)": {
        "notice": "Emitted when withdraw fee is updated"
      }
    },
    "kind": "user",
    "methods": {
      "addDepositToken(address)": {
        "notice": "Add deposit token (i.e. collateral) to vSynth"
      },
      "addRewardsDistributor(address)": {
        "notice": "Add a RewardsDistributor contract"
      },
      "addSyntheticToken(address)": {
        "notice": "Add synthetic token to vSynth offerings"
      },
      "addToDebtTokensOfAccount(address)": {
        "notice": "Add a debt token to the per-account list"
      },
      "addToDepositTokensOfAccount(address)": {
        "notice": "Add a deposit token to the per-account list"
      },
      "debtFloorInUsd()": {
        "notice": "The debt floor (in USD) for each synthetic token This parameters is used to keep incentive for liquidators (i.e. cover gas and provide enough profit)"
      },
      "debtOf(address)": {
        "notice": "Get account's debt by querying latest prices from oracles"
      },
      "debtPositionOf(address)": {
        "notice": "Get if the debt position from an account is healthy"
      },
      "depositFee()": {
        "notice": "The fee charged when depositing collateral"
      },
      "depositOf(address)": {
        "notice": "Get account's total collateral deposited by querying latest prices from oracles"
      },
      "depositTokenOf(address)": {
        "notice": "Get the deposit token's address from given underlying asset"
      },
      "getDebtTokensOfAccount(address)": {
        "notice": "Get all deposit tokens"
      },
      "getDepositTokens()": {
        "notice": "Get all deposit tokens"
      },
      "getDepositTokensOfAccount(address)": {
        "notice": "Get deposit tokens of an account"
      },
      "getRewardsDistributors()": {
        "notice": "Get all rewards distributors"
      },
      "getSyntheticTokens()": {
        "notice": "Get all synthetic tokens"
      },
      "isDepositTokenExists(address)": {
        "notice": "Check if collateral is supported"
      },
      "isSyntheticTokenExists(address)": {
        "notice": "Check if token is part of the synthetic offerings"
      },
      "issueFee()": {
        "notice": "The fee charged when minting a synthetic token"
      },
      "liquidate(address,address,uint256,address)": {
        "notice": "Burn synthetic token, unlock deposit token and send liquidator liquidation fee"
      },
      "liquidatorLiquidationFee()": {
        "notice": "The fee charged from liquidated deposit that goes to the liquidator"
      },
      "masterOracle()": {
        "notice": "Prices oracle"
      },
      "maxLiquidable()": {
        "notice": "The max percent of the debt allowed to liquidate"
      },
      "protocolLiquidationFee()": {
        "notice": "The fee charged when liquidating a position"
      },
      "removeDepositToken(address)": {
        "notice": "Remove deposit token (i.e. collateral) from vSynth"
      },
      "removeFromDebtTokensOfAccount(address)": {
        "notice": "Remove a debt token from the per-account list"
      },
      "removeFromDepositTokensOfAccount(address)": {
        "notice": "Remove a deposit token from the per-account list"
      },
      "removeSyntheticToken(address)": {
        "notice": "Remove synthetic token from vSynth offerings"
      },
      "repayFee()": {
        "notice": "The fee charged when repaying debt"
      },
      "swap(address,address,uint256)": {
        "notice": "Swap synthetic tokens"
      },
      "swapFee()": {
        "notice": "The fee charged when swapping synthetic tokens"
      },
      "treasury()": {
        "notice": "Treasury contract"
      },
      "updateDebtFloor(uint256)": {
        "notice": "Update debt floor"
      },
      "updateDepositFee(uint256)": {
        "notice": "Update deposit fee"
      },
      "updateIssueFee(uint256)": {
        "notice": "Update issue fee"
      },
      "updateLiquidatorLiquidationFee(uint256)": {
        "notice": "Update liquidator liquidation fee"
      },
      "updateMasterOracle(address)": {
        "notice": "Update master oracle contract"
      },
      "updateMaxLiquidable(uint256)": {
        "notice": "Update maxLiquidable (liquidation cap)"
      },
      "updateProtocolLiquidationFee(uint256)": {
        "notice": "Update protocol liquidation fee"
      },
      "updateRepayFee(uint256)": {
        "notice": "Update repay fee"
      },
      "updateSwapFee(uint256)": {
        "notice": "Update swap fee"
      },
      "updateTreasury(address,bool)": {
        "notice": "Update treasury contract - will migrate funds to the new contract"
      },
      "updateWithdrawFee(uint256)": {
        "notice": "Update withdraw fee"
      },
      "withdrawFee()": {
        "notice": "The fee charged when withdrawing collateral"
      }
    },
    "version": 1
  },
  "storageLayout": {
    "storage": [
      {
        "astId": 7184,
        "contract": "contracts/Controller.sol:Controller",
        "label": "_initialized",
        "offset": 0,
        "slot": "0",
        "type": "t_bool"
      },
      {
        "astId": 7187,
        "contract": "contracts/Controller.sol:Controller",
        "label": "_initializing",
        "offset": 1,
        "slot": "0",
        "type": "t_bool"
      },
      {
        "astId": 7238,
        "contract": "contracts/Controller.sol:Controller",
        "label": "_status",
        "offset": 0,
        "slot": "1",
        "type": "t_uint256"
      },
      {
        "astId": 6020,
        "contract": "contracts/Controller.sol:Controller",
        "label": "governor",
        "offset": 0,
        "slot": "2",
        "type": "t_address"
      },
      {
        "astId": 6022,
        "contract": "contracts/Controller.sol:Controller",
        "label": "proposedGovernor",
        "offset": 0,
        "slot": "3",
        "type": "t_address"
      },
      {
        "astId": 3810,
        "contract": "contracts/Controller.sol:Controller",
        "label": "paused",
        "offset": 20,
        "slot": "3",
        "type": "t_bool"
      },
      {
        "astId": 3813,
        "contract": "contracts/Controller.sol:Controller",
        "label": "everythingStopped",
        "offset": 21,
        "slot": "3",
        "type": "t_bool"
      },
      {
        "astId": 14725,
        "contract": "contracts/Controller.sol:Controller",
        "label": "debtFloorInUsd",
        "offset": 0,
        "slot": "4",
        "type": "t_uint256"
      },
      {
        "astId": 14728,
        "contract": "contracts/Controller.sol:Controller",
        "label": "depositFee",
        "offset": 0,
        "slot": "5",
        "type": "t_uint256"
      },
      {
        "astId": 14731,
        "contract": "contracts/Controller.sol:Controller",
        "label": "issueFee",
        "offset": 0,
        "slot": "6",
        "type": "t_uint256"
      },
      {
        "astId": 14734,
        "contract": "contracts/Controller.sol:Controller",
        "label": "withdrawFee",
        "offset": 0,
        "slot": "7",
        "type": "t_uint256"
      },
      {
        "astId": 14737,
        "contract": "contracts/Controller.sol:Controller",
        "label": "repayFee",
        "offset": 0,
        "slot": "8",
        "type": "t_uint256"
      },
      {
        "astId": 14740,
        "contract": "contracts/Controller.sol:Controller",
        "label": "swapFee",
        "offset": 0,
        "slot": "9",
        "type": "t_uint256"
      },
      {
        "astId": 14743,
        "contract": "contracts/Controller.sol:Controller",
        "label": "liquidatorLiquidationFee",
        "offset": 0,
        "slot": "10",
        "type": "t_uint256"
      },
      {
        "astId": 14746,
        "contract": "contracts/Controller.sol:Controller",
        "label": "protocolLiquidationFee",
        "offset": 0,
        "slot": "11",
        "type": "t_uint256"
      },
      {
        "astId": 14749,
        "contract": "contracts/Controller.sol:Controller",
        "label": "maxLiquidable",
        "offset": 0,
        "slot": "12",
        "type": "t_uint256"
      },
      {
        "astId": 14753,
        "contract": "contracts/Controller.sol:Controller",
        "label": "masterOracle",
        "offset": 0,
        "slot": "13",
        "type": "t_contract(IMasterOracle)11329"
      },
      {
        "astId": 14757,
        "contract": "contracts/Controller.sol:Controller",
        "label": "treasury",
        "offset": 0,
        "slot": "14",
        "type": "t_contract(ITreasury)11224"
      },
      {
        "astId": 14761,
        "contract": "contracts/Controller.sol:Controller",
        "label": "depositTokens",
        "offset": 0,
        "slot": "15",
        "type": "t_struct(AddressSet)9314_storage"
      },
      {
        "astId": 14768,
        "contract": "contracts/Controller.sol:Controller",
        "label": "depositTokenOf",
        "offset": 0,
        "slot": "17",
        "type": "t_mapping(t_contract(IERC20)7893,t_contract(IDepositToken)11014)"
      },
      {
        "astId": 14772,
        "contract": "contracts/Controller.sol:Controller",
        "label": "syntheticTokens",
        "offset": 0,
        "slot": "18",
        "type": "t_struct(AddressSet)9314_storage"
      },
      {
        "astId": 14776,
        "contract": "contracts/Controller.sol:Controller",
        "label": "depositTokensOfAccount",
        "offset": 0,
        "slot": "20",
        "type": "t_struct(AddressSet)11434_storage"
      },
      {
        "astId": 14780,
        "contract": "contracts/Controller.sol:Controller",
        "label": "debtTokensOfAccount",
        "offset": 0,
        "slot": "21",
        "type": "t_struct(AddressSet)11434_storage"
      },
      {
        "astId": 14785,
        "contract": "contracts/Controller.sol:Controller",
        "label": "rewardsDistributors",
        "offset": 0,
        "slot": "22",
        "type": "t_array(t_contract(IRewardsDistributor)11128)dyn_storage"
      }
    ],
    "types": {
      "t_address": {
        "encoding": "inplace",
        "label": "address",
        "numberOfBytes": "20"
      },
      "t_array(t_address)dyn_storage": {
        "base": "t_address",
        "encoding": "dynamic_array",
        "label": "address[]",
        "numberOfBytes": "32"
      },
      "t_array(t_bytes32)dyn_storage": {
        "base": "t_bytes32",
        "encoding": "dynamic_array",
        "label": "bytes32[]",
        "numberOfBytes": "32"
      },
      "t_array(t_contract(IRewardsDistributor)11128)dyn_storage": {
        "base": "t_contract(IRewardsDistributor)11128",
        "encoding": "dynamic_array",
        "label": "contract IRewardsDistributor[]",
        "numberOfBytes": "32"
      },
      "t_bool": {
        "encoding": "inplace",
        "label": "bool",
        "numberOfBytes": "1"
      },
      "t_bytes32": {
        "encoding": "inplace",
        "label": "bytes32",
        "numberOfBytes": "32"
      },
      "t_contract(IDepositToken)11014": {
        "encoding": "inplace",
        "label": "contract IDepositToken",
        "numberOfBytes": "20"
      },
      "t_contract(IERC20)7893": {
        "encoding": "inplace",
        "label": "contract IERC20",
        "numberOfBytes": "20"
      },
      "t_contract(IMasterOracle)11329": {
        "encoding": "inplace",
        "label": "contract IMasterOracle",
        "numberOfBytes": "20"
      },
      "t_contract(IRewardsDistributor)11128": {
        "encoding": "inplace",
        "label": "contract IRewardsDistributor",
        "numberOfBytes": "20"
      },
      "t_contract(ITreasury)11224": {
        "encoding": "inplace",
        "label": "contract ITreasury",
        "numberOfBytes": "20"
      },
      "t_mapping(t_address,t_struct(Set)11428_storage)": {
        "encoding": "mapping",
        "key": "t_address",
        "label": "mapping(address => struct MappedEnumerableSet.Set)",
        "numberOfBytes": "32",
        "value": "t_struct(Set)11428_storage"
      },
      "t_mapping(t_address,t_uint256)": {
        "encoding": "mapping",
        "key": "t_address",
        "label": "mapping(address => uint256)",
        "numberOfBytes": "32",
        "value": "t_uint256"
      },
      "t_mapping(t_bytes32,t_uint256)": {
        "encoding": "mapping",
        "key": "t_bytes32",
        "label": "mapping(bytes32 => uint256)",
        "numberOfBytes": "32",
        "value": "t_uint256"
      },
      "t_mapping(t_contract(IERC20)7893,t_contract(IDepositToken)11014)": {
        "encoding": "mapping",
        "key": "t_contract(IERC20)7893",
        "label": "mapping(contract IERC20 => contract IDepositToken)",
        "numberOfBytes": "32",
        "value": "t_contract(IDepositToken)11014"
      },
      "t_struct(AddressSet)11434_storage": {
        "encoding": "inplace",
        "label": "struct MappedEnumerableSet.AddressSet",
        "members": [
          {
            "astId": 11433,
            "contract": "contracts/Controller.sol:Controller",
            "label": "_ofAddress",
            "offset": 0,
            "slot": "0",
            "type": "t_mapping(t_address,t_struct(Set)11428_storage)"
          }
        ],
        "numberOfBytes": "32"
      },
      "t_struct(AddressSet)9314_storage": {
        "encoding": "inplace",
        "label": "struct EnumerableSet.AddressSet",
        "members": [
          {
            "astId": 9313,
            "contract": "contracts/Controller.sol:Controller",
            "label": "_inner",
            "offset": 0,
            "slot": "0",
            "type": "t_struct(Set)9013_storage"
          }
        ],
        "numberOfBytes": "64"
      },
      "t_struct(Set)11428_storage": {
        "encoding": "inplace",
        "label": "struct MappedEnumerableSet.Set",
        "members": [
          {
            "astId": 11423,
            "contract": "contracts/Controller.sol:Controller",
            "label": "_values",
            "offset": 0,
            "slot": "0",
            "type": "t_array(t_address)dyn_storage"
          },
          {
            "astId": 11427,
            "contract": "contracts/Controller.sol:Controller",
            "label": "_indexes",
            "offset": 0,
            "slot": "1",
            "type": "t_mapping(t_address,t_uint256)"
          }
        ],
        "numberOfBytes": "64"
      },
      "t_struct(Set)9013_storage": {
        "encoding": "inplace",
        "label": "struct EnumerableSet.Set",
        "members": [
          {
            "astId": 9008,
            "contract": "contracts/Controller.sol:Controller",
            "label": "_values",
            "offset": 0,
            "slot": "0",
            "type": "t_array(t_bytes32)dyn_storage"
          },
          {
            "astId": 9012,
            "contract": "contracts/Controller.sol:Controller",
            "label": "_indexes",
            "offset": 0,
            "slot": "1",
            "type": "t_mapping(t_bytes32,t_uint256)"
          }
        ],
        "numberOfBytes": "64"
      },
      "t_uint256": {
        "encoding": "inplace",
        "label": "uint256",
        "numberOfBytes": "32"
      }
    }
  }
}