{
  "address": "0x43e31e9Fb5aE89f81b84A24F7E1590e452a4eD61",
  "abi": [
    {
      "anonymous": false,
      "inputs": [
        {
          "indexed": false,
          "internalType": "uint256",
          "name": "oldDebtFloorInUsd",
          "type": "uint256"
        },
        {
          "indexed": false,
          "internalType": "uint256",
          "name": "newDebtFloorInUsd",
          "type": "uint256"
        }
      ],
      "name": "DebtFloorUpdated",
      "type": "event"
    },
    {
      "anonymous": false,
      "inputs": [
        {
          "indexed": true,
          "internalType": "address",
          "name": "account",
          "type": "address"
        },
        {
          "indexed": false,
          "internalType": "contract ISyntheticToken",
          "name": "syntheticToken",
          "type": "address"
        },
        {
          "indexed": false,
          "internalType": "uint256",
          "name": "amountIn",
          "type": "uint256"
        },
        {
          "indexed": false,
          "internalType": "uint256",
          "name": "amountOut",
          "type": "uint256"
        },
        {
          "indexed": false,
          "internalType": "uint256",
          "name": "fee",
          "type": "uint256"
        }
      ],
      "name": "DebtRefinancied",
      "type": "event"
    },
    {
      "anonymous": false,
      "inputs": [
        {
          "indexed": false,
          "internalType": "uint256",
          "name": "oldDepositFee",
          "type": "uint256"
        },
        {
          "indexed": false,
          "internalType": "uint256",
          "name": "newDepositFee",
          "type": "uint256"
        }
      ],
      "name": "DepositFeeUpdated",
      "type": "event"
    },
    {
      "anonymous": false,
      "inputs": [
        {
          "indexed": true,
          "internalType": "address",
          "name": "depositToken",
          "type": "address"
        }
      ],
      "name": "DepositTokenAdded",
      "type": "event"
    },
    {
      "anonymous": false,
      "inputs": [
        {
          "indexed": true,
          "internalType": "contract IDepositToken",
          "name": "depositToken",
          "type": "address"
        }
      ],
      "name": "DepositTokenRemoved",
      "type": "event"
    },
    {
      "anonymous": false,
      "inputs": [
        {
          "indexed": false,
          "internalType": "uint256",
          "name": "oldIssueFee",
          "type": "uint256"
        },
        {
          "indexed": false,
          "internalType": "uint256",
          "name": "newIssueFee",
          "type": "uint256"
        }
      ],
      "name": "IssueFeeUpdated",
      "type": "event"
    },
    {
      "anonymous": false,
      "inputs": [
        {
          "indexed": false,
          "internalType": "uint256",
          "name": "oldLiquidatorLiquidationFee",
          "type": "uint256"
        },
        {
          "indexed": false,
          "internalType": "uint256",
          "name": "newLiquidatorLiquidationFee",
          "type": "uint256"
        }
      ],
      "name": "LiquidatorLiquidationFeeUpdated",
      "type": "event"
    },
    {
      "anonymous": false,
      "inputs": [
        {
          "indexed": true,
          "internalType": "contract IMasterOracle",
          "name": "oldOracle",
          "type": "address"
        },
        {
          "indexed": true,
          "internalType": "contract IMasterOracle",
          "name": "newOracle",
          "type": "address"
        }
      ],
      "name": "MasterOracleUpdated",
      "type": "event"
    },
    {
      "anonymous": false,
      "inputs": [
        {
          "indexed": false,
          "internalType": "uint256",
          "name": "oldMaxLiquidable",
          "type": "uint256"
        },
        {
          "indexed": false,
          "internalType": "uint256",
          "name": "newMaxLiquidable",
          "type": "uint256"
        }
      ],
      "name": "MaxLiquidableUpdated",
      "type": "event"
    },
    {
      "anonymous": false,
      "inputs": [
        {
          "indexed": false,
          "internalType": "address",
          "name": "account",
          "type": "address"
        }
      ],
      "name": "Open",
      "type": "event"
    },
    {
      "anonymous": false,
      "inputs": [
        {
          "indexed": false,
          "internalType": "address",
          "name": "account",
          "type": "address"
        }
      ],
      "name": "Paused",
      "type": "event"
    },
    {
      "anonymous": false,
      "inputs": [
        {
          "indexed": true,
          "internalType": "address",
          "name": "liquidator",
          "type": "address"
        },
        {
          "indexed": true,
          "internalType": "address",
          "name": "account",
          "type": "address"
        },
        {
          "indexed": true,
          "internalType": "contract ISyntheticToken",
          "name": "syntheticToken",
          "type": "address"
        },
        {
          "indexed": false,
          "internalType": "uint256",
          "name": "amountRepayed",
          "type": "uint256"
        },
        {
          "indexed": false,
          "internalType": "uint256",
          "name": "depositSeized",
          "type": "uint256"
        },
        {
          "indexed": false,
          "internalType": "uint256",
          "name": "fee",
          "type": "uint256"
        }
      ],
      "name": "PositionLiquidated",
      "type": "event"
    },
    {
      "anonymous": false,
      "inputs": [
        {
          "indexed": false,
          "internalType": "uint256",
          "name": "oldProtocolLiquidationFee",
          "type": "uint256"
        },
        {
          "indexed": false,
          "internalType": "uint256",
          "name": "newProtocolLiquidationFee",
          "type": "uint256"
        }
      ],
      "name": "ProtocolLiquidationFeeUpdated",
      "type": "event"
    },
    {
      "anonymous": false,
      "inputs": [
        {
          "indexed": false,
          "internalType": "uint256",
          "name": "oldRefinanceFee",
          "type": "uint256"
        },
        {
          "indexed": false,
          "internalType": "uint256",
          "name": "newRefinanceFee",
          "type": "uint256"
        }
      ],
      "name": "RefinanceFeeUpdated",
      "type": "event"
    },
    {
      "anonymous": false,
      "inputs": [
        {
          "indexed": false,
          "internalType": "uint256",
          "name": "oldRepayFee",
          "type": "uint256"
        },
        {
          "indexed": false,
          "internalType": "uint256",
          "name": "newRepayFee",
          "type": "uint256"
        }
      ],
      "name": "RepayFeeUpdated",
      "type": "event"
    },
    {
      "anonymous": false,
      "inputs": [
        {
          "indexed": false,
          "internalType": "contract IRewardsDistributor",
          "name": "_distributor",
          "type": "address"
        }
      ],
      "name": "RewardsDistributorAdded",
      "type": "event"
    },
    {
      "anonymous": false,
      "inputs": [
        {
          "indexed": false,
          "internalType": "address",
          "name": "account",
          "type": "address"
        }
      ],
      "name": "Shutdown",
      "type": "event"
    },
    {
      "anonymous": false,
      "inputs": [
        {
          "indexed": false,
          "internalType": "uint256",
          "name": "oldSwapFee",
          "type": "uint256"
        },
        {
          "indexed": false,
          "internalType": "uint256",
          "name": "newSwapFee",
          "type": "uint256"
        }
      ],
      "name": "SwapFeeUpdated",
      "type": "event"
    },
    {
      "anonymous": false,
      "inputs": [
        {
          "indexed": true,
          "internalType": "address",
          "name": "syntheticToken",
          "type": "address"
        }
      ],
      "name": "SyntheticTokenAdded",
      "type": "event"
    },
    {
      "anonymous": false,
      "inputs": [
        {
          "indexed": true,
          "internalType": "contract ISyntheticToken",
          "name": "syntheticToken",
          "type": "address"
        }
      ],
      "name": "SyntheticTokenRemoved",
      "type": "event"
    },
    {
      "anonymous": false,
      "inputs": [
        {
          "indexed": true,
          "internalType": "address",
          "name": "account",
          "type": "address"
        },
        {
          "indexed": true,
          "internalType": "contract ISyntheticToken",
          "name": "syntheticTokenIn",
          "type": "address"
        },
        {
          "indexed": true,
          "internalType": "contract ISyntheticToken",
          "name": "syntheticTokenOut",
          "type": "address"
        },
        {
          "indexed": false,
          "internalType": "uint256",
          "name": "amountIn",
          "type": "uint256"
        },
        {
          "indexed": false,
          "internalType": "uint256",
          "name": "amountOut",
          "type": "uint256"
        },
        {
          "indexed": false,
          "internalType": "uint256",
          "name": "fee",
          "type": "uint256"
        }
      ],
      "name": "SyntheticTokenSwapped",
      "type": "event"
    },
    {
      "anonymous": false,
      "inputs": [
        {
          "indexed": true,
          "internalType": "contract ITreasury",
          "name": "oldTreasury",
          "type": "address"
        },
        {
          "indexed": true,
          "internalType": "contract ITreasury",
          "name": "newTreasury",
          "type": "address"
        }
      ],
      "name": "TreasuryUpdated",
      "type": "event"
    },
    {
      "anonymous": false,
      "inputs": [
        {
          "indexed": false,
          "internalType": "address",
          "name": "account",
          "type": "address"
        }
      ],
      "name": "Unpaused",
      "type": "event"
    },
    {
      "anonymous": false,
      "inputs": [
        {
          "indexed": true,
          "internalType": "address",
          "name": "previousGovernor",
          "type": "address"
        },
        {
          "indexed": true,
          "internalType": "address",
          "name": "proposedGovernor",
          "type": "address"
        }
      ],
      "name": "UpdatedGovernor",
      "type": "event"
    },
    {
      "anonymous": false,
      "inputs": [
        {
          "indexed": false,
          "internalType": "uint256",
          "name": "oldWithdrawFee",
          "type": "uint256"
        },
        {
          "indexed": false,
          "internalType": "uint256",
          "name": "newWithdrawFee",
          "type": "uint256"
        }
      ],
      "name": "WithdrawFeeUpdated",
      "type": "event"
    },
    {
      "inputs": [],
      "name": "VERSION",
      "outputs": [
        {
          "internalType": "string",
          "name": "",
          "type": "string"
        }
      ],
      "stateMutability": "view",
      "type": "function"
    },
    {
      "inputs": [],
      "name": "acceptGovernorship",
      "outputs": [],
      "stateMutability": "nonpayable",
      "type": "function"
    },
    {
      "inputs": [
        {
          "internalType": "address",
          "name": "_depositToken",
          "type": "address"
        }
      ],
      "name": "addDepositToken",
      "outputs": [],
      "stateMutability": "nonpayable",
      "type": "function"
    },
    {
      "inputs": [
        {
          "internalType": "contract IRewardsDistributor",
          "name": "_distributor",
          "type": "address"
        }
      ],
      "name": "addRewardsDistributor",
      "outputs": [],
      "stateMutability": "nonpayable",
      "type": "function"
    },
    {
      "inputs": [
        {
          "internalType": "address",
          "name": "_syntheticToken",
          "type": "address"
        }
      ],
      "name": "addSyntheticToken",
      "outputs": [],
      "stateMutability": "nonpayable",
      "type": "function"
    },
    {
      "inputs": [
        {
          "internalType": "address",
          "name": "_account",
          "type": "address"
        }
      ],
      "name": "addToDebtTokensOfAccount",
      "outputs": [],
      "stateMutability": "nonpayable",
      "type": "function"
    },
    {
      "inputs": [
        {
          "internalType": "address",
          "name": "_account",
          "type": "address"
        }
      ],
      "name": "addToDepositTokensOfAccount",
      "outputs": [],
      "stateMutability": "nonpayable",
      "type": "function"
    },
    {
      "inputs": [],
      "name": "debtFloorInUsd",
      "outputs": [
        {
          "internalType": "uint256",
          "name": "",
          "type": "uint256"
        }
      ],
      "stateMutability": "view",
      "type": "function"
    },
    {
      "inputs": [
        {
          "internalType": "address",
          "name": "_account",
          "type": "address"
        }
      ],
      "name": "debtOf",
      "outputs": [
        {
          "internalType": "uint256",
          "name": "_debtInUsd",
          "type": "uint256"
        }
      ],
      "stateMutability": "view",
      "type": "function"
    },
    {
      "inputs": [
        {
          "internalType": "address",
          "name": "_account",
          "type": "address"
        }
      ],
      "name": "debtPositionOf",
      "outputs": [
        {
          "internalType": "bool",
          "name": "_isHealthy",
          "type": "bool"
        },
        {
          "internalType": "uint256",
          "name": "_depositInUsd",
          "type": "uint256"
        },
        {
          "internalType": "uint256",
          "name": "_debtInUsd",
          "type": "uint256"
        },
        {
          "internalType": "uint256",
          "name": "_issuableLimitInUsd",
          "type": "uint256"
        },
        {
          "internalType": "uint256",
          "name": "_issuableInUsd",
          "type": "uint256"
        }
      ],
      "stateMutability": "view",
      "type": "function"
    },
    {
      "inputs": [],
      "name": "depositFee",
      "outputs": [
        {
          "internalType": "uint256",
          "name": "",
          "type": "uint256"
        }
      ],
      "stateMutability": "view",
      "type": "function"
    },
    {
      "inputs": [
        {
          "internalType": "address",
          "name": "_account",
          "type": "address"
        }
      ],
      "name": "depositOf",
      "outputs": [
        {
          "internalType": "uint256",
          "name": "_depositInUsd",
          "type": "uint256"
        },
        {
          "internalType": "uint256",
          "name": "_issuableLimitInUsd",
          "type": "uint256"
        }
      ],
      "stateMutability": "view",
      "type": "function"
    },
    {
      "inputs": [
        {
          "internalType": "contract IERC20",
          "name": "",
          "type": "address"
        }
      ],
      "name": "depositTokenOf",
      "outputs": [
        {
          "internalType": "contract IDepositToken",
          "name": "",
          "type": "address"
        }
      ],
      "stateMutability": "view",
      "type": "function"
    },
    {
      "inputs": [],
      "name": "everythingStopped",
      "outputs": [
        {
          "internalType": "bool",
          "name": "",
          "type": "bool"
        }
      ],
      "stateMutability": "view",
      "type": "function"
    },
    {
      "inputs": [
        {
          "internalType": "address",
          "name": "_account",
          "type": "address"
        }
      ],
      "name": "getDebtTokensOfAccount",
      "outputs": [
        {
          "internalType": "address[]",
          "name": "",
          "type": "address[]"
        }
      ],
      "stateMutability": "view",
      "type": "function"
    },
    {
      "inputs": [],
      "name": "getDepositTokens",
      "outputs": [
        {
          "internalType": "address[]",
          "name": "",
          "type": "address[]"
        }
      ],
      "stateMutability": "view",
      "type": "function"
    },
    {
      "inputs": [
        {
          "internalType": "address",
          "name": "_account",
          "type": "address"
        }
      ],
      "name": "getDepositTokensOfAccount",
      "outputs": [
        {
          "internalType": "address[]",
          "name": "",
          "type": "address[]"
        }
      ],
      "stateMutability": "view",
      "type": "function"
    },
    {
      "inputs": [],
      "name": "getRewardsDistributors",
      "outputs": [
        {
          "internalType": "contract IRewardsDistributor[]",
          "name": "",
          "type": "address[]"
        }
      ],
      "stateMutability": "view",
      "type": "function"
    },
    {
      "inputs": [],
      "name": "getSyntheticTokens",
      "outputs": [
        {
          "internalType": "address[]",
          "name": "",
          "type": "address[]"
        }
      ],
      "stateMutability": "view",
      "type": "function"
    },
    {
      "inputs": [],
      "name": "governor",
      "outputs": [
        {
          "internalType": "address",
          "name": "",
          "type": "address"
        }
      ],
      "stateMutability": "view",
      "type": "function"
    },
    {
      "inputs": [
        {
          "internalType": "contract IMasterOracle",
          "name": "_masterOracle",
          "type": "address"
        },
        {
          "internalType": "contract ITreasury",
          "name": "_treasury",
          "type": "address"
        }
      ],
      "name": "initialize",
      "outputs": [],
      "stateMutability": "nonpayable",
      "type": "function"
    },
    {
      "inputs": [
        {
          "internalType": "contract IDepositToken",
          "name": "_depositToken",
          "type": "address"
        }
      ],
      "name": "isDepositTokenExists",
      "outputs": [
        {
          "internalType": "bool",
          "name": "",
          "type": "bool"
        }
      ],
      "stateMutability": "view",
      "type": "function"
    },
    {
      "inputs": [
        {
          "internalType": "contract ISyntheticToken",
          "name": "_syntheticToken",
          "type": "address"
        }
      ],
      "name": "isSyntheticTokenExists",
      "outputs": [
        {
          "internalType": "bool",
          "name": "",
          "type": "bool"
        }
      ],
      "stateMutability": "view",
      "type": "function"
    },
    {
      "inputs": [],
      "name": "issueFee",
      "outputs": [
        {
          "internalType": "uint256",
          "name": "",
          "type": "uint256"
        }
      ],
      "stateMutability": "view",
      "type": "function"
    },
    {
      "inputs": [
        {
          "internalType": "contract ISyntheticToken",
          "name": "_syntheticToken",
          "type": "address"
        },
        {
          "internalType": "address",
          "name": "_account",
          "type": "address"
        },
        {
          "internalType": "uint256",
          "name": "_amountToRepay",
          "type": "uint256"
        },
        {
          "internalType": "contract IDepositToken",
          "name": "_depositToken",
          "type": "address"
        }
      ],
      "name": "liquidate",
      "outputs": [],
      "stateMutability": "nonpayable",
      "type": "function"
    },
    {
      "inputs": [],
      "name": "liquidatorLiquidationFee",
      "outputs": [
        {
          "internalType": "uint256",
          "name": "",
          "type": "uint256"
        }
      ],
      "stateMutability": "view",
      "type": "function"
    },
    {
      "inputs": [],
      "name": "masterOracle",
      "outputs": [
        {
          "internalType": "contract IMasterOracle",
          "name": "",
          "type": "address"
        }
      ],
      "stateMutability": "view",
      "type": "function"
    },
    {
      "inputs": [],
      "name": "maxLiquidable",
      "outputs": [
        {
          "internalType": "uint256",
          "name": "",
          "type": "uint256"
        }
      ],
      "stateMutability": "view",
      "type": "function"
    },
    {
      "inputs": [],
      "name": "open",
      "outputs": [],
      "stateMutability": "nonpayable",
      "type": "function"
    },
    {
      "inputs": [],
      "name": "pause",
      "outputs": [],
      "stateMutability": "nonpayable",
      "type": "function"
    },
    {
      "inputs": [],
      "name": "paused",
      "outputs": [
        {
          "internalType": "bool",
          "name": "",
          "type": "bool"
        }
      ],
      "stateMutability": "view",
      "type": "function"
    },
    {
      "inputs": [],
      "name": "protocolLiquidationFee",
      "outputs": [
        {
          "internalType": "uint256",
          "name": "",
          "type": "uint256"
        }
      ],
      "stateMutability": "view",
      "type": "function"
    },
    {
      "inputs": [
        {
          "internalType": "contract IDepositToken",
          "name": "_depositToken",
          "type": "address"
        }
      ],
      "name": "removeDepositToken",
      "outputs": [],
      "stateMutability": "nonpayable",
      "type": "function"
    },
    {
      "inputs": [
        {
          "internalType": "address",
          "name": "_account",
          "type": "address"
        }
      ],
      "name": "removeFromDebtTokensOfAccount",
      "outputs": [],
      "stateMutability": "nonpayable",
      "type": "function"
    },
    {
      "inputs": [
        {
          "internalType": "address",
          "name": "_account",
          "type": "address"
        }
      ],
      "name": "removeFromDepositTokensOfAccount",
      "outputs": [],
      "stateMutability": "nonpayable",
      "type": "function"
    },
    {
      "inputs": [
        {
          "internalType": "contract ISyntheticToken",
          "name": "_syntheticToken",
          "type": "address"
        }
      ],
      "name": "removeSyntheticToken",
      "outputs": [],
      "stateMutability": "nonpayable",
      "type": "function"
    },
    {
      "inputs": [],
      "name": "repayFee",
      "outputs": [
        {
          "internalType": "uint256",
          "name": "",
          "type": "uint256"
        }
      ],
      "stateMutability": "view",
      "type": "function"
    },
    {
      "inputs": [],
      "name": "shutdown",
      "outputs": [],
      "stateMutability": "nonpayable",
      "type": "function"
    },
    {
      "inputs": [
        {
          "internalType": "contract ISyntheticToken",
          "name": "_syntheticTokenIn",
          "type": "address"
        },
        {
          "internalType": "contract ISyntheticToken",
          "name": "_syntheticTokenOut",
          "type": "address"
        },
        {
          "internalType": "uint256",
          "name": "_amountIn",
          "type": "uint256"
        }
      ],
      "name": "swap",
      "outputs": [
        {
          "internalType": "uint256",
          "name": "_amountOut",
          "type": "uint256"
        }
      ],
      "stateMutability": "nonpayable",
      "type": "function"
    },
    {
      "inputs": [],
      "name": "swapFee",
      "outputs": [
        {
          "internalType": "uint256",
          "name": "",
          "type": "uint256"
        }
      ],
      "stateMutability": "view",
      "type": "function"
    },
    {
      "inputs": [
        {
          "internalType": "address",
          "name": "_proposedGovernor",
          "type": "address"
        }
      ],
      "name": "transferGovernorship",
      "outputs": [],
      "stateMutability": "nonpayable",
      "type": "function"
    },
    {
      "inputs": [],
      "name": "treasury",
      "outputs": [
        {
          "internalType": "contract ITreasury",
          "name": "",
          "type": "address"
        }
      ],
      "stateMutability": "view",
      "type": "function"
    },
    {
      "inputs": [],
      "name": "unpause",
      "outputs": [],
      "stateMutability": "nonpayable",
      "type": "function"
    },
    {
      "inputs": [
        {
          "internalType": "uint256",
          "name": "_newDebtFloorInUsd",
          "type": "uint256"
        }
      ],
      "name": "updateDebtFloor",
      "outputs": [],
      "stateMutability": "nonpayable",
      "type": "function"
    },
    {
      "inputs": [
        {
          "internalType": "uint256",
          "name": "_newDepositFee",
          "type": "uint256"
        }
      ],
      "name": "updateDepositFee",
      "outputs": [],
      "stateMutability": "nonpayable",
      "type": "function"
    },
    {
      "inputs": [
        {
          "internalType": "uint256",
          "name": "_newIssueFee",
          "type": "uint256"
        }
      ],
      "name": "updateIssueFee",
      "outputs": [],
      "stateMutability": "nonpayable",
      "type": "function"
    },
    {
      "inputs": [
        {
          "internalType": "uint256",
          "name": "_newLiquidatorLiquidationFee",
          "type": "uint256"
        }
      ],
      "name": "updateLiquidatorLiquidationFee",
      "outputs": [],
      "stateMutability": "nonpayable",
      "type": "function"
    },
    {
      "inputs": [
        {
          "internalType": "contract IMasterOracle",
          "name": "_newMasterOracle",
          "type": "address"
        }
      ],
      "name": "updateMasterOracle",
      "outputs": [],
      "stateMutability": "nonpayable",
      "type": "function"
    },
    {
      "inputs": [
        {
          "internalType": "uint256",
          "name": "_newMaxLiquidable",
          "type": "uint256"
        }
      ],
      "name": "updateMaxLiquidable",
      "outputs": [],
      "stateMutability": "nonpayable",
      "type": "function"
    },
    {
      "inputs": [
        {
          "internalType": "uint256",
          "name": "_newProtocolLiquidationFee",
          "type": "uint256"
        }
      ],
      "name": "updateProtocolLiquidationFee",
      "outputs": [],
      "stateMutability": "nonpayable",
      "type": "function"
    },
    {
      "inputs": [
        {
          "internalType": "uint256",
          "name": "_newRepayFee",
          "type": "uint256"
        }
      ],
      "name": "updateRepayFee",
      "outputs": [],
      "stateMutability": "nonpayable",
      "type": "function"
    },
    {
      "inputs": [
        {
          "internalType": "uint256",
          "name": "_newSwapFee",
          "type": "uint256"
        }
      ],
      "name": "updateSwapFee",
      "outputs": [],
      "stateMutability": "nonpayable",
      "type": "function"
    },
    {
      "inputs": [
        {
          "internalType": "contract ITreasury",
          "name": "_newTreasury",
          "type": "address"
        },
        {
          "internalType": "bool",
          "name": "_withMigration",
          "type": "bool"
        }
      ],
      "name": "updateTreasury",
      "outputs": [],
      "stateMutability": "nonpayable",
      "type": "function"
    },
    {
      "inputs": [
        {
          "internalType": "uint256",
          "name": "_newWithdrawFee",
          "type": "uint256"
        }
      ],
      "name": "updateWithdrawFee",
      "outputs": [],
      "stateMutability": "nonpayable",
      "type": "function"
    },
    {
      "inputs": [],
      "name": "withdrawFee",
      "outputs": [
        {
          "internalType": "uint256",
          "name": "",
          "type": "uint256"
        }
      ],
      "stateMutability": "view",
      "type": "function"
    }
  ],
  "transactionHash": "0x5c8c140332bffd21e92492433d2bb36fa056fd01e0abdfb0508294e0b202e99c",
  "args": [],
  "numDeployments": 1,
  "solcInputHash": "0077a7bd8b2b7c639ec050e1f3a43041",
  "bytecode": "0x608060405234801561001057600080fd5b50600280546001600160a01b0319163390811790915560405181906000907fd4459d5b8b913cab0244230fd9b1c08b6ceace7fe9230e60d0f74cbffdf849d0908290a350614050806100636000396000f3fe608060405234801561001057600080fd5b50600436106102ed5760003560e01c80637d35516311610193578063dde3ab95116100e4578063f36c7d9811610092578063f36c7d98146106a0578063f3b27bc3146106b3578063f6092809146106bb578063fb01600d146106c4578063fc0e74d1146106cc578063fcfff16f146106d4578063ffa1ad74146106dc57600080fd5b8063dde3ab9514610604578063df791e5014610641578063e941fa7814610654578063eaada3821461065d578063eafecffa14610670578063ecf3a3f914610679578063f0c80d3b1461068d57600080fd5b8063b2d90ebb11610141578063b2d90ebb14610589578063b6aa515b14610592578063bf16f65a146105a5578063d176e05f146105b8578063d283e75f146105cb578063daf635de146105de578063dbe466b1146105f157600080fd5b80637d355163146104f95780638456cb591461050c57806384d6f1ce1461051457806387cddc861461052757806388156a3514610550578063a20f37e714610563578063abc9b45e1461057657600080fd5b80634dfb65181161024d57806367a52793116101fb57806367a5279314610493578063681390e61461049c57806375c6f8ec146104a4578063770b69b4146104b757806379e40cba146104ca5780637c0f59f4146104dd5780637c7d7484146104e657600080fd5b80634dfb65181461041757806354cf2aeb1461042a57806356aaee2d1461043357806357f2e581146104465780635c975abb1461045957806361d027b31461046d57806364831b311461048057600080fd5b80632dd6adb5116102aa5780632dd6adb5146103955780633605b51b1461039e5780633af5be47146103b35780633de2f6b2146103d65780633f4ba83a146103e95780633f5fc131146103f1578063485cc9551461040457600080fd5b8063017def57146102f25780630c340a24146103075780631a4660ce1461033057806323e3fbd514610343578063275038d01461036b5780632a9133c11461037e575b600080fd5b610305610300366004613a1b565b61070d565b005b60025461031a906001600160a01b031681565b6040516103279190613a34565b60405180910390f35b61030561033e366004613a1b565b6107ca565b610356610351366004613a5d565b610856565b60408051928352602083019190915201610327565b610305610379366004613a5d565b610a2d565b61038760065481565b604051908152602001610327565b610387600c5481565b6103a6610a81565b6040516103279190613a7a565b6103c66103c1366004613a5d565b610ae3565b6040519015158152602001610327565b6103056103e4366004613ac7565b610af6565b6103056113d5565b6103056103ff366004613a5d565b6114b6565b610305610412366004613b1a565b611503565b6103c6610425366004613a5d565b61167b565b61038760095481565b610305610441366004613a5d565b611688565b610305610454366004613a1b565b6117f1565b6003546103c690600160a01b900460ff1681565b600e5461031a906001600160a01b031681565b61030561048e366004613a1b565b6118a5565b61038760055481565b6103a6611959565b6103056104b2366004613a5d565b61196a565b6103056104c5366004613a5d565b611aea565b6103056104d8366004613a5d565b611c64565b61038760085481565b6103056104f4366004613b61565b611db1565b6103a6610507366004613a5d565b611ef5565b610305611f02565b610305610522366004613a1b565b611faa565b61031a610535366004613a5d565b6011602052600090815260409020546001600160a01b031681565b61030561055e366004613a1b565b61205e565b610305610571366004613a5d565b612112565b610305610584366004613a5d565b6121e3565b610387600a5481565b6103056105a0366004613a5d565b6122c6565b6103056105b3366004613a1b565b612364565b6103a66105c6366004613a5d565b612418565b6103876105d9366004613a5d565b612425565b6103056105ec366004613a1b565b6125ea565b6103056105ff366004613a5d565b61269e565b610617610612366004613a5d565b612873565b6040805195151586526020860194909452928401919091526060830152608082015260a001610327565b61038761064f366004613b8f565b6128bd565b61038760075481565b600d5461031a906001600160a01b031681565b610387600b5481565b6003546103c690600160a81b900460ff1681565b61030561069b366004613a1b565b612e00565b6103056106ae366004613a5d565b612eb4565b610305613148565b61038760045481565b6103a6613204565b610305613210565b6103056132a0565b610700604051806040016040528060058152602001640312e302e360dc1b81525081565b6040516103279190613bd0565b6002546001600160a01b031633146107405760405162461bcd60e51b815260040161073790613c25565b60405180910390fd5b670de0b6b3a76400008111156107685760405162461bcd60e51b815260040161073790613c4b565b6005548181141561078b5760405162461bcd60e51b815260040161073790613c70565b60408051828152602081018490527f828cf983933545af35b9ba46eec951db1cb4c5433c3ec403aeced2963c264790910160405180910390a150600555565b6002546001600160a01b031633146107f45760405162461bcd60e51b815260040161073790613c25565b600454818114156108175760405162461bcd60e51b815260040161073790613c70565b60408051828152602081018490527f0662703672e57800b9439de3a419c9155283ad25ea7776c139c876bd8b93bb98910160405180910390a150600455565b60008080610865601485613346565b905060005b81811015610a2657600061088060148784613367565b600d546040516370a0823160e01b81529192506000916001600160a01b039182169163ee9579969185918216906370a08231906108c1908d90600401613a34565b60206040518083038186803b1580156108d957600080fd5b505afa1580156108ed573d6000803e3d6000fd5b505050506040513d601f19601f820116820180604052508101906109119190613c9d565b6040518363ffffffff1660e01b815260040161092e929190613cb6565b60206040518083038186803b15801561094657600080fd5b505afa15801561095a573d6000803e3d6000fd5b505050506040513d601f19601f8201168201806040525081019061097e9190613c9d565b905061098a8187613ce5565b9550610a07826001600160a01b031663dcaf9c446040518163ffffffff1660e01b815260040160206040518083038186803b1580156109c857600080fd5b505afa1580156109dc573d6000803e3d6000fd5b505050506040513d601f19601f82011682018060405250810190610a009190613c9d565b829061337c565b610a119086613ce5565b9450505080610a1f90613cfd565b905061086a565b5050915091565b610a3a335b600f906133c8565b610a565760405162461bcd60e51b815260040161073790613d18565b610a62601482336133ea565b610a7e5760405162461bcd60e51b815260040161073790613d4f565b50565b60606016805480602002602001604051908101604052809291908181526020018280548015610ad957602002820191906000526020600020905b81546001600160a01b03168152600190910190602001808311610abb575b5050505050905090565b6000610af0600f836133c8565b92915050565b600354600160a81b900460ff1615610b205760405162461bcd60e51b815260040161073790613d86565b60026001541415610b435760405162461bcd60e51b815260040161073790613da8565b600260015580610b5281610ae3565b610b6e5760405162461bcd60e51b815260040161073790613ddf565b60008311610baf5760405162461bcd60e51b815260206004820152600e60248201526d616d6f756e742d69732d7a65726f60901b6044820152606401610737565b336001600160a01b038516811415610c095760405162461bcd60e51b815260206004820152601e60248201527f63616e2d6e6f742d6c69717569646174652d6f776e2d706f736974696f6e00006044820152606401610737565b856001600160a01b031663a6afed956040518163ffffffff1660e01b8152600401600060405180830381600087803b158015610c4457600080fd5b505af1158015610c58573d6000803e3d6000fd5b50505050600c54610d55876001600160a01b031663f8d898986040518163ffffffff1660e01b815260040160206040518083038186803b158015610c9b57600080fd5b505afa158015610caf573d6000803e3d6000fd5b505050506040513d601f19601f82011682018060405250810190610cd39190613e0e565b6001600160a01b03166370a08231886040518263ffffffff1660e01b8152600401610cfe9190613a34565b60206040518083038186803b158015610d1657600080fd5b505afa158015610d2a573d6000803e3d6000fd5b505050506040513d601f19601f82011682018060405250810190610d4e9190613c9d565b86906133f7565b1115610d9e5760405162461bcd60e51b8152602060048201526018602482015277616d6f756e742d67742d6d61782d6c697175696461626c6560401b6044820152606401610737565b60045415610f80576000600d60009054906101000a90046001600160a01b03166001600160a01b031663ee95799688878a6001600160a01b031663f8d898986040518163ffffffff1660e01b815260040160206040518083038186803b158015610e0757600080fd5b505afa158015610e1b573d6000803e3d6000fd5b505050506040513d601f19601f82011682018060405250810190610e3f9190613e0e565b6001600160a01b03166370a082318b6040518263ffffffff1660e01b8152600401610e6a9190613a34565b60206040518083038186803b158015610e8257600080fd5b505afa158015610e96573d6000803e3d6000fd5b505050506040513d601f19601f82011682018060405250810190610eba9190613c9d565b610ec49190613e2b565b6040518363ffffffff1660e01b8152600401610ee1929190613cb6565b60206040518083038186803b158015610ef957600080fd5b505afa158015610f0d573d6000803e3d6000fd5b505050506040513d601f19601f82011682018060405250810190610f319190613c9d565b9050801580610f4257506004548110155b610f7e5760405162461bcd60e51b815260206004820152600d60248201526c3232b13a16b63a16b33637b7b960991b6044820152606401610737565b505b6000610f8b86612873565b5050505090508015610fd55760405162461bcd60e51b8152602060048201526013602482015272706f736974696f6e2d69732d6865616c74687960681b6044820152606401610737565b600d5460405163248391ff60e01b81526000916001600160a01b03169063248391ff9061100a908b9089908b90600401613e42565b60206040518083038186803b15801561102257600080fd5b505afa158015611036573d6000803e3d6000fd5b505050506040513d601f19601f8201168201806040525081019061105a9190613c9d565b9050600080600b541161106e57600061107c565b600b5461107c90839061337c565b905060006110a0600a54670de0b6b3a76400006110999190613ce5565b849061337c565b905060006110ae8284613ce5565b6040516370a0823160e01b81529091506001600160a01b038916906370a08231906110dd908d90600401613a34565b60206040518083038186803b1580156110f557600080fd5b505afa158015611109573d6000803e3d6000fd5b505050506040513d601f19601f8201168201806040525081019061112d9190613c9d565b81111561116e5760405162461bcd60e51b815260206004820152600f60248201526e0c2dadeeadce85ae8dede5ad0d2ced608b1b6044820152606401610737565b604051632770a7eb60e21b81526001600160a01b038c1690639dc29fac9061119c9089908d90600401613cb6565b600060405180830381600087803b1580156111b657600080fd5b505af11580156111ca573d6000803e3d6000fd5b505050508a6001600160a01b031663f8d898986040518163ffffffff1660e01b815260040160206040518083038186803b15801561120757600080fd5b505afa15801561121b573d6000803e3d6000fd5b505050506040513d601f19601f8201168201806040525081019061123f9190613e0e565b6001600160a01b0316639dc29fac8b8b6040518363ffffffff1660e01b815260040161126c929190613cb6565b600060405180830381600087803b15801561128657600080fd5b505af115801561129a573d6000803e3d6000fd5b505060405163b2a02ff160e01b81526001600160a01b038b16925063b2a02ff191506112ce908d908a908790600401613e42565b600060405180830381600087803b1580156112e857600080fd5b505af11580156112fc573d6000803e3d6000fd5b50505050600083111561137057600e5460405163b2a02ff160e01b81526001600160a01b03808b169263b2a02ff19261133d928f9216908890600401613e42565b600060405180830381600087803b15801561135757600080fd5b505af115801561136b573d6000803e3d6000fd5b505050505b604080518a8152602081018390529081018490526001600160a01b03808d16918c8216918916907fe1c3870e3d7d5199a16d200133088e6e3f7012d28571e442a110b4c83b5e3b949060600160405180910390a4505060018055505050505050505050565b600354600160a01b900460ff1661141b5760405162461bcd60e51b815260206004820152600a6024820152691b9bdd0b5c185d5cd95960b21b6044820152606401610737565b600354600160a81b900460ff16156114455760405162461bcd60e51b815260040161073790613d86565b6002546001600160a01b0316331461146f5760405162461bcd60e51b815260040161073790613c25565b6003805460ff60a01b191690557f5db9ee0a495bf2e6ff9c91a7834c1ba4fdd244a5e8aa4e537bd38aeae4b073aa335b6040516114ac9190613a34565b60405180910390a1565b6114bf33610a32565b6114db5760405162461bcd60e51b815260040161073790613d18565b6114e760148233613417565b610a7e5760405162461bcd60e51b815260040161073790613e66565b600054610100900460ff168061151c575060005460ff16155b6115385760405162461bcd60e51b815260040161073790613e94565b600054610100900460ff1615801561155a576000805461ffff19166101011790555b6001600160a01b0382166115a35760405162461bcd60e51b815260206004820152601060248201526f1d1c99585cdd5c9e4b5a5ccb5b9d5b1b60821b6044820152606401610737565b6001600160a01b0383166115ea5760405162461bcd60e51b815260206004820152600e60248201526d1bdc9858db194b5a5ccb5b9d5b1b60921b6044820152606401610737565b6115f2613424565b6115fa613493565b600d80546001600160a01b038086166001600160a01b031992831617909255600e805492851692909116919091179055660aa87bee538000600855661550f7dca7000060095567016345785d8a0000600a5567011c37937e080000600b55670de0b6b3a7640000600c558015611676576000805461ff00191690555b505050565b6000610af06012836133c8565b6002546001600160a01b031633146116b25760405162461bcd60e51b815260040161073790613c25565b6001600160a01b0381166116d85760405162461bcd60e51b815260040161073790613ee2565b60005b60165481101561176a57601681815481106116f8576116f8613f0b565b6000918252602090912001546001600160a01b03838116911614156117585760405162461bcd60e51b815260206004820152601660248201527518dbdb9d1c9858dd0b585b1c9958591e4b585919195960521b6044820152606401610737565b8061176281613cfd565b9150506116db565b50601680546001810182556000919091527fd833147d7dc355ba459fc788f669e58cfaf9dc25ddcd0702e87d69c7b51242890180546001600160a01b0319166001600160a01b0383161790556040517f5579b1eead2d904c2b05255a92f5a4a4f3e234ae0a4efe538adef3c1794e1cea906117e6908390613a34565b60405180910390a150565b6002546001600160a01b0316331461181b5760405162461bcd60e51b815260040161073790613c25565b670de0b6b3a76400008111156118435760405162461bcd60e51b815260040161073790613c4b565b600654818114156118665760405162461bcd60e51b815260040161073790613c70565b60408051828152602081018490527f7aef17a0caeda11810cdf2a40c79ac1340553588671fb35d5cc8d0a3fe2883be910160405180910390a150600655565b6002546001600160a01b031633146118cf5760405162461bcd60e51b815260040161073790613c25565b670de0b6b3a76400008111156118f75760405162461bcd60e51b815260040161073790613c4b565b600a548181141561191a5760405162461bcd60e51b815260040161073790613c70565b60408051828152602081018490527f457d9e7f8f7a13610e084de82e6b40a65eddd57ff51a358ef64e1199c37c676a910160405180910390a150600a55565b60606119656012613541565b905090565b60003390506000816001600160a01b0316638230ecd66040518163ffffffff1660e01b815260040160206040518083038186803b1580156119aa57600080fd5b505afa1580156119be573d6000803e3d6000fd5b505050506040513d601f19601f820116820180604052508101906119e29190613e0e565b90506119ef6012826133c8565b8015611a7c5750806001600160a01b031663f8d898986040518163ffffffff1660e01b815260040160206040518083038186803b158015611a2f57600080fd5b505afa158015611a43573d6000803e3d6000fd5b505050506040513d601f19601f82011682018060405250810190611a679190613e0e565b6001600160a01b0316336001600160a01b0316145b611a985760405162461bcd60e51b815260040161073790613f21565b611aa4601584336133ea565b6116765760405162461bcd60e51b81526020600482015260176024820152761919589d0b5d1bdad95b8b591bd95cdb9d0b595e1a5cdd604a1b6044820152606401610737565b60003390506000816001600160a01b0316638230ecd66040518163ffffffff1660e01b815260040160206040518083038186803b158015611b2a57600080fd5b505afa158015611b3e573d6000803e3d6000fd5b505050506040513d601f19601f82011682018060405250810190611b629190613e0e565b9050611b6f6012826133c8565b8015611bfc5750806001600160a01b031663f8d898986040518163ffffffff1660e01b815260040160206040518083038186803b158015611baf57600080fd5b505afa158015611bc3573d6000803e3d6000fd5b505050506040513d601f19601f82011682018060405250810190611be79190613e0e565b6001600160a01b0316336001600160a01b0316145b611c185760405162461bcd60e51b815260040161073790613f21565b611c2460158433613417565b6116765760405162461bcd60e51b8152602060048201526011602482015270646562742d746f6b656e2d65786973747360781b6044820152606401610737565b6002546001600160a01b03163314611c8e5760405162461bcd60e51b815260040161073790613c25565b6001600160a01b038116611cb45760405162461bcd60e51b815260040161073790613ee2565b611cbf600f8261354e565b611cdb5760405162461bcd60e51b815260040161073790613e66565b8060116000836001600160a01b0316636f307dc36040518163ffffffff1660e01b815260040160206040518083038186803b158015611d1957600080fd5b505afa158015611d2d573d6000803e3d6000fd5b505050506040513d601f19601f82011682018060405250810190611d519190613e0e565b6001600160a01b03908116825260208201929092526040908101600090812080546001600160a01b0319169484169490941790935551908316917fdc705e658c7b6c6c01f5802457bf4ffb99f204bf1603e7b1ae3d4c7536611bc291a250565b6002546001600160a01b03163314611ddb5760405162461bcd60e51b815260040161073790613c25565b6001600160a01b038216611e015760405162461bcd60e51b815260040161073790613ee2565b600e546001600160a01b0383811691161415611e2f5760405162461bcd60e51b815260040161073790613c70565b8015611e9857600e546040516326ed7c7960e11b81526001600160a01b0390911690634ddaf8f290611e65908590600401613a34565b600060405180830381600087803b158015611e7f57600080fd5b505af1158015611e93573d6000803e3d6000fd5b505050505b600e546040516001600160a01b038085169216907f4ab5be82436d353e61ca18726e984e561f5c1cc7c6d38b29d2553c790434705a90600090a350600e80546001600160a01b0319166001600160a01b0392909216919091179055565b6060610af0601483613563565b600354600160a01b900460ff1615611f455760405162461bcd60e51b81526020600482015260066024820152651c185d5cd95960d21b6044820152606401610737565b6002546001600160a01b03163314611f6f5760405162461bcd60e51b815260040161073790613c25565b6003805460ff60a01b1916600160a01b1790557f62e78cea01bee320cd4e420270b5ea74000d11b0c9f74754ebdbfc544b05a25861149f3390565b6002546001600160a01b03163314611fd45760405162461bcd60e51b815260040161073790613c25565b670de0b6b3a7640000811115611ffc5760405162461bcd60e51b815260040161073790613c4b565b600b548181141561201f5760405162461bcd60e51b815260040161073790613c70565b60408051828152602081018490527fe0dac1dcc46eceed1fdb7416944e7161273637fb346a67d6f0fce8de3e952f2f910160405180910390a150600b55565b6002546001600160a01b031633146120885760405162461bcd60e51b815260040161073790613c25565b670de0b6b3a76400008111156120b05760405162461bcd60e51b815260040161073790613c4b565b600854818114156120d35760405162461bcd60e51b815260040161073790613c70565b60408051828152602081018490527fdd45ca427fa57d0870314eb55586e91bcdd31d7cd393e3278caaae9dfb749688910160405180910390a150600855565b6002546001600160a01b0316331461213c5760405162461bcd60e51b815260040161073790613c25565b6001600160a01b0381166121625760405162461bcd60e51b815260040161073790613ee2565b61216d60128261354e565b6121ac5760405162461bcd60e51b815260206004820152601060248201526f73796e7468657469632d65786973747360801b6044820152606401610737565b6040516001600160a01b038216907f6b5a83f4cf73e3df48c170415d0be65d33e1cedc4eecd090d47189119061eb4890600090a250565b6002546001600160a01b0316331461220d5760405162461bcd60e51b815260040161073790613c25565b6001600160a01b0381166122335760405162461bcd60e51b815260040161073790613ee2565b600d546001600160a01b039081169082168114156122635760405162461bcd60e51b815260040161073790613c70565b816001600160a01b0316816001600160a01b03167fc96bca3f57d35a1057a3357bced51fac157918147faa56845639671c516ec69c60405160405180910390a350600d80546001600160a01b0319166001600160a01b0392909216919091179055565b6002546001600160a01b031633146122f05760405162461bcd60e51b815260040161073790613c25565b6001600160a01b0381166123425760405162461bcd60e51b815260206004820152601960248201527870726f706f7365642d676f7665726e6f722d69732d7a65726f60381b6044820152606401610737565b600380546001600160a01b0319166001600160a01b0392909216919091179055565b6002546001600160a01b0316331461238e5760405162461bcd60e51b815260040161073790613c25565b670de0b6b3a76400008111156123b65760405162461bcd60e51b815260040161073790613c4b565b600954818114156123d95760405162461bcd60e51b815260040161073790613c70565b60408051828152602081018490527fc8273cce54f5cf71712dee009c7e6438ae7e1db578da0ec076cf360af45501b9910160405180910390a150600955565b6060610af0601583613563565b600080612433601584613346565b905060005b818110156125e357600061244e60158684613367565b90506000816001600160a01b0316638230ecd66040518163ffffffff1660e01b815260040160206040518083038186803b15801561248b57600080fd5b505afa15801561249f573d6000803e3d6000fd5b505050506040513d601f19601f820116820180604052508101906124c39190613e0e565b600d546040516370a0823160e01b81529192506000916001600160a01b039182169163ee9579969185918716906370a0823190612504908d90600401613a34565b60206040518083038186803b15801561251c57600080fd5b505afa158015612530573d6000803e3d6000fd5b505050506040513d601f19601f820116820180604052508101906125549190613c9d565b6040518363ffffffff1660e01b8152600401612571929190613cb6565b60206040518083038186803b15801561258957600080fd5b505afa15801561259d573d6000803e3d6000fd5b505050506040513d601f19601f820116820180604052508101906125c19190613c9d565b90506125cd8187613ce5565b9550505050806125dc90613cfd565b9050612438565b5050919050565b6002546001600160a01b031633146126145760405162461bcd60e51b815260040161073790613c25565b670de0b6b3a764000081111561263c5760405162461bcd60e51b815260040161073790613c4b565b6007548181141561265f5760405162461bcd60e51b815260040161073790613c70565b60408051828152602081018490527f733071ab8253b372ed26a6d1b04aec71c4bfcd209c93397df32bb77478cdd2c8910160405180910390a150600755565b6002546001600160a01b031633146126c85760405162461bcd60e51b815260040161073790613c25565b806126d281610ae3565b6126ee5760405162461bcd60e51b815260040161073790613ddf565b816001600160a01b03166318160ddd6040518163ffffffff1660e01b815260040160206040518083038186803b15801561272757600080fd5b505afa15801561273b573d6000803e3d6000fd5b505050506040513d601f19601f8201168201806040525081019061275f9190613c9d565b1561277c5760405162461bcd60e51b815260040161073790613f53565b612787600f83613571565b6127a35760405162461bcd60e51b815260040161073790613d4f565b60116000836001600160a01b0316636f307dc36040518163ffffffff1660e01b815260040160206040518083038186803b1580156127e057600080fd5b505afa1580156127f4573d6000803e3d6000fd5b505050506040513d601f19601f820116820180604052508101906128189190613e0e565b6001600160a01b03908116825260208201929092526040908101600090812080546001600160a01b03191690559051918416917fe5a19a76470297a1f85f9a38f3ff148b4c8cdc1209e074dbe59db5e22eb31a3a9190a25050565b600080600080600061288486612425565b925061288f86610856565b80851115965090945091508183106128a85760006128b2565b6128b28383613e2b565b905091939590929450565b600354600090600160a81b900460ff16156128ea5760405162461bcd60e51b815260040161073790613d86565b6002600154141561290d5760405162461bcd60e51b815260040161073790613da8565b60026001558361291c8161167b565b6129385760405162461bcd60e51b815260040161073790613f78565b836129428161167b565b61295e5760405162461bcd60e51b815260040161073790613f78565b84806001600160a01b03166322f3e2d46040518163ffffffff1660e01b815260040160206040518083038186803b15801561299857600080fd5b505afa1580156129ac573d6000803e3d6000fd5b505050506040513d601f19601f820116820180604052508101906129d09190613fa6565b612a115760405162461bcd60e51b815260206004820152601260248201527173796e7468657469632d696e61637469766560701b6044820152606401610737565b866001600160a01b031663a6afed956040518163ffffffff1660e01b8152600401600060405180830381600087803b158015612a4c57600080fd5b505af1158015612a60573d6000803e3d6000fd5b50505050856001600160a01b031663a6afed956040518163ffffffff1660e01b8152600401600060405180830381600087803b158015612a9f57600080fd5b505af1158015612ab3573d6000803e3d6000fd5b505050506000612ac03390565b905060008611612b035760405162461bcd60e51b815260206004820152600e60248201526d0616d6f756e742d696e2d69732d360941b6044820152606401610737565b6040516370a0823160e01b81526001600160a01b038916906370a0823190612b2f908490600401613a34565b60206040518083038186803b158015612b4757600080fd5b505afa158015612b5b573d6000803e3d6000fd5b505050506040513d601f19601f82011682018060405250810190612b7f9190613c9d565b861115612bc55760405162461bcd60e51b8152602060048201526014602482015273616d6f756e742d696e2d67742d62616c616e636560601b6044820152606401610737565b604051632770a7eb60e21b81526001600160a01b03891690639dc29fac90612bf39084908a90600401613cb6565b600060405180830381600087803b158015612c0d57600080fd5b505af1158015612c21573d6000803e3d6000fd5b5050600d5460405163248391ff60e01b81526001600160a01b03909116925063248391ff9150612c59908b908b908b90600401613e42565b60206040518083038186803b158015612c7157600080fd5b505afa158015612c85573d6000803e3d6000fd5b505050506040513d601f19601f82011682018060405250810190612ca99190613c9d565b94506000806009541115612d3b57600954612cc590879061337c565b600e546040516340c10f1960e01b81529192506001600160a01b03808b16926340c10f1992612cfa9216908590600401613cb6565b600060405180830381600087803b158015612d1457600080fd5b505af1158015612d28573d6000803e3d6000fd5b505050508086612d389190613e2b565b95505b6040516340c10f1960e01b81526001600160a01b038916906340c10f1990612d699085908a90600401613cb6565b600060405180830381600087803b158015612d8357600080fd5b505af1158015612d97573d6000803e3d6000fd5b5050604080518a8152602081018a90529081018490526001600160a01b03808c1693508c811692508516907fafd74f009c0ff7627726f24b568ee5529cd297f6a7a1e43ec363443a13a584209060600160405180910390a4505060018055509195945050505050565b6002546001600160a01b03163314612e2a5760405162461bcd60e51b815260040161073790613c25565b670de0b6b3a7640000811115612e525760405162461bcd60e51b815260040161073790613c4b565b600c5481811415612e755760405162461bcd60e51b815260040161073790613c70565b60408051828152602081018490527f6d8ed4ad9ba67058e16e32fc3c8da2e3358da6cd1599e0e0fb2630d0a19fd49c910160405180910390a150600c55565b6002546001600160a01b03163314612ede5760405162461bcd60e51b815260040161073790613c25565b80612ee88161167b565b612f045760405162461bcd60e51b815260040161073790613f78565b816001600160a01b03166318160ddd6040518163ffffffff1660e01b815260040160206040518083038186803b158015612f3d57600080fd5b505afa158015612f51573d6000803e3d6000fd5b505050506040513d601f19601f82011682018060405250810190612f759190613c9d565b15612f925760405162461bcd60e51b815260040161073790613f53565b816001600160a01b031663f8d898986040518163ffffffff1660e01b815260040160206040518083038186803b158015612fcb57600080fd5b505afa158015612fdf573d6000803e3d6000fd5b505050506040513d601f19601f820116820180604052508101906130039190613e0e565b6001600160a01b03166318160ddd6040518163ffffffff1660e01b815260040160206040518083038186803b15801561303b57600080fd5b505afa15801561304f573d6000803e3d6000fd5b505050506040513d601f19601f820116820180604052508101906130739190613c9d565b156130c05760405162461bcd60e51b815260206004820152601a60248201527f73796e7468657469632d776974682d646562742d737570706c790000000000006044820152606401610737565b6130cb601283613571565b6131105760405162461bcd60e51b81526020600482015260166024820152751cde5b9d1a195d1a58cb591bd95cdb9d0b595e1a5cdd60521b6044820152606401610737565b6040516001600160a01b038316907fc6410e68b378721373b73ca2a05e332f27c833f6aca80f67ce583292e01f3bc490600090a25050565b6003546001600160a01b0316331461319e5760405162461bcd60e51b81526020600482015260196024820152783737ba16ba343296b83937b837b9b2b216b3b7bb32b93737b960391b6044820152606401610737565b6003546002546040516001600160a01b0392831692909116907fd4459d5b8b913cab0244230fd9b1c08b6ceace7fe9230e60d0f74cbffdf849d090600090a360038054600280546001600160a01b03199081166001600160a01b03841617909155169055565b6060611965600f613541565b600354600160a81b900460ff161561323a5760405162461bcd60e51b815260040161073790613d86565b6002546001600160a01b031633146132645760405162461bcd60e51b815260040161073790613c25565b6003805461ffff60a01b191661010160a01b1790557f28b4c24cb1012c094cd2f59f98e89d791973295f8fda6eaa118022d6d318960a3361149f565b600354600160a81b900460ff166132e85760405162461bcd60e51b815260206004820152600c60248201526b3737ba16b9b43aba3237bbb760a11b6044820152606401610737565b6002546001600160a01b031633146133125760405162461bcd60e51b815260040161073790613c25565b6003805460ff60a81b191690557fece7583a70a505ef0e36d4dec768f5ae597713e09c26011022599ee01abdabfc3361149f565b6001600160a01b0381166000908152602083905260408120545b9392505050565b6000613374848484613586565b949350505050565b6000821580613389575081155b1561339657506000610af0565b670de0b6b3a76400006133aa600282613fc3565b6133b48486613fe5565b6133be9190613ce5565b6133609190613fc3565b6001600160a01b03811660009081526001830160205260408120541515613360565b60006133748484846135cd565b600081613405600282613fc3565b6133b4670de0b6b3a764000086613fe5565b600061337484848461377a565b600054610100900460ff168061343d575060005460ff16155b6134595760405162461bcd60e51b815260040161073790613e94565b600054610100900460ff1615801561347b576000805461ffff19166101011790555b600180558015610a7e576000805461ff001916905550565b600054610100900460ff16806134ac575060005460ff16155b6134c85760405162461bcd60e51b815260040161073790613e94565b600054610100900460ff161580156134ea576000805461ffff19166101011790555b600280546001600160a01b0319163390811790915560405181906000907fd4459d5b8b913cab0244230fd9b1c08b6ceace7fe9230e60d0f74cbffdf849d0908290a3508015610a7e576000805461ff001916905550565b6060600061336083613808565b6000613360836001600160a01b038416613864565b6060600061337484846138b3565b6000613360836001600160a01b038416613928565b6001600160a01b03821660009081526020849052604081208054839081106135b0576135b0613f0b565b6000918252602090912001546001600160a01b0316949350505050565b6001600160a01b0380831660009081526020858152604080832093851683526001909301905290812054801561377057600061360a600183613e2b565b6001600160a01b0386166000908152602088905260408120549192509061363390600190613e2b565b90508181146136ef576001600160a01b038616600090815260208890526040812080548390811061366657613666613f0b565b60009182526020808320909101546001600160a01b038a81168452918b905260409092208054919092169250829190859081106136a5576136a5613f0b565b600091825260208083209190910180546001600160a01b0319166001600160a01b0394851617905589831682528a8152604080832094909316825260019390930190925290208390555b6001600160a01b038616600090815260208890526040902080548061371657613716614004565b60008281526020808220830160001990810180546001600160a01b03191690559092019092556001600160a01b03888116835289825260408084209189168452600191820190925290822091909155935061336092505050565b6000915050613360565b6001600160a01b038083166000908152602085815260408083209385168352600190930190529081205461380057506001600160a01b0382811660009081526020858152604080832080546001808201835582865284862090910180546001600160a01b0319169688169687179055815495855290810190925290912091909155613360565b506000613360565b60608160000180548060200260200160405190810160405280929190818152602001828054801561385857602002820191906000526020600020905b815481526020019060010190808311613844575b50505050509050919050565b60008181526001830160205260408120546138ab57508154600181810184556000848152602080822090930184905584548482528286019093526040902091909155610af0565b506000610af0565b6001600160a01b0381166000908152602083815260409182902080548351818402810184019094528084526060939283018282801561391b57602002820191906000526020600020905b81546001600160a01b031681526001909101906020018083116138fd575b5050505050905092915050565b60008181526001830160205260408120548015613a1157600061394c600183613e2b565b855490915060009061396090600190613e2b565b90508181146139c557600086600001828154811061398057613980613f0b565b90600052602060002001549050808760000184815481106139a3576139a3613f0b565b6000918252602080832090910192909255918252600188019052604090208390555b85548690806139d6576139d6614004565b600190038181906000526020600020016000905590558560010160008681526020019081526020016000206000905560019350505050610af0565b6000915050610af0565b600060208284031215613a2d57600080fd5b5035919050565b6001600160a01b0391909116815260200190565b6001600160a01b0381168114610a7e57600080fd5b600060208284031215613a6f57600080fd5b813561336081613a48565b6020808252825182820181905260009190848201906040850190845b81811015613abb5783516001600160a01b031683529284019291840191600101613a96565b50909695505050505050565b60008060008060808587031215613add57600080fd5b8435613ae881613a48565b93506020850135613af881613a48565b9250604085013591506060850135613b0f81613a48565b939692955090935050565b60008060408385031215613b2d57600080fd5b8235613b3881613a48565b91506020830135613b4881613a48565b809150509250929050565b8015158114610a7e57600080fd5b60008060408385031215613b7457600080fd5b8235613b7f81613a48565b91506020830135613b4881613b53565b600080600060608486031215613ba457600080fd5b8335613baf81613a48565b92506020840135613bbf81613a48565b929592945050506040919091013590565b600060208083528351808285015260005b81811015613bfd57858101830151858201604001528201613be1565b81811115613c0f576000604083870101525b50601f01601f1916929092016040019392505050565b6020808252600c908201526b3737ba16b3b7bb32b93737b960a11b604082015260600190565b6020808252600b908201526a6d61782d69732d3130302560a81b604082015260600190565b6020808252601390820152721b995dcb5cd85b594b585ccb58dd5c9c995b9d606a1b604082015260600190565b600060208284031215613caf57600080fd5b5051919050565b6001600160a01b03929092168252602082015260400190565b634e487b7160e01b600052601160045260246000fd5b60008219821115613cf857613cf8613ccf565b500190565b6000600019821415613d1157613d11613ccf565b5060010190565b6020808252601b908201527f63616c6c65722d69732d6e6f742d6465706f7369742d746f6b656e0000000000604082015260600190565b6020808252601a908201527f6465706f7369742d746f6b656e2d646f65736e742d6578697374000000000000604082015260600190565b60208082526008908201526739b43aba3237bbb760c11b604082015260600190565b6020808252601f908201527f5265656e7472616e637947756172643a207265656e7472616e742063616c6c00604082015260600190565b60208082526015908201527418dbdb1b185d195c985b0b5a5b995e1a5cdd195b9d605a1b604082015260600190565b600060208284031215613e2057600080fd5b815161336081613a48565b600082821015613e3d57613e3d613ccf565b500390565b6001600160a01b039384168152919092166020820152604081019190915260600190565b6020808252601490820152736465706f7369742d746f6b656e2d65786973747360601b604082015260600190565b6020808252602e908201527f496e697469616c697a61626c653a20636f6e747261637420697320616c72656160408201526d191e481a5b9a5d1a585b1a5e995960921b606082015260800190565b6020808252600f908201526e1859191c995cdccb5a5ccb5b9d5b1b608a1b604082015260600190565b634e487b7160e01b600052603260045260246000fd5b60208082526018908201527731b0b63632b916b4b996b737ba16b232b13a16ba37b5b2b760411b604082015260600190565b6020808252600b908201526a0737570706c792d67742d360ac1b604082015260600190565b6020808252601490820152731cde5b9d1a195d1a58cb5a5b995e1a5cdd195b9d60621b604082015260600190565b600060208284031215613fb857600080fd5b815161336081613b53565b600082613fe057634e487b7160e01b600052601260045260246000fd5b500490565b6000816000190483118215151615613fff57613fff613ccf565b500290565b634e487b7160e01b600052603160045260246000fdfea2646970667358221220fc8870a76d6c0bca633507649bfcaa0222d1df8c15321936c0874e621265528664736f6c63430008090033",
  "devdoc": {
    "kind": "dev",
    "methods": {
      "acceptGovernorship()": {
        "details": "Allows new governor to accept governorship of the contract."
      },
      "addToDebtTokensOfAccount(address)": {
        "details": "This function is called from `DebtToken._beforeTokenTransfer` hookThe caller should ensure to not pass `address(0)` as `_account`",
        "params": {
          "_account": "The account address"
        }
      },
      "addToDepositTokensOfAccount(address)": {
        "details": "This function is called from `DepositToken._beforeTokenTransfer` hookThe caller should ensure to not pass `address(0)` as `_account`",
        "params": {
          "_account": "The account address"
        }
      },
      "debtOf(address)": {
        "params": {
          "_account": "The account to check"
        },
        "returns": {
          "_debtInUsd": "The debt value in USD"
        }
      },
      "debtPositionOf(address)": {
        "params": {
          "_account": "The account to check"
        },
        "returns": {
          "_debtInUsd": "The total debt in USD",
          "_depositInUsd": "The total collateral deposited in USD",
          "_isHealthy": "Whether the account's position is healthy",
          "_issuableInUsd": "The amount of debt (is USD) that is free (i.e. can be used to issue synthetic tokens)",
          "_issuableLimitInUsd": "The max amount of debt (is USD) that can be created (considering collateralization ratios)"
        }
      },
      "depositOf(address)": {
        "params": {
          "_account": "The account to check"
        },
        "returns": {
          "_depositInUsd": "The total deposit value in USD among all collaterals",
          "_issuableLimitInUsd": "The max value in USD that can be used to issue synthetic tokens"
        }
      },
      "getDebtTokensOfAccount(address)": {
        "details": "WARNING: This operation will copy the entire storage to memory, which can be quite expensive. This is designed to mostly be used by view accessors that are queried without any gas fees."
      },
      "getDepositTokens()": {
        "details": "WARNING: This operation will copy the entire storage to memory, which can be quite expensive. This is designed to mostly be used by view accessors that are queried without any gas fees."
      },
      "getDepositTokensOfAccount(address)": {
        "details": "WARNING: This operation will copy the entire storage to memory, which can be quite expensive. This is designed to mostly be used by view accessors that are queried without any gas fees."
      },
      "getSyntheticTokens()": {
        "details": "WARNING: This operation will copy the entire storage to memory, which can be quite expensive. This is designed to mostly be used by view accessors that are queried without any gas fees."
      },
      "isDepositTokenExists(address)": {
        "params": {
          "_depositToken": "Asset to check"
        },
        "returns": {
          "_0": "true if exist"
        }
      },
      "isSyntheticTokenExists(address)": {
        "params": {
          "_syntheticToken": "Asset to check"
        },
        "returns": {
          "_0": "true if exist"
        }
      },
      "liquidate(address,address,uint256,address)": {
        "params": {
          "_account": "The account with an unhealty position",
          "_amountToRepay": "The amount to repay in synthetic token",
          "_depositToken": "The collateral to seize from",
          "_syntheticToken": "The vsAsset to use for repayment"
        }
      },
      "open()": {
        "details": "Open contract operations, if contract is in shutdown state"
      },
      "pause()": {
        "details": "Pause contract operations, if contract is not paused."
      },
      "removeFromDebtTokensOfAccount(address)": {
        "details": "This function is called from `DebtToken._afterTokenTransfer` hookThe caller should ensure to not pass `address(0)` as `_account`",
        "params": {
          "_account": "The account address"
        }
      },
      "removeFromDepositTokensOfAccount(address)": {
        "details": "This function is called from `DepositToken._afterTokenTransfer` hookThe caller should ensure to not pass `address(0)` as `_account`",
        "params": {
          "_account": "The account address"
        }
      },
      "shutdown()": {
        "details": "Shutdown contract operations, if not already shutdown."
      },
      "swap(address,address,uint256)": {
        "params": {
          "_amountIn": "Amount to swap",
          "_syntheticTokenIn": "Synthetic token to sell",
          "_syntheticTokenOut": "Synthetic token to buy"
        }
      },
      "transferGovernorship(address)": {
        "details": "Transfers governorship of the contract to a new account (`proposedGovernor`). Can only be called by the current owner."
      },
      "unpause()": {
        "details": "Unpause contract operations, allow only if contract is paused and not shutdown."
      }
    },
    "title": "Controller contract",
    "version": 1
  },
  "userdoc": {
    "events": {
      "DebtFloorUpdated(uint256,uint256)": {
        "notice": "Emitted when protocol liquidation fee is updated"
      },
      "DebtRefinancied(address,address,uint256,uint256,uint256)": {
        "notice": "Emitted when debt is refinancied"
      },
      "DepositFeeUpdated(uint256,uint256)": {
        "notice": "Emitted when deposit fee is updated"
      },
      "DepositTokenAdded(address)": {
        "notice": "Emitted when deposit token is enabled"
      },
      "DepositTokenRemoved(address)": {
        "notice": "Emitted when deposit token is disabled"
      },
      "IssueFeeUpdated(uint256,uint256)": {
        "notice": "Emitted when issue fee is updated"
      },
      "LiquidatorLiquidationFeeUpdated(uint256,uint256)": {
        "notice": "Emitted when liquidator liquidation fee is updated"
      },
      "MasterOracleUpdated(address,address)": {
        "notice": "Emitted when master oracle contract is updated"
      },
      "MaxLiquidableUpdated(uint256,uint256)": {
        "notice": "Emitted when maxLiquidable (liquidation cap) is updated"
      },
      "PositionLiquidated(address,address,address,uint256,uint256,uint256)": {
        "notice": "Emitted when a position is liquidated"
      },
      "ProtocolLiquidationFeeUpdated(uint256,uint256)": {
        "notice": "Emitted when protocol liquidation fee is updated"
      },
      "RefinanceFeeUpdated(uint256,uint256)": {
        "notice": "Emitted when refinance fee is updated"
      },
      "RepayFeeUpdated(uint256,uint256)": {
        "notice": "Emitted when repay fee is updated"
      },
      "RewardsDistributorAdded(address)": {
        "notice": "Emitted when rewards distributor contract is added"
      },
      "SwapFeeUpdated(uint256,uint256)": {
        "notice": "Emitted when swap fee is updated"
      },
      "SyntheticTokenAdded(address)": {
        "notice": "Emitted when synthetic token is enabled"
      },
      "SyntheticTokenRemoved(address)": {
        "notice": "Emitted when synthetic token is disabled"
      },
      "SyntheticTokenSwapped(address,address,address,uint256,uint256,uint256)": {
        "notice": "Emitted when synthetic token is swapped"
      },
      "TreasuryUpdated(address,address)": {
        "notice": "Emitted when treasury contract is updated"
      },
      "WithdrawFeeUpdated(uint256,uint256)": {
        "notice": "Emitted when withdraw fee is updated"
      }
    },
    "kind": "user",
    "methods": {
      "addDepositToken(address)": {
        "notice": "Add deposit token (i.e. collateral) to vSynth"
      },
      "addRewardsDistributor(address)": {
        "notice": "Add a RewardsDistributor contract"
      },
      "addSyntheticToken(address)": {
        "notice": "Add synthetic token to vSynth offerings"
      },
      "addToDebtTokensOfAccount(address)": {
        "notice": "Add a debt token to the per-account list"
      },
      "addToDepositTokensOfAccount(address)": {
        "notice": "Add a deposit token to the per-account list"
      },
      "debtFloorInUsd()": {
        "notice": "The debt floor (in USD) for each synthetic token This parameters is used to keep incentive for liquidators (i.e. cover gas and provide enough profit)"
      },
      "debtOf(address)": {
        "notice": "Get account's debt by querying latest prices from oracles"
      },
      "debtPositionOf(address)": {
        "notice": "Get if the debt position from an account is healthy"
      },
      "depositFee()": {
        "notice": "The fee charged when depositing collateral"
      },
      "depositOf(address)": {
        "notice": "Get account's total collateral deposited by querying latest prices from oracles"
      },
      "depositTokenOf(address)": {
        "notice": "Get the deposit token's address from given underlying asset"
      },
      "getDebtTokensOfAccount(address)": {
        "notice": "Get all deposit tokens"
      },
      "getDepositTokens()": {
        "notice": "Get all deposit tokens"
      },
      "getDepositTokensOfAccount(address)": {
        "notice": "Get deposit tokens of an account"
      },
      "getRewardsDistributors()": {
        "notice": "Get all rewards distributors"
      },
      "getSyntheticTokens()": {
        "notice": "Get all synthetic tokens"
      },
      "isDepositTokenExists(address)": {
        "notice": "Check if collateral is supported"
      },
      "isSyntheticTokenExists(address)": {
        "notice": "Check if token is part of the synthetic offerings"
      },
      "issueFee()": {
        "notice": "The fee charged when minting a synthetic token"
      },
      "liquidate(address,address,uint256,address)": {
        "notice": "Burn synthetic token, unlock deposit token and send liquidator liquidation fee"
      },
      "liquidatorLiquidationFee()": {
        "notice": "The fee charged from liquidated deposit that goes to the liquidator"
      },
      "masterOracle()": {
        "notice": "Prices oracle"
      },
      "maxLiquidable()": {
        "notice": "The max percent of the debt allowed to liquidate"
      },
      "protocolLiquidationFee()": {
        "notice": "The fee charged when liquidating a position"
      },
      "removeDepositToken(address)": {
        "notice": "Remove deposit token (i.e. collateral) from vSynth"
      },
      "removeFromDebtTokensOfAccount(address)": {
        "notice": "Remove a debt token from the per-account list"
      },
      "removeFromDepositTokensOfAccount(address)": {
        "notice": "Remove a deposit token from the per-account list"
      },
      "removeSyntheticToken(address)": {
        "notice": "Remove synthetic token from vSynth offerings"
      },
      "repayFee()": {
        "notice": "The fee charged when repaying debt"
      },
      "swap(address,address,uint256)": {
        "notice": "Swap synthetic tokens"
      },
      "swapFee()": {
        "notice": "The fee charged when swapping synthetic tokens"
      },
      "treasury()": {
        "notice": "Treasury contract"
      },
      "updateDebtFloor(uint256)": {
        "notice": "Update debt floor"
      },
      "updateDepositFee(uint256)": {
        "notice": "Update deposit fee"
      },
      "updateIssueFee(uint256)": {
        "notice": "Update issue fee"
      },
      "updateLiquidatorLiquidationFee(uint256)": {
        "notice": "Update liquidator liquidation fee"
      },
      "updateMasterOracle(address)": {
        "notice": "Update master oracle contract"
      },
      "updateMaxLiquidable(uint256)": {
        "notice": "Update maxLiquidable (liquidation cap)"
      },
      "updateProtocolLiquidationFee(uint256)": {
        "notice": "Update protocol liquidation fee"
      },
      "updateRepayFee(uint256)": {
        "notice": "Update repay fee"
      },
      "updateSwapFee(uint256)": {
        "notice": "Update swap fee"
      },
      "updateTreasury(address,bool)": {
        "notice": "Update treasury contract - will migrate funds to the new contract"
      },
      "updateWithdrawFee(uint256)": {
        "notice": "Update withdraw fee"
      },
      "withdrawFee()": {
        "notice": "The fee charged when withdrawing collateral"
      }
    },
    "version": 1
  },
  "storageLayout": {
    "storage": [
      {
        "astId": 7181,
        "contract": "contracts/Controller.sol:Controller",
        "label": "_initialized",
        "offset": 0,
        "slot": "0",
        "type": "t_bool"
      },
      {
        "astId": 7184,
        "contract": "contracts/Controller.sol:Controller",
        "label": "_initializing",
        "offset": 1,
        "slot": "0",
        "type": "t_bool"
      },
      {
        "astId": 7235,
        "contract": "contracts/Controller.sol:Controller",
        "label": "_status",
        "offset": 0,
        "slot": "1",
        "type": "t_uint256"
      },
      {
        "astId": 6017,
        "contract": "contracts/Controller.sol:Controller",
        "label": "governor",
        "offset": 0,
        "slot": "2",
        "type": "t_address"
      },
      {
        "astId": 6019,
        "contract": "contracts/Controller.sol:Controller",
        "label": "proposedGovernor",
        "offset": 0,
        "slot": "3",
        "type": "t_address"
      },
      {
        "astId": 3811,
        "contract": "contracts/Controller.sol:Controller",
        "label": "paused",
        "offset": 20,
        "slot": "3",
        "type": "t_bool"
      },
      {
        "astId": 3814,
        "contract": "contracts/Controller.sol:Controller",
        "label": "everythingStopped",
        "offset": 21,
        "slot": "3",
        "type": "t_bool"
      },
      {
        "astId": 14718,
        "contract": "contracts/Controller.sol:Controller",
        "label": "debtFloorInUsd",
        "offset": 0,
        "slot": "4",
        "type": "t_uint256"
      },
      {
        "astId": 14721,
        "contract": "contracts/Controller.sol:Controller",
        "label": "depositFee",
        "offset": 0,
        "slot": "5",
        "type": "t_uint256"
      },
      {
        "astId": 14724,
        "contract": "contracts/Controller.sol:Controller",
        "label": "issueFee",
        "offset": 0,
        "slot": "6",
        "type": "t_uint256"
      },
      {
        "astId": 14727,
        "contract": "contracts/Controller.sol:Controller",
        "label": "withdrawFee",
        "offset": 0,
        "slot": "7",
        "type": "t_uint256"
      },
      {
        "astId": 14730,
        "contract": "contracts/Controller.sol:Controller",
        "label": "repayFee",
        "offset": 0,
        "slot": "8",
        "type": "t_uint256"
      },
      {
        "astId": 14733,
        "contract": "contracts/Controller.sol:Controller",
        "label": "swapFee",
        "offset": 0,
        "slot": "9",
        "type": "t_uint256"
      },
      {
        "astId": 14736,
        "contract": "contracts/Controller.sol:Controller",
        "label": "liquidatorLiquidationFee",
        "offset": 0,
        "slot": "10",
        "type": "t_uint256"
      },
      {
        "astId": 14739,
        "contract": "contracts/Controller.sol:Controller",
        "label": "protocolLiquidationFee",
        "offset": 0,
        "slot": "11",
        "type": "t_uint256"
      },
      {
        "astId": 14742,
        "contract": "contracts/Controller.sol:Controller",
        "label": "maxLiquidable",
        "offset": 0,
        "slot": "12",
        "type": "t_uint256"
      },
      {
        "astId": 14746,
        "contract": "contracts/Controller.sol:Controller",
        "label": "masterOracle",
        "offset": 0,
        "slot": "13",
        "type": "t_contract(IMasterOracle)11326"
      },
      {
        "astId": 14750,
        "contract": "contracts/Controller.sol:Controller",
        "label": "treasury",
        "offset": 0,
        "slot": "14",
        "type": "t_contract(ITreasury)11221"
      },
      {
        "astId": 14754,
        "contract": "contracts/Controller.sol:Controller",
        "label": "depositTokens",
        "offset": 0,
        "slot": "15",
        "type": "t_struct(AddressSet)9311_storage"
      },
      {
        "astId": 14761,
        "contract": "contracts/Controller.sol:Controller",
        "label": "depositTokenOf",
        "offset": 0,
        "slot": "17",
        "type": "t_mapping(t_contract(IERC20)7890,t_contract(IDepositToken)11011)"
      },
      {
        "astId": 14765,
        "contract": "contracts/Controller.sol:Controller",
        "label": "syntheticTokens",
        "offset": 0,
        "slot": "18",
        "type": "t_struct(AddressSet)9311_storage"
      },
      {
        "astId": 14769,
        "contract": "contracts/Controller.sol:Controller",
        "label": "depositTokensOfAccount",
        "offset": 0,
        "slot": "20",
        "type": "t_struct(AddressSet)11431_storage"
      },
      {
        "astId": 14773,
        "contract": "contracts/Controller.sol:Controller",
        "label": "debtTokensOfAccount",
        "offset": 0,
        "slot": "21",
        "type": "t_struct(AddressSet)11431_storage"
      },
      {
        "astId": 14778,
        "contract": "contracts/Controller.sol:Controller",
        "label": "rewardsDistributors",
        "offset": 0,
        "slot": "22",
        "type": "t_array(t_contract(IRewardsDistributor)11125)dyn_storage"
      }
    ],
    "types": {
      "t_address": {
        "encoding": "inplace",
        "label": "address",
        "numberOfBytes": "20"
      },
      "t_array(t_address)dyn_storage": {
        "base": "t_address",
        "encoding": "dynamic_array",
        "label": "address[]",
        "numberOfBytes": "32"
      },
      "t_array(t_bytes32)dyn_storage": {
        "base": "t_bytes32",
        "encoding": "dynamic_array",
        "label": "bytes32[]",
        "numberOfBytes": "32"
      },
      "t_array(t_contract(IRewardsDistributor)11125)dyn_storage": {
        "base": "t_contract(IRewardsDistributor)11125",
        "encoding": "dynamic_array",
        "label": "contract IRewardsDistributor[]",
        "numberOfBytes": "32"
      },
      "t_bool": {
        "encoding": "inplace",
        "label": "bool",
        "numberOfBytes": "1"
      },
      "t_bytes32": {
        "encoding": "inplace",
        "label": "bytes32",
        "numberOfBytes": "32"
      },
      "t_contract(IDepositToken)11011": {
        "encoding": "inplace",
        "label": "contract IDepositToken",
        "numberOfBytes": "20"
      },
      "t_contract(IERC20)7890": {
        "encoding": "inplace",
        "label": "contract IERC20",
        "numberOfBytes": "20"
      },
      "t_contract(IMasterOracle)11326": {
        "encoding": "inplace",
        "label": "contract IMasterOracle",
        "numberOfBytes": "20"
      },
      "t_contract(IRewardsDistributor)11125": {
        "encoding": "inplace",
        "label": "contract IRewardsDistributor",
        "numberOfBytes": "20"
      },
      "t_contract(ITreasury)11221": {
        "encoding": "inplace",
        "label": "contract ITreasury",
        "numberOfBytes": "20"
      },
      "t_mapping(t_address,t_struct(Set)11425_storage)": {
        "encoding": "mapping",
        "key": "t_address",
        "label": "mapping(address => struct MappedEnumerableSet.Set)",
        "numberOfBytes": "32",
        "value": "t_struct(Set)11425_storage"
      },
      "t_mapping(t_address,t_uint256)": {
        "encoding": "mapping",
        "key": "t_address",
        "label": "mapping(address => uint256)",
        "numberOfBytes": "32",
        "value": "t_uint256"
      },
      "t_mapping(t_bytes32,t_uint256)": {
        "encoding": "mapping",
        "key": "t_bytes32",
        "label": "mapping(bytes32 => uint256)",
        "numberOfBytes": "32",
        "value": "t_uint256"
      },
      "t_mapping(t_contract(IERC20)7890,t_contract(IDepositToken)11011)": {
        "encoding": "mapping",
        "key": "t_contract(IERC20)7890",
        "label": "mapping(contract IERC20 => contract IDepositToken)",
        "numberOfBytes": "32",
        "value": "t_contract(IDepositToken)11011"
      },
      "t_struct(AddressSet)11431_storage": {
        "encoding": "inplace",
        "label": "struct MappedEnumerableSet.AddressSet",
        "members": [
          {
            "astId": 11430,
            "contract": "contracts/Controller.sol:Controller",
            "label": "_ofAddress",
            "offset": 0,
            "slot": "0",
            "type": "t_mapping(t_address,t_struct(Set)11425_storage)"
          }
        ],
        "numberOfBytes": "32"
      },
      "t_struct(AddressSet)9311_storage": {
        "encoding": "inplace",
        "label": "struct EnumerableSet.AddressSet",
        "members": [
          {
            "astId": 9310,
            "contract": "contracts/Controller.sol:Controller",
            "label": "_inner",
            "offset": 0,
            "slot": "0",
            "type": "t_struct(Set)9010_storage"
          }
        ],
        "numberOfBytes": "64"
      },
      "t_struct(Set)11425_storage": {
        "encoding": "inplace",
        "label": "struct MappedEnumerableSet.Set",
        "members": [
          {
            "astId": 11420,
            "contract": "contracts/Controller.sol:Controller",
            "label": "_values",
            "offset": 0,
            "slot": "0",
            "type": "t_array(t_address)dyn_storage"
          },
          {
            "astId": 11424,
            "contract": "contracts/Controller.sol:Controller",
            "label": "_indexes",
            "offset": 0,
            "slot": "1",
            "type": "t_mapping(t_address,t_uint256)"
          }
        ],
        "numberOfBytes": "64"
      },
      "t_struct(Set)9010_storage": {
        "encoding": "inplace",
        "label": "struct EnumerableSet.Set",
        "members": [
          {
            "astId": 9005,
            "contract": "contracts/Controller.sol:Controller",
            "label": "_values",
            "offset": 0,
            "slot": "0",
            "type": "t_array(t_bytes32)dyn_storage"
          },
          {
            "astId": 9009,
            "contract": "contracts/Controller.sol:Controller",
            "label": "_indexes",
            "offset": 0,
            "slot": "1",
            "type": "t_mapping(t_bytes32,t_uint256)"
          }
        ],
        "numberOfBytes": "64"
      },
      "t_uint256": {
        "encoding": "inplace",
        "label": "uint256",
        "numberOfBytes": "32"
      }
    }
  }
}