{
  "address": "0x8f156189A3CD28dFc8FB7BbbAce58F98F09c0bB3",
  "abi": [
    {
      "anonymous": false,
      "inputs": [
        {
          "indexed": true,
          "internalType": "contract IERC20",
          "name": "asset",
          "type": "address"
        },
        {
          "indexed": false,
          "internalType": "enum DefaultOracle.Protocol",
          "name": "protocol",
          "type": "uint8"
        },
        {
          "indexed": false,
          "internalType": "bytes",
          "name": "assetData",
          "type": "bytes"
        },
        {
          "indexed": false,
          "internalType": "bool",
          "name": "isUsd",
          "type": "bool"
        },
        {
          "indexed": false,
          "internalType": "uint256",
          "name": "stalePeriod",
          "type": "uint256"
        }
      ],
      "name": "AssetUpdated",
      "type": "event"
    },
    {
      "anonymous": false,
      "inputs": [
        {
          "indexed": false,
          "internalType": "enum DefaultOracle.Protocol",
          "name": "protocol",
          "type": "uint8"
        },
        {
          "indexed": false,
          "internalType": "contract IPriceProvider",
          "name": "oldPriceProvider",
          "type": "address"
        },
        {
          "indexed": false,
          "internalType": "contract IPriceProvider",
          "name": "newPriceProvider",
          "type": "address"
        }
      ],
      "name": "PriceProviderUpdated",
      "type": "event"
    },
    {
      "anonymous": false,
      "inputs": [
        {
          "indexed": true,
          "internalType": "address",
          "name": "previousGovernor",
          "type": "address"
        },
        {
          "indexed": true,
          "internalType": "address",
          "name": "proposedGovernor",
          "type": "address"
        }
      ],
      "name": "UpdatedGovernor",
      "type": "event"
    },
    {
      "inputs": [],
      "name": "ONE_USD",
      "outputs": [
        {
          "internalType": "uint256",
          "name": "",
          "type": "uint256"
        }
      ],
      "stateMutability": "view",
      "type": "function"
    },
    {
      "inputs": [],
      "name": "acceptGovernorship",
      "outputs": [],
      "stateMutability": "nonpayable",
      "type": "function"
    },
    {
      "inputs": [
        {
          "internalType": "contract IERC20Metadata",
          "name": "_asset",
          "type": "address"
        },
        {
          "internalType": "address",
          "name": "_aggregator",
          "type": "address"
        },
        {
          "internalType": "uint256",
          "name": "_stalePeriod",
          "type": "uint256"
        }
      ],
      "name": "addOrUpdateAssetThatUsesChainlink",
      "outputs": [],
      "stateMutability": "nonpayable",
      "type": "function"
    },
    {
      "inputs": [
        {
          "internalType": "contract IERC20",
          "name": "_asset",
          "type": "address"
        },
        {
          "internalType": "contract IERC20",
          "name": "_underlying",
          "type": "address"
        },
        {
          "internalType": "uint256",
          "name": "_stalePeriod",
          "type": "uint256"
        }
      ],
      "name": "addOrUpdateAssetThatUsesUniswapV2",
      "outputs": [],
      "stateMutability": "nonpayable",
      "type": "function"
    },
    {
      "inputs": [
        {
          "internalType": "contract IERC20",
          "name": "_asset",
          "type": "address"
        },
        {
          "internalType": "contract IERC20",
          "name": "_underlying",
          "type": "address"
        }
      ],
      "name": "addOrUpdateAssetThatUsesUniswapV3",
      "outputs": [],
      "stateMutability": "nonpayable",
      "type": "function"
    },
    {
      "inputs": [
        {
          "internalType": "contract IERC20",
          "name": "_asset",
          "type": "address"
        }
      ],
      "name": "addOrUpdateUsdAsset",
      "outputs": [],
      "stateMutability": "nonpayable",
      "type": "function"
    },
    {
      "inputs": [
        {
          "internalType": "contract IERC20",
          "name": "",
          "type": "address"
        }
      ],
      "name": "assets",
      "outputs": [
        {
          "internalType": "enum DefaultOracle.Protocol",
          "name": "protocol",
          "type": "uint8"
        },
        {
          "internalType": "bytes",
          "name": "assetData",
          "type": "bytes"
        },
        {
          "internalType": "bool",
          "name": "isUsd",
          "type": "bool"
        },
        {
          "internalType": "uint256",
          "name": "stalePeriod",
          "type": "uint256"
        }
      ],
      "stateMutability": "view",
      "type": "function"
    },
    {
      "inputs": [
        {
          "internalType": "contract IERC20",
          "name": "_asset",
          "type": "address"
        }
      ],
      "name": "getPriceInUsd",
      "outputs": [
        {
          "internalType": "uint256",
          "name": "_priceInUsd",
          "type": "uint256"
        }
      ],
      "stateMutability": "view",
      "type": "function"
    },
    {
      "inputs": [],
      "name": "governor",
      "outputs": [
        {
          "internalType": "address",
          "name": "",
          "type": "address"
        }
      ],
      "stateMutability": "view",
      "type": "function"
    },
    {
      "inputs": [
        {
          "internalType": "enum DefaultOracle.Protocol",
          "name": "",
          "type": "uint8"
        }
      ],
      "name": "providerByProtocol",
      "outputs": [
        {
          "internalType": "contract IPriceProvider",
          "name": "",
          "type": "address"
        }
      ],
      "stateMutability": "view",
      "type": "function"
    },
    {
      "inputs": [
        {
          "internalType": "enum DefaultOracle.Protocol",
          "name": "_protocol",
          "type": "uint8"
        },
        {
          "internalType": "contract IPriceProvider",
          "name": "_priceProvider",
          "type": "address"
        }
      ],
      "name": "setPriceProvider",
      "outputs": [],
      "stateMutability": "nonpayable",
      "type": "function"
    },
    {
      "inputs": [
        {
          "internalType": "address",
          "name": "_proposedGovernor",
          "type": "address"
        }
      ],
      "name": "transferGovernorship",
      "outputs": [],
      "stateMutability": "nonpayable",
      "type": "function"
    },
    {
      "inputs": [
        {
          "internalType": "contract IERC20",
          "name": "_asset",
          "type": "address"
        }
      ],
      "name": "update",
      "outputs": [],
      "stateMutability": "nonpayable",
      "type": "function"
    }
  ],
  "transactionHash": "0x26e1a99e80a2bf5e377d78d54d26353aa1e99b0d8b542bd65257b03a97177fa6",
  "args": [],
  "numDeployments": 1,
  "solcInputHash": "0077a7bd8b2b7c639ec050e1f3a43041",
  "bytecode": "0x608060405234801561001057600080fd5b506000805462010000600160b01b03191633620100008102919091178255604051909182917fd4459d5b8b913cab0244230fd9b1c08b6ceace7fe9230e60d0f74cbffdf849d0908290a35061114d8061006a6000396000f3fe608060405234801561001057600080fd5b50600436106100bf5760003560e01c806370eb205e1161007c57806370eb205e1461015a5780637b60e2671461016d578063b6aa515b14610180578063bbcb75c614610193578063d6d88396146101a6578063f11b8188146101cf578063f3b27bc3146101f257600080fd5b806307ee40bf146100c45780630c340a24146100ea5780630fd01228146101105780631c1b8772146101255780635b919f3d1461013857806367781c0e1461014b575b600080fd5b6100d76100d2366004610df2565b6101fa565b6040519081526020015b60405180910390f35b600054610103906201000090046001600160a01b031681565b6040516100e19190610e16565b61012361011e366004610e3e565b6103b9565b005b610123610133366004610df2565b610560565b610123610146366004610e75565b610604565b6100d7670de0b6b3a764000081565b610123610168366004610df2565b61068e565b61012361017b366004610eb6565b6106df565b61012361018e366004610df2565b61076a565b6101236101a1366004610e75565b61080f565b6101036101b4366004610ed4565b6003602052600090815260409020546001600160a01b031681565b6101e26101dd366004610df2565b610959565b6040516100e19493929190610f74565b610123610a12565b6001600160a01b038116600090815260026020819052604082200154829060ff168061025157506001600160a01b03811660009081526002602052604081205460ff16600381111561024e5761024e610eef565b14155b6102a25760405162461bcd60e51b815260206004820152601b60248201527f61737365742d6861732d6e6f2d70726963652d70726f7669646572000000000060448201526064015b60405180910390fd5b6001600160a01b0383166000908152600260208190526040909120015460ff16156102d757670de0b6b3a764000091506103b3565b60006102e284610ae0565b6001600160a01b031663b82684436102f986610b42565b6040518263ffffffff1660e01b81526004016103159190610fa7565b604080518083038186803b15801561032c57600080fd5b505afa158015610340573d6000803e3d6000fd5b505050506040513d601f19601f820116820180604052508101906103649190610fba565b90935090506103738482610bf1565b156103b15760405162461bcd60e51b815260206004820152600e60248201526d70726963652d69732d7374616c6560901b6044820152606401610299565b505b50919050565b6000546001600160a01b03620100009091041633146103ea5760405162461bcd60e51b815260040161029990610fde565b6001600160a01b0381166104385760405162461bcd60e51b81526020600482015260156024820152741c1c9bdd9a59195c8b5859191c995cdccb5b9d5b1b605a1b6044820152606401610299565b60006003600084600381111561045057610450610eef565b600381111561046157610461610eef565b81526020810191909152604001600020546001600160a01b03908116915082168114156104c65760405162461bcd60e51b81526020600482015260136024820152721b995dcb5cd85b594b585ccb58dd5c9c995b9d606a1b6044820152606401610299565b81600360008560038111156104dd576104dd610eef565b60038111156104ee576104ee610eef565b815260200190815260200160002060006101000a8154816001600160a01b0302191690836001600160a01b031602179055507f6d8522a73cf263ee8c1097d5bd32695416c18e9df8cfc47b646f465297177f8e83828460405161055393929190611004565b60405180910390a1505050565b6001600160a01b03811660009081526002602052604081205460ff16600381111561058d5761058d610eef565b146106015761059b81610ae0565b6001600160a01b031663c43ed2c86105b283610b42565b6040518263ffffffff1660e01b81526004016105ce9190610fa7565b600060405180830381600087803b1580156105e857600080fd5b505af11580156105fc573d6000803e3d6000fd5b505050505b50565b6000546001600160a01b03620100009091041633146106355760405162461bcd60e51b815260040161029990610fde565b6001600160a01b03821661065b5760405162461bcd60e51b815260040161029990611034565b610689836002846040516020016106729190610e16565b604051602081830303815290604052600085610c1f565b505050565b6000546001600160a01b03620100009091041633146106bf5760405162461bcd60e51b815260040161029990610fde565b604080516000808252602082019092526106019183916001600019610c1f565b6000546001600160a01b03620100009091041633146107105760405162461bcd60e51b815260040161029990610fde565b6001600160a01b0381166107365760405162461bcd60e51b815260040161029990611034565b6107668260018360405160200161074d9190610e16565b6040516020818303038152906040526000600019610c1f565b5050565b6000546001600160a01b036201000090910416331461079b5760405162461bcd60e51b815260040161029990610fde565b6001600160a01b0381166107ed5760405162461bcd60e51b815260206004820152601960248201527870726f706f7365642d676f7665726e6f722d69732d7a65726f60381b6044820152606401610299565b600180546001600160a01b0319166001600160a01b0392909216919091179055565b6000546001600160a01b03620100009091041633146108405760405162461bcd60e51b815260040161029990610fde565b6001600160a01b0383166108665760405162461bcd60e51b81526004016102999061106b565b6001600160a01b0382166108bc5760405162461bcd60e51b815260206004820152601a60248201527f61676772656761746f722d616464726573732d69732d6e756c6c0000000000006044820152606401610299565b61068983600384866001600160a01b031663313ce5676040518163ffffffff1660e01b815260040160206040518083038186803b1580156108fc57600080fd5b505afa158015610910573d6000803e3d6000fd5b505050506040513d601f19601f82011682018060405250810190610934919061109a565b604080516001600160a01b03909316602084015260ff90911690820152606001610672565b6002602052600090815260409020805460018201805460ff909216929161097f906110bd565b80601f01602080910402602001604051908101604052809291908181526020018280546109ab906110bd565b80156109f85780601f106109cd576101008083540402835291602001916109f8565b820191906000526020600020905b8154815290600101906020018083116109db57829003601f168201915b505050506002830154600390930154919260ff1691905084565b6001546001600160a01b03163314610a685760405162461bcd60e51b81526020600482015260196024820152783737ba16ba343296b83937b837b9b2b216b3b7bb32b93737b960391b6044820152606401610299565b600154600080546040516001600160a01b039384169362010000909204909116917fd4459d5b8b913cab0244230fd9b1c08b6ceace7fe9230e60d0f74cbffdf849d091a3600180546000805462010000600160b01b0319166001600160a01b03831662010000021790556001600160a01b0319169055565b6001600160a01b038116600090815260026020526040812054600390829060ff1682811115610b1157610b11610eef565b6003811115610b2257610b22610eef565b81526020810191909152604001600020546001600160a01b031692915050565b6001600160a01b0381166000908152600260205260409020600101805460609190610b6c906110bd565b80601f0160208091040260200160405190810160405280929190818152602001828054610b98906110bd565b8015610be55780601f10610bba57610100808354040283529160200191610be5565b820191906000526020600020905b815481529060010190602001808311610bc857829003601f168201915b50505050509050919050565b6001600160a01b038216600090815260026020526040812060030154610c1783426110f2565b119392505050565b6001600160a01b038516610c455760405162461bcd60e51b81526004016102999061106b565b6040518060800160405280856003811115610c6257610c62610eef565b8152602080820186905284151560408084019190915260609092018490526001600160a01b038816600090815260029091522081518154829060ff19166001836003811115610cb357610cb3610eef565b02179055506020828101518051610cd09260018501920190610d44565b5060408281015160028301805460ff1916911515919091179055606090920151600390910155516001600160a01b038616907f69ae030a9c1ed4bbd36dad4672404e234c548ed7e64bbe08ef17e30c05f860a090610d35908790879087908790610f74565b60405180910390a25050505050565b828054610d50906110bd565b90600052602060002090601f016020900481019282610d725760008555610db8565b82601f10610d8b57805160ff1916838001178555610db8565b82800160010185558215610db8579182015b82811115610db8578251825591602001919060010190610d9d565b50610dc4929150610dc8565b5090565b5b80821115610dc45760008155600101610dc9565b6001600160a01b038116811461060157600080fd5b600060208284031215610e0457600080fd5b8135610e0f81610ddd565b9392505050565b6001600160a01b0391909116815260200190565b803560048110610e3957600080fd5b919050565b60008060408385031215610e5157600080fd5b610e5a83610e2a565b91506020830135610e6a81610ddd565b809150509250929050565b600080600060608486031215610e8a57600080fd5b8335610e9581610ddd565b92506020840135610ea581610ddd565b929592945050506040919091013590565b60008060408385031215610ec957600080fd5b8235610e5a81610ddd565b600060208284031215610ee657600080fd5b610e0f82610e2a565b634e487b7160e01b600052602160045260246000fd5b60048110610f2357634e487b7160e01b600052602160045260246000fd5b9052565b6000815180845260005b81811015610f4d57602081850181015186830182015201610f31565b81811115610f5f576000602083870101525b50601f01601f19169290920160200192915050565b610f7e8186610f05565b608060208201526000610f946080830186610f27565b9315156040830152506060015292915050565b602081526000610e0f6020830184610f27565b60008060408385031215610fcd57600080fd5b505080516020909101519092909150565b6020808252600c908201526b3737ba16b3b7bb32b93737b960a11b604082015260600190565b606081016110128286610f05565b6001600160a01b03938416602083015291909216604090920191909152919050565b6020808252601a908201527f756e6465726c79696e672d616464726573732d69732d6e756c6c000000000000604082015260600190565b602080825260159082015274185cdcd95d0b5859191c995cdccb5a5ccb5b9d5b1b605a1b604082015260600190565b6000602082840312156110ac57600080fd5b815160ff81168114610e0f57600080fd5b600181811c908216806110d157607f821691505b602082108114156103b357634e487b7160e01b600052602260045260246000fd5b60008282101561111257634e487b7160e01b600052601160045260246000fd5b50039056fea2646970667358221220198be9bad3f85f77aa7e0cc16140fd554ff8cb9b414fe6db88e218d53305b47364736f6c63430008090033",
  "devdoc": {
    "kind": "dev",
    "methods": {
      "acceptGovernorship()": {
        "details": "Allows new governor to accept governorship of the contract."
      },
      "addOrUpdateAssetThatUsesChainlink(address,address,uint256)": {
        "params": {
          "_aggregator": "The asset's chainlink aggregator contract",
          "_asset": "The asset to store",
          "_stalePeriod": "The stale period"
        }
      },
      "addOrUpdateAssetThatUsesUniswapV2(address,address,uint256)": {
        "params": {
          "_asset": "The asset to store",
          "_stalePeriod": "The stale period",
          "_underlying": "The actual asset to get prices from (e.g. vsETH uses WETH)"
        }
      },
      "addOrUpdateAssetThatUsesUniswapV3(address,address)": {
        "details": "This function is also used for update a asset setup",
        "params": {
          "_asset": "The asset to store",
          "_underlying": "The actual asset to get prices from (e.g. vsETH uses WETH)"
        }
      },
      "addOrUpdateUsdAsset(address)": {
        "params": {
          "_asset": "The asset to store"
        }
      },
      "getPriceInUsd(address)": {
        "params": {
          "_asset": "The asset's to get price from"
        },
        "returns": {
          "_priceInUsd": "The amount in USD (18 decimals)"
        }
      },
      "setPriceProvider(uint8,address)": {
        "details": "This function is also used for update a price provider",
        "params": {
          "_priceProvider": "The price provider protocol",
          "_protocol": "The protocol"
        }
      },
      "transferGovernorship(address)": {
        "details": "Transfers governorship of the contract to a new account (`proposedGovernor`). Can only be called by the current owner."
      },
      "update(address)": {
        "params": {
          "_asset": "The asset to update"
        }
      }
    },
    "title": "Oracle contract that encapsulates 3rd-party protocols' oracles",
    "version": 1
  },
  "userdoc": {
    "events": {
      "AssetUpdated(address,uint8,bytes,bool,uint256)": {
        "notice": "Emitted when asset setup is updated"
      },
      "PriceProviderUpdated(uint8,address,address)": {
        "notice": "Emitted when a price provider is updated"
      }
    },
    "kind": "user",
    "methods": {
      "addOrUpdateAssetThatUsesChainlink(address,address,uint256)": {
        "notice": "Store an asset that uses Chainlink source of price"
      },
      "addOrUpdateAssetThatUsesUniswapV2(address,address,uint256)": {
        "notice": "Store an asset that uses UniswapV2 source of price"
      },
      "addOrUpdateAssetThatUsesUniswapV3(address,address)": {
        "notice": "Store an asset that uses UniswapV3 source of price"
      },
      "addOrUpdateUsdAsset(address)": {
        "notice": "Store an USD asset (no protocol)"
      },
      "assets(address)": {
        "notice": "Avaliable assets"
      },
      "getPriceInUsd(address)": {
        "notice": "Get asset's USD price"
      },
      "providerByProtocol(uint8)": {
        "notice": "Get the price provider contract for each protocol"
      },
      "setPriceProvider(uint8,address)": {
        "notice": "Set the price provider of a protocol"
      },
      "update(address)": {
        "notice": "Update a asset's price"
      }
    },
    "version": 1
  },
  "storageLayout": {
    "storage": [
      {
        "astId": 7181,
        "contract": "contracts/oracle/DefaultOracle.sol:DefaultOracle",
        "label": "_initialized",
        "offset": 0,
        "slot": "0",
        "type": "t_bool"
      },
      {
        "astId": 7184,
        "contract": "contracts/oracle/DefaultOracle.sol:DefaultOracle",
        "label": "_initializing",
        "offset": 1,
        "slot": "0",
        "type": "t_bool"
      },
      {
        "astId": 6017,
        "contract": "contracts/oracle/DefaultOracle.sol:DefaultOracle",
        "label": "governor",
        "offset": 2,
        "slot": "0",
        "type": "t_address"
      },
      {
        "astId": 6019,
        "contract": "contracts/oracle/DefaultOracle.sol:DefaultOracle",
        "label": "proposedGovernor",
        "offset": 0,
        "slot": "1",
        "type": "t_address"
      },
      {
        "astId": 13041,
        "contract": "contracts/oracle/DefaultOracle.sol:DefaultOracle",
        "label": "assets",
        "offset": 0,
        "slot": "2",
        "type": "t_mapping(t_contract(IERC20)7890,t_struct(Asset)13034_storage)"
      },
      {
        "astId": 13048,
        "contract": "contracts/oracle/DefaultOracle.sol:DefaultOracle",
        "label": "providerByProtocol",
        "offset": 0,
        "slot": "3",
        "type": "t_mapping(t_enum(Protocol)13024,t_contract(IPriceProvider)11356)"
      }
    ],
    "types": {
      "t_address": {
        "encoding": "inplace",
        "label": "address",
        "numberOfBytes": "20"
      },
      "t_bool": {
        "encoding": "inplace",
        "label": "bool",
        "numberOfBytes": "1"
      },
      "t_bytes_storage": {
        "encoding": "bytes",
        "label": "bytes",
        "numberOfBytes": "32"
      },
      "t_contract(IERC20)7890": {
        "encoding": "inplace",
        "label": "contract IERC20",
        "numberOfBytes": "20"
      },
      "t_contract(IPriceProvider)11356": {
        "encoding": "inplace",
        "label": "contract IPriceProvider",
        "numberOfBytes": "20"
      },
      "t_enum(Protocol)13024": {
        "encoding": "inplace",
        "label": "enum DefaultOracle.Protocol",
        "numberOfBytes": "1"
      },
      "t_mapping(t_contract(IERC20)7890,t_struct(Asset)13034_storage)": {
        "encoding": "mapping",
        "key": "t_contract(IERC20)7890",
        "label": "mapping(contract IERC20 => struct DefaultOracle.Asset)",
        "numberOfBytes": "32",
        "value": "t_struct(Asset)13034_storage"
      },
      "t_mapping(t_enum(Protocol)13024,t_contract(IPriceProvider)11356)": {
        "encoding": "mapping",
        "key": "t_enum(Protocol)13024",
        "label": "mapping(enum DefaultOracle.Protocol => contract IPriceProvider)",
        "numberOfBytes": "32",
        "value": "t_contract(IPriceProvider)11356"
      },
      "t_struct(Asset)13034_storage": {
        "encoding": "inplace",
        "label": "struct DefaultOracle.Asset",
        "members": [
          {
            "astId": 13027,
            "contract": "contracts/oracle/DefaultOracle.sol:DefaultOracle",
            "label": "protocol",
            "offset": 0,
            "slot": "0",
            "type": "t_enum(Protocol)13024"
          },
          {
            "astId": 13029,
            "contract": "contracts/oracle/DefaultOracle.sol:DefaultOracle",
            "label": "assetData",
            "offset": 0,
            "slot": "1",
            "type": "t_bytes_storage"
          },
          {
            "astId": 13031,
            "contract": "contracts/oracle/DefaultOracle.sol:DefaultOracle",
            "label": "isUsd",
            "offset": 0,
            "slot": "2",
            "type": "t_bool"
          },
          {
            "astId": 13033,
            "contract": "contracts/oracle/DefaultOracle.sol:DefaultOracle",
            "label": "stalePeriod",
            "offset": 0,
            "slot": "3",
            "type": "t_uint256"
          }
        ],
        "numberOfBytes": "128"
      },
      "t_uint256": {
        "encoding": "inplace",
        "label": "uint256",
        "numberOfBytes": "32"
      }
    }
  }
}