{
  "address": "0x21ce811b3EE51344BF9C2D3595dae56960F9b4A3",
  "abi": [
    {
      "anonymous": false,
      "inputs": [
        {
          "indexed": true,
          "internalType": "contract IERC20",
          "name": "asset",
          "type": "address"
        },
        {
          "indexed": false,
          "internalType": "enum DefaultOracle.Protocol",
          "name": "protocol",
          "type": "uint8"
        },
        {
          "indexed": false,
          "internalType": "address",
          "name": "assetData",
          "type": "address"
        },
        {
          "indexed": false,
          "internalType": "bool",
          "name": "isUsd",
          "type": "bool"
        },
        {
          "indexed": false,
          "internalType": "uint256",
          "name": "stalePeriod",
          "type": "uint256"
        }
      ],
      "name": "AssetUpdated",
      "type": "event"
    },
    {
      "anonymous": false,
      "inputs": [
        {
          "indexed": false,
          "internalType": "enum DefaultOracle.Protocol",
          "name": "protocol",
          "type": "uint8"
        },
        {
          "indexed": false,
          "internalType": "contract IPriceProvider",
          "name": "oldPriceProvider",
          "type": "address"
        },
        {
          "indexed": false,
          "internalType": "contract IPriceProvider",
          "name": "newPriceProvider",
          "type": "address"
        }
      ],
      "name": "PriceProviderUpdated",
      "type": "event"
    },
    {
      "anonymous": false,
      "inputs": [
        {
          "indexed": true,
          "internalType": "address",
          "name": "previousGovernor",
          "type": "address"
        },
        {
          "indexed": true,
          "internalType": "address",
          "name": "proposedGovernor",
          "type": "address"
        }
      ],
      "name": "UpdatedGovernor",
      "type": "event"
    },
    {
      "stateMutability": "payable",
      "type": "fallback"
    },
    {
      "inputs": [],
      "name": "ONE_USD",
      "outputs": [
        {
          "internalType": "uint256",
          "name": "",
          "type": "uint256"
        }
      ],
      "stateMutability": "view",
      "type": "function"
    },
    {
      "inputs": [],
      "name": "acceptGovernorship",
      "outputs": [],
      "stateMutability": "nonpayable",
      "type": "function"
    },
    {
      "inputs": [
        {
          "internalType": "contract IERC20Metadata",
          "name": "_asset",
          "type": "address"
        },
        {
          "internalType": "address",
          "name": "_aggregator",
          "type": "address"
        },
        {
          "internalType": "uint256",
          "name": "_stalePeriod",
          "type": "uint256"
        }
      ],
      "name": "addOrUpdateAssetThatUsesChainlink",
      "outputs": [],
      "stateMutability": "nonpayable",
      "type": "function"
    },
    {
      "inputs": [
        {
          "internalType": "contract IERC20",
          "name": "_asset",
          "type": "address"
        },
        {
          "internalType": "address",
          "name": "_underlying",
          "type": "address"
        },
        {
          "internalType": "uint256",
          "name": "_stalePeriod",
          "type": "uint256"
        }
      ],
      "name": "addOrUpdateAssetThatUsesUniswapV2",
      "outputs": [],
      "stateMutability": "nonpayable",
      "type": "function"
    },
    {
      "inputs": [
        {
          "internalType": "contract IERC20",
          "name": "_asset",
          "type": "address"
        },
        {
          "internalType": "address",
          "name": "_underlying",
          "type": "address"
        }
      ],
      "name": "addOrUpdateAssetThatUsesUniswapV3",
      "outputs": [],
      "stateMutability": "nonpayable",
      "type": "function"
    },
    {
      "inputs": [
        {
          "internalType": "contract IERC20",
          "name": "_asset",
          "type": "address"
        }
      ],
      "name": "addOrUpdateUsdAsset",
      "outputs": [],
      "stateMutability": "nonpayable",
      "type": "function"
    },
    {
      "inputs": [
        {
          "internalType": "contract IERC20",
          "name": "",
          "type": "address"
        }
      ],
      "name": "assets",
      "outputs": [
        {
          "internalType": "enum DefaultOracle.Protocol",
          "name": "protocol",
          "type": "uint8"
        },
        {
          "internalType": "address",
          "name": "assetData",
          "type": "address"
        },
        {
          "internalType": "bool",
          "name": "isUsd",
          "type": "bool"
        },
        {
          "internalType": "uint256",
          "name": "stalePeriod",
          "type": "uint256"
        }
      ],
      "stateMutability": "view",
      "type": "function"
    },
    {
      "inputs": [
        {
          "internalType": "contract IERC20",
          "name": "_asset",
          "type": "address"
        }
      ],
      "name": "getPriceInUsd",
      "outputs": [
        {
          "internalType": "uint256",
          "name": "_priceInUsd",
          "type": "uint256"
        }
      ],
      "stateMutability": "view",
      "type": "function"
    },
    {
      "inputs": [],
      "name": "governor",
      "outputs": [
        {
          "internalType": "address",
          "name": "",
          "type": "address"
        }
      ],
      "stateMutability": "view",
      "type": "function"
    },
    {
      "inputs": [],
      "name": "proposedGovernor",
      "outputs": [
        {
          "internalType": "address",
          "name": "",
          "type": "address"
        }
      ],
      "stateMutability": "view",
      "type": "function"
    },
    {
      "inputs": [
        {
          "internalType": "enum DefaultOracle.Protocol",
          "name": "",
          "type": "uint8"
        }
      ],
      "name": "providerByProtocol",
      "outputs": [
        {
          "internalType": "contract IPriceProvider",
          "name": "",
          "type": "address"
        }
      ],
      "stateMutability": "view",
      "type": "function"
    },
    {
      "inputs": [
        {
          "internalType": "enum DefaultOracle.Protocol",
          "name": "_protocol",
          "type": "uint8"
        },
        {
          "internalType": "contract IPriceProvider",
          "name": "_priceProvider",
          "type": "address"
        }
      ],
      "name": "setPriceProvider",
      "outputs": [],
      "stateMutability": "nonpayable",
      "type": "function"
    },
    {
      "inputs": [
        {
          "internalType": "contract IERC20",
          "name": "_token",
          "type": "address"
        },
        {
          "internalType": "address",
          "name": "_to",
          "type": "address"
        },
        {
          "internalType": "uint256",
          "name": "_amount",
          "type": "uint256"
        }
      ],
      "name": "sweep",
      "outputs": [],
      "stateMutability": "nonpayable",
      "type": "function"
    },
    {
      "inputs": [
        {
          "internalType": "address",
          "name": "_proposedGovernor",
          "type": "address"
        }
      ],
      "name": "transferGovernorship",
      "outputs": [],
      "stateMutability": "nonpayable",
      "type": "function"
    },
    {
      "inputs": [
        {
          "internalType": "contract IERC20",
          "name": "_asset",
          "type": "address"
        }
      ],
      "name": "update",
      "outputs": [],
      "stateMutability": "nonpayable",
      "type": "function"
    },
    {
      "stateMutability": "payable",
      "type": "receive"
    }
  ],
  "transactionHash": "0x86183a81d66eacca2c3c83543e025676b31ce0d55d30477de1ef434233a526fa",
  "args": [],
  "numDeployments": 1,
  "solcInputHash": "d8b118bc2b869f1cad3e67e355255d78",
  "bytecode": "0x608060405234801561001057600080fd5b506000805462010000600160b01b03191633620100008102919091178255604051909182917fd4459d5b8b913cab0244230fd9b1c08b6ceace7fe9230e60d0f74cbffdf849d0908290a35061142c8061006a6000396000f3fe6080604052600436106100cc5760003560e01c806370eb205e1161007a57806370eb205e146102575780637b60e267146102775780638a11a37014610297578063b6aa515b146102b7578063bbcb75c6146102d7578063d6d88396146102f7578063f11b81881461032d578063f3b27bc31461039257610114565b806307ee40bf146101535780630c340a24146101865780630fd01228146101b95780631c1b8772146101db5780635b919f3d146101fb57806362c067671461021b57806367781c0e1461023b57610114565b366101145760405162461bcd60e51b81526020600482015260136024820152721c9958d95a5d994b5b9bdd0b585b1b1bddd959606a1b60448201526064015b60405180910390fd5b60405162461bcd60e51b815260206004820152601460248201527319985b1b189858dacb5b9bdd0b585b1b1bddd95960621b604482015260640161010b565b34801561015f57600080fd5b5061017361016e3660046110f0565b6103a7565b6040519081526020015b60405180910390f35b34801561019257600080fd5b506000546101ac906201000090046001600160a01b031681565b60405161017d919061110d565b3480156101c557600080fd5b506101d96101d4366004611135565b610585565b005b3480156101e757600080fd5b506101d96101f63660046110f0565b61072c565b34801561020757600080fd5b506101d961021636600461116c565b6107d0565b34801561022757600080fd5b506101d961023636600461116c565b61083b565b34801561024757600080fd5b50610173670de0b6b3a764000081565b34801561026357600080fd5b506101d96102723660046110f0565b61086f565b34801561028357600080fd5b506101d96102923660046111ad565b6108b1565b3480156102a357600080fd5b506001546101ac906001600160a01b031681565b3480156102c357600080fd5b506101d96102d23660046110f0565b61091d565b3480156102e357600080fd5b506101d96102f236600461116c565b6109c2565b34801561030357600080fd5b506101ac6103123660046111cb565b6003602052600090815260409020546001600160a01b031681565b34801561033957600080fd5b506103826103483660046110f0565b6002602052600090815260409020805460019091015460ff808316926001600160a01b0361010082041692600160a81b9091049091169084565b60405161017d949392919061121e565b34801561039e57600080fd5b506101d9610a7e565b6001600160a01b0381166000908152600260205260408120548290600160a81b900460ff168061040257506001600160a01b03811660009081526002602052604081205460ff1660038111156103ff576103ff6111e6565b14155b61044e5760405162461bcd60e51b815260206004820152601b60248201527f61737365742d6861732d6e6f2d70726963652d70726f76696465720000000000604482015260640161010b565b6001600160a01b038316600090815260026020526040902054600160a81b900460ff161561048657670de0b6b3a7640000915061057f565b600061049184610b4c565b6001600160a01b03166307ee40bf6104a886610bae565b6040518263ffffffff1660e01b81526004016104c4919061110d565b604080518083038186803b1580156104db57600080fd5b505afa1580156104ef573d6000803e3d6000fd5b505050506040513d601f19601f820116820180604052508101906105139190611250565b6001600160a01b038616600090815260026020526040902060010154919450915061053e8242611274565b111561057d5760405162461bcd60e51b815260206004820152600e60248201526d70726963652d69732d7374616c6560901b604482015260640161010b565b505b50919050565b6000546001600160a01b03620100009091041633146105b65760405162461bcd60e51b815260040161010b90611299565b6001600160a01b0381166106045760405162461bcd60e51b81526020600482015260156024820152741c1c9bdd9a59195c8b5859191c995cdccb5b9d5b1b605a1b604482015260640161010b565b60006003600084600381111561061c5761061c6111e6565b600381111561062d5761062d6111e6565b81526020810191909152604001600020546001600160a01b03908116915082168114156106925760405162461bcd60e51b81526020600482015260136024820152721b995dcb5cd85b594b585ccb58dd5c9c995b9d606a1b604482015260640161010b565b81600360008560038111156106a9576106a96111e6565b60038111156106ba576106ba6111e6565b815260200190815260200160002060006101000a8154816001600160a01b0302191690836001600160a01b031602179055507f6d8522a73cf263ee8c1097d5bd32695416c18e9df8cfc47b646f465297177f8e83828460405161071f939291906112bf565b60405180910390a1505050565b6001600160a01b03811660009081526002602052604081205460ff166003811115610759576107596111e6565b146107cd5761076781610b4c565b6001600160a01b0316631c1b877261077e83610bae565b6040518263ffffffff1660e01b815260040161079a919061110d565b600060405180830381600087803b1580156107b457600080fd5b505af11580156107c8573d6000803e3d6000fd5b505050505b50565b6000546001600160a01b03620100009091041633146108015760405162461bcd60e51b815260040161010b90611299565b6001600160a01b0382166108275760405162461bcd60e51b815260040161010b906112ef565b61083683600284600085610bd1565b505050565b610843610d08565b6001600160a01b03831661085b576108368282610d3b565b6108366001600160a01b0384168383610e54565b6000546001600160a01b03620100009091041633146108a05760405162461bcd60e51b815260040161010b90611299565b6107cd816000806001600019610bd1565b6000546001600160a01b03620100009091041633146108e25760405162461bcd60e51b815260040161010b90611299565b6001600160a01b0381166109085760405162461bcd60e51b815260040161010b906112ef565b610919826001836000600019610bd1565b5050565b6000546001600160a01b036201000090910416331461094e5760405162461bcd60e51b815260040161010b90611299565b6001600160a01b0381166109a05760405162461bcd60e51b815260206004820152601960248201527870726f706f7365642d676f7665726e6f722d69732d7a65726f60381b604482015260640161010b565b600180546001600160a01b0319166001600160a01b0392909216919091179055565b6000546001600160a01b03620100009091041633146109f35760405162461bcd60e51b815260040161010b90611299565b6001600160a01b038316610a195760405162461bcd60e51b815260040161010b90611326565b6001600160a01b038216610a6f5760405162461bcd60e51b815260206004820152601a60248201527f61676772656761746f722d616464726573732d69732d6e756c6c000000000000604482015260640161010b565b61083683600384600085610bd1565b6001546001600160a01b03163314610ad45760405162461bcd60e51b81526020600482015260196024820152783737ba16ba343296b83937b837b9b2b216b3b7bb32b93737b960391b604482015260640161010b565b600154600080546040516001600160a01b039384169362010000909204909116917fd4459d5b8b913cab0244230fd9b1c08b6ceace7fe9230e60d0f74cbffdf849d091a3600180546000805462010000600160b01b0319166001600160a01b03831662010000021790556001600160a01b0319169055565b6001600160a01b038116600090815260026020526040812054600390829060ff1682811115610b7d57610b7d6111e6565b6003811115610b8e57610b8e6111e6565b81526020810191909152604001600020546001600160a01b031692915050565b6001600160a01b0390811660009081526002602052604090205461010090041690565b6001600160a01b038516610bf75760405162461bcd60e51b815260040161010b90611326565b6040518060800160405280856003811115610c1457610c146111e6565b81526001600160a01b038086166020808401919091528515156040808501919091526060909301859052908816600090815260029091522081518154829060ff19166001836003811115610c6a57610c6a6111e6565b0217905550602082015181546040808501511515600160a81b0260ff60a81b196001600160a01b039485166101000216610100600160b01b0319909316929092179190911783556060909301516001909201919091559051908616907ff9aa333742c0c91af5d98e1790bba4916cda81688540271f108f6743e64040f890610cf990879087908790879061121e565b60405180910390a25050505050565b6000546001600160a01b0362010000909104163314610d395760405162461bcd60e51b815260040161010b90611299565b565b80471015610d8b5760405162461bcd60e51b815260206004820152601d60248201527f416464726573733a20696e73756666696369656e742062616c616e6365000000604482015260640161010b565b6000826001600160a01b03168260405160006040518083038185875af1925050503d8060008114610dd8576040519150601f19603f3d011682016040523d82523d6000602084013e610ddd565b606091505b50509050806108365760405162461bcd60e51b815260206004820152603a60248201527f416464726573733a20756e61626c6520746f2073656e642076616c75652c207260448201527f6563697069656e74206d61792068617665207265766572746564000000000000606482015260840161010b565b604080516001600160a01b03848116602483015260448083018590528351808403909101815260649092018352602080830180516001600160e01b031663a9059cbb60e01b17905283518085019094528084527f5361666545524332303a206c6f772d6c6576656c2063616c6c206661696c65649084015261083692869291600091610ee4918516908490610f61565b8051909150156108365780806020019051810190610f029190611355565b6108365760405162461bcd60e51b815260206004820152602a60248201527f5361666545524332303a204552433230206f7065726174696f6e20646964206e6044820152691bdd081cdd58d8d9595960b21b606482015260840161010b565b6060610f708484600085610f7a565b90505b9392505050565b606082471015610fdb5760405162461bcd60e51b815260206004820152602660248201527f416464726573733a20696e73756666696369656e742062616c616e636520666f6044820152651c8818d85b1b60d21b606482015260840161010b565b843b6110295760405162461bcd60e51b815260206004820152601d60248201527f416464726573733a2063616c6c20746f206e6f6e2d636f6e7472616374000000604482015260640161010b565b600080866001600160a01b0316858760405161104591906113a7565b60006040518083038185875af1925050503d8060008114611082576040519150601f19603f3d011682016040523d82523d6000602084013e611087565b606091505b50915091506110978282866110a2565b979650505050505050565b606083156110b1575081610f73565b8251156110c15782518084602001fd5b8160405162461bcd60e51b815260040161010b91906113c3565b6001600160a01b03811681146107cd57600080fd5b60006020828403121561110257600080fd5b8135610f73816110db565b6001600160a01b0391909116815260200190565b80356004811061113057600080fd5b919050565b6000806040838503121561114857600080fd5b61115183611121565b91506020830135611161816110db565b809150509250929050565b60008060006060848603121561118157600080fd5b833561118c816110db565b9250602084013561119c816110db565b929592945050506040919091013590565b600080604083850312156111c057600080fd5b8235611151816110db565b6000602082840312156111dd57600080fd5b610f7382611121565b634e487b7160e01b600052602160045260246000fd5b6004811061121a57634e487b7160e01b600052602160045260246000fd5b9052565b6080810161122c82876111fc565b6001600160a01b039490941660208201529115156040830152606090910152919050565b6000806040838503121561126357600080fd5b505080516020909101519092909150565b60008282101561129457634e487b7160e01b600052601160045260246000fd5b500390565b6020808252600c908201526b3737ba16b3b7bb32b93737b960a11b604082015260600190565b606081016112cd82866111fc565b6001600160a01b03938416602083015291909216604090920191909152919050565b6020808252601a908201527f756e6465726c79696e672d616464726573732d69732d6e756c6c000000000000604082015260600190565b602080825260159082015274185cdcd95d0b5859191c995cdccb5a5ccb5b9d5b1b605a1b604082015260600190565b60006020828403121561136757600080fd5b81518015158114610f7357600080fd5b60005b8381101561139257818101518382015260200161137a565b838111156113a1576000848401525b50505050565b600082516113b9818460208701611377565b9190910192915050565b60208152600082518060208401526113e2816040850160208701611377565b601f01601f1916919091016040019291505056fea26469706673582212201da00bbe39ab84415d842e5fc2612c473ae8af689932220518b7e6ed9805e9b864736f6c63430008090033",
  "devdoc": {
    "kind": "dev",
    "methods": {
      "acceptGovernorship()": {
        "details": "Allows new governor to accept governorship of the contract."
      },
      "addOrUpdateAssetThatUsesChainlink(address,address,uint256)": {
        "params": {
          "_aggregator": "The asset's chainlink aggregator contract",
          "_asset": "The asset to store",
          "_stalePeriod": "The stale period"
        }
      },
      "addOrUpdateAssetThatUsesUniswapV2(address,address,uint256)": {
        "params": {
          "_asset": "The asset to store",
          "_stalePeriod": "The stale period",
          "_underlying": "The actual asset to get prices from (e.g. vsETH uses WETH)"
        }
      },
      "addOrUpdateAssetThatUsesUniswapV3(address,address)": {
        "details": "This function is also used for update a asset setup",
        "params": {
          "_asset": "The asset to store",
          "_underlying": "The actual asset to get prices from (e.g. vsETH uses WETH)"
        }
      },
      "addOrUpdateUsdAsset(address)": {
        "params": {
          "_asset": "The asset to store"
        }
      },
      "getPriceInUsd(address)": {
        "params": {
          "_asset": "The asset's to get price from"
        },
        "returns": {
          "_priceInUsd": "The amount in USD (18 decimals)"
        }
      },
      "setPriceProvider(uint8,address)": {
        "details": "This function is also used for update a price provider",
        "params": {
          "_priceProvider": "The price provider protocol",
          "_protocol": "The protocol"
        }
      },
      "sweep(address,address,uint256)": {
        "params": {
          "_amount": "The amount to send",
          "_to": "The recipient of the transfer",
          "_token": "The token to transfer"
        }
      },
      "transferGovernorship(address)": {
        "details": "Transfers governorship of the contract to a new account (`proposedGovernor`). Can only be called by the current owner."
      },
      "update(address)": {
        "params": {
          "_asset": "The asset to update"
        }
      }
    },
    "title": "Oracle contract that encapsulates 3rd-party protocols' oracles",
    "version": 1
  },
  "userdoc": {
    "events": {
      "AssetUpdated(address,uint8,address,bool,uint256)": {
        "notice": "Emitted when asset setup is updated"
      },
      "PriceProviderUpdated(uint8,address,address)": {
        "notice": "Emitted when a price provider is updated"
      }
    },
    "kind": "user",
    "methods": {
      "addOrUpdateAssetThatUsesChainlink(address,address,uint256)": {
        "notice": "Store an asset that uses Chainlink source of price"
      },
      "addOrUpdateAssetThatUsesUniswapV2(address,address,uint256)": {
        "notice": "Store an asset that uses UniswapV2 source of price"
      },
      "addOrUpdateAssetThatUsesUniswapV3(address,address)": {
        "notice": "Store an asset that uses UniswapV3 source of price"
      },
      "addOrUpdateUsdAsset(address)": {
        "notice": "Store an USD asset (no protocol)"
      },
      "assets(address)": {
        "notice": "Available assets"
      },
      "getPriceInUsd(address)": {
        "notice": "Get asset's USD price"
      },
      "providerByProtocol(uint8)": {
        "notice": "Get the price provider contract for each protocol"
      },
      "setPriceProvider(uint8,address)": {
        "notice": "Set the price provider of a protocol"
      },
      "sweep(address,address,uint256)": {
        "notice": "ERC20 recovery in case of stuck tokens due direct transfers to the contract address."
      },
      "update(address)": {
        "notice": "Update a asset's price"
      }
    },
    "version": 1
  },
  "storageLayout": {
    "storage": [
      {
        "astId": 7131,
        "contract": "contracts/oracle/DefaultOracle.sol:DefaultOracle",
        "label": "_initialized",
        "offset": 0,
        "slot": "0",
        "type": "t_bool"
      },
      {
        "astId": 7134,
        "contract": "contracts/oracle/DefaultOracle.sol:DefaultOracle",
        "label": "_initializing",
        "offset": 1,
        "slot": "0",
        "type": "t_bool"
      },
      {
        "astId": 5950,
        "contract": "contracts/oracle/DefaultOracle.sol:DefaultOracle",
        "label": "governor",
        "offset": 2,
        "slot": "0",
        "type": "t_address"
      },
      {
        "astId": 5952,
        "contract": "contracts/oracle/DefaultOracle.sol:DefaultOracle",
        "label": "proposedGovernor",
        "offset": 0,
        "slot": "1",
        "type": "t_address"
      },
      {
        "astId": 12897,
        "contract": "contracts/oracle/DefaultOracle.sol:DefaultOracle",
        "label": "assets",
        "offset": 0,
        "slot": "2",
        "type": "t_mapping(t_contract(IERC20)7840,t_struct(Asset)12890_storage)"
      },
      {
        "astId": 12904,
        "contract": "contracts/oracle/DefaultOracle.sol:DefaultOracle",
        "label": "providerByProtocol",
        "offset": 0,
        "slot": "3",
        "type": "t_mapping(t_enum(Protocol)12880,t_contract(IPriceProvider)11273)"
      }
    ],
    "types": {
      "t_address": {
        "encoding": "inplace",
        "label": "address",
        "numberOfBytes": "20"
      },
      "t_bool": {
        "encoding": "inplace",
        "label": "bool",
        "numberOfBytes": "1"
      },
      "t_contract(IERC20)7840": {
        "encoding": "inplace",
        "label": "contract IERC20",
        "numberOfBytes": "20"
      },
      "t_contract(IPriceProvider)11273": {
        "encoding": "inplace",
        "label": "contract IPriceProvider",
        "numberOfBytes": "20"
      },
      "t_enum(Protocol)12880": {
        "encoding": "inplace",
        "label": "enum DefaultOracle.Protocol",
        "numberOfBytes": "1"
      },
      "t_mapping(t_contract(IERC20)7840,t_struct(Asset)12890_storage)": {
        "encoding": "mapping",
        "key": "t_contract(IERC20)7840",
        "label": "mapping(contract IERC20 => struct DefaultOracle.Asset)",
        "numberOfBytes": "32",
        "value": "t_struct(Asset)12890_storage"
      },
      "t_mapping(t_enum(Protocol)12880,t_contract(IPriceProvider)11273)": {
        "encoding": "mapping",
        "key": "t_enum(Protocol)12880",
        "label": "mapping(enum DefaultOracle.Protocol => contract IPriceProvider)",
        "numberOfBytes": "32",
        "value": "t_contract(IPriceProvider)11273"
      },
      "t_struct(Asset)12890_storage": {
        "encoding": "inplace",
        "label": "struct DefaultOracle.Asset",
        "members": [
          {
            "astId": 12883,
            "contract": "contracts/oracle/DefaultOracle.sol:DefaultOracle",
            "label": "protocol",
            "offset": 0,
            "slot": "0",
            "type": "t_enum(Protocol)12880"
          },
          {
            "astId": 12885,
            "contract": "contracts/oracle/DefaultOracle.sol:DefaultOracle",
            "label": "assetData",
            "offset": 1,
            "slot": "0",
            "type": "t_address"
          },
          {
            "astId": 12887,
            "contract": "contracts/oracle/DefaultOracle.sol:DefaultOracle",
            "label": "isUsd",
            "offset": 21,
            "slot": "0",
            "type": "t_bool"
          },
          {
            "astId": 12889,
            "contract": "contracts/oracle/DefaultOracle.sol:DefaultOracle",
            "label": "stalePeriod",
            "offset": 0,
            "slot": "1",
            "type": "t_uint256"
          }
        ],
        "numberOfBytes": "64"
      },
      "t_uint256": {
        "encoding": "inplace",
        "label": "uint256",
        "numberOfBytes": "32"
      }
    }
  }
}