{
  "address": "0x7Efc392f66AF226903f8952DcE674f15C24b560A",
  "abi": [
    {
      "anonymous": false,
      "inputs": [
        {
          "indexed": true,
          "internalType": "address",
          "name": "owner",
          "type": "address"
        },
        {
          "indexed": true,
          "internalType": "address",
          "name": "spender",
          "type": "address"
        },
        {
          "indexed": false,
          "internalType": "uint256",
          "name": "value",
          "type": "uint256"
        }
      ],
      "name": "Approval",
      "type": "event"
    },
    {
      "anonymous": false,
      "inputs": [
        {
          "indexed": true,
          "internalType": "address",
          "name": "from",
          "type": "address"
        },
        {
          "indexed": true,
          "internalType": "address",
          "name": "account",
          "type": "address"
        },
        {
          "indexed": false,
          "internalType": "uint256",
          "name": "amount",
          "type": "uint256"
        },
        {
          "indexed": false,
          "internalType": "uint256",
          "name": "fee",
          "type": "uint256"
        }
      ],
      "name": "CollateralDeposited",
      "type": "event"
    },
    {
      "anonymous": false,
      "inputs": [
        {
          "indexed": true,
          "internalType": "address",
          "name": "account",
          "type": "address"
        },
        {
          "indexed": true,
          "internalType": "address",
          "name": "to",
          "type": "address"
        },
        {
          "indexed": false,
          "internalType": "uint256",
          "name": "amount",
          "type": "uint256"
        },
        {
          "indexed": false,
          "internalType": "uint256",
          "name": "fee",
          "type": "uint256"
        }
      ],
      "name": "CollateralWithdrawn",
      "type": "event"
    },
    {
      "anonymous": false,
      "inputs": [
        {
          "indexed": false,
          "internalType": "uint256",
          "name": "oldCollateralizationRatio",
          "type": "uint256"
        },
        {
          "indexed": false,
          "internalType": "uint256",
          "name": "newCollateralizationRatio",
          "type": "uint256"
        }
      ],
      "name": "CollateralizationRatioUpdated",
      "type": "event"
    },
    {
      "anonymous": false,
      "inputs": [
        {
          "indexed": false,
          "internalType": "bool",
          "name": "oldActive",
          "type": "bool"
        },
        {
          "indexed": false,
          "internalType": "bool",
          "name": "newActive",
          "type": "bool"
        }
      ],
      "name": "DepositTokenActiveUpdated",
      "type": "event"
    },
    {
      "anonymous": false,
      "inputs": [
        {
          "indexed": false,
          "internalType": "uint256",
          "name": "oldMaxTotalSupplyInUsd",
          "type": "uint256"
        },
        {
          "indexed": false,
          "internalType": "uint256",
          "name": "newMaxTotalSupplyInUsd",
          "type": "uint256"
        }
      ],
      "name": "MaxTotalSupplyUpdated",
      "type": "event"
    },
    {
      "anonymous": false,
      "inputs": [
        {
          "indexed": false,
          "internalType": "uint256",
          "name": "oldMinDepositTime",
          "type": "uint256"
        },
        {
          "indexed": false,
          "internalType": "uint256",
          "name": "newMinDepositTime",
          "type": "uint256"
        }
      ],
      "name": "MinDepositTimeUpdated",
      "type": "event"
    },
    {
      "anonymous": false,
      "inputs": [
        {
          "indexed": true,
          "internalType": "address",
          "name": "from",
          "type": "address"
        },
        {
          "indexed": true,
          "internalType": "address",
          "name": "to",
          "type": "address"
        },
        {
          "indexed": false,
          "internalType": "uint256",
          "name": "value",
          "type": "uint256"
        }
      ],
      "name": "Transfer",
      "type": "event"
    },
    {
      "stateMutability": "payable",
      "type": "fallback"
    },
    {
      "inputs": [],
      "name": "VERSION",
      "outputs": [
        {
          "internalType": "string",
          "name": "",
          "type": "string"
        }
      ],
      "stateMutability": "view",
      "type": "function"
    },
    {
      "inputs": [
        {
          "internalType": "address",
          "name": "",
          "type": "address"
        },
        {
          "internalType": "address",
          "name": "",
          "type": "address"
        }
      ],
      "name": "allowance",
      "outputs": [
        {
          "internalType": "uint256",
          "name": "",
          "type": "uint256"
        }
      ],
      "stateMutability": "view",
      "type": "function"
    },
    {
      "inputs": [
        {
          "internalType": "address",
          "name": "spender",
          "type": "address"
        },
        {
          "internalType": "uint256",
          "name": "_amount",
          "type": "uint256"
        }
      ],
      "name": "approve",
      "outputs": [
        {
          "internalType": "bool",
          "name": "",
          "type": "bool"
        }
      ],
      "stateMutability": "nonpayable",
      "type": "function"
    },
    {
      "inputs": [
        {
          "internalType": "address",
          "name": "",
          "type": "address"
        }
      ],
      "name": "balanceOf",
      "outputs": [
        {
          "internalType": "uint256",
          "name": "",
          "type": "uint256"
        }
      ],
      "stateMutability": "view",
      "type": "function"
    },
    {
      "inputs": [
        {
          "internalType": "address",
          "name": "_from",
          "type": "address"
        },
        {
          "internalType": "uint256",
          "name": "_amount",
          "type": "uint256"
        }
      ],
      "name": "burn",
      "outputs": [],
      "stateMutability": "nonpayable",
      "type": "function"
    },
    {
      "inputs": [],
      "name": "collateralizationRatio",
      "outputs": [
        {
          "internalType": "uint256",
          "name": "",
          "type": "uint256"
        }
      ],
      "stateMutability": "view",
      "type": "function"
    },
    {
      "inputs": [],
      "name": "controller",
      "outputs": [
        {
          "internalType": "contract IController",
          "name": "",
          "type": "address"
        }
      ],
      "stateMutability": "view",
      "type": "function"
    },
    {
      "inputs": [],
      "name": "decimals",
      "outputs": [
        {
          "internalType": "uint8",
          "name": "",
          "type": "uint8"
        }
      ],
      "stateMutability": "view",
      "type": "function"
    },
    {
      "inputs": [
        {
          "internalType": "address",
          "name": "spender",
          "type": "address"
        },
        {
          "internalType": "uint256",
          "name": "subtractedValue",
          "type": "uint256"
        }
      ],
      "name": "decreaseAllowance",
      "outputs": [
        {
          "internalType": "bool",
          "name": "",
          "type": "bool"
        }
      ],
      "stateMutability": "nonpayable",
      "type": "function"
    },
    {
      "inputs": [
        {
          "internalType": "uint256",
          "name": "_amount",
          "type": "uint256"
        },
        {
          "internalType": "address",
          "name": "_onBehalfOf",
          "type": "address"
        }
      ],
      "name": "deposit",
      "outputs": [],
      "stateMutability": "nonpayable",
      "type": "function"
    },
    {
      "inputs": [],
      "name": "governor",
      "outputs": [
        {
          "internalType": "address",
          "name": "_governor",
          "type": "address"
        }
      ],
      "stateMutability": "view",
      "type": "function"
    },
    {
      "inputs": [
        {
          "internalType": "address",
          "name": "spender",
          "type": "address"
        },
        {
          "internalType": "uint256",
          "name": "addedValue",
          "type": "uint256"
        }
      ],
      "name": "increaseAllowance",
      "outputs": [
        {
          "internalType": "bool",
          "name": "",
          "type": "bool"
        }
      ],
      "stateMutability": "nonpayable",
      "type": "function"
    },
    {
      "inputs": [
        {
          "internalType": "contract IERC20",
          "name": "_underlying",
          "type": "address"
        },
        {
          "internalType": "contract IController",
          "name": "_controller",
          "type": "address"
        },
        {
          "internalType": "string",
          "name": "_symbol",
          "type": "string"
        },
        {
          "internalType": "uint8",
          "name": "_decimals",
          "type": "uint8"
        },
        {
          "internalType": "uint128",
          "name": "_collateralizationRatio",
          "type": "uint128"
        },
        {
          "internalType": "uint256",
          "name": "_maxTotalSupplyInUsd",
          "type": "uint256"
        }
      ],
      "name": "initialize",
      "outputs": [],
      "stateMutability": "nonpayable",
      "type": "function"
    },
    {
      "inputs": [],
      "name": "isActive",
      "outputs": [
        {
          "internalType": "bool",
          "name": "",
          "type": "bool"
        }
      ],
      "stateMutability": "view",
      "type": "function"
    },
    {
      "inputs": [
        {
          "internalType": "address",
          "name": "",
          "type": "address"
        }
      ],
      "name": "lastDepositOf",
      "outputs": [
        {
          "internalType": "uint256",
          "name": "",
          "type": "uint256"
        }
      ],
      "stateMutability": "view",
      "type": "function"
    },
    {
      "inputs": [
        {
          "internalType": "address",
          "name": "_account",
          "type": "address"
        }
      ],
      "name": "lockedBalanceOf",
      "outputs": [
        {
          "internalType": "uint256",
          "name": "_lockedBalance",
          "type": "uint256"
        }
      ],
      "stateMutability": "view",
      "type": "function"
    },
    {
      "inputs": [],
      "name": "maxTotalSupplyInUsd",
      "outputs": [
        {
          "internalType": "uint256",
          "name": "",
          "type": "uint256"
        }
      ],
      "stateMutability": "view",
      "type": "function"
    },
    {
      "inputs": [],
      "name": "minDepositTime",
      "outputs": [
        {
          "internalType": "uint256",
          "name": "",
          "type": "uint256"
        }
      ],
      "stateMutability": "view",
      "type": "function"
    },
    {
      "inputs": [
        {
          "internalType": "address",
          "name": "_to",
          "type": "address"
        },
        {
          "internalType": "uint256",
          "name": "_amount",
          "type": "uint256"
        }
      ],
      "name": "mint",
      "outputs": [],
      "stateMutability": "nonpayable",
      "type": "function"
    },
    {
      "inputs": [],
      "name": "name",
      "outputs": [
        {
          "internalType": "string",
          "name": "",
          "type": "string"
        }
      ],
      "stateMutability": "view",
      "type": "function"
    },
    {
      "inputs": [
        {
          "internalType": "address",
          "name": "_from",
          "type": "address"
        },
        {
          "internalType": "address",
          "name": "_to",
          "type": "address"
        },
        {
          "internalType": "uint256",
          "name": "_amount",
          "type": "uint256"
        }
      ],
      "name": "seize",
      "outputs": [],
      "stateMutability": "nonpayable",
      "type": "function"
    },
    {
      "inputs": [
        {
          "internalType": "contract IController",
          "name": "_controller",
          "type": "address"
        }
      ],
      "name": "setController",
      "outputs": [],
      "stateMutability": "nonpayable",
      "type": "function"
    },
    {
      "inputs": [
        {
          "internalType": "contract IERC20",
          "name": "_token",
          "type": "address"
        },
        {
          "internalType": "address",
          "name": "_to",
          "type": "address"
        },
        {
          "internalType": "uint256",
          "name": "_amount",
          "type": "uint256"
        }
      ],
      "name": "sweep",
      "outputs": [],
      "stateMutability": "nonpayable",
      "type": "function"
    },
    {
      "inputs": [],
      "name": "symbol",
      "outputs": [
        {
          "internalType": "string",
          "name": "",
          "type": "string"
        }
      ],
      "stateMutability": "view",
      "type": "function"
    },
    {
      "inputs": [],
      "name": "toggleIsActive",
      "outputs": [],
      "stateMutability": "nonpayable",
      "type": "function"
    },
    {
      "inputs": [],
      "name": "totalSupply",
      "outputs": [
        {
          "internalType": "uint256",
          "name": "",
          "type": "uint256"
        }
      ],
      "stateMutability": "view",
      "type": "function"
    },
    {
      "inputs": [
        {
          "internalType": "address",
          "name": "_to",
          "type": "address"
        },
        {
          "internalType": "uint256",
          "name": "_amount",
          "type": "uint256"
        }
      ],
      "name": "transfer",
      "outputs": [
        {
          "internalType": "bool",
          "name": "",
          "type": "bool"
        }
      ],
      "stateMutability": "nonpayable",
      "type": "function"
    },
    {
      "inputs": [
        {
          "internalType": "address",
          "name": "_sender",
          "type": "address"
        },
        {
          "internalType": "address",
          "name": "_recipient",
          "type": "address"
        },
        {
          "internalType": "uint256",
          "name": "_amount",
          "type": "uint256"
        }
      ],
      "name": "transferFrom",
      "outputs": [
        {
          "internalType": "bool",
          "name": "",
          "type": "bool"
        }
      ],
      "stateMutability": "nonpayable",
      "type": "function"
    },
    {
      "inputs": [],
      "name": "underlying",
      "outputs": [
        {
          "internalType": "contract IERC20",
          "name": "",
          "type": "address"
        }
      ],
      "stateMutability": "view",
      "type": "function"
    },
    {
      "inputs": [
        {
          "internalType": "address",
          "name": "_account",
          "type": "address"
        }
      ],
      "name": "unlockedBalanceOf",
      "outputs": [
        {
          "internalType": "uint256",
          "name": "_unlockedBalance",
          "type": "uint256"
        }
      ],
      "stateMutability": "view",
      "type": "function"
    },
    {
      "inputs": [
        {
          "internalType": "uint128",
          "name": "_newCollateralizationRatio",
          "type": "uint128"
        }
      ],
      "name": "updateCollateralizationRatio",
      "outputs": [],
      "stateMutability": "nonpayable",
      "type": "function"
    },
    {
      "inputs": [
        {
          "internalType": "uint256",
          "name": "_newMaxTotalSupplyInUsd",
          "type": "uint256"
        }
      ],
      "name": "updateMaxTotalSupplyInUsd",
      "outputs": [],
      "stateMutability": "nonpayable",
      "type": "function"
    },
    {
      "inputs": [
        {
          "internalType": "uint256",
          "name": "_newMinDepositTime",
          "type": "uint256"
        }
      ],
      "name": "updateMinDepositTime",
      "outputs": [],
      "stateMutability": "nonpayable",
      "type": "function"
    },
    {
      "inputs": [
        {
          "internalType": "uint256",
          "name": "_amount",
          "type": "uint256"
        },
        {
          "internalType": "address",
          "name": "_to",
          "type": "address"
        }
      ],
      "name": "withdraw",
      "outputs": [],
      "stateMutability": "nonpayable",
      "type": "function"
    },
    {
      "stateMutability": "payable",
      "type": "receive"
    }
  ],
  "transactionHash": "0x1c0ad49c2711de0e3fa9997322b31b4b94997dbe761268dde47ee091eb3f398e",
  "args": [],
  "numDeployments": 1,
  "solcInputHash": "d8b118bc2b869f1cad3e67e355255d78",
  "bytecode": "0x608060405234801561001057600080fd5b506133f7806100206000396000f3fe6080604052600436106101bc5760003560e01c806384955c88116100ed578063c2d275ba11610090578063c2d275ba1461057a578063d25933291461059a578063dcaf9c44146105af578063dd62ed3e146105c5578063ea180f27146105fd578063f46c3c511461061d578063f77c47911461064a578063f9bd04e41461066a578063ffa1ad741461068a57610204565b806384955c881461048f57806392eefe9b146104af578063934472f5146104cf57806395d89b41146104e55780639dc29fac146104fa578063a457c2d71461051a578063a9059cbb1461053a578063b2a02ff11461055a57610204565b80633950935111610160578063395093511461036c57806340c10f191461038c5780634dac5650146103ac57806359355736146103c25780635af52016146103e257806362c06767146104025780636e553f65146104225780636f307dc31461044257806370a082311461046257610204565b8062f714ce1461024357806306fdde0314610265578063095ea7b3146102905780630c340a24146102c057806318160ddd146102e257806322f3e2d41461030657806323b872dd14610320578063313ce5671461034057610204565b366102045760405162461bcd60e51b81526020600482015260136024820152721c9958d95a5d994b5b9bdd0b585b1b1bddd959606a1b60448201526064015b60405180910390fd5b60405162461bcd60e51b815260206004820152601460248201527319985b1b189858dacb5b9bdd0b585b1b1bddd95960621b60448201526064016101fb565b34801561024f57600080fd5b5061026361025e366004612c7d565b6106bb565b005b34801561027157600080fd5b5061027a610aa8565b6040516102879190612cd9565b60405180910390f35b34801561029c57600080fd5b506102b06102ab366004612d0c565b610b36565b6040519015158152602001610287565b3480156102cc57600080fd5b506102d5610b4d565b6040516102879190612d38565b3480156102ee57600080fd5b506102f860395481565b604051908152602001610287565b34801561031257600080fd5b50603f546102b09060ff1681565b34801561032c57600080fd5b506102b061033b366004612d4c565b610bcf565b34801561034c57600080fd5b5060385461035a9060ff1681565b60405160ff9091168152602001610287565b34801561037857600080fd5b506102b0610387366004612d0c565b610c97565b34801561039857600080fd5b506102636103a7366004612d0c565b610cd3565b3480156103b857600080fd5b506102f8603a5481565b3480156103ce57600080fd5b506102f86103dd366004612d8d565b610d14565b3480156103ee57600080fd5b506102636103fd366004612daa565b610d42565b34801561040e57600080fd5b5061026361041d366004612d4c565b610ddc565b34801561042e57600080fd5b5061026361043d366004612c7d565b610e15565b34801561044e57600080fd5b50603b546102d5906001600160a01b031681565b34801561046e57600080fd5b506102f861047d366004612d8d565b60346020526000908152604090205481565b34801561049b57600080fd5b506102f86104aa366004612d8d565b6112ae565b3480156104bb57600080fd5b506102636104ca366004612d8d565b611479565b3480156104db57600080fd5b506102f8603d5481565b3480156104f157600080fd5b5061027a611529565b34801561050657600080fd5b50610263610515366004612d0c565b611536565b34801561052657600080fd5b506102b0610535366004612d0c565b611573565b34801561054657600080fd5b506102b0610555366004612d0c565b6115fe565b34801561056657600080fd5b50610263610575366004612d4c565b61160b565b34801561058657600080fd5b50610263610595366004612ddf565b611649565b3480156105a657600080fd5b5061026361172e565b3480156105bb57600080fd5b506102f8603c5481565b3480156105d157600080fd5b506102f86105e0366004612dfa565b603560209081526000928352604080842090915290825290205481565b34801561060957600080fd5b50610263610618366004612e39565b6117bb565b34801561062957600080fd5b506102f8610638366004612d8d565b603e6020526000908152604090205481565b34801561065657600080fd5b506002546102d5906001600160a01b031681565b34801561067657600080fd5b50610263610685366004612daa565b6119c5565b34801561069657600080fd5b5061027a604051806040016040528060058152602001640312e302e360dc1b81525081565b600260009054906101000a90046001600160a01b03166001600160a01b031663ecf3a3f96040518163ffffffff1660e01b8152600401602060405180830381600087803b15801561070b57600080fd5b505af115801561071f573d6000803e3d6000fd5b505050506040513d601f19601f820116820180604052508101906107439190612f0c565b1561077f5760405162461bcd60e51b815260206004820152600c60248201526b3737ba16b9b43aba3237bbb760a11b60448201526064016101fb565b600260015414156107a25760405162461bcd60e51b81526004016101fb90612f27565b6002600181905554604051633af5be4760e01b81526001600160a01b0390911690633af5be47906107d7903090600401612d38565b60206040518083038186803b1580156107ef57600080fd5b505afa158015610803573d6000803e3d6000fd5b505050506040513d601f19601f820116820180604052508101906108279190612f0c565b6108435760405162461bcd60e51b81526004016101fb90612f5e565b600082116108635760405162461bcd60e51b81526004016101fb90612f8d565b3361086d816112ae565b8311156108b15760405162461bcd60e51b8152602060048201526012602482015271185b5bdd5b9d0b59dd0b5d5b9b1bd8dad95960721b60448201526064016101fb565b600254604080516361d027b360e01b815290516000926001600160a01b0316916361d027b3916004808301926020929190829003018186803b1580156108f657600080fd5b505afa15801561090a573d6000803e3d6000fd5b505050506040513d601f19601f8201168201806040525081019061092e9190612fb5565b90506000600260009054906101000a90046001600160a01b03166001600160a01b031663e941fa786040518163ffffffff1660e01b8152600401602060405180830381600087803b15801561098257600080fd5b505af1158015610996573d6000803e3d6000fd5b505050506040513d601f19601f820116820180604052508101906109ba9190612fd2565b905084600082156109e9576109cf8784611a5f565b90506109dc858583611ab2565b6109e68183613001565b91505b6109f38583611dc4565b60405163f2d5d56b60e01b81526001600160a01b0385169063f2d5d56b90610a219089908690600401613018565b600060405180830381600087803b158015610a3b57600080fd5b505af1158015610a4f573d6000803e3d6000fd5b5050604080518a8152602081018590526001600160a01b03808b169450891692507f4700a5c58c58ea6536703185e43dae38bfd4158ee5330c70988f02a65562a36e910160405180910390a35050600180555050505050565b60368054610ab590613031565b80601f0160208091040260200160405190810160405280929190818152602001828054610ae190613031565b8015610b2e5780601f10610b0357610100808354040283529160200191610b2e565b820191906000526020600020905b815481529060010190602001808311610b1157829003601f168201915b505050505081565b6000610b43338484611e14565b5060015b92915050565b6002546040805163030d028960e21b815290516000926001600160a01b031691630c340a24916004808301926020929190829003018186803b158015610b9257600080fd5b505afa158015610ba6573d6000803e3d6000fd5b505050506040513d601f19601f82011682018060405250810190610bca9190612fb5565b905090565b600060026001541415610bf45760405162461bcd60e51b81526004016101fb90612f27565b6002600155610c04848484611f21565b6001600160a01b03841660009081526035602090815260408083203384529091529020546000198114610c895782811015610c7c5760405162461bcd60e51b8152602060048201526018602482015277616d6f756e742d657863656564732d616c6c6f77616e636560401b60448201526064016101fb565b610c898533858403611e14565b505060018080559392505050565b3360008181526035602090815260408083206001600160a01b03871684529091528120549091610b43918590610cce908690613066565b611e14565b6002546001600160a01b0316336001600160a01b031614610d065760405162461bcd60e51b81526004016101fb9061307e565b610d108282611fce565b5050565b6000610d1f826112ae565b6001600160a01b0390921660009081526034602052604090205491909103919050565b610d4a610b4d565b6001600160a01b0316336001600160a01b031614610d7a5760405162461bcd60e51b81526004016101fb906130a6565b603d5481811415610d9d5760405162461bcd60e51b81526004016101fb906130cc565b60408051828152602081018490527f13a5338cedaf884869364b517145af7d6887a75a5f17c4ff3981cee30b7b68e5910160405180910390a150603d55565b610de461237b565b6001600160a01b038316610e0157610dfc82826123b5565b505050565b610dfc6001600160a01b03841683836124ce565b600260009054906101000a90046001600160a01b03166001600160a01b0316635c975abb6040518163ffffffff1660e01b8152600401602060405180830381600087803b158015610e6557600080fd5b505af1158015610e79573d6000803e3d6000fd5b505050506040513d601f19601f82011682018060405250810190610e9d9190612f0c565b15610ed35760405162461bcd60e51b81526020600482015260066024820152651c185d5cd95960d21b60448201526064016101fb565b60026001541415610ef65760405162461bcd60e51b81526004016101fb90612f27565b6002600155603f5460ff16610f1d5760405162461bcd60e51b81526004016101fb906130f9565b600254604051633af5be4760e01b81526001600160a01b0390911690633af5be4790610f4d903090600401612d38565b60206040518083038186803b158015610f6557600080fd5b505afa158015610f79573d6000803e3d6000fd5b505050506040513d601f19601f82011682018060405250810190610f9d9190612f0c565b610fb95760405162461bcd60e51b81526004016101fb90612f5e565b60008211610fd95760405162461bcd60e51b81526004016101fb90612f8d565b600254604080516361d027b360e01b8152905133926000926001600160a01b03909116916361d027b391600480820192602092909190829003018186803b15801561102357600080fd5b505afa158015611037573d6000803e3d6000fd5b505050506040513d601f19601f8201168201806040525081019061105b9190612fb5565b603b546040516370a0823160e01b81529192506000916001600160a01b03909116906370a0823190611091908590600401612d38565b60206040518083038186803b1580156110a957600080fd5b505afa1580156110bd573d6000803e3d6000fd5b505050506040513d601f19601f820116820180604052508101906110e19190612fd2565b603b549091506110fc906001600160a01b0316848488612524565b603b546040516370a0823160e01b815282916001600160a01b0316906370a082319061112c908690600401612d38565b60206040518083038186803b15801561114457600080fd5b505afa158015611158573d6000803e3d6000fd5b505050506040513d601f19601f8201168201806040525081019061117c9190612fd2565b6111869190613001565b94506000600260009054906101000a90046001600160a01b03166001600160a01b03166367a527936040518163ffffffff1660e01b8152600401602060405180830381600087803b1580156111da57600080fd5b505af11580156111ee573d6000803e3d6000fd5b505050506040513d601f19601f820116820180604052508101906112129190612fd2565b90508560008215611240576112278884611a5f565b90506112338582611fce565b61123d8183613001565b91505b61124a8783611fce565b866001600160a01b0316866001600160a01b03167f95d16db8c4932fcf5d6de67364791e7178ec505c7d3829a8b34d18959c01552c8a84604051611298929190918252602082015260400190565b60405180910390a3505060018055505050505050565b60025460405163dde3ab9560e01b815260009182916001600160a01b039091169063dde3ab95906112e3908690600401612d38565b60a06040518083038186803b1580156112fb57600080fd5b505afa15801561130f573d6000803e3d6000fd5b505050506040513d601f19601f82011682018060405250810190611333919061312c565b9450505050506000811115611473576000611359603c548361256290919063ffffffff16565b6001600160a01b03808616600090815260346020908152604091829020546002548351637556d1c160e11b8152935195965061146f959194169263eaada382926004808301939192829003018186803b1580156113b557600080fd5b505afa1580156113c9573d6000803e3d6000fd5b505050506040513d601f19601f820116820180604052508101906113ed9190612fb5565b6001600160a01b031663b5e9bef530856040518363ffffffff1660e01b815260040161141a929190613018565b60206040518083038186803b15801561143257600080fd5b505afa158015611446573d6000803e3d6000fd5b505050506040513d601f19601f8201168201806040525081019061146a9190612fd2565b612582565b9250505b50919050565b611481610b4d565b6001600160a01b0316336001600160a01b0316146114b15760405162461bcd60e51b81526004016101fb906130a6565b6001600160a01b0381166115075760405162461bcd60e51b815260206004820152601e60248201527f6e65772d636f6e74726f6c6c65722d616464726573732d69732d7a65726f000060448201526064016101fb565b600280546001600160a01b0319166001600160a01b0392909216919091179055565b60378054610ab590613031565b6002546001600160a01b0316336001600160a01b0316146115695760405162461bcd60e51b81526004016101fb9061307e565b610d108282612598565b3360009081526035602090815260408083206001600160a01b0386168452909152812054828110156115e75760405162461bcd60e51b815260206004820152601e60248201527f6465637265617365642d616c6c6f77616e63652d62656c6f772d7a65726f000060448201526064016101fb565b6115f43385858403611e14565b5060019392505050565b6000610b43338484611f21565b6002546001600160a01b0316336001600160a01b03161461163e5760405162461bcd60e51b81526004016101fb9061307e565b610dfc838383611ab2565b611651610b4d565b6001600160a01b0316336001600160a01b0316146116815760405162461bcd60e51b81526004016101fb906130a6565b670de0b6b3a7640000816001600160801b031611156116b25760405162461bcd60e51b81526004016101fb90613173565b603c546001600160801b0382168114156116de5760405162461bcd60e51b81526004016101fb906130cc565b604080518281526001600160801b03841660208201527ff84d4544cfaedc7b1b8b7fa92b1f758aea3e3e69dfb321343825e4dd86f8147a910160405180910390a1506001600160801b0316603c55565b611736610b4d565b6001600160a01b0316336001600160a01b0316146117665760405162461bcd60e51b81526004016101fb906130a6565b603f546040805160ff9092168015801584526020840152917fe922a12e8e36a37e6ad78a6c8aa4c2d6dec08b3a104e133ada714b606c87ca2e910160405180910390a1603f805460ff19169115919091179055565b600054610100900460ff16806117d4575060005460ff16155b6117f05760405162461bcd60e51b81526004016101fb906131aa565b600054610100900460ff16158015611812576000805461ffff19166101011790555b6001600160a01b03881661185d5760405162461bcd60e51b81526020600482015260126024820152711d5b99195c9b1e5a5b99cb5a5ccb5b9d5b1b60721b60448201526064016101fb565b6001600160a01b0387166118b35760405162461bcd60e51b815260206004820152601a60248201527f636f6e74726f6c6c65722d616464726573732d69732d7a65726f00000000000060448201526064016101fb565b670de0b6b3a7640000836001600160801b031611156118e45760405162461bcd60e51b81526004016101fb90613173565b6118ec61280d565b600280546001600160a01b0319166001600160a01b03891617905560408051808201909152601a8082527f546f6b656e697a6564206465706f73697420706f736974696f6e000000000000602090920191825261194b91603691612b5b565b5061195860378787612bdf565b50603b80546001600160a01b0319166001600160a01b038a161790556000603d55603f805460ff199081166001179091556038805490911660ff86161790556001600160801b038316603c55603a82905580156119bb576000805461ff00191690555b5050505050505050565b6119cd610b4d565b6001600160a01b0316336001600160a01b0316146119fd5760405162461bcd60e51b81526004016101fb906130a6565b603a5481811415611a205760405162461bcd60e51b81526004016101fb906130cc565b60408051828152602081018490527fc58cd6132bb46df23d468939c03dd023b74b509aaa6b04c39d5a6461c65963bd910160405180910390a150603a55565b6000821580611a6c575081155b15611a7957506000610b47565b670de0b6b3a7640000611a8d6002826131f8565b611a97848661321a565b611aa19190613066565b611aab91906131f8565b9392505050565b82826000600260009054906101000a90046001600160a01b03166001600160a01b0316633605b51b6040518163ffffffff1660e01b815260040160006040518083038186803b158015611b0457600080fd5b505afa158015611b18573d6000803e3d6000fd5b505050506040513d6000823e601f3d908101601f19168201604052611b40919081019061325a565b805190915060005b81811015611bea57828181518110611b6257611b6261331f565b602090810291909101015160405163058bd91d60e51b81523060048201526001600160a01b03878116602483015286811660448301529091169063b17b23a090606401600060405180830381600087803b158015611bbf57600080fd5b505af1158015611bd3573d6000803e3d6000fd5b505050508080611be290613335565b915050611b48565b506001600160a01b038716611c415760405162461bcd60e51b815260206004820152601e60248201527f7472616e736665722d66726f6d2d7468652d7a65726f2d61646472657373000060448201526064016101fb565b6001600160a01b038616611c975760405162461bcd60e51b815260206004820152601c60248201527f7472616e736665722d746f2d7468652d7a65726f2d616464726573730000000060448201526064016101fb565b6001600160a01b03871660009081526034602052604090205485811015611d005760405162461bcd60e51b815260206004820152601f60248201527f7472616e736665722d616d6f756e742d657863656564732d62616c616e63650060448201526064016101fb565b6001600160a01b03808916600090815260346020526040808220898503905591891681529081208054889290611d37908490613066565b92505081905550866001600160a01b0316886001600160a01b03166000805160206133a283398151915288604051611d7191815260200190565b60405180910390a36001600160a01b038716600090815260346020526040902054611da0908890889003612879565b6001600160a01b0388166000908152603460205260409020546119bb9089906128dc565b603d546001600160a01b0383166000908152603e60205260409020548391611deb91613066565b421015611e0a5760405162461bcd60e51b81526004016101fb90613350565b610dfc8383612598565b6001600160a01b038316611e6a5760405162461bcd60e51b815260206004820152601d60248201527f617070726f76652d66726f6d2d7468652d7a65726f2d6164647265737300000060448201526064016101fb565b6001600160a01b038216611ec05760405162461bcd60e51b815260206004820152601b60248201527f617070726f76652d746f2d7468652d7a65726f2d61646472657373000000000060448201526064016101fb565b6001600160a01b0383811660008181526035602090815260408083209487168084529482529182902085905590518481527f8c5be1e5ebec7d5bd14f71427d1e84f3dd0314c0f7b2291e5b200ac8c7c3b925910160405180910390a3505050565b828180611f2d836112ae565b1015611f755760405162461bcd60e51b81526020600482015260176024820152766e6f742d656e6f7567682d667265652d62616c616e636560481b60448201526064016101fb565b603d546001600160a01b0386166000908152603e60205260409020548691611f9c91613066565b421015611fbb5760405162461bcd60e51b81526004016101fb90613350565b611fc6868686611ab2565b505050505050565b603f5460ff16611ff05760405162461bcd60e51b81526004016101fb906130f9565b816000600260009054906101000a90046001600160a01b03166001600160a01b0316633605b51b6040518163ffffffff1660e01b815260040160006040518083038186803b15801561204157600080fd5b505afa158015612055573d6000803e3d6000fd5b505050506040513d6000823e601f3d908101601f1916820160405261207d919081019061325a565b805190915060005b8181101561211e5782818151811061209f5761209f61331f565b6020908102919091010151604051626cc3c360e61b81523060048201526001600160a01b03868116602483015290911690631b30f0c090604401600060405180830381600087803b1580156120f357600080fd5b505af1158015612107573d6000803e3d6000fd5b50505050808061211690613335565b915050612085565b506001600160a01b0385166121705760405162461bcd60e51b81526020600482015260186024820152776d696e742d746f2d7468652d7a65726f2d6164647265737360401b60448201526064016101fb565b60025460408051637556d1c160e11b815290516000926001600160a01b03169163eaada382916004808301926020929190829003018186803b1580156121b557600080fd5b505afa1580156121c9573d6000803e3d6000fd5b505050506040513d601f19601f820116820180604052508101906121ed9190612fb5565b6001600160a01b0316638d0dba00308760395461220a9190613066565b6040518363ffffffff1660e01b8152600401612227929190613018565b60206040518083038186803b15801561223f57600080fd5b505afa158015612253573d6000803e3d6000fd5b505050506040513d601f19601f820116820180604052508101906122779190612fd2565b9050603a548111156122c65760405162461bcd60e51b8152602060048201526018602482015277737572706173732d6d61782d746f74616c2d737570706c7960401b60448201526064016101fb565b6001600160a01b0386166000908152603e60205260408120429055603980548792906122f3908490613066565b90915550506001600160a01b03861660009081526034602052604081208054879290612320908490613066565b90915550506040518581526001600160a01b038716906000906000805160206133a28339815191529060200160405180910390a36001600160a01b038616600090815260346020526040902054611fc6908790879003612879565b612383610b4d565b6001600160a01b0316336001600160a01b0316146123b35760405162461bcd60e51b81526004016101fb906130a6565b565b804710156124055760405162461bcd60e51b815260206004820152601d60248201527f416464726573733a20696e73756666696369656e742062616c616e636500000060448201526064016101fb565b6000826001600160a01b03168260405160006040518083038185875af1925050503d8060008114612452576040519150601f19603f3d011682016040523d82523d6000602084013e612457565b606091505b5050905080610dfc5760405162461bcd60e51b815260206004820152603a60248201527f416464726573733a20756e61626c6520746f2073656e642076616c75652c207260448201527f6563697069656e74206d6179206861766520726576657274656400000000000060648201526084016101fb565b610dfc8363a9059cbb60e01b84846040516024016124ed929190613018565b60408051601f198184030181529190526020810180516001600160e01b03166001600160e01b031990931692909217909152612911565b6040516001600160a01b038085166024830152831660448201526064810182905261255c9085906323b872dd60e01b906084016124ed565b50505050565b6000816125706002826131f8565b611a97670de0b6b3a76400008661321a565b60008183106125915781611aab565b5090919050565b816000600260009054906101000a90046001600160a01b03166001600160a01b0316633605b51b6040518163ffffffff1660e01b815260040160006040518083038186803b1580156125e957600080fd5b505afa1580156125fd573d6000803e3d6000fd5b505050506040513d6000823e601f3d908101601f19168201604052612625919081019061325a565b805190915060005b818110156126c6578281815181106126475761264761331f565b6020908102919091010151604051626cc3c360e61b81523060048201526001600160a01b03868116602483015290911690631b30f0c090604401600060405180830381600087803b15801561269b57600080fd5b505af11580156126af573d6000803e3d6000fd5b5050505080806126be90613335565b91505061262d565b506001600160a01b03851661271d5760405162461bcd60e51b815260206004820152601a60248201527f6275726e2d66726f6d2d7468652d7a65726f2d6164647265737300000000000060448201526064016101fb565b6001600160a01b038516600090815260346020526040902054848110156127865760405162461bcd60e51b815260206004820152601b60248201527f6275726e2d616d6f756e742d657863656564732d62616c616e6365000000000060448201526064016101fb565b6001600160a01b03861660009081526034602052604081208683039055603980548792906127b5908490613001565b90915550506040518581526000906001600160a01b038816906000805160206133a28339815191529060200160405180910390a36001600160a01b038616600090815260346020526040902054611fc69087906128dc565b600054610100900460ff1680612826575060005460ff16155b6128425760405162461bcd60e51b81526004016101fb906131aa565b600054610100900460ff16158015612864576000805461ffff19166101011790555b8015612876576000805461ff00191690555b50565b80610d1057600254604051633f5fc13160e01b81526001600160a01b0390911690633f5fc131906128ae908590600401612d38565b600060405180830381600087803b1580156128c857600080fd5b505af1158015611fc6573d6000803e3d6000fd5b80610d1057600254604051630275038d60e41b81526001600160a01b039091169063275038d0906128ae908590600401612d38565b6000612966826040518060400160405280602081526020017f5361666545524332303a206c6f772d6c6576656c2063616c6c206661696c6564815250856001600160a01b03166129e39092919063ffffffff16565b805190915015610dfc57808060200190518101906129849190612f0c565b610dfc5760405162461bcd60e51b815260206004820152602a60248201527f5361666545524332303a204552433230206f7065726174696f6e20646964206e6044820152691bdd081cdd58d8d9595960b21b60648201526084016101fb565b60606129f284846000856129fa565b949350505050565b606082471015612a5b5760405162461bcd60e51b815260206004820152602660248201527f416464726573733a20696e73756666696369656e742062616c616e636520666f6044820152651c8818d85b1b60d21b60648201526084016101fb565b843b612aa95760405162461bcd60e51b815260206004820152601d60248201527f416464726573733a2063616c6c20746f206e6f6e2d636f6e747261637400000060448201526064016101fb565b600080866001600160a01b03168587604051612ac59190613385565b60006040518083038185875af1925050503d8060008114612b02576040519150601f19603f3d011682016040523d82523d6000602084013e612b07565b606091505b5091509150612b17828286612b22565b979650505050505050565b60608315612b31575081611aab565b825115612b415782518084602001fd5b8160405162461bcd60e51b81526004016101fb9190612cd9565b828054612b6790613031565b90600052602060002090601f016020900481019282612b895760008555612bcf565b82601f10612ba257805160ff1916838001178555612bcf565b82800160010185558215612bcf579182015b82811115612bcf578251825591602001919060010190612bb4565b50612bdb929150612c53565b5090565b828054612beb90613031565b90600052602060002090601f016020900481019282612c0d5760008555612bcf565b82601f10612c265782800160ff19823516178555612bcf565b82800160010185558215612bcf579182015b82811115612bcf578235825591602001919060010190612c38565b5b80821115612bdb5760008155600101612c54565b6001600160a01b038116811461287657600080fd5b60008060408385031215612c9057600080fd5b823591506020830135612ca281612c68565b809150509250929050565b60005b83811015612cc8578181015183820152602001612cb0565b8381111561255c5750506000910152565b6020815260008251806020840152612cf8816040850160208701612cad565b601f01601f19169190910160400192915050565b60008060408385031215612d1f57600080fd5b8235612d2a81612c68565b946020939093013593505050565b6001600160a01b0391909116815260200190565b600080600060608486031215612d6157600080fd5b8335612d6c81612c68565b92506020840135612d7c81612c68565b929592945050506040919091013590565b600060208284031215612d9f57600080fd5b8135611aab81612c68565b600060208284031215612dbc57600080fd5b5035919050565b80356001600160801b0381168114612dda57600080fd5b919050565b600060208284031215612df157600080fd5b611aab82612dc3565b60008060408385031215612e0d57600080fd5b8235612e1881612c68565b91506020830135612ca281612c68565b803560ff81168114612dda57600080fd5b600080600080600080600060c0888a031215612e5457600080fd5b8735612e5f81612c68565b96506020880135612e6f81612c68565b9550604088013567ffffffffffffffff80821115612e8c57600080fd5b818a0191508a601f830112612ea057600080fd5b813581811115612eaf57600080fd5b8b6020828501011115612ec157600080fd5b602083019750809650505050612ed960608901612e28565b9250612ee760808901612dc3565b915060a0880135905092959891949750929550565b80518015158114612dda57600080fd5b600060208284031215612f1e57600080fd5b611aab82612efc565b6020808252601f908201527f5265656e7472616e637947756172643a207265656e7472616e742063616c6c00604082015260600190565b60208082526015908201527418dbdb1b185d195c985b0b5a5b995e1a5cdd195b9d605a1b604082015260600190565b6020808252600e908201526d616d6f756e742d69732d7a65726f60901b604082015260600190565b600060208284031215612fc757600080fd5b8151611aab81612c68565b600060208284031215612fe457600080fd5b5051919050565b634e487b7160e01b600052601160045260246000fd5b60008282101561301357613013612feb565b500390565b6001600160a01b03929092168252602082015260400190565b600181811c9082168061304557607f821691505b6020821081141561147357634e487b7160e01b600052602260045260246000fd5b6000821982111561307957613079612feb565b500190565b6020808252600e908201526d3737ba16b1b7b73a3937b63632b960911b604082015260600190565b6020808252600c908201526b3737ba16b3b7bb32b93737b960a11b604082015260600190565b6020808252601390820152721b995dcb5cd85b594b585ccb58dd5c9c995b9d606a1b604082015260600190565b6020808252601990820152786465706f7369742d746f6b656e2d69732d696e61637469766560381b604082015260600190565b600080600080600060a0868803121561314457600080fd5b61314d86612efc565b602087015160408801516060890151608090990151929a91995097965090945092505050565b6020808252601f908201527f636f6c6c61746572616c697a6174696f6e2d726174696f2d67742d3130302500604082015260600190565b6020808252602e908201527f496e697469616c697a61626c653a20636f6e747261637420697320616c72656160408201526d191e481a5b9a5d1a585b1a5e995960921b606082015260800190565b60008261321557634e487b7160e01b600052601260045260246000fd5b500490565b600081600019048311821515161561323457613234612feb565b500290565b634e487b7160e01b600052604160045260246000fd5b8051612dda81612c68565b6000602080838503121561326d57600080fd5b825167ffffffffffffffff8082111561328557600080fd5b818501915085601f83011261329957600080fd5b8151818111156132ab576132ab613239565b8060051b604051601f19603f830116810181811085821117156132d0576132d0613239565b6040529182528482019250838101850191888311156132ee57600080fd5b938501935b82851015613313576133048561324f565b845293850193928501926132f3565b98975050505050505050565b634e487b7160e01b600052603260045260246000fd5b600060001982141561334957613349612feb565b5060010190565b6020808252818101527f6d696e2d6465706f7369742d74696d652d686176652d6e6f742d706173736564604082015260600190565b60008251613397818460208701612cad565b919091019291505056feddf252ad1be2c89b69c2b068fc378daa952ba7f163c4a11628f55a4df523b3efa26469706673582212208e0b10df1f239e228eaa29ae266ee4ea83a7ec8aaefa846226ec61b406fa592e64736f6c63430008090033",
  "devdoc": {
    "kind": "dev",
    "methods": {
      "burn(address,uint256)": {
        "params": {
          "_amount": "The amount to burn",
          "_from": "The account to burn from"
        }
      },
      "deposit(uint256,address)": {
        "params": {
          "_amount": "The amount of collateral tokens to deposit",
          "_onBehalfOf": "The account to deposit to"
        }
      },
      "lockedBalanceOf(address)": {
        "params": {
          "_account": "The account to check"
        },
        "returns": {
          "_lockedBalance": "The locked amount"
        }
      },
      "mint(address,uint256)": {
        "params": {
          "_amount": "The amount to mint",
          "_to": "The account to mint to"
        }
      },
      "seize(address,address,uint256)": {
        "details": "Same as _transfer",
        "params": {
          "_amount": "The amount to seize",
          "_from": "The account to seize from",
          "_to": "The beneficiary account"
        }
      },
      "setController(address)": {
        "params": {
          "_controller": "The new Controller contract"
        }
      },
      "sweep(address,address,uint256)": {
        "params": {
          "_amount": "The amount to send",
          "_to": "The recipient of the transfer",
          "_token": "The token to transfer"
        }
      },
      "unlockedBalanceOf(address)": {
        "params": {
          "_account": "The account to check"
        },
        "returns": {
          "_unlockedBalance": "The amount that user can transfer or withdraw"
        }
      },
      "updateCollateralizationRatio(uint128)": {
        "params": {
          "_newCollateralizationRatio": "The new CR value"
        }
      },
      "updateMaxTotalSupplyInUsd(uint256)": {
        "params": {
          "_newMaxTotalSupplyInUsd": "The new max total supply"
        }
      },
      "withdraw(uint256,address)": {
        "params": {
          "_amount": "The amount of collateral to withdraw",
          "_to": "The account that will receive withdrawn collateral"
        }
      }
    },
    "title": "Represents the users' deposits",
    "version": 1
  },
  "userdoc": {
    "events": {
      "CollateralDeposited(address,address,uint256,uint256)": {
        "notice": "Emitted when collateral is deposited"
      },
      "CollateralWithdrawn(address,address,uint256,uint256)": {
        "notice": "Emitted when collateral is withdrawn"
      },
      "CollateralizationRatioUpdated(uint256,uint256)": {
        "notice": "Emitted when CR is updated"
      },
      "DepositTokenActiveUpdated(bool,bool)": {
        "notice": "Emitted when active flag is updated"
      },
      "MaxTotalSupplyUpdated(uint256,uint256)": {
        "notice": "Emitted when max total supply is updated"
      },
      "MinDepositTimeUpdated(uint256,uint256)": {
        "notice": "Emitted when minimum deposit time is updated"
      }
    },
    "kind": "user",
    "methods": {
      "burn(address,uint256)": {
        "notice": "Burn deposit tokens"
      },
      "collateralizationRatio()": {
        "notice": "Collateralization ration for the deposit token"
      },
      "controller()": {
        "notice": "Controller contract"
      },
      "deposit(uint256,address)": {
        "notice": "Deposit collateral and mint vsdTOKEN (tokenized deposit position)"
      },
      "isActive()": {
        "notice": "If a collateral isn't active, it disables minting new tokens"
      },
      "lastDepositOf(address)": {
        "notice": "Stores de timestamp of last deposit event of each account. It's used combined with `minDepositTime`."
      },
      "lockedBalanceOf(address)": {
        "notice": "Get the locked balance"
      },
      "minDepositTime()": {
        "notice": "The min amount of time that an account should wait after deposit collateral before be able to withdraw"
      },
      "mint(address,uint256)": {
        "notice": "Mint deposit token when an account deposits collateral"
      },
      "seize(address,address,uint256)": {
        "notice": "Seize tokens"
      },
      "setController(address)": {
        "notice": "Update Controller contract"
      },
      "sweep(address,address,uint256)": {
        "notice": "ERC20 recovery in case of stuck tokens due direct transfers to the contract address."
      },
      "toggleIsActive()": {
        "notice": "Enable/Disable the Deposit Token"
      },
      "underlying()": {
        "notice": "Deposit underlying asset (e.g. MET)"
      },
      "unlockedBalanceOf(address)": {
        "notice": "Get the unlocked balance (i.e. transferable, withdrawable)"
      },
      "updateCollateralizationRatio(uint128)": {
        "notice": "Update collateralization ratio"
      },
      "updateMaxTotalSupplyInUsd(uint256)": {
        "notice": "Update max total supply"
      },
      "updateMinDepositTime(uint256)": {
        "notice": "Update minimum deposit time"
      },
      "withdraw(uint256,address)": {
        "notice": "Burn vsdTOKEN and withdraw collateral"
      }
    },
    "version": 1
  },
  "storageLayout": {
    "storage": [
      {
        "astId": 7131,
        "contract": "contracts/DepositToken.sol:DepositToken",
        "label": "_initialized",
        "offset": 0,
        "slot": "0",
        "type": "t_bool"
      },
      {
        "astId": 7134,
        "contract": "contracts/DepositToken.sol:DepositToken",
        "label": "_initializing",
        "offset": 1,
        "slot": "0",
        "type": "t_bool"
      },
      {
        "astId": 7185,
        "contract": "contracts/DepositToken.sol:DepositToken",
        "label": "_status",
        "offset": 0,
        "slot": "1",
        "type": "t_uint256"
      },
      {
        "astId": 6095,
        "contract": "contracts/DepositToken.sol:DepositToken",
        "label": "controller",
        "offset": 0,
        "slot": "2",
        "type": "t_contract(IController)10815"
      },
      {
        "astId": 6210,
        "contract": "contracts/DepositToken.sol:DepositToken",
        "label": "__gap",
        "offset": 0,
        "slot": "3",
        "type": "t_array(t_uint256)49_storage"
      },
      {
        "astId": 14566,
        "contract": "contracts/DepositToken.sol:DepositToken",
        "label": "balanceOf",
        "offset": 0,
        "slot": "52",
        "type": "t_mapping(t_address,t_uint256)"
      },
      {
        "astId": 14572,
        "contract": "contracts/DepositToken.sol:DepositToken",
        "label": "allowance",
        "offset": 0,
        "slot": "53",
        "type": "t_mapping(t_address,t_mapping(t_address,t_uint256))"
      },
      {
        "astId": 14574,
        "contract": "contracts/DepositToken.sol:DepositToken",
        "label": "name",
        "offset": 0,
        "slot": "54",
        "type": "t_string_storage"
      },
      {
        "astId": 14576,
        "contract": "contracts/DepositToken.sol:DepositToken",
        "label": "symbol",
        "offset": 0,
        "slot": "55",
        "type": "t_string_storage"
      },
      {
        "astId": 14578,
        "contract": "contracts/DepositToken.sol:DepositToken",
        "label": "decimals",
        "offset": 0,
        "slot": "56",
        "type": "t_uint8"
      },
      {
        "astId": 14580,
        "contract": "contracts/DepositToken.sol:DepositToken",
        "label": "totalSupply",
        "offset": 0,
        "slot": "57",
        "type": "t_uint256"
      },
      {
        "astId": 14582,
        "contract": "contracts/DepositToken.sol:DepositToken",
        "label": "maxTotalSupplyInUsd",
        "offset": 0,
        "slot": "58",
        "type": "t_uint256"
      },
      {
        "astId": 14586,
        "contract": "contracts/DepositToken.sol:DepositToken",
        "label": "underlying",
        "offset": 0,
        "slot": "59",
        "type": "t_contract(IERC20)7840"
      },
      {
        "astId": 14589,
        "contract": "contracts/DepositToken.sol:DepositToken",
        "label": "collateralizationRatio",
        "offset": 0,
        "slot": "60",
        "type": "t_uint256"
      },
      {
        "astId": 14592,
        "contract": "contracts/DepositToken.sol:DepositToken",
        "label": "minDepositTime",
        "offset": 0,
        "slot": "61",
        "type": "t_uint256"
      },
      {
        "astId": 14597,
        "contract": "contracts/DepositToken.sol:DepositToken",
        "label": "lastDepositOf",
        "offset": 0,
        "slot": "62",
        "type": "t_mapping(t_address,t_uint256)"
      },
      {
        "astId": 14600,
        "contract": "contracts/DepositToken.sol:DepositToken",
        "label": "isActive",
        "offset": 0,
        "slot": "63",
        "type": "t_bool"
      }
    ],
    "types": {
      "t_address": {
        "encoding": "inplace",
        "label": "address",
        "numberOfBytes": "20"
      },
      "t_array(t_uint256)49_storage": {
        "base": "t_uint256",
        "encoding": "inplace",
        "label": "uint256[49]",
        "numberOfBytes": "1568"
      },
      "t_bool": {
        "encoding": "inplace",
        "label": "bool",
        "numberOfBytes": "1"
      },
      "t_contract(IController)10815": {
        "encoding": "inplace",
        "label": "contract IController",
        "numberOfBytes": "20"
      },
      "t_contract(IERC20)7840": {
        "encoding": "inplace",
        "label": "contract IERC20",
        "numberOfBytes": "20"
      },
      "t_mapping(t_address,t_mapping(t_address,t_uint256))": {
        "encoding": "mapping",
        "key": "t_address",
        "label": "mapping(address => mapping(address => uint256))",
        "numberOfBytes": "32",
        "value": "t_mapping(t_address,t_uint256)"
      },
      "t_mapping(t_address,t_uint256)": {
        "encoding": "mapping",
        "key": "t_address",
        "label": "mapping(address => uint256)",
        "numberOfBytes": "32",
        "value": "t_uint256"
      },
      "t_string_storage": {
        "encoding": "bytes",
        "label": "string",
        "numberOfBytes": "32"
      },
      "t_uint256": {
        "encoding": "inplace",
        "label": "uint256",
        "numberOfBytes": "32"
      },
      "t_uint8": {
        "encoding": "inplace",
        "label": "uint8",
        "numberOfBytes": "1"
      }
    }
  }
}