{
  "address": "0x4661407fC224E5432D7f528a20EF8906E453A8f3",
  "abi": [
    {
      "anonymous": false,
      "inputs": [
        {
          "indexed": false,
          "internalType": "contract IOracle",
          "name": "oldOracle",
          "type": "address"
        },
        {
          "indexed": false,
          "internalType": "contract IOracle",
          "name": "newOracle",
          "type": "address"
        }
      ],
      "name": "DefaultOracleUpdated",
      "type": "event"
    },
    {
      "anonymous": false,
      "inputs": [
        {
          "indexed": false,
          "internalType": "address",
          "name": "asset",
          "type": "address"
        },
        {
          "indexed": false,
          "internalType": "contract IOracle",
          "name": "oldOracle",
          "type": "address"
        },
        {
          "indexed": false,
          "internalType": "contract IOracle",
          "name": "newOracle",
          "type": "address"
        }
      ],
      "name": "OracleUpdated",
      "type": "event"
    },
    {
      "anonymous": false,
      "inputs": [
        {
          "indexed": true,
          "internalType": "address",
          "name": "previousGovernor",
          "type": "address"
        },
        {
          "indexed": true,
          "internalType": "address",
          "name": "proposedGovernor",
          "type": "address"
        }
      ],
      "name": "UpdatedGovernor",
      "type": "event"
    },
    {
      "inputs": [],
      "name": "acceptGovernorship",
      "outputs": [],
      "stateMutability": "nonpayable",
      "type": "function"
    },
    {
      "inputs": [
        {
          "internalType": "address[]",
          "name": "_assets",
          "type": "address[]"
        },
        {
          "internalType": "contract IOracle[]",
          "name": "_oracles",
          "type": "address[]"
        }
      ],
      "name": "addOrUpdate",
      "outputs": [],
      "stateMutability": "nonpayable",
      "type": "function"
    },
    {
      "inputs": [
        {
          "internalType": "contract IERC20",
          "name": "_assetIn",
          "type": "address"
        },
        {
          "internalType": "contract IERC20",
          "name": "_assetOut",
          "type": "address"
        },
        {
          "internalType": "uint256",
          "name": "_amountIn",
          "type": "uint256"
        }
      ],
      "name": "convert",
      "outputs": [
        {
          "internalType": "uint256",
          "name": "_amountOut",
          "type": "uint256"
        }
      ],
      "stateMutability": "view",
      "type": "function"
    },
    {
      "inputs": [
        {
          "internalType": "contract IERC20",
          "name": "_asset",
          "type": "address"
        },
        {
          "internalType": "uint256",
          "name": "_amountInUsd",
          "type": "uint256"
        }
      ],
      "name": "convertFromUsd",
      "outputs": [
        {
          "internalType": "uint256",
          "name": "_amount",
          "type": "uint256"
        }
      ],
      "stateMutability": "view",
      "type": "function"
    },
    {
      "inputs": [
        {
          "internalType": "contract IERC20",
          "name": "_asset",
          "type": "address"
        },
        {
          "internalType": "uint256",
          "name": "_amount",
          "type": "uint256"
        }
      ],
      "name": "convertToUsd",
      "outputs": [
        {
          "internalType": "uint256",
          "name": "_amountInUsd",
          "type": "uint256"
        }
      ],
      "stateMutability": "view",
      "type": "function"
    },
    {
      "inputs": [],
      "name": "defaultOracle",
      "outputs": [
        {
          "internalType": "contract IOracle",
          "name": "",
          "type": "address"
        }
      ],
      "stateMutability": "view",
      "type": "function"
    },
    {
      "inputs": [],
      "name": "governor",
      "outputs": [
        {
          "internalType": "address",
          "name": "",
          "type": "address"
        }
      ],
      "stateMutability": "view",
      "type": "function"
    },
    {
      "inputs": [
        {
          "internalType": "address[]",
          "name": "_assets",
          "type": "address[]"
        },
        {
          "internalType": "contract IOracle[]",
          "name": "_oracles",
          "type": "address[]"
        },
        {
          "internalType": "contract IOracle",
          "name": "_defaultOracle",
          "type": "address"
        }
      ],
      "name": "initialize",
      "outputs": [],
      "stateMutability": "nonpayable",
      "type": "function"
    },
    {
      "inputs": [
        {
          "internalType": "address",
          "name": "",
          "type": "address"
        }
      ],
      "name": "oracles",
      "outputs": [
        {
          "internalType": "contract IOracle",
          "name": "",
          "type": "address"
        }
      ],
      "stateMutability": "view",
      "type": "function"
    },
    {
      "inputs": [
        {
          "internalType": "contract IOracle",
          "name": "_newDefaultOracle",
          "type": "address"
        }
      ],
      "name": "setDefaultOracle",
      "outputs": [],
      "stateMutability": "nonpayable",
      "type": "function"
    },
    {
      "inputs": [
        {
          "internalType": "address",
          "name": "_proposedGovernor",
          "type": "address"
        }
      ],
      "name": "transferGovernorship",
      "outputs": [],
      "stateMutability": "nonpayable",
      "type": "function"
    }
  ],
  "transactionHash": "0x3cbc421c7587290a15943766e5b47731be2b2470eca9f13a564dbb9771e2c9ef",
  "args": [],
  "numDeployments": 1,
  "solcInputHash": "0077a7bd8b2b7c639ec050e1f3a43041",
  "bytecode": "0x608060405234801561001057600080fd5b506000805462010000600160b01b03191633620100008102919091178255604051909182917fd4459d5b8b913cab0244230fd9b1c08b6ceace7fe9230e60d0f74cbffdf849d0908290a350610f198061006a6000396000f3fe608060405234801561001057600080fd5b50600436106100a95760003560e01c806389f74c0c1161007157806389f74c0c14610139578063addd50991461014c578063b6aa515b14610175578063c44014d214610188578063ee9579961461019b578063f3b27bc3146101ae57600080fd5b80630c340a24146100ae578063248391ff146100dd5780635274ac3f146100fe57806357f1915d1461011357806380dce16914610126575b600080fd5b6000546100c7906201000090046001600160a01b031681565b6040516100d49190610a91565b60405180910390f35b6100f06100eb366004610aba565b6101b6565b6040519081526020016100d4565b61011161010c366004610b47565b6101d8565b005b6100f0610121366004610bcb565b610281565b6003546100c7906001600160a01b031681565b610111610147366004610bf7565b610328565b6100c761015a366004610c63565b6002602052600090815260409020546001600160a01b031681565b610111610183366004610c63565b610395565b610111610196366004610c63565b61043a565b6100f06101a9366004610bcb565b610531565b6101116105c5565b6000806101c38584610531565b90506101cf8482610281565b95945050505050565b600054610100900460ff16806101f1575060005460ff16155b6102165760405162461bcd60e51b815260040161020d90610c87565b60405180910390fd5b600054610100900460ff16158015610238576000805461ffff19166101011790555b610240610693565b61024c86868686610749565b600380546001600160a01b0319166001600160a01b0384161790558015610279576000805461ff00191690555b505050505050565b60008061028d84610925565b905080846001600160a01b031663313ce5676040518163ffffffff1660e01b815260040160206040518083038186803b1580156102c957600080fd5b505afa1580156102dd573d6000803e3d6000fd5b505050506040513d601f19601f820116820180604052508101906103019190610cd5565b61030c90600a610df4565b6103169085610e03565b6103209190610e22565b949350505050565b6000546001600160a01b03620100009091041633146103595760405162461bcd60e51b815260040161020d90610e44565b821580159061036757508015155b6103835760405162461bcd60e51b815260040161020d90610e6a565b61038f84848484610749565b50505050565b6000546001600160a01b03620100009091041633146103c65760405162461bcd60e51b815260040161020d90610e44565b6001600160a01b0381166104185760405162461bcd60e51b815260206004820152601960248201527870726f706f7365642d676f7665726e6f722d69732d7a65726f60381b604482015260640161020d565b600180546001600160a01b0319166001600160a01b0392909216919091179055565b6000546001600160a01b036201000090910416331461046b5760405162461bcd60e51b815260040161020d90610e44565b6003546001600160a01b039081169082168114156104cb5760405162461bcd60e51b815260206004820152601d60248201527f6e65772d6f7261636c652d69732d73616d652d61732d63757272656e74000000604482015260640161020d565b604080516001600160a01b038084168252841660208201527f91f0076b6a62d3cb799d1ebce63c4e8d031ed0a90443b8f6172b391682b58f4b910160405180910390a150600380546001600160a01b0319166001600160a01b0392909216919091179055565b60008061053d84610925565b9050836001600160a01b031663313ce5676040518163ffffffff1660e01b815260040160206040518083038186803b15801561057857600080fd5b505afa15801561058c573d6000803e3d6000fd5b505050506040513d601f19601f820116820180604052508101906105b09190610cd5565b6105bb90600a610df4565b6103168285610e03565b6001546001600160a01b0316331461061b5760405162461bcd60e51b81526020600482015260196024820152783737ba16ba343296b83937b837b9b2b216b3b7bb32b93737b960391b604482015260640161020d565b600154600080546040516001600160a01b039384169362010000909204909116917fd4459d5b8b913cab0244230fd9b1c08b6ceace7fe9230e60d0f74cbffdf849d091a3600180546000805462010000600160b01b0319166001600160a01b03831662010000021790556001600160a01b0319169055565b600054610100900460ff16806106ac575060005460ff16155b6106c85760405162461bcd60e51b815260040161020d90610c87565b600054610100900460ff161580156106ea576000805461ffff19166101011790555b6000805462010000600160b01b03191633620100008102919091178255604051909182917fd4459d5b8b913cab0244230fd9b1c08b6ceace7fe9230e60d0f74cbffdf849d0908290a3508015610746576000805461ff00191690555b50565b828181146107695760405162461bcd60e51b815260040161020d90610e6a565b60005b8181101561027957600086868381811061078857610788610e99565b905060200201602081019061079d9190610c63565b90506001600160a01b0381166107f15760405162461bcd60e51b8152602060048201526019602482015278616e2d61737365742d6861732d6e756c6c2d6164647265737360381b604482015260640161020d565b6001600160a01b038082166000908152600260205260408120549091169086868581811061082157610821610e99565b90506020020160208101906108369190610c63565b9050816001600160a01b0316816001600160a01b0316141561089a5760405162461bcd60e51b815260206004820152601c60248201527f612d6e65772d6f7261636c652d73616d652d61732d63757272656e7400000000604482015260640161020d565b604080516001600160a01b038581168252848116602083015283168183015290517fa18d4edc0f9c89f7feb41d0243d7f20bf44c5b426ede1cc1014a31ab8eb724899181900360600190a16001600160a01b03928316600090815260026020526040902080546001600160a01b0319169190931617909155508061091d81610eaf565b91505061076c565b6001600160a01b0380821660009081526002602052604081205490911680156109cb576040516307ee40bf60e01b81526001600160a01b038216906307ee40bf90610974908690600401610a91565b60206040518083038186803b15801561098c57600080fd5b505afa1580156109a0573d6000803e3d6000fd5b505050506040513d601f19601f820116820180604052508101906109c49190610eca565b9150610a4b565b6003546001600160a01b031615610a0c576003546040516307ee40bf60e01b81526001600160a01b03909116906307ee40bf90610974908690600401610a91565b60405162461bcd60e51b815260206004820152601460248201527361737365742d776974686f75742d6f7261636c6560601b604482015260640161020d565b60008211610a8b5760405162461bcd60e51b815260206004820152600d60248201526c696e76616c69642d707269636560981b604482015260640161020d565b50919050565b6001600160a01b0391909116815260200190565b6001600160a01b038116811461074657600080fd5b600080600060608486031215610acf57600080fd5b8335610ada81610aa5565b92506020840135610aea81610aa5565b929592945050506040919091013590565b60008083601f840112610b0d57600080fd5b50813567ffffffffffffffff811115610b2557600080fd5b6020830191508360208260051b8501011115610b4057600080fd5b9250929050565b600080600080600060608688031215610b5f57600080fd5b853567ffffffffffffffff80821115610b7757600080fd5b610b8389838a01610afb565b90975095506020880135915080821115610b9c57600080fd5b50610ba988828901610afb565b9094509250506040860135610bbd81610aa5565b809150509295509295909350565b60008060408385031215610bde57600080fd5b8235610be981610aa5565b946020939093013593505050565b60008060008060408587031215610c0d57600080fd5b843567ffffffffffffffff80821115610c2557600080fd5b610c3188838901610afb565b90965094506020870135915080821115610c4a57600080fd5b50610c5787828801610afb565b95989497509550505050565b600060208284031215610c7557600080fd5b8135610c8081610aa5565b9392505050565b6020808252602e908201527f496e697469616c697a61626c653a20636f6e747261637420697320616c72656160408201526d191e481a5b9a5d1a585b1a5e995960921b606082015260800190565b600060208284031215610ce757600080fd5b815160ff81168114610c8057600080fd5b634e487b7160e01b600052601160045260246000fd5b600181815b80851115610d49578160001904821115610d2f57610d2f610cf8565b80851615610d3c57918102915b93841c9390800290610d13565b509250929050565b600082610d6057506001610dee565b81610d6d57506000610dee565b8160018114610d835760028114610d8d57610da9565b6001915050610dee565b60ff841115610d9e57610d9e610cf8565b50506001821b610dee565b5060208310610133831016604e8410600b8410161715610dcc575081810a610dee565b610dd68383610d0e565b8060001904821115610dea57610dea610cf8565b0290505b92915050565b6000610c8060ff841683610d51565b6000816000190483118215151615610e1d57610e1d610cf8565b500290565b600082610e3f57634e487b7160e01b600052601260045260246000fd5b500490565b6020808252600c908201526b3737ba16b3b7bb32b93737b960a11b604082015260600190565b6020808252601590820152740d2dcecc2d8d2c85ac2e4e4c2f2e65ad8cadccee8d605b1b604082015260600190565b634e487b7160e01b600052603260045260246000fd5b6000600019821415610ec357610ec3610cf8565b5060010190565b600060208284031215610edc57600080fd5b505191905056fea264697066735822122066314e1b33ead291b6db8f44758d4e3f4dde2521c6511a30f29abb7a7f2340df64736f6c63430008090033",
  "devdoc": {
    "kind": "dev",
    "methods": {
      "acceptGovernorship()": {
        "details": "Allows new governor to accept governorship of the contract."
      },
      "addOrUpdate(address[],address[])": {
        "params": {
          "_assets": "The ERC20 asset addresses to link to `_oracles`",
          "_oracles": "The `IOracle` contracts to be assigned to `_assets`"
        }
      },
      "convert(address,address,uint256)": {
        "params": {
          "_amountIn": "The amount to convert from",
          "_assetIn": "The asset to convert from",
          "_assetOut": "The asset to convert to"
        },
        "returns": {
          "_amountOut": "The converted amount"
        }
      },
      "convertFromUsd(address,uint256)": {
        "params": {
          "_amountInUsd": "The amount in USD (18 decimals)",
          "_asset": "The asset's address"
        },
        "returns": {
          "_amount": "The converted amount"
        }
      },
      "convertToUsd(address,uint256)": {
        "params": {
          "_amount": "The amount to convert",
          "_asset": "The asset's address"
        },
        "returns": {
          "_amountInUsd": "The amount in USD (18 decimals)"
        }
      },
      "setDefaultOracle(address)": {
        "details": "We allow null address in order to turn off the default oracle",
        "params": {
          "_newDefaultOracle": "The new default oracle contract"
        }
      },
      "transferGovernorship(address)": {
        "details": "Transfers governorship of the contract to a new account (`proposedGovernor`). Can only be called by the current owner."
      }
    },
    "title": "The Master oracle that is called by `Controller`",
    "version": 1
  },
  "userdoc": {
    "events": {
      "DefaultOracleUpdated(address,address)": {
        "notice": "Event emitted when the default oracle is updated"
      },
      "OracleUpdated(address,address,address)": {
        "notice": "Event emitted when a asset's oracle is updated"
      }
    },
    "kind": "user",
    "methods": {
      "addOrUpdate(address[],address[])": {
        "notice": "Add or update token oracles"
      },
      "convert(address,address,uint256)": {
        "notice": "Convert assets' amounts"
      },
      "convertFromUsd(address,uint256)": {
        "notice": "Convert USD to asset's amount"
      },
      "convertToUsd(address,uint256)": {
        "notice": "Convert asset's amount to USD"
      },
      "defaultOracle()": {
        "notice": "The Default/fallback oracle"
      },
      "oracles(address)": {
        "notice": "Maps asset addresses to oracle contracts"
      },
      "setDefaultOracle(address)": {
        "notice": "Update the default oracle contract"
      }
    },
    "version": 1
  },
  "storageLayout": {
    "storage": [
      {
        "astId": 7181,
        "contract": "contracts/oracle/MasterOracle.sol:MasterOracle",
        "label": "_initialized",
        "offset": 0,
        "slot": "0",
        "type": "t_bool"
      },
      {
        "astId": 7184,
        "contract": "contracts/oracle/MasterOracle.sol:MasterOracle",
        "label": "_initializing",
        "offset": 1,
        "slot": "0",
        "type": "t_bool"
      },
      {
        "astId": 6017,
        "contract": "contracts/oracle/MasterOracle.sol:MasterOracle",
        "label": "governor",
        "offset": 2,
        "slot": "0",
        "type": "t_address"
      },
      {
        "astId": 6019,
        "contract": "contracts/oracle/MasterOracle.sol:MasterOracle",
        "label": "proposedGovernor",
        "offset": 0,
        "slot": "1",
        "type": "t_address"
      },
      {
        "astId": 13509,
        "contract": "contracts/oracle/MasterOracle.sol:MasterOracle",
        "label": "oracles",
        "offset": 0,
        "slot": "2",
        "type": "t_mapping(t_address,t_contract(IOracle)11339)"
      },
      {
        "astId": 13513,
        "contract": "contracts/oracle/MasterOracle.sol:MasterOracle",
        "label": "defaultOracle",
        "offset": 0,
        "slot": "3",
        "type": "t_contract(IOracle)11339"
      }
    ],
    "types": {
      "t_address": {
        "encoding": "inplace",
        "label": "address",
        "numberOfBytes": "20"
      },
      "t_bool": {
        "encoding": "inplace",
        "label": "bool",
        "numberOfBytes": "1"
      },
      "t_contract(IOracle)11339": {
        "encoding": "inplace",
        "label": "contract IOracle",
        "numberOfBytes": "20"
      },
      "t_mapping(t_address,t_contract(IOracle)11339)": {
        "encoding": "mapping",
        "key": "t_address",
        "label": "mapping(address => contract IOracle)",
        "numberOfBytes": "32",
        "value": "t_contract(IOracle)11339"
      }
    }
  }
}