{
  "address": "0x15f2450c5B3f9Ef15894DdAd81a9c3E1D0E14896",
  "abi": [
    {
      "anonymous": false,
      "inputs": [
        {
          "indexed": false,
          "internalType": "contract IOracle",
          "name": "oldOracle",
          "type": "address"
        },
        {
          "indexed": false,
          "internalType": "contract IOracle",
          "name": "newOracle",
          "type": "address"
        }
      ],
      "name": "DefaultOracleUpdated",
      "type": "event"
    },
    {
      "anonymous": false,
      "inputs": [
        {
          "indexed": false,
          "internalType": "address",
          "name": "asset",
          "type": "address"
        },
        {
          "indexed": false,
          "internalType": "contract IOracle",
          "name": "oldOracle",
          "type": "address"
        },
        {
          "indexed": false,
          "internalType": "contract IOracle",
          "name": "newOracle",
          "type": "address"
        }
      ],
      "name": "OracleUpdated",
      "type": "event"
    },
    {
      "anonymous": false,
      "inputs": [
        {
          "indexed": true,
          "internalType": "address",
          "name": "previousGovernor",
          "type": "address"
        },
        {
          "indexed": true,
          "internalType": "address",
          "name": "proposedGovernor",
          "type": "address"
        }
      ],
      "name": "UpdatedGovernor",
      "type": "event"
    },
    {
      "stateMutability": "payable",
      "type": "fallback"
    },
    {
      "inputs": [],
      "name": "acceptGovernorship",
      "outputs": [],
      "stateMutability": "nonpayable",
      "type": "function"
    },
    {
      "inputs": [
        {
          "internalType": "address[]",
          "name": "_assets",
          "type": "address[]"
        },
        {
          "internalType": "contract IOracle[]",
          "name": "_oracles",
          "type": "address[]"
        }
      ],
      "name": "addOrUpdate",
      "outputs": [],
      "stateMutability": "nonpayable",
      "type": "function"
    },
    {
      "inputs": [],
      "name": "defaultOracle",
      "outputs": [
        {
          "internalType": "contract IOracle",
          "name": "",
          "type": "address"
        }
      ],
      "stateMutability": "view",
      "type": "function"
    },
    {
      "inputs": [],
      "name": "governor",
      "outputs": [
        {
          "internalType": "address",
          "name": "",
          "type": "address"
        }
      ],
      "stateMutability": "view",
      "type": "function"
    },
    {
      "inputs": [
        {
          "internalType": "address[]",
          "name": "_assets",
          "type": "address[]"
        },
        {
          "internalType": "contract IOracle[]",
          "name": "_oracles",
          "type": "address[]"
        },
        {
          "internalType": "contract IOracle",
          "name": "_defaultOracle",
          "type": "address"
        }
      ],
      "name": "initialize",
      "outputs": [],
      "stateMutability": "nonpayable",
      "type": "function"
    },
    {
      "inputs": [
        {
          "internalType": "address",
          "name": "",
          "type": "address"
        }
      ],
      "name": "oracles",
      "outputs": [
        {
          "internalType": "contract IOracle",
          "name": "",
          "type": "address"
        }
      ],
      "stateMutability": "view",
      "type": "function"
    },
    {
      "inputs": [],
      "name": "proposedGovernor",
      "outputs": [
        {
          "internalType": "address",
          "name": "",
          "type": "address"
        }
      ],
      "stateMutability": "view",
      "type": "function"
    },
    {
      "inputs": [
        {
          "internalType": "contract IERC20",
          "name": "_assetIn",
          "type": "address"
        },
        {
          "internalType": "contract IERC20",
          "name": "_assetOut",
          "type": "address"
        },
        {
          "internalType": "uint256",
          "name": "_amountIn",
          "type": "uint256"
        }
      ],
      "name": "quote",
      "outputs": [
        {
          "internalType": "uint256",
          "name": "_amountOut",
          "type": "uint256"
        }
      ],
      "stateMutability": "view",
      "type": "function"
    },
    {
      "inputs": [
        {
          "internalType": "contract IERC20",
          "name": "_asset",
          "type": "address"
        },
        {
          "internalType": "uint256",
          "name": "_amount",
          "type": "uint256"
        }
      ],
      "name": "quoteTokenToUsd",
      "outputs": [
        {
          "internalType": "uint256",
          "name": "_amountInUsd",
          "type": "uint256"
        }
      ],
      "stateMutability": "view",
      "type": "function"
    },
    {
      "inputs": [
        {
          "internalType": "contract IERC20",
          "name": "_asset",
          "type": "address"
        },
        {
          "internalType": "uint256",
          "name": "_amountInUsd",
          "type": "uint256"
        }
      ],
      "name": "quoteUsdToToken",
      "outputs": [
        {
          "internalType": "uint256",
          "name": "_amount",
          "type": "uint256"
        }
      ],
      "stateMutability": "view",
      "type": "function"
    },
    {
      "inputs": [
        {
          "internalType": "contract IOracle",
          "name": "_newDefaultOracle",
          "type": "address"
        }
      ],
      "name": "setDefaultOracle",
      "outputs": [],
      "stateMutability": "nonpayable",
      "type": "function"
    },
    {
      "inputs": [
        {
          "internalType": "contract IERC20",
          "name": "_token",
          "type": "address"
        },
        {
          "internalType": "address",
          "name": "_to",
          "type": "address"
        },
        {
          "internalType": "uint256",
          "name": "_amount",
          "type": "uint256"
        }
      ],
      "name": "sweep",
      "outputs": [],
      "stateMutability": "nonpayable",
      "type": "function"
    },
    {
      "inputs": [
        {
          "internalType": "address",
          "name": "_proposedGovernor",
          "type": "address"
        }
      ],
      "name": "transferGovernorship",
      "outputs": [],
      "stateMutability": "nonpayable",
      "type": "function"
    },
    {
      "stateMutability": "payable",
      "type": "receive"
    }
  ],
  "transactionHash": "0x30c17e08b787f5d83bd1b57afe9afaf923b04d53b30696265250212db4e686e5",
  "args": [],
  "numDeployments": 1,
  "solcInputHash": "d8b118bc2b869f1cad3e67e355255d78",
  "bytecode": "0x608060405234801561001057600080fd5b506000805462010000600160b01b03191633620100008102919091178255604051909182917fd4459d5b8b913cab0244230fd9b1c08b6ceace7fe9230e60d0f74cbffdf849d0908290a3506115278061006a6000396000f3fe6080604052600436106100b65760003560e01c80638d0dba001161006f5780638d0dba001461021b578063addd509914610249578063b5e9bef51461027f578063b64663841461029f578063b6aa515b146102bf578063c44014d2146102df578063f3b27bc3146102ff576100fe565b80630c340a241461013d5780635274ac3f1461017957806362c067671461019b57806380dce169146101bb57806389f74c0c146101db5780638a11a370146101fb576100fe565b366100fe5760405162461bcd60e51b81526020600482015260136024820152721c9958d95a5d994b5b9bdd0b585b1b1bddd959606a1b60448201526064015b60405180910390fd5b60405162461bcd60e51b815260206004820152601460248201527319985b1b189858dacb5b9bdd0b585b1b1bddd95960621b60448201526064016100f5565b34801561014957600080fd5b50600054610163906201000090046001600160a01b031681565b6040516101709190611009565b60405180910390f35b34801561018557600080fd5b5061019961019436600461107e565b610314565b005b3480156101a757600080fd5b506101996101b6366004611102565b6103b4565b3480156101c757600080fd5b50600354610163906001600160a01b031681565b3480156101e757600080fd5b506101996101f6366004611143565b6103ed565b34801561020757600080fd5b50600154610163906001600160a01b031681565b34801561022757600080fd5b5061023b6102363660046111af565b61045a565b604051908152602001610170565b34801561025557600080fd5b506101636102643660046111db565b6002602052600090815260409020546001600160a01b031681565b34801561028b57600080fd5b5061023b61029a3660046111af565b610500565b3480156102ab57600080fd5b5061023b6102ba366004611102565b610595565b3480156102cb57600080fd5b506101996102da3660046111db565b6105b7565b3480156102eb57600080fd5b506101996102fa3660046111db565b61065c565b34801561030b57600080fd5b50610199610753565b600054610100900460ff168061032d575060005460ff16155b6103495760405162461bcd60e51b81526004016100f5906111f8565b600054610100900460ff1615801561036b576000805461ffff19166101011790555b610373610821565b61037f868686866108d7565b600380546001600160a01b0319166001600160a01b03841617905580156103ac576000805461ff00191690555b505050505050565b6103bc610ab3565b6001600160a01b0383166103d9576103d48282610ae6565b505050565b6103d46001600160a01b0384168383610bff565b6000546001600160a01b036201000090910416331461041e5760405162461bcd60e51b81526004016100f590611246565b821580159061042c57508015155b6104485760405162461bcd60e51b81526004016100f59061126c565b610454848484846108d7565b50505050565b60008061046684610c51565b9050836001600160a01b031663313ce5676040518163ffffffff1660e01b815260040160206040518083038186803b1580156104a157600080fd5b505afa1580156104b5573d6000803e3d6000fd5b505050506040513d601f19601f820116820180604052508101906104d9919061129b565b6104e490600a6113ba565b6104ee82856113c9565b6104f891906113e8565b949350505050565b60008061050c84610c51565b905080846001600160a01b031663313ce5676040518163ffffffff1660e01b815260040160206040518083038186803b15801561054857600080fd5b505afa15801561055c573d6000803e3d6000fd5b505050506040513d601f19601f82011682018060405250810190610580919061129b565b61058b90600a6113ba565b6104ee90856113c9565b6000806105a2858461045a565b90506105ae8482610500565b95945050505050565b6000546001600160a01b03620100009091041633146105e85760405162461bcd60e51b81526004016100f590611246565b6001600160a01b03811661063a5760405162461bcd60e51b815260206004820152601960248201527870726f706f7365642d676f7665726e6f722d69732d7a65726f60381b60448201526064016100f5565b600180546001600160a01b0319166001600160a01b0392909216919091179055565b6000546001600160a01b036201000090910416331461068d5760405162461bcd60e51b81526004016100f590611246565b6003546001600160a01b039081169082168114156106ed5760405162461bcd60e51b815260206004820152601d60248201527f6e65772d6f7261636c652d69732d73616d652d61732d63757272656e7400000060448201526064016100f5565b604080516001600160a01b038084168252841660208201527f91f0076b6a62d3cb799d1ebce63c4e8d031ed0a90443b8f6172b391682b58f4b910160405180910390a150600380546001600160a01b0319166001600160a01b0392909216919091179055565b6001546001600160a01b031633146107a95760405162461bcd60e51b81526020600482015260196024820152783737ba16ba343296b83937b837b9b2b216b3b7bb32b93737b960391b60448201526064016100f5565b600154600080546040516001600160a01b039384169362010000909204909116917fd4459d5b8b913cab0244230fd9b1c08b6ceace7fe9230e60d0f74cbffdf849d091a3600180546000805462010000600160b01b0319166001600160a01b03831662010000021790556001600160a01b0319169055565b600054610100900460ff168061083a575060005460ff16155b6108565760405162461bcd60e51b81526004016100f5906111f8565b600054610100900460ff16158015610878576000805461ffff19166101011790555b6000805462010000600160b01b03191633620100008102919091178255604051909182917fd4459d5b8b913cab0244230fd9b1c08b6ceace7fe9230e60d0f74cbffdf849d0908290a35080156108d4576000805461ff00191690555b50565b828181146108f75760405162461bcd60e51b81526004016100f59061126c565b60005b818110156103ac5760008686838181106109165761091661140a565b905060200201602081019061092b91906111db565b90506001600160a01b03811661097f5760405162461bcd60e51b8152602060048201526019602482015278616e2d61737365742d6861732d6e756c6c2d6164647265737360381b60448201526064016100f5565b6001600160a01b03808216600090815260026020526040812054909116908686858181106109af576109af61140a565b90506020020160208101906109c491906111db565b9050816001600160a01b0316816001600160a01b03161415610a285760405162461bcd60e51b815260206004820152601c60248201527f612d6e65772d6f7261636c652d73616d652d61732d63757272656e740000000060448201526064016100f5565b604080516001600160a01b038581168252848116602083015283168183015290517fa18d4edc0f9c89f7feb41d0243d7f20bf44c5b426ede1cc1014a31ab8eb724899181900360600190a16001600160a01b03928316600090815260026020526040902080546001600160a01b03191691909316179091555080610aab81611420565b9150506108fa565b6000546001600160a01b0362010000909104163314610ae45760405162461bcd60e51b81526004016100f590611246565b565b80471015610b365760405162461bcd60e51b815260206004820152601d60248201527f416464726573733a20696e73756666696369656e742062616c616e636500000060448201526064016100f5565b6000826001600160a01b03168260405160006040518083038185875af1925050503d8060008114610b83576040519150601f19603f3d011682016040523d82523d6000602084013e610b88565b606091505b50509050806103d45760405162461bcd60e51b815260206004820152603a60248201527f416464726573733a20756e61626c6520746f2073656e642076616c75652c207260448201527f6563697069656e74206d6179206861766520726576657274656400000000000060648201526084016100f5565b604080516001600160a01b038416602482015260448082018490528251808303909101815260649091019091526020810180516001600160e01b031663a9059cbb60e01b1790526103d4908490610dbd565b6001600160a01b038082166000908152600260205260408120549091168015610cf7576040516307ee40bf60e01b81526001600160a01b038216906307ee40bf90610ca0908690600401611009565b60206040518083038186803b158015610cb857600080fd5b505afa158015610ccc573d6000803e3d6000fd5b505050506040513d601f19601f82011682018060405250810190610cf0919061143b565b9150610d77565b6003546001600160a01b031615610d38576003546040516307ee40bf60e01b81526001600160a01b03909116906307ee40bf90610ca0908690600401611009565b60405162461bcd60e51b815260206004820152601460248201527361737365742d776974686f75742d6f7261636c6560601b60448201526064016100f5565b60008211610db75760405162461bcd60e51b815260206004820152600d60248201526c696e76616c69642d707269636560981b60448201526064016100f5565b50919050565b6000610e12826040518060400160405280602081526020017f5361666545524332303a206c6f772d6c6576656c2063616c6c206661696c6564815250856001600160a01b0316610e8f9092919063ffffffff16565b8051909150156103d45780806020019051810190610e309190611454565b6103d45760405162461bcd60e51b815260206004820152602a60248201527f5361666545524332303a204552433230206f7065726174696f6e20646964206e6044820152691bdd081cdd58d8d9595960b21b60648201526084016100f5565b6060610e9e8484600085610ea8565b90505b9392505050565b606082471015610f095760405162461bcd60e51b815260206004820152602660248201527f416464726573733a20696e73756666696369656e742062616c616e636520666f6044820152651c8818d85b1b60d21b60648201526084016100f5565b843b610f575760405162461bcd60e51b815260206004820152601d60248201527f416464726573733a2063616c6c20746f206e6f6e2d636f6e747261637400000060448201526064016100f5565b600080866001600160a01b03168587604051610f7391906114a2565b60006040518083038185875af1925050503d8060008114610fb0576040519150601f19603f3d011682016040523d82523d6000602084013e610fb5565b606091505b5091509150610fc5828286610fd0565b979650505050505050565b60608315610fdf575081610ea1565b825115610fef5782518084602001fd5b8160405162461bcd60e51b81526004016100f591906114be565b6001600160a01b0391909116815260200190565b60008083601f84011261102f57600080fd5b50813567ffffffffffffffff81111561104757600080fd5b6020830191508360208260051b850101111561106257600080fd5b9250929050565b6001600160a01b03811681146108d457600080fd5b60008060008060006060868803121561109657600080fd5b853567ffffffffffffffff808211156110ae57600080fd5b6110ba89838a0161101d565b909750955060208801359150808211156110d357600080fd5b506110e08882890161101d565b90945092505060408601356110f481611069565b809150509295509295909350565b60008060006060848603121561111757600080fd5b833561112281611069565b9250602084013561113281611069565b929592945050506040919091013590565b6000806000806040858703121561115957600080fd5b843567ffffffffffffffff8082111561117157600080fd5b61117d8883890161101d565b9096509450602087013591508082111561119657600080fd5b506111a38782880161101d565b95989497509550505050565b600080604083850312156111c257600080fd5b82356111cd81611069565b946020939093013593505050565b6000602082840312156111ed57600080fd5b8135610ea181611069565b6020808252602e908201527f496e697469616c697a61626c653a20636f6e747261637420697320616c72656160408201526d191e481a5b9a5d1a585b1a5e995960921b606082015260800190565b6020808252600c908201526b3737ba16b3b7bb32b93737b960a11b604082015260600190565b6020808252601590820152740d2dcecc2d8d2c85ac2e4e4c2f2e65ad8cadccee8d605b1b604082015260600190565b6000602082840312156112ad57600080fd5b815160ff81168114610ea157600080fd5b634e487b7160e01b600052601160045260246000fd5b600181815b8085111561130f5781600019048211156112f5576112f56112be565b8085161561130257918102915b93841c93908002906112d9565b509250929050565b600082611326575060016113b4565b81611333575060006113b4565b816001811461134957600281146113535761136f565b60019150506113b4565b60ff841115611364576113646112be565b50506001821b6113b4565b5060208310610133831016604e8410600b8410161715611392575081810a6113b4565b61139c83836112d4565b80600019048211156113b0576113b06112be565b0290505b92915050565b6000610ea160ff841683611317565b60008160001904831182151516156113e3576113e36112be565b500290565b60008261140557634e487b7160e01b600052601260045260246000fd5b500490565b634e487b7160e01b600052603260045260246000fd5b6000600019821415611434576114346112be565b5060010190565b60006020828403121561144d57600080fd5b5051919050565b60006020828403121561146657600080fd5b81518015158114610ea157600080fd5b60005b83811015611491578181015183820152602001611479565b838111156104545750506000910152565b600082516114b4818460208701611476565b9190910192915050565b60208152600082518060208401526114dd816040850160208701611476565b601f01601f1916919091016040019291505056fea264697066735822122008d9dc20fdbbdb1c07de7cc09a3e1bc6c3f1cb8e62b374c20f621fd848003df564736f6c63430008090033",
  "devdoc": {
    "kind": "dev",
    "methods": {
      "acceptGovernorship()": {
        "details": "Allows new governor to accept governorship of the contract."
      },
      "addOrUpdate(address[],address[])": {
        "params": {
          "_assets": "The ERC20 asset addresses to link to `_oracles`",
          "_oracles": "The `IOracle` contracts to be assigned to `_assets`"
        }
      },
      "quote(address,address,uint256)": {
        "params": {
          "_amountIn": "The amount to convert from",
          "_assetIn": "The asset to convert from",
          "_assetOut": "The asset to convert to"
        },
        "returns": {
          "_amountOut": "The converted amount"
        }
      },
      "quoteTokenToUsd(address,uint256)": {
        "params": {
          "_amount": "The amount to convert",
          "_asset": "The asset's address"
        },
        "returns": {
          "_amountInUsd": "The amount in USD (18 decimals)"
        }
      },
      "quoteUsdToToken(address,uint256)": {
        "params": {
          "_amountInUsd": "The amount in USD (18 decimals)",
          "_asset": "The asset's address"
        },
        "returns": {
          "_amount": "The converted amount"
        }
      },
      "setDefaultOracle(address)": {
        "details": "We allow null address in order to turn off the default oracle",
        "params": {
          "_newDefaultOracle": "The new default oracle contract"
        }
      },
      "sweep(address,address,uint256)": {
        "params": {
          "_amount": "The amount to send",
          "_to": "The recipient of the transfer",
          "_token": "The token to transfer"
        }
      },
      "transferGovernorship(address)": {
        "details": "Transfers governorship of the contract to a new account (`proposedGovernor`). Can only be called by the current owner."
      }
    },
    "title": "The Master oracle that is called by `Controller`",
    "version": 1
  },
  "userdoc": {
    "events": {
      "DefaultOracleUpdated(address,address)": {
        "notice": "Event emitted when the default oracle is updated"
      },
      "OracleUpdated(address,address,address)": {
        "notice": "Event emitted when a asset's oracle is updated"
      }
    },
    "kind": "user",
    "methods": {
      "addOrUpdate(address[],address[])": {
        "notice": "Add or update token oracles"
      },
      "defaultOracle()": {
        "notice": "The Default/fallback oracle"
      },
      "oracles(address)": {
        "notice": "Maps asset addresses to oracle contracts"
      },
      "quote(address,address,uint256)": {
        "notice": "Convert assets' amounts"
      },
      "quoteTokenToUsd(address,uint256)": {
        "notice": "Convert asset's amount to USD"
      },
      "quoteUsdToToken(address,uint256)": {
        "notice": "Convert USD to asset's amount"
      },
      "setDefaultOracle(address)": {
        "notice": "Update the default oracle contract"
      },
      "sweep(address,address,uint256)": {
        "notice": "ERC20 recovery in case of stuck tokens due direct transfers to the contract address."
      }
    },
    "version": 1
  },
  "storageLayout": {
    "storage": [
      {
        "astId": 7131,
        "contract": "contracts/oracle/MasterOracle.sol:MasterOracle",
        "label": "_initialized",
        "offset": 0,
        "slot": "0",
        "type": "t_bool"
      },
      {
        "astId": 7134,
        "contract": "contracts/oracle/MasterOracle.sol:MasterOracle",
        "label": "_initializing",
        "offset": 1,
        "slot": "0",
        "type": "t_bool"
      },
      {
        "astId": 5950,
        "contract": "contracts/oracle/MasterOracle.sol:MasterOracle",
        "label": "governor",
        "offset": 2,
        "slot": "0",
        "type": "t_address"
      },
      {
        "astId": 5952,
        "contract": "contracts/oracle/MasterOracle.sol:MasterOracle",
        "label": "proposedGovernor",
        "offset": 0,
        "slot": "1",
        "type": "t_address"
      },
      {
        "astId": 13327,
        "contract": "contracts/oracle/MasterOracle.sol:MasterOracle",
        "label": "oracles",
        "offset": 0,
        "slot": "2",
        "type": "t_mapping(t_address,t_contract(IOracle)11256)"
      },
      {
        "astId": 13331,
        "contract": "contracts/oracle/MasterOracle.sol:MasterOracle",
        "label": "defaultOracle",
        "offset": 0,
        "slot": "3",
        "type": "t_contract(IOracle)11256"
      }
    ],
    "types": {
      "t_address": {
        "encoding": "inplace",
        "label": "address",
        "numberOfBytes": "20"
      },
      "t_bool": {
        "encoding": "inplace",
        "label": "bool",
        "numberOfBytes": "1"
      },
      "t_contract(IOracle)11256": {
        "encoding": "inplace",
        "label": "contract IOracle",
        "numberOfBytes": "20"
      },
      "t_mapping(t_address,t_contract(IOracle)11256)": {
        "encoding": "mapping",
        "key": "t_address",
        "label": "mapping(address => contract IOracle)",
        "numberOfBytes": "32",
        "value": "t_contract(IOracle)11256"
      }
    }
  }
}