{
  "address": "0x10a47d6e67cDAC961A76708C6358cAd4bef2901B",
  "abi": [
    {
      "anonymous": false,
      "inputs": [
        {
          "indexed": false,
          "internalType": "contract IOracle",
          "name": "oldOracle",
          "type": "address"
        },
        {
          "indexed": false,
          "internalType": "contract IOracle",
          "name": "newOracle",
          "type": "address"
        }
      ],
      "name": "DefaultOracleUpdated",
      "type": "event"
    },
    {
      "anonymous": false,
      "inputs": [
        {
          "indexed": false,
          "internalType": "address",
          "name": "asset",
          "type": "address"
        },
        {
          "indexed": false,
          "internalType": "contract IOracle",
          "name": "oldOracle",
          "type": "address"
        },
        {
          "indexed": false,
          "internalType": "contract IOracle",
          "name": "newOracle",
          "type": "address"
        }
      ],
      "name": "OracleUpdated",
      "type": "event"
    },
    {
      "anonymous": false,
      "inputs": [
        {
          "indexed": true,
          "internalType": "address",
          "name": "previousGovernor",
          "type": "address"
        },
        {
          "indexed": true,
          "internalType": "address",
          "name": "proposedGovernor",
          "type": "address"
        }
      ],
      "name": "UpdatedGovernor",
      "type": "event"
    },
    {
      "inputs": [],
      "name": "acceptGovernorship",
      "outputs": [],
      "stateMutability": "nonpayable",
      "type": "function"
    },
    {
      "inputs": [
        {
          "internalType": "address[]",
          "name": "_assets",
          "type": "address[]"
        },
        {
          "internalType": "contract IOracle[]",
          "name": "_oracles",
          "type": "address[]"
        }
      ],
      "name": "addOrUpdate",
      "outputs": [],
      "stateMutability": "nonpayable",
      "type": "function"
    },
    {
      "inputs": [
        {
          "internalType": "contract IERC20",
          "name": "_assetIn",
          "type": "address"
        },
        {
          "internalType": "contract IERC20",
          "name": "_assetOut",
          "type": "address"
        },
        {
          "internalType": "uint256",
          "name": "_amountIn",
          "type": "uint256"
        }
      ],
      "name": "convert",
      "outputs": [
        {
          "internalType": "uint256",
          "name": "_amountOut",
          "type": "uint256"
        }
      ],
      "stateMutability": "view",
      "type": "function"
    },
    {
      "inputs": [
        {
          "internalType": "contract IERC20",
          "name": "_asset",
          "type": "address"
        },
        {
          "internalType": "uint256",
          "name": "_amountInUsd",
          "type": "uint256"
        }
      ],
      "name": "convertFromUsd",
      "outputs": [
        {
          "internalType": "uint256",
          "name": "_amount",
          "type": "uint256"
        }
      ],
      "stateMutability": "view",
      "type": "function"
    },
    {
      "inputs": [
        {
          "internalType": "contract IERC20",
          "name": "_asset",
          "type": "address"
        },
        {
          "internalType": "uint256",
          "name": "_amount",
          "type": "uint256"
        }
      ],
      "name": "convertToUsd",
      "outputs": [
        {
          "internalType": "uint256",
          "name": "_amountInUsd",
          "type": "uint256"
        }
      ],
      "stateMutability": "view",
      "type": "function"
    },
    {
      "inputs": [],
      "name": "defaultOracle",
      "outputs": [
        {
          "internalType": "contract IOracle",
          "name": "",
          "type": "address"
        }
      ],
      "stateMutability": "view",
      "type": "function"
    },
    {
      "inputs": [],
      "name": "governor",
      "outputs": [
        {
          "internalType": "address",
          "name": "",
          "type": "address"
        }
      ],
      "stateMutability": "view",
      "type": "function"
    },
    {
      "inputs": [
        {
          "internalType": "address[]",
          "name": "_assets",
          "type": "address[]"
        },
        {
          "internalType": "contract IOracle[]",
          "name": "_oracles",
          "type": "address[]"
        },
        {
          "internalType": "contract IOracle",
          "name": "_defaultOracle",
          "type": "address"
        }
      ],
      "name": "initialize",
      "outputs": [],
      "stateMutability": "nonpayable",
      "type": "function"
    },
    {
      "inputs": [
        {
          "internalType": "address",
          "name": "",
          "type": "address"
        }
      ],
      "name": "oracles",
      "outputs": [
        {
          "internalType": "contract IOracle",
          "name": "",
          "type": "address"
        }
      ],
      "stateMutability": "view",
      "type": "function"
    },
    {
      "inputs": [],
      "name": "proposedGovernor",
      "outputs": [
        {
          "internalType": "address",
          "name": "",
          "type": "address"
        }
      ],
      "stateMutability": "view",
      "type": "function"
    },
    {
      "inputs": [
        {
          "internalType": "contract IOracle",
          "name": "_newDefaultOracle",
          "type": "address"
        }
      ],
      "name": "setDefaultOracle",
      "outputs": [],
      "stateMutability": "nonpayable",
      "type": "function"
    },
    {
      "inputs": [
        {
          "internalType": "address",
          "name": "_proposedGovernor",
          "type": "address"
        }
      ],
      "name": "transferGovernorship",
      "outputs": [],
      "stateMutability": "nonpayable",
      "type": "function"
    }
  ],
  "transactionHash": "0x3882e841c0cbba792769d0694285627ed3b662e9857d3238840382573a797148",
  "args": [],
  "numDeployments": 2,
  "solcInputHash": "9d493da7ad7feb9d41baa9f03a4d1394",
  "bytecode": "0x608060405234801561001057600080fd5b506000805462010000600160b01b03191633620100008102919091178255604051909182917fd4459d5b8b913cab0244230fd9b1c08b6ceace7fe9230e60d0f74cbffdf849d0908290a350610f378061006a6000396000f3fe608060405234801561001057600080fd5b50600436106100b45760003560e01c80638a11a370116100715780638a11a37014610157578063addd50991461016a578063b6aa515b14610193578063c44014d2146101a6578063ee957996146101b9578063f3b27bc3146101cc57600080fd5b80630c340a24146100b9578063248391ff146100e85780635274ac3f1461010957806357f1915d1461011e57806380dce1691461013157806389f74c0c14610144575b600080fd5b6000546100d2906201000090046001600160a01b031681565b6040516100df9190610aaf565b60405180910390f35b6100fb6100f6366004610ad8565b6101d4565b6040519081526020016100df565b61011c610117366004610b65565b6101f6565b005b6100fb61012c366004610be9565b61029f565b6003546100d2906001600160a01b031681565b61011c610152366004610c15565b610346565b6001546100d2906001600160a01b031681565b6100d2610178366004610c81565b6002602052600090815260409020546001600160a01b031681565b61011c6101a1366004610c81565b6103b3565b61011c6101b4366004610c81565b610458565b6100fb6101c7366004610be9565b61054f565b61011c6105e3565b6000806101e1858461054f565b90506101ed848261029f565b95945050505050565b600054610100900460ff168061020f575060005460ff16155b6102345760405162461bcd60e51b815260040161022b90610ca5565b60405180910390fd5b600054610100900460ff16158015610256576000805461ffff19166101011790555b61025e6106b1565b61026a86868686610767565b600380546001600160a01b0319166001600160a01b0384161790558015610297576000805461ff00191690555b505050505050565b6000806102ab84610943565b905080846001600160a01b031663313ce5676040518163ffffffff1660e01b815260040160206040518083038186803b1580156102e757600080fd5b505afa1580156102fb573d6000803e3d6000fd5b505050506040513d601f19601f8201168201806040525081019061031f9190610cf3565b61032a90600a610e12565b6103349085610e21565b61033e9190610e40565b949350505050565b6000546001600160a01b03620100009091041633146103775760405162461bcd60e51b815260040161022b90610e62565b821580159061038557508015155b6103a15760405162461bcd60e51b815260040161022b90610e88565b6103ad84848484610767565b50505050565b6000546001600160a01b03620100009091041633146103e45760405162461bcd60e51b815260040161022b90610e62565b6001600160a01b0381166104365760405162461bcd60e51b815260206004820152601960248201527870726f706f7365642d676f7665726e6f722d69732d7a65726f60381b604482015260640161022b565b600180546001600160a01b0319166001600160a01b0392909216919091179055565b6000546001600160a01b03620100009091041633146104895760405162461bcd60e51b815260040161022b90610e62565b6003546001600160a01b039081169082168114156104e95760405162461bcd60e51b815260206004820152601d60248201527f6e65772d6f7261636c652d69732d73616d652d61732d63757272656e74000000604482015260640161022b565b604080516001600160a01b038084168252841660208201527f91f0076b6a62d3cb799d1ebce63c4e8d031ed0a90443b8f6172b391682b58f4b910160405180910390a150600380546001600160a01b0319166001600160a01b0392909216919091179055565b60008061055b84610943565b9050836001600160a01b031663313ce5676040518163ffffffff1660e01b815260040160206040518083038186803b15801561059657600080fd5b505afa1580156105aa573d6000803e3d6000fd5b505050506040513d601f19601f820116820180604052508101906105ce9190610cf3565b6105d990600a610e12565b6103348285610e21565b6001546001600160a01b031633146106395760405162461bcd60e51b81526020600482015260196024820152783737ba16ba343296b83937b837b9b2b216b3b7bb32b93737b960391b604482015260640161022b565b600154600080546040516001600160a01b039384169362010000909204909116917fd4459d5b8b913cab0244230fd9b1c08b6ceace7fe9230e60d0f74cbffdf849d091a3600180546000805462010000600160b01b0319166001600160a01b03831662010000021790556001600160a01b0319169055565b600054610100900460ff16806106ca575060005460ff16155b6106e65760405162461bcd60e51b815260040161022b90610ca5565b600054610100900460ff16158015610708576000805461ffff19166101011790555b6000805462010000600160b01b03191633620100008102919091178255604051909182917fd4459d5b8b913cab0244230fd9b1c08b6ceace7fe9230e60d0f74cbffdf849d0908290a3508015610764576000805461ff00191690555b50565b828181146107875760405162461bcd60e51b815260040161022b90610e88565b60005b818110156102975760008686838181106107a6576107a6610eb7565b90506020020160208101906107bb9190610c81565b90506001600160a01b03811661080f5760405162461bcd60e51b8152602060048201526019602482015278616e2d61737365742d6861732d6e756c6c2d6164647265737360381b604482015260640161022b565b6001600160a01b038082166000908152600260205260408120549091169086868581811061083f5761083f610eb7565b90506020020160208101906108549190610c81565b9050816001600160a01b0316816001600160a01b031614156108b85760405162461bcd60e51b815260206004820152601c60248201527f612d6e65772d6f7261636c652d73616d652d61732d63757272656e7400000000604482015260640161022b565b604080516001600160a01b038581168252848116602083015283168183015290517fa18d4edc0f9c89f7feb41d0243d7f20bf44c5b426ede1cc1014a31ab8eb724899181900360600190a16001600160a01b03928316600090815260026020526040902080546001600160a01b0319169190931617909155508061093b81610ecd565b91505061078a565b6001600160a01b0380821660009081526002602052604081205490911680156109e9576040516307ee40bf60e01b81526001600160a01b038216906307ee40bf90610992908690600401610aaf565b60206040518083038186803b1580156109aa57600080fd5b505afa1580156109be573d6000803e3d6000fd5b505050506040513d601f19601f820116820180604052508101906109e29190610ee8565b9150610a69565b6003546001600160a01b031615610a2a576003546040516307ee40bf60e01b81526001600160a01b03909116906307ee40bf90610992908690600401610aaf565b60405162461bcd60e51b815260206004820152601460248201527361737365742d776974686f75742d6f7261636c6560601b604482015260640161022b565b60008211610aa95760405162461bcd60e51b815260206004820152600d60248201526c696e76616c69642d707269636560981b604482015260640161022b565b50919050565b6001600160a01b0391909116815260200190565b6001600160a01b038116811461076457600080fd5b600080600060608486031215610aed57600080fd5b8335610af881610ac3565b92506020840135610b0881610ac3565b929592945050506040919091013590565b60008083601f840112610b2b57600080fd5b50813567ffffffffffffffff811115610b4357600080fd5b6020830191508360208260051b8501011115610b5e57600080fd5b9250929050565b600080600080600060608688031215610b7d57600080fd5b853567ffffffffffffffff80821115610b9557600080fd5b610ba189838a01610b19565b90975095506020880135915080821115610bba57600080fd5b50610bc788828901610b19565b9094509250506040860135610bdb81610ac3565b809150509295509295909350565b60008060408385031215610bfc57600080fd5b8235610c0781610ac3565b946020939093013593505050565b60008060008060408587031215610c2b57600080fd5b843567ffffffffffffffff80821115610c4357600080fd5b610c4f88838901610b19565b90965094506020870135915080821115610c6857600080fd5b50610c7587828801610b19565b95989497509550505050565b600060208284031215610c9357600080fd5b8135610c9e81610ac3565b9392505050565b6020808252602e908201527f496e697469616c697a61626c653a20636f6e747261637420697320616c72656160408201526d191e481a5b9a5d1a585b1a5e995960921b606082015260800190565b600060208284031215610d0557600080fd5b815160ff81168114610c9e57600080fd5b634e487b7160e01b600052601160045260246000fd5b600181815b80851115610d67578160001904821115610d4d57610d4d610d16565b80851615610d5a57918102915b93841c9390800290610d31565b509250929050565b600082610d7e57506001610e0c565b81610d8b57506000610e0c565b8160018114610da15760028114610dab57610dc7565b6001915050610e0c565b60ff841115610dbc57610dbc610d16565b50506001821b610e0c565b5060208310610133831016604e8410600b8410161715610dea575081810a610e0c565b610df48383610d2c565b8060001904821115610e0857610e08610d16565b0290505b92915050565b6000610c9e60ff841683610d6f565b6000816000190483118215151615610e3b57610e3b610d16565b500290565b600082610e5d57634e487b7160e01b600052601260045260246000fd5b500490565b6020808252600c908201526b3737ba16b3b7bb32b93737b960a11b604082015260600190565b6020808252601590820152740d2dcecc2d8d2c85ac2e4e4c2f2e65ad8cadccee8d605b1b604082015260600190565b634e487b7160e01b600052603260045260246000fd5b6000600019821415610ee157610ee1610d16565b5060010190565b600060208284031215610efa57600080fd5b505191905056fea26469706673582212201214a5ede8b782d222c9dfaa2e4a0f742d939814a36a528ae37e343d1975e38964736f6c63430008090033",
  "devdoc": {
    "kind": "dev",
    "methods": {
      "acceptGovernorship()": {
        "details": "Allows new governor to accept governorship of the contract."
      },
      "addOrUpdate(address[],address[])": {
        "params": {
          "_assets": "The ERC20 asset addresses to link to `_oracles`",
          "_oracles": "The `IOracle` contracts to be assigned to `_assets`"
        }
      },
      "convert(address,address,uint256)": {
        "params": {
          "_amountIn": "The amount to convert from",
          "_assetIn": "The asset to convert from",
          "_assetOut": "The asset to convert to"
        },
        "returns": {
          "_amountOut": "The converted amount"
        }
      },
      "convertFromUsd(address,uint256)": {
        "params": {
          "_amountInUsd": "The amount in USD (18 decimals)",
          "_asset": "The asset's address"
        },
        "returns": {
          "_amount": "The converted amount"
        }
      },
      "convertToUsd(address,uint256)": {
        "params": {
          "_amount": "The amount to convert",
          "_asset": "The asset's address"
        },
        "returns": {
          "_amountInUsd": "The amount in USD (18 decimals)"
        }
      },
      "setDefaultOracle(address)": {
        "details": "We allow null address in order to turn off the default oracle",
        "params": {
          "_newDefaultOracle": "The new default oracle contract"
        }
      },
      "transferGovernorship(address)": {
        "details": "Transfers governorship of the contract to a new account (`proposedGovernor`). Can only be called by the current owner."
      }
    },
    "title": "The Master oracle that is called by `Controller`",
    "version": 1
  },
  "userdoc": {
    "events": {
      "DefaultOracleUpdated(address,address)": {
        "notice": "Event emitted when the default oracle is updated"
      },
      "OracleUpdated(address,address,address)": {
        "notice": "Event emitted when a asset's oracle is updated"
      }
    },
    "kind": "user",
    "methods": {
      "addOrUpdate(address[],address[])": {
        "notice": "Add or update token oracles"
      },
      "convert(address,address,uint256)": {
        "notice": "Convert assets' amounts"
      },
      "convertFromUsd(address,uint256)": {
        "notice": "Convert USD to asset's amount"
      },
      "convertToUsd(address,uint256)": {
        "notice": "Convert asset's amount to USD"
      },
      "defaultOracle()": {
        "notice": "The Default/fallback oracle"
      },
      "oracles(address)": {
        "notice": "Maps asset addresses to oracle contracts"
      },
      "setDefaultOracle(address)": {
        "notice": "Update the default oracle contract"
      }
    },
    "version": 1
  },
  "storageLayout": {
    "storage": [
      {
        "astId": 7184,
        "contract": "contracts/oracle/MasterOracle.sol:MasterOracle",
        "label": "_initialized",
        "offset": 0,
        "slot": "0",
        "type": "t_bool"
      },
      {
        "astId": 7187,
        "contract": "contracts/oracle/MasterOracle.sol:MasterOracle",
        "label": "_initializing",
        "offset": 1,
        "slot": "0",
        "type": "t_bool"
      },
      {
        "astId": 6020,
        "contract": "contracts/oracle/MasterOracle.sol:MasterOracle",
        "label": "governor",
        "offset": 2,
        "slot": "0",
        "type": "t_address"
      },
      {
        "astId": 6022,
        "contract": "contracts/oracle/MasterOracle.sol:MasterOracle",
        "label": "proposedGovernor",
        "offset": 0,
        "slot": "1",
        "type": "t_address"
      },
      {
        "astId": 13516,
        "contract": "contracts/oracle/MasterOracle.sol:MasterOracle",
        "label": "oracles",
        "offset": 0,
        "slot": "2",
        "type": "t_mapping(t_address,t_contract(IOracle)11342)"
      },
      {
        "astId": 13520,
        "contract": "contracts/oracle/MasterOracle.sol:MasterOracle",
        "label": "defaultOracle",
        "offset": 0,
        "slot": "3",
        "type": "t_contract(IOracle)11342"
      }
    ],
    "types": {
      "t_address": {
        "encoding": "inplace",
        "label": "address",
        "numberOfBytes": "20"
      },
      "t_bool": {
        "encoding": "inplace",
        "label": "bool",
        "numberOfBytes": "1"
      },
      "t_contract(IOracle)11342": {
        "encoding": "inplace",
        "label": "contract IOracle",
        "numberOfBytes": "20"
      },
      "t_mapping(t_address,t_contract(IOracle)11342)": {
        "encoding": "mapping",
        "key": "t_address",
        "label": "mapping(address => contract IOracle)",
        "numberOfBytes": "32",
        "value": "t_contract(IOracle)11342"
      }
    }
  }
}