{
  "address": "0x2E597e6C827A8527413C19065EC0725e03Eeac6e",
  "abi": [
    {
      "inputs": [
        {
          "internalType": "contract IWETH",
          "name": "_nativeToken",
          "type": "address"
        }
      ],
      "stateMutability": "nonpayable",
      "type": "constructor"
    },
    {
      "anonymous": false,
      "inputs": [
        {
          "indexed": true,
          "internalType": "address",
          "name": "previousGovernor",
          "type": "address"
        },
        {
          "indexed": true,
          "internalType": "address",
          "name": "proposedGovernor",
          "type": "address"
        }
      ],
      "name": "UpdatedGovernor",
      "type": "event"
    },
    {
      "stateMutability": "payable",
      "type": "fallback"
    },
    {
      "inputs": [],
      "name": "acceptGovernorship",
      "outputs": [],
      "stateMutability": "nonpayable",
      "type": "function"
    },
    {
      "inputs": [
        {
          "internalType": "contract IController",
          "name": "_controller",
          "type": "address"
        }
      ],
      "name": "deposit",
      "outputs": [],
      "stateMutability": "payable",
      "type": "function"
    },
    {
      "inputs": [],
      "name": "governor",
      "outputs": [
        {
          "internalType": "address",
          "name": "",
          "type": "address"
        }
      ],
      "stateMutability": "view",
      "type": "function"
    },
    {
      "inputs": [],
      "name": "nativeToken",
      "outputs": [
        {
          "internalType": "contract IWETH",
          "name": "",
          "type": "address"
        }
      ],
      "stateMutability": "view",
      "type": "function"
    },
    {
      "inputs": [],
      "name": "proposedGovernor",
      "outputs": [
        {
          "internalType": "address",
          "name": "",
          "type": "address"
        }
      ],
      "stateMutability": "view",
      "type": "function"
    },
    {
      "inputs": [
        {
          "internalType": "contract IERC20",
          "name": "_token",
          "type": "address"
        },
        {
          "internalType": "address",
          "name": "_to",
          "type": "address"
        },
        {
          "internalType": "uint256",
          "name": "_amount",
          "type": "uint256"
        }
      ],
      "name": "sweep",
      "outputs": [],
      "stateMutability": "nonpayable",
      "type": "function"
    },
    {
      "inputs": [
        {
          "internalType": "address",
          "name": "_proposedGovernor",
          "type": "address"
        }
      ],
      "name": "transferGovernorship",
      "outputs": [],
      "stateMutability": "nonpayable",
      "type": "function"
    },
    {
      "inputs": [
        {
          "internalType": "contract IController",
          "name": "_controller",
          "type": "address"
        },
        {
          "internalType": "uint256",
          "name": "_amount",
          "type": "uint256"
        }
      ],
      "name": "withdraw",
      "outputs": [],
      "stateMutability": "nonpayable",
      "type": "function"
    },
    {
      "stateMutability": "payable",
      "type": "receive"
    }
  ],
  "transactionHash": "0x5ae51e58d1d7fc0ffb963d3548233b646fb9d24a1d0dd7cb7c491182b9769d5d",
  "args": [
    "0xB31f66AA3C1e785363F0875A1B74E27b85FD66c7"
  ],
  "numDeployments": 1,
  "solcInputHash": "d8b118bc2b869f1cad3e67e355255d78",
  "bytecode": "0x60a060405234801561001057600080fd5b50604051610fbb380380610fbb83398101604081905261002f91610083565b600280546001600160a01b0319163390811790915560405181906000907fd4459d5b8b913cab0244230fd9b1c08b6ceace7fe9230e60d0f74cbffdf849d0908290a3506001600160a01b03166080526100b3565b60006020828403121561009557600080fd5b81516001600160a01b03811681146100ac57600080fd5b9392505050565b608051610ec46100f7600039600081816077015281816101d001528181610313015281816103ac0152818161043301528181610609015261070a0152610ec46000f3fe60806040526004361061006f5760003560e01c80630c340a241461012857806362c067671461015e5780638a11a3701461017e578063b6aa515b1461019e578063e1758bd8146101be578063f340fa01146101f2578063f3b27bc314610205578063f3fef3a31461021a576100e9565b366100e957337f00000000000000000000000000000000000000000000000000000000000000006001600160a01b0316146100e75760405162461bcd60e51b81526020600482015260136024820152721c9958d95a5d994b5b9bdd0b585b1b1bddd959606a1b60448201526064015b60405180910390fd5b005b60405162461bcd60e51b815260206004820152601460248201527319985b1b189858dacb5b9bdd0b585b1b1bddd95960621b60448201526064016100de565b34801561013457600080fd5b50600254610148906001600160a01b031681565b6040516101559190610cdf565b60405180910390f35b34801561016a57600080fd5b506100e7610179366004610d0b565b61023a565b34801561018a57600080fd5b50600354610148906001600160a01b031681565b3480156101aa57600080fd5b506100e76101b9366004610d4c565b610273565b3480156101ca57600080fd5b506101487f000000000000000000000000000000000000000000000000000000000000000081565b6100e7610200366004610d4c565b610311565b34801561021157600080fd5b506100e76104ce565b34801561022657600080fd5b506100e7610235366004610d69565b61058a565b610242610789565b6001600160a01b03831661025f5761025a82826107b5565b505050565b61025a6001600160a01b03841683836108ce565b6002546001600160a01b0316331461029d5760405162461bcd60e51b81526004016100de90610d95565b6001600160a01b0381166102ef5760405162461bcd60e51b815260206004820152601960248201527870726f706f7365642d676f7665726e6f722d69732d7a65726f60381b60448201526064016100de565b600380546001600160a01b0319166001600160a01b0392909216919091179055565b7f00000000000000000000000000000000000000000000000000000000000000006001600160a01b031663d0e30db0346040518263ffffffff1660e01b81526004016000604051808303818588803b15801561036c57600080fd5b505af1158015610380573d6000803e3d6000fd5b50506040516343e6ee4360e11b8152600093506001600160a01b03851692506387cddc8691506103d4907f000000000000000000000000000000000000000000000000000000000000000090600401610cdf565b60206040518083038186803b1580156103ec57600080fd5b505afa158015610400573d6000803e3d6000fd5b505050506040513d601f19601f820116820180604052508101906104249190610dbb565b905061045a6001600160a01b037f0000000000000000000000000000000000000000000000000000000000000000168234610931565b6001600160a01b038116636e553f6534336040516001600160e01b031960e085901b16815260048101929092526001600160a01b03166024820152604401600060405180830381600087803b1580156104b257600080fd5b505af11580156104c6573d6000803e3d6000fd5b505050505050565b6003546001600160a01b031633146105245760405162461bcd60e51b81526020600482015260196024820152783737ba16ba343296b83937b837b9b2b216b3b7bb32b93737b960391b60448201526064016100de565b6003546002546040516001600160a01b0392831692909116907fd4459d5b8b913cab0244230fd9b1c08b6ceace7fe9230e60d0f74cbffdf849d090600090a360038054600280546001600160a01b03199081166001600160a01b03841617909155169055565b600260015414156105dd5760405162461bcd60e51b815260206004820152601f60248201527f5265656e7472616e637947756172643a207265656e7472616e742063616c6c0060448201526064016100de565b60026001556040516343e6ee4360e11b81526000906001600160a01b038416906387cddc8690610631907f000000000000000000000000000000000000000000000000000000000000000090600401610cdf565b60206040518083038186803b15801561064957600080fd5b505afa15801561065d573d6000803e3d6000fd5b505050506040513d601f19601f820116820180604052508101906106819190610dbb565b90506106986001600160a01b038216333085610a55565b604051627b8a6760e11b8152600481018390523060248201526001600160a01b0382169062f714ce90604401600060405180830381600087803b1580156106de57600080fd5b505af11580156106f2573d6000803e3d6000fd5b5050604051632e1a7d4d60e01b8152600481018590527f00000000000000000000000000000000000000000000000000000000000000006001600160a01b03169250632e1a7d4d9150602401600060405180830381600087803b15801561075857600080fd5b505af115801561076c573d6000803e3d6000fd5b5050505061078061077a3390565b836107b5565b50506001805550565b6002546001600160a01b031633146107b35760405162461bcd60e51b81526004016100de90610d95565b565b804710156108055760405162461bcd60e51b815260206004820152601d60248201527f416464726573733a20696e73756666696369656e742062616c616e636500000060448201526064016100de565b6000826001600160a01b03168260405160006040518083038185875af1925050503d8060008114610852576040519150601f19603f3d011682016040523d82523d6000602084013e610857565b606091505b505090508061025a5760405162461bcd60e51b815260206004820152603a60248201527f416464726573733a20756e61626c6520746f2073656e642076616c75652c207260448201527f6563697069656e74206d6179206861766520726576657274656400000000000060648201526084016100de565b6040516001600160a01b03831660248201526044810182905261025a90849063a9059cbb60e01b906064015b60408051601f198184030181529190526020810180516001600160e01b03166001600160e01b031990931692909217909152610a93565b8015806109ba5750604051636eb1769f60e11b81523060048201526001600160a01b03838116602483015284169063dd62ed3e9060440160206040518083038186803b15801561098057600080fd5b505afa158015610994573d6000803e3d6000fd5b505050506040513d601f19601f820116820180604052508101906109b89190610dd8565b155b610a255760405162461bcd60e51b815260206004820152603660248201527f5361666545524332303a20617070726f76652066726f6d206e6f6e2d7a65726f60448201527520746f206e6f6e2d7a65726f20616c6c6f77616e636560501b60648201526084016100de565b6040516001600160a01b03831660248201526044810182905261025a90849063095ea7b360e01b906064016108fa565b6040516001600160a01b0380851660248301528316604482015260648101829052610a8d9085906323b872dd60e01b906084016108fa565b50505050565b6000610ae8826040518060400160405280602081526020017f5361666545524332303a206c6f772d6c6576656c2063616c6c206661696c6564815250856001600160a01b0316610b659092919063ffffffff16565b80519091501561025a5780806020019051810190610b069190610df1565b61025a5760405162461bcd60e51b815260206004820152602a60248201527f5361666545524332303a204552433230206f7065726174696f6e20646964206e6044820152691bdd081cdd58d8d9595960b21b60648201526084016100de565b6060610b748484600085610b7e565b90505b9392505050565b606082471015610bdf5760405162461bcd60e51b815260206004820152602660248201527f416464726573733a20696e73756666696369656e742062616c616e636520666f6044820152651c8818d85b1b60d21b60648201526084016100de565b843b610c2d5760405162461bcd60e51b815260206004820152601d60248201527f416464726573733a2063616c6c20746f206e6f6e2d636f6e747261637400000060448201526064016100de565b600080866001600160a01b03168587604051610c499190610e3f565b60006040518083038185875af1925050503d8060008114610c86576040519150601f19603f3d011682016040523d82523d6000602084013e610c8b565b606091505b5091509150610c9b828286610ca6565b979650505050505050565b60608315610cb5575081610b77565b825115610cc55782518084602001fd5b8160405162461bcd60e51b81526004016100de9190610e5b565b6001600160a01b0391909116815260200190565b6001600160a01b0381168114610d0857600080fd5b50565b600080600060608486031215610d2057600080fd5b8335610d2b81610cf3565b92506020840135610d3b81610cf3565b929592945050506040919091013590565b600060208284031215610d5e57600080fd5b8135610b7781610cf3565b60008060408385031215610d7c57600080fd5b8235610d8781610cf3565b946020939093013593505050565b6020808252600c908201526b3737ba16b3b7bb32b93737b960a11b604082015260600190565b600060208284031215610dcd57600080fd5b8151610b7781610cf3565b600060208284031215610dea57600080fd5b5051919050565b600060208284031215610e0357600080fd5b81518015158114610b7757600080fd5b60005b83811015610e2e578181015183820152602001610e16565b83811115610a8d5750506000910152565b60008251610e51818460208701610e13565b9190910192915050565b6020815260008251806020840152610e7a816040850160208701610e13565b601f01601f1916919091016040019291505056fea264697066735822122079c939028a30512cb3216c1239eae4315304cb3988a80c17f78a1068a803774e64736f6c63430008090033",
  "devdoc": {
    "kind": "dev",
    "methods": {
      "acceptGovernorship()": {
        "details": "Allows new governor to accept governorship of the contract."
      },
      "deposit(address)": {
        "params": {
          "_controller": "The Controller contract"
        }
      },
      "sweep(address,address,uint256)": {
        "params": {
          "_amount": "The amount to send",
          "_to": "The recipient of the transfer",
          "_token": "The token to transfer"
        }
      },
      "transferGovernorship(address)": {
        "details": "Transfers governorship of the contract to a new account (`proposedGovernor`). Can only be called by the current owner."
      },
      "withdraw(address,uint256)": {
        "params": {
          "_amount": "The amount of deposit tokens to withdraw and receive native ETH",
          "_controller": "The Controller contract"
        }
      }
    },
    "title": "Helper contract to easily support native tokens (e.g. ETH/AVAX) as collateral",
    "version": 1
  },
  "userdoc": {
    "kind": "user",
    "methods": {
      "deposit(address)": {
        "notice": "deposits NATIVE_TOKEN as collateral using native. A corresponding amount of the deposit token is minted."
      },
      "sweep(address,address,uint256)": {
        "notice": "ERC20 recovery in case of stuck tokens due direct transfers to the contract address."
      },
      "withdraw(address,uint256)": {
        "notice": "withdraws the NATIVE_TOKEN deposit of msg.sender."
      }
    },
    "version": 1
  },
  "storageLayout": {
    "storage": [
      {
        "astId": 7131,
        "contract": "contracts/NativeTokenGateway.sol:NativeTokenGateway",
        "label": "_initialized",
        "offset": 0,
        "slot": "0",
        "type": "t_bool"
      },
      {
        "astId": 7134,
        "contract": "contracts/NativeTokenGateway.sol:NativeTokenGateway",
        "label": "_initializing",
        "offset": 1,
        "slot": "0",
        "type": "t_bool"
      },
      {
        "astId": 7185,
        "contract": "contracts/NativeTokenGateway.sol:NativeTokenGateway",
        "label": "_status",
        "offset": 0,
        "slot": "1",
        "type": "t_uint256"
      },
      {
        "astId": 5950,
        "contract": "contracts/NativeTokenGateway.sol:NativeTokenGateway",
        "label": "governor",
        "offset": 0,
        "slot": "2",
        "type": "t_address"
      },
      {
        "astId": 5952,
        "contract": "contracts/NativeTokenGateway.sol:NativeTokenGateway",
        "label": "proposedGovernor",
        "offset": 0,
        "slot": "3",
        "type": "t_address"
      }
    ],
    "types": {
      "t_address": {
        "encoding": "inplace",
        "label": "address",
        "numberOfBytes": "20"
      },
      "t_bool": {
        "encoding": "inplace",
        "label": "bool",
        "numberOfBytes": "1"
      },
      "t_uint256": {
        "encoding": "inplace",
        "label": "uint256",
        "numberOfBytes": "32"
      }
    }
  }
}