{
  "address": "0x96a11F928ca1cD5341fFAA773A97bec85C4acf31",
  "abi": [
    {
      "anonymous": false,
      "inputs": [
        {
          "indexed": true,
          "internalType": "address",
          "name": "owner",
          "type": "address"
        },
        {
          "indexed": true,
          "internalType": "address",
          "name": "spender",
          "type": "address"
        },
        {
          "indexed": false,
          "internalType": "uint256",
          "name": "value",
          "type": "uint256"
        }
      ],
      "name": "Approval",
      "type": "event"
    },
    {
      "anonymous": false,
      "inputs": [
        {
          "indexed": true,
          "internalType": "address",
          "name": "payer",
          "type": "address"
        },
        {
          "indexed": true,
          "internalType": "address",
          "name": "account",
          "type": "address"
        },
        {
          "indexed": false,
          "internalType": "uint256",
          "name": "amount",
          "type": "uint256"
        },
        {
          "indexed": false,
          "internalType": "uint256",
          "name": "fee",
          "type": "uint256"
        }
      ],
      "name": "DebtRepaid",
      "type": "event"
    },
    {
      "anonymous": false,
      "inputs": [
        {
          "indexed": false,
          "internalType": "uint256",
          "name": "oldInterestRate",
          "type": "uint256"
        },
        {
          "indexed": false,
          "internalType": "uint256",
          "name": "newInterestRate",
          "type": "uint256"
        }
      ],
      "name": "InterestRateUpdated",
      "type": "event"
    },
    {
      "anonymous": false,
      "inputs": [
        {
          "indexed": false,
          "internalType": "uint256",
          "name": "oldMaxTotalSupply",
          "type": "uint256"
        },
        {
          "indexed": false,
          "internalType": "uint256",
          "name": "newMaxTotalSupply",
          "type": "uint256"
        }
      ],
      "name": "MaxTotalSupplyUpdated",
      "type": "event"
    },
    {
      "anonymous": false,
      "inputs": [
        {
          "indexed": false,
          "internalType": "bool",
          "name": "oldActive",
          "type": "bool"
        },
        {
          "indexed": false,
          "internalType": "bool",
          "name": "newActive",
          "type": "bool"
        }
      ],
      "name": "SyntheticTokenActiveUpdated",
      "type": "event"
    },
    {
      "anonymous": false,
      "inputs": [
        {
          "indexed": true,
          "internalType": "address",
          "name": "account",
          "type": "address"
        },
        {
          "indexed": true,
          "internalType": "address",
          "name": "to",
          "type": "address"
        },
        {
          "indexed": false,
          "internalType": "uint256",
          "name": "amount",
          "type": "uint256"
        },
        {
          "indexed": false,
          "internalType": "uint256",
          "name": "fee",
          "type": "uint256"
        }
      ],
      "name": "SyntheticTokenIssued",
      "type": "event"
    },
    {
      "anonymous": false,
      "inputs": [
        {
          "indexed": true,
          "internalType": "address",
          "name": "from",
          "type": "address"
        },
        {
          "indexed": true,
          "internalType": "address",
          "name": "to",
          "type": "address"
        },
        {
          "indexed": false,
          "internalType": "uint256",
          "name": "value",
          "type": "uint256"
        }
      ],
      "name": "Transfer",
      "type": "event"
    },
    {
      "stateMutability": "payable",
      "type": "fallback"
    },
    {
      "inputs": [],
      "name": "SECONDS_PER_YEAR",
      "outputs": [
        {
          "internalType": "uint256",
          "name": "",
          "type": "uint256"
        }
      ],
      "stateMutability": "view",
      "type": "function"
    },
    {
      "inputs": [],
      "name": "VERSION",
      "outputs": [
        {
          "internalType": "string",
          "name": "",
          "type": "string"
        }
      ],
      "stateMutability": "view",
      "type": "function"
    },
    {
      "inputs": [],
      "name": "accrueInterest",
      "outputs": [],
      "stateMutability": "nonpayable",
      "type": "function"
    },
    {
      "inputs": [
        {
          "internalType": "address",
          "name": "",
          "type": "address"
        },
        {
          "internalType": "address",
          "name": "",
          "type": "address"
        }
      ],
      "name": "allowance",
      "outputs": [
        {
          "internalType": "uint256",
          "name": "",
          "type": "uint256"
        }
      ],
      "stateMutability": "view",
      "type": "function"
    },
    {
      "inputs": [
        {
          "internalType": "address",
          "name": "spender",
          "type": "address"
        },
        {
          "internalType": "uint256",
          "name": "amount",
          "type": "uint256"
        }
      ],
      "name": "approve",
      "outputs": [
        {
          "internalType": "bool",
          "name": "",
          "type": "bool"
        }
      ],
      "stateMutability": "nonpayable",
      "type": "function"
    },
    {
      "inputs": [
        {
          "internalType": "address",
          "name": "",
          "type": "address"
        }
      ],
      "name": "balanceOf",
      "outputs": [
        {
          "internalType": "uint256",
          "name": "",
          "type": "uint256"
        }
      ],
      "stateMutability": "view",
      "type": "function"
    },
    {
      "inputs": [
        {
          "internalType": "address",
          "name": "_from",
          "type": "address"
        },
        {
          "internalType": "uint256",
          "name": "_amount",
          "type": "uint256"
        }
      ],
      "name": "burn",
      "outputs": [],
      "stateMutability": "nonpayable",
      "type": "function"
    },
    {
      "inputs": [],
      "name": "controller",
      "outputs": [
        {
          "internalType": "contract IController",
          "name": "",
          "type": "address"
        }
      ],
      "stateMutability": "view",
      "type": "function"
    },
    {
      "inputs": [],
      "name": "debtToken",
      "outputs": [
        {
          "internalType": "contract IDebtToken",
          "name": "",
          "type": "address"
        }
      ],
      "stateMutability": "view",
      "type": "function"
    },
    {
      "inputs": [],
      "name": "decimals",
      "outputs": [
        {
          "internalType": "uint8",
          "name": "",
          "type": "uint8"
        }
      ],
      "stateMutability": "view",
      "type": "function"
    },
    {
      "inputs": [
        {
          "internalType": "address",
          "name": "spender",
          "type": "address"
        },
        {
          "internalType": "uint256",
          "name": "subtractedValue",
          "type": "uint256"
        }
      ],
      "name": "decreaseAllowance",
      "outputs": [
        {
          "internalType": "bool",
          "name": "",
          "type": "bool"
        }
      ],
      "stateMutability": "nonpayable",
      "type": "function"
    },
    {
      "inputs": [],
      "name": "governor",
      "outputs": [
        {
          "internalType": "address",
          "name": "_governor",
          "type": "address"
        }
      ],
      "stateMutability": "view",
      "type": "function"
    },
    {
      "inputs": [
        {
          "internalType": "address",
          "name": "spender",
          "type": "address"
        },
        {
          "internalType": "uint256",
          "name": "addedValue",
          "type": "uint256"
        }
      ],
      "name": "increaseAllowance",
      "outputs": [
        {
          "internalType": "bool",
          "name": "",
          "type": "bool"
        }
      ],
      "stateMutability": "nonpayable",
      "type": "function"
    },
    {
      "inputs": [
        {
          "internalType": "string",
          "name": "_name",
          "type": "string"
        },
        {
          "internalType": "string",
          "name": "_symbol",
          "type": "string"
        },
        {
          "internalType": "uint8",
          "name": "_decimals",
          "type": "uint8"
        },
        {
          "internalType": "contract IController",
          "name": "_controller",
          "type": "address"
        },
        {
          "internalType": "contract IDebtToken",
          "name": "_debtToken",
          "type": "address"
        },
        {
          "internalType": "uint256",
          "name": "_interestRate",
          "type": "uint256"
        },
        {
          "internalType": "uint256",
          "name": "_maxTotalSupplyInUsd",
          "type": "uint256"
        }
      ],
      "name": "initialize",
      "outputs": [],
      "stateMutability": "nonpayable",
      "type": "function"
    },
    {
      "inputs": [],
      "name": "interestRate",
      "outputs": [
        {
          "internalType": "uint256",
          "name": "",
          "type": "uint256"
        }
      ],
      "stateMutability": "view",
      "type": "function"
    },
    {
      "inputs": [],
      "name": "interestRatePerSecond",
      "outputs": [
        {
          "internalType": "uint256",
          "name": "",
          "type": "uint256"
        }
      ],
      "stateMutability": "view",
      "type": "function"
    },
    {
      "inputs": [],
      "name": "isActive",
      "outputs": [
        {
          "internalType": "bool",
          "name": "",
          "type": "bool"
        }
      ],
      "stateMutability": "view",
      "type": "function"
    },
    {
      "inputs": [
        {
          "internalType": "uint256",
          "name": "_amount",
          "type": "uint256"
        },
        {
          "internalType": "address",
          "name": "_to",
          "type": "address"
        }
      ],
      "name": "issue",
      "outputs": [],
      "stateMutability": "nonpayable",
      "type": "function"
    },
    {
      "inputs": [],
      "name": "maxTotalSupplyInUsd",
      "outputs": [
        {
          "internalType": "uint256",
          "name": "",
          "type": "uint256"
        }
      ],
      "stateMutability": "view",
      "type": "function"
    },
    {
      "inputs": [
        {
          "internalType": "address",
          "name": "_to",
          "type": "address"
        },
        {
          "internalType": "uint256",
          "name": "_amount",
          "type": "uint256"
        }
      ],
      "name": "mint",
      "outputs": [],
      "stateMutability": "nonpayable",
      "type": "function"
    },
    {
      "inputs": [],
      "name": "name",
      "outputs": [
        {
          "internalType": "string",
          "name": "",
          "type": "string"
        }
      ],
      "stateMutability": "view",
      "type": "function"
    },
    {
      "inputs": [
        {
          "internalType": "address",
          "name": "_onBehalfOf",
          "type": "address"
        },
        {
          "internalType": "uint256",
          "name": "_amount",
          "type": "uint256"
        }
      ],
      "name": "repay",
      "outputs": [],
      "stateMutability": "nonpayable",
      "type": "function"
    },
    {
      "inputs": [
        {
          "internalType": "contract IController",
          "name": "_controller",
          "type": "address"
        }
      ],
      "name": "setController",
      "outputs": [],
      "stateMutability": "nonpayable",
      "type": "function"
    },
    {
      "inputs": [
        {
          "internalType": "contract IERC20",
          "name": "_token",
          "type": "address"
        },
        {
          "internalType": "address",
          "name": "_to",
          "type": "address"
        },
        {
          "internalType": "uint256",
          "name": "_amount",
          "type": "uint256"
        }
      ],
      "name": "sweep",
      "outputs": [],
      "stateMutability": "nonpayable",
      "type": "function"
    },
    {
      "inputs": [],
      "name": "symbol",
      "outputs": [
        {
          "internalType": "string",
          "name": "",
          "type": "string"
        }
      ],
      "stateMutability": "view",
      "type": "function"
    },
    {
      "inputs": [],
      "name": "toggleIsActive",
      "outputs": [],
      "stateMutability": "nonpayable",
      "type": "function"
    },
    {
      "inputs": [],
      "name": "totalSupply",
      "outputs": [
        {
          "internalType": "uint256",
          "name": "",
          "type": "uint256"
        }
      ],
      "stateMutability": "view",
      "type": "function"
    },
    {
      "inputs": [
        {
          "internalType": "address",
          "name": "recipient",
          "type": "address"
        },
        {
          "internalType": "uint256",
          "name": "amount",
          "type": "uint256"
        }
      ],
      "name": "transfer",
      "outputs": [
        {
          "internalType": "bool",
          "name": "",
          "type": "bool"
        }
      ],
      "stateMutability": "nonpayable",
      "type": "function"
    },
    {
      "inputs": [
        {
          "internalType": "address",
          "name": "sender",
          "type": "address"
        },
        {
          "internalType": "address",
          "name": "recipient",
          "type": "address"
        },
        {
          "internalType": "uint256",
          "name": "amount",
          "type": "uint256"
        }
      ],
      "name": "transferFrom",
      "outputs": [
        {
          "internalType": "bool",
          "name": "",
          "type": "bool"
        }
      ],
      "stateMutability": "nonpayable",
      "type": "function"
    },
    {
      "inputs": [
        {
          "internalType": "uint256",
          "name": "_newInterestRate",
          "type": "uint256"
        }
      ],
      "name": "updateInterestRate",
      "outputs": [],
      "stateMutability": "nonpayable",
      "type": "function"
    },
    {
      "inputs": [
        {
          "internalType": "uint256",
          "name": "_newMaxTotalSupplyInUsd",
          "type": "uint256"
        }
      ],
      "name": "updateMaxTotalSupplyInUsd",
      "outputs": [],
      "stateMutability": "nonpayable",
      "type": "function"
    },
    {
      "stateMutability": "payable",
      "type": "receive"
    }
  ],
  "transactionHash": "0x0b32188d1e0350f132bca27e4f33da0e3be2d1b3cc8361bd39bd03efa69615ec",
  "args": [],
  "numDeployments": 1,
  "solcInputHash": "d8b118bc2b869f1cad3e67e355255d78",
  "bytecode": "0x608060405234801561001057600080fd5b50612cd5806100206000396000f3fe60806040526004361061019c5760003560e01c80637c48da96116100e2578063b696a6ad11610085578063b696a6ad1461050b578063d25933291461052b578063dd62ed3e14610540578063e6a69ab814610578578063f77c479114610590578063f8d89898146105b0578063f9bd04e4146105d5578063ffa1ad74146105f5576101e4565b80637c48da961461042c57806392eefe9b1461044c57806395d89b411461046c5780639cc820da146104815780639dc29fac14610496578063a457c2d7146104b6578063a6afed95146104d6578063a9059cbb146104eb576101e4565b8063313ce5671161014a578063313ce56714610327578063395093511461035357806340c10f19146103735780634dac56501461039357806362c06767146103a957806370a08231146103c9578063752a50a6146103f65780637c3a00fd14610416576101e4565b806306fdde0314610223578063095ea7b31461024e5780630c340a241461027e57806318160ddd146102a057806322867d78146102c457806322f3e2d4146102e657806323b872dd14610307576101e4565b366101e45760405162461bcd60e51b81526020600482015260136024820152721c9958d95a5d994b5b9bdd0b585b1b1bddd959606a1b60448201526064015b60405180910390fd5b60405162461bcd60e51b815260206004820152601460248201527319985b1b189858dacb5b9bdd0b585b1b1bddd95960621b60448201526064016101db565b34801561022f57600080fd5b50610238610626565b60405161024591906126cd565b60405180910390f35b34801561025a57600080fd5b5061026e610269366004612715565b6106b4565b6040519015158152602001610245565b34801561028a57600080fd5b506102936106cb565b6040516102459190612741565b3480156102ac57600080fd5b506102b660385481565b604051908152602001610245565b3480156102d057600080fd5b506102e46102df366004612715565b61074d565b005b3480156102f257600080fd5b50603a5461026e90600160a81b900460ff1681565b34801561031357600080fd5b5061026e610322366004612755565b610c96565b34801561033357600080fd5b50603a546103419060ff1681565b60405160ff9091168152602001610245565b34801561035f57600080fd5b5061026e61036e366004612715565b610d35565b34801561037f57600080fd5b506102e461038e366004612715565b610d71565b34801561039f57600080fd5b506102b660395481565b3480156103b557600080fd5b506102e46103c4366004612755565b610db2565b3480156103d557600080fd5b506102b66103e4366004612796565b60346020526000908152604090205481565b34801561040257600080fd5b506102e46104113660046127b3565b610deb565b34801561042257600080fd5b506102b6603b5481565b34801561043857600080fd5b506102e4610447366004612825565b610e8d565b34801561045857600080fd5b506102e4610467366004612796565b611020565b34801561047857600080fd5b506102386110d0565b34801561048d57600080fd5b506102b66110dd565b3480156104a257600080fd5b506102e46104b1366004612715565b6110f1565b3480156104c257600080fd5b5061026e6104d1366004612715565b61112e565b3480156104e257600080fd5b506102e46111b9565b3480156104f757600080fd5b5061026e610506366004612715565b6112d2565b34801561051757600080fd5b506102e46105263660046128e2565b6112df565b34801561053757600080fd5b506102e4611a03565b34801561054c57600080fd5b506102b661055b366004612912565b603560209081526000928352604080842090915290825290205481565b34801561058457600080fd5b506102b66301e1338081565b34801561059c57600080fd5b50600254610293906001600160a01b031681565b3480156105bc57600080fd5b50603a546102939061010090046001600160a01b031681565b3480156105e157600080fd5b506102e46105f03660046127b3565b611a9f565b34801561060157600080fd5b50610238604051806040016040528060058152602001640312e302e360dc1b81525081565b6036805461063390612940565b80601f016020809104026020016040519081016040528092919081815260200182805461065f90612940565b80156106ac5780601f10610681576101008083540402835291602001916106ac565b820191906000526020600020905b81548152906001019060200180831161068f57829003601f168201915b505050505081565b60006106c1338484611b39565b5060015b92915050565b6002546040805163030d028960e21b815290516000926001600160a01b031691630c340a24916004808301926020929190829003018186803b15801561071057600080fd5b505afa158015610724573d6000803e3d6000fd5b505050506040513d601f19601f82011682018060405250810190610748919061297b565b905090565b600260009054906101000a90046001600160a01b03166001600160a01b031663ecf3a3f96040518163ffffffff1660e01b8152600401602060405180830381600087803b15801561079d57600080fd5b505af11580156107b1573d6000803e3d6000fd5b505050506040513d601f19601f820116820180604052508101906107d591906129a8565b156107f25760405162461bcd60e51b81526004016101db906129c3565b600260015414156108155760405162461bcd60e51b81526004016101db906129e9565b6002600155806108375760405162461bcd60e51b81526004016101db90612a20565b61083f6111b9565b60025460408051631f03d67d60e21b8152905133926000926001600160a01b0390911691637c0f59f49160048082019260209290919082900301818787803b15801561088a57600080fd5b505af115801561089e573d6000803e3d6000fd5b505050506040513d601f19601f820116820180604052508101906108c29190612a48565b90508260008215610987576108e96108e284670de0b6b3a7640000612a77565b8690611c47565b91506108f58286612a8f565b905061098784600260009054906101000a90046001600160a01b03166001600160a01b03166361d027b36040518163ffffffff1660e01b815260040160206040518083038186803b15801561094957600080fd5b505afa15801561095d573d6000803e3d6000fd5b505050506040513d601f19601f82011682018060405250810190610981919061297b565b83611c7b565b6002546040805163f609280960e01b815290516000926001600160a01b03169163f609280991600480830192602092919082900301818787803b1580156109cd57600080fd5b505af11580156109e1573d6000803e3d6000fd5b505050506040513d601f19601f82011682018060405250810190610a059190612a48565b90508015610bcf5760025460408051637556d1c160e11b815290516000926001600160a01b03169163eaada382916004808301926020929190829003018186803b158015610a5257600080fd5b505afa158015610a66573d6000803e3d6000fd5b505050506040513d601f19601f82011682018060405250810190610a8a919061297b565b6001600160a01b0316638d0dba003086603a60019054906101000a90046001600160a01b03166001600160a01b03166370a082318d6040518263ffffffff1660e01b8152600401610adb9190612741565b60206040518083038186803b158015610af357600080fd5b505afa158015610b07573d6000803e3d6000fd5b505050506040513d601f19601f82011682018060405250810190610b2b9190612a48565b610b359190612a8f565b6040518363ffffffff1660e01b8152600401610b52929190612aa6565b60206040518083038186803b158015610b6a57600080fd5b505afa158015610b7e573d6000803e3d6000fd5b505050506040513d601f19601f82011682018060405250810190610ba29190612a48565b9050801580610bb15750818110155b610bcd5760405162461bcd60e51b81526004016101db90612abf565b505b610bd98584611e0f565b603a54604051632770a7eb60e21b81526101009091046001600160a01b031690639dc29fac90610c0f908a908790600401612aa6565b600060405180830381600087803b158015610c2957600080fd5b505af1158015610c3d573d6000803e3d6000fd5b505060408051898152602081018690526001600160a01b03808c169450891692507fb2828294ad940d9ae096e368b4f878a8dabf30da36ce9dca5f5ad8eaf6ed052a910160405180910390a35050600180555050505050565b6000610ca3848484611c7b565b6001600160a01b03841660009081526035602090815260408083203384529091529020546000198114610d285782811015610d1b5760405162461bcd60e51b8152602060048201526018602482015277616d6f756e742d657863656564732d616c6c6f77616e636560401b60448201526064016101db565b610d288533858403611b39565b60019150505b9392505050565b3360008181526035602090815260408083206001600160a01b038716845290915281205490916106c1918590610d6c908690612a77565b611b39565b6002546001600160a01b0316336001600160a01b031614610da45760405162461bcd60e51b81526004016101db90612ae6565b610dae8282611f2e565b5050565b610dba61216e565b6001600160a01b038316610dd757610dd282826121a8565b505050565b610dd26001600160a01b03841683836122c1565b610df36106cb565b6001600160a01b0316336001600160a01b031614610e235760405162461bcd60e51b81526004016101db90612b0e565b610e2b6111b9565b603b5481811415610e4e5760405162461bcd60e51b81526004016101db90612b34565b60408051828152602081018490527f41e376fd99913dea7fda140f5c0bd997515b1a181acc58737320322548ec6e72910160405180910390a150603b55565b600054610100900460ff1680610ea6575060005460ff16155b610ec25760405162461bcd60e51b81526004016101db90612b61565b600054610100900460ff16158015610ee4576000805461ffff19166101011790555b6001600160a01b038416610f2f5760405162461bcd60e51b81526020600482015260126024820152711919589d0b5d1bdad95b8b5a5ccb5b9d5b1b60721b60448201526064016101db565b6001600160a01b038516610f855760405162461bcd60e51b815260206004820152601a60248201527f636f6e74726f6c6c65722d616464726573732d69732d7a65726f00000000000060448201526064016101db565b610f8d612317565b600280546001600160a01b0319166001600160a01b038716179055610fb460368b8b612604565b50610fc160378989612604565b50603a805460ff60a81b196001600160a01b038716610100026001600160a81b031990921660ff8a16179190911716600160a81b179055603b83905560398290558015611014576000805461ff00191690555b50505050505050505050565b6110286106cb565b6001600160a01b0316336001600160a01b0316146110585760405162461bcd60e51b81526004016101db90612b0e565b6001600160a01b0381166110ae5760405162461bcd60e51b815260206004820152601e60248201527f6e65772d636f6e74726f6c6c65722d616464726573732d69732d7a65726f000060448201526064016101db565b600280546001600160a01b0319166001600160a01b0392909216919091179055565b6037805461063390612940565b60006301e13380603b546107489190612baf565b6002546001600160a01b0316336001600160a01b0316146111245760405162461bcd60e51b81526004016101db90612ae6565b610dae8282611e0f565b3360009081526035602090815260408083206001600160a01b0386168452909152812054828110156111a25760405162461bcd60e51b815260206004820152601e60248201527f6465637265617365642d616c6c6f77616e63652d62656c6f772d7a65726f000060448201526064016101db565b6111af3385858403611b39565b5060019392505050565b6000603a60019054906101000a90046001600160a01b03166001600160a01b031663a6afed956040518163ffffffff1660e01b8152600401602060405180830381600087803b15801561120b57600080fd5b505af115801561121f573d6000803e3d6000fd5b505050506040513d601f19601f820116820180604052508101906112439190612a48565b905080156112cf57600254604080516361d027b360e01b815290516112cf926001600160a01b0316916361d027b3916004808301926020929190829003018186803b15801561129157600080fd5b505afa1580156112a5573d6000803e3d6000fd5b505050506040513d601f19601f820116820180604052508101906112c9919061297b565b82611f2e565b50565b60006106c1338484611c7b565b600260009054906101000a90046001600160a01b03166001600160a01b031663ecf3a3f96040518163ffffffff1660e01b8152600401602060405180830381600087803b15801561132f57600080fd5b505af1158015611343573d6000803e3d6000fd5b505050506040513d601f19601f8201168201806040525081019061136791906129a8565b156113845760405162461bcd60e51b81526004016101db906129c3565b600260015414156113a75760405162461bcd60e51b81526004016101db906129e9565b60026001819055546040516309bf6ca360e31b81526001600160a01b0390911690634dfb6518906113dc903090600401612741565b60206040518083038186803b1580156113f457600080fd5b505afa158015611408573d6000803e3d6000fd5b505050506040513d601f19601f8201168201806040525081019061142c91906129a8565b61146f5760405162461bcd60e51b81526020600482015260146024820152731cde5b9d1a195d1a58cb5a5b995e1a5cdd195b9d60621b60448201526064016101db565b603a54600160a81b900460ff166114985760405162461bcd60e51b81526004016101db90612bd1565b600082116114b85760405162461bcd60e51b81526004016101db90612a20565b336114c16111b9565b60025460405163dde3ab9560e01b81526000916001600160a01b03169063dde3ab95906114f2908590600401612741565b60a06040518083038186803b15801561150a57600080fd5b505afa15801561151e573d6000803e3d6000fd5b505050506040513d601f19601f820116820180604052508101906115429190612bfd565b9450505050506000600260009054906101000a90046001600160a01b03166001600160a01b031663eaada3826040518163ffffffff1660e01b815260040160206040518083038186803b15801561159857600080fd5b505afa1580156115ac573d6000803e3d6000fd5b505050506040513d601f19601f820116820180604052508101906115d0919061297b565b60405163b5e9bef560e01b81529091506001600160a01b0382169063b5e9bef5906116019030908690600401612aa6565b60206040518083038186803b15801561161957600080fd5b505afa15801561162d573d6000803e3d6000fd5b505050506040513d601f19601f820116820180604052508101906116519190612a48565b8511156116985760405162461bcd60e51b81526020600482015260156024820152741b9bdd0b595b9bdd59da0b58dbdb1b185d195c985b605a1b60448201526064016101db565b6002546040805163f609280960e01b815290516000926001600160a01b03169163f609280991600480830192602092919082900301818787803b1580156116de57600080fd5b505af11580156116f2573d6000803e3d6000fd5b505050506040513d601f19601f820116820180604052508101906117169190612a48565b9050801561184757603a546040516370a0823160e01b815282916001600160a01b0380861692638d0dba009230928c9261010090920416906370a0823190611762908c90600401612741565b60206040518083038186803b15801561177a57600080fd5b505afa15801561178e573d6000803e3d6000fd5b505050506040513d601f19601f820116820180604052508101906117b29190612a48565b6117bc9190612a77565b6040518363ffffffff1660e01b81526004016117d9929190612aa6565b60206040518083038186803b1580156117f157600080fd5b505afa158015611805573d6000803e3d6000fd5b505050506040513d601f19601f820116820180604052508101906118299190612a48565b10156118475760405162461bcd60e51b81526004016101db90612abf565b60025460408051632a9133c160e01b815290516000926001600160a01b031691632a9133c191600480830192602092919082900301818787803b15801561188d57600080fd5b505af11580156118a1573d6000803e3d6000fd5b505050506040513d601f19601f820116820180604052508101906118c59190612a48565b9050866000821561193a576118da8984612382565b905061192d600260009054906101000a90046001600160a01b03166001600160a01b03166361d027b36040518163ffffffff1660e01b815260040160206040518083038186803b15801561129157600080fd5b6119378183612a8f565b91505b6119448883611f2e565b603a546040516340c10f1960e01b81526101009091046001600160a01b0316906340c10f199061197a908a908d90600401612aa6565b600060405180830381600087803b15801561199457600080fd5b505af11580156119a8573d6000803e3d6000fd5b5050604080518c8152602081018590526001600160a01b03808d1694508b1692507f8ed56bdcd59d676b8a4feb74d858ffa2bc47f80b291f9df3ced2fad3d953f798910160405180910390a350506001805550505050505050565b611a0b6106cb565b6001600160a01b0316336001600160a01b031614611a3b5760405162461bcd60e51b81526004016101db90612b0e565b603a5460408051600160a81b90920460ff168015801584526020840152917fcaaaa88cc2414229e1aa662e7856f1b8601c703e3c21beb1b894b5fe2a3a6f2e910160405180910390a1603a805460ff60a81b19169115600160a81b02919091179055565b611aa76106cb565b6001600160a01b0316336001600160a01b031614611ad75760405162461bcd60e51b81526004016101db90612b0e565b60395481811415611afa5760405162461bcd60e51b81526004016101db90612b34565b60408051828152602081018490527fc58cd6132bb46df23d468939c03dd023b74b509aaa6b04c39d5a6461c65963bd910160405180910390a150603955565b6001600160a01b038316611b8f5760405162461bcd60e51b815260206004820152601d60248201527f617070726f76652d66726f6d2d7468652d7a65726f2d6164647265737300000060448201526064016101db565b6001600160a01b038216611be55760405162461bcd60e51b815260206004820152601b60248201527f617070726f76652d746f2d7468652d7a65726f2d61646472657373000000000060448201526064016101db565b6001600160a01b0383811660008181526035602090815260408083209487168084529482529182902085905590518481527f8c5be1e5ebec7d5bd14f71427d1e84f3dd0314c0f7b2291e5b200ac8c7c3b92591015b60405180910390a3505050565b600081611c55600282612baf565b611c67670de0b6b3a764000086612c44565b611c719190612a77565b610d2e9190612baf565b6001600160a01b038316611cd15760405162461bcd60e51b815260206004820152601e60248201527f7472616e736665722d66726f6d2d7468652d7a65726f2d61646472657373000060448201526064016101db565b6001600160a01b038216611d275760405162461bcd60e51b815260206004820152601c60248201527f7472616e736665722d746f2d7468652d7a65726f2d616464726573730000000060448201526064016101db565b6001600160a01b03831660009081526034602052604090205481811015611d905760405162461bcd60e51b815260206004820152601f60248201527f7472616e736665722d616d6f756e742d657863656564732d62616c616e63650060448201526064016101db565b6001600160a01b03808516600090815260346020526040808220858503905591851681529081208054849290611dc7908490612a77565b92505081905550826001600160a01b0316846001600160a01b0316600080516020612c8083398151915284604051611e0191815260200190565b60405180910390a350505050565b6001600160a01b038216611e655760405162461bcd60e51b815260206004820152601a60248201527f6275726e2d66726f6d2d7468652d7a65726f2d6164647265737300000000000060448201526064016101db565b6001600160a01b03821660009081526034602052604090205481811015611ece5760405162461bcd60e51b815260206004820152601b60248201527f6275726e2d616d6f756e742d657863656564732d62616c616e6365000000000060448201526064016101db565b6001600160a01b0383166000908152603460205260408120838303905560388054849290611efd908490612a8f565b90915550506040518281526000906001600160a01b03851690600080516020612c8083398151915290602001611c3a565b603a54600160a81b900460ff16611f575760405162461bcd60e51b81526004016101db90612bd1565b6001600160a01b038216611fa85760405162461bcd60e51b81526020600482015260186024820152776d696e742d746f2d7468652d7a65726f2d6164647265737360401b60448201526064016101db565b60025460408051637556d1c160e11b815290516000926001600160a01b03169163eaada382916004808301926020929190829003018186803b158015611fed57600080fd5b505afa158015612001573d6000803e3d6000fd5b505050506040513d601f19601f82011682018060405250810190612025919061297b565b6001600160a01b0316638d0dba0030846038546120429190612a77565b6040518363ffffffff1660e01b815260040161205f929190612aa6565b60206040518083038186803b15801561207757600080fd5b505afa15801561208b573d6000803e3d6000fd5b505050506040513d601f19601f820116820180604052508101906120af9190612a48565b90506039548111156120fe5760405162461bcd60e51b8152602060048201526018602482015277737572706173732d6d61782d746f74616c2d737570706c7960401b60448201526064016101db565b81603860008282546121109190612a77565b90915550506001600160a01b0383166000908152603460205260408120805484929061213d908490612a77565b90915550506040518281526001600160a01b03841690600090600080516020612c8083398151915290602001611c3a565b6121766106cb565b6001600160a01b0316336001600160a01b0316146121a65760405162461bcd60e51b81526004016101db90612b0e565b565b804710156121f85760405162461bcd60e51b815260206004820152601d60248201527f416464726573733a20696e73756666696369656e742062616c616e636500000060448201526064016101db565b6000826001600160a01b03168260405160006040518083038185875af1925050503d8060008114612245576040519150601f19603f3d011682016040523d82523d6000602084013e61224a565b606091505b5050905080610dd25760405162461bcd60e51b815260206004820152603a60248201527f416464726573733a20756e61626c6520746f2073656e642076616c75652c207260448201527f6563697069656e74206d6179206861766520726576657274656400000000000060648201526084016101db565b610dd28363a9059cbb60e01b84846040516024016122e0929190612aa6565b60408051601f198184030181529190526020810180516001600160e01b03166001600160e01b0319909316929092179091526123ba565b600054610100900460ff1680612330575060005460ff16155b61234c5760405162461bcd60e51b81526004016101db90612b61565b600054610100900460ff1615801561236e576000805461ffff19166101011790555b80156112cf576000805461ff001916905550565b600082158061238f575081155b1561239c575060006106c5565b670de0b6b3a76400006123b0600282612baf565b611c678486612c44565b600061240f826040518060400160405280602081526020017f5361666545524332303a206c6f772d6c6576656c2063616c6c206661696c6564815250856001600160a01b031661248c9092919063ffffffff16565b805190915015610dd2578080602001905181019061242d91906129a8565b610dd25760405162461bcd60e51b815260206004820152602a60248201527f5361666545524332303a204552433230206f7065726174696f6e20646964206e6044820152691bdd081cdd58d8d9595960b21b60648201526084016101db565b606061249b84846000856124a3565b949350505050565b6060824710156125045760405162461bcd60e51b815260206004820152602660248201527f416464726573733a20696e73756666696369656e742062616c616e636520666f6044820152651c8818d85b1b60d21b60648201526084016101db565b843b6125525760405162461bcd60e51b815260206004820152601d60248201527f416464726573733a2063616c6c20746f206e6f6e2d636f6e747261637400000060448201526064016101db565b600080866001600160a01b0316858760405161256e9190612c63565b60006040518083038185875af1925050503d80600081146125ab576040519150601f19603f3d011682016040523d82523d6000602084013e6125b0565b606091505b50915091506125c08282866125cb565b979650505050505050565b606083156125da575081610d2e565b8251156125ea5782518084602001fd5b8160405162461bcd60e51b81526004016101db91906126cd565b82805461261090612940565b90600052602060002090601f0160209004810192826126325760008555612678565b82601f1061264b5782800160ff19823516178555612678565b82800160010185558215612678579182015b8281111561267857823582559160200191906001019061265d565b50612684929150612688565b5090565b5b808211156126845760008155600101612689565b60005b838110156126b85781810151838201526020016126a0565b838111156126c7576000848401525b50505050565b60208152600082518060208401526126ec81604085016020870161269d565b601f01601f19169190910160400192915050565b6001600160a01b03811681146112cf57600080fd5b6000806040838503121561272857600080fd5b823561273381612700565b946020939093013593505050565b6001600160a01b0391909116815260200190565b60008060006060848603121561276a57600080fd5b833561277581612700565b9250602084013561278581612700565b929592945050506040919091013590565b6000602082840312156127a857600080fd5b8135610d2e81612700565b6000602082840312156127c557600080fd5b5035919050565b60008083601f8401126127de57600080fd5b50813567ffffffffffffffff8111156127f657600080fd5b60208301915083602082850101111561280e57600080fd5b9250929050565b803561282081612700565b919050565b600080600080600080600080600060e08a8c03121561284357600080fd5b893567ffffffffffffffff8082111561285b57600080fd5b6128678d838e016127cc565b909b50995060208c013591508082111561288057600080fd5b5061288d8c828d016127cc565b90985096505060408a013560ff811681146128a757600080fd5b945060608a01356128b781612700565b93506128c560808b01612815565b925060a08a0135915060c08a013590509295985092959850929598565b600080604083850312156128f557600080fd5b82359150602083013561290781612700565b809150509250929050565b6000806040838503121561292557600080fd5b823561293081612700565b9150602083013561290781612700565b600181811c9082168061295457607f821691505b6020821081141561297557634e487b7160e01b600052602260045260246000fd5b50919050565b60006020828403121561298d57600080fd5b8151610d2e81612700565b8051801515811461282057600080fd5b6000602082840312156129ba57600080fd5b610d2e82612998565b6020808252600c908201526b3737ba16b9b43aba3237bbb760a11b604082015260600190565b6020808252601f908201527f5265656e7472616e637947756172643a207265656e7472616e742063616c6c00604082015260600190565b6020808252600e908201526d616d6f756e742d69732d7a65726f60901b604082015260600190565b600060208284031215612a5a57600080fd5b5051919050565b634e487b7160e01b600052601160045260246000fd5b60008219821115612a8a57612a8a612a61565b500190565b600082821015612aa157612aa1612a61565b500390565b6001600160a01b03929092168252602082015260400190565b6020808252600d908201526c3232b13a16b63a16b33637b7b960991b604082015260600190565b6020808252600e908201526d3737ba16b1b7b73a3937b63632b960911b604082015260600190565b6020808252600c908201526b3737ba16b3b7bb32b93737b960a11b604082015260600190565b6020808252601390820152721b995dcb5cd85b594b585ccb58dd5c9c995b9d606a1b604082015260600190565b6020808252602e908201527f496e697469616c697a61626c653a20636f6e747261637420697320616c72656160408201526d191e481a5b9a5d1a585b1a5e995960921b606082015260800190565b600082612bcc57634e487b7160e01b600052601260045260246000fd5b500490565b60208082526012908201527173796e7468657469632d696e61637469766560701b604082015260600190565b600080600080600060a08688031215612c1557600080fd5b612c1e86612998565b602087015160408801516060890151608090990151929a91995097965090945092505050565b6000816000190483118215151615612c5e57612c5e612a61565b500290565b60008251612c7581846020870161269d565b919091019291505056feddf252ad1be2c89b69c2b068fc378daa952ba7f163c4a11628f55a4df523b3efa26469706673582212209c6a08fa59b318dd795e1b476a63b8f46c987af68e8300dec6e1fc8fda493b1264736f6c63430008090033",
  "devdoc": {
    "kind": "dev",
    "methods": {
      "approve(address,uint256)": {
        "details": "Sets `amount` as the allowance of `spender` over the caller's tokens. Returns a boolean value indicating whether the operation succeeded. IMPORTANT: Beware that changing an allowance with this method brings the risk that someone may use both the old and the new allowance by unfortunate transaction ordering. One possible solution to mitigate this race condition is to first reduce the spender's allowance to 0 and set the desired value afterwards: https://github.com/ethereum/EIPs/issues/20#issuecomment-263524729 Emits an {Approval} event."
      },
      "burn(address,uint256)": {
        "params": {
          "_amount": "The amount to burn",
          "_from": "The account to burn from"
        }
      },
      "issue(uint256,address)": {
        "params": {
          "_amount": "The amount to mint"
        }
      },
      "mint(address,uint256)": {
        "params": {
          "_amount": "The amount to mint",
          "_to": "The account to mint to"
        }
      },
      "repay(address,uint256)": {
        "details": "The msg.sender is the payer and the account beneficed",
        "params": {
          "_amount": "The amount of synthetic token to burn (this is the gross amount, the repay fee will be subtracted from it)",
          "_onBehalfOf": "The account that will have debt decreased"
        }
      },
      "setController(address)": {
        "params": {
          "_controller": "The new Controller contract"
        }
      },
      "sweep(address,address,uint256)": {
        "params": {
          "_amount": "The amount to send",
          "_to": "The recipient of the transfer",
          "_token": "The token to transfer"
        }
      },
      "transfer(address,uint256)": {
        "details": "Moves `amount` tokens from the caller's account to `recipient`. Returns a boolean value indicating whether the operation succeeded. Emits a {Transfer} event."
      },
      "transferFrom(address,address,uint256)": {
        "details": "Moves `amount` tokens from `sender` to `recipient` using the allowance mechanism. `amount` is then deducted from the caller's allowance. Returns a boolean value indicating whether the operation succeeded. Emits a {Transfer} event."
      },
      "updateMaxTotalSupplyInUsd(uint256)": {
        "params": {
          "_newMaxTotalSupplyInUsd": "The new max total supply (in USD)"
        }
      }
    },
    "title": "Synthetic Token contract",
    "version": 1
  },
  "userdoc": {
    "events": {
      "DebtRepaid(address,address,uint256,uint256)": {
        "notice": "Emitted when synthetic's debt is repaid"
      },
      "InterestRateUpdated(uint256,uint256)": {
        "notice": "Emitted when interest rate is updated"
      },
      "MaxTotalSupplyUpdated(uint256,uint256)": {
        "notice": "Emitted when max total supply is updated"
      },
      "SyntheticTokenActiveUpdated(bool,bool)": {
        "notice": "Emitted when active flag is updated"
      },
      "SyntheticTokenIssued(address,address,uint256,uint256)": {
        "notice": "Emitted when synthetic token is issued"
      }
    },
    "kind": "user",
    "methods": {
      "accrueInterest()": {
        "notice": "Accrue interest"
      },
      "burn(address,uint256)": {
        "notice": "Burn synthetic token"
      },
      "controller()": {
        "notice": "Controller contract"
      },
      "debtToken()": {
        "notice": "Non-transferable token that represents users' debts"
      },
      "interestRate()": {
        "notice": "Interest rate"
      },
      "isActive()": {
        "notice": "If a vsAsset isn't active, it disables minting new tokens"
      },
      "issue(uint256,address)": {
        "notice": "Lock collateral and mint synthetic token"
      },
      "mint(address,uint256)": {
        "notice": "Mint synthetic token"
      },
      "repay(address,uint256)": {
        "notice": "Send synthetic token to decrease debt"
      },
      "setController(address)": {
        "notice": "Update Controller contract"
      },
      "sweep(address,address,uint256)": {
        "notice": "ERC20 recovery in case of stuck tokens due direct transfers to the contract address."
      },
      "toggleIsActive()": {
        "notice": "Enable/Disable the Synthetic Token"
      },
      "updateInterestRate(uint256)": {
        "notice": "Update interest rate (APR)"
      },
      "updateMaxTotalSupplyInUsd(uint256)": {
        "notice": "Update max total supply (in USD)"
      }
    },
    "version": 1
  },
  "storageLayout": {
    "storage": [
      {
        "astId": 7131,
        "contract": "contracts/SyntheticToken.sol:SyntheticToken",
        "label": "_initialized",
        "offset": 0,
        "slot": "0",
        "type": "t_bool"
      },
      {
        "astId": 7134,
        "contract": "contracts/SyntheticToken.sol:SyntheticToken",
        "label": "_initializing",
        "offset": 1,
        "slot": "0",
        "type": "t_bool"
      },
      {
        "astId": 7185,
        "contract": "contracts/SyntheticToken.sol:SyntheticToken",
        "label": "_status",
        "offset": 0,
        "slot": "1",
        "type": "t_uint256"
      },
      {
        "astId": 6095,
        "contract": "contracts/SyntheticToken.sol:SyntheticToken",
        "label": "controller",
        "offset": 0,
        "slot": "2",
        "type": "t_contract(IController)10815"
      },
      {
        "astId": 6210,
        "contract": "contracts/SyntheticToken.sol:SyntheticToken",
        "label": "__gap",
        "offset": 0,
        "slot": "3",
        "type": "t_array(t_uint256)49_storage"
      },
      {
        "astId": 14657,
        "contract": "contracts/SyntheticToken.sol:SyntheticToken",
        "label": "balanceOf",
        "offset": 0,
        "slot": "52",
        "type": "t_mapping(t_address,t_uint256)"
      },
      {
        "astId": 14663,
        "contract": "contracts/SyntheticToken.sol:SyntheticToken",
        "label": "allowance",
        "offset": 0,
        "slot": "53",
        "type": "t_mapping(t_address,t_mapping(t_address,t_uint256))"
      },
      {
        "astId": 14665,
        "contract": "contracts/SyntheticToken.sol:SyntheticToken",
        "label": "name",
        "offset": 0,
        "slot": "54",
        "type": "t_string_storage"
      },
      {
        "astId": 14667,
        "contract": "contracts/SyntheticToken.sol:SyntheticToken",
        "label": "symbol",
        "offset": 0,
        "slot": "55",
        "type": "t_string_storage"
      },
      {
        "astId": 14669,
        "contract": "contracts/SyntheticToken.sol:SyntheticToken",
        "label": "totalSupply",
        "offset": 0,
        "slot": "56",
        "type": "t_uint256"
      },
      {
        "astId": 14671,
        "contract": "contracts/SyntheticToken.sol:SyntheticToken",
        "label": "maxTotalSupplyInUsd",
        "offset": 0,
        "slot": "57",
        "type": "t_uint256"
      },
      {
        "astId": 14673,
        "contract": "contracts/SyntheticToken.sol:SyntheticToken",
        "label": "decimals",
        "offset": 0,
        "slot": "58",
        "type": "t_uint8"
      },
      {
        "astId": 14677,
        "contract": "contracts/SyntheticToken.sol:SyntheticToken",
        "label": "debtToken",
        "offset": 1,
        "slot": "58",
        "type": "t_contract(IDebtToken)10852"
      },
      {
        "astId": 14680,
        "contract": "contracts/SyntheticToken.sol:SyntheticToken",
        "label": "isActive",
        "offset": 21,
        "slot": "58",
        "type": "t_bool"
      },
      {
        "astId": 14683,
        "contract": "contracts/SyntheticToken.sol:SyntheticToken",
        "label": "interestRate",
        "offset": 0,
        "slot": "59",
        "type": "t_uint256"
      }
    ],
    "types": {
      "t_address": {
        "encoding": "inplace",
        "label": "address",
        "numberOfBytes": "20"
      },
      "t_array(t_uint256)49_storage": {
        "base": "t_uint256",
        "encoding": "inplace",
        "label": "uint256[49]",
        "numberOfBytes": "1568"
      },
      "t_bool": {
        "encoding": "inplace",
        "label": "bool",
        "numberOfBytes": "1"
      },
      "t_contract(IController)10815": {
        "encoding": "inplace",
        "label": "contract IController",
        "numberOfBytes": "20"
      },
      "t_contract(IDebtToken)10852": {
        "encoding": "inplace",
        "label": "contract IDebtToken",
        "numberOfBytes": "20"
      },
      "t_mapping(t_address,t_mapping(t_address,t_uint256))": {
        "encoding": "mapping",
        "key": "t_address",
        "label": "mapping(address => mapping(address => uint256))",
        "numberOfBytes": "32",
        "value": "t_mapping(t_address,t_uint256)"
      },
      "t_mapping(t_address,t_uint256)": {
        "encoding": "mapping",
        "key": "t_address",
        "label": "mapping(address => uint256)",
        "numberOfBytes": "32",
        "value": "t_uint256"
      },
      "t_string_storage": {
        "encoding": "bytes",
        "label": "string",
        "numberOfBytes": "32"
      },
      "t_uint256": {
        "encoding": "inplace",
        "label": "uint256",
        "numberOfBytes": "32"
      },
      "t_uint8": {
        "encoding": "inplace",
        "label": "uint8",
        "numberOfBytes": "1"
      }
    }
  }
}