{
  "address": "0x7c2d5b1E7d7BE588389BDb94138cC37dC014e85c",
  "abi": [
    {
      "stateMutability": "payable",
      "type": "fallback"
    },
    {
      "inputs": [],
      "name": "VERSION",
      "outputs": [
        {
          "internalType": "string",
          "name": "",
          "type": "string"
        }
      ],
      "stateMutability": "view",
      "type": "function"
    },
    {
      "inputs": [],
      "name": "controller",
      "outputs": [
        {
          "internalType": "contract IController",
          "name": "",
          "type": "address"
        }
      ],
      "stateMutability": "view",
      "type": "function"
    },
    {
      "inputs": [],
      "name": "governor",
      "outputs": [
        {
          "internalType": "address",
          "name": "_governor",
          "type": "address"
        }
      ],
      "stateMutability": "view",
      "type": "function"
    },
    {
      "inputs": [
        {
          "internalType": "contract IController",
          "name": "_controller",
          "type": "address"
        }
      ],
      "name": "initialize",
      "outputs": [],
      "stateMutability": "nonpayable",
      "type": "function"
    },
    {
      "inputs": [
        {
          "internalType": "address",
          "name": "_newTreasury",
          "type": "address"
        }
      ],
      "name": "migrateTo",
      "outputs": [],
      "stateMutability": "nonpayable",
      "type": "function"
    },
    {
      "inputs": [
        {
          "internalType": "address",
          "name": "_to",
          "type": "address"
        },
        {
          "internalType": "uint256",
          "name": "_amount",
          "type": "uint256"
        }
      ],
      "name": "pull",
      "outputs": [],
      "stateMutability": "nonpayable",
      "type": "function"
    },
    {
      "inputs": [
        {
          "internalType": "contract IController",
          "name": "_controller",
          "type": "address"
        }
      ],
      "name": "setController",
      "outputs": [],
      "stateMutability": "nonpayable",
      "type": "function"
    },
    {
      "inputs": [
        {
          "internalType": "contract IERC20",
          "name": "_token",
          "type": "address"
        },
        {
          "internalType": "address",
          "name": "_to",
          "type": "address"
        },
        {
          "internalType": "uint256",
          "name": "_amount",
          "type": "uint256"
        }
      ],
      "name": "sweep",
      "outputs": [],
      "stateMutability": "nonpayable",
      "type": "function"
    },
    {
      "stateMutability": "payable",
      "type": "receive"
    }
  ],
  "transactionHash": "0x327212f49970960f6861421be9f1cd6745613f6e740263c66cd13edee47aa819",
  "args": [],
  "numDeployments": 1,
  "solcInputHash": "d8b118bc2b869f1cad3e67e355255d78",
  "bytecode": "0x608060405234801561001057600080fd5b506112ad806100206000396000f3fe60806040526004361061006f5760003560e01c80630c340a24146100f65780634ddaf8f21461012157806362c067671461014357806392eefe9b14610163578063c4d66de814610183578063f2d5d56b146101a3578063f77c4791146101c3578063ffa1ad74146101e3576100b7565b366100b75760405162461bcd60e51b81526020600482015260136024820152721c9958d95a5d994b5b9bdd0b585b1b1bddd959606a1b60448201526064015b60405180910390fd5b60405162461bcd60e51b815260206004820152601460248201527319985b1b189858dacb5b9bdd0b585b1b1bddd95960621b60448201526064016100ae565b34801561010257600080fd5b5061010b610221565b6040516101189190610f4f565b60405180910390f35b34801561012d57600080fd5b5061014161013c366004610f78565b6102a3565b005b34801561014f57600080fd5b5061014161015e366004610f95565b6106c7565b34801561016f57600080fd5b5061014161017e366004610f78565b610700565b34801561018f57600080fd5b5061014161019e366004610f78565b6107b0565b3480156101af57600080fd5b506101416101be366004610fd6565b61089e565b3480156101cf57600080fd5b5060025461010b906001600160a01b031681565b3480156101ef57600080fd5b50610214604051806040016040528060058152602001640312e302e360dc1b81525081565b6040516101189190611032565b6002546040805163030d028960e21b815290516000926001600160a01b031691630c340a24916004808301926020929190829003018186803b15801561026657600080fd5b505afa15801561027a573d6000803e3d6000fd5b505050506040513d601f19601f8201168201806040525081019061029e9190611075565b905090565b6002546001600160a01b0316336001600160a01b0316146102f75760405162461bcd60e51b815260206004820152600e60248201526d3737ba16b1b7b73a3937b63632b960911b60448201526064016100ae565b6002546040805163fb01600d60e01b815290516000926001600160a01b03169163fb01600d9160048083019286929190829003018186803b15801561033b57600080fd5b505afa15801561034f573d6000803e3d6000fd5b505050506040513d6000823e601f3d908101601f1916820160405261037791908101906110a8565b805190915060005b8181101561056357600083828151811061039b5761039b61116d565b602002602001015190506000816001600160a01b0316636f307dc36040518163ffffffff1660e01b815260040160206040518083038186803b1580156103e057600080fd5b505afa1580156103f4573d6000803e3d6000fd5b505050506040513d601f19601f820116820180604052508101906104189190611075565b90506000826001600160a01b03166370a08231306040518263ffffffff1660e01b81526004016104489190610f4f565b60206040518083038186803b15801561046057600080fd5b505afa158015610474573d6000803e3d6000fd5b505050506040513d601f19601f820116820180604052508101906104989190611183565b90506000826001600160a01b03166370a08231306040518263ffffffff1660e01b81526004016104c89190610f4f565b60206040518083038186803b1580156104e057600080fd5b505afa1580156104f4573d6000803e3d6000fd5b505050506040513d601f19601f820116820180604052508101906105189190611183565b90508115610534576105346001600160a01b0385168984610a83565b801561054e5761054e6001600160a01b0384168983610a83565b505050508061055c9061119c565b905061037f565b5060025460408051633409c87360e11b815290516000926001600160a01b03169163681390e69160048083019286929190829003018186803b1580156105a857600080fd5b505afa1580156105bc573d6000803e3d6000fd5b505050506040513d6000823e601f3d908101601f191682016040526105e491908101906110a8565b805190915060005b818110156106bf5760008382815181106106085761060861116d565b602002602001015190506000816001600160a01b03166370a08231306040518263ffffffff1660e01b81526004016106409190610f4f565b60206040518083038186803b15801561065857600080fd5b505afa15801561066c573d6000803e3d6000fd5b505050506040513d601f19601f820116820180604052508101906106909190611183565b905080156106ac576106ac6001600160a01b0383168983610a83565b5050806106b89061119c565b90506105ec565b505050505050565b6106cf610ad5565b6001600160a01b0383166106ec576106e78282610b0f565b505050565b6106e76001600160a01b0384168383610a83565b610708610221565b6001600160a01b0316336001600160a01b0316146107385760405162461bcd60e51b81526004016100ae906111c5565b6001600160a01b03811661078e5760405162461bcd60e51b815260206004820152601e60248201527f6e65772d636f6e74726f6c6c65722d616464726573732d69732d7a65726f000060448201526064016100ae565b600280546001600160a01b0319166001600160a01b0392909216919091179055565b600054610100900460ff16806107c9575060005460ff16155b6107e55760405162461bcd60e51b81526004016100ae906111eb565b600054610100900460ff16158015610807576000805461ffff19166101011790555b6001600160a01b03821661085d5760405162461bcd60e51b815260206004820152601a60248201527f636f6e74726f6c6c65722d616464726573732d69732d7a65726f00000000000060448201526064016100ae565b610865610c28565b61086d610c98565b600280546001600160a01b0319166001600160a01b038416179055801561089a576000805461ff00191690555b5050565b600260015414156108f15760405162461bcd60e51b815260206004820152601f60248201527f5265656e7472616e637947756172643a207265656e7472616e742063616c6c0060448201526064016100ae565b60026001819055546001600160a01b0316633af5be47336040518263ffffffff1660e01b81526004016109249190610f4f565b60206040518083038186803b15801561093c57600080fd5b505afa158015610950573d6000803e3d6000fd5b505050506040513d601f19601f820116820180604052508101906109749190611239565b6109b45760405162461bcd60e51b81526020600482015260116024820152703737ba16b232b837b9b4ba16ba37b5b2b760791b60448201526064016100ae565b600081116109f55760405162461bcd60e51b815260206004820152600e60248201526d616d6f756e742d69732d7a65726f60901b60448201526064016100ae565b610a7b8282336001600160a01b0316636f307dc36040518163ffffffff1660e01b815260040160206040518083038186803b158015610a3357600080fd5b505afa158015610a47573d6000803e3d6000fd5b505050506040513d601f19601f82011682018060405250810190610a6b9190611075565b6001600160a01b03169190610a83565b505060018055565b604080516001600160a01b038416602482015260448082018490528251808303909101815260649091019091526020810180516001600160e01b031663a9059cbb60e01b1790526106e7908490610d03565b610add610221565b6001600160a01b0316336001600160a01b031614610b0d5760405162461bcd60e51b81526004016100ae906111c5565b565b80471015610b5f5760405162461bcd60e51b815260206004820152601d60248201527f416464726573733a20696e73756666696369656e742062616c616e636500000060448201526064016100ae565b6000826001600160a01b03168260405160006040518083038185875af1925050503d8060008114610bac576040519150601f19603f3d011682016040523d82523d6000602084013e610bb1565b606091505b50509050806106e75760405162461bcd60e51b815260206004820152603a60248201527f416464726573733a20756e61626c6520746f2073656e642076616c75652c207260448201527f6563697069656e74206d6179206861766520726576657274656400000000000060648201526084016100ae565b600054610100900460ff1680610c41575060005460ff16155b610c5d5760405162461bcd60e51b81526004016100ae906111eb565b600054610100900460ff16158015610c7f576000805461ffff19166101011790555b600180558015610c95576000805461ff00191690555b50565b600054610100900460ff1680610cb1575060005460ff16155b610ccd5760405162461bcd60e51b81526004016100ae906111eb565b600054610100900460ff16158015610cef576000805461ffff19166101011790555b8015610c95576000805461ff001916905550565b6000610d58826040518060400160405280602081526020017f5361666545524332303a206c6f772d6c6576656c2063616c6c206661696c6564815250856001600160a01b0316610dd59092919063ffffffff16565b8051909150156106e75780806020019051810190610d769190611239565b6106e75760405162461bcd60e51b815260206004820152602a60248201527f5361666545524332303a204552433230206f7065726174696f6e20646964206e6044820152691bdd081cdd58d8d9595960b21b60648201526084016100ae565b6060610de48484600085610dee565b90505b9392505050565b606082471015610e4f5760405162461bcd60e51b815260206004820152602660248201527f416464726573733a20696e73756666696369656e742062616c616e636520666f6044820152651c8818d85b1b60d21b60648201526084016100ae565b843b610e9d5760405162461bcd60e51b815260206004820152601d60248201527f416464726573733a2063616c6c20746f206e6f6e2d636f6e747261637400000060448201526064016100ae565b600080866001600160a01b03168587604051610eb9919061125b565b60006040518083038185875af1925050503d8060008114610ef6576040519150601f19603f3d011682016040523d82523d6000602084013e610efb565b606091505b5091509150610f0b828286610f16565b979650505050505050565b60608315610f25575081610de7565b825115610f355782518084602001fd5b8160405162461bcd60e51b81526004016100ae9190611032565b6001600160a01b0391909116815260200190565b6001600160a01b0381168114610c9557600080fd5b600060208284031215610f8a57600080fd5b8135610de781610f63565b600080600060608486031215610faa57600080fd5b8335610fb581610f63565b92506020840135610fc581610f63565b929592945050506040919091013590565b60008060408385031215610fe957600080fd5b8235610ff481610f63565b946020939093013593505050565b60005b8381101561101d578181015183820152602001611005565b8381111561102c576000848401525b50505050565b6020815260008251806020840152611051816040850160208701611002565b601f01601f19169190910160400192915050565b805161107081610f63565b919050565b60006020828403121561108757600080fd5b8151610de781610f63565b634e487b7160e01b600052604160045260246000fd5b600060208083850312156110bb57600080fd5b825167ffffffffffffffff808211156110d357600080fd5b818501915085601f8301126110e757600080fd5b8151818111156110f9576110f9611092565b8060051b604051601f19603f8301168101818110858211171561111e5761111e611092565b60405291825284820192508381018501918883111561113c57600080fd5b938501935b828510156111615761115285611065565b84529385019392850192611141565b98975050505050505050565b634e487b7160e01b600052603260045260246000fd5b60006020828403121561119557600080fd5b5051919050565b60006000198214156111be57634e487b7160e01b600052601160045260246000fd5b5060010190565b6020808252600c908201526b3737ba16b3b7bb32b93737b960a11b604082015260600190565b6020808252602e908201527f496e697469616c697a61626c653a20636f6e747261637420697320616c72656160408201526d191e481a5b9a5d1a585b1a5e995960921b606082015260800190565b60006020828403121561124b57600080fd5b81518015158114610de757600080fd5b6000825161126d818460208701611002565b919091019291505056fea26469706673582212209d268056fab3d653b2d9b486bfe95e804e406dc40c207f9479838f32c50c3b5664736f6c63430008090033",
  "devdoc": {
    "kind": "dev",
    "methods": {
      "migrateTo(address)": {
        "details": "This function can become too expensive depending on the length of the arrays"
      },
      "setController(address)": {
        "params": {
          "_controller": "The new Controller contract"
        }
      },
      "sweep(address,address,uint256)": {
        "params": {
          "_amount": "The amount to send",
          "_to": "The recipient of the transfer",
          "_token": "The token to transfer"
        }
      }
    },
    "title": "Treasury contract",
    "version": 1
  },
  "userdoc": {
    "kind": "user",
    "methods": {
      "controller()": {
        "notice": "Controller contract"
      },
      "migrateTo(address)": {
        "notice": "Transfer all funds to another contract"
      },
      "pull(address,uint256)": {
        "notice": "Pull token from the Treasury"
      },
      "setController(address)": {
        "notice": "Update Controller contract"
      },
      "sweep(address,address,uint256)": {
        "notice": "ERC20 recovery in case of stuck tokens due direct transfers to the contract address."
      }
    },
    "version": 1
  },
  "storageLayout": {
    "storage": [
      {
        "astId": 7131,
        "contract": "contracts/Treasury.sol:Treasury",
        "label": "_initialized",
        "offset": 0,
        "slot": "0",
        "type": "t_bool"
      },
      {
        "astId": 7134,
        "contract": "contracts/Treasury.sol:Treasury",
        "label": "_initializing",
        "offset": 1,
        "slot": "0",
        "type": "t_bool"
      },
      {
        "astId": 7185,
        "contract": "contracts/Treasury.sol:Treasury",
        "label": "_status",
        "offset": 0,
        "slot": "1",
        "type": "t_uint256"
      },
      {
        "astId": 6095,
        "contract": "contracts/Treasury.sol:Treasury",
        "label": "controller",
        "offset": 0,
        "slot": "2",
        "type": "t_contract(IController)10815"
      },
      {
        "astId": 6210,
        "contract": "contracts/Treasury.sol:Treasury",
        "label": "__gap",
        "offset": 0,
        "slot": "3",
        "type": "t_array(t_uint256)49_storage"
      }
    ],
    "types": {
      "t_array(t_uint256)49_storage": {
        "base": "t_uint256",
        "encoding": "inplace",
        "label": "uint256[49]",
        "numberOfBytes": "1568"
      },
      "t_bool": {
        "encoding": "inplace",
        "label": "bool",
        "numberOfBytes": "1"
      },
      "t_contract(IController)10815": {
        "encoding": "inplace",
        "label": "contract IController",
        "numberOfBytes": "20"
      },
      "t_uint256": {
        "encoding": "inplace",
        "label": "uint256",
        "numberOfBytes": "32"
      }
    }
  }
}