{
  "address": "0x669954e6B63b2156e120F815D0b734589153f334",
  "abi": [
    {
      "anonymous": false,
      "inputs": [
        {
          "indexed": true,
          "internalType": "address",
          "name": "owner",
          "type": "address"
        },
        {
          "indexed": true,
          "internalType": "address",
          "name": "spender",
          "type": "address"
        },
        {
          "indexed": false,
          "internalType": "uint256",
          "name": "value",
          "type": "uint256"
        }
      ],
      "name": "Approval",
      "type": "event"
    },
    {
      "anonymous": false,
      "inputs": [
        {
          "indexed": true,
          "internalType": "address",
          "name": "account",
          "type": "address"
        },
        {
          "indexed": false,
          "internalType": "uint256",
          "name": "amount",
          "type": "uint256"
        },
        {
          "indexed": false,
          "internalType": "uint256",
          "name": "fee",
          "type": "uint256"
        }
      ],
      "name": "DebtRepayed",
      "type": "event"
    },
    {
      "anonymous": false,
      "inputs": [
        {
          "indexed": false,
          "internalType": "uint256",
          "name": "oldInterestRate",
          "type": "uint256"
        },
        {
          "indexed": false,
          "internalType": "uint256",
          "name": "newInterestRate",
          "type": "uint256"
        }
      ],
      "name": "InterestRateUpdated",
      "type": "event"
    },
    {
      "anonymous": false,
      "inputs": [
        {
          "indexed": false,
          "internalType": "uint256",
          "name": "oldMaxTotalSupply",
          "type": "uint256"
        },
        {
          "indexed": false,
          "internalType": "uint256",
          "name": "newMaxTotalSupply",
          "type": "uint256"
        }
      ],
      "name": "MaxTotalSupplyUpdated",
      "type": "event"
    },
    {
      "anonymous": false,
      "inputs": [
        {
          "indexed": false,
          "internalType": "bool",
          "name": "oldActive",
          "type": "bool"
        },
        {
          "indexed": false,
          "internalType": "bool",
          "name": "newActive",
          "type": "bool"
        }
      ],
      "name": "SyntheticTokenActiveUpdated",
      "type": "event"
    },
    {
      "anonymous": false,
      "inputs": [
        {
          "indexed": true,
          "internalType": "address",
          "name": "account",
          "type": "address"
        },
        {
          "indexed": true,
          "internalType": "address",
          "name": "to",
          "type": "address"
        },
        {
          "indexed": false,
          "internalType": "uint256",
          "name": "amount",
          "type": "uint256"
        },
        {
          "indexed": false,
          "internalType": "uint256",
          "name": "fee",
          "type": "uint256"
        }
      ],
      "name": "SyntheticTokenIssued",
      "type": "event"
    },
    {
      "anonymous": false,
      "inputs": [
        {
          "indexed": true,
          "internalType": "address",
          "name": "from",
          "type": "address"
        },
        {
          "indexed": true,
          "internalType": "address",
          "name": "to",
          "type": "address"
        },
        {
          "indexed": false,
          "internalType": "uint256",
          "name": "value",
          "type": "uint256"
        }
      ],
      "name": "Transfer",
      "type": "event"
    },
    {
      "inputs": [],
      "name": "BLOCKS_PER_YEAR",
      "outputs": [
        {
          "internalType": "uint256",
          "name": "",
          "type": "uint256"
        }
      ],
      "stateMutability": "view",
      "type": "function"
    },
    {
      "inputs": [],
      "name": "VERSION",
      "outputs": [
        {
          "internalType": "string",
          "name": "",
          "type": "string"
        }
      ],
      "stateMutability": "view",
      "type": "function"
    },
    {
      "inputs": [],
      "name": "accrueInterest",
      "outputs": [],
      "stateMutability": "nonpayable",
      "type": "function"
    },
    {
      "inputs": [
        {
          "internalType": "address",
          "name": "",
          "type": "address"
        },
        {
          "internalType": "address",
          "name": "",
          "type": "address"
        }
      ],
      "name": "allowance",
      "outputs": [
        {
          "internalType": "uint256",
          "name": "",
          "type": "uint256"
        }
      ],
      "stateMutability": "view",
      "type": "function"
    },
    {
      "inputs": [
        {
          "internalType": "address",
          "name": "spender",
          "type": "address"
        },
        {
          "internalType": "uint256",
          "name": "amount",
          "type": "uint256"
        }
      ],
      "name": "approve",
      "outputs": [
        {
          "internalType": "bool",
          "name": "",
          "type": "bool"
        }
      ],
      "stateMutability": "nonpayable",
      "type": "function"
    },
    {
      "inputs": [
        {
          "internalType": "address",
          "name": "",
          "type": "address"
        }
      ],
      "name": "balanceOf",
      "outputs": [
        {
          "internalType": "uint256",
          "name": "",
          "type": "uint256"
        }
      ],
      "stateMutability": "view",
      "type": "function"
    },
    {
      "inputs": [
        {
          "internalType": "address",
          "name": "_from",
          "type": "address"
        },
        {
          "internalType": "uint256",
          "name": "_amount",
          "type": "uint256"
        }
      ],
      "name": "burn",
      "outputs": [],
      "stateMutability": "nonpayable",
      "type": "function"
    },
    {
      "inputs": [],
      "name": "controller",
      "outputs": [
        {
          "internalType": "contract IController",
          "name": "",
          "type": "address"
        }
      ],
      "stateMutability": "view",
      "type": "function"
    },
    {
      "inputs": [],
      "name": "debtToken",
      "outputs": [
        {
          "internalType": "contract IDebtToken",
          "name": "",
          "type": "address"
        }
      ],
      "stateMutability": "view",
      "type": "function"
    },
    {
      "inputs": [],
      "name": "decimals",
      "outputs": [
        {
          "internalType": "uint8",
          "name": "",
          "type": "uint8"
        }
      ],
      "stateMutability": "view",
      "type": "function"
    },
    {
      "inputs": [
        {
          "internalType": "address",
          "name": "spender",
          "type": "address"
        },
        {
          "internalType": "uint256",
          "name": "subtractedValue",
          "type": "uint256"
        }
      ],
      "name": "decreaseAllowance",
      "outputs": [
        {
          "internalType": "bool",
          "name": "",
          "type": "bool"
        }
      ],
      "stateMutability": "nonpayable",
      "type": "function"
    },
    {
      "inputs": [],
      "name": "governor",
      "outputs": [
        {
          "internalType": "address",
          "name": "_governor",
          "type": "address"
        }
      ],
      "stateMutability": "view",
      "type": "function"
    },
    {
      "inputs": [
        {
          "internalType": "address",
          "name": "spender",
          "type": "address"
        },
        {
          "internalType": "uint256",
          "name": "addedValue",
          "type": "uint256"
        }
      ],
      "name": "increaseAllowance",
      "outputs": [
        {
          "internalType": "bool",
          "name": "",
          "type": "bool"
        }
      ],
      "stateMutability": "nonpayable",
      "type": "function"
    },
    {
      "inputs": [
        {
          "internalType": "string",
          "name": "_name",
          "type": "string"
        },
        {
          "internalType": "string",
          "name": "_symbol",
          "type": "string"
        },
        {
          "internalType": "uint8",
          "name": "_decimals",
          "type": "uint8"
        },
        {
          "internalType": "contract IController",
          "name": "_controller",
          "type": "address"
        },
        {
          "internalType": "contract IDebtToken",
          "name": "_debtToken",
          "type": "address"
        },
        {
          "internalType": "uint256",
          "name": "_interestRate",
          "type": "uint256"
        },
        {
          "internalType": "uint256",
          "name": "_maxTotalSupplyInUsd",
          "type": "uint256"
        }
      ],
      "name": "initialize",
      "outputs": [],
      "stateMutability": "nonpayable",
      "type": "function"
    },
    {
      "inputs": [],
      "name": "interestRate",
      "outputs": [
        {
          "internalType": "uint256",
          "name": "",
          "type": "uint256"
        }
      ],
      "stateMutability": "view",
      "type": "function"
    },
    {
      "inputs": [],
      "name": "interestRatePerBlock",
      "outputs": [
        {
          "internalType": "uint256",
          "name": "",
          "type": "uint256"
        }
      ],
      "stateMutability": "view",
      "type": "function"
    },
    {
      "inputs": [],
      "name": "isActive",
      "outputs": [
        {
          "internalType": "bool",
          "name": "",
          "type": "bool"
        }
      ],
      "stateMutability": "view",
      "type": "function"
    },
    {
      "inputs": [
        {
          "internalType": "uint256",
          "name": "_amount",
          "type": "uint256"
        },
        {
          "internalType": "address",
          "name": "_to",
          "type": "address"
        }
      ],
      "name": "issue",
      "outputs": [],
      "stateMutability": "nonpayable",
      "type": "function"
    },
    {
      "inputs": [],
      "name": "maxTotalSupplyInUsd",
      "outputs": [
        {
          "internalType": "uint256",
          "name": "",
          "type": "uint256"
        }
      ],
      "stateMutability": "view",
      "type": "function"
    },
    {
      "inputs": [
        {
          "internalType": "address",
          "name": "_to",
          "type": "address"
        },
        {
          "internalType": "uint256",
          "name": "_amount",
          "type": "uint256"
        }
      ],
      "name": "mint",
      "outputs": [],
      "stateMutability": "nonpayable",
      "type": "function"
    },
    {
      "inputs": [],
      "name": "name",
      "outputs": [
        {
          "internalType": "string",
          "name": "",
          "type": "string"
        }
      ],
      "stateMutability": "view",
      "type": "function"
    },
    {
      "inputs": [
        {
          "internalType": "address",
          "name": "_onBehalfOf",
          "type": "address"
        },
        {
          "internalType": "uint256",
          "name": "_amount",
          "type": "uint256"
        }
      ],
      "name": "repay",
      "outputs": [],
      "stateMutability": "nonpayable",
      "type": "function"
    },
    {
      "inputs": [
        {
          "internalType": "contract IController",
          "name": "_controller",
          "type": "address"
        }
      ],
      "name": "setController",
      "outputs": [],
      "stateMutability": "nonpayable",
      "type": "function"
    },
    {
      "inputs": [],
      "name": "symbol",
      "outputs": [
        {
          "internalType": "string",
          "name": "",
          "type": "string"
        }
      ],
      "stateMutability": "view",
      "type": "function"
    },
    {
      "inputs": [],
      "name": "toggleIsActive",
      "outputs": [],
      "stateMutability": "nonpayable",
      "type": "function"
    },
    {
      "inputs": [],
      "name": "totalSupply",
      "outputs": [
        {
          "internalType": "uint256",
          "name": "",
          "type": "uint256"
        }
      ],
      "stateMutability": "view",
      "type": "function"
    },
    {
      "inputs": [
        {
          "internalType": "address",
          "name": "recipient",
          "type": "address"
        },
        {
          "internalType": "uint256",
          "name": "amount",
          "type": "uint256"
        }
      ],
      "name": "transfer",
      "outputs": [
        {
          "internalType": "bool",
          "name": "",
          "type": "bool"
        }
      ],
      "stateMutability": "nonpayable",
      "type": "function"
    },
    {
      "inputs": [
        {
          "internalType": "address",
          "name": "sender",
          "type": "address"
        },
        {
          "internalType": "address",
          "name": "recipient",
          "type": "address"
        },
        {
          "internalType": "uint256",
          "name": "amount",
          "type": "uint256"
        }
      ],
      "name": "transferFrom",
      "outputs": [
        {
          "internalType": "bool",
          "name": "",
          "type": "bool"
        }
      ],
      "stateMutability": "nonpayable",
      "type": "function"
    },
    {
      "inputs": [
        {
          "internalType": "uint256",
          "name": "_newInterestRate",
          "type": "uint256"
        }
      ],
      "name": "updateInterestRate",
      "outputs": [],
      "stateMutability": "nonpayable",
      "type": "function"
    },
    {
      "inputs": [
        {
          "internalType": "uint256",
          "name": "_newMaxTotalSupplyInUsd",
          "type": "uint256"
        }
      ],
      "name": "updateMaxTotalSupplyInUsd",
      "outputs": [],
      "stateMutability": "nonpayable",
      "type": "function"
    }
  ],
  "transactionHash": "0x73cd6eb0517c76b9f7cdd031805fecaf187948a50cc4f2e5952a3fad5ab17472",
  "args": [],
  "numDeployments": 2,
  "solcInputHash": "9d493da7ad7feb9d41baa9f03a4d1394",
  "bytecode": "0x608060405234801561001057600080fd5b50612741806100206000396000f3fe608060405234801561001057600080fd5b506004361061019a5760003560e01c80637c48da96116100e4578063b696a6ad11610092578063b696a6ad14610349578063d25933291461035c578063d37db1d214610364578063dd62ed3e1461036e578063f77c479114610399578063f8d89898146103ac578063f9bd04e4146103c4578063ffa1ad74146103d757600080fd5b80637c48da96146102da57806392eefe9b146102ed57806395d89b41146103005780639dc29fac14610308578063a457c2d71461031b578063a6afed951461032e578063a9059cbb1461033657600080fd5b80632ff7709e1161014c5780632ff7709e14610248578063313ce56714610250578063395093511461026f57806340c10f19146102825780634dac56501461029557806370a082311461029e578063752a50a6146102be5780637c3a00fd146102d157600080fd5b806306fdde031461019f578063095ea7b3146101bd5780630c340a24146101e057806318160ddd146101f557806322867d781461020c57806322f3e2d41461022157806323b872dd14610235575b600080fd5b6101a76103fb565b6040516101b49190612114565b60405180910390f35b6101d06101cb36600461217e565b610489565b60405190151581526020016101b4565b6101e86104a0565b6040516101b491906121aa565b6101fe60385481565b6040519081526020016101b4565b61021f61021a36600461217e565b610522565b005b603a546101d090600160a81b900460ff1681565b6101d06102433660046121be565b610a70565b6101fe610b0d565b603a5461025d9060ff1681565b60405160ff90911681526020016101b4565b6101d061027d36600461217e565b610b20565b61021f61029036600461217e565b610b5c565b6101fe60395481565b6101fe6102ac3660046121ff565b60346020526000908152604090205481565b61021f6102cc36600461221c565b610b9d565b6101fe603b5481565b61021f6102e836600461228d565b610c3f565b61021f6102fb3660046121ff565b610e97565b6101a7610f47565b61021f61031636600461217e565b610f54565b6101d061032936600461217e565b610f91565b61021f61101c565b6101d061034436600461217e565b611135565b61021f610357366004612348565b611142565b61021f611866565b6101fe6223a50081565b6101fe61037c366004612378565b603560209081526000928352604080842090915290825290205481565b6002546101e8906001600160a01b031681565b603a546101e89061010090046001600160a01b031681565b61021f6103d236600461221c565b611902565b6101a7604051806040016040528060058152602001640312e302e360dc1b81525081565b60368054610408906123a6565b80601f0160208091040260200160405190810160405280929190818152602001828054610434906123a6565b80156104815780601f1061045657610100808354040283529160200191610481565b820191906000526020600020905b81548152906001019060200180831161046457829003601f168201915b505050505081565b600061049633848461199c565b5060015b92915050565b6002546040805163030d028960e21b815290516000926001600160a01b031691630c340a24916004808301926020929190829003018186803b1580156104e557600080fd5b505afa1580156104f9573d6000803e3d6000fd5b505050506040513d601f19601f8201168201806040525081019061051d91906123e1565b905090565b600260009054906101000a90046001600160a01b03166001600160a01b031663ecf3a3f96040518163ffffffff1660e01b8152600401602060405180830381600087803b15801561057257600080fd5b505af1158015610586573d6000803e3d6000fd5b505050506040513d601f19601f820116820180604052508101906105aa9190612413565b156105d05760405162461bcd60e51b81526004016105c79061242e565b60405180910390fd5b600260015414156105f35760405162461bcd60e51b81526004016105c790612454565b6002600155806106155760405162461bcd60e51b81526004016105c79061248b565b61061d61101c565b60025460408051631f03d67d60e21b8152905133926000926001600160a01b0390911691637c0f59f49160048082019260209290919082900301818787803b15801561066857600080fd5b505af115801561067c573d6000803e3d6000fd5b505050506040513d601f19601f820116820180604052508101906106a091906124b3565b90508260008215610765576106c76106c084670de0b6b3a76400006124e2565b8690611aaa565b91506106d382866124fa565b905061076584600260009054906101000a90046001600160a01b03166001600160a01b03166361d027b36040518163ffffffff1660e01b815260040160206040518083038186803b15801561072757600080fd5b505afa15801561073b573d6000803e3d6000fd5b505050506040513d601f19601f8201168201806040525081019061075f91906123e1565b83611ae5565b6002546040805163f609280960e01b815290516000926001600160a01b03169163f609280991600480830192602092919082900301818787803b1580156107ab57600080fd5b505af11580156107bf573d6000803e3d6000fd5b505050506040513d601f19601f820116820180604052508101906107e391906124b3565b905080156109ad5760025460408051637556d1c160e11b815290516000926001600160a01b03169163eaada382916004808301926020929190829003018186803b15801561083057600080fd5b505afa158015610844573d6000803e3d6000fd5b505050506040513d601f19601f8201168201806040525081019061086891906123e1565b6001600160a01b031663ee9579963086603a60019054906101000a90046001600160a01b03166001600160a01b03166370a082318d6040518263ffffffff1660e01b81526004016108b991906121aa565b60206040518083038186803b1580156108d157600080fd5b505afa1580156108e5573d6000803e3d6000fd5b505050506040513d601f19601f8201168201806040525081019061090991906124b3565b61091391906124fa565b6040518363ffffffff1660e01b8152600401610930929190612511565b60206040518083038186803b15801561094857600080fd5b505afa15801561095c573d6000803e3d6000fd5b505050506040513d601f19601f8201168201806040525081019061098091906124b3565b905080158061098f5750818110155b6109ab5760405162461bcd60e51b81526004016105c79061252a565b505b6109b78584611c79565b603a54604051632770a7eb60e21b81526101009091046001600160a01b031690639dc29fac906109ed908a908790600401612511565b600060405180830381600087803b158015610a0757600080fd5b505af1158015610a1b573d6000803e3d6000fd5b505060408051898152602081018690526001600160a01b038b1693507f5f6b90489e1c8359fc6a7d2eda9ab6a9ec7baedfe4bfee3c5f9c56c71afaa85b92500160405180910390a25050600180555050505050565b6000610a7d848484611ae5565b6001600160a01b03841660009081526035602090815260408083203384529091529020546000198114610b025782811015610af55760405162461bcd60e51b8152602060048201526018602482015277616d6f756e742d657863656564732d616c6c6f77616e636560401b60448201526064016105c7565b610b02853385840361199c565b506001949350505050565b60006223a500603b5461051d9190612551565b3360008181526035602090815260408083206001600160a01b03871684529091528120549091610496918590610b579086906124e2565b61199c565b6002546001600160a01b0316336001600160a01b031614610b8f5760405162461bcd60e51b81526004016105c790612573565b610b998282611d98565b5050565b610ba56104a0565b6001600160a01b0316336001600160a01b031614610bd55760405162461bcd60e51b81526004016105c79061259b565b610bdd61101c565b603b5481811415610c005760405162461bcd60e51b81526004016105c7906125c1565b60408051828152602081018490527f41e376fd99913dea7fda140f5c0bd997515b1a181acc58737320322548ec6e72910160405180910390a150603b55565b600054610100900460ff1680610c58575060005460ff16155b610c745760405162461bcd60e51b81526004016105c7906125ee565b600054610100900460ff16158015610c96576000805461ffff19166101011790555b6001600160a01b038416610ce15760405162461bcd60e51b81526020600482015260126024820152711919589d0b5d1bdad95b8b5a5ccb5b9d5b1b60721b60448201526064016105c7565b836001600160a01b031663313ce5676040518163ffffffff1660e01b815260040160206040518083038186803b158015610d1a57600080fd5b505afa158015610d2e573d6000803e3d6000fd5b505050506040513d601f19601f82011682018060405250810190610d52919061263c565b60ff168660ff1614610da65760405162461bcd60e51b815260206004820152601d60248201527f646562742d646563696d616c732d69732d6e6f742d7468652d73616d6500000060448201526064016105c7565b6001600160a01b038516610dfc5760405162461bcd60e51b815260206004820152601a60248201527f636f6e74726f6c6c65722d616464726573732d69732d7a65726f00000000000060448201526064016105c7565b610e04611fd8565b600280546001600160a01b0319166001600160a01b038716179055610e2b60368b8b61207b565b50610e386037898961207b565b50603a805460ff60a81b196001600160a01b038716610100026001600160a81b031990921660ff8a16179190911716600160a81b179055603b83905560398290558015610e8b576000805461ff00191690555b50505050505050505050565b610e9f6104a0565b6001600160a01b0316336001600160a01b031614610ecf5760405162461bcd60e51b81526004016105c79061259b565b6001600160a01b038116610f255760405162461bcd60e51b815260206004820152601e60248201527f6e65772d636f6e74726f6c6c65722d616464726573732d69732d7a65726f000060448201526064016105c7565b600280546001600160a01b0319166001600160a01b0392909216919091179055565b60378054610408906123a6565b6002546001600160a01b0316336001600160a01b031614610f875760405162461bcd60e51b81526004016105c790612573565b610b998282611c79565b3360009081526035602090815260408083206001600160a01b0386168452909152812054828110156110055760405162461bcd60e51b815260206004820152601e60248201527f6465637265617365642d616c6c6f77616e63652d62656c6f772d7a65726f000060448201526064016105c7565b611012338585840361199c565b5060019392505050565b6000603a60019054906101000a90046001600160a01b03166001600160a01b031663a6afed956040518163ffffffff1660e01b8152600401602060405180830381600087803b15801561106e57600080fd5b505af1158015611082573d6000803e3d6000fd5b505050506040513d601f19601f820116820180604052508101906110a691906124b3565b9050801561113257600254604080516361d027b360e01b81529051611132926001600160a01b0316916361d027b3916004808301926020929190829003018186803b1580156110f457600080fd5b505afa158015611108573d6000803e3d6000fd5b505050506040513d601f19601f8201168201806040525081019061112c91906123e1565b82611d98565b50565b6000610496338484611ae5565b600260009054906101000a90046001600160a01b03166001600160a01b031663ecf3a3f96040518163ffffffff1660e01b8152600401602060405180830381600087803b15801561119257600080fd5b505af11580156111a6573d6000803e3d6000fd5b505050506040513d601f19601f820116820180604052508101906111ca9190612413565b156111e75760405162461bcd60e51b81526004016105c79061242e565b6002600154141561120a5760405162461bcd60e51b81526004016105c790612454565b60026001819055546040516309bf6ca360e31b81526001600160a01b0390911690634dfb65189061123f9030906004016121aa565b60206040518083038186803b15801561125757600080fd5b505afa15801561126b573d6000803e3d6000fd5b505050506040513d601f19601f8201168201806040525081019061128f9190612413565b6112d25760405162461bcd60e51b81526020600482015260146024820152731cde5b9d1a195d1a58cb5a5b995e1a5cdd195b9d60621b60448201526064016105c7565b603a54600160a81b900460ff166112fb5760405162461bcd60e51b81526004016105c790612659565b6000821161131b5760405162461bcd60e51b81526004016105c79061248b565b3361132461101c565b60025460405163dde3ab9560e01b81526000916001600160a01b03169063dde3ab95906113559085906004016121aa565b60a06040518083038186803b15801561136d57600080fd5b505afa158015611381573d6000803e3d6000fd5b505050506040513d601f19601f820116820180604052508101906113a59190612685565b9450505050506000600260009054906101000a90046001600160a01b03166001600160a01b031663eaada3826040518163ffffffff1660e01b815260040160206040518083038186803b1580156113fb57600080fd5b505afa15801561140f573d6000803e3d6000fd5b505050506040513d601f19601f8201168201806040525081019061143391906123e1565b6040516357f1915d60e01b81529091506001600160a01b038216906357f1915d906114649030908690600401612511565b60206040518083038186803b15801561147c57600080fd5b505afa158015611490573d6000803e3d6000fd5b505050506040513d601f19601f820116820180604052508101906114b491906124b3565b8511156114fb5760405162461bcd60e51b81526020600482015260156024820152741b9bdd0b595b9bdd59da0b58dbdb1b185d195c985b605a1b60448201526064016105c7565b6002546040805163f609280960e01b815290516000926001600160a01b03169163f609280991600480830192602092919082900301818787803b15801561154157600080fd5b505af1158015611555573d6000803e3d6000fd5b505050506040513d601f19601f8201168201806040525081019061157991906124b3565b905080156116aa57603a546040516370a0823160e01b815282916001600160a01b038086169263ee9579969230928c9261010090920416906370a08231906115c5908c906004016121aa565b60206040518083038186803b1580156115dd57600080fd5b505afa1580156115f1573d6000803e3d6000fd5b505050506040513d601f19601f8201168201806040525081019061161591906124b3565b61161f91906124e2565b6040518363ffffffff1660e01b815260040161163c929190612511565b60206040518083038186803b15801561165457600080fd5b505afa158015611668573d6000803e3d6000fd5b505050506040513d601f19601f8201168201806040525081019061168c91906124b3565b10156116aa5760405162461bcd60e51b81526004016105c79061252a565b60025460408051632a9133c160e01b815290516000926001600160a01b031691632a9133c191600480830192602092919082900301818787803b1580156116f057600080fd5b505af1158015611704573d6000803e3d6000fd5b505050506040513d601f19601f8201168201806040525081019061172891906124b3565b9050866000821561179d5761173d8984612043565b9050611790600260009054906101000a90046001600160a01b03166001600160a01b03166361d027b36040518163ffffffff1660e01b815260040160206040518083038186803b1580156110f457600080fd5b61179a81836124fa565b91505b6117a78883611d98565b603a546040516340c10f1960e01b81526101009091046001600160a01b0316906340c10f19906117dd908a908d90600401612511565b600060405180830381600087803b1580156117f757600080fd5b505af115801561180b573d6000803e3d6000fd5b5050604080518c8152602081018590526001600160a01b03808d1694508b1692507f8ed56bdcd59d676b8a4feb74d858ffa2bc47f80b291f9df3ced2fad3d953f798910160405180910390a350506001805550505050505050565b61186e6104a0565b6001600160a01b0316336001600160a01b03161461189e5760405162461bcd60e51b81526004016105c79061259b565b603a5460408051600160a81b90920460ff168015801584526020840152917fcaaaa88cc2414229e1aa662e7856f1b8601c703e3c21beb1b894b5fe2a3a6f2e910160405180910390a1603a805460ff60a81b19169115600160a81b02919091179055565b61190a6104a0565b6001600160a01b0316336001600160a01b03161461193a5760405162461bcd60e51b81526004016105c79061259b565b6039548181141561195d5760405162461bcd60e51b81526004016105c7906125c1565b60408051828152602081018490527fc58cd6132bb46df23d468939c03dd023b74b509aaa6b04c39d5a6461c65963bd910160405180910390a150603955565b6001600160a01b0383166119f25760405162461bcd60e51b815260206004820152601d60248201527f617070726f76652d66726f6d2d7468652d7a65726f2d6164647265737300000060448201526064016105c7565b6001600160a01b038216611a485760405162461bcd60e51b815260206004820152601b60248201527f617070726f76652d746f2d7468652d7a65726f2d61646472657373000000000060448201526064016105c7565b6001600160a01b0383811660008181526035602090815260408083209487168084529482529182902085905590518481527f8c5be1e5ebec7d5bd14f71427d1e84f3dd0314c0f7b2291e5b200ac8c7c3b92591015b60405180910390a3505050565b600081611ab8600282612551565b611aca670de0b6b3a7640000866126cc565b611ad491906124e2565b611ade9190612551565b9392505050565b6001600160a01b038316611b3b5760405162461bcd60e51b815260206004820152601e60248201527f7472616e736665722d66726f6d2d7468652d7a65726f2d61646472657373000060448201526064016105c7565b6001600160a01b038216611b915760405162461bcd60e51b815260206004820152601c60248201527f7472616e736665722d746f2d7468652d7a65726f2d616464726573730000000060448201526064016105c7565b6001600160a01b03831660009081526034602052604090205481811015611bfa5760405162461bcd60e51b815260206004820152601f60248201527f7472616e736665722d616d6f756e742d657863656564732d62616c616e63650060448201526064016105c7565b6001600160a01b03808516600090815260346020526040808220858503905591851681529081208054849290611c319084906124e2565b92505081905550826001600160a01b0316846001600160a01b03166000805160206126ec83398151915284604051611c6b91815260200190565b60405180910390a350505050565b6001600160a01b038216611ccf5760405162461bcd60e51b815260206004820152601a60248201527f6275726e2d66726f6d2d7468652d7a65726f2d6164647265737300000000000060448201526064016105c7565b6001600160a01b03821660009081526034602052604090205481811015611d385760405162461bcd60e51b815260206004820152601b60248201527f6275726e2d616d6f756e742d657863656564732d62616c616e6365000000000060448201526064016105c7565b6001600160a01b0383166000908152603460205260408120838303905560388054849290611d679084906124fa565b90915550506040518281526000906001600160a01b038516906000805160206126ec83398151915290602001611a9d565b603a54600160a81b900460ff16611dc15760405162461bcd60e51b81526004016105c790612659565b6001600160a01b038216611e125760405162461bcd60e51b81526020600482015260186024820152776d696e742d746f2d7468652d7a65726f2d6164647265737360401b60448201526064016105c7565b60025460408051637556d1c160e11b815290516000926001600160a01b03169163eaada382916004808301926020929190829003018186803b158015611e5757600080fd5b505afa158015611e6b573d6000803e3d6000fd5b505050506040513d601f19601f82011682018060405250810190611e8f91906123e1565b6001600160a01b031663ee9579963084603854611eac91906124e2565b6040518363ffffffff1660e01b8152600401611ec9929190612511565b60206040518083038186803b158015611ee157600080fd5b505afa158015611ef5573d6000803e3d6000fd5b505050506040513d601f19601f82011682018060405250810190611f1991906124b3565b9050603954811115611f685760405162461bcd60e51b8152602060048201526018602482015277737572706173732d6d61782d746f74616c2d737570706c7960401b60448201526064016105c7565b8160386000828254611f7a91906124e2565b90915550506001600160a01b03831660009081526034602052604081208054849290611fa79084906124e2565b90915550506040518281526001600160a01b038416906000906000805160206126ec83398151915290602001611a9d565b600054610100900460ff1680611ff1575060005460ff16155b61200d5760405162461bcd60e51b81526004016105c7906125ee565b600054610100900460ff1615801561202f576000805461ffff19166101011790555b8015611132576000805461ff001916905550565b6000821580612050575081155b1561205d5750600061049a565b670de0b6b3a7640000612071600282612551565b611aca84866126cc565b828054612087906123a6565b90600052602060002090601f0160209004810192826120a957600085556120ef565b82601f106120c25782800160ff198235161785556120ef565b828001600101855582156120ef579182015b828111156120ef5782358255916020019190600101906120d4565b506120fb9291506120ff565b5090565b5b808211156120fb5760008155600101612100565b600060208083528351808285015260005b8181101561214157858101830151858201604001528201612125565b81811115612153576000604083870101525b50601f01601f1916929092016040019392505050565b6001600160a01b038116811461113257600080fd5b6000806040838503121561219157600080fd5b823561219c81612169565b946020939093013593505050565b6001600160a01b0391909116815260200190565b6000806000606084860312156121d357600080fd5b83356121de81612169565b925060208401356121ee81612169565b929592945050506040919091013590565b60006020828403121561221157600080fd5b8135611ade81612169565b60006020828403121561222e57600080fd5b5035919050565b60008083601f84011261224757600080fd5b50813567ffffffffffffffff81111561225f57600080fd5b60208301915083602082850101111561227757600080fd5b9250929050565b60ff8116811461113257600080fd5b600080600080600080600080600060e08a8c0312156122ab57600080fd5b893567ffffffffffffffff808211156122c357600080fd5b6122cf8d838e01612235565b909b50995060208c01359150808211156122e857600080fd5b506122f58c828d01612235565b90985096505060408a01356123098161227e565b945060608a013561231981612169565b935060808a013561232981612169565b8093505060a08a0135915060c08a013590509295985092959850929598565b6000806040838503121561235b57600080fd5b82359150602083013561236d81612169565b809150509250929050565b6000806040838503121561238b57600080fd5b823561239681612169565b9150602083013561236d81612169565b600181811c908216806123ba57607f821691505b602082108114156123db57634e487b7160e01b600052602260045260246000fd5b50919050565b6000602082840312156123f357600080fd5b8151611ade81612169565b8051801515811461240e57600080fd5b919050565b60006020828403121561242557600080fd5b611ade826123fe565b6020808252600c908201526b3737ba16b9b43aba3237bbb760a11b604082015260600190565b6020808252601f908201527f5265656e7472616e637947756172643a207265656e7472616e742063616c6c00604082015260600190565b6020808252600e908201526d616d6f756e742d69732d7a65726f60901b604082015260600190565b6000602082840312156124c557600080fd5b5051919050565b634e487b7160e01b600052601160045260246000fd5b600082198211156124f5576124f56124cc565b500190565b60008282101561250c5761250c6124cc565b500390565b6001600160a01b03929092168252602082015260400190565b6020808252600d908201526c3232b13a16b63a16b33637b7b960991b604082015260600190565b60008261256e57634e487b7160e01b600052601260045260246000fd5b500490565b6020808252600e908201526d3737ba16b1b7b73a3937b63632b960911b604082015260600190565b6020808252600c908201526b3737ba16b3b7bb32b93737b960a11b604082015260600190565b6020808252601390820152721b995dcb5cd85b594b585ccb58dd5c9c995b9d606a1b604082015260600190565b6020808252602e908201527f496e697469616c697a61626c653a20636f6e747261637420697320616c72656160408201526d191e481a5b9a5d1a585b1a5e995960921b606082015260800190565b60006020828403121561264e57600080fd5b8151611ade8161227e565b60208082526012908201527173796e7468657469632d696e61637469766560701b604082015260600190565b600080600080600060a0868803121561269d57600080fd5b6126a6866123fe565b602087015160408801516060890151608090990151929a91995097965090945092505050565b60008160001904831182151516156126e6576126e66124cc565b50029056feddf252ad1be2c89b69c2b068fc378daa952ba7f163c4a11628f55a4df523b3efa264697066735822122019e7e89cb247e2bb0b00d592f571916f1a1c98ef58357c6f8bd3b0cb57f1871764736f6c63430008090033",
  "devdoc": {
    "kind": "dev",
    "methods": {
      "approve(address,uint256)": {
        "details": "Sets `amount` as the allowance of `spender` over the caller's tokens. Returns a boolean value indicating whether the operation succeeded. IMPORTANT: Beware that changing an allowance with this method brings the risk that someone may use both the old and the new allowance by unfortunate transaction ordering. One possible solution to mitigate this race condition is to first reduce the spender's allowance to 0 and set the desired value afterwards: https://github.com/ethereum/EIPs/issues/20#issuecomment-263524729 Emits an {Approval} event."
      },
      "burn(address,uint256)": {
        "params": {
          "_amount": "The amount to burn",
          "_from": "The account to burn from"
        }
      },
      "issue(uint256,address)": {
        "params": {
          "_amount": "The amount to mint"
        }
      },
      "mint(address,uint256)": {
        "params": {
          "_amount": "The amount to mint",
          "_to": "The account to mint to"
        }
      },
      "repay(address,uint256)": {
        "details": "The msg.sender is the payer and the account beneficied",
        "params": {
          "_amount": "The amount of synthetic token to burn (should consider the repay fee)",
          "_onBehalfOf": "The account that will have debt decreased"
        }
      },
      "setController(address)": {
        "params": {
          "_controller": "The new Controller contract"
        }
      },
      "transfer(address,uint256)": {
        "details": "Moves `amount` tokens from the caller's account to `recipient`. Returns a boolean value indicating whether the operation succeeded. Emits a {Transfer} event."
      },
      "transferFrom(address,address,uint256)": {
        "details": "Moves `amount` tokens from `sender` to `recipient` using the allowance mechanism. `amount` is then deducted from the caller's allowance. Returns a boolean value indicating whether the operation succeeded. Emits a {Transfer} event."
      },
      "updateMaxTotalSupplyInUsd(uint256)": {
        "params": {
          "_newMaxTotalSupplyInUsd": "The new max total supply (in USD)"
        }
      }
    },
    "title": "Synthetic Token contract",
    "version": 1
  },
  "userdoc": {
    "events": {
      "DebtRepayed(address,uint256,uint256)": {
        "notice": "Emitted when synthetic's debt is repayed"
      },
      "InterestRateUpdated(uint256,uint256)": {
        "notice": "Emitted when interest rate is updated"
      },
      "MaxTotalSupplyUpdated(uint256,uint256)": {
        "notice": "Emitted when max total supply is updated"
      },
      "SyntheticTokenActiveUpdated(bool,bool)": {
        "notice": "Emitted when active flag is updated"
      },
      "SyntheticTokenIssued(address,address,uint256,uint256)": {
        "notice": "Emitted when synthetic token is issued"
      }
    },
    "kind": "user",
    "methods": {
      "accrueInterest()": {
        "notice": "Accrue interest"
      },
      "burn(address,uint256)": {
        "notice": "Burn synthetic token"
      },
      "controller()": {
        "notice": "Controller contract"
      },
      "debtToken()": {
        "notice": "Non-transferable token that represents users' debts"
      },
      "interestRate()": {
        "notice": "Interest rate"
      },
      "isActive()": {
        "notice": "If a vsAsset isn't active, it disables minting new tokens"
      },
      "issue(uint256,address)": {
        "notice": "Lock collateral and mint synthetic token"
      },
      "mint(address,uint256)": {
        "notice": "Mint synthetic token"
      },
      "repay(address,uint256)": {
        "notice": "Send synthetic token to decrease debt"
      },
      "setController(address)": {
        "notice": "Update Controller contract"
      },
      "toggleIsActive()": {
        "notice": "Enable/Disable the Synthetic Token"
      },
      "updateInterestRate(uint256)": {
        "notice": "Update interest rate (APR)"
      },
      "updateMaxTotalSupplyInUsd(uint256)": {
        "notice": "Update max total supply (in USD)"
      }
    },
    "version": 1
  },
  "storageLayout": {
    "storage": [
      {
        "astId": 7184,
        "contract": "contracts/SyntheticToken.sol:SyntheticToken",
        "label": "_initialized",
        "offset": 0,
        "slot": "0",
        "type": "t_bool"
      },
      {
        "astId": 7187,
        "contract": "contracts/SyntheticToken.sol:SyntheticToken",
        "label": "_initializing",
        "offset": 1,
        "slot": "0",
        "type": "t_bool"
      },
      {
        "astId": 7238,
        "contract": "contracts/SyntheticToken.sol:SyntheticToken",
        "label": "_status",
        "offset": 0,
        "slot": "1",
        "type": "t_uint256"
      },
      {
        "astId": 6155,
        "contract": "contracts/SyntheticToken.sol:SyntheticToken",
        "label": "controller",
        "offset": 0,
        "slot": "2",
        "type": "t_contract(IController)10868"
      },
      {
        "astId": 6263,
        "contract": "contracts/SyntheticToken.sol:SyntheticToken",
        "label": "__gap",
        "offset": 0,
        "slot": "3",
        "type": "t_array(t_uint256)49_storage"
      },
      {
        "astId": 14920,
        "contract": "contracts/SyntheticToken.sol:SyntheticToken",
        "label": "balanceOf",
        "offset": 0,
        "slot": "52",
        "type": "t_mapping(t_address,t_uint256)"
      },
      {
        "astId": 14926,
        "contract": "contracts/SyntheticToken.sol:SyntheticToken",
        "label": "allowance",
        "offset": 0,
        "slot": "53",
        "type": "t_mapping(t_address,t_mapping(t_address,t_uint256))"
      },
      {
        "astId": 14928,
        "contract": "contracts/SyntheticToken.sol:SyntheticToken",
        "label": "name",
        "offset": 0,
        "slot": "54",
        "type": "t_string_storage"
      },
      {
        "astId": 14930,
        "contract": "contracts/SyntheticToken.sol:SyntheticToken",
        "label": "symbol",
        "offset": 0,
        "slot": "55",
        "type": "t_string_storage"
      },
      {
        "astId": 14932,
        "contract": "contracts/SyntheticToken.sol:SyntheticToken",
        "label": "totalSupply",
        "offset": 0,
        "slot": "56",
        "type": "t_uint256"
      },
      {
        "astId": 14934,
        "contract": "contracts/SyntheticToken.sol:SyntheticToken",
        "label": "maxTotalSupplyInUsd",
        "offset": 0,
        "slot": "57",
        "type": "t_uint256"
      },
      {
        "astId": 14936,
        "contract": "contracts/SyntheticToken.sol:SyntheticToken",
        "label": "decimals",
        "offset": 0,
        "slot": "58",
        "type": "t_uint8"
      },
      {
        "astId": 14940,
        "contract": "contracts/SyntheticToken.sol:SyntheticToken",
        "label": "debtToken",
        "offset": 1,
        "slot": "58",
        "type": "t_contract(IDebtToken)10908"
      },
      {
        "astId": 14943,
        "contract": "contracts/SyntheticToken.sol:SyntheticToken",
        "label": "isActive",
        "offset": 21,
        "slot": "58",
        "type": "t_bool"
      },
      {
        "astId": 14946,
        "contract": "contracts/SyntheticToken.sol:SyntheticToken",
        "label": "interestRate",
        "offset": 0,
        "slot": "59",
        "type": "t_uint256"
      }
    ],
    "types": {
      "t_address": {
        "encoding": "inplace",
        "label": "address",
        "numberOfBytes": "20"
      },
      "t_array(t_uint256)49_storage": {
        "base": "t_uint256",
        "encoding": "inplace",
        "label": "uint256[49]",
        "numberOfBytes": "1568"
      },
      "t_bool": {
        "encoding": "inplace",
        "label": "bool",
        "numberOfBytes": "1"
      },
      "t_contract(IController)10868": {
        "encoding": "inplace",
        "label": "contract IController",
        "numberOfBytes": "20"
      },
      "t_contract(IDebtToken)10908": {
        "encoding": "inplace",
        "label": "contract IDebtToken",
        "numberOfBytes": "20"
      },
      "t_mapping(t_address,t_mapping(t_address,t_uint256))": {
        "encoding": "mapping",
        "key": "t_address",
        "label": "mapping(address => mapping(address => uint256))",
        "numberOfBytes": "32",
        "value": "t_mapping(t_address,t_uint256)"
      },
      "t_mapping(t_address,t_uint256)": {
        "encoding": "mapping",
        "key": "t_address",
        "label": "mapping(address => uint256)",
        "numberOfBytes": "32",
        "value": "t_uint256"
      },
      "t_string_storage": {
        "encoding": "bytes",
        "label": "string",
        "numberOfBytes": "32"
      },
      "t_uint256": {
        "encoding": "inplace",
        "label": "uint256",
        "numberOfBytes": "32"
      },
      "t_uint8": {
        "encoding": "inplace",
        "label": "uint8",
        "numberOfBytes": "1"
      }
    }
  }
}