{
  "address": "0x41d9658AAA0064328736aD964e1B9020BFBE2eF0",
  "abi": [
    {
      "anonymous": false,
      "inputs": [
        {
          "indexed": true,
          "internalType": "address",
          "name": "owner",
          "type": "address"
        },
        {
          "indexed": true,
          "internalType": "address",
          "name": "spender",
          "type": "address"
        },
        {
          "indexed": false,
          "internalType": "uint256",
          "name": "value",
          "type": "uint256"
        }
      ],
      "name": "Approval",
      "type": "event"
    },
    {
      "anonymous": false,
      "inputs": [
        {
          "indexed": true,
          "internalType": "address",
          "name": "account",
          "type": "address"
        },
        {
          "indexed": false,
          "internalType": "uint256",
          "name": "amount",
          "type": "uint256"
        },
        {
          "indexed": false,
          "internalType": "uint256",
          "name": "fee",
          "type": "uint256"
        }
      ],
      "name": "DebtRepayed",
      "type": "event"
    },
    {
      "anonymous": false,
      "inputs": [
        {
          "indexed": false,
          "internalType": "uint256",
          "name": "oldInterestRate",
          "type": "uint256"
        },
        {
          "indexed": false,
          "internalType": "uint256",
          "name": "newInterestRate",
          "type": "uint256"
        }
      ],
      "name": "InterestRateUpdated",
      "type": "event"
    },
    {
      "anonymous": false,
      "inputs": [
        {
          "indexed": false,
          "internalType": "uint256",
          "name": "oldMaxTotalSupply",
          "type": "uint256"
        },
        {
          "indexed": false,
          "internalType": "uint256",
          "name": "newMaxTotalSupply",
          "type": "uint256"
        }
      ],
      "name": "MaxTotalSupplyUpdated",
      "type": "event"
    },
    {
      "anonymous": false,
      "inputs": [
        {
          "indexed": false,
          "internalType": "bool",
          "name": "oldActive",
          "type": "bool"
        },
        {
          "indexed": false,
          "internalType": "bool",
          "name": "newActive",
          "type": "bool"
        }
      ],
      "name": "SyntheticTokenActiveUpdated",
      "type": "event"
    },
    {
      "anonymous": false,
      "inputs": [
        {
          "indexed": true,
          "internalType": "address",
          "name": "account",
          "type": "address"
        },
        {
          "indexed": true,
          "internalType": "address",
          "name": "to",
          "type": "address"
        },
        {
          "indexed": false,
          "internalType": "uint256",
          "name": "amount",
          "type": "uint256"
        },
        {
          "indexed": false,
          "internalType": "uint256",
          "name": "fee",
          "type": "uint256"
        }
      ],
      "name": "SyntheticTokenIssued",
      "type": "event"
    },
    {
      "anonymous": false,
      "inputs": [
        {
          "indexed": true,
          "internalType": "address",
          "name": "from",
          "type": "address"
        },
        {
          "indexed": true,
          "internalType": "address",
          "name": "to",
          "type": "address"
        },
        {
          "indexed": false,
          "internalType": "uint256",
          "name": "value",
          "type": "uint256"
        }
      ],
      "name": "Transfer",
      "type": "event"
    },
    {
      "inputs": [],
      "name": "BLOCKS_PER_YEAR",
      "outputs": [
        {
          "internalType": "uint256",
          "name": "",
          "type": "uint256"
        }
      ],
      "stateMutability": "view",
      "type": "function"
    },
    {
      "inputs": [],
      "name": "VERSION",
      "outputs": [
        {
          "internalType": "string",
          "name": "",
          "type": "string"
        }
      ],
      "stateMutability": "view",
      "type": "function"
    },
    {
      "inputs": [],
      "name": "accrueInterest",
      "outputs": [],
      "stateMutability": "nonpayable",
      "type": "function"
    },
    {
      "inputs": [
        {
          "internalType": "address",
          "name": "",
          "type": "address"
        },
        {
          "internalType": "address",
          "name": "",
          "type": "address"
        }
      ],
      "name": "allowance",
      "outputs": [
        {
          "internalType": "uint256",
          "name": "",
          "type": "uint256"
        }
      ],
      "stateMutability": "view",
      "type": "function"
    },
    {
      "inputs": [
        {
          "internalType": "address",
          "name": "spender",
          "type": "address"
        },
        {
          "internalType": "uint256",
          "name": "amount",
          "type": "uint256"
        }
      ],
      "name": "approve",
      "outputs": [
        {
          "internalType": "bool",
          "name": "",
          "type": "bool"
        }
      ],
      "stateMutability": "nonpayable",
      "type": "function"
    },
    {
      "inputs": [
        {
          "internalType": "address",
          "name": "",
          "type": "address"
        }
      ],
      "name": "balanceOf",
      "outputs": [
        {
          "internalType": "uint256",
          "name": "",
          "type": "uint256"
        }
      ],
      "stateMutability": "view",
      "type": "function"
    },
    {
      "inputs": [
        {
          "internalType": "address",
          "name": "_from",
          "type": "address"
        },
        {
          "internalType": "uint256",
          "name": "_amount",
          "type": "uint256"
        }
      ],
      "name": "burn",
      "outputs": [],
      "stateMutability": "nonpayable",
      "type": "function"
    },
    {
      "inputs": [],
      "name": "controller",
      "outputs": [
        {
          "internalType": "contract IController",
          "name": "",
          "type": "address"
        }
      ],
      "stateMutability": "view",
      "type": "function"
    },
    {
      "inputs": [],
      "name": "debtToken",
      "outputs": [
        {
          "internalType": "contract IDebtToken",
          "name": "",
          "type": "address"
        }
      ],
      "stateMutability": "view",
      "type": "function"
    },
    {
      "inputs": [],
      "name": "decimals",
      "outputs": [
        {
          "internalType": "uint8",
          "name": "",
          "type": "uint8"
        }
      ],
      "stateMutability": "view",
      "type": "function"
    },
    {
      "inputs": [
        {
          "internalType": "address",
          "name": "spender",
          "type": "address"
        },
        {
          "internalType": "uint256",
          "name": "subtractedValue",
          "type": "uint256"
        }
      ],
      "name": "decreaseAllowance",
      "outputs": [
        {
          "internalType": "bool",
          "name": "",
          "type": "bool"
        }
      ],
      "stateMutability": "nonpayable",
      "type": "function"
    },
    {
      "inputs": [],
      "name": "governor",
      "outputs": [
        {
          "internalType": "address",
          "name": "_governor",
          "type": "address"
        }
      ],
      "stateMutability": "view",
      "type": "function"
    },
    {
      "inputs": [
        {
          "internalType": "address",
          "name": "spender",
          "type": "address"
        },
        {
          "internalType": "uint256",
          "name": "addedValue",
          "type": "uint256"
        }
      ],
      "name": "increaseAllowance",
      "outputs": [
        {
          "internalType": "bool",
          "name": "",
          "type": "bool"
        }
      ],
      "stateMutability": "nonpayable",
      "type": "function"
    },
    {
      "inputs": [
        {
          "internalType": "string",
          "name": "_name",
          "type": "string"
        },
        {
          "internalType": "string",
          "name": "_symbol",
          "type": "string"
        },
        {
          "internalType": "uint8",
          "name": "_decimals",
          "type": "uint8"
        },
        {
          "internalType": "contract IController",
          "name": "_controller",
          "type": "address"
        },
        {
          "internalType": "contract IDebtToken",
          "name": "_debtToken",
          "type": "address"
        },
        {
          "internalType": "uint256",
          "name": "_interestRate",
          "type": "uint256"
        },
        {
          "internalType": "uint256",
          "name": "_maxTotalSupplyInUsd",
          "type": "uint256"
        }
      ],
      "name": "initialize",
      "outputs": [],
      "stateMutability": "nonpayable",
      "type": "function"
    },
    {
      "inputs": [],
      "name": "interestRate",
      "outputs": [
        {
          "internalType": "uint256",
          "name": "",
          "type": "uint256"
        }
      ],
      "stateMutability": "view",
      "type": "function"
    },
    {
      "inputs": [],
      "name": "interestRatePerBlock",
      "outputs": [
        {
          "internalType": "uint256",
          "name": "",
          "type": "uint256"
        }
      ],
      "stateMutability": "view",
      "type": "function"
    },
    {
      "inputs": [],
      "name": "isActive",
      "outputs": [
        {
          "internalType": "bool",
          "name": "",
          "type": "bool"
        }
      ],
      "stateMutability": "view",
      "type": "function"
    },
    {
      "inputs": [
        {
          "internalType": "uint256",
          "name": "_amount",
          "type": "uint256"
        },
        {
          "internalType": "address",
          "name": "_to",
          "type": "address"
        }
      ],
      "name": "issue",
      "outputs": [],
      "stateMutability": "nonpayable",
      "type": "function"
    },
    {
      "inputs": [],
      "name": "maxTotalSupplyInUsd",
      "outputs": [
        {
          "internalType": "uint256",
          "name": "",
          "type": "uint256"
        }
      ],
      "stateMutability": "view",
      "type": "function"
    },
    {
      "inputs": [
        {
          "internalType": "address",
          "name": "_to",
          "type": "address"
        },
        {
          "internalType": "uint256",
          "name": "_amount",
          "type": "uint256"
        }
      ],
      "name": "mint",
      "outputs": [],
      "stateMutability": "nonpayable",
      "type": "function"
    },
    {
      "inputs": [],
      "name": "name",
      "outputs": [
        {
          "internalType": "string",
          "name": "",
          "type": "string"
        }
      ],
      "stateMutability": "view",
      "type": "function"
    },
    {
      "inputs": [
        {
          "internalType": "address",
          "name": "_onBehalfOf",
          "type": "address"
        },
        {
          "internalType": "uint256",
          "name": "_amount",
          "type": "uint256"
        }
      ],
      "name": "repay",
      "outputs": [],
      "stateMutability": "nonpayable",
      "type": "function"
    },
    {
      "inputs": [
        {
          "internalType": "contract IController",
          "name": "_controller",
          "type": "address"
        }
      ],
      "name": "setController",
      "outputs": [],
      "stateMutability": "nonpayable",
      "type": "function"
    },
    {
      "inputs": [],
      "name": "symbol",
      "outputs": [
        {
          "internalType": "string",
          "name": "",
          "type": "string"
        }
      ],
      "stateMutability": "view",
      "type": "function"
    },
    {
      "inputs": [],
      "name": "toggleIsActive",
      "outputs": [],
      "stateMutability": "nonpayable",
      "type": "function"
    },
    {
      "inputs": [],
      "name": "totalSupply",
      "outputs": [
        {
          "internalType": "uint256",
          "name": "",
          "type": "uint256"
        }
      ],
      "stateMutability": "view",
      "type": "function"
    },
    {
      "inputs": [
        {
          "internalType": "address",
          "name": "recipient",
          "type": "address"
        },
        {
          "internalType": "uint256",
          "name": "amount",
          "type": "uint256"
        }
      ],
      "name": "transfer",
      "outputs": [
        {
          "internalType": "bool",
          "name": "",
          "type": "bool"
        }
      ],
      "stateMutability": "nonpayable",
      "type": "function"
    },
    {
      "inputs": [
        {
          "internalType": "address",
          "name": "sender",
          "type": "address"
        },
        {
          "internalType": "address",
          "name": "recipient",
          "type": "address"
        },
        {
          "internalType": "uint256",
          "name": "amount",
          "type": "uint256"
        }
      ],
      "name": "transferFrom",
      "outputs": [
        {
          "internalType": "bool",
          "name": "",
          "type": "bool"
        }
      ],
      "stateMutability": "nonpayable",
      "type": "function"
    },
    {
      "inputs": [
        {
          "internalType": "uint256",
          "name": "_newInterestRate",
          "type": "uint256"
        }
      ],
      "name": "updateInterestRate",
      "outputs": [],
      "stateMutability": "nonpayable",
      "type": "function"
    },
    {
      "inputs": [
        {
          "internalType": "uint256",
          "name": "_newMaxTotalSupplyInUsd",
          "type": "uint256"
        }
      ],
      "name": "updateMaxTotalSupplyInUsd",
      "outputs": [],
      "stateMutability": "nonpayable",
      "type": "function"
    }
  ],
  "transactionHash": "0xe45dd327b8b65d8a01a81c5c0f3c4652e5392a506e6ba7b8c2e16b4abf43567b",
  "args": [],
  "numDeployments": 1,
  "solcInputHash": "0077a7bd8b2b7c639ec050e1f3a43041",
  "bytecode": "0x608060405234801561001057600080fd5b50612710806100206000396000f3fe608060405234801561001057600080fd5b506004361061019a5760003560e01c80637c48da96116100e4578063b696a6ad11610092578063b696a6ad14610349578063d25933291461035c578063d37db1d214610364578063dd62ed3e1461036e578063f77c479114610399578063f8d89898146103ac578063f9bd04e4146103c4578063ffa1ad74146103d757600080fd5b80637c48da96146102da57806392eefe9b146102ed57806395d89b41146103005780639dc29fac14610308578063a457c2d71461031b578063a6afed951461032e578063a9059cbb1461033657600080fd5b80632ff7709e1161014c5780632ff7709e14610248578063313ce56714610250578063395093511461026f57806340c10f19146102825780634dac56501461029557806370a082311461029e578063752a50a6146102be5780637c3a00fd146102d157600080fd5b806306fdde031461019f578063095ea7b3146101bd5780630c340a24146101e057806318160ddd146101f557806322867d781461020c57806322f3e2d41461022157806323b872dd14610235575b600080fd5b6101a76103fb565b6040516101b491906120e3565b60405180910390f35b6101d06101cb36600461214d565b610489565b60405190151581526020016101b4565b6101e86104a0565b6040516101b49190612179565b6101fe60385481565b6040519081526020016101b4565b61021f61021a36600461214d565b610522565b005b603a546101d090600160a81b900460ff1681565b6101d061024336600461218d565b610a5f565b6101fe610afc565b603a5461025d9060ff1681565b60405160ff90911681526020016101b4565b6101d061027d36600461214d565b610b0f565b61021f61029036600461214d565b610b4b565b6101fe60395481565b6101fe6102ac3660046121ce565b60346020526000908152604090205481565b61021f6102cc3660046121eb565b610b8c565b6101fe603b5481565b61021f6102e836600461225c565b610c2e565b61021f6102fb3660046121ce565b610e86565b6101a7610f36565b61021f61031636600461214d565b610f43565b6101d061032936600461214d565b610f80565b61021f61100b565b6101d061034436600461214d565b611124565b61021f610357366004612317565b611131565b61021f611855565b6101fe6223a50081565b6101fe61037c366004612347565b603560209081526000928352604080842090915290825290205481565b6002546101e8906001600160a01b031681565b603a546101e89061010090046001600160a01b031681565b61021f6103d23660046121eb565b6118f1565b6101a7604051806040016040528060058152602001640312e302e360dc1b81525081565b6036805461040890612375565b80601f016020809104026020016040519081016040528092919081815260200182805461043490612375565b80156104815780601f1061045657610100808354040283529160200191610481565b820191906000526020600020905b81548152906001019060200180831161046457829003601f168201915b505050505081565b600061049633848461198b565b5060015b92915050565b6002546040805163030d028960e21b815290516000926001600160a01b031691630c340a24916004808301926020929190829003018186803b1580156104e557600080fd5b505afa1580156104f9573d6000803e3d6000fd5b505050506040513d601f19601f8201168201806040525081019061051d91906123b0565b905090565b600260009054906101000a90046001600160a01b03166001600160a01b031663ecf3a3f96040518163ffffffff1660e01b8152600401602060405180830381600087803b15801561057257600080fd5b505af1158015610586573d6000803e3d6000fd5b505050506040513d601f19601f820116820180604052508101906105aa91906123e2565b156105d05760405162461bcd60e51b81526004016105c7906123fd565b60405180910390fd5b600260015414156105f35760405162461bcd60e51b81526004016105c790612423565b6002600155806106155760405162461bcd60e51b81526004016105c79061245a565b61061d61100b565b60025460408051631f03d67d60e21b8152905133926000926001600160a01b0390911691637c0f59f49160048082019260209290919082900301818787803b15801561066857600080fd5b505af115801561067c573d6000803e3d6000fd5b505050506040513d601f19601f820116820180604052508101906106a09190612482565b90508260008215610754576106b58584611a99565b905061074784600260009054906101000a90046001600160a01b03166001600160a01b03166361d027b36040518163ffffffff1660e01b815260040160206040518083038186803b15801561070957600080fd5b505afa15801561071d573d6000803e3d6000fd5b505050506040513d601f19601f8201168201806040525081019061074191906123b0565b83611aec565b61075181836124b1565b91505b6002546040805163f609280960e01b815290516000926001600160a01b03169163f609280991600480830192602092919082900301818787803b15801561079a57600080fd5b505af11580156107ae573d6000803e3d6000fd5b505050506040513d601f19601f820116820180604052508101906107d29190612482565b9050801561099c5760025460408051637556d1c160e11b815290516000926001600160a01b03169163eaada382916004808301926020929190829003018186803b15801561081f57600080fd5b505afa158015610833573d6000803e3d6000fd5b505050506040513d601f19601f8201168201806040525081019061085791906123b0565b6001600160a01b031663ee9579963086603a60019054906101000a90046001600160a01b03166001600160a01b03166370a082318d6040518263ffffffff1660e01b81526004016108a89190612179565b60206040518083038186803b1580156108c057600080fd5b505afa1580156108d4573d6000803e3d6000fd5b505050506040513d601f19601f820116820180604052508101906108f89190612482565b61090291906124b1565b6040518363ffffffff1660e01b815260040161091f9291906124c8565b60206040518083038186803b15801561093757600080fd5b505afa15801561094b573d6000803e3d6000fd5b505050506040513d601f19601f8201168201806040525081019061096f9190612482565b905080158061097e5750818110155b61099a5760405162461bcd60e51b81526004016105c7906124e1565b505b6109a68584611c80565b603a54604051632770a7eb60e21b81526101009091046001600160a01b031690639dc29fac906109dc908a9087906004016124c8565b600060405180830381600087803b1580156109f657600080fd5b505af1158015610a0a573d6000803e3d6000fd5b505060408051898152602081018690526001600160a01b038b1693507f5f6b90489e1c8359fc6a7d2eda9ab6a9ec7baedfe4bfee3c5f9c56c71afaa85b92500160405180910390a25050600180555050505050565b6000610a6c848484611aec565b6001600160a01b03841660009081526035602090815260408083203384529091529020546000198114610af15782811015610ae45760405162461bcd60e51b8152602060048201526018602482015277616d6f756e742d657863656564732d616c6c6f77616e636560401b60448201526064016105c7565b610af1853385840361198b565b506001949350505050565b60006223a500603b5461051d9190612508565b3360008181526035602090815260408083206001600160a01b03871684529091528120549091610496918590610b4690869061252a565b61198b565b6002546001600160a01b0316336001600160a01b031614610b7e5760405162461bcd60e51b81526004016105c790612542565b610b888282611d9f565b5050565b610b946104a0565b6001600160a01b0316336001600160a01b031614610bc45760405162461bcd60e51b81526004016105c79061256a565b610bcc61100b565b603b5481811415610bef5760405162461bcd60e51b81526004016105c790612590565b60408051828152602081018490527f41e376fd99913dea7fda140f5c0bd997515b1a181acc58737320322548ec6e72910160405180910390a150603b55565b600054610100900460ff1680610c47575060005460ff16155b610c635760405162461bcd60e51b81526004016105c7906125bd565b600054610100900460ff16158015610c85576000805461ffff19166101011790555b6001600160a01b038416610cd05760405162461bcd60e51b81526020600482015260126024820152711919589d0b5d1bdad95b8b5a5ccb5b9d5b1b60721b60448201526064016105c7565b836001600160a01b031663313ce5676040518163ffffffff1660e01b815260040160206040518083038186803b158015610d0957600080fd5b505afa158015610d1d573d6000803e3d6000fd5b505050506040513d601f19601f82011682018060405250810190610d41919061260b565b60ff168660ff1614610d955760405162461bcd60e51b815260206004820152601d60248201527f646562742d646563696d616c732d69732d6e6f742d7468652d73616d6500000060448201526064016105c7565b6001600160a01b038516610deb5760405162461bcd60e51b815260206004820152601a60248201527f636f6e74726f6c6c65722d616464726573732d69732d7a65726f00000000000060448201526064016105c7565b610df3611fdf565b600280546001600160a01b0319166001600160a01b038716179055610e1a60368b8b61204a565b50610e276037898961204a565b50603a805460ff60a81b196001600160a01b038716610100026001600160a81b031990921660ff8a16179190911716600160a81b179055603b83905560398290558015610e7a576000805461ff00191690555b50505050505050505050565b610e8e6104a0565b6001600160a01b0316336001600160a01b031614610ebe5760405162461bcd60e51b81526004016105c79061256a565b6001600160a01b038116610f145760405162461bcd60e51b815260206004820152601e60248201527f6e65772d636f6e74726f6c6c65722d616464726573732d69732d7a65726f000060448201526064016105c7565b600280546001600160a01b0319166001600160a01b0392909216919091179055565b6037805461040890612375565b6002546001600160a01b0316336001600160a01b031614610f765760405162461bcd60e51b81526004016105c790612542565b610b888282611c80565b3360009081526035602090815260408083206001600160a01b038616845290915281205482811015610ff45760405162461bcd60e51b815260206004820152601e60248201527f6465637265617365642d616c6c6f77616e63652d62656c6f772d7a65726f000060448201526064016105c7565b611001338585840361198b565b5060019392505050565b6000603a60019054906101000a90046001600160a01b03166001600160a01b031663a6afed956040518163ffffffff1660e01b8152600401602060405180830381600087803b15801561105d57600080fd5b505af1158015611071573d6000803e3d6000fd5b505050506040513d601f19601f820116820180604052508101906110959190612482565b9050801561112157600254604080516361d027b360e01b81529051611121926001600160a01b0316916361d027b3916004808301926020929190829003018186803b1580156110e357600080fd5b505afa1580156110f7573d6000803e3d6000fd5b505050506040513d601f19601f8201168201806040525081019061111b91906123b0565b82611d9f565b50565b6000610496338484611aec565b600260009054906101000a90046001600160a01b03166001600160a01b031663ecf3a3f96040518163ffffffff1660e01b8152600401602060405180830381600087803b15801561118157600080fd5b505af1158015611195573d6000803e3d6000fd5b505050506040513d601f19601f820116820180604052508101906111b991906123e2565b156111d65760405162461bcd60e51b81526004016105c7906123fd565b600260015414156111f95760405162461bcd60e51b81526004016105c790612423565b60026001819055546040516309bf6ca360e31b81526001600160a01b0390911690634dfb65189061122e903090600401612179565b60206040518083038186803b15801561124657600080fd5b505afa15801561125a573d6000803e3d6000fd5b505050506040513d601f19601f8201168201806040525081019061127e91906123e2565b6112c15760405162461bcd60e51b81526020600482015260146024820152731cde5b9d1a195d1a58cb5a5b995e1a5cdd195b9d60621b60448201526064016105c7565b603a54600160a81b900460ff166112ea5760405162461bcd60e51b81526004016105c790612628565b6000821161130a5760405162461bcd60e51b81526004016105c79061245a565b3361131361100b565b60025460405163dde3ab9560e01b81526000916001600160a01b03169063dde3ab9590611344908590600401612179565b60a06040518083038186803b15801561135c57600080fd5b505afa158015611370573d6000803e3d6000fd5b505050506040513d601f19601f820116820180604052508101906113949190612654565b9450505050506000600260009054906101000a90046001600160a01b03166001600160a01b031663eaada3826040518163ffffffff1660e01b815260040160206040518083038186803b1580156113ea57600080fd5b505afa1580156113fe573d6000803e3d6000fd5b505050506040513d601f19601f8201168201806040525081019061142291906123b0565b6040516357f1915d60e01b81529091506001600160a01b038216906357f1915d9061145390309086906004016124c8565b60206040518083038186803b15801561146b57600080fd5b505afa15801561147f573d6000803e3d6000fd5b505050506040513d601f19601f820116820180604052508101906114a39190612482565b8511156114ea5760405162461bcd60e51b81526020600482015260156024820152741b9bdd0b595b9bdd59da0b58dbdb1b185d195c985b605a1b60448201526064016105c7565b6002546040805163f609280960e01b815290516000926001600160a01b03169163f609280991600480830192602092919082900301818787803b15801561153057600080fd5b505af1158015611544573d6000803e3d6000fd5b505050506040513d601f19601f820116820180604052508101906115689190612482565b9050801561169957603a546040516370a0823160e01b815282916001600160a01b038086169263ee9579969230928c9261010090920416906370a08231906115b4908c90600401612179565b60206040518083038186803b1580156115cc57600080fd5b505afa1580156115e0573d6000803e3d6000fd5b505050506040513d601f19601f820116820180604052508101906116049190612482565b61160e919061252a565b6040518363ffffffff1660e01b815260040161162b9291906124c8565b60206040518083038186803b15801561164357600080fd5b505afa158015611657573d6000803e3d6000fd5b505050506040513d601f19601f8201168201806040525081019061167b9190612482565b10156116995760405162461bcd60e51b81526004016105c7906124e1565b60025460408051632a9133c160e01b815290516000926001600160a01b031691632a9133c191600480830192602092919082900301818787803b1580156116df57600080fd5b505af11580156116f3573d6000803e3d6000fd5b505050506040513d601f19601f820116820180604052508101906117179190612482565b9050866000821561178c5761172c8984611a99565b905061177f600260009054906101000a90046001600160a01b03166001600160a01b03166361d027b36040518163ffffffff1660e01b815260040160206040518083038186803b1580156110e357600080fd5b61178981836124b1565b91505b6117968883611d9f565b603a546040516340c10f1960e01b81526101009091046001600160a01b0316906340c10f19906117cc908a908d906004016124c8565b600060405180830381600087803b1580156117e657600080fd5b505af11580156117fa573d6000803e3d6000fd5b5050604080518c8152602081018590526001600160a01b03808d1694508b1692507f8ed56bdcd59d676b8a4feb74d858ffa2bc47f80b291f9df3ced2fad3d953f798910160405180910390a350506001805550505050505050565b61185d6104a0565b6001600160a01b0316336001600160a01b03161461188d5760405162461bcd60e51b81526004016105c79061256a565b603a5460408051600160a81b90920460ff168015801584526020840152917fcaaaa88cc2414229e1aa662e7856f1b8601c703e3c21beb1b894b5fe2a3a6f2e910160405180910390a1603a805460ff60a81b19169115600160a81b02919091179055565b6118f96104a0565b6001600160a01b0316336001600160a01b0316146119295760405162461bcd60e51b81526004016105c79061256a565b6039548181141561194c5760405162461bcd60e51b81526004016105c790612590565b60408051828152602081018490527fc58cd6132bb46df23d468939c03dd023b74b509aaa6b04c39d5a6461c65963bd910160405180910390a150603955565b6001600160a01b0383166119e15760405162461bcd60e51b815260206004820152601d60248201527f617070726f76652d66726f6d2d7468652d7a65726f2d6164647265737300000060448201526064016105c7565b6001600160a01b038216611a375760405162461bcd60e51b815260206004820152601b60248201527f617070726f76652d746f2d7468652d7a65726f2d61646472657373000000000060448201526064016105c7565b6001600160a01b0383811660008181526035602090815260408083209487168084529482529182902085905590518481527f8c5be1e5ebec7d5bd14f71427d1e84f3dd0314c0f7b2291e5b200ac8c7c3b92591015b60405180910390a3505050565b6000821580611aa6575081155b15611ab35750600061049a565b670de0b6b3a7640000611ac7600282612508565b611ad1848661269b565b611adb919061252a565b611ae59190612508565b9392505050565b6001600160a01b038316611b425760405162461bcd60e51b815260206004820152601e60248201527f7472616e736665722d66726f6d2d7468652d7a65726f2d61646472657373000060448201526064016105c7565b6001600160a01b038216611b985760405162461bcd60e51b815260206004820152601c60248201527f7472616e736665722d746f2d7468652d7a65726f2d616464726573730000000060448201526064016105c7565b6001600160a01b03831660009081526034602052604090205481811015611c015760405162461bcd60e51b815260206004820152601f60248201527f7472616e736665722d616d6f756e742d657863656564732d62616c616e63650060448201526064016105c7565b6001600160a01b03808516600090815260346020526040808220858503905591851681529081208054849290611c3890849061252a565b92505081905550826001600160a01b0316846001600160a01b03166000805160206126bb83398151915284604051611c7291815260200190565b60405180910390a350505050565b6001600160a01b038216611cd65760405162461bcd60e51b815260206004820152601a60248201527f6275726e2d66726f6d2d7468652d7a65726f2d6164647265737300000000000060448201526064016105c7565b6001600160a01b03821660009081526034602052604090205481811015611d3f5760405162461bcd60e51b815260206004820152601b60248201527f6275726e2d616d6f756e742d657863656564732d62616c616e6365000000000060448201526064016105c7565b6001600160a01b0383166000908152603460205260408120838303905560388054849290611d6e9084906124b1565b90915550506040518281526000906001600160a01b038516906000805160206126bb83398151915290602001611a8c565b603a54600160a81b900460ff16611dc85760405162461bcd60e51b81526004016105c790612628565b6001600160a01b038216611e195760405162461bcd60e51b81526020600482015260186024820152776d696e742d746f2d7468652d7a65726f2d6164647265737360401b60448201526064016105c7565b60025460408051637556d1c160e11b815290516000926001600160a01b03169163eaada382916004808301926020929190829003018186803b158015611e5e57600080fd5b505afa158015611e72573d6000803e3d6000fd5b505050506040513d601f19601f82011682018060405250810190611e9691906123b0565b6001600160a01b031663ee9579963084603854611eb3919061252a565b6040518363ffffffff1660e01b8152600401611ed09291906124c8565b60206040518083038186803b158015611ee857600080fd5b505afa158015611efc573d6000803e3d6000fd5b505050506040513d601f19601f82011682018060405250810190611f209190612482565b9050603954811115611f6f5760405162461bcd60e51b8152602060048201526018602482015277737572706173732d6d61782d746f74616c2d737570706c7960401b60448201526064016105c7565b8160386000828254611f81919061252a565b90915550506001600160a01b03831660009081526034602052604081208054849290611fae90849061252a565b90915550506040518281526001600160a01b038416906000906000805160206126bb83398151915290602001611a8c565b600054610100900460ff1680611ff8575060005460ff16155b6120145760405162461bcd60e51b81526004016105c7906125bd565b600054610100900460ff16158015612036576000805461ffff19166101011790555b8015611121576000805461ff001916905550565b82805461205690612375565b90600052602060002090601f01602090048101928261207857600085556120be565b82601f106120915782800160ff198235161785556120be565b828001600101855582156120be579182015b828111156120be5782358255916020019190600101906120a3565b506120ca9291506120ce565b5090565b5b808211156120ca57600081556001016120cf565b600060208083528351808285015260005b81811015612110578581018301518582016040015282016120f4565b81811115612122576000604083870101525b50601f01601f1916929092016040019392505050565b6001600160a01b038116811461112157600080fd5b6000806040838503121561216057600080fd5b823561216b81612138565b946020939093013593505050565b6001600160a01b0391909116815260200190565b6000806000606084860312156121a257600080fd5b83356121ad81612138565b925060208401356121bd81612138565b929592945050506040919091013590565b6000602082840312156121e057600080fd5b8135611ae581612138565b6000602082840312156121fd57600080fd5b5035919050565b60008083601f84011261221657600080fd5b50813567ffffffffffffffff81111561222e57600080fd5b60208301915083602082850101111561224657600080fd5b9250929050565b60ff8116811461112157600080fd5b600080600080600080600080600060e08a8c03121561227a57600080fd5b893567ffffffffffffffff8082111561229257600080fd5b61229e8d838e01612204565b909b50995060208c01359150808211156122b757600080fd5b506122c48c828d01612204565b90985096505060408a01356122d88161224d565b945060608a01356122e881612138565b935060808a01356122f881612138565b8093505060a08a0135915060c08a013590509295985092959850929598565b6000806040838503121561232a57600080fd5b82359150602083013561233c81612138565b809150509250929050565b6000806040838503121561235a57600080fd5b823561236581612138565b9150602083013561233c81612138565b600181811c9082168061238957607f821691505b602082108114156123aa57634e487b7160e01b600052602260045260246000fd5b50919050565b6000602082840312156123c257600080fd5b8151611ae581612138565b805180151581146123dd57600080fd5b919050565b6000602082840312156123f457600080fd5b611ae5826123cd565b6020808252600c908201526b3737ba16b9b43aba3237bbb760a11b604082015260600190565b6020808252601f908201527f5265656e7472616e637947756172643a207265656e7472616e742063616c6c00604082015260600190565b6020808252600e908201526d616d6f756e742d69732d7a65726f60901b604082015260600190565b60006020828403121561249457600080fd5b5051919050565b634e487b7160e01b600052601160045260246000fd5b6000828210156124c3576124c361249b565b500390565b6001600160a01b03929092168252602082015260400190565b6020808252600d908201526c3232b13a16b63a16b33637b7b960991b604082015260600190565b60008261252557634e487b7160e01b600052601260045260246000fd5b500490565b6000821982111561253d5761253d61249b565b500190565b6020808252600e908201526d3737ba16b1b7b73a3937b63632b960911b604082015260600190565b6020808252600c908201526b3737ba16b3b7bb32b93737b960a11b604082015260600190565b6020808252601390820152721b995dcb5cd85b594b585ccb58dd5c9c995b9d606a1b604082015260600190565b6020808252602e908201527f496e697469616c697a61626c653a20636f6e747261637420697320616c72656160408201526d191e481a5b9a5d1a585b1a5e995960921b606082015260800190565b60006020828403121561261d57600080fd5b8151611ae58161224d565b60208082526012908201527173796e7468657469632d696e61637469766560701b604082015260600190565b600080600080600060a0868803121561266c57600080fd5b612675866123cd565b602087015160408801516060890151608090990151929a91995097965090945092505050565b60008160001904831182151516156126b5576126b561249b565b50029056feddf252ad1be2c89b69c2b068fc378daa952ba7f163c4a11628f55a4df523b3efa2646970667358221220d3d0fd734c451924c8182219a7c0c01b4faccc5f3ef2aaddbf14929c755a185c64736f6c63430008090033",
  "devdoc": {
    "kind": "dev",
    "methods": {
      "approve(address,uint256)": {
        "details": "Sets `amount` as the allowance of `spender` over the caller's tokens. Returns a boolean value indicating whether the operation succeeded. IMPORTANT: Beware that changing an allowance with this method brings the risk that someone may use both the old and the new allowance by unfortunate transaction ordering. One possible solution to mitigate this race condition is to first reduce the spender's allowance to 0 and set the desired value afterwards: https://github.com/ethereum/EIPs/issues/20#issuecomment-263524729 Emits an {Approval} event."
      },
      "burn(address,uint256)": {
        "params": {
          "_amount": "The amount to burn",
          "_from": "The account to burn from"
        }
      },
      "issue(uint256,address)": {
        "params": {
          "_amount": "The amount to mint"
        }
      },
      "mint(address,uint256)": {
        "params": {
          "_amount": "The amount to mint",
          "_to": "The account to mint to"
        }
      },
      "repay(address,uint256)": {
        "details": "The msg.sender is the payer and the account beneficied",
        "params": {
          "_amount": "The amount of synthetic token to burn",
          "_onBehalfOf": "The account that will have debt decreased"
        }
      },
      "setController(address)": {
        "params": {
          "_controller": "The new Controller contract"
        }
      },
      "transfer(address,uint256)": {
        "details": "Moves `amount` tokens from the caller's account to `recipient`. Returns a boolean value indicating whether the operation succeeded. Emits a {Transfer} event."
      },
      "transferFrom(address,address,uint256)": {
        "details": "Moves `amount` tokens from `sender` to `recipient` using the allowance mechanism. `amount` is then deducted from the caller's allowance. Returns a boolean value indicating whether the operation succeeded. Emits a {Transfer} event."
      },
      "updateMaxTotalSupplyInUsd(uint256)": {
        "params": {
          "_newMaxTotalSupplyInUsd": "The new max total supply (in USD)"
        }
      }
    },
    "title": "Synthetic Token contract",
    "version": 1
  },
  "userdoc": {
    "events": {
      "DebtRepayed(address,uint256,uint256)": {
        "notice": "Emitted when synthetic's debt is repayed"
      },
      "InterestRateUpdated(uint256,uint256)": {
        "notice": "Emitted when interest rate is updated"
      },
      "MaxTotalSupplyUpdated(uint256,uint256)": {
        "notice": "Emitted when max total supply is updated"
      },
      "SyntheticTokenActiveUpdated(bool,bool)": {
        "notice": "Emitted when active flag is updated"
      },
      "SyntheticTokenIssued(address,address,uint256,uint256)": {
        "notice": "Emitted when synthetic token is issued"
      }
    },
    "kind": "user",
    "methods": {
      "accrueInterest()": {
        "notice": "Accrue interest"
      },
      "burn(address,uint256)": {
        "notice": "Burn synthetic token"
      },
      "controller()": {
        "notice": "Controller contract"
      },
      "debtToken()": {
        "notice": "Non-transferable token that represents users' debts"
      },
      "interestRate()": {
        "notice": "Interest rate"
      },
      "isActive()": {
        "notice": "If a vsAsset isn't active, it disables minting new tokens"
      },
      "issue(uint256,address)": {
        "notice": "Lock collateral and mint synthetic token"
      },
      "mint(address,uint256)": {
        "notice": "Mint synthetic token"
      },
      "repay(address,uint256)": {
        "notice": "Send synthetic token to decrease debt"
      },
      "setController(address)": {
        "notice": "Update Controller contract"
      },
      "toggleIsActive()": {
        "notice": "Enable/Disable the Synthetic Token"
      },
      "updateInterestRate(uint256)": {
        "notice": "Update interest rate (APR)"
      },
      "updateMaxTotalSupplyInUsd(uint256)": {
        "notice": "Update max total supply (in USD)"
      }
    },
    "version": 1
  },
  "storageLayout": {
    "storage": [
      {
        "astId": 7181,
        "contract": "contracts/SyntheticToken.sol:SyntheticToken",
        "label": "_initialized",
        "offset": 0,
        "slot": "0",
        "type": "t_bool"
      },
      {
        "astId": 7184,
        "contract": "contracts/SyntheticToken.sol:SyntheticToken",
        "label": "_initializing",
        "offset": 1,
        "slot": "0",
        "type": "t_bool"
      },
      {
        "astId": 7235,
        "contract": "contracts/SyntheticToken.sol:SyntheticToken",
        "label": "_status",
        "offset": 0,
        "slot": "1",
        "type": "t_uint256"
      },
      {
        "astId": 6152,
        "contract": "contracts/SyntheticToken.sol:SyntheticToken",
        "label": "controller",
        "offset": 0,
        "slot": "2",
        "type": "t_contract(IController)10865"
      },
      {
        "astId": 6260,
        "contract": "contracts/SyntheticToken.sol:SyntheticToken",
        "label": "__gap",
        "offset": 0,
        "slot": "3",
        "type": "t_array(t_uint256)49_storage"
      },
      {
        "astId": 14913,
        "contract": "contracts/SyntheticToken.sol:SyntheticToken",
        "label": "balanceOf",
        "offset": 0,
        "slot": "52",
        "type": "t_mapping(t_address,t_uint256)"
      },
      {
        "astId": 14919,
        "contract": "contracts/SyntheticToken.sol:SyntheticToken",
        "label": "allowance",
        "offset": 0,
        "slot": "53",
        "type": "t_mapping(t_address,t_mapping(t_address,t_uint256))"
      },
      {
        "astId": 14921,
        "contract": "contracts/SyntheticToken.sol:SyntheticToken",
        "label": "name",
        "offset": 0,
        "slot": "54",
        "type": "t_string_storage"
      },
      {
        "astId": 14923,
        "contract": "contracts/SyntheticToken.sol:SyntheticToken",
        "label": "symbol",
        "offset": 0,
        "slot": "55",
        "type": "t_string_storage"
      },
      {
        "astId": 14925,
        "contract": "contracts/SyntheticToken.sol:SyntheticToken",
        "label": "totalSupply",
        "offset": 0,
        "slot": "56",
        "type": "t_uint256"
      },
      {
        "astId": 14927,
        "contract": "contracts/SyntheticToken.sol:SyntheticToken",
        "label": "maxTotalSupplyInUsd",
        "offset": 0,
        "slot": "57",
        "type": "t_uint256"
      },
      {
        "astId": 14929,
        "contract": "contracts/SyntheticToken.sol:SyntheticToken",
        "label": "decimals",
        "offset": 0,
        "slot": "58",
        "type": "t_uint8"
      },
      {
        "astId": 14933,
        "contract": "contracts/SyntheticToken.sol:SyntheticToken",
        "label": "debtToken",
        "offset": 1,
        "slot": "58",
        "type": "t_contract(IDebtToken)10905"
      },
      {
        "astId": 14936,
        "contract": "contracts/SyntheticToken.sol:SyntheticToken",
        "label": "isActive",
        "offset": 21,
        "slot": "58",
        "type": "t_bool"
      },
      {
        "astId": 14939,
        "contract": "contracts/SyntheticToken.sol:SyntheticToken",
        "label": "interestRate",
        "offset": 0,
        "slot": "59",
        "type": "t_uint256"
      }
    ],
    "types": {
      "t_address": {
        "encoding": "inplace",
        "label": "address",
        "numberOfBytes": "20"
      },
      "t_array(t_uint256)49_storage": {
        "base": "t_uint256",
        "encoding": "inplace",
        "label": "uint256[49]",
        "numberOfBytes": "1568"
      },
      "t_bool": {
        "encoding": "inplace",
        "label": "bool",
        "numberOfBytes": "1"
      },
      "t_contract(IController)10865": {
        "encoding": "inplace",
        "label": "contract IController",
        "numberOfBytes": "20"
      },
      "t_contract(IDebtToken)10905": {
        "encoding": "inplace",
        "label": "contract IDebtToken",
        "numberOfBytes": "20"
      },
      "t_mapping(t_address,t_mapping(t_address,t_uint256))": {
        "encoding": "mapping",
        "key": "t_address",
        "label": "mapping(address => mapping(address => uint256))",
        "numberOfBytes": "32",
        "value": "t_mapping(t_address,t_uint256)"
      },
      "t_mapping(t_address,t_uint256)": {
        "encoding": "mapping",
        "key": "t_address",
        "label": "mapping(address => uint256)",
        "numberOfBytes": "32",
        "value": "t_uint256"
      },
      "t_string_storage": {
        "encoding": "bytes",
        "label": "string",
        "numberOfBytes": "32"
      },
      "t_uint256": {
        "encoding": "inplace",
        "label": "uint256",
        "numberOfBytes": "32"
      },
      "t_uint8": {
        "encoding": "inplace",
        "label": "uint8",
        "numberOfBytes": "1"
      }
    }
  }
}