{
  "address": "0x3078742bACdFECBE6F8D9E77f1aAa1000C074FCF",
  "abi": [
    {
      "anonymous": false,
      "inputs": [
        {
          "indexed": true,
          "internalType": "address",
          "name": "owner",
          "type": "address"
        },
        {
          "indexed": true,
          "internalType": "address",
          "name": "spender",
          "type": "address"
        },
        {
          "indexed": false,
          "internalType": "uint256",
          "name": "value",
          "type": "uint256"
        }
      ],
      "name": "Approval",
      "type": "event"
    },
    {
      "anonymous": false,
      "inputs": [
        {
          "indexed": true,
          "internalType": "address",
          "name": "from",
          "type": "address"
        },
        {
          "indexed": true,
          "internalType": "address",
          "name": "to",
          "type": "address"
        },
        {
          "indexed": false,
          "internalType": "uint256",
          "name": "value",
          "type": "uint256"
        }
      ],
      "name": "Transfer",
      "type": "event"
    },
    {
      "inputs": [],
      "name": "VERSION",
      "outputs": [
        {
          "internalType": "string",
          "name": "",
          "type": "string"
        }
      ],
      "stateMutability": "view",
      "type": "function"
    },
    {
      "inputs": [],
      "name": "accrueInterest",
      "outputs": [
        {
          "internalType": "uint256",
          "name": "_interestAmountAccrued",
          "type": "uint256"
        }
      ],
      "stateMutability": "nonpayable",
      "type": "function"
    },
    {
      "inputs": [
        {
          "internalType": "address",
          "name": "",
          "type": "address"
        },
        {
          "internalType": "address",
          "name": "",
          "type": "address"
        }
      ],
      "name": "allowance",
      "outputs": [
        {
          "internalType": "uint256",
          "name": "",
          "type": "uint256"
        }
      ],
      "stateMutability": "pure",
      "type": "function"
    },
    {
      "inputs": [
        {
          "internalType": "address",
          "name": "",
          "type": "address"
        },
        {
          "internalType": "uint256",
          "name": "",
          "type": "uint256"
        }
      ],
      "name": "approve",
      "outputs": [
        {
          "internalType": "bool",
          "name": "",
          "type": "bool"
        }
      ],
      "stateMutability": "pure",
      "type": "function"
    },
    {
      "inputs": [
        {
          "internalType": "address",
          "name": "_account",
          "type": "address"
        }
      ],
      "name": "balanceOf",
      "outputs": [
        {
          "internalType": "uint256",
          "name": "",
          "type": "uint256"
        }
      ],
      "stateMutability": "view",
      "type": "function"
    },
    {
      "inputs": [
        {
          "internalType": "address",
          "name": "_from",
          "type": "address"
        },
        {
          "internalType": "uint256",
          "name": "_amount",
          "type": "uint256"
        }
      ],
      "name": "burn",
      "outputs": [],
      "stateMutability": "nonpayable",
      "type": "function"
    },
    {
      "inputs": [],
      "name": "controller",
      "outputs": [
        {
          "internalType": "contract IController",
          "name": "",
          "type": "address"
        }
      ],
      "stateMutability": "view",
      "type": "function"
    },
    {
      "inputs": [],
      "name": "debtIndex",
      "outputs": [
        {
          "internalType": "uint256",
          "name": "",
          "type": "uint256"
        }
      ],
      "stateMutability": "view",
      "type": "function"
    },
    {
      "inputs": [],
      "name": "decimals",
      "outputs": [
        {
          "internalType": "uint8",
          "name": "",
          "type": "uint8"
        }
      ],
      "stateMutability": "view",
      "type": "function"
    },
    {
      "inputs": [
        {
          "internalType": "address",
          "name": "",
          "type": "address"
        },
        {
          "internalType": "uint256",
          "name": "",
          "type": "uint256"
        }
      ],
      "name": "decreaseAllowance",
      "outputs": [
        {
          "internalType": "bool",
          "name": "",
          "type": "bool"
        }
      ],
      "stateMutability": "pure",
      "type": "function"
    },
    {
      "inputs": [],
      "name": "getBlockNumber",
      "outputs": [
        {
          "internalType": "uint256",
          "name": "_blockNumber",
          "type": "uint256"
        }
      ],
      "stateMutability": "view",
      "type": "function"
    },
    {
      "inputs": [],
      "name": "governor",
      "outputs": [
        {
          "internalType": "address",
          "name": "_governor",
          "type": "address"
        }
      ],
      "stateMutability": "view",
      "type": "function"
    },
    {
      "inputs": [
        {
          "internalType": "address",
          "name": "",
          "type": "address"
        },
        {
          "internalType": "uint256",
          "name": "",
          "type": "uint256"
        }
      ],
      "name": "increaseAllowance",
      "outputs": [
        {
          "internalType": "bool",
          "name": "",
          "type": "bool"
        }
      ],
      "stateMutability": "pure",
      "type": "function"
    },
    {
      "inputs": [
        {
          "internalType": "string",
          "name": "_name",
          "type": "string"
        },
        {
          "internalType": "string",
          "name": "_symbol",
          "type": "string"
        },
        {
          "internalType": "uint8",
          "name": "_decimals",
          "type": "uint8"
        },
        {
          "internalType": "contract IController",
          "name": "_controller",
          "type": "address"
        },
        {
          "internalType": "contract ISyntheticToken",
          "name": "_syntheticToken",
          "type": "address"
        }
      ],
      "name": "initialize",
      "outputs": [],
      "stateMutability": "nonpayable",
      "type": "function"
    },
    {
      "inputs": [],
      "name": "lastBlockAccrued",
      "outputs": [
        {
          "internalType": "uint256",
          "name": "",
          "type": "uint256"
        }
      ],
      "stateMutability": "view",
      "type": "function"
    },
    {
      "inputs": [
        {
          "internalType": "address",
          "name": "_to",
          "type": "address"
        },
        {
          "internalType": "uint256",
          "name": "_amount",
          "type": "uint256"
        }
      ],
      "name": "mint",
      "outputs": [],
      "stateMutability": "nonpayable",
      "type": "function"
    },
    {
      "inputs": [],
      "name": "name",
      "outputs": [
        {
          "internalType": "string",
          "name": "",
          "type": "string"
        }
      ],
      "stateMutability": "view",
      "type": "function"
    },
    {
      "inputs": [
        {
          "internalType": "contract IController",
          "name": "_controller",
          "type": "address"
        }
      ],
      "name": "setController",
      "outputs": [],
      "stateMutability": "nonpayable",
      "type": "function"
    },
    {
      "inputs": [],
      "name": "symbol",
      "outputs": [
        {
          "internalType": "string",
          "name": "",
          "type": "string"
        }
      ],
      "stateMutability": "view",
      "type": "function"
    },
    {
      "inputs": [],
      "name": "syntheticToken",
      "outputs": [
        {
          "internalType": "contract ISyntheticToken",
          "name": "",
          "type": "address"
        }
      ],
      "stateMutability": "view",
      "type": "function"
    },
    {
      "inputs": [],
      "name": "totalSupply",
      "outputs": [
        {
          "internalType": "uint256",
          "name": "",
          "type": "uint256"
        }
      ],
      "stateMutability": "view",
      "type": "function"
    },
    {
      "inputs": [
        {
          "internalType": "address",
          "name": "",
          "type": "address"
        },
        {
          "internalType": "uint256",
          "name": "",
          "type": "uint256"
        }
      ],
      "name": "transfer",
      "outputs": [
        {
          "internalType": "bool",
          "name": "",
          "type": "bool"
        }
      ],
      "stateMutability": "pure",
      "type": "function"
    },
    {
      "inputs": [
        {
          "internalType": "address",
          "name": "",
          "type": "address"
        },
        {
          "internalType": "address",
          "name": "",
          "type": "address"
        },
        {
          "internalType": "uint256",
          "name": "",
          "type": "uint256"
        }
      ],
      "name": "transferFrom",
      "outputs": [
        {
          "internalType": "bool",
          "name": "",
          "type": "bool"
        }
      ],
      "stateMutability": "pure",
      "type": "function"
    }
  ],
  "transactionHash": "0xd64ce31360df8273cd06e82acf97efe172f7d079c74516016e1767a08483dc0f",
  "args": [],
  "numDeployments": 1,
  "solcInputHash": "0077a7bd8b2b7c639ec050e1f3a43041",
  "bytecode": "0x608060405234801561001057600080fd5b506115d0806100206000396000f3fe608060405234801561001057600080fd5b506004361061014d5760003560e01c806392eefe9b116100c3578063a9059cbb1161007c578063a9059cbb14610283578063bb8c631f14610291578063c820f1461461029a578063dd62ed3e146102ad578063f77c4791146102bb578063ffa1ad74146102d457600080fd5b806392eefe9b1461024457806395d89b41146102575780639d57cf431461025f5780639dc29fac14610268578063a457c2d7146101f0578063a6afed951461027b57600080fd5b8063313ce56711610115578063313ce567146101d157806339509351146101f057806340c10f191461020357806342cbb15c1461021857806370a082311461021e5780638230ecd61461023157600080fd5b806306fdde0314610152578063095ea7b3146101705780630c340a241461019357806318160ddd146101a857806323b872dd146101be575b600080fd5b61015a6102f8565b60405161016791906110a9565b60405180910390f35b61018361017e366004611113565b610386565b6040519015158152602001610167565b61019b6103cf565b604051610167919061113f565b6101b061045b565b604051908152602001610167565b6101836101cc366004611153565b61047e565b6035546101de9060ff1681565b60405160ff9091168152602001610167565b6101836101fe366004611113565b6104c2565b610216610211366004611113565b610507565b005b436101b0565b6101b061022c366004611194565b610548565b60385461019b906001600160a01b031681565b610216610252366004611194565b6105be565b61015a610695565b6101b060395481565b610216610276366004611113565b6106a2565b6101b0610712565b6101836101cc366004611113565b6101b0603a5481565b6102166102a8366004611268565b610791565b6101b06101fe36600461130c565b60005461019b906201000090046001600160a01b031681565b61015a604051806040016040528060058152602001640312e302e360dc1b81525081565b6036805461030590611345565b80601f016020809104026020016040519081016040528092919081815260200182805461033190611345565b801561037e5780601f106103535761010080835404028352916020019161037e565b820191906000526020600020905b81548152906001019060200180831161036157829003601f168201915b505050505081565b60405162461bcd60e51b8152602060048201526016602482015275185c1c1c9bdd985b0b5b9bdd0b5cdd5c1c1bdc9d195960521b60448201526000906064015b60405180910390fd5b60008060029054906101000a90046001600160a01b03166001600160a01b0316630c340a246040518163ffffffff1660e01b815260040160206040518083038186803b15801561041e57600080fd5b505afa158015610432573d6000803e3d6000fd5b505050506040513d601f19601f820116820180604052508101906104569190611380565b905090565b6000806104666108e4565b505090508060345461047891906113b3565b91505090565b60405162461bcd60e51b81526020600482015260166024820152751d1c985b9cd9995c8b5b9bdd0b5cdd5c1c1bdc9d195960521b60448201526000906064016103c6565b60405162461bcd60e51b8152602060048201526017602482015276185b1b1bddd85b98d94b5b9bdd0b5cdd5c1c1bdc9d1959604a1b60448201526000906064016103c6565b6038546001600160a01b0316336001600160a01b03161461053a5760405162461bcd60e51b81526004016103c6906113cb565b61054482826109ec565b5050565b6001600160a01b03811660009081526032602052604081205461056d57506000919050565b60006105776108e4565b506001600160a01b03851660009081526033602090815260408083205460329092529091205491935091506105ad9083906113f8565b6105b79190611417565b9392505050565b6105c66103cf565b6001600160a01b0316336001600160a01b0316146106155760405162461bcd60e51b815260206004820152600c60248201526b3737ba16b3b7bb32b93737b960a11b60448201526064016103c6565b6001600160a01b03811661066b5760405162461bcd60e51b815260206004820152601e60248201527f6e65772d636f6e74726f6c6c65722d616464726573732d69732d7a65726f000060448201526064016103c6565b600080546001600160a01b03909216620100000262010000600160b01b0319909216919091179055565b6037805461030590611345565b6000546201000090046001600160a01b03163314806106cb57506038546001600160a01b031633145b6107085760405162461bcd60e51b815260206004820152600e60248201526d1b9bdd0b585d5d1a1bdc9a5e995960921b60448201526064016103c6565b6105448282610c26565b6038546000906001600160a01b0316336001600160a01b0316146107485760405162461bcd60e51b81526004016103c6906113cb565b6000806107536108e4565b603954929550909350915081141561076e5760009250505090565b826034600082825461078091906113b3565b9091555050603a9190915560395590565b600054610100900460ff16806107aa575060005460ff16155b6107c65760405162461bcd60e51b81526004016103c690611439565b600054610100900460ff161580156107e8576000805461ffff19166101011790555b6001600160a01b03831661083e5760405162461bcd60e51b815260206004820152601a60248201527f636f6e74726f6c6c65722d616464726573732d69732d7a65726f00000000000060448201526064016103c6565b610846610ead565b6000805462010000600160b01b031916620100006001600160a01b03861602179055855161087b906036906020890190611010565b50845161088f906037906020880190611010565b506035805460ff191660ff8616179055603880546001600160a01b0319166001600160a01b03841617905543603955670de0b6b3a7640000603a5580156108dc576000805461ff00191690555b505050505050565b60008080439050806039541415610903576000603a5492509250909192565b6000603954826109139190611487565b9050600081603860009054906101000a90046001600160a01b03166001600160a01b0316632ff7709e6040518163ffffffff1660e01b815260040160206040518083038186803b15801561096657600080fd5b505afa15801561097a573d6000803e3d6000fd5b505050506040513d601f19601f8201168201806040525081019061099e919061149e565b6109a891906113f8565b90506109bf60345482610f1990919063ffffffff16565b94506109d6603a5482610f1990919063ffffffff16565b603a546109e391906113b3565b93505050909192565b8160008060029054906101000a90046001600160a01b03166001600160a01b0316633605b51b6040518163ffffffff1660e01b815260040160006040518083038186803b158015610a3c57600080fd5b505afa158015610a50573d6000803e3d6000fd5b505050506040513d6000823e601f3d908101601f19168201604052610a7891908101906114b7565b805190915060005b81811015610b1d57828181518110610a9a57610a9a611569565b6020908102919091010151603854604051626cc3c360e61b81526001600160a01b0391821660048201528682166024820152911690631b30f0c090604401600060405180830381600087803b158015610af257600080fd5b505af1158015610b06573d6000803e3d6000fd5b505050508080610b159061157f565b915050610a80565b506001600160a01b038516610b6f5760405162461bcd60e51b81526020600482015260186024820152776d696e742d746f2d7468652d7a65726f2d6164647265737360401b60448201526064016103c6565b6000610b7a86610548565b90508460346000828254610b8e91906113b3565b90915550506001600160a01b03861660009081526032602052604081208054879290610bbb9084906113b3565b9091555050603a546001600160a01b0387166000818152603360205260408082209390935591519091907fddf252ad1be2c89b69c2b068fc378daa952ba7f163c4a11628f55a4df523b3ef90610c149089815260200190565b60405180910390a36108dc8682610f6e565b8160008060029054906101000a90046001600160a01b03166001600160a01b0316633605b51b6040518163ffffffff1660e01b815260040160006040518083038186803b158015610c7657600080fd5b505afa158015610c8a573d6000803e3d6000fd5b505050506040513d6000823e601f3d908101601f19168201604052610cb291908101906114b7565b805190915060005b81811015610d5757828181518110610cd457610cd4611569565b6020908102919091010151603854604051626cc3c360e61b81526001600160a01b0391821660048201528682166024820152911690631b30f0c090604401600060405180830381600087803b158015610d2c57600080fd5b505af1158015610d40573d6000803e3d6000fd5b505050508080610d4f9061157f565b915050610cba565b506001600160a01b038516610dae5760405162461bcd60e51b815260206004820152601a60248201527f6275726e2d66726f6d2d7468652d7a65726f2d6164647265737300000000000060448201526064016103c6565b6000610db986610548565b905084811015610e0b5760405162461bcd60e51b815260206004820152601b60248201527f6275726e2d616d6f756e742d657863656564732d62616c616e6365000000000060448201526064016103c6565b610e158582611487565b6001600160a01b038716600090815260326020908152604080832093909355603a5460339091529181209190915560348054879290610e55908490611487565b90915550506040518581526000906001600160a01b038816907fddf252ad1be2c89b69c2b068fc378daa952ba7f163c4a11628f55a4df523b3ef9060200160405180910390a36108dc86610ea888610548565b610fd6565b600054610100900460ff1680610ec6575060005460ff16155b610ee25760405162461bcd60e51b81526004016103c690611439565b600054610100900460ff16158015610f04576000805461ffff19166101011790555b8015610f16576000805461ff00191690555b50565b6000821580610f26575081155b15610f3357506000610f68565b670de0b6b3a7640000610f47600282611417565b610f5184866113f8565b610f5b91906113b3565b610f659190611417565b90505b92915050565b8061054457600054604051631dc2da6d60e21b8152620100009091046001600160a01b03169063770b69b490610fa890859060040161113f565b600060405180830381600087803b158015610fc257600080fd5b505af11580156108dc573d6000803e3d6000fd5b8061054457600054604051631d71be3b60e21b8152620100009091046001600160a01b0316906375c6f8ec90610fa890859060040161113f565b82805461101c90611345565b90600052602060002090601f01602090048101928261103e5760008555611084565b82601f1061105757805160ff1916838001178555611084565b82800160010185558215611084579182015b82811115611084578251825591602001919060010190611069565b50611090929150611094565b5090565b5b808211156110905760008155600101611095565b600060208083528351808285015260005b818110156110d6578581018301518582016040015282016110ba565b818111156110e8576000604083870101525b50601f01601f1916929092016040019392505050565b6001600160a01b0381168114610f1657600080fd5b6000806040838503121561112657600080fd5b8235611131816110fe565b946020939093013593505050565b6001600160a01b0391909116815260200190565b60008060006060848603121561116857600080fd5b8335611173816110fe565b92506020840135611183816110fe565b929592945050506040919091013590565b6000602082840312156111a657600080fd5b81356105b7816110fe565b634e487b7160e01b600052604160045260246000fd5b604051601f8201601f1916810167ffffffffffffffff811182821017156111f0576111f06111b1565b604052919050565b600082601f83011261120957600080fd5b813567ffffffffffffffff811115611223576112236111b1565b611236601f8201601f19166020016111c7565b81815284602083860101111561124b57600080fd5b816020850160208301376000918101602001919091529392505050565b600080600080600060a0868803121561128057600080fd5b853567ffffffffffffffff8082111561129857600080fd5b6112a489838a016111f8565b965060208801359150808211156112ba57600080fd5b506112c7888289016111f8565b945050604086013560ff811681146112de57600080fd5b925060608601356112ee816110fe565b915060808601356112fe816110fe565b809150509295509295909350565b6000806040838503121561131f57600080fd5b823561132a816110fe565b9150602083013561133a816110fe565b809150509250929050565b600181811c9082168061135957607f821691505b6020821081141561137a57634e487b7160e01b600052602260045260246000fd5b50919050565b60006020828403121561139257600080fd5b81516105b7816110fe565b634e487b7160e01b600052601160045260246000fd5b600082198211156113c6576113c661139d565b500190565b6020808252601390820152723737ba16b9bcb73a3432ba34b196ba37b5b2b760691b604082015260600190565b60008160001904831182151516156114125761141261139d565b500290565b60008261143457634e487b7160e01b600052601260045260246000fd5b500490565b6020808252602e908201527f496e697469616c697a61626c653a20636f6e747261637420697320616c72656160408201526d191e481a5b9a5d1a585b1a5e995960921b606082015260800190565b6000828210156114995761149961139d565b500390565b6000602082840312156114b057600080fd5b5051919050565b600060208083850312156114ca57600080fd5b825167ffffffffffffffff808211156114e257600080fd5b818501915085601f8301126114f657600080fd5b815181811115611508576115086111b1565b8060051b91506115198483016111c7565b818152918301840191848101908884111561153357600080fd5b938501935b8385101561155d578451925061154d836110fe565b8282529385019390850190611538565b98975050505050505050565b634e487b7160e01b600052603260045260246000fd5b60006000198214156115935761159361139d565b506001019056fea2646970667358221220230bbc380b9d4c90f4d1eb3c1707d95eb44ce5bbe3b1359de9e49ad2cad3148d64736f6c63430008090033",
  "devdoc": {
    "kind": "dev",
    "methods": {
      "accrueInterest()": {
        "returns": {
          "_interestAmountAccrued": "The total amount of debt tokens accrued"
        }
      },
      "burn(address,uint256)": {
        "params": {
          "_amount": "The amount to burn",
          "_from": "The account to burn from"
        }
      },
      "getBlockNumber()": {
        "details": "Having this temporarily as virtual for make test easier since for now hardhat doesn't support mine several blocks See more: https://github.com/nomiclabs/hardhat/issues/1112"
      },
      "mint(address,uint256)": {
        "params": {
          "_amount": "The amount to mint",
          "_to": "The account to mint to"
        }
      },
      "setController(address)": {
        "params": {
          "_controller": "The new Controller contract"
        }
      },
      "totalSupply()": {
        "details": "Returns the amount of tokens in existence."
      }
    },
    "title": "Non-transferable token that represents users' debts",
    "version": 1
  },
  "userdoc": {
    "kind": "user",
    "methods": {
      "accrueInterest()": {
        "notice": "Accrue interest over debt supply"
      },
      "balanceOf(address)": {
        "notice": "Get the updated (principal + interest) user's debt"
      },
      "burn(address,uint256)": {
        "notice": "Burn debt token"
      },
      "controller()": {
        "notice": "Controller contract"
      },
      "debtIndex()": {
        "notice": "Accumulator of the total earned interest rate since the beginning"
      },
      "getBlockNumber()": {
        "notice": "Get current block number"
      },
      "lastBlockAccrued()": {
        "notice": "The block when interest accrual was calculated for the last time"
      },
      "mint(address,uint256)": {
        "notice": "Mint debt token"
      },
      "setController(address)": {
        "notice": "Update Controller contract"
      }
    },
    "version": 1
  },
  "storageLayout": {
    "storage": [
      {
        "astId": 7181,
        "contract": "contracts/DebtToken.sol:DebtToken",
        "label": "_initialized",
        "offset": 0,
        "slot": "0",
        "type": "t_bool"
      },
      {
        "astId": 7184,
        "contract": "contracts/DebtToken.sol:DebtToken",
        "label": "_initializing",
        "offset": 1,
        "slot": "0",
        "type": "t_bool"
      },
      {
        "astId": 6152,
        "contract": "contracts/DebtToken.sol:DebtToken",
        "label": "controller",
        "offset": 2,
        "slot": "0",
        "type": "t_contract(IController)10865"
      },
      {
        "astId": 6260,
        "contract": "contracts/DebtToken.sol:DebtToken",
        "label": "__gap",
        "offset": 0,
        "slot": "1",
        "type": "t_array(t_uint256)49_storage"
      },
      {
        "astId": 14789,
        "contract": "contracts/DebtToken.sol:DebtToken",
        "label": "principalOf",
        "offset": 0,
        "slot": "50",
        "type": "t_mapping(t_address,t_uint256)"
      },
      {
        "astId": 14794,
        "contract": "contracts/DebtToken.sol:DebtToken",
        "label": "debtIndexOf",
        "offset": 0,
        "slot": "51",
        "type": "t_mapping(t_address,t_uint256)"
      },
      {
        "astId": 14796,
        "contract": "contracts/DebtToken.sol:DebtToken",
        "label": "totalSupply_",
        "offset": 0,
        "slot": "52",
        "type": "t_uint256"
      },
      {
        "astId": 14798,
        "contract": "contracts/DebtToken.sol:DebtToken",
        "label": "decimals",
        "offset": 0,
        "slot": "53",
        "type": "t_uint8"
      },
      {
        "astId": 14800,
        "contract": "contracts/DebtToken.sol:DebtToken",
        "label": "name",
        "offset": 0,
        "slot": "54",
        "type": "t_string_storage"
      },
      {
        "astId": 14802,
        "contract": "contracts/DebtToken.sol:DebtToken",
        "label": "symbol",
        "offset": 0,
        "slot": "55",
        "type": "t_string_storage"
      },
      {
        "astId": 14805,
        "contract": "contracts/DebtToken.sol:DebtToken",
        "label": "syntheticToken",
        "offset": 0,
        "slot": "56",
        "type": "t_contract(ISyntheticToken)11205"
      },
      {
        "astId": 14808,
        "contract": "contracts/DebtToken.sol:DebtToken",
        "label": "lastBlockAccrued",
        "offset": 0,
        "slot": "57",
        "type": "t_uint256"
      },
      {
        "astId": 14812,
        "contract": "contracts/DebtToken.sol:DebtToken",
        "label": "debtIndex",
        "offset": 0,
        "slot": "58",
        "type": "t_uint256"
      }
    ],
    "types": {
      "t_address": {
        "encoding": "inplace",
        "label": "address",
        "numberOfBytes": "20"
      },
      "t_array(t_uint256)49_storage": {
        "base": "t_uint256",
        "encoding": "inplace",
        "label": "uint256[49]",
        "numberOfBytes": "1568"
      },
      "t_bool": {
        "encoding": "inplace",
        "label": "bool",
        "numberOfBytes": "1"
      },
      "t_contract(IController)10865": {
        "encoding": "inplace",
        "label": "contract IController",
        "numberOfBytes": "20"
      },
      "t_contract(ISyntheticToken)11205": {
        "encoding": "inplace",
        "label": "contract ISyntheticToken",
        "numberOfBytes": "20"
      },
      "t_mapping(t_address,t_uint256)": {
        "encoding": "mapping",
        "key": "t_address",
        "label": "mapping(address => uint256)",
        "numberOfBytes": "32",
        "value": "t_uint256"
      },
      "t_string_storage": {
        "encoding": "bytes",
        "label": "string",
        "numberOfBytes": "32"
      },
      "t_uint256": {
        "encoding": "inplace",
        "label": "uint256",
        "numberOfBytes": "32"
      },
      "t_uint8": {
        "encoding": "inplace",
        "label": "uint8",
        "numberOfBytes": "1"
      }
    }
  }
}