{
  "address": "0x9bF24739310FB7F79af48ECc38557E2172469EEE",
  "abi": [
    {
      "inputs": [],
      "stateMutability": "nonpayable",
      "type": "constructor"
    },
    {
      "inputs": [],
      "name": "AmountExceedsAllowance",
      "type": "error"
    },
    {
      "inputs": [],
      "name": "AmountIsZero",
      "type": "error"
    },
    {
      "inputs": [],
      "name": "ApproveFromTheZeroAddress",
      "type": "error"
    },
    {
      "inputs": [],
      "name": "ApproveToTheZeroAddress",
      "type": "error"
    },
    {
      "inputs": [],
      "name": "BeneficiaryIsNull",
      "type": "error"
    },
    {
      "inputs": [],
      "name": "BurnAmountExceedsBalance",
      "type": "error"
    },
    {
      "inputs": [],
      "name": "BurnFromTheZeroAddress",
      "type": "error"
    },
    {
      "inputs": [],
      "name": "CollateralFactorTooHigh",
      "type": "error"
    },
    {
      "inputs": [],
      "name": "CollateralFactorTooLow",
      "type": "error"
    },
    {
      "inputs": [],
      "name": "CollateralIsInexistent",
      "type": "error"
    },
    {
      "inputs": [],
      "name": "DecimalsIsNull",
      "type": "error"
    },
    {
      "inputs": [],
      "name": "DecreasedAllowanceBelowZero",
      "type": "error"
    },
    {
      "inputs": [],
      "name": "DepositTokenIsInactive",
      "type": "error"
    },
    {
      "inputs": [],
      "name": "FallbackIsNotAllowed",
      "type": "error"
    },
    {
      "inputs": [],
      "name": "IsPaused",
      "type": "error"
    },
    {
      "inputs": [],
      "name": "IsShutdown",
      "type": "error"
    },
    {
      "inputs": [],
      "name": "MintToTheZeroAddress",
      "type": "error"
    },
    {
      "inputs": [],
      "name": "NewValueIsSameAsCurrent",
      "type": "error"
    },
    {
      "inputs": [],
      "name": "NotEnoughFreeBalance",
      "type": "error"
    },
    {
      "inputs": [],
      "name": "PoolAddressIsNull",
      "type": "error"
    },
    {
      "inputs": [],
      "name": "PoolIsNull",
      "type": "error"
    },
    {
      "inputs": [],
      "name": "ReceiveIsNotAllowed",
      "type": "error"
    },
    {
      "inputs": [],
      "name": "RecipientIsNull",
      "type": "error"
    },
    {
      "inputs": [],
      "name": "SenderIsNotGovernor",
      "type": "error"
    },
    {
      "inputs": [],
      "name": "SenderIsNotPool",
      "type": "error"
    },
    {
      "inputs": [],
      "name": "SenderIsNotSmartFarmingManager",
      "type": "error"
    },
    {
      "inputs": [],
      "name": "SurpassMaxDepositSupply",
      "type": "error"
    },
    {
      "inputs": [],
      "name": "SymbolIsNull",
      "type": "error"
    },
    {
      "inputs": [],
      "name": "TransferAmountExceedsBalance",
      "type": "error"
    },
    {
      "inputs": [],
      "name": "TransferFromTheZeroAddress",
      "type": "error"
    },
    {
      "inputs": [],
      "name": "TransferToTheZeroAddress",
      "type": "error"
    },
    {
      "inputs": [],
      "name": "UnderlyingAssetIsNull",
      "type": "error"
    },
    {
      "anonymous": false,
      "inputs": [
        {
          "indexed": true,
          "internalType": "address",
          "name": "owner",
          "type": "address"
        },
        {
          "indexed": true,
          "internalType": "address",
          "name": "spender",
          "type": "address"
        },
        {
          "indexed": false,
          "internalType": "uint256",
          "name": "value",
          "type": "uint256"
        }
      ],
      "name": "Approval",
      "type": "event"
    },
    {
      "anonymous": false,
      "inputs": [
        {
          "indexed": true,
          "internalType": "address",
          "name": "from",
          "type": "address"
        },
        {
          "indexed": true,
          "internalType": "address",
          "name": "account",
          "type": "address"
        },
        {
          "indexed": false,
          "internalType": "uint256",
          "name": "amount",
          "type": "uint256"
        },
        {
          "indexed": false,
          "internalType": "uint256",
          "name": "deposited",
          "type": "uint256"
        },
        {
          "indexed": false,
          "internalType": "uint256",
          "name": "fee",
          "type": "uint256"
        }
      ],
      "name": "CollateralDeposited",
      "type": "event"
    },
    {
      "anonymous": false,
      "inputs": [
        {
          "indexed": false,
          "internalType": "uint256",
          "name": "oldCollateralFactor",
          "type": "uint256"
        },
        {
          "indexed": false,
          "internalType": "uint256",
          "name": "newCollateralFactor",
          "type": "uint256"
        }
      ],
      "name": "CollateralFactorUpdated",
      "type": "event"
    },
    {
      "anonymous": false,
      "inputs": [
        {
          "indexed": true,
          "internalType": "address",
          "name": "account",
          "type": "address"
        },
        {
          "indexed": true,
          "internalType": "address",
          "name": "to",
          "type": "address"
        },
        {
          "indexed": false,
          "internalType": "uint256",
          "name": "amount",
          "type": "uint256"
        },
        {
          "indexed": false,
          "internalType": "uint256",
          "name": "withdrawn",
          "type": "uint256"
        },
        {
          "indexed": false,
          "internalType": "uint256",
          "name": "fee",
          "type": "uint256"
        }
      ],
      "name": "CollateralWithdrawn",
      "type": "event"
    },
    {
      "anonymous": false,
      "inputs": [
        {
          "indexed": false,
          "internalType": "bool",
          "name": "newActive",
          "type": "bool"
        }
      ],
      "name": "DepositTokenActiveUpdated",
      "type": "event"
    },
    {
      "anonymous": false,
      "inputs": [
        {
          "indexed": false,
          "internalType": "uint8",
          "name": "version",
          "type": "uint8"
        }
      ],
      "name": "Initialized",
      "type": "event"
    },
    {
      "anonymous": false,
      "inputs": [
        {
          "indexed": false,
          "internalType": "uint256",
          "name": "oldMaxTotalSupply",
          "type": "uint256"
        },
        {
          "indexed": false,
          "internalType": "uint256",
          "name": "newMaxTotalSupply",
          "type": "uint256"
        }
      ],
      "name": "MaxTotalSupplyUpdated",
      "type": "event"
    },
    {
      "anonymous": false,
      "inputs": [
        {
          "indexed": true,
          "internalType": "address",
          "name": "from",
          "type": "address"
        },
        {
          "indexed": true,
          "internalType": "address",
          "name": "to",
          "type": "address"
        },
        {
          "indexed": false,
          "internalType": "uint256",
          "name": "value",
          "type": "uint256"
        }
      ],
      "name": "Transfer",
      "type": "event"
    },
    {
      "stateMutability": "payable",
      "type": "fallback"
    },
    {
      "inputs": [],
      "name": "VERSION",
      "outputs": [
        {
          "internalType": "string",
          "name": "",
          "type": "string"
        }
      ],
      "stateMutability": "view",
      "type": "function"
    },
    {
      "inputs": [
        {
          "internalType": "address",
          "name": "",
          "type": "address"
        },
        {
          "internalType": "address",
          "name": "",
          "type": "address"
        }
      ],
      "name": "allowance",
      "outputs": [
        {
          "internalType": "uint256",
          "name": "",
          "type": "uint256"
        }
      ],
      "stateMutability": "view",
      "type": "function"
    },
    {
      "inputs": [
        {
          "internalType": "address",
          "name": "spender_",
          "type": "address"
        },
        {
          "internalType": "uint256",
          "name": "amount_",
          "type": "uint256"
        }
      ],
      "name": "approve",
      "outputs": [
        {
          "internalType": "bool",
          "name": "",
          "type": "bool"
        }
      ],
      "stateMutability": "nonpayable",
      "type": "function"
    },
    {
      "inputs": [
        {
          "internalType": "address",
          "name": "",
          "type": "address"
        }
      ],
      "name": "balanceOf",
      "outputs": [
        {
          "internalType": "uint256",
          "name": "",
          "type": "uint256"
        }
      ],
      "stateMutability": "view",
      "type": "function"
    },
    {
      "inputs": [],
      "name": "collateralFactor",
      "outputs": [
        {
          "internalType": "uint256",
          "name": "",
          "type": "uint256"
        }
      ],
      "stateMutability": "view",
      "type": "function"
    },
    {
      "inputs": [],
      "name": "decimals",
      "outputs": [
        {
          "internalType": "uint8",
          "name": "",
          "type": "uint8"
        }
      ],
      "stateMutability": "view",
      "type": "function"
    },
    {
      "inputs": [
        {
          "internalType": "address",
          "name": "spender_",
          "type": "address"
        },
        {
          "internalType": "uint256",
          "name": "subtractedValue_",
          "type": "uint256"
        }
      ],
      "name": "decreaseAllowance",
      "outputs": [
        {
          "internalType": "bool",
          "name": "",
          "type": "bool"
        }
      ],
      "stateMutability": "nonpayable",
      "type": "function"
    },
    {
      "inputs": [
        {
          "internalType": "uint256",
          "name": "amount_",
          "type": "uint256"
        },
        {
          "internalType": "address",
          "name": "onBehalfOf_",
          "type": "address"
        }
      ],
      "name": "deposit",
      "outputs": [
        {
          "internalType": "uint256",
          "name": "_deposited",
          "type": "uint256"
        },
        {
          "internalType": "uint256",
          "name": "_fee",
          "type": "uint256"
        }
      ],
      "stateMutability": "nonpayable",
      "type": "function"
    },
    {
      "inputs": [
        {
          "internalType": "address",
          "name": "account_",
          "type": "address"
        },
        {
          "internalType": "uint256",
          "name": "amount_",
          "type": "uint256"
        }
      ],
      "name": "flashWithdraw",
      "outputs": [
        {
          "internalType": "uint256",
          "name": "_withdrawn",
          "type": "uint256"
        },
        {
          "internalType": "uint256",
          "name": "_fee",
          "type": "uint256"
        }
      ],
      "stateMutability": "nonpayable",
      "type": "function"
    },
    {
      "inputs": [],
      "name": "governor",
      "outputs": [
        {
          "internalType": "address",
          "name": "_governor",
          "type": "address"
        }
      ],
      "stateMutability": "view",
      "type": "function"
    },
    {
      "inputs": [
        {
          "internalType": "address",
          "name": "spender_",
          "type": "address"
        },
        {
          "internalType": "uint256",
          "name": "addedValue_",
          "type": "uint256"
        }
      ],
      "name": "increaseAllowance",
      "outputs": [
        {
          "internalType": "bool",
          "name": "",
          "type": "bool"
        }
      ],
      "stateMutability": "nonpayable",
      "type": "function"
    },
    {
      "inputs": [
        {
          "internalType": "contract IERC20",
          "name": "underlying_",
          "type": "address"
        },
        {
          "internalType": "contract IPool",
          "name": "pool_",
          "type": "address"
        },
        {
          "internalType": "string",
          "name": "name_",
          "type": "string"
        },
        {
          "internalType": "string",
          "name": "symbol_",
          "type": "string"
        },
        {
          "internalType": "uint8",
          "name": "decimals_",
          "type": "uint8"
        },
        {
          "internalType": "uint128",
          "name": "collateralFactor_",
          "type": "uint128"
        },
        {
          "internalType": "uint256",
          "name": "maxTotalSupply_",
          "type": "uint256"
        }
      ],
      "name": "initialize",
      "outputs": [],
      "stateMutability": "nonpayable",
      "type": "function"
    },
    {
      "inputs": [],
      "name": "isActive",
      "outputs": [
        {
          "internalType": "bool",
          "name": "",
          "type": "bool"
        }
      ],
      "stateMutability": "view",
      "type": "function"
    },
    {
      "inputs": [
        {
          "internalType": "address",
          "name": "account_",
          "type": "address"
        }
      ],
      "name": "lockedBalanceOf",
      "outputs": [
        {
          "internalType": "uint256",
          "name": "_lockedBalance",
          "type": "uint256"
        }
      ],
      "stateMutability": "view",
      "type": "function"
    },
    {
      "inputs": [],
      "name": "maxTotalSupply",
      "outputs": [
        {
          "internalType": "uint256",
          "name": "",
          "type": "uint256"
        }
      ],
      "stateMutability": "view",
      "type": "function"
    },
    {
      "inputs": [],
      "name": "name",
      "outputs": [
        {
          "internalType": "string",
          "name": "",
          "type": "string"
        }
      ],
      "stateMutability": "view",
      "type": "function"
    },
    {
      "inputs": [],
      "name": "pool",
      "outputs": [
        {
          "internalType": "contract IPool",
          "name": "",
          "type": "address"
        }
      ],
      "stateMutability": "view",
      "type": "function"
    },
    {
      "inputs": [
        {
          "internalType": "uint256",
          "name": "amountToDeposit_",
          "type": "uint256"
        }
      ],
      "name": "quoteDepositIn",
      "outputs": [
        {
          "internalType": "uint256",
          "name": "_amount",
          "type": "uint256"
        },
        {
          "internalType": "uint256",
          "name": "_fee",
          "type": "uint256"
        }
      ],
      "stateMutability": "view",
      "type": "function"
    },
    {
      "inputs": [
        {
          "internalType": "uint256",
          "name": "amount_",
          "type": "uint256"
        }
      ],
      "name": "quoteDepositOut",
      "outputs": [
        {
          "internalType": "uint256",
          "name": "_amountToDeposit",
          "type": "uint256"
        },
        {
          "internalType": "uint256",
          "name": "_fee",
          "type": "uint256"
        }
      ],
      "stateMutability": "view",
      "type": "function"
    },
    {
      "inputs": [
        {
          "internalType": "uint256",
          "name": "amountToWithdraw_",
          "type": "uint256"
        }
      ],
      "name": "quoteWithdrawIn",
      "outputs": [
        {
          "internalType": "uint256",
          "name": "_amount",
          "type": "uint256"
        },
        {
          "internalType": "uint256",
          "name": "_fee",
          "type": "uint256"
        }
      ],
      "stateMutability": "view",
      "type": "function"
    },
    {
      "inputs": [
        {
          "internalType": "uint256",
          "name": "amount_",
          "type": "uint256"
        }
      ],
      "name": "quoteWithdrawOut",
      "outputs": [
        {
          "internalType": "uint256",
          "name": "_amountToWithdraw",
          "type": "uint256"
        },
        {
          "internalType": "uint256",
          "name": "_fee",
          "type": "uint256"
        }
      ],
      "stateMutability": "view",
      "type": "function"
    },
    {
      "inputs": [
        {
          "internalType": "address",
          "name": "from_",
          "type": "address"
        },
        {
          "internalType": "address",
          "name": "to_",
          "type": "address"
        },
        {
          "internalType": "uint256",
          "name": "amount_",
          "type": "uint256"
        }
      ],
      "name": "seize",
      "outputs": [],
      "stateMutability": "nonpayable",
      "type": "function"
    },
    {
      "inputs": [
        {
          "internalType": "contract IERC20",
          "name": "token_",
          "type": "address"
        },
        {
          "internalType": "address",
          "name": "to_",
          "type": "address"
        },
        {
          "internalType": "uint256",
          "name": "amount_",
          "type": "uint256"
        }
      ],
      "name": "sweep",
      "outputs": [],
      "stateMutability": "nonpayable",
      "type": "function"
    },
    {
      "inputs": [],
      "name": "symbol",
      "outputs": [
        {
          "internalType": "string",
          "name": "",
          "type": "string"
        }
      ],
      "stateMutability": "view",
      "type": "function"
    },
    {
      "inputs": [],
      "name": "toggleIsActive",
      "outputs": [],
      "stateMutability": "nonpayable",
      "type": "function"
    },
    {
      "inputs": [],
      "name": "totalSupply",
      "outputs": [
        {
          "internalType": "uint256",
          "name": "",
          "type": "uint256"
        }
      ],
      "stateMutability": "view",
      "type": "function"
    },
    {
      "inputs": [
        {
          "internalType": "address",
          "name": "to_",
          "type": "address"
        },
        {
          "internalType": "uint256",
          "name": "amount_",
          "type": "uint256"
        }
      ],
      "name": "transfer",
      "outputs": [
        {
          "internalType": "bool",
          "name": "",
          "type": "bool"
        }
      ],
      "stateMutability": "nonpayable",
      "type": "function"
    },
    {
      "inputs": [
        {
          "internalType": "address",
          "name": "sender_",
          "type": "address"
        },
        {
          "internalType": "address",
          "name": "recipient_",
          "type": "address"
        },
        {
          "internalType": "uint256",
          "name": "amount_",
          "type": "uint256"
        }
      ],
      "name": "transferFrom",
      "outputs": [
        {
          "internalType": "bool",
          "name": "",
          "type": "bool"
        }
      ],
      "stateMutability": "nonpayable",
      "type": "function"
    },
    {
      "inputs": [],
      "name": "underlying",
      "outputs": [
        {
          "internalType": "contract IERC20",
          "name": "",
          "type": "address"
        }
      ],
      "stateMutability": "view",
      "type": "function"
    },
    {
      "inputs": [
        {
          "internalType": "address",
          "name": "account_",
          "type": "address"
        }
      ],
      "name": "unlockedBalanceOf",
      "outputs": [
        {
          "internalType": "uint256",
          "name": "_unlockedBalance",
          "type": "uint256"
        }
      ],
      "stateMutability": "view",
      "type": "function"
    },
    {
      "inputs": [
        {
          "internalType": "uint128",
          "name": "newCollateralFactor_",
          "type": "uint128"
        }
      ],
      "name": "updateCollateralFactor",
      "outputs": [],
      "stateMutability": "nonpayable",
      "type": "function"
    },
    {
      "inputs": [
        {
          "internalType": "uint256",
          "name": "newMaxTotalSupply_",
          "type": "uint256"
        }
      ],
      "name": "updateMaxTotalSupply",
      "outputs": [],
      "stateMutability": "nonpayable",
      "type": "function"
    },
    {
      "inputs": [
        {
          "internalType": "uint256",
          "name": "amount_",
          "type": "uint256"
        },
        {
          "internalType": "address",
          "name": "to_",
          "type": "address"
        }
      ],
      "name": "withdraw",
      "outputs": [
        {
          "internalType": "uint256",
          "name": "_withdrawn",
          "type": "uint256"
        },
        {
          "internalType": "uint256",
          "name": "_fee",
          "type": "uint256"
        }
      ],
      "stateMutability": "nonpayable",
      "type": "function"
    },
    {
      "inputs": [
        {
          "internalType": "address",
          "name": "from_",
          "type": "address"
        },
        {
          "internalType": "uint256",
          "name": "amount_",
          "type": "uint256"
        }
      ],
      "name": "withdrawFrom",
      "outputs": [
        {
          "internalType": "uint256",
          "name": "_withdrawn",
          "type": "uint256"
        },
        {
          "internalType": "uint256",
          "name": "_fee",
          "type": "uint256"
        }
      ],
      "stateMutability": "nonpayable",
      "type": "function"
    },
    {
      "stateMutability": "payable",
      "type": "receive"
    }
  ],
  "transactionHash": "0x9290eac05a07f17d18f32b66b1467087cf52698b7267629e6fdf734fd41ef353",
  "args": [],
  "numDeployments": 1,
  "solcInputHash": "05e4492217f7bda719dac100afeac118",
  "bytecode": "0x60806040523480156200001157600080fd5b506200001c62000022565b62000152565b6200002e60ff62000031565b50565b60008054610100900460ff1615620000ca578160ff1660011480156200006a575062000068306200014360201b62001ac81760201c565b155b620000c25760405162461bcd60e51b815260206004820152602e60248201526000805160206200357983398151915260448201526d191e481a5b9a5d1a585b1a5e995960921b60648201526084015b60405180910390fd5b506000919050565b60005460ff808416911610620001295760405162461bcd60e51b815260206004820152602e60248201526000805160206200357983398151915260448201526d191e481a5b9a5d1a585b1a5e995960921b6064820152608401620000b9565b506000805460ff191660ff92909216919091179055600190565b6001600160a01b03163b151590565b61341780620001626000396000f3fe6080604052600436106101fc5760003560e01c80636f307dc31161010d578063a457c2d7116100a0578063d538a3031161006f578063d538a30314610613578063dd62ed3e14610633578063df011c411461066b578063ffa1ad7414610681578063ffc0e17e146106b25761021a565b8063a457c2d71461059e578063a9059cbb146105be578063b2a02ff1146105de578063d2593329146105fe5761021a565b8063857adc46116100dc578063857adc461461052957806385f1b90a146105495780639470b0bd1461056957806395d89b41146105895761021a565b80636f307dc31461049c57806370a08231146104bc57806382dbc795146104e957806384955c88146105095761021a565b806323b872dd11610190578063542778801161015f57806354277880146103fc578063593557361461041c57806362c067671461043c5780636dc2cd0e1461045c5780636e553f651461047c5761021a565b806323b872dd146103735780632ab4d05214610393578063313ce567146103a957806339509351146103dc5761021a565b806316f0115b116101cc57806316f0115b146102ec578063172f50a41461030c57806318160ddd1461032e57806322f3e2d4146103525761021a565b8062f714ce1461023357806306fdde031461026d578063095ea7b31461028f5780630c340a24146102bf5761021a565b3661021a57604051636436c22d60e11b815260040160405180910390fd5b60405163a0152e6360e01b815260040160405180910390fd5b34801561023f57600080fd5b5061025361024e366004612ddb565b6106d2565b604080519283526020830191909152015b60405180910390f35b34801561027957600080fd5b5061028261073f565b6040516102649190612e37565b34801561029b57600080fd5b506102af6102aa366004612e6a565b6107cd565b6040519015158152602001610264565b3480156102cb57600080fd5b506102d46107e4565b6040516001600160a01b039091168152602001610264565b3480156102f857600080fd5b506002546102d4906001600160a01b031681565b34801561031857600080fd5b5061032c610327366004612e96565b610866565b005b34801561033a57600080fd5b5061034460385481565b604051908152602001610264565b34801561035e57600080fd5b50603b546102af90600160a01b900460ff1681565b34801561037f57600080fd5b506102af61038e366004612eaf565b610902565b34801561039f57600080fd5b5061034460395481565b3480156103b557600080fd5b50603b546103ca90600160a81b900460ff1681565b60405160ff9091168152602001610264565b3480156103e857600080fd5b506102af6103f7366004612e6a565b6109d6565b34801561040857600080fd5b50610253610417366004612e96565b610a12565b34801561042857600080fd5b50610344610437366004612ef0565b610b39565b34801561044857600080fd5b5061032c610457366004612eaf565b610b67565b34801561046857600080fd5b50610253610477366004612e6a565b610ba0565b34801561048857600080fd5b50610253610497366004612ddb565b610c71565b3480156104a857600080fd5b50603b546102d4906001600160a01b031681565b3480156104c857600080fd5b506103446104d7366004612ef0565b60346020526000908152604090205481565b3480156104f557600080fd5b5061032c610504366004612f24565b6110bb565b34801561051557600080fd5b50610344610524366004612ef0565b6111c9565b34801561053557600080fd5b50610253610544366004612e96565b6113cd565b34801561055557600080fd5b50610253610564366004612e96565b611506565b34801561057557600080fd5b50610253610584366004612e6a565b6115c9565b34801561059557600080fd5b506102826116b9565b3480156105aa57600080fd5b506102af6105b9366004612e6a565b6116c6565b3480156105ca57600080fd5b506102af6105d9366004612e6a565b611722565b3480156105ea57600080fd5b5061032c6105f9366004612eaf565b611765565b34801561060a57600080fd5b5061032c61179b565b34801561061f57600080fd5b5061025361062e366004612e96565b611835565b34801561063f57600080fd5b5061034461064e366004612f3f565b603560209081526000928352604080842090915290825290205481565b34801561067757600080fd5b50610344603a5481565b34801561068d57600080fd5b50610282604051806040016040528060058152602001640312e332e360dc1b81525081565b3480156106be57600080fd5b5061032c6106cd366004612faf565b6118f8565b6000803384806106e1836111c9565b101561070057604051631af903f160e11b815260040160405180910390fd5b6001600160a01b03851661072757604051634c96446b60e01b815260040160405180910390fd5b610732338787611ad7565b9350935050509250929050565b6036805461074c90613075565b80601f016020809104026020016040519081016040528092919081815260200182805461077890613075565b80156107c55780601f1061079a576101008083540402835291602001916107c5565b820191906000526020600020905b8154815290600101906020018083116107a857829003601f168201915b505050505081565b60006107da338484611e35565b5060015b92915050565b6002546040805163030d028960e21b815290516000926001600160a01b031691630c340a24916004808301926020929190829003018186803b15801561082957600080fd5b505afa15801561083d573d6000803e3d6000fd5b505050506040513d601f19601f8201168201806040525081019061086191906130bb565b905090565b61086e6107e4565b6001600160a01b0316336001600160a01b03161461089f57604051634b98449160e11b815260040160405180910390fd5b603954818114156108c357604051630333a68160e41b815260040160405180910390fd5b60408051828152602081018490527fc58cd6132bb46df23d468939c03dd023b74b509aaa6b04c39d5a6461c65963bd910160405180910390a150603955565b6000600260015414156109305760405162461bcd60e51b8152600401610927906130d8565b60405180910390fd5b6002600155838280610941836111c9565b101561096057604051631af903f160e11b815260040160405180910390fd5b6001600160a01b038616600090815260356020908152604080832033845290915290205460001981146109bb57848110156109ae576040516303814af160e61b815260040160405180910390fd5b6109bb8733878403611e35565b6109c6878787611ee4565b5050600180805595945050505050565b3360008181526035602090815260408083206001600160a01b038716845290915281205490916107da918590610a0d908690613125565b611e35565b6000806000600260009054906101000a90046001600160a01b03166001600160a01b0316634066fdea6040518163ffffffff1660e01b815260040160206040518083038186803b158015610a6557600080fd5b505afa158015610a79573d6000803e3d6000fd5b505050506040513d601f19601f82011682018060405250810190610a9d91906130bb565b6001600160a01b03166367a527936040518163ffffffff1660e01b815260040160206040518083038186803b158015610ad557600080fd5b505afa158015610ae9573d6000803e3d6000fd5b505050506040513d601f19601f82011682018060405250810190610b0d919061313d565b905080610b1b575091929050565b610b258482612211565b9150610b318285613156565b925050915091565b6000610b44826111c9565b6001600160a01b0390921660009081526034602052604090205491909103919050565b610b6f612264565b6001600160a01b038316610b8c57610b87828261229f565b505050565b610b876001600160a01b03841683836123b8565b600080600260009054906101000a90046001600160a01b03166001600160a01b03166396aaccfe6040518163ffffffff1660e01b815260040160206040518083038186803b158015610bf157600080fd5b505afa158015610c05573d6000803e3d6000fd5b505050506040513d601f19601f82011682018060405250810190610c2991906130bb565b6001600160a01b0316336001600160a01b031614610c5a57604051630935fed760e11b815260040160405180910390fd5b610c65848433611ad7565b915091505b9250929050565b600080600260009054906101000a90046001600160a01b03166001600160a01b0316635c975abb6040518163ffffffff1660e01b815260040160206040518083038186803b158015610cc257600080fd5b505afa158015610cd6573d6000803e3d6000fd5b505050506040513d601f19601f82011682018060405250810190610cfa919061317d565b15610d1857604051631309a56360e01b815260040160405180910390fd5b60026001541415610d3b5760405162461bcd60e51b8152600401610927906130d8565b6002600181905554604051633e25dee160e21b81523060048201526001600160a01b039091169063f8977b849060240160206040518083038186803b158015610d8357600080fd5b505afa158015610d97573d6000803e3d6000fd5b505050506040513d601f19601f82011682018060405250810190610dbb919061317d565b610dd857604051630620bddd60e21b815260040160405180910390fd5b83610df6576040516310eb483f60e21b815260040160405180910390fd5b6001600160a01b038316610e1d5760405163639c77e360e01b815260040160405180910390fd5b600254603b54604080516361d027b360e01b815290516001600160a01b03938416939092169160009184916361d027b391600480820192602092909190829003018186803b158015610e6e57600080fd5b505afa158015610e82573d6000803e3d6000fd5b505050506040513d601f19601f82011682018060405250810190610ea691906130bb565b6040516370a0823160e01b81526001600160a01b0380831660048301529192506000918416906370a082319060240160206040518083038186803b158015610eed57600080fd5b505afa158015610f01573d6000803e3d6000fd5b505050506040513d601f19601f82011682018060405250810190610f25919061313d565b9050610f3c6001600160a01b03841633848b61241b565b6040516370a0823160e01b81526001600160a01b0383811660048301528291908516906370a082319060240160206040518083038186803b158015610f8057600080fd5b505afa158015610f94573d6000803e3d6000fd5b505050506040513d601f19601f82011682018060405250810190610fb8919061313d565b610fc29190613156565b9750610fcd88610a12565b9096509450841561105257611052846001600160a01b031663c415b95c6040518163ffffffff1660e01b815260040160206040518083038186803b15801561101457600080fd5b505afa158015611028573d6000803e3d6000fd5b505050506040513d601f19601f8201168201806040525081019061104c91906130bb565b86612459565b61105c8787612459565b60408051898152602081018890529081018690526001600160a01b0388169033907f7e387d4929067a5275d9dee7be89865d22cdc9d73f817ad152814a729ba6755e9060600160405180910390a3505060018055509194909350915050565b6110c36107e4565b6001600160a01b0316336001600160a01b0316146110f457604051634b98449160e11b815260040160405180910390fd5b6001600160801b03811661111b576040516311e151d160e31b815260040160405180910390fd5b670de0b6b3a7640000816001600160801b03161061114c57604051639479a57160e01b815260040160405180910390fd5b603a546001600160801b03821681141561117957604051630333a68160e41b815260040160405180910390fd5b604080518281526001600160801b03841660208201527f3b24ab397256b6bca0533c0889430820655a41fa639e1868bcc25404634d6024910160405180910390a1506001600160801b0316603a55565b60025460405163dde3ab9560e01b81526001600160a01b038381166004830152600092169082908190839063dde3ab959060240160a06040518083038186803b15801561121557600080fd5b505afa158015611229573d6000803e3d6000fd5b505050506040513d601f19601f8201168201806040525081019061124d9190613198565b94505093505050816000141561127c57505050506001600160a01b031660009081526034602052604090205490565b80156113c5576113c260346000876001600160a01b03166001600160a01b0316815260200190815260200160002054846001600160a01b031663eaada3826040518163ffffffff1660e01b815260040160206040518083038186803b1580156112e457600080fd5b505afa1580156112f8573d6000803e3d6000fd5b505050506040513d601f19601f8201168201806040525081019061131c91906130bb565b603b54603a546001600160a01b039283169263b5e9bef59216906113419087906126e0565b6040516001600160e01b031960e085901b1681526001600160a01b039092166004830152602482015260440160206040518083038186803b15801561138557600080fd5b505afa158015611399573d6000803e3d6000fd5b505050506040513d601f19601f820116820180604052508101906113bd919061313d565b612700565b93505b505050919050565b6000806000600260009054906101000a90046001600160a01b03166001600160a01b0316634066fdea6040518163ffffffff1660e01b815260040160206040518083038186803b15801561142057600080fd5b505afa158015611434573d6000803e3d6000fd5b505050506040513d601f19601f8201168201806040525081019061145891906130bb565b6001600160a01b03166367a527936040518163ffffffff1660e01b815260040160206040518083038186803b15801561149057600080fd5b505afa1580156114a4573d6000803e3d6000fd5b505050506040513d601f19601f820116820180604052508101906114c8919061313d565b9050806114d6575091929050565b6114f26114eb82670de0b6b3a7640000613156565b85906126e0565b92506114fe8484613156565b915050915091565b6000806000600260009054906101000a90046001600160a01b03166001600160a01b0316634066fdea6040518163ffffffff1660e01b815260040160206040518083038186803b15801561155957600080fd5b505afa15801561156d573d6000803e3d6000fd5b505050506040513d601f19601f8201168201806040525081019061159191906130bb565b6001600160a01b031663e941fa786040518163ffffffff1660e01b815260040160206040518083038186803b15801561149057600080fd5b600080600260009054906101000a90046001600160a01b03166001600160a01b03166396aaccfe6040518163ffffffff1660e01b815260040160206040518083038186803b15801561161a57600080fd5b505afa15801561162e573d6000803e3d6000fd5b505050506040513d601f19601f8201168201806040525081019061165291906130bb565b6001600160a01b0316336001600160a01b03161461168357604051630935fed760e11b815260040160405180910390fd5b83838061168f836111c9565b10156116ae57604051631af903f160e11b815260040160405180910390fd5b610732868633611ad7565b6037805461074c90613075565b3360009081526035602090815260408083206001600160a01b03861684529091528120548281101561170b5760405163189dd6af60e31b815260040160405180910390fd5b6117183385858403611e35565b5060019392505050565b6000338280611730836111c9565b101561174f57604051631af903f160e11b815260040160405180910390fd5b61175a338686611ee4565b506001949350505050565b6002546001600160a01b031633146117905760405163531f2aa960e11b815260040160405180910390fd5b610b87838383611ee4565b6117a36107e4565b6001600160a01b0316336001600160a01b0316146117d457604051634b98449160e11b815260040160405180910390fd5b603b54604051600160a01b90910460ff1615808252907fb2f86f872205a47e0890262c11c93dba2270b3f079ada3dbe9cb6f755f4ddc9f9060200160405180910390a1603b8054911515600160a01b0260ff60a01b19909216919091179055565b6000806000600260009054906101000a90046001600160a01b03166001600160a01b0316634066fdea6040518163ffffffff1660e01b815260040160206040518083038186803b15801561188857600080fd5b505afa15801561189c573d6000803e3d6000fd5b505050506040513d601f19601f820116820180604052508101906118c091906130bb565b6001600160a01b031663e941fa786040518163ffffffff1660e01b815260040160206040518083038186803b158015610ad557600080fd5b60006119046001612716565b9050801561191c576000805461ff0019166101001790555b6001600160a01b038a1661194357604051630d63ca0f60e41b815260040160405180910390fd5b6001600160a01b03891661196a57604051633cb1fb1f60e11b815260040160405180910390fd5b84611988576040516330507cff60e11b815260040160405180910390fd5b60ff84166119a957604051634dc4784160e11b815260040160405180910390fd5b6001600160801b0383166119d0576040516311e151d160e31b815260040160405180910390fd5b670de0b6b3a7640000836001600160801b031610611a0157604051639479a57160e01b815260040160405180910390fd5b611a096127a3565b611a12896127d2565b611a1e60368989612d2a565b50611a2b60378787612d2a565b50603b805460ff8616600160a81b0260ff60a81b196001600160a81b03199092166001600160a01b038e1617600160a01b17919091161790556001600160801b038316603a5560398290558015611abc576000805461ff0019169055604051600181527f7f26b83ff96e1f2b6a682f133852f6798a09c465da95921460cefb38474024989060200160405180910390a15b50505050505050505050565b6001600160a01b03163b151590565b600080600260009054906101000a90046001600160a01b03166001600160a01b031663ecf3a3f96040518163ffffffff1660e01b815260040160206040518083038186803b158015611b2857600080fd5b505afa158015611b3c573d6000803e3d6000fd5b505050506040513d601f19601f82011682018060405250810190611b60919061317d565b15611b7e57604051631b0e923f60e11b815260040160405180910390fd5b60026001541415611ba15760405162461bcd60e51b8152600401610927906130d8565b6002600181905554604051633e25dee160e21b81523060048201526001600160a01b039091169063f8977b849060240160206040518083038186803b158015611be957600080fd5b505afa158015611bfd573d6000803e3d6000fd5b505050506040513d601f19601f82011682018060405250810190611c21919061317d565b611c3e57604051630620bddd60e21b815260040160405180910390fd5b83611c5c576040516310eb483f60e21b815260040160405180910390fd5b6002546001600160a01b0316611c7185611835565b90935091508115611cf757611cf786826001600160a01b031663c415b95c6040518163ffffffff1660e01b815260040160206040518083038186803b158015611cb957600080fd5b505afa158015611ccd573d6000803e3d6000fd5b505050506040513d601f19601f82011682018060405250810190611cf191906130bb565b84611ee4565b611d018684612842565b806001600160a01b03166361d027b36040518163ffffffff1660e01b815260040160206040518083038186803b158015611d3a57600080fd5b505afa158015611d4e573d6000803e3d6000fd5b505050506040513d601f19601f82011682018060405250810190611d7291906130bb565b60405163f2d5d56b60e01b81526001600160a01b03868116600483015260248201869052919091169063f2d5d56b90604401600060405180830381600087803b158015611dbe57600080fd5b505af1158015611dd2573d6000803e3d6000fd5b505060408051888152602081018790529081018590526001600160a01b038088169350891691507f900e8de8e8718a6bde86415bf9b8c70e1a4f744314eaef5c60b0705a271035d69060600160405180910390a350600180559094909350915050565b6001600160a01b038316611e5c576040516356fdae6560e11b815260040160405180910390fd5b6001600160a01b038216611e835760405163b2fa1ef360e01b815260040160405180910390fd5b6001600160a01b0383811660008181526035602090815260408083209487168084529482529182902085905590518481527f8c5be1e5ebec7d5bd14f71427d1e84f3dd0314c0f7b2291e5b200ac8c7c3b925910160405180910390a3505050565b82826000600260009054906101000a90046001600160a01b03166001600160a01b0316633605b51b6040518163ffffffff1660e01b815260040160006040518083038186803b158015611f3657600080fd5b505afa158015611f4a573d6000803e3d6000fd5b505050506040513d6000823e601f3d908101601f19168201604052611f7291908101906131f5565b805190915060005b8181101561201a57828181518110611f9457611f946132ba565b602090810291909101015160405163058bd91d60e51b81523060048201526001600160a01b03878116602483015286811660448301529091169063b17b23a090606401600060405180830381600087803b158015611ff157600080fd5b505af1158015612005573d6000803e3d6000fd5b5050505080612013906132d0565b9050611f7a565b506001600160a01b03871661204257604051630240531760e41b815260040160405180910390fd5b6001600160a01b0386166120695760405163671d1add60e11b815260040160405180910390fd5b6001600160a01b038716600090815260346020526040902054858110156120a357604051635dd58b8b60e01b815260040160405180910390fd5b6001600160a01b0387811660008181526034602090815260408083208054958e168085528285208d890390559385905280548c019055518a81527fddf252ad1be2c89b69c2b068fc378daa952ba7f163c4a11628f55a4df523b3ef910160405180910390a3801580156121165750600087115b1561217b57600254604051633f5fc13160e01b81526001600160a01b038a8116600483015290911690633f5fc13190602401600060405180830381600087803b15801561216257600080fd5b505af1158015612176573d6000803e3d6000fd5b505050505b6000871180156121a157506001600160a01b038916600090815260346020526040902054155b1561220657600254604051630275038d60e41b81526001600160a01b038b811660048301529091169063275038d090602401600060405180830381600087803b1580156121ed57600080fd5b505af1158015612201573d6000803e3d6000fd5b505050505b505050505050505050565b600082158061221e575081155b1561222b575060006107de565b670de0b6b3a764000061223f6002826132eb565b612249848661330d565b6122539190613125565b61225d91906132eb565b9392505050565b61226c6107e4565b6001600160a01b0316336001600160a01b03161461229d57604051634b98449160e11b815260040160405180910390fd5b565b804710156122ef5760405162461bcd60e51b815260206004820152601d60248201527f416464726573733a20696e73756666696369656e742062616c616e63650000006044820152606401610927565b6000826001600160a01b03168260405160006040518083038185875af1925050503d806000811461233c576040519150601f19603f3d011682016040523d82523d6000602084013e612341565b606091505b5050905080610b875760405162461bcd60e51b815260206004820152603a60248201527f416464726573733a20756e61626c6520746f2073656e642076616c75652c207260448201527f6563697069656e74206d617920686176652072657665727465640000000000006064820152608401610927565b6040516001600160a01b038316602482015260448101829052610b8790849063a9059cbb60e01b906064015b60408051601f198184030181529190526020810180516001600160e01b03166001600160e01b031990931692909217909152612aaa565b6040516001600160a01b03808516602483015283166044820152606481018290526124539085906323b872dd60e01b906084016123e4565b50505050565b603b54600160a01b900460ff1661248357604051631b9245b960e11b815260040160405180910390fd5b816000600260009054906101000a90046001600160a01b03166001600160a01b0316633605b51b6040518163ffffffff1660e01b815260040160006040518083038186803b1580156124d457600080fd5b505afa1580156124e8573d6000803e3d6000fd5b505050506040513d6000823e601f3d908101601f1916820160405261251091908101906131f5565b805190915060005b818110156125af57828181518110612532576125326132ba565b6020908102919091010151604051626cc3c360e61b81523060048201526001600160a01b03868116602483015290911690631b30f0c090604401600060405180830381600087803b15801561258657600080fd5b505af115801561259a573d6000803e3d6000fd5b50505050806125a8906132d0565b9050612518565b506001600160a01b0385166125d75760405163c96c2a0b60e01b815260040160405180910390fd5b83603860008282546125e99190613125565b9091555050603954603854111561261357604051639cad93a160e01b815260040160405180910390fd5b6001600160a01b038516600081815260346020908152604080832080548981019091559051888152909392917fddf252ad1be2c89b69c2b068fc378daa952ba7f163c4a11628f55a4df523b3ef910160405180910390a3801580156126785750600085115b156126d857600254604051633f5fc13160e01b81526001600160a01b03888116600483015290911690633f5fc13190602401600060405180830381600087803b1580156126c457600080fd5b505af1158015611abc573d6000803e3d6000fd5b505050505050565b6000816126ee6002826132eb565b612249670de0b6b3a76400008661330d565b600081831061270f578161225d565b5090919050565b60008054610100900460ff161561275d578160ff1660011480156127395750303b155b6127555760405162461bcd60e51b81526004016109279061332c565b506000919050565b60005460ff8084169116106127845760405162461bcd60e51b81526004016109279061332c565b506000805460ff191660ff92909216919091179055600190565b919050565b600054610100900460ff166127ca5760405162461bcd60e51b81526004016109279061337a565b61229d612b7c565b600054610100900460ff166127f95760405162461bcd60e51b81526004016109279061337a565b6001600160a01b0381166128205760405163724f500960e01b815260040160405180910390fd5b600280546001600160a01b0319166001600160a01b0392909216919091179055565b816000600260009054906101000a90046001600160a01b03166001600160a01b0316633605b51b6040518163ffffffff1660e01b815260040160006040518083038186803b15801561289357600080fd5b505afa1580156128a7573d6000803e3d6000fd5b505050506040513d6000823e601f3d908101601f191682016040526128cf91908101906131f5565b805190915060005b8181101561296e578281815181106128f1576128f16132ba565b6020908102919091010151604051626cc3c360e61b81523060048201526001600160a01b03868116602483015290911690631b30f0c090604401600060405180830381600087803b15801561294557600080fd5b505af1158015612959573d6000803e3d6000fd5b5050505080612967906132d0565b90506128d7565b506001600160a01b038516612996576040516304fca6bd60e41b815260040160405180910390fd5b6001600160a01b038516600090815260346020526040902054848110156129d057604051630bba337f60e11b815260040160405180910390fd5b6038805486900390556001600160a01b03861660008181526034602090815260408083208986039081905590518981529093917fddf252ad1be2c89b69c2b068fc378daa952ba7f163c4a11628f55a4df523b3ef910160405180910390a3600086118015612a3c575080155b15612aa157600254604051630275038d60e41b81526001600160a01b0389811660048301529091169063275038d090602401600060405180830381600087803b158015612a8857600080fd5b505af1158015612a9c573d6000803e3d6000fd5b505050505b50505050505050565b6000612aff826040518060400160405280602081526020017f5361666545524332303a206c6f772d6c6576656c2063616c6c206661696c6564815250856001600160a01b0316612ba99092919063ffffffff16565b805190915015610b875780806020019051810190612b1d919061317d565b610b875760405162461bcd60e51b815260206004820152602a60248201527f5361666545524332303a204552433230206f7065726174696f6e20646964206e6044820152691bdd081cdd58d8d9595960b21b6064820152608401610927565b600054610100900460ff16612ba35760405162461bcd60e51b81526004016109279061337a565b60018055565b6060612bb88484600085612bc0565b949350505050565b606082471015612c215760405162461bcd60e51b815260206004820152602660248201527f416464726573733a20696e73756666696369656e742062616c616e636520666f6044820152651c8818d85b1b60d21b6064820152608401610927565b6001600160a01b0385163b612c785760405162461bcd60e51b815260206004820152601d60248201527f416464726573733a2063616c6c20746f206e6f6e2d636f6e74726163740000006044820152606401610927565b600080866001600160a01b03168587604051612c9491906133c5565b60006040518083038185875af1925050503d8060008114612cd1576040519150601f19603f3d011682016040523d82523d6000602084013e612cd6565b606091505b5091509150612ce6828286612cf1565b979650505050505050565b60608315612d0057508161225d565b825115612d105782518084602001fd5b8160405162461bcd60e51b81526004016109279190612e37565b828054612d3690613075565b90600052602060002090601f016020900481019282612d585760008555612d9e565b82601f10612d715782800160ff19823516178555612d9e565b82800160010185558215612d9e579182015b82811115612d9e578235825591602001919060010190612d83565b50612daa929150612dae565b5090565b5b80821115612daa5760008155600101612daf565b6001600160a01b0381168114612dd857600080fd5b50565b60008060408385031215612dee57600080fd5b823591506020830135612e0081612dc3565b809150509250929050565b60005b83811015612e26578181015183820152602001612e0e565b838111156124535750506000910152565b6020815260008251806020840152612e56816040850160208701612e0b565b601f01601f19169190910160400192915050565b60008060408385031215612e7d57600080fd5b8235612e8881612dc3565b946020939093013593505050565b600060208284031215612ea857600080fd5b5035919050565b600080600060608486031215612ec457600080fd5b8335612ecf81612dc3565b92506020840135612edf81612dc3565b929592945050506040919091013590565b600060208284031215612f0257600080fd5b813561225d81612dc3565b80356001600160801b038116811461279e57600080fd5b600060208284031215612f3657600080fd5b61225d82612f0d565b60008060408385031215612f5257600080fd5b8235612f5d81612dc3565b91506020830135612e0081612dc3565b60008083601f840112612f7f57600080fd5b50813567ffffffffffffffff811115612f9757600080fd5b602083019150836020828501011115610c6a57600080fd5b600080600080600080600080600060e08a8c031215612fcd57600080fd5b8935612fd881612dc3565b985060208a0135612fe881612dc3565b975060408a013567ffffffffffffffff8082111561300557600080fd5b6130118d838e01612f6d565b909950975060608c013591508082111561302a57600080fd5b506130378c828d01612f6d565b90965094505060808a013560ff8116811461305157600080fd5b925061305f60a08b01612f0d565b915060c08a013590509295985092959850929598565b600181811c9082168061308957607f821691505b602082108114156130aa57634e487b7160e01b600052602260045260246000fd5b50919050565b805161279e81612dc3565b6000602082840312156130cd57600080fd5b815161225d81612dc3565b6020808252601f908201527f5265656e7472616e637947756172643a207265656e7472616e742063616c6c00604082015260600190565b634e487b7160e01b600052601160045260246000fd5b600082198211156131385761313861310f565b500190565b60006020828403121561314f57600080fd5b5051919050565b6000828210156131685761316861310f565b500390565b8051801515811461279e57600080fd5b60006020828403121561318f57600080fd5b61225d8261316d565b600080600080600060a086880312156131b057600080fd5b6131b98661316d565b602087015160408801516060890151608090990151929a91995097965090945092505050565b634e487b7160e01b600052604160045260246000fd5b6000602080838503121561320857600080fd5b825167ffffffffffffffff8082111561322057600080fd5b818501915085601f83011261323457600080fd5b815181811115613246576132466131df565b8060051b604051601f19603f8301168101818110858211171561326b5761326b6131df565b60405291825284820192508381018501918883111561328957600080fd5b938501935b828510156132ae5761329f856130b0565b8452938501939285019261328e565b98975050505050505050565b634e487b7160e01b600052603260045260246000fd5b60006000198214156132e4576132e461310f565b5060010190565b60008261330857634e487b7160e01b600052601260045260246000fd5b500490565b60008160001904831182151516156133275761332761310f565b500290565b6020808252602e908201527f496e697469616c697a61626c653a20636f6e747261637420697320616c72656160408201526d191e481a5b9a5d1a585b1a5e995960921b606082015260800190565b6020808252602b908201527f496e697469616c697a61626c653a20636f6e7472616374206973206e6f74206960408201526a6e697469616c697a696e6760a81b606082015260800190565b600082516133d7818460208701612e0b565b919091019291505056fea2646970667358221220220d4af35ed7dfd75e28d9d25e2ce4bae30f5ad6d0110edcde2adea4693efbc264736f6c63430008090033496e697469616c697a61626c653a20636f6e747261637420697320616c726561",
  "devdoc": {
    "kind": "dev",
    "methods": {
      "deposit(uint256,address)": {
        "params": {
          "amount_": "The amount of collateral tokens to deposit",
          "onBehalfOf_": "The account to deposit to"
        },
        "returns": {
          "_deposited": "The amount deposited after fees"
        }
      },
      "flashWithdraw(address,uint256)": {
        "params": {
          "account_": "The account where deposit token will be burnt from",
          "amount_": "The amount of collateral to withdraw"
        },
        "returns": {
          "_withdrawn": "The amount withdrawn after fees"
        }
      },
      "governor()": {
        "returns": {
          "_governor": "The governor"
        }
      },
      "lockedBalanceOf(address)": {
        "params": {
          "account_": "The account to check"
        },
        "returns": {
          "_lockedBalance": "The locked amount"
        }
      },
      "quoteDepositIn(uint256)": {
        "params": {
          "amountToDeposit_": "Collateral to deposit"
        },
        "returns": {
          "_amount": "Gross amount",
          "_fee": "Fee amount to collect"
        }
      },
      "quoteDepositOut(uint256)": {
        "params": {
          "amount_": "Gross amount"
        },
        "returns": {
          "_amountToDeposit": "Collateral to deposit",
          "_fee": "Fee amount to collect"
        }
      },
      "quoteWithdrawIn(uint256)": {
        "params": {
          "amountToWithdraw_": "Collateral to withdraw"
        },
        "returns": {
          "_amount": "Gross amount",
          "_fee": "Fee amount to collect"
        }
      },
      "quoteWithdrawOut(uint256)": {
        "params": {
          "amount_": "Gross amount"
        },
        "returns": {
          "_amountToWithdraw": "Collateral to withdraw",
          "_fee": "Fee amount to collect"
        }
      },
      "seize(address,address,uint256)": {
        "details": "Same as _transfer",
        "params": {
          "amount_": "The amount to seize",
          "from_": "The account to seize from",
          "to_": "The beneficiary account"
        }
      },
      "sweep(address,address,uint256)": {
        "params": {
          "amount_": "The amount to send",
          "to_": "The recipient of the transfer",
          "token_": "The token to transfer"
        }
      },
      "transfer(address,uint256)": {
        "details": "Moves `amount` tokens from the caller's account to `recipient`. Returns a boolean value indicating whether the operation succeeded. Emits a {Transfer} event."
      },
      "transferFrom(address,address,uint256)": {
        "details": "Moves `amount` tokens from `sender` to `recipient` using the allowance mechanism. `amount` is then deducted from the caller's allowance. Returns a boolean value indicating whether the operation succeeded. Emits a {Transfer} event."
      },
      "unlockedBalanceOf(address)": {
        "params": {
          "account_": "The account to check"
        },
        "returns": {
          "_unlockedBalance": "The amount that user can transfer or withdraw"
        }
      },
      "updateCollateralFactor(uint128)": {
        "params": {
          "newCollateralFactor_": "The new CF value"
        }
      },
      "updateMaxTotalSupply(uint256)": {
        "params": {
          "newMaxTotalSupply_": "The new max total supply"
        }
      },
      "withdraw(uint256,address)": {
        "params": {
          "amount_": "The amount of collateral to withdraw",
          "to_": "The account that will receive withdrawn collateral"
        },
        "returns": {
          "_withdrawn": "The amount withdrawn after fees"
        }
      },
      "withdrawFrom(address,uint256)": {
        "params": {
          "amount_": "The amount of collateral to withdraw",
          "from_": "The account to withdraw from"
        },
        "returns": {
          "_withdrawn": "The amount withdrawn after fees"
        }
      }
    },
    "title": "Represents the users' deposits",
    "version": 1
  },
  "userdoc": {
    "events": {
      "CollateralDeposited(address,address,uint256,uint256,uint256)": {
        "notice": "Emitted when collateral is deposited"
      },
      "CollateralFactorUpdated(uint256,uint256)": {
        "notice": "Emitted when CF is updated"
      },
      "CollateralWithdrawn(address,address,uint256,uint256,uint256)": {
        "notice": "Emitted when collateral is withdrawn"
      },
      "DepositTokenActiveUpdated(bool)": {
        "notice": "Emitted when active flag is updated"
      },
      "MaxTotalSupplyUpdated(uint256,uint256)": {
        "notice": "Emitted when max total supply is updated"
      }
    },
    "kind": "user",
    "methods": {
      "approve(address,uint256)": {
        "notice": "Set `amount` as the allowance of `spender` over the caller's tokens"
      },
      "collateralFactor()": {
        "notice": "Collateral factor for the deposit token"
      },
      "decimals()": {
        "notice": "The decimals of the token"
      },
      "decreaseAllowance(address,uint256)": {
        "notice": "Atomically decrease the allowance granted to `spender` by the caller"
      },
      "deposit(uint256,address)": {
        "notice": "Deposit collateral and mint msdTOKEN (tokenized deposit position)"
      },
      "flashWithdraw(address,uint256)": {
        "notice": "Burn msdTOKEN, withdraw collateral and transfer to `msg.sender` (i.e. SmartFarmingManager)"
      },
      "governor()": {
        "notice": "Get the governor"
      },
      "increaseAllowance(address,uint256)": {
        "notice": "Atomically increase the allowance granted to `spender` by the caller"
      },
      "isActive()": {
        "notice": "If a collateral isn't active, it disables minting new tokens"
      },
      "lockedBalanceOf(address)": {
        "notice": "Get the locked balance"
      },
      "maxTotalSupply()": {
        "notice": "The supply cap (in USD)"
      },
      "name()": {
        "notice": "The name of the token"
      },
      "pool()": {
        "notice": "Pool contract"
      },
      "quoteDepositIn(uint256)": {
        "notice": "Quote gross `_amount` to deposit `amountToDeposit_` collateral"
      },
      "quoteDepositOut(uint256)": {
        "notice": "Quote collateral `_amountToDeposit` by using gross `amount_`"
      },
      "quoteWithdrawIn(uint256)": {
        "notice": "Quote gross `_amount` to withdraw `amountToWithdraw_` collateral"
      },
      "quoteWithdrawOut(uint256)": {
        "notice": "Quote collateral `_amountToWithdraw` by using gross `_amount`"
      },
      "seize(address,address,uint256)": {
        "notice": "Seize tokens"
      },
      "sweep(address,address,uint256)": {
        "notice": "ERC20 recovery in case of stuck tokens due direct transfers to the contract address."
      },
      "symbol()": {
        "notice": "The symbol of the token"
      },
      "toggleIsActive()": {
        "notice": "Enable/Disable the Deposit Token"
      },
      "underlying()": {
        "notice": "Deposit underlying asset (e.g. MET)"
      },
      "unlockedBalanceOf(address)": {
        "notice": "Get the unlocked balance (i.e. transferable, withdrawable)"
      },
      "updateCollateralFactor(uint128)": {
        "notice": "Update collateral factor"
      },
      "updateMaxTotalSupply(uint256)": {
        "notice": "Update max total supply"
      },
      "withdraw(uint256,address)": {
        "notice": "Burn msdTOKEN and withdraw collateral"
      },
      "withdrawFrom(address,uint256)": {
        "notice": "Burn msdTOKEN and withdraw collateral from a given account"
      }
    },
    "version": 1
  },
  "storageLayout": {
    "storage": [
      {
        "astId": 19718,
        "contract": "contracts/DepositToken.sol:DepositToken",
        "label": "_initialized",
        "offset": 0,
        "slot": "0",
        "type": "t_uint8"
      },
      {
        "astId": 19721,
        "contract": "contracts/DepositToken.sol:DepositToken",
        "label": "_initializing",
        "offset": 1,
        "slot": "0",
        "type": "t_bool"
      },
      {
        "astId": 33546,
        "contract": "contracts/DepositToken.sol:DepositToken",
        "label": "_status",
        "offset": 0,
        "slot": "1",
        "type": "t_uint256"
      },
      {
        "astId": 14219,
        "contract": "contracts/DepositToken.sol:DepositToken",
        "label": "pool",
        "offset": 0,
        "slot": "2",
        "type": "t_contract(IPool)27868"
      },
      {
        "astId": 14321,
        "contract": "contracts/DepositToken.sol:DepositToken",
        "label": "__gap",
        "offset": 0,
        "slot": "3",
        "type": "t_array(t_uint256)49_storage"
      },
      {
        "astId": 30914,
        "contract": "contracts/DepositToken.sol:DepositToken",
        "label": "balanceOf",
        "offset": 0,
        "slot": "52",
        "type": "t_mapping(t_address,t_uint256)"
      },
      {
        "astId": 30922,
        "contract": "contracts/DepositToken.sol:DepositToken",
        "label": "allowance",
        "offset": 0,
        "slot": "53",
        "type": "t_mapping(t_address,t_mapping(t_address,t_uint256))"
      },
      {
        "astId": 30926,
        "contract": "contracts/DepositToken.sol:DepositToken",
        "label": "name",
        "offset": 0,
        "slot": "54",
        "type": "t_string_storage"
      },
      {
        "astId": 30930,
        "contract": "contracts/DepositToken.sol:DepositToken",
        "label": "symbol",
        "offset": 0,
        "slot": "55",
        "type": "t_string_storage"
      },
      {
        "astId": 30934,
        "contract": "contracts/DepositToken.sol:DepositToken",
        "label": "totalSupply",
        "offset": 0,
        "slot": "56",
        "type": "t_uint256"
      },
      {
        "astId": 30938,
        "contract": "contracts/DepositToken.sol:DepositToken",
        "label": "maxTotalSupply",
        "offset": 0,
        "slot": "57",
        "type": "t_uint256"
      },
      {
        "astId": 30942,
        "contract": "contracts/DepositToken.sol:DepositToken",
        "label": "collateralFactor",
        "offset": 0,
        "slot": "58",
        "type": "t_uint256"
      },
      {
        "astId": 30947,
        "contract": "contracts/DepositToken.sol:DepositToken",
        "label": "underlying",
        "offset": 0,
        "slot": "59",
        "type": "t_contract(IERC20)21889"
      },
      {
        "astId": 30951,
        "contract": "contracts/DepositToken.sol:DepositToken",
        "label": "isActive",
        "offset": 20,
        "slot": "59",
        "type": "t_bool"
      },
      {
        "astId": 30955,
        "contract": "contracts/DepositToken.sol:DepositToken",
        "label": "decimals",
        "offset": 21,
        "slot": "59",
        "type": "t_uint8"
      }
    ],
    "types": {
      "t_address": {
        "encoding": "inplace",
        "label": "address",
        "numberOfBytes": "20"
      },
      "t_array(t_uint256)49_storage": {
        "base": "t_uint256",
        "encoding": "inplace",
        "label": "uint256[49]",
        "numberOfBytes": "1568"
      },
      "t_bool": {
        "encoding": "inplace",
        "label": "bool",
        "numberOfBytes": "1"
      },
      "t_contract(IERC20)21889": {
        "encoding": "inplace",
        "label": "contract IERC20",
        "numberOfBytes": "20"
      },
      "t_contract(IPool)27868": {
        "encoding": "inplace",
        "label": "contract IPool",
        "numberOfBytes": "20"
      },
      "t_mapping(t_address,t_mapping(t_address,t_uint256))": {
        "encoding": "mapping",
        "key": "t_address",
        "label": "mapping(address => mapping(address => uint256))",
        "numberOfBytes": "32",
        "value": "t_mapping(t_address,t_uint256)"
      },
      "t_mapping(t_address,t_uint256)": {
        "encoding": "mapping",
        "key": "t_address",
        "label": "mapping(address => uint256)",
        "numberOfBytes": "32",
        "value": "t_uint256"
      },
      "t_string_storage": {
        "encoding": "bytes",
        "label": "string",
        "numberOfBytes": "32"
      },
      "t_uint256": {
        "encoding": "inplace",
        "label": "uint256",
        "numberOfBytes": "32"
      },
      "t_uint8": {
        "encoding": "inplace",
        "label": "uint8",
        "numberOfBytes": "1"
      }
    }
  }
}