{
  "address": "0xE2DbE32823Be67E346b0c6DB9395ce79133084d0",
  "abi": [
    {
      "inputs": [],
      "stateMutability": "nonpayable",
      "type": "constructor"
    },
    {
      "inputs": [],
      "name": "AllowanceNotSupported",
      "type": "error"
    },
    {
      "inputs": [],
      "name": "AmountIsZero",
      "type": "error"
    },
    {
      "inputs": [],
      "name": "ApprovalNotSupported",
      "type": "error"
    },
    {
      "inputs": [],
      "name": "BurnAmountExceedsBalance",
      "type": "error"
    },
    {
      "inputs": [],
      "name": "BurnFromNullAddress",
      "type": "error"
    },
    {
      "inputs": [],
      "name": "DebtLowerThanTheFloor",
      "type": "error"
    },
    {
      "inputs": [],
      "name": "DebtTokenInactive",
      "type": "error"
    },
    {
      "inputs": [],
      "name": "FallbackIsNotAllowed",
      "type": "error"
    },
    {
      "inputs": [],
      "name": "IsShutdown",
      "type": "error"
    },
    {
      "inputs": [],
      "name": "MintToNullAddress",
      "type": "error"
    },
    {
      "inputs": [],
      "name": "NameIsNull",
      "type": "error"
    },
    {
      "inputs": [],
      "name": "NewValueIsSameAsCurrent",
      "type": "error"
    },
    {
      "inputs": [],
      "name": "NotEnoughCollateral",
      "type": "error"
    },
    {
      "inputs": [],
      "name": "PoolAddressIsNull",
      "type": "error"
    },
    {
      "inputs": [],
      "name": "PoolIsNull",
      "type": "error"
    },
    {
      "inputs": [],
      "name": "ReceiveIsNotAllowed",
      "type": "error"
    },
    {
      "inputs": [],
      "name": "RemainingDebtIsLowerThanTheFloor",
      "type": "error"
    },
    {
      "inputs": [],
      "name": "SenderIsNotGovernor",
      "type": "error"
    },
    {
      "inputs": [],
      "name": "SenderIsNotPool",
      "type": "error"
    },
    {
      "inputs": [],
      "name": "SenderIsNotSmartFarmingManager",
      "type": "error"
    },
    {
      "inputs": [],
      "name": "SurpassMaxDebtSupply",
      "type": "error"
    },
    {
      "inputs": [],
      "name": "SymbolIsNull",
      "type": "error"
    },
    {
      "inputs": [],
      "name": "SyntheticDoesNotExist",
      "type": "error"
    },
    {
      "inputs": [],
      "name": "SyntheticIsInactive",
      "type": "error"
    },
    {
      "inputs": [],
      "name": "SyntheticIsNull",
      "type": "error"
    },
    {
      "inputs": [],
      "name": "TransferNotSupported",
      "type": "error"
    },
    {
      "anonymous": false,
      "inputs": [
        {
          "indexed": true,
          "internalType": "address",
          "name": "owner",
          "type": "address"
        },
        {
          "indexed": true,
          "internalType": "address",
          "name": "spender",
          "type": "address"
        },
        {
          "indexed": false,
          "internalType": "uint256",
          "name": "value",
          "type": "uint256"
        }
      ],
      "name": "Approval",
      "type": "event"
    },
    {
      "anonymous": false,
      "inputs": [
        {
          "indexed": true,
          "internalType": "address",
          "name": "payer",
          "type": "address"
        },
        {
          "indexed": true,
          "internalType": "address",
          "name": "account",
          "type": "address"
        },
        {
          "indexed": false,
          "internalType": "uint256",
          "name": "amount",
          "type": "uint256"
        },
        {
          "indexed": false,
          "internalType": "uint256",
          "name": "repaid",
          "type": "uint256"
        },
        {
          "indexed": false,
          "internalType": "uint256",
          "name": "fee",
          "type": "uint256"
        }
      ],
      "name": "DebtRepaid",
      "type": "event"
    },
    {
      "anonymous": false,
      "inputs": [
        {
          "indexed": false,
          "internalType": "bool",
          "name": "newActive",
          "type": "bool"
        }
      ],
      "name": "DebtTokenActiveUpdated",
      "type": "event"
    },
    {
      "anonymous": false,
      "inputs": [
        {
          "indexed": false,
          "internalType": "uint8",
          "name": "version",
          "type": "uint8"
        }
      ],
      "name": "Initialized",
      "type": "event"
    },
    {
      "anonymous": false,
      "inputs": [
        {
          "indexed": false,
          "internalType": "uint256",
          "name": "oldInterestRate",
          "type": "uint256"
        },
        {
          "indexed": false,
          "internalType": "uint256",
          "name": "newInterestRate",
          "type": "uint256"
        }
      ],
      "name": "InterestRateUpdated",
      "type": "event"
    },
    {
      "anonymous": false,
      "inputs": [
        {
          "indexed": false,
          "internalType": "uint256",
          "name": "oldMaxTotalSupply",
          "type": "uint256"
        },
        {
          "indexed": false,
          "internalType": "uint256",
          "name": "newMaxTotalSupply",
          "type": "uint256"
        }
      ],
      "name": "MaxTotalSupplyUpdated",
      "type": "event"
    },
    {
      "anonymous": false,
      "inputs": [
        {
          "indexed": true,
          "internalType": "address",
          "name": "account",
          "type": "address"
        },
        {
          "indexed": true,
          "internalType": "address",
          "name": "to",
          "type": "address"
        },
        {
          "indexed": false,
          "internalType": "uint256",
          "name": "amount",
          "type": "uint256"
        },
        {
          "indexed": false,
          "internalType": "uint256",
          "name": "issued",
          "type": "uint256"
        },
        {
          "indexed": false,
          "internalType": "uint256",
          "name": "fee",
          "type": "uint256"
        }
      ],
      "name": "SyntheticTokenIssued",
      "type": "event"
    },
    {
      "anonymous": false,
      "inputs": [
        {
          "indexed": true,
          "internalType": "address",
          "name": "from",
          "type": "address"
        },
        {
          "indexed": true,
          "internalType": "address",
          "name": "to",
          "type": "address"
        },
        {
          "indexed": false,
          "internalType": "uint256",
          "name": "value",
          "type": "uint256"
        }
      ],
      "name": "Transfer",
      "type": "event"
    },
    {
      "stateMutability": "payable",
      "type": "fallback"
    },
    {
      "inputs": [],
      "name": "SECONDS_PER_YEAR",
      "outputs": [
        {
          "internalType": "uint256",
          "name": "",
          "type": "uint256"
        }
      ],
      "stateMutability": "view",
      "type": "function"
    },
    {
      "inputs": [],
      "name": "VERSION",
      "outputs": [
        {
          "internalType": "string",
          "name": "",
          "type": "string"
        }
      ],
      "stateMutability": "view",
      "type": "function"
    },
    {
      "inputs": [],
      "name": "accrueInterest",
      "outputs": [],
      "stateMutability": "nonpayable",
      "type": "function"
    },
    {
      "inputs": [
        {
          "internalType": "address",
          "name": "",
          "type": "address"
        },
        {
          "internalType": "address",
          "name": "",
          "type": "address"
        }
      ],
      "name": "allowance",
      "outputs": [
        {
          "internalType": "uint256",
          "name": "",
          "type": "uint256"
        }
      ],
      "stateMutability": "pure",
      "type": "function"
    },
    {
      "inputs": [
        {
          "internalType": "address",
          "name": "",
          "type": "address"
        },
        {
          "internalType": "uint256",
          "name": "",
          "type": "uint256"
        }
      ],
      "name": "approve",
      "outputs": [
        {
          "internalType": "bool",
          "name": "",
          "type": "bool"
        }
      ],
      "stateMutability": "nonpayable",
      "type": "function"
    },
    {
      "inputs": [
        {
          "internalType": "address",
          "name": "account_",
          "type": "address"
        }
      ],
      "name": "balanceOf",
      "outputs": [
        {
          "internalType": "uint256",
          "name": "",
          "type": "uint256"
        }
      ],
      "stateMutability": "view",
      "type": "function"
    },
    {
      "inputs": [
        {
          "internalType": "address",
          "name": "from_",
          "type": "address"
        },
        {
          "internalType": "uint256",
          "name": "amount_",
          "type": "uint256"
        }
      ],
      "name": "burn",
      "outputs": [],
      "stateMutability": "nonpayable",
      "type": "function"
    },
    {
      "inputs": [],
      "name": "collectPendingInterestFee",
      "outputs": [],
      "stateMutability": "nonpayable",
      "type": "function"
    },
    {
      "inputs": [],
      "name": "debtIndex",
      "outputs": [
        {
          "internalType": "uint256",
          "name": "",
          "type": "uint256"
        }
      ],
      "stateMutability": "view",
      "type": "function"
    },
    {
      "inputs": [],
      "name": "decimals",
      "outputs": [
        {
          "internalType": "uint8",
          "name": "",
          "type": "uint8"
        }
      ],
      "stateMutability": "view",
      "type": "function"
    },
    {
      "inputs": [
        {
          "internalType": "address",
          "name": "to_",
          "type": "address"
        },
        {
          "internalType": "uint256",
          "name": "amount_",
          "type": "uint256"
        }
      ],
      "name": "flashIssue",
      "outputs": [
        {
          "internalType": "uint256",
          "name": "_issued",
          "type": "uint256"
        },
        {
          "internalType": "uint256",
          "name": "_fee",
          "type": "uint256"
        }
      ],
      "stateMutability": "nonpayable",
      "type": "function"
    },
    {
      "inputs": [],
      "name": "governor",
      "outputs": [
        {
          "internalType": "address",
          "name": "_governor",
          "type": "address"
        }
      ],
      "stateMutability": "view",
      "type": "function"
    },
    {
      "inputs": [
        {
          "internalType": "string",
          "name": "name_",
          "type": "string"
        },
        {
          "internalType": "string",
          "name": "symbol_",
          "type": "string"
        },
        {
          "internalType": "contract IPool",
          "name": "pool_",
          "type": "address"
        },
        {
          "internalType": "contract ISyntheticToken",
          "name": "syntheticToken_",
          "type": "address"
        },
        {
          "internalType": "uint256",
          "name": "interestRate_",
          "type": "uint256"
        },
        {
          "internalType": "uint256",
          "name": "maxTotalSupply_",
          "type": "uint256"
        }
      ],
      "name": "initialize",
      "outputs": [],
      "stateMutability": "nonpayable",
      "type": "function"
    },
    {
      "inputs": [],
      "name": "interestRate",
      "outputs": [
        {
          "internalType": "uint256",
          "name": "",
          "type": "uint256"
        }
      ],
      "stateMutability": "view",
      "type": "function"
    },
    {
      "inputs": [],
      "name": "interestRatePerSecond",
      "outputs": [
        {
          "internalType": "uint256",
          "name": "",
          "type": "uint256"
        }
      ],
      "stateMutability": "view",
      "type": "function"
    },
    {
      "inputs": [],
      "name": "isActive",
      "outputs": [
        {
          "internalType": "bool",
          "name": "",
          "type": "bool"
        }
      ],
      "stateMutability": "view",
      "type": "function"
    },
    {
      "inputs": [
        {
          "internalType": "uint256",
          "name": "amount_",
          "type": "uint256"
        },
        {
          "internalType": "address",
          "name": "to_",
          "type": "address"
        }
      ],
      "name": "issue",
      "outputs": [
        {
          "internalType": "uint256",
          "name": "_issued",
          "type": "uint256"
        },
        {
          "internalType": "uint256",
          "name": "_fee",
          "type": "uint256"
        }
      ],
      "stateMutability": "nonpayable",
      "type": "function"
    },
    {
      "inputs": [],
      "name": "lastTimestampAccrued",
      "outputs": [
        {
          "internalType": "uint256",
          "name": "",
          "type": "uint256"
        }
      ],
      "stateMutability": "view",
      "type": "function"
    },
    {
      "inputs": [],
      "name": "maxTotalSupply",
      "outputs": [
        {
          "internalType": "uint256",
          "name": "",
          "type": "uint256"
        }
      ],
      "stateMutability": "view",
      "type": "function"
    },
    {
      "inputs": [
        {
          "internalType": "address",
          "name": "to_",
          "type": "address"
        },
        {
          "internalType": "uint256",
          "name": "amount_",
          "type": "uint256"
        }
      ],
      "name": "mint",
      "outputs": [],
      "stateMutability": "nonpayable",
      "type": "function"
    },
    {
      "inputs": [],
      "name": "name",
      "outputs": [
        {
          "internalType": "string",
          "name": "",
          "type": "string"
        }
      ],
      "stateMutability": "view",
      "type": "function"
    },
    {
      "inputs": [],
      "name": "pendingInterestFee",
      "outputs": [
        {
          "internalType": "uint256",
          "name": "",
          "type": "uint256"
        }
      ],
      "stateMutability": "view",
      "type": "function"
    },
    {
      "inputs": [],
      "name": "pool",
      "outputs": [
        {
          "internalType": "contract IPool",
          "name": "",
          "type": "address"
        }
      ],
      "stateMutability": "view",
      "type": "function"
    },
    {
      "inputs": [
        {
          "internalType": "uint256",
          "name": "amountToIssue_",
          "type": "uint256"
        }
      ],
      "name": "quoteIssueIn",
      "outputs": [
        {
          "internalType": "uint256",
          "name": "_amount",
          "type": "uint256"
        },
        {
          "internalType": "uint256",
          "name": "_fee",
          "type": "uint256"
        }
      ],
      "stateMutability": "view",
      "type": "function"
    },
    {
      "inputs": [
        {
          "internalType": "uint256",
          "name": "amount_",
          "type": "uint256"
        }
      ],
      "name": "quoteIssueOut",
      "outputs": [
        {
          "internalType": "uint256",
          "name": "_amountToIssue",
          "type": "uint256"
        },
        {
          "internalType": "uint256",
          "name": "_fee",
          "type": "uint256"
        }
      ],
      "stateMutability": "view",
      "type": "function"
    },
    {
      "inputs": [
        {
          "internalType": "uint256",
          "name": "amountToRepay_",
          "type": "uint256"
        }
      ],
      "name": "quoteRepayIn",
      "outputs": [
        {
          "internalType": "uint256",
          "name": "_amount",
          "type": "uint256"
        },
        {
          "internalType": "uint256",
          "name": "_fee",
          "type": "uint256"
        }
      ],
      "stateMutability": "view",
      "type": "function"
    },
    {
      "inputs": [
        {
          "internalType": "uint256",
          "name": "amount_",
          "type": "uint256"
        }
      ],
      "name": "quoteRepayOut",
      "outputs": [
        {
          "internalType": "uint256",
          "name": "_amountToRepay",
          "type": "uint256"
        },
        {
          "internalType": "uint256",
          "name": "_fee",
          "type": "uint256"
        }
      ],
      "stateMutability": "view",
      "type": "function"
    },
    {
      "inputs": [
        {
          "internalType": "address",
          "name": "onBehalfOf_",
          "type": "address"
        },
        {
          "internalType": "uint256",
          "name": "amount_",
          "type": "uint256"
        }
      ],
      "name": "repay",
      "outputs": [
        {
          "internalType": "uint256",
          "name": "_repaid",
          "type": "uint256"
        },
        {
          "internalType": "uint256",
          "name": "_fee",
          "type": "uint256"
        }
      ],
      "stateMutability": "nonpayable",
      "type": "function"
    },
    {
      "inputs": [
        {
          "internalType": "address",
          "name": "onBehalfOf_",
          "type": "address"
        }
      ],
      "name": "repayAll",
      "outputs": [
        {
          "internalType": "uint256",
          "name": "_repaid",
          "type": "uint256"
        },
        {
          "internalType": "uint256",
          "name": "_fee",
          "type": "uint256"
        }
      ],
      "stateMutability": "nonpayable",
      "type": "function"
    },
    {
      "inputs": [
        {
          "internalType": "contract IERC20",
          "name": "token_",
          "type": "address"
        },
        {
          "internalType": "address",
          "name": "to_",
          "type": "address"
        },
        {
          "internalType": "uint256",
          "name": "amount_",
          "type": "uint256"
        }
      ],
      "name": "sweep",
      "outputs": [],
      "stateMutability": "nonpayable",
      "type": "function"
    },
    {
      "inputs": [],
      "name": "symbol",
      "outputs": [
        {
          "internalType": "string",
          "name": "",
          "type": "string"
        }
      ],
      "stateMutability": "view",
      "type": "function"
    },
    {
      "inputs": [],
      "name": "syntheticToken",
      "outputs": [
        {
          "internalType": "contract ISyntheticToken",
          "name": "",
          "type": "address"
        }
      ],
      "stateMutability": "view",
      "type": "function"
    },
    {
      "inputs": [],
      "name": "toggleIsActive",
      "outputs": [],
      "stateMutability": "nonpayable",
      "type": "function"
    },
    {
      "inputs": [],
      "name": "totalSupply",
      "outputs": [
        {
          "internalType": "uint256",
          "name": "",
          "type": "uint256"
        }
      ],
      "stateMutability": "view",
      "type": "function"
    },
    {
      "inputs": [
        {
          "internalType": "address",
          "name": "",
          "type": "address"
        },
        {
          "internalType": "uint256",
          "name": "",
          "type": "uint256"
        }
      ],
      "name": "transfer",
      "outputs": [
        {
          "internalType": "bool",
          "name": "",
          "type": "bool"
        }
      ],
      "stateMutability": "nonpayable",
      "type": "function"
    },
    {
      "inputs": [
        {
          "internalType": "address",
          "name": "",
          "type": "address"
        },
        {
          "internalType": "address",
          "name": "",
          "type": "address"
        },
        {
          "internalType": "uint256",
          "name": "",
          "type": "uint256"
        }
      ],
      "name": "transferFrom",
      "outputs": [
        {
          "internalType": "bool",
          "name": "",
          "type": "bool"
        }
      ],
      "stateMutability": "nonpayable",
      "type": "function"
    },
    {
      "inputs": [
        {
          "internalType": "uint256",
          "name": "newInterestRate_",
          "type": "uint256"
        }
      ],
      "name": "updateInterestRate",
      "outputs": [],
      "stateMutability": "nonpayable",
      "type": "function"
    },
    {
      "inputs": [
        {
          "internalType": "uint256",
          "name": "newMaxTotalSupply_",
          "type": "uint256"
        }
      ],
      "name": "updateMaxTotalSupply",
      "outputs": [],
      "stateMutability": "nonpayable",
      "type": "function"
    },
    {
      "stateMutability": "payable",
      "type": "receive"
    }
  ],
  "transactionHash": "0x025769e108d1a934fa3cc3dff382ecdf9d9c35321ac3146440513f65c79fccfe",
  "args": [],
  "numDeployments": 5,
  "solcInputHash": "545cb6254fd08cfae8ffa56eab2faa67",
  "bytecode": "0x60806040523480156200001157600080fd5b506200001c62000022565b62000152565b6200002e60ff62000031565b50565b60008054610100900460ff1615620000ca578160ff1660011480156200006a575062000068306200014360201b620029091760201c565b155b620000c25760405162461bcd60e51b815260206004820152602e602482015260008051602062003dfe83398151915260448201526d191e481a5b9a5d1a585b1a5e995960921b60648201526084015b60405180910390fd5b506000919050565b60005460ff808416911610620001295760405162461bcd60e51b815260206004820152602e602482015260008051602062003dfe83398151915260448201526d191e481a5b9a5d1a585b1a5e995960921b6064820152608401620000b9565b506000805460ff191660ff92909216919091179055600190565b6001600160a01b03163b151590565b613c9c80620001626000396000f3fe6080604052600436106102295760003560e01c8063752a50a611610123578063b696a6ad116100ab578063d38f2ba91161006f578063d38f2ba914610672578063d7da606614610692578063dd62ed3e146106a8578063e6a69ab8146106c8578063ffa1ad74146106e057610247565b8063b696a6ad146105e7578063bb8c631f14610607578063bfa176561461061d578063c9dc4b4d1461063d578063d25933291461065d57610247565b806395d89b41116100f257806395d89b411461056d5780639cc820da146105825780639dc29fac14610597578063a6afed95146105b7578063a9059cbb146105cc57610247565b8063752a50a6146104f75780637c27383b146105175780637c3a00fd146105375780638230ecd61461054d57610247565b80632ab4d052116101b15780634754d176116101755780634754d17614610461578063565f3d4f1461048157806362c067671461049757806370a08231146104b757806374e87e1e146104d757610247565b80632ab4d052146103c35780632d4aeea1146103d9578063313ce567146103f957806336248ab41461042c57806340c10f191461044157610247565b8063172f50a4116101f8578063172f50a41461030857806318160ddd1461032a57806322867d781461034d57806322f3e2d41461038257806323b872dd146103a357610247565b806306fdde0314610260578063095ea7b31461028b5780630c340a24146102bb57806316f0115b146102e857610247565b3661024757604051636436c22d60e11b815260040160405180910390fd5b60405163a0152e6360e01b815260040160405180910390fd5b34801561026c57600080fd5b50610275610711565b6040516102829190613685565b60405180910390f35b34801561029757600080fd5b506102ab6102a63660046136cd565b61079f565b6040519015158152602001610282565b3480156102c757600080fd5b506102d06107ba565b6040516001600160a01b039091168152602001610282565b3480156102f457600080fd5b506002546102d0906001600160a01b031681565b34801561031457600080fd5b506103286103233660046136f9565b61083c565b005b34801561033657600080fd5b5061033f6108d8565b604051908152602001610282565b34801561035957600080fd5b5061036d6103683660046136cd565b6108fb565b60408051928352602083019190915201610282565b34801561038e57600080fd5b50603d546102ab90600160a01b900460ff1681565b3480156103af57600080fd5b506102ab6103be366004613712565b610e1c565b3480156103cf57600080fd5b5061033f60385481565b3480156103e557600080fd5b5061036d6103f43660046136f9565b610e37565b34801561040557600080fd5b50603d5461041a90600160a81b900460ff1681565b60405160ff9091168152602001610282565b34801561043857600080fd5b50610328610f70565b34801561044d57600080fd5b5061032861045c3660046136cd565b611059565b34801561046d57600080fd5b5061036d61047c3660046136f9565b6113b7565b34801561048d57600080fd5b5061033f603a5481565b3480156104a357600080fd5b506103286104b2366004613712565b6114de565b3480156104c357600080fd5b5061033f6104d2366004613753565b611517565b3480156104e357600080fd5b506103286104f23660046137b9565b611583565b34801561050357600080fd5b506103286105123660046136f9565b611778565b34801561052357600080fd5b5061036d610532366004613753565b61181c565b34801561054357600080fd5b5061033f603c5481565b34801561055957600080fd5b50603d546102d0906001600160a01b031681565b34801561057957600080fd5b50610275611b9c565b34801561058e57600080fd5b5061033f611ba9565b3480156105a357600080fd5b506103286105b23660046136cd565b611bbd565b3480156105c357600080fd5b50610328611bf6565b3480156105d857600080fd5b506102ab6103be3660046136cd565b3480156105f357600080fd5b5061036d610602366004613860565b611d43565b34801561061357600080fd5b5061033f603b5481565b34801561062957600080fd5b5061036d6106383660046136cd565b612224565b34801561064957600080fd5b5061036d6106583660046136f9565b61260b565b34801561066957600080fd5b5061032861272a565b34801561067e57600080fd5b5061036d61068d3660046136f9565b6127c4565b34801561069e57600080fd5b5061033f603e5481565b3480156106b457600080fd5b5061033f6106c3366004613890565b6128ee565b3480156106d457600080fd5b5061033f6301e187e081565b3480156106ec57600080fd5b50610275604051806040016040528060058152602001640312e332e360dc1b81525081565b6034805461071e906138be565b80601f016020809104026020016040519081016040528092919081815260200182805461074a906138be565b80156107975780601f1061076c57610100808354040283529160200191610797565b820191906000526020600020905b81548152906001019060200180831161077a57829003601f168201915b505050505081565b6000604051631b48e8f360e21b815260040160405180910390fd5b6002546040805163030d028960e21b815290516000926001600160a01b031691630c340a24916004808301926020929190829003018186803b1580156107ff57600080fd5b505afa158015610813573d6000803e3d6000fd5b505050506040513d601f19601f820116820180604052508101906108379190613904565b905090565b6108446107ba565b6001600160a01b0316336001600160a01b03161461087557604051634b98449160e11b815260040160405180910390fd5b6038548181141561089957604051630333a68160e41b815260040160405180910390fd5b60408051828152602081018490527fc58cd6132bb46df23d468939c03dd023b74b509aaa6b04c39d5a6461c65963bd910160405180910390a150603855565b6000806108e3612918565b50509050806039546108f59190613937565b91505090565b600080600260009054906101000a90046001600160a01b03166001600160a01b031663ecf3a3f96040518163ffffffff1660e01b815260040160206040518083038186803b15801561094c57600080fd5b505afa158015610960573d6000803e3d6000fd5b505050506040513d601f19601f82011682018060405250810190610984919061395f565b156109a257604051631b0e923f60e11b815260040160405180910390fd5b600260015414156109ce5760405162461bcd60e51b81526004016109c59061397a565b60405180910390fd5b6002600181905554603d54604051631a0dd00b60e01b81526001600160a01b039182166004820152911690631a0dd00b9060240160206040518083038186803b158015610a1a57600080fd5b505afa158015610a2e573d6000803e3d6000fd5b505050506040513d601f19601f82011682018060405250810190610a52919061395f565b610a6f5760405163a596698b60e01b815260040160405180910390fd5b82610a8d576040516310eb483f60e21b815260040160405180910390fd5b610a95611bf6565b600254603d546001600160a01b039182169116610ab185610e37565b90945092508215610ba557806001600160a01b031663b2a02ff133846001600160a01b031663c415b95c6040518163ffffffff1660e01b815260040160206040518083038186803b158015610b0557600080fd5b505afa158015610b19573d6000803e3d6000fd5b505050506040513d601f19601f82011682018060405250810190610b3d9190613904565b6040516001600160e01b031960e085901b1681526001600160a01b0392831660048201529116602482015260448101869052606401600060405180830381600087803b158015610b8c57600080fd5b505af1158015610ba0573d6000803e3d6000fd5b505050505b6000826001600160a01b031663f60928096040518163ffffffff1660e01b815260040160206040518083038186803b158015610be057600080fd5b505afa158015610bf4573d6000803e3d6000fd5b505050506040513d601f19601f82011682018060405250810190610c1891906139b1565b90508015610d54576000836001600160a01b031663eaada3826040518163ffffffff1660e01b815260040160206040518083038186803b158015610c5b57600080fd5b505afa158015610c6f573d6000803e3d6000fd5b505050506040513d601f19601f82011682018060405250810190610c939190613904565b6001600160a01b0316638d0dba008488610cac8c611517565b610cb691906139ca565b6040518363ffffffff1660e01b8152600401610cd39291906139e1565b60206040518083038186803b158015610ceb57600080fd5b505afa158015610cff573d6000803e3d6000fd5b505050506040513d601f19601f82011682018060405250810190610d2391906139b1565b9050600081118015610d3457508181105b15610d52576040516332b9d47360e01b815260040160405180910390fd5b505b604051632770a7eb60e21b81526001600160a01b03831690639dc29fac90610d8290339089906004016139e1565b600060405180830381600087803b158015610d9c57600080fd5b505af1158015610db0573d6000803e3d6000fd5b50505050610dbe8786612988565b60408051878152602081018790529081018590526001600160a01b0388169033907fe02887340b03318642b6755f258294b795be42ed57d4b5d0ef27be3038d8a7649060600160405180910390a35050600180555090939092509050565b600060405163d21ad44b60e01b815260040160405180910390fd5b6000806000600260009054906101000a90046001600160a01b03166001600160a01b0316634066fdea6040518163ffffffff1660e01b815260040160206040518083038186803b158015610e8a57600080fd5b505afa158015610e9e573d6000803e3d6000fd5b505050506040513d601f19601f82011682018060405250810190610ec29190613904565b6001600160a01b0316637c0f59f46040518163ffffffff1660e01b815260040160206040518083038186803b158015610efa57600080fd5b505afa158015610f0e573d6000803e3d6000fd5b505050506040513d601f19601f82011682018060405250810190610f3291906139b1565b905080610f40575091929050565b610f5c610f5582670de0b6b3a7640000613937565b8590612c03565b9250610f6883856139ca565b915050915091565b603e54801561105657603d54600254604080516331056e5760e21b815290516001600160a01b03938416936340c10f1993169163c415b95c916004808301926020929190829003018186803b158015610fc857600080fd5b505afa158015610fdc573d6000803e3d6000fd5b505050506040513d601f19601f820116820180604052508101906110009190613904565b836040518363ffffffff1660e01b815260040161101e9291906139e1565b600060405180830381600087803b15801561103857600080fd5b505af115801561104c573d6000803e3d6000fd5b50506000603e5550505b50565b600260009054906101000a90046001600160a01b03166001600160a01b03166396aaccfe6040518163ffffffff1660e01b815260040160206040518083038186803b1580156110a757600080fd5b505afa1580156110bb573d6000803e3d6000fd5b505050506040513d601f19601f820116820180604052508101906110df9190613904565b6001600160a01b0316336001600160a01b03161461111057604051630935fed760e11b815260040160405180910390fd5b600260009054906101000a90046001600160a01b03166001600160a01b031663ecf3a3f96040518163ffffffff1660e01b815260040160206040518083038186803b15801561115e57600080fd5b505afa158015611172573d6000803e3d6000fd5b505050506040513d601f19601f82011682018060405250810190611196919061395f565b156111b457604051631b0e923f60e11b815260040160405180910390fd5b600260015414156111d75760405162461bcd60e51b81526004016109c59061397a565b6002600181905554603d54604051631a0dd00b60e01b81526001600160a01b039182166004820152911690631a0dd00b9060240160206040518083038186803b15801561122357600080fd5b505afa158015611237573d6000803e3d6000fd5b505050506040513d601f19601f8201168201806040525081019061125b919061395f565b6112785760405163a596698b60e01b815260040160405180910390fd5b603d60009054906101000a90046001600160a01b03166001600160a01b03166322f3e2d46040518163ffffffff1660e01b815260040160206040518083038186803b1580156112c657600080fd5b505afa1580156112da573d6000803e3d6000fd5b505050506040513d601f19601f820116820180604052508101906112fe919061395f565b61131b576040516303127d9160e31b815260040160405180910390fd5b611323611bf6565b60025460408051637556d1c160e11b815290516001600160a01b03909216916113ae918391829163eaada382916004808301926020929190829003018186803b15801561136f57600080fd5b505afa158015611383573d6000803e3d6000fd5b505050506040513d601f19601f820116820180604052508101906113a79190613904565b8585612c40565b50506001805550565b6000806000600260009054906101000a90046001600160a01b03166001600160a01b0316634066fdea6040518163ffffffff1660e01b815260040160206040518083038186803b15801561140a57600080fd5b505afa15801561141e573d6000803e3d6000fd5b505050506040513d601f19601f820116820180604052508101906114429190613904565b6001600160a01b0316632a9133c16040518163ffffffff1660e01b815260040160206040518083038186803b15801561147a57600080fd5b505afa15801561148e573d6000803e3d6000fd5b505050506040513d601f19601f820116820180604052508101906114b291906139b1565b9050806114c0575091929050565b6114ca848261302c565b91506114d682856139ca565b925050915091565b6114e6613064565b6001600160a01b038316611503576114fe828261309f565b505050565b6114fe6001600160a01b03841683836131b8565b6001600160a01b0381166000908152603660205260408120548061153e5750600092915050565b6000611548612918565b506001600160a01b038616600090815260376020526040902054909250905061157182846139fa565b61157b9190613a19565b949350505050565b600061158f600161320e565b905080156115a7576000805461ff0019166101001790555b876115c557604051636e83f50760e01b815260040160405180910390fd5b856115e3576040516330507cff60e11b815260040160405180910390fd5b6001600160a01b03851661160a57604051633cb1fb1f60e11b815260040160405180910390fd5b6001600160a01b0384166116315760405163013a1b4360e51b815260040160405180910390fd5b61163961329b565b611642856132ca565b61164e60348a8a6135bc565b5061165b603588886135bc565b50836001600160a01b031663313ce5676040518163ffffffff1660e01b815260040160206040518083038186803b15801561169557600080fd5b505afa1580156116a9573d6000803e3d6000fd5b505050506040513d601f19601f820116820180604052508101906116cd9190613a3b565b603d805442603a55670de0b6b3a7640000603b55603c86905560388590556001600160a81b031960ff93909316600160a81b02929092166001600160b01b0319909216919091176001600160a01b03861617600160a01b179055801561176d576000805461ff0019169055604051600181527f7f26b83ff96e1f2b6a682f133852f6798a09c465da95921460cefb38474024989060200160405180910390a15b505050505050505050565b6117806107ba565b6001600160a01b0316336001600160a01b0316146117b157604051634b98449160e11b815260040160405180910390fd5b6117b9611bf6565b603c54818114156117dd57604051630333a68160e41b815260040160405180910390fd5b60408051828152602081018490527f41e376fd99913dea7fda140f5c0bd997515b1a181acc58737320322548ec6e72910160405180910390a150603c55565b600080600260009054906101000a90046001600160a01b03166001600160a01b031663ecf3a3f96040518163ffffffff1660e01b815260040160206040518083038186803b15801561186d57600080fd5b505afa158015611881573d6000803e3d6000fd5b505050506040513d601f19601f820116820180604052508101906118a5919061395f565b156118c357604051631b0e923f60e11b815260040160405180910390fd5b600260015414156118e65760405162461bcd60e51b81526004016109c59061397a565b6002600181905554603d54604051631a0dd00b60e01b81526001600160a01b039182166004820152911690631a0dd00b9060240160206040518083038186803b15801561193257600080fd5b505afa158015611946573d6000803e3d6000fd5b505050506040513d601f19601f8201168201806040525081019061196a919061395f565b6119875760405163a596698b60e01b815260040160405180910390fd5b61198f611bf6565b61199883611517565b9150816119b8576040516310eb483f60e21b815260040160405180910390fd5b603d546001600160a01b031660006119cf8461260b565b935090508215611ad757816001600160a01b031663b2a02ff133600260009054906101000a90046001600160a01b03166001600160a01b031663c415b95c6040518163ffffffff1660e01b815260040160206040518083038186803b158015611a3757600080fd5b505afa158015611a4b573d6000803e3d6000fd5b505050506040513d601f19601f82011682018060405250810190611a6f9190613904565b6040516001600160e01b031960e085901b1681526001600160a01b0392831660048201529116602482015260448101869052606401600060405180830381600087803b158015611abe57600080fd5b505af1158015611ad2573d6000803e3d6000fd5b505050505b604051632770a7eb60e21b81526001600160a01b03831690639dc29fac90611b0590339088906004016139e1565b600060405180830381600087803b158015611b1f57600080fd5b505af1158015611b33573d6000803e3d6000fd5b50505050611b418585612988565b60408051828152602081018690529081018490526001600160a01b0386169033907fe02887340b03318642b6755f258294b795be42ed57d4b5d0ef27be3038d8a7649060600160405180910390a35050600180559092909150565b6035805461071e906138be565b60006301e187e0603c546108379190613a19565b6002546001600160a01b03163314611be85760405163531f2aa960e11b815260040160405180910390fd5b611bf28282612988565b5050565b6000806000611c03612918565b92509250925080421415611c1657505050565b42603a5582156114fe578260396000828254611c329190613937565b9091555050603b829055603d54600254604080516331056e5760e21b815290516001600160a01b03938416936340c10f1993169163c415b95c916004808301926020929190829003018186803b158015611c8b57600080fd5b505afa158015611c9f573d6000803e3d6000fd5b505050506040513d601f19601f82011682018060405250810190611cc39190613904565b603e54611cd09087613937565b6040518363ffffffff1660e01b8152600401611ced9291906139e1565b600060405180830381600087803b158015611d0757600080fd5b505af1925050508015611d18575060015b611d395782603e6000828254611d2e9190613937565b909155506114fe9050565b6000603e55505050565b600080600260009054906101000a90046001600160a01b03166001600160a01b031663ecf3a3f96040518163ffffffff1660e01b815260040160206040518083038186803b158015611d9457600080fd5b505afa158015611da8573d6000803e3d6000fd5b505050506040513d601f19601f82011682018060405250810190611dcc919061395f565b15611dea57604051631b0e923f60e11b815260040160405180910390fd5b60026001541415611e0d5760405162461bcd60e51b81526004016109c59061397a565b6002600181905554603d54604051631a0dd00b60e01b81526001600160a01b039182166004820152911690631a0dd00b9060240160206040518083038186803b158015611e5957600080fd5b505afa158015611e6d573d6000803e3d6000fd5b505050506040513d601f19601f82011682018060405250810190611e91919061395f565b611eae5760405163a596698b60e01b815260040160405180910390fd5b83611ecc576040516310eb483f60e21b815260040160405180910390fd5b611ed4611bf6565b600254603d5460405163dde3ab9560e01b81523360048201526001600160a01b039283169290911690600090839063dde3ab959060240160a06040518083038186803b158015611f2357600080fd5b505afa158015611f37573d6000803e3d6000fd5b505050506040513d601f19601f82011682018060405250810190611f5b9190613a5e565b9450505050506000836001600160a01b031663eaada3826040518163ffffffff1660e01b815260040160206040518083038186803b158015611f9c57600080fd5b505afa158015611fb0573d6000803e3d6000fd5b505050506040513d601f19601f82011682018060405250810190611fd49190613904565b60405163b5e9bef560e01b81529091506001600160a01b0382169063b5e9bef59061200590869086906004016139e1565b60206040518083038186803b15801561201d57600080fd5b505afa158015612031573d6000803e3d6000fd5b505050506040513d601f19601f8201168201806040525081019061205591906139b1565b8811156120745760405162d11df360e61b815260040160405180910390fd5b6120808482338b612c40565b612089886113b7565b9096509450841561216557826001600160a01b03166340c10f19856001600160a01b031663c415b95c6040518163ffffffff1660e01b815260040160206040518083038186803b1580156120dc57600080fd5b505afa1580156120f0573d6000803e3d6000fd5b505050506040513d601f19601f820116820180604052508101906121149190613904565b876040518363ffffffff1660e01b81526004016121329291906139e1565b600060405180830381600087803b15801561214c57600080fd5b505af1158015612160573d6000803e3d6000fd5b505050505b6040516340c10f1960e01b81526001600160a01b038416906340c10f1990612193908a908a906004016139e1565b600060405180830381600087803b1580156121ad57600080fd5b505af11580156121c1573d6000803e3d6000fd5b5050604080518b8152602081018a90529081018890526001600160a01b038a1692503391507f197d5e1e72d62df9dad3add8609553402104dbeb4f83f9789e33aeb6723a78399060600160405180910390a3505060018055509194909350915050565b600080600260009054906101000a90046001600160a01b03166001600160a01b03166396aaccfe6040518163ffffffff1660e01b815260040160206040518083038186803b15801561227557600080fd5b505afa158015612289573d6000803e3d6000fd5b505050506040513d601f19601f820116820180604052508101906122ad9190613904565b6001600160a01b0316336001600160a01b0316146122de57604051630935fed760e11b815260040160405180910390fd5b600260009054906101000a90046001600160a01b03166001600160a01b031663ecf3a3f96040518163ffffffff1660e01b815260040160206040518083038186803b15801561232c57600080fd5b505afa158015612340573d6000803e3d6000fd5b505050506040513d601f19601f82011682018060405250810190612364919061395f565b1561238257604051631b0e923f60e11b815260040160405180910390fd5b600260015414156123a55760405162461bcd60e51b81526004016109c59061397a565b6002600181905554603d54604051631a0dd00b60e01b81526001600160a01b039182166004820152911690631a0dd00b9060240160206040518083038186803b1580156123f157600080fd5b505afa158015612405573d6000803e3d6000fd5b505050506040513d601f19601f82011682018060405250810190612429919061395f565b6124465760405163a596698b60e01b815260040160405180910390fd5b603d54600160a01b900460ff166124705760405163a4382ae360e01b815260040160405180910390fd5b8261248e576040516310eb483f60e21b815260040160405180910390fd5b612496611bf6565b603d546001600160a01b03166124ab846113b7565b9093509150811561259c57806001600160a01b03166340c10f19600260009054906101000a90046001600160a01b03166001600160a01b031663c415b95c6040518163ffffffff1660e01b815260040160206040518083038186803b15801561251357600080fd5b505afa158015612527573d6000803e3d6000fd5b505050506040513d601f19601f8201168201806040525081019061254b9190613904565b846040518363ffffffff1660e01b81526004016125699291906139e1565b600060405180830381600087803b15801561258357600080fd5b505af1158015612597573d6000803e3d6000fd5b505050505b6040516340c10f1960e01b81526001600160a01b038216906340c10f19906125ca90889087906004016139e1565b600060405180830381600087803b1580156125e457600080fd5b505af11580156125f8573d6000803e3d6000fd5b5050505050600180819055509250929050565b6000806000600260009054906101000a90046001600160a01b03166001600160a01b0316634066fdea6040518163ffffffff1660e01b815260040160206040518083038186803b15801561265e57600080fd5b505afa158015612672573d6000803e3d6000fd5b505050506040513d601f19601f820116820180604052508101906126969190613904565b6001600160a01b0316637c0f59f46040518163ffffffff1660e01b815260040160206040518083038186803b1580156126ce57600080fd5b505afa1580156126e2573d6000803e3d6000fd5b505050506040513d601f19601f8201168201806040525081019061270691906139b1565b905080612714575091929050565b61271e848261302c565b91506114d68285613937565b6127326107ba565b6001600160a01b0316336001600160a01b03161461276357604051634b98449160e11b815260040160405180910390fd5b603d54604051600160a01b90910460ff1615808252907fb1d9ceb4467fd05a16930f966760d70eb5926cf0c1c19a7b6bfe59d805c190459060200160405180910390a1603d8054911515600160a01b0260ff60a01b19909216919091179055565b6000806000600260009054906101000a90046001600160a01b03166001600160a01b0316634066fdea6040518163ffffffff1660e01b815260040160206040518083038186803b15801561281757600080fd5b505afa15801561282b573d6000803e3d6000fd5b505050506040513d601f19601f8201168201806040525081019061284f9190613904565b6001600160a01b0316632a9133c16040518163ffffffff1660e01b815260040160206040518083038186803b15801561288757600080fd5b505afa15801561289b573d6000803e3d6000fd5b505050506040513d601f19601f820116820180604052508101906128bf91906139b1565b9050806128cd575091929050565b6128e2610f5582670de0b6b3a76400006139ca565b9250610f6884846139ca565b600060405163effde13d60e01b815260040160405180910390fd5b6001600160a01b03163b151590565b603a54603b546000914281101561298357600061293582426139ca565b61293d611ba9565b61294791906139fa565b905080156129815760395461295d90829061302c565b9350612974603b548261302c90919063ffffffff16565b61297e9084613937565b92505b505b909192565b816000600260009054906101000a90046001600160a01b03166001600160a01b0316633605b51b6040518163ffffffff1660e01b815260040160006040518083038186803b1580156129d957600080fd5b505afa1580156129ed573d6000803e3d6000fd5b505050506040513d6000823e601f3d908101601f19168201604052612a159190810190613abb565b603d5481519192506001600160a01b03169060005b81811015612ac357838181518110612a4457612a44613b80565b6020908102919091010151604051626cc3c360e61b81526001600160a01b038581166004830152878116602483015290911690631b30f0c090604401600060405180830381600087803b158015612a9a57600080fd5b505af1158015612aae573d6000803e3d6000fd5b5050505080612abc90613b96565b9050612a2a565b506001600160a01b038616612aeb5760405163170476af60e21b815260040160405180910390fd5b6000612af687611517565b905085811015612b1957604051630bba337f60e11b815260040160405180910390fd5b6001600160a01b03871660008181526036602090815260408083208a86039055603b546037835281842055603980548b90039055518981529192917fddf252ad1be2c89b69c2b068fc378daa952ba7f163c4a11628f55a4df523b3ef910160405180910390a3600086118015612b955750612b9387611517565b155b15612bfa57600254604051631d71be3b60e21b81526001600160a01b038981166004830152909116906375c6f8ec90602401600060405180830381600087803b158015612be157600080fd5b505af1158015612bf5573d6000803e3d6000fd5b505050505b50505050505050565b600081612c11600282613a19565b612c23670de0b6b3a7640000866139fa565b612c2d9190613937565b612c379190613a19565b90505b92915050565b603d54600160a01b900460ff16612c6a5760405163a4382ae360e01b815260040160405180910390fd5b816000600260009054906101000a90046001600160a01b03166001600160a01b0316633605b51b6040518163ffffffff1660e01b815260040160006040518083038186803b158015612cbb57600080fd5b505afa158015612ccf573d6000803e3d6000fd5b505050506040513d6000823e601f3d908101601f19168201604052612cf79190810190613abb565b603d5481519192506001600160a01b03169060005b81811015612da557838181518110612d2657612d26613b80565b6020908102919091010151604051626cc3c360e61b81526001600160a01b038581166004830152878116602483015290911690631b30f0c090604401600060405180830381600087803b158015612d7c57600080fd5b505af1158015612d90573d6000803e3d6000fd5b5050505080612d9e90613b96565b9050612d0c565b506001600160a01b038616612dcd57604051632b61339160e21b815260040160405180910390fd5b6000886001600160a01b031663f60928096040518163ffffffff1660e01b815260040160206040518083038186803b158015612e0857600080fd5b505afa158015612e1c573d6000803e3d6000fd5b505050506040513d601f19601f82011682018060405250810190612e4091906139b1565b90506000612e4d88611517565b9050600082118015612eeb5750603d5482906001600160a01b03808c1691638d0dba009116612e7c8b86613937565b6040518363ffffffff1660e01b8152600401612e999291906139e1565b60206040518083038186803b158015612eb157600080fd5b505afa158015612ec5573d6000803e3d6000fd5b505050506040513d601f19601f82011682018060405250810190612ee991906139b1565b105b15612f0957604051637e76d52960e11b815260040160405180910390fd5b8660396000828254612f1b9190613937565b90915550506038546039541115612f4557604051634aed251160e11b815260040160405180910390fd5b612f4f8782613937565b6001600160a01b038916600081815260366020908152604080832094909455603b54603782528483205592518a8152919290917fddf252ad1be2c89b69c2b068fc378daa952ba7f163c4a11628f55a4df523b3ef910160405180910390a380158015612fbb5750600087115b1561302057600254604051631dc2da6d60e21b81526001600160a01b038a811660048301529091169063770b69b490602401600060405180830381600087803b15801561300757600080fd5b505af115801561301b573d6000803e3d6000fd5b505050505b50505050505050505050565b6000821580613039575081155b1561304657506000612c3a565b670de0b6b3a764000061305a600282613a19565b612c2384866139fa565b61306c6107ba565b6001600160a01b0316336001600160a01b03161461309d57604051634b98449160e11b815260040160405180910390fd5b565b804710156130ef5760405162461bcd60e51b815260206004820152601d60248201527f416464726573733a20696e73756666696369656e742062616c616e636500000060448201526064016109c5565b6000826001600160a01b03168260405160006040518083038185875af1925050503d806000811461313c576040519150601f19603f3d011682016040523d82523d6000602084013e613141565b606091505b50509050806114fe5760405162461bcd60e51b815260206004820152603a60248201527f416464726573733a20756e61626c6520746f2073656e642076616c75652c207260448201527f6563697069656e74206d6179206861766520726576657274656400000000000060648201526084016109c5565b6114fe8363a9059cbb60e01b84846040516024016131d79291906139e1565b60408051601f198184030181529190526020810180516001600160e01b03166001600160e01b03199093169290921790915261333a565b60008054610100900460ff1615613255578160ff1660011480156132315750303b155b61324d5760405162461bcd60e51b81526004016109c590613bb1565b506000919050565b60005460ff80841691161061327c5760405162461bcd60e51b81526004016109c590613bb1565b506000805460ff191660ff92909216919091179055600190565b919050565b600054610100900460ff166132c25760405162461bcd60e51b81526004016109c590613bff565b61309d61340c565b600054610100900460ff166132f15760405162461bcd60e51b81526004016109c590613bff565b6001600160a01b0381166133185760405163724f500960e01b815260040160405180910390fd5b600280546001600160a01b0319166001600160a01b0392909216919091179055565b600061338f826040518060400160405280602081526020017f5361666545524332303a206c6f772d6c6576656c2063616c6c206661696c6564815250856001600160a01b03166134399092919063ffffffff16565b8051909150156114fe57808060200190518101906133ad919061395f565b6114fe5760405162461bcd60e51b815260206004820152602a60248201527f5361666545524332303a204552433230206f7065726174696f6e20646964206e6044820152691bdd081cdd58d8d9595960b21b60648201526084016109c5565b600054610100900460ff166134335760405162461bcd60e51b81526004016109c590613bff565b60018055565b60606134488484600085613452565b90505b9392505050565b6060824710156134b35760405162461bcd60e51b815260206004820152602660248201527f416464726573733a20696e73756666696369656e742062616c616e636520666f6044820152651c8818d85b1b60d21b60648201526084016109c5565b6001600160a01b0385163b61350a5760405162461bcd60e51b815260206004820152601d60248201527f416464726573733a2063616c6c20746f206e6f6e2d636f6e747261637400000060448201526064016109c5565b600080866001600160a01b031685876040516135269190613c4a565b60006040518083038185875af1925050503d8060008114613563576040519150601f19603f3d011682016040523d82523d6000602084013e613568565b606091505b5091509150613578828286613583565b979650505050505050565b6060831561359257508161344b565b8251156135a25782518084602001fd5b8160405162461bcd60e51b81526004016109c59190613685565b8280546135c8906138be565b90600052602060002090601f0160209004810192826135ea5760008555613630565b82601f106136035782800160ff19823516178555613630565b82800160010185558215613630579182015b82811115613630578235825591602001919060010190613615565b5061363c929150613640565b5090565b5b8082111561363c5760008155600101613641565b60005b83811015613670578181015183820152602001613658565b8381111561367f576000848401525b50505050565b60208152600082518060208401526136a4816040850160208701613655565b601f01601f19169190910160400192915050565b6001600160a01b038116811461105657600080fd5b600080604083850312156136e057600080fd5b82356136eb816136b8565b946020939093013593505050565b60006020828403121561370b57600080fd5b5035919050565b60008060006060848603121561372757600080fd5b8335613732816136b8565b92506020840135613742816136b8565b929592945050506040919091013590565b60006020828403121561376557600080fd5b813561344b816136b8565b60008083601f84011261378257600080fd5b50813567ffffffffffffffff81111561379a57600080fd5b6020830191508360208285010111156137b257600080fd5b9250929050565b60008060008060008060008060c0898b0312156137d557600080fd5b883567ffffffffffffffff808211156137ed57600080fd5b6137f98c838d01613770565b909a50985060208b013591508082111561381257600080fd5b5061381f8b828c01613770565b9097509550506040890135613833816136b8565b93506060890135613843816136b8565b979a969950949793969295929450505060808201359160a0013590565b6000806040838503121561387357600080fd5b823591506020830135613885816136b8565b809150509250929050565b600080604083850312156138a357600080fd5b82356138ae816136b8565b91506020830135613885816136b8565b600181811c908216806138d257607f821691505b602082108114156138f357634e487b7160e01b600052602260045260246000fd5b50919050565b8051613296816136b8565b60006020828403121561391657600080fd5b815161344b816136b8565b634e487b7160e01b600052601160045260246000fd5b6000821982111561394a5761394a613921565b500190565b8051801515811461329657600080fd5b60006020828403121561397157600080fd5b612c378261394f565b6020808252601f908201527f5265656e7472616e637947756172643a207265656e7472616e742063616c6c00604082015260600190565b6000602082840312156139c357600080fd5b5051919050565b6000828210156139dc576139dc613921565b500390565b6001600160a01b03929092168252602082015260400190565b6000816000190483118215151615613a1457613a14613921565b500290565b600082613a3657634e487b7160e01b600052601260045260246000fd5b500490565b600060208284031215613a4d57600080fd5b815160ff8116811461344b57600080fd5b600080600080600060a08688031215613a7657600080fd5b613a7f8661394f565b602087015160408801516060890151608090990151929a91995097965090945092505050565b634e487b7160e01b600052604160045260246000fd5b60006020808385031215613ace57600080fd5b825167ffffffffffffffff80821115613ae657600080fd5b818501915085601f830112613afa57600080fd5b815181811115613b0c57613b0c613aa5565b8060051b604051601f19603f83011681018181108582111715613b3157613b31613aa5565b604052918252848201925083810185019188831115613b4f57600080fd5b938501935b82851015613b7457613b65856138f9565b84529385019392850192613b54565b98975050505050505050565b634e487b7160e01b600052603260045260246000fd5b6000600019821415613baa57613baa613921565b5060010190565b6020808252602e908201527f496e697469616c697a61626c653a20636f6e747261637420697320616c72656160408201526d191e481a5b9a5d1a585b1a5e995960921b606082015260800190565b6020808252602b908201527f496e697469616c697a61626c653a20636f6e7472616374206973206e6f74206960408201526a6e697469616c697a696e6760a81b606082015260800190565b60008251613c5c818460208701613655565b919091019291505056fea26469706673582212202a942e4446d0845826179dd94c6f9bde886db2b71bc4497729679f81e179a56a64736f6c63430008090033496e697469616c697a61626c653a20636f6e747261637420697320616c726561",
  "devdoc": {
    "kind": "dev",
    "methods": {
      "allowance(address,address)": {
        "details": "Returns the remaining number of tokens that `spender` will be allowed to spend on behalf of `owner` through {transferFrom}. This is zero by default. This value changes when {approve} or {transferFrom} are called."
      },
      "approve(address,uint256)": {
        "details": "Sets `amount` as the allowance of `spender` over the caller's tokens. Returns a boolean value indicating whether the operation succeeded. IMPORTANT: Beware that changing an allowance with this method brings the risk that someone may use both the old and the new allowance by unfortunate transaction ordering. One possible solution to mitigate this race condition is to first reduce the spender's allowance to 0 and set the desired value afterwards: https://github.com/ethereum/EIPs/issues/20#issuecomment-263524729 Emits an {Approval} event."
      },
      "burn(address,uint256)": {
        "params": {
          "amount_": "The amount to burn",
          "from_": "The account to burn from"
        }
      },
      "flashIssue(address,uint256)": {
        "details": "The healthy of outcome position must be done afterhand",
        "params": {
          "amount_": "The amount to mint",
          "to_": "The beneficiary account"
        },
        "returns": {
          "_fee": "The fee amount collected",
          "_issued": "The amount issued after fees"
        }
      },
      "governor()": {
        "returns": {
          "_governor": "The governor"
        }
      },
      "issue(uint256,address)": {
        "params": {
          "amount_": "The amount to mint",
          "to_": "The beneficiary account"
        },
        "returns": {
          "_fee": "The fee amount collected",
          "_issued": "The amount issued after fees"
        }
      },
      "mint(address,uint256)": {
        "params": {
          "amount_": "Token amount to mint",
          "to_": "Receiver address"
        }
      },
      "quoteIssueIn(uint256)": {
        "params": {
          "amountToIssue_": "Synth to issue"
        },
        "returns": {
          "_amount": "Gross amount",
          "_fee": "The fee amount to collect"
        }
      },
      "quoteIssueOut(uint256)": {
        "params": {
          "amount_": "Gross amount"
        },
        "returns": {
          "_amountToIssue": "Synth to issue",
          "_fee": "The fee amount to collect"
        }
      },
      "quoteRepayIn(uint256)": {
        "params": {
          "amountToRepay_": "Debt amount to repay"
        },
        "returns": {
          "_amount": "Gross amount",
          "_fee": "The fee amount to collect"
        }
      },
      "quoteRepayOut(uint256)": {
        "params": {
          "amount_": "Gross amount"
        },
        "returns": {
          "_amountToRepay": "Debt amount to repay",
          "_fee": "The fee amount to collect"
        }
      },
      "repay(address,uint256)": {
        "details": "The msg.sender is the payer and the account beneficed",
        "params": {
          "amount_": "The amount of synthetic token to burn (this is the gross amount, the repay fee will be subtracted from it)",
          "onBehalfOf_": "The account that will have debt decreased"
        },
        "returns": {
          "_repaid": "The amount repaid after fees"
        }
      },
      "repayAll(address)": {
        "details": "This function helps users to no leave debt dust behind",
        "params": {
          "onBehalfOf_": "The account that will have debt decreased"
        },
        "returns": {
          "_fee": "The fee amount collected",
          "_repaid": "The amount repaid after fees"
        }
      },
      "sweep(address,address,uint256)": {
        "params": {
          "amount_": "The amount to send",
          "to_": "The recipient of the transfer",
          "token_": "The token to transfer"
        }
      },
      "transfer(address,uint256)": {
        "details": "Moves `amount` tokens from the caller's account to `recipient`. Returns a boolean value indicating whether the operation succeeded. Emits a {Transfer} event."
      },
      "transferFrom(address,address,uint256)": {
        "details": "Moves `amount` tokens from `sender` to `recipient` using the allowance mechanism. `amount` is then deducted from the caller's allowance. Returns a boolean value indicating whether the operation succeeded. Emits a {Transfer} event."
      }
    },
    "title": "Non-transferable token that represents users' debts",
    "version": 1
  },
  "userdoc": {
    "events": {
      "DebtRepaid(address,address,uint256,uint256,uint256)": {
        "notice": "Emitted when synthetic's debt is repaid"
      },
      "DebtTokenActiveUpdated(bool)": {
        "notice": "Emitted when active flag is updated"
      },
      "InterestRateUpdated(uint256,uint256)": {
        "notice": "Emitted when interest rate is updated"
      },
      "MaxTotalSupplyUpdated(uint256,uint256)": {
        "notice": "Emitted when max total supply is updated"
      },
      "SyntheticTokenIssued(address,address,uint256,uint256,uint256)": {
        "notice": "Emitted when synthetic token is issued"
      }
    },
    "kind": "user",
    "methods": {
      "accrueInterest()": {
        "notice": "Accrue interest over debt supply"
      },
      "balanceOf(address)": {
        "notice": "Get the updated (principal + interest) user's debt"
      },
      "burn(address,uint256)": {
        "notice": "Burn debt token"
      },
      "collectPendingInterestFee()": {
        "notice": "Collect pending interest fee if any"
      },
      "debtIndex()": {
        "notice": "Accumulator of the total earned interest rate since the beginning"
      },
      "decimals()": {
        "notice": "The decimals of the token"
      },
      "flashIssue(address,uint256)": {
        "notice": "Issue synth without checking collateral and without minting debt tokens"
      },
      "governor()": {
        "notice": "Get the governor"
      },
      "interestRate()": {
        "notice": "Interest rate"
      },
      "interestRatePerSecond()": {
        "notice": "Return interest rate (in percent) per second"
      },
      "isActive()": {
        "notice": "If true, disables msAsset minting on this pool"
      },
      "issue(uint256,address)": {
        "notice": "Lock collateral and mint synthetic token"
      },
      "lastTimestampAccrued()": {
        "notice": "The timestamp when interest accrual was calculated for the last time"
      },
      "maxTotalSupply()": {
        "notice": "The supply cap"
      },
      "mint(address,uint256)": {
        "notice": "onlySmartFarmingManager:: Mint `amount_` of debtToken at `to_`."
      },
      "name()": {
        "notice": "The name of the token"
      },
      "pendingInterestFee()": {
        "notice": "Pending interest fee to collect"
      },
      "pool()": {
        "notice": "Pool contract"
      },
      "quoteIssueIn(uint256)": {
        "notice": "Quote gross `_amount` to issue `amountToIssue_` synthetic tokens"
      },
      "quoteIssueOut(uint256)": {
        "notice": "Quote synthetic tokens `_amountToIssue` by using gross `_amount`"
      },
      "quoteRepayIn(uint256)": {
        "notice": "Quote synthetic token `_amount` need to repay `amountToRepay_` debt"
      },
      "quoteRepayOut(uint256)": {
        "notice": "Quote debt `_amountToRepay` by burning `_amount` synthetic tokens"
      },
      "repay(address,uint256)": {
        "notice": "Send synthetic token to decrease debt"
      },
      "repayAll(address)": {
        "notice": "Send synthetic token to decrease debt"
      },
      "sweep(address,address,uint256)": {
        "notice": "ERC20 recovery in case of stuck tokens due direct transfers to the contract address."
      },
      "symbol()": {
        "notice": "The symbol of the token"
      },
      "syntheticToken()": {
        "notice": "The Synthetic token"
      },
      "toggleIsActive()": {
        "notice": "Enable/Disable the Debt Token"
      },
      "totalSupply()": {
        "notice": "Return the total supply"
      },
      "updateInterestRate(uint256)": {
        "notice": "Update interest rate (APR)"
      },
      "updateMaxTotalSupply(uint256)": {
        "notice": "Update max total supply"
      }
    },
    "version": 1
  },
  "storageLayout": {
    "storage": [
      {
        "astId": 19514,
        "contract": "contracts/DebtToken.sol:DebtToken",
        "label": "_initialized",
        "offset": 0,
        "slot": "0",
        "type": "t_uint8"
      },
      {
        "astId": 19517,
        "contract": "contracts/DebtToken.sol:DebtToken",
        "label": "_initializing",
        "offset": 1,
        "slot": "0",
        "type": "t_bool"
      },
      {
        "astId": 33193,
        "contract": "contracts/DebtToken.sol:DebtToken",
        "label": "_status",
        "offset": 0,
        "slot": "1",
        "type": "t_uint256"
      },
      {
        "astId": 14015,
        "contract": "contracts/DebtToken.sol:DebtToken",
        "label": "pool",
        "offset": 0,
        "slot": "2",
        "type": "t_contract(IPool)27664"
      },
      {
        "astId": 14117,
        "contract": "contracts/DebtToken.sol:DebtToken",
        "label": "__gap",
        "offset": 0,
        "slot": "3",
        "type": "t_array(t_uint256)49_storage"
      },
      {
        "astId": 30616,
        "contract": "contracts/DebtToken.sol:DebtToken",
        "label": "name",
        "offset": 0,
        "slot": "52",
        "type": "t_string_storage"
      },
      {
        "astId": 30620,
        "contract": "contracts/DebtToken.sol:DebtToken",
        "label": "symbol",
        "offset": 0,
        "slot": "53",
        "type": "t_string_storage"
      },
      {
        "astId": 30625,
        "contract": "contracts/DebtToken.sol:DebtToken",
        "label": "principalOf",
        "offset": 0,
        "slot": "54",
        "type": "t_mapping(t_address,t_uint256)"
      },
      {
        "astId": 30630,
        "contract": "contracts/DebtToken.sol:DebtToken",
        "label": "debtIndexOf",
        "offset": 0,
        "slot": "55",
        "type": "t_mapping(t_address,t_uint256)"
      },
      {
        "astId": 30634,
        "contract": "contracts/DebtToken.sol:DebtToken",
        "label": "maxTotalSupply",
        "offset": 0,
        "slot": "56",
        "type": "t_uint256"
      },
      {
        "astId": 30637,
        "contract": "contracts/DebtToken.sol:DebtToken",
        "label": "totalSupply_",
        "offset": 0,
        "slot": "57",
        "type": "t_uint256"
      },
      {
        "astId": 30641,
        "contract": "contracts/DebtToken.sol:DebtToken",
        "label": "lastTimestampAccrued",
        "offset": 0,
        "slot": "58",
        "type": "t_uint256"
      },
      {
        "astId": 30645,
        "contract": "contracts/DebtToken.sol:DebtToken",
        "label": "debtIndex",
        "offset": 0,
        "slot": "59",
        "type": "t_uint256"
      },
      {
        "astId": 30649,
        "contract": "contracts/DebtToken.sol:DebtToken",
        "label": "interestRate",
        "offset": 0,
        "slot": "60",
        "type": "t_uint256"
      },
      {
        "astId": 30654,
        "contract": "contracts/DebtToken.sol:DebtToken",
        "label": "syntheticToken",
        "offset": 0,
        "slot": "61",
        "type": "t_contract(ISyntheticToken)28137"
      },
      {
        "astId": 30658,
        "contract": "contracts/DebtToken.sol:DebtToken",
        "label": "isActive",
        "offset": 20,
        "slot": "61",
        "type": "t_bool"
      },
      {
        "astId": 30662,
        "contract": "contracts/DebtToken.sol:DebtToken",
        "label": "decimals",
        "offset": 21,
        "slot": "61",
        "type": "t_uint8"
      },
      {
        "astId": 30668,
        "contract": "contracts/DebtToken.sol:DebtToken",
        "label": "pendingInterestFee",
        "offset": 0,
        "slot": "62",
        "type": "t_uint256"
      }
    ],
    "types": {
      "t_address": {
        "encoding": "inplace",
        "label": "address",
        "numberOfBytes": "20"
      },
      "t_array(t_uint256)49_storage": {
        "base": "t_uint256",
        "encoding": "inplace",
        "label": "uint256[49]",
        "numberOfBytes": "1568"
      },
      "t_bool": {
        "encoding": "inplace",
        "label": "bool",
        "numberOfBytes": "1"
      },
      "t_contract(IPool)27664": {
        "encoding": "inplace",
        "label": "contract IPool",
        "numberOfBytes": "20"
      },
      "t_contract(ISyntheticToken)28137": {
        "encoding": "inplace",
        "label": "contract ISyntheticToken",
        "numberOfBytes": "20"
      },
      "t_mapping(t_address,t_uint256)": {
        "encoding": "mapping",
        "key": "t_address",
        "label": "mapping(address => uint256)",
        "numberOfBytes": "32",
        "value": "t_uint256"
      },
      "t_string_storage": {
        "encoding": "bytes",
        "label": "string",
        "numberOfBytes": "32"
      },
      "t_uint256": {
        "encoding": "inplace",
        "label": "uint256",
        "numberOfBytes": "32"
      },
      "t_uint8": {
        "encoding": "inplace",
        "label": "uint8",
        "numberOfBytes": "1"
      }
    }
  }
}