{
  "address": "0xD2a807d8bfd8a8666FA22E2d76acD38BF893F244",
  "abi": [
    {
      "inputs": [],
      "name": "AmountExceedsAllowance",
      "type": "error"
    },
    {
      "inputs": [],
      "name": "AmountIsInvalid",
      "type": "error"
    },
    {
      "inputs": [],
      "name": "AmountIsZero",
      "type": "error"
    },
    {
      "inputs": [],
      "name": "ApproveFromTheZeroAddress",
      "type": "error"
    },
    {
      "inputs": [],
      "name": "ApproveToTheZeroAddress",
      "type": "error"
    },
    {
      "inputs": [],
      "name": "BeneficiaryIsNull",
      "type": "error"
    },
    {
      "inputs": [],
      "name": "BurnAmountExceedsBalance",
      "type": "error"
    },
    {
      "inputs": [],
      "name": "BurnFromTheZeroAddress",
      "type": "error"
    },
    {
      "inputs": [],
      "name": "CollateralFactorTooHigh",
      "type": "error"
    },
    {
      "inputs": [],
      "name": "CollateralIsInexistent",
      "type": "error"
    },
    {
      "inputs": [],
      "name": "DecimalsIsNull",
      "type": "error"
    },
    {
      "inputs": [],
      "name": "DecreasedAllowanceBelowZero",
      "type": "error"
    },
    {
      "inputs": [],
      "name": "DepositTokenIsInactive",
      "type": "error"
    },
    {
      "inputs": [],
      "name": "FallbackIsNotAllowed",
      "type": "error"
    },
    {
      "inputs": [],
      "name": "IsPaused",
      "type": "error"
    },
    {
      "inputs": [],
      "name": "IsShutdown",
      "type": "error"
    },
    {
      "inputs": [],
      "name": "MintToTheZeroAddress",
      "type": "error"
    },
    {
      "inputs": [],
      "name": "NewValueIsSameAsCurrent",
      "type": "error"
    },
    {
      "inputs": [],
      "name": "NotEnoughFreeBalance",
      "type": "error"
    },
    {
      "inputs": [],
      "name": "PoolAddressIsNull",
      "type": "error"
    },
    {
      "inputs": [],
      "name": "PoolIsNull",
      "type": "error"
    },
    {
      "inputs": [],
      "name": "ReceiveIsNotAllowed",
      "type": "error"
    },
    {
      "inputs": [],
      "name": "RecipientIsNull",
      "type": "error"
    },
    {
      "inputs": [],
      "name": "SenderIsNotGovernor",
      "type": "error"
    },
    {
      "inputs": [],
      "name": "SenderIsNotPool",
      "type": "error"
    },
    {
      "inputs": [],
      "name": "SurpassMaxDepositSupply",
      "type": "error"
    },
    {
      "inputs": [],
      "name": "SymbolIsNull",
      "type": "error"
    },
    {
      "inputs": [],
      "name": "TransferAmountExceedsBalance",
      "type": "error"
    },
    {
      "inputs": [],
      "name": "TransferFromTheZeroAddress",
      "type": "error"
    },
    {
      "inputs": [],
      "name": "TransferToTheZeroAddress",
      "type": "error"
    },
    {
      "inputs": [],
      "name": "UnderlyingAssetIsNull",
      "type": "error"
    },
    {
      "anonymous": false,
      "inputs": [
        {
          "indexed": true,
          "internalType": "address",
          "name": "owner",
          "type": "address"
        },
        {
          "indexed": true,
          "internalType": "address",
          "name": "spender",
          "type": "address"
        },
        {
          "indexed": false,
          "internalType": "uint256",
          "name": "value",
          "type": "uint256"
        }
      ],
      "name": "Approval",
      "type": "event"
    },
    {
      "anonymous": false,
      "inputs": [
        {
          "indexed": true,
          "internalType": "address",
          "name": "from",
          "type": "address"
        },
        {
          "indexed": true,
          "internalType": "address",
          "name": "account",
          "type": "address"
        },
        {
          "indexed": false,
          "internalType": "uint256",
          "name": "amount",
          "type": "uint256"
        },
        {
          "indexed": false,
          "internalType": "uint256",
          "name": "deposited",
          "type": "uint256"
        },
        {
          "indexed": false,
          "internalType": "uint256",
          "name": "fee",
          "type": "uint256"
        }
      ],
      "name": "CollateralDeposited",
      "type": "event"
    },
    {
      "anonymous": false,
      "inputs": [
        {
          "indexed": false,
          "internalType": "uint256",
          "name": "oldCollateralFactor",
          "type": "uint256"
        },
        {
          "indexed": false,
          "internalType": "uint256",
          "name": "newCollateralFactor",
          "type": "uint256"
        }
      ],
      "name": "CollateralFactorUpdated",
      "type": "event"
    },
    {
      "anonymous": false,
      "inputs": [
        {
          "indexed": true,
          "internalType": "address",
          "name": "account",
          "type": "address"
        },
        {
          "indexed": true,
          "internalType": "address",
          "name": "to",
          "type": "address"
        },
        {
          "indexed": false,
          "internalType": "uint256",
          "name": "amount",
          "type": "uint256"
        },
        {
          "indexed": false,
          "internalType": "uint256",
          "name": "withdrawn",
          "type": "uint256"
        },
        {
          "indexed": false,
          "internalType": "uint256",
          "name": "fee",
          "type": "uint256"
        }
      ],
      "name": "CollateralWithdrawn",
      "type": "event"
    },
    {
      "anonymous": false,
      "inputs": [
        {
          "indexed": false,
          "internalType": "bool",
          "name": "newActive",
          "type": "bool"
        }
      ],
      "name": "DepositTokenActiveUpdated",
      "type": "event"
    },
    {
      "anonymous": false,
      "inputs": [
        {
          "indexed": false,
          "internalType": "uint256",
          "name": "oldMaxTotalSupply",
          "type": "uint256"
        },
        {
          "indexed": false,
          "internalType": "uint256",
          "name": "newMaxTotalSupply",
          "type": "uint256"
        }
      ],
      "name": "MaxTotalSupplyUpdated",
      "type": "event"
    },
    {
      "anonymous": false,
      "inputs": [
        {
          "indexed": true,
          "internalType": "address",
          "name": "from",
          "type": "address"
        },
        {
          "indexed": true,
          "internalType": "address",
          "name": "to",
          "type": "address"
        },
        {
          "indexed": false,
          "internalType": "uint256",
          "name": "value",
          "type": "uint256"
        }
      ],
      "name": "Transfer",
      "type": "event"
    },
    {
      "stateMutability": "payable",
      "type": "fallback"
    },
    {
      "inputs": [],
      "name": "VERSION",
      "outputs": [
        {
          "internalType": "string",
          "name": "",
          "type": "string"
        }
      ],
      "stateMutability": "view",
      "type": "function"
    },
    {
      "inputs": [
        {
          "internalType": "address",
          "name": "",
          "type": "address"
        },
        {
          "internalType": "address",
          "name": "",
          "type": "address"
        }
      ],
      "name": "allowance",
      "outputs": [
        {
          "internalType": "uint256",
          "name": "",
          "type": "uint256"
        }
      ],
      "stateMutability": "view",
      "type": "function"
    },
    {
      "inputs": [
        {
          "internalType": "address",
          "name": "spender_",
          "type": "address"
        },
        {
          "internalType": "uint256",
          "name": "amount_",
          "type": "uint256"
        }
      ],
      "name": "approve",
      "outputs": [
        {
          "internalType": "bool",
          "name": "",
          "type": "bool"
        }
      ],
      "stateMutability": "nonpayable",
      "type": "function"
    },
    {
      "inputs": [
        {
          "internalType": "address",
          "name": "",
          "type": "address"
        }
      ],
      "name": "balanceOf",
      "outputs": [
        {
          "internalType": "uint256",
          "name": "",
          "type": "uint256"
        }
      ],
      "stateMutability": "view",
      "type": "function"
    },
    {
      "inputs": [],
      "name": "collateralFactor",
      "outputs": [
        {
          "internalType": "uint256",
          "name": "",
          "type": "uint256"
        }
      ],
      "stateMutability": "view",
      "type": "function"
    },
    {
      "inputs": [],
      "name": "decimals",
      "outputs": [
        {
          "internalType": "uint8",
          "name": "",
          "type": "uint8"
        }
      ],
      "stateMutability": "view",
      "type": "function"
    },
    {
      "inputs": [
        {
          "internalType": "address",
          "name": "spender_",
          "type": "address"
        },
        {
          "internalType": "uint256",
          "name": "subtractedValue_",
          "type": "uint256"
        }
      ],
      "name": "decreaseAllowance",
      "outputs": [
        {
          "internalType": "bool",
          "name": "",
          "type": "bool"
        }
      ],
      "stateMutability": "nonpayable",
      "type": "function"
    },
    {
      "inputs": [
        {
          "internalType": "uint256",
          "name": "amount_",
          "type": "uint256"
        },
        {
          "internalType": "address",
          "name": "onBehalfOf_",
          "type": "address"
        }
      ],
      "name": "deposit",
      "outputs": [
        {
          "internalType": "uint256",
          "name": "_deposited",
          "type": "uint256"
        },
        {
          "internalType": "uint256",
          "name": "_fee",
          "type": "uint256"
        }
      ],
      "stateMutability": "nonpayable",
      "type": "function"
    },
    {
      "inputs": [],
      "name": "governor",
      "outputs": [
        {
          "internalType": "address",
          "name": "_governor",
          "type": "address"
        }
      ],
      "stateMutability": "view",
      "type": "function"
    },
    {
      "inputs": [
        {
          "internalType": "address",
          "name": "spender_",
          "type": "address"
        },
        {
          "internalType": "uint256",
          "name": "addedValue_",
          "type": "uint256"
        }
      ],
      "name": "increaseAllowance",
      "outputs": [
        {
          "internalType": "bool",
          "name": "",
          "type": "bool"
        }
      ],
      "stateMutability": "nonpayable",
      "type": "function"
    },
    {
      "inputs": [
        {
          "internalType": "contract IERC20",
          "name": "underlying_",
          "type": "address"
        },
        {
          "internalType": "contract IPool",
          "name": "pool_",
          "type": "address"
        },
        {
          "internalType": "string",
          "name": "name_",
          "type": "string"
        },
        {
          "internalType": "string",
          "name": "symbol_",
          "type": "string"
        },
        {
          "internalType": "uint8",
          "name": "decimals_",
          "type": "uint8"
        },
        {
          "internalType": "uint128",
          "name": "collateralFactor_",
          "type": "uint128"
        },
        {
          "internalType": "uint256",
          "name": "maxTotalSupply_",
          "type": "uint256"
        }
      ],
      "name": "initialize",
      "outputs": [],
      "stateMutability": "nonpayable",
      "type": "function"
    },
    {
      "inputs": [],
      "name": "isActive",
      "outputs": [
        {
          "internalType": "bool",
          "name": "",
          "type": "bool"
        }
      ],
      "stateMutability": "view",
      "type": "function"
    },
    {
      "inputs": [
        {
          "internalType": "address",
          "name": "account_",
          "type": "address"
        }
      ],
      "name": "lockedBalanceOf",
      "outputs": [
        {
          "internalType": "uint256",
          "name": "_lockedBalance",
          "type": "uint256"
        }
      ],
      "stateMutability": "view",
      "type": "function"
    },
    {
      "inputs": [],
      "name": "maxTotalSupply",
      "outputs": [
        {
          "internalType": "uint256",
          "name": "",
          "type": "uint256"
        }
      ],
      "stateMutability": "view",
      "type": "function"
    },
    {
      "inputs": [],
      "name": "name",
      "outputs": [
        {
          "internalType": "string",
          "name": "",
          "type": "string"
        }
      ],
      "stateMutability": "view",
      "type": "function"
    },
    {
      "inputs": [],
      "name": "pool",
      "outputs": [
        {
          "internalType": "contract IPool",
          "name": "",
          "type": "address"
        }
      ],
      "stateMutability": "view",
      "type": "function"
    },
    {
      "inputs": [
        {
          "internalType": "uint256",
          "name": "amountToDeposit_",
          "type": "uint256"
        }
      ],
      "name": "quoteDepositIn",
      "outputs": [
        {
          "internalType": "uint256",
          "name": "_amount",
          "type": "uint256"
        },
        {
          "internalType": "uint256",
          "name": "_fee",
          "type": "uint256"
        }
      ],
      "stateMutability": "view",
      "type": "function"
    },
    {
      "inputs": [
        {
          "internalType": "uint256",
          "name": "amount_",
          "type": "uint256"
        }
      ],
      "name": "quoteDepositOut",
      "outputs": [
        {
          "internalType": "uint256",
          "name": "_amountToDeposit",
          "type": "uint256"
        },
        {
          "internalType": "uint256",
          "name": "_fee",
          "type": "uint256"
        }
      ],
      "stateMutability": "view",
      "type": "function"
    },
    {
      "inputs": [
        {
          "internalType": "uint256",
          "name": "amountToWithdraw_",
          "type": "uint256"
        }
      ],
      "name": "quoteWithdrawIn",
      "outputs": [
        {
          "internalType": "uint256",
          "name": "_amount",
          "type": "uint256"
        },
        {
          "internalType": "uint256",
          "name": "_fee",
          "type": "uint256"
        }
      ],
      "stateMutability": "view",
      "type": "function"
    },
    {
      "inputs": [
        {
          "internalType": "uint256",
          "name": "amount_",
          "type": "uint256"
        }
      ],
      "name": "quoteWithdrawOut",
      "outputs": [
        {
          "internalType": "uint256",
          "name": "_amountToWithdraw",
          "type": "uint256"
        },
        {
          "internalType": "uint256",
          "name": "_fee",
          "type": "uint256"
        }
      ],
      "stateMutability": "view",
      "type": "function"
    },
    {
      "inputs": [
        {
          "internalType": "address",
          "name": "from_",
          "type": "address"
        },
        {
          "internalType": "address",
          "name": "to_",
          "type": "address"
        },
        {
          "internalType": "uint256",
          "name": "amount_",
          "type": "uint256"
        }
      ],
      "name": "seize",
      "outputs": [],
      "stateMutability": "nonpayable",
      "type": "function"
    },
    {
      "inputs": [
        {
          "internalType": "contract IERC20",
          "name": "token_",
          "type": "address"
        },
        {
          "internalType": "address",
          "name": "to_",
          "type": "address"
        },
        {
          "internalType": "uint256",
          "name": "amount_",
          "type": "uint256"
        }
      ],
      "name": "sweep",
      "outputs": [],
      "stateMutability": "nonpayable",
      "type": "function"
    },
    {
      "inputs": [],
      "name": "symbol",
      "outputs": [
        {
          "internalType": "string",
          "name": "",
          "type": "string"
        }
      ],
      "stateMutability": "view",
      "type": "function"
    },
    {
      "inputs": [],
      "name": "toggleIsActive",
      "outputs": [],
      "stateMutability": "nonpayable",
      "type": "function"
    },
    {
      "inputs": [],
      "name": "totalSupply",
      "outputs": [
        {
          "internalType": "uint256",
          "name": "",
          "type": "uint256"
        }
      ],
      "stateMutability": "view",
      "type": "function"
    },
    {
      "inputs": [
        {
          "internalType": "address",
          "name": "to_",
          "type": "address"
        },
        {
          "internalType": "uint256",
          "name": "amount_",
          "type": "uint256"
        }
      ],
      "name": "transfer",
      "outputs": [
        {
          "internalType": "bool",
          "name": "",
          "type": "bool"
        }
      ],
      "stateMutability": "nonpayable",
      "type": "function"
    },
    {
      "inputs": [
        {
          "internalType": "address",
          "name": "sender_",
          "type": "address"
        },
        {
          "internalType": "address",
          "name": "recipient_",
          "type": "address"
        },
        {
          "internalType": "uint256",
          "name": "amount_",
          "type": "uint256"
        }
      ],
      "name": "transferFrom",
      "outputs": [
        {
          "internalType": "bool",
          "name": "",
          "type": "bool"
        }
      ],
      "stateMutability": "nonpayable",
      "type": "function"
    },
    {
      "inputs": [],
      "name": "underlying",
      "outputs": [
        {
          "internalType": "contract IERC20",
          "name": "",
          "type": "address"
        }
      ],
      "stateMutability": "view",
      "type": "function"
    },
    {
      "inputs": [
        {
          "internalType": "address",
          "name": "account_",
          "type": "address"
        }
      ],
      "name": "unlockedBalanceOf",
      "outputs": [
        {
          "internalType": "uint256",
          "name": "_unlockedBalance",
          "type": "uint256"
        }
      ],
      "stateMutability": "view",
      "type": "function"
    },
    {
      "inputs": [
        {
          "internalType": "uint128",
          "name": "newCollateralFactor_",
          "type": "uint128"
        }
      ],
      "name": "updateCollateralFactor",
      "outputs": [],
      "stateMutability": "nonpayable",
      "type": "function"
    },
    {
      "inputs": [
        {
          "internalType": "uint256",
          "name": "newMaxTotalSupply_",
          "type": "uint256"
        }
      ],
      "name": "updateMaxTotalSupply",
      "outputs": [],
      "stateMutability": "nonpayable",
      "type": "function"
    },
    {
      "inputs": [
        {
          "internalType": "uint256",
          "name": "amount_",
          "type": "uint256"
        },
        {
          "internalType": "address",
          "name": "to_",
          "type": "address"
        }
      ],
      "name": "withdraw",
      "outputs": [
        {
          "internalType": "uint256",
          "name": "_withdrawn",
          "type": "uint256"
        },
        {
          "internalType": "uint256",
          "name": "_fee",
          "type": "uint256"
        }
      ],
      "stateMutability": "nonpayable",
      "type": "function"
    },
    {
      "stateMutability": "payable",
      "type": "receive"
    }
  ],
  "transactionHash": "0x2ff047cb125920ea9d53279b3f69711fa41339038b294ae07c8038eb8aa791e9",
  "args": [],
  "numDeployments": 1,
  "solcInputHash": "90a16760c1e9eb3a1fb6ca594389bd73",
  "bytecode": "0x608060405234801561001057600080fd5b50612e05806100206000396000f3fe6080604052600436106101e65760003560e01c80636f307dc311610102578063a9059cbb11610095578063dd62ed3e11610064578063dd62ed3e146105dd578063df011c4114610615578063ffa1ad741461062b578063ffc0e17e1461065c57610204565b8063a9059cbb14610568578063b2a02ff114610588578063d2593329146105a8578063d538a303146105bd57610204565b8063857adc46116100d1578063857adc46146104f357806385f1b90a1461051357806395d89b4114610533578063a457c2d71461054857610204565b80636f307dc31461046657806370a082311461048657806382dbc795146104b357806384955c88146104d357610204565b806323b872dd1161017a578063542778801161014957806354277880146103e6578063593557361461040657806362c06767146104265780636e553f651461044657610204565b806323b872dd1461035d5780632ab4d0521461037d578063313ce5671461039357806339509351146103c657610204565b806316f0115b116101b657806316f0115b146102d6578063172f50a4146102f657806318160ddd1461031857806322f3e2d41461033c57610204565b8062f714ce1461021d57806306fdde0314610257578063095ea7b3146102795780630c340a24146102a957610204565b3661020457604051636436c22d60e11b815260040160405180910390fd5b60405163a0152e6360e01b815260040160405180910390fd5b34801561022957600080fd5b5061023d610238366004612808565b61067c565b604080519283526020830191909152015b60405180910390f35b34801561026357600080fd5b5061026c610a1b565b60405161024e9190612864565b34801561028557600080fd5b50610299610294366004612897565b610aa9565b604051901515815260200161024e565b3480156102b557600080fd5b506102be610ac0565b6040516001600160a01b03909116815260200161024e565b3480156102e257600080fd5b506002546102be906001600160a01b031681565b34801561030257600080fd5b506103166103113660046128c3565b610b42565b005b34801561032457600080fd5b5061032e60385481565b60405190815260200161024e565b34801561034857600080fd5b50603b5461029990600160a01b900460ff1681565b34801561036957600080fd5b506102996103783660046128dc565b610bde565b34801561038957600080fd5b5061032e60395481565b34801561039f57600080fd5b50603b546103b490600160a81b900460ff1681565b60405160ff909116815260200161024e565b3480156103d257600080fd5b506102996103e1366004612897565b610ca9565b3480156103f257600080fd5b5061023d6104013660046128c3565b610ce5565b34801561041257600080fd5b5061032e61042136600461291d565b610d9c565b34801561043257600080fd5b506103166104413660046128dc565b610dca565b34801561045257600080fd5b5061023d610461366004612808565b610e03565b34801561047257600080fd5b50603b546102be906001600160a01b031681565b34801561049257600080fd5b5061032e6104a136600461291d565b60346020526000908152604090205481565b3480156104bf57600080fd5b506103166104ce366004612956565b611277565b3480156104df57600080fd5b5061032e6104ee36600461291d565b61135f565b3480156104ff57600080fd5b5061023d61050e3660046128c3565b61153a565b34801561051f57600080fd5b5061023d61052e3660046128c3565b611603565b34801561053f57600080fd5b5061026c611656565b34801561055457600080fd5b50610299610563366004612897565b611663565b34801561057457600080fd5b50610299610583366004612897565b6116bf565b34801561059457600080fd5b506103166105a33660046128dc565b611702565b3480156105b457600080fd5b50610316611738565b3480156105c957600080fd5b5061023d6105d83660046128c3565b6117d2565b3480156105e957600080fd5b5061032e6105f8366004612971565b603560209081526000928352604080842090915290825290205481565b34801561062157600080fd5b5061032e603a5481565b34801561063757600080fd5b5061026c604051806040016040528060058152602001640312e302e360dc1b81525081565b34801561066857600080fd5b506103166106773660046129e8565b611825565b600080600260009054906101000a90046001600160a01b03166001600160a01b031663ecf3a3f96040518163ffffffff1660e01b815260040160206040518083038186803b1580156106cd57600080fd5b505afa1580156106e1573d6000803e3d6000fd5b505050506040513d601f19601f820116820180604052508101906107059190612abe565b1561072357604051631b0e923f60e11b815260040160405180910390fd5b6002600154141561074f5760405162461bcd60e51b815260040161074690612ad9565b60405180910390fd5b6002600181905554604051633e25dee160e21b81523060048201526001600160a01b039091169063f8977b849060240160206040518083038186803b15801561079757600080fd5b505afa1580156107ab573d6000803e3d6000fd5b505050506040513d601f19601f820116820180604052508101906107cf9190612abe565b6107ec57604051630620bddd60e21b815260040160405180910390fd5b6001600160a01b03831661081357604051634c96446b60e01b815260040160405180910390fd5b83158061082757506108243361135f565b84115b1561084557604051635cddce7960e01b815260040160405180910390fd5b6002546001600160a01b031661085a856117d2565b909350915081156108e0576108e033826001600160a01b031663c415b95c6040518163ffffffff1660e01b815260040160206040518083038186803b1580156108a257600080fd5b505afa1580156108b6573d6000803e3d6000fd5b505050506040513d601f19601f820116820180604052508101906108da9190612b10565b846119ce565b6108ea3384611c0a565b806001600160a01b03166361d027b36040518163ffffffff1660e01b815260040160206040518083038186803b15801561092357600080fd5b505afa158015610937573d6000803e3d6000fd5b505050506040513d601f19601f8201168201806040525081019061095b9190612b10565b60405163f2d5d56b60e01b81526001600160a01b03868116600483015260248201869052919091169063f2d5d56b90604401600060405180830381600087803b1580156109a757600080fd5b505af11580156109bb573d6000803e3d6000fd5b505060408051888152602081018790529081018590526001600160a01b03871692503391507f900e8de8e8718a6bde86415bf9b8c70e1a4f744314eaef5c60b0705a271035d69060600160405180910390a3506001805590939092509050565b60368054610a2890612b2d565b80601f0160208091040260200160405190810160405280929190818152602001828054610a5490612b2d565b8015610aa15780601f10610a7657610100808354040283529160200191610aa1565b820191906000526020600020905b815481529060010190602001808311610a8457829003601f168201915b505050505081565b6000610ab6338484611e09565b5060015b92915050565b6002546040805163030d028960e21b815290516000926001600160a01b031691630c340a24916004808301926020929190829003018186803b158015610b0557600080fd5b505afa158015610b19573d6000803e3d6000fd5b505050506040513d601f19601f82011682018060405250810190610b3d9190612b10565b905090565b610b4a610ac0565b6001600160a01b0316336001600160a01b031614610b7b57604051634b98449160e11b815260040160405180910390fd5b60395481811415610b9f57604051630333a68160e41b815260040160405180910390fd5b60408051828152602081018490527fc58cd6132bb46df23d468939c03dd023b74b509aaa6b04c39d5a6461c65963bd910160405180910390a150603955565b600060026001541415610c035760405162461bcd60e51b815260040161074690612ad9565b6002600155838280610c148361135f565b1015610c3357604051631af903f160e11b815260040160405180910390fd5b610c3e8686866119ce565b6001600160a01b03861660009081526035602090815260408083203384529091529020546000198114610c995784811015610c8c576040516303814af160e61b815260040160405180910390fd5b610c998733878403611e09565b5050600180805595945050505050565b3360008181526035602090815260408083206001600160a01b03871684529091528120549091610ab6918590610ce0908690612b7e565b611e09565b6000806000600260009054906101000a90046001600160a01b03166001600160a01b03166367a527936040518163ffffffff1660e01b815260040160206040518083038186803b158015610d3857600080fd5b505afa158015610d4c573d6000803e3d6000fd5b505050506040513d601f19601f82011682018060405250810190610d709190612b96565b905080610d7e575091929050565b610d888482611eb8565b9150610d948285612baf565b925050915091565b6000610da78261135f565b6001600160a01b0390921660009081526034602052604090205491909103919050565b610dd2611f0b565b6001600160a01b038316610def57610dea8282611f46565b505050565b610dea6001600160a01b038416838361205f565b600080600260009054906101000a90046001600160a01b03166001600160a01b0316635c975abb6040518163ffffffff1660e01b815260040160206040518083038186803b158015610e5457600080fd5b505afa158015610e68573d6000803e3d6000fd5b505050506040513d601f19601f82011682018060405250810190610e8c9190612abe565b15610eaa57604051631309a56360e01b815260040160405180910390fd5b60026001541415610ecd5760405162461bcd60e51b815260040161074690612ad9565b6002600155603b54600160a01b900460ff16610efc57604051631b9245b960e11b815260040160405180910390fd5b600254604051633e25dee160e21b81523060048201526001600160a01b039091169063f8977b849060240160206040518083038186803b158015610f3f57600080fd5b505afa158015610f53573d6000803e3d6000fd5b505050506040513d601f19601f82011682018060405250810190610f779190612abe565b610f9457604051630620bddd60e21b815260040160405180910390fd5b83610fb2576040516310eb483f60e21b815260040160405180910390fd5b6001600160a01b038316610fd95760405163639c77e360e01b815260040160405180910390fd5b600254603b54604080516361d027b360e01b815290516001600160a01b03938416939092169160009184916361d027b391600480820192602092909190829003018186803b15801561102a57600080fd5b505afa15801561103e573d6000803e3d6000fd5b505050506040513d601f19601f820116820180604052508101906110629190612b10565b6040516370a0823160e01b81526001600160a01b0380831660048301529192506000918416906370a082319060240160206040518083038186803b1580156110a957600080fd5b505afa1580156110bd573d6000803e3d6000fd5b505050506040513d601f19601f820116820180604052508101906110e19190612b96565b90506110f86001600160a01b03841633848b6120c2565b6040516370a0823160e01b81526001600160a01b0383811660048301528291908516906370a082319060240160206040518083038186803b15801561113c57600080fd5b505afa158015611150573d6000803e3d6000fd5b505050506040513d601f19601f820116820180604052508101906111749190612b96565b61117e9190612baf565b975061118988610ce5565b9096509450841561120e5761120e846001600160a01b031663c415b95c6040518163ffffffff1660e01b815260040160206040518083038186803b1580156111d057600080fd5b505afa1580156111e4573d6000803e3d6000fd5b505050506040513d601f19601f820116820180604052508101906112089190612b10565b86612100565b6112188787612100565b60408051898152602081018890529081018690526001600160a01b0388169033907f7e387d4929067a5275d9dee7be89865d22cdc9d73f817ad152814a729ba6755e9060600160405180910390a3505060018055509194909350915050565b61127f610ac0565b6001600160a01b0316336001600160a01b0316146112b057604051634b98449160e11b815260040160405180910390fd5b670de0b6b3a7640000816001600160801b031611156112e257604051639479a57160e01b815260040160405180910390fd5b603a546001600160801b03821681141561130f57604051630333a68160e41b815260040160405180910390fd5b604080518281526001600160801b03841660208201527f3b24ab397256b6bca0533c0889430820655a41fa639e1868bcc25404634d6024910160405180910390a1506001600160801b0316603a55565b60025460405163dde3ab9560e01b81526001600160a01b03838116600483015260009216908290829063dde3ab959060240160a06040518083038186803b1580156113a957600080fd5b505afa1580156113bd573d6000803e3d6000fd5b505050506040513d601f19601f820116820180604052508101906113e19190612bc6565b94505050505060008111156115335761153060346000866001600160a01b03166001600160a01b0316815260200190815260200160002054836001600160a01b031663eaada3826040518163ffffffff1660e01b815260040160206040518083038186803b15801561145257600080fd5b505afa158015611466573d6000803e3d6000fd5b505050506040513d601f19601f8201168201806040525081019061148a9190612b10565b603b54603a546001600160a01b039283169263b5e9bef59216906114af908790612323565b6040516001600160e01b031960e085901b1681526001600160a01b039092166004830152602482015260440160206040518083038186803b1580156114f357600080fd5b505afa158015611507573d6000803e3d6000fd5b505050506040513d601f19601f8201168201806040525081019061152b9190612b96565b612343565b92505b5050919050565b6000806000600260009054906101000a90046001600160a01b03166001600160a01b03166367a527936040518163ffffffff1660e01b815260040160206040518083038186803b15801561158d57600080fd5b505afa1580156115a1573d6000803e3d6000fd5b505050506040513d601f19601f820116820180604052508101906115c59190612b96565b9050806115d3575091929050565b6115ef6115e882670de0b6b3a7640000612baf565b8590612323565b92506115fb8484612baf565b915050915091565b6000806000600260009054906101000a90046001600160a01b03166001600160a01b031663e941fa786040518163ffffffff1660e01b815260040160206040518083038186803b15801561158d57600080fd5b60378054610a2890612b2d565b3360009081526035602090815260408083206001600160a01b0386168452909152812054828110156116a85760405163189dd6af60e31b815260040160405180910390fd5b6116b53385858403611e09565b5060019392505050565b60003382806116cd8361135f565b10156116ec57604051631af903f160e11b815260040160405180910390fd5b6116f73386866119ce565b506001949350505050565b6002546001600160a01b0316331461172d5760405163531f2aa960e11b815260040160405180910390fd5b610dea8383836119ce565b611740610ac0565b6001600160a01b0316336001600160a01b03161461177157604051634b98449160e11b815260040160405180910390fd5b603b54604051600160a01b90910460ff1615808252907fb2f86f872205a47e0890262c11c93dba2270b3f079ada3dbe9cb6f755f4ddc9f9060200160405180910390a1603b8054911515600160a01b0260ff60a01b19909216919091179055565b6000806000600260009054906101000a90046001600160a01b03166001600160a01b031663e941fa786040518163ffffffff1660e01b815260040160206040518083038186803b158015610d3857600080fd5b600054610100900460ff168061183e575060005460ff16155b61185a5760405162461bcd60e51b815260040161074690612c0d565b600054610100900460ff1615801561187c576000805461ffff19166101011790555b6001600160a01b038a166118a357604051630d63ca0f60e41b815260040160405180910390fd5b6001600160a01b0389166118ca57604051633cb1fb1f60e11b815260040160405180910390fd5b846118e8576040516330507cff60e11b815260040160405180910390fd5b60ff841661190957604051634dc4784160e11b815260040160405180910390fd5b670de0b6b3a7640000836001600160801b0316111561193b57604051639479a57160e01b815260040160405180910390fd5b611943612359565b61194c896123c9565b6119586036898961275a565b506119656037878761275a565b50603b805460ff8616600160a81b0260ff60a81b196001600160a81b03199092166001600160a01b038e1617600160a01b17919091161790556001600160801b038316603a55603982905580156119c2576000805461ff00191690555b50505050505050505050565b82826000600260009054906101000a90046001600160a01b03166001600160a01b0316633605b51b6040518163ffffffff1660e01b815260040160006040518083038186803b158015611a2057600080fd5b505afa158015611a34573d6000803e3d6000fd5b505050506040513d6000823e601f3d908101601f19168201604052611a5c9190810190612c7c565b805190915060005b81811015611b0457828181518110611a7e57611a7e612d41565b602090810291909101015160405163058bd91d60e51b81523060048201526001600160a01b03878116602483015286811660448301529091169063b17b23a090606401600060405180830381600087803b158015611adb57600080fd5b505af1158015611aef573d6000803e3d6000fd5b5050505080611afd90612d57565b9050611a64565b506001600160a01b038716611b2c57604051630240531760e41b815260040160405180910390fd5b6001600160a01b038616611b535760405163671d1add60e11b815260040160405180910390fd5b6001600160a01b03871660009081526034602052604090205485811015611b8d57604051635dd58b8b60e01b815260040160405180910390fd5b6001600160a01b03878116600081815260346020908152604080832080548c8101909155948d16808452928190208b87039081905590518b8152909392917fddf252ad1be2c89b69c2b068fc378daa952ba7f163c4a11628f55a4df523b3ef910160405180910390a3611c008983612478565b6119c28a826124d9565b816000600260009054906101000a90046001600160a01b03166001600160a01b0316633605b51b6040518163ffffffff1660e01b815260040160006040518083038186803b158015611c5b57600080fd5b505afa158015611c6f573d6000803e3d6000fd5b505050506040513d6000823e601f3d908101601f19168201604052611c979190810190612c7c565b805190915060005b81811015611d3657828181518110611cb957611cb9612d41565b6020908102919091010151604051626cc3c360e61b81523060048201526001600160a01b03868116602483015290911690631b30f0c090604401600060405180830381600087803b158015611d0d57600080fd5b505af1158015611d21573d6000803e3d6000fd5b5050505080611d2f90612d57565b9050611c9f565b506001600160a01b038516611d5e576040516304fca6bd60e41b815260040160405180910390fd5b6001600160a01b03851660009081526034602052604090205484811015611d9857604051630bba337f60e11b815260040160405180910390fd5b6038805486900390556001600160a01b03861660008181526034602090815260408083208986039081905590518981529093917fddf252ad1be2c89b69c2b068fc378daa952ba7f163c4a11628f55a4df523b3ef910160405180910390a3611e0087826124d9565b50505050505050565b6001600160a01b038316611e30576040516356fdae6560e11b815260040160405180910390fd5b6001600160a01b038216611e575760405163b2fa1ef360e01b815260040160405180910390fd5b6001600160a01b0383811660008181526035602090815260408083209487168084529482529182902085905590518481527f8c5be1e5ebec7d5bd14f71427d1e84f3dd0314c0f7b2291e5b200ac8c7c3b925910160405180910390a3505050565b6000821580611ec5575081155b15611ed257506000610aba565b670de0b6b3a7640000611ee6600282612d72565b611ef08486612d94565b611efa9190612b7e565b611f049190612d72565b9392505050565b611f13610ac0565b6001600160a01b0316336001600160a01b031614611f4457604051634b98449160e11b815260040160405180910390fd5b565b80471015611f965760405162461bcd60e51b815260206004820152601d60248201527f416464726573733a20696e73756666696369656e742062616c616e63650000006044820152606401610746565b6000826001600160a01b03168260405160006040518083038185875af1925050503d8060008114611fe3576040519150601f19603f3d011682016040523d82523d6000602084013e611fe8565b606091505b5050905080610dea5760405162461bcd60e51b815260206004820152603a60248201527f416464726573733a20756e61626c6520746f2073656e642076616c75652c207260448201527f6563697069656e74206d617920686176652072657665727465640000000000006064820152608401610746565b6040516001600160a01b038316602482015260448101829052610dea90849063a9059cbb60e01b906064015b60408051601f198184030181529190526020810180516001600160e01b03166001600160e01b031990931692909217909152612510565b6040516001600160a01b03808516602483015283166044820152606481018290526120fa9085906323b872dd60e01b9060840161208b565b50505050565b603b54600160a01b900460ff1661212a57604051631b9245b960e11b815260040160405180910390fd5b816000600260009054906101000a90046001600160a01b03166001600160a01b0316633605b51b6040518163ffffffff1660e01b815260040160006040518083038186803b15801561217b57600080fd5b505afa15801561218f573d6000803e3d6000fd5b505050506040513d6000823e601f3d908101601f191682016040526121b79190810190612c7c565b805190915060005b81811015612256578281815181106121d9576121d9612d41565b6020908102919091010151604051626cc3c360e61b81523060048201526001600160a01b03868116602483015290911690631b30f0c090604401600060405180830381600087803b15801561222d57600080fd5b505af1158015612241573d6000803e3d6000fd5b505050508061224f90612d57565b90506121bf565b506001600160a01b03851661227e5760405163c96c2a0b60e01b815260040160405180910390fd5b83603860008282546122909190612b7e565b909155505060395460385411156122ba57604051639cad93a160e01b815260040160405180910390fd5b6001600160a01b038516600081815260346020908152604080832080548981019091559051888152909392917fddf252ad1be2c89b69c2b068fc378daa952ba7f163c4a11628f55a4df523b3ef910160405180910390a361231b8682612478565b505050505050565b600081612331600282612d72565b611ef0670de0b6b3a764000086612d94565b60008183106123525781611f04565b5090919050565b600054610100900460ff1680612372575060005460ff16155b61238e5760405162461bcd60e51b815260040161074690612c0d565b600054610100900460ff161580156123b0576000805461ffff19166101011790555b6001805580156123c6576000805461ff00191690555b50565b600054610100900460ff16806123e2575060005460ff16155b6123fe5760405162461bcd60e51b815260040161074690612c0d565b600054610100900460ff16158015612420576000805461ffff19166101011790555b6001600160a01b0382166124475760405163724f500960e01b815260040160405180910390fd5b600280546001600160a01b0319166001600160a01b0384161790558015612474576000805461ff00191690555b5050565b8061247457600254604051633f5fc13160e01b81526001600160a01b03848116600483015290911690633f5fc131906024015b600060405180830381600087803b1580156124c557600080fd5b505af115801561231b573d6000803e3d6000fd5b8061247457600254604051630275038d60e41b81526001600160a01b0384811660048301529091169063275038d0906024016124ab565b6000612565826040518060400160405280602081526020017f5361666545524332303a206c6f772d6c6576656c2063616c6c206661696c6564815250856001600160a01b03166125e29092919063ffffffff16565b805190915015610dea57808060200190518101906125839190612abe565b610dea5760405162461bcd60e51b815260206004820152602a60248201527f5361666545524332303a204552433230206f7065726174696f6e20646964206e6044820152691bdd081cdd58d8d9595960b21b6064820152608401610746565b60606125f184846000856125f9565b949350505050565b60608247101561265a5760405162461bcd60e51b815260206004820152602660248201527f416464726573733a20696e73756666696369656e742062616c616e636520666f6044820152651c8818d85b1b60d21b6064820152608401610746565b843b6126a85760405162461bcd60e51b815260206004820152601d60248201527f416464726573733a2063616c6c20746f206e6f6e2d636f6e74726163740000006044820152606401610746565b600080866001600160a01b031685876040516126c49190612db3565b60006040518083038185875af1925050503d8060008114612701576040519150601f19603f3d011682016040523d82523d6000602084013e612706565b606091505b5091509150612716828286612721565b979650505050505050565b60608315612730575081611f04565b8251156127405782518084602001fd5b8160405162461bcd60e51b81526004016107469190612864565b82805461276690612b2d565b90600052602060002090601f01602090048101928261278857600085556127ce565b82601f106127a15782800160ff198235161785556127ce565b828001600101855582156127ce579182015b828111156127ce5782358255916020019190600101906127b3565b506127da9291506127de565b5090565b5b808211156127da57600081556001016127df565b6001600160a01b03811681146123c657600080fd5b6000806040838503121561281b57600080fd5b82359150602083013561282d816127f3565b809150509250929050565b60005b8381101561285357818101518382015260200161283b565b838111156120fa5750506000910152565b6020815260008251806020840152612883816040850160208701612838565b601f01601f19169190910160400192915050565b600080604083850312156128aa57600080fd5b82356128b5816127f3565b946020939093013593505050565b6000602082840312156128d557600080fd5b5035919050565b6000806000606084860312156128f157600080fd5b83356128fc816127f3565b9250602084013561290c816127f3565b929592945050506040919091013590565b60006020828403121561292f57600080fd5b8135611f04816127f3565b80356001600160801b038116811461295157600080fd5b919050565b60006020828403121561296857600080fd5b611f048261293a565b6000806040838503121561298457600080fd5b823561298f816127f3565b9150602083013561282d816127f3565b60008083601f8401126129b157600080fd5b50813567ffffffffffffffff8111156129c957600080fd5b6020830191508360208285010111156129e157600080fd5b9250929050565b600080600080600080600080600060e08a8c031215612a0657600080fd5b8935612a11816127f3565b985060208a0135612a21816127f3565b975060408a013567ffffffffffffffff80821115612a3e57600080fd5b612a4a8d838e0161299f565b909950975060608c0135915080821115612a6357600080fd5b50612a708c828d0161299f565b90965094505060808a013560ff81168114612a8a57600080fd5b9250612a9860a08b0161293a565b915060c08a013590509295985092959850929598565b8051801515811461295157600080fd5b600060208284031215612ad057600080fd5b611f0482612aae565b6020808252601f908201527f5265656e7472616e637947756172643a207265656e7472616e742063616c6c00604082015260600190565b600060208284031215612b2257600080fd5b8151611f04816127f3565b600181811c90821680612b4157607f821691505b60208210811415612b6257634e487b7160e01b600052602260045260246000fd5b50919050565b634e487b7160e01b600052601160045260246000fd5b60008219821115612b9157612b91612b68565b500190565b600060208284031215612ba857600080fd5b5051919050565b600082821015612bc157612bc1612b68565b500390565b600080600080600060a08688031215612bde57600080fd5b612be786612aae565b602087015160408801516060890151608090990151929a91995097965090945092505050565b6020808252602e908201527f496e697469616c697a61626c653a20636f6e747261637420697320616c72656160408201526d191e481a5b9a5d1a585b1a5e995960921b606082015260800190565b634e487b7160e01b600052604160045260246000fd5b8051612951816127f3565b60006020808385031215612c8f57600080fd5b825167ffffffffffffffff80821115612ca757600080fd5b818501915085601f830112612cbb57600080fd5b815181811115612ccd57612ccd612c5b565b8060051b604051601f19603f83011681018181108582111715612cf257612cf2612c5b565b604052918252848201925083810185019188831115612d1057600080fd5b938501935b82851015612d3557612d2685612c71565b84529385019392850192612d15565b98975050505050505050565b634e487b7160e01b600052603260045260246000fd5b6000600019821415612d6b57612d6b612b68565b5060010190565b600082612d8f57634e487b7160e01b600052601260045260246000fd5b500490565b6000816000190483118215151615612dae57612dae612b68565b500290565b60008251612dc5818460208701612838565b919091019291505056fea26469706673582212204e31a82fb13755207edccc9de7779629da719f6a15c35a1f5330b98e312a8d2564736f6c63430008090033",
  "devdoc": {
    "kind": "dev",
    "methods": {
      "deposit(uint256,address)": {
        "params": {
          "amount_": "The amount of collateral tokens to deposit",
          "onBehalfOf_": "The account to deposit to"
        },
        "returns": {
          "_deposited": "The amount deposited after fees"
        }
      },
      "governor()": {
        "returns": {
          "_governor": "The governor"
        }
      },
      "lockedBalanceOf(address)": {
        "params": {
          "account_": "The account to check"
        },
        "returns": {
          "_lockedBalance": "The locked amount"
        }
      },
      "quoteDepositIn(uint256)": {
        "params": {
          "amountToDeposit_": "Collateral to deposit"
        },
        "returns": {
          "_amount": "Gross amount",
          "_fee": "Fee amount to collect"
        }
      },
      "quoteDepositOut(uint256)": {
        "params": {
          "amount_": "Gross amount"
        },
        "returns": {
          "_amountToDeposit": "Collateral to deposit",
          "_fee": "Fee amount to collect"
        }
      },
      "quoteWithdrawIn(uint256)": {
        "params": {
          "amountToWithdraw_": "Collateral to withdraw"
        },
        "returns": {
          "_amount": "Gross amount",
          "_fee": "Fee amount to collect"
        }
      },
      "quoteWithdrawOut(uint256)": {
        "params": {
          "amount_": "Gross amount"
        },
        "returns": {
          "_amountToWithdraw": "Collateral to withdraw",
          "_fee": "Fee amount to collect"
        }
      },
      "seize(address,address,uint256)": {
        "details": "Same as _transfer",
        "params": {
          "amount_": "The amount to seize",
          "from_": "The account to seize from",
          "to_": "The beneficiary account"
        }
      },
      "sweep(address,address,uint256)": {
        "params": {
          "amount_": "The amount to send",
          "to_": "The recipient of the transfer",
          "token_": "The token to transfer"
        }
      },
      "transfer(address,uint256)": {
        "details": "Moves `amount` tokens from the caller's account to `recipient`. Returns a boolean value indicating whether the operation succeeded. Emits a {Transfer} event."
      },
      "transferFrom(address,address,uint256)": {
        "details": "Moves `amount` tokens from `sender` to `recipient` using the allowance mechanism. `amount` is then deducted from the caller's allowance. Returns a boolean value indicating whether the operation succeeded. Emits a {Transfer} event."
      },
      "unlockedBalanceOf(address)": {
        "params": {
          "account_": "The account to check"
        },
        "returns": {
          "_unlockedBalance": "The amount that user can transfer or withdraw"
        }
      },
      "updateCollateralFactor(uint128)": {
        "params": {
          "newCollateralFactor_": "The new CF value"
        }
      },
      "updateMaxTotalSupply(uint256)": {
        "params": {
          "newMaxTotalSupply_": "The new max total supply"
        }
      },
      "withdraw(uint256,address)": {
        "params": {
          "amount_": "The amount of collateral to withdraw",
          "to_": "The account that will receive withdrawn collateral"
        },
        "returns": {
          "_withdrawn": "The amount withdrawn after fees"
        }
      }
    },
    "title": "Represents the users' deposits",
    "version": 1
  },
  "userdoc": {
    "events": {
      "CollateralDeposited(address,address,uint256,uint256,uint256)": {
        "notice": "Emitted when collateral is deposited"
      },
      "CollateralFactorUpdated(uint256,uint256)": {
        "notice": "Emitted when CF is updated"
      },
      "CollateralWithdrawn(address,address,uint256,uint256,uint256)": {
        "notice": "Emitted when collateral is withdrawn"
      },
      "DepositTokenActiveUpdated(bool)": {
        "notice": "Emitted when active flag is updated"
      },
      "MaxTotalSupplyUpdated(uint256,uint256)": {
        "notice": "Emitted when max total supply is updated"
      }
    },
    "kind": "user",
    "methods": {
      "approve(address,uint256)": {
        "notice": "Set `amount` as the allowance of `spender` over the caller's tokens"
      },
      "collateralFactor()": {
        "notice": "Collateral factor for the deposit token"
      },
      "decimals()": {
        "notice": "The decimals of the token"
      },
      "decreaseAllowance(address,uint256)": {
        "notice": "Atomically decrease the allowance granted to `spender` by the caller"
      },
      "deposit(uint256,address)": {
        "notice": "Deposit collateral and mint msdTOKEN (tokenized deposit position)"
      },
      "governor()": {
        "notice": "Get the governor"
      },
      "increaseAllowance(address,uint256)": {
        "notice": "Atomically increase the allowance granted to `spender` by the caller"
      },
      "isActive()": {
        "notice": "If a collateral isn't active, it disables minting new tokens"
      },
      "lockedBalanceOf(address)": {
        "notice": "Get the locked balance"
      },
      "maxTotalSupply()": {
        "notice": "The supply cap (in USD)"
      },
      "name()": {
        "notice": "The name of the token"
      },
      "pool()": {
        "notice": "Pool contract"
      },
      "quoteDepositIn(uint256)": {
        "notice": "Quote gross `_amount` to deposit `amountToDeposit_` collateral"
      },
      "quoteDepositOut(uint256)": {
        "notice": "Quote collateral `_amountToDeposit` by using gross `amount_`"
      },
      "quoteWithdrawIn(uint256)": {
        "notice": "Quote gross `_amount` to withdraw `amountToWithdraw_` collateral"
      },
      "quoteWithdrawOut(uint256)": {
        "notice": "Quote collateral `_amountToWithdraw` by using gross `_amount`"
      },
      "seize(address,address,uint256)": {
        "notice": "Seize tokens"
      },
      "sweep(address,address,uint256)": {
        "notice": "ERC20 recovery in case of stuck tokens due direct transfers to the contract address."
      },
      "symbol()": {
        "notice": "The symbol of the token"
      },
      "toggleIsActive()": {
        "notice": "Enable/Disable the Deposit Token"
      },
      "underlying()": {
        "notice": "Deposit underlying asset (e.g. MET)"
      },
      "unlockedBalanceOf(address)": {
        "notice": "Get the unlocked balance (i.e. transferable, withdrawable)"
      },
      "updateCollateralFactor(uint128)": {
        "notice": "Update collateral factor"
      },
      "updateMaxTotalSupply(uint256)": {
        "notice": "Update max total supply"
      },
      "withdraw(uint256,address)": {
        "notice": "Burn msdTOKEN and withdraw collateral"
      }
    },
    "version": 1
  },
  "storageLayout": {
    "storage": [
      {
        "astId": 7824,
        "contract": "contracts/DepositToken.sol:DepositToken",
        "label": "_initialized",
        "offset": 0,
        "slot": "0",
        "type": "t_bool"
      },
      {
        "astId": 7827,
        "contract": "contracts/DepositToken.sol:DepositToken",
        "label": "_initializing",
        "offset": 1,
        "slot": "0",
        "type": "t_bool"
      },
      {
        "astId": 7878,
        "contract": "contracts/DepositToken.sol:DepositToken",
        "label": "_status",
        "offset": 0,
        "slot": "1",
        "type": "t_uint256"
      },
      {
        "astId": 7707,
        "contract": "contracts/DepositToken.sol:DepositToken",
        "label": "pool",
        "offset": 0,
        "slot": "2",
        "type": "t_contract(IPool)10334"
      },
      {
        "astId": 7817,
        "contract": "contracts/DepositToken.sol:DepositToken",
        "label": "__gap",
        "offset": 0,
        "slot": "3",
        "type": "t_array(t_uint256)49_storage"
      },
      {
        "astId": 11909,
        "contract": "contracts/DepositToken.sol:DepositToken",
        "label": "balanceOf",
        "offset": 0,
        "slot": "52",
        "type": "t_mapping(t_address,t_uint256)"
      },
      {
        "astId": 11917,
        "contract": "contracts/DepositToken.sol:DepositToken",
        "label": "allowance",
        "offset": 0,
        "slot": "53",
        "type": "t_mapping(t_address,t_mapping(t_address,t_uint256))"
      },
      {
        "astId": 11921,
        "contract": "contracts/DepositToken.sol:DepositToken",
        "label": "name",
        "offset": 0,
        "slot": "54",
        "type": "t_string_storage"
      },
      {
        "astId": 11925,
        "contract": "contracts/DepositToken.sol:DepositToken",
        "label": "symbol",
        "offset": 0,
        "slot": "55",
        "type": "t_string_storage"
      },
      {
        "astId": 11929,
        "contract": "contracts/DepositToken.sol:DepositToken",
        "label": "totalSupply",
        "offset": 0,
        "slot": "56",
        "type": "t_uint256"
      },
      {
        "astId": 11933,
        "contract": "contracts/DepositToken.sol:DepositToken",
        "label": "maxTotalSupply",
        "offset": 0,
        "slot": "57",
        "type": "t_uint256"
      },
      {
        "astId": 11937,
        "contract": "contracts/DepositToken.sol:DepositToken",
        "label": "collateralFactor",
        "offset": 0,
        "slot": "58",
        "type": "t_uint256"
      },
      {
        "astId": 11942,
        "contract": "contracts/DepositToken.sol:DepositToken",
        "label": "underlying",
        "offset": 0,
        "slot": "59",
        "type": "t_contract(IERC20)7987"
      },
      {
        "astId": 11946,
        "contract": "contracts/DepositToken.sol:DepositToken",
        "label": "isActive",
        "offset": 20,
        "slot": "59",
        "type": "t_bool"
      },
      {
        "astId": 11950,
        "contract": "contracts/DepositToken.sol:DepositToken",
        "label": "decimals",
        "offset": 21,
        "slot": "59",
        "type": "t_uint8"
      }
    ],
    "types": {
      "t_address": {
        "encoding": "inplace",
        "label": "address",
        "numberOfBytes": "20"
      },
      "t_array(t_uint256)49_storage": {
        "base": "t_uint256",
        "encoding": "inplace",
        "label": "uint256[49]",
        "numberOfBytes": "1568"
      },
      "t_bool": {
        "encoding": "inplace",
        "label": "bool",
        "numberOfBytes": "1"
      },
      "t_contract(IERC20)7987": {
        "encoding": "inplace",
        "label": "contract IERC20",
        "numberOfBytes": "20"
      },
      "t_contract(IPool)10334": {
        "encoding": "inplace",
        "label": "contract IPool",
        "numberOfBytes": "20"
      },
      "t_mapping(t_address,t_mapping(t_address,t_uint256))": {
        "encoding": "mapping",
        "key": "t_address",
        "label": "mapping(address => mapping(address => uint256))",
        "numberOfBytes": "32",
        "value": "t_mapping(t_address,t_uint256)"
      },
      "t_mapping(t_address,t_uint256)": {
        "encoding": "mapping",
        "key": "t_address",
        "label": "mapping(address => uint256)",
        "numberOfBytes": "32",
        "value": "t_uint256"
      },
      "t_string_storage": {
        "encoding": "bytes",
        "label": "string",
        "numberOfBytes": "32"
      },
      "t_uint256": {
        "encoding": "inplace",
        "label": "uint256",
        "numberOfBytes": "32"
      },
      "t_uint8": {
        "encoding": "inplace",
        "label": "uint8",
        "numberOfBytes": "1"
      }
    }
  }
}