{
  "address": "0xE4DFD8bf9fa718af957a808B9bf8eC3fE5eD31C9",
  "abi": [
    {
      "anonymous": false,
      "inputs": [
        {
          "indexed": true,
          "internalType": "address",
          "name": "owner",
          "type": "address"
        },
        {
          "indexed": true,
          "internalType": "address",
          "name": "spender",
          "type": "address"
        },
        {
          "indexed": false,
          "internalType": "uint256",
          "name": "value",
          "type": "uint256"
        }
      ],
      "name": "Approval",
      "type": "event"
    },
    {
      "anonymous": false,
      "inputs": [
        {
          "indexed": true,
          "internalType": "address",
          "name": "from",
          "type": "address"
        },
        {
          "indexed": true,
          "internalType": "address",
          "name": "account",
          "type": "address"
        },
        {
          "indexed": false,
          "internalType": "uint256",
          "name": "amount",
          "type": "uint256"
        },
        {
          "indexed": false,
          "internalType": "uint256",
          "name": "fee",
          "type": "uint256"
        }
      ],
      "name": "CollateralDeposited",
      "type": "event"
    },
    {
      "anonymous": false,
      "inputs": [
        {
          "indexed": true,
          "internalType": "address",
          "name": "account",
          "type": "address"
        },
        {
          "indexed": true,
          "internalType": "address",
          "name": "to",
          "type": "address"
        },
        {
          "indexed": false,
          "internalType": "uint256",
          "name": "amount",
          "type": "uint256"
        },
        {
          "indexed": false,
          "internalType": "uint256",
          "name": "fee",
          "type": "uint256"
        }
      ],
      "name": "CollateralWithdrawn",
      "type": "event"
    },
    {
      "anonymous": false,
      "inputs": [
        {
          "indexed": false,
          "internalType": "uint256",
          "name": "oldCollateralizationRatio",
          "type": "uint256"
        },
        {
          "indexed": false,
          "internalType": "uint256",
          "name": "newCollateralizationRatio",
          "type": "uint256"
        }
      ],
      "name": "CollateralizationRatioUpdated",
      "type": "event"
    },
    {
      "anonymous": false,
      "inputs": [
        {
          "indexed": false,
          "internalType": "bool",
          "name": "newActive",
          "type": "bool"
        }
      ],
      "name": "DepositTokenActiveUpdated",
      "type": "event"
    },
    {
      "anonymous": false,
      "inputs": [
        {
          "indexed": false,
          "internalType": "uint256",
          "name": "oldMaxTotalSupply",
          "type": "uint256"
        },
        {
          "indexed": false,
          "internalType": "uint256",
          "name": "newMaxTotalSupply",
          "type": "uint256"
        }
      ],
      "name": "MaxTotalSupplyUpdated",
      "type": "event"
    },
    {
      "anonymous": false,
      "inputs": [
        {
          "indexed": true,
          "internalType": "address",
          "name": "from",
          "type": "address"
        },
        {
          "indexed": true,
          "internalType": "address",
          "name": "to",
          "type": "address"
        },
        {
          "indexed": false,
          "internalType": "uint256",
          "name": "value",
          "type": "uint256"
        }
      ],
      "name": "Transfer",
      "type": "event"
    },
    {
      "stateMutability": "payable",
      "type": "fallback"
    },
    {
      "inputs": [],
      "name": "VERSION",
      "outputs": [
        {
          "internalType": "string",
          "name": "",
          "type": "string"
        }
      ],
      "stateMutability": "view",
      "type": "function"
    },
    {
      "inputs": [
        {
          "internalType": "address",
          "name": "",
          "type": "address"
        },
        {
          "internalType": "address",
          "name": "",
          "type": "address"
        }
      ],
      "name": "allowance",
      "outputs": [
        {
          "internalType": "uint256",
          "name": "",
          "type": "uint256"
        }
      ],
      "stateMutability": "view",
      "type": "function"
    },
    {
      "inputs": [
        {
          "internalType": "address",
          "name": "spender_",
          "type": "address"
        },
        {
          "internalType": "uint256",
          "name": "amount_",
          "type": "uint256"
        }
      ],
      "name": "approve",
      "outputs": [
        {
          "internalType": "bool",
          "name": "",
          "type": "bool"
        }
      ],
      "stateMutability": "nonpayable",
      "type": "function"
    },
    {
      "inputs": [
        {
          "internalType": "address",
          "name": "",
          "type": "address"
        }
      ],
      "name": "balanceOf",
      "outputs": [
        {
          "internalType": "uint256",
          "name": "",
          "type": "uint256"
        }
      ],
      "stateMutability": "view",
      "type": "function"
    },
    {
      "inputs": [],
      "name": "collateralizationRatio",
      "outputs": [
        {
          "internalType": "uint256",
          "name": "",
          "type": "uint256"
        }
      ],
      "stateMutability": "view",
      "type": "function"
    },
    {
      "inputs": [],
      "name": "decimals",
      "outputs": [
        {
          "internalType": "uint8",
          "name": "",
          "type": "uint8"
        }
      ],
      "stateMutability": "view",
      "type": "function"
    },
    {
      "inputs": [
        {
          "internalType": "address",
          "name": "spender_",
          "type": "address"
        },
        {
          "internalType": "uint256",
          "name": "subtractedValue_",
          "type": "uint256"
        }
      ],
      "name": "decreaseAllowance",
      "outputs": [
        {
          "internalType": "bool",
          "name": "",
          "type": "bool"
        }
      ],
      "stateMutability": "nonpayable",
      "type": "function"
    },
    {
      "inputs": [
        {
          "internalType": "uint256",
          "name": "amount_",
          "type": "uint256"
        },
        {
          "internalType": "address",
          "name": "onBehalfOf_",
          "type": "address"
        }
      ],
      "name": "deposit",
      "outputs": [],
      "stateMutability": "nonpayable",
      "type": "function"
    },
    {
      "inputs": [],
      "name": "governor",
      "outputs": [
        {
          "internalType": "address",
          "name": "_governor",
          "type": "address"
        }
      ],
      "stateMutability": "view",
      "type": "function"
    },
    {
      "inputs": [
        {
          "internalType": "address",
          "name": "spender_",
          "type": "address"
        },
        {
          "internalType": "uint256",
          "name": "addedValue_",
          "type": "uint256"
        }
      ],
      "name": "increaseAllowance",
      "outputs": [
        {
          "internalType": "bool",
          "name": "",
          "type": "bool"
        }
      ],
      "stateMutability": "nonpayable",
      "type": "function"
    },
    {
      "inputs": [
        {
          "internalType": "contract IERC20",
          "name": "underlying_",
          "type": "address"
        },
        {
          "internalType": "contract IPool",
          "name": "pool_",
          "type": "address"
        },
        {
          "internalType": "string",
          "name": "symbol_",
          "type": "string"
        },
        {
          "internalType": "uint8",
          "name": "decimals_",
          "type": "uint8"
        },
        {
          "internalType": "uint128",
          "name": "collateralizationRatio_",
          "type": "uint128"
        },
        {
          "internalType": "uint256",
          "name": "maxTotalSupply_",
          "type": "uint256"
        }
      ],
      "name": "initialize",
      "outputs": [],
      "stateMutability": "nonpayable",
      "type": "function"
    },
    {
      "inputs": [],
      "name": "isActive",
      "outputs": [
        {
          "internalType": "bool",
          "name": "",
          "type": "bool"
        }
      ],
      "stateMutability": "view",
      "type": "function"
    },
    {
      "inputs": [
        {
          "internalType": "address",
          "name": "",
          "type": "address"
        }
      ],
      "name": "lastDepositOf",
      "outputs": [
        {
          "internalType": "uint256",
          "name": "",
          "type": "uint256"
        }
      ],
      "stateMutability": "view",
      "type": "function"
    },
    {
      "inputs": [
        {
          "internalType": "address",
          "name": "account_",
          "type": "address"
        }
      ],
      "name": "lockedBalanceOf",
      "outputs": [
        {
          "internalType": "uint256",
          "name": "_lockedBalance",
          "type": "uint256"
        }
      ],
      "stateMutability": "view",
      "type": "function"
    },
    {
      "inputs": [],
      "name": "maxTotalSupply",
      "outputs": [
        {
          "internalType": "uint256",
          "name": "",
          "type": "uint256"
        }
      ],
      "stateMutability": "view",
      "type": "function"
    },
    {
      "inputs": [],
      "name": "name",
      "outputs": [
        {
          "internalType": "string",
          "name": "",
          "type": "string"
        }
      ],
      "stateMutability": "view",
      "type": "function"
    },
    {
      "inputs": [],
      "name": "pool",
      "outputs": [
        {
          "internalType": "contract IPool",
          "name": "",
          "type": "address"
        }
      ],
      "stateMutability": "view",
      "type": "function"
    },
    {
      "inputs": [
        {
          "internalType": "address",
          "name": "from_",
          "type": "address"
        },
        {
          "internalType": "address",
          "name": "to_",
          "type": "address"
        },
        {
          "internalType": "uint256",
          "name": "amount_",
          "type": "uint256"
        }
      ],
      "name": "seize",
      "outputs": [],
      "stateMutability": "nonpayable",
      "type": "function"
    },
    {
      "inputs": [
        {
          "internalType": "contract IERC20",
          "name": "token_",
          "type": "address"
        },
        {
          "internalType": "address",
          "name": "to_",
          "type": "address"
        },
        {
          "internalType": "uint256",
          "name": "amount_",
          "type": "uint256"
        }
      ],
      "name": "sweep",
      "outputs": [],
      "stateMutability": "nonpayable",
      "type": "function"
    },
    {
      "inputs": [],
      "name": "symbol",
      "outputs": [
        {
          "internalType": "string",
          "name": "",
          "type": "string"
        }
      ],
      "stateMutability": "view",
      "type": "function"
    },
    {
      "inputs": [],
      "name": "toggleIsActive",
      "outputs": [],
      "stateMutability": "nonpayable",
      "type": "function"
    },
    {
      "inputs": [],
      "name": "totalSupply",
      "outputs": [
        {
          "internalType": "uint256",
          "name": "",
          "type": "uint256"
        }
      ],
      "stateMutability": "view",
      "type": "function"
    },
    {
      "inputs": [
        {
          "internalType": "address",
          "name": "to_",
          "type": "address"
        },
        {
          "internalType": "uint256",
          "name": "amount_",
          "type": "uint256"
        }
      ],
      "name": "transfer",
      "outputs": [
        {
          "internalType": "bool",
          "name": "",
          "type": "bool"
        }
      ],
      "stateMutability": "nonpayable",
      "type": "function"
    },
    {
      "inputs": [
        {
          "internalType": "address",
          "name": "sender_",
          "type": "address"
        },
        {
          "internalType": "address",
          "name": "recipient_",
          "type": "address"
        },
        {
          "internalType": "uint256",
          "name": "amount_",
          "type": "uint256"
        }
      ],
      "name": "transferFrom",
      "outputs": [
        {
          "internalType": "bool",
          "name": "",
          "type": "bool"
        }
      ],
      "stateMutability": "nonpayable",
      "type": "function"
    },
    {
      "inputs": [],
      "name": "underlying",
      "outputs": [
        {
          "internalType": "contract IERC20",
          "name": "",
          "type": "address"
        }
      ],
      "stateMutability": "view",
      "type": "function"
    },
    {
      "inputs": [
        {
          "internalType": "address",
          "name": "account_",
          "type": "address"
        }
      ],
      "name": "unlockedBalanceOf",
      "outputs": [
        {
          "internalType": "uint256",
          "name": "_unlockedBalance",
          "type": "uint256"
        }
      ],
      "stateMutability": "view",
      "type": "function"
    },
    {
      "inputs": [
        {
          "internalType": "uint128",
          "name": "newCollateralizationRatio_",
          "type": "uint128"
        }
      ],
      "name": "updateCollateralizationRatio",
      "outputs": [],
      "stateMutability": "nonpayable",
      "type": "function"
    },
    {
      "inputs": [
        {
          "internalType": "uint256",
          "name": "newMaxTotalSupply_",
          "type": "uint256"
        }
      ],
      "name": "updateMaxTotalSupply",
      "outputs": [],
      "stateMutability": "nonpayable",
      "type": "function"
    },
    {
      "inputs": [
        {
          "internalType": "uint256",
          "name": "amount_",
          "type": "uint256"
        },
        {
          "internalType": "address",
          "name": "to_",
          "type": "address"
        }
      ],
      "name": "withdraw",
      "outputs": [],
      "stateMutability": "nonpayable",
      "type": "function"
    },
    {
      "stateMutability": "payable",
      "type": "receive"
    }
  ],
  "transactionHash": "0xb2cab304d4aa9ef9ee601f54a7a0e7e8afbf797b75e9e70a81896b1eff287085",
  "args": [],
  "numDeployments": 1,
  "solcInputHash": "8f9ac8ece838b75cf20cef638b1903fd",
  "bytecode": "0x608060405234801561001057600080fd5b50613131806100206000396000f3fe6080604052600436106101c55760003560e01c80636e553f65116100f7578063b2a02ff111610095578063dd62ed3e11610064578063dd62ed3e14610591578063ea180f27146105c9578063f46c3c51146105e9578063ffa1ad74146106165761020d565b8063b2a02ff114610526578063c2d275ba14610546578063d259332914610566578063dcaf9c441461057b5761020d565b806384955c88116100d157806384955c88146104b157806395d89b41146104d1578063a457c2d7146104e6578063a9059cbb146105065761020d565b80636e553f65146104445780636f307dc31461046457806370a08231146104845761020d565b806322f3e2d411610164578063313ce5671161013e578063313ce567146103b157806339509351146103e4578063593557361461040457806362c06767146104245761020d565b806322f3e2d41461035a57806323b872dd1461037b5780632ab4d0521461039b5761020d565b80630c340a24116101a05780630c340a24146102c957806316f0115b146102f6578063172f50a41461031657806318160ddd146103365761020d565b8062f714ce1461024c57806306fdde031461026e578063095ea7b3146102995761020d565b3661020d5760405162461bcd60e51b81526020600482015260136024820152721c9958d95a5d994b5b9bdd0b585b1b1bddd959606a1b60448201526064015b60405180910390fd5b60405162461bcd60e51b815260206004820152601460248201527319985b1b189858dacb5b9bdd0b585b1b1bddd95960621b6044820152606401610204565b34801561025857600080fd5b5061026c610267366004612b4f565b610647565b005b34801561027a57600080fd5b50610283610abb565b6040516102909190612bab565b60405180910390f35b3480156102a557600080fd5b506102b96102b4366004612bde565b610b49565b6040519015158152602001610290565b3480156102d557600080fd5b506102de610b60565b6040516001600160a01b039091168152602001610290565b34801561030257600080fd5b506002546102de906001600160a01b031681565b34801561032257600080fd5b5061026c610331366004612c0a565b610be2565b34801561034257600080fd5b5061034c60395481565b604051908152602001610290565b34801561036657600080fd5b50603c546102b990600160a01b900460ff1681565b34801561038757600080fd5b506102b9610396366004612c23565b610ca2565b3480156103a757600080fd5b5061034c603a5481565b3480156103bd57600080fd5b50603c546103d290600160a81b900460ff1681565b60405160ff9091168152602001610290565b3480156103f057600080fd5b506102b96103ff366004612bde565b610dc5565b34801561041057600080fd5b5061034c61041f366004612c64565b610e01565b34801561043057600080fd5b5061026c61043f366004612c23565b610e2f565b34801561045057600080fd5b5061026c61045f366004612b4f565b610e68565b34801561047057600080fd5b50603c546102de906001600160a01b031681565b34801561049057600080fd5b5061034c61049f366004612c64565b60346020526000908152604090205481565b3480156104bd57600080fd5b5061034c6104cc366004612c64565b6113dc565b3480156104dd57600080fd5b506102836115ad565b3480156104f257600080fd5b506102b9610501366004612bde565b6115ba565b34801561051257600080fd5b506102b9610521366004612bde565b611645565b34801561053257600080fd5b5061026c610541366004612c23565b6116b1565b34801561055257600080fd5b5061026c610561366004612c9d565b611701565b34801561057257600080fd5b5061026c61183c565b34801561058757600080fd5b5061034c603b5481565b34801561059d57600080fd5b5061034c6105ac366004612cb8565b603560209081526000928352604080842090915290825290205481565b3480156105d557600080fd5b5061026c6105e4366004612cf7565b6118d5565b3480156105f557600080fd5b5061034c610604366004612c64565b60366020526000908152604090205481565b34801561062257600080fd5b50610283604051806040016040528060058152602001640312e302e360dc1b81525081565b600260009054906101000a90046001600160a01b03166001600160a01b031663ecf3a3f96040518163ffffffff1660e01b815260040160206040518083038186803b15801561069557600080fd5b505afa1580156106a9573d6000803e3d6000fd5b505050506040513d601f19601f820116820180604052508101906106cd9190612dca565b156107055760405162461bcd60e51b815260206004820152600860248201526739b43aba3237bbb760c11b6044820152606401610204565b600260015414156107285760405162461bcd60e51b815260040161020490612de5565b6002600181905554604051633af5be4760e01b81523060048201526001600160a01b0390911690633af5be479060240160206040518083038186803b15801561077057600080fd5b505afa158015610784573d6000803e3d6000fd5b505050506040513d601f19601f820116820180604052508101906107a89190612dca565b6107ec5760405162461bcd60e51b815260206004820152601560248201527418dbdb1b185d195c985b0b5a5b995e1a5cdd195b9d605a1b6044820152606401610204565b6000821180156108045750610800336113dc565b8211155b6108445760405162461bcd60e51b8152602060048201526011602482015270185b5bdd5b9d0b5a5ccb5a5b9d985b1a59607a1b6044820152606401610204565b60025460408051631d283f4f60e31b815290516000926001600160a01b03169163e941fa7891600480830192602092919082900301818787803b15801561088a57600080fd5b505af115801561089e573d6000803e3d6000fd5b505050506040513d601f19601f820116820180604052508101906108c29190612e1c565b90508260008215610976576108d78584611aa1565b905061096933600260009054906101000a90046001600160a01b03166001600160a01b031663c415b95c6040518163ffffffff1660e01b815260040160206040518083038186803b15801561092b57600080fd5b505afa15801561093f573d6000803e3d6000fd5b505050506040513d601f19601f820116820180604052508101906109639190612e35565b83611af4565b6109738183612e68565b91505b6109803383611dc9565b600260009054906101000a90046001600160a01b03166001600160a01b03166361d027b36040518163ffffffff1660e01b815260040160206040518083038186803b1580156109ce57600080fd5b505afa1580156109e2573d6000803e3d6000fd5b505050506040513d601f19601f82011682018060405250810190610a069190612e35565b60405163f2d5d56b60e01b81526001600160a01b03868116600483015260248201859052919091169063f2d5d56b90604401600060405180830381600087803b158015610a5257600080fd5b505af1158015610a66573d6000803e3d6000fd5b505060408051888152602081018590526001600160a01b03881693503392507f4700a5c58c58ea6536703185e43dae38bfd4158ee5330c70988f02a65562a36e910160405180910390a3505060018055505050565b60378054610ac890612e7f565b80601f0160208091040260200160405190810160405280929190818152602001828054610af490612e7f565b8015610b415780601f10610b1657610100808354040283529160200191610b41565b820191906000526020600020905b815481529060010190602001808311610b2457829003601f168201915b505050505081565b6000610b56338484612026565b5060015b92915050565b6002546040805163030d028960e21b815290516000926001600160a01b031691630c340a24916004808301926020929190829003018186803b158015610ba557600080fd5b505afa158015610bb9573d6000803e3d6000fd5b505050506040513d601f19601f82011682018060405250810190610bdd9190612e35565b905090565b610bea610b60565b6001600160a01b0316336001600160a01b031614610c1a5760405162461bcd60e51b815260040161020490612eb4565b603a5481811415610c635760405162461bcd60e51b81526020600482015260136024820152721b995dcb5cd85b594b585ccb58dd5c9c995b9d606a1b6044820152606401610204565b60408051828152602081018490527fc58cd6132bb46df23d468939c03dd023b74b509aaa6b04c39d5a6461c65963bd910160405180910390a150603a55565b600060026001541415610cc75760405162461bcd60e51b815260040161020490612de5565b6002600155838280610cd8836113dc565b1015610d205760405162461bcd60e51b81526020600482015260176024820152766e6f742d656e6f7567682d667265652d62616c616e636560481b6044820152606401610204565b610d2b868686611af4565b6001600160a01b03861660009081526035602090815260408083203384529091529020546000198114610db55784811015610da85760405162461bcd60e51b815260206004820152601860248201527f616d6f756e742d657863656564732d616c6c6f77616e636500000000000000006044820152606401610204565b610db58733878403612026565b5050600180805595945050505050565b3360008181526035602090815260408083206001600160a01b03871684529091528120549091610b56918590610dfc908690612eda565b612026565b6000610e0c826113dc565b6001600160a01b0390921660009081526034602052604090205491909103919050565b610e37612133565b6001600160a01b038316610e5457610e4f828261216d565b505050565b610e4f6001600160a01b0384168383612286565b600260009054906101000a90046001600160a01b03166001600160a01b0316635c975abb6040518163ffffffff1660e01b815260040160206040518083038186803b158015610eb657600080fd5b505afa158015610eca573d6000803e3d6000fd5b505050506040513d601f19601f82011682018060405250810190610eee9190612dca565b15610f245760405162461bcd60e51b81526020600482015260066024820152651c185d5cd95960d21b6044820152606401610204565b60026001541415610f475760405162461bcd60e51b815260040161020490612de5565b6002600155603c54600160a01b900460ff16610f9e5760405162461bcd60e51b81526020600482015260166024820152756465706f7369742d746f6b656e2d696e61637469766560501b6044820152606401610204565b600254604051633af5be4760e01b81523060048201526001600160a01b0390911690633af5be479060240160206040518083038186803b158015610fe157600080fd5b505afa158015610ff5573d6000803e3d6000fd5b505050506040513d601f19601f820116820180604052508101906110199190612dca565b61105d5760405162461bcd60e51b815260206004820152601560248201527418dbdb1b185d195c985b0b5a5b995e1a5cdd195b9d605a1b6044820152606401610204565b6000821161109e5760405162461bcd60e51b815260206004820152600e60248201526d616d6f756e742d69732d7a65726f60901b6044820152606401610204565b600254604080516361d027b360e01b815290516000926001600160a01b0316916361d027b3916004808301926020929190829003018186803b1580156110e357600080fd5b505afa1580156110f7573d6000803e3d6000fd5b505050506040513d601f19601f8201168201806040525081019061111b9190612e35565b603c546040516370a0823160e01b81526001600160a01b038084166004830152929350600092909116906370a082319060240160206040518083038186803b15801561116657600080fd5b505afa15801561117a573d6000803e3d6000fd5b505050506040513d601f19601f8201168201806040525081019061119e9190612e1c565b603c549091506111b9906001600160a01b03163384876122e9565b603c546040516370a0823160e01b81526001600160a01b038481166004830152839216906370a082319060240160206040518083038186803b1580156111fe57600080fd5b505afa158015611212573d6000803e3d6000fd5b505050506040513d601f19601f820116820180604052508101906112369190612e1c565b6112409190612e68565b93506000600260009054906101000a90046001600160a01b03166001600160a01b03166367a527936040518163ffffffff1660e01b8152600401602060405180830381600087803b15801561129457600080fd5b505af11580156112a8573d6000803e3d6000fd5b505050506040513d601f19601f820116820180604052508101906112cc9190612e1c565b9050846000821561137f576112e18784611aa1565b9050611372600260009054906101000a90046001600160a01b03166001600160a01b031663c415b95c6040518163ffffffff1660e01b815260040160206040518083038186803b15801561133457600080fd5b505afa158015611348573d6000803e3d6000fd5b505050506040513d601f19601f8201168201806040525081019061136c9190612e35565b82612327565b61137c8183612e68565b91505b6113898683612327565b60408051888152602081018390526001600160a01b0388169133917f95d16db8c4932fcf5d6de67364791e7178ec505c7d3829a8b34d18959c01552c910160405180910390a35050600180555050505050565b60025460405163dde3ab9560e01b81526001600160a01b038381166004830152600092839291169063dde3ab959060240160a06040518083038186803b15801561142557600080fd5b505afa158015611439573d6000803e3d6000fd5b505050506040513d601f19601f8201168201806040525081019061145d9190612ef2565b94505050505060008111156115a7576001600160a01b03808416600090815260346020908152604091829020546002548351637556d1c160e11b815293516115a4959294919092169263eaada38292600480840193829003018186803b1580156114c657600080fd5b505afa1580156114da573d6000803e3d6000fd5b505050506040513d601f19601f820116820180604052508101906114fe9190612e35565b603c54603b546001600160a01b039283169263b5e9bef59216906115239087906125d0565b6040516001600160e01b031960e085901b1681526001600160a01b039092166004830152602482015260440160206040518083038186803b15801561156757600080fd5b505afa15801561157b573d6000803e3d6000fd5b505050506040513d601f19601f8201168201806040525081019061159f9190612e1c565b6125f0565b91505b50919050565b60388054610ac890612e7f565b3360009081526035602090815260408083206001600160a01b03861684529091528120548281101561162e5760405162461bcd60e51b815260206004820152601e60248201527f6465637265617365642d616c6c6f77616e63652d62656c6f772d7a65726f00006044820152606401610204565b61163b3385858403612026565b5060019392505050565b6000338280611653836113dc565b101561169b5760405162461bcd60e51b81526020600482015260176024820152766e6f742d656e6f7567682d667265652d62616c616e636560481b6044820152606401610204565b6116a6338686611af4565b506001949350505050565b6002546001600160a01b031633146116f65760405162461bcd60e51b81526020600482015260086024820152671b9bdd0b5c1bdbdb60c21b6044820152606401610204565b610e4f838383611af4565b611709610b60565b6001600160a01b0316336001600160a01b0316146117395760405162461bcd60e51b815260040161020490612eb4565b670de0b6b3a7640000816001600160801b0316111561179a5760405162461bcd60e51b815260206004820152601f60248201527f636f6c6c61746572616c697a6174696f6e2d726174696f2d67742d31303025006044820152606401610204565b603b546001600160801b0382168114156117ec5760405162461bcd60e51b81526020600482015260136024820152721b995dcb5cd85b594b585ccb58dd5c9c995b9d606a1b6044820152606401610204565b604080518281526001600160801b03841660208201527ff84d4544cfaedc7b1b8b7fa92b1f758aea3e3e69dfb321343825e4dd86f8147a910160405180910390a1506001600160801b0316603b55565b611844610b60565b6001600160a01b0316336001600160a01b0316146118745760405162461bcd60e51b815260040161020490612eb4565b603c54604051600160a01b90910460ff1615808252907fb2f86f872205a47e0890262c11c93dba2270b3f079ada3dbe9cb6f755f4ddc9f9060200160405180910390a1603c8054911515600160a01b0260ff60a01b19909216919091179055565b600054610100900460ff16806118ee575060005460ff16155b61190a5760405162461bcd60e51b815260040161020490612f39565b600054610100900460ff1615801561192c576000805461ffff19166101011790555b6001600160a01b0388166119775760405162461bcd60e51b81526020600482015260126024820152711d5b99195c9b1e5a5b99cb5a5ccb5b9d5b1b60721b6044820152606401610204565b670de0b6b3a7640000836001600160801b031611156119d85760405162461bcd60e51b815260206004820152601f60248201527f636f6c6c61746572616c697a6174696f6e2d726174696f2d67742d31303025006044820152606401610204565b6119e0612606565b6119e987612676565b60408051808201909152601a8082527f546f6b656e697a6564206465706f73697420706f736974696f6e0000000000006020909201918252611a2d91603791612a2d565b50611a3a60388787612ab1565b50603c805460ff8616600160a81b0260ff60a81b196001600160a81b03199092166001600160a01b038c1617600160a01b17919091161790556001600160801b038316603b55603a8290558015611a97576000805461ff00191690555b5050505050505050565b6000821580611aae575081155b15611abb57506000610b5a565b670de0b6b3a7640000611acf600282612f87565b611ad98486612fa9565b611ae39190612eda565b611aed9190612f87565b9392505050565b82826000600260009054906101000a90046001600160a01b03166001600160a01b0316633605b51b6040518163ffffffff1660e01b815260040160006040518083038186803b158015611b4657600080fd5b505afa158015611b5a573d6000803e3d6000fd5b505050506040513d6000823e601f3d908101601f19168201604052611b829190810190612fe9565b805190915060005b81811015611c2a57828181518110611ba457611ba46130ae565b602090810291909101015160405163058bd91d60e51b81523060048201526001600160a01b03878116602483015286811660448301529091169063b17b23a090606401600060405180830381600087803b158015611c0157600080fd5b505af1158015611c15573d6000803e3d6000fd5b5050505080611c23906130c4565b9050611b8a565b506001600160a01b038716611c815760405162461bcd60e51b815260206004820152601e60248201527f7472616e736665722d66726f6d2d7468652d7a65726f2d6164647265737300006044820152606401610204565b6001600160a01b038616611cd75760405162461bcd60e51b815260206004820152601c60248201527f7472616e736665722d746f2d7468652d7a65726f2d61646472657373000000006044820152606401610204565b6001600160a01b03871660009081526034602052604090205485811015611d405760405162461bcd60e51b815260206004820152601f60248201527f7472616e736665722d616d6f756e742d657863656564732d62616c616e6365006044820152606401610204565b6001600160a01b03878116600081815260346020908152604080832080548c8101909155948d16808452928190208b87039081905590518b8152909392917fddf252ad1be2c89b69c2b068fc378daa952ba7f163c4a11628f55a4df523b3ef910160405180910390a3611db3898361274b565b611dbd8a826127ac565b50505050505050505050565b816000600260009054906101000a90046001600160a01b03166001600160a01b0316633605b51b6040518163ffffffff1660e01b815260040160006040518083038186803b158015611e1a57600080fd5b505afa158015611e2e573d6000803e3d6000fd5b505050506040513d6000823e601f3d908101601f19168201604052611e569190810190612fe9565b805190915060005b81811015611ef557828181518110611e7857611e786130ae565b6020908102919091010151604051626cc3c360e61b81523060048201526001600160a01b03868116602483015290911690631b30f0c090604401600060405180830381600087803b158015611ecc57600080fd5b505af1158015611ee0573d6000803e3d6000fd5b5050505080611eee906130c4565b9050611e5e565b506001600160a01b038516611f4c5760405162461bcd60e51b815260206004820152601a60248201527f6275726e2d66726f6d2d7468652d7a65726f2d616464726573730000000000006044820152606401610204565b6001600160a01b03851660009081526034602052604090205484811015611fb55760405162461bcd60e51b815260206004820152601b60248201527f6275726e2d616d6f756e742d657863656564732d62616c616e636500000000006044820152606401610204565b6039805486900390556001600160a01b03861660008181526034602090815260408083208986039081905590518981529093917fddf252ad1be2c89b69c2b068fc378daa952ba7f163c4a11628f55a4df523b3ef910160405180910390a361201d87826127ac565b50505050505050565b6001600160a01b03831661207c5760405162461bcd60e51b815260206004820152601d60248201527f617070726f76652d66726f6d2d7468652d7a65726f2d616464726573730000006044820152606401610204565b6001600160a01b0382166120d25760405162461bcd60e51b815260206004820152601b60248201527f617070726f76652d746f2d7468652d7a65726f2d6164647265737300000000006044820152606401610204565b6001600160a01b0383811660008181526035602090815260408083209487168084529482529182902085905590518481527f8c5be1e5ebec7d5bd14f71427d1e84f3dd0314c0f7b2291e5b200ac8c7c3b925910160405180910390a3505050565b61213b610b60565b6001600160a01b0316336001600160a01b03161461216b5760405162461bcd60e51b815260040161020490612eb4565b565b804710156121bd5760405162461bcd60e51b815260206004820152601d60248201527f416464726573733a20696e73756666696369656e742062616c616e63650000006044820152606401610204565b6000826001600160a01b03168260405160006040518083038185875af1925050503d806000811461220a576040519150601f19603f3d011682016040523d82523d6000602084013e61220f565b606091505b5050905080610e4f5760405162461bcd60e51b815260206004820152603a60248201527f416464726573733a20756e61626c6520746f2073656e642076616c75652c207260448201527f6563697069656e74206d617920686176652072657665727465640000000000006064820152608401610204565b6040516001600160a01b038316602482015260448101829052610e4f90849063a9059cbb60e01b906064015b60408051601f198184030181529190526020810180516001600160e01b03166001600160e01b0319909316929092179091526127e3565b6040516001600160a01b03808516602483015283166044820152606481018290526123219085906323b872dd60e01b906084016122b2565b50505050565b603c54600160a01b900460ff166123795760405162461bcd60e51b81526020600482015260166024820152756465706f7369742d746f6b656e2d696e61637469766560501b6044820152606401610204565b816000600260009054906101000a90046001600160a01b03166001600160a01b0316633605b51b6040518163ffffffff1660e01b815260040160006040518083038186803b1580156123ca57600080fd5b505afa1580156123de573d6000803e3d6000fd5b505050506040513d6000823e601f3d908101601f191682016040526124069190810190612fe9565b805190915060005b818110156124a557828181518110612428576124286130ae565b6020908102919091010151604051626cc3c360e61b81523060048201526001600160a01b03868116602483015290911690631b30f0c090604401600060405180830381600087803b15801561247c57600080fd5b505af1158015612490573d6000803e3d6000fd5b505050508061249e906130c4565b905061240e565b506001600160a01b0385166124fc5760405162461bcd60e51b815260206004820152601860248201527f6d696e742d746f2d7468652d7a65726f2d6164647265737300000000000000006044820152606401610204565b836039600082825461250e9190612eda565b9091555050603a5460395411156125675760405162461bcd60e51b815260206004820152601a60248201527f737572706173732d6d61782d6465706f7369742d737570706c790000000000006044820152606401610204565b6001600160a01b038516600081815260346020908152604080832080548981019091559051888152909392917fddf252ad1be2c89b69c2b068fc378daa952ba7f163c4a11628f55a4df523b3ef910160405180910390a36125c8868261274b565b505050505050565b6000816125de600282612f87565b611ad9670de0b6b3a764000086612fa9565b60008183106125ff5781611aed565b5090919050565b600054610100900460ff168061261f575060005460ff16155b61263b5760405162461bcd60e51b815260040161020490612f39565b600054610100900460ff1615801561265d576000805461ffff19166101011790555b600180558015612673576000805461ff00191690555b50565b600054610100900460ff168061268f575060005460ff16155b6126ab5760405162461bcd60e51b815260040161020490612f39565b600054610100900460ff161580156126cd576000805461ffff19166101011790555b6001600160a01b03821661271a5760405162461bcd60e51b8152602060048201526014602482015273706f6f6c2d616464726573732d69732d7a65726f60601b6044820152606401610204565b600280546001600160a01b0319166001600160a01b0384161790558015612747576000805461ff00191690555b5050565b8061274757600254604051633f5fc13160e01b81526001600160a01b03848116600483015290911690633f5fc131906024015b600060405180830381600087803b15801561279857600080fd5b505af11580156125c8573d6000803e3d6000fd5b8061274757600254604051630275038d60e41b81526001600160a01b0384811660048301529091169063275038d09060240161277e565b6000612838826040518060400160405280602081526020017f5361666545524332303a206c6f772d6c6576656c2063616c6c206661696c6564815250856001600160a01b03166128b59092919063ffffffff16565b805190915015610e4f57808060200190518101906128569190612dca565b610e4f5760405162461bcd60e51b815260206004820152602a60248201527f5361666545524332303a204552433230206f7065726174696f6e20646964206e6044820152691bdd081cdd58d8d9595960b21b6064820152608401610204565b60606128c484846000856128cc565b949350505050565b60608247101561292d5760405162461bcd60e51b815260206004820152602660248201527f416464726573733a20696e73756666696369656e742062616c616e636520666f6044820152651c8818d85b1b60d21b6064820152608401610204565b843b61297b5760405162461bcd60e51b815260206004820152601d60248201527f416464726573733a2063616c6c20746f206e6f6e2d636f6e74726163740000006044820152606401610204565b600080866001600160a01b0316858760405161299791906130df565b60006040518083038185875af1925050503d80600081146129d4576040519150601f19603f3d011682016040523d82523d6000602084013e6129d9565b606091505b50915091506129e98282866129f4565b979650505050505050565b60608315612a03575081611aed565b825115612a135782518084602001fd5b8160405162461bcd60e51b81526004016102049190612bab565b828054612a3990612e7f565b90600052602060002090601f016020900481019282612a5b5760008555612aa1565b82601f10612a7457805160ff1916838001178555612aa1565b82800160010185558215612aa1579182015b82811115612aa1578251825591602001919060010190612a86565b50612aad929150612b25565b5090565b828054612abd90612e7f565b90600052602060002090601f016020900481019282612adf5760008555612aa1565b82601f10612af85782800160ff19823516178555612aa1565b82800160010185558215612aa1579182015b82811115612aa1578235825591602001919060010190612b0a565b5b80821115612aad5760008155600101612b26565b6001600160a01b038116811461267357600080fd5b60008060408385031215612b6257600080fd5b823591506020830135612b7481612b3a565b809150509250929050565b60005b83811015612b9a578181015183820152602001612b82565b838111156123215750506000910152565b6020815260008251806020840152612bca816040850160208701612b7f565b601f01601f19169190910160400192915050565b60008060408385031215612bf157600080fd5b8235612bfc81612b3a565b946020939093013593505050565b600060208284031215612c1c57600080fd5b5035919050565b600080600060608486031215612c3857600080fd5b8335612c4381612b3a565b92506020840135612c5381612b3a565b929592945050506040919091013590565b600060208284031215612c7657600080fd5b8135611aed81612b3a565b80356001600160801b0381168114612c9857600080fd5b919050565b600060208284031215612caf57600080fd5b611aed82612c81565b60008060408385031215612ccb57600080fd5b8235612cd681612b3a565b91506020830135612b7481612b3a565b803560ff81168114612c9857600080fd5b600080600080600080600060c0888a031215612d1257600080fd5b8735612d1d81612b3a565b96506020880135612d2d81612b3a565b9550604088013567ffffffffffffffff80821115612d4a57600080fd5b818a0191508a601f830112612d5e57600080fd5b813581811115612d6d57600080fd5b8b6020828501011115612d7f57600080fd5b602083019750809650505050612d9760608901612ce6565b9250612da560808901612c81565b915060a0880135905092959891949750929550565b80518015158114612c9857600080fd5b600060208284031215612ddc57600080fd5b611aed82612dba565b6020808252601f908201527f5265656e7472616e637947756172643a207265656e7472616e742063616c6c00604082015260600190565b600060208284031215612e2e57600080fd5b5051919050565b600060208284031215612e4757600080fd5b8151611aed81612b3a565b634e487b7160e01b600052601160045260246000fd5b600082821015612e7a57612e7a612e52565b500390565b600181811c90821680612e9357607f821691505b602082108114156115a757634e487b7160e01b600052602260045260246000fd5b6020808252600c908201526b3737ba16b3b7bb32b93737b960a11b604082015260600190565b60008219821115612eed57612eed612e52565b500190565b600080600080600060a08688031215612f0a57600080fd5b612f1386612dba565b602087015160408801516060890151608090990151929a91995097965090945092505050565b6020808252602e908201527f496e697469616c697a61626c653a20636f6e747261637420697320616c72656160408201526d191e481a5b9a5d1a585b1a5e995960921b606082015260800190565b600082612fa457634e487b7160e01b600052601260045260246000fd5b500490565b6000816000190483118215151615612fc357612fc3612e52565b500290565b634e487b7160e01b600052604160045260246000fd5b8051612c9881612b3a565b60006020808385031215612ffc57600080fd5b825167ffffffffffffffff8082111561301457600080fd5b818501915085601f83011261302857600080fd5b81518181111561303a5761303a612fc8565b8060051b604051601f19603f8301168101818110858211171561305f5761305f612fc8565b60405291825284820192508381018501918883111561307d57600080fd5b938501935b828510156130a25761309385612fde565b84529385019392850192613082565b98975050505050505050565b634e487b7160e01b600052603260045260246000fd5b60006000198214156130d8576130d8612e52565b5060010190565b600082516130f1818460208701612b7f565b919091019291505056fea2646970667358221220263566c9d53c7e7fba2453c4efccf5fae27a9ae0207153ba0f4bcce352c410cf64736f6c63430008090033",
  "devdoc": {
    "kind": "dev",
    "methods": {
      "deposit(uint256,address)": {
        "params": {
          "amount_": "The amount of collateral tokens to deposit",
          "onBehalfOf_": "The account to deposit to"
        }
      },
      "lockedBalanceOf(address)": {
        "params": {
          "account_": "The account to check"
        },
        "returns": {
          "_lockedBalance": "The locked amount"
        }
      },
      "seize(address,address,uint256)": {
        "details": "Same as _transfer",
        "params": {
          "amount_": "The amount to seize",
          "from_": "The account to seize from",
          "to_": "The beneficiary account"
        }
      },
      "sweep(address,address,uint256)": {
        "params": {
          "amount_": "The amount to send",
          "to_": "The recipient of the transfer",
          "token_": "The token to transfer"
        }
      },
      "unlockedBalanceOf(address)": {
        "params": {
          "account_": "The account to check"
        },
        "returns": {
          "_unlockedBalance": "The amount that user can transfer or withdraw"
        }
      },
      "updateCollateralizationRatio(uint128)": {
        "params": {
          "newCollateralizationRatio_": "The new CR value"
        }
      },
      "updateMaxTotalSupply(uint256)": {
        "params": {
          "newMaxTotalSupply_": "The new max total supply"
        }
      },
      "withdraw(uint256,address)": {
        "params": {
          "amount_": "The amount of collateral to withdraw",
          "to_": "The account that will receive withdrawn collateral"
        }
      }
    },
    "title": "Represents the users' deposits",
    "version": 1
  },
  "userdoc": {
    "events": {
      "CollateralDeposited(address,address,uint256,uint256)": {
        "notice": "Emitted when collateral is deposited"
      },
      "CollateralWithdrawn(address,address,uint256,uint256)": {
        "notice": "Emitted when collateral is withdrawn"
      },
      "CollateralizationRatioUpdated(uint256,uint256)": {
        "notice": "Emitted when CR is updated"
      },
      "DepositTokenActiveUpdated(bool)": {
        "notice": "Emitted when active flag is updated"
      },
      "MaxTotalSupplyUpdated(uint256,uint256)": {
        "notice": "Emitted when max total supply is updated"
      }
    },
    "kind": "user",
    "methods": {
      "approve(address,uint256)": {
        "notice": "Set `amount` as the allowance of `spender` over the caller's tokens"
      },
      "collateralizationRatio()": {
        "notice": "Collateralization ration for the deposit token"
      },
      "decimals()": {
        "notice": "The decimals of the token"
      },
      "decreaseAllowance(address,uint256)": {
        "notice": "Atomically decrease the allowance granted to `spender` by the caller"
      },
      "deposit(uint256,address)": {
        "notice": "Deposit collateral and mint msdTOKEN (tokenized deposit position)"
      },
      "increaseAllowance(address,uint256)": {
        "notice": "Atomically increase the allowance granted to `spender` by the caller"
      },
      "isActive()": {
        "notice": "If a collateral isn't active, it disables minting new tokens"
      },
      "lastDepositOf(address)": {
        "notice": "Stores de timestamp of last deposit event of each account. It's used combined with `minDepositTime`."
      },
      "lockedBalanceOf(address)": {
        "notice": "Get the locked balance"
      },
      "maxTotalSupply()": {
        "notice": "The supply cap (in USD)"
      },
      "name()": {
        "notice": "The name of the token"
      },
      "pool()": {
        "notice": "Pool contract"
      },
      "seize(address,address,uint256)": {
        "notice": "Seize tokens"
      },
      "sweep(address,address,uint256)": {
        "notice": "ERC20 recovery in case of stuck tokens due direct transfers to the contract address."
      },
      "symbol()": {
        "notice": "The symbol of the token"
      },
      "toggleIsActive()": {
        "notice": "Enable/Disable the Deposit Token"
      },
      "transfer(address,uint256)": {
        "notice": "Move `amount` tokens from the caller's account to `recipient`"
      },
      "transferFrom(address,address,uint256)": {
        "notice": "Move `amount` tokens from `sender` to `recipient` using the allowance mechanism. `amount` is then deducted from the caller's allowance"
      },
      "underlying()": {
        "notice": "Deposit underlying asset (e.g. MET)"
      },
      "unlockedBalanceOf(address)": {
        "notice": "Get the unlocked balance (i.e. transferable, withdrawable)"
      },
      "updateCollateralizationRatio(uint128)": {
        "notice": "Update collateralization ratio"
      },
      "updateMaxTotalSupply(uint256)": {
        "notice": "Update max total supply"
      },
      "withdraw(uint256,address)": {
        "notice": "Burn msdTOKEN and withdraw collateral"
      }
    },
    "version": 1
  },
  "storageLayout": {
    "storage": [
      {
        "astId": 7177,
        "contract": "contracts/DepositToken.sol:DepositToken",
        "label": "_initialized",
        "offset": 0,
        "slot": "0",
        "type": "t_bool"
      },
      {
        "astId": 7180,
        "contract": "contracts/DepositToken.sol:DepositToken",
        "label": "_initializing",
        "offset": 1,
        "slot": "0",
        "type": "t_bool"
      },
      {
        "astId": 7231,
        "contract": "contracts/DepositToken.sol:DepositToken",
        "label": "_status",
        "offset": 0,
        "slot": "1",
        "type": "t_uint256"
      },
      {
        "astId": 6148,
        "contract": "contracts/DepositToken.sol:DepositToken",
        "label": "pool",
        "offset": 0,
        "slot": "2",
        "type": "t_contract(IPool)11091"
      },
      {
        "astId": 6256,
        "contract": "contracts/DepositToken.sol:DepositToken",
        "label": "__gap",
        "offset": 0,
        "slot": "3",
        "type": "t_array(t_uint256)49_storage"
      },
      {
        "astId": 13004,
        "contract": "contracts/DepositToken.sol:DepositToken",
        "label": "balanceOf",
        "offset": 0,
        "slot": "52",
        "type": "t_mapping(t_address,t_uint256)"
      },
      {
        "astId": 13011,
        "contract": "contracts/DepositToken.sol:DepositToken",
        "label": "allowance",
        "offset": 0,
        "slot": "53",
        "type": "t_mapping(t_address,t_mapping(t_address,t_uint256))"
      },
      {
        "astId": 13016,
        "contract": "contracts/DepositToken.sol:DepositToken",
        "label": "lastDepositOf",
        "offset": 0,
        "slot": "54",
        "type": "t_mapping(t_address,t_uint256)"
      },
      {
        "astId": 13019,
        "contract": "contracts/DepositToken.sol:DepositToken",
        "label": "name",
        "offset": 0,
        "slot": "55",
        "type": "t_string_storage"
      },
      {
        "astId": 13022,
        "contract": "contracts/DepositToken.sol:DepositToken",
        "label": "symbol",
        "offset": 0,
        "slot": "56",
        "type": "t_string_storage"
      },
      {
        "astId": 13025,
        "contract": "contracts/DepositToken.sol:DepositToken",
        "label": "totalSupply",
        "offset": 0,
        "slot": "57",
        "type": "t_uint256"
      },
      {
        "astId": 13028,
        "contract": "contracts/DepositToken.sol:DepositToken",
        "label": "maxTotalSupply",
        "offset": 0,
        "slot": "58",
        "type": "t_uint256"
      },
      {
        "astId": 13031,
        "contract": "contracts/DepositToken.sol:DepositToken",
        "label": "collateralizationRatio",
        "offset": 0,
        "slot": "59",
        "type": "t_uint256"
      },
      {
        "astId": 13035,
        "contract": "contracts/DepositToken.sol:DepositToken",
        "label": "underlying",
        "offset": 0,
        "slot": "60",
        "type": "t_contract(IERC20)7886"
      },
      {
        "astId": 13038,
        "contract": "contracts/DepositToken.sol:DepositToken",
        "label": "isActive",
        "offset": 20,
        "slot": "60",
        "type": "t_bool"
      },
      {
        "astId": 13041,
        "contract": "contracts/DepositToken.sol:DepositToken",
        "label": "decimals",
        "offset": 21,
        "slot": "60",
        "type": "t_uint8"
      }
    ],
    "types": {
      "t_address": {
        "encoding": "inplace",
        "label": "address",
        "numberOfBytes": "20"
      },
      "t_array(t_uint256)49_storage": {
        "base": "t_uint256",
        "encoding": "inplace",
        "label": "uint256[49]",
        "numberOfBytes": "1568"
      },
      "t_bool": {
        "encoding": "inplace",
        "label": "bool",
        "numberOfBytes": "1"
      },
      "t_contract(IERC20)7886": {
        "encoding": "inplace",
        "label": "contract IERC20",
        "numberOfBytes": "20"
      },
      "t_contract(IPool)11091": {
        "encoding": "inplace",
        "label": "contract IPool",
        "numberOfBytes": "20"
      },
      "t_mapping(t_address,t_mapping(t_address,t_uint256))": {
        "encoding": "mapping",
        "key": "t_address",
        "label": "mapping(address => mapping(address => uint256))",
        "numberOfBytes": "32",
        "value": "t_mapping(t_address,t_uint256)"
      },
      "t_mapping(t_address,t_uint256)": {
        "encoding": "mapping",
        "key": "t_address",
        "label": "mapping(address => uint256)",
        "numberOfBytes": "32",
        "value": "t_uint256"
      },
      "t_string_storage": {
        "encoding": "bytes",
        "label": "string",
        "numberOfBytes": "32"
      },
      "t_uint256": {
        "encoding": "inplace",
        "label": "uint256",
        "numberOfBytes": "32"
      },
      "t_uint8": {
        "encoding": "inplace",
        "label": "uint8",
        "numberOfBytes": "1"
      }
    }
  }
}