{
  "address": "0x04c3af72fa9F45D37228BE8801bC5d2a4410521a",
  "abi": [
    {
      "inputs": [],
      "name": "AmountExceedsAllowance",
      "type": "error"
    },
    {
      "inputs": [],
      "name": "AmountIsZero",
      "type": "error"
    },
    {
      "inputs": [],
      "name": "ApproveFromTheZeroAddress",
      "type": "error"
    },
    {
      "inputs": [],
      "name": "ApproveToTheZeroAddress",
      "type": "error"
    },
    {
      "inputs": [],
      "name": "BeneficiaryIsNull",
      "type": "error"
    },
    {
      "inputs": [],
      "name": "BurnAmountExceedsBalance",
      "type": "error"
    },
    {
      "inputs": [],
      "name": "BurnFromTheZeroAddress",
      "type": "error"
    },
    {
      "inputs": [],
      "name": "CollateralFactorTooHigh",
      "type": "error"
    },
    {
      "inputs": [],
      "name": "CollateralIsInexistent",
      "type": "error"
    },
    {
      "inputs": [],
      "name": "DecimalsIsNull",
      "type": "error"
    },
    {
      "inputs": [],
      "name": "DecreasedAllowanceBelowZero",
      "type": "error"
    },
    {
      "inputs": [],
      "name": "DepositTokenIsInactive",
      "type": "error"
    },
    {
      "inputs": [],
      "name": "FallbackIsNotAllowed",
      "type": "error"
    },
    {
      "inputs": [],
      "name": "IsPaused",
      "type": "error"
    },
    {
      "inputs": [],
      "name": "IsShutdown",
      "type": "error"
    },
    {
      "inputs": [],
      "name": "MintToTheZeroAddress",
      "type": "error"
    },
    {
      "inputs": [],
      "name": "NewValueIsSameAsCurrent",
      "type": "error"
    },
    {
      "inputs": [],
      "name": "NotEnoughFreeBalance",
      "type": "error"
    },
    {
      "inputs": [],
      "name": "PoolAddressIsNull",
      "type": "error"
    },
    {
      "inputs": [],
      "name": "PoolIsNull",
      "type": "error"
    },
    {
      "inputs": [],
      "name": "ReceiveIsNotAllowed",
      "type": "error"
    },
    {
      "inputs": [],
      "name": "RecipientIsNull",
      "type": "error"
    },
    {
      "inputs": [],
      "name": "SenderIsNotGovernor",
      "type": "error"
    },
    {
      "inputs": [],
      "name": "SenderIsNotPool",
      "type": "error"
    },
    {
      "inputs": [],
      "name": "SurpassMaxDepositSupply",
      "type": "error"
    },
    {
      "inputs": [],
      "name": "SymbolIsNull",
      "type": "error"
    },
    {
      "inputs": [],
      "name": "TransferAmountExceedsBalance",
      "type": "error"
    },
    {
      "inputs": [],
      "name": "TransferFromTheZeroAddress",
      "type": "error"
    },
    {
      "inputs": [],
      "name": "TransferToTheZeroAddress",
      "type": "error"
    },
    {
      "inputs": [],
      "name": "UnderlyingAssetIsNull",
      "type": "error"
    },
    {
      "anonymous": false,
      "inputs": [
        {
          "indexed": true,
          "internalType": "address",
          "name": "owner",
          "type": "address"
        },
        {
          "indexed": true,
          "internalType": "address",
          "name": "spender",
          "type": "address"
        },
        {
          "indexed": false,
          "internalType": "uint256",
          "name": "value",
          "type": "uint256"
        }
      ],
      "name": "Approval",
      "type": "event"
    },
    {
      "anonymous": false,
      "inputs": [
        {
          "indexed": true,
          "internalType": "address",
          "name": "from",
          "type": "address"
        },
        {
          "indexed": true,
          "internalType": "address",
          "name": "account",
          "type": "address"
        },
        {
          "indexed": false,
          "internalType": "uint256",
          "name": "amount",
          "type": "uint256"
        },
        {
          "indexed": false,
          "internalType": "uint256",
          "name": "deposited",
          "type": "uint256"
        },
        {
          "indexed": false,
          "internalType": "uint256",
          "name": "fee",
          "type": "uint256"
        }
      ],
      "name": "CollateralDeposited",
      "type": "event"
    },
    {
      "anonymous": false,
      "inputs": [
        {
          "indexed": false,
          "internalType": "uint256",
          "name": "oldCollateralFactor",
          "type": "uint256"
        },
        {
          "indexed": false,
          "internalType": "uint256",
          "name": "newCollateralFactor",
          "type": "uint256"
        }
      ],
      "name": "CollateralFactorUpdated",
      "type": "event"
    },
    {
      "anonymous": false,
      "inputs": [
        {
          "indexed": true,
          "internalType": "address",
          "name": "account",
          "type": "address"
        },
        {
          "indexed": true,
          "internalType": "address",
          "name": "to",
          "type": "address"
        },
        {
          "indexed": false,
          "internalType": "uint256",
          "name": "amount",
          "type": "uint256"
        },
        {
          "indexed": false,
          "internalType": "uint256",
          "name": "withdrawn",
          "type": "uint256"
        },
        {
          "indexed": false,
          "internalType": "uint256",
          "name": "fee",
          "type": "uint256"
        }
      ],
      "name": "CollateralWithdrawn",
      "type": "event"
    },
    {
      "anonymous": false,
      "inputs": [
        {
          "indexed": false,
          "internalType": "bool",
          "name": "newActive",
          "type": "bool"
        }
      ],
      "name": "DepositTokenActiveUpdated",
      "type": "event"
    },
    {
      "anonymous": false,
      "inputs": [
        {
          "indexed": false,
          "internalType": "uint256",
          "name": "oldMaxTotalSupply",
          "type": "uint256"
        },
        {
          "indexed": false,
          "internalType": "uint256",
          "name": "newMaxTotalSupply",
          "type": "uint256"
        }
      ],
      "name": "MaxTotalSupplyUpdated",
      "type": "event"
    },
    {
      "anonymous": false,
      "inputs": [
        {
          "indexed": true,
          "internalType": "address",
          "name": "from",
          "type": "address"
        },
        {
          "indexed": true,
          "internalType": "address",
          "name": "to",
          "type": "address"
        },
        {
          "indexed": false,
          "internalType": "uint256",
          "name": "value",
          "type": "uint256"
        }
      ],
      "name": "Transfer",
      "type": "event"
    },
    {
      "stateMutability": "payable",
      "type": "fallback"
    },
    {
      "inputs": [],
      "name": "VERSION",
      "outputs": [
        {
          "internalType": "string",
          "name": "",
          "type": "string"
        }
      ],
      "stateMutability": "view",
      "type": "function"
    },
    {
      "inputs": [
        {
          "internalType": "address",
          "name": "",
          "type": "address"
        },
        {
          "internalType": "address",
          "name": "",
          "type": "address"
        }
      ],
      "name": "allowance",
      "outputs": [
        {
          "internalType": "uint256",
          "name": "",
          "type": "uint256"
        }
      ],
      "stateMutability": "view",
      "type": "function"
    },
    {
      "inputs": [
        {
          "internalType": "address",
          "name": "spender_",
          "type": "address"
        },
        {
          "internalType": "uint256",
          "name": "amount_",
          "type": "uint256"
        }
      ],
      "name": "approve",
      "outputs": [
        {
          "internalType": "bool",
          "name": "",
          "type": "bool"
        }
      ],
      "stateMutability": "nonpayable",
      "type": "function"
    },
    {
      "inputs": [
        {
          "internalType": "address",
          "name": "",
          "type": "address"
        }
      ],
      "name": "balanceOf",
      "outputs": [
        {
          "internalType": "uint256",
          "name": "",
          "type": "uint256"
        }
      ],
      "stateMutability": "view",
      "type": "function"
    },
    {
      "inputs": [],
      "name": "collateralFactor",
      "outputs": [
        {
          "internalType": "uint256",
          "name": "",
          "type": "uint256"
        }
      ],
      "stateMutability": "view",
      "type": "function"
    },
    {
      "inputs": [],
      "name": "decimals",
      "outputs": [
        {
          "internalType": "uint8",
          "name": "",
          "type": "uint8"
        }
      ],
      "stateMutability": "view",
      "type": "function"
    },
    {
      "inputs": [
        {
          "internalType": "address",
          "name": "spender_",
          "type": "address"
        },
        {
          "internalType": "uint256",
          "name": "subtractedValue_",
          "type": "uint256"
        }
      ],
      "name": "decreaseAllowance",
      "outputs": [
        {
          "internalType": "bool",
          "name": "",
          "type": "bool"
        }
      ],
      "stateMutability": "nonpayable",
      "type": "function"
    },
    {
      "inputs": [
        {
          "internalType": "uint256",
          "name": "amount_",
          "type": "uint256"
        },
        {
          "internalType": "address",
          "name": "onBehalfOf_",
          "type": "address"
        }
      ],
      "name": "deposit",
      "outputs": [
        {
          "internalType": "uint256",
          "name": "_deposited",
          "type": "uint256"
        },
        {
          "internalType": "uint256",
          "name": "_fee",
          "type": "uint256"
        }
      ],
      "stateMutability": "nonpayable",
      "type": "function"
    },
    {
      "inputs": [],
      "name": "governor",
      "outputs": [
        {
          "internalType": "address",
          "name": "_governor",
          "type": "address"
        }
      ],
      "stateMutability": "view",
      "type": "function"
    },
    {
      "inputs": [
        {
          "internalType": "address",
          "name": "spender_",
          "type": "address"
        },
        {
          "internalType": "uint256",
          "name": "addedValue_",
          "type": "uint256"
        }
      ],
      "name": "increaseAllowance",
      "outputs": [
        {
          "internalType": "bool",
          "name": "",
          "type": "bool"
        }
      ],
      "stateMutability": "nonpayable",
      "type": "function"
    },
    {
      "inputs": [
        {
          "internalType": "contract IERC20",
          "name": "underlying_",
          "type": "address"
        },
        {
          "internalType": "contract IPool",
          "name": "pool_",
          "type": "address"
        },
        {
          "internalType": "string",
          "name": "name_",
          "type": "string"
        },
        {
          "internalType": "string",
          "name": "symbol_",
          "type": "string"
        },
        {
          "internalType": "uint8",
          "name": "decimals_",
          "type": "uint8"
        },
        {
          "internalType": "uint128",
          "name": "collateralFactor_",
          "type": "uint128"
        },
        {
          "internalType": "uint256",
          "name": "maxTotalSupply_",
          "type": "uint256"
        }
      ],
      "name": "initialize",
      "outputs": [],
      "stateMutability": "nonpayable",
      "type": "function"
    },
    {
      "inputs": [],
      "name": "isActive",
      "outputs": [
        {
          "internalType": "bool",
          "name": "",
          "type": "bool"
        }
      ],
      "stateMutability": "view",
      "type": "function"
    },
    {
      "inputs": [
        {
          "internalType": "address",
          "name": "account_",
          "type": "address"
        }
      ],
      "name": "lockedBalanceOf",
      "outputs": [
        {
          "internalType": "uint256",
          "name": "_lockedBalance",
          "type": "uint256"
        }
      ],
      "stateMutability": "view",
      "type": "function"
    },
    {
      "inputs": [],
      "name": "maxTotalSupply",
      "outputs": [
        {
          "internalType": "uint256",
          "name": "",
          "type": "uint256"
        }
      ],
      "stateMutability": "view",
      "type": "function"
    },
    {
      "inputs": [],
      "name": "name",
      "outputs": [
        {
          "internalType": "string",
          "name": "",
          "type": "string"
        }
      ],
      "stateMutability": "view",
      "type": "function"
    },
    {
      "inputs": [],
      "name": "pool",
      "outputs": [
        {
          "internalType": "contract IPool",
          "name": "",
          "type": "address"
        }
      ],
      "stateMutability": "view",
      "type": "function"
    },
    {
      "inputs": [
        {
          "internalType": "uint256",
          "name": "amountToDeposit_",
          "type": "uint256"
        }
      ],
      "name": "quoteDepositIn",
      "outputs": [
        {
          "internalType": "uint256",
          "name": "_amount",
          "type": "uint256"
        },
        {
          "internalType": "uint256",
          "name": "_fee",
          "type": "uint256"
        }
      ],
      "stateMutability": "view",
      "type": "function"
    },
    {
      "inputs": [
        {
          "internalType": "uint256",
          "name": "amount_",
          "type": "uint256"
        }
      ],
      "name": "quoteDepositOut",
      "outputs": [
        {
          "internalType": "uint256",
          "name": "_amountToDeposit",
          "type": "uint256"
        },
        {
          "internalType": "uint256",
          "name": "_fee",
          "type": "uint256"
        }
      ],
      "stateMutability": "view",
      "type": "function"
    },
    {
      "inputs": [
        {
          "internalType": "uint256",
          "name": "amountToWithdraw_",
          "type": "uint256"
        }
      ],
      "name": "quoteWithdrawIn",
      "outputs": [
        {
          "internalType": "uint256",
          "name": "_amount",
          "type": "uint256"
        },
        {
          "internalType": "uint256",
          "name": "_fee",
          "type": "uint256"
        }
      ],
      "stateMutability": "view",
      "type": "function"
    },
    {
      "inputs": [
        {
          "internalType": "uint256",
          "name": "amount_",
          "type": "uint256"
        }
      ],
      "name": "quoteWithdrawOut",
      "outputs": [
        {
          "internalType": "uint256",
          "name": "_amountToWithdraw",
          "type": "uint256"
        },
        {
          "internalType": "uint256",
          "name": "_fee",
          "type": "uint256"
        }
      ],
      "stateMutability": "view",
      "type": "function"
    },
    {
      "inputs": [
        {
          "internalType": "address",
          "name": "from_",
          "type": "address"
        },
        {
          "internalType": "address",
          "name": "to_",
          "type": "address"
        },
        {
          "internalType": "uint256",
          "name": "amount_",
          "type": "uint256"
        }
      ],
      "name": "seize",
      "outputs": [],
      "stateMutability": "nonpayable",
      "type": "function"
    },
    {
      "inputs": [
        {
          "internalType": "contract IERC20",
          "name": "token_",
          "type": "address"
        },
        {
          "internalType": "address",
          "name": "to_",
          "type": "address"
        },
        {
          "internalType": "uint256",
          "name": "amount_",
          "type": "uint256"
        }
      ],
      "name": "sweep",
      "outputs": [],
      "stateMutability": "nonpayable",
      "type": "function"
    },
    {
      "inputs": [],
      "name": "symbol",
      "outputs": [
        {
          "internalType": "string",
          "name": "",
          "type": "string"
        }
      ],
      "stateMutability": "view",
      "type": "function"
    },
    {
      "inputs": [],
      "name": "toggleIsActive",
      "outputs": [],
      "stateMutability": "nonpayable",
      "type": "function"
    },
    {
      "inputs": [],
      "name": "totalSupply",
      "outputs": [
        {
          "internalType": "uint256",
          "name": "",
          "type": "uint256"
        }
      ],
      "stateMutability": "view",
      "type": "function"
    },
    {
      "inputs": [
        {
          "internalType": "address",
          "name": "to_",
          "type": "address"
        },
        {
          "internalType": "uint256",
          "name": "amount_",
          "type": "uint256"
        }
      ],
      "name": "transfer",
      "outputs": [
        {
          "internalType": "bool",
          "name": "",
          "type": "bool"
        }
      ],
      "stateMutability": "nonpayable",
      "type": "function"
    },
    {
      "inputs": [
        {
          "internalType": "address",
          "name": "sender_",
          "type": "address"
        },
        {
          "internalType": "address",
          "name": "recipient_",
          "type": "address"
        },
        {
          "internalType": "uint256",
          "name": "amount_",
          "type": "uint256"
        }
      ],
      "name": "transferFrom",
      "outputs": [
        {
          "internalType": "bool",
          "name": "",
          "type": "bool"
        }
      ],
      "stateMutability": "nonpayable",
      "type": "function"
    },
    {
      "inputs": [],
      "name": "underlying",
      "outputs": [
        {
          "internalType": "contract IERC20",
          "name": "",
          "type": "address"
        }
      ],
      "stateMutability": "view",
      "type": "function"
    },
    {
      "inputs": [
        {
          "internalType": "address",
          "name": "account_",
          "type": "address"
        }
      ],
      "name": "unlockedBalanceOf",
      "outputs": [
        {
          "internalType": "uint256",
          "name": "_unlockedBalance",
          "type": "uint256"
        }
      ],
      "stateMutability": "view",
      "type": "function"
    },
    {
      "inputs": [
        {
          "internalType": "uint128",
          "name": "newCollateralFactor_",
          "type": "uint128"
        }
      ],
      "name": "updateCollateralFactor",
      "outputs": [],
      "stateMutability": "nonpayable",
      "type": "function"
    },
    {
      "inputs": [
        {
          "internalType": "uint256",
          "name": "newMaxTotalSupply_",
          "type": "uint256"
        }
      ],
      "name": "updateMaxTotalSupply",
      "outputs": [],
      "stateMutability": "nonpayable",
      "type": "function"
    },
    {
      "inputs": [
        {
          "internalType": "uint256",
          "name": "amount_",
          "type": "uint256"
        },
        {
          "internalType": "address",
          "name": "to_",
          "type": "address"
        }
      ],
      "name": "withdraw",
      "outputs": [
        {
          "internalType": "uint256",
          "name": "_withdrawn",
          "type": "uint256"
        },
        {
          "internalType": "uint256",
          "name": "_fee",
          "type": "uint256"
        }
      ],
      "stateMutability": "nonpayable",
      "type": "function"
    },
    {
      "stateMutability": "payable",
      "type": "receive"
    }
  ],
  "transactionHash": "0x2411dd82eb6f1ea5f0376b9dbe564fa0b244f113e78a6f2672b0d64261a106ec",
  "args": [],
  "numDeployments": 2,
  "solcInputHash": "23d8f9f96a6eb0ccf1492c78a903110c",
  "bytecode": "0x608060405234801561001057600080fd5b50613103806100206000396000f3fe6080604052600436106101e65760003560e01c80636f307dc311610102578063a9059cbb11610095578063dd62ed3e11610064578063dd62ed3e146105dd578063df011c4114610615578063ffa1ad741461062b578063ffc0e17e1461065c57610204565b8063a9059cbb14610568578063b2a02ff114610588578063d2593329146105a8578063d538a303146105bd57610204565b8063857adc46116100d1578063857adc46146104f357806385f1b90a1461051357806395d89b4114610533578063a457c2d71461054857610204565b80636f307dc31461046657806370a082311461048657806382dbc795146104b357806384955c88146104d357610204565b806323b872dd1161017a578063542778801161014957806354277880146103e6578063593557361461040657806362c06767146104265780636e553f651461044657610204565b806323b872dd1461035d5780632ab4d0521461037d578063313ce5671461039357806339509351146103c657610204565b806316f0115b116101b657806316f0115b146102d6578063172f50a4146102f657806318160ddd1461031857806322f3e2d41461033c57610204565b8062f714ce1461021d57806306fdde0314610257578063095ea7b3146102795780630c340a24146102a957610204565b3661020457604051636436c22d60e11b815260040160405180910390fd5b60405163a0152e6360e01b815260040160405180910390fd5b34801561022957600080fd5b5061023d610238366004612b06565b61067c565b604080519283526020830191909152015b60405180910390f35b34801561026357600080fd5b5061026c610a34565b60405161024e9190612b62565b34801561028557600080fd5b50610299610294366004612b95565b610ac2565b604051901515815260200161024e565b3480156102b557600080fd5b506102be610ad9565b6040516001600160a01b03909116815260200161024e565b3480156102e257600080fd5b506002546102be906001600160a01b031681565b34801561030257600080fd5b50610316610311366004612bc1565b610b5b565b005b34801561032457600080fd5b5061032e60385481565b60405190815260200161024e565b34801561034857600080fd5b50603b5461029990600160a01b900460ff1681565b34801561036957600080fd5b50610299610378366004612bda565b610bf7565b34801561038957600080fd5b5061032e60395481565b34801561039f57600080fd5b50603b546103b490600160a81b900460ff1681565b60405160ff909116815260200161024e565b3480156103d257600080fd5b506102996103e1366004612b95565b610cc2565b3480156103f257600080fd5b5061023d610401366004612bc1565b610cfe565b34801561041257600080fd5b5061032e610421366004612c1b565b610e25565b34801561043257600080fd5b50610316610441366004612bda565b610e53565b34801561045257600080fd5b5061023d610461366004612b06565b610e8c565b34801561047257600080fd5b50603b546102be906001600160a01b031681565b34801561049257600080fd5b5061032e6104a1366004612c1b565b60346020526000908152604090205481565b3480156104bf57600080fd5b506103166104ce366004612c54565b6112d6565b3480156104df57600080fd5b5061032e6104ee366004612c1b565b6113be565b3480156104ff57600080fd5b5061023d61050e366004612bc1565b6115c2565b34801561051f57600080fd5b5061023d61052e366004612bc1565b6116fb565b34801561053f57600080fd5b5061026c6117be565b34801561055457600080fd5b50610299610563366004612b95565b6117cb565b34801561057457600080fd5b50610299610583366004612b95565b611827565b34801561059457600080fd5b506103166105a3366004612bda565b61186a565b3480156105b457600080fd5b506103166118a0565b3480156105c957600080fd5b5061023d6105d8366004612bc1565b61193a565b3480156105e957600080fd5b5061032e6105f8366004612c6f565b603560209081526000928352604080842090915290825290205481565b34801561062157600080fd5b5061032e603a5481565b34801561063757600080fd5b5061026c604051806040016040528060058152602001640312e312e360dc1b81525081565b34801561066857600080fd5b50610316610677366004612ce6565b6119fd565b600080600260009054906101000a90046001600160a01b03166001600160a01b031663ecf3a3f96040518163ffffffff1660e01b815260040160206040518083038186803b1580156106cd57600080fd5b505afa1580156106e1573d6000803e3d6000fd5b505050506040513d601f19601f820116820180604052508101906107059190612dbc565b1561072357604051631b0e923f60e11b815260040160405180910390fd5b6002600154141561074f5760405162461bcd60e51b815260040161074690612dd7565b60405180910390fd5b6002600181905554604051633e25dee160e21b81523060048201526001600160a01b039091169063f8977b849060240160206040518083038186803b15801561079757600080fd5b505afa1580156107ab573d6000803e3d6000fd5b505050506040513d601f19601f820116820180604052508101906107cf9190612dbc565b6107ec57604051630620bddd60e21b815260040160405180910390fd5b3384806107f8836113be565b101561081757604051631af903f160e11b815260040160405180910390fd5b6001600160a01b03851661083e57604051634c96446b60e01b815260040160405180910390fd5b8561085c576040516310eb483f60e21b815260040160405180910390fd5b6002546001600160a01b03166108718761193a565b909550935083156108f7576108f733826001600160a01b031663c415b95c6040518163ffffffff1660e01b815260040160206040518083038186803b1580156108b957600080fd5b505afa1580156108cd573d6000803e3d6000fd5b505050506040513d601f19601f820116820180604052508101906108f19190612e19565b86611ba6565b6109013386611ed3565b806001600160a01b03166361d027b36040518163ffffffff1660e01b815260040160206040518083038186803b15801561093a57600080fd5b505afa15801561094e573d6000803e3d6000fd5b505050506040513d601f19601f820116820180604052508101906109729190612e19565b60405163f2d5d56b60e01b81526001600160a01b03888116600483015260248201889052919091169063f2d5d56b90604401600060405180830381600087803b1580156109be57600080fd5b505af11580156109d2573d6000803e3d6000fd5b5050604080518a8152602081018990529081018790526001600160a01b03891692503391507f900e8de8e8718a6bde86415bf9b8c70e1a4f744314eaef5c60b0705a271035d69060600160405180910390a35050600180555090939092509050565b60368054610a4190612e36565b80601f0160208091040260200160405190810160405280929190818152602001828054610a6d90612e36565b8015610aba5780601f10610a8f57610100808354040283529160200191610aba565b820191906000526020600020905b815481529060010190602001808311610a9d57829003601f168201915b505050505081565b6000610acf33848461213b565b5060015b92915050565b6002546040805163030d028960e21b815290516000926001600160a01b031691630c340a24916004808301926020929190829003018186803b158015610b1e57600080fd5b505afa158015610b32573d6000803e3d6000fd5b505050506040513d601f19601f82011682018060405250810190610b569190612e19565b905090565b610b63610ad9565b6001600160a01b0316336001600160a01b031614610b9457604051634b98449160e11b815260040160405180910390fd5b60395481811415610bb857604051630333a68160e41b815260040160405180910390fd5b60408051828152602081018490527fc58cd6132bb46df23d468939c03dd023b74b509aaa6b04c39d5a6461c65963bd910160405180910390a150603955565b600060026001541415610c1c5760405162461bcd60e51b815260040161074690612dd7565b6002600155838280610c2d836113be565b1015610c4c57604051631af903f160e11b815260040160405180910390fd5b6001600160a01b03861660009081526035602090815260408083203384529091529020546000198114610ca75784811015610c9a576040516303814af160e61b815260040160405180910390fd5b610ca7873387840361213b565b610cb2878787611ba6565b5050600180805595945050505050565b3360008181526035602090815260408083206001600160a01b03871684529091528120549091610acf918590610cf9908690612e87565b61213b565b6000806000600260009054906101000a90046001600160a01b03166001600160a01b0316634066fdea6040518163ffffffff1660e01b815260040160206040518083038186803b158015610d5157600080fd5b505afa158015610d65573d6000803e3d6000fd5b505050506040513d601f19601f82011682018060405250810190610d899190612e19565b6001600160a01b03166367a527936040518163ffffffff1660e01b815260040160206040518083038186803b158015610dc157600080fd5b505afa158015610dd5573d6000803e3d6000fd5b505050506040513d601f19601f82011682018060405250810190610df99190612e9f565b905080610e07575091929050565b610e1184826121ea565b9150610e1d8285612eb8565b925050915091565b6000610e30826113be565b6001600160a01b0390921660009081526034602052604090205491909103919050565b610e5b61223d565b6001600160a01b038316610e7857610e738282612278565b505050565b610e736001600160a01b0384168383612391565b600080600260009054906101000a90046001600160a01b03166001600160a01b0316635c975abb6040518163ffffffff1660e01b815260040160206040518083038186803b158015610edd57600080fd5b505afa158015610ef1573d6000803e3d6000fd5b505050506040513d601f19601f82011682018060405250810190610f159190612dbc565b15610f3357604051631309a56360e01b815260040160405180910390fd5b60026001541415610f565760405162461bcd60e51b815260040161074690612dd7565b6002600181905554604051633e25dee160e21b81523060048201526001600160a01b039091169063f8977b849060240160206040518083038186803b158015610f9e57600080fd5b505afa158015610fb2573d6000803e3d6000fd5b505050506040513d601f19601f82011682018060405250810190610fd69190612dbc565b610ff357604051630620bddd60e21b815260040160405180910390fd5b83611011576040516310eb483f60e21b815260040160405180910390fd5b6001600160a01b0383166110385760405163639c77e360e01b815260040160405180910390fd5b600254603b54604080516361d027b360e01b815290516001600160a01b03938416939092169160009184916361d027b391600480820192602092909190829003018186803b15801561108957600080fd5b505afa15801561109d573d6000803e3d6000fd5b505050506040513d601f19601f820116820180604052508101906110c19190612e19565b6040516370a0823160e01b81526001600160a01b0380831660048301529192506000918416906370a082319060240160206040518083038186803b15801561110857600080fd5b505afa15801561111c573d6000803e3d6000fd5b505050506040513d601f19601f820116820180604052508101906111409190612e9f565b90506111576001600160a01b03841633848b6123f4565b6040516370a0823160e01b81526001600160a01b0383811660048301528291908516906370a082319060240160206040518083038186803b15801561119b57600080fd5b505afa1580156111af573d6000803e3d6000fd5b505050506040513d601f19601f820116820180604052508101906111d39190612e9f565b6111dd9190612eb8565b97506111e888610cfe565b9096509450841561126d5761126d846001600160a01b031663c415b95c6040518163ffffffff1660e01b815260040160206040518083038186803b15801561122f57600080fd5b505afa158015611243573d6000803e3d6000fd5b505050506040513d601f19601f820116820180604052508101906112679190612e19565b86612432565b6112778787612432565b60408051898152602081018890529081018690526001600160a01b0388169033907f7e387d4929067a5275d9dee7be89865d22cdc9d73f817ad152814a729ba6755e9060600160405180910390a3505060018055509194909350915050565b6112de610ad9565b6001600160a01b0316336001600160a01b03161461130f57604051634b98449160e11b815260040160405180910390fd5b670de0b6b3a7640000816001600160801b0316111561134157604051639479a57160e01b815260040160405180910390fd5b603a546001600160801b03821681141561136e57604051630333a68160e41b815260040160405180910390fd5b604080518281526001600160801b03841660208201527f3b24ab397256b6bca0533c0889430820655a41fa639e1868bcc25404634d6024910160405180910390a1506001600160801b0316603a55565b60025460405163dde3ab9560e01b81526001600160a01b038381166004830152600092169082908190839063dde3ab959060240160a06040518083038186803b15801561140a57600080fd5b505afa15801561141e573d6000803e3d6000fd5b505050506040513d601f19601f820116820180604052508101906114429190612ecf565b94505093505050816000141561147157505050506001600160a01b031660009081526034602052604090205490565b80156115ba576115b760346000876001600160a01b03166001600160a01b0316815260200190815260200160002054846001600160a01b031663eaada3826040518163ffffffff1660e01b815260040160206040518083038186803b1580156114d957600080fd5b505afa1580156114ed573d6000803e3d6000fd5b505050506040513d601f19601f820116820180604052508101906115119190612e19565b603b54603a546001600160a01b039283169263b5e9bef59216906115369087906126b9565b6040516001600160e01b031960e085901b1681526001600160a01b039092166004830152602482015260440160206040518083038186803b15801561157a57600080fd5b505afa15801561158e573d6000803e3d6000fd5b505050506040513d601f19601f820116820180604052508101906115b29190612e9f565b6126d9565b93505b505050919050565b6000806000600260009054906101000a90046001600160a01b03166001600160a01b0316634066fdea6040518163ffffffff1660e01b815260040160206040518083038186803b15801561161557600080fd5b505afa158015611629573d6000803e3d6000fd5b505050506040513d601f19601f8201168201806040525081019061164d9190612e19565b6001600160a01b03166367a527936040518163ffffffff1660e01b815260040160206040518083038186803b15801561168557600080fd5b505afa158015611699573d6000803e3d6000fd5b505050506040513d601f19601f820116820180604052508101906116bd9190612e9f565b9050806116cb575091929050565b6116e76116e082670de0b6b3a7640000612eb8565b85906126b9565b92506116f38484612eb8565b915050915091565b6000806000600260009054906101000a90046001600160a01b03166001600160a01b0316634066fdea6040518163ffffffff1660e01b815260040160206040518083038186803b15801561174e57600080fd5b505afa158015611762573d6000803e3d6000fd5b505050506040513d601f19601f820116820180604052508101906117869190612e19565b6001600160a01b031663e941fa786040518163ffffffff1660e01b815260040160206040518083038186803b15801561168557600080fd5b60378054610a4190612e36565b3360009081526035602090815260408083206001600160a01b0386168452909152812054828110156118105760405163189dd6af60e31b815260040160405180910390fd5b61181d338585840361213b565b5060019392505050565b6000338280611835836113be565b101561185457604051631af903f160e11b815260040160405180910390fd5b61185f338686611ba6565b506001949350505050565b6002546001600160a01b031633146118955760405163531f2aa960e11b815260040160405180910390fd5b610e73838383611ba6565b6118a8610ad9565b6001600160a01b0316336001600160a01b0316146118d957604051634b98449160e11b815260040160405180910390fd5b603b54604051600160a01b90910460ff1615808252907fb2f86f872205a47e0890262c11c93dba2270b3f079ada3dbe9cb6f755f4ddc9f9060200160405180910390a1603b8054911515600160a01b0260ff60a01b19909216919091179055565b6000806000600260009054906101000a90046001600160a01b03166001600160a01b0316634066fdea6040518163ffffffff1660e01b815260040160206040518083038186803b15801561198d57600080fd5b505afa1580156119a1573d6000803e3d6000fd5b505050506040513d601f19601f820116820180604052508101906119c59190612e19565b6001600160a01b031663e941fa786040518163ffffffff1660e01b815260040160206040518083038186803b158015610dc157600080fd5b600054610100900460ff1680611a16575060005460ff16155b611a325760405162461bcd60e51b815260040161074690612f16565b600054610100900460ff16158015611a54576000805461ffff19166101011790555b6001600160a01b038a16611a7b57604051630d63ca0f60e41b815260040160405180910390fd5b6001600160a01b038916611aa257604051633cb1fb1f60e11b815260040160405180910390fd5b84611ac0576040516330507cff60e11b815260040160405180910390fd5b60ff8416611ae157604051634dc4784160e11b815260040160405180910390fd5b670de0b6b3a7640000836001600160801b03161115611b1357604051639479a57160e01b815260040160405180910390fd5b611b1b6126ef565b611b248961275f565b611b3060368989612a58565b50611b3d60378787612a58565b50603b805460ff8616600160a81b0260ff60a81b196001600160a81b03199092166001600160a01b038e1617600160a01b17919091161790556001600160801b038316603a5560398290558015611b9a576000805461ff00191690555b50505050505050505050565b82826000600260009054906101000a90046001600160a01b03166001600160a01b0316633605b51b6040518163ffffffff1660e01b815260040160006040518083038186803b158015611bf857600080fd5b505afa158015611c0c573d6000803e3d6000fd5b505050506040513d6000823e601f3d908101601f19168201604052611c349190810190612f7a565b805190915060005b81811015611cdc57828181518110611c5657611c5661303f565b602090810291909101015160405163058bd91d60e51b81523060048201526001600160a01b03878116602483015286811660448301529091169063b17b23a090606401600060405180830381600087803b158015611cb357600080fd5b505af1158015611cc7573d6000803e3d6000fd5b5050505080611cd590613055565b9050611c3c565b506001600160a01b038716611d0457604051630240531760e41b815260040160405180910390fd5b6001600160a01b038616611d2b5760405163671d1add60e11b815260040160405180910390fd5b6001600160a01b03871660009081526034602052604090205485811015611d6557604051635dd58b8b60e01b815260040160405180910390fd5b6001600160a01b0387811660008181526034602090815260408083208054958e168085528285208d890390559385905280548c019055518a81527fddf252ad1be2c89b69c2b068fc378daa952ba7f163c4a11628f55a4df523b3ef910160405180910390a380158015611dd85750600087115b15611e3d57600254604051633f5fc13160e01b81526001600160a01b038a8116600483015290911690633f5fc13190602401600060405180830381600087803b158015611e2457600080fd5b505af1158015611e38573d6000803e3d6000fd5b505050505b600087118015611e6357506001600160a01b038916600090815260346020526040902054155b15611ec857600254604051630275038d60e41b81526001600160a01b038b811660048301529091169063275038d090602401600060405180830381600087803b158015611eaf57600080fd5b505af1158015611ec3573d6000803e3d6000fd5b505050505b505050505050505050565b816000600260009054906101000a90046001600160a01b03166001600160a01b0316633605b51b6040518163ffffffff1660e01b815260040160006040518083038186803b158015611f2457600080fd5b505afa158015611f38573d6000803e3d6000fd5b505050506040513d6000823e601f3d908101601f19168201604052611f609190810190612f7a565b805190915060005b81811015611fff57828181518110611f8257611f8261303f565b6020908102919091010151604051626cc3c360e61b81523060048201526001600160a01b03868116602483015290911690631b30f0c090604401600060405180830381600087803b158015611fd657600080fd5b505af1158015611fea573d6000803e3d6000fd5b5050505080611ff890613055565b9050611f68565b506001600160a01b038516612027576040516304fca6bd60e41b815260040160405180910390fd5b6001600160a01b0385166000908152603460205260409020548481101561206157604051630bba337f60e11b815260040160405180910390fd5b6038805486900390556001600160a01b03861660008181526034602090815260408083208986039081905590518981529093917fddf252ad1be2c89b69c2b068fc378daa952ba7f163c4a11628f55a4df523b3ef910160405180910390a36000861180156120cd575080155b1561213257600254604051630275038d60e41b81526001600160a01b0389811660048301529091169063275038d090602401600060405180830381600087803b15801561211957600080fd5b505af115801561212d573d6000803e3d6000fd5b505050505b50505050505050565b6001600160a01b038316612162576040516356fdae6560e11b815260040160405180910390fd5b6001600160a01b0382166121895760405163b2fa1ef360e01b815260040160405180910390fd5b6001600160a01b0383811660008181526035602090815260408083209487168084529482529182902085905590518481527f8c5be1e5ebec7d5bd14f71427d1e84f3dd0314c0f7b2291e5b200ac8c7c3b925910160405180910390a3505050565b60008215806121f7575081155b1561220457506000610ad3565b670de0b6b3a7640000612218600282613070565b6122228486613092565b61222c9190612e87565b6122369190613070565b9392505050565b612245610ad9565b6001600160a01b0316336001600160a01b03161461227657604051634b98449160e11b815260040160405180910390fd5b565b804710156122c85760405162461bcd60e51b815260206004820152601d60248201527f416464726573733a20696e73756666696369656e742062616c616e63650000006044820152606401610746565b6000826001600160a01b03168260405160006040518083038185875af1925050503d8060008114612315576040519150601f19603f3d011682016040523d82523d6000602084013e61231a565b606091505b5050905080610e735760405162461bcd60e51b815260206004820152603a60248201527f416464726573733a20756e61626c6520746f2073656e642076616c75652c207260448201527f6563697069656e74206d617920686176652072657665727465640000000000006064820152608401610746565b6040516001600160a01b038316602482015260448101829052610e7390849063a9059cbb60e01b906064015b60408051601f198184030181529190526020810180516001600160e01b03166001600160e01b03199093169290921790915261280e565b6040516001600160a01b038085166024830152831660448201526064810182905261242c9085906323b872dd60e01b906084016123bd565b50505050565b603b54600160a01b900460ff1661245c57604051631b9245b960e11b815260040160405180910390fd5b816000600260009054906101000a90046001600160a01b03166001600160a01b0316633605b51b6040518163ffffffff1660e01b815260040160006040518083038186803b1580156124ad57600080fd5b505afa1580156124c1573d6000803e3d6000fd5b505050506040513d6000823e601f3d908101601f191682016040526124e99190810190612f7a565b805190915060005b818110156125885782818151811061250b5761250b61303f565b6020908102919091010151604051626cc3c360e61b81523060048201526001600160a01b03868116602483015290911690631b30f0c090604401600060405180830381600087803b15801561255f57600080fd5b505af1158015612573573d6000803e3d6000fd5b505050508061258190613055565b90506124f1565b506001600160a01b0385166125b05760405163c96c2a0b60e01b815260040160405180910390fd5b83603860008282546125c29190612e87565b909155505060395460385411156125ec57604051639cad93a160e01b815260040160405180910390fd5b6001600160a01b038516600081815260346020908152604080832080548981019091559051888152909392917fddf252ad1be2c89b69c2b068fc378daa952ba7f163c4a11628f55a4df523b3ef910160405180910390a3801580156126515750600085115b156126b157600254604051633f5fc13160e01b81526001600160a01b03888116600483015290911690633f5fc13190602401600060405180830381600087803b15801561269d57600080fd5b505af1158015611b9a573d6000803e3d6000fd5b505050505050565b6000816126c7600282613070565b612222670de0b6b3a764000086613092565b60008183106126e85781612236565b5090919050565b600054610100900460ff1680612708575060005460ff16155b6127245760405162461bcd60e51b815260040161074690612f16565b600054610100900460ff16158015612746576000805461ffff19166101011790555b60018055801561275c576000805461ff00191690555b50565b600054610100900460ff1680612778575060005460ff16155b6127945760405162461bcd60e51b815260040161074690612f16565b600054610100900460ff161580156127b6576000805461ffff19166101011790555b6001600160a01b0382166127dd5760405163724f500960e01b815260040160405180910390fd5b600280546001600160a01b0319166001600160a01b038416179055801561280a576000805461ff00191690555b5050565b6000612863826040518060400160405280602081526020017f5361666545524332303a206c6f772d6c6576656c2063616c6c206661696c6564815250856001600160a01b03166128e09092919063ffffffff16565b805190915015610e7357808060200190518101906128819190612dbc565b610e735760405162461bcd60e51b815260206004820152602a60248201527f5361666545524332303a204552433230206f7065726174696f6e20646964206e6044820152691bdd081cdd58d8d9595960b21b6064820152608401610746565b60606128ef84846000856128f7565b949350505050565b6060824710156129585760405162461bcd60e51b815260206004820152602660248201527f416464726573733a20696e73756666696369656e742062616c616e636520666f6044820152651c8818d85b1b60d21b6064820152608401610746565b843b6129a65760405162461bcd60e51b815260206004820152601d60248201527f416464726573733a2063616c6c20746f206e6f6e2d636f6e74726163740000006044820152606401610746565b600080866001600160a01b031685876040516129c291906130b1565b60006040518083038185875af1925050503d80600081146129ff576040519150601f19603f3d011682016040523d82523d6000602084013e612a04565b606091505b5091509150612a14828286612a1f565b979650505050505050565b60608315612a2e575081612236565b825115612a3e5782518084602001fd5b8160405162461bcd60e51b81526004016107469190612b62565b828054612a6490612e36565b90600052602060002090601f016020900481019282612a865760008555612acc565b82601f10612a9f5782800160ff19823516178555612acc565b82800160010185558215612acc579182015b82811115612acc578235825591602001919060010190612ab1565b50612ad8929150612adc565b5090565b5b80821115612ad85760008155600101612add565b6001600160a01b038116811461275c57600080fd5b60008060408385031215612b1957600080fd5b823591506020830135612b2b81612af1565b809150509250929050565b60005b83811015612b51578181015183820152602001612b39565b8381111561242c5750506000910152565b6020815260008251806020840152612b81816040850160208701612b36565b601f01601f19169190910160400192915050565b60008060408385031215612ba857600080fd5b8235612bb381612af1565b946020939093013593505050565b600060208284031215612bd357600080fd5b5035919050565b600080600060608486031215612bef57600080fd5b8335612bfa81612af1565b92506020840135612c0a81612af1565b929592945050506040919091013590565b600060208284031215612c2d57600080fd5b813561223681612af1565b80356001600160801b0381168114612c4f57600080fd5b919050565b600060208284031215612c6657600080fd5b61223682612c38565b60008060408385031215612c8257600080fd5b8235612c8d81612af1565b91506020830135612b2b81612af1565b60008083601f840112612caf57600080fd5b50813567ffffffffffffffff811115612cc757600080fd5b602083019150836020828501011115612cdf57600080fd5b9250929050565b600080600080600080600080600060e08a8c031215612d0457600080fd5b8935612d0f81612af1565b985060208a0135612d1f81612af1565b975060408a013567ffffffffffffffff80821115612d3c57600080fd5b612d488d838e01612c9d565b909950975060608c0135915080821115612d6157600080fd5b50612d6e8c828d01612c9d565b90965094505060808a013560ff81168114612d8857600080fd5b9250612d9660a08b01612c38565b915060c08a013590509295985092959850929598565b80518015158114612c4f57600080fd5b600060208284031215612dce57600080fd5b61223682612dac565b6020808252601f908201527f5265656e7472616e637947756172643a207265656e7472616e742063616c6c00604082015260600190565b8051612c4f81612af1565b600060208284031215612e2b57600080fd5b815161223681612af1565b600181811c90821680612e4a57607f821691505b60208210811415612e6b57634e487b7160e01b600052602260045260246000fd5b50919050565b634e487b7160e01b600052601160045260246000fd5b60008219821115612e9a57612e9a612e71565b500190565b600060208284031215612eb157600080fd5b5051919050565b600082821015612eca57612eca612e71565b500390565b600080600080600060a08688031215612ee757600080fd5b612ef086612dac565b602087015160408801516060890151608090990151929a91995097965090945092505050565b6020808252602e908201527f496e697469616c697a61626c653a20636f6e747261637420697320616c72656160408201526d191e481a5b9a5d1a585b1a5e995960921b606082015260800190565b634e487b7160e01b600052604160045260246000fd5b60006020808385031215612f8d57600080fd5b825167ffffffffffffffff80821115612fa557600080fd5b818501915085601f830112612fb957600080fd5b815181811115612fcb57612fcb612f64565b8060051b604051601f19603f83011681018181108582111715612ff057612ff0612f64565b60405291825284820192508381018501918883111561300e57600080fd5b938501935b828510156130335761302485612e0e565b84529385019392850192613013565b98975050505050505050565b634e487b7160e01b600052603260045260246000fd5b600060001982141561306957613069612e71565b5060010190565b60008261308d57634e487b7160e01b600052601260045260246000fd5b500490565b60008160001904831182151516156130ac576130ac612e71565b500290565b600082516130c3818460208701612b36565b919091019291505056fea2646970667358221220347ab47a57ba8e6c830a40aabcf6d53724262076d040fe7e466ea24dceaf834064736f6c63430008090033",
  "devdoc": {
    "kind": "dev",
    "methods": {
      "deposit(uint256,address)": {
        "params": {
          "amount_": "The amount of collateral tokens to deposit",
          "onBehalfOf_": "The account to deposit to"
        },
        "returns": {
          "_deposited": "The amount deposited after fees"
        }
      },
      "governor()": {
        "returns": {
          "_governor": "The governor"
        }
      },
      "lockedBalanceOf(address)": {
        "params": {
          "account_": "The account to check"
        },
        "returns": {
          "_lockedBalance": "The locked amount"
        }
      },
      "quoteDepositIn(uint256)": {
        "params": {
          "amountToDeposit_": "Collateral to deposit"
        },
        "returns": {
          "_amount": "Gross amount",
          "_fee": "Fee amount to collect"
        }
      },
      "quoteDepositOut(uint256)": {
        "params": {
          "amount_": "Gross amount"
        },
        "returns": {
          "_amountToDeposit": "Collateral to deposit",
          "_fee": "Fee amount to collect"
        }
      },
      "quoteWithdrawIn(uint256)": {
        "params": {
          "amountToWithdraw_": "Collateral to withdraw"
        },
        "returns": {
          "_amount": "Gross amount",
          "_fee": "Fee amount to collect"
        }
      },
      "quoteWithdrawOut(uint256)": {
        "params": {
          "amount_": "Gross amount"
        },
        "returns": {
          "_amountToWithdraw": "Collateral to withdraw",
          "_fee": "Fee amount to collect"
        }
      },
      "seize(address,address,uint256)": {
        "details": "Same as _transfer",
        "params": {
          "amount_": "The amount to seize",
          "from_": "The account to seize from",
          "to_": "The beneficiary account"
        }
      },
      "sweep(address,address,uint256)": {
        "params": {
          "amount_": "The amount to send",
          "to_": "The recipient of the transfer",
          "token_": "The token to transfer"
        }
      },
      "transfer(address,uint256)": {
        "details": "Moves `amount` tokens from the caller's account to `recipient`. Returns a boolean value indicating whether the operation succeeded. Emits a {Transfer} event."
      },
      "transferFrom(address,address,uint256)": {
        "details": "Moves `amount` tokens from `sender` to `recipient` using the allowance mechanism. `amount` is then deducted from the caller's allowance. Returns a boolean value indicating whether the operation succeeded. Emits a {Transfer} event."
      },
      "unlockedBalanceOf(address)": {
        "params": {
          "account_": "The account to check"
        },
        "returns": {
          "_unlockedBalance": "The amount that user can transfer or withdraw"
        }
      },
      "updateCollateralFactor(uint128)": {
        "params": {
          "newCollateralFactor_": "The new CF value"
        }
      },
      "updateMaxTotalSupply(uint256)": {
        "params": {
          "newMaxTotalSupply_": "The new max total supply"
        }
      },
      "withdraw(uint256,address)": {
        "params": {
          "amount_": "The amount of collateral to withdraw",
          "to_": "The account that will receive withdrawn collateral"
        },
        "returns": {
          "_withdrawn": "The amount withdrawn after fees"
        }
      }
    },
    "title": "Represents the users' deposits",
    "version": 1
  },
  "userdoc": {
    "events": {
      "CollateralDeposited(address,address,uint256,uint256,uint256)": {
        "notice": "Emitted when collateral is deposited"
      },
      "CollateralFactorUpdated(uint256,uint256)": {
        "notice": "Emitted when CF is updated"
      },
      "CollateralWithdrawn(address,address,uint256,uint256,uint256)": {
        "notice": "Emitted when collateral is withdrawn"
      },
      "DepositTokenActiveUpdated(bool)": {
        "notice": "Emitted when active flag is updated"
      },
      "MaxTotalSupplyUpdated(uint256,uint256)": {
        "notice": "Emitted when max total supply is updated"
      }
    },
    "kind": "user",
    "methods": {
      "approve(address,uint256)": {
        "notice": "Set `amount` as the allowance of `spender` over the caller's tokens"
      },
      "collateralFactor()": {
        "notice": "Collateral factor for the deposit token"
      },
      "decimals()": {
        "notice": "The decimals of the token"
      },
      "decreaseAllowance(address,uint256)": {
        "notice": "Atomically decrease the allowance granted to `spender` by the caller"
      },
      "deposit(uint256,address)": {
        "notice": "Deposit collateral and mint msdTOKEN (tokenized deposit position)"
      },
      "governor()": {
        "notice": "Get the governor"
      },
      "increaseAllowance(address,uint256)": {
        "notice": "Atomically increase the allowance granted to `spender` by the caller"
      },
      "isActive()": {
        "notice": "If a collateral isn't active, it disables minting new tokens"
      },
      "lockedBalanceOf(address)": {
        "notice": "Get the locked balance"
      },
      "maxTotalSupply()": {
        "notice": "The supply cap (in USD)"
      },
      "name()": {
        "notice": "The name of the token"
      },
      "pool()": {
        "notice": "Pool contract"
      },
      "quoteDepositIn(uint256)": {
        "notice": "Quote gross `_amount` to deposit `amountToDeposit_` collateral"
      },
      "quoteDepositOut(uint256)": {
        "notice": "Quote collateral `_amountToDeposit` by using gross `amount_`"
      },
      "quoteWithdrawIn(uint256)": {
        "notice": "Quote gross `_amount` to withdraw `amountToWithdraw_` collateral"
      },
      "quoteWithdrawOut(uint256)": {
        "notice": "Quote collateral `_amountToWithdraw` by using gross `_amount`"
      },
      "seize(address,address,uint256)": {
        "notice": "Seize tokens"
      },
      "sweep(address,address,uint256)": {
        "notice": "ERC20 recovery in case of stuck tokens due direct transfers to the contract address."
      },
      "symbol()": {
        "notice": "The symbol of the token"
      },
      "toggleIsActive()": {
        "notice": "Enable/Disable the Deposit Token"
      },
      "underlying()": {
        "notice": "Deposit underlying asset (e.g. MET)"
      },
      "unlockedBalanceOf(address)": {
        "notice": "Get the unlocked balance (i.e. transferable, withdrawable)"
      },
      "updateCollateralFactor(uint128)": {
        "notice": "Update collateral factor"
      },
      "updateMaxTotalSupply(uint256)": {
        "notice": "Update max total supply"
      },
      "withdraw(uint256,address)": {
        "notice": "Burn msdTOKEN and withdraw collateral"
      }
    },
    "version": 1
  },
  "storageLayout": {
    "storage": [
      {
        "astId": 9846,
        "contract": "contracts/DepositToken.sol:DepositToken",
        "label": "_initialized",
        "offset": 0,
        "slot": "0",
        "type": "t_bool"
      },
      {
        "astId": 9849,
        "contract": "contracts/DepositToken.sol:DepositToken",
        "label": "_initializing",
        "offset": 1,
        "slot": "0",
        "type": "t_bool"
      },
      {
        "astId": 9900,
        "contract": "contracts/DepositToken.sol:DepositToken",
        "label": "_status",
        "offset": 0,
        "slot": "1",
        "type": "t_uint256"
      },
      {
        "astId": 8869,
        "contract": "contracts/DepositToken.sol:DepositToken",
        "label": "pool",
        "offset": 0,
        "slot": "2",
        "type": "t_contract(IPool)12954"
      },
      {
        "astId": 8971,
        "contract": "contracts/DepositToken.sol:DepositToken",
        "label": "__gap",
        "offset": 0,
        "slot": "3",
        "type": "t_array(t_uint256)49_storage"
      },
      {
        "astId": 15200,
        "contract": "contracts/DepositToken.sol:DepositToken",
        "label": "balanceOf",
        "offset": 0,
        "slot": "52",
        "type": "t_mapping(t_address,t_uint256)"
      },
      {
        "astId": 15208,
        "contract": "contracts/DepositToken.sol:DepositToken",
        "label": "allowance",
        "offset": 0,
        "slot": "53",
        "type": "t_mapping(t_address,t_mapping(t_address,t_uint256))"
      },
      {
        "astId": 15212,
        "contract": "contracts/DepositToken.sol:DepositToken",
        "label": "name",
        "offset": 0,
        "slot": "54",
        "type": "t_string_storage"
      },
      {
        "astId": 15216,
        "contract": "contracts/DepositToken.sol:DepositToken",
        "label": "symbol",
        "offset": 0,
        "slot": "55",
        "type": "t_string_storage"
      },
      {
        "astId": 15220,
        "contract": "contracts/DepositToken.sol:DepositToken",
        "label": "totalSupply",
        "offset": 0,
        "slot": "56",
        "type": "t_uint256"
      },
      {
        "astId": 15224,
        "contract": "contracts/DepositToken.sol:DepositToken",
        "label": "maxTotalSupply",
        "offset": 0,
        "slot": "57",
        "type": "t_uint256"
      },
      {
        "astId": 15228,
        "contract": "contracts/DepositToken.sol:DepositToken",
        "label": "collateralFactor",
        "offset": 0,
        "slot": "58",
        "type": "t_uint256"
      },
      {
        "astId": 15233,
        "contract": "contracts/DepositToken.sol:DepositToken",
        "label": "underlying",
        "offset": 0,
        "slot": "59",
        "type": "t_contract(IERC20)10555"
      },
      {
        "astId": 15237,
        "contract": "contracts/DepositToken.sol:DepositToken",
        "label": "isActive",
        "offset": 20,
        "slot": "59",
        "type": "t_bool"
      },
      {
        "astId": 15241,
        "contract": "contracts/DepositToken.sol:DepositToken",
        "label": "decimals",
        "offset": 21,
        "slot": "59",
        "type": "t_uint8"
      }
    ],
    "types": {
      "t_address": {
        "encoding": "inplace",
        "label": "address",
        "numberOfBytes": "20"
      },
      "t_array(t_uint256)49_storage": {
        "base": "t_uint256",
        "encoding": "inplace",
        "label": "uint256[49]",
        "numberOfBytes": "1568"
      },
      "t_bool": {
        "encoding": "inplace",
        "label": "bool",
        "numberOfBytes": "1"
      },
      "t_contract(IERC20)10555": {
        "encoding": "inplace",
        "label": "contract IERC20",
        "numberOfBytes": "20"
      },
      "t_contract(IPool)12954": {
        "encoding": "inplace",
        "label": "contract IPool",
        "numberOfBytes": "20"
      },
      "t_mapping(t_address,t_mapping(t_address,t_uint256))": {
        "encoding": "mapping",
        "key": "t_address",
        "label": "mapping(address => mapping(address => uint256))",
        "numberOfBytes": "32",
        "value": "t_mapping(t_address,t_uint256)"
      },
      "t_mapping(t_address,t_uint256)": {
        "encoding": "mapping",
        "key": "t_address",
        "label": "mapping(address => uint256)",
        "numberOfBytes": "32",
        "value": "t_uint256"
      },
      "t_string_storage": {
        "encoding": "bytes",
        "label": "string",
        "numberOfBytes": "32"
      },
      "t_uint256": {
        "encoding": "inplace",
        "label": "uint256",
        "numberOfBytes": "32"
      },
      "t_uint8": {
        "encoding": "inplace",
        "label": "uint8",
        "numberOfBytes": "1"
      }
    }
  }
}