{
  "address": "0xb63e995A3b986596A1dF30C09d8ECeB0Aa652aA5",
  "abi": [
    {
      "inputs": [],
      "name": "AmountExceedsAllowance",
      "type": "error"
    },
    {
      "inputs": [],
      "name": "AmountIsZero",
      "type": "error"
    },
    {
      "inputs": [],
      "name": "ApproveFromTheZeroAddress",
      "type": "error"
    },
    {
      "inputs": [],
      "name": "ApproveToTheZeroAddress",
      "type": "error"
    },
    {
      "inputs": [],
      "name": "BeneficiaryIsNull",
      "type": "error"
    },
    {
      "inputs": [],
      "name": "BurnAmountExceedsBalance",
      "type": "error"
    },
    {
      "inputs": [],
      "name": "BurnFromTheZeroAddress",
      "type": "error"
    },
    {
      "inputs": [],
      "name": "CollateralFactorTooHigh",
      "type": "error"
    },
    {
      "inputs": [],
      "name": "CollateralIsInexistent",
      "type": "error"
    },
    {
      "inputs": [],
      "name": "DecimalsIsNull",
      "type": "error"
    },
    {
      "inputs": [],
      "name": "DecreasedAllowanceBelowZero",
      "type": "error"
    },
    {
      "inputs": [],
      "name": "DepositTokenIsInactive",
      "type": "error"
    },
    {
      "inputs": [],
      "name": "FallbackIsNotAllowed",
      "type": "error"
    },
    {
      "inputs": [],
      "name": "IsPaused",
      "type": "error"
    },
    {
      "inputs": [],
      "name": "IsShutdown",
      "type": "error"
    },
    {
      "inputs": [],
      "name": "MintToTheZeroAddress",
      "type": "error"
    },
    {
      "inputs": [],
      "name": "NewValueIsSameAsCurrent",
      "type": "error"
    },
    {
      "inputs": [],
      "name": "NotEnoughFreeBalance",
      "type": "error"
    },
    {
      "inputs": [],
      "name": "PoolAddressIsNull",
      "type": "error"
    },
    {
      "inputs": [],
      "name": "PoolIsNull",
      "type": "error"
    },
    {
      "inputs": [],
      "name": "ReceiveIsNotAllowed",
      "type": "error"
    },
    {
      "inputs": [],
      "name": "RecipientIsNull",
      "type": "error"
    },
    {
      "inputs": [],
      "name": "SenderIsNotGovernor",
      "type": "error"
    },
    {
      "inputs": [],
      "name": "SenderIsNotPool",
      "type": "error"
    },
    {
      "inputs": [],
      "name": "SurpassMaxDepositSupply",
      "type": "error"
    },
    {
      "inputs": [],
      "name": "SymbolIsNull",
      "type": "error"
    },
    {
      "inputs": [],
      "name": "TransferAmountExceedsBalance",
      "type": "error"
    },
    {
      "inputs": [],
      "name": "TransferFromTheZeroAddress",
      "type": "error"
    },
    {
      "inputs": [],
      "name": "TransferToTheZeroAddress",
      "type": "error"
    },
    {
      "inputs": [],
      "name": "UnderlyingAssetIsNull",
      "type": "error"
    },
    {
      "anonymous": false,
      "inputs": [
        {
          "indexed": true,
          "internalType": "address",
          "name": "owner",
          "type": "address"
        },
        {
          "indexed": true,
          "internalType": "address",
          "name": "spender",
          "type": "address"
        },
        {
          "indexed": false,
          "internalType": "uint256",
          "name": "value",
          "type": "uint256"
        }
      ],
      "name": "Approval",
      "type": "event"
    },
    {
      "anonymous": false,
      "inputs": [
        {
          "indexed": true,
          "internalType": "address",
          "name": "from",
          "type": "address"
        },
        {
          "indexed": true,
          "internalType": "address",
          "name": "account",
          "type": "address"
        },
        {
          "indexed": false,
          "internalType": "uint256",
          "name": "amount",
          "type": "uint256"
        },
        {
          "indexed": false,
          "internalType": "uint256",
          "name": "deposited",
          "type": "uint256"
        },
        {
          "indexed": false,
          "internalType": "uint256",
          "name": "fee",
          "type": "uint256"
        }
      ],
      "name": "CollateralDeposited",
      "type": "event"
    },
    {
      "anonymous": false,
      "inputs": [
        {
          "indexed": false,
          "internalType": "uint256",
          "name": "oldCollateralFactor",
          "type": "uint256"
        },
        {
          "indexed": false,
          "internalType": "uint256",
          "name": "newCollateralFactor",
          "type": "uint256"
        }
      ],
      "name": "CollateralFactorUpdated",
      "type": "event"
    },
    {
      "anonymous": false,
      "inputs": [
        {
          "indexed": true,
          "internalType": "address",
          "name": "account",
          "type": "address"
        },
        {
          "indexed": true,
          "internalType": "address",
          "name": "to",
          "type": "address"
        },
        {
          "indexed": false,
          "internalType": "uint256",
          "name": "amount",
          "type": "uint256"
        },
        {
          "indexed": false,
          "internalType": "uint256",
          "name": "withdrawn",
          "type": "uint256"
        },
        {
          "indexed": false,
          "internalType": "uint256",
          "name": "fee",
          "type": "uint256"
        }
      ],
      "name": "CollateralWithdrawn",
      "type": "event"
    },
    {
      "anonymous": false,
      "inputs": [
        {
          "indexed": false,
          "internalType": "bool",
          "name": "newActive",
          "type": "bool"
        }
      ],
      "name": "DepositTokenActiveUpdated",
      "type": "event"
    },
    {
      "anonymous": false,
      "inputs": [
        {
          "indexed": false,
          "internalType": "uint256",
          "name": "oldMaxTotalSupply",
          "type": "uint256"
        },
        {
          "indexed": false,
          "internalType": "uint256",
          "name": "newMaxTotalSupply",
          "type": "uint256"
        }
      ],
      "name": "MaxTotalSupplyUpdated",
      "type": "event"
    },
    {
      "anonymous": false,
      "inputs": [
        {
          "indexed": true,
          "internalType": "address",
          "name": "from",
          "type": "address"
        },
        {
          "indexed": true,
          "internalType": "address",
          "name": "to",
          "type": "address"
        },
        {
          "indexed": false,
          "internalType": "uint256",
          "name": "value",
          "type": "uint256"
        }
      ],
      "name": "Transfer",
      "type": "event"
    },
    {
      "stateMutability": "payable",
      "type": "fallback"
    },
    {
      "inputs": [],
      "name": "VERSION",
      "outputs": [
        {
          "internalType": "string",
          "name": "",
          "type": "string"
        }
      ],
      "stateMutability": "view",
      "type": "function"
    },
    {
      "inputs": [
        {
          "internalType": "address",
          "name": "",
          "type": "address"
        },
        {
          "internalType": "address",
          "name": "",
          "type": "address"
        }
      ],
      "name": "allowance",
      "outputs": [
        {
          "internalType": "uint256",
          "name": "",
          "type": "uint256"
        }
      ],
      "stateMutability": "view",
      "type": "function"
    },
    {
      "inputs": [
        {
          "internalType": "address",
          "name": "spender_",
          "type": "address"
        },
        {
          "internalType": "uint256",
          "name": "amount_",
          "type": "uint256"
        }
      ],
      "name": "approve",
      "outputs": [
        {
          "internalType": "bool",
          "name": "",
          "type": "bool"
        }
      ],
      "stateMutability": "nonpayable",
      "type": "function"
    },
    {
      "inputs": [
        {
          "internalType": "address",
          "name": "",
          "type": "address"
        }
      ],
      "name": "balanceOf",
      "outputs": [
        {
          "internalType": "uint256",
          "name": "",
          "type": "uint256"
        }
      ],
      "stateMutability": "view",
      "type": "function"
    },
    {
      "inputs": [],
      "name": "collateralFactor",
      "outputs": [
        {
          "internalType": "uint256",
          "name": "",
          "type": "uint256"
        }
      ],
      "stateMutability": "view",
      "type": "function"
    },
    {
      "inputs": [],
      "name": "decimals",
      "outputs": [
        {
          "internalType": "uint8",
          "name": "",
          "type": "uint8"
        }
      ],
      "stateMutability": "view",
      "type": "function"
    },
    {
      "inputs": [
        {
          "internalType": "address",
          "name": "spender_",
          "type": "address"
        },
        {
          "internalType": "uint256",
          "name": "subtractedValue_",
          "type": "uint256"
        }
      ],
      "name": "decreaseAllowance",
      "outputs": [
        {
          "internalType": "bool",
          "name": "",
          "type": "bool"
        }
      ],
      "stateMutability": "nonpayable",
      "type": "function"
    },
    {
      "inputs": [
        {
          "internalType": "uint256",
          "name": "amount_",
          "type": "uint256"
        },
        {
          "internalType": "address",
          "name": "onBehalfOf_",
          "type": "address"
        }
      ],
      "name": "deposit",
      "outputs": [
        {
          "internalType": "uint256",
          "name": "_deposited",
          "type": "uint256"
        },
        {
          "internalType": "uint256",
          "name": "_fee",
          "type": "uint256"
        }
      ],
      "stateMutability": "nonpayable",
      "type": "function"
    },
    {
      "inputs": [
        {
          "internalType": "address",
          "name": "account_",
          "type": "address"
        },
        {
          "internalType": "uint256",
          "name": "amount_",
          "type": "uint256"
        }
      ],
      "name": "flashWithdraw",
      "outputs": [
        {
          "internalType": "uint256",
          "name": "_withdrawn",
          "type": "uint256"
        },
        {
          "internalType": "uint256",
          "name": "_fee",
          "type": "uint256"
        }
      ],
      "stateMutability": "nonpayable",
      "type": "function"
    },
    {
      "inputs": [],
      "name": "governor",
      "outputs": [
        {
          "internalType": "address",
          "name": "_governor",
          "type": "address"
        }
      ],
      "stateMutability": "view",
      "type": "function"
    },
    {
      "inputs": [
        {
          "internalType": "address",
          "name": "spender_",
          "type": "address"
        },
        {
          "internalType": "uint256",
          "name": "addedValue_",
          "type": "uint256"
        }
      ],
      "name": "increaseAllowance",
      "outputs": [
        {
          "internalType": "bool",
          "name": "",
          "type": "bool"
        }
      ],
      "stateMutability": "nonpayable",
      "type": "function"
    },
    {
      "inputs": [
        {
          "internalType": "contract IERC20",
          "name": "underlying_",
          "type": "address"
        },
        {
          "internalType": "contract IPool",
          "name": "pool_",
          "type": "address"
        },
        {
          "internalType": "string",
          "name": "name_",
          "type": "string"
        },
        {
          "internalType": "string",
          "name": "symbol_",
          "type": "string"
        },
        {
          "internalType": "uint8",
          "name": "decimals_",
          "type": "uint8"
        },
        {
          "internalType": "uint128",
          "name": "collateralFactor_",
          "type": "uint128"
        },
        {
          "internalType": "uint256",
          "name": "maxTotalSupply_",
          "type": "uint256"
        }
      ],
      "name": "initialize",
      "outputs": [],
      "stateMutability": "nonpayable",
      "type": "function"
    },
    {
      "inputs": [],
      "name": "isActive",
      "outputs": [
        {
          "internalType": "bool",
          "name": "",
          "type": "bool"
        }
      ],
      "stateMutability": "view",
      "type": "function"
    },
    {
      "inputs": [
        {
          "internalType": "address",
          "name": "account_",
          "type": "address"
        }
      ],
      "name": "lockedBalanceOf",
      "outputs": [
        {
          "internalType": "uint256",
          "name": "_lockedBalance",
          "type": "uint256"
        }
      ],
      "stateMutability": "view",
      "type": "function"
    },
    {
      "inputs": [],
      "name": "maxTotalSupply",
      "outputs": [
        {
          "internalType": "uint256",
          "name": "",
          "type": "uint256"
        }
      ],
      "stateMutability": "view",
      "type": "function"
    },
    {
      "inputs": [],
      "name": "name",
      "outputs": [
        {
          "internalType": "string",
          "name": "",
          "type": "string"
        }
      ],
      "stateMutability": "view",
      "type": "function"
    },
    {
      "inputs": [],
      "name": "pool",
      "outputs": [
        {
          "internalType": "contract IPool",
          "name": "",
          "type": "address"
        }
      ],
      "stateMutability": "view",
      "type": "function"
    },
    {
      "inputs": [
        {
          "internalType": "uint256",
          "name": "amountToDeposit_",
          "type": "uint256"
        }
      ],
      "name": "quoteDepositIn",
      "outputs": [
        {
          "internalType": "uint256",
          "name": "_amount",
          "type": "uint256"
        },
        {
          "internalType": "uint256",
          "name": "_fee",
          "type": "uint256"
        }
      ],
      "stateMutability": "view",
      "type": "function"
    },
    {
      "inputs": [
        {
          "internalType": "uint256",
          "name": "amount_",
          "type": "uint256"
        }
      ],
      "name": "quoteDepositOut",
      "outputs": [
        {
          "internalType": "uint256",
          "name": "_amountToDeposit",
          "type": "uint256"
        },
        {
          "internalType": "uint256",
          "name": "_fee",
          "type": "uint256"
        }
      ],
      "stateMutability": "view",
      "type": "function"
    },
    {
      "inputs": [
        {
          "internalType": "uint256",
          "name": "amountToWithdraw_",
          "type": "uint256"
        }
      ],
      "name": "quoteWithdrawIn",
      "outputs": [
        {
          "internalType": "uint256",
          "name": "_amount",
          "type": "uint256"
        },
        {
          "internalType": "uint256",
          "name": "_fee",
          "type": "uint256"
        }
      ],
      "stateMutability": "view",
      "type": "function"
    },
    {
      "inputs": [
        {
          "internalType": "uint256",
          "name": "amount_",
          "type": "uint256"
        }
      ],
      "name": "quoteWithdrawOut",
      "outputs": [
        {
          "internalType": "uint256",
          "name": "_amountToWithdraw",
          "type": "uint256"
        },
        {
          "internalType": "uint256",
          "name": "_fee",
          "type": "uint256"
        }
      ],
      "stateMutability": "view",
      "type": "function"
    },
    {
      "inputs": [
        {
          "internalType": "address",
          "name": "from_",
          "type": "address"
        },
        {
          "internalType": "address",
          "name": "to_",
          "type": "address"
        },
        {
          "internalType": "uint256",
          "name": "amount_",
          "type": "uint256"
        }
      ],
      "name": "seize",
      "outputs": [],
      "stateMutability": "nonpayable",
      "type": "function"
    },
    {
      "inputs": [
        {
          "internalType": "contract IERC20",
          "name": "token_",
          "type": "address"
        },
        {
          "internalType": "address",
          "name": "to_",
          "type": "address"
        },
        {
          "internalType": "uint256",
          "name": "amount_",
          "type": "uint256"
        }
      ],
      "name": "sweep",
      "outputs": [],
      "stateMutability": "nonpayable",
      "type": "function"
    },
    {
      "inputs": [],
      "name": "symbol",
      "outputs": [
        {
          "internalType": "string",
          "name": "",
          "type": "string"
        }
      ],
      "stateMutability": "view",
      "type": "function"
    },
    {
      "inputs": [],
      "name": "toggleIsActive",
      "outputs": [],
      "stateMutability": "nonpayable",
      "type": "function"
    },
    {
      "inputs": [],
      "name": "totalSupply",
      "outputs": [
        {
          "internalType": "uint256",
          "name": "",
          "type": "uint256"
        }
      ],
      "stateMutability": "view",
      "type": "function"
    },
    {
      "inputs": [
        {
          "internalType": "address",
          "name": "to_",
          "type": "address"
        },
        {
          "internalType": "uint256",
          "name": "amount_",
          "type": "uint256"
        }
      ],
      "name": "transfer",
      "outputs": [
        {
          "internalType": "bool",
          "name": "",
          "type": "bool"
        }
      ],
      "stateMutability": "nonpayable",
      "type": "function"
    },
    {
      "inputs": [
        {
          "internalType": "address",
          "name": "sender_",
          "type": "address"
        },
        {
          "internalType": "address",
          "name": "recipient_",
          "type": "address"
        },
        {
          "internalType": "uint256",
          "name": "amount_",
          "type": "uint256"
        }
      ],
      "name": "transferFrom",
      "outputs": [
        {
          "internalType": "bool",
          "name": "",
          "type": "bool"
        }
      ],
      "stateMutability": "nonpayable",
      "type": "function"
    },
    {
      "inputs": [],
      "name": "underlying",
      "outputs": [
        {
          "internalType": "contract IERC20",
          "name": "",
          "type": "address"
        }
      ],
      "stateMutability": "view",
      "type": "function"
    },
    {
      "inputs": [
        {
          "internalType": "address",
          "name": "account_",
          "type": "address"
        }
      ],
      "name": "unlockedBalanceOf",
      "outputs": [
        {
          "internalType": "uint256",
          "name": "_unlockedBalance",
          "type": "uint256"
        }
      ],
      "stateMutability": "view",
      "type": "function"
    },
    {
      "inputs": [
        {
          "internalType": "uint128",
          "name": "newCollateralFactor_",
          "type": "uint128"
        }
      ],
      "name": "updateCollateralFactor",
      "outputs": [],
      "stateMutability": "nonpayable",
      "type": "function"
    },
    {
      "inputs": [
        {
          "internalType": "uint256",
          "name": "newMaxTotalSupply_",
          "type": "uint256"
        }
      ],
      "name": "updateMaxTotalSupply",
      "outputs": [],
      "stateMutability": "nonpayable",
      "type": "function"
    },
    {
      "inputs": [
        {
          "internalType": "uint256",
          "name": "amount_",
          "type": "uint256"
        },
        {
          "internalType": "address",
          "name": "to_",
          "type": "address"
        }
      ],
      "name": "withdraw",
      "outputs": [
        {
          "internalType": "uint256",
          "name": "_withdrawn",
          "type": "uint256"
        },
        {
          "internalType": "uint256",
          "name": "_fee",
          "type": "uint256"
        }
      ],
      "stateMutability": "nonpayable",
      "type": "function"
    },
    {
      "stateMutability": "payable",
      "type": "receive"
    }
  ],
  "transactionHash": "0xde65b79ebb644ea7015d7b0dc7655df6a5663259a70276e1da216b0c294a098f",
  "args": [],
  "numDeployments": 3,
  "solcInputHash": "1d1eeb3af7f52d90d255aace1e1587c6",
  "bytecode": "0x608060405234801561001057600080fd5b5061318a806100206000396000f3fe6080604052600436106101f15760003560e01c80636e553f651161010d578063a457c2d7116100a0578063d538a3031161006f578063d538a303146105e8578063dd62ed3e14610608578063df011c4114610640578063ffa1ad7414610656578063ffc0e17e146106875761020f565b8063a457c2d714610573578063a9059cbb14610593578063b2a02ff1146105b3578063d2593329146105d35761020f565b806384955c88116100dc57806384955c88146104fe578063857adc461461051e57806385f1b90a1461053e57806395d89b411461055e5761020f565b80636e553f65146104715780636f307dc31461049157806370a08231146104b157806382dbc795146104de5761020f565b806323b872dd11610185578063542778801161015457806354277880146103f1578063593557361461041157806362c06767146104315780636dc2cd0e146104515761020f565b806323b872dd146103685780632ab4d05214610388578063313ce5671461039e57806339509351146103d15761020f565b806316f0115b116101c157806316f0115b146102e1578063172f50a41461030157806318160ddd1461032357806322f3e2d4146103475761020f565b8062f714ce1461022857806306fdde0314610262578063095ea7b3146102845780630c340a24146102b45761020f565b3661020f57604051636436c22d60e11b815260040160405180910390fd5b60405163a0152e6360e01b815260040160405180910390fd5b34801561023457600080fd5b50610248610243366004612b94565b6106a7565b604080519283526020830191909152015b60405180910390f35b34801561026e57600080fd5b50610277610714565b6040516102599190612bf0565b34801561029057600080fd5b506102a461029f366004612c23565b6107a2565b6040519015158152602001610259565b3480156102c057600080fd5b506102c96107b9565b6040516001600160a01b039091168152602001610259565b3480156102ed57600080fd5b506002546102c9906001600160a01b031681565b34801561030d57600080fd5b5061032161031c366004612c4f565b61083b565b005b34801561032f57600080fd5b5061033960385481565b604051908152602001610259565b34801561035357600080fd5b50603b546102a490600160a01b900460ff1681565b34801561037457600080fd5b506102a4610383366004612c68565b6108d7565b34801561039457600080fd5b5061033960395481565b3480156103aa57600080fd5b50603b546103bf90600160a81b900460ff1681565b60405160ff9091168152602001610259565b3480156103dd57600080fd5b506102a46103ec366004612c23565b6109ab565b3480156103fd57600080fd5b5061024861040c366004612c4f565b6109e7565b34801561041d57600080fd5b5061033961042c366004612ca9565b610b0e565b34801561043d57600080fd5b5061032161044c366004612c68565b610b3c565b34801561045d57600080fd5b5061024861046c366004612c23565b610b75565b34801561047d57600080fd5b5061024861048c366004612b94565b610bbc565b34801561049d57600080fd5b50603b546102c9906001600160a01b031681565b3480156104bd57600080fd5b506103396104cc366004612ca9565b60346020526000908152604090205481565b3480156104ea57600080fd5b506103216104f9366004612ce2565b611006565b34801561050a57600080fd5b50610339610519366004612ca9565b6110ee565b34801561052a57600080fd5b50610248610539366004612c4f565b6112f2565b34801561054a57600080fd5b50610248610559366004612c4f565b61142b565b34801561056a57600080fd5b506102776114ee565b34801561057f57600080fd5b506102a461058e366004612c23565b6114fb565b34801561059f57600080fd5b506102a46105ae366004612c23565b611557565b3480156105bf57600080fd5b506103216105ce366004612c68565b61159a565b3480156105df57600080fd5b506103216115d0565b3480156105f457600080fd5b50610248610603366004612c4f565b61166a565b34801561061457600080fd5b50610339610623366004612cfd565b603560209081526000928352604080842090915290825290205481565b34801561064c57600080fd5b50610339603a5481565b34801561066257600080fd5b50610277604051806040016040528060058152602001640312e322e360dc1b81525081565b34801561069357600080fd5b506103216106a2366004612d6d565b61172d565b6000803384806106b6836110ee565b10156106d557604051631af903f160e11b815260040160405180910390fd5b6001600160a01b0385166106fc57604051634c96446b60e01b815260040160405180910390fd5b6107073387876118d6565b9350935050509250929050565b6036805461072190612e33565b80601f016020809104026020016040519081016040528092919081815260200182805461074d90612e33565b801561079a5780601f1061076f5761010080835404028352916020019161079a565b820191906000526020600020905b81548152906001019060200180831161077d57829003601f168201915b505050505081565b60006107af338484611c34565b5060015b92915050565b6002546040805163030d028960e21b815290516000926001600160a01b031691630c340a24916004808301926020929190829003018186803b1580156107fe57600080fd5b505afa158015610812573d6000803e3d6000fd5b505050506040513d601f19601f820116820180604052508101906108369190612e79565b905090565b6108436107b9565b6001600160a01b0316336001600160a01b03161461087457604051634b98449160e11b815260040160405180910390fd5b6039548181141561089857604051630333a68160e41b815260040160405180910390fd5b60408051828152602081018490527fc58cd6132bb46df23d468939c03dd023b74b509aaa6b04c39d5a6461c65963bd910160405180910390a150603955565b6000600260015414156109055760405162461bcd60e51b81526004016108fc90612e96565b60405180910390fd5b6002600155838280610916836110ee565b101561093557604051631af903f160e11b815260040160405180910390fd5b6001600160a01b038616600090815260356020908152604080832033845290915290205460001981146109905784811015610983576040516303814af160e61b815260040160405180910390fd5b6109908733878403611c34565b61099b878787611ce3565b5050600180805595945050505050565b3360008181526035602090815260408083206001600160a01b038716845290915281205490916107af9185906109e2908690612ee3565b611c34565b6000806000600260009054906101000a90046001600160a01b03166001600160a01b0316634066fdea6040518163ffffffff1660e01b815260040160206040518083038186803b158015610a3a57600080fd5b505afa158015610a4e573d6000803e3d6000fd5b505050506040513d601f19601f82011682018060405250810190610a729190612e79565b6001600160a01b03166367a527936040518163ffffffff1660e01b815260040160206040518083038186803b158015610aaa57600080fd5b505afa158015610abe573d6000803e3d6000fd5b505050506040513d601f19601f82011682018060405250810190610ae29190612efb565b905080610af0575091929050565b610afa8482612010565b9150610b068285612f14565b925050915091565b6000610b19826110ee565b6001600160a01b0390921660009081526034602052604090205491909103919050565b610b44612063565b6001600160a01b038316610b6157610b5c828261209e565b505050565b610b5c6001600160a01b03841683836121b7565b60025460009081906001600160a01b03163314610ba55760405163531f2aa960e11b815260040160405180910390fd5b610bb08484336118d6565b915091505b9250929050565b600080600260009054906101000a90046001600160a01b03166001600160a01b0316635c975abb6040518163ffffffff1660e01b815260040160206040518083038186803b158015610c0d57600080fd5b505afa158015610c21573d6000803e3d6000fd5b505050506040513d601f19601f82011682018060405250810190610c459190612f3b565b15610c6357604051631309a56360e01b815260040160405180910390fd5b60026001541415610c865760405162461bcd60e51b81526004016108fc90612e96565b6002600181905554604051633e25dee160e21b81523060048201526001600160a01b039091169063f8977b849060240160206040518083038186803b158015610cce57600080fd5b505afa158015610ce2573d6000803e3d6000fd5b505050506040513d601f19601f82011682018060405250810190610d069190612f3b565b610d2357604051630620bddd60e21b815260040160405180910390fd5b83610d41576040516310eb483f60e21b815260040160405180910390fd5b6001600160a01b038316610d685760405163639c77e360e01b815260040160405180910390fd5b600254603b54604080516361d027b360e01b815290516001600160a01b03938416939092169160009184916361d027b391600480820192602092909190829003018186803b158015610db957600080fd5b505afa158015610dcd573d6000803e3d6000fd5b505050506040513d601f19601f82011682018060405250810190610df19190612e79565b6040516370a0823160e01b81526001600160a01b0380831660048301529192506000918416906370a082319060240160206040518083038186803b158015610e3857600080fd5b505afa158015610e4c573d6000803e3d6000fd5b505050506040513d601f19601f82011682018060405250810190610e709190612efb565b9050610e876001600160a01b03841633848b61221a565b6040516370a0823160e01b81526001600160a01b0383811660048301528291908516906370a082319060240160206040518083038186803b158015610ecb57600080fd5b505afa158015610edf573d6000803e3d6000fd5b505050506040513d601f19601f82011682018060405250810190610f039190612efb565b610f0d9190612f14565b9750610f18886109e7565b90965094508415610f9d57610f9d846001600160a01b031663c415b95c6040518163ffffffff1660e01b815260040160206040518083038186803b158015610f5f57600080fd5b505afa158015610f73573d6000803e3d6000fd5b505050506040513d601f19601f82011682018060405250810190610f979190612e79565b86612258565b610fa78787612258565b60408051898152602081018890529081018690526001600160a01b0388169033907f7e387d4929067a5275d9dee7be89865d22cdc9d73f817ad152814a729ba6755e9060600160405180910390a3505060018055509194909350915050565b61100e6107b9565b6001600160a01b0316336001600160a01b03161461103f57604051634b98449160e11b815260040160405180910390fd5b670de0b6b3a7640000816001600160801b0316111561107157604051639479a57160e01b815260040160405180910390fd5b603a546001600160801b03821681141561109e57604051630333a68160e41b815260040160405180910390fd5b604080518281526001600160801b03841660208201527f3b24ab397256b6bca0533c0889430820655a41fa639e1868bcc25404634d6024910160405180910390a1506001600160801b0316603a55565b60025460405163dde3ab9560e01b81526001600160a01b038381166004830152600092169082908190839063dde3ab959060240160a06040518083038186803b15801561113a57600080fd5b505afa15801561114e573d6000803e3d6000fd5b505050506040513d601f19601f820116820180604052508101906111729190612f56565b9450509350505081600014156111a157505050506001600160a01b031660009081526034602052604090205490565b80156112ea576112e760346000876001600160a01b03166001600160a01b0316815260200190815260200160002054846001600160a01b031663eaada3826040518163ffffffff1660e01b815260040160206040518083038186803b15801561120957600080fd5b505afa15801561121d573d6000803e3d6000fd5b505050506040513d601f19601f820116820180604052508101906112419190612e79565b603b54603a546001600160a01b039283169263b5e9bef59216906112669087906124df565b6040516001600160e01b031960e085901b1681526001600160a01b039092166004830152602482015260440160206040518083038186803b1580156112aa57600080fd5b505afa1580156112be573d6000803e3d6000fd5b505050506040513d601f19601f820116820180604052508101906112e29190612efb565b6124ff565b93505b505050919050565b6000806000600260009054906101000a90046001600160a01b03166001600160a01b0316634066fdea6040518163ffffffff1660e01b815260040160206040518083038186803b15801561134557600080fd5b505afa158015611359573d6000803e3d6000fd5b505050506040513d601f19601f8201168201806040525081019061137d9190612e79565b6001600160a01b03166367a527936040518163ffffffff1660e01b815260040160206040518083038186803b1580156113b557600080fd5b505afa1580156113c9573d6000803e3d6000fd5b505050506040513d601f19601f820116820180604052508101906113ed9190612efb565b9050806113fb575091929050565b61141761141082670de0b6b3a7640000612f14565b85906124df565b92506114238484612f14565b915050915091565b6000806000600260009054906101000a90046001600160a01b03166001600160a01b0316634066fdea6040518163ffffffff1660e01b815260040160206040518083038186803b15801561147e57600080fd5b505afa158015611492573d6000803e3d6000fd5b505050506040513d601f19601f820116820180604052508101906114b69190612e79565b6001600160a01b031663e941fa786040518163ffffffff1660e01b815260040160206040518083038186803b1580156113b557600080fd5b6037805461072190612e33565b3360009081526035602090815260408083206001600160a01b0386168452909152812054828110156115405760405163189dd6af60e31b815260040160405180910390fd5b61154d3385858403611c34565b5060019392505050565b6000338280611565836110ee565b101561158457604051631af903f160e11b815260040160405180910390fd5b61158f338686611ce3565b506001949350505050565b6002546001600160a01b031633146115c55760405163531f2aa960e11b815260040160405180910390fd5b610b5c838383611ce3565b6115d86107b9565b6001600160a01b0316336001600160a01b03161461160957604051634b98449160e11b815260040160405180910390fd5b603b54604051600160a01b90910460ff1615808252907fb2f86f872205a47e0890262c11c93dba2270b3f079ada3dbe9cb6f755f4ddc9f9060200160405180910390a1603b8054911515600160a01b0260ff60a01b19909216919091179055565b6000806000600260009054906101000a90046001600160a01b03166001600160a01b0316634066fdea6040518163ffffffff1660e01b815260040160206040518083038186803b1580156116bd57600080fd5b505afa1580156116d1573d6000803e3d6000fd5b505050506040513d601f19601f820116820180604052508101906116f59190612e79565b6001600160a01b031663e941fa786040518163ffffffff1660e01b815260040160206040518083038186803b158015610aaa57600080fd5b600054610100900460ff1680611746575060005460ff16155b6117625760405162461bcd60e51b81526004016108fc90612f9d565b600054610100900460ff16158015611784576000805461ffff19166101011790555b6001600160a01b038a166117ab57604051630d63ca0f60e41b815260040160405180910390fd5b6001600160a01b0389166117d257604051633cb1fb1f60e11b815260040160405180910390fd5b846117f0576040516330507cff60e11b815260040160405180910390fd5b60ff841661181157604051634dc4784160e11b815260040160405180910390fd5b670de0b6b3a7640000836001600160801b0316111561184357604051639479a57160e01b815260040160405180910390fd5b61184b612515565b61185489612585565b61186060368989612ae6565b5061186d60378787612ae6565b50603b805460ff8616600160a81b0260ff60a81b196001600160a81b03199092166001600160a01b038e1617600160a01b17919091161790556001600160801b038316603a55603982905580156118ca576000805461ff00191690555b50505050505050505050565b600080600260009054906101000a90046001600160a01b03166001600160a01b031663ecf3a3f96040518163ffffffff1660e01b815260040160206040518083038186803b15801561192757600080fd5b505afa15801561193b573d6000803e3d6000fd5b505050506040513d601f19601f8201168201806040525081019061195f9190612f3b565b1561197d57604051631b0e923f60e11b815260040160405180910390fd5b600260015414156119a05760405162461bcd60e51b81526004016108fc90612e96565b6002600181905554604051633e25dee160e21b81523060048201526001600160a01b039091169063f8977b849060240160206040518083038186803b1580156119e857600080fd5b505afa1580156119fc573d6000803e3d6000fd5b505050506040513d601f19601f82011682018060405250810190611a209190612f3b565b611a3d57604051630620bddd60e21b815260040160405180910390fd5b83611a5b576040516310eb483f60e21b815260040160405180910390fd5b6002546001600160a01b0316611a708561166a565b90935091508115611af657611af686826001600160a01b031663c415b95c6040518163ffffffff1660e01b815260040160206040518083038186803b158015611ab857600080fd5b505afa158015611acc573d6000803e3d6000fd5b505050506040513d601f19601f82011682018060405250810190611af09190612e79565b84611ce3565b611b008684612634565b806001600160a01b03166361d027b36040518163ffffffff1660e01b815260040160206040518083038186803b158015611b3957600080fd5b505afa158015611b4d573d6000803e3d6000fd5b505050506040513d601f19601f82011682018060405250810190611b719190612e79565b60405163f2d5d56b60e01b81526001600160a01b03868116600483015260248201869052919091169063f2d5d56b90604401600060405180830381600087803b158015611bbd57600080fd5b505af1158015611bd1573d6000803e3d6000fd5b505060408051888152602081018790529081018590526001600160a01b038088169350891691507f900e8de8e8718a6bde86415bf9b8c70e1a4f744314eaef5c60b0705a271035d69060600160405180910390a350600180559094909350915050565b6001600160a01b038316611c5b576040516356fdae6560e11b815260040160405180910390fd5b6001600160a01b038216611c825760405163b2fa1ef360e01b815260040160405180910390fd5b6001600160a01b0383811660008181526035602090815260408083209487168084529482529182902085905590518481527f8c5be1e5ebec7d5bd14f71427d1e84f3dd0314c0f7b2291e5b200ac8c7c3b925910160405180910390a3505050565b82826000600260009054906101000a90046001600160a01b03166001600160a01b0316633605b51b6040518163ffffffff1660e01b815260040160006040518083038186803b158015611d3557600080fd5b505afa158015611d49573d6000803e3d6000fd5b505050506040513d6000823e601f3d908101601f19168201604052611d719190810190613001565b805190915060005b81811015611e1957828181518110611d9357611d936130c6565b602090810291909101015160405163058bd91d60e51b81523060048201526001600160a01b03878116602483015286811660448301529091169063b17b23a090606401600060405180830381600087803b158015611df057600080fd5b505af1158015611e04573d6000803e3d6000fd5b5050505080611e12906130dc565b9050611d79565b506001600160a01b038716611e4157604051630240531760e41b815260040160405180910390fd5b6001600160a01b038616611e685760405163671d1add60e11b815260040160405180910390fd5b6001600160a01b03871660009081526034602052604090205485811015611ea257604051635dd58b8b60e01b815260040160405180910390fd5b6001600160a01b0387811660008181526034602090815260408083208054958e168085528285208d890390559385905280548c019055518a81527fddf252ad1be2c89b69c2b068fc378daa952ba7f163c4a11628f55a4df523b3ef910160405180910390a380158015611f155750600087115b15611f7a57600254604051633f5fc13160e01b81526001600160a01b038a8116600483015290911690633f5fc13190602401600060405180830381600087803b158015611f6157600080fd5b505af1158015611f75573d6000803e3d6000fd5b505050505b600087118015611fa057506001600160a01b038916600090815260346020526040902054155b1561200557600254604051630275038d60e41b81526001600160a01b038b811660048301529091169063275038d090602401600060405180830381600087803b158015611fec57600080fd5b505af1158015612000573d6000803e3d6000fd5b505050505b505050505050505050565b600082158061201d575081155b1561202a575060006107b3565b670de0b6b3a764000061203e6002826130f7565b6120488486613119565b6120529190612ee3565b61205c91906130f7565b9392505050565b61206b6107b9565b6001600160a01b0316336001600160a01b03161461209c57604051634b98449160e11b815260040160405180910390fd5b565b804710156120ee5760405162461bcd60e51b815260206004820152601d60248201527f416464726573733a20696e73756666696369656e742062616c616e636500000060448201526064016108fc565b6000826001600160a01b03168260405160006040518083038185875af1925050503d806000811461213b576040519150601f19603f3d011682016040523d82523d6000602084013e612140565b606091505b5050905080610b5c5760405162461bcd60e51b815260206004820152603a60248201527f416464726573733a20756e61626c6520746f2073656e642076616c75652c207260448201527f6563697069656e74206d6179206861766520726576657274656400000000000060648201526084016108fc565b6040516001600160a01b038316602482015260448101829052610b5c90849063a9059cbb60e01b906064015b60408051601f198184030181529190526020810180516001600160e01b03166001600160e01b03199093169290921790915261289c565b6040516001600160a01b03808516602483015283166044820152606481018290526122529085906323b872dd60e01b906084016121e3565b50505050565b603b54600160a01b900460ff1661228257604051631b9245b960e11b815260040160405180910390fd5b816000600260009054906101000a90046001600160a01b03166001600160a01b0316633605b51b6040518163ffffffff1660e01b815260040160006040518083038186803b1580156122d357600080fd5b505afa1580156122e7573d6000803e3d6000fd5b505050506040513d6000823e601f3d908101601f1916820160405261230f9190810190613001565b805190915060005b818110156123ae57828181518110612331576123316130c6565b6020908102919091010151604051626cc3c360e61b81523060048201526001600160a01b03868116602483015290911690631b30f0c090604401600060405180830381600087803b15801561238557600080fd5b505af1158015612399573d6000803e3d6000fd5b50505050806123a7906130dc565b9050612317565b506001600160a01b0385166123d65760405163c96c2a0b60e01b815260040160405180910390fd5b83603860008282546123e89190612ee3565b9091555050603954603854111561241257604051639cad93a160e01b815260040160405180910390fd5b6001600160a01b038516600081815260346020908152604080832080548981019091559051888152909392917fddf252ad1be2c89b69c2b068fc378daa952ba7f163c4a11628f55a4df523b3ef910160405180910390a3801580156124775750600085115b156124d757600254604051633f5fc13160e01b81526001600160a01b03888116600483015290911690633f5fc13190602401600060405180830381600087803b1580156124c357600080fd5b505af11580156118ca573d6000803e3d6000fd5b505050505050565b6000816124ed6002826130f7565b612048670de0b6b3a764000086613119565b600081831061250e578161205c565b5090919050565b600054610100900460ff168061252e575060005460ff16155b61254a5760405162461bcd60e51b81526004016108fc90612f9d565b600054610100900460ff1615801561256c576000805461ffff19166101011790555b600180558015612582576000805461ff00191690555b50565b600054610100900460ff168061259e575060005460ff16155b6125ba5760405162461bcd60e51b81526004016108fc90612f9d565b600054610100900460ff161580156125dc576000805461ffff19166101011790555b6001600160a01b0382166126035760405163724f500960e01b815260040160405180910390fd5b600280546001600160a01b0319166001600160a01b0384161790558015612630576000805461ff00191690555b5050565b816000600260009054906101000a90046001600160a01b03166001600160a01b0316633605b51b6040518163ffffffff1660e01b815260040160006040518083038186803b15801561268557600080fd5b505afa158015612699573d6000803e3d6000fd5b505050506040513d6000823e601f3d908101601f191682016040526126c19190810190613001565b805190915060005b81811015612760578281815181106126e3576126e36130c6565b6020908102919091010151604051626cc3c360e61b81523060048201526001600160a01b03868116602483015290911690631b30f0c090604401600060405180830381600087803b15801561273757600080fd5b505af115801561274b573d6000803e3d6000fd5b5050505080612759906130dc565b90506126c9565b506001600160a01b038516612788576040516304fca6bd60e41b815260040160405180910390fd5b6001600160a01b038516600090815260346020526040902054848110156127c257604051630bba337f60e11b815260040160405180910390fd5b6038805486900390556001600160a01b03861660008181526034602090815260408083208986039081905590518981529093917fddf252ad1be2c89b69c2b068fc378daa952ba7f163c4a11628f55a4df523b3ef910160405180910390a360008611801561282e575080155b1561289357600254604051630275038d60e41b81526001600160a01b0389811660048301529091169063275038d090602401600060405180830381600087803b15801561287a57600080fd5b505af115801561288e573d6000803e3d6000fd5b505050505b50505050505050565b60006128f1826040518060400160405280602081526020017f5361666545524332303a206c6f772d6c6576656c2063616c6c206661696c6564815250856001600160a01b031661296e9092919063ffffffff16565b805190915015610b5c578080602001905181019061290f9190612f3b565b610b5c5760405162461bcd60e51b815260206004820152602a60248201527f5361666545524332303a204552433230206f7065726174696f6e20646964206e6044820152691bdd081cdd58d8d9595960b21b60648201526084016108fc565b606061297d8484600085612985565b949350505050565b6060824710156129e65760405162461bcd60e51b815260206004820152602660248201527f416464726573733a20696e73756666696369656e742062616c616e636520666f6044820152651c8818d85b1b60d21b60648201526084016108fc565b843b612a345760405162461bcd60e51b815260206004820152601d60248201527f416464726573733a2063616c6c20746f206e6f6e2d636f6e747261637400000060448201526064016108fc565b600080866001600160a01b03168587604051612a509190613138565b60006040518083038185875af1925050503d8060008114612a8d576040519150601f19603f3d011682016040523d82523d6000602084013e612a92565b606091505b5091509150612aa2828286612aad565b979650505050505050565b60608315612abc57508161205c565b825115612acc5782518084602001fd5b8160405162461bcd60e51b81526004016108fc9190612bf0565b828054612af290612e33565b90600052602060002090601f016020900481019282612b145760008555612b5a565b82601f10612b2d5782800160ff19823516178555612b5a565b82800160010185558215612b5a579182015b82811115612b5a578235825591602001919060010190612b3f565b50612b66929150612b6a565b5090565b5b80821115612b665760008155600101612b6b565b6001600160a01b038116811461258257600080fd5b60008060408385031215612ba757600080fd5b823591506020830135612bb981612b7f565b809150509250929050565b60005b83811015612bdf578181015183820152602001612bc7565b838111156122525750506000910152565b6020815260008251806020840152612c0f816040850160208701612bc4565b601f01601f19169190910160400192915050565b60008060408385031215612c3657600080fd5b8235612c4181612b7f565b946020939093013593505050565b600060208284031215612c6157600080fd5b5035919050565b600080600060608486031215612c7d57600080fd5b8335612c8881612b7f565b92506020840135612c9881612b7f565b929592945050506040919091013590565b600060208284031215612cbb57600080fd5b813561205c81612b7f565b80356001600160801b0381168114612cdd57600080fd5b919050565b600060208284031215612cf457600080fd5b61205c82612cc6565b60008060408385031215612d1057600080fd5b8235612d1b81612b7f565b91506020830135612bb981612b7f565b60008083601f840112612d3d57600080fd5b50813567ffffffffffffffff811115612d5557600080fd5b602083019150836020828501011115610bb557600080fd5b600080600080600080600080600060e08a8c031215612d8b57600080fd5b8935612d9681612b7f565b985060208a0135612da681612b7f565b975060408a013567ffffffffffffffff80821115612dc357600080fd5b612dcf8d838e01612d2b565b909950975060608c0135915080821115612de857600080fd5b50612df58c828d01612d2b565b90965094505060808a013560ff81168114612e0f57600080fd5b9250612e1d60a08b01612cc6565b915060c08a013590509295985092959850929598565b600181811c90821680612e4757607f821691505b60208210811415612e6857634e487b7160e01b600052602260045260246000fd5b50919050565b8051612cdd81612b7f565b600060208284031215612e8b57600080fd5b815161205c81612b7f565b6020808252601f908201527f5265656e7472616e637947756172643a207265656e7472616e742063616c6c00604082015260600190565b634e487b7160e01b600052601160045260246000fd5b60008219821115612ef657612ef6612ecd565b500190565b600060208284031215612f0d57600080fd5b5051919050565b600082821015612f2657612f26612ecd565b500390565b80518015158114612cdd57600080fd5b600060208284031215612f4d57600080fd5b61205c82612f2b565b600080600080600060a08688031215612f6e57600080fd5b612f7786612f2b565b602087015160408801516060890151608090990151929a91995097965090945092505050565b6020808252602e908201527f496e697469616c697a61626c653a20636f6e747261637420697320616c72656160408201526d191e481a5b9a5d1a585b1a5e995960921b606082015260800190565b634e487b7160e01b600052604160045260246000fd5b6000602080838503121561301457600080fd5b825167ffffffffffffffff8082111561302c57600080fd5b818501915085601f83011261304057600080fd5b81518181111561305257613052612feb565b8060051b604051601f19603f8301168101818110858211171561307757613077612feb565b60405291825284820192508381018501918883111561309557600080fd5b938501935b828510156130ba576130ab85612e6e565b8452938501939285019261309a565b98975050505050505050565b634e487b7160e01b600052603260045260246000fd5b60006000198214156130f0576130f0612ecd565b5060010190565b60008261311457634e487b7160e01b600052601260045260246000fd5b500490565b600081600019048311821515161561313357613133612ecd565b500290565b6000825161314a818460208701612bc4565b919091019291505056fea2646970667358221220e5ed8b61596fa72f0fe10d72d4cb285a7f8409b3d226f86094845486ec47375064736f6c63430008090033",
  "devdoc": {
    "kind": "dev",
    "methods": {
      "deposit(uint256,address)": {
        "params": {
          "amount_": "The amount of collateral tokens to deposit",
          "onBehalfOf_": "The account to deposit to"
        },
        "returns": {
          "_deposited": "The amount deposited after fees"
        }
      },
      "flashWithdraw(address,uint256)": {
        "params": {
          "account_": "The account where deposit token will be burnt from",
          "amount_": "The amount of collateral to withdraw"
        },
        "returns": {
          "_withdrawn": "The amount withdrawn after fees"
        }
      },
      "governor()": {
        "returns": {
          "_governor": "The governor"
        }
      },
      "lockedBalanceOf(address)": {
        "params": {
          "account_": "The account to check"
        },
        "returns": {
          "_lockedBalance": "The locked amount"
        }
      },
      "quoteDepositIn(uint256)": {
        "params": {
          "amountToDeposit_": "Collateral to deposit"
        },
        "returns": {
          "_amount": "Gross amount",
          "_fee": "Fee amount to collect"
        }
      },
      "quoteDepositOut(uint256)": {
        "params": {
          "amount_": "Gross amount"
        },
        "returns": {
          "_amountToDeposit": "Collateral to deposit",
          "_fee": "Fee amount to collect"
        }
      },
      "quoteWithdrawIn(uint256)": {
        "params": {
          "amountToWithdraw_": "Collateral to withdraw"
        },
        "returns": {
          "_amount": "Gross amount",
          "_fee": "Fee amount to collect"
        }
      },
      "quoteWithdrawOut(uint256)": {
        "params": {
          "amount_": "Gross amount"
        },
        "returns": {
          "_amountToWithdraw": "Collateral to withdraw",
          "_fee": "Fee amount to collect"
        }
      },
      "seize(address,address,uint256)": {
        "details": "Same as _transfer",
        "params": {
          "amount_": "The amount to seize",
          "from_": "The account to seize from",
          "to_": "The beneficiary account"
        }
      },
      "sweep(address,address,uint256)": {
        "params": {
          "amount_": "The amount to send",
          "to_": "The recipient of the transfer",
          "token_": "The token to transfer"
        }
      },
      "transfer(address,uint256)": {
        "details": "Moves `amount` tokens from the caller's account to `recipient`. Returns a boolean value indicating whether the operation succeeded. Emits a {Transfer} event."
      },
      "transferFrom(address,address,uint256)": {
        "details": "Moves `amount` tokens from `sender` to `recipient` using the allowance mechanism. `amount` is then deducted from the caller's allowance. Returns a boolean value indicating whether the operation succeeded. Emits a {Transfer} event."
      },
      "unlockedBalanceOf(address)": {
        "params": {
          "account_": "The account to check"
        },
        "returns": {
          "_unlockedBalance": "The amount that user can transfer or withdraw"
        }
      },
      "updateCollateralFactor(uint128)": {
        "params": {
          "newCollateralFactor_": "The new CF value"
        }
      },
      "updateMaxTotalSupply(uint256)": {
        "params": {
          "newMaxTotalSupply_": "The new max total supply"
        }
      },
      "withdraw(uint256,address)": {
        "params": {
          "amount_": "The amount of collateral to withdraw",
          "to_": "The account that will receive withdrawn collateral"
        },
        "returns": {
          "_withdrawn": "The amount withdrawn after fees"
        }
      }
    },
    "title": "Represents the users' deposits",
    "version": 1
  },
  "userdoc": {
    "events": {
      "CollateralDeposited(address,address,uint256,uint256,uint256)": {
        "notice": "Emitted when collateral is deposited"
      },
      "CollateralFactorUpdated(uint256,uint256)": {
        "notice": "Emitted when CF is updated"
      },
      "CollateralWithdrawn(address,address,uint256,uint256,uint256)": {
        "notice": "Emitted when collateral is withdrawn"
      },
      "DepositTokenActiveUpdated(bool)": {
        "notice": "Emitted when active flag is updated"
      },
      "MaxTotalSupplyUpdated(uint256,uint256)": {
        "notice": "Emitted when max total supply is updated"
      }
    },
    "kind": "user",
    "methods": {
      "approve(address,uint256)": {
        "notice": "Set `amount` as the allowance of `spender` over the caller's tokens"
      },
      "collateralFactor()": {
        "notice": "Collateral factor for the deposit token"
      },
      "decimals()": {
        "notice": "The decimals of the token"
      },
      "decreaseAllowance(address,uint256)": {
        "notice": "Atomically decrease the allowance granted to `spender` by the caller"
      },
      "deposit(uint256,address)": {
        "notice": "Deposit collateral and mint msdTOKEN (tokenized deposit position)"
      },
      "flashWithdraw(address,uint256)": {
        "notice": "Burn msdTOKEN, withdraw collateral and transfer to `msg.sender` (i.e. Pool)"
      },
      "governor()": {
        "notice": "Get the governor"
      },
      "increaseAllowance(address,uint256)": {
        "notice": "Atomically increase the allowance granted to `spender` by the caller"
      },
      "isActive()": {
        "notice": "If a collateral isn't active, it disables minting new tokens"
      },
      "lockedBalanceOf(address)": {
        "notice": "Get the locked balance"
      },
      "maxTotalSupply()": {
        "notice": "The supply cap (in USD)"
      },
      "name()": {
        "notice": "The name of the token"
      },
      "pool()": {
        "notice": "Pool contract"
      },
      "quoteDepositIn(uint256)": {
        "notice": "Quote gross `_amount` to deposit `amountToDeposit_` collateral"
      },
      "quoteDepositOut(uint256)": {
        "notice": "Quote collateral `_amountToDeposit` by using gross `amount_`"
      },
      "quoteWithdrawIn(uint256)": {
        "notice": "Quote gross `_amount` to withdraw `amountToWithdraw_` collateral"
      },
      "quoteWithdrawOut(uint256)": {
        "notice": "Quote collateral `_amountToWithdraw` by using gross `_amount`"
      },
      "seize(address,address,uint256)": {
        "notice": "Seize tokens"
      },
      "sweep(address,address,uint256)": {
        "notice": "ERC20 recovery in case of stuck tokens due direct transfers to the contract address."
      },
      "symbol()": {
        "notice": "The symbol of the token"
      },
      "toggleIsActive()": {
        "notice": "Enable/Disable the Deposit Token"
      },
      "underlying()": {
        "notice": "Deposit underlying asset (e.g. MET)"
      },
      "unlockedBalanceOf(address)": {
        "notice": "Get the unlocked balance (i.e. transferable, withdrawable)"
      },
      "updateCollateralFactor(uint128)": {
        "notice": "Update collateral factor"
      },
      "updateMaxTotalSupply(uint256)": {
        "notice": "Update max total supply"
      },
      "withdraw(uint256,address)": {
        "notice": "Burn msdTOKEN and withdraw collateral"
      }
    },
    "version": 1
  },
  "storageLayout": {
    "storage": [
      {
        "astId": 10100,
        "contract": "contracts/DepositToken.sol:DepositToken",
        "label": "_initialized",
        "offset": 0,
        "slot": "0",
        "type": "t_bool"
      },
      {
        "astId": 10103,
        "contract": "contracts/DepositToken.sol:DepositToken",
        "label": "_initializing",
        "offset": 1,
        "slot": "0",
        "type": "t_bool"
      },
      {
        "astId": 10154,
        "contract": "contracts/DepositToken.sol:DepositToken",
        "label": "_status",
        "offset": 0,
        "slot": "1",
        "type": "t_uint256"
      },
      {
        "astId": 9123,
        "contract": "contracts/DepositToken.sol:DepositToken",
        "label": "pool",
        "offset": 0,
        "slot": "2",
        "type": "t_contract(IPool)13240"
      },
      {
        "astId": 9225,
        "contract": "contracts/DepositToken.sol:DepositToken",
        "label": "__gap",
        "offset": 0,
        "slot": "3",
        "type": "t_array(t_uint256)49_storage"
      },
      {
        "astId": 15662,
        "contract": "contracts/DepositToken.sol:DepositToken",
        "label": "balanceOf",
        "offset": 0,
        "slot": "52",
        "type": "t_mapping(t_address,t_uint256)"
      },
      {
        "astId": 15670,
        "contract": "contracts/DepositToken.sol:DepositToken",
        "label": "allowance",
        "offset": 0,
        "slot": "53",
        "type": "t_mapping(t_address,t_mapping(t_address,t_uint256))"
      },
      {
        "astId": 15674,
        "contract": "contracts/DepositToken.sol:DepositToken",
        "label": "name",
        "offset": 0,
        "slot": "54",
        "type": "t_string_storage"
      },
      {
        "astId": 15678,
        "contract": "contracts/DepositToken.sol:DepositToken",
        "label": "symbol",
        "offset": 0,
        "slot": "55",
        "type": "t_string_storage"
      },
      {
        "astId": 15682,
        "contract": "contracts/DepositToken.sol:DepositToken",
        "label": "totalSupply",
        "offset": 0,
        "slot": "56",
        "type": "t_uint256"
      },
      {
        "astId": 15686,
        "contract": "contracts/DepositToken.sol:DepositToken",
        "label": "maxTotalSupply",
        "offset": 0,
        "slot": "57",
        "type": "t_uint256"
      },
      {
        "astId": 15690,
        "contract": "contracts/DepositToken.sol:DepositToken",
        "label": "collateralFactor",
        "offset": 0,
        "slot": "58",
        "type": "t_uint256"
      },
      {
        "astId": 15695,
        "contract": "contracts/DepositToken.sol:DepositToken",
        "label": "underlying",
        "offset": 0,
        "slot": "59",
        "type": "t_contract(IERC20)10809"
      },
      {
        "astId": 15699,
        "contract": "contracts/DepositToken.sol:DepositToken",
        "label": "isActive",
        "offset": 20,
        "slot": "59",
        "type": "t_bool"
      },
      {
        "astId": 15703,
        "contract": "contracts/DepositToken.sol:DepositToken",
        "label": "decimals",
        "offset": 21,
        "slot": "59",
        "type": "t_uint8"
      }
    ],
    "types": {
      "t_address": {
        "encoding": "inplace",
        "label": "address",
        "numberOfBytes": "20"
      },
      "t_array(t_uint256)49_storage": {
        "base": "t_uint256",
        "encoding": "inplace",
        "label": "uint256[49]",
        "numberOfBytes": "1568"
      },
      "t_bool": {
        "encoding": "inplace",
        "label": "bool",
        "numberOfBytes": "1"
      },
      "t_contract(IERC20)10809": {
        "encoding": "inplace",
        "label": "contract IERC20",
        "numberOfBytes": "20"
      },
      "t_contract(IPool)13240": {
        "encoding": "inplace",
        "label": "contract IPool",
        "numberOfBytes": "20"
      },
      "t_mapping(t_address,t_mapping(t_address,t_uint256))": {
        "encoding": "mapping",
        "key": "t_address",
        "label": "mapping(address => mapping(address => uint256))",
        "numberOfBytes": "32",
        "value": "t_mapping(t_address,t_uint256)"
      },
      "t_mapping(t_address,t_uint256)": {
        "encoding": "mapping",
        "key": "t_address",
        "label": "mapping(address => uint256)",
        "numberOfBytes": "32",
        "value": "t_uint256"
      },
      "t_string_storage": {
        "encoding": "bytes",
        "label": "string",
        "numberOfBytes": "32"
      },
      "t_uint256": {
        "encoding": "inplace",
        "label": "uint256",
        "numberOfBytes": "32"
      },
      "t_uint8": {
        "encoding": "inplace",
        "label": "uint8",
        "numberOfBytes": "1"
      }
    }
  }
}