{
  "address": "0x25Ee6eA9353E0ffa3155655F3dF9140684671f36",
  "abi": [
    {
      "inputs": [],
      "name": "FeeIsGreaterThanTheMax",
      "type": "error"
    },
    {
      "inputs": [],
      "name": "NewValueIsSameAsCurrent",
      "type": "error"
    },
    {
      "inputs": [],
      "name": "PoolRegistryIsNull",
      "type": "error"
    },
    {
      "inputs": [],
      "name": "SenderIsNotGovernor",
      "type": "error"
    },
    {
      "inputs": [],
      "name": "TierDiscountTooHigh",
      "type": "error"
    },
    {
      "inputs": [],
      "name": "TiersNotOrderedByMin",
      "type": "error"
    },
    {
      "anonymous": false,
      "inputs": [
        {
          "indexed": false,
          "internalType": "uint256",
          "name": "oldDepositFee",
          "type": "uint256"
        },
        {
          "indexed": false,
          "internalType": "uint256",
          "name": "newDepositFee",
          "type": "uint256"
        }
      ],
      "name": "DepositFeeUpdated",
      "type": "event"
    },
    {
      "anonymous": false,
      "inputs": [
        {
          "indexed": false,
          "internalType": "uint256",
          "name": "oldIssueFee",
          "type": "uint256"
        },
        {
          "indexed": false,
          "internalType": "uint256",
          "name": "newIssueFee",
          "type": "uint256"
        }
      ],
      "name": "IssueFeeUpdated",
      "type": "event"
    },
    {
      "anonymous": false,
      "inputs": [
        {
          "indexed": false,
          "internalType": "uint256",
          "name": "oldLiquidatorIncentive",
          "type": "uint256"
        },
        {
          "indexed": false,
          "internalType": "uint256",
          "name": "newLiquidatorIncentive",
          "type": "uint256"
        }
      ],
      "name": "LiquidatorIncentiveUpdated",
      "type": "event"
    },
    {
      "anonymous": false,
      "inputs": [
        {
          "indexed": false,
          "internalType": "uint256",
          "name": "oldProtocolLiquidationFee",
          "type": "uint256"
        },
        {
          "indexed": false,
          "internalType": "uint256",
          "name": "newProtocolLiquidationFee",
          "type": "uint256"
        }
      ],
      "name": "ProtocolLiquidationFeeUpdated",
      "type": "event"
    },
    {
      "anonymous": false,
      "inputs": [
        {
          "indexed": false,
          "internalType": "uint256",
          "name": "oldRepayFee",
          "type": "uint256"
        },
        {
          "indexed": false,
          "internalType": "uint256",
          "name": "newRepayFee",
          "type": "uint256"
        }
      ],
      "name": "RepayFeeUpdated",
      "type": "event"
    },
    {
      "anonymous": false,
      "inputs": [
        {
          "indexed": false,
          "internalType": "uint256",
          "name": "oldSwapFee",
          "type": "uint256"
        },
        {
          "indexed": false,
          "internalType": "uint256",
          "name": "newSwapFee",
          "type": "uint256"
        }
      ],
      "name": "SwapDefaultFeeUpdated",
      "type": "event"
    },
    {
      "anonymous": false,
      "inputs": [
        {
          "components": [
            {
              "internalType": "uint128",
              "name": "min",
              "type": "uint128"
            },
            {
              "internalType": "uint128",
              "name": "discount",
              "type": "uint128"
            }
          ],
          "indexed": false,
          "internalType": "struct FeeProviderStorageV1.Tier[]",
          "name": "oldTiers",
          "type": "tuple[]"
        },
        {
          "components": [
            {
              "internalType": "uint128",
              "name": "min",
              "type": "uint128"
            },
            {
              "internalType": "uint128",
              "name": "discount",
              "type": "uint128"
            }
          ],
          "indexed": false,
          "internalType": "struct FeeProviderStorageV1.Tier[]",
          "name": "newTiers",
          "type": "tuple[]"
        }
      ],
      "name": "TiersUpdated",
      "type": "event"
    },
    {
      "anonymous": false,
      "inputs": [
        {
          "indexed": false,
          "internalType": "uint256",
          "name": "oldWithdrawFee",
          "type": "uint256"
        },
        {
          "indexed": false,
          "internalType": "uint256",
          "name": "newWithdrawFee",
          "type": "uint256"
        }
      ],
      "name": "WithdrawFeeUpdated",
      "type": "event"
    },
    {
      "inputs": [],
      "name": "VERSION",
      "outputs": [
        {
          "internalType": "string",
          "name": "",
          "type": "string"
        }
      ],
      "stateMutability": "view",
      "type": "function"
    },
    {
      "inputs": [],
      "name": "defaultSwapFee",
      "outputs": [
        {
          "internalType": "uint256",
          "name": "",
          "type": "uint256"
        }
      ],
      "stateMutability": "view",
      "type": "function"
    },
    {
      "inputs": [],
      "name": "depositFee",
      "outputs": [
        {
          "internalType": "uint256",
          "name": "",
          "type": "uint256"
        }
      ],
      "stateMutability": "view",
      "type": "function"
    },
    {
      "inputs": [],
      "name": "esMET",
      "outputs": [
        {
          "internalType": "contract IESMET",
          "name": "",
          "type": "address"
        }
      ],
      "stateMutability": "view",
      "type": "function"
    },
    {
      "inputs": [],
      "name": "getTiers",
      "outputs": [
        {
          "components": [
            {
              "internalType": "uint128",
              "name": "min",
              "type": "uint128"
            },
            {
              "internalType": "uint128",
              "name": "discount",
              "type": "uint128"
            }
          ],
          "internalType": "struct FeeProviderStorageV1.Tier[]",
          "name": "_tiers",
          "type": "tuple[]"
        }
      ],
      "stateMutability": "view",
      "type": "function"
    },
    {
      "inputs": [
        {
          "internalType": "contract IPoolRegistry",
          "name": "poolRegistry_",
          "type": "address"
        },
        {
          "internalType": "contract IESMET",
          "name": "esMET_",
          "type": "address"
        }
      ],
      "name": "initialize",
      "outputs": [],
      "stateMutability": "nonpayable",
      "type": "function"
    },
    {
      "inputs": [],
      "name": "issueFee",
      "outputs": [
        {
          "internalType": "uint256",
          "name": "",
          "type": "uint256"
        }
      ],
      "stateMutability": "view",
      "type": "function"
    },
    {
      "inputs": [],
      "name": "liquidationFees",
      "outputs": [
        {
          "internalType": "uint128",
          "name": "liquidatorIncentive",
          "type": "uint128"
        },
        {
          "internalType": "uint128",
          "name": "protocolFee",
          "type": "uint128"
        }
      ],
      "stateMutability": "view",
      "type": "function"
    },
    {
      "inputs": [],
      "name": "poolRegistry",
      "outputs": [
        {
          "internalType": "contract IPoolRegistry",
          "name": "",
          "type": "address"
        }
      ],
      "stateMutability": "view",
      "type": "function"
    },
    {
      "inputs": [],
      "name": "repayFee",
      "outputs": [
        {
          "internalType": "uint256",
          "name": "",
          "type": "uint256"
        }
      ],
      "stateMutability": "view",
      "type": "function"
    },
    {
      "inputs": [
        {
          "internalType": "address",
          "name": "account_",
          "type": "address"
        }
      ],
      "name": "swapFeeFor",
      "outputs": [
        {
          "internalType": "uint256",
          "name": "_swapFee",
          "type": "uint256"
        }
      ],
      "stateMutability": "view",
      "type": "function"
    },
    {
      "inputs": [
        {
          "internalType": "uint256",
          "name": "",
          "type": "uint256"
        }
      ],
      "name": "tiers",
      "outputs": [
        {
          "internalType": "uint128",
          "name": "min",
          "type": "uint128"
        },
        {
          "internalType": "uint128",
          "name": "discount",
          "type": "uint128"
        }
      ],
      "stateMutability": "view",
      "type": "function"
    },
    {
      "inputs": [
        {
          "internalType": "uint256",
          "name": "newDefaultSwapFee_",
          "type": "uint256"
        }
      ],
      "name": "updateDefaultSwapFee",
      "outputs": [],
      "stateMutability": "nonpayable",
      "type": "function"
    },
    {
      "inputs": [
        {
          "internalType": "uint256",
          "name": "newDepositFee_",
          "type": "uint256"
        }
      ],
      "name": "updateDepositFee",
      "outputs": [],
      "stateMutability": "nonpayable",
      "type": "function"
    },
    {
      "inputs": [
        {
          "internalType": "uint256",
          "name": "newIssueFee_",
          "type": "uint256"
        }
      ],
      "name": "updateIssueFee",
      "outputs": [],
      "stateMutability": "nonpayable",
      "type": "function"
    },
    {
      "inputs": [
        {
          "internalType": "uint128",
          "name": "newLiquidatorIncentive_",
          "type": "uint128"
        }
      ],
      "name": "updateLiquidatorIncentive",
      "outputs": [],
      "stateMutability": "nonpayable",
      "type": "function"
    },
    {
      "inputs": [
        {
          "internalType": "uint128",
          "name": "newProtocolLiquidationFee_",
          "type": "uint128"
        }
      ],
      "name": "updateProtocolLiquidationFee",
      "outputs": [],
      "stateMutability": "nonpayable",
      "type": "function"
    },
    {
      "inputs": [
        {
          "internalType": "uint256",
          "name": "newRepayFee_",
          "type": "uint256"
        }
      ],
      "name": "updateRepayFee",
      "outputs": [],
      "stateMutability": "nonpayable",
      "type": "function"
    },
    {
      "inputs": [
        {
          "components": [
            {
              "internalType": "uint128",
              "name": "min",
              "type": "uint128"
            },
            {
              "internalType": "uint128",
              "name": "discount",
              "type": "uint128"
            }
          ],
          "internalType": "struct FeeProviderStorageV1.Tier[]",
          "name": "tiers_",
          "type": "tuple[]"
        }
      ],
      "name": "updateTiers",
      "outputs": [],
      "stateMutability": "nonpayable",
      "type": "function"
    },
    {
      "inputs": [
        {
          "internalType": "uint256",
          "name": "newWithdrawFee_",
          "type": "uint256"
        }
      ],
      "name": "updateWithdrawFee",
      "outputs": [],
      "stateMutability": "nonpayable",
      "type": "function"
    },
    {
      "inputs": [],
      "name": "withdrawFee",
      "outputs": [
        {
          "internalType": "uint256",
          "name": "",
          "type": "uint256"
        }
      ],
      "stateMutability": "view",
      "type": "function"
    }
  ],
  "transactionHash": "0x16b415d314c8b8cd4393cb9d23aae67d8f17fbc5f97400f8710e90a9d263801a",
  "args": [],
  "numDeployments": 2,
  "solcInputHash": "1d1eeb3af7f52d90d255aace1e1587c6",
  "bytecode": "0x608060405234801561001057600080fd5b5061179d806100206000396000f3fe608060405234801561001057600080fd5b50600436106101375760003560e01c80637c0f59f4116100b8578063cfc0c69f1161007c578063cfc0c69f1461027e578063d2d6b5a31461029c578063daf635de146102af578063de170570146102c2578063e941fa78146102d7578063ffa1ad74146102e057600080fd5b80637c0f59f41461022957806388156a351461023257806388c2c07f14610245578063a8ffba6414610258578063afcff50f1461026b57600080fd5b806336407921116100ff57806336407921146101d4578063485cc955146101e757806357f2e581146101fa5780635cd24fd21461020d57806367a527931461022057600080fd5b8063017def571461013c578063039af9eb1461015157806303df739614610189578063285a7674146101a05780632a9133c1146101cb575b600080fd5b61014f61014a366004611320565b610311565b005b61016461015f366004611320565b610454565b604080516001600160801b039384168152929091166020830152015b60405180910390f35b61019260025481565b604051908152602001610180565b6009546101b3906001600160a01b031681565b6040516001600160a01b039091168152602001610180565b61019260045481565b61014f6101e23660046113c5565b610489565b61014f6101f53660046114b6565b6106b6565b61014f610208366004611320565b610810565b61014f61021b3660046114ef565b610953565b61019260035481565b61019260065481565b61014f610240366004611320565b610b18565b61014f610253366004611320565b610c5b565b61014f6102663660046114ef565b610d9e565b6008546101b3906001600160a01b031681565b600754610164906001600160801b0380821691600160801b90041682565b6101926102aa36600461150a565b610f5b565b61014f6102bd366004611320565b6110d8565b6102ca61121b565b6040516101809190611581565b61019260055481565b610304604051806040016040528060058152602001640312e322e360dc1b81525081565b6040516101809190611594565b600860009054906101000a90046001600160a01b03166001600160a01b0316630c340a246040518163ffffffff1660e01b815260040160206040518083038186803b15801561035f57600080fd5b505afa158015610373573d6000803e3d6000fd5b505050506040513d601f19601f8201168201806040525081019061039791906115e9565b6001600160a01b0316336001600160a01b0316146103c857604051634b98449160e11b815260040160405180910390fd5b6703782dace9d900008111156103f1576040516361b716bb60e11b815260040160405180910390fd5b6003548181141561041557604051630333a68160e41b815260040160405180910390fd5b60408051828152602081018490527f828cf983933545af35b9ba46eec951db1cb4c5433c3ec403aeced2963c264790910160405180910390a150600355565b6001818154811061046457600080fd5b6000918252602090912001546001600160801b038082169250600160801b9091041682565b600860009054906101000a90046001600160a01b03166001600160a01b0316630c340a246040518163ffffffff1660e01b815260040160206040518083038186803b1580156104d757600080fd5b505afa1580156104eb573d6000803e3d6000fd5b505050506040513d601f19601f8201168201806040525081019061050f91906115e9565b6001600160a01b0316336001600160a01b03161461054057604051634b98449160e11b815260040160405180910390fd5b7f69e7d03bdd0009aaf816649f3df4329250186771260691fa1b13bae6419ead54600182604051610572929190611606565b60405180910390a1610586600160006112e6565b805160005b818110156106b15760008382815181106105a7576105a761166c565b60200260200101519050670de0b6b3a764000081602001516001600160801b031611156105e7576040516350e630a760e01b815260040160405180910390fd5b600082118015610630575080516001600160801b031684610609600185611698565b815181106106195761061961166c565b6020026020010151600001516001600160801b0316115b1561064e576040516344eff01160e11b815260040160405180910390fd5b60018054808201825560009190915281516020909201516001600160801b03908116600160801b029216919091177fb10e2d527612073b26eecdfd717e6a320cf44b4afac2b0732d9fcbe2b7fa0cf6909101556106aa816116af565b905061058b565b505050565b600054610100900460ff16806106cf575060005460ff16155b6107365760405162461bcd60e51b815260206004820152602e60248201527f496e697469616c697a61626c653a20636f6e747261637420697320616c72656160448201526d191e481a5b9a5d1a585b1a5e995960921b606482015260840160405180910390fd5b600054610100900460ff16158015610758576000805461ffff19166101011790555b6001600160a01b03831661077f57604051637cb62f2b60e11b815260040160405180910390fd5b600880546001600160a01b038086166001600160a01b03199283161790925560098054928516929091169190911790556040805180820190915267016345785d8a0000815267011c37937e08000060209091015277011c37937e0800000000000000000000016345785d8a00006007556608e1bc9bf0400060025580156106b1576000805461ff0019169055505050565b600860009054906101000a90046001600160a01b03166001600160a01b0316630c340a246040518163ffffffff1660e01b815260040160206040518083038186803b15801561085e57600080fd5b505afa158015610872573d6000803e3d6000fd5b505050506040513d601f19601f8201168201806040525081019061089691906115e9565b6001600160a01b0316336001600160a01b0316146108c757604051634b98449160e11b815260040160405180910390fd5b6703782dace9d900008111156108f0576040516361b716bb60e11b815260040160405180910390fd5b6004548181141561091457604051630333a68160e41b815260040160405180910390fd5b60408051828152602081018490527f7aef17a0caeda11810cdf2a40c79ac1340553588671fb35d5cc8d0a3fe2883be910160405180910390a150600455565b600860009054906101000a90046001600160a01b03166001600160a01b0316630c340a246040518163ffffffff1660e01b815260040160206040518083038186803b1580156109a157600080fd5b505afa1580156109b5573d6000803e3d6000fd5b505050506040513d601f19601f820116820180604052508101906109d991906115e9565b6001600160a01b0316336001600160a01b031614610a0a57604051634b98449160e11b815260040160405180910390fd5b604080518082019091526007546001600160801b03808216808452600160801b9092041660208301526703782dace9d9000090610a4790846116ca565b6001600160801b03161115610a6f576040516361b716bb60e11b815260040160405180910390fd5b80602001516001600160801b0316826001600160801b03161415610aa657604051630333a68160e41b815260040160405180910390fd5b7fe0dac1dcc46eceed1fdb7416944e7161273637fb346a67d6f0fce8de3e952f2f816020015183604051610af09291906001600160801b0392831681529116602082015260400190565b60405180910390a150600780546001600160801b03928316600160801b029216919091179055565b600860009054906101000a90046001600160a01b03166001600160a01b0316630c340a246040518163ffffffff1660e01b815260040160206040518083038186803b158015610b6657600080fd5b505afa158015610b7a573d6000803e3d6000fd5b505050506040513d601f19601f82011682018060405250810190610b9e91906115e9565b6001600160a01b0316336001600160a01b031614610bcf57604051634b98449160e11b815260040160405180910390fd5b6703782dace9d90000811115610bf8576040516361b716bb60e11b815260040160405180910390fd5b60065481811415610c1c57604051630333a68160e41b815260040160405180910390fd5b60408051828152602081018490527fdd45ca427fa57d0870314eb55586e91bcdd31d7cd393e3278caaae9dfb749688910160405180910390a150600655565b600860009054906101000a90046001600160a01b03166001600160a01b0316630c340a246040518163ffffffff1660e01b815260040160206040518083038186803b158015610ca957600080fd5b505afa158015610cbd573d6000803e3d6000fd5b505050506040513d601f19601f82011682018060405250810190610ce191906115e9565b6001600160a01b0316336001600160a01b031614610d1257604051634b98449160e11b815260040160405180910390fd5b6703782dace9d90000811115610d3b576040516361b716bb60e11b815260040160405180910390fd5b60025481811415610d5f57604051630333a68160e41b815260040160405180910390fd5b60408051828152602081018490527f1c2986e5350a71fed3feb3bdcbc3a7aaafd924f4b3dc18d90c17ccb885636be8910160405180910390a150600255565b600860009054906101000a90046001600160a01b03166001600160a01b0316630c340a246040518163ffffffff1660e01b815260040160206040518083038186803b158015610dec57600080fd5b505afa158015610e00573d6000803e3d6000fd5b505050506040513d601f19601f82011682018060405250810190610e2491906115e9565b6001600160a01b0316336001600160a01b031614610e5557604051634b98449160e11b815260040160405180910390fd5b604080518082019091526007546001600160801b038082168352600160801b90910416602082018190526703782dace9d9000090610e9390846116ca565b6001600160801b03161115610ebb576040516361b716bb60e11b815260040160405180910390fd5b80516001600160801b0383811691161415610ee957604051630333a68160e41b815260040160405180910390fd5b8051604080516001600160801b03928316815291841660208301527f400289ff508344720ca1c0ffff41672b308ae46b4c8227282c2dea56d8595671910160405180910390a150600780546fffffffffffffffffffffffffffffffff19166001600160801b0392909216919091179055565b60015460009080610f70575050600254919050565b6009546040516370a0823160e01b81526001600160a01b03858116600483015260009216906370a082319060240160206040518083038186803b158015610fb657600080fd5b505afa158015610fca573d6000803e3d6000fd5b505050506040513d601f19601f82011682018060405250810190610fee91906116f5565b905060016000815481106110045761100461166c565b6000918252602090912001546001600160801b031681101561102b57505060025492915050565b60015b828110156110c057600181815481106110495761104961166c565b6000918252602090912001546001600160801b03168210156110b8576110af60018083038154811061107d5761107d61166c565b600091825260209091200154600254906001600160801b03600160801b9091048116670de0b6b3a76400000316611291565b95945050505050565b60010161102e565b6110af60018085038154811061107d5761107d61166c565b600860009054906101000a90046001600160a01b03166001600160a01b0316630c340a246040518163ffffffff1660e01b815260040160206040518083038186803b15801561112657600080fd5b505afa15801561113a573d6000803e3d6000fd5b505050506040513d601f19601f8201168201806040525081019061115e91906115e9565b6001600160a01b0316336001600160a01b03161461118f57604051634b98449160e11b815260040160405180910390fd5b6703782dace9d900008111156111b8576040516361b716bb60e11b815260040160405180910390fd5b600554818114156111dc57604051630333a68160e41b815260040160405180910390fd5b60408051828152602081018490527f733071ab8253b372ed26a6d1b04aec71c4bfcd209c93397df32bb77478cdd2c8910160405180910390a150600555565b60606001805480602002602001604051908101604052809291908181526020016000905b8282101561128857600084815260209081902060408051808201909152908401546001600160801b038082168352600160801b909104168183015282526001909201910161123f565b50505050905090565b600082158061129e575081155b156112ab575060006112e0565b670de0b6b3a76400006112bf60028261170e565b6112c98486611730565b6112d3919061174f565b6112dd919061170e565b90505b92915050565b50805460008255906000526020600020908101906113049190611307565b50565b5b8082111561131c5760008155600101611308565b5090565b60006020828403121561133257600080fd5b5035919050565b634e487b7160e01b600052604160045260246000fd5b6040805190810167ffffffffffffffff8111828210171561137257611372611339565b60405290565b604051601f8201601f1916810167ffffffffffffffff811182821017156113a1576113a1611339565b604052919050565b80356001600160801b03811681146113c057600080fd5b919050565b600060208083850312156113d857600080fd5b823567ffffffffffffffff808211156113f057600080fd5b818501915085601f83011261140457600080fd5b81358181111561141657611416611339565b611424848260051b01611378565b818152848101925060069190911b83018401908782111561144457600080fd5b928401925b8184101561149657604084890312156114625760008081fd5b61146a61134f565b611473856113a9565b81526114808686016113a9565b8187015283526040939093019291840191611449565b979650505050505050565b6001600160a01b038116811461130457600080fd5b600080604083850312156114c957600080fd5b82356114d4816114a1565b915060208301356114e4816114a1565b809150509250929050565b60006020828403121561150157600080fd5b6112dd826113a9565b60006020828403121561151c57600080fd5b8135611527816114a1565b9392505050565b600081518084526020808501945080840160005b8381101561157657815180516001600160801b03908116895290840151168388015260409096019590820190600101611542565b509495945050505050565b6020815260006112dd602083018461152e565b600060208083528351808285015260005b818110156115c1578581018301518582016040015282016115a5565b818111156115d3576000604083870101525b50601f01601f1916929092016040019392505050565b6000602082840312156115fb57600080fd5b8151611527816114a1565b6000604080830181845280865480835260608601915087600052602092508260002060005b828110156116585781546001600160801b038116855260801c85850152928501926001918201910161162b565b50505084810382860152611496818761152e565b634e487b7160e01b600052603260045260246000fd5b634e487b7160e01b600052601160045260246000fd5b6000828210156116aa576116aa611682565b500390565b60006000198214156116c3576116c3611682565b5060010190565b60006001600160801b038083168185168083038211156116ec576116ec611682565b01949350505050565b60006020828403121561170757600080fd5b5051919050565b60008261172b57634e487b7160e01b600052601260045260246000fd5b500490565b600081600019048311821515161561174a5761174a611682565b500290565b6000821982111561176257611762611682565b50019056fea2646970667358221220025a5a2510ee856b0a4eeb89e9484816a96d734d1633883a1ef52286e6c9ee4364736f6c63430008090033",
  "devdoc": {
    "kind": "dev",
    "methods": {
      "swapFeeFor(address)": {
        "params": {
          "account_": "The account address"
        },
        "returns": {
          "_swapFee": "The account's swap fee"
        }
      },
      "updateLiquidatorIncentive(uint128)": {
        "details": "liquidatorIncentive + protocolFee can't surpass max"
      },
      "updateProtocolLiquidationFee(uint128)": {
        "details": "liquidatorIncentive + protocolFee can't surpass max"
      }
    },
    "title": "FeeProvider contract",
    "version": 1
  },
  "userdoc": {
    "events": {
      "DepositFeeUpdated(uint256,uint256)": {
        "notice": "Emitted when deposit fee is updated"
      },
      "IssueFeeUpdated(uint256,uint256)": {
        "notice": "Emitted when issue fee is updated"
      },
      "LiquidatorIncentiveUpdated(uint256,uint256)": {
        "notice": "Emitted when liquidator incentive is updated"
      },
      "ProtocolLiquidationFeeUpdated(uint256,uint256)": {
        "notice": "Emitted when protocol liquidation fee is updated"
      },
      "RepayFeeUpdated(uint256,uint256)": {
        "notice": "Emitted when repay fee is updated"
      },
      "SwapDefaultFeeUpdated(uint256,uint256)": {
        "notice": "Emitted when swap fee is updated"
      },
      "TiersUpdated((uint128,uint128)[],(uint128,uint128)[])": {
        "notice": "Emitted when tiers are updated"
      },
      "WithdrawFeeUpdated(uint256,uint256)": {
        "notice": "Emitted when withdraw fee is updated"
      }
    },
    "kind": "user",
    "methods": {
      "defaultSwapFee()": {
        "notice": "The default fee charged when swapping synthetic tokens"
      },
      "depositFee()": {
        "notice": "The fee charged when depositing collateral"
      },
      "esMET()": {
        "notice": "The esMET contract"
      },
      "getTiers()": {
        "notice": "Get fee discount tiers"
      },
      "issueFee()": {
        "notice": "The fee charged when minting a synthetic token"
      },
      "liquidationFees()": {
        "notice": "The fees charged when liquidating a position"
      },
      "repayFee()": {
        "notice": "The fee charged when repaying debt"
      },
      "swapFeeFor(address)": {
        "notice": "Get the swap fee for a given account Fee discount are applied on top of the default swap fee depending on user's esMET balance"
      },
      "tiers(uint256)": {
        "notice": "The fee discount tiers"
      },
      "updateDefaultSwapFee(uint256)": {
        "notice": "Update swap fee"
      },
      "updateDepositFee(uint256)": {
        "notice": "Update deposit fee"
      },
      "updateIssueFee(uint256)": {
        "notice": "Update issue fee"
      },
      "updateLiquidatorIncentive(uint128)": {
        "notice": "Update liquidator incentive"
      },
      "updateProtocolLiquidationFee(uint128)": {
        "notice": "Update protocol liquidation fee"
      },
      "updateRepayFee(uint256)": {
        "notice": "Update repay fee"
      },
      "updateTiers((uint128,uint128)[])": {
        "notice": "Update fee discount tiers"
      },
      "updateWithdrawFee(uint256)": {
        "notice": "Update withdraw fee"
      },
      "withdrawFee()": {
        "notice": "The fee charged when withdrawing collateral"
      }
    },
    "version": 1
  },
  "storageLayout": {
    "storage": [
      {
        "astId": 10100,
        "contract": "contracts/FeeProvider.sol:FeeProvider",
        "label": "_initialized",
        "offset": 0,
        "slot": "0",
        "type": "t_bool"
      },
      {
        "astId": 10103,
        "contract": "contracts/FeeProvider.sol:FeeProvider",
        "label": "_initializing",
        "offset": 1,
        "slot": "0",
        "type": "t_bool"
      },
      {
        "astId": 15721,
        "contract": "contracts/FeeProvider.sol:FeeProvider",
        "label": "tiers",
        "offset": 0,
        "slot": "1",
        "type": "t_array(t_struct(Tier)15716_storage)dyn_storage"
      },
      {
        "astId": 15725,
        "contract": "contracts/FeeProvider.sol:FeeProvider",
        "label": "defaultSwapFee",
        "offset": 0,
        "slot": "2",
        "type": "t_uint256"
      },
      {
        "astId": 15729,
        "contract": "contracts/FeeProvider.sol:FeeProvider",
        "label": "depositFee",
        "offset": 0,
        "slot": "3",
        "type": "t_uint256"
      },
      {
        "astId": 15733,
        "contract": "contracts/FeeProvider.sol:FeeProvider",
        "label": "issueFee",
        "offset": 0,
        "slot": "4",
        "type": "t_uint256"
      },
      {
        "astId": 15737,
        "contract": "contracts/FeeProvider.sol:FeeProvider",
        "label": "withdrawFee",
        "offset": 0,
        "slot": "5",
        "type": "t_uint256"
      },
      {
        "astId": 15741,
        "contract": "contracts/FeeProvider.sol:FeeProvider",
        "label": "repayFee",
        "offset": 0,
        "slot": "6",
        "type": "t_uint256"
      },
      {
        "astId": 15746,
        "contract": "contracts/FeeProvider.sol:FeeProvider",
        "label": "liquidationFees",
        "offset": 0,
        "slot": "7",
        "type": "t_struct(LiquidationFees)12801_storage"
      },
      {
        "astId": 15750,
        "contract": "contracts/FeeProvider.sol:FeeProvider",
        "label": "poolRegistry",
        "offset": 0,
        "slot": "8",
        "type": "t_contract(IPoolRegistry)13318"
      },
      {
        "astId": 15754,
        "contract": "contracts/FeeProvider.sol:FeeProvider",
        "label": "esMET",
        "offset": 0,
        "slot": "9",
        "type": "t_contract(IESMET)13596"
      }
    ],
    "types": {
      "t_array(t_struct(Tier)15716_storage)dyn_storage": {
        "base": "t_struct(Tier)15716_storage",
        "encoding": "dynamic_array",
        "label": "struct FeeProviderStorageV1.Tier[]",
        "numberOfBytes": "32"
      },
      "t_bool": {
        "encoding": "inplace",
        "label": "bool",
        "numberOfBytes": "1"
      },
      "t_contract(IESMET)13596": {
        "encoding": "inplace",
        "label": "contract IESMET",
        "numberOfBytes": "20"
      },
      "t_contract(IPoolRegistry)13318": {
        "encoding": "inplace",
        "label": "contract IPoolRegistry",
        "numberOfBytes": "20"
      },
      "t_struct(LiquidationFees)12801_storage": {
        "encoding": "inplace",
        "label": "struct IFeeProvider.LiquidationFees",
        "members": [
          {
            "astId": 12798,
            "contract": "contracts/FeeProvider.sol:FeeProvider",
            "label": "liquidatorIncentive",
            "offset": 0,
            "slot": "0",
            "type": "t_uint128"
          },
          {
            "astId": 12800,
            "contract": "contracts/FeeProvider.sol:FeeProvider",
            "label": "protocolFee",
            "offset": 16,
            "slot": "0",
            "type": "t_uint128"
          }
        ],
        "numberOfBytes": "32"
      },
      "t_struct(Tier)15716_storage": {
        "encoding": "inplace",
        "label": "struct FeeProviderStorageV1.Tier",
        "members": [
          {
            "astId": 15713,
            "contract": "contracts/FeeProvider.sol:FeeProvider",
            "label": "min",
            "offset": 0,
            "slot": "0",
            "type": "t_uint128"
          },
          {
            "astId": 15715,
            "contract": "contracts/FeeProvider.sol:FeeProvider",
            "label": "discount",
            "offset": 16,
            "slot": "0",
            "type": "t_uint128"
          }
        ],
        "numberOfBytes": "32"
      },
      "t_uint128": {
        "encoding": "inplace",
        "label": "uint128",
        "numberOfBytes": "16"
      },
      "t_uint256": {
        "encoding": "inplace",
        "label": "uint256",
        "numberOfBytes": "32"
      }
    }
  }
}