{
  "address": "0x9b6079607038257FDb6be657AA73B18d053cA1FE",
  "abi": [
    {
      "inputs": [],
      "stateMutability": "nonpayable",
      "type": "constructor"
    },
    {
      "inputs": [],
      "name": "FeeIsGreaterThanTheMax",
      "type": "error"
    },
    {
      "inputs": [],
      "name": "NewValueIsSameAsCurrent",
      "type": "error"
    },
    {
      "inputs": [],
      "name": "PoolRegistryIsNull",
      "type": "error"
    },
    {
      "inputs": [],
      "name": "SenderIsNotGovernor",
      "type": "error"
    },
    {
      "inputs": [],
      "name": "TierDiscountTooHigh",
      "type": "error"
    },
    {
      "inputs": [],
      "name": "TiersNotOrderedByMin",
      "type": "error"
    },
    {
      "anonymous": false,
      "inputs": [
        {
          "indexed": false,
          "internalType": "uint256",
          "name": "oldDepositFee",
          "type": "uint256"
        },
        {
          "indexed": false,
          "internalType": "uint256",
          "name": "newDepositFee",
          "type": "uint256"
        }
      ],
      "name": "DepositFeeUpdated",
      "type": "event"
    },
    {
      "anonymous": false,
      "inputs": [
        {
          "indexed": false,
          "internalType": "uint8",
          "name": "version",
          "type": "uint8"
        }
      ],
      "name": "Initialized",
      "type": "event"
    },
    {
      "anonymous": false,
      "inputs": [
        {
          "indexed": false,
          "internalType": "uint256",
          "name": "oldIssueFee",
          "type": "uint256"
        },
        {
          "indexed": false,
          "internalType": "uint256",
          "name": "newIssueFee",
          "type": "uint256"
        }
      ],
      "name": "IssueFeeUpdated",
      "type": "event"
    },
    {
      "anonymous": false,
      "inputs": [
        {
          "indexed": false,
          "internalType": "uint256",
          "name": "oldLiquidatorIncentive",
          "type": "uint256"
        },
        {
          "indexed": false,
          "internalType": "uint256",
          "name": "newLiquidatorIncentive",
          "type": "uint256"
        }
      ],
      "name": "LiquidatorIncentiveUpdated",
      "type": "event"
    },
    {
      "anonymous": false,
      "inputs": [
        {
          "indexed": false,
          "internalType": "uint256",
          "name": "oldProtocolLiquidationFee",
          "type": "uint256"
        },
        {
          "indexed": false,
          "internalType": "uint256",
          "name": "newProtocolLiquidationFee",
          "type": "uint256"
        }
      ],
      "name": "ProtocolLiquidationFeeUpdated",
      "type": "event"
    },
    {
      "anonymous": false,
      "inputs": [
        {
          "indexed": false,
          "internalType": "uint256",
          "name": "oldRepayFee",
          "type": "uint256"
        },
        {
          "indexed": false,
          "internalType": "uint256",
          "name": "newRepayFee",
          "type": "uint256"
        }
      ],
      "name": "RepayFeeUpdated",
      "type": "event"
    },
    {
      "anonymous": false,
      "inputs": [
        {
          "indexed": false,
          "internalType": "uint256",
          "name": "oldSwapFee",
          "type": "uint256"
        },
        {
          "indexed": false,
          "internalType": "uint256",
          "name": "newSwapFee",
          "type": "uint256"
        }
      ],
      "name": "SwapDefaultFeeUpdated",
      "type": "event"
    },
    {
      "anonymous": false,
      "inputs": [
        {
          "components": [
            {
              "internalType": "uint128",
              "name": "min",
              "type": "uint128"
            },
            {
              "internalType": "uint128",
              "name": "discount",
              "type": "uint128"
            }
          ],
          "indexed": false,
          "internalType": "struct FeeProviderStorageV1.Tier[]",
          "name": "oldTiers",
          "type": "tuple[]"
        },
        {
          "components": [
            {
              "internalType": "uint128",
              "name": "min",
              "type": "uint128"
            },
            {
              "internalType": "uint128",
              "name": "discount",
              "type": "uint128"
            }
          ],
          "indexed": false,
          "internalType": "struct FeeProviderStorageV1.Tier[]",
          "name": "newTiers",
          "type": "tuple[]"
        }
      ],
      "name": "TiersUpdated",
      "type": "event"
    },
    {
      "anonymous": false,
      "inputs": [
        {
          "indexed": false,
          "internalType": "uint256",
          "name": "oldWithdrawFee",
          "type": "uint256"
        },
        {
          "indexed": false,
          "internalType": "uint256",
          "name": "newWithdrawFee",
          "type": "uint256"
        }
      ],
      "name": "WithdrawFeeUpdated",
      "type": "event"
    },
    {
      "inputs": [],
      "name": "VERSION",
      "outputs": [
        {
          "internalType": "string",
          "name": "",
          "type": "string"
        }
      ],
      "stateMutability": "view",
      "type": "function"
    },
    {
      "inputs": [],
      "name": "defaultSwapFee",
      "outputs": [
        {
          "internalType": "uint256",
          "name": "",
          "type": "uint256"
        }
      ],
      "stateMutability": "view",
      "type": "function"
    },
    {
      "inputs": [],
      "name": "depositFee",
      "outputs": [
        {
          "internalType": "uint256",
          "name": "",
          "type": "uint256"
        }
      ],
      "stateMutability": "view",
      "type": "function"
    },
    {
      "inputs": [],
      "name": "esMET",
      "outputs": [
        {
          "internalType": "contract IESMET",
          "name": "",
          "type": "address"
        }
      ],
      "stateMutability": "view",
      "type": "function"
    },
    {
      "inputs": [],
      "name": "getTiers",
      "outputs": [
        {
          "components": [
            {
              "internalType": "uint128",
              "name": "min",
              "type": "uint128"
            },
            {
              "internalType": "uint128",
              "name": "discount",
              "type": "uint128"
            }
          ],
          "internalType": "struct FeeProviderStorageV1.Tier[]",
          "name": "_tiers",
          "type": "tuple[]"
        }
      ],
      "stateMutability": "view",
      "type": "function"
    },
    {
      "inputs": [
        {
          "internalType": "contract IPoolRegistry",
          "name": "poolRegistry_",
          "type": "address"
        },
        {
          "internalType": "contract IESMET",
          "name": "esMET_",
          "type": "address"
        }
      ],
      "name": "initialize",
      "outputs": [],
      "stateMutability": "nonpayable",
      "type": "function"
    },
    {
      "inputs": [],
      "name": "issueFee",
      "outputs": [
        {
          "internalType": "uint256",
          "name": "",
          "type": "uint256"
        }
      ],
      "stateMutability": "view",
      "type": "function"
    },
    {
      "inputs": [],
      "name": "liquidationFees",
      "outputs": [
        {
          "internalType": "uint128",
          "name": "liquidatorIncentive",
          "type": "uint128"
        },
        {
          "internalType": "uint128",
          "name": "protocolFee",
          "type": "uint128"
        }
      ],
      "stateMutability": "view",
      "type": "function"
    },
    {
      "inputs": [],
      "name": "poolRegistry",
      "outputs": [
        {
          "internalType": "contract IPoolRegistry",
          "name": "",
          "type": "address"
        }
      ],
      "stateMutability": "view",
      "type": "function"
    },
    {
      "inputs": [],
      "name": "repayFee",
      "outputs": [
        {
          "internalType": "uint256",
          "name": "",
          "type": "uint256"
        }
      ],
      "stateMutability": "view",
      "type": "function"
    },
    {
      "inputs": [
        {
          "internalType": "address",
          "name": "account_",
          "type": "address"
        }
      ],
      "name": "swapFeeFor",
      "outputs": [
        {
          "internalType": "uint256",
          "name": "_swapFee",
          "type": "uint256"
        }
      ],
      "stateMutability": "view",
      "type": "function"
    },
    {
      "inputs": [
        {
          "internalType": "uint256",
          "name": "",
          "type": "uint256"
        }
      ],
      "name": "tiers",
      "outputs": [
        {
          "internalType": "uint128",
          "name": "min",
          "type": "uint128"
        },
        {
          "internalType": "uint128",
          "name": "discount",
          "type": "uint128"
        }
      ],
      "stateMutability": "view",
      "type": "function"
    },
    {
      "inputs": [
        {
          "internalType": "uint256",
          "name": "newDefaultSwapFee_",
          "type": "uint256"
        }
      ],
      "name": "updateDefaultSwapFee",
      "outputs": [],
      "stateMutability": "nonpayable",
      "type": "function"
    },
    {
      "inputs": [
        {
          "internalType": "uint256",
          "name": "newDepositFee_",
          "type": "uint256"
        }
      ],
      "name": "updateDepositFee",
      "outputs": [],
      "stateMutability": "nonpayable",
      "type": "function"
    },
    {
      "inputs": [
        {
          "internalType": "uint256",
          "name": "newIssueFee_",
          "type": "uint256"
        }
      ],
      "name": "updateIssueFee",
      "outputs": [],
      "stateMutability": "nonpayable",
      "type": "function"
    },
    {
      "inputs": [
        {
          "internalType": "uint128",
          "name": "newLiquidatorIncentive_",
          "type": "uint128"
        }
      ],
      "name": "updateLiquidatorIncentive",
      "outputs": [],
      "stateMutability": "nonpayable",
      "type": "function"
    },
    {
      "inputs": [
        {
          "internalType": "uint128",
          "name": "newProtocolLiquidationFee_",
          "type": "uint128"
        }
      ],
      "name": "updateProtocolLiquidationFee",
      "outputs": [],
      "stateMutability": "nonpayable",
      "type": "function"
    },
    {
      "inputs": [
        {
          "internalType": "uint256",
          "name": "newRepayFee_",
          "type": "uint256"
        }
      ],
      "name": "updateRepayFee",
      "outputs": [],
      "stateMutability": "nonpayable",
      "type": "function"
    },
    {
      "inputs": [
        {
          "components": [
            {
              "internalType": "uint128",
              "name": "min",
              "type": "uint128"
            },
            {
              "internalType": "uint128",
              "name": "discount",
              "type": "uint128"
            }
          ],
          "internalType": "struct FeeProviderStorageV1.Tier[]",
          "name": "tiers_",
          "type": "tuple[]"
        }
      ],
      "name": "updateTiers",
      "outputs": [],
      "stateMutability": "nonpayable",
      "type": "function"
    },
    {
      "inputs": [
        {
          "internalType": "uint256",
          "name": "newWithdrawFee_",
          "type": "uint256"
        }
      ],
      "name": "updateWithdrawFee",
      "outputs": [],
      "stateMutability": "nonpayable",
      "type": "function"
    },
    {
      "inputs": [],
      "name": "withdrawFee",
      "outputs": [
        {
          "internalType": "uint256",
          "name": "",
          "type": "uint256"
        }
      ],
      "stateMutability": "view",
      "type": "function"
    }
  ],
  "transactionHash": "0x0a49277754f21f4dc0a6fe24de31ccb5be5973687f6539db7f2071caa2950213",
  "args": [],
  "numDeployments": 3,
  "solcInputHash": "545cb6254fd08cfae8ffa56eab2faa67",
  "bytecode": "0x60806040523480156200001157600080fd5b506200001c62000022565b62000152565b6200002e60ff62000031565b50565b60008054610100900460ff1615620000ca578160ff1660011480156200006a575062000068306200014360201b620012471760201c565b155b620000c25760405162461bcd60e51b815260206004820152602e6024820152600080516020620019a383398151915260448201526d191e481a5b9a5d1a585b1a5e995960921b60648201526084015b60405180910390fd5b506000919050565b60005460ff808416911610620001295760405162461bcd60e51b815260206004820152602e6024820152600080516020620019a383398151915260448201526d191e481a5b9a5d1a585b1a5e995960921b6064820152608401620000b9565b506000805460ff191660ff92909216919091179055600190565b6001600160a01b03163b151590565b61184180620001626000396000f3fe608060405234801561001057600080fd5b50600436106101375760003560e01c80637c0f59f4116100b8578063cfc0c69f1161007c578063cfc0c69f1461027e578063d2d6b5a31461029c578063daf635de146102af578063de170570146102c2578063e941fa78146102d7578063ffa1ad74146102e057600080fd5b80637c0f59f41461022957806388156a351461023257806388c2c07f14610245578063a8ffba6414610258578063afcff50f1461026b57600080fd5b806336407921116100ff57806336407921146101d4578063485cc955146101e757806357f2e581146101fa5780635cd24fd21461020d57806367a527931461022057600080fd5b8063017def571461013c578063039af9eb1461015157806303df739614610189578063285a7674146101a05780632a9133c1146101cb575b600080fd5b61014f61014a36600461137b565b610311565b005b61016461015f36600461137b565b610454565b604080516001600160801b039384168152929091166020830152015b60405180910390f35b61019260025481565b604051908152602001610180565b6009546101b3906001600160a01b031681565b6040516001600160a01b039091168152602001610180565b61019260045481565b61014f6101e236600461141b565b610489565b61014f6101f536600461150c565b6106b6565b61014f61020836600461137b565b6107c6565b61014f61021b366004611545565b610909565b61019260035481565b61019260065481565b61014f61024036600461137b565b610ace565b61014f61025336600461137b565b610c11565b61014f610266366004611545565b610d54565b6008546101b3906001600160a01b031681565b600754610164906001600160801b0380821691600160801b90041682565b6101926102aa366004611560565b610f11565b61014f6102bd36600461137b565b61108e565b6102ca6111d1565b60405161018091906115d7565b61019260055481565b610304604051806040016040528060058152602001640312e332e360dc1b81525081565b60405161018091906115ea565b600860009054906101000a90046001600160a01b03166001600160a01b0316630c340a246040518163ffffffff1660e01b815260040160206040518083038186803b15801561035f57600080fd5b505afa158015610373573d6000803e3d6000fd5b505050506040513d601f19601f82011682018060405250810190610397919061163f565b6001600160a01b0316336001600160a01b0316146103c857604051634b98449160e11b815260040160405180910390fd5b6703782dace9d900008111156103f1576040516361b716bb60e11b815260040160405180910390fd5b6003548181141561041557604051630333a68160e41b815260040160405180910390fd5b60408051828152602081018490527f828cf983933545af35b9ba46eec951db1cb4c5433c3ec403aeced2963c264790910160405180910390a150600355565b6001818154811061046457600080fd5b6000918252602090912001546001600160801b038082169250600160801b9091041682565b600860009054906101000a90046001600160a01b03166001600160a01b0316630c340a246040518163ffffffff1660e01b815260040160206040518083038186803b1580156104d757600080fd5b505afa1580156104eb573d6000803e3d6000fd5b505050506040513d601f19601f8201168201806040525081019061050f919061163f565b6001600160a01b0316336001600160a01b03161461054057604051634b98449160e11b815260040160405180910390fd5b7f69e7d03bdd0009aaf816649f3df4329250186771260691fa1b13bae6419ead5460018260405161057292919061165c565b60405180910390a161058660016000611341565b805160005b818110156106b15760008382815181106105a7576105a76116c2565b60200260200101519050670de0b6b3a764000081602001516001600160801b031611156105e7576040516350e630a760e01b815260040160405180910390fd5b600082118015610630575080516001600160801b0316846106096001856116ee565b81518110610619576106196116c2565b6020026020010151600001516001600160801b0316115b1561064e576040516344eff01160e11b815260040160405180910390fd5b60018054808201825560009190915281516020909201516001600160801b03908116600160801b029216919091177fb10e2d527612073b26eecdfd717e6a320cf44b4afac2b0732d9fcbe2b7fa0cf6909101556106aa81611705565b905061058b565b505050565b60006106c26001611256565b905080156106da576000805461ff0019166101001790555b6001600160a01b03831661070157604051637cb62f2b60e11b815260040160405180910390fd5b600880546001600160a01b038086166001600160a01b03199283161790925560098054928516929091169190911790556040805180820190915267016345785d8a0000815267011c37937e08000060209091015277011c37937e0800000000000000000000016345785d8a00006007556608e1bc9bf0400060025580156106b1576000805461ff0019169055604051600181527f7f26b83ff96e1f2b6a682f133852f6798a09c465da95921460cefb38474024989060200160405180910390a1505050565b600860009054906101000a90046001600160a01b03166001600160a01b0316630c340a246040518163ffffffff1660e01b815260040160206040518083038186803b15801561081457600080fd5b505afa158015610828573d6000803e3d6000fd5b505050506040513d601f19601f8201168201806040525081019061084c919061163f565b6001600160a01b0316336001600160a01b03161461087d57604051634b98449160e11b815260040160405180910390fd5b6703782dace9d900008111156108a6576040516361b716bb60e11b815260040160405180910390fd5b600454818114156108ca57604051630333a68160e41b815260040160405180910390fd5b60408051828152602081018490527f7aef17a0caeda11810cdf2a40c79ac1340553588671fb35d5cc8d0a3fe2883be910160405180910390a150600455565b600860009054906101000a90046001600160a01b03166001600160a01b0316630c340a246040518163ffffffff1660e01b815260040160206040518083038186803b15801561095757600080fd5b505afa15801561096b573d6000803e3d6000fd5b505050506040513d601f19601f8201168201806040525081019061098f919061163f565b6001600160a01b0316336001600160a01b0316146109c057604051634b98449160e11b815260040160405180910390fd5b604080518082019091526007546001600160801b03808216808452600160801b9092041660208301526703782dace9d90000906109fd9084611720565b6001600160801b03161115610a25576040516361b716bb60e11b815260040160405180910390fd5b80602001516001600160801b0316826001600160801b03161415610a5c57604051630333a68160e41b815260040160405180910390fd5b7fe0dac1dcc46eceed1fdb7416944e7161273637fb346a67d6f0fce8de3e952f2f816020015183604051610aa69291906001600160801b0392831681529116602082015260400190565b60405180910390a150600780546001600160801b03928316600160801b029216919091179055565b600860009054906101000a90046001600160a01b03166001600160a01b0316630c340a246040518163ffffffff1660e01b815260040160206040518083038186803b158015610b1c57600080fd5b505afa158015610b30573d6000803e3d6000fd5b505050506040513d601f19601f82011682018060405250810190610b54919061163f565b6001600160a01b0316336001600160a01b031614610b8557604051634b98449160e11b815260040160405180910390fd5b6703782dace9d90000811115610bae576040516361b716bb60e11b815260040160405180910390fd5b60065481811415610bd257604051630333a68160e41b815260040160405180910390fd5b60408051828152602081018490527fdd45ca427fa57d0870314eb55586e91bcdd31d7cd393e3278caaae9dfb749688910160405180910390a150600655565b600860009054906101000a90046001600160a01b03166001600160a01b0316630c340a246040518163ffffffff1660e01b815260040160206040518083038186803b158015610c5f57600080fd5b505afa158015610c73573d6000803e3d6000fd5b505050506040513d601f19601f82011682018060405250810190610c97919061163f565b6001600160a01b0316336001600160a01b031614610cc857604051634b98449160e11b815260040160405180910390fd5b6703782dace9d90000811115610cf1576040516361b716bb60e11b815260040160405180910390fd5b60025481811415610d1557604051630333a68160e41b815260040160405180910390fd5b60408051828152602081018490527f1c2986e5350a71fed3feb3bdcbc3a7aaafd924f4b3dc18d90c17ccb885636be8910160405180910390a150600255565b600860009054906101000a90046001600160a01b03166001600160a01b0316630c340a246040518163ffffffff1660e01b815260040160206040518083038186803b158015610da257600080fd5b505afa158015610db6573d6000803e3d6000fd5b505050506040513d601f19601f82011682018060405250810190610dda919061163f565b6001600160a01b0316336001600160a01b031614610e0b57604051634b98449160e11b815260040160405180910390fd5b604080518082019091526007546001600160801b038082168352600160801b90910416602082018190526703782dace9d9000090610e499084611720565b6001600160801b03161115610e71576040516361b716bb60e11b815260040160405180910390fd5b80516001600160801b0383811691161415610e9f57604051630333a68160e41b815260040160405180910390fd5b8051604080516001600160801b03928316815291841660208301527f400289ff508344720ca1c0ffff41672b308ae46b4c8227282c2dea56d8595671910160405180910390a150600780546fffffffffffffffffffffffffffffffff19166001600160801b0392909216919091179055565b60015460009080610f26575050600254919050565b6009546040516370a0823160e01b81526001600160a01b03858116600483015260009216906370a082319060240160206040518083038186803b158015610f6c57600080fd5b505afa158015610f80573d6000803e3d6000fd5b505050506040513d601f19601f82011682018060405250810190610fa4919061174b565b90506001600081548110610fba57610fba6116c2565b6000918252602090912001546001600160801b0316811015610fe157505060025492915050565b60015b828110156110765760018181548110610fff57610fff6116c2565b6000918252602090912001546001600160801b031682101561106e57611065600180830381548110611033576110336116c2565b600091825260209091200154600254906001600160801b03600160801b9091048116670de0b6b3a764000003166112ec565b95945050505050565b600101610fe4565b611065600180850381548110611033576110336116c2565b600860009054906101000a90046001600160a01b03166001600160a01b0316630c340a246040518163ffffffff1660e01b815260040160206040518083038186803b1580156110dc57600080fd5b505afa1580156110f0573d6000803e3d6000fd5b505050506040513d601f19601f82011682018060405250810190611114919061163f565b6001600160a01b0316336001600160a01b03161461114557604051634b98449160e11b815260040160405180910390fd5b6703782dace9d9000081111561116e576040516361b716bb60e11b815260040160405180910390fd5b6005548181141561119257604051630333a68160e41b815260040160405180910390fd5b60408051828152602081018490527f733071ab8253b372ed26a6d1b04aec71c4bfcd209c93397df32bb77478cdd2c8910160405180910390a150600555565b60606001805480602002602001604051908101604052809291908181526020016000905b8282101561123e57600084815260209081902060408051808201909152908401546001600160801b038082168352600160801b90910416818301528252600190920191016111f5565b50505050905090565b6001600160a01b03163b151590565b60008054610100900460ff16156112a6578160ff1660011480156112795750303b155b61129e5760405162461bcd60e51b815260040161129590611764565b60405180910390fd5b506000919050565b60005460ff8084169116106112cd5760405162461bcd60e51b815260040161129590611764565b506000805460ff191660ff92909216919091179055600190565b919050565b60008215806112f9575081155b156113065750600061133b565b670de0b6b3a764000061131a6002826117b2565b61132484866117d4565b61132e91906117f3565b61133891906117b2565b90505b92915050565b508054600082559060005260206000209081019061135f9190611362565b50565b5b808211156113775760008155600101611363565b5090565b60006020828403121561138d57600080fd5b5035919050565b634e487b7160e01b600052604160045260246000fd5b6040805190810167ffffffffffffffff811182821017156113cd576113cd611394565b60405290565b604051601f8201601f1916810167ffffffffffffffff811182821017156113fc576113fc611394565b604052919050565b80356001600160801b03811681146112e757600080fd5b6000602080838503121561142e57600080fd5b823567ffffffffffffffff8082111561144657600080fd5b818501915085601f83011261145a57600080fd5b81358181111561146c5761146c611394565b61147a848260051b016113d3565b818152848101925060069190911b83018401908782111561149a57600080fd5b928401925b818410156114ec57604084890312156114b85760008081fd5b6114c06113aa565b6114c985611404565b81526114d6868601611404565b818701528352604093909301929184019161149f565b979650505050505050565b6001600160a01b038116811461135f57600080fd5b6000806040838503121561151f57600080fd5b823561152a816114f7565b9150602083013561153a816114f7565b809150509250929050565b60006020828403121561155757600080fd5b61133882611404565b60006020828403121561157257600080fd5b813561157d816114f7565b9392505050565b600081518084526020808501945080840160005b838110156115cc57815180516001600160801b03908116895290840151168388015260409096019590820190600101611598565b509495945050505050565b6020815260006113386020830184611584565b600060208083528351808285015260005b81811015611617578581018301518582016040015282016115fb565b81811115611629576000604083870101525b50601f01601f1916929092016040019392505050565b60006020828403121561165157600080fd5b815161157d816114f7565b6000604080830181845280865480835260608601915087600052602092508260002060005b828110156116ae5781546001600160801b038116855260801c858501529285019260019182019101611681565b505050848103828601526114ec8187611584565b634e487b7160e01b600052603260045260246000fd5b634e487b7160e01b600052601160045260246000fd5b600082821015611700576117006116d8565b500390565b6000600019821415611719576117196116d8565b5060010190565b60006001600160801b03808316818516808303821115611742576117426116d8565b01949350505050565b60006020828403121561175d57600080fd5b5051919050565b6020808252602e908201527f496e697469616c697a61626c653a20636f6e747261637420697320616c72656160408201526d191e481a5b9a5d1a585b1a5e995960921b606082015260800190565b6000826117cf57634e487b7160e01b600052601260045260246000fd5b500490565b60008160001904831182151516156117ee576117ee6116d8565b500290565b60008219821115611806576118066116d8565b50019056fea2646970667358221220384197dda42946df854ef414353f289738eba72bed857a66444e64af2cfd459c64736f6c63430008090033496e697469616c697a61626c653a20636f6e747261637420697320616c726561",
  "devdoc": {
    "kind": "dev",
    "methods": {
      "swapFeeFor(address)": {
        "params": {
          "account_": "The account address"
        },
        "returns": {
          "_swapFee": "The account's swap fee"
        }
      },
      "updateLiquidatorIncentive(uint128)": {
        "details": "liquidatorIncentive + protocolFee can't surpass max"
      },
      "updateProtocolLiquidationFee(uint128)": {
        "details": "liquidatorIncentive + protocolFee can't surpass max"
      }
    },
    "title": "FeeProvider contract",
    "version": 1
  },
  "userdoc": {
    "events": {
      "DepositFeeUpdated(uint256,uint256)": {
        "notice": "Emitted when deposit fee is updated"
      },
      "IssueFeeUpdated(uint256,uint256)": {
        "notice": "Emitted when issue fee is updated"
      },
      "LiquidatorIncentiveUpdated(uint256,uint256)": {
        "notice": "Emitted when liquidator incentive is updated"
      },
      "ProtocolLiquidationFeeUpdated(uint256,uint256)": {
        "notice": "Emitted when protocol liquidation fee is updated"
      },
      "RepayFeeUpdated(uint256,uint256)": {
        "notice": "Emitted when repay fee is updated"
      },
      "SwapDefaultFeeUpdated(uint256,uint256)": {
        "notice": "Emitted when swap fee is updated"
      },
      "TiersUpdated((uint128,uint128)[],(uint128,uint128)[])": {
        "notice": "Emitted when tiers are updated"
      },
      "WithdrawFeeUpdated(uint256,uint256)": {
        "notice": "Emitted when withdraw fee is updated"
      }
    },
    "kind": "user",
    "methods": {
      "defaultSwapFee()": {
        "notice": "The default fee charged when swapping synthetic tokens"
      },
      "depositFee()": {
        "notice": "The fee charged when depositing collateral"
      },
      "esMET()": {
        "notice": "The esMET contract"
      },
      "getTiers()": {
        "notice": "Get fee discount tiers"
      },
      "issueFee()": {
        "notice": "The fee charged when minting a synthetic token"
      },
      "liquidationFees()": {
        "notice": "The fees charged when liquidating a position"
      },
      "repayFee()": {
        "notice": "The fee charged when repaying debt"
      },
      "swapFeeFor(address)": {
        "notice": "Get the swap fee for a given account Fee discount are applied on top of the default swap fee depending on user's esMET balance"
      },
      "tiers(uint256)": {
        "notice": "The fee discount tiers"
      },
      "updateDefaultSwapFee(uint256)": {
        "notice": "Update swap fee"
      },
      "updateDepositFee(uint256)": {
        "notice": "Update deposit fee"
      },
      "updateIssueFee(uint256)": {
        "notice": "Update issue fee"
      },
      "updateLiquidatorIncentive(uint128)": {
        "notice": "Update liquidator incentive"
      },
      "updateProtocolLiquidationFee(uint128)": {
        "notice": "Update protocol liquidation fee"
      },
      "updateRepayFee(uint256)": {
        "notice": "Update repay fee"
      },
      "updateTiers((uint128,uint128)[])": {
        "notice": "Update fee discount tiers"
      },
      "updateWithdrawFee(uint256)": {
        "notice": "Update withdraw fee"
      },
      "withdrawFee()": {
        "notice": "The fee charged when withdrawing collateral"
      }
    },
    "version": 1
  },
  "storageLayout": {
    "storage": [
      {
        "astId": 19514,
        "contract": "contracts/FeeProvider.sol:FeeProvider",
        "label": "_initialized",
        "offset": 0,
        "slot": "0",
        "type": "t_uint8"
      },
      {
        "astId": 19517,
        "contract": "contracts/FeeProvider.sol:FeeProvider",
        "label": "_initializing",
        "offset": 1,
        "slot": "0",
        "type": "t_bool"
      },
      {
        "astId": 30739,
        "contract": "contracts/FeeProvider.sol:FeeProvider",
        "label": "tiers",
        "offset": 0,
        "slot": "1",
        "type": "t_array(t_struct(Tier)30734_storage)dyn_storage"
      },
      {
        "astId": 30743,
        "contract": "contracts/FeeProvider.sol:FeeProvider",
        "label": "defaultSwapFee",
        "offset": 0,
        "slot": "2",
        "type": "t_uint256"
      },
      {
        "astId": 30747,
        "contract": "contracts/FeeProvider.sol:FeeProvider",
        "label": "depositFee",
        "offset": 0,
        "slot": "3",
        "type": "t_uint256"
      },
      {
        "astId": 30751,
        "contract": "contracts/FeeProvider.sol:FeeProvider",
        "label": "issueFee",
        "offset": 0,
        "slot": "4",
        "type": "t_uint256"
      },
      {
        "astId": 30755,
        "contract": "contracts/FeeProvider.sol:FeeProvider",
        "label": "withdrawFee",
        "offset": 0,
        "slot": "5",
        "type": "t_uint256"
      },
      {
        "astId": 30759,
        "contract": "contracts/FeeProvider.sol:FeeProvider",
        "label": "repayFee",
        "offset": 0,
        "slot": "6",
        "type": "t_uint256"
      },
      {
        "astId": 30764,
        "contract": "contracts/FeeProvider.sol:FeeProvider",
        "label": "liquidationFees",
        "offset": 0,
        "slot": "7",
        "type": "t_struct(LiquidationFees)27263_storage"
      },
      {
        "astId": 30768,
        "contract": "contracts/FeeProvider.sol:FeeProvider",
        "label": "poolRegistry",
        "offset": 0,
        "slot": "8",
        "type": "t_contract(IPoolRegistry)27760"
      },
      {
        "astId": 30772,
        "contract": "contracts/FeeProvider.sol:FeeProvider",
        "label": "esMET",
        "offset": 0,
        "slot": "9",
        "type": "t_contract(IESMET)28233"
      }
    ],
    "types": {
      "t_array(t_struct(Tier)30734_storage)dyn_storage": {
        "base": "t_struct(Tier)30734_storage",
        "encoding": "dynamic_array",
        "label": "struct FeeProviderStorageV1.Tier[]",
        "numberOfBytes": "32"
      },
      "t_bool": {
        "encoding": "inplace",
        "label": "bool",
        "numberOfBytes": "1"
      },
      "t_contract(IESMET)28233": {
        "encoding": "inplace",
        "label": "contract IESMET",
        "numberOfBytes": "20"
      },
      "t_contract(IPoolRegistry)27760": {
        "encoding": "inplace",
        "label": "contract IPoolRegistry",
        "numberOfBytes": "20"
      },
      "t_struct(LiquidationFees)27263_storage": {
        "encoding": "inplace",
        "label": "struct IFeeProvider.LiquidationFees",
        "members": [
          {
            "astId": 27260,
            "contract": "contracts/FeeProvider.sol:FeeProvider",
            "label": "liquidatorIncentive",
            "offset": 0,
            "slot": "0",
            "type": "t_uint128"
          },
          {
            "astId": 27262,
            "contract": "contracts/FeeProvider.sol:FeeProvider",
            "label": "protocolFee",
            "offset": 16,
            "slot": "0",
            "type": "t_uint128"
          }
        ],
        "numberOfBytes": "32"
      },
      "t_struct(Tier)30734_storage": {
        "encoding": "inplace",
        "label": "struct FeeProviderStorageV1.Tier",
        "members": [
          {
            "astId": 30731,
            "contract": "contracts/FeeProvider.sol:FeeProvider",
            "label": "min",
            "offset": 0,
            "slot": "0",
            "type": "t_uint128"
          },
          {
            "astId": 30733,
            "contract": "contracts/FeeProvider.sol:FeeProvider",
            "label": "discount",
            "offset": 16,
            "slot": "0",
            "type": "t_uint128"
          }
        ],
        "numberOfBytes": "32"
      },
      "t_uint128": {
        "encoding": "inplace",
        "label": "uint128",
        "numberOfBytes": "16"
      },
      "t_uint256": {
        "encoding": "inplace",
        "label": "uint256",
        "numberOfBytes": "32"
      },
      "t_uint8": {
        "encoding": "inplace",
        "label": "uint8",
        "numberOfBytes": "1"
      }
    }
  }
}