{
  "address": "0x293aaC1fef48b2ebf95d0CB3a31A7B219e8Ece9E",
  "abi": [
    {
      "inputs": [],
      "stateMutability": "nonpayable",
      "type": "constructor"
    },
    {
      "inputs": [],
      "name": "FallbackIsNotAllowed",
      "type": "error"
    },
    {
      "inputs": [],
      "name": "InvalidProof",
      "type": "error"
    },
    {
      "inputs": [],
      "name": "NewMerkleRootSameAsCurrent",
      "type": "error"
    },
    {
      "inputs": [],
      "name": "NothingToClaim",
      "type": "error"
    },
    {
      "inputs": [],
      "name": "ProofsFileIsNull",
      "type": "error"
    },
    {
      "inputs": [],
      "name": "ProposedGovernorIsNull",
      "type": "error"
    },
    {
      "inputs": [],
      "name": "ReceiveIsNotAllowed",
      "type": "error"
    },
    {
      "inputs": [],
      "name": "SenderIsNotGovernor",
      "type": "error"
    },
    {
      "inputs": [],
      "name": "SenderIsNotTheProposedGovernor",
      "type": "error"
    },
    {
      "anonymous": false,
      "inputs": [
        {
          "indexed": false,
          "internalType": "uint8",
          "name": "version",
          "type": "uint8"
        }
      ],
      "name": "Initialized",
      "type": "event"
    },
    {
      "anonymous": false,
      "inputs": [
        {
          "indexed": false,
          "internalType": "bytes32",
          "name": "merkleRoot",
          "type": "bytes32"
        },
        {
          "indexed": false,
          "internalType": "uint256",
          "name": "createdAt",
          "type": "uint256"
        }
      ],
      "name": "MerkleRootUpdated",
      "type": "event"
    },
    {
      "anonymous": false,
      "inputs": [
        {
          "indexed": true,
          "internalType": "address",
          "name": "to",
          "type": "address"
        },
        {
          "indexed": false,
          "internalType": "uint256",
          "name": "amount",
          "type": "uint256"
        }
      ],
      "name": "RewardClaimed",
      "type": "event"
    },
    {
      "anonymous": false,
      "inputs": [
        {
          "indexed": true,
          "internalType": "address",
          "name": "previousGovernor",
          "type": "address"
        },
        {
          "indexed": true,
          "internalType": "address",
          "name": "proposedGovernor",
          "type": "address"
        }
      ],
      "name": "UpdatedGovernor",
      "type": "event"
    },
    {
      "stateMutability": "payable",
      "type": "fallback"
    },
    {
      "inputs": [],
      "name": "ESMET",
      "outputs": [
        {
          "internalType": "contract IESMET",
          "name": "",
          "type": "address"
        }
      ],
      "stateMutability": "view",
      "type": "function"
    },
    {
      "inputs": [],
      "name": "MET",
      "outputs": [
        {
          "internalType": "contract IERC20",
          "name": "",
          "type": "address"
        }
      ],
      "stateMutability": "view",
      "type": "function"
    },
    {
      "inputs": [],
      "name": "acceptGovernorship",
      "outputs": [],
      "stateMutability": "nonpayable",
      "type": "function"
    },
    {
      "inputs": [
        {
          "internalType": "uint256",
          "name": "amount_",
          "type": "uint256"
        },
        {
          "internalType": "bytes32[]",
          "name": "proof_",
          "type": "bytes32[]"
        }
      ],
      "name": "claim",
      "outputs": [],
      "stateMutability": "nonpayable",
      "type": "function"
    },
    {
      "inputs": [
        {
          "internalType": "address",
          "name": "",
          "type": "address"
        }
      ],
      "name": "claimed",
      "outputs": [
        {
          "internalType": "uint256",
          "name": "",
          "type": "uint256"
        }
      ],
      "stateMutability": "view",
      "type": "function"
    },
    {
      "inputs": [],
      "name": "governor",
      "outputs": [
        {
          "internalType": "address",
          "name": "",
          "type": "address"
        }
      ],
      "stateMutability": "view",
      "type": "function"
    },
    {
      "inputs": [],
      "name": "lockPeriod",
      "outputs": [
        {
          "internalType": "uint256",
          "name": "",
          "type": "uint256"
        }
      ],
      "stateMutability": "view",
      "type": "function"
    },
    {
      "inputs": [],
      "name": "merkleRoot",
      "outputs": [
        {
          "internalType": "bytes32",
          "name": "",
          "type": "bytes32"
        }
      ],
      "stateMutability": "view",
      "type": "function"
    },
    {
      "inputs": [],
      "name": "proofsFileHash",
      "outputs": [
        {
          "internalType": "bytes32",
          "name": "",
          "type": "bytes32"
        }
      ],
      "stateMutability": "view",
      "type": "function"
    },
    {
      "inputs": [],
      "name": "proposedGovernor",
      "outputs": [
        {
          "internalType": "address",
          "name": "",
          "type": "address"
        }
      ],
      "stateMutability": "view",
      "type": "function"
    },
    {
      "inputs": [
        {
          "internalType": "contract IERC20",
          "name": "token_",
          "type": "address"
        },
        {
          "internalType": "address",
          "name": "to_",
          "type": "address"
        },
        {
          "internalType": "uint256",
          "name": "amount_",
          "type": "uint256"
        }
      ],
      "name": "sweep",
      "outputs": [],
      "stateMutability": "nonpayable",
      "type": "function"
    },
    {
      "inputs": [],
      "name": "token",
      "outputs": [
        {
          "internalType": "contract IERC20",
          "name": "",
          "type": "address"
        }
      ],
      "stateMutability": "view",
      "type": "function"
    },
    {
      "inputs": [
        {
          "internalType": "address",
          "name": "proposedGovernor_",
          "type": "address"
        }
      ],
      "name": "transferGovernorship",
      "outputs": [],
      "stateMutability": "nonpayable",
      "type": "function"
    },
    {
      "inputs": [
        {
          "internalType": "uint256",
          "name": "lockPeriod_",
          "type": "uint256"
        }
      ],
      "name": "updateLockPeriod",
      "outputs": [],
      "stateMutability": "nonpayable",
      "type": "function"
    },
    {
      "inputs": [
        {
          "internalType": "bytes32",
          "name": "merkleRoot_",
          "type": "bytes32"
        },
        {
          "internalType": "bytes32",
          "name": "proofsFileHash_",
          "type": "bytes32"
        }
      ],
      "name": "updateMerkleRoot",
      "outputs": [],
      "stateMutability": "nonpayable",
      "type": "function"
    },
    {
      "inputs": [],
      "name": "updatedAt",
      "outputs": [
        {
          "internalType": "uint256",
          "name": "",
          "type": "uint256"
        }
      ],
      "stateMutability": "view",
      "type": "function"
    },
    {
      "stateMutability": "payable",
      "type": "receive"
    }
  ],
  "transactionHash": "0x600bedda905dac684c7efceb444fbf2989644d27476cd55afabfbb072f4c0835",
  "args": [],
  "numDeployments": 1,
  "solcInputHash": "ceb2ee7566b740b2473ec95f0384310e",
  "bytecode": "0x60a060405262093a8060075534801561001757600080fd5b5060016000818155815462010000600160b01b0319163362010000810291909117909255604051732ebd53d035150f328bd754d6dc66b99b0edb89aa9291907fd4459d5b8b913cab0244230fd9b1c08b6ceace7fe9230e60d0f74cbffdf849d0908290a36001600160a01b03166080526080516112926100b06000396000818161033d015281816109a901526109f201526112926000f3fe6080604052600436106100f75760003560e01c806391db7b0d1161008a578063c3249e6311610059578063c3249e63146102c1578063c884ef83146102e9578063f3b27bc314610316578063fc0c546a1461032b57610115565b806391db7b0d1461024b578063a6a13bdc1461026b578063af88790514610281578063b6aa515b146102a157610115565b806348c5d41a116100c657806348c5d41a146101cd57806362c06767146101f55780637519ab50146102155780638a11a3701461022b57610115565b80630c340a241461012e5780632eb4a7ab146101715780632f52ebb7146101955780633fd8b02f146101b757610115565b3661011557604051636436c22d60e11b815260040160405180910390fd5b60405163a0152e6360e01b815260040160405180910390fd5b34801561013a57600080fd5b50600154610154906201000090046001600160a01b031681565b6040516001600160a01b0390911681526020015b60405180910390f35b34801561017d57600080fd5b5061018760035481565b604051908152602001610168565b3480156101a157600080fd5b506101b56101b0366004610ffc565b61035f565b005b3480156101c357600080fd5b5061018760075481565b3480156101d957600080fd5b5061015473a28d70795a61dc925d4c220762a4344803876bb881565b34801561020157600080fd5b506101b5610210366004611093565b610524565b34801561022157600080fd5b5061018760055481565b34801561023757600080fd5b50600254610154906001600160a01b031681565b34801561025757600080fd5b506101b56102663660046110d4565b61055d565b34801561027757600080fd5b5061018760045481565b34801561028d57600080fd5b506101b561029c3660046110ed565b610593565b3480156102ad57600080fd5b506101b56102bc36600461110f565b610653565b3480156102cd57600080fd5b50610154732ebd53d035150f328bd754d6dc66b99b0edb89aa81565b3480156102f557600080fd5b5061018761030436600461110f565b60066020526000908152604090205481565b34801561032257600080fd5b506101b56106cd565b34801561033757600080fd5b506101547f000000000000000000000000000000000000000000000000000000000000000081565b600260005414156103b75760405162461bcd60e51b815260206004820152601f60248201527f5265656e7472616e637947756172643a207265656e7472616e742063616c6c0060448201526064015b60405180910390fd5b60026000556003546103dc576040516312d37ee560e31b815260040160405180910390fd5b6040516bffffffffffffffffffffffff193360601b1660208201526034810184905260009060540160405160208183030381529060405280519060200120905061045d838380806020026020016040519081016040528093929190818152602001838360200280828437600092019190915250506003549150849050610773565b61047a576040516309bde33960e01b815260040160405180910390fd5b336000908152600660205260408120546104949086611142565b9050806104b4576040516312d37ee560e31b815260040160405180910390fd5b33600090815260066020526040812080548392906104d3908490611159565b909155506104e390503382610824565b60405181815233907f106f923f993c2149d49b4255ff723acafa1f2d94393f561d3eda32ae348f72419060200160405180910390a250506001600055505050565b61052c610ab0565b6001600160a01b038316610549576105448282610ae3565b505050565b6105446001600160a01b0384168383610bfc565b6001546201000090046001600160a01b0316331461058e57604051634b98449160e11b815260040160405180910390fd5b600755565b6001546201000090046001600160a01b031633146105c457604051634b98449160e11b815260040160405180910390fd5b6003548214156105e7576040516349b716b760e01b815260040160405180910390fd5b80610605576040516375cad62960e11b815260040160405180910390fd5b600382905542600581905560048290556040805184815260208101929092527fecb6e184c8c1ff50ab199b30650a76b7eb56fe2f261becc6284e0a3a1707be48910160405180910390a15050565b6001546201000090046001600160a01b0316331461068457604051634b98449160e11b815260040160405180910390fd5b6001600160a01b0381166106ab57604051634c267bfb60e01b815260040160405180910390fd5b600280546001600160a01b0319166001600160a01b0392909216919091179055565b6002546001600160a01b03163381146106f95760405163038cdbad60e31b815260040160405180910390fd5b6001546040516001600160a01b038084169262010000900416907fd4459d5b8b913cab0244230fd9b1c08b6ceace7fe9230e60d0f74cbffdf849d090600090a3600180546001600160a01b03909216620100000262010000600160b01b0319909216919091179055600280546001600160a01b0319169055565b600081815b855181101561081757600086828151811061079557610795611171565b602002602001015190508083116107d7576040805160208101859052908101829052606001604051602081830303815290604052805190602001209250610804565b60408051602081018390529081018490526060016040516020818303038152906040528051906020012092505b508061080f81611187565b915050610778565b50831490505b9392505050565b60006007546005546108369190611159565b90504281101561085f57610544732ebd53d035150f328bd754d6dc66b99b0edb89aa8484610bfc565b600073a28d70795a61dc925d4c220762a4344803876bb86001600160a01b03166321a405896040518163ffffffff1660e01b815260040160206040518083038186803b1580156108ae57600080fd5b505afa1580156108c2573d6000803e3d6000fd5b505050506040513d601f19601f820116820180604052508101906108e691906111a2565b6108f1906001611159565b9050600073a28d70795a61dc925d4c220762a4344803876bb86001600160a01b0316637faf90576040518163ffffffff1660e01b815260040160206040518083038186803b15801561094257600080fd5b505afa158015610956573d6000803e3d6000fd5b505050506040513d601f19601f8201168201806040525081019061097a91906111a2565b9050600061099a61099461098e4287611142565b85610c5f565b83610c76565b90506109e56001600160a01b037f00000000000000000000000000000000000000000000000000000000000000001673a28d70795a61dc925d4c220762a4344803876bb86000610c85565b610a2d6001600160a01b037f00000000000000000000000000000000000000000000000000000000000000001673a28d70795a61dc925d4c220762a4344803876bb887610c85565b6040516341f12fc560e11b81526001600160a01b0387166004820152602481018690526044810182905273a28d70795a61dc925d4c220762a4344803876bb8906383e25f8a90606401600060405180830381600087803b158015610a9057600080fd5b505af1158015610aa4573d6000803e3d6000fd5b50505050505050505050565b6001546201000090046001600160a01b03163314610ae157604051634b98449160e11b815260040160405180910390fd5b565b80471015610b335760405162461bcd60e51b815260206004820152601d60248201527f416464726573733a20696e73756666696369656e742062616c616e636500000060448201526064016103ae565b6000826001600160a01b03168260405160006040518083038185875af1925050503d8060008114610b80576040519150601f19603f3d011682016040523d82523d6000602084013e610b85565b606091505b50509050806105445760405162461bcd60e51b815260206004820152603a60248201527f416464726573733a20756e61626c6520746f2073656e642076616c75652c207260448201527f6563697069656e74206d6179206861766520726576657274656400000000000060648201526084016103ae565b6040516001600160a01b03831660248201526044810182905261054490849063a9059cbb60e01b906064015b60408051601f198184030181529190526020810180516001600160e01b03166001600160e01b031990931692909217909152610da9565b600081831015610c6f578161081d565b5090919050565b6000818310610c6f578161081d565b801580610d0e5750604051636eb1769f60e11b81523060048201526001600160a01b03838116602483015284169063dd62ed3e9060440160206040518083038186803b158015610cd457600080fd5b505afa158015610ce8573d6000803e3d6000fd5b505050506040513d601f19601f82011682018060405250810190610d0c91906111a2565b155b610d795760405162461bcd60e51b815260206004820152603660248201527f5361666545524332303a20617070726f76652066726f6d206e6f6e2d7a65726f60448201527520746f206e6f6e2d7a65726f20616c6c6f77616e636560501b60648201526084016103ae565b6040516001600160a01b03831660248201526044810182905261054490849063095ea7b360e01b90606401610c28565b6000610dfe826040518060400160405280602081526020017f5361666545524332303a206c6f772d6c6576656c2063616c6c206661696c6564815250856001600160a01b0316610e7b9092919063ffffffff16565b8051909150156105445780806020019051810190610e1c91906111bb565b6105445760405162461bcd60e51b815260206004820152602a60248201527f5361666545524332303a204552433230206f7065726174696f6e20646964206e6044820152691bdd081cdd58d8d9595960b21b60648201526084016103ae565b6060610e8a8484600085610e92565b949350505050565b606082471015610ef35760405162461bcd60e51b815260206004820152602660248201527f416464726573733a20696e73756666696369656e742062616c616e636520666f6044820152651c8818d85b1b60d21b60648201526084016103ae565b6001600160a01b0385163b610f4a5760405162461bcd60e51b815260206004820152601d60248201527f416464726573733a2063616c6c20746f206e6f6e2d636f6e747261637400000060448201526064016103ae565b600080866001600160a01b03168587604051610f66919061120d565b60006040518083038185875af1925050503d8060008114610fa3576040519150601f19603f3d011682016040523d82523d6000602084013e610fa8565b606091505b5091509150610fb8828286610fc3565b979650505050505050565b60608315610fd257508161081d565b825115610fe25782518084602001fd5b8160405162461bcd60e51b81526004016103ae9190611229565b60008060006040848603121561101157600080fd5b83359250602084013567ffffffffffffffff8082111561103057600080fd5b818601915086601f83011261104457600080fd5b81358181111561105357600080fd5b8760208260051b850101111561106857600080fd5b6020830194508093505050509250925092565b6001600160a01b038116811461109057600080fd5b50565b6000806000606084860312156110a857600080fd5b83356110b38161107b565b925060208401356110c38161107b565b929592945050506040919091013590565b6000602082840312156110e657600080fd5b5035919050565b6000806040838503121561110057600080fd5b50508035926020909101359150565b60006020828403121561112157600080fd5b813561081d8161107b565b634e487b7160e01b600052601160045260246000fd5b6000828210156111545761115461112c565b500390565b6000821982111561116c5761116c61112c565b500190565b634e487b7160e01b600052603260045260246000fd5b600060001982141561119b5761119b61112c565b5060010190565b6000602082840312156111b457600080fd5b5051919050565b6000602082840312156111cd57600080fd5b8151801515811461081d57600080fd5b60005b838110156111f85781810151838201526020016111e0565b83811115611207576000848401525b50505050565b6000825161121f8184602087016111dd565b9190910192915050565b60208152600082518060208401526112488160408501602087016111dd565b601f01601f1916919091016040019291505056fea26469706673582212209cf8da6b86f2a75cfd06648a72cc9c3d4c3cde4247ce2aba437b40885908ccb364736f6c63430008090033",
  "devdoc": {
    "kind": "dev",
    "methods": {
      "claim(uint256,bytes32[])": {
        "details": "Every tree leaf is a `[account, amount]` tuple, we assume that the `msg.sender` is the account",
        "params": {
          "amount_": "The amount to claim",
          "proof_": "The merkle tree proof for the given leaf"
        }
      },
      "sweep(address,address,uint256)": {
        "params": {
          "amount_": "The amount to send",
          "to_": "The recipient of the transfer",
          "token_": "The token to transfer"
        }
      },
      "transferGovernorship(address)": {
        "details": "Can only be called by the current owner.",
        "params": {
          "proposedGovernor_": "The new proposed governor"
        }
      },
      "updateLockPeriod(uint256)": {
        "params": {
          "lockPeriod_": "The new value"
        }
      },
      "updateMerkleRoot(bytes32,bytes32)": {
        "params": {
          "merkleRoot_": "The merkle root"
        }
      }
    },
    "title": "MET Airdrop contract",
    "version": 1
  },
  "userdoc": {
    "events": {
      "MerkleRootUpdated(bytes32,uint256)": {
        "notice": "Emitted when the merkle root is updated"
      },
      "RewardClaimed(address,uint256)": {
        "notice": "Emitted when an account claims reward"
      }
    },
    "kind": "user",
    "methods": {
      "acceptGovernorship()": {
        "notice": "Allows new governor to accept governorship of the contract."
      },
      "claim(uint256,bytes32[])": {
        "notice": "Claim reward"
      },
      "claimed(address)": {
        "notice": "The Accumulated amount claimed for a given account"
      },
      "governor()": {
        "notice": "The governor"
      },
      "lockPeriod()": {
        "notice": "For how long `MET` tokens will be locked"
      },
      "merkleRoot()": {
        "notice": "The merkle root for the current distribution"
      },
      "proofsFileHash()": {
        "notice": "The proofs file's IPFS hash"
      },
      "proposedGovernor()": {
        "notice": "The proposed governor"
      },
      "sweep(address,address,uint256)": {
        "notice": "ERC20 recovery in case of stuck tokens due direct transfers to the contract address."
      },
      "token()": {
        "notice": "The token to distribute"
      },
      "transferGovernorship(address)": {
        "notice": "Transfers governorship of the contract to a new account (`proposedGovernor`)."
      },
      "updateLockPeriod(uint256)": {
        "notice": "Update esMET lock period"
      },
      "updateMerkleRoot(bytes32,bytes32)": {
        "notice": "Update merkle tree root"
      },
      "updatedAt()": {
        "notice": "The timestamp of the latest merkle root update"
      }
    },
    "version": 1
  },
  "storageLayout": {
    "storage": [
      {
        "astId": 18353,
        "contract": "contracts/MetAirdrop.sol:MetAirdrop",
        "label": "_status",
        "offset": 0,
        "slot": "0",
        "type": "t_uint256"
      },
      {
        "astId": 17018,
        "contract": "contracts/MetAirdrop.sol:MetAirdrop",
        "label": "_initialized",
        "offset": 0,
        "slot": "1",
        "type": "t_uint8"
      },
      {
        "astId": 17021,
        "contract": "contracts/MetAirdrop.sol:MetAirdrop",
        "label": "_initializing",
        "offset": 1,
        "slot": "1",
        "type": "t_bool"
      },
      {
        "astId": 13894,
        "contract": "contracts/MetAirdrop.sol:MetAirdrop",
        "label": "governor",
        "offset": 2,
        "slot": "1",
        "type": "t_address"
      },
      {
        "astId": 13897,
        "contract": "contracts/MetAirdrop.sol:MetAirdrop",
        "label": "proposedGovernor",
        "offset": 0,
        "slot": "2",
        "type": "t_address"
      },
      {
        "astId": 25381,
        "contract": "contracts/MetAirdrop.sol:MetAirdrop",
        "label": "merkleRoot",
        "offset": 0,
        "slot": "3",
        "type": "t_bytes32"
      },
      {
        "astId": 25384,
        "contract": "contracts/MetAirdrop.sol:MetAirdrop",
        "label": "proofsFileHash",
        "offset": 0,
        "slot": "4",
        "type": "t_bytes32"
      },
      {
        "astId": 25387,
        "contract": "contracts/MetAirdrop.sol:MetAirdrop",
        "label": "updatedAt",
        "offset": 0,
        "slot": "5",
        "type": "t_uint256"
      },
      {
        "astId": 25392,
        "contract": "contracts/MetAirdrop.sol:MetAirdrop",
        "label": "claimed",
        "offset": 0,
        "slot": "6",
        "type": "t_mapping(t_address,t_uint256)"
      },
      {
        "astId": 5602,
        "contract": "contracts/MetAirdrop.sol:MetAirdrop",
        "label": "lockPeriod",
        "offset": 0,
        "slot": "7",
        "type": "t_uint256"
      }
    ],
    "types": {
      "t_address": {
        "encoding": "inplace",
        "label": "address",
        "numberOfBytes": "20"
      },
      "t_bool": {
        "encoding": "inplace",
        "label": "bool",
        "numberOfBytes": "1"
      },
      "t_bytes32": {
        "encoding": "inplace",
        "label": "bytes32",
        "numberOfBytes": "32"
      },
      "t_mapping(t_address,t_uint256)": {
        "encoding": "mapping",
        "key": "t_address",
        "label": "mapping(address => uint256)",
        "numberOfBytes": "32",
        "value": "t_uint256"
      },
      "t_uint256": {
        "encoding": "inplace",
        "label": "uint256",
        "numberOfBytes": "32"
      },
      "t_uint8": {
        "encoding": "inplace",
        "label": "uint8",
        "numberOfBytes": "1"
      }
    }
  }
}