{
  "address": "0x945E05D2F519908c18758a905e5D31Dd94892bD5",
  "abi": [
    {
      "inputs": [
        {
          "internalType": "contract IPoolRegistry",
          "name": "poolRegistry_",
          "type": "address"
        },
        {
          "internalType": "contract IWETH",
          "name": "nativeToken_",
          "type": "address"
        }
      ],
      "stateMutability": "nonpayable",
      "type": "constructor"
    },
    {
      "inputs": [],
      "name": "FallbackIsNotAllowed",
      "type": "error"
    },
    {
      "inputs": [],
      "name": "ProposedGovernorIsNull",
      "type": "error"
    },
    {
      "inputs": [],
      "name": "SenderIsNotGovernor",
      "type": "error"
    },
    {
      "inputs": [],
      "name": "SenderIsNotNativeToken",
      "type": "error"
    },
    {
      "inputs": [],
      "name": "SenderIsNotTheProposedGovernor",
      "type": "error"
    },
    {
      "inputs": [],
      "name": "UnregisteredPool",
      "type": "error"
    },
    {
      "anonymous": false,
      "inputs": [
        {
          "indexed": true,
          "internalType": "address",
          "name": "previousGovernor",
          "type": "address"
        },
        {
          "indexed": true,
          "internalType": "address",
          "name": "proposedGovernor",
          "type": "address"
        }
      ],
      "name": "UpdatedGovernor",
      "type": "event"
    },
    {
      "stateMutability": "payable",
      "type": "fallback"
    },
    {
      "inputs": [],
      "name": "acceptGovernorship",
      "outputs": [],
      "stateMutability": "nonpayable",
      "type": "function"
    },
    {
      "inputs": [
        {
          "internalType": "contract IPool",
          "name": "pool_",
          "type": "address"
        }
      ],
      "name": "deposit",
      "outputs": [],
      "stateMutability": "payable",
      "type": "function"
    },
    {
      "inputs": [],
      "name": "governor",
      "outputs": [
        {
          "internalType": "address",
          "name": "",
          "type": "address"
        }
      ],
      "stateMutability": "view",
      "type": "function"
    },
    {
      "inputs": [],
      "name": "nativeToken",
      "outputs": [
        {
          "internalType": "contract IWETH",
          "name": "",
          "type": "address"
        }
      ],
      "stateMutability": "view",
      "type": "function"
    },
    {
      "inputs": [],
      "name": "poolRegistry",
      "outputs": [
        {
          "internalType": "contract IPoolRegistry",
          "name": "",
          "type": "address"
        }
      ],
      "stateMutability": "view",
      "type": "function"
    },
    {
      "inputs": [],
      "name": "proposedGovernor",
      "outputs": [
        {
          "internalType": "address",
          "name": "",
          "type": "address"
        }
      ],
      "stateMutability": "view",
      "type": "function"
    },
    {
      "inputs": [
        {
          "internalType": "contract IERC20",
          "name": "token_",
          "type": "address"
        },
        {
          "internalType": "address",
          "name": "to_",
          "type": "address"
        },
        {
          "internalType": "uint256",
          "name": "amount_",
          "type": "uint256"
        }
      ],
      "name": "sweep",
      "outputs": [],
      "stateMutability": "nonpayable",
      "type": "function"
    },
    {
      "inputs": [
        {
          "internalType": "address",
          "name": "proposedGovernor_",
          "type": "address"
        }
      ],
      "name": "transferGovernorship",
      "outputs": [],
      "stateMutability": "nonpayable",
      "type": "function"
    },
    {
      "inputs": [
        {
          "internalType": "contract IPool",
          "name": "pool_",
          "type": "address"
        },
        {
          "internalType": "uint256",
          "name": "amount_",
          "type": "uint256"
        }
      ],
      "name": "withdraw",
      "outputs": [],
      "stateMutability": "nonpayable",
      "type": "function"
    },
    {
      "stateMutability": "payable",
      "type": "receive"
    }
  ],
  "transactionHash": "0xa9d5b3a3165d4a889ee07d9a7dae7926fcf6b611391304cd1aa65ba509bf70bb",
  "args": [
    "0x11eaD85C679eAF528c9C1FE094bF538Db880048A",
    "0xC02aaA39b223FE8D0A0e5C4F27eAD9083C756Cc2"
  ],
  "numDeployments": 1,
  "solcInputHash": "90a16760c1e9eb3a1fb6ca594389bd73",
  "bytecode": "0x60c06040523480156200001157600080fd5b50604051620011f5380380620011f583398101604081905262000034916200016b565b600280546001600160a01b031916339081179091556040516000907fd4459d5b8b913cab0244230fd9b1c08b6ceace7fe9230e60d0f74cbffdf849d0908290a36200007e62000096565b6001600160a01b039182166080521660a052620001aa565b600054610100900460ff1680620000b0575060005460ff16155b620001185760405162461bcd60e51b815260206004820152602e60248201527f496e697469616c697a61626c653a20636f6e747261637420697320616c72656160448201526d191e481a5b9a5d1a585b1a5e995960921b606482015260840160405180910390fd5b600054610100900460ff161580156200013b576000805461ffff19166101011790555b60018055801562000152576000805461ff00191690555b50565b6001600160a01b03811681146200015257600080fd5b600080604083850312156200017f57600080fd5b82516200018c8162000155565b60208401519092506200019f8162000155565b809150509250929050565b60805160a051610fee6200020760003960008181609a015281816101d5015281816103a40152818161042a015281816104c10152818161072501526108570152600081816101810152818161030b01526106770152610fee6000f3fe60806040526004361061008a5760003560e01c8063b6aa515b11610059578063b6aa515b146101a3578063e1758bd8146101c3578063f340fa01146101f7578063f3b27bc31461020a578063f3fef3a31461021f576100da565b80630c340a24146100f357806362c067671461012f5780638a11a3701461014f578063afcff50f1461016f576100da565b366100da57336001600160a01b037f000000000000000000000000000000000000000000000000000000000000000016146100d85760405163157ea6df60e01b815260040160405180910390fd5b005b60405163a0152e6360e01b815260040160405180910390fd5b3480156100ff57600080fd5b50600254610113906001600160a01b031681565b6040516001600160a01b03909116815260200160405180910390f35b34801561013b57600080fd5b506100d861014a366004610e37565b61023f565b34801561015b57600080fd5b50600354610113906001600160a01b031681565b34801561017b57600080fd5b506101137f000000000000000000000000000000000000000000000000000000000000000081565b3480156101af57600080fd5b506100d86101be366004610e78565b610278565b3480156101cf57600080fd5b506101137f000000000000000000000000000000000000000000000000000000000000000081565b6100d8610205366004610e78565b6102ec565b34801561021657600080fd5b506100d861056c565b34801561022b57600080fd5b506100d861023a366004610e95565b6105fb565b6102476108ce565b6001600160a01b0383166102645761025f82826108fb565b505050565b61025f6001600160a01b0384168383610a14565b6002546001600160a01b031633146102a357604051634b98449160e11b815260040160405180910390fd5b6001600160a01b0381166102ca57604051634c267bfb60e01b815260040160405180910390fd5b600380546001600160a01b0319166001600160a01b0392909216919091179055565b60405163c673bdaf60e01b81526001600160a01b0382811660048301527f0000000000000000000000000000000000000000000000000000000000000000169063c673bdaf9060240160206040518083038186803b15801561034d57600080fd5b505afa158015610361573d6000803e3d6000fd5b505050506040513d601f19601f820116820180604052508101906103859190610ec1565b6103a257604051630282c45560e31b815260040160405180910390fd5b7f00000000000000000000000000000000000000000000000000000000000000006001600160a01b031663d0e30db0346040518263ffffffff1660e01b81526004016000604051808303818588803b1580156103fd57600080fd5b505af1158015610411573d6000803e3d6000fd5b50506040516343e6ee4360e11b81526001600160a01b037f00000000000000000000000000000000000000000000000000000000000000008116600483015260009450851692506387cddc86915060240160206040518083038186803b15801561047a57600080fd5b505afa15801561048e573d6000803e3d6000fd5b505050506040513d601f19601f820116820180604052508101906104b29190610ee3565b90506104e86001600160a01b037f0000000000000000000000000000000000000000000000000000000000000000168234610a77565b604051636e553f6560e01b81523460048201523360248201526001600160a01b03821690636e553f65906044016040805180830381600087803b15801561052e57600080fd5b505af1158015610542573d6000803e3d6000fd5b505050506040513d601f19601f820116820180604052508101906105669190610f00565b50505050565b6003546001600160a01b03163381146105985760405163038cdbad60e31b815260040160405180910390fd5b6002546040516001600160a01b038084169216907fd4459d5b8b913cab0244230fd9b1c08b6ceace7fe9230e60d0f74cbffdf849d090600090a3600280546001600160a01b039092166001600160a01b0319928316179055600380549091169055565b600260015414156106535760405162461bcd60e51b815260206004820152601f60248201527f5265656e7472616e637947756172643a207265656e7472616e742063616c6c0060448201526064015b60405180910390fd5b600260015560405163c673bdaf60e01b81526001600160a01b0383811660048301527f0000000000000000000000000000000000000000000000000000000000000000169063c673bdaf9060240160206040518083038186803b1580156106b957600080fd5b505afa1580156106cd573d6000803e3d6000fd5b505050506040513d601f19601f820116820180604052508101906106f19190610ec1565b61070e57604051630282c45560e31b815260040160405180910390fd5b6040516343e6ee4360e11b81526001600160a01b037f000000000000000000000000000000000000000000000000000000000000000081166004830152600091908416906387cddc869060240160206040518083038186803b15801561077357600080fd5b505afa158015610787573d6000803e3d6000fd5b505050506040513d601f19601f820116820180604052508101906107ab9190610ee3565b90506107c26001600160a01b038216333085610b9b565b604051627b8a6760e11b8152600481018390523060248201526001600160a01b0382169062f714ce906044016040805180830381600087803b15801561080757600080fd5b505af115801561081b573d6000803e3d6000fd5b505050506040513d601f19601f8201168201806040525081019061083f9190610f00565b5050604051632e1a7d4d60e01b8152600481018390527f00000000000000000000000000000000000000000000000000000000000000006001600160a01b031690632e1a7d4d90602401600060405180830381600087803b1580156108a357600080fd5b505af11580156108b7573d6000803e3d6000fd5b505050506108c533836108fb565b50506001805550565b6002546001600160a01b031633146108f957604051634b98449160e11b815260040160405180910390fd5b565b8047101561094b5760405162461bcd60e51b815260206004820152601d60248201527f416464726573733a20696e73756666696369656e742062616c616e6365000000604482015260640161064a565b6000826001600160a01b03168260405160006040518083038185875af1925050503d8060008114610998576040519150601f19603f3d011682016040523d82523d6000602084013e61099d565b606091505b505090508061025f5760405162461bcd60e51b815260206004820152603a60248201527f416464726573733a20756e61626c6520746f2073656e642076616c75652c207260448201527f6563697069656e74206d61792068617665207265766572746564000000000000606482015260840161064a565b6040516001600160a01b03831660248201526044810182905261025f90849063a9059cbb60e01b906064015b60408051601f198184030181529190526020810180516001600160e01b03166001600160e01b031990931692909217909152610bd3565b801580610b005750604051636eb1769f60e11b81523060048201526001600160a01b03838116602483015284169063dd62ed3e9060440160206040518083038186803b158015610ac657600080fd5b505afa158015610ada573d6000803e3d6000fd5b505050506040513d601f19601f82011682018060405250810190610afe9190610f24565b155b610b6b5760405162461bcd60e51b815260206004820152603660248201527f5361666545524332303a20617070726f76652066726f6d206e6f6e2d7a65726f60448201527520746f206e6f6e2d7a65726f20616c6c6f77616e636560501b606482015260840161064a565b6040516001600160a01b03831660248201526044810182905261025f90849063095ea7b360e01b90606401610a40565b6040516001600160a01b03808516602483015283166044820152606481018290526105669085906323b872dd60e01b90608401610a40565b6000610c28826040518060400160405280602081526020017f5361666545524332303a206c6f772d6c6576656c2063616c6c206661696c6564815250856001600160a01b0316610ca59092919063ffffffff16565b80519091501561025f5780806020019051810190610c469190610ec1565b61025f5760405162461bcd60e51b815260206004820152602a60248201527f5361666545524332303a204552433230206f7065726174696f6e20646964206e6044820152691bdd081cdd58d8d9595960b21b606482015260840161064a565b6060610cb48484600085610cbe565b90505b9392505050565b606082471015610d1f5760405162461bcd60e51b815260206004820152602660248201527f416464726573733a20696e73756666696369656e742062616c616e636520666f6044820152651c8818d85b1b60d21b606482015260840161064a565b843b610d6d5760405162461bcd60e51b815260206004820152601d60248201527f416464726573733a2063616c6c20746f206e6f6e2d636f6e7472616374000000604482015260640161064a565b600080866001600160a01b03168587604051610d899190610f69565b60006040518083038185875af1925050503d8060008114610dc6576040519150601f19603f3d011682016040523d82523d6000602084013e610dcb565b606091505b5091509150610ddb828286610de6565b979650505050505050565b60608315610df5575081610cb7565b825115610e055782518084602001fd5b8160405162461bcd60e51b815260040161064a9190610f85565b6001600160a01b0381168114610e3457600080fd5b50565b600080600060608486031215610e4c57600080fd5b8335610e5781610e1f565b92506020840135610e6781610e1f565b929592945050506040919091013590565b600060208284031215610e8a57600080fd5b8135610cb781610e1f565b60008060408385031215610ea857600080fd5b8235610eb381610e1f565b946020939093013593505050565b600060208284031215610ed357600080fd5b81518015158114610cb757600080fd5b600060208284031215610ef557600080fd5b8151610cb781610e1f565b60008060408385031215610f1357600080fd5b505080516020909101519092909150565b600060208284031215610f3657600080fd5b5051919050565b60005b83811015610f58578181015183820152602001610f40565b838111156105665750506000910152565b60008251610f7b818460208701610f3d565b9190910192915050565b6020815260008251806020840152610fa4816040850160208701610f3d565b601f01601f1916919091016040019291505056fea26469706673582212208c7c047360c3737dd5c44b24a2a9848ca612cf9220253279d57f21ddf115e23364736f6c63430008090033",
  "devdoc": {
    "kind": "dev",
    "methods": {
      "deposit(address)": {
        "params": {
          "pool_": "The Pool contract"
        }
      },
      "sweep(address,address,uint256)": {
        "params": {
          "amount_": "The amount to send",
          "to_": "The recipient of the transfer",
          "token_": "The token to transfer"
        }
      },
      "transferGovernorship(address)": {
        "details": "Can only be called by the current owner.",
        "params": {
          "proposedGovernor_": "The new proposed governor"
        }
      },
      "withdraw(address,uint256)": {
        "params": {
          "amount_": "The amount of deposit tokens to withdraw and receive native ETH",
          "pool_": "The Pool contract"
        }
      }
    },
    "title": "Helper contract to easily support native tokens (e.g. ETH/AVAX) as collateral",
    "version": 1
  },
  "userdoc": {
    "kind": "user",
    "methods": {
      "acceptGovernorship()": {
        "notice": "Allows new governor to accept governorship of the contract."
      },
      "deposit(address)": {
        "notice": "deposits NATIVE_TOKEN as collateral using native. A corresponding amount of the deposit token is minted."
      },
      "governor()": {
        "notice": "The governor"
      },
      "proposedGovernor()": {
        "notice": "The proposed governor"
      },
      "sweep(address,address,uint256)": {
        "notice": "ERC20 recovery in case of stuck tokens due direct transfers to the contract address."
      },
      "transferGovernorship(address)": {
        "notice": "Transfers governorship of the contract to a new account (`proposedGovernor`)."
      },
      "withdraw(address,uint256)": {
        "notice": "withdraws the NATIVE_TOKEN deposit of msg.sender."
      }
    },
    "version": 1
  },
  "storageLayout": {
    "storage": [
      {
        "astId": 7824,
        "contract": "contracts/NativeTokenGateway.sol:NativeTokenGateway",
        "label": "_initialized",
        "offset": 0,
        "slot": "0",
        "type": "t_bool"
      },
      {
        "astId": 7827,
        "contract": "contracts/NativeTokenGateway.sol:NativeTokenGateway",
        "label": "_initializing",
        "offset": 1,
        "slot": "0",
        "type": "t_bool"
      },
      {
        "astId": 7878,
        "contract": "contracts/NativeTokenGateway.sol:NativeTokenGateway",
        "label": "_status",
        "offset": 0,
        "slot": "1",
        "type": "t_uint256"
      },
      {
        "astId": 7554,
        "contract": "contracts/NativeTokenGateway.sol:NativeTokenGateway",
        "label": "governor",
        "offset": 0,
        "slot": "2",
        "type": "t_address"
      },
      {
        "astId": 7557,
        "contract": "contracts/NativeTokenGateway.sol:NativeTokenGateway",
        "label": "proposedGovernor",
        "offset": 0,
        "slot": "3",
        "type": "t_address"
      }
    ],
    "types": {
      "t_address": {
        "encoding": "inplace",
        "label": "address",
        "numberOfBytes": "20"
      },
      "t_bool": {
        "encoding": "inplace",
        "label": "bool",
        "numberOfBytes": "1"
      },
      "t_uint256": {
        "encoding": "inplace",
        "label": "uint256",
        "numberOfBytes": "32"
      }
    }
  }
}