{
  "address": "0x564baA321227abf6B2E88a38557b6517077aAD32",
  "abi": [
    {
      "inputs": [
        {
          "internalType": "contract IPoolRegistry",
          "name": "poolRegistry_",
          "type": "address"
        },
        {
          "internalType": "contract IWETH",
          "name": "nativeToken_",
          "type": "address"
        }
      ],
      "stateMutability": "nonpayable",
      "type": "constructor"
    },
    {
      "inputs": [],
      "name": "FallbackIsNotAllowed",
      "type": "error"
    },
    {
      "inputs": [],
      "name": "SenderIsNotGovernor",
      "type": "error"
    },
    {
      "inputs": [],
      "name": "SenderIsNotNativeToken",
      "type": "error"
    },
    {
      "inputs": [],
      "name": "UnregisteredPool",
      "type": "error"
    },
    {
      "stateMutability": "payable",
      "type": "fallback"
    },
    {
      "inputs": [
        {
          "internalType": "contract IPool",
          "name": "pool_",
          "type": "address"
        }
      ],
      "name": "deposit",
      "outputs": [],
      "stateMutability": "payable",
      "type": "function"
    },
    {
      "inputs": [],
      "name": "nativeToken",
      "outputs": [
        {
          "internalType": "contract IWETH",
          "name": "",
          "type": "address"
        }
      ],
      "stateMutability": "view",
      "type": "function"
    },
    {
      "inputs": [],
      "name": "poolRegistry",
      "outputs": [
        {
          "internalType": "contract IPoolRegistry",
          "name": "",
          "type": "address"
        }
      ],
      "stateMutability": "view",
      "type": "function"
    },
    {
      "inputs": [
        {
          "internalType": "contract IERC20",
          "name": "token_",
          "type": "address"
        },
        {
          "internalType": "address",
          "name": "to_",
          "type": "address"
        },
        {
          "internalType": "uint256",
          "name": "amount_",
          "type": "uint256"
        }
      ],
      "name": "sweep",
      "outputs": [],
      "stateMutability": "nonpayable",
      "type": "function"
    },
    {
      "inputs": [
        {
          "internalType": "contract IPool",
          "name": "pool_",
          "type": "address"
        },
        {
          "internalType": "uint256",
          "name": "amount_",
          "type": "uint256"
        }
      ],
      "name": "withdraw",
      "outputs": [],
      "stateMutability": "nonpayable",
      "type": "function"
    },
    {
      "stateMutability": "payable",
      "type": "receive"
    }
  ],
  "transactionHash": "0x9397a382940d094582e85138c40f457b781ec1c280ea196111fe1c2c6202f3fa",
  "args": [
    "0x11eaD85C679eAF528c9C1FE094bF538Db880048A",
    "0xC02aaA39b223FE8D0A0e5C4F27eAD9083C756Cc2"
  ],
  "numDeployments": 3,
  "solcInputHash": "1d1eeb3af7f52d90d255aace1e1587c6",
  "bytecode": "0x60c060405234801561001057600080fd5b50604051620010d0380380620010d083398101604081905261003191610120565b610039610050565b6001600160a01b039182166080521660a05261015a565b600054610100900460ff1680610069575060005460ff16155b6100d05760405162461bcd60e51b815260206004820152602e60248201527f496e697469616c697a61626c653a20636f6e747261637420697320616c72656160448201526d191e481a5b9a5d1a585b1a5e995960921b606482015260840160405180910390fd5b600054610100900460ff161580156100f2576000805461ffff19166101011790555b600180558015610108576000805461ff00191690555b50565b6001600160a01b038116811461010857600080fd5b6000806040838503121561013357600080fd5b825161013e8161010b565b602084015190925061014f8161010b565b809150509250929050565b60805160a051610f0c620001c460003960008181605e015281816101390152818161027f015281816103050152818161039c015281816103d1015281816105a601526106dd01526000818160e9015281816101e6015281816104f801526107610152610f0c6000f3fe60806040526004361061004e5760003560e01c806362c06767146100b7578063afcff50f146100d7578063e1758bd814610127578063f340fa011461015b578063f3fef3a31461016e5761009e565b3661009e57336001600160a01b037f0000000000000000000000000000000000000000000000000000000000000000161461009c5760405163157ea6df60e01b815260040160405180910390fd5b005b60405163a0152e6360e01b815260040160405180910390fd5b3480156100c357600080fd5b5061009c6100d2366004610d55565b61018e565b3480156100e357600080fd5b5061010b7f000000000000000000000000000000000000000000000000000000000000000081565b6040516001600160a01b03909116815260200160405180910390f35b34801561013357600080fd5b5061010b7f000000000000000000000000000000000000000000000000000000000000000081565b61009c610169366004610d96565b6101c7565b34801561017a57600080fd5b5061009c610189366004610db3565b61047c565b610196610755565b6001600160a01b0383166101b3576101ae8282610819565b505050565b6101ae6001600160a01b0384168383610932565b60405163c673bdaf60e01b81526001600160a01b0382811660048301527f0000000000000000000000000000000000000000000000000000000000000000169063c673bdaf9060240160206040518083038186803b15801561022857600080fd5b505afa15801561023c573d6000803e3d6000fd5b505050506040513d601f19601f820116820180604052508101906102609190610ddf565b61027d57604051630282c45560e31b815260040160405180910390fd5b7f00000000000000000000000000000000000000000000000000000000000000006001600160a01b031663d0e30db0346040518263ffffffff1660e01b81526004016000604051808303818588803b1580156102d857600080fd5b505af11580156102ec573d6000803e3d6000fd5b50506040516343e6ee4360e11b81526001600160a01b037f00000000000000000000000000000000000000000000000000000000000000008116600483015260009450851692506387cddc86915060240160206040518083038186803b15801561035557600080fd5b505afa158015610369573d6000803e3d6000fd5b505050506040513d601f19601f8201168201806040525081019061038d9190610e01565b90506103c46001600160a01b037f000000000000000000000000000000000000000000000000000000000000000016826000610995565b6103f86001600160a01b037f0000000000000000000000000000000000000000000000000000000000000000168234610995565b604051636e553f6560e01b81523460048201523360248201526001600160a01b03821690636e553f65906044016040805180830381600087803b15801561043e57600080fd5b505af1158015610452573d6000803e3d6000fd5b505050506040513d601f19601f820116820180604052508101906104769190610e1e565b50505050565b600260015414156104d45760405162461bcd60e51b815260206004820152601f60248201527f5265656e7472616e637947756172643a207265656e7472616e742063616c6c0060448201526064015b60405180910390fd5b600260015560405163c673bdaf60e01b81526001600160a01b0383811660048301527f0000000000000000000000000000000000000000000000000000000000000000169063c673bdaf9060240160206040518083038186803b15801561053a57600080fd5b505afa15801561054e573d6000803e3d6000fd5b505050506040513d601f19601f820116820180604052508101906105729190610ddf565b61058f57604051630282c45560e31b815260040160405180910390fd5b6040516343e6ee4360e11b81526001600160a01b037f000000000000000000000000000000000000000000000000000000000000000081166004830152600091908416906387cddc869060240160206040518083038186803b1580156105f457600080fd5b505afa158015610608573d6000803e3d6000fd5b505050506040513d601f19601f8201168201806040525081019061062c9190610e01565b90506106436001600160a01b038216333085610ab9565b604051627b8a6760e11b8152600481018390523060248201526000906001600160a01b0383169062f714ce906044016040805180830381600087803b15801561068b57600080fd5b505af115801561069f573d6000803e3d6000fd5b505050506040513d601f19601f820116820180604052508101906106c39190610e1e565b50604051632e1a7d4d60e01b8152600481018290529091507f00000000000000000000000000000000000000000000000000000000000000006001600160a01b031690632e1a7d4d90602401600060405180830381600087803b15801561072957600080fd5b505af115801561073d573d6000803e3d6000fd5b5050505061074b3382610819565b5050600180555050565b336001600160a01b03167f00000000000000000000000000000000000000000000000000000000000000006001600160a01b0316630c340a246040518163ffffffff1660e01b815260040160206040518083038186803b1580156107b857600080fd5b505afa1580156107cc573d6000803e3d6000fd5b505050506040513d601f19601f820116820180604052508101906107f09190610e01565b6001600160a01b03161461081757604051634b98449160e11b815260040160405180910390fd5b565b804710156108695760405162461bcd60e51b815260206004820152601d60248201527f416464726573733a20696e73756666696369656e742062616c616e636500000060448201526064016104cb565b6000826001600160a01b03168260405160006040518083038185875af1925050503d80600081146108b6576040519150601f19603f3d011682016040523d82523d6000602084013e6108bb565b606091505b50509050806101ae5760405162461bcd60e51b815260206004820152603a60248201527f416464726573733a20756e61626c6520746f2073656e642076616c75652c207260448201527f6563697069656e74206d6179206861766520726576657274656400000000000060648201526084016104cb565b6040516001600160a01b0383166024820152604481018290526101ae90849063a9059cbb60e01b906064015b60408051601f198184030181529190526020810180516001600160e01b03166001600160e01b031990931692909217909152610af1565b801580610a1e5750604051636eb1769f60e11b81523060048201526001600160a01b03838116602483015284169063dd62ed3e9060440160206040518083038186803b1580156109e457600080fd5b505afa1580156109f8573d6000803e3d6000fd5b505050506040513d601f19601f82011682018060405250810190610a1c9190610e42565b155b610a895760405162461bcd60e51b815260206004820152603660248201527f5361666545524332303a20617070726f76652066726f6d206e6f6e2d7a65726f60448201527520746f206e6f6e2d7a65726f20616c6c6f77616e636560501b60648201526084016104cb565b6040516001600160a01b0383166024820152604481018290526101ae90849063095ea7b360e01b9060640161095e565b6040516001600160a01b03808516602483015283166044820152606481018290526104769085906323b872dd60e01b9060840161095e565b6000610b46826040518060400160405280602081526020017f5361666545524332303a206c6f772d6c6576656c2063616c6c206661696c6564815250856001600160a01b0316610bc39092919063ffffffff16565b8051909150156101ae5780806020019051810190610b649190610ddf565b6101ae5760405162461bcd60e51b815260206004820152602a60248201527f5361666545524332303a204552433230206f7065726174696f6e20646964206e6044820152691bdd081cdd58d8d9595960b21b60648201526084016104cb565b6060610bd28484600085610bdc565b90505b9392505050565b606082471015610c3d5760405162461bcd60e51b815260206004820152602660248201527f416464726573733a20696e73756666696369656e742062616c616e636520666f6044820152651c8818d85b1b60d21b60648201526084016104cb565b843b610c8b5760405162461bcd60e51b815260206004820152601d60248201527f416464726573733a2063616c6c20746f206e6f6e2d636f6e747261637400000060448201526064016104cb565b600080866001600160a01b03168587604051610ca79190610e87565b60006040518083038185875af1925050503d8060008114610ce4576040519150601f19603f3d011682016040523d82523d6000602084013e610ce9565b606091505b5091509150610cf9828286610d04565b979650505050505050565b60608315610d13575081610bd5565b825115610d235782518084602001fd5b8160405162461bcd60e51b81526004016104cb9190610ea3565b6001600160a01b0381168114610d5257600080fd5b50565b600080600060608486031215610d6a57600080fd5b8335610d7581610d3d565b92506020840135610d8581610d3d565b929592945050506040919091013590565b600060208284031215610da857600080fd5b8135610bd581610d3d565b60008060408385031215610dc657600080fd5b8235610dd181610d3d565b946020939093013593505050565b600060208284031215610df157600080fd5b81518015158114610bd557600080fd5b600060208284031215610e1357600080fd5b8151610bd581610d3d565b60008060408385031215610e3157600080fd5b505080516020909101519092909150565b600060208284031215610e5457600080fd5b5051919050565b60005b83811015610e76578181015183820152602001610e5e565b838111156104765750506000910152565b60008251610e99818460208701610e5b565b9190910192915050565b6020815260008251806020840152610ec2816040850160208701610e5b565b601f01601f1916919091016040019291505056fea2646970667358221220722d6c6a733c4934950a09af9fee178e83dcc54efe2c07728ea450a0a1be408d64736f6c63430008090033",
  "devdoc": {
    "kind": "dev",
    "methods": {
      "deposit(address)": {
        "params": {
          "pool_": "The Pool contract"
        }
      },
      "sweep(address,address,uint256)": {
        "params": {
          "amount_": "The amount to send",
          "to_": "The recipient of the transfer",
          "token_": "The token to transfer"
        }
      },
      "withdraw(address,uint256)": {
        "params": {
          "amount_": "The amount of deposit tokens to withdraw and receive native ETH",
          "pool_": "The Pool contract"
        }
      }
    },
    "title": "Helper contract to easily support native tokens (e.g. ETH/AVAX) as collateral",
    "version": 1
  },
  "userdoc": {
    "kind": "user",
    "methods": {
      "deposit(address)": {
        "notice": "deposits NATIVE_TOKEN as collateral using native. A corresponding amount of the deposit token is minted."
      },
      "sweep(address,address,uint256)": {
        "notice": "ERC20 recovery in case of stuck tokens due direct transfers to the contract address."
      },
      "withdraw(address,uint256)": {
        "notice": "withdraws the NATIVE_TOKEN deposit of msg.sender."
      }
    },
    "version": 1
  },
  "storageLayout": {
    "storage": [
      {
        "astId": 10100,
        "contract": "contracts/NativeTokenGateway.sol:NativeTokenGateway",
        "label": "_initialized",
        "offset": 0,
        "slot": "0",
        "type": "t_bool"
      },
      {
        "astId": 10103,
        "contract": "contracts/NativeTokenGateway.sol:NativeTokenGateway",
        "label": "_initializing",
        "offset": 1,
        "slot": "0",
        "type": "t_bool"
      },
      {
        "astId": 10154,
        "contract": "contracts/NativeTokenGateway.sol:NativeTokenGateway",
        "label": "_status",
        "offset": 0,
        "slot": "1",
        "type": "t_uint256"
      }
    ],
    "types": {
      "t_bool": {
        "encoding": "inplace",
        "label": "bool",
        "numberOfBytes": "1"
      },
      "t_uint256": {
        "encoding": "inplace",
        "label": "uint256",
        "numberOfBytes": "32"
      }
    }
  }
}