{
  "address": "0x90b51Bc7bc88B7Ed29d21B2896f9d07567041a7C",
  "abi": [
    {
      "inputs": [],
      "stateMutability": "nonpayable",
      "type": "constructor"
    },
    {
      "inputs": [],
      "name": "AddressIsNull",
      "type": "error"
    },
    {
      "inputs": [],
      "name": "AmountGreaterThanMaxLiquidable",
      "type": "error"
    },
    {
      "inputs": [],
      "name": "AmountInIsInvalid",
      "type": "error"
    },
    {
      "inputs": [],
      "name": "AmountIsTooHigh",
      "type": "error"
    },
    {
      "inputs": [],
      "name": "AmountIsZero",
      "type": "error"
    },
    {
      "inputs": [],
      "name": "CanNotLiquidateOwnPosition",
      "type": "error"
    },
    {
      "inputs": [],
      "name": "DebtTokenAlreadyExists",
      "type": "error"
    },
    {
      "inputs": [],
      "name": "DebtTokenDoesNotExist",
      "type": "error"
    },
    {
      "inputs": [],
      "name": "DepositTokenAlreadyExists",
      "type": "error"
    },
    {
      "inputs": [],
      "name": "DepositTokenDoesNotExist",
      "type": "error"
    },
    {
      "inputs": [],
      "name": "FallbackIsNotAllowed",
      "type": "error"
    },
    {
      "inputs": [],
      "name": "IsNotPaused",
      "type": "error"
    },
    {
      "inputs": [],
      "name": "IsNotShutdown",
      "type": "error"
    },
    {
      "inputs": [],
      "name": "IsPaused",
      "type": "error"
    },
    {
      "inputs": [],
      "name": "IsShutdown",
      "type": "error"
    },
    {
      "inputs": [],
      "name": "MaxLiquidableTooHigh",
      "type": "error"
    },
    {
      "inputs": [],
      "name": "NewValueIsSameAsCurrent",
      "type": "error"
    },
    {
      "inputs": [],
      "name": "PoolRegistryIsNull",
      "type": "error"
    },
    {
      "inputs": [],
      "name": "PositionIsHealthy",
      "type": "error"
    },
    {
      "inputs": [],
      "name": "ProposedGovernorIsNull",
      "type": "error"
    },
    {
      "inputs": [],
      "name": "ReachedMaxDepositTokens",
      "type": "error"
    },
    {
      "inputs": [],
      "name": "ReceiveIsNotAllowed",
      "type": "error"
    },
    {
      "inputs": [],
      "name": "RemainingDebtIsLowerThanTheFloor",
      "type": "error"
    },
    {
      "inputs": [],
      "name": "RewardDistributorAlreadyExists",
      "type": "error"
    },
    {
      "inputs": [],
      "name": "RewardDistributorDoesNotExist",
      "type": "error"
    },
    {
      "inputs": [],
      "name": "SenderIsNotDebtToken",
      "type": "error"
    },
    {
      "inputs": [],
      "name": "SenderIsNotDepositToken",
      "type": "error"
    },
    {
      "inputs": [],
      "name": "SenderIsNotGovernor",
      "type": "error"
    },
    {
      "inputs": [],
      "name": "SenderIsNotTheProposedGovernor",
      "type": "error"
    },
    {
      "inputs": [],
      "name": "SwapFeatureIsInactive",
      "type": "error"
    },
    {
      "inputs": [],
      "name": "SyntheticDoesNotExist",
      "type": "error"
    },
    {
      "inputs": [],
      "name": "SyntheticIsInUse",
      "type": "error"
    },
    {
      "inputs": [],
      "name": "SyntheticIsNull",
      "type": "error"
    },
    {
      "inputs": [],
      "name": "TotalSupplyIsNotZero",
      "type": "error"
    },
    {
      "inputs": [],
      "name": "UnderlyingAssetInUse",
      "type": "error"
    },
    {
      "inputs": [],
      "name": "UserReachedMaxTokens",
      "type": "error"
    },
    {
      "anonymous": false,
      "inputs": [
        {
          "indexed": false,
          "internalType": "uint256",
          "name": "oldDebtFloorInUsd",
          "type": "uint256"
        },
        {
          "indexed": false,
          "internalType": "uint256",
          "name": "newDebtFloorInUsd",
          "type": "uint256"
        }
      ],
      "name": "DebtFloorUpdated",
      "type": "event"
    },
    {
      "anonymous": false,
      "inputs": [
        {
          "indexed": true,
          "internalType": "contract IDebtToken",
          "name": "debtToken",
          "type": "address"
        }
      ],
      "name": "DebtTokenAdded",
      "type": "event"
    },
    {
      "anonymous": false,
      "inputs": [
        {
          "indexed": true,
          "internalType": "contract IDebtToken",
          "name": "debtToken",
          "type": "address"
        }
      ],
      "name": "DebtTokenRemoved",
      "type": "event"
    },
    {
      "anonymous": false,
      "inputs": [
        {
          "indexed": true,
          "internalType": "address",
          "name": "depositToken",
          "type": "address"
        }
      ],
      "name": "DepositTokenAdded",
      "type": "event"
    },
    {
      "anonymous": false,
      "inputs": [
        {
          "indexed": true,
          "internalType": "contract IDepositToken",
          "name": "depositToken",
          "type": "address"
        }
      ],
      "name": "DepositTokenRemoved",
      "type": "event"
    },
    {
      "anonymous": false,
      "inputs": [
        {
          "indexed": true,
          "internalType": "contract IFeeProvider",
          "name": "oldFeeProvider",
          "type": "address"
        },
        {
          "indexed": true,
          "internalType": "contract IFeeProvider",
          "name": "newFeeProvider",
          "type": "address"
        }
      ],
      "name": "FeeProviderUpdated",
      "type": "event"
    },
    {
      "anonymous": false,
      "inputs": [
        {
          "indexed": false,
          "internalType": "uint8",
          "name": "version",
          "type": "uint8"
        }
      ],
      "name": "Initialized",
      "type": "event"
    },
    {
      "anonymous": false,
      "inputs": [
        {
          "indexed": false,
          "internalType": "uint256",
          "name": "oldMaxLiquidable",
          "type": "uint256"
        },
        {
          "indexed": false,
          "internalType": "uint256",
          "name": "newMaxLiquidable",
          "type": "uint256"
        }
      ],
      "name": "MaxLiquidableUpdated",
      "type": "event"
    },
    {
      "anonymous": false,
      "inputs": [
        {
          "indexed": true,
          "internalType": "address",
          "name": "caller",
          "type": "address"
        }
      ],
      "name": "Open",
      "type": "event"
    },
    {
      "anonymous": false,
      "inputs": [
        {
          "indexed": true,
          "internalType": "address",
          "name": "caller",
          "type": "address"
        }
      ],
      "name": "Paused",
      "type": "event"
    },
    {
      "anonymous": false,
      "inputs": [
        {
          "indexed": true,
          "internalType": "address",
          "name": "liquidator",
          "type": "address"
        },
        {
          "indexed": true,
          "internalType": "address",
          "name": "account",
          "type": "address"
        },
        {
          "indexed": true,
          "internalType": "contract ISyntheticToken",
          "name": "syntheticToken",
          "type": "address"
        },
        {
          "indexed": false,
          "internalType": "uint256",
          "name": "amountRepaid",
          "type": "uint256"
        },
        {
          "indexed": false,
          "internalType": "uint256",
          "name": "depositSeized",
          "type": "uint256"
        },
        {
          "indexed": false,
          "internalType": "uint256",
          "name": "fee",
          "type": "uint256"
        }
      ],
      "name": "PositionLiquidated",
      "type": "event"
    },
    {
      "anonymous": false,
      "inputs": [
        {
          "indexed": true,
          "internalType": "contract IRewardsDistributor",
          "name": "_distributor",
          "type": "address"
        }
      ],
      "name": "RewardsDistributorAdded",
      "type": "event"
    },
    {
      "anonymous": false,
      "inputs": [
        {
          "indexed": false,
          "internalType": "contract IRewardsDistributor",
          "name": "_distributor",
          "type": "address"
        }
      ],
      "name": "RewardsDistributorRemoved",
      "type": "event"
    },
    {
      "anonymous": false,
      "inputs": [
        {
          "indexed": true,
          "internalType": "address",
          "name": "caller",
          "type": "address"
        }
      ],
      "name": "Shutdown",
      "type": "event"
    },
    {
      "anonymous": false,
      "inputs": [
        {
          "indexed": false,
          "internalType": "contract ISmartFarmingManager",
          "name": "oldSmartFarmingManager",
          "type": "address"
        },
        {
          "indexed": false,
          "internalType": "contract ISmartFarmingManager",
          "name": "newSmartFarmingManager",
          "type": "address"
        }
      ],
      "name": "SmartFarmingManagerUpdated",
      "type": "event"
    },
    {
      "anonymous": false,
      "inputs": [
        {
          "indexed": false,
          "internalType": "bool",
          "name": "newActive",
          "type": "bool"
        }
      ],
      "name": "SwapActiveUpdated",
      "type": "event"
    },
    {
      "anonymous": false,
      "inputs": [
        {
          "indexed": true,
          "internalType": "address",
          "name": "account",
          "type": "address"
        },
        {
          "indexed": true,
          "internalType": "contract ISyntheticToken",
          "name": "syntheticTokenIn",
          "type": "address"
        },
        {
          "indexed": true,
          "internalType": "contract ISyntheticToken",
          "name": "syntheticTokenOut",
          "type": "address"
        },
        {
          "indexed": false,
          "internalType": "uint256",
          "name": "amountIn",
          "type": "uint256"
        },
        {
          "indexed": false,
          "internalType": "uint256",
          "name": "amountOut",
          "type": "uint256"
        },
        {
          "indexed": false,
          "internalType": "uint256",
          "name": "fee",
          "type": "uint256"
        }
      ],
      "name": "SyntheticTokenSwapped",
      "type": "event"
    },
    {
      "anonymous": false,
      "inputs": [
        {
          "indexed": true,
          "internalType": "contract ITreasury",
          "name": "oldTreasury",
          "type": "address"
        },
        {
          "indexed": true,
          "internalType": "contract ITreasury",
          "name": "newTreasury",
          "type": "address"
        }
      ],
      "name": "TreasuryUpdated",
      "type": "event"
    },
    {
      "anonymous": false,
      "inputs": [
        {
          "indexed": true,
          "internalType": "address",
          "name": "caller",
          "type": "address"
        }
      ],
      "name": "Unpaused",
      "type": "event"
    },
    {
      "anonymous": false,
      "inputs": [
        {
          "indexed": true,
          "internalType": "address",
          "name": "previousGovernor",
          "type": "address"
        },
        {
          "indexed": true,
          "internalType": "address",
          "name": "proposedGovernor",
          "type": "address"
        }
      ],
      "name": "UpdatedGovernor",
      "type": "event"
    },
    {
      "stateMutability": "payable",
      "type": "fallback"
    },
    {
      "inputs": [],
      "name": "MAX_TOKENS_PER_USER",
      "outputs": [
        {
          "internalType": "uint256",
          "name": "",
          "type": "uint256"
        }
      ],
      "stateMutability": "view",
      "type": "function"
    },
    {
      "inputs": [],
      "name": "VERSION",
      "outputs": [
        {
          "internalType": "string",
          "name": "",
          "type": "string"
        }
      ],
      "stateMutability": "view",
      "type": "function"
    },
    {
      "inputs": [],
      "name": "acceptGovernorship",
      "outputs": [],
      "stateMutability": "nonpayable",
      "type": "function"
    },
    {
      "inputs": [
        {
          "internalType": "contract IDebtToken",
          "name": "debtToken_",
          "type": "address"
        }
      ],
      "name": "addDebtToken",
      "outputs": [],
      "stateMutability": "nonpayable",
      "type": "function"
    },
    {
      "inputs": [
        {
          "internalType": "address",
          "name": "depositToken_",
          "type": "address"
        }
      ],
      "name": "addDepositToken",
      "outputs": [],
      "stateMutability": "nonpayable",
      "type": "function"
    },
    {
      "inputs": [
        {
          "internalType": "contract IRewardsDistributor",
          "name": "distributor_",
          "type": "address"
        }
      ],
      "name": "addRewardsDistributor",
      "outputs": [],
      "stateMutability": "nonpayable",
      "type": "function"
    },
    {
      "inputs": [
        {
          "internalType": "address",
          "name": "account_",
          "type": "address"
        }
      ],
      "name": "addToDebtTokensOfAccount",
      "outputs": [],
      "stateMutability": "nonpayable",
      "type": "function"
    },
    {
      "inputs": [
        {
          "internalType": "address",
          "name": "account_",
          "type": "address"
        }
      ],
      "name": "addToDepositTokensOfAccount",
      "outputs": [],
      "stateMutability": "nonpayable",
      "type": "function"
    },
    {
      "inputs": [],
      "name": "debtFloorInUsd",
      "outputs": [
        {
          "internalType": "uint256",
          "name": "",
          "type": "uint256"
        }
      ],
      "stateMutability": "view",
      "type": "function"
    },
    {
      "inputs": [
        {
          "internalType": "address",
          "name": "account_",
          "type": "address"
        }
      ],
      "name": "debtOf",
      "outputs": [
        {
          "internalType": "uint256",
          "name": "_debtInUsd",
          "type": "uint256"
        }
      ],
      "stateMutability": "view",
      "type": "function"
    },
    {
      "inputs": [
        {
          "internalType": "address",
          "name": "account_",
          "type": "address"
        }
      ],
      "name": "debtPositionOf",
      "outputs": [
        {
          "internalType": "bool",
          "name": "_isHealthy",
          "type": "bool"
        },
        {
          "internalType": "uint256",
          "name": "_depositInUsd",
          "type": "uint256"
        },
        {
          "internalType": "uint256",
          "name": "_debtInUsd",
          "type": "uint256"
        },
        {
          "internalType": "uint256",
          "name": "_issuableLimitInUsd",
          "type": "uint256"
        },
        {
          "internalType": "uint256",
          "name": "_issuableInUsd",
          "type": "uint256"
        }
      ],
      "stateMutability": "view",
      "type": "function"
    },
    {
      "inputs": [
        {
          "internalType": "contract ISyntheticToken",
          "name": "",
          "type": "address"
        }
      ],
      "name": "debtTokenOf",
      "outputs": [
        {
          "internalType": "contract IDebtToken",
          "name": "",
          "type": "address"
        }
      ],
      "stateMutability": "view",
      "type": "function"
    },
    {
      "inputs": [
        {
          "internalType": "address",
          "name": "account_",
          "type": "address"
        }
      ],
      "name": "depositOf",
      "outputs": [
        {
          "internalType": "uint256",
          "name": "_depositInUsd",
          "type": "uint256"
        },
        {
          "internalType": "uint256",
          "name": "_issuableLimitInUsd",
          "type": "uint256"
        }
      ],
      "stateMutability": "view",
      "type": "function"
    },
    {
      "inputs": [
        {
          "internalType": "contract IERC20",
          "name": "",
          "type": "address"
        }
      ],
      "name": "depositTokenOf",
      "outputs": [
        {
          "internalType": "contract IDepositToken",
          "name": "",
          "type": "address"
        }
      ],
      "stateMutability": "view",
      "type": "function"
    },
    {
      "inputs": [
        {
          "internalType": "contract IDebtToken",
          "name": "debtToken_",
          "type": "address"
        }
      ],
      "name": "doesDebtTokenExist",
      "outputs": [
        {
          "internalType": "bool",
          "name": "",
          "type": "bool"
        }
      ],
      "stateMutability": "view",
      "type": "function"
    },
    {
      "inputs": [
        {
          "internalType": "contract IDepositToken",
          "name": "depositToken_",
          "type": "address"
        }
      ],
      "name": "doesDepositTokenExist",
      "outputs": [
        {
          "internalType": "bool",
          "name": "",
          "type": "bool"
        }
      ],
      "stateMutability": "view",
      "type": "function"
    },
    {
      "inputs": [
        {
          "internalType": "contract ISyntheticToken",
          "name": "syntheticToken_",
          "type": "address"
        }
      ],
      "name": "doesSyntheticTokenExist",
      "outputs": [
        {
          "internalType": "bool",
          "name": "",
          "type": "bool"
        }
      ],
      "stateMutability": "view",
      "type": "function"
    },
    {
      "inputs": [],
      "name": "everythingStopped",
      "outputs": [
        {
          "internalType": "bool",
          "name": "",
          "type": "bool"
        }
      ],
      "stateMutability": "view",
      "type": "function"
    },
    {
      "inputs": [],
      "name": "feeCollector",
      "outputs": [
        {
          "internalType": "address",
          "name": "",
          "type": "address"
        }
      ],
      "stateMutability": "view",
      "type": "function"
    },
    {
      "inputs": [],
      "name": "feeProvider",
      "outputs": [
        {
          "internalType": "contract IFeeProvider",
          "name": "",
          "type": "address"
        }
      ],
      "stateMutability": "view",
      "type": "function"
    },
    {
      "inputs": [],
      "name": "getDebtTokens",
      "outputs": [
        {
          "internalType": "address[]",
          "name": "",
          "type": "address[]"
        }
      ],
      "stateMutability": "view",
      "type": "function"
    },
    {
      "inputs": [
        {
          "internalType": "address",
          "name": "account_",
          "type": "address"
        }
      ],
      "name": "getDebtTokensOfAccount",
      "outputs": [
        {
          "internalType": "address[]",
          "name": "",
          "type": "address[]"
        }
      ],
      "stateMutability": "view",
      "type": "function"
    },
    {
      "inputs": [],
      "name": "getDepositTokens",
      "outputs": [
        {
          "internalType": "address[]",
          "name": "",
          "type": "address[]"
        }
      ],
      "stateMutability": "view",
      "type": "function"
    },
    {
      "inputs": [
        {
          "internalType": "address",
          "name": "account_",
          "type": "address"
        }
      ],
      "name": "getDepositTokensOfAccount",
      "outputs": [
        {
          "internalType": "address[]",
          "name": "",
          "type": "address[]"
        }
      ],
      "stateMutability": "view",
      "type": "function"
    },
    {
      "inputs": [],
      "name": "getRewardsDistributors",
      "outputs": [
        {
          "internalType": "address[]",
          "name": "",
          "type": "address[]"
        }
      ],
      "stateMutability": "view",
      "type": "function"
    },
    {
      "inputs": [],
      "name": "governor",
      "outputs": [
        {
          "internalType": "address",
          "name": "",
          "type": "address"
        }
      ],
      "stateMutability": "view",
      "type": "function"
    },
    {
      "inputs": [
        {
          "internalType": "contract IPoolRegistry",
          "name": "poolRegistry_",
          "type": "address"
        }
      ],
      "name": "initialize",
      "outputs": [],
      "stateMutability": "nonpayable",
      "type": "function"
    },
    {
      "inputs": [],
      "name": "isSwapActive",
      "outputs": [
        {
          "internalType": "bool",
          "name": "",
          "type": "bool"
        }
      ],
      "stateMutability": "view",
      "type": "function"
    },
    {
      "inputs": [
        {
          "internalType": "contract ISyntheticToken",
          "name": "syntheticToken_",
          "type": "address"
        },
        {
          "internalType": "address",
          "name": "account_",
          "type": "address"
        },
        {
          "internalType": "uint256",
          "name": "amountToRepay_",
          "type": "uint256"
        },
        {
          "internalType": "contract IDepositToken",
          "name": "depositToken_",
          "type": "address"
        }
      ],
      "name": "liquidate",
      "outputs": [
        {
          "internalType": "uint256",
          "name": "_totalSeized",
          "type": "uint256"
        },
        {
          "internalType": "uint256",
          "name": "_toLiquidator",
          "type": "uint256"
        },
        {
          "internalType": "uint256",
          "name": "_fee",
          "type": "uint256"
        }
      ],
      "stateMutability": "nonpayable",
      "type": "function"
    },
    {
      "inputs": [],
      "name": "masterOracle",
      "outputs": [
        {
          "internalType": "contract IMasterOracle",
          "name": "",
          "type": "address"
        }
      ],
      "stateMutability": "view",
      "type": "function"
    },
    {
      "inputs": [],
      "name": "maxLiquidable",
      "outputs": [
        {
          "internalType": "uint256",
          "name": "",
          "type": "uint256"
        }
      ],
      "stateMutability": "view",
      "type": "function"
    },
    {
      "inputs": [],
      "name": "open",
      "outputs": [],
      "stateMutability": "nonpayable",
      "type": "function"
    },
    {
      "inputs": [],
      "name": "pause",
      "outputs": [],
      "stateMutability": "nonpayable",
      "type": "function"
    },
    {
      "inputs": [],
      "name": "paused",
      "outputs": [
        {
          "internalType": "bool",
          "name": "",
          "type": "bool"
        }
      ],
      "stateMutability": "view",
      "type": "function"
    },
    {
      "inputs": [],
      "name": "poolRegistry",
      "outputs": [
        {
          "internalType": "contract IPoolRegistry",
          "name": "",
          "type": "address"
        }
      ],
      "stateMutability": "view",
      "type": "function"
    },
    {
      "inputs": [],
      "name": "proposedGovernor",
      "outputs": [
        {
          "internalType": "address",
          "name": "",
          "type": "address"
        }
      ],
      "stateMutability": "view",
      "type": "function"
    },
    {
      "inputs": [
        {
          "internalType": "contract ISyntheticToken",
          "name": "syntheticToken_",
          "type": "address"
        },
        {
          "internalType": "uint256",
          "name": "totalToSeize_",
          "type": "uint256"
        },
        {
          "internalType": "contract IDepositToken",
          "name": "depositToken_",
          "type": "address"
        }
      ],
      "name": "quoteLiquidateIn",
      "outputs": [
        {
          "internalType": "uint256",
          "name": "_amountToRepay",
          "type": "uint256"
        },
        {
          "internalType": "uint256",
          "name": "_toLiquidator",
          "type": "uint256"
        },
        {
          "internalType": "uint256",
          "name": "_fee",
          "type": "uint256"
        }
      ],
      "stateMutability": "view",
      "type": "function"
    },
    {
      "inputs": [
        {
          "internalType": "contract ISyntheticToken",
          "name": "syntheticToken_",
          "type": "address"
        },
        {
          "internalType": "address",
          "name": "account_",
          "type": "address"
        },
        {
          "internalType": "contract IDepositToken",
          "name": "depositToken_",
          "type": "address"
        }
      ],
      "name": "quoteLiquidateMax",
      "outputs": [
        {
          "internalType": "uint256",
          "name": "_maxAmountToRepay",
          "type": "uint256"
        }
      ],
      "stateMutability": "view",
      "type": "function"
    },
    {
      "inputs": [
        {
          "internalType": "contract ISyntheticToken",
          "name": "syntheticToken_",
          "type": "address"
        },
        {
          "internalType": "uint256",
          "name": "amountToRepay_",
          "type": "uint256"
        },
        {
          "internalType": "contract IDepositToken",
          "name": "depositToken_",
          "type": "address"
        }
      ],
      "name": "quoteLiquidateOut",
      "outputs": [
        {
          "internalType": "uint256",
          "name": "_totalToSeize",
          "type": "uint256"
        },
        {
          "internalType": "uint256",
          "name": "_toLiquidator",
          "type": "uint256"
        },
        {
          "internalType": "uint256",
          "name": "_fee",
          "type": "uint256"
        }
      ],
      "stateMutability": "view",
      "type": "function"
    },
    {
      "inputs": [
        {
          "internalType": "contract ISyntheticToken",
          "name": "syntheticTokenIn_",
          "type": "address"
        },
        {
          "internalType": "contract ISyntheticToken",
          "name": "syntheticTokenOut_",
          "type": "address"
        },
        {
          "internalType": "uint256",
          "name": "amountOut_",
          "type": "uint256"
        }
      ],
      "name": "quoteSwapIn",
      "outputs": [
        {
          "internalType": "uint256",
          "name": "_amountIn",
          "type": "uint256"
        },
        {
          "internalType": "uint256",
          "name": "_fee",
          "type": "uint256"
        }
      ],
      "stateMutability": "view",
      "type": "function"
    },
    {
      "inputs": [
        {
          "internalType": "contract ISyntheticToken",
          "name": "syntheticTokenIn_",
          "type": "address"
        },
        {
          "internalType": "contract ISyntheticToken",
          "name": "syntheticTokenOut_",
          "type": "address"
        },
        {
          "internalType": "uint256",
          "name": "amountIn_",
          "type": "uint256"
        }
      ],
      "name": "quoteSwapOut",
      "outputs": [
        {
          "internalType": "uint256",
          "name": "_amountOut",
          "type": "uint256"
        },
        {
          "internalType": "uint256",
          "name": "_fee",
          "type": "uint256"
        }
      ],
      "stateMutability": "view",
      "type": "function"
    },
    {
      "inputs": [
        {
          "internalType": "contract IDebtToken",
          "name": "debtToken_",
          "type": "address"
        }
      ],
      "name": "removeDebtToken",
      "outputs": [],
      "stateMutability": "nonpayable",
      "type": "function"
    },
    {
      "inputs": [
        {
          "internalType": "contract IDepositToken",
          "name": "depositToken_",
          "type": "address"
        }
      ],
      "name": "removeDepositToken",
      "outputs": [],
      "stateMutability": "nonpayable",
      "type": "function"
    },
    {
      "inputs": [
        {
          "internalType": "address",
          "name": "account_",
          "type": "address"
        }
      ],
      "name": "removeFromDebtTokensOfAccount",
      "outputs": [],
      "stateMutability": "nonpayable",
      "type": "function"
    },
    {
      "inputs": [
        {
          "internalType": "address",
          "name": "account_",
          "type": "address"
        }
      ],
      "name": "removeFromDepositTokensOfAccount",
      "outputs": [],
      "stateMutability": "nonpayable",
      "type": "function"
    },
    {
      "inputs": [
        {
          "internalType": "contract IRewardsDistributor",
          "name": "distributor_",
          "type": "address"
        }
      ],
      "name": "removeRewardsDistributor",
      "outputs": [],
      "stateMutability": "nonpayable",
      "type": "function"
    },
    {
      "inputs": [],
      "name": "shutdown",
      "outputs": [],
      "stateMutability": "nonpayable",
      "type": "function"
    },
    {
      "inputs": [],
      "name": "smartFarmingManager",
      "outputs": [
        {
          "internalType": "contract ISmartFarmingManager",
          "name": "",
          "type": "address"
        }
      ],
      "stateMutability": "view",
      "type": "function"
    },
    {
      "inputs": [
        {
          "internalType": "contract ISyntheticToken",
          "name": "syntheticTokenIn_",
          "type": "address"
        },
        {
          "internalType": "contract ISyntheticToken",
          "name": "syntheticTokenOut_",
          "type": "address"
        },
        {
          "internalType": "uint256",
          "name": "amountIn_",
          "type": "uint256"
        }
      ],
      "name": "swap",
      "outputs": [
        {
          "internalType": "uint256",
          "name": "_amountOut",
          "type": "uint256"
        },
        {
          "internalType": "uint256",
          "name": "_fee",
          "type": "uint256"
        }
      ],
      "stateMutability": "nonpayable",
      "type": "function"
    },
    {
      "inputs": [
        {
          "internalType": "contract IERC20",
          "name": "token_",
          "type": "address"
        },
        {
          "internalType": "address",
          "name": "to_",
          "type": "address"
        },
        {
          "internalType": "uint256",
          "name": "amount_",
          "type": "uint256"
        }
      ],
      "name": "sweep",
      "outputs": [],
      "stateMutability": "nonpayable",
      "type": "function"
    },
    {
      "inputs": [],
      "name": "toggleIsSwapActive",
      "outputs": [],
      "stateMutability": "nonpayable",
      "type": "function"
    },
    {
      "inputs": [
        {
          "internalType": "address",
          "name": "proposedGovernor_",
          "type": "address"
        }
      ],
      "name": "transferGovernorship",
      "outputs": [],
      "stateMutability": "nonpayable",
      "type": "function"
    },
    {
      "inputs": [],
      "name": "treasury",
      "outputs": [
        {
          "internalType": "contract ITreasury",
          "name": "",
          "type": "address"
        }
      ],
      "stateMutability": "view",
      "type": "function"
    },
    {
      "inputs": [],
      "name": "unpause",
      "outputs": [],
      "stateMutability": "nonpayable",
      "type": "function"
    },
    {
      "inputs": [
        {
          "internalType": "uint256",
          "name": "newDebtFloorInUsd_",
          "type": "uint256"
        }
      ],
      "name": "updateDebtFloor",
      "outputs": [],
      "stateMutability": "nonpayable",
      "type": "function"
    },
    {
      "inputs": [
        {
          "internalType": "contract IFeeProvider",
          "name": "feeProvider_",
          "type": "address"
        }
      ],
      "name": "updateFeeProvider",
      "outputs": [],
      "stateMutability": "nonpayable",
      "type": "function"
    },
    {
      "inputs": [
        {
          "internalType": "uint256",
          "name": "newMaxLiquidable_",
          "type": "uint256"
        }
      ],
      "name": "updateMaxLiquidable",
      "outputs": [],
      "stateMutability": "nonpayable",
      "type": "function"
    },
    {
      "inputs": [
        {
          "internalType": "contract ISmartFarmingManager",
          "name": "newSmartFarmingManager_",
          "type": "address"
        }
      ],
      "name": "updateSmartFarmingManager",
      "outputs": [],
      "stateMutability": "nonpayable",
      "type": "function"
    },
    {
      "inputs": [
        {
          "internalType": "contract ITreasury",
          "name": "newTreasury_",
          "type": "address"
        }
      ],
      "name": "updateTreasury",
      "outputs": [],
      "stateMutability": "nonpayable",
      "type": "function"
    },
    {
      "stateMutability": "payable",
      "type": "receive"
    }
  ],
  "transactionHash": "0x355f069010493d0a97176e9e4bea538183fc631b0e926a6e2a1a2d5beff70777",
  "args": [],
  "numDeployments": 4,
  "solcInputHash": "545cb6254fd08cfae8ffa56eab2faa67",
  "bytecode": "0x60806040523480156200001157600080fd5b50600280546001600160a01b031916339081179091556040516000907fd4459d5b8b913cab0244230fd9b1c08b6ceace7fe9230e60d0f74cbffdf849d0908290a36200005c62000062565b62000192565b6200006e60ff62000071565b50565b60008054610100900460ff16156200010a578160ff166001148015620000aa5750620000a8306200018360201b620038c91760201c565b155b620001025760405162461bcd60e51b815260206004820152602e6024820152600080516020620049f283398151915260448201526d191e481a5b9a5d1a585b1a5e995960921b60648201526084015b60405180910390fd5b506000919050565b60005460ff808416911610620001695760405162461bcd60e51b815260206004820152602e6024820152600080516020620049f283398151915260448201526d191e481a5b9a5d1a585b1a5e995960921b6064820152608401620000f9565b506000805460ff191660ff92909216919091179055600190565b6001600160a01b03163b151590565b61485080620001a26000396000f3fe6080604052600436106103905760003560e01c80637f51bb1f116101dc578063d283e75f11610102578063f0c80d3b116100a0578063fb01600d1161006f578063fb01600d14610b06578063fc0e74d114610b1b578063fcfff16f14610b30578063ffa1ad7414610b45576103ae565b8063f0c80d3b14610a9b578063f3b27bc314610abb578063f609280914610ad0578063f8977b8414610ae6576103ae565b8063df791e50116100dc578063df791e5014610a30578063e35bff9614610a50578063eaada38214610a71578063ecf3a3f914610a86576103ae565b8063d283e75f146109a6578063dbe466b1146109c6578063dde3ab95146109e6576103ae565b80639ab620dd1161017a578063c415b95c11610149578063c415b95c14610931578063c4d66de814610946578063c4d68a1a14610966578063d176e05f14610986576103ae565b80639ab620dd146108a65780639f8f0fa8146108bb578063afcff50f146108f1578063b6aa515b14610911576103ae565b8063892d522a116101b6578063892d522a146108265780638a11a3701461084657806396aaccfe14610866578063984a68b514610886576103ae565b80637f51bb1f146107bb5780638456cb59146107db57806387cddc86146107f0576103ae565b80634066fdea116102c157806363c56d421161025f57806375c6f8ec1161022e57806375c6f8ec1461073b578063770b69b41461075b57806379e40cba1461077b5780637d3551631461079b576103ae565b806363c56d42146106c657806369c5dfd8146106e65780636b4f41af146106fb5780636c3393671461071b576103ae565b806356aaee2d1161029b57806356aaee2d146106515780635c975abb1461067157806361d027b31461068657806362c06767146106a6576103ae565b80634066fdea146105fc578063450058f81461061c5780634ff9b74a1461063c576103ae565b80632bcb849c1161032e5780633c2dc254116103085780633c2dc2541461056c5780633de2f6b2146105a75780633f4ba83a146105c75780633f5fc131146105dc576103ae565b80632bcb849c146105065780632dd6adb5146105265780633605b51b1461054a576103ae565b80631ccfbc4f1161036a5780631ccfbc4f1461047157806323e3fbd5146104a6578063275038d0146104c65780632adcb0c6146104e6576103ae565b80630c340a24146103c75780631a0dd00b146104045780631a4660ce1461044f576103ae565b366103ae57604051636436c22d60e11b815260040160405180910390fd5b60405163a0152e6360e01b815260040160405180910390fd5b3480156103d357600080fd5b506002546103e7906001600160a01b031681565b6040516001600160a01b0390911681526020015b60405180910390f35b34801561041057600080fd5b5061043f61041f3660046143ab565b6001600160a01b0390811660009081526016602052604090205416151590565b60405190151581526020016103fb565b34801561045b57600080fd5b5061046f61046a3660046143c8565b610b83565b005b34801561047d57600080fd5b5061049161048c3660046143e1565b610c11565b604080519283526020830191909152016103fb565b3480156104b257600080fd5b506104916104c13660046143ab565b610dd4565b3480156104d257600080fd5b5061046f6104e13660046143ab565b611034565b3480156104f257600080fd5b506104916105013660046143e1565b611086565b34801561051257600080fd5b5061046f6105213660046143ab565b611236565b34801561053257600080fd5b5061053c600b5481565b6040519081526020016103fb565b34801561055657600080fd5b5061055f61131c565b6040516103fb9190614422565b34801561057857600080fd5b5061058c61058736600461446f565b61132d565b604080519384526020840192909252908201526060016103fb565b3480156105b357600080fd5b5061058c6105c23660046144b1565b611552565b3480156105d357600080fd5b5061046f611be4565b3480156105e857600080fd5b5061046f6105f73660046143ab565b611c94565b34801561060857600080fd5b506018546103e7906001600160a01b031681565b34801561062857600080fd5b5061043f6106373660046143ab565b611d28565b34801561064857600080fd5b5061055f611d3b565b34801561065d57600080fd5b5061046f61066c3660046143ab565b611d47565b34801561067d57600080fd5b5061043f611df8565b34801561069257600080fd5b50600d546103e7906001600160a01b031681565b3480156106b257600080fd5b5061046f6106c13660046143e1565b611e94565b3480156106d257600080fd5b5061046f6106e13660046143ab565b611ecd565b3480156106f257600080fd5b5061053c601e81565b34801561070757600080fd5b5061046f6107163660046143ab565b611f86565b34801561072757600080fd5b5061058c61073636600461446f565b61212c565b34801561074757600080fd5b5061046f6107563660046143ab565b612316565b34801561076757600080fd5b5061046f6107763660046143ab565b612365565b34801561078757600080fd5b5061046f6107963660046143ab565b6123f5565b3480156107a757600080fd5b5061055f6107b63660046143ab565b61259f565b3480156107c757600080fd5b5061046f6107d63660046143ab565b6125ac565b3480156107e757600080fd5b5061046f6126fd565b3480156107fc57600080fd5b506103e761080b3660046143ab565b6010602052600090815260409020546001600160a01b031681565b34801561083257600080fd5b5061046f6108413660046143ab565b61278e565b34801561085257600080fd5b506003546103e7906001600160a01b031681565b34801561087257600080fd5b50601b546103e7906001600160a01b031681565b34801561089257600080fd5b5061053c6108a1366004614504565b612877565b3480156108b257600080fd5b5061046f6129d8565b3480156108c757600080fd5b506103e76108d63660046143ab565b6016602052600090815260409020546001600160a01b031681565b3480156108fd57600080fd5b50600c546103e7906001600160a01b031681565b34801561091d57600080fd5b5061046f61092c3660046143ab565b612a64565b34801561093d57600080fd5b506103e7612ad8565b34801561095257600080fd5b5061046f6109613660046143ab565b612b55565b34801561097257600080fd5b5061046f6109813660046143ab565b612c26565b34801561099257600080fd5b5061055f6109a13660046143ab565b612dda565b3480156109b257600080fd5b5061053c6109c13660046143ab565b612de7565b3480156109d257600080fd5b5061046f6109e13660046143ab565b612fb9565b3480156109f257600080fd5b50610a06610a013660046143ab565b61316d565b6040805195151586526020860194909452928401919091526060830152608082015260a0016103fb565b348015610a3c57600080fd5b50610491610a4b3660046143e1565b6131b7565b348015610a5c57600080fd5b50600c5461043f90600160a01b900460ff1681565b348015610a7d57600080fd5b506103e76135a4565b348015610a9257600080fd5b5061043f6135e9565b348015610aa757600080fd5b5061046f610ab63660046143c8565b61364d565b348015610ac757600080fd5b5061046f613704565b348015610adc57600080fd5b5061053c60045481565b348015610af257600080fd5b5061043f610b013660046143ab565b613793565b348015610b1257600080fd5b5061055f6137a0565b348015610b2757600080fd5b5061046f6137ac565b348015610b3c57600080fd5b5061046f61383f565b348015610b5157600080fd5b50610b76604051806040016040528060058152602001640312e332e360dc1b81525081565b6040516103fb9190614574565b6002546001600160a01b03163314610bae57604051634b98449160e11b815260040160405180910390fd5b60045481811415610bd257604051630333a68160e41b815260040160405180910390fd5b60408051828152602081018490527f0662703672e57800b9439de3a419c9155283ad25ea7776c139c876bd8b93bb98910160405180910390a150600455565b60185460405163d2d6b5a360e01b8152336004820152600091829182916001600160a01b03169063d2d6b5a39060240160206040518083038186803b158015610c5957600080fd5b505afa158015610c6d573d6000803e3d6000fd5b505050506040513d601f19601f82011682018060405250810190610c9191906145a7565b90508015610cc457610cb5610cae82670de0b6b3a76400006145d6565b85906138d8565b9350610cc1848261390c565b91505b600c60009054906101000a90046001600160a01b03166001600160a01b031663eaada3826040518163ffffffff1660e01b815260040160206040518083038186803b158015610d1257600080fd5b505afa158015610d26573d6000803e3d6000fd5b505050506040513d601f19601f82011682018060405250810190610d4a91906145ed565b6001600160a01b031663b64663848688876040518463ffffffff1660e01b8152600401610d799392919061460a565b60206040518083038186803b158015610d9157600080fd5b505afa158015610da5573d6000803e3d6000fd5b505050506040513d601f19601f82011682018060405250810190610dc991906145a7565b925050935093915050565b6000806000610de16135a4565b90506000610df0601386613944565b905060005b8181101561102c576000610e0b60138884613962565b90506000846001600160a01b0316638d0dba00836001600160a01b0316636f307dc36040518163ffffffff1660e01b815260040160206040518083038186803b158015610e5757600080fd5b505afa158015610e6b573d6000803e3d6000fd5b505050506040513d601f19601f82011682018060405250810190610e8f91906145ed565b6040516370a0823160e01b81526001600160a01b038c811660048301528616906370a082319060240160206040518083038186803b158015610ed057600080fd5b505afa158015610ee4573d6000803e3d6000fd5b505050506040513d601f19601f82011682018060405250810190610f0891906145a7565b6040516001600160e01b031960e085901b1681526001600160a01b039092166004830152602482015260440160206040518083038186803b158015610f4c57600080fd5b505afa158015610f60573d6000803e3d6000fd5b505050506040513d601f19601f82011682018060405250810190610f8491906145a7565b9050610f90818861462e565b965061100d826001600160a01b031663df011c416040518163ffffffff1660e01b815260040160206040518083038186803b158015610fce57600080fd5b505afa158015610fe2573d6000803e3d6000fd5b505050506040513d601f19601f8201168201806040525081019061100691906145a7565b829061390c565b611017908761462e565b955050508061102590614646565b9050610df5565b505050915091565b61103d33613793565b61105a576040516326688ebb60e11b815260040160405180910390fd5b61106660138233613977565b6110835760405163a67d528360e01b815260040160405180910390fd5b50565b600080600c60009054906101000a90046001600160a01b03166001600160a01b031663eaada3826040518163ffffffff1660e01b815260040160206040518083038186803b1580156110d757600080fd5b505afa1580156110eb573d6000803e3d6000fd5b505050506040513d601f19601f8201168201806040525081019061110f91906145ed565b6001600160a01b031663b64663848686866040518463ffffffff1660e01b815260040161113e9392919061460a565b60206040518083038186803b15801561115657600080fd5b505afa15801561116a573d6000803e3d6000fd5b505050506040513d601f19601f8201168201806040525081019061118e91906145a7565b60185460405163d2d6b5a360e01b81523360048201529193506000916001600160a01b039091169063d2d6b5a39060240160206040518083038186803b1580156111d757600080fd5b505afa1580156111eb573d6000803e3d6000fd5b505050506040513d601f19601f8201168201806040525081019061120f91906145a7565b9050801561122d57611221838261390c565b9150610dc982846145d6565b50935093915050565b6002546001600160a01b0316331461126157604051634b98449160e11b815260040160405180910390fd5b6001600160a01b0381166112885760405163fb7566d760e01b815260040160405180910390fd5b6018546001600160a01b039081169082168114156112b957604051630333a68160e41b815260040160405180910390fd5b816001600160a01b0316816001600160a01b03167f66fa9df7ccacf7a0c110fd7dd4591f59c76a798409b4aeaf850002679baca45560405160405180910390a350601880546001600160a01b0319166001600160a01b0392909216919091179055565b60606113286019613984565b905090565b6018546040805163cfc0c69f60e01b8152815160009384938493849384936001600160a01b03169263cfc0c69f9260048082019391829003018186803b15801561137657600080fd5b505afa15801561138a573d6000803e3d6000fd5b505050506040513d601f19601f820116820180604052508101906113ae9190614678565b909250905060006113bf83836146ab565b6001600160801b031690508781156113f0576113ed6113e683670de0b6b3a764000061462e565b82906138d8565b90505b6113f86135a4565b6001600160a01b031663b6466384896001600160a01b0316636f307dc36040518163ffffffff1660e01b815260040160206040518083038186803b15801561143f57600080fd5b505afa158015611453573d6000803e3d6000fd5b505050506040513d601f19601f8201168201806040525081019061147791906145ed565b8c846040518463ffffffff1660e01b81526004016114979392919061460a565b60206040518083038186803b1580156114af57600080fd5b505afa1580156114c3573d6000803e3d6000fd5b505050506040513d601f19601f820116820180604052508101906114e791906145a7565b96506001600160801b0383161561150e5761150b816001600160801b03851661390c565b94505b6001600160801b038416156115455761154261153285670de0b6b3a76400006146ab565b82906001600160801b031661390c565b95505b5050505093509350939050565b600080600061155f6135e9565b1561157d57604051631b0e923f60e11b815260040160405180910390fd5b600260015414156115d55760405162461bcd60e51b815260206004820152601f60248201527f5265656e7472616e637947756172643a207265656e7472616e742063616c6c0060448201526064015b60405180910390fd5b60026001556001600160a01b038088166000908152601660205260409020548891166116145760405163a596698b60e01b815260040160405180910390fd5b8461161e81613793565b61163b5760405163a67d528360e01b815260040160405180910390fd5b86611659576040516310eb483f60e21b815260040160405180910390fd5b336001600160a01b038916141561168357604051630ecda8a760e01b815260040160405180910390fd5b6001600160a01b03808a1660009081526016602052604080822054815163a6afed9560e01b81529151931692839263a6afed95926004808201939182900301818387803b1580156116d357600080fd5b505af11580156116e7573d6000803e3d6000fd5b5050505060006116f68a61316d565b505050509050801561171b5760405163202881bd60e11b815260040160405180910390fd5b6040516370a0823160e01b81526001600160a01b038b81166004830152600091908416906370a082319060240160206040518083038186803b15801561176057600080fd5b505afa158015611774573d6000803e3d6000fd5b505050506040513d601f19601f8201168201806040525081019061179891906145a7565b600b549091506117a88b836138d8565b11156117c75760405163e292f24f60e01b815260040160405180910390fd5b60006117d16135a4565b600454909150156118a75760006001600160a01b038216638d0dba008f6117f88f876145d6565b6040516001600160e01b031960e085901b1681526001600160a01b039092166004830152602482015260440160206040518083038186803b15801561183c57600080fd5b505afa158015611850573d6000803e3d6000fd5b505050506040513d601f19601f8201168201806040525081019061187491906145a7565b9050600081118015611887575060045481105b156118a5576040516332b9d47360e01b815260040160405180910390fd5b505b6118b28d8c8c61212c565b6040516370a0823160e01b8152929b5090995097506001600160a01b038b16906370a08231906118f5908f906004016001600160a01b0391909116815260200190565b60206040518083038186803b15801561190d57600080fd5b505afa158015611921573d6000803e3d6000fd5b505050506040513d601f19601f8201168201806040525081019061194591906145a7565b89111561196557604051635de1e54160e01b815260040160405180910390fd5b604051632770a7eb60e21b8152336004820152602481018c90526001600160a01b038e1690639dc29fac90604401600060405180830381600087803b1580156119ad57600080fd5b505af11580156119c1573d6000803e3d6000fd5b5050604051632770a7eb60e21b81526001600160a01b038f81166004830152602482018f905287169250639dc29fac9150604401600060405180830381600087803b158015611a0f57600080fd5b505af1158015611a23573d6000803e3d6000fd5b505060405163b2a02ff160e01b81526001600160a01b038d16925063b2a02ff19150611a57908f9033908d9060040161460a565b600060405180830381600087803b158015611a7157600080fd5b505af1158015611a85573d6000803e3d6000fd5b505050506000871115611b7a57896001600160a01b031663b2a02ff18d600c60009054906101000a90046001600160a01b03166001600160a01b031663c415b95c6040518163ffffffff1660e01b815260040160206040518083038186803b158015611af057600080fd5b505afa158015611b04573d6000803e3d6000fd5b505050506040513d601f19601f82011682018060405250810190611b2891906145ed565b8a6040518463ffffffff1660e01b8152600401611b479392919061460a565b600060405180830381600087803b158015611b6157600080fd5b505af1158015611b75573d6000803e3d6000fd5b505050505b604080518c8152602081018b90529081018890526001600160a01b03808f1691908e169033907fe1c3870e3d7d5199a16d200133088e6e3f7012d28571e442a110b4c83b5e3b949060600160405180910390a4505050505050600180819055509450945094915050565b611bec611df8565b611c095760405163bc871ce560e01b815260040160405180910390fd5b611c116135e9565b15611c2f57604051631b0e923f60e11b815260040160405180910390fd5b6002546001600160a01b03163314611c5a57604051634b98449160e11b815260040160405180910390fd5b6003805460ff60a01b1916905560405133907f5db9ee0a495bf2e6ff9c91a7834c1ba4fdd244a5e8aa4e537bd38aeae4b073aa90600090a2565b611c9d33613793565b611cba576040516326688ebb60e11b815260040160405180910390fd5b80601e611cc8601383613944565b611cd3601484613944565b611cdd919061462e565b10611cfb576040516306ceeb8360e21b815260040160405180910390fd5b611d0760138333613991565b611d245760405163dd40dad960e01b815260040160405180910390fd5b5050565b6000611d3560118361399e565b92915050565b60606113286011613984565b6002546001600160a01b03163314611d7257604051634b98449160e11b815260040160405180910390fd5b6001600160a01b038116611d995760405163fb7566d760e01b815260040160405180910390fd5b611da46019826139c0565b611dc157604051631e577fa560e31b815260040160405180910390fd5b6040516001600160a01b038216907f5579b1eead2d904c2b05255a92f5a4a4f3e234ae0a4efe538adef3c1794e1cea90600090a250565b600354600090600160a01b900460ff16806113285750600c60009054906101000a90046001600160a01b03166001600160a01b0316635c975abb6040518163ffffffff1660e01b815260040160206040518083038186803b158015611e5c57600080fd5b505afa158015611e70573d6000803e3d6000fd5b505050506040513d601f19601f8201168201806040525081019061132891906146d6565b611e9c6139d5565b6001600160a01b038316611eb957611eb48282613a02565b505050565b611eb46001600160a01b0384168383613b1b565b6002546001600160a01b03163314611ef857604051634b98449160e11b815260040160405180910390fd5b6001600160a01b038116611f1f5760405163fb7566d760e01b815260040160405180910390fd5b611f2a601982613b6d565b611f47576040516362c4c75f60e01b815260040160405180910390fd5b6040516001600160a01b03821681527f5412e32b52c11e4b232ab59f3660d55b48eb20735ccb2c67a0a1ebea0d6fe0199060200160405180910390a150565b6002546001600160a01b03163314611fb157604051634b98449160e11b815260040160405180910390fd5b6001600160a01b038116611fd85760405163fb7566d760e01b815260040160405180910390fd5b6000816001600160a01b0316638230ecd66040518163ffffffff1660e01b815260040160206040518083038186803b15801561201357600080fd5b505afa158015612027573d6000803e3d6000fd5b505050506040513d601f19601f8201168201806040525081019061204b91906145ed565b90506001600160a01b0381166120745760405163013a1b4360e51b815260040160405180910390fd5b6001600160a01b0381811660009081526016602052604090205416156120ad5760405163fa9b809960e01b815260040160405180910390fd5b6120b86011836139c0565b6120d557604051631f477b5760e11b815260040160405180910390fd5b6001600160a01b0381811660009081526016602052604080822080546001600160a01b0319169386169384179055517fad48bee6bbb1b8ece321157ad29afc3c6baa177f8dc043132d65038cc601cdd69190a25050565b60008060006121396135a4565b6001600160a01b031663b646638487866001600160a01b0316636f307dc36040518163ffffffff1660e01b815260040160206040518083038186803b15801561218157600080fd5b505afa158015612195573d6000803e3d6000fd5b505050506040513d601f19601f820116820180604052508101906121b991906145ed565b886040518463ffffffff1660e01b81526004016121d89392919061460a565b60206040518083038186803b1580156121f057600080fd5b505afa158015612204573d6000803e3d6000fd5b505050506040513d601f19601f8201168201806040525081019061222891906145a7565b6018546040805163cfc0c69f60e01b8152815193955060009384936001600160a01b03169263cfc0c69f9260048082019391829003018186803b15801561226e57600080fd5b505afa158015612282573d6000803e3d6000fd5b505050506040513d601f19601f820116820180604052508101906122a69190614678565b90925090506001600160801b038116156122d0576122cd846001600160801b03831661390c565b92505b6001600160801b038216156122ff576122f2846001600160801b03841661390c565b6122fc908561462e565b93505b612309848461462e565b9450505093509350939050565b61231f33611d28565b61233c576040516304f8b91760e51b815260040160405180910390fd5b61234860148233613977565b611083576040516359c937f160e01b815260040160405180910390fd5b61236e33611d28565b61238b576040516304f8b91760e51b815260040160405180910390fd5b80601e612399601383613944565b6123a4601484613944565b6123ae919061462e565b106123cc576040516306ceeb8360e21b815260040160405180910390fd5b6123d860148333613991565b611d2457604051631f477b5760e11b815260040160405180910390fd5b6002546001600160a01b0316331461242057604051634b98449160e11b815260040160405180910390fd5b6001600160a01b0381166124475760405163fb7566d760e01b815260040160405180910390fd5b6000816001600160a01b0316636f307dc36040518163ffffffff1660e01b815260040160206040518083038186803b15801561248257600080fd5b505afa158015612496573d6000803e3d6000fd5b505050506040513d601f19601f820116820180604052508101906124ba91906145ed565b6001600160a01b0380821660009081526010602052604090205491925016156124f65760405163374f601360e11b815260040160405180910390fd5b601e612502600e613b82565b106125205760405163225b605b60e21b815260040160405180910390fd5b61252b600e836139c0565b6125485760405163dd40dad960e01b815260040160405180910390fd5b6001600160a01b0381811660009081526010602052604080822080546001600160a01b0319169386169384179055517fdc705e658c7b6c6c01f5802457bf4ffb99f204bf1603e7b1ae3d4c7536611bc29190a25050565b6060611d35601383613b8c565b6002546001600160a01b031633146125d757604051634b98449160e11b815260040160405180910390fd5b6001600160a01b0381166125fe5760405163fb7566d760e01b815260040160405180910390fd5b600d546001600160a01b0390811690821681141561262f57604051630333a68160e41b815260040160405180910390fd5b6001600160a01b0381161561269a576040516326ed7c7960e11b81526001600160a01b038381166004830152821690634ddaf8f290602401600060405180830381600087803b15801561268157600080fd5b505af1158015612695573d6000803e3d6000fd5b505050505b816001600160a01b0316816001600160a01b03167f4ab5be82436d353e61ca18726e984e561f5c1cc7c6d38b29d2553c790434705a60405160405180910390a350600d80546001600160a01b0319166001600160a01b0392909216919091179055565b612705611df8565b1561272357604051631309a56360e01b815260040160405180910390fd5b6002546001600160a01b0316331461274e57604051634b98449160e11b815260040160405180910390fd5b6003805460ff60a01b1916600160a01b17905560405133907f62e78cea01bee320cd4e420270b5ea74000d11b0c9f74754ebdbfc544b05a25890600090a2565b6002546001600160a01b031633146127b957604051634b98449160e11b815260040160405180910390fd5b6001600160a01b0381166127e05760405163fb7566d760e01b815260040160405180910390fd5b601b546001600160a01b0390811690821681141561281157604051630333a68160e41b815260040160405180910390fd5b604080516001600160a01b038084168252841660208201527f01b723df71593f812e405dc433f7dcf4134ff941def9d2e189a31f3cb1b1963b910160405180910390a150601b80546001600160a01b0319166001600160a01b0392909216919091179055565b6000806128838461316d565b50505050905080156128995760009150506129d1565b6040516370a0823160e01b81526001600160a01b038581166004830152600091612922918891908716906370a082319060240160206040518083038186803b1580156128e457600080fd5b505afa1580156128f8573d6000803e3d6000fd5b505050506040513d601f19601f8201168201806040525081019061291c91906145a7565b8661132d565b5050600b546001600160a01b03888116600090815260166020526040908190205490516370a0823160e01b815289831660048201529394506129c0939116906370a082319060240160206040518083038186803b15801561298257600080fd5b505afa158015612996573d6000803e3d6000fd5b505050506040513d601f19601f820116820180604052508101906129ba91906145a7565b9061390c565b9250828110156129ce578092505b50505b9392505050565b6002546001600160a01b03163314612a0357604051634b98449160e11b815260040160405180910390fd5b600c54604051600160a01b90910460ff1615808252907fc8011ac148e14ab1e8f93a022ebc29088beedc705027c8eb9514d6d69c5b23639060200160405180910390a1600c8054911515600160a01b0260ff60a01b19909216919091179055565b6002546001600160a01b03163314612a8f57604051634b98449160e11b815260040160405180910390fd5b6001600160a01b038116612ab657604051634c267bfb60e01b815260040160405180910390fd5b600380546001600160a01b0319166001600160a01b0392909216919091179055565b600c54604080516331056e5760e21b815290516000926001600160a01b03169163c415b95c916004808301926020929190829003018186803b158015612b1d57600080fd5b505afa158015612b31573d6000803e3d6000fd5b505050506040513d601f19601f8201168201806040525081019061132891906145ed565b6000612b616001613b9a565b90508015612b79576000805461ff0019166101001790555b6001600160a01b038216612ba057604051637cb62f2b60e11b815260040160405180910390fd5b612ba8613c27565b612bb0613c56565b600c80546001600160a81b0319166001600160a01b03841617600160a01b1790556706f05b59d3b20000600b558015611d24576000805461ff0019169055604051600181527f7f26b83ff96e1f2b6a682f133852f6798a09c465da95921460cefb38474024989060200160405180910390a15050565b6002546001600160a01b03163314612c5157604051634b98449160e11b815260040160405180910390fd5b6000816001600160a01b03166318160ddd6040518163ffffffff1660e01b815260040160206040518083038186803b158015612c8c57600080fd5b505afa158015612ca0573d6000803e3d6000fd5b505050506040513d601f19601f82011682018060405250810190612cc491906145a7565b1115612ce35760405163066097f160e31b815260040160405180910390fd5b612cee601182613b6d565b612d0b576040516359c937f160e01b815260040160405180910390fd5b60166000826001600160a01b0316638230ecd66040518163ffffffff1660e01b815260040160206040518083038186803b158015612d4857600080fd5b505afa158015612d5c573d6000803e3d6000fd5b505050506040513d601f19601f82011682018060405250810190612d8091906145ed565b6001600160a01b03908116825260208201929092526040908101600090812080546001600160a01b03191690559051918316917f81e9205ee5a9e1289fad5baa5e74bd49d4613652eb4626bb15925bf9fdbc0feb9190a250565b6060611d35601483613b8c565b600080612df26135a4565b90506000612e01601485613944565b905060005b81811015612fb1576000612e1c60148784613962565b9050836001600160a01b0316638d0dba00826001600160a01b0316638230ecd66040518163ffffffff1660e01b815260040160206040518083038186803b158015612e6657600080fd5b505afa158015612e7a573d6000803e3d6000fd5b505050506040513d601f19601f82011682018060405250810190612e9e91906145ed565b6040516370a0823160e01b81526001600160a01b038a811660048301528516906370a082319060240160206040518083038186803b158015612edf57600080fd5b505afa158015612ef3573d6000803e3d6000fd5b505050506040513d601f19601f82011682018060405250810190612f1791906145a7565b6040516001600160e01b031960e085901b1681526001600160a01b039092166004830152602482015260440160206040518083038186803b158015612f5b57600080fd5b505afa158015612f6f573d6000803e3d6000fd5b505050506040513d601f19601f82011682018060405250810190612f9391906145a7565b612f9d908661462e565b94505080612faa90614646565b9050612e06565b505050919050565b6002546001600160a01b03163314612fe457604051634b98449160e11b815260040160405180910390fd5b6000816001600160a01b03166318160ddd6040518163ffffffff1660e01b815260040160206040518083038186803b15801561301f57600080fd5b505afa158015613033573d6000803e3d6000fd5b505050506040513d601f19601f8201168201806040525081019061305791906145a7565b11156130765760405163066097f160e31b815260040160405180910390fd5b613081600e82613b6d565b61309e5760405163a67d528360e01b815260040160405180910390fd5b60106000826001600160a01b0316636f307dc36040518163ffffffff1660e01b815260040160206040518083038186803b1580156130db57600080fd5b505afa1580156130ef573d6000803e3d6000fd5b505050506040513d601f19601f8201168201806040525081019061311391906145ed565b6001600160a01b03908116825260208201929092526040908101600090812080546001600160a01b03191690559051918316917fe5a19a76470297a1f85f9a38f3ff148b4c8cdc1209e074dbe59db5e22eb31a3a9190a250565b600080600080600061317e86612de7565b925061318986610dd4565b80851115965090945091508183106131a25760006131ac565b6131ac83836145d6565b905091939590929450565b6000806131c26135e9565b156131e057604051631b0e923f60e11b815260040160405180910390fd5b600260015414156132335760405162461bcd60e51b815260206004820152601f60248201527f5265656e7472616e637947756172643a207265656e7472616e742063616c6c0060448201526064016115cc565b60026001556001600160a01b038086166000908152601660205260409020548691166132725760405163a596698b60e01b815260040160405180910390fd5b6001600160a01b038086166000908152601660205260409020548691166132ac5760405163a596698b60e01b815260040160405180910390fd5b600c54600160a01b900460ff166132d657604051633840404b60e21b815260040160405180910390fd5b84158061335857506040516370a0823160e01b81523360048201526001600160a01b038816906370a082319060240160206040518083038186803b15801561331d57600080fd5b505afa158015613331573d6000803e3d6000fd5b505050506040513d601f19601f8201168201806040525081019061335591906145a7565b85115b156133765760405163ca99073960e01b815260040160405180910390fd5b604051632770a7eb60e21b8152336004820152602481018690526001600160a01b03881690639dc29fac90604401600060405180830381600087803b1580156133be57600080fd5b505af11580156133d2573d6000803e3d6000fd5b505050506133e1878787611086565b909450925082156134e257856001600160a01b03166340c10f19600c60009054906101000a90046001600160a01b03166001600160a01b031663c415b95c6040518163ffffffff1660e01b815260040160206040518083038186803b15801561344957600080fd5b505afa15801561345d573d6000803e3d6000fd5b505050506040513d601f19601f8201168201806040525081019061348191906145ed565b6040516001600160e01b031960e084901b1681526001600160a01b03909116600482015260248101869052604401600060405180830381600087803b1580156134c957600080fd5b505af11580156134dd573d6000803e3d6000fd5b505050505b6040516340c10f1960e01b8152336004820152602481018590526001600160a01b038716906340c10f1990604401600060405180830381600087803b15801561352a57600080fd5b505af115801561353e573d6000803e3d6000fd5b505060408051888152602081018890529081018690526001600160a01b03808a1693508a16915033907fafd74f009c0ff7627726f24b568ee5529cd297f6a7a1e43ec363443a13a584209060600160405180910390a45050600180559094909350915050565b600c5460408051637556d1c160e11b815290516000926001600160a01b03169163eaada382916004808301926020929190829003018186803b158015612b1d57600080fd5b600354600090600160a81b900460ff16806113285750600c60009054906101000a90046001600160a01b03166001600160a01b031663ecf3a3f96040518163ffffffff1660e01b815260040160206040518083038186803b158015611e5c57600080fd5b6002546001600160a01b0316331461367857604051634b98449160e11b815260040160405180910390fd5b670de0b6b3a76400008111156136a157604051633c2c00b560e21b815260040160405180910390fd5b600b54818114156136c557604051630333a68160e41b815260040160405180910390fd5b60408051828152602081018490527f6d8ed4ad9ba67058e16e32fc3c8da2e3358da6cd1599e0e0fb2630d0a19fd49c910160405180910390a150600b55565b6003546001600160a01b03163381146137305760405163038cdbad60e31b815260040160405180910390fd5b6002546040516001600160a01b038084169216907fd4459d5b8b913cab0244230fd9b1c08b6ceace7fe9230e60d0f74cbffdf849d090600090a3600280546001600160a01b039092166001600160a01b0319928316179055600380549091169055565b6000611d35600e8361399e565b6060611328600e613984565b6137b46135e9565b156137d257604051631b0e923f60e11b815260040160405180910390fd5b6002546001600160a01b031633146137fd57604051634b98449160e11b815260040160405180910390fd5b6003805461ffff60a01b191661010160a01b17905560405133907f28b4c24cb1012c094cd2f59f98e89d791973295f8fda6eaa118022d6d318960a90600090a2565b6138476135e9565b61386457604051636e2cff4560e01b815260040160405180910390fd5b6002546001600160a01b0316331461388f57604051634b98449160e11b815260040160405180910390fd5b6003805460ff60a81b1916905560405133907fece7583a70a505ef0e36d4dec768f5ae597713e09c26011022599ee01abdabfc90600090a2565b6001600160a01b03163b151590565b6000816138e66002826146f8565b6138f8670de0b6b3a76400008661471a565b613902919061462e565b6129d191906146f8565b6000821580613919575081155b1561392657506000611d35565b670de0b6b3a764000061393a6002826146f8565b6138f8848661471a565b6001600160a01b0381166000908152602083905260408120546129d1565b600061396f848484613c85565b949350505050565b600061396f848484613ccc565b606060006129d183613e79565b600061396f848484613ed5565b6001600160a01b038116600090815260018301602052604081205415156129d1565b60006129d1836001600160a01b038416613f63565b6002546001600160a01b03163314613a0057604051634b98449160e11b815260040160405180910390fd5b565b80471015613a525760405162461bcd60e51b815260206004820152601d60248201527f416464726573733a20696e73756666696369656e742062616c616e636500000060448201526064016115cc565b6000826001600160a01b03168260405160006040518083038185875af1925050503d8060008114613a9f576040519150601f19603f3d011682016040523d82523d6000602084013e613aa4565b606091505b5050905080611eb45760405162461bcd60e51b815260206004820152603a60248201527f416464726573733a20756e61626c6520746f2073656e642076616c75652c207260448201527f6563697069656e74206d6179206861766520726576657274656400000000000060648201526084016115cc565b604080516001600160a01b038416602482015260448082018490528251808303909101815260649091019091526020810180516001600160e01b031663a9059cbb60e01b179052611eb4908490613fb2565b60006129d1836001600160a01b038416614084565b6000611d35825490565b6060600061396f8484614177565b60008054610100900460ff1615613be1578160ff166001148015613bbd5750303b155b613bd95760405162461bcd60e51b81526004016115cc90614739565b506000919050565b60005460ff808416911610613c085760405162461bcd60e51b81526004016115cc90614739565b506000805460ff191660ff92909216919091179055600190565b919050565b600054610100900460ff16613c4e5760405162461bcd60e51b81526004016115cc90614787565b613a006141ec565b600054610100900460ff16613c7d5760405162461bcd60e51b81526004016115cc90614787565b613a00614219565b6001600160a01b0382166000908152602084905260408120805483908110613caf57613caf6147d2565b6000918252602090912001546001600160a01b0316949350505050565b6001600160a01b03808316600090815260208581526040808320938516835260019093019052908120548015613e6f576000613d096001836145d6565b6001600160a01b03861660009081526020889052604081205491925090613d32906001906145d6565b9050818114613dee576001600160a01b0386166000908152602088905260408120805483908110613d6557613d656147d2565b60009182526020808320909101546001600160a01b038a81168452918b90526040909220805491909216925082919085908110613da457613da46147d2565b600091825260208083209190910180546001600160a01b0319166001600160a01b0394851617905589831682528a8152604080832094909316825260019390930190925290208390555b6001600160a01b0386166000908152602088905260409020805480613e1557613e156147e8565b60008281526020808220830160001990810180546001600160a01b03191690559092019092556001600160a01b0388811683528982526040808420918916845260019182019092529082209190915593506129d192505050565b60009150506129d1565b606081600001805480602002602001604051908101604052809291908181526020018280548015613ec957602002820191906000526020600020905b815481526020019060010190808311613eb5575b50505050509050919050565b6001600160a01b0380831660009081526020858152604080832093851683526001909301905290812054613f5b57506001600160a01b0382811660009081526020858152604080832080546001808201835582865284862090910180546001600160a01b03191696881696871790558154958552908101909252909120919091556129d1565b5060006129d1565b6000818152600183016020526040812054613faa57508154600181810184556000848152602080822090930184905584548482528286019093526040902091909155611d35565b506000611d35565b6000614007826040518060400160405280602081526020017f5361666545524332303a206c6f772d6c6576656c2063616c6c206661696c6564815250856001600160a01b03166142829092919063ffffffff16565b805190915015611eb4578080602001905181019061402591906146d6565b611eb45760405162461bcd60e51b815260206004820152602a60248201527f5361666545524332303a204552433230206f7065726174696f6e20646964206e6044820152691bdd081cdd58d8d9595960b21b60648201526084016115cc565b6000818152600183016020526040812054801561416d5760006140a86001836145d6565b85549091506000906140bc906001906145d6565b90508181146141215760008660000182815481106140dc576140dc6147d2565b90600052602060002001549050808760000184815481106140ff576140ff6147d2565b6000918252602080832090910192909255918252600188019052604090208390555b8554869080614132576141326147e8565b600190038181906000526020600020016000905590558560010160008681526020019081526020016000206000905560019350505050611d35565b6000915050611d35565b6001600160a01b038116600090815260208381526040918290208054835181840281018401909452808452606093928301828280156141df57602002820191906000526020600020905b81546001600160a01b031681526001909101906020018083116141c1575b5050505050905092915050565b600054610100900460ff166142135760405162461bcd60e51b81526004016115cc90614787565b60018055565b600054610100900460ff166142405760405162461bcd60e51b81526004016115cc90614787565b600280546001600160a01b031916339081179091556040516000907fd4459d5b8b913cab0244230fd9b1c08b6ceace7fe9230e60d0f74cbffdf849d0908290a3565b606061396f8484600085856001600160a01b0385163b6142e45760405162461bcd60e51b815260206004820152601d60248201527f416464726573733a2063616c6c20746f206e6f6e2d636f6e747261637400000060448201526064016115cc565b600080866001600160a01b0316858760405161430091906147fe565b60006040518083038185875af1925050503d806000811461433d576040519150601f19603f3d011682016040523d82523d6000602084013e614342565b606091505b509150915061435282828661435d565b979650505050505050565b6060831561436c5750816129d1565b82511561437c5782518084602001fd5b8160405162461bcd60e51b81526004016115cc9190614574565b6001600160a01b038116811461108357600080fd5b6000602082840312156143bd57600080fd5b81356129d181614396565b6000602082840312156143da57600080fd5b5035919050565b6000806000606084860312156143f657600080fd5b833561440181614396565b9250602084013561441181614396565b929592945050506040919091013590565b6020808252825182820181905260009190848201906040850190845b818110156144635783516001600160a01b03168352928401929184019160010161443e565b50909695505050505050565b60008060006060848603121561448457600080fd5b833561448f81614396565b92506020840135915060408401356144a681614396565b809150509250925092565b600080600080608085870312156144c757600080fd5b84356144d281614396565b935060208501356144e281614396565b92506040850135915060608501356144f981614396565b939692955090935050565b60008060006060848603121561451957600080fd5b833561452481614396565b9250602084013561453481614396565b915060408401356144a681614396565b60005b8381101561455f578181015183820152602001614547565b8381111561456e576000848401525b50505050565b6020815260008251806020840152614593816040850160208701614544565b601f01601f19169190910160400192915050565b6000602082840312156145b957600080fd5b5051919050565b634e487b7160e01b600052601160045260246000fd5b6000828210156145e8576145e86145c0565b500390565b6000602082840312156145ff57600080fd5b81516129d181614396565b6001600160a01b039384168152919092166020820152604081019190915260600190565b60008219821115614641576146416145c0565b500190565b600060001982141561465a5761465a6145c0565b5060010190565b80516001600160801b0381168114613c2257600080fd5b6000806040838503121561468b57600080fd5b61469483614661565b91506146a260208401614661565b90509250929050565b60006001600160801b038083168185168083038211156146cd576146cd6145c0565b01949350505050565b6000602082840312156146e857600080fd5b815180151581146129d157600080fd5b60008261471557634e487b7160e01b600052601260045260246000fd5b500490565b6000816000190483118215151615614734576147346145c0565b500290565b6020808252602e908201527f496e697469616c697a61626c653a20636f6e747261637420697320616c72656160408201526d191e481a5b9a5d1a585b1a5e995960921b606082015260800190565b6020808252602b908201527f496e697469616c697a61626c653a20636f6e7472616374206973206e6f74206960408201526a6e697469616c697a696e6760a81b606082015260800190565b634e487b7160e01b600052603260045260246000fd5b634e487b7160e01b600052603160045260246000fd5b60008251614810818460208701614544565b919091019291505056fea2646970667358221220c806aa72c8ef680cc368bfee726d1dd28a830a5c43fa4605100487131e51f7eb64736f6c63430008090033496e697469616c697a61626c653a20636f6e747261637420697320616c726561",
  "devdoc": {
    "kind": "dev",
    "methods": {
      "addDebtToken(address)": {
        "details": "Must keep `debtTokenOf` mapping updated"
      },
      "addToDebtTokensOfAccount(address)": {
        "details": "This function is called from `DebtToken` when user's balance changes from `0`The caller should ensure to not pass `address(0)` as `_account`",
        "params": {
          "account_": "The account address"
        }
      },
      "addToDepositTokensOfAccount(address)": {
        "details": "This function is called from `DepositToken` when user's balance changes from `0`The caller should ensure to not pass `address(0)` as `_account`",
        "params": {
          "account_": "The account address"
        }
      },
      "debtOf(address)": {
        "params": {
          "account_": "The account to check"
        },
        "returns": {
          "_debtInUsd": "The debt value in USD"
        }
      },
      "debtPositionOf(address)": {
        "params": {
          "account_": "The account to check"
        },
        "returns": {
          "_debtInUsd": "The total debt in USD",
          "_depositInUsd": "The total collateral deposited in USD",
          "_isHealthy": "Whether the account's position is healthy",
          "_issuableInUsd": "The amount of debt (is USD) that is free (i.e. can be used to issue synthetic tokens)",
          "_issuableLimitInUsd": "The max amount of debt (is USD) that can be created (considering collateral factors)"
        }
      },
      "depositOf(address)": {
        "params": {
          "account_": "The account to check"
        },
        "returns": {
          "_depositInUsd": "The total deposit value in USD among all collaterals",
          "_issuableLimitInUsd": "The max value in USD that can be used to issue synthetic tokens"
        }
      },
      "doesDebtTokenExist(address)": {
        "params": {
          "debtToken_": "Asset to check"
        },
        "returns": {
          "_0": "true if exist"
        }
      },
      "doesDepositTokenExist(address)": {
        "params": {
          "depositToken_": "Asset to check"
        },
        "returns": {
          "_0": "true if exist"
        }
      },
      "doesSyntheticTokenExist(address)": {
        "params": {
          "syntheticToken_": "Asset to check"
        },
        "returns": {
          "_0": "true if exist"
        }
      },
      "getDebtTokens()": {
        "details": "WARNING: This operation will copy the entire storage to memory, which can be quite expensive. This is designed to mostly be used by view accessors that are queried without any gas fees."
      },
      "getDebtTokensOfAccount(address)": {
        "details": "WARNING: This operation will copy the entire storage to memory, which can be quite expensive. This is designed to mostly be used by view accessors that are queried without any gas fees."
      },
      "getDepositTokens()": {
        "details": "WARNING: This operation will copy the entire storage to memory, which can be quite expensive. This is designed to mostly be used by view accessors that are queried without any gas fees."
      },
      "getDepositTokensOfAccount(address)": {
        "details": "WARNING: This operation will copy the entire storage to memory, which can be quite expensive. This is designed to mostly be used by view accessors that are queried without any gas fees."
      },
      "liquidate(address,address,uint256,address)": {
        "params": {
          "account_": "The account with an unhealthy position",
          "amountToRepay_": "The amount to repay in synthetic token",
          "depositToken_": "The collateral to seize from",
          "syntheticToken_": "The msAsset to use for repayment"
        },
        "returns": {
          "_fee": "Share of `_totalSeized` collected as fee",
          "_toLiquidator": "Share of `_totalSeized` sent to the liquidator",
          "_totalSeized": "Total deposit amount seized from the liquidated account"
        }
      },
      "open()": {
        "details": "Open contract operations, if contract is in shutdown state"
      },
      "pause()": {
        "details": "Suspend deposit feature, if contract is not paused."
      },
      "quoteLiquidateIn(address,uint256,address)": {
        "params": {
          "depositToken_": "Collateral's deposit token",
          "syntheticToken_": "Synth for repayment",
          "totalToSeize_": "Collateral total amount to size"
        },
        "returns": {
          "_amountToRepay": "Synth amount to burn",
          "_fee": "The fee amount to collect",
          "_toLiquidator": "Seized amount to the liquidator"
        }
      },
      "quoteLiquidateMax(address,address,address)": {
        "details": "I.e. Considers the min amount between collateral's balance and `maxLiquidable` param",
        "params": {
          "account_": "The account to liquidate",
          "depositToken_": "Collateral's deposit token",
          "syntheticToken_": "Synth for repayment"
        },
        "returns": {
          "_maxAmountToRepay": "Synth amount to burn"
        }
      },
      "quoteLiquidateOut(address,uint256,address)": {
        "params": {
          "amountToRepay_": "Synth amount to burn",
          "depositToken_": "Collateral's deposit token",
          "syntheticToken_": "Synth for repayment"
        },
        "returns": {
          "_fee": "The fee amount to collect",
          "_toLiquidator": "Seized amount to the liquidator",
          "_totalToSeize": "Collateral total amount to size"
        }
      },
      "quoteSwapIn(address,address,uint256)": {
        "params": {
          "amountOut_": "Amount out",
          "syntheticTokenIn_": "Synth in",
          "syntheticTokenOut_": "Synth out"
        },
        "returns": {
          "_amountIn": "Amount in",
          "_fee": "Fee to charge in `syntheticTokenOut_`"
        }
      },
      "quoteSwapOut(address,address,uint256)": {
        "params": {
          "amountIn_": "Amount in",
          "syntheticTokenIn_": "Synth in",
          "syntheticTokenOut_": "Synth out"
        },
        "returns": {
          "_amountOut": "Amount out",
          "_fee": "Fee to charge in `syntheticTokenOut_`"
        }
      },
      "removeDebtToken(address)": {
        "details": "Must keep `debtTokenOf` mapping updated"
      },
      "removeFromDebtTokensOfAccount(address)": {
        "details": "This function is called from `DebtToken` when user's balance changes to `0`The caller should ensure to not pass `address(0)` as `_account`",
        "params": {
          "account_": "The account address"
        }
      },
      "removeFromDepositTokensOfAccount(address)": {
        "details": "This function is called from `DepositToken` when user's balance changes to `0`The caller should ensure to not pass `address(0)` as `_account`",
        "params": {
          "account_": "The account address"
        }
      },
      "shutdown()": {
        "details": "Suspend all features (issue, repay, deposit, withdraw, liquidate and swap), if not already shutdown."
      },
      "swap(address,address,uint256)": {
        "params": {
          "amountIn_": "Amount to swap",
          "syntheticTokenIn_": "Synthetic token to sell",
          "syntheticTokenOut_": "Synthetic token to buy"
        }
      },
      "sweep(address,address,uint256)": {
        "params": {
          "amount_": "The amount to send",
          "to_": "The recipient of the transfer",
          "token_": "The token to transfer"
        }
      },
      "transferGovernorship(address)": {
        "details": "Can only be called by the current owner.",
        "params": {
          "proposedGovernor_": "The new proposed governor"
        }
      },
      "unpause()": {
        "details": "Unpause contract operations, allow only if contract is paused and not shutdown."
      }
    },
    "title": "Pool contract",
    "version": 1
  },
  "userdoc": {
    "events": {
      "DebtFloorUpdated(uint256,uint256)": {
        "notice": "Emitted when protocol liquidation fee is updated"
      },
      "DebtTokenAdded(address)": {
        "notice": "Emitted when debt token is enabled"
      },
      "DebtTokenRemoved(address)": {
        "notice": "Emitted when debt token is disabled"
      },
      "DepositTokenAdded(address)": {
        "notice": "Emitted when deposit token is enabled"
      },
      "DepositTokenRemoved(address)": {
        "notice": "Emitted when deposit token is disabled"
      },
      "FeeProviderUpdated(address,address)": {
        "notice": "Emitted when fee provider contract is updated"
      },
      "MaxLiquidableUpdated(uint256,uint256)": {
        "notice": "Emitted when maxLiquidable (liquidation cap) is updated"
      },
      "Open(address)": {
        "notice": "Emitted when contract is turned on"
      },
      "Paused(address)": {
        "notice": "Emitted when contract is paused"
      },
      "PositionLiquidated(address,address,address,uint256,uint256,uint256)": {
        "notice": "Emitted when a position is liquidated"
      },
      "RewardsDistributorAdded(address)": {
        "notice": "Emitted when rewards distributor contract is added"
      },
      "RewardsDistributorRemoved(address)": {
        "notice": "Emitted when rewards distributor contract is removed"
      },
      "Shutdown(address)": {
        "notice": "Emitted when contract is shuted down"
      },
      "SmartFarmingManagerUpdated(address,address)": {
        "notice": "Emitted when SmartFarmingManager contract is updated"
      },
      "SwapActiveUpdated(bool)": {
        "notice": "Emitted when the swap active flag is updated"
      },
      "SyntheticTokenSwapped(address,address,address,uint256,uint256,uint256)": {
        "notice": "Emitted when synthetic token is swapped"
      },
      "TreasuryUpdated(address,address)": {
        "notice": "Emitted when treasury contract is updated"
      },
      "Unpaused(address)": {
        "notice": "Emitted when contract is unpaused"
      }
    },
    "kind": "user",
    "methods": {
      "MAX_TOKENS_PER_USER()": {
        "notice": "Maximum tokens per pool a user may have"
      },
      "acceptGovernorship()": {
        "notice": "Allows new governor to accept governorship of the contract."
      },
      "addDebtToken(address)": {
        "notice": "Add debt token to offerings"
      },
      "addDepositToken(address)": {
        "notice": "Add deposit token (i.e. collateral) to Synth"
      },
      "addRewardsDistributor(address)": {
        "notice": "Add a RewardsDistributor contract"
      },
      "addToDebtTokensOfAccount(address)": {
        "notice": "Add a debt token to the per-account list"
      },
      "addToDepositTokensOfAccount(address)": {
        "notice": "Add a deposit token to the per-account list"
      },
      "debtFloorInUsd()": {
        "notice": "The debt floor (in USD) for each synthetic token This parameters is used to keep incentive for liquidators (i.e. cover gas and provide enough profit)"
      },
      "debtOf(address)": {
        "notice": "Get account's debt by querying latest prices from oracles"
      },
      "debtPositionOf(address)": {
        "notice": "Returns whether the debt position from an account is healthy"
      },
      "debtTokenOf(address)": {
        "notice": "Get the debt token's address from given synthetic asset"
      },
      "depositOf(address)": {
        "notice": "Get account's total collateral deposited by querying latest prices from oracles"
      },
      "depositTokenOf(address)": {
        "notice": "Get the deposit token's address from given underlying asset"
      },
      "doesDebtTokenExist(address)": {
        "notice": "Check if token is part of the debt offerings"
      },
      "doesDepositTokenExist(address)": {
        "notice": "Check if collateral is supported"
      },
      "doesSyntheticTokenExist(address)": {
        "notice": "Check if token is part of the synthetic offerings"
      },
      "everythingStopped()": {
        "notice": "Return `true` if contract is shutdown"
      },
      "feeCollector()": {
        "notice": "Returns fee collector address"
      },
      "feeProvider()": {
        "notice": "FeeProvider contract"
      },
      "getDebtTokens()": {
        "notice": "Get all debt tokens"
      },
      "getDebtTokensOfAccount(address)": {
        "notice": "Get all debt tokens"
      },
      "getDepositTokens()": {
        "notice": "Get all deposit tokens"
      },
      "getDepositTokensOfAccount(address)": {
        "notice": "Get deposit tokens of an account"
      },
      "getRewardsDistributors()": {
        "notice": "Get all rewards distributors"
      },
      "governor()": {
        "notice": "The governor"
      },
      "isSwapActive()": {
        "notice": "Swap feature on/off flag"
      },
      "liquidate(address,address,uint256,address)": {
        "notice": "Burn synthetic token, unlock deposit token and send liquidator incentive"
      },
      "masterOracle()": {
        "notice": "Get MasterOracle contract"
      },
      "maxLiquidable()": {
        "notice": "The max percent of the debt allowed to liquidate"
      },
      "paused()": {
        "notice": "Return `true` if contract is paused"
      },
      "poolRegistry()": {
        "notice": "PoolRegistry"
      },
      "proposedGovernor()": {
        "notice": "The proposed governor"
      },
      "quoteLiquidateIn(address,uint256,address)": {
        "notice": "Quote synth  `_amountToRepay` in order to seize `totalToSeized_`"
      },
      "quoteLiquidateMax(address,address,address)": {
        "notice": "Quote max allowed synth to repay"
      },
      "quoteLiquidateOut(address,uint256,address)": {
        "notice": "Quote collateral  `totalToSeized_` by repaying `amountToRepay_`"
      },
      "quoteSwapIn(address,address,uint256)": {
        "notice": "Quote `_amountIn` to get `amountOut_`"
      },
      "quoteSwapOut(address,address,uint256)": {
        "notice": "Quote `amountOut_` get from `amountIn_`"
      },
      "removeDebtToken(address)": {
        "notice": "Remove debt token from offerings"
      },
      "removeDepositToken(address)": {
        "notice": "Remove deposit token (i.e. collateral) from Synth"
      },
      "removeFromDebtTokensOfAccount(address)": {
        "notice": "Remove a debt token from the per-account list"
      },
      "removeFromDepositTokensOfAccount(address)": {
        "notice": "Remove a deposit token from the per-account list"
      },
      "removeRewardsDistributor(address)": {
        "notice": "Remove a RewardsDistributor contract"
      },
      "smartFarmingManager()": {
        "notice": "SmartFarmingManager contract"
      },
      "swap(address,address,uint256)": {
        "notice": "Swap synthetic tokens"
      },
      "sweep(address,address,uint256)": {
        "notice": "ERC20 recovery in case of stuck tokens due direct transfers to the contract address."
      },
      "toggleIsSwapActive()": {
        "notice": "Turn swap on/off"
      },
      "transferGovernorship(address)": {
        "notice": "Transfers governorship of the contract to a new account (`proposedGovernor`)."
      },
      "treasury()": {
        "notice": "Treasury contract"
      },
      "updateDebtFloor(uint256)": {
        "notice": "Update debt floor"
      },
      "updateFeeProvider(address)": {
        "notice": "Update FeeProvider contract"
      },
      "updateMaxLiquidable(uint256)": {
        "notice": "Update maxLiquidable (liquidation cap)"
      },
      "updateSmartFarmingManager(address)": {
        "notice": "Update SmartFarmingManager contract"
      },
      "updateTreasury(address)": {
        "notice": "Update treasury contract - will migrate funds to the new contract"
      }
    },
    "version": 1
  },
  "storageLayout": {
    "storage": [
      {
        "astId": 19514,
        "contract": "contracts/Pool.sol:Pool",
        "label": "_initialized",
        "offset": 0,
        "slot": "0",
        "type": "t_uint8"
      },
      {
        "astId": 19517,
        "contract": "contracts/Pool.sol:Pool",
        "label": "_initializing",
        "offset": 1,
        "slot": "0",
        "type": "t_bool"
      },
      {
        "astId": 33193,
        "contract": "contracts/Pool.sol:Pool",
        "label": "_status",
        "offset": 0,
        "slot": "1",
        "type": "t_uint256"
      },
      {
        "astId": 13865,
        "contract": "contracts/Pool.sol:Pool",
        "label": "governor",
        "offset": 0,
        "slot": "2",
        "type": "t_address"
      },
      {
        "astId": 13868,
        "contract": "contracts/Pool.sol:Pool",
        "label": "proposedGovernor",
        "offset": 0,
        "slot": "3",
        "type": "t_address"
      },
      {
        "astId": 32815,
        "contract": "contracts/Pool.sol:Pool",
        "label": "_paused",
        "offset": 20,
        "slot": "3",
        "type": "t_bool"
      },
      {
        "astId": 32817,
        "contract": "contracts/Pool.sol:Pool",
        "label": "_everythingStopped",
        "offset": 21,
        "slot": "3",
        "type": "t_bool"
      },
      {
        "astId": 30834,
        "contract": "contracts/Pool.sol:Pool",
        "label": "debtFloorInUsd",
        "offset": 0,
        "slot": "4",
        "type": "t_uint256"
      },
      {
        "astId": 30836,
        "contract": "contracts/Pool.sol:Pool",
        "label": "depositFee__DEPRECATED",
        "offset": 0,
        "slot": "5",
        "type": "t_uint256"
      },
      {
        "astId": 30838,
        "contract": "contracts/Pool.sol:Pool",
        "label": "issueFee__DEPRECATED",
        "offset": 0,
        "slot": "6",
        "type": "t_uint256"
      },
      {
        "astId": 30840,
        "contract": "contracts/Pool.sol:Pool",
        "label": "withdrawFee__DEPRECATED",
        "offset": 0,
        "slot": "7",
        "type": "t_uint256"
      },
      {
        "astId": 30842,
        "contract": "contracts/Pool.sol:Pool",
        "label": "repayFee__DEPRECATED",
        "offset": 0,
        "slot": "8",
        "type": "t_uint256"
      },
      {
        "astId": 30844,
        "contract": "contracts/Pool.sol:Pool",
        "label": "swapFee__DEPRECATED",
        "offset": 0,
        "slot": "9",
        "type": "t_uint256"
      },
      {
        "astId": 30846,
        "contract": "contracts/Pool.sol:Pool",
        "label": "liquidationFees__DEPRECATED",
        "offset": 0,
        "slot": "10",
        "type": "t_uint256"
      },
      {
        "astId": 30850,
        "contract": "contracts/Pool.sol:Pool",
        "label": "maxLiquidable",
        "offset": 0,
        "slot": "11",
        "type": "t_uint256"
      },
      {
        "astId": 30855,
        "contract": "contracts/Pool.sol:Pool",
        "label": "poolRegistry",
        "offset": 0,
        "slot": "12",
        "type": "t_contract(IPoolRegistry)27760"
      },
      {
        "astId": 30859,
        "contract": "contracts/Pool.sol:Pool",
        "label": "isSwapActive",
        "offset": 20,
        "slot": "12",
        "type": "t_bool"
      },
      {
        "astId": 30864,
        "contract": "contracts/Pool.sol:Pool",
        "label": "treasury",
        "offset": 0,
        "slot": "13",
        "type": "t_contract(ITreasury)28152"
      },
      {
        "astId": 30868,
        "contract": "contracts/Pool.sol:Pool",
        "label": "depositTokens",
        "offset": 0,
        "slot": "14",
        "type": "t_struct(AddressSet)23523_storage"
      },
      {
        "astId": 30876,
        "contract": "contracts/Pool.sol:Pool",
        "label": "depositTokenOf",
        "offset": 0,
        "slot": "16",
        "type": "t_mapping(t_contract(IERC20)21685,t_contract(IDepositToken)27255)"
      },
      {
        "astId": 30880,
        "contract": "contracts/Pool.sol:Pool",
        "label": "debtTokens",
        "offset": 0,
        "slot": "17",
        "type": "t_struct(AddressSet)23523_storage"
      },
      {
        "astId": 30884,
        "contract": "contracts/Pool.sol:Pool",
        "label": "depositTokensOfAccount",
        "offset": 0,
        "slot": "19",
        "type": "t_struct(AddressSet)28749_storage"
      },
      {
        "astId": 30888,
        "contract": "contracts/Pool.sol:Pool",
        "label": "debtTokensOfAccount",
        "offset": 0,
        "slot": "20",
        "type": "t_struct(AddressSet)28749_storage"
      },
      {
        "astId": 30893,
        "contract": "contracts/Pool.sol:Pool",
        "label": "rewardsDistributors__DEPRECATED",
        "offset": 0,
        "slot": "21",
        "type": "t_array(t_contract(IRewardsDistributor)27961)dyn_storage"
      },
      {
        "astId": 30901,
        "contract": "contracts/Pool.sol:Pool",
        "label": "debtTokenOf",
        "offset": 0,
        "slot": "22",
        "type": "t_mapping(t_contract(ISyntheticToken)28137,t_contract(IDebtToken)27112)"
      },
      {
        "astId": 30907,
        "contract": "contracts/Pool.sol:Pool",
        "label": "swapper__DEPRECATED",
        "offset": 0,
        "slot": "23",
        "type": "t_contract(ISwapper)28350"
      },
      {
        "astId": 30912,
        "contract": "contracts/Pool.sol:Pool",
        "label": "feeProvider",
        "offset": 0,
        "slot": "24",
        "type": "t_contract(IFeeProvider)27303"
      },
      {
        "astId": 30916,
        "contract": "contracts/Pool.sol:Pool",
        "label": "rewardsDistributors",
        "offset": 0,
        "slot": "25",
        "type": "t_struct(AddressSet)23523_storage"
      },
      {
        "astId": 30923,
        "contract": "contracts/Pool.sol:Pool",
        "label": "smartFarmingManager",
        "offset": 0,
        "slot": "27",
        "type": "t_contract(ISmartFarmingManager)28069"
      }
    ],
    "types": {
      "t_address": {
        "encoding": "inplace",
        "label": "address",
        "numberOfBytes": "20"
      },
      "t_array(t_address)dyn_storage": {
        "base": "t_address",
        "encoding": "dynamic_array",
        "label": "address[]",
        "numberOfBytes": "32"
      },
      "t_array(t_bytes32)dyn_storage": {
        "base": "t_bytes32",
        "encoding": "dynamic_array",
        "label": "bytes32[]",
        "numberOfBytes": "32"
      },
      "t_array(t_contract(IRewardsDistributor)27961)dyn_storage": {
        "base": "t_contract(IRewardsDistributor)27961",
        "encoding": "dynamic_array",
        "label": "contract IRewardsDistributor[]",
        "numberOfBytes": "32"
      },
      "t_bool": {
        "encoding": "inplace",
        "label": "bool",
        "numberOfBytes": "1"
      },
      "t_bytes32": {
        "encoding": "inplace",
        "label": "bytes32",
        "numberOfBytes": "32"
      },
      "t_contract(IDebtToken)27112": {
        "encoding": "inplace",
        "label": "contract IDebtToken",
        "numberOfBytes": "20"
      },
      "t_contract(IDepositToken)27255": {
        "encoding": "inplace",
        "label": "contract IDepositToken",
        "numberOfBytes": "20"
      },
      "t_contract(IERC20)21685": {
        "encoding": "inplace",
        "label": "contract IERC20",
        "numberOfBytes": "20"
      },
      "t_contract(IFeeProvider)27303": {
        "encoding": "inplace",
        "label": "contract IFeeProvider",
        "numberOfBytes": "20"
      },
      "t_contract(IPoolRegistry)27760": {
        "encoding": "inplace",
        "label": "contract IPoolRegistry",
        "numberOfBytes": "20"
      },
      "t_contract(IRewardsDistributor)27961": {
        "encoding": "inplace",
        "label": "contract IRewardsDistributor",
        "numberOfBytes": "20"
      },
      "t_contract(ISmartFarmingManager)28069": {
        "encoding": "inplace",
        "label": "contract ISmartFarmingManager",
        "numberOfBytes": "20"
      },
      "t_contract(ISwapper)28350": {
        "encoding": "inplace",
        "label": "contract ISwapper",
        "numberOfBytes": "20"
      },
      "t_contract(ISyntheticToken)28137": {
        "encoding": "inplace",
        "label": "contract ISyntheticToken",
        "numberOfBytes": "20"
      },
      "t_contract(ITreasury)28152": {
        "encoding": "inplace",
        "label": "contract ITreasury",
        "numberOfBytes": "20"
      },
      "t_mapping(t_address,t_struct(Set)28743_storage)": {
        "encoding": "mapping",
        "key": "t_address",
        "label": "mapping(address => struct MappedEnumerableSet.Set)",
        "numberOfBytes": "32",
        "value": "t_struct(Set)28743_storage"
      },
      "t_mapping(t_address,t_uint256)": {
        "encoding": "mapping",
        "key": "t_address",
        "label": "mapping(address => uint256)",
        "numberOfBytes": "32",
        "value": "t_uint256"
      },
      "t_mapping(t_bytes32,t_uint256)": {
        "encoding": "mapping",
        "key": "t_bytes32",
        "label": "mapping(bytes32 => uint256)",
        "numberOfBytes": "32",
        "value": "t_uint256"
      },
      "t_mapping(t_contract(IERC20)21685,t_contract(IDepositToken)27255)": {
        "encoding": "mapping",
        "key": "t_contract(IERC20)21685",
        "label": "mapping(contract IERC20 => contract IDepositToken)",
        "numberOfBytes": "32",
        "value": "t_contract(IDepositToken)27255"
      },
      "t_mapping(t_contract(ISyntheticToken)28137,t_contract(IDebtToken)27112)": {
        "encoding": "mapping",
        "key": "t_contract(ISyntheticToken)28137",
        "label": "mapping(contract ISyntheticToken => contract IDebtToken)",
        "numberOfBytes": "32",
        "value": "t_contract(IDebtToken)27112"
      },
      "t_struct(AddressSet)23523_storage": {
        "encoding": "inplace",
        "label": "struct EnumerableSet.AddressSet",
        "members": [
          {
            "astId": 23522,
            "contract": "contracts/Pool.sol:Pool",
            "label": "_inner",
            "offset": 0,
            "slot": "0",
            "type": "t_struct(Set)23222_storage"
          }
        ],
        "numberOfBytes": "64"
      },
      "t_struct(AddressSet)28749_storage": {
        "encoding": "inplace",
        "label": "struct MappedEnumerableSet.AddressSet",
        "members": [
          {
            "astId": 28748,
            "contract": "contracts/Pool.sol:Pool",
            "label": "_ofAddress",
            "offset": 0,
            "slot": "0",
            "type": "t_mapping(t_address,t_struct(Set)28743_storage)"
          }
        ],
        "numberOfBytes": "32"
      },
      "t_struct(Set)23222_storage": {
        "encoding": "inplace",
        "label": "struct EnumerableSet.Set",
        "members": [
          {
            "astId": 23217,
            "contract": "contracts/Pool.sol:Pool",
            "label": "_values",
            "offset": 0,
            "slot": "0",
            "type": "t_array(t_bytes32)dyn_storage"
          },
          {
            "astId": 23221,
            "contract": "contracts/Pool.sol:Pool",
            "label": "_indexes",
            "offset": 0,
            "slot": "1",
            "type": "t_mapping(t_bytes32,t_uint256)"
          }
        ],
        "numberOfBytes": "64"
      },
      "t_struct(Set)28743_storage": {
        "encoding": "inplace",
        "label": "struct MappedEnumerableSet.Set",
        "members": [
          {
            "astId": 28738,
            "contract": "contracts/Pool.sol:Pool",
            "label": "_values",
            "offset": 0,
            "slot": "0",
            "type": "t_array(t_address)dyn_storage"
          },
          {
            "astId": 28742,
            "contract": "contracts/Pool.sol:Pool",
            "label": "_indexes",
            "offset": 0,
            "slot": "1",
            "type": "t_mapping(t_address,t_uint256)"
          }
        ],
        "numberOfBytes": "64"
      },
      "t_uint256": {
        "encoding": "inplace",
        "label": "uint256",
        "numberOfBytes": "32"
      },
      "t_uint8": {
        "encoding": "inplace",
        "label": "uint8",
        "numberOfBytes": "1"
      }
    }
  }
}