{
  "address": "0x530E54138266f6E3Eb7b3b828C2ED98c6Cab151a",
  "abi": [
    {
      "anonymous": false,
      "inputs": [
        {
          "indexed": false,
          "internalType": "uint256",
          "name": "oldDebtFloorInUsd",
          "type": "uint256"
        },
        {
          "indexed": false,
          "internalType": "uint256",
          "name": "newDebtFloorInUsd",
          "type": "uint256"
        }
      ],
      "name": "DebtFloorUpdated",
      "type": "event"
    },
    {
      "anonymous": false,
      "inputs": [
        {
          "indexed": true,
          "internalType": "contract IDebtToken",
          "name": "debtToken",
          "type": "address"
        }
      ],
      "name": "DebtTokenAdded",
      "type": "event"
    },
    {
      "anonymous": false,
      "inputs": [
        {
          "indexed": true,
          "internalType": "contract IDebtToken",
          "name": "debtToken",
          "type": "address"
        }
      ],
      "name": "DebtTokenRemoved",
      "type": "event"
    },
    {
      "anonymous": false,
      "inputs": [
        {
          "indexed": false,
          "internalType": "uint256",
          "name": "oldDepositFee",
          "type": "uint256"
        },
        {
          "indexed": false,
          "internalType": "uint256",
          "name": "newDepositFee",
          "type": "uint256"
        }
      ],
      "name": "DepositFeeUpdated",
      "type": "event"
    },
    {
      "anonymous": false,
      "inputs": [
        {
          "indexed": true,
          "internalType": "address",
          "name": "depositToken",
          "type": "address"
        }
      ],
      "name": "DepositTokenAdded",
      "type": "event"
    },
    {
      "anonymous": false,
      "inputs": [
        {
          "indexed": true,
          "internalType": "contract IDepositToken",
          "name": "depositToken",
          "type": "address"
        }
      ],
      "name": "DepositTokenRemoved",
      "type": "event"
    },
    {
      "anonymous": false,
      "inputs": [
        {
          "indexed": false,
          "internalType": "uint256",
          "name": "oldIssueFee",
          "type": "uint256"
        },
        {
          "indexed": false,
          "internalType": "uint256",
          "name": "newIssueFee",
          "type": "uint256"
        }
      ],
      "name": "IssueFeeUpdated",
      "type": "event"
    },
    {
      "anonymous": false,
      "inputs": [
        {
          "indexed": false,
          "internalType": "uint256",
          "name": "oldLiquidatorLiquidationFee",
          "type": "uint256"
        },
        {
          "indexed": false,
          "internalType": "uint256",
          "name": "newLiquidatorLiquidationFee",
          "type": "uint256"
        }
      ],
      "name": "LiquidatorLiquidationFeeUpdated",
      "type": "event"
    },
    {
      "anonymous": false,
      "inputs": [
        {
          "indexed": false,
          "internalType": "uint256",
          "name": "oldMaxLiquidable",
          "type": "uint256"
        },
        {
          "indexed": false,
          "internalType": "uint256",
          "name": "newMaxLiquidable",
          "type": "uint256"
        }
      ],
      "name": "MaxLiquidableUpdated",
      "type": "event"
    },
    {
      "anonymous": false,
      "inputs": [
        {
          "indexed": false,
          "internalType": "address",
          "name": "caller",
          "type": "address"
        }
      ],
      "name": "Open",
      "type": "event"
    },
    {
      "anonymous": false,
      "inputs": [
        {
          "indexed": false,
          "internalType": "address",
          "name": "caller",
          "type": "address"
        }
      ],
      "name": "Paused",
      "type": "event"
    },
    {
      "anonymous": false,
      "inputs": [
        {
          "indexed": true,
          "internalType": "address",
          "name": "liquidator",
          "type": "address"
        },
        {
          "indexed": true,
          "internalType": "address",
          "name": "account",
          "type": "address"
        },
        {
          "indexed": true,
          "internalType": "contract ISyntheticToken",
          "name": "syntheticToken",
          "type": "address"
        },
        {
          "indexed": false,
          "internalType": "uint256",
          "name": "amountRepaid",
          "type": "uint256"
        },
        {
          "indexed": false,
          "internalType": "uint256",
          "name": "depositSeized",
          "type": "uint256"
        },
        {
          "indexed": false,
          "internalType": "uint256",
          "name": "fee",
          "type": "uint256"
        }
      ],
      "name": "PositionLiquidated",
      "type": "event"
    },
    {
      "anonymous": false,
      "inputs": [
        {
          "indexed": false,
          "internalType": "uint256",
          "name": "oldProtocolLiquidationFee",
          "type": "uint256"
        },
        {
          "indexed": false,
          "internalType": "uint256",
          "name": "newProtocolLiquidationFee",
          "type": "uint256"
        }
      ],
      "name": "ProtocolLiquidationFeeUpdated",
      "type": "event"
    },
    {
      "anonymous": false,
      "inputs": [
        {
          "indexed": false,
          "internalType": "uint256",
          "name": "oldRepayFee",
          "type": "uint256"
        },
        {
          "indexed": false,
          "internalType": "uint256",
          "name": "newRepayFee",
          "type": "uint256"
        }
      ],
      "name": "RepayFeeUpdated",
      "type": "event"
    },
    {
      "anonymous": false,
      "inputs": [
        {
          "indexed": false,
          "internalType": "contract IRewardsDistributor",
          "name": "_distributor",
          "type": "address"
        }
      ],
      "name": "RewardsDistributorAdded",
      "type": "event"
    },
    {
      "anonymous": false,
      "inputs": [
        {
          "indexed": false,
          "internalType": "address",
          "name": "caller",
          "type": "address"
        }
      ],
      "name": "Shutdown",
      "type": "event"
    },
    {
      "anonymous": false,
      "inputs": [
        {
          "indexed": false,
          "internalType": "bool",
          "name": "newActive",
          "type": "bool"
        }
      ],
      "name": "SwapActiveUpdated",
      "type": "event"
    },
    {
      "anonymous": false,
      "inputs": [
        {
          "indexed": false,
          "internalType": "uint256",
          "name": "oldSwapFee",
          "type": "uint256"
        },
        {
          "indexed": false,
          "internalType": "uint256",
          "name": "newSwapFee",
          "type": "uint256"
        }
      ],
      "name": "SwapFeeUpdated",
      "type": "event"
    },
    {
      "anonymous": false,
      "inputs": [
        {
          "indexed": true,
          "internalType": "address",
          "name": "account",
          "type": "address"
        },
        {
          "indexed": true,
          "internalType": "contract ISyntheticToken",
          "name": "syntheticTokenIn",
          "type": "address"
        },
        {
          "indexed": true,
          "internalType": "contract ISyntheticToken",
          "name": "syntheticTokenOut",
          "type": "address"
        },
        {
          "indexed": false,
          "internalType": "uint256",
          "name": "amountIn",
          "type": "uint256"
        },
        {
          "indexed": false,
          "internalType": "uint256",
          "name": "amountOut",
          "type": "uint256"
        },
        {
          "indexed": false,
          "internalType": "uint256",
          "name": "fee",
          "type": "uint256"
        }
      ],
      "name": "SyntheticTokenSwapped",
      "type": "event"
    },
    {
      "anonymous": false,
      "inputs": [
        {
          "indexed": true,
          "internalType": "contract ITreasury",
          "name": "oldTreasury",
          "type": "address"
        },
        {
          "indexed": true,
          "internalType": "contract ITreasury",
          "name": "newTreasury",
          "type": "address"
        }
      ],
      "name": "TreasuryUpdated",
      "type": "event"
    },
    {
      "anonymous": false,
      "inputs": [
        {
          "indexed": false,
          "internalType": "address",
          "name": "caller",
          "type": "address"
        }
      ],
      "name": "Unpaused",
      "type": "event"
    },
    {
      "anonymous": false,
      "inputs": [
        {
          "indexed": true,
          "internalType": "address",
          "name": "previousGovernor",
          "type": "address"
        },
        {
          "indexed": true,
          "internalType": "address",
          "name": "proposedGovernor",
          "type": "address"
        }
      ],
      "name": "UpdatedGovernor",
      "type": "event"
    },
    {
      "anonymous": false,
      "inputs": [
        {
          "indexed": false,
          "internalType": "uint256",
          "name": "oldWithdrawFee",
          "type": "uint256"
        },
        {
          "indexed": false,
          "internalType": "uint256",
          "name": "newWithdrawFee",
          "type": "uint256"
        }
      ],
      "name": "WithdrawFeeUpdated",
      "type": "event"
    },
    {
      "stateMutability": "payable",
      "type": "fallback"
    },
    {
      "inputs": [],
      "name": "VERSION",
      "outputs": [
        {
          "internalType": "string",
          "name": "",
          "type": "string"
        }
      ],
      "stateMutability": "view",
      "type": "function"
    },
    {
      "inputs": [],
      "name": "acceptGovernorship",
      "outputs": [],
      "stateMutability": "nonpayable",
      "type": "function"
    },
    {
      "inputs": [
        {
          "internalType": "contract IDebtToken",
          "name": "debtToken_",
          "type": "address"
        }
      ],
      "name": "addDebtToken",
      "outputs": [],
      "stateMutability": "nonpayable",
      "type": "function"
    },
    {
      "inputs": [
        {
          "internalType": "address",
          "name": "depositToken_",
          "type": "address"
        }
      ],
      "name": "addDepositToken",
      "outputs": [],
      "stateMutability": "nonpayable",
      "type": "function"
    },
    {
      "inputs": [
        {
          "internalType": "contract IRewardsDistributor",
          "name": "distributor_",
          "type": "address"
        }
      ],
      "name": "addRewardsDistributor",
      "outputs": [],
      "stateMutability": "nonpayable",
      "type": "function"
    },
    {
      "inputs": [
        {
          "internalType": "address",
          "name": "account_",
          "type": "address"
        }
      ],
      "name": "addToDebtTokensOfAccount",
      "outputs": [],
      "stateMutability": "nonpayable",
      "type": "function"
    },
    {
      "inputs": [
        {
          "internalType": "address",
          "name": "account_",
          "type": "address"
        }
      ],
      "name": "addToDepositTokensOfAccount",
      "outputs": [],
      "stateMutability": "nonpayable",
      "type": "function"
    },
    {
      "inputs": [],
      "name": "debtFloorInUsd",
      "outputs": [
        {
          "internalType": "uint256",
          "name": "",
          "type": "uint256"
        }
      ],
      "stateMutability": "view",
      "type": "function"
    },
    {
      "inputs": [
        {
          "internalType": "address",
          "name": "account_",
          "type": "address"
        }
      ],
      "name": "debtOf",
      "outputs": [
        {
          "internalType": "uint256",
          "name": "_debtInUsd",
          "type": "uint256"
        }
      ],
      "stateMutability": "view",
      "type": "function"
    },
    {
      "inputs": [
        {
          "internalType": "address",
          "name": "account_",
          "type": "address"
        }
      ],
      "name": "debtPositionOf",
      "outputs": [
        {
          "internalType": "bool",
          "name": "_isHealthy",
          "type": "bool"
        },
        {
          "internalType": "uint256",
          "name": "_depositInUsd",
          "type": "uint256"
        },
        {
          "internalType": "uint256",
          "name": "_debtInUsd",
          "type": "uint256"
        },
        {
          "internalType": "uint256",
          "name": "_issuableLimitInUsd",
          "type": "uint256"
        },
        {
          "internalType": "uint256",
          "name": "_issuableInUsd",
          "type": "uint256"
        }
      ],
      "stateMutability": "view",
      "type": "function"
    },
    {
      "inputs": [
        {
          "internalType": "contract ISyntheticToken",
          "name": "",
          "type": "address"
        }
      ],
      "name": "debtTokenOf",
      "outputs": [
        {
          "internalType": "contract IDebtToken",
          "name": "",
          "type": "address"
        }
      ],
      "stateMutability": "view",
      "type": "function"
    },
    {
      "inputs": [],
      "name": "depositFee",
      "outputs": [
        {
          "internalType": "uint256",
          "name": "",
          "type": "uint256"
        }
      ],
      "stateMutability": "view",
      "type": "function"
    },
    {
      "inputs": [
        {
          "internalType": "address",
          "name": "account_",
          "type": "address"
        }
      ],
      "name": "depositOf",
      "outputs": [
        {
          "internalType": "uint256",
          "name": "_depositInUsd",
          "type": "uint256"
        },
        {
          "internalType": "uint256",
          "name": "_issuableLimitInUsd",
          "type": "uint256"
        }
      ],
      "stateMutability": "view",
      "type": "function"
    },
    {
      "inputs": [
        {
          "internalType": "contract IERC20",
          "name": "",
          "type": "address"
        }
      ],
      "name": "depositTokenOf",
      "outputs": [
        {
          "internalType": "contract IDepositToken",
          "name": "",
          "type": "address"
        }
      ],
      "stateMutability": "view",
      "type": "function"
    },
    {
      "inputs": [],
      "name": "everythingStopped",
      "outputs": [
        {
          "internalType": "bool",
          "name": "",
          "type": "bool"
        }
      ],
      "stateMutability": "view",
      "type": "function"
    },
    {
      "inputs": [],
      "name": "feeCollector",
      "outputs": [
        {
          "internalType": "address",
          "name": "",
          "type": "address"
        }
      ],
      "stateMutability": "view",
      "type": "function"
    },
    {
      "inputs": [],
      "name": "getDebtTokens",
      "outputs": [
        {
          "internalType": "address[]",
          "name": "",
          "type": "address[]"
        }
      ],
      "stateMutability": "view",
      "type": "function"
    },
    {
      "inputs": [
        {
          "internalType": "address",
          "name": "account_",
          "type": "address"
        }
      ],
      "name": "getDebtTokensOfAccount",
      "outputs": [
        {
          "internalType": "address[]",
          "name": "",
          "type": "address[]"
        }
      ],
      "stateMutability": "view",
      "type": "function"
    },
    {
      "inputs": [],
      "name": "getDepositTokens",
      "outputs": [
        {
          "internalType": "address[]",
          "name": "",
          "type": "address[]"
        }
      ],
      "stateMutability": "view",
      "type": "function"
    },
    {
      "inputs": [
        {
          "internalType": "address",
          "name": "account_",
          "type": "address"
        }
      ],
      "name": "getDepositTokensOfAccount",
      "outputs": [
        {
          "internalType": "address[]",
          "name": "",
          "type": "address[]"
        }
      ],
      "stateMutability": "view",
      "type": "function"
    },
    {
      "inputs": [],
      "name": "getRewardsDistributors",
      "outputs": [
        {
          "internalType": "contract IRewardsDistributor[]",
          "name": "",
          "type": "address[]"
        }
      ],
      "stateMutability": "view",
      "type": "function"
    },
    {
      "inputs": [],
      "name": "governor",
      "outputs": [
        {
          "internalType": "address",
          "name": "",
          "type": "address"
        }
      ],
      "stateMutability": "view",
      "type": "function"
    },
    {
      "inputs": [
        {
          "internalType": "contract IPoolRegistry",
          "name": "poolRegistry_",
          "type": "address"
        }
      ],
      "name": "initialize",
      "outputs": [],
      "stateMutability": "nonpayable",
      "type": "function"
    },
    {
      "inputs": [
        {
          "internalType": "contract IDebtToken",
          "name": "debtToken_",
          "type": "address"
        }
      ],
      "name": "isDebtTokenExists",
      "outputs": [
        {
          "internalType": "bool",
          "name": "",
          "type": "bool"
        }
      ],
      "stateMutability": "view",
      "type": "function"
    },
    {
      "inputs": [
        {
          "internalType": "contract IDepositToken",
          "name": "depositToken_",
          "type": "address"
        }
      ],
      "name": "isDepositTokenExists",
      "outputs": [
        {
          "internalType": "bool",
          "name": "",
          "type": "bool"
        }
      ],
      "stateMutability": "view",
      "type": "function"
    },
    {
      "inputs": [],
      "name": "isSwapActive",
      "outputs": [
        {
          "internalType": "bool",
          "name": "",
          "type": "bool"
        }
      ],
      "stateMutability": "view",
      "type": "function"
    },
    {
      "inputs": [
        {
          "internalType": "contract ISyntheticToken",
          "name": "syntheticToken_",
          "type": "address"
        }
      ],
      "name": "isSyntheticTokenExists",
      "outputs": [
        {
          "internalType": "bool",
          "name": "",
          "type": "bool"
        }
      ],
      "stateMutability": "view",
      "type": "function"
    },
    {
      "inputs": [],
      "name": "issueFee",
      "outputs": [
        {
          "internalType": "uint256",
          "name": "",
          "type": "uint256"
        }
      ],
      "stateMutability": "view",
      "type": "function"
    },
    {
      "inputs": [
        {
          "internalType": "contract ISyntheticToken",
          "name": "syntheticToken_",
          "type": "address"
        },
        {
          "internalType": "address",
          "name": "account_",
          "type": "address"
        },
        {
          "internalType": "uint256",
          "name": "amountToRepay_",
          "type": "uint256"
        },
        {
          "internalType": "contract IDepositToken",
          "name": "depositToken_",
          "type": "address"
        }
      ],
      "name": "liquidate",
      "outputs": [],
      "stateMutability": "nonpayable",
      "type": "function"
    },
    {
      "inputs": [],
      "name": "liquidationFees",
      "outputs": [
        {
          "internalType": "uint128",
          "name": "liquidatorFee",
          "type": "uint128"
        },
        {
          "internalType": "uint128",
          "name": "protocolFee",
          "type": "uint128"
        }
      ],
      "stateMutability": "view",
      "type": "function"
    },
    {
      "inputs": [],
      "name": "masterOracle",
      "outputs": [
        {
          "internalType": "contract IMasterOracle",
          "name": "",
          "type": "address"
        }
      ],
      "stateMutability": "view",
      "type": "function"
    },
    {
      "inputs": [],
      "name": "maxLiquidable",
      "outputs": [
        {
          "internalType": "uint256",
          "name": "",
          "type": "uint256"
        }
      ],
      "stateMutability": "view",
      "type": "function"
    },
    {
      "inputs": [],
      "name": "open",
      "outputs": [],
      "stateMutability": "nonpayable",
      "type": "function"
    },
    {
      "inputs": [],
      "name": "pause",
      "outputs": [],
      "stateMutability": "nonpayable",
      "type": "function"
    },
    {
      "inputs": [],
      "name": "paused",
      "outputs": [
        {
          "internalType": "bool",
          "name": "",
          "type": "bool"
        }
      ],
      "stateMutability": "view",
      "type": "function"
    },
    {
      "inputs": [],
      "name": "poolRegistry",
      "outputs": [
        {
          "internalType": "contract IPoolRegistry",
          "name": "",
          "type": "address"
        }
      ],
      "stateMutability": "view",
      "type": "function"
    },
    {
      "inputs": [],
      "name": "proposedGovernor",
      "outputs": [
        {
          "internalType": "address",
          "name": "",
          "type": "address"
        }
      ],
      "stateMutability": "view",
      "type": "function"
    },
    {
      "inputs": [
        {
          "internalType": "contract IDebtToken",
          "name": "debtToken_",
          "type": "address"
        }
      ],
      "name": "removeDebtToken",
      "outputs": [],
      "stateMutability": "nonpayable",
      "type": "function"
    },
    {
      "inputs": [
        {
          "internalType": "contract IDepositToken",
          "name": "depositToken_",
          "type": "address"
        }
      ],
      "name": "removeDepositToken",
      "outputs": [],
      "stateMutability": "nonpayable",
      "type": "function"
    },
    {
      "inputs": [
        {
          "internalType": "address",
          "name": "account_",
          "type": "address"
        }
      ],
      "name": "removeFromDebtTokensOfAccount",
      "outputs": [],
      "stateMutability": "nonpayable",
      "type": "function"
    },
    {
      "inputs": [
        {
          "internalType": "address",
          "name": "account_",
          "type": "address"
        }
      ],
      "name": "removeFromDepositTokensOfAccount",
      "outputs": [],
      "stateMutability": "nonpayable",
      "type": "function"
    },
    {
      "inputs": [],
      "name": "repayFee",
      "outputs": [
        {
          "internalType": "uint256",
          "name": "",
          "type": "uint256"
        }
      ],
      "stateMutability": "view",
      "type": "function"
    },
    {
      "inputs": [],
      "name": "shutdown",
      "outputs": [],
      "stateMutability": "nonpayable",
      "type": "function"
    },
    {
      "inputs": [
        {
          "internalType": "contract ISyntheticToken",
          "name": "syntheticTokenIn_",
          "type": "address"
        },
        {
          "internalType": "contract ISyntheticToken",
          "name": "syntheticTokenOut_",
          "type": "address"
        },
        {
          "internalType": "uint256",
          "name": "amountIn_",
          "type": "uint256"
        }
      ],
      "name": "swap",
      "outputs": [
        {
          "internalType": "uint256",
          "name": "_amountOut",
          "type": "uint256"
        }
      ],
      "stateMutability": "nonpayable",
      "type": "function"
    },
    {
      "inputs": [],
      "name": "swapFee",
      "outputs": [
        {
          "internalType": "uint256",
          "name": "",
          "type": "uint256"
        }
      ],
      "stateMutability": "view",
      "type": "function"
    },
    {
      "inputs": [
        {
          "internalType": "contract IERC20",
          "name": "token_",
          "type": "address"
        },
        {
          "internalType": "address",
          "name": "to_",
          "type": "address"
        },
        {
          "internalType": "uint256",
          "name": "amount_",
          "type": "uint256"
        }
      ],
      "name": "sweep",
      "outputs": [],
      "stateMutability": "nonpayable",
      "type": "function"
    },
    {
      "inputs": [],
      "name": "toggleIsSwapActive",
      "outputs": [],
      "stateMutability": "nonpayable",
      "type": "function"
    },
    {
      "inputs": [
        {
          "internalType": "address",
          "name": "proposedGovernor_",
          "type": "address"
        }
      ],
      "name": "transferGovernorship",
      "outputs": [],
      "stateMutability": "nonpayable",
      "type": "function"
    },
    {
      "inputs": [],
      "name": "treasury",
      "outputs": [
        {
          "internalType": "contract ITreasury",
          "name": "",
          "type": "address"
        }
      ],
      "stateMutability": "view",
      "type": "function"
    },
    {
      "inputs": [],
      "name": "unpause",
      "outputs": [],
      "stateMutability": "nonpayable",
      "type": "function"
    },
    {
      "inputs": [
        {
          "internalType": "uint256",
          "name": "newDebtFloorInUsd_",
          "type": "uint256"
        }
      ],
      "name": "updateDebtFloor",
      "outputs": [],
      "stateMutability": "nonpayable",
      "type": "function"
    },
    {
      "inputs": [
        {
          "internalType": "uint256",
          "name": "newDepositFee_",
          "type": "uint256"
        }
      ],
      "name": "updateDepositFee",
      "outputs": [],
      "stateMutability": "nonpayable",
      "type": "function"
    },
    {
      "inputs": [
        {
          "internalType": "uint256",
          "name": "newIssueFee_",
          "type": "uint256"
        }
      ],
      "name": "updateIssueFee",
      "outputs": [],
      "stateMutability": "nonpayable",
      "type": "function"
    },
    {
      "inputs": [
        {
          "internalType": "uint128",
          "name": "newLiquidatorLiquidationFee_",
          "type": "uint128"
        }
      ],
      "name": "updateLiquidatorLiquidationFee",
      "outputs": [],
      "stateMutability": "nonpayable",
      "type": "function"
    },
    {
      "inputs": [
        {
          "internalType": "uint256",
          "name": "newMaxLiquidable_",
          "type": "uint256"
        }
      ],
      "name": "updateMaxLiquidable",
      "outputs": [],
      "stateMutability": "nonpayable",
      "type": "function"
    },
    {
      "inputs": [
        {
          "internalType": "uint128",
          "name": "newProtocolLiquidationFee_",
          "type": "uint128"
        }
      ],
      "name": "updateProtocolLiquidationFee",
      "outputs": [],
      "stateMutability": "nonpayable",
      "type": "function"
    },
    {
      "inputs": [
        {
          "internalType": "uint256",
          "name": "newRepayFee_",
          "type": "uint256"
        }
      ],
      "name": "updateRepayFee",
      "outputs": [],
      "stateMutability": "nonpayable",
      "type": "function"
    },
    {
      "inputs": [
        {
          "internalType": "uint256",
          "name": "newSwapFee_",
          "type": "uint256"
        }
      ],
      "name": "updateSwapFee",
      "outputs": [],
      "stateMutability": "nonpayable",
      "type": "function"
    },
    {
      "inputs": [
        {
          "internalType": "contract ITreasury",
          "name": "newTreasury_",
          "type": "address"
        }
      ],
      "name": "updateTreasury",
      "outputs": [],
      "stateMutability": "nonpayable",
      "type": "function"
    },
    {
      "inputs": [
        {
          "internalType": "uint256",
          "name": "newWithdrawFee_",
          "type": "uint256"
        }
      ],
      "name": "updateWithdrawFee",
      "outputs": [],
      "stateMutability": "nonpayable",
      "type": "function"
    },
    {
      "inputs": [],
      "name": "withdrawFee",
      "outputs": [
        {
          "internalType": "uint256",
          "name": "",
          "type": "uint256"
        }
      ],
      "stateMutability": "view",
      "type": "function"
    },
    {
      "stateMutability": "payable",
      "type": "receive"
    }
  ],
  "transactionHash": "0x59c1161251d728a2cd9a3f5c36041059b3be9ec0bf211cf5fa24c27dd53ce1bc",
  "args": [],
  "numDeployments": 1,
  "solcInputHash": "8f9ac8ece838b75cf20cef638b1903fd",
  "bytecode": "0x608060405234801561001057600080fd5b50600280546001600160a01b031916339081179091556040516000907fd4459d5b8b913cab0244230fd9b1c08b6ceace7fe9230e60d0f74cbffdf849d0908290a3614aba806100606000396000f3fe6080604052600436106103a65760003560e01c80638456cb59116101e7578063daf635de1161010d578063f0c80d3b116100a0578063fb01600d1161006f578063fb01600d14610b95578063fc0e74d114610baa578063fcfff16f14610bbf578063ffa1ad7414610bd4576103ee565b8063f0c80d3b14610b2a578063f20475b714610b4a578063f3b27bc314610b6a578063f609280914610b7f576103ee565b8063e35bff96116100dc578063e35bff9614610ac9578063e941fa7814610aea578063eaada38214610b00578063ecf3a3f914610b15576103ee565b8063daf635de14610a1f578063dbe466b114610a3f578063dde3ab9514610a5f578063df791e5014610aa9576103ee565b8063b6aa515b11610185578063c4d68a1a11610154578063c4d68a1a14610974578063cfc0c69f14610994578063d176e05f146109df578063d283e75f146109ff576103ee565b8063b6aa515b146108ff578063bf16f65a1461091f578063c415b95c1461093f578063c4d66de814610954576103ee565b80638a11a370116101c15780638a11a370146108745780639ab620dd146108945780639f8f0fa8146108a9578063afcff50f146108df576103ee565b80638456cb591461080957806387cddc861461081e57806388156a3514610854576103ee565b806354cf2aeb116102cc57806367a527931161026a57806379e40cba1161023957806379e40cba146107935780637c0f59f4146107b35780637d355163146107c95780637f51bb1f146107e9576103ee565b806367a527931461071d5780636b4f41af1461073357806375c6f8ec14610753578063770b69b414610773576103ee565b80635c975abb116102a65780635c975abb146106a85780635cd24fd2146106bd57806361d027b3146106dd57806362c06767146106fd576103ee565b806354cf2aeb1461065257806356aaee2d1461066857806357f2e58114610688576103ee565b80632dd6adb5116103445780633f4ba83a116103135780633f4ba83a146105cd5780633f5fc131146105e25780634dfb6518146106025780634ff9b74a1461063d576103ee565b80632dd6adb5146105555780633605b51b1461056b5780633af5be471461058d5780633de2f6b2146105ad576103ee565b80631a4660ce116103805780631a4660ce146104bc57806323e3fbd5146104dc578063275038d0146105115780632a9133c114610531576103ee565b8063017def571461042d578063040909761461044f5780630c340a2414610484576103ee565b366103ee5760405162461bcd60e51b81526020600482015260136024820152721c9958d95a5d994b5b9bdd0b585b1b1bddd959606a1b60448201526064015b60405180910390fd5b60405162461bcd60e51b815260206004820152601460248201527319985b1b189858dacb5b9bdd0b585b1b1bddd95960621b60448201526064016103e5565b34801561043957600080fd5b5061044d61044836600461462b565b610c12565b005b34801561045b57600080fd5b5061046f61046a366004614659565b610cc6565b60405190151581526020015b60405180910390f35b34801561049057600080fd5b506002546104a4906001600160a01b031681565b6040516001600160a01b03909116815260200161047b565b3480156104c857600080fd5b5061044d6104d736600461462b565b610cd9565b3480156104e857600080fd5b506104fc6104f7366004614659565b610d65565b6040805192835260208301919091520161047b565b34801561051d57600080fd5b5061044d61052c366004614659565b610fc5565b34801561053d57600080fd5b5061054760065481565b60405190815260200161047b565b34801561056157600080fd5b50610547600b5481565b34801561057757600080fd5b50610580611077565b60405161047b9190614676565b34801561059957600080fd5b5061046f6105a8366004614659565b6110d9565b3480156105b957600080fd5b5061044d6105c83660046146c3565b6110e6565b3480156105d957600080fd5b5061044d6119d6565b3480156105ee57600080fd5b5061044d6105fd366004614659565b611aa9565b34801561060e57600080fd5b5061046f61061d366004614659565b6001600160a01b0390811660009081526016602052604090205416151590565b34801561064957600080fd5b50610580611b4f565b34801561065e57600080fd5b5061054760095481565b34801561067457600080fd5b5061044d610683366004614659565b611b60565b34801561069457600080fd5b5061044d6106a336600461462b565b611cc7565b3480156106b457600080fd5b5061046f611d7b565b3480156106c957600080fd5b5061044d6106d8366004614716565b611e17565b3480156106e957600080fd5b50600d546104a4906001600160a01b031681565b34801561070957600080fd5b5061044d61071836600461473f565b611f0a565b34801561072957600080fd5b5061054760055481565b34801561073f57600080fd5b5061044d61074e366004614659565b611f43565b34801561075f57600080fd5b5061044d61076e366004614659565b612145565b34801561077f57600080fd5b5061044d61078e366004614659565b6121ed565b34801561079f57600080fd5b5061044d6107ae366004614659565b612289565b3480156107bf57600080fd5b5061054760085481565b3480156107d557600080fd5b506105806107e4366004614659565b612450565b3480156107f557600080fd5b5061044d610804366004614659565b61245d565b34801561081557600080fd5b5061044d6125ab565b34801561082a57600080fd5b506104a4610839366004614659565b6010602052600090815260409020546001600160a01b031681565b34801561086057600080fd5b5061044d61086f36600461462b565b612656565b34801561088057600080fd5b506003546104a4906001600160a01b031681565b3480156108a057600080fd5b5061044d61270a565b3480156108b557600080fd5b506104a46108c4366004614659565b6016602052600090815260409020546001600160a01b031681565b3480156108eb57600080fd5b50600c546104a4906001600160a01b031681565b34801561090b57600080fd5b5061044d61091a366004614659565b612795565b34801561092b57600080fd5b5061044d61093a36600461462b565b612837565b34801561094b57600080fd5b506104a46128eb565b34801561096057600080fd5b5061044d61096f366004614659565b612968565b34801561098057600080fd5b5061044d61098f366004614659565b612ab6565b3480156109a057600080fd5b50600a546109bf906001600160801b0380821691600160801b90041682565b604080516001600160801b0393841681529290911660208301520161047b565b3480156109eb57600080fd5b506105806109fa366004614659565b612ca6565b348015610a0b57600080fd5b50610547610a1a366004614659565b612cb3565b348015610a2b57600080fd5b5061044d610a3a36600461462b565b612e85565b348015610a4b57600080fd5b5061044d610a5a366004614659565b612f39565b348015610a6b57600080fd5b50610a7f610a7a366004614659565b613135565b6040805195151586526020860194909452928401919091526060830152608082015260a00161047b565b348015610ab557600080fd5b50610547610ac436600461473f565b61317f565b348015610ad557600080fd5b50600c5461046f90600160a01b900460ff1681565b348015610af657600080fd5b5061054760075481565b348015610b0c57600080fd5b506104a4613715565b348015610b2157600080fd5b5061046f61375a565b348015610b3657600080fd5b5061044d610b4536600461462b565b6137be565b348015610b5657600080fd5b5061044d610b65366004614716565b613872565b348015610b7657600080fd5b5061044d61396a565b348015610b8b57600080fd5b5061054760045481565b348015610ba157600080fd5b50610580613a28565b348015610bb657600080fd5b5061044d613a34565b348015610bcb57600080fd5b5061044d613ac8565b348015610be057600080fd5b50610c05604051806040016040528060058152602001640312e302e360dc1b81525081565b60405161047b91906147b0565b6002546001600160a01b03163314610c3c5760405162461bcd60e51b81526004016103e5906147e3565b670de0b6b3a7640000811115610c645760405162461bcd60e51b81526004016103e590614809565b60055481811415610c875760405162461bcd60e51b81526004016103e59061482e565b60408051828152602081018490527f828cf983933545af35b9ba46eec951db1cb4c5433c3ec403aeced2963c264790910160405180910390a150600555565b6000610cd3601183613b72565b92915050565b6002546001600160a01b03163314610d035760405162461bcd60e51b81526004016103e5906147e3565b60045481811415610d265760405162461bcd60e51b81526004016103e59061482e565b60408051828152602081018490527f0662703672e57800b9439de3a419c9155283ad25ea7776c139c876bd8b93bb98910160405180910390a150600455565b6000806000610d72613715565b90506000610d81601386613b97565b905060005b81811015610fbd576000610d9c60138884613bb5565b90506000846001600160a01b0316638d0dba00836001600160a01b0316636f307dc36040518163ffffffff1660e01b815260040160206040518083038186803b158015610de857600080fd5b505afa158015610dfc573d6000803e3d6000fd5b505050506040513d601f19601f82011682018060405250810190610e20919061485b565b6040516370a0823160e01b81526001600160a01b038c811660048301528616906370a082319060240160206040518083038186803b158015610e6157600080fd5b505afa158015610e75573d6000803e3d6000fd5b505050506040513d601f19601f82011682018060405250810190610e999190614878565b6040516001600160e01b031960e085901b1681526001600160a01b039092166004830152602482015260440160206040518083038186803b158015610edd57600080fd5b505afa158015610ef1573d6000803e3d6000fd5b505050506040513d601f19601f82011682018060405250810190610f159190614878565b9050610f2181886148a7565b9650610f9e826001600160a01b031663dcaf9c446040518163ffffffff1660e01b815260040160206040518083038186803b158015610f5f57600080fd5b505afa158015610f73573d6000803e3d6000fd5b505050506040513d601f19601f82011682018060405250810190610f979190614878565b8290613bca565b610fa890876148a7565b9550505080610fb6906148bf565b9050610d86565b505050915091565b610fd0600e33613b72565b61101c5760405162461bcd60e51b815260206004820152601b60248201527f63616c6c65722d69732d6e6f742d6465706f7369742d746f6b656e000000000060448201526064016103e5565b61102860138233613c16565b6110745760405162461bcd60e51b815260206004820152601a60248201527f6465706f7369742d746f6b656e2d646f65736e742d657869737400000000000060448201526064016103e5565b50565b606060158054806020026020016040519081016040528092919081815260200182805480156110cf57602002820191906000526020600020905b81546001600160a01b031681526001909101906020018083116110b1575b5050505050905090565b6000610cd3600e83613b72565b6110ee61375a565b1561110b5760405162461bcd60e51b81526004016103e5906148da565b6002600154141561115e5760405162461bcd60e51b815260206004820152601f60248201527f5265656e7472616e637947756172643a207265656e7472616e742063616c6c0060448201526064016103e5565b60026001558061116d816110d9565b6111b15760405162461bcd60e51b815260206004820152601560248201527418dbdb1b185d195c985b0b5a5b995e1a5cdd195b9d605a1b60448201526064016103e5565b600083116111f25760405162461bcd60e51b815260206004820152600e60248201526d616d6f756e742d69732d7a65726f60901b60448201526064016103e5565b336001600160a01b038516141561124b5760405162461bcd60e51b815260206004820152601e60248201527f63616e2d6e6f742d6c69717569646174652d6f776e2d706f736974696f6e000060448201526064016103e5565b6001600160a01b0380861660009081526016602052604080822054815163a6afed9560e01b81529151931692839263a6afed95926004808201939182900301818387803b15801561129b57600080fd5b505af11580156112af573d6000803e3d6000fd5b5050505060006112be86613135565b50505050905080156113085760405162461bcd60e51b8152602060048201526013602482015272706f736974696f6e2d69732d6865616c74687960681b60448201526064016103e5565b6040516370a0823160e01b81526001600160a01b038781166004830152600091908416906370a082319060240160206040518083038186803b15801561134d57600080fd5b505afa158015611361573d6000803e3d6000fd5b505050506040513d601f19601f820116820180604052508101906113859190614878565b600b549091506113958783613c23565b11156113e35760405162461bcd60e51b815260206004820152601860248201527f616d6f756e742d67742d6d61782d6c697175696461626c65000000000000000060448201526064016103e5565b60006113ed613715565b600454909150156114ef5760006001600160a01b038216638d0dba008b6114148b876148fc565b6040516001600160e01b031960e085901b1681526001600160a01b039092166004830152602482015260440160206040518083038186803b15801561145857600080fd5b505afa15801561146c573d6000803e3d6000fd5b505050506040513d601f19601f820116820180604052508101906114909190614878565b90508015806114a157506004548110155b6114ed5760405162461bcd60e51b815260206004820152601760248201527f72656d61696e696e672d646562742d6c742d666c6f6f7200000000000000000060448201526064016103e5565b505b6000816001600160a01b031663b64663848b896001600160a01b0316636f307dc36040518163ffffffff1660e01b815260040160206040518083038186803b15801561153a57600080fd5b505afa15801561154e573d6000803e3d6000fd5b505050506040513d601f19601f82011682018060405250810190611572919061485b565b8b6040518463ffffffff1660e01b815260040161159193929190614913565b60206040518083038186803b1580156115a957600080fd5b505afa1580156115bd573d6000803e3d6000fd5b505050506040513d601f19601f820116820180604052508101906115e19190614878565b60408051808201909152600a546001600160801b038082168352600160801b90910416602082018190529192509060009061161d576000611636565b60208201516116369084906001600160801b0316613bca565b905060006116658360000151670de0b6b3a76400006116559190614937565b85906001600160801b0316613bca565b9050600061167382846148a7565b6040516370a0823160e01b81526001600160a01b038f81166004830152919250908c16906370a082319060240160206040518083038186803b1580156116b857600080fd5b505afa1580156116cc573d6000803e3d6000fd5b505050506040513d601f19601f820116820180604052508101906116f09190614878565b8111156117315760405162461bcd60e51b815260206004820152600f60248201526e0c2dadeeadce85ae8dede5ad0d2ced608b1b60448201526064016103e5565b604051632770a7eb60e21b8152336004820152602481018d90526001600160a01b038f1690639dc29fac90604401600060405180830381600087803b15801561177957600080fd5b505af115801561178d573d6000803e3d6000fd5b50505050886001600160a01b0316639dc29fac8e8e6040518363ffffffff1660e01b81526004016117d39291906001600160a01b03929092168252602082015260400190565b600060405180830381600087803b1580156117ed57600080fd5b505af1158015611801573d6000803e3d6000fd5b505050508a6001600160a01b031663b2a02ff18e33856040518463ffffffff1660e01b815260040161183593929190614913565b600060405180830381600087803b15801561184f57600080fd5b505af1158015611863573d6000803e3d6000fd5b505050506000831115611958578a6001600160a01b031663b2a02ff18e600c60009054906101000a90046001600160a01b03166001600160a01b031663c415b95c6040518163ffffffff1660e01b815260040160206040518083038186803b1580156118ce57600080fd5b505afa1580156118e2573d6000803e3d6000fd5b505050506040513d601f19601f82011682018060405250810190611906919061485b565b866040518463ffffffff1660e01b815260040161192593929190614913565b600060405180830381600087803b15801561193f57600080fd5b505af1158015611953573d6000803e3d6000fd5b505050505b8d6001600160a01b03168d6001600160a01b0316336001600160a01b03167fe1c3870e3d7d5199a16d200133088e6e3f7012d28571e442a110b4c83b5e3b948f85886040516119ba939291909283526020830191909152604082015260600190565b60405180910390a4505060018055505050505050505050505050565b6119de611d7b565b611a175760405162461bcd60e51b815260206004820152600a6024820152691b9bdd0b5c185d5cd95960b21b60448201526064016103e5565b611a1f61375a565b15611a3c5760405162461bcd60e51b81526004016103e5906148da565b6002546001600160a01b03163314611a665760405162461bcd60e51b81526004016103e5906147e3565b6003805460ff60a01b191690556040513381527f5db9ee0a495bf2e6ff9c91a7834c1ba4fdd244a5e8aa4e537bd38aeae4b073aa906020015b60405180910390a1565b611ab4600e33613b72565b611b005760405162461bcd60e51b815260206004820152601b60248201527f63616c6c65722d69732d6e6f742d6465706f7369742d746f6b656e000000000060448201526064016103e5565b611b0c60138233613c43565b6110745760405162461bcd60e51b81526020600482015260146024820152736465706f7369742d746f6b656e2d65786973747360601b60448201526064016103e5565b6060611b5b6011613c50565b905090565b6002546001600160a01b03163314611b8a5760405162461bcd60e51b81526004016103e5906147e3565b6001600160a01b038116611bb05760405162461bcd60e51b81526004016103e590614962565b60155460005b81811015611c415760158181548110611bd157611bd161498b565b6000918252602090912001546001600160a01b0384811691161415611c315760405162461bcd60e51b815260206004820152601660248201527518dbdb9d1c9858dd0b585b1c9958591e4b585919195960521b60448201526064016103e5565b611c3a816148bf565b9050611bb6565b50601580546001810182556000919091527f55f448fdea98c4d29eb340757ef0a66cd03dbb9538908a6a81d96026b71ec4750180546001600160a01b0319166001600160a01b0384169081179091556040519081527f5579b1eead2d904c2b05255a92f5a4a4f3e234ae0a4efe538adef3c1794e1cea9060200160405180910390a15050565b6002546001600160a01b03163314611cf15760405162461bcd60e51b81526004016103e5906147e3565b670de0b6b3a7640000811115611d195760405162461bcd60e51b81526004016103e590614809565b60065481811415611d3c5760405162461bcd60e51b81526004016103e59061482e565b60408051828152602081018490527f7aef17a0caeda11810cdf2a40c79ac1340553588671fb35d5cc8d0a3fe2883be910160405180910390a150600655565b600354600090600160a01b900460ff1680611b5b5750600c60009054906101000a90046001600160a01b03166001600160a01b0316635c975abb6040518163ffffffff1660e01b815260040160206040518083038186803b158015611ddf57600080fd5b505afa158015611df3573d6000803e3d6000fd5b505050506040513d601f19601f82011682018060405250810190611b5b91906149a1565b6002546001600160a01b03163314611e415760405162461bcd60e51b81526004016103e5906147e3565b670de0b6b3a7640000816001600160801b03161115611e725760405162461bcd60e51b81526004016103e590614809565b600a546001600160801b03600160801b9091048116908216811415611ea95760405162461bcd60e51b81526004016103e59061482e565b604080518281526001600160801b03841660208201527fe0dac1dcc46eceed1fdb7416944e7161273637fb346a67d6f0fce8de3e952f2f910160405180910390a150600a80546001600160801b03928316600160801b029216919091179055565b611f12613c5d565b6001600160a01b038316611f2f57611f2a8282613c89565b505050565b611f2a6001600160a01b0384168383613da2565b6002546001600160a01b03163314611f6d5760405162461bcd60e51b81526004016103e5906147e3565b6001600160a01b038116611f935760405162461bcd60e51b81526004016103e590614962565b6000816001600160a01b0316638230ecd66040518163ffffffff1660e01b815260040160206040518083038186803b158015611fce57600080fd5b505afa158015611fe2573d6000803e3d6000fd5b505050506040513d601f19601f82011682018060405250810190612006919061485b565b90506001600160a01b0381166120525760405162461bcd60e51b81526020600482015260116024820152701cde5b9d1a195d1a58cb5a5ccb5b9d5b1b607a1b60448201526064016103e5565b6001600160a01b0381811660009081526016602052604090205416156120a95760405162461bcd60e51b815260206004820152600c60248201526b73796e74682d696e2d75736560a01b60448201526064016103e5565b6120b4601183613df4565b6120ee5760405162461bcd60e51b815260206004820152600b60248201526a646562742d65786973747360a81b60448201526064016103e5565b6001600160a01b0381811660009081526016602052604080822080546001600160a01b0319169386169384179055517fad48bee6bbb1b8ece321157ad29afc3c6baa177f8dc043132d65038cc601cdd69190a25050565b61214e33610cc6565b6121955760405162461bcd60e51b815260206004820152601860248201527731b0b63632b916b4b996b737ba16b232b13a16ba37b5b2b760411b60448201526064016103e5565b6121a160148233613c16565b6110745760405162461bcd60e51b815260206004820152601760248201527f646562742d746f6b656e2d646f65736e742d657869737400000000000000000060448201526064016103e5565b6121f633610cc6565b61223d5760405162461bcd60e51b815260206004820152601860248201527731b0b63632b916b4b996b737ba16b232b13a16ba37b5b2b760411b60448201526064016103e5565b61224960148233613c43565b6110745760405162461bcd60e51b8152602060048201526011602482015270646562742d746f6b656e2d65786973747360781b60448201526064016103e5565b6002546001600160a01b031633146122b35760405162461bcd60e51b81526004016103e5906147e3565b6001600160a01b0381166122d95760405162461bcd60e51b81526004016103e590614962565b6000816001600160a01b0316636f307dc36040518163ffffffff1660e01b815260040160206040518083038186803b15801561231457600080fd5b505afa158015612328573d6000803e3d6000fd5b505050506040513d601f19601f8201168201806040525081019061234c919061485b565b6001600160a01b0380821660009081526010602052604090205491925016156123ab5760405162461bcd60e51b8152602060048201526011602482015270756e6465726c79696e672d696e2d75736560781b60448201526064016103e5565b6123b6600e83613df4565b6123f95760405162461bcd60e51b81526020600482015260146024820152736465706f7369742d746f6b656e2d65786973747360601b60448201526064016103e5565b6001600160a01b0381811660009081526010602052604080822080546001600160a01b0319169386169384179055517fdc705e658c7b6c6c01f5802457bf4ffb99f204bf1603e7b1ae3d4c7536611bc29190a25050565b6060610cd3601383613e09565b6002546001600160a01b031633146124875760405162461bcd60e51b81526004016103e5906147e3565b6001600160a01b0381166124ad5760405162461bcd60e51b81526004016103e590614962565b600d546001600160a01b039081169082168114156124dd5760405162461bcd60e51b81526004016103e59061482e565b6001600160a01b03811615612548576040516326ed7c7960e11b81526001600160a01b038381166004830152821690634ddaf8f290602401600060405180830381600087803b15801561252f57600080fd5b505af1158015612543573d6000803e3d6000fd5b505050505b816001600160a01b0316816001600160a01b03167f4ab5be82436d353e61ca18726e984e561f5c1cc7c6d38b29d2553c790434705a60405160405180910390a350600d80546001600160a01b0319166001600160a01b0392909216919091179055565b6125b3611d7b565b156125e95760405162461bcd60e51b81526020600482015260066024820152651c185d5cd95960d21b60448201526064016103e5565b6002546001600160a01b031633146126135760405162461bcd60e51b81526004016103e5906147e3565b6003805460ff60a01b1916600160a01b1790556040513381527f62e78cea01bee320cd4e420270b5ea74000d11b0c9f74754ebdbfc544b05a25890602001611a9f565b6002546001600160a01b031633146126805760405162461bcd60e51b81526004016103e5906147e3565b670de0b6b3a76400008111156126a85760405162461bcd60e51b81526004016103e590614809565b600854818114156126cb5760405162461bcd60e51b81526004016103e59061482e565b60408051828152602081018490527fdd45ca427fa57d0870314eb55586e91bcdd31d7cd393e3278caaae9dfb749688910160405180910390a150600855565b6002546001600160a01b031633146127345760405162461bcd60e51b81526004016103e5906147e3565b600c54604051600160a01b90910460ff1615808252907fc8011ac148e14ab1e8f93a022ebc29088beedc705027c8eb9514d6d69c5b23639060200160405180910390a1600c8054911515600160a01b0260ff60a01b19909216919091179055565b6002546001600160a01b031633146127bf5760405162461bcd60e51b81526004016103e5906147e3565b6001600160a01b0381166128155760405162461bcd60e51b815260206004820152601960248201527f70726f706f7365642d676f7665726e6f722d69732d7a65726f0000000000000060448201526064016103e5565b600380546001600160a01b0319166001600160a01b0392909216919091179055565b6002546001600160a01b031633146128615760405162461bcd60e51b81526004016103e5906147e3565b670de0b6b3a76400008111156128895760405162461bcd60e51b81526004016103e590614809565b600954818114156128ac5760405162461bcd60e51b81526004016103e59061482e565b60408051828152602081018490527fc8273cce54f5cf71712dee009c7e6438ae7e1db578da0ec076cf360af45501b9910160405180910390a150600955565b600c54604080516331056e5760e21b815290516000926001600160a01b03169163c415b95c916004808301926020929190829003018186803b15801561293057600080fd5b505afa158015612944573d6000803e3d6000fd5b505050506040513d601f19601f82011682018060405250810190611b5b919061485b565b600054610100900460ff1680612981575060005460ff16155b61299d5760405162461bcd60e51b81526004016103e5906149c3565b600054610100900460ff161580156129bf576000805461ffff19166101011790555b6001600160a01b038216612a0d5760405162461bcd60e51b81526020600482015260156024820152741c1bdbdb0b5c9959da5cdd1c9e4b5a5ccb5b9d5b1b605a1b60448201526064016103e5565b612a15613e17565b612a1d613e86565b600c80546001600160a81b0319166001600160a01b03841617600160a01b179055660aa87bee5380006008556040805180820190915267016345785d8a0000815267011c37937e08000060209091015277011c37937e0800000000000000000000016345785d8a0000600a556706f05b59d3b20000600b55661550f7dca700006009558015612ab2576000805461ff00191690555b5050565b6002546001600160a01b03163314612ae05760405162461bcd60e51b81526004016103e5906147e3565b806001600160a01b03166318160ddd6040518163ffffffff1660e01b815260040160206040518083038186803b158015612b1957600080fd5b505afa158015612b2d573d6000803e3d6000fd5b505050506040513d601f19601f82011682018060405250810190612b519190614878565b15612b8c5760405162461bcd60e51b815260206004820152600b60248201526a0737570706c792d67742d360ac1b60448201526064016103e5565b612b97601182613ef9565b612bd75760405162461bcd60e51b81526020600482015260116024820152701919589d0b591bd95cdb9d0b595e1a5cdd607a1b60448201526064016103e5565b60166000826001600160a01b0316638230ecd66040518163ffffffff1660e01b815260040160206040518083038186803b158015612c1457600080fd5b505afa158015612c28573d6000803e3d6000fd5b505050506040513d601f19601f82011682018060405250810190612c4c919061485b565b6001600160a01b03908116825260208201929092526040908101600090812080546001600160a01b03191690559051918316917f81e9205ee5a9e1289fad5baa5e74bd49d4613652eb4626bb15925bf9fdbc0feb9190a250565b6060610cd3601483613e09565b600080612cbe613715565b90506000612ccd601485613b97565b905060005b81811015612e7d576000612ce860148784613bb5565b9050836001600160a01b0316638d0dba00826001600160a01b0316638230ecd66040518163ffffffff1660e01b815260040160206040518083038186803b158015612d3257600080fd5b505afa158015612d46573d6000803e3d6000fd5b505050506040513d601f19601f82011682018060405250810190612d6a919061485b565b6040516370a0823160e01b81526001600160a01b038a811660048301528516906370a082319060240160206040518083038186803b158015612dab57600080fd5b505afa158015612dbf573d6000803e3d6000fd5b505050506040513d601f19601f82011682018060405250810190612de39190614878565b6040516001600160e01b031960e085901b1681526001600160a01b039092166004830152602482015260440160206040518083038186803b158015612e2757600080fd5b505afa158015612e3b573d6000803e3d6000fd5b505050506040513d601f19601f82011682018060405250810190612e5f9190614878565b612e6990866148a7565b94505080612e76906148bf565b9050612cd2565b505050919050565b6002546001600160a01b03163314612eaf5760405162461bcd60e51b81526004016103e5906147e3565b670de0b6b3a7640000811115612ed75760405162461bcd60e51b81526004016103e590614809565b60075481811415612efa5760405162461bcd60e51b81526004016103e59061482e565b60408051828152602081018490527f733071ab8253b372ed26a6d1b04aec71c4bfcd209c93397df32bb77478cdd2c8910160405180910390a150600755565b6002546001600160a01b03163314612f635760405162461bcd60e51b81526004016103e5906147e3565b806001600160a01b03166318160ddd6040518163ffffffff1660e01b815260040160206040518083038186803b158015612f9c57600080fd5b505afa158015612fb0573d6000803e3d6000fd5b505050506040513d601f19601f82011682018060405250810190612fd49190614878565b1561300f5760405162461bcd60e51b815260206004820152600b60248201526a0737570706c792d67742d360ac1b60448201526064016103e5565b61301a600e82613ef9565b6130665760405162461bcd60e51b815260206004820152601a60248201527f6465706f7369742d746f6b656e2d646f65736e742d657869737400000000000060448201526064016103e5565b60106000826001600160a01b0316636f307dc36040518163ffffffff1660e01b815260040160206040518083038186803b1580156130a357600080fd5b505afa1580156130b7573d6000803e3d6000fd5b505050506040513d601f19601f820116820180604052508101906130db919061485b565b6001600160a01b03908116825260208201929092526040908101600090812080546001600160a01b03191690559051918316917fe5a19a76470297a1f85f9a38f3ff148b4c8cdc1209e074dbe59db5e22eb31a3a9190a250565b600080600080600061314686612cb3565b925061315186610d65565b808511159650909450915081831061316a576000613174565b61317483836148fc565b905091939590929450565b600061318961375a565b156131a65760405162461bcd60e51b81526004016103e5906148da565b600260015414156131f95760405162461bcd60e51b815260206004820152601f60248201527f5265656e7472616e637947756172643a207265656e7472616e742063616c6c0060448201526064016103e5565b60026001556001600160a01b0380851660009081526016602052604090205485911661325e5760405162461bcd60e51b81526020600482015260146024820152731cde5b9d1a195d1a58cb5a5b995e1a5cdd195b9d60621b60448201526064016103e5565b6001600160a01b038085166000908152601660205260409020548591166132be5760405162461bcd60e51b81526020600482015260146024820152731cde5b9d1a195d1a58cb5a5b995e1a5cdd195b9d60621b60448201526064016103e5565b600c54600160a01b900460ff166133055760405162461bcd60e51b815260206004820152600b60248201526a39bbb0b816b4b996b7b33360a91b60448201526064016103e5565b60008411801561338b57506040516370a0823160e01b81523360048201526001600160a01b038716906370a082319060240160206040518083038186803b15801561334f57600080fd5b505afa158015613363573d6000803e3d6000fd5b505050506040513d601f19601f820116820180604052508101906133879190614878565b8411155b6133ce5760405162461bcd60e51b8152602060048201526014602482015273185b5bdd5b9d0b5a5b8b5a5ccb5a5b9d985b1a5960621b60448201526064016103e5565b604051632770a7eb60e21b8152336004820152602481018590526001600160a01b03871690639dc29fac90604401600060405180830381600087803b15801561341657600080fd5b505af115801561342a573d6000803e3d6000fd5b50505050600c60009054906101000a90046001600160a01b03166001600160a01b031663eaada3826040518163ffffffff1660e01b815260040160206040518083038186803b15801561347c57600080fd5b505afa158015613490573d6000803e3d6000fd5b505050506040513d601f19601f820116820180604052508101906134b4919061485b565b6001600160a01b031663b64663848787876040518463ffffffff1660e01b81526004016134e393929190614913565b60206040518083038186803b1580156134fb57600080fd5b505afa15801561350f573d6000803e3d6000fd5b505050506040513d601f19601f820116820180604052508101906135339190614878565b925060008060095411156136555760095461354f908590613bca565b9050856001600160a01b03166340c10f19600c60009054906101000a90046001600160a01b03166001600160a01b031663c415b95c6040518163ffffffff1660e01b815260040160206040518083038186803b1580156135ae57600080fd5b505afa1580156135c2573d6000803e3d6000fd5b505050506040513d601f19601f820116820180604052508101906135e6919061485b565b6040516001600160e01b031960e084901b1681526001600160a01b03909116600482015260248101849052604401600060405180830381600087803b15801561362e57600080fd5b505af1158015613642573d6000803e3d6000fd5b50505050808461365291906148fc565b93505b6040516340c10f1960e01b8152336004820152602481018590526001600160a01b038716906340c10f1990604401600060405180830381600087803b15801561369d57600080fd5b505af11580156136b1573d6000803e3d6000fd5b505060408051888152602081018890529081018490526001600160a01b03808a1693508a16915033907fafd74f009c0ff7627726f24b568ee5529cd297f6a7a1e43ec363443a13a584209060600160405180910390a4505060018055509392505050565b600c5460408051637556d1c160e11b815290516000926001600160a01b03169163eaada382916004808301926020929190829003018186803b15801561293057600080fd5b600354600090600160a81b900460ff1680611b5b5750600c60009054906101000a90046001600160a01b03166001600160a01b031663ecf3a3f96040518163ffffffff1660e01b815260040160206040518083038186803b158015611ddf57600080fd5b6002546001600160a01b031633146137e85760405162461bcd60e51b81526004016103e5906147e3565b670de0b6b3a76400008111156138105760405162461bcd60e51b81526004016103e590614809565b600b54818114156138335760405162461bcd60e51b81526004016103e59061482e565b60408051828152602081018490527f6d8ed4ad9ba67058e16e32fc3c8da2e3358da6cd1599e0e0fb2630d0a19fd49c910160405180910390a150600b55565b6002546001600160a01b0316331461389c5760405162461bcd60e51b81526004016103e5906147e3565b670de0b6b3a7640000816001600160801b031611156138cd5760405162461bcd60e51b81526004016103e590614809565b600a546001600160801b039081169082168114156138fd5760405162461bcd60e51b81526004016103e59061482e565b604080518281526001600160801b03841660208201527f457d9e7f8f7a13610e084de82e6b40a65eddd57ff51a358ef64e1199c37c676a910160405180910390a150600a80546fffffffffffffffffffffffffffffffff19166001600160801b0392909216919091179055565b6003546001600160a01b03163381146139c55760405162461bcd60e51b815260206004820152601960248201527f6e6f742d7468652d70726f706f7365642d676f7665726e6f720000000000000060448201526064016103e5565b6002546040516001600160a01b038084169216907fd4459d5b8b913cab0244230fd9b1c08b6ceace7fe9230e60d0f74cbffdf849d090600090a3600280546001600160a01b039092166001600160a01b0319928316179055600380549091169055565b6060611b5b600e613c50565b613a3c61375a565b15613a595760405162461bcd60e51b81526004016103e5906148da565b6002546001600160a01b03163314613a835760405162461bcd60e51b81526004016103e5906147e3565b6003805461ffff60a01b191661010160a01b1790556040513381527f28b4c24cb1012c094cd2f59f98e89d791973295f8fda6eaa118022d6d318960a90602001611a9f565b613ad061375a565b613b0b5760405162461bcd60e51b815260206004820152600c60248201526b3737ba16b9b43aba3237bbb760a11b60448201526064016103e5565b6002546001600160a01b03163314613b355760405162461bcd60e51b81526004016103e5906147e3565b6003805460ff60a81b191690556040513381527fece7583a70a505ef0e36d4dec768f5ae597713e09c26011022599ee01abdabfc90602001611a9f565b6001600160a01b038116600090815260018301602052604081205415155b9392505050565b6001600160a01b038116600090815260208390526040812054613b90565b6000613bc2848484613f0e565b949350505050565b6000821580613bd7575081155b15613be457506000610cd3565b670de0b6b3a7640000613bf8600282614a11565b613c028486614a33565b613c0c91906148a7565b613b909190614a11565b6000613bc2848484613f55565b600081613c31600282614a11565b613c02670de0b6b3a764000086614a33565b6000613bc2848484614102565b60606000613b9083614190565b6002546001600160a01b03163314613c875760405162461bcd60e51b81526004016103e5906147e3565b565b80471015613cd95760405162461bcd60e51b815260206004820152601d60248201527f416464726573733a20696e73756666696369656e742062616c616e636500000060448201526064016103e5565b6000826001600160a01b03168260405160006040518083038185875af1925050503d8060008114613d26576040519150601f19603f3d011682016040523d82523d6000602084013e613d2b565b606091505b5050905080611f2a5760405162461bcd60e51b815260206004820152603a60248201527f416464726573733a20756e61626c6520746f2073656e642076616c75652c207260448201527f6563697069656e74206d6179206861766520726576657274656400000000000060648201526084016103e5565b604080516001600160a01b038416602482015260448082018490528251808303909101815260649091019091526020810180516001600160e01b031663a9059cbb60e01b179052611f2a9084906141ec565b6000613b90836001600160a01b0384166142be565b60606000613bc2848461430d565b600054610100900460ff1680613e30575060005460ff16155b613e4c5760405162461bcd60e51b81526004016103e5906149c3565b600054610100900460ff16158015613e6e576000805461ffff19166101011790555b600180558015611074576000805461ff001916905550565b600054610100900460ff1680613e9f575060005460ff16155b613ebb5760405162461bcd60e51b81526004016103e5906149c3565b600054610100900460ff16158015613edd576000805461ffff19166101011790555b613ee5614382565b8015611074576000805461ff001916905550565b6000613b90836001600160a01b03841661442d565b6001600160a01b0382166000908152602084905260408120805483908110613f3857613f3861498b565b6000918252602090912001546001600160a01b0316949350505050565b6001600160a01b038083166000908152602085815260408083209385168352600190930190529081205480156140f8576000613f926001836148fc565b6001600160a01b03861660009081526020889052604081205491925090613fbb906001906148fc565b9050818114614077576001600160a01b0386166000908152602088905260408120805483908110613fee57613fee61498b565b60009182526020808320909101546001600160a01b038a81168452918b9052604090922080549190921692508291908590811061402d5761402d61498b565b600091825260208083209190910180546001600160a01b0319166001600160a01b0394851617905589831682528a8152604080832094909316825260019390930190925290208390555b6001600160a01b038616600090815260208890526040902080548061409e5761409e614a52565b60008281526020808220830160001990810180546001600160a01b03191690559092019092556001600160a01b038881168352898252604080842091891684526001918201909252908220919091559350613b9092505050565b6000915050613b90565b6001600160a01b038083166000908152602085815260408083209385168352600190930190529081205461418857506001600160a01b0382811660009081526020858152604080832080546001808201835582865284862090910180546001600160a01b0319169688169687179055815495855290810190925290912091909155613b90565b506000613b90565b6060816000018054806020026020016040519081016040528092919081815260200182805480156141e057602002820191906000526020600020905b8154815260200190600101908083116141cc575b50505050509050919050565b6000614241826040518060400160405280602081526020017f5361666545524332303a206c6f772d6c6576656c2063616c6c206661696c6564815250856001600160a01b03166145209092919063ffffffff16565b805190915015611f2a578080602001905181019061425f91906149a1565b611f2a5760405162461bcd60e51b815260206004820152602a60248201527f5361666545524332303a204552433230206f7065726174696f6e20646964206e6044820152691bdd081cdd58d8d9595960b21b60648201526084016103e5565b600081815260018301602052604081205461430557508154600181810184556000848152602080822090930184905584548482528286019093526040902091909155610cd3565b506000610cd3565b6001600160a01b0381166000908152602083815260409182902080548351818402810184019094528084526060939283018282801561437557602002820191906000526020600020905b81546001600160a01b03168152600190910190602001808311614357575b5050505050905092915050565b600054610100900460ff168061439b575060005460ff16155b6143b75760405162461bcd60e51b81526004016103e5906149c3565b600054610100900460ff161580156143d9576000805461ffff19166101011790555b600280546001600160a01b031916339081179091556040516000907fd4459d5b8b913cab0244230fd9b1c08b6ceace7fe9230e60d0f74cbffdf849d0908290a38015611074576000805461ff001916905550565b600081815260018301602052604081205480156145165760006144516001836148fc565b8554909150600090614465906001906148fc565b90508181146144ca5760008660000182815481106144855761448561498b565b90600052602060002001549050808760000184815481106144a8576144a861498b565b6000918252602080832090910192909255918252600188019052604090208390555b85548690806144db576144db614a52565b600190038181906000526020600020016000905590558560010160008681526020019081526020016000206000905560019350505050610cd3565b6000915050610cd3565b6060613bc2848460008585843b6145795760405162461bcd60e51b815260206004820152601d60248201527f416464726573733a2063616c6c20746f206e6f6e2d636f6e747261637400000060448201526064016103e5565b600080866001600160a01b031685876040516145959190614a68565b60006040518083038185875af1925050503d80600081146145d2576040519150601f19603f3d011682016040523d82523d6000602084013e6145d7565b606091505b50915091506145e78282866145f2565b979650505050505050565b60608315614601575081613b90565b8251156146115782518084602001fd5b8160405162461bcd60e51b81526004016103e591906147b0565b60006020828403121561463d57600080fd5b5035919050565b6001600160a01b038116811461107457600080fd5b60006020828403121561466b57600080fd5b8135613b9081614644565b6020808252825182820181905260009190848201906040850190845b818110156146b75783516001600160a01b031683529284019291840191600101614692565b50909695505050505050565b600080600080608085870312156146d957600080fd5b84356146e481614644565b935060208501356146f481614644565b925060408501359150606085013561470b81614644565b939692955090935050565b60006020828403121561472857600080fd5b81356001600160801b0381168114613b9057600080fd5b60008060006060848603121561475457600080fd5b833561475f81614644565b9250602084013561476f81614644565b929592945050506040919091013590565b60005b8381101561479b578181015183820152602001614783565b838111156147aa576000848401525b50505050565b60208152600082518060208401526147cf816040850160208701614780565b601f01601f19169190910160400192915050565b6020808252600c908201526b3737ba16b3b7bb32b93737b960a11b604082015260600190565b6020808252600b908201526a6d61782d69732d3130302560a81b604082015260600190565b6020808252601390820152721b995dcb5cd85b594b585ccb58dd5c9c995b9d606a1b604082015260600190565b60006020828403121561486d57600080fd5b8151613b9081614644565b60006020828403121561488a57600080fd5b5051919050565b634e487b7160e01b600052601160045260246000fd5b600082198211156148ba576148ba614891565b500190565b60006000198214156148d3576148d3614891565b5060010190565b60208082526008908201526739b43aba3237bbb760c11b604082015260600190565b60008282101561490e5761490e614891565b500390565b6001600160a01b039384168152919092166020820152604081019190915260600190565b60006001600160801b0380831681851680830382111561495957614959614891565b01949350505050565b6020808252600f908201526e1859191c995cdccb5a5ccb5b9d5b1b608a1b604082015260600190565b634e487b7160e01b600052603260045260246000fd5b6000602082840312156149b357600080fd5b81518015158114613b9057600080fd5b6020808252602e908201527f496e697469616c697a61626c653a20636f6e747261637420697320616c72656160408201526d191e481a5b9a5d1a585b1a5e995960921b606082015260800190565b600082614a2e57634e487b7160e01b600052601260045260246000fd5b500490565b6000816000190483118215151615614a4d57614a4d614891565b500290565b634e487b7160e01b600052603160045260246000fd5b60008251614a7a818460208701614780565b919091019291505056fea26469706673582212205ac33ce940798c6e38c8744a2e5e5b73446f51662ecf4f6fbffaa752e767c68564736f6c63430008090033",
  "devdoc": {
    "kind": "dev",
    "methods": {
      "acceptGovernorship()": {
        "details": "Allows new governor to accept governorship of the contract."
      },
      "addDebtToken(address)": {
        "details": "Must keep `debtTokenOf` mapping updated"
      },
      "addToDebtTokensOfAccount(address)": {
        "details": "This function is called from `DebtToken` when user's balance changes from `0`The caller should ensure to not pass `address(0)` as `_account`",
        "params": {
          "account_": "The account address"
        }
      },
      "addToDepositTokensOfAccount(address)": {
        "details": "This function is called from `DepositToken` when user's balance changes from `0`The caller should ensure to not pass `address(0)` as `_account`",
        "params": {
          "account_": "The account address"
        }
      },
      "debtOf(address)": {
        "params": {
          "account_": "The account to check"
        },
        "returns": {
          "_debtInUsd": "The debt value in USD"
        }
      },
      "debtPositionOf(address)": {
        "params": {
          "account_": "The account to check"
        },
        "returns": {
          "_debtInUsd": "The total debt in USD",
          "_depositInUsd": "The total collateral deposited in USD",
          "_isHealthy": "Whether the account's position is healthy",
          "_issuableInUsd": "The amount of debt (is USD) that is free (i.e. can be used to issue synthetic tokens)",
          "_issuableLimitInUsd": "The max amount of debt (is USD) that can be created (considering collateralization ratios)"
        }
      },
      "depositOf(address)": {
        "params": {
          "account_": "The account to check"
        },
        "returns": {
          "_depositInUsd": "The total deposit value in USD among all collaterals",
          "_issuableLimitInUsd": "The max value in USD that can be used to issue synthetic tokens"
        }
      },
      "getDebtTokens()": {
        "details": "WARNING: This operation will copy the entire storage to memory, which can be quite expensive. This is designed to mostly be used by view accessors that are queried without any gas fees."
      },
      "getDebtTokensOfAccount(address)": {
        "details": "WARNING: This operation will copy the entire storage to memory, which can be quite expensive. This is designed to mostly be used by view accessors that are queried without any gas fees."
      },
      "getDepositTokens()": {
        "details": "WARNING: This operation will copy the entire storage to memory, which can be quite expensive. This is designed to mostly be used by view accessors that are queried without any gas fees."
      },
      "getDepositTokensOfAccount(address)": {
        "details": "WARNING: This operation will copy the entire storage to memory, which can be quite expensive. This is designed to mostly be used by view accessors that are queried without any gas fees."
      },
      "isDebtTokenExists(address)": {
        "params": {
          "debtToken_": "Asset to check"
        },
        "returns": {
          "_0": "true if exist"
        }
      },
      "isDepositTokenExists(address)": {
        "params": {
          "depositToken_": "Asset to check"
        },
        "returns": {
          "_0": "true if exist"
        }
      },
      "isSyntheticTokenExists(address)": {
        "params": {
          "syntheticToken_": "Asset to check"
        },
        "returns": {
          "_0": "true if exist"
        }
      },
      "liquidate(address,address,uint256,address)": {
        "params": {
          "account_": "The account with an unhealthy position",
          "amountToRepay_": "The amount to repay in synthetic token",
          "depositToken_": "The collateral to seize from",
          "syntheticToken_": "The msAsset to use for repayment"
        }
      },
      "open()": {
        "details": "Open contract operations, if contract is in shutdown state"
      },
      "pause()": {
        "details": "Pause contract operations, if contract is not paused."
      },
      "removeDebtToken(address)": {
        "details": "Must keep `debtTokenOf` mapping updated"
      },
      "removeFromDebtTokensOfAccount(address)": {
        "details": "This function is called from `DebtToken` when user's balance changes to `0`The caller should ensure to not pass `address(0)` as `_account`",
        "params": {
          "account_": "The account address"
        }
      },
      "removeFromDepositTokensOfAccount(address)": {
        "details": "This function is called from `DepositToken` when user's balance changes to `0`The caller should ensure to not pass `address(0)` as `_account`",
        "params": {
          "account_": "The account address"
        }
      },
      "shutdown()": {
        "details": "Shutdown contract operations, if not already shutdown."
      },
      "swap(address,address,uint256)": {
        "params": {
          "amountIn_": "Amount to swap",
          "syntheticTokenIn_": "Synthetic token to sell",
          "syntheticTokenOut_": "Synthetic token to buy"
        }
      },
      "sweep(address,address,uint256)": {
        "params": {
          "amount_": "The amount to send",
          "to_": "The recipient of the transfer",
          "token_": "The token to transfer"
        }
      },
      "transferGovernorship(address)": {
        "details": "Transfers governorship of the contract to a new account (`proposedGovernor`). Can only be called by the current owner."
      },
      "unpause()": {
        "details": "Unpause contract operations, allow only if contract is paused and not shutdown."
      }
    },
    "title": "Pool contract",
    "version": 1
  },
  "userdoc": {
    "events": {
      "DebtFloorUpdated(uint256,uint256)": {
        "notice": "Emitted when protocol liquidation fee is updated"
      },
      "DebtTokenAdded(address)": {
        "notice": "Emitted when debt token is enabled"
      },
      "DebtTokenRemoved(address)": {
        "notice": "Emitted when debt token is disabled"
      },
      "DepositFeeUpdated(uint256,uint256)": {
        "notice": "Emitted when deposit fee is updated"
      },
      "DepositTokenAdded(address)": {
        "notice": "Emitted when deposit token is enabled"
      },
      "DepositTokenRemoved(address)": {
        "notice": "Emitted when deposit token is disabled"
      },
      "IssueFeeUpdated(uint256,uint256)": {
        "notice": "Emitted when issue fee is updated"
      },
      "LiquidatorLiquidationFeeUpdated(uint256,uint256)": {
        "notice": "Emitted when liquidator liquidation fee is updated"
      },
      "MaxLiquidableUpdated(uint256,uint256)": {
        "notice": "Emitted when maxLiquidable (liquidation cap) is updated"
      },
      "Open(address)": {
        "notice": "Emitted when contract is turned on"
      },
      "Paused(address)": {
        "notice": "Emitted when contract is paused"
      },
      "PositionLiquidated(address,address,address,uint256,uint256,uint256)": {
        "notice": "Emitted when a position is liquidated"
      },
      "ProtocolLiquidationFeeUpdated(uint256,uint256)": {
        "notice": "Emitted when protocol liquidation fee is updated"
      },
      "RepayFeeUpdated(uint256,uint256)": {
        "notice": "Emitted when repay fee is updated"
      },
      "RewardsDistributorAdded(address)": {
        "notice": "Emitted when rewards distributor contract is added"
      },
      "Shutdown(address)": {
        "notice": "Emitted when contract is shuted down"
      },
      "SwapActiveUpdated(bool)": {
        "notice": "Emitted when the swap active flag is updated"
      },
      "SwapFeeUpdated(uint256,uint256)": {
        "notice": "Emitted when swap fee is updated"
      },
      "SyntheticTokenSwapped(address,address,address,uint256,uint256,uint256)": {
        "notice": "Emitted when synthetic token is swapped"
      },
      "TreasuryUpdated(address,address)": {
        "notice": "Emitted when treasury contract is updated"
      },
      "Unpaused(address)": {
        "notice": "Emitted when contract is unpaused"
      },
      "WithdrawFeeUpdated(uint256,uint256)": {
        "notice": "Emitted when withdraw fee is updated"
      }
    },
    "kind": "user",
    "methods": {
      "addDebtToken(address)": {
        "notice": "Add debt token to offerings"
      },
      "addDepositToken(address)": {
        "notice": "Add deposit token (i.e. collateral) to Synth"
      },
      "addRewardsDistributor(address)": {
        "notice": "Add a RewardsDistributor contract"
      },
      "addToDebtTokensOfAccount(address)": {
        "notice": "Add a debt token to the per-account list"
      },
      "addToDepositTokensOfAccount(address)": {
        "notice": "Add a deposit token to the per-account list"
      },
      "debtFloorInUsd()": {
        "notice": "The debt floor (in USD) for each synthetic token This parameters is used to keep incentive for liquidators (i.e. cover gas and provide enough profit)"
      },
      "debtOf(address)": {
        "notice": "Get account's debt by querying latest prices from oracles"
      },
      "debtPositionOf(address)": {
        "notice": "Get if the debt position from an account is healthy"
      },
      "debtTokenOf(address)": {
        "notice": "Get the debt token's address from given synthetic asset"
      },
      "depositFee()": {
        "notice": "The fee charged when depositing collateral"
      },
      "depositOf(address)": {
        "notice": "Get account's total collateral deposited by querying latest prices from oracles"
      },
      "depositTokenOf(address)": {
        "notice": "Get the deposit token's address from given underlying asset"
      },
      "everythingStopped()": {
        "notice": "Return `true` if contract is shutdown"
      },
      "feeCollector()": {
        "notice": "Returns fee collector address"
      },
      "getDebtTokens()": {
        "notice": "Get all debt tokens"
      },
      "getDebtTokensOfAccount(address)": {
        "notice": "Get all debt tokens"
      },
      "getDepositTokens()": {
        "notice": "Get all deposit tokens"
      },
      "getDepositTokensOfAccount(address)": {
        "notice": "Get deposit tokens of an account"
      },
      "getRewardsDistributors()": {
        "notice": "Get all rewards distributors"
      },
      "isDebtTokenExists(address)": {
        "notice": "Check if token is part of the debt offerings"
      },
      "isDepositTokenExists(address)": {
        "notice": "Check if collateral is supported"
      },
      "isSwapActive()": {
        "notice": "Swap feature on/off flag"
      },
      "isSyntheticTokenExists(address)": {
        "notice": "Check if token is part of the synthetic offerings"
      },
      "issueFee()": {
        "notice": "The fee charged when minting a synthetic token"
      },
      "liquidate(address,address,uint256,address)": {
        "notice": "Burn synthetic token, unlock deposit token and send liquidator liquidation fee"
      },
      "liquidationFees()": {
        "notice": "The fees charged when liquidating a position"
      },
      "masterOracle()": {
        "notice": "Get MasterOracle contract"
      },
      "maxLiquidable()": {
        "notice": "The max percent of the debt allowed to liquidate"
      },
      "paused()": {
        "notice": "Return `true` if contract is paused"
      },
      "poolRegistry()": {
        "notice": "PoolRegistry"
      },
      "removeDebtToken(address)": {
        "notice": "Remove debt token from offerings"
      },
      "removeDepositToken(address)": {
        "notice": "Remove deposit token (i.e. collateral) from Synth"
      },
      "removeFromDebtTokensOfAccount(address)": {
        "notice": "Remove a debt token from the per-account list"
      },
      "removeFromDepositTokensOfAccount(address)": {
        "notice": "Remove a deposit token from the per-account list"
      },
      "repayFee()": {
        "notice": "The fee charged when repaying debt"
      },
      "swap(address,address,uint256)": {
        "notice": "Swap synthetic tokens"
      },
      "swapFee()": {
        "notice": "The fee charged when swapping synthetic tokens"
      },
      "sweep(address,address,uint256)": {
        "notice": "ERC20 recovery in case of stuck tokens due direct transfers to the contract address."
      },
      "toggleIsSwapActive()": {
        "notice": "Turn swap on/off"
      },
      "treasury()": {
        "notice": "Treasury contract"
      },
      "updateDebtFloor(uint256)": {
        "notice": "Update debt floor"
      },
      "updateDepositFee(uint256)": {
        "notice": "Update deposit fee"
      },
      "updateIssueFee(uint256)": {
        "notice": "Update issue fee"
      },
      "updateLiquidatorLiquidationFee(uint128)": {
        "notice": "Update liquidator liquidation fee"
      },
      "updateMaxLiquidable(uint256)": {
        "notice": "Update maxLiquidable (liquidation cap)"
      },
      "updateProtocolLiquidationFee(uint128)": {
        "notice": "Update protocol liquidation fee"
      },
      "updateRepayFee(uint256)": {
        "notice": "Update repay fee"
      },
      "updateSwapFee(uint256)": {
        "notice": "Update swap fee"
      },
      "updateTreasury(address)": {
        "notice": "Update treasury contract - will migrate funds to the new contract"
      },
      "updateWithdrawFee(uint256)": {
        "notice": "Update withdraw fee"
      },
      "withdrawFee()": {
        "notice": "The fee charged when withdrawing collateral"
      }
    },
    "version": 1
  },
  "storageLayout": {
    "storage": [
      {
        "astId": 7177,
        "contract": "contracts/Pool.sol:Pool",
        "label": "_initialized",
        "offset": 0,
        "slot": "0",
        "type": "t_bool"
      },
      {
        "astId": 7180,
        "contract": "contracts/Pool.sol:Pool",
        "label": "_initializing",
        "offset": 1,
        "slot": "0",
        "type": "t_bool"
      },
      {
        "astId": 7231,
        "contract": "contracts/Pool.sol:Pool",
        "label": "_status",
        "offset": 0,
        "slot": "1",
        "type": "t_uint256"
      },
      {
        "astId": 6006,
        "contract": "contracts/Pool.sol:Pool",
        "label": "governor",
        "offset": 0,
        "slot": "2",
        "type": "t_address"
      },
      {
        "astId": 6008,
        "contract": "contracts/Pool.sol:Pool",
        "label": "proposedGovernor",
        "offset": 0,
        "slot": "3",
        "type": "t_address"
      },
      {
        "astId": 14541,
        "contract": "contracts/Pool.sol:Pool",
        "label": "_paused",
        "offset": 20,
        "slot": "3",
        "type": "t_bool"
      },
      {
        "astId": 14543,
        "contract": "contracts/Pool.sol:Pool",
        "label": "_everythingStopped",
        "offset": 21,
        "slot": "3",
        "type": "t_bool"
      },
      {
        "astId": 13076,
        "contract": "contracts/Pool.sol:Pool",
        "label": "debtFloorInUsd",
        "offset": 0,
        "slot": "4",
        "type": "t_uint256"
      },
      {
        "astId": 13079,
        "contract": "contracts/Pool.sol:Pool",
        "label": "depositFee",
        "offset": 0,
        "slot": "5",
        "type": "t_uint256"
      },
      {
        "astId": 13082,
        "contract": "contracts/Pool.sol:Pool",
        "label": "issueFee",
        "offset": 0,
        "slot": "6",
        "type": "t_uint256"
      },
      {
        "astId": 13085,
        "contract": "contracts/Pool.sol:Pool",
        "label": "withdrawFee",
        "offset": 0,
        "slot": "7",
        "type": "t_uint256"
      },
      {
        "astId": 13088,
        "contract": "contracts/Pool.sol:Pool",
        "label": "repayFee",
        "offset": 0,
        "slot": "8",
        "type": "t_uint256"
      },
      {
        "astId": 13091,
        "contract": "contracts/Pool.sol:Pool",
        "label": "swapFee",
        "offset": 0,
        "slot": "9",
        "type": "t_uint256"
      },
      {
        "astId": 13095,
        "contract": "contracts/Pool.sol:Pool",
        "label": "liquidationFees",
        "offset": 0,
        "slot": "10",
        "type": "t_struct(LiquidationFees)13073_storage"
      },
      {
        "astId": 13098,
        "contract": "contracts/Pool.sol:Pool",
        "label": "maxLiquidable",
        "offset": 0,
        "slot": "11",
        "type": "t_uint256"
      },
      {
        "astId": 13102,
        "contract": "contracts/Pool.sol:Pool",
        "label": "poolRegistry",
        "offset": 0,
        "slot": "12",
        "type": "t_contract(IPoolRegistry)11142"
      },
      {
        "astId": 13105,
        "contract": "contracts/Pool.sol:Pool",
        "label": "isSwapActive",
        "offset": 20,
        "slot": "12",
        "type": "t_bool"
      },
      {
        "astId": 13109,
        "contract": "contracts/Pool.sol:Pool",
        "label": "treasury",
        "offset": 0,
        "slot": "13",
        "type": "t_contract(ITreasury)11268"
      },
      {
        "astId": 13113,
        "contract": "contracts/Pool.sol:Pool",
        "label": "depositTokens",
        "offset": 0,
        "slot": "14",
        "type": "t_struct(AddressSet)9307_storage"
      },
      {
        "astId": 13120,
        "contract": "contracts/Pool.sol:Pool",
        "label": "depositTokenOf",
        "offset": 0,
        "slot": "16",
        "type": "t_mapping(t_contract(IERC20)7886,t_contract(IDepositToken)10740)"
      },
      {
        "astId": 13124,
        "contract": "contracts/Pool.sol:Pool",
        "label": "debtTokens",
        "offset": 0,
        "slot": "17",
        "type": "t_struct(AddressSet)9307_storage"
      },
      {
        "astId": 13128,
        "contract": "contracts/Pool.sol:Pool",
        "label": "depositTokensOfAccount",
        "offset": 0,
        "slot": "19",
        "type": "t_struct(AddressSet)11384_storage"
      },
      {
        "astId": 13132,
        "contract": "contracts/Pool.sol:Pool",
        "label": "debtTokensOfAccount",
        "offset": 0,
        "slot": "20",
        "type": "t_struct(AddressSet)11384_storage"
      },
      {
        "astId": 13137,
        "contract": "contracts/Pool.sol:Pool",
        "label": "rewardsDistributors",
        "offset": 0,
        "slot": "21",
        "type": "t_array(t_contract(IRewardsDistributor)11210)dyn_storage"
      },
      {
        "astId": 13144,
        "contract": "contracts/Pool.sol:Pool",
        "label": "debtTokenOf",
        "offset": 0,
        "slot": "22",
        "type": "t_mapping(t_contract(ISyntheticToken)11253,t_contract(IDebtToken)10663)"
      }
    ],
    "types": {
      "t_address": {
        "encoding": "inplace",
        "label": "address",
        "numberOfBytes": "20"
      },
      "t_array(t_address)dyn_storage": {
        "base": "t_address",
        "encoding": "dynamic_array",
        "label": "address[]",
        "numberOfBytes": "32"
      },
      "t_array(t_bytes32)dyn_storage": {
        "base": "t_bytes32",
        "encoding": "dynamic_array",
        "label": "bytes32[]",
        "numberOfBytes": "32"
      },
      "t_array(t_contract(IRewardsDistributor)11210)dyn_storage": {
        "base": "t_contract(IRewardsDistributor)11210",
        "encoding": "dynamic_array",
        "label": "contract IRewardsDistributor[]",
        "numberOfBytes": "32"
      },
      "t_bool": {
        "encoding": "inplace",
        "label": "bool",
        "numberOfBytes": "1"
      },
      "t_bytes32": {
        "encoding": "inplace",
        "label": "bytes32",
        "numberOfBytes": "32"
      },
      "t_contract(IDebtToken)10663": {
        "encoding": "inplace",
        "label": "contract IDebtToken",
        "numberOfBytes": "20"
      },
      "t_contract(IDepositToken)10740": {
        "encoding": "inplace",
        "label": "contract IDepositToken",
        "numberOfBytes": "20"
      },
      "t_contract(IERC20)7886": {
        "encoding": "inplace",
        "label": "contract IERC20",
        "numberOfBytes": "20"
      },
      "t_contract(IPoolRegistry)11142": {
        "encoding": "inplace",
        "label": "contract IPoolRegistry",
        "numberOfBytes": "20"
      },
      "t_contract(IRewardsDistributor)11210": {
        "encoding": "inplace",
        "label": "contract IRewardsDistributor",
        "numberOfBytes": "20"
      },
      "t_contract(ISyntheticToken)11253": {
        "encoding": "inplace",
        "label": "contract ISyntheticToken",
        "numberOfBytes": "20"
      },
      "t_contract(ITreasury)11268": {
        "encoding": "inplace",
        "label": "contract ITreasury",
        "numberOfBytes": "20"
      },
      "t_mapping(t_address,t_struct(Set)11378_storage)": {
        "encoding": "mapping",
        "key": "t_address",
        "label": "mapping(address => struct MappedEnumerableSet.Set)",
        "numberOfBytes": "32",
        "value": "t_struct(Set)11378_storage"
      },
      "t_mapping(t_address,t_uint256)": {
        "encoding": "mapping",
        "key": "t_address",
        "label": "mapping(address => uint256)",
        "numberOfBytes": "32",
        "value": "t_uint256"
      },
      "t_mapping(t_bytes32,t_uint256)": {
        "encoding": "mapping",
        "key": "t_bytes32",
        "label": "mapping(bytes32 => uint256)",
        "numberOfBytes": "32",
        "value": "t_uint256"
      },
      "t_mapping(t_contract(IERC20)7886,t_contract(IDepositToken)10740)": {
        "encoding": "mapping",
        "key": "t_contract(IERC20)7886",
        "label": "mapping(contract IERC20 => contract IDepositToken)",
        "numberOfBytes": "32",
        "value": "t_contract(IDepositToken)10740"
      },
      "t_mapping(t_contract(ISyntheticToken)11253,t_contract(IDebtToken)10663)": {
        "encoding": "mapping",
        "key": "t_contract(ISyntheticToken)11253",
        "label": "mapping(contract ISyntheticToken => contract IDebtToken)",
        "numberOfBytes": "32",
        "value": "t_contract(IDebtToken)10663"
      },
      "t_struct(AddressSet)11384_storage": {
        "encoding": "inplace",
        "label": "struct MappedEnumerableSet.AddressSet",
        "members": [
          {
            "astId": 11383,
            "contract": "contracts/Pool.sol:Pool",
            "label": "_ofAddress",
            "offset": 0,
            "slot": "0",
            "type": "t_mapping(t_address,t_struct(Set)11378_storage)"
          }
        ],
        "numberOfBytes": "32"
      },
      "t_struct(AddressSet)9307_storage": {
        "encoding": "inplace",
        "label": "struct EnumerableSet.AddressSet",
        "members": [
          {
            "astId": 9306,
            "contract": "contracts/Pool.sol:Pool",
            "label": "_inner",
            "offset": 0,
            "slot": "0",
            "type": "t_struct(Set)9006_storage"
          }
        ],
        "numberOfBytes": "64"
      },
      "t_struct(LiquidationFees)13073_storage": {
        "encoding": "inplace",
        "label": "struct PoolStorageV1.LiquidationFees",
        "members": [
          {
            "astId": 13070,
            "contract": "contracts/Pool.sol:Pool",
            "label": "liquidatorFee",
            "offset": 0,
            "slot": "0",
            "type": "t_uint128"
          },
          {
            "astId": 13072,
            "contract": "contracts/Pool.sol:Pool",
            "label": "protocolFee",
            "offset": 16,
            "slot": "0",
            "type": "t_uint128"
          }
        ],
        "numberOfBytes": "32"
      },
      "t_struct(Set)11378_storage": {
        "encoding": "inplace",
        "label": "struct MappedEnumerableSet.Set",
        "members": [
          {
            "astId": 11373,
            "contract": "contracts/Pool.sol:Pool",
            "label": "_values",
            "offset": 0,
            "slot": "0",
            "type": "t_array(t_address)dyn_storage"
          },
          {
            "astId": 11377,
            "contract": "contracts/Pool.sol:Pool",
            "label": "_indexes",
            "offset": 0,
            "slot": "1",
            "type": "t_mapping(t_address,t_uint256)"
          }
        ],
        "numberOfBytes": "64"
      },
      "t_struct(Set)9006_storage": {
        "encoding": "inplace",
        "label": "struct EnumerableSet.Set",
        "members": [
          {
            "astId": 9001,
            "contract": "contracts/Pool.sol:Pool",
            "label": "_values",
            "offset": 0,
            "slot": "0",
            "type": "t_array(t_bytes32)dyn_storage"
          },
          {
            "astId": 9005,
            "contract": "contracts/Pool.sol:Pool",
            "label": "_indexes",
            "offset": 0,
            "slot": "1",
            "type": "t_mapping(t_bytes32,t_uint256)"
          }
        ],
        "numberOfBytes": "64"
      },
      "t_uint128": {
        "encoding": "inplace",
        "label": "uint128",
        "numberOfBytes": "16"
      },
      "t_uint256": {
        "encoding": "inplace",
        "label": "uint256",
        "numberOfBytes": "32"
      }
    }
  }
}