{
  "address": "0x029078Cc02F74a77051bfDE8757e3b828AED9b25",
  "abi": [
    {
      "inputs": [],
      "name": "AddressIsNull",
      "type": "error"
    },
    {
      "inputs": [],
      "name": "AmountGreaterThanMaxLiquidable",
      "type": "error"
    },
    {
      "inputs": [],
      "name": "AmountInIsInvalid",
      "type": "error"
    },
    {
      "inputs": [],
      "name": "AmountIsTooHight",
      "type": "error"
    },
    {
      "inputs": [],
      "name": "AmountIsZero",
      "type": "error"
    },
    {
      "inputs": [],
      "name": "CanNotLiquidateOwnPosition",
      "type": "error"
    },
    {
      "inputs": [],
      "name": "CollateralDoesNotExist",
      "type": "error"
    },
    {
      "inputs": [],
      "name": "DebtTokenAlreadyExists",
      "type": "error"
    },
    {
      "inputs": [],
      "name": "DebtTokenDoesNotExist",
      "type": "error"
    },
    {
      "inputs": [],
      "name": "DepositTokenAlreadyExists",
      "type": "error"
    },
    {
      "inputs": [],
      "name": "DepositTokenDoesNotExist",
      "type": "error"
    },
    {
      "inputs": [],
      "name": "FallbackIsNotAllowed",
      "type": "error"
    },
    {
      "inputs": [],
      "name": "FeeIsGreaterThanTheMax",
      "type": "error"
    },
    {
      "inputs": [],
      "name": "IsNotPaused",
      "type": "error"
    },
    {
      "inputs": [],
      "name": "IsNotShutdown",
      "type": "error"
    },
    {
      "inputs": [],
      "name": "IsPaused",
      "type": "error"
    },
    {
      "inputs": [],
      "name": "IsShutdown",
      "type": "error"
    },
    {
      "inputs": [],
      "name": "MaxLiquidableTooHigh",
      "type": "error"
    },
    {
      "inputs": [],
      "name": "NewValueIsSameAsCurrent",
      "type": "error"
    },
    {
      "inputs": [],
      "name": "PoolRegistryIsNull",
      "type": "error"
    },
    {
      "inputs": [],
      "name": "PositionIsHealthy",
      "type": "error"
    },
    {
      "inputs": [],
      "name": "ProposedGovernorIsNull",
      "type": "error"
    },
    {
      "inputs": [],
      "name": "ReceiveIsNotAllowed",
      "type": "error"
    },
    {
      "inputs": [],
      "name": "RemainingDebtIsLowerThanTheFloor",
      "type": "error"
    },
    {
      "inputs": [],
      "name": "RewardDistributorAlreadyExists",
      "type": "error"
    },
    {
      "inputs": [],
      "name": "RewardDistributorDoesNotExist",
      "type": "error"
    },
    {
      "inputs": [],
      "name": "SenderIsNotDebtToken",
      "type": "error"
    },
    {
      "inputs": [],
      "name": "SenderIsNotDepositToken",
      "type": "error"
    },
    {
      "inputs": [],
      "name": "SenderIsNotGovernor",
      "type": "error"
    },
    {
      "inputs": [],
      "name": "SenderIsNotTheProposedGovernor",
      "type": "error"
    },
    {
      "inputs": [],
      "name": "SwapFeatureIsInactive",
      "type": "error"
    },
    {
      "inputs": [],
      "name": "SyntheticDoesNotExist",
      "type": "error"
    },
    {
      "inputs": [],
      "name": "SyntheticIsInUse",
      "type": "error"
    },
    {
      "inputs": [],
      "name": "SyntheticIsNull",
      "type": "error"
    },
    {
      "inputs": [],
      "name": "TotalSupplyIsNotZero",
      "type": "error"
    },
    {
      "inputs": [],
      "name": "UnderlyingAssetInUse",
      "type": "error"
    },
    {
      "anonymous": false,
      "inputs": [
        {
          "indexed": false,
          "internalType": "uint256",
          "name": "oldDebtFloorInUsd",
          "type": "uint256"
        },
        {
          "indexed": false,
          "internalType": "uint256",
          "name": "newDebtFloorInUsd",
          "type": "uint256"
        }
      ],
      "name": "DebtFloorUpdated",
      "type": "event"
    },
    {
      "anonymous": false,
      "inputs": [
        {
          "indexed": true,
          "internalType": "contract IDebtToken",
          "name": "debtToken",
          "type": "address"
        }
      ],
      "name": "DebtTokenAdded",
      "type": "event"
    },
    {
      "anonymous": false,
      "inputs": [
        {
          "indexed": true,
          "internalType": "contract IDebtToken",
          "name": "debtToken",
          "type": "address"
        }
      ],
      "name": "DebtTokenRemoved",
      "type": "event"
    },
    {
      "anonymous": false,
      "inputs": [
        {
          "indexed": false,
          "internalType": "uint256",
          "name": "oldDepositFee",
          "type": "uint256"
        },
        {
          "indexed": false,
          "internalType": "uint256",
          "name": "newDepositFee",
          "type": "uint256"
        }
      ],
      "name": "DepositFeeUpdated",
      "type": "event"
    },
    {
      "anonymous": false,
      "inputs": [
        {
          "indexed": true,
          "internalType": "address",
          "name": "depositToken",
          "type": "address"
        }
      ],
      "name": "DepositTokenAdded",
      "type": "event"
    },
    {
      "anonymous": false,
      "inputs": [
        {
          "indexed": true,
          "internalType": "contract IDepositToken",
          "name": "depositToken",
          "type": "address"
        }
      ],
      "name": "DepositTokenRemoved",
      "type": "event"
    },
    {
      "anonymous": false,
      "inputs": [
        {
          "indexed": false,
          "internalType": "uint256",
          "name": "oldIssueFee",
          "type": "uint256"
        },
        {
          "indexed": false,
          "internalType": "uint256",
          "name": "newIssueFee",
          "type": "uint256"
        }
      ],
      "name": "IssueFeeUpdated",
      "type": "event"
    },
    {
      "anonymous": false,
      "inputs": [
        {
          "indexed": false,
          "internalType": "uint256",
          "name": "oldLiquidatorIncentive",
          "type": "uint256"
        },
        {
          "indexed": false,
          "internalType": "uint256",
          "name": "newLiquidatorIncentive",
          "type": "uint256"
        }
      ],
      "name": "LiquidatorIncentiveUpdated",
      "type": "event"
    },
    {
      "anonymous": false,
      "inputs": [
        {
          "indexed": false,
          "internalType": "uint256",
          "name": "oldMaxLiquidable",
          "type": "uint256"
        },
        {
          "indexed": false,
          "internalType": "uint256",
          "name": "newMaxLiquidable",
          "type": "uint256"
        }
      ],
      "name": "MaxLiquidableUpdated",
      "type": "event"
    },
    {
      "anonymous": false,
      "inputs": [
        {
          "indexed": true,
          "internalType": "address",
          "name": "caller",
          "type": "address"
        }
      ],
      "name": "Open",
      "type": "event"
    },
    {
      "anonymous": false,
      "inputs": [
        {
          "indexed": true,
          "internalType": "address",
          "name": "caller",
          "type": "address"
        }
      ],
      "name": "Paused",
      "type": "event"
    },
    {
      "anonymous": false,
      "inputs": [
        {
          "indexed": true,
          "internalType": "address",
          "name": "liquidator",
          "type": "address"
        },
        {
          "indexed": true,
          "internalType": "address",
          "name": "account",
          "type": "address"
        },
        {
          "indexed": true,
          "internalType": "contract ISyntheticToken",
          "name": "syntheticToken",
          "type": "address"
        },
        {
          "indexed": false,
          "internalType": "uint256",
          "name": "amountRepaid",
          "type": "uint256"
        },
        {
          "indexed": false,
          "internalType": "uint256",
          "name": "depositSeized",
          "type": "uint256"
        },
        {
          "indexed": false,
          "internalType": "uint256",
          "name": "fee",
          "type": "uint256"
        }
      ],
      "name": "PositionLiquidated",
      "type": "event"
    },
    {
      "anonymous": false,
      "inputs": [
        {
          "indexed": false,
          "internalType": "uint256",
          "name": "oldProtocolLiquidationFee",
          "type": "uint256"
        },
        {
          "indexed": false,
          "internalType": "uint256",
          "name": "newProtocolLiquidationFee",
          "type": "uint256"
        }
      ],
      "name": "ProtocolLiquidationFeeUpdated",
      "type": "event"
    },
    {
      "anonymous": false,
      "inputs": [
        {
          "indexed": false,
          "internalType": "uint256",
          "name": "oldRepayFee",
          "type": "uint256"
        },
        {
          "indexed": false,
          "internalType": "uint256",
          "name": "newRepayFee",
          "type": "uint256"
        }
      ],
      "name": "RepayFeeUpdated",
      "type": "event"
    },
    {
      "anonymous": false,
      "inputs": [
        {
          "indexed": true,
          "internalType": "contract IRewardsDistributor",
          "name": "_distributor",
          "type": "address"
        }
      ],
      "name": "RewardsDistributorAdded",
      "type": "event"
    },
    {
      "anonymous": false,
      "inputs": [
        {
          "indexed": false,
          "internalType": "contract IRewardsDistributor",
          "name": "_distributor",
          "type": "address"
        }
      ],
      "name": "RewardsDistributorRemoved",
      "type": "event"
    },
    {
      "anonymous": false,
      "inputs": [
        {
          "indexed": true,
          "internalType": "address",
          "name": "caller",
          "type": "address"
        }
      ],
      "name": "Shutdown",
      "type": "event"
    },
    {
      "anonymous": false,
      "inputs": [
        {
          "indexed": false,
          "internalType": "bool",
          "name": "newActive",
          "type": "bool"
        }
      ],
      "name": "SwapActiveUpdated",
      "type": "event"
    },
    {
      "anonymous": false,
      "inputs": [
        {
          "indexed": false,
          "internalType": "uint256",
          "name": "oldSwapFee",
          "type": "uint256"
        },
        {
          "indexed": false,
          "internalType": "uint256",
          "name": "newSwapFee",
          "type": "uint256"
        }
      ],
      "name": "SwapFeeUpdated",
      "type": "event"
    },
    {
      "anonymous": false,
      "inputs": [
        {
          "indexed": true,
          "internalType": "address",
          "name": "account",
          "type": "address"
        },
        {
          "indexed": true,
          "internalType": "contract ISyntheticToken",
          "name": "syntheticTokenIn",
          "type": "address"
        },
        {
          "indexed": true,
          "internalType": "contract ISyntheticToken",
          "name": "syntheticTokenOut",
          "type": "address"
        },
        {
          "indexed": false,
          "internalType": "uint256",
          "name": "amountIn",
          "type": "uint256"
        },
        {
          "indexed": false,
          "internalType": "uint256",
          "name": "amountOut",
          "type": "uint256"
        },
        {
          "indexed": false,
          "internalType": "uint256",
          "name": "fee",
          "type": "uint256"
        }
      ],
      "name": "SyntheticTokenSwapped",
      "type": "event"
    },
    {
      "anonymous": false,
      "inputs": [
        {
          "indexed": true,
          "internalType": "contract ITreasury",
          "name": "oldTreasury",
          "type": "address"
        },
        {
          "indexed": true,
          "internalType": "contract ITreasury",
          "name": "newTreasury",
          "type": "address"
        }
      ],
      "name": "TreasuryUpdated",
      "type": "event"
    },
    {
      "anonymous": false,
      "inputs": [
        {
          "indexed": true,
          "internalType": "address",
          "name": "caller",
          "type": "address"
        }
      ],
      "name": "Unpaused",
      "type": "event"
    },
    {
      "anonymous": false,
      "inputs": [
        {
          "indexed": true,
          "internalType": "address",
          "name": "previousGovernor",
          "type": "address"
        },
        {
          "indexed": true,
          "internalType": "address",
          "name": "proposedGovernor",
          "type": "address"
        }
      ],
      "name": "UpdatedGovernor",
      "type": "event"
    },
    {
      "anonymous": false,
      "inputs": [
        {
          "indexed": false,
          "internalType": "uint256",
          "name": "oldWithdrawFee",
          "type": "uint256"
        },
        {
          "indexed": false,
          "internalType": "uint256",
          "name": "newWithdrawFee",
          "type": "uint256"
        }
      ],
      "name": "WithdrawFeeUpdated",
      "type": "event"
    },
    {
      "stateMutability": "payable",
      "type": "fallback"
    },
    {
      "inputs": [],
      "name": "VERSION",
      "outputs": [
        {
          "internalType": "string",
          "name": "",
          "type": "string"
        }
      ],
      "stateMutability": "view",
      "type": "function"
    },
    {
      "inputs": [],
      "name": "acceptGovernorship",
      "outputs": [],
      "stateMutability": "nonpayable",
      "type": "function"
    },
    {
      "inputs": [
        {
          "internalType": "contract IDebtToken",
          "name": "debtToken_",
          "type": "address"
        }
      ],
      "name": "addDebtToken",
      "outputs": [],
      "stateMutability": "nonpayable",
      "type": "function"
    },
    {
      "inputs": [
        {
          "internalType": "address",
          "name": "depositToken_",
          "type": "address"
        }
      ],
      "name": "addDepositToken",
      "outputs": [],
      "stateMutability": "nonpayable",
      "type": "function"
    },
    {
      "inputs": [
        {
          "internalType": "contract IRewardsDistributor",
          "name": "distributor_",
          "type": "address"
        }
      ],
      "name": "addRewardsDistributor",
      "outputs": [],
      "stateMutability": "nonpayable",
      "type": "function"
    },
    {
      "inputs": [
        {
          "internalType": "address",
          "name": "account_",
          "type": "address"
        }
      ],
      "name": "addToDebtTokensOfAccount",
      "outputs": [],
      "stateMutability": "nonpayable",
      "type": "function"
    },
    {
      "inputs": [
        {
          "internalType": "address",
          "name": "account_",
          "type": "address"
        }
      ],
      "name": "addToDepositTokensOfAccount",
      "outputs": [],
      "stateMutability": "nonpayable",
      "type": "function"
    },
    {
      "inputs": [],
      "name": "debtFloorInUsd",
      "outputs": [
        {
          "internalType": "uint256",
          "name": "",
          "type": "uint256"
        }
      ],
      "stateMutability": "view",
      "type": "function"
    },
    {
      "inputs": [
        {
          "internalType": "address",
          "name": "account_",
          "type": "address"
        }
      ],
      "name": "debtOf",
      "outputs": [
        {
          "internalType": "uint256",
          "name": "_debtInUsd",
          "type": "uint256"
        }
      ],
      "stateMutability": "view",
      "type": "function"
    },
    {
      "inputs": [
        {
          "internalType": "address",
          "name": "account_",
          "type": "address"
        }
      ],
      "name": "debtPositionOf",
      "outputs": [
        {
          "internalType": "bool",
          "name": "_isHealthy",
          "type": "bool"
        },
        {
          "internalType": "uint256",
          "name": "_depositInUsd",
          "type": "uint256"
        },
        {
          "internalType": "uint256",
          "name": "_debtInUsd",
          "type": "uint256"
        },
        {
          "internalType": "uint256",
          "name": "_issuableLimitInUsd",
          "type": "uint256"
        },
        {
          "internalType": "uint256",
          "name": "_issuableInUsd",
          "type": "uint256"
        }
      ],
      "stateMutability": "view",
      "type": "function"
    },
    {
      "inputs": [
        {
          "internalType": "contract ISyntheticToken",
          "name": "",
          "type": "address"
        }
      ],
      "name": "debtTokenOf",
      "outputs": [
        {
          "internalType": "contract IDebtToken",
          "name": "",
          "type": "address"
        }
      ],
      "stateMutability": "view",
      "type": "function"
    },
    {
      "inputs": [],
      "name": "depositFee",
      "outputs": [
        {
          "internalType": "uint256",
          "name": "",
          "type": "uint256"
        }
      ],
      "stateMutability": "view",
      "type": "function"
    },
    {
      "inputs": [
        {
          "internalType": "address",
          "name": "account_",
          "type": "address"
        }
      ],
      "name": "depositOf",
      "outputs": [
        {
          "internalType": "uint256",
          "name": "_depositInUsd",
          "type": "uint256"
        },
        {
          "internalType": "uint256",
          "name": "_issuableLimitInUsd",
          "type": "uint256"
        }
      ],
      "stateMutability": "view",
      "type": "function"
    },
    {
      "inputs": [
        {
          "internalType": "contract IERC20",
          "name": "",
          "type": "address"
        }
      ],
      "name": "depositTokenOf",
      "outputs": [
        {
          "internalType": "contract IDepositToken",
          "name": "",
          "type": "address"
        }
      ],
      "stateMutability": "view",
      "type": "function"
    },
    {
      "inputs": [
        {
          "internalType": "contract IDebtToken",
          "name": "debtToken_",
          "type": "address"
        }
      ],
      "name": "doesDebtTokenExist",
      "outputs": [
        {
          "internalType": "bool",
          "name": "",
          "type": "bool"
        }
      ],
      "stateMutability": "view",
      "type": "function"
    },
    {
      "inputs": [
        {
          "internalType": "contract IDepositToken",
          "name": "depositToken_",
          "type": "address"
        }
      ],
      "name": "doesDepositTokenExist",
      "outputs": [
        {
          "internalType": "bool",
          "name": "",
          "type": "bool"
        }
      ],
      "stateMutability": "view",
      "type": "function"
    },
    {
      "inputs": [
        {
          "internalType": "contract ISyntheticToken",
          "name": "syntheticToken_",
          "type": "address"
        }
      ],
      "name": "doesSyntheticTokenExist",
      "outputs": [
        {
          "internalType": "bool",
          "name": "",
          "type": "bool"
        }
      ],
      "stateMutability": "view",
      "type": "function"
    },
    {
      "inputs": [],
      "name": "everythingStopped",
      "outputs": [
        {
          "internalType": "bool",
          "name": "",
          "type": "bool"
        }
      ],
      "stateMutability": "view",
      "type": "function"
    },
    {
      "inputs": [],
      "name": "feeCollector",
      "outputs": [
        {
          "internalType": "address",
          "name": "",
          "type": "address"
        }
      ],
      "stateMutability": "view",
      "type": "function"
    },
    {
      "inputs": [],
      "name": "getDebtTokens",
      "outputs": [
        {
          "internalType": "address[]",
          "name": "",
          "type": "address[]"
        }
      ],
      "stateMutability": "view",
      "type": "function"
    },
    {
      "inputs": [
        {
          "internalType": "address",
          "name": "account_",
          "type": "address"
        }
      ],
      "name": "getDebtTokensOfAccount",
      "outputs": [
        {
          "internalType": "address[]",
          "name": "",
          "type": "address[]"
        }
      ],
      "stateMutability": "view",
      "type": "function"
    },
    {
      "inputs": [],
      "name": "getDepositTokens",
      "outputs": [
        {
          "internalType": "address[]",
          "name": "",
          "type": "address[]"
        }
      ],
      "stateMutability": "view",
      "type": "function"
    },
    {
      "inputs": [
        {
          "internalType": "address",
          "name": "account_",
          "type": "address"
        }
      ],
      "name": "getDepositTokensOfAccount",
      "outputs": [
        {
          "internalType": "address[]",
          "name": "",
          "type": "address[]"
        }
      ],
      "stateMutability": "view",
      "type": "function"
    },
    {
      "inputs": [],
      "name": "getRewardsDistributors",
      "outputs": [
        {
          "internalType": "contract IRewardsDistributor[]",
          "name": "",
          "type": "address[]"
        }
      ],
      "stateMutability": "view",
      "type": "function"
    },
    {
      "inputs": [],
      "name": "governor",
      "outputs": [
        {
          "internalType": "address",
          "name": "",
          "type": "address"
        }
      ],
      "stateMutability": "view",
      "type": "function"
    },
    {
      "inputs": [
        {
          "internalType": "contract IPoolRegistry",
          "name": "poolRegistry_",
          "type": "address"
        }
      ],
      "name": "initialize",
      "outputs": [],
      "stateMutability": "nonpayable",
      "type": "function"
    },
    {
      "inputs": [],
      "name": "isSwapActive",
      "outputs": [
        {
          "internalType": "bool",
          "name": "",
          "type": "bool"
        }
      ],
      "stateMutability": "view",
      "type": "function"
    },
    {
      "inputs": [],
      "name": "issueFee",
      "outputs": [
        {
          "internalType": "uint256",
          "name": "",
          "type": "uint256"
        }
      ],
      "stateMutability": "view",
      "type": "function"
    },
    {
      "inputs": [
        {
          "internalType": "contract ISyntheticToken",
          "name": "syntheticToken_",
          "type": "address"
        },
        {
          "internalType": "address",
          "name": "account_",
          "type": "address"
        },
        {
          "internalType": "uint256",
          "name": "amountToRepay_",
          "type": "uint256"
        },
        {
          "internalType": "contract IDepositToken",
          "name": "depositToken_",
          "type": "address"
        }
      ],
      "name": "liquidate",
      "outputs": [
        {
          "internalType": "uint256",
          "name": "_totalSeized",
          "type": "uint256"
        },
        {
          "internalType": "uint256",
          "name": "_toLiquidator",
          "type": "uint256"
        },
        {
          "internalType": "uint256",
          "name": "_fee",
          "type": "uint256"
        }
      ],
      "stateMutability": "nonpayable",
      "type": "function"
    },
    {
      "inputs": [],
      "name": "liquidationFees",
      "outputs": [
        {
          "internalType": "uint128",
          "name": "liquidatorIncentive",
          "type": "uint128"
        },
        {
          "internalType": "uint128",
          "name": "protocolFee",
          "type": "uint128"
        }
      ],
      "stateMutability": "view",
      "type": "function"
    },
    {
      "inputs": [],
      "name": "masterOracle",
      "outputs": [
        {
          "internalType": "contract IMasterOracle",
          "name": "",
          "type": "address"
        }
      ],
      "stateMutability": "view",
      "type": "function"
    },
    {
      "inputs": [],
      "name": "maxLiquidable",
      "outputs": [
        {
          "internalType": "uint256",
          "name": "",
          "type": "uint256"
        }
      ],
      "stateMutability": "view",
      "type": "function"
    },
    {
      "inputs": [],
      "name": "open",
      "outputs": [],
      "stateMutability": "nonpayable",
      "type": "function"
    },
    {
      "inputs": [],
      "name": "pause",
      "outputs": [],
      "stateMutability": "nonpayable",
      "type": "function"
    },
    {
      "inputs": [],
      "name": "paused",
      "outputs": [
        {
          "internalType": "bool",
          "name": "",
          "type": "bool"
        }
      ],
      "stateMutability": "view",
      "type": "function"
    },
    {
      "inputs": [],
      "name": "poolRegistry",
      "outputs": [
        {
          "internalType": "contract IPoolRegistry",
          "name": "",
          "type": "address"
        }
      ],
      "stateMutability": "view",
      "type": "function"
    },
    {
      "inputs": [],
      "name": "proposedGovernor",
      "outputs": [
        {
          "internalType": "address",
          "name": "",
          "type": "address"
        }
      ],
      "stateMutability": "view",
      "type": "function"
    },
    {
      "inputs": [
        {
          "internalType": "contract ISyntheticToken",
          "name": "syntheticToken_",
          "type": "address"
        },
        {
          "internalType": "uint256",
          "name": "totalToSeize_",
          "type": "uint256"
        },
        {
          "internalType": "contract IDepositToken",
          "name": "depositToken_",
          "type": "address"
        }
      ],
      "name": "quoteLiquidateIn",
      "outputs": [
        {
          "internalType": "uint256",
          "name": "_amountToRepay",
          "type": "uint256"
        },
        {
          "internalType": "uint256",
          "name": "_toLiquidator",
          "type": "uint256"
        },
        {
          "internalType": "uint256",
          "name": "_fee",
          "type": "uint256"
        }
      ],
      "stateMutability": "view",
      "type": "function"
    },
    {
      "inputs": [
        {
          "internalType": "contract ISyntheticToken",
          "name": "syntheticToken_",
          "type": "address"
        },
        {
          "internalType": "address",
          "name": "account_",
          "type": "address"
        },
        {
          "internalType": "contract IDepositToken",
          "name": "depositToken_",
          "type": "address"
        }
      ],
      "name": "quoteLiquidateMax",
      "outputs": [
        {
          "internalType": "uint256",
          "name": "_maxAmountToRepay",
          "type": "uint256"
        }
      ],
      "stateMutability": "view",
      "type": "function"
    },
    {
      "inputs": [
        {
          "internalType": "contract ISyntheticToken",
          "name": "syntheticToken_",
          "type": "address"
        },
        {
          "internalType": "uint256",
          "name": "amountToRepay_",
          "type": "uint256"
        },
        {
          "internalType": "contract IDepositToken",
          "name": "depositToken_",
          "type": "address"
        }
      ],
      "name": "quoteLiquidateOut",
      "outputs": [
        {
          "internalType": "uint256",
          "name": "_totalToSeize",
          "type": "uint256"
        },
        {
          "internalType": "uint256",
          "name": "_toLiquidator",
          "type": "uint256"
        },
        {
          "internalType": "uint256",
          "name": "_fee",
          "type": "uint256"
        }
      ],
      "stateMutability": "view",
      "type": "function"
    },
    {
      "inputs": [
        {
          "internalType": "contract ISyntheticToken",
          "name": "syntheticTokenIn_",
          "type": "address"
        },
        {
          "internalType": "contract ISyntheticToken",
          "name": "syntheticTokenOut_",
          "type": "address"
        },
        {
          "internalType": "uint256",
          "name": "amountOut_",
          "type": "uint256"
        }
      ],
      "name": "quoteSwapIn",
      "outputs": [
        {
          "internalType": "uint256",
          "name": "_amountIn",
          "type": "uint256"
        },
        {
          "internalType": "uint256",
          "name": "_fee",
          "type": "uint256"
        }
      ],
      "stateMutability": "view",
      "type": "function"
    },
    {
      "inputs": [
        {
          "internalType": "contract ISyntheticToken",
          "name": "syntheticTokenIn_",
          "type": "address"
        },
        {
          "internalType": "contract ISyntheticToken",
          "name": "syntheticTokenOut_",
          "type": "address"
        },
        {
          "internalType": "uint256",
          "name": "amountIn_",
          "type": "uint256"
        }
      ],
      "name": "quoteSwapOut",
      "outputs": [
        {
          "internalType": "uint256",
          "name": "_amountOut",
          "type": "uint256"
        },
        {
          "internalType": "uint256",
          "name": "_fee",
          "type": "uint256"
        }
      ],
      "stateMutability": "view",
      "type": "function"
    },
    {
      "inputs": [
        {
          "internalType": "contract IDebtToken",
          "name": "debtToken_",
          "type": "address"
        }
      ],
      "name": "removeDebtToken",
      "outputs": [],
      "stateMutability": "nonpayable",
      "type": "function"
    },
    {
      "inputs": [
        {
          "internalType": "contract IDepositToken",
          "name": "depositToken_",
          "type": "address"
        }
      ],
      "name": "removeDepositToken",
      "outputs": [],
      "stateMutability": "nonpayable",
      "type": "function"
    },
    {
      "inputs": [
        {
          "internalType": "address",
          "name": "account_",
          "type": "address"
        }
      ],
      "name": "removeFromDebtTokensOfAccount",
      "outputs": [],
      "stateMutability": "nonpayable",
      "type": "function"
    },
    {
      "inputs": [
        {
          "internalType": "address",
          "name": "account_",
          "type": "address"
        }
      ],
      "name": "removeFromDepositTokensOfAccount",
      "outputs": [],
      "stateMutability": "nonpayable",
      "type": "function"
    },
    {
      "inputs": [
        {
          "internalType": "contract IRewardsDistributor",
          "name": "distributor_",
          "type": "address"
        }
      ],
      "name": "removeRewardsDistributor",
      "outputs": [],
      "stateMutability": "nonpayable",
      "type": "function"
    },
    {
      "inputs": [],
      "name": "repayFee",
      "outputs": [
        {
          "internalType": "uint256",
          "name": "",
          "type": "uint256"
        }
      ],
      "stateMutability": "view",
      "type": "function"
    },
    {
      "inputs": [],
      "name": "shutdown",
      "outputs": [],
      "stateMutability": "nonpayable",
      "type": "function"
    },
    {
      "inputs": [
        {
          "internalType": "contract ISyntheticToken",
          "name": "syntheticTokenIn_",
          "type": "address"
        },
        {
          "internalType": "contract ISyntheticToken",
          "name": "syntheticTokenOut_",
          "type": "address"
        },
        {
          "internalType": "uint256",
          "name": "amountIn_",
          "type": "uint256"
        }
      ],
      "name": "swap",
      "outputs": [
        {
          "internalType": "uint256",
          "name": "_amountOut",
          "type": "uint256"
        },
        {
          "internalType": "uint256",
          "name": "_fee",
          "type": "uint256"
        }
      ],
      "stateMutability": "nonpayable",
      "type": "function"
    },
    {
      "inputs": [],
      "name": "swapFee",
      "outputs": [
        {
          "internalType": "uint256",
          "name": "",
          "type": "uint256"
        }
      ],
      "stateMutability": "view",
      "type": "function"
    },
    {
      "inputs": [
        {
          "internalType": "contract IERC20",
          "name": "token_",
          "type": "address"
        },
        {
          "internalType": "address",
          "name": "to_",
          "type": "address"
        },
        {
          "internalType": "uint256",
          "name": "amount_",
          "type": "uint256"
        }
      ],
      "name": "sweep",
      "outputs": [],
      "stateMutability": "nonpayable",
      "type": "function"
    },
    {
      "inputs": [],
      "name": "toggleIsSwapActive",
      "outputs": [],
      "stateMutability": "nonpayable",
      "type": "function"
    },
    {
      "inputs": [
        {
          "internalType": "address",
          "name": "proposedGovernor_",
          "type": "address"
        }
      ],
      "name": "transferGovernorship",
      "outputs": [],
      "stateMutability": "nonpayable",
      "type": "function"
    },
    {
      "inputs": [],
      "name": "treasury",
      "outputs": [
        {
          "internalType": "contract ITreasury",
          "name": "",
          "type": "address"
        }
      ],
      "stateMutability": "view",
      "type": "function"
    },
    {
      "inputs": [],
      "name": "unpause",
      "outputs": [],
      "stateMutability": "nonpayable",
      "type": "function"
    },
    {
      "inputs": [
        {
          "internalType": "uint256",
          "name": "newDebtFloorInUsd_",
          "type": "uint256"
        }
      ],
      "name": "updateDebtFloor",
      "outputs": [],
      "stateMutability": "nonpayable",
      "type": "function"
    },
    {
      "inputs": [
        {
          "internalType": "uint256",
          "name": "newDepositFee_",
          "type": "uint256"
        }
      ],
      "name": "updateDepositFee",
      "outputs": [],
      "stateMutability": "nonpayable",
      "type": "function"
    },
    {
      "inputs": [
        {
          "internalType": "uint256",
          "name": "newIssueFee_",
          "type": "uint256"
        }
      ],
      "name": "updateIssueFee",
      "outputs": [],
      "stateMutability": "nonpayable",
      "type": "function"
    },
    {
      "inputs": [
        {
          "internalType": "uint128",
          "name": "newLiquidatorIncentive_",
          "type": "uint128"
        }
      ],
      "name": "updateLiquidatorIncentive",
      "outputs": [],
      "stateMutability": "nonpayable",
      "type": "function"
    },
    {
      "inputs": [
        {
          "internalType": "uint256",
          "name": "newMaxLiquidable_",
          "type": "uint256"
        }
      ],
      "name": "updateMaxLiquidable",
      "outputs": [],
      "stateMutability": "nonpayable",
      "type": "function"
    },
    {
      "inputs": [
        {
          "internalType": "uint128",
          "name": "newProtocolLiquidationFee_",
          "type": "uint128"
        }
      ],
      "name": "updateProtocolLiquidationFee",
      "outputs": [],
      "stateMutability": "nonpayable",
      "type": "function"
    },
    {
      "inputs": [
        {
          "internalType": "uint256",
          "name": "newRepayFee_",
          "type": "uint256"
        }
      ],
      "name": "updateRepayFee",
      "outputs": [],
      "stateMutability": "nonpayable",
      "type": "function"
    },
    {
      "inputs": [
        {
          "internalType": "uint256",
          "name": "newSwapFee_",
          "type": "uint256"
        }
      ],
      "name": "updateSwapFee",
      "outputs": [],
      "stateMutability": "nonpayable",
      "type": "function"
    },
    {
      "inputs": [
        {
          "internalType": "contract ITreasury",
          "name": "newTreasury_",
          "type": "address"
        }
      ],
      "name": "updateTreasury",
      "outputs": [],
      "stateMutability": "nonpayable",
      "type": "function"
    },
    {
      "inputs": [
        {
          "internalType": "uint256",
          "name": "newWithdrawFee_",
          "type": "uint256"
        }
      ],
      "name": "updateWithdrawFee",
      "outputs": [],
      "stateMutability": "nonpayable",
      "type": "function"
    },
    {
      "inputs": [],
      "name": "withdrawFee",
      "outputs": [
        {
          "internalType": "uint256",
          "name": "",
          "type": "uint256"
        }
      ],
      "stateMutability": "view",
      "type": "function"
    },
    {
      "stateMutability": "payable",
      "type": "receive"
    }
  ],
  "transactionHash": "0x73a482e0ca8cca668d4119c32bd0e3cefc8c2bd8b0fae32584e2040d83ee0c59",
  "args": [],
  "numDeployments": 1,
  "solcInputHash": "90a16760c1e9eb3a1fb6ca594389bd73",
  "bytecode": "0x608060405234801561001057600080fd5b50600280546001600160a01b031916339081179091556040516000907fd4459d5b8b913cab0244230fd9b1c08b6ceace7fe9230e60d0f74cbffdf849d0908290a3614c9d806100606000396000f3fe6080604052600436106103e85760003560e01c80637f51bb1f11610208578063d283e75f11610118578063ecf3a3f9116100ab578063f8977b841161007a578063f8977b8414610c42578063fb01600d14610c62578063fc0e74d114610c77578063fcfff16f14610c8c578063ffa1ad7414610ca157610406565b8063ecf3a3f914610be2578063f0c80d3b14610bf7578063f3b27bc314610c17578063f609280914610c2c57610406565b8063df791e50116100e7578063df791e5014610b76578063e35bff9614610b96578063e941fa7814610bb7578063eaada38214610bcd57610406565b8063d283e75f14610acc578063daf635de14610aec578063dbe466b114610b0c578063dde3ab9514610b2c57610406565b8063a8ffba641161019b578063c415b95c1161016a578063c415b95c14610a0c578063c4d66de814610a21578063c4d68a1a14610a41578063cfc0c69f14610a61578063d176e05f14610aac57610406565b8063a8ffba641461098c578063afcff50f146109ac578063b6aa515b146109cc578063bf16f65a146109ec57610406565b80638a11a370116101d75780638a11a37014610901578063984a68b5146109215780639ab620dd146109415780639f8f0fa81461095657610406565b80637f51bb1f146108765780638456cb591461089657806387cddc86146108ab57806388156a35146108e157610406565b80634ff9b74a1161030357806363c56d421161029657806375c6f8ec1161026557806375c6f8ec146107e0578063770b69b41461080057806379e40cba146108205780637c0f59f4146108405780637d3551631461085657610406565b806363c56d421461076a57806367a527931461078a5780636b4f41af146107a05780636c339367146107c057610406565b80635c975abb116102d25780635c975abb146106f55780635cd24fd21461070a57806361d027b31461072a57806362c067671461074a57610406565b80634ff9b74a1461068a57806354cf2aeb1461069f57806356aaee2d146106b557806357f2e581146106d557610406565b80632adcb0c61161037b5780633de2f6b21161034a5780633de2f6b2146106155780633f4ba83a146106355780633f5fc1311461064a578063450058f81461066a57610406565b80632adcb0c6146105825780632dd6adb5146105a25780633605b51b146105b85780633c2dc254146105da57610406565b80631ccfbc4f116103b75780631ccfbc4f146104e957806323e3fbd51461051e578063275038d01461053e5780632a9133c11461055e57610406565b8063017def571461041f5780630c340a24146104415780631a0dd00b1461047e5780631a4660ce146104c957610406565b3661040657604051636436c22d60e11b815260040160405180910390fd5b60405163a0152e6360e01b815260040160405180910390fd5b34801561042b57600080fd5b5061043f61043a36600461484f565b610cdf565b005b34801561044d57600080fd5b50600254610461906001600160a01b031681565b6040516001600160a01b0390911681526020015b60405180910390f35b34801561048a57600080fd5b506104b961049936600461487d565b6001600160a01b0390811660009081526016602052604090205416151590565b6040519015158152602001610475565b3480156104d557600080fd5b5061043f6104e436600461484f565b610d96565b3480156104f557600080fd5b5061050961050436600461489a565b610e24565b60408051928352602083019190915201610475565b34801561052a57600080fd5b5061050961053936600461487d565b610f6d565b34801561054a57600080fd5b5061043f61055936600461487d565b6111cd565b34801561056a57600080fd5b5061057460065481565b604051908152602001610475565b34801561058e57600080fd5b5061050961059d36600461489a565b611221565b3480156105ae57600080fd5b50610574600b5481565b3480156105c457600080fd5b506105cd611354565b60405161047591906148db565b3480156105e657600080fd5b506105fa6105f5366004614928565b6113b6565b60408051938452602084019290925290820152606001610475565b34801561062157600080fd5b506105fa61063036600461496a565b611594565b34801561064157600080fd5b5061043f611bda565b34801561065657600080fd5b5061043f61066536600461487d565b611c8a565b34801561067657600080fd5b506104b961068536600461487d565b611cdb565b34801561069657600080fd5b506105cd611cee565b3480156106ab57600080fd5b5061057460095481565b3480156106c157600080fd5b5061043f6106d036600461487d565b611cff565b3480156106e157600080fd5b5061043f6106f036600461484f565b611e34565b34801561070157600080fd5b506104b9611eeb565b34801561071657600080fd5b5061043f6107253660046149bd565b611f87565b34801561073657600080fd5b50600d54610461906001600160a01b031681565b34801561075657600080fd5b5061043f61076536600461489a565b61207d565b34801561077657600080fd5b5061043f61078536600461487d565b6120b6565b34801561079657600080fd5b5061057460055481565b3480156107ac57600080fd5b5061043f6107bb36600461487d565b612289565b3480156107cc57600080fd5b506105fa6107db366004614928565b61242f565b3480156107ec57600080fd5b5061043f6107fb36600461487d565b6125c3565b34801561080c57600080fd5b5061043f61081b36600461487d565b612612565b34801561082c57600080fd5b5061043f61083b36600461487d565b612661565b34801561084c57600080fd5b5061057460085481565b34801561086257600080fd5b506105cd61087136600461487d565b6127e1565b34801561088257600080fd5b5061043f61089136600461487d565b6127ee565b3480156108a257600080fd5b5061043f61293f565b3480156108b757600080fd5b506104616108c636600461487d565b6010602052600090815260409020546001600160a01b031681565b3480156108ed57600080fd5b5061043f6108fc36600461484f565b6129d0565b34801561090d57600080fd5b50600354610461906001600160a01b031681565b34801561092d57600080fd5b5061057461093c3660046149e6565b612a87565b34801561094d57600080fd5b5061043f612be8565b34801561096257600080fd5b5061046161097136600461487d565b6016602052600090815260409020546001600160a01b031681565b34801561099857600080fd5b5061043f6109a73660046149bd565b612c74565b3480156109b857600080fd5b50600c54610461906001600160a01b031681565b3480156109d857600080fd5b5061043f6109e736600461487d565b612d6f565b3480156109f857600080fd5b5061043f610a0736600461484f565b612de3565b348015610a1857600080fd5b50610461612e9a565b348015610a2d57600080fd5b5061043f610a3c36600461487d565b612f17565b348015610a4d57600080fd5b5061043f610a5c36600461487d565b61303e565b348015610a6d57600080fd5b50600a54610a8c906001600160801b0380821691600160801b90041682565b604080516001600160801b03938416815292909116602083015201610475565b348015610ab857600080fd5b506105cd610ac736600461487d565b6131f2565b348015610ad857600080fd5b50610574610ae736600461487d565b6131ff565b348015610af857600080fd5b5061043f610b0736600461484f565b6133d1565b348015610b1857600080fd5b5061043f610b2736600461487d565b613488565b348015610b3857600080fd5b50610b4c610b4736600461487d565b61363c565b6040805195151586526020860194909452928401919091526060830152608082015260a001610475565b348015610b8257600080fd5b50610509610b9136600461489a565b613686565b348015610ba257600080fd5b50600c546104b990600160a01b900460ff1681565b348015610bc357600080fd5b5061057460075481565b348015610bd957600080fd5b50610461613a73565b348015610bee57600080fd5b506104b9613ab8565b348015610c0357600080fd5b5061043f610c1236600461484f565b613b1c565b348015610c2357600080fd5b5061043f613bd3565b348015610c3857600080fd5b5061057460045481565b348015610c4e57600080fd5b506104b9610c5d36600461487d565b613c62565b348015610c6e57600080fd5b506105cd613c6f565b348015610c8357600080fd5b5061043f613c7b565b348015610c9857600080fd5b5061043f613d0e565b348015610cad57600080fd5b50610cd2604051806040016040528060058152602001640312e302e360dc1b81525081565b6040516104759190614a56565b6002546001600160a01b03163314610d0a57604051634b98449160e11b815260040160405180910390fd5b6703782dace9d90000811115610d33576040516361b716bb60e11b815260040160405180910390fd5b60055481811415610d5757604051630333a68160e41b815260040160405180910390fd5b60408051828152602081018490527f828cf983933545af35b9ba46eec951db1cb4c5433c3ec403aeced2963c264790910160405180910390a150600555565b6002546001600160a01b03163314610dc157604051634b98449160e11b815260040160405180910390fd5b60045481811415610de557604051630333a68160e41b815260040160405180910390fd5b60408051828152602081018490527f0662703672e57800b9439de3a419c9155283ad25ea7776c139c876bd8b93bb98910160405180910390a150600455565b60095460009081908015610e5d57610e4e610e4782670de0b6b3a7640000614a9f565b8590613d98565b9350610e5a8482613dcc565b91505b600c60009054906101000a90046001600160a01b03166001600160a01b031663eaada3826040518163ffffffff1660e01b815260040160206040518083038186803b158015610eab57600080fd5b505afa158015610ebf573d6000803e3d6000fd5b505050506040513d601f19601f82011682018060405250810190610ee39190614ab6565b6001600160a01b031663b64663848688876040518463ffffffff1660e01b8152600401610f1293929190614ad3565b60206040518083038186803b158015610f2a57600080fd5b505afa158015610f3e573d6000803e3d6000fd5b505050506040513d601f19601f82011682018060405250810190610f629190614af7565b925050935093915050565b6000806000610f7a613a73565b90506000610f89601386613e04565b905060005b818110156111c5576000610fa460138884613e22565b90506000846001600160a01b0316638d0dba00836001600160a01b0316636f307dc36040518163ffffffff1660e01b815260040160206040518083038186803b158015610ff057600080fd5b505afa158015611004573d6000803e3d6000fd5b505050506040513d601f19601f820116820180604052508101906110289190614ab6565b6040516370a0823160e01b81526001600160a01b038c811660048301528616906370a082319060240160206040518083038186803b15801561106957600080fd5b505afa15801561107d573d6000803e3d6000fd5b505050506040513d601f19601f820116820180604052508101906110a19190614af7565b6040516001600160e01b031960e085901b1681526001600160a01b039092166004830152602482015260440160206040518083038186803b1580156110e557600080fd5b505afa1580156110f9573d6000803e3d6000fd5b505050506040513d601f19601f8201168201806040525081019061111d9190614af7565b90506111298188614b10565b96506111a6826001600160a01b031663df011c416040518163ffffffff1660e01b815260040160206040518083038186803b15801561116757600080fd5b505afa15801561117b573d6000803e3d6000fd5b505050506040513d601f19601f8201168201806040525081019061119f9190614af7565b8290613dcc565b6111b09087614b10565b95505050806111be90614b28565b9050610f8e565b505050915091565b6111d8600e33613e37565b6111f5576040516326688ebb60e11b815260040160405180910390fd5b61120160138233613e59565b61121e5760405163a67d528360e01b815260040160405180910390fd5b50565b600080600c60009054906101000a90046001600160a01b03166001600160a01b031663eaada3826040518163ffffffff1660e01b815260040160206040518083038186803b15801561127257600080fd5b505afa158015611286573d6000803e3d6000fd5b505050506040513d601f19601f820116820180604052508101906112aa9190614ab6565b6001600160a01b031663b64663848686866040518463ffffffff1660e01b81526004016112d993929190614ad3565b60206040518083038186803b1580156112f157600080fd5b505afa158015611305573d6000803e3d6000fd5b505050506040513d601f19601f820116820180604052508101906113299190614af7565b600954909250801561134b5761133f8382613dcc565b9150610f628284614a9f565b50935093915050565b606060158054806020026020016040519081016040528092919081815260200182805480156113ac57602002820191906000526020600020905b81546001600160a01b0316815260019091019060200180831161138e575b5050505050905090565b60408051808201909152600a546001600160801b03808216808452600160801b90920416602083018190526000928392839283916113f391614b43565b6001600160801b031690508681156114245761142161141a83670de0b6b3a7640000614b10565b8290613d98565b90505b61142c613a73565b6001600160a01b031663b6466384886001600160a01b0316636f307dc36040518163ffffffff1660e01b815260040160206040518083038186803b15801561147357600080fd5b505afa158015611487573d6000803e3d6000fd5b505050506040513d601f19601f820116820180604052508101906114ab9190614ab6565b8b846040518463ffffffff1660e01b81526004016114cb93929190614ad3565b60206040518083038186803b1580156114e357600080fd5b505afa1580156114f7573d6000803e3d6000fd5b505050506040513d601f19601f8201168201806040525081019061151b9190614af7565b60208401519096506001600160801b03161561154d57602083015161154a9082906001600160801b0316613dcc565b93505b82516001600160801b0316156115885782516115859061157590670de0b6b3a7640000614b43565b82906001600160801b0316613dcc565b94505b50505093509350939050565b60008060006115a1613ab8565b156115bf57604051631b0e923f60e11b815260040160405180910390fd5b600260015414156116175760405162461bcd60e51b815260206004820152601f60248201527f5265656e7472616e637947756172643a207265656e7472616e742063616c6c0060448201526064015b60405180910390fd5b60026001558361162681613c62565b61164357604051630d8b6eb760e01b815260040160405180910390fd5b85611661576040516310eb483f60e21b815260040160405180910390fd5b336001600160a01b038816141561168b57604051630ecda8a760e01b815260040160405180910390fd5b6001600160a01b0380891660009081526016602052604080822054815163a6afed9560e01b81529151931692839263a6afed95926004808201939182900301818387803b1580156116db57600080fd5b505af11580156116ef573d6000803e3d6000fd5b5050505060006116fe8961363c565b50505050905080156117235760405163202881bd60e11b815260040160405180910390fd5b6040516370a0823160e01b81526001600160a01b038a81166004830152600091908416906370a082319060240160206040518083038186803b15801561176857600080fd5b505afa15801561177c573d6000803e3d6000fd5b505050506040513d601f19601f820116820180604052508101906117a09190614af7565b600b549091506117b08a83613d98565b11156117cf5760405163e292f24f60e01b815260040160405180910390fd5b60006117d9613a73565b600454909150156118af5760006001600160a01b038216638d0dba008e6118008e87614a9f565b6040516001600160e01b031960e085901b1681526001600160a01b039092166004830152602482015260440160206040518083038186803b15801561184457600080fd5b505afa158015611858573d6000803e3d6000fd5b505050506040513d601f19601f8201168201806040525081019061187c9190614af7565b905060008111801561188f575060045481105b156118ad576040516332b9d47360e01b815260040160405180910390fd5b505b6118ba8c8b8b61242f565b6040516370a0823160e01b81526001600160a01b038f81166004830152939b509199509750908a16906370a082319060240160206040518083038186803b15801561190457600080fd5b505afa158015611918573d6000803e3d6000fd5b505050506040513d601f19601f8201168201806040525081019061193c9190614af7565b88111561195c57604051630436f2eb60e51b815260040160405180910390fd5b604051632770a7eb60e21b8152336004820152602481018b90526001600160a01b038d1690639dc29fac90604401600060405180830381600087803b1580156119a457600080fd5b505af11580156119b8573d6000803e3d6000fd5b5050604051632770a7eb60e21b81526001600160a01b038e81166004830152602482018e905287169250639dc29fac9150604401600060405180830381600087803b158015611a0657600080fd5b505af1158015611a1a573d6000803e3d6000fd5b505060405163b2a02ff160e01b81526001600160a01b038c16925063b2a02ff19150611a4e908e9033908c90600401614ad3565b600060405180830381600087803b158015611a6857600080fd5b505af1158015611a7c573d6000803e3d6000fd5b505050506000861115611b7157886001600160a01b031663b2a02ff18c600c60009054906101000a90046001600160a01b03166001600160a01b031663c415b95c6040518163ffffffff1660e01b815260040160206040518083038186803b158015611ae757600080fd5b505afa158015611afb573d6000803e3d6000fd5b505050506040513d601f19601f82011682018060405250810190611b1f9190614ab6565b896040518463ffffffff1660e01b8152600401611b3e93929190614ad3565b600060405180830381600087803b158015611b5857600080fd5b505af1158015611b6c573d6000803e3d6000fd5b505050505b604080518b8152602081018a90529081018790526001600160a01b03808e1691908d169033907fe1c3870e3d7d5199a16d200133088e6e3f7012d28571e442a110b4c83b5e3b949060600160405180910390a45050505050600180819055509450945094915050565b611be2611eeb565b611bff5760405163bc871ce560e01b815260040160405180910390fd5b611c07613ab8565b15611c2557604051631b0e923f60e11b815260040160405180910390fd5b6002546001600160a01b03163314611c5057604051634b98449160e11b815260040160405180910390fd5b6003805460ff60a01b1916905560405133907f5db9ee0a495bf2e6ff9c91a7834c1ba4fdd244a5e8aa4e537bd38aeae4b073aa90600090a2565b611c95600e33613e37565b611cb2576040516326688ebb60e11b815260040160405180910390fd5b611cbe60138233613e66565b61121e5760405163dd40dad960e01b815260040160405180910390fd5b6000611ce8601183613e37565b92915050565b6060611cfa6011613e73565b905090565b6002546001600160a01b03163314611d2a57604051634b98449160e11b815260040160405180910390fd5b6001600160a01b038116611d515760405163fb7566d760e01b815260040160405180910390fd5b60155460005b81811015611dba5760158181548110611d7257611d72614b6e565b6000918252602090912001546001600160a01b0384811691161415611daa57604051631e577fa560e31b815260040160405180910390fd5b611db381614b28565b9050611d57565b506015805460018101825560009182527f55f448fdea98c4d29eb340757ef0a66cd03dbb9538908a6a81d96026b71ec4750180546001600160a01b0319166001600160a01b03851690811790915560405190917f5579b1eead2d904c2b05255a92f5a4a4f3e234ae0a4efe538adef3c1794e1cea91a25050565b6002546001600160a01b03163314611e5f57604051634b98449160e11b815260040160405180910390fd5b6703782dace9d90000811115611e88576040516361b716bb60e11b815260040160405180910390fd5b60065481811415611eac57604051630333a68160e41b815260040160405180910390fd5b60408051828152602081018490527f7aef17a0caeda11810cdf2a40c79ac1340553588671fb35d5cc8d0a3fe2883be910160405180910390a150600655565b600354600090600160a01b900460ff1680611cfa5750600c60009054906101000a90046001600160a01b03166001600160a01b0316635c975abb6040518163ffffffff1660e01b815260040160206040518083038186803b158015611f4f57600080fd5b505afa158015611f63573d6000803e3d6000fd5b505050506040513d601f19601f82011682018060405250810190611cfa9190614b84565b6002546001600160a01b03163314611fb257604051634b98449160e11b815260040160405180910390fd5b6703782dace9d90000816001600160801b03161115611fe4576040516361b716bb60e11b815260040160405180910390fd5b600a546001600160801b03600160801b909104811690821681141561201c57604051630333a68160e41b815260040160405180910390fd5b604080518281526001600160801b03841660208201527fe0dac1dcc46eceed1fdb7416944e7161273637fb346a67d6f0fce8de3e952f2f910160405180910390a150600a80546001600160801b03928316600160801b029216919091179055565b612085613e80565b6001600160a01b0383166120a25761209d8282613ead565b505050565b61209d6001600160a01b0384168383613fc6565b6002546001600160a01b031633146120e157604051634b98449160e11b815260040160405180910390fd5b6001600160a01b0381166121085760405163fb7566d760e01b815260040160405180910390fd5b6015548060005b8281101561216757836001600160a01b03166015828154811061213457612134614b6e565b6000918252602090912001546001600160a01b0316141561215757809150612167565b61216081614b28565b905061210f565b5081811415612189576040516362c4c75f60e01b815260040160405180910390fd5b612194600183614a9f565b81146122125760156121a7600184614a9f565b815481106121b7576121b7614b6e565b600091825260209091200154601580546001600160a01b0390921691839081106121e3576121e3614b6e565b9060005260206000200160006101000a8154816001600160a01b0302191690836001600160a01b031602179055505b601580548061222357612223614ba6565b6000828152602090819020600019908301810180546001600160a01b03191690559091019091556040516001600160a01b03851681527f5412e32b52c11e4b232ab59f3660d55b48eb20735ccb2c67a0a1ebea0d6fe019910160405180910390a1505050565b6002546001600160a01b031633146122b457604051634b98449160e11b815260040160405180910390fd5b6001600160a01b0381166122db5760405163fb7566d760e01b815260040160405180910390fd5b6000816001600160a01b0316638230ecd66040518163ffffffff1660e01b815260040160206040518083038186803b15801561231657600080fd5b505afa15801561232a573d6000803e3d6000fd5b505050506040513d601f19601f8201168201806040525081019061234e9190614ab6565b90506001600160a01b0381166123775760405163013a1b4360e51b815260040160405180910390fd5b6001600160a01b0381811660009081526016602052604090205416156123b05760405163fa9b809960e01b815260040160405180910390fd5b6123bb601183614018565b6123d857604051631f477b5760e11b815260040160405180910390fd5b6001600160a01b0381811660009081526016602052604080822080546001600160a01b0319169386169384179055517fad48bee6bbb1b8ece321157ad29afc3c6baa177f8dc043132d65038cc601cdd69190a25050565b600080600061243c613a73565b6001600160a01b031663b646638487866001600160a01b0316636f307dc36040518163ffffffff1660e01b815260040160206040518083038186803b15801561248457600080fd5b505afa158015612498573d6000803e3d6000fd5b505050506040513d601f19601f820116820180604052508101906124bc9190614ab6565b886040518463ffffffff1660e01b81526004016124db93929190614ad3565b60206040518083038186803b1580156124f357600080fd5b505afa158015612507573d6000803e3d6000fd5b505050506040513d601f19601f8201168201806040525081019061252b9190614af7565b60408051808201909152600a546001600160801b038082168352600160801b9091041660208201819052919350901561257a5760208101516125779084906001600160801b0316613dcc565b91505b80516001600160801b0316156125ad5780516125a09084906001600160801b0316613dcc565b6125aa9084614b10565b92505b6125b78383614b10565b93505093509350939050565b6125cc33611cdb565b6125e9576040516304f8b91760e51b815260040160405180910390fd5b6125f560148233613e59565b61121e576040516359c937f160e01b815260040160405180910390fd5b61261b33611cdb565b612638576040516304f8b91760e51b815260040160405180910390fd5b61264460148233613e66565b61121e57604051631f477b5760e11b815260040160405180910390fd5b6002546001600160a01b0316331461268c57604051634b98449160e11b815260040160405180910390fd5b6001600160a01b0381166126b35760405163fb7566d760e01b815260040160405180910390fd5b6000816001600160a01b0316636f307dc36040518163ffffffff1660e01b815260040160206040518083038186803b1580156126ee57600080fd5b505afa158015612702573d6000803e3d6000fd5b505050506040513d601f19601f820116820180604052508101906127269190614ab6565b6001600160a01b0380821660009081526010602052604090205491925016156127625760405163374f601360e11b815260040160405180910390fd5b61276d600e83614018565b61278a5760405163dd40dad960e01b815260040160405180910390fd5b6001600160a01b0381811660009081526010602052604080822080546001600160a01b0319169386169384179055517fdc705e658c7b6c6c01f5802457bf4ffb99f204bf1603e7b1ae3d4c7536611bc29190a25050565b6060611ce860138361402d565b6002546001600160a01b0316331461281957604051634b98449160e11b815260040160405180910390fd5b6001600160a01b0381166128405760405163fb7566d760e01b815260040160405180910390fd5b600d546001600160a01b0390811690821681141561287157604051630333a68160e41b815260040160405180910390fd5b6001600160a01b038116156128dc576040516326ed7c7960e11b81526001600160a01b038381166004830152821690634ddaf8f290602401600060405180830381600087803b1580156128c357600080fd5b505af11580156128d7573d6000803e3d6000fd5b505050505b816001600160a01b0316816001600160a01b03167f4ab5be82436d353e61ca18726e984e561f5c1cc7c6d38b29d2553c790434705a60405160405180910390a350600d80546001600160a01b0319166001600160a01b0392909216919091179055565b612947611eeb565b1561296557604051631309a56360e01b815260040160405180910390fd5b6002546001600160a01b0316331461299057604051634b98449160e11b815260040160405180910390fd5b6003805460ff60a01b1916600160a01b17905560405133907f62e78cea01bee320cd4e420270b5ea74000d11b0c9f74754ebdbfc544b05a25890600090a2565b6002546001600160a01b031633146129fb57604051634b98449160e11b815260040160405180910390fd5b6703782dace9d90000811115612a24576040516361b716bb60e11b815260040160405180910390fd5b60085481811415612a4857604051630333a68160e41b815260040160405180910390fd5b60408051828152602081018490527fdd45ca427fa57d0870314eb55586e91bcdd31d7cd393e3278caaae9dfb749688910160405180910390a150600855565b600080612a938461363c565b5050505090508015612aa9576000915050612be1565b6040516370a0823160e01b81526001600160a01b038581166004830152600091612b32918891908716906370a082319060240160206040518083038186803b158015612af457600080fd5b505afa158015612b08573d6000803e3d6000fd5b505050506040513d601f19601f82011682018060405250810190612b2c9190614af7565b866113b6565b5050600b546001600160a01b03888116600090815260166020526040908190205490516370a0823160e01b81528983166004820152939450612bd0939116906370a082319060240160206040518083038186803b158015612b9257600080fd5b505afa158015612ba6573d6000803e3d6000fd5b505050506040513d601f19601f82011682018060405250810190612bca9190614af7565b90613dcc565b925082811015612bde578092505b50505b9392505050565b6002546001600160a01b03163314612c1357604051634b98449160e11b815260040160405180910390fd5b600c54604051600160a01b90910460ff1615808252907fc8011ac148e14ab1e8f93a022ebc29088beedc705027c8eb9514d6d69c5b23639060200160405180910390a1600c8054911515600160a01b0260ff60a01b19909216919091179055565b6002546001600160a01b03163314612c9f57604051634b98449160e11b815260040160405180910390fd5b6703782dace9d90000816001600160801b03161115612cd1576040516361b716bb60e11b815260040160405180910390fd5b600a546001600160801b03908116908216811415612d0257604051630333a68160e41b815260040160405180910390fd5b604080518281526001600160801b03841660208201527f400289ff508344720ca1c0ffff41672b308ae46b4c8227282c2dea56d8595671910160405180910390a150600a80546fffffffffffffffffffffffffffffffff19166001600160801b0392909216919091179055565b6002546001600160a01b03163314612d9a57604051634b98449160e11b815260040160405180910390fd5b6001600160a01b038116612dc157604051634c267bfb60e01b815260040160405180910390fd5b600380546001600160a01b0319166001600160a01b0392909216919091179055565b6002546001600160a01b03163314612e0e57604051634b98449160e11b815260040160405180910390fd5b6703782dace9d90000811115612e37576040516361b716bb60e11b815260040160405180910390fd5b60095481811415612e5b57604051630333a68160e41b815260040160405180910390fd5b60408051828152602081018490527fc8273cce54f5cf71712dee009c7e6438ae7e1db578da0ec076cf360af45501b9910160405180910390a150600955565b600c54604080516331056e5760e21b815290516000926001600160a01b03169163c415b95c916004808301926020929190829003018186803b158015612edf57600080fd5b505afa158015612ef3573d6000803e3d6000fd5b505050506040513d601f19601f82011682018060405250810190611cfa9190614ab6565b600054610100900460ff1680612f30575060005460ff16155b612f4c5760405162461bcd60e51b815260040161160e90614bbc565b600054610100900460ff16158015612f6e576000805461ffff19166101011790555b6001600160a01b038216612f9557604051637cb62f2b60e11b815260040160405180910390fd5b612f9d61403b565b612fa56140aa565b600c80546001600160a81b0319166001600160a01b03841617600160a01b179055660aa87bee5380006008556040805180820190915267016345785d8a0000815267011c37937e08000060209091015277011c37937e0800000000000000000000016345785d8a0000600a556706f05b59d3b20000600b55661550f7dca70000600955801561303a576000805461ff00191690555b5050565b6002546001600160a01b0316331461306957604051634b98449160e11b815260040160405180910390fd5b6000816001600160a01b03166318160ddd6040518163ffffffff1660e01b815260040160206040518083038186803b1580156130a457600080fd5b505afa1580156130b8573d6000803e3d6000fd5b505050506040513d601f19601f820116820180604052508101906130dc9190614af7565b11156130fb5760405163066097f160e31b815260040160405180910390fd5b61310660118261411d565b613123576040516359c937f160e01b815260040160405180910390fd5b60166000826001600160a01b0316638230ecd66040518163ffffffff1660e01b815260040160206040518083038186803b15801561316057600080fd5b505afa158015613174573d6000803e3d6000fd5b505050506040513d601f19601f820116820180604052508101906131989190614ab6565b6001600160a01b03908116825260208201929092526040908101600090812080546001600160a01b03191690559051918316917f81e9205ee5a9e1289fad5baa5e74bd49d4613652eb4626bb15925bf9fdbc0feb9190a250565b6060611ce860148361402d565b60008061320a613a73565b90506000613219601485613e04565b905060005b818110156133c957600061323460148784613e22565b9050836001600160a01b0316638d0dba00826001600160a01b0316638230ecd66040518163ffffffff1660e01b815260040160206040518083038186803b15801561327e57600080fd5b505afa158015613292573d6000803e3d6000fd5b505050506040513d601f19601f820116820180604052508101906132b69190614ab6565b6040516370a0823160e01b81526001600160a01b038a811660048301528516906370a082319060240160206040518083038186803b1580156132f757600080fd5b505afa15801561330b573d6000803e3d6000fd5b505050506040513d601f19601f8201168201806040525081019061332f9190614af7565b6040516001600160e01b031960e085901b1681526001600160a01b039092166004830152602482015260440160206040518083038186803b15801561337357600080fd5b505afa158015613387573d6000803e3d6000fd5b505050506040513d601f19601f820116820180604052508101906133ab9190614af7565b6133b59086614b10565b945050806133c290614b28565b905061321e565b505050919050565b6002546001600160a01b031633146133fc57604051634b98449160e11b815260040160405180910390fd5b6703782dace9d90000811115613425576040516361b716bb60e11b815260040160405180910390fd5b6007548181141561344957604051630333a68160e41b815260040160405180910390fd5b60408051828152602081018490527f733071ab8253b372ed26a6d1b04aec71c4bfcd209c93397df32bb77478cdd2c8910160405180910390a150600755565b6002546001600160a01b031633146134b357604051634b98449160e11b815260040160405180910390fd5b6000816001600160a01b03166318160ddd6040518163ffffffff1660e01b815260040160206040518083038186803b1580156134ee57600080fd5b505afa158015613502573d6000803e3d6000fd5b505050506040513d601f19601f820116820180604052508101906135269190614af7565b11156135455760405163066097f160e31b815260040160405180910390fd5b613550600e8261411d565b61356d5760405163a67d528360e01b815260040160405180910390fd5b60106000826001600160a01b0316636f307dc36040518163ffffffff1660e01b815260040160206040518083038186803b1580156135aa57600080fd5b505afa1580156135be573d6000803e3d6000fd5b505050506040513d601f19601f820116820180604052508101906135e29190614ab6565b6001600160a01b03908116825260208201929092526040908101600090812080546001600160a01b03191690559051918316917fe5a19a76470297a1f85f9a38f3ff148b4c8cdc1209e074dbe59db5e22eb31a3a9190a250565b600080600080600061364d866131ff565b925061365886610f6d565b808511159650909450915081831061367157600061367b565b61367b8383614a9f565b905091939590929450565b600080613691613ab8565b156136af57604051631b0e923f60e11b815260040160405180910390fd5b600260015414156137025760405162461bcd60e51b815260206004820152601f60248201527f5265656e7472616e637947756172643a207265656e7472616e742063616c6c00604482015260640161160e565b60026001556001600160a01b038086166000908152601660205260409020548691166137415760405163a596698b60e01b815260040160405180910390fd5b6001600160a01b0380861660009081526016602052604090205486911661377b5760405163a596698b60e01b815260040160405180910390fd5b600c54600160a01b900460ff166137a557604051633840404b60e21b815260040160405180910390fd5b84158061382757506040516370a0823160e01b81523360048201526001600160a01b038816906370a082319060240160206040518083038186803b1580156137ec57600080fd5b505afa158015613800573d6000803e3d6000fd5b505050506040513d601f19601f820116820180604052508101906138249190614af7565b85115b156138455760405163ca99073960e01b815260040160405180910390fd5b604051632770a7eb60e21b8152336004820152602481018690526001600160a01b03881690639dc29fac90604401600060405180830381600087803b15801561388d57600080fd5b505af11580156138a1573d6000803e3d6000fd5b505050506138b0878787611221565b909450925082156139b157856001600160a01b03166340c10f19600c60009054906101000a90046001600160a01b03166001600160a01b031663c415b95c6040518163ffffffff1660e01b815260040160206040518083038186803b15801561391857600080fd5b505afa15801561392c573d6000803e3d6000fd5b505050506040513d601f19601f820116820180604052508101906139509190614ab6565b6040516001600160e01b031960e084901b1681526001600160a01b03909116600482015260248101869052604401600060405180830381600087803b15801561399857600080fd5b505af11580156139ac573d6000803e3d6000fd5b505050505b6040516340c10f1960e01b8152336004820152602481018590526001600160a01b038716906340c10f1990604401600060405180830381600087803b1580156139f957600080fd5b505af1158015613a0d573d6000803e3d6000fd5b505060408051888152602081018890529081018690526001600160a01b03808a1693508a16915033907fafd74f009c0ff7627726f24b568ee5529cd297f6a7a1e43ec363443a13a584209060600160405180910390a45050600180559094909350915050565b600c5460408051637556d1c160e11b815290516000926001600160a01b03169163eaada382916004808301926020929190829003018186803b158015612edf57600080fd5b600354600090600160a81b900460ff1680611cfa5750600c60009054906101000a90046001600160a01b03166001600160a01b031663ecf3a3f96040518163ffffffff1660e01b815260040160206040518083038186803b158015611f4f57600080fd5b6002546001600160a01b03163314613b4757604051634b98449160e11b815260040160405180910390fd5b670de0b6b3a7640000811115613b7057604051633c2c00b560e21b815260040160405180910390fd5b600b5481811415613b9457604051630333a68160e41b815260040160405180910390fd5b60408051828152602081018490527f6d8ed4ad9ba67058e16e32fc3c8da2e3358da6cd1599e0e0fb2630d0a19fd49c910160405180910390a150600b55565b6003546001600160a01b0316338114613bff5760405163038cdbad60e31b815260040160405180910390fd5b6002546040516001600160a01b038084169216907fd4459d5b8b913cab0244230fd9b1c08b6ceace7fe9230e60d0f74cbffdf849d090600090a3600280546001600160a01b039092166001600160a01b0319928316179055600380549091169055565b6000611ce8600e83613e37565b6060611cfa600e613e73565b613c83613ab8565b15613ca157604051631b0e923f60e11b815260040160405180910390fd5b6002546001600160a01b03163314613ccc57604051634b98449160e11b815260040160405180910390fd5b6003805461ffff60a01b191661010160a01b17905560405133907f28b4c24cb1012c094cd2f59f98e89d791973295f8fda6eaa118022d6d318960a90600090a2565b613d16613ab8565b613d3357604051636e2cff4560e01b815260040160405180910390fd5b6002546001600160a01b03163314613d5e57604051634b98449160e11b815260040160405180910390fd5b6003805460ff60a81b1916905560405133907fece7583a70a505ef0e36d4dec768f5ae597713e09c26011022599ee01abdabfc90600090a2565b600081613da6600282614c0a565b613db8670de0b6b3a764000086614c2c565b613dc29190614b10565b612be19190614c0a565b6000821580613dd9575081155b15613de657506000611ce8565b670de0b6b3a7640000613dfa600282614c0a565b613db88486614c2c565b6001600160a01b038116600090815260208390526040812054612be1565b6000613e2f848484614132565b949350505050565b6001600160a01b03811660009081526001830160205260408120541515612be1565b6000613e2f848484614179565b6000613e2f848484614326565b60606000612be1836143b4565b6002546001600160a01b03163314613eab57604051634b98449160e11b815260040160405180910390fd5b565b80471015613efd5760405162461bcd60e51b815260206004820152601d60248201527f416464726573733a20696e73756666696369656e742062616c616e6365000000604482015260640161160e565b6000826001600160a01b03168260405160006040518083038185875af1925050503d8060008114613f4a576040519150601f19603f3d011682016040523d82523d6000602084013e613f4f565b606091505b505090508061209d5760405162461bcd60e51b815260206004820152603a60248201527f416464726573733a20756e61626c6520746f2073656e642076616c75652c207260448201527f6563697069656e74206d61792068617665207265766572746564000000000000606482015260840161160e565b604080516001600160a01b038416602482015260448082018490528251808303909101815260649091019091526020810180516001600160e01b031663a9059cbb60e01b17905261209d908490614410565b6000612be1836001600160a01b0384166144e2565b60606000613e2f8484614531565b600054610100900460ff1680614054575060005460ff16155b6140705760405162461bcd60e51b815260040161160e90614bbc565b600054610100900460ff16158015614092576000805461ffff19166101011790555b60018055801561121e576000805461ff001916905550565b600054610100900460ff16806140c3575060005460ff16155b6140df5760405162461bcd60e51b815260040161160e90614bbc565b600054610100900460ff16158015614101576000805461ffff19166101011790555b6141096145a6565b801561121e576000805461ff001916905550565b6000612be1836001600160a01b038416614651565b6001600160a01b038216600090815260208490526040812080548390811061415c5761415c614b6e565b6000918252602090912001546001600160a01b0316949350505050565b6001600160a01b0380831660009081526020858152604080832093851683526001909301905290812054801561431c5760006141b6600183614a9f565b6001600160a01b038616600090815260208890526040812054919250906141df90600190614a9f565b905081811461429b576001600160a01b038616600090815260208890526040812080548390811061421257614212614b6e565b60009182526020808320909101546001600160a01b038a81168452918b9052604090922080549190921692508291908590811061425157614251614b6e565b600091825260208083209190910180546001600160a01b0319166001600160a01b0394851617905589831682528a8152604080832094909316825260019390930190925290208390555b6001600160a01b03861660009081526020889052604090208054806142c2576142c2614ba6565b60008281526020808220830160001990810180546001600160a01b03191690559092019092556001600160a01b038881168352898252604080842091891684526001918201909252908220919091559350612be192505050565b6000915050612be1565b6001600160a01b03808316600090815260208581526040808320938516835260019093019052908120546143ac57506001600160a01b0382811660009081526020858152604080832080546001808201835582865284862090910180546001600160a01b0319169688169687179055815495855290810190925290912091909155612be1565b506000612be1565b60608160000180548060200260200160405190810160405280929190818152602001828054801561440457602002820191906000526020600020905b8154815260200190600101908083116143f0575b50505050509050919050565b6000614465826040518060400160405280602081526020017f5361666545524332303a206c6f772d6c6576656c2063616c6c206661696c6564815250856001600160a01b03166147449092919063ffffffff16565b80519091501561209d57808060200190518101906144839190614b84565b61209d5760405162461bcd60e51b815260206004820152602a60248201527f5361666545524332303a204552433230206f7065726174696f6e20646964206e6044820152691bdd081cdd58d8d9595960b21b606482015260840161160e565b600081815260018301602052604081205461452957508154600181810184556000848152602080822090930184905584548482528286019093526040902091909155611ce8565b506000611ce8565b6001600160a01b0381166000908152602083815260409182902080548351818402810184019094528084526060939283018282801561459957602002820191906000526020600020905b81546001600160a01b0316815260019091019060200180831161457b575b5050505050905092915050565b600054610100900460ff16806145bf575060005460ff16155b6145db5760405162461bcd60e51b815260040161160e90614bbc565b600054610100900460ff161580156145fd576000805461ffff19166101011790555b600280546001600160a01b031916339081179091556040516000907fd4459d5b8b913cab0244230fd9b1c08b6ceace7fe9230e60d0f74cbffdf849d0908290a3801561121e576000805461ff001916905550565b6000818152600183016020526040812054801561473a576000614675600183614a9f565b855490915060009061468990600190614a9f565b90508181146146ee5760008660000182815481106146a9576146a9614b6e565b90600052602060002001549050808760000184815481106146cc576146cc614b6e565b6000918252602080832090910192909255918252600188019052604090208390555b85548690806146ff576146ff614ba6565b600190038181906000526020600020016000905590558560010160008681526020019081526020016000206000905560019350505050611ce8565b6000915050611ce8565b6060613e2f848460008585843b61479d5760405162461bcd60e51b815260206004820152601d60248201527f416464726573733a2063616c6c20746f206e6f6e2d636f6e7472616374000000604482015260640161160e565b600080866001600160a01b031685876040516147b99190614c4b565b60006040518083038185875af1925050503d80600081146147f6576040519150601f19603f3d011682016040523d82523d6000602084013e6147fb565b606091505b509150915061480b828286614816565b979650505050505050565b60608315614825575081612be1565b8251156148355782518084602001fd5b8160405162461bcd60e51b815260040161160e9190614a56565b60006020828403121561486157600080fd5b5035919050565b6001600160a01b038116811461121e57600080fd5b60006020828403121561488f57600080fd5b8135612be181614868565b6000806000606084860312156148af57600080fd5b83356148ba81614868565b925060208401356148ca81614868565b929592945050506040919091013590565b6020808252825182820181905260009190848201906040850190845b8181101561491c5783516001600160a01b0316835292840192918401916001016148f7565b50909695505050505050565b60008060006060848603121561493d57600080fd5b833561494881614868565b925060208401359150604084013561495f81614868565b809150509250925092565b6000806000806080858703121561498057600080fd5b843561498b81614868565b9350602085013561499b81614868565b92506040850135915060608501356149b281614868565b939692955090935050565b6000602082840312156149cf57600080fd5b81356001600160801b0381168114612be157600080fd5b6000806000606084860312156149fb57600080fd5b8335614a0681614868565b92506020840135614a1681614868565b9150604084013561495f81614868565b60005b83811015614a41578181015183820152602001614a29565b83811115614a50576000848401525b50505050565b6020815260008251806020840152614a75816040850160208701614a26565b601f01601f19169190910160400192915050565b634e487b7160e01b600052601160045260246000fd5b600082821015614ab157614ab1614a89565b500390565b600060208284031215614ac857600080fd5b8151612be181614868565b6001600160a01b039384168152919092166020820152604081019190915260600190565b600060208284031215614b0957600080fd5b5051919050565b60008219821115614b2357614b23614a89565b500190565b6000600019821415614b3c57614b3c614a89565b5060010190565b60006001600160801b03808316818516808303821115614b6557614b65614a89565b01949350505050565b634e487b7160e01b600052603260045260246000fd5b600060208284031215614b9657600080fd5b81518015158114612be157600080fd5b634e487b7160e01b600052603160045260246000fd5b6020808252602e908201527f496e697469616c697a61626c653a20636f6e747261637420697320616c72656160408201526d191e481a5b9a5d1a585b1a5e995960921b606082015260800190565b600082614c2757634e487b7160e01b600052601260045260246000fd5b500490565b6000816000190483118215151615614c4657614c46614a89565b500290565b60008251614c5d818460208701614a26565b919091019291505056fea264697066735822122094e9d090e6dd0d498b12923d50cc71e2c9167d456f72096e9c62e7bd7ac1284464736f6c63430008090033",
  "devdoc": {
    "kind": "dev",
    "methods": {
      "addDebtToken(address)": {
        "details": "Must keep `debtTokenOf` mapping updated"
      },
      "addToDebtTokensOfAccount(address)": {
        "details": "This function is called from `DebtToken` when user's balance changes from `0`The caller should ensure to not pass `address(0)` as `_account`",
        "params": {
          "account_": "The account address"
        }
      },
      "addToDepositTokensOfAccount(address)": {
        "details": "This function is called from `DepositToken` when user's balance changes from `0`The caller should ensure to not pass `address(0)` as `_account`",
        "params": {
          "account_": "The account address"
        }
      },
      "debtOf(address)": {
        "params": {
          "account_": "The account to check"
        },
        "returns": {
          "_debtInUsd": "The debt value in USD"
        }
      },
      "debtPositionOf(address)": {
        "params": {
          "account_": "The account to check"
        },
        "returns": {
          "_debtInUsd": "The total debt in USD",
          "_depositInUsd": "The total collateral deposited in USD",
          "_isHealthy": "Whether the account's position is healthy",
          "_issuableInUsd": "The amount of debt (is USD) that is free (i.e. can be used to issue synthetic tokens)",
          "_issuableLimitInUsd": "The max amount of debt (is USD) that can be created (considering collateral factors)"
        }
      },
      "depositOf(address)": {
        "params": {
          "account_": "The account to check"
        },
        "returns": {
          "_depositInUsd": "The total deposit value in USD among all collaterals",
          "_issuableLimitInUsd": "The max value in USD that can be used to issue synthetic tokens"
        }
      },
      "doesDebtTokenExist(address)": {
        "params": {
          "debtToken_": "Asset to check"
        },
        "returns": {
          "_0": "true if exist"
        }
      },
      "doesDepositTokenExist(address)": {
        "params": {
          "depositToken_": "Asset to check"
        },
        "returns": {
          "_0": "true if exist"
        }
      },
      "doesSyntheticTokenExist(address)": {
        "params": {
          "syntheticToken_": "Asset to check"
        },
        "returns": {
          "_0": "true if exist"
        }
      },
      "getDebtTokens()": {
        "details": "WARNING: This operation will copy the entire storage to memory, which can be quite expensive. This is designed to mostly be used by view accessors that are queried without any gas fees."
      },
      "getDebtTokensOfAccount(address)": {
        "details": "WARNING: This operation will copy the entire storage to memory, which can be quite expensive. This is designed to mostly be used by view accessors that are queried without any gas fees."
      },
      "getDepositTokens()": {
        "details": "WARNING: This operation will copy the entire storage to memory, which can be quite expensive. This is designed to mostly be used by view accessors that are queried without any gas fees."
      },
      "getDepositTokensOfAccount(address)": {
        "details": "WARNING: This operation will copy the entire storage to memory, which can be quite expensive. This is designed to mostly be used by view accessors that are queried without any gas fees."
      },
      "liquidate(address,address,uint256,address)": {
        "params": {
          "account_": "The account with an unhealthy position",
          "amountToRepay_": "The amount to repay in synthetic token",
          "depositToken_": "The collateral to seize from",
          "syntheticToken_": "The msAsset to use for repayment"
        },
        "returns": {
          "_fee": "Share of `_totalSeized` collected as fee",
          "_toLiquidator": "Share of `_totalSeized` sent to the liquidator",
          "_totalSeized": "Total deposit amount seized from the liquidated account"
        }
      },
      "open()": {
        "details": "Open contract operations, if contract is in shutdown state"
      },
      "pause()": {
        "details": "Suspend deposit feature, if contract is not paused."
      },
      "quoteLiquidateIn(address,uint256,address)": {
        "params": {
          "depositToken_": "Collateral's deposit token",
          "syntheticToken_": "Synth for repayment",
          "totalToSeize_": "Collateral total amount to size"
        },
        "returns": {
          "_amountToRepay": "Synth amount to burn",
          "_fee": "The fee amount to collect",
          "_toLiquidator": "Seized amount to the liquidator"
        }
      },
      "quoteLiquidateMax(address,address,address)": {
        "details": "I.e. Considers the min amount between collateral's balance and `maxLiquidable` param",
        "params": {
          "account_": "The account to liquidate",
          "depositToken_": "Collateral's deposit token",
          "syntheticToken_": "Synth for repayment"
        },
        "returns": {
          "_maxAmountToRepay": "Synth amount to burn"
        }
      },
      "quoteLiquidateOut(address,uint256,address)": {
        "params": {
          "amountToRepay_": "Synth amount to burn",
          "depositToken_": "Collateral's deposit token",
          "syntheticToken_": "Synth for repayment"
        },
        "returns": {
          "_fee": "The fee amount to collect",
          "_toLiquidator": "Seized amount to the liquidator",
          "_totalToSeize": "Collateral total amount to size"
        }
      },
      "quoteSwapIn(address,address,uint256)": {
        "params": {
          "amountOut_": "Amount out",
          "syntheticTokenIn_": "Synth in",
          "syntheticTokenOut_": "Synth out"
        },
        "returns": {
          "_amountIn": "Amount in",
          "_fee": "Fee to charge in `syntheticTokenOut_`"
        }
      },
      "quoteSwapOut(address,address,uint256)": {
        "params": {
          "amountIn_": "Amount in",
          "syntheticTokenIn_": "Synth in",
          "syntheticTokenOut_": "Synth out"
        },
        "returns": {
          "_amountOut": "Amount out",
          "_fee": "Fee to charge in `syntheticTokenOut_`"
        }
      },
      "removeDebtToken(address)": {
        "details": "Must keep `debtTokenOf` mapping updated"
      },
      "removeFromDebtTokensOfAccount(address)": {
        "details": "This function is called from `DebtToken` when user's balance changes to `0`The caller should ensure to not pass `address(0)` as `_account`",
        "params": {
          "account_": "The account address"
        }
      },
      "removeFromDepositTokensOfAccount(address)": {
        "details": "This function is called from `DepositToken` when user's balance changes to `0`The caller should ensure to not pass `address(0)` as `_account`",
        "params": {
          "account_": "The account address"
        }
      },
      "shutdown()": {
        "details": "Suspend all features (issue, repay, deposit, withdraw, liquidate and swap), if not already shutdown."
      },
      "swap(address,address,uint256)": {
        "params": {
          "amountIn_": "Amount to swap",
          "syntheticTokenIn_": "Synthetic token to sell",
          "syntheticTokenOut_": "Synthetic token to buy"
        }
      },
      "sweep(address,address,uint256)": {
        "params": {
          "amount_": "The amount to send",
          "to_": "The recipient of the transfer",
          "token_": "The token to transfer"
        }
      },
      "transferGovernorship(address)": {
        "details": "Can only be called by the current owner.",
        "params": {
          "proposedGovernor_": "The new proposed governor"
        }
      },
      "unpause()": {
        "details": "Unpause contract operations, allow only if contract is paused and not shutdown."
      }
    },
    "title": "Pool contract",
    "version": 1
  },
  "userdoc": {
    "events": {
      "DebtFloorUpdated(uint256,uint256)": {
        "notice": "Emitted when protocol liquidation fee is updated"
      },
      "DebtTokenAdded(address)": {
        "notice": "Emitted when debt token is enabled"
      },
      "DebtTokenRemoved(address)": {
        "notice": "Emitted when debt token is disabled"
      },
      "DepositFeeUpdated(uint256,uint256)": {
        "notice": "Emitted when deposit fee is updated"
      },
      "DepositTokenAdded(address)": {
        "notice": "Emitted when deposit token is enabled"
      },
      "DepositTokenRemoved(address)": {
        "notice": "Emitted when deposit token is disabled"
      },
      "IssueFeeUpdated(uint256,uint256)": {
        "notice": "Emitted when issue fee is updated"
      },
      "LiquidatorIncentiveUpdated(uint256,uint256)": {
        "notice": "Emitted when liquidator incentive is updated"
      },
      "MaxLiquidableUpdated(uint256,uint256)": {
        "notice": "Emitted when maxLiquidable (liquidation cap) is updated"
      },
      "Open(address)": {
        "notice": "Emitted when contract is turned on"
      },
      "Paused(address)": {
        "notice": "Emitted when contract is paused"
      },
      "PositionLiquidated(address,address,address,uint256,uint256,uint256)": {
        "notice": "Emitted when a position is liquidated"
      },
      "ProtocolLiquidationFeeUpdated(uint256,uint256)": {
        "notice": "Emitted when protocol liquidation fee is updated"
      },
      "RepayFeeUpdated(uint256,uint256)": {
        "notice": "Emitted when repay fee is updated"
      },
      "RewardsDistributorAdded(address)": {
        "notice": "Emitted when rewards distributor contract is added"
      },
      "RewardsDistributorRemoved(address)": {
        "notice": "Emitted when rewards distributor contract is removed"
      },
      "Shutdown(address)": {
        "notice": "Emitted when contract is shuted down"
      },
      "SwapActiveUpdated(bool)": {
        "notice": "Emitted when the swap active flag is updated"
      },
      "SwapFeeUpdated(uint256,uint256)": {
        "notice": "Emitted when swap fee is updated"
      },
      "SyntheticTokenSwapped(address,address,address,uint256,uint256,uint256)": {
        "notice": "Emitted when synthetic token is swapped"
      },
      "TreasuryUpdated(address,address)": {
        "notice": "Emitted when treasury contract is updated"
      },
      "Unpaused(address)": {
        "notice": "Emitted when contract is unpaused"
      },
      "WithdrawFeeUpdated(uint256,uint256)": {
        "notice": "Emitted when withdraw fee is updated"
      }
    },
    "kind": "user",
    "methods": {
      "acceptGovernorship()": {
        "notice": "Allows new governor to accept governorship of the contract."
      },
      "addDebtToken(address)": {
        "notice": "Add debt token to offerings"
      },
      "addDepositToken(address)": {
        "notice": "Add deposit token (i.e. collateral) to Synth"
      },
      "addRewardsDistributor(address)": {
        "notice": "Add a RewardsDistributor contract"
      },
      "addToDebtTokensOfAccount(address)": {
        "notice": "Add a debt token to the per-account list"
      },
      "addToDepositTokensOfAccount(address)": {
        "notice": "Add a deposit token to the per-account list"
      },
      "debtFloorInUsd()": {
        "notice": "The debt floor (in USD) for each synthetic token This parameters is used to keep incentive for liquidators (i.e. cover gas and provide enough profit)"
      },
      "debtOf(address)": {
        "notice": "Get account's debt by querying latest prices from oracles"
      },
      "debtPositionOf(address)": {
        "notice": "Returns whether the debt position from an account is healthy"
      },
      "debtTokenOf(address)": {
        "notice": "Get the debt token's address from given synthetic asset"
      },
      "depositFee()": {
        "notice": "The fee charged when depositing collateral"
      },
      "depositOf(address)": {
        "notice": "Get account's total collateral deposited by querying latest prices from oracles"
      },
      "depositTokenOf(address)": {
        "notice": "Get the deposit token's address from given underlying asset"
      },
      "doesDebtTokenExist(address)": {
        "notice": "Check if token is part of the debt offerings"
      },
      "doesDepositTokenExist(address)": {
        "notice": "Check if collateral is supported"
      },
      "doesSyntheticTokenExist(address)": {
        "notice": "Check if token is part of the synthetic offerings"
      },
      "everythingStopped()": {
        "notice": "Return `true` if contract is shutdown"
      },
      "feeCollector()": {
        "notice": "Returns fee collector address"
      },
      "getDebtTokens()": {
        "notice": "Get all debt tokens"
      },
      "getDebtTokensOfAccount(address)": {
        "notice": "Get all debt tokens"
      },
      "getDepositTokens()": {
        "notice": "Get all deposit tokens"
      },
      "getDepositTokensOfAccount(address)": {
        "notice": "Get deposit tokens of an account"
      },
      "getRewardsDistributors()": {
        "notice": "Get all rewards distributors"
      },
      "governor()": {
        "notice": "The governor"
      },
      "isSwapActive()": {
        "notice": "Swap feature on/off flag"
      },
      "issueFee()": {
        "notice": "The fee charged when minting a synthetic token"
      },
      "liquidate(address,address,uint256,address)": {
        "notice": "Burn synthetic token, unlock deposit token and send liquidator incentive"
      },
      "liquidationFees()": {
        "notice": "The fees charged when liquidating a position"
      },
      "masterOracle()": {
        "notice": "Get MasterOracle contract"
      },
      "maxLiquidable()": {
        "notice": "The max percent of the debt allowed to liquidate"
      },
      "paused()": {
        "notice": "Return `true` if contract is paused"
      },
      "poolRegistry()": {
        "notice": "PoolRegistry"
      },
      "proposedGovernor()": {
        "notice": "The proposed governor"
      },
      "quoteLiquidateIn(address,uint256,address)": {
        "notice": "Quote synth  `_amountToRepay` in order to seize `totalToSeized_`"
      },
      "quoteLiquidateMax(address,address,address)": {
        "notice": "Quote max allowed synth to repay"
      },
      "quoteLiquidateOut(address,uint256,address)": {
        "notice": "Quote collateral  `totalToSeized_` by repaying `amountToRepay_`"
      },
      "quoteSwapIn(address,address,uint256)": {
        "notice": "Quote `_amountIn` to get `amountOut_`"
      },
      "quoteSwapOut(address,address,uint256)": {
        "notice": "Quote `amountOut_` get from `amountIn_`"
      },
      "removeDebtToken(address)": {
        "notice": "Remove debt token from offerings"
      },
      "removeDepositToken(address)": {
        "notice": "Remove deposit token (i.e. collateral) from Synth"
      },
      "removeFromDebtTokensOfAccount(address)": {
        "notice": "Remove a debt token from the per-account list"
      },
      "removeFromDepositTokensOfAccount(address)": {
        "notice": "Remove a deposit token from the per-account list"
      },
      "removeRewardsDistributor(address)": {
        "notice": "Remove a RewardsDistributor contract"
      },
      "repayFee()": {
        "notice": "The fee charged when repaying debt"
      },
      "swap(address,address,uint256)": {
        "notice": "Swap synthetic tokens"
      },
      "swapFee()": {
        "notice": "The fee charged when swapping synthetic tokens"
      },
      "sweep(address,address,uint256)": {
        "notice": "ERC20 recovery in case of stuck tokens due direct transfers to the contract address."
      },
      "toggleIsSwapActive()": {
        "notice": "Turn swap on/off"
      },
      "transferGovernorship(address)": {
        "notice": "Transfers governorship of the contract to a new account (`proposedGovernor`)."
      },
      "treasury()": {
        "notice": "Treasury contract"
      },
      "updateDebtFloor(uint256)": {
        "notice": "Update debt floor"
      },
      "updateDepositFee(uint256)": {
        "notice": "Update deposit fee"
      },
      "updateIssueFee(uint256)": {
        "notice": "Update issue fee"
      },
      "updateLiquidatorIncentive(uint128)": {
        "notice": "Update liquidator incentive"
      },
      "updateMaxLiquidable(uint256)": {
        "notice": "Update maxLiquidable (liquidation cap)"
      },
      "updateProtocolLiquidationFee(uint128)": {
        "notice": "Update protocol liquidation fee"
      },
      "updateRepayFee(uint256)": {
        "notice": "Update repay fee"
      },
      "updateSwapFee(uint256)": {
        "notice": "Update swap fee"
      },
      "updateTreasury(address)": {
        "notice": "Update treasury contract - will migrate funds to the new contract"
      },
      "updateWithdrawFee(uint256)": {
        "notice": "Update withdraw fee"
      },
      "withdrawFee()": {
        "notice": "The fee charged when withdrawing collateral"
      }
    },
    "version": 1
  },
  "storageLayout": {
    "storage": [
      {
        "astId": 7824,
        "contract": "contracts/Pool.sol:Pool",
        "label": "_initialized",
        "offset": 0,
        "slot": "0",
        "type": "t_bool"
      },
      {
        "astId": 7827,
        "contract": "contracts/Pool.sol:Pool",
        "label": "_initializing",
        "offset": 1,
        "slot": "0",
        "type": "t_bool"
      },
      {
        "astId": 7878,
        "contract": "contracts/Pool.sol:Pool",
        "label": "_status",
        "offset": 0,
        "slot": "1",
        "type": "t_uint256"
      },
      {
        "astId": 7554,
        "contract": "contracts/Pool.sol:Pool",
        "label": "governor",
        "offset": 0,
        "slot": "2",
        "type": "t_address"
      },
      {
        "astId": 7557,
        "contract": "contracts/Pool.sol:Pool",
        "label": "proposedGovernor",
        "offset": 0,
        "slot": "3",
        "type": "t_address"
      },
      {
        "astId": 12229,
        "contract": "contracts/Pool.sol:Pool",
        "label": "_paused",
        "offset": 20,
        "slot": "3",
        "type": "t_bool"
      },
      {
        "astId": 12231,
        "contract": "contracts/Pool.sol:Pool",
        "label": "_everythingStopped",
        "offset": 21,
        "slot": "3",
        "type": "t_bool"
      },
      {
        "astId": 12002,
        "contract": "contracts/Pool.sol:Pool",
        "label": "debtFloorInUsd",
        "offset": 0,
        "slot": "4",
        "type": "t_uint256"
      },
      {
        "astId": 12006,
        "contract": "contracts/Pool.sol:Pool",
        "label": "depositFee",
        "offset": 0,
        "slot": "5",
        "type": "t_uint256"
      },
      {
        "astId": 12010,
        "contract": "contracts/Pool.sol:Pool",
        "label": "issueFee",
        "offset": 0,
        "slot": "6",
        "type": "t_uint256"
      },
      {
        "astId": 12014,
        "contract": "contracts/Pool.sol:Pool",
        "label": "withdrawFee",
        "offset": 0,
        "slot": "7",
        "type": "t_uint256"
      },
      {
        "astId": 12018,
        "contract": "contracts/Pool.sol:Pool",
        "label": "repayFee",
        "offset": 0,
        "slot": "8",
        "type": "t_uint256"
      },
      {
        "astId": 12022,
        "contract": "contracts/Pool.sol:Pool",
        "label": "swapFee",
        "offset": 0,
        "slot": "9",
        "type": "t_uint256"
      },
      {
        "astId": 12027,
        "contract": "contracts/Pool.sol:Pool",
        "label": "liquidationFees",
        "offset": 0,
        "slot": "10",
        "type": "t_struct(LiquidationFees)11998_storage"
      },
      {
        "astId": 12031,
        "contract": "contracts/Pool.sol:Pool",
        "label": "maxLiquidable",
        "offset": 0,
        "slot": "11",
        "type": "t_uint256"
      },
      {
        "astId": 12036,
        "contract": "contracts/Pool.sol:Pool",
        "label": "poolRegistry",
        "offset": 0,
        "slot": "12",
        "type": "t_contract(IPoolRegistry)10412"
      },
      {
        "astId": 12040,
        "contract": "contracts/Pool.sol:Pool",
        "label": "isSwapActive",
        "offset": 20,
        "slot": "12",
        "type": "t_bool"
      },
      {
        "astId": 12045,
        "contract": "contracts/Pool.sol:Pool",
        "label": "treasury",
        "offset": 0,
        "slot": "13",
        "type": "t_contract(ITreasury)10613"
      },
      {
        "astId": 12049,
        "contract": "contracts/Pool.sol:Pool",
        "label": "depositTokens",
        "offset": 0,
        "slot": "14",
        "type": "t_struct(AddressSet)9326_storage"
      },
      {
        "astId": 12057,
        "contract": "contracts/Pool.sol:Pool",
        "label": "depositTokenOf",
        "offset": 0,
        "slot": "16",
        "type": "t_mapping(t_contract(IERC20)7987,t_contract(IDepositToken)9867)"
      },
      {
        "astId": 12061,
        "contract": "contracts/Pool.sol:Pool",
        "label": "debtTokens",
        "offset": 0,
        "slot": "17",
        "type": "t_struct(AddressSet)9326_storage"
      },
      {
        "astId": 12065,
        "contract": "contracts/Pool.sol:Pool",
        "label": "depositTokensOfAccount",
        "offset": 0,
        "slot": "19",
        "type": "t_struct(AddressSet)10676_storage"
      },
      {
        "astId": 12069,
        "contract": "contracts/Pool.sol:Pool",
        "label": "debtTokensOfAccount",
        "offset": 0,
        "slot": "20",
        "type": "t_struct(AddressSet)10676_storage"
      },
      {
        "astId": 12074,
        "contract": "contracts/Pool.sol:Pool",
        "label": "rewardsDistributors",
        "offset": 0,
        "slot": "21",
        "type": "t_array(t_contract(IRewardsDistributor)10543)dyn_storage"
      },
      {
        "astId": 12082,
        "contract": "contracts/Pool.sol:Pool",
        "label": "debtTokenOf",
        "offset": 0,
        "slot": "22",
        "type": "t_mapping(t_contract(ISyntheticToken)10598,t_contract(IDebtToken)9746)"
      }
    ],
    "types": {
      "t_address": {
        "encoding": "inplace",
        "label": "address",
        "numberOfBytes": "20"
      },
      "t_array(t_address)dyn_storage": {
        "base": "t_address",
        "encoding": "dynamic_array",
        "label": "address[]",
        "numberOfBytes": "32"
      },
      "t_array(t_bytes32)dyn_storage": {
        "base": "t_bytes32",
        "encoding": "dynamic_array",
        "label": "bytes32[]",
        "numberOfBytes": "32"
      },
      "t_array(t_contract(IRewardsDistributor)10543)dyn_storage": {
        "base": "t_contract(IRewardsDistributor)10543",
        "encoding": "dynamic_array",
        "label": "contract IRewardsDistributor[]",
        "numberOfBytes": "32"
      },
      "t_bool": {
        "encoding": "inplace",
        "label": "bool",
        "numberOfBytes": "1"
      },
      "t_bytes32": {
        "encoding": "inplace",
        "label": "bytes32",
        "numberOfBytes": "32"
      },
      "t_contract(IDebtToken)9746": {
        "encoding": "inplace",
        "label": "contract IDebtToken",
        "numberOfBytes": "20"
      },
      "t_contract(IDepositToken)9867": {
        "encoding": "inplace",
        "label": "contract IDepositToken",
        "numberOfBytes": "20"
      },
      "t_contract(IERC20)7987": {
        "encoding": "inplace",
        "label": "contract IERC20",
        "numberOfBytes": "20"
      },
      "t_contract(IPoolRegistry)10412": {
        "encoding": "inplace",
        "label": "contract IPoolRegistry",
        "numberOfBytes": "20"
      },
      "t_contract(IRewardsDistributor)10543": {
        "encoding": "inplace",
        "label": "contract IRewardsDistributor",
        "numberOfBytes": "20"
      },
      "t_contract(ISyntheticToken)10598": {
        "encoding": "inplace",
        "label": "contract ISyntheticToken",
        "numberOfBytes": "20"
      },
      "t_contract(ITreasury)10613": {
        "encoding": "inplace",
        "label": "contract ITreasury",
        "numberOfBytes": "20"
      },
      "t_mapping(t_address,t_struct(Set)10670_storage)": {
        "encoding": "mapping",
        "key": "t_address",
        "label": "mapping(address => struct MappedEnumerableSet.Set)",
        "numberOfBytes": "32",
        "value": "t_struct(Set)10670_storage"
      },
      "t_mapping(t_address,t_uint256)": {
        "encoding": "mapping",
        "key": "t_address",
        "label": "mapping(address => uint256)",
        "numberOfBytes": "32",
        "value": "t_uint256"
      },
      "t_mapping(t_bytes32,t_uint256)": {
        "encoding": "mapping",
        "key": "t_bytes32",
        "label": "mapping(bytes32 => uint256)",
        "numberOfBytes": "32",
        "value": "t_uint256"
      },
      "t_mapping(t_contract(IERC20)7987,t_contract(IDepositToken)9867)": {
        "encoding": "mapping",
        "key": "t_contract(IERC20)7987",
        "label": "mapping(contract IERC20 => contract IDepositToken)",
        "numberOfBytes": "32",
        "value": "t_contract(IDepositToken)9867"
      },
      "t_mapping(t_contract(ISyntheticToken)10598,t_contract(IDebtToken)9746)": {
        "encoding": "mapping",
        "key": "t_contract(ISyntheticToken)10598",
        "label": "mapping(contract ISyntheticToken => contract IDebtToken)",
        "numberOfBytes": "32",
        "value": "t_contract(IDebtToken)9746"
      },
      "t_struct(AddressSet)10676_storage": {
        "encoding": "inplace",
        "label": "struct MappedEnumerableSet.AddressSet",
        "members": [
          {
            "astId": 10675,
            "contract": "contracts/Pool.sol:Pool",
            "label": "_ofAddress",
            "offset": 0,
            "slot": "0",
            "type": "t_mapping(t_address,t_struct(Set)10670_storage)"
          }
        ],
        "numberOfBytes": "32"
      },
      "t_struct(AddressSet)9326_storage": {
        "encoding": "inplace",
        "label": "struct EnumerableSet.AddressSet",
        "members": [
          {
            "astId": 9325,
            "contract": "contracts/Pool.sol:Pool",
            "label": "_inner",
            "offset": 0,
            "slot": "0",
            "type": "t_struct(Set)9025_storage"
          }
        ],
        "numberOfBytes": "64"
      },
      "t_struct(LiquidationFees)11998_storage": {
        "encoding": "inplace",
        "label": "struct PoolStorageV1.LiquidationFees",
        "members": [
          {
            "astId": 11995,
            "contract": "contracts/Pool.sol:Pool",
            "label": "liquidatorIncentive",
            "offset": 0,
            "slot": "0",
            "type": "t_uint128"
          },
          {
            "astId": 11997,
            "contract": "contracts/Pool.sol:Pool",
            "label": "protocolFee",
            "offset": 16,
            "slot": "0",
            "type": "t_uint128"
          }
        ],
        "numberOfBytes": "32"
      },
      "t_struct(Set)10670_storage": {
        "encoding": "inplace",
        "label": "struct MappedEnumerableSet.Set",
        "members": [
          {
            "astId": 10665,
            "contract": "contracts/Pool.sol:Pool",
            "label": "_values",
            "offset": 0,
            "slot": "0",
            "type": "t_array(t_address)dyn_storage"
          },
          {
            "astId": 10669,
            "contract": "contracts/Pool.sol:Pool",
            "label": "_indexes",
            "offset": 0,
            "slot": "1",
            "type": "t_mapping(t_address,t_uint256)"
          }
        ],
        "numberOfBytes": "64"
      },
      "t_struct(Set)9025_storage": {
        "encoding": "inplace",
        "label": "struct EnumerableSet.Set",
        "members": [
          {
            "astId": 9020,
            "contract": "contracts/Pool.sol:Pool",
            "label": "_values",
            "offset": 0,
            "slot": "0",
            "type": "t_array(t_bytes32)dyn_storage"
          },
          {
            "astId": 9024,
            "contract": "contracts/Pool.sol:Pool",
            "label": "_indexes",
            "offset": 0,
            "slot": "1",
            "type": "t_mapping(t_bytes32,t_uint256)"
          }
        ],
        "numberOfBytes": "64"
      },
      "t_uint128": {
        "encoding": "inplace",
        "label": "uint128",
        "numberOfBytes": "16"
      },
      "t_uint256": {
        "encoding": "inplace",
        "label": "uint256",
        "numberOfBytes": "32"
      }
    }
  }
}