{
  "address": "0xBfeB32a40A0678208C28CFE4438BCbba96bbc4C1",
  "abi": [
    {
      "inputs": [],
      "name": "AddressIsNull",
      "type": "error"
    },
    {
      "inputs": [],
      "name": "AmountGreaterThanMaxLiquidable",
      "type": "error"
    },
    {
      "inputs": [],
      "name": "AmountInIsInvalid",
      "type": "error"
    },
    {
      "inputs": [],
      "name": "AmountIsTooHight",
      "type": "error"
    },
    {
      "inputs": [],
      "name": "AmountIsZero",
      "type": "error"
    },
    {
      "inputs": [],
      "name": "CanNotLiquidateOwnPosition",
      "type": "error"
    },
    {
      "inputs": [],
      "name": "CollateralDoesNotExist",
      "type": "error"
    },
    {
      "inputs": [],
      "name": "DebtTokenAlreadyExists",
      "type": "error"
    },
    {
      "inputs": [],
      "name": "DebtTokenDoesNotExist",
      "type": "error"
    },
    {
      "inputs": [],
      "name": "DepositTokenAlreadyExists",
      "type": "error"
    },
    {
      "inputs": [],
      "name": "DepositTokenDoesNotExist",
      "type": "error"
    },
    {
      "inputs": [],
      "name": "FallbackIsNotAllowed",
      "type": "error"
    },
    {
      "inputs": [],
      "name": "IsNotPaused",
      "type": "error"
    },
    {
      "inputs": [],
      "name": "IsNotShutdown",
      "type": "error"
    },
    {
      "inputs": [],
      "name": "IsPaused",
      "type": "error"
    },
    {
      "inputs": [],
      "name": "IsShutdown",
      "type": "error"
    },
    {
      "inputs": [],
      "name": "LeverageSlippageTooHigh",
      "type": "error"
    },
    {
      "inputs": [],
      "name": "LeverageTooHigh",
      "type": "error"
    },
    {
      "inputs": [],
      "name": "LeverageTooLow",
      "type": "error"
    },
    {
      "inputs": [],
      "name": "MaxLiquidableTooHigh",
      "type": "error"
    },
    {
      "inputs": [],
      "name": "NewValueIsSameAsCurrent",
      "type": "error"
    },
    {
      "inputs": [],
      "name": "PoolRegistryIsNull",
      "type": "error"
    },
    {
      "inputs": [],
      "name": "PositionIsHealthy",
      "type": "error"
    },
    {
      "inputs": [],
      "name": "PositionIsNotHealthy",
      "type": "error"
    },
    {
      "inputs": [],
      "name": "ProposedGovernorIsNull",
      "type": "error"
    },
    {
      "inputs": [],
      "name": "ReachedMaxDepositTokens",
      "type": "error"
    },
    {
      "inputs": [],
      "name": "ReceiveIsNotAllowed",
      "type": "error"
    },
    {
      "inputs": [],
      "name": "RemainingDebtIsLowerThanTheFloor",
      "type": "error"
    },
    {
      "inputs": [],
      "name": "RewardDistributorAlreadyExists",
      "type": "error"
    },
    {
      "inputs": [],
      "name": "RewardDistributorDoesNotExist",
      "type": "error"
    },
    {
      "inputs": [],
      "name": "SenderIsNotDebtToken",
      "type": "error"
    },
    {
      "inputs": [],
      "name": "SenderIsNotDepositToken",
      "type": "error"
    },
    {
      "inputs": [],
      "name": "SenderIsNotGovernor",
      "type": "error"
    },
    {
      "inputs": [],
      "name": "SenderIsNotTheProposedGovernor",
      "type": "error"
    },
    {
      "inputs": [],
      "name": "SwapFeatureIsInactive",
      "type": "error"
    },
    {
      "inputs": [],
      "name": "SyntheticDoesNotExist",
      "type": "error"
    },
    {
      "inputs": [],
      "name": "SyntheticIsInUse",
      "type": "error"
    },
    {
      "inputs": [],
      "name": "SyntheticIsNull",
      "type": "error"
    },
    {
      "inputs": [],
      "name": "TotalSupplyIsNotZero",
      "type": "error"
    },
    {
      "inputs": [],
      "name": "UnderlyingAssetInUse",
      "type": "error"
    },
    {
      "inputs": [],
      "name": "UserReachedMaxTokens",
      "type": "error"
    },
    {
      "anonymous": false,
      "inputs": [
        {
          "indexed": false,
          "internalType": "uint256",
          "name": "oldDebtFloorInUsd",
          "type": "uint256"
        },
        {
          "indexed": false,
          "internalType": "uint256",
          "name": "newDebtFloorInUsd",
          "type": "uint256"
        }
      ],
      "name": "DebtFloorUpdated",
      "type": "event"
    },
    {
      "anonymous": false,
      "inputs": [
        {
          "indexed": true,
          "internalType": "contract IDebtToken",
          "name": "debtToken",
          "type": "address"
        }
      ],
      "name": "DebtTokenAdded",
      "type": "event"
    },
    {
      "anonymous": false,
      "inputs": [
        {
          "indexed": true,
          "internalType": "contract IDebtToken",
          "name": "debtToken",
          "type": "address"
        }
      ],
      "name": "DebtTokenRemoved",
      "type": "event"
    },
    {
      "anonymous": false,
      "inputs": [
        {
          "indexed": true,
          "internalType": "address",
          "name": "depositToken",
          "type": "address"
        }
      ],
      "name": "DepositTokenAdded",
      "type": "event"
    },
    {
      "anonymous": false,
      "inputs": [
        {
          "indexed": true,
          "internalType": "contract IDepositToken",
          "name": "depositToken",
          "type": "address"
        }
      ],
      "name": "DepositTokenRemoved",
      "type": "event"
    },
    {
      "anonymous": false,
      "inputs": [
        {
          "indexed": true,
          "internalType": "contract IFeeProvider",
          "name": "oldFeeProvider",
          "type": "address"
        },
        {
          "indexed": true,
          "internalType": "contract IFeeProvider",
          "name": "newFeeProvider",
          "type": "address"
        }
      ],
      "name": "FeeProviderUpdated",
      "type": "event"
    },
    {
      "anonymous": false,
      "inputs": [
        {
          "indexed": false,
          "internalType": "uint256",
          "name": "oldMaxLiquidable",
          "type": "uint256"
        },
        {
          "indexed": false,
          "internalType": "uint256",
          "name": "newMaxLiquidable",
          "type": "uint256"
        }
      ],
      "name": "MaxLiquidableUpdated",
      "type": "event"
    },
    {
      "anonymous": false,
      "inputs": [
        {
          "indexed": true,
          "internalType": "address",
          "name": "caller",
          "type": "address"
        }
      ],
      "name": "Open",
      "type": "event"
    },
    {
      "anonymous": false,
      "inputs": [
        {
          "indexed": true,
          "internalType": "address",
          "name": "caller",
          "type": "address"
        }
      ],
      "name": "Paused",
      "type": "event"
    },
    {
      "anonymous": false,
      "inputs": [
        {
          "indexed": true,
          "internalType": "address",
          "name": "liquidator",
          "type": "address"
        },
        {
          "indexed": true,
          "internalType": "address",
          "name": "account",
          "type": "address"
        },
        {
          "indexed": true,
          "internalType": "contract ISyntheticToken",
          "name": "syntheticToken",
          "type": "address"
        },
        {
          "indexed": false,
          "internalType": "uint256",
          "name": "amountRepaid",
          "type": "uint256"
        },
        {
          "indexed": false,
          "internalType": "uint256",
          "name": "depositSeized",
          "type": "uint256"
        },
        {
          "indexed": false,
          "internalType": "uint256",
          "name": "fee",
          "type": "uint256"
        }
      ],
      "name": "PositionLiquidated",
      "type": "event"
    },
    {
      "anonymous": false,
      "inputs": [
        {
          "indexed": true,
          "internalType": "contract IRewardsDistributor",
          "name": "_distributor",
          "type": "address"
        }
      ],
      "name": "RewardsDistributorAdded",
      "type": "event"
    },
    {
      "anonymous": false,
      "inputs": [
        {
          "indexed": false,
          "internalType": "contract IRewardsDistributor",
          "name": "_distributor",
          "type": "address"
        }
      ],
      "name": "RewardsDistributorRemoved",
      "type": "event"
    },
    {
      "anonymous": false,
      "inputs": [
        {
          "indexed": true,
          "internalType": "address",
          "name": "caller",
          "type": "address"
        }
      ],
      "name": "Shutdown",
      "type": "event"
    },
    {
      "anonymous": false,
      "inputs": [
        {
          "indexed": false,
          "internalType": "bool",
          "name": "newActive",
          "type": "bool"
        }
      ],
      "name": "SwapActiveUpdated",
      "type": "event"
    },
    {
      "anonymous": false,
      "inputs": [
        {
          "indexed": false,
          "internalType": "contract ISwapper",
          "name": "oldSwapFee",
          "type": "address"
        },
        {
          "indexed": false,
          "internalType": "contract ISwapper",
          "name": "newSwapFee",
          "type": "address"
        }
      ],
      "name": "SwapperUpdated",
      "type": "event"
    },
    {
      "anonymous": false,
      "inputs": [
        {
          "indexed": true,
          "internalType": "address",
          "name": "account",
          "type": "address"
        },
        {
          "indexed": true,
          "internalType": "contract ISyntheticToken",
          "name": "syntheticTokenIn",
          "type": "address"
        },
        {
          "indexed": true,
          "internalType": "contract ISyntheticToken",
          "name": "syntheticTokenOut",
          "type": "address"
        },
        {
          "indexed": false,
          "internalType": "uint256",
          "name": "amountIn",
          "type": "uint256"
        },
        {
          "indexed": false,
          "internalType": "uint256",
          "name": "amountOut",
          "type": "uint256"
        },
        {
          "indexed": false,
          "internalType": "uint256",
          "name": "fee",
          "type": "uint256"
        }
      ],
      "name": "SyntheticTokenSwapped",
      "type": "event"
    },
    {
      "anonymous": false,
      "inputs": [
        {
          "indexed": true,
          "internalType": "contract ITreasury",
          "name": "oldTreasury",
          "type": "address"
        },
        {
          "indexed": true,
          "internalType": "contract ITreasury",
          "name": "newTreasury",
          "type": "address"
        }
      ],
      "name": "TreasuryUpdated",
      "type": "event"
    },
    {
      "anonymous": false,
      "inputs": [
        {
          "indexed": true,
          "internalType": "address",
          "name": "caller",
          "type": "address"
        }
      ],
      "name": "Unpaused",
      "type": "event"
    },
    {
      "anonymous": false,
      "inputs": [
        {
          "indexed": true,
          "internalType": "address",
          "name": "previousGovernor",
          "type": "address"
        },
        {
          "indexed": true,
          "internalType": "address",
          "name": "proposedGovernor",
          "type": "address"
        }
      ],
      "name": "UpdatedGovernor",
      "type": "event"
    },
    {
      "stateMutability": "payable",
      "type": "fallback"
    },
    {
      "inputs": [],
      "name": "MAX_TOKENS_PER_USER",
      "outputs": [
        {
          "internalType": "uint256",
          "name": "",
          "type": "uint256"
        }
      ],
      "stateMutability": "view",
      "type": "function"
    },
    {
      "inputs": [],
      "name": "VERSION",
      "outputs": [
        {
          "internalType": "string",
          "name": "",
          "type": "string"
        }
      ],
      "stateMutability": "view",
      "type": "function"
    },
    {
      "inputs": [],
      "name": "acceptGovernorship",
      "outputs": [],
      "stateMutability": "nonpayable",
      "type": "function"
    },
    {
      "inputs": [
        {
          "internalType": "contract IDebtToken",
          "name": "debtToken_",
          "type": "address"
        }
      ],
      "name": "addDebtToken",
      "outputs": [],
      "stateMutability": "nonpayable",
      "type": "function"
    },
    {
      "inputs": [
        {
          "internalType": "address",
          "name": "depositToken_",
          "type": "address"
        }
      ],
      "name": "addDepositToken",
      "outputs": [],
      "stateMutability": "nonpayable",
      "type": "function"
    },
    {
      "inputs": [
        {
          "internalType": "contract IRewardsDistributor",
          "name": "distributor_",
          "type": "address"
        }
      ],
      "name": "addRewardsDistributor",
      "outputs": [],
      "stateMutability": "nonpayable",
      "type": "function"
    },
    {
      "inputs": [
        {
          "internalType": "address",
          "name": "account_",
          "type": "address"
        }
      ],
      "name": "addToDebtTokensOfAccount",
      "outputs": [],
      "stateMutability": "nonpayable",
      "type": "function"
    },
    {
      "inputs": [
        {
          "internalType": "address",
          "name": "account_",
          "type": "address"
        }
      ],
      "name": "addToDepositTokensOfAccount",
      "outputs": [],
      "stateMutability": "nonpayable",
      "type": "function"
    },
    {
      "inputs": [],
      "name": "debtFloorInUsd",
      "outputs": [
        {
          "internalType": "uint256",
          "name": "",
          "type": "uint256"
        }
      ],
      "stateMutability": "view",
      "type": "function"
    },
    {
      "inputs": [
        {
          "internalType": "address",
          "name": "account_",
          "type": "address"
        }
      ],
      "name": "debtOf",
      "outputs": [
        {
          "internalType": "uint256",
          "name": "_debtInUsd",
          "type": "uint256"
        }
      ],
      "stateMutability": "view",
      "type": "function"
    },
    {
      "inputs": [
        {
          "internalType": "address",
          "name": "account_",
          "type": "address"
        }
      ],
      "name": "debtPositionOf",
      "outputs": [
        {
          "internalType": "bool",
          "name": "_isHealthy",
          "type": "bool"
        },
        {
          "internalType": "uint256",
          "name": "_depositInUsd",
          "type": "uint256"
        },
        {
          "internalType": "uint256",
          "name": "_debtInUsd",
          "type": "uint256"
        },
        {
          "internalType": "uint256",
          "name": "_issuableLimitInUsd",
          "type": "uint256"
        },
        {
          "internalType": "uint256",
          "name": "_issuableInUsd",
          "type": "uint256"
        }
      ],
      "stateMutability": "view",
      "type": "function"
    },
    {
      "inputs": [
        {
          "internalType": "contract ISyntheticToken",
          "name": "",
          "type": "address"
        }
      ],
      "name": "debtTokenOf",
      "outputs": [
        {
          "internalType": "contract IDebtToken",
          "name": "",
          "type": "address"
        }
      ],
      "stateMutability": "view",
      "type": "function"
    },
    {
      "inputs": [
        {
          "internalType": "address",
          "name": "account_",
          "type": "address"
        }
      ],
      "name": "depositOf",
      "outputs": [
        {
          "internalType": "uint256",
          "name": "_depositInUsd",
          "type": "uint256"
        },
        {
          "internalType": "uint256",
          "name": "_issuableLimitInUsd",
          "type": "uint256"
        }
      ],
      "stateMutability": "view",
      "type": "function"
    },
    {
      "inputs": [
        {
          "internalType": "contract IERC20",
          "name": "",
          "type": "address"
        }
      ],
      "name": "depositTokenOf",
      "outputs": [
        {
          "internalType": "contract IDepositToken",
          "name": "",
          "type": "address"
        }
      ],
      "stateMutability": "view",
      "type": "function"
    },
    {
      "inputs": [
        {
          "internalType": "contract IDebtToken",
          "name": "debtToken_",
          "type": "address"
        }
      ],
      "name": "doesDebtTokenExist",
      "outputs": [
        {
          "internalType": "bool",
          "name": "",
          "type": "bool"
        }
      ],
      "stateMutability": "view",
      "type": "function"
    },
    {
      "inputs": [
        {
          "internalType": "contract IDepositToken",
          "name": "depositToken_",
          "type": "address"
        }
      ],
      "name": "doesDepositTokenExist",
      "outputs": [
        {
          "internalType": "bool",
          "name": "",
          "type": "bool"
        }
      ],
      "stateMutability": "view",
      "type": "function"
    },
    {
      "inputs": [
        {
          "internalType": "contract ISyntheticToken",
          "name": "syntheticToken_",
          "type": "address"
        }
      ],
      "name": "doesSyntheticTokenExist",
      "outputs": [
        {
          "internalType": "bool",
          "name": "",
          "type": "bool"
        }
      ],
      "stateMutability": "view",
      "type": "function"
    },
    {
      "inputs": [],
      "name": "everythingStopped",
      "outputs": [
        {
          "internalType": "bool",
          "name": "",
          "type": "bool"
        }
      ],
      "stateMutability": "view",
      "type": "function"
    },
    {
      "inputs": [],
      "name": "feeCollector",
      "outputs": [
        {
          "internalType": "address",
          "name": "",
          "type": "address"
        }
      ],
      "stateMutability": "view",
      "type": "function"
    },
    {
      "inputs": [],
      "name": "feeProvider",
      "outputs": [
        {
          "internalType": "contract IFeeProvider",
          "name": "",
          "type": "address"
        }
      ],
      "stateMutability": "view",
      "type": "function"
    },
    {
      "inputs": [],
      "name": "getDebtTokens",
      "outputs": [
        {
          "internalType": "address[]",
          "name": "",
          "type": "address[]"
        }
      ],
      "stateMutability": "view",
      "type": "function"
    },
    {
      "inputs": [
        {
          "internalType": "address",
          "name": "account_",
          "type": "address"
        }
      ],
      "name": "getDebtTokensOfAccount",
      "outputs": [
        {
          "internalType": "address[]",
          "name": "",
          "type": "address[]"
        }
      ],
      "stateMutability": "view",
      "type": "function"
    },
    {
      "inputs": [],
      "name": "getDepositTokens",
      "outputs": [
        {
          "internalType": "address[]",
          "name": "",
          "type": "address[]"
        }
      ],
      "stateMutability": "view",
      "type": "function"
    },
    {
      "inputs": [
        {
          "internalType": "address",
          "name": "account_",
          "type": "address"
        }
      ],
      "name": "getDepositTokensOfAccount",
      "outputs": [
        {
          "internalType": "address[]",
          "name": "",
          "type": "address[]"
        }
      ],
      "stateMutability": "view",
      "type": "function"
    },
    {
      "inputs": [],
      "name": "getRewardsDistributors",
      "outputs": [
        {
          "internalType": "address[]",
          "name": "",
          "type": "address[]"
        }
      ],
      "stateMutability": "view",
      "type": "function"
    },
    {
      "inputs": [],
      "name": "governor",
      "outputs": [
        {
          "internalType": "address",
          "name": "",
          "type": "address"
        }
      ],
      "stateMutability": "view",
      "type": "function"
    },
    {
      "inputs": [
        {
          "internalType": "contract IPoolRegistry",
          "name": "poolRegistry_",
          "type": "address"
        }
      ],
      "name": "initialize",
      "outputs": [],
      "stateMutability": "nonpayable",
      "type": "function"
    },
    {
      "inputs": [],
      "name": "isSwapActive",
      "outputs": [
        {
          "internalType": "bool",
          "name": "",
          "type": "bool"
        }
      ],
      "stateMutability": "view",
      "type": "function"
    },
    {
      "inputs": [
        {
          "internalType": "contract IERC20",
          "name": "tokenIn_",
          "type": "address"
        },
        {
          "internalType": "contract IDepositToken",
          "name": "depositToken_",
          "type": "address"
        },
        {
          "internalType": "contract ISyntheticToken",
          "name": "syntheticToken_",
          "type": "address"
        },
        {
          "internalType": "uint256",
          "name": "amountIn_",
          "type": "uint256"
        },
        {
          "internalType": "uint256",
          "name": "leverage_",
          "type": "uint256"
        },
        {
          "internalType": "uint256",
          "name": "depositAmountMin_",
          "type": "uint256"
        }
      ],
      "name": "leverage",
      "outputs": [],
      "stateMutability": "nonpayable",
      "type": "function"
    },
    {
      "inputs": [
        {
          "internalType": "contract ISyntheticToken",
          "name": "syntheticToken_",
          "type": "address"
        },
        {
          "internalType": "address",
          "name": "account_",
          "type": "address"
        },
        {
          "internalType": "uint256",
          "name": "amountToRepay_",
          "type": "uint256"
        },
        {
          "internalType": "contract IDepositToken",
          "name": "depositToken_",
          "type": "address"
        }
      ],
      "name": "liquidate",
      "outputs": [
        {
          "internalType": "uint256",
          "name": "_totalSeized",
          "type": "uint256"
        },
        {
          "internalType": "uint256",
          "name": "_toLiquidator",
          "type": "uint256"
        },
        {
          "internalType": "uint256",
          "name": "_fee",
          "type": "uint256"
        }
      ],
      "stateMutability": "nonpayable",
      "type": "function"
    },
    {
      "inputs": [],
      "name": "masterOracle",
      "outputs": [
        {
          "internalType": "contract IMasterOracle",
          "name": "",
          "type": "address"
        }
      ],
      "stateMutability": "view",
      "type": "function"
    },
    {
      "inputs": [],
      "name": "maxLiquidable",
      "outputs": [
        {
          "internalType": "uint256",
          "name": "",
          "type": "uint256"
        }
      ],
      "stateMutability": "view",
      "type": "function"
    },
    {
      "inputs": [],
      "name": "open",
      "outputs": [],
      "stateMutability": "nonpayable",
      "type": "function"
    },
    {
      "inputs": [],
      "name": "pause",
      "outputs": [],
      "stateMutability": "nonpayable",
      "type": "function"
    },
    {
      "inputs": [],
      "name": "paused",
      "outputs": [
        {
          "internalType": "bool",
          "name": "",
          "type": "bool"
        }
      ],
      "stateMutability": "view",
      "type": "function"
    },
    {
      "inputs": [],
      "name": "poolRegistry",
      "outputs": [
        {
          "internalType": "contract IPoolRegistry",
          "name": "",
          "type": "address"
        }
      ],
      "stateMutability": "view",
      "type": "function"
    },
    {
      "inputs": [],
      "name": "proposedGovernor",
      "outputs": [
        {
          "internalType": "address",
          "name": "",
          "type": "address"
        }
      ],
      "stateMutability": "view",
      "type": "function"
    },
    {
      "inputs": [
        {
          "internalType": "contract ISyntheticToken",
          "name": "syntheticToken_",
          "type": "address"
        },
        {
          "internalType": "uint256",
          "name": "totalToSeize_",
          "type": "uint256"
        },
        {
          "internalType": "contract IDepositToken",
          "name": "depositToken_",
          "type": "address"
        }
      ],
      "name": "quoteLiquidateIn",
      "outputs": [
        {
          "internalType": "uint256",
          "name": "_amountToRepay",
          "type": "uint256"
        },
        {
          "internalType": "uint256",
          "name": "_toLiquidator",
          "type": "uint256"
        },
        {
          "internalType": "uint256",
          "name": "_fee",
          "type": "uint256"
        }
      ],
      "stateMutability": "view",
      "type": "function"
    },
    {
      "inputs": [
        {
          "internalType": "contract ISyntheticToken",
          "name": "syntheticToken_",
          "type": "address"
        },
        {
          "internalType": "address",
          "name": "account_",
          "type": "address"
        },
        {
          "internalType": "contract IDepositToken",
          "name": "depositToken_",
          "type": "address"
        }
      ],
      "name": "quoteLiquidateMax",
      "outputs": [
        {
          "internalType": "uint256",
          "name": "_maxAmountToRepay",
          "type": "uint256"
        }
      ],
      "stateMutability": "view",
      "type": "function"
    },
    {
      "inputs": [
        {
          "internalType": "contract ISyntheticToken",
          "name": "syntheticToken_",
          "type": "address"
        },
        {
          "internalType": "uint256",
          "name": "amountToRepay_",
          "type": "uint256"
        },
        {
          "internalType": "contract IDepositToken",
          "name": "depositToken_",
          "type": "address"
        }
      ],
      "name": "quoteLiquidateOut",
      "outputs": [
        {
          "internalType": "uint256",
          "name": "_totalToSeize",
          "type": "uint256"
        },
        {
          "internalType": "uint256",
          "name": "_toLiquidator",
          "type": "uint256"
        },
        {
          "internalType": "uint256",
          "name": "_fee",
          "type": "uint256"
        }
      ],
      "stateMutability": "view",
      "type": "function"
    },
    {
      "inputs": [
        {
          "internalType": "contract ISyntheticToken",
          "name": "syntheticTokenIn_",
          "type": "address"
        },
        {
          "internalType": "contract ISyntheticToken",
          "name": "syntheticTokenOut_",
          "type": "address"
        },
        {
          "internalType": "uint256",
          "name": "amountOut_",
          "type": "uint256"
        }
      ],
      "name": "quoteSwapIn",
      "outputs": [
        {
          "internalType": "uint256",
          "name": "_amountIn",
          "type": "uint256"
        },
        {
          "internalType": "uint256",
          "name": "_fee",
          "type": "uint256"
        }
      ],
      "stateMutability": "view",
      "type": "function"
    },
    {
      "inputs": [
        {
          "internalType": "contract ISyntheticToken",
          "name": "syntheticTokenIn_",
          "type": "address"
        },
        {
          "internalType": "contract ISyntheticToken",
          "name": "syntheticTokenOut_",
          "type": "address"
        },
        {
          "internalType": "uint256",
          "name": "amountIn_",
          "type": "uint256"
        }
      ],
      "name": "quoteSwapOut",
      "outputs": [
        {
          "internalType": "uint256",
          "name": "_amountOut",
          "type": "uint256"
        },
        {
          "internalType": "uint256",
          "name": "_fee",
          "type": "uint256"
        }
      ],
      "stateMutability": "view",
      "type": "function"
    },
    {
      "inputs": [
        {
          "internalType": "contract IDebtToken",
          "name": "debtToken_",
          "type": "address"
        }
      ],
      "name": "removeDebtToken",
      "outputs": [],
      "stateMutability": "nonpayable",
      "type": "function"
    },
    {
      "inputs": [
        {
          "internalType": "contract IDepositToken",
          "name": "depositToken_",
          "type": "address"
        }
      ],
      "name": "removeDepositToken",
      "outputs": [],
      "stateMutability": "nonpayable",
      "type": "function"
    },
    {
      "inputs": [
        {
          "internalType": "address",
          "name": "account_",
          "type": "address"
        }
      ],
      "name": "removeFromDebtTokensOfAccount",
      "outputs": [],
      "stateMutability": "nonpayable",
      "type": "function"
    },
    {
      "inputs": [
        {
          "internalType": "address",
          "name": "account_",
          "type": "address"
        }
      ],
      "name": "removeFromDepositTokensOfAccount",
      "outputs": [],
      "stateMutability": "nonpayable",
      "type": "function"
    },
    {
      "inputs": [
        {
          "internalType": "contract IRewardsDistributor",
          "name": "distributor_",
          "type": "address"
        }
      ],
      "name": "removeRewardsDistributor",
      "outputs": [],
      "stateMutability": "nonpayable",
      "type": "function"
    },
    {
      "inputs": [],
      "name": "shutdown",
      "outputs": [],
      "stateMutability": "nonpayable",
      "type": "function"
    },
    {
      "inputs": [
        {
          "internalType": "contract ISyntheticToken",
          "name": "syntheticTokenIn_",
          "type": "address"
        },
        {
          "internalType": "contract ISyntheticToken",
          "name": "syntheticTokenOut_",
          "type": "address"
        },
        {
          "internalType": "uint256",
          "name": "amountIn_",
          "type": "uint256"
        }
      ],
      "name": "swap",
      "outputs": [
        {
          "internalType": "uint256",
          "name": "_amountOut",
          "type": "uint256"
        },
        {
          "internalType": "uint256",
          "name": "_fee",
          "type": "uint256"
        }
      ],
      "stateMutability": "nonpayable",
      "type": "function"
    },
    {
      "inputs": [],
      "name": "swapper",
      "outputs": [
        {
          "internalType": "contract ISwapper",
          "name": "",
          "type": "address"
        }
      ],
      "stateMutability": "view",
      "type": "function"
    },
    {
      "inputs": [
        {
          "internalType": "contract IERC20",
          "name": "token_",
          "type": "address"
        },
        {
          "internalType": "address",
          "name": "to_",
          "type": "address"
        },
        {
          "internalType": "uint256",
          "name": "amount_",
          "type": "uint256"
        }
      ],
      "name": "sweep",
      "outputs": [],
      "stateMutability": "nonpayable",
      "type": "function"
    },
    {
      "inputs": [],
      "name": "toggleIsSwapActive",
      "outputs": [],
      "stateMutability": "nonpayable",
      "type": "function"
    },
    {
      "inputs": [
        {
          "internalType": "address",
          "name": "proposedGovernor_",
          "type": "address"
        }
      ],
      "name": "transferGovernorship",
      "outputs": [],
      "stateMutability": "nonpayable",
      "type": "function"
    },
    {
      "inputs": [],
      "name": "treasury",
      "outputs": [
        {
          "internalType": "contract ITreasury",
          "name": "",
          "type": "address"
        }
      ],
      "stateMutability": "view",
      "type": "function"
    },
    {
      "inputs": [],
      "name": "unpause",
      "outputs": [],
      "stateMutability": "nonpayable",
      "type": "function"
    },
    {
      "inputs": [
        {
          "internalType": "uint256",
          "name": "newDebtFloorInUsd_",
          "type": "uint256"
        }
      ],
      "name": "updateDebtFloor",
      "outputs": [],
      "stateMutability": "nonpayable",
      "type": "function"
    },
    {
      "inputs": [
        {
          "internalType": "contract IFeeProvider",
          "name": "feeProvider_",
          "type": "address"
        }
      ],
      "name": "updateFeeProvider",
      "outputs": [],
      "stateMutability": "nonpayable",
      "type": "function"
    },
    {
      "inputs": [
        {
          "internalType": "uint256",
          "name": "newMaxLiquidable_",
          "type": "uint256"
        }
      ],
      "name": "updateMaxLiquidable",
      "outputs": [],
      "stateMutability": "nonpayable",
      "type": "function"
    },
    {
      "inputs": [
        {
          "internalType": "contract ISwapper",
          "name": "newSwapper_",
          "type": "address"
        }
      ],
      "name": "updateSwapper",
      "outputs": [],
      "stateMutability": "nonpayable",
      "type": "function"
    },
    {
      "inputs": [
        {
          "internalType": "contract ITreasury",
          "name": "newTreasury_",
          "type": "address"
        }
      ],
      "name": "updateTreasury",
      "outputs": [],
      "stateMutability": "nonpayable",
      "type": "function"
    },
    {
      "stateMutability": "payable",
      "type": "receive"
    }
  ],
  "transactionHash": "0x885691130c5d2fbde74df13f93252ad2b937c54bdbb2ba9bb1468bd17b431cd6",
  "args": [],
  "numDeployments": 2,
  "solcInputHash": "23d8f9f96a6eb0ccf1492c78a903110c",
  "bytecode": "0x608060405234801561001057600080fd5b50600280546001600160a01b031916339081179091556040516000907fd4459d5b8b913cab0244230fd9b1c08b6ceace7fe9230e60d0f74cbffdf849d0908290a3615106806100606000396000f3fe60806040526004361061039b5760003560e01c80637d355163116101dc578063d3033c3911610102578063f0c80d3b116100a0578063fb01600d1161006f578063fb01600d14610b16578063fc0e74d114610b2b578063fcfff16f14610b40578063ffa1ad7414610b55576103b9565b8063f0c80d3b14610aab578063f3b27bc314610acb578063f609280914610ae0578063f8977b8414610af6576103b9565b8063df791e50116100dc578063df791e5014610a40578063e35bff9614610a60578063eaada38214610a81578063ecf3a3f914610a96576103b9565b8063d3033c39146109b6578063dbe466b1146109d6578063dde3ab95146109f6576103b9565b80639f8f0fa81161017a578063c4d66de811610149578063c4d66de814610936578063c4d68a1a14610956578063d176e05f14610976578063d283e75f14610996576103b9565b80639f8f0fa8146108ab578063afcff50f146108e1578063b6aa515b14610901578063c415b95c14610921576103b9565b806387cddc86116101b657806387cddc86146108205780638a11a37014610856578063984a68b5146108765780639ab620dd14610896576103b9565b80637d355163146107cb5780637f51bb1f146107eb5780638456cb591461080b576103b9565b80634066fdea116102c157806362c067671161025f5780636c3393671161022e5780636c3393671461074b57806375c6f8ec1461076b578063770b69b41461078b57806379e40cba146107ab576103b9565b806362c06767146106d657806363c56d42146106f657806369c5dfd8146107165780636b4f41af1461072b576103b9565b80634ff9b74a1161029b5780634ff9b74a1461066c57806356aaee2d146106815780635c975abb146106a157806361d027b3146106b6576103b9565b80634066fdea1461060c578063450058f81461062c5780634d7e9a761461064c576103b9565b80632b3297f9116103395780633c2dc254116103085780633c2dc2541461057c5780633de2f6b2146105b75780633f4ba83a146105d75780633f5fc131146105ec576103b9565b80632b3297f9146104f65780632bcb849c146105165780632dd6adb5146105365780633605b51b1461055a576103b9565b80631ccfbc4f116103755780631ccfbc4f1461046157806323e3fbd514610496578063275038d0146104b65780632adcb0c6146104d6576103b9565b80630c340a24146103d25780631a0dd00b1461040f5780631a4660ce1461043f576103b9565b366103b957604051636436c22d60e11b815260040160405180910390fd5b60405163a0152e6360e01b815260040160405180910390fd5b3480156103de57600080fd5b506002546103f2906001600160a01b031681565b6040516001600160a01b0390911681526020015b60405180910390f35b34801561041b57600080fd5b5061042f61042a366004614bd2565b610b93565b6040519015158152602001610406565b34801561044b57600080fd5b5061045f61045a366004614bef565b610bb3565b005b34801561046d57600080fd5b5061048161047c366004614c08565b610c41565b60408051928352602083019190915201610406565b3480156104a257600080fd5b506104816104b1366004614bd2565b610e04565b3480156104c257600080fd5b5061045f6104d1366004614bd2565b611055565b3480156104e257600080fd5b506104816104f1366004614c08565b6110a7565b34801561050257600080fd5b506017546103f2906001600160a01b031681565b34801561052257600080fd5b5061045f610531366004614bd2565b611257565b34801561054257600080fd5b5061054c600b5481565b604051908152602001610406565b34801561056657600080fd5b5061056f61133d565b6040516104069190614c49565b34801561058857600080fd5b5061059c610597366004614c96565b61134e565b60408051938452602084019290925290820152606001610406565b3480156105c357600080fd5b5061059c6105d2366004614cd8565b611573565b3480156105e357600080fd5b5061045f611bb5565b3480156105f857600080fd5b5061045f610607366004614bd2565b611c65565b34801561061857600080fd5b506018546103f2906001600160a01b031681565b34801561063857600080fd5b5061042f610647366004614bd2565b611cf9565b34801561065857600080fd5b5061045f610667366004614d2b565b611d0c565b34801561067857600080fd5b5061056f6124ac565b34801561068d57600080fd5b5061045f61069c366004614bd2565b6124b8565b3480156106ad57600080fd5b5061042f612569565b3480156106c257600080fd5b50600d546103f2906001600160a01b031681565b3480156106e257600080fd5b5061045f6106f1366004614c08565b612605565b34801561070257600080fd5b5061045f610711366004614bd2565b61263e565b34801561072257600080fd5b5061054c601e81565b34801561073757600080fd5b5061045f610746366004614bd2565b6126f7565b34801561075757600080fd5b5061059c610766366004614c96565b61289d565b34801561077757600080fd5b5061045f610786366004614bd2565b612a87565b34801561079757600080fd5b5061045f6107a6366004614bd2565b612ad6565b3480156107b757600080fd5b5061045f6107c6366004614bd2565b612b66565b3480156107d757600080fd5b5061056f6107e6366004614bd2565b612d10565b3480156107f757600080fd5b5061045f610806366004614bd2565b612d1d565b34801561081757600080fd5b5061045f612e6e565b34801561082c57600080fd5b506103f261083b366004614bd2565b6010602052600090815260409020546001600160a01b031681565b34801561086257600080fd5b506003546103f2906001600160a01b031681565b34801561088257600080fd5b5061054c610891366004614d90565b612eff565b3480156108a257600080fd5b5061045f61305a565b3480156108b757600080fd5b506103f26108c6366004614bd2565b6016602052600090815260409020546001600160a01b031681565b3480156108ed57600080fd5b50600c546103f2906001600160a01b031681565b34801561090d57600080fd5b5061045f61091c366004614bd2565b6130e6565b34801561092d57600080fd5b506103f261315a565b34801561094257600080fd5b5061045f610951366004614bd2565b6131d7565b34801561096257600080fd5b5061045f610971366004614bd2565b6132a7565b34801561098257600080fd5b5061056f610991366004614bd2565b61345b565b3480156109a257600080fd5b5061054c6109b1366004614bd2565b613468565b3480156109c257600080fd5b5061045f6109d1366004614bd2565b61362b565b3480156109e257600080fd5b5061045f6109f1366004614bd2565b613714565b348015610a0257600080fd5b50610a16610a11366004614bd2565b6138c8565b6040805195151586526020860194909452928401919091526060830152608082015260a001610406565b348015610a4c57600080fd5b50610481610a5b366004614c08565b613912565b348015610a6c57600080fd5b50600c5461042f90600160a01b900460ff1681565b348015610a8d57600080fd5b506103f2613c99565b348015610aa257600080fd5b5061042f613cde565b348015610ab757600080fd5b5061045f610ac6366004614bef565b613d42565b348015610ad757600080fd5b5061045f613df9565b348015610aec57600080fd5b5061054c60045481565b348015610b0257600080fd5b5061042f610b11366004614bd2565b613e88565b348015610b2257600080fd5b5061056f613e95565b348015610b3757600080fd5b5061045f613ea1565b348015610b4c57600080fd5b5061045f613f34565b348015610b6157600080fd5b50610b86604051806040016040528060058152602001640312e312e360dc1b81525081565b6040516104069190614dfc565b6001600160a01b0390811660009081526016602052604090205416151590565b6002546001600160a01b03163314610bde57604051634b98449160e11b815260040160405180910390fd5b60045481811415610c0257604051630333a68160e41b815260040160405180910390fd5b60408051828152602081018490527f0662703672e57800b9439de3a419c9155283ad25ea7776c139c876bd8b93bb98910160405180910390a150600455565b60185460405163d2d6b5a360e01b8152336004820152600091829182916001600160a01b03169063d2d6b5a39060240160206040518083038186803b158015610c8957600080fd5b505afa158015610c9d573d6000803e3d6000fd5b505050506040513d601f19601f82011682018060405250810190610cc19190614e2f565b90508015610cf457610ce5610cde82670de0b6b3a7640000614e5e565b8590613fbe565b9350610cf18482613ff2565b91505b600c60009054906101000a90046001600160a01b03166001600160a01b031663eaada3826040518163ffffffff1660e01b815260040160206040518083038186803b158015610d4257600080fd5b505afa158015610d56573d6000803e3d6000fd5b505050506040513d601f19601f82011682018060405250810190610d7a9190614e75565b6001600160a01b031663b64663848688876040518463ffffffff1660e01b8152600401610da993929190614e92565b60206040518083038186803b158015610dc157600080fd5b505afa158015610dd5573d6000803e3d6000fd5b505050506040513d601f19601f82011682018060405250810190610df99190614e2f565b925050935093915050565b6000806000610e11613c99565b90506000610e2060138661402a565b905060005b8181101561104d576000610e3b60138884614048565b90506000846001600160a01b0316638d0dba00836001600160a01b0316636f307dc36040518163ffffffff1660e01b815260040160206040518083038186803b158015610e8757600080fd5b505afa158015610e9b573d6000803e3d6000fd5b505050506040513d601f19601f82011682018060405250810190610ebf9190614e75565b6040516370a0823160e01b81526001600160a01b038c811660048301528616906370a082319060240160206040518083038186803b158015610f0057600080fd5b505afa158015610f14573d6000803e3d6000fd5b505050506040513d601f19601f82011682018060405250810190610f389190614e2f565b6040518363ffffffff1660e01b8152600401610f55929190614eb6565b60206040518083038186803b158015610f6d57600080fd5b505afa158015610f81573d6000803e3d6000fd5b505050506040513d601f19601f82011682018060405250810190610fa59190614e2f565b9050610fb18188614ecf565b965061102e826001600160a01b031663df011c416040518163ffffffff1660e01b815260040160206040518083038186803b158015610fef57600080fd5b505afa158015611003573d6000803e3d6000fd5b505050506040513d601f19601f820116820180604052508101906110279190614e2f565b8290613ff2565b6110389087614ecf565b955050508061104690614ee7565b9050610e25565b505050915091565b61105e33613e88565b61107b576040516326688ebb60e11b815260040160405180910390fd5b6110876013823361405d565b6110a45760405163a67d528360e01b815260040160405180910390fd5b50565b600080600c60009054906101000a90046001600160a01b03166001600160a01b031663eaada3826040518163ffffffff1660e01b815260040160206040518083038186803b1580156110f857600080fd5b505afa15801561110c573d6000803e3d6000fd5b505050506040513d601f19601f820116820180604052508101906111309190614e75565b6001600160a01b031663b64663848686866040518463ffffffff1660e01b815260040161115f93929190614e92565b60206040518083038186803b15801561117757600080fd5b505afa15801561118b573d6000803e3d6000fd5b505050506040513d601f19601f820116820180604052508101906111af9190614e2f565b60185460405163d2d6b5a360e01b81523360048201529193506000916001600160a01b039091169063d2d6b5a39060240160206040518083038186803b1580156111f857600080fd5b505afa15801561120c573d6000803e3d6000fd5b505050506040513d601f19601f820116820180604052508101906112309190614e2f565b9050801561124e576112428382613ff2565b9150610df98284614e5e565b50935093915050565b6002546001600160a01b0316331461128257604051634b98449160e11b815260040160405180910390fd5b6001600160a01b0381166112a95760405163fb7566d760e01b815260040160405180910390fd5b6018546001600160a01b039081169082168114156112da57604051630333a68160e41b815260040160405180910390fd5b816001600160a01b0316816001600160a01b03167f66fa9df7ccacf7a0c110fd7dd4591f59c76a798409b4aeaf850002679baca45560405160405180910390a350601880546001600160a01b0319166001600160a01b0392909216919091179055565b6060611349601961406a565b905090565b6018546040805163cfc0c69f60e01b8152815160009384938493849384936001600160a01b03169263cfc0c69f9260048082019391829003018186803b15801561139757600080fd5b505afa1580156113ab573d6000803e3d6000fd5b505050506040513d601f19601f820116820180604052508101906113cf9190614f1e565b909250905060006113e08383614f51565b6001600160801b031690508781156114115761140e61140783670de0b6b3a7640000614ecf565b8290613fbe565b90505b611419613c99565b6001600160a01b031663b6466384896001600160a01b0316636f307dc36040518163ffffffff1660e01b815260040160206040518083038186803b15801561146057600080fd5b505afa158015611474573d6000803e3d6000fd5b505050506040513d601f19601f820116820180604052508101906114989190614e75565b8c846040518463ffffffff1660e01b81526004016114b893929190614e92565b60206040518083038186803b1580156114d057600080fd5b505afa1580156114e4573d6000803e3d6000fd5b505050506040513d601f19601f820116820180604052508101906115089190614e2f565b96506001600160801b0383161561152f5761152c816001600160801b038516613ff2565b94505b6001600160801b038416156115665761156361155385670de0b6b3a7640000614f51565b82906001600160801b0316613ff2565b95505b5050505093509350939050565b6000806000611580613cde565b1561159e57604051631b0e923f60e11b815260040160405180910390fd5b600260015414156115ca5760405162461bcd60e51b81526004016115c190614f7c565b60405180910390fd5b6002600155866115d981610b93565b6115f65760405163a596698b60e01b815260040160405180910390fd5b8461160081613e88565b61161d57604051630d8b6eb760e01b815260040160405180910390fd5b8661163b576040516310eb483f60e21b815260040160405180910390fd5b336001600160a01b038916141561166557604051630ecda8a760e01b815260040160405180910390fd5b6001600160a01b03808a1660009081526016602052604080822054815163a6afed9560e01b81529151931692839263a6afed95926004808201939182900301818387803b1580156116b557600080fd5b505af11580156116c9573d6000803e3d6000fd5b5050505060006116d88a6138c8565b50505050905080156116fd5760405163202881bd60e11b815260040160405180910390fd5b6040516370a0823160e01b81526001600160a01b038b81166004830152600091908416906370a082319060240160206040518083038186803b15801561174257600080fd5b505afa158015611756573d6000803e3d6000fd5b505050506040513d601f19601f8201168201806040525081019061177a9190614e2f565b600b5490915061178a8b83613fbe565b11156117a95760405163e292f24f60e01b815260040160405180910390fd5b60006117b3613c99565b6004549091501561187a5760006001600160a01b038216638d0dba008f6117da8f87614e5e565b6040518363ffffffff1660e01b81526004016117f7929190614eb6565b60206040518083038186803b15801561180f57600080fd5b505afa158015611823573d6000803e3d6000fd5b505050506040513d601f19601f820116820180604052508101906118479190614e2f565b905060008111801561185a575060045481105b15611878576040516332b9d47360e01b815260040160405180910390fd5b505b6118858d8c8c61289d565b6040516370a0823160e01b8152929b5090995097506001600160a01b038b16906370a08231906118c8908f906004016001600160a01b0391909116815260200190565b60206040518083038186803b1580156118e057600080fd5b505afa1580156118f4573d6000803e3d6000fd5b505050506040513d601f19601f820116820180604052508101906119189190614e2f565b89111561193857604051630436f2eb60e51b815260040160405180910390fd5b604051632770a7eb60e21b81526001600160a01b038e1690639dc29fac906119669033908f90600401614eb6565b600060405180830381600087803b15801561198057600080fd5b505af1158015611994573d6000803e3d6000fd5b5050604051632770a7eb60e21b81526001600160a01b0387169250639dc29fac91506119c6908f908f90600401614eb6565b600060405180830381600087803b1580156119e057600080fd5b505af11580156119f4573d6000803e3d6000fd5b505060405163b2a02ff160e01b81526001600160a01b038d16925063b2a02ff19150611a28908f9033908d90600401614e92565b600060405180830381600087803b158015611a4257600080fd5b505af1158015611a56573d6000803e3d6000fd5b505050506000871115611b4b57896001600160a01b031663b2a02ff18d600c60009054906101000a90046001600160a01b03166001600160a01b031663c415b95c6040518163ffffffff1660e01b815260040160206040518083038186803b158015611ac157600080fd5b505afa158015611ad5573d6000803e3d6000fd5b505050506040513d601f19601f82011682018060405250810190611af99190614e75565b8a6040518463ffffffff1660e01b8152600401611b1893929190614e92565b600060405180830381600087803b158015611b3257600080fd5b505af1158015611b46573d6000803e3d6000fd5b505050505b604080518c8152602081018b90529081018890526001600160a01b03808f1691908e169033907fe1c3870e3d7d5199a16d200133088e6e3f7012d28571e442a110b4c83b5e3b949060600160405180910390a4505050505050600180819055509450945094915050565b611bbd612569565b611bda5760405163bc871ce560e01b815260040160405180910390fd5b611be2613cde565b15611c0057604051631b0e923f60e11b815260040160405180910390fd5b6002546001600160a01b03163314611c2b57604051634b98449160e11b815260040160405180910390fd5b6003805460ff60a01b1916905560405133907f5db9ee0a495bf2e6ff9c91a7834c1ba4fdd244a5e8aa4e537bd38aeae4b073aa90600090a2565b611c6e33613e88565b611c8b576040516326688ebb60e11b815260040160405180910390fd5b80601e611c9960138361402a565b611ca460148461402a565b611cae9190614ecf565b10611ccc576040516306ceeb8360e21b815260040160405180910390fd5b611cd860138333614077565b611cf55760405163dd40dad960e01b815260040160405180910390fd5b5050565b6000611d06601183614084565b92915050565b611d14613cde565b15611d3257604051631b0e923f60e11b815260040160405180910390fd5b60026001541415611d555760405162461bcd60e51b81526004016115c190614f7c565b600260015584611d6481613e88565b611d8157604051630d8b6eb760e01b815260040160405180910390fd5b84611d8b81610b93565b611da85760405163a596698b60e01b815260040160405180910390fd5b670de0b6b3a76400008411611dd057604051631907e1ff60e21b815260040160405180910390fd5b611e65876001600160a01b031663df011c416040518163ffffffff1660e01b815260040160206040518083038186803b158015611e0c57600080fd5b505afa158015611e20573d6000803e3d6000fd5b505050506040513d601f19601f82011682018060405250810190611e449190614e2f565b611e5690670de0b6b3a7640000614e5e565b670de0b6b3a764000090613fbe565b841115611e8557604051630a4f5a0760e01b815260040160405180910390fd5b6000601760009054906101000a90046001600160a01b031690506000886001600160a01b0316636f307dc36040518163ffffffff1660e01b815260040160206040518083038186803b158015611eda57600080fd5b505afa158015611eee573d6000803e3d6000fd5b505050506040513d601f19601f82011682018060405250810190611f129190614e75565b90506001600160a01b038a16611f26578099505b6040516370a0823160e01b81523060048201526000906001600160a01b038316906370a082319060240160206040518083038186803b158015611f6857600080fd5b505afa158015611f7c573d6000803e3d6000fd5b505050506040513d601f19601f82011682018060405250810190611fa09190614e2f565b9050611fb76001600160a01b038c1633308b6140a6565b816001600160a01b03168b6001600160a01b03161461211757611fe56001600160a01b038c16846000614104565b611ff96001600160a01b038c16848a614104565b604051636ccb2b0160e01b81526001600160a01b038c811660048301528381166024830152604482018a905260006064830152306084830152841690636ccb2b019060a401602060405180830381600087803b15801561205857600080fd5b505af115801561206c573d6000803e3d6000fd5b505050506040513d601f19601f820116820180604052508101906120909190614e2f565b506040516370a0823160e01b815230600482015281906001600160a01b038416906370a082319060240160206040518083038186803b1580156120d257600080fd5b505afa1580156120e6573d6000803e3d6000fd5b505050506040513d601f19601f8201168201806040525081019061210a9190614e2f565b6121149190614e5e565b97505b6000612121613c99565b6001600160a01b031663b6466384848c61214d8d612147670de0b6b3a76400008f614e5e565b90613ff2565b6040518463ffffffff1660e01b815260040161216b93929190614e92565b60206040518083038186803b15801561218357600080fd5b505afa158015612197573d6000803e3d6000fd5b505050506040513d601f19601f820116820180604052508101906121bb9190614e2f565b6001600160a01b03808c16600090815260166020526040808220549051635fd0bb2b60e11b8152939450909291169063bfa17656906122009033908690600401614eb6565b6040805180830381600087803b15801561221957600080fd5b505af115801561222d573d6000803e3d6000fd5b505050506040513d601f19601f820116820180604052508101906122519190614fb3565b5090506122696001600160a01b038c16866000614104565b61227d6001600160a01b038c168683614104565b604051636ccb2b0160e01b81526001600160a01b038c8116600483015285811660248301526044820183905260006064830152306084830152861690636ccb2b019060a401602060405180830381600087803b1580156122dc57600080fd5b505af11580156122f0573d6000803e3d6000fd5b505050506040513d601f19601f820116820180604052508101906123149190614e2f565b506040516370a0823160e01b815230600482015260009084906001600160a01b038716906370a082319060240160206040518083038186803b15801561235957600080fd5b505afa15801561236d573d6000803e3d6000fd5b505050506040513d601f19601f820116820180604052508101906123919190614e2f565b61239b9190614e5e565b9050888110156123be5760405163c724afdf60e01b815260040160405180910390fd5b6123d36001600160a01b0386168e6000614104565b6123e76001600160a01b0386168e83614104565b604051636e553f6560e01b8152600481018290523360248201526001600160a01b038e1690636e553f65906044016040805180830381600087803b15801561242e57600080fd5b505af1158015612442573d6000803e3d6000fd5b505050506040513d601f19601f820116820180604052508101906124669190614fb3565b50506000612473336138c8565b505050509050806124975760405163cfd3600360e01b815260040160405180910390fd5b50506001805550505050505050505050505050565b6060611349601161406a565b6002546001600160a01b031633146124e357604051634b98449160e11b815260040160405180910390fd5b6001600160a01b03811661250a5760405163fb7566d760e01b815260040160405180910390fd5b612515601982614217565b61253257604051631e577fa560e31b815260040160405180910390fd5b6040516001600160a01b038216907f5579b1eead2d904c2b05255a92f5a4a4f3e234ae0a4efe538adef3c1794e1cea90600090a250565b600354600090600160a01b900460ff16806113495750600c60009054906101000a90046001600160a01b03166001600160a01b0316635c975abb6040518163ffffffff1660e01b815260040160206040518083038186803b1580156125cd57600080fd5b505afa1580156125e1573d6000803e3d6000fd5b505050506040513d601f19601f820116820180604052508101906113499190614fd7565b61260d61422c565b6001600160a01b03831661262a576126258282614259565b505050565b6126256001600160a01b0384168383614372565b6002546001600160a01b0316331461266957604051634b98449160e11b815260040160405180910390fd5b6001600160a01b0381166126905760405163fb7566d760e01b815260040160405180910390fd5b61269b601982614391565b6126b8576040516362c4c75f60e01b815260040160405180910390fd5b6040516001600160a01b03821681527f5412e32b52c11e4b232ab59f3660d55b48eb20735ccb2c67a0a1ebea0d6fe0199060200160405180910390a150565b6002546001600160a01b0316331461272257604051634b98449160e11b815260040160405180910390fd5b6001600160a01b0381166127495760405163fb7566d760e01b815260040160405180910390fd5b6000816001600160a01b0316638230ecd66040518163ffffffff1660e01b815260040160206040518083038186803b15801561278457600080fd5b505afa158015612798573d6000803e3d6000fd5b505050506040513d601f19601f820116820180604052508101906127bc9190614e75565b90506001600160a01b0381166127e55760405163013a1b4360e51b815260040160405180910390fd5b6001600160a01b03818116600090815260166020526040902054161561281e5760405163fa9b809960e01b815260040160405180910390fd5b612829601183614217565b61284657604051631f477b5760e11b815260040160405180910390fd5b6001600160a01b0381811660009081526016602052604080822080546001600160a01b0319169386169384179055517fad48bee6bbb1b8ece321157ad29afc3c6baa177f8dc043132d65038cc601cdd69190a25050565b60008060006128aa613c99565b6001600160a01b031663b646638487866001600160a01b0316636f307dc36040518163ffffffff1660e01b815260040160206040518083038186803b1580156128f257600080fd5b505afa158015612906573d6000803e3d6000fd5b505050506040513d601f19601f8201168201806040525081019061292a9190614e75565b886040518463ffffffff1660e01b815260040161294993929190614e92565b60206040518083038186803b15801561296157600080fd5b505afa158015612975573d6000803e3d6000fd5b505050506040513d601f19601f820116820180604052508101906129999190614e2f565b6018546040805163cfc0c69f60e01b8152815193955060009384936001600160a01b03169263cfc0c69f9260048082019391829003018186803b1580156129df57600080fd5b505afa1580156129f3573d6000803e3d6000fd5b505050506040513d601f19601f82011682018060405250810190612a179190614f1e565b90925090506001600160801b03811615612a4157612a3e846001600160801b038316613ff2565b92505b6001600160801b03821615612a7057612a63846001600160801b038416613ff2565b612a6d9085614ecf565b93505b612a7a8484614ecf565b9450505093509350939050565b612a9033611cf9565b612aad576040516304f8b91760e51b815260040160405180910390fd5b612ab96014823361405d565b6110a4576040516359c937f160e01b815260040160405180910390fd5b612adf33611cf9565b612afc576040516304f8b91760e51b815260040160405180910390fd5b80601e612b0a60138361402a565b612b1560148461402a565b612b1f9190614ecf565b10612b3d576040516306ceeb8360e21b815260040160405180910390fd5b612b4960148333614077565b611cf557604051631f477b5760e11b815260040160405180910390fd5b6002546001600160a01b03163314612b9157604051634b98449160e11b815260040160405180910390fd5b6001600160a01b038116612bb85760405163fb7566d760e01b815260040160405180910390fd5b6000816001600160a01b0316636f307dc36040518163ffffffff1660e01b815260040160206040518083038186803b158015612bf357600080fd5b505afa158015612c07573d6000803e3d6000fd5b505050506040513d601f19601f82011682018060405250810190612c2b9190614e75565b6001600160a01b038082166000908152601060205260409020549192501615612c675760405163374f601360e11b815260040160405180910390fd5b601e612c73600e6143a6565b10612c915760405163225b605b60e21b815260040160405180910390fd5b612c9c600e83614217565b612cb95760405163dd40dad960e01b815260040160405180910390fd5b6001600160a01b0381811660009081526010602052604080822080546001600160a01b0319169386169384179055517fdc705e658c7b6c6c01f5802457bf4ffb99f204bf1603e7b1ae3d4c7536611bc29190a25050565b6060611d066013836143b0565b6002546001600160a01b03163314612d4857604051634b98449160e11b815260040160405180910390fd5b6001600160a01b038116612d6f5760405163fb7566d760e01b815260040160405180910390fd5b600d546001600160a01b03908116908216811415612da057604051630333a68160e41b815260040160405180910390fd5b6001600160a01b03811615612e0b576040516326ed7c7960e11b81526001600160a01b038381166004830152821690634ddaf8f290602401600060405180830381600087803b158015612df257600080fd5b505af1158015612e06573d6000803e3d6000fd5b505050505b816001600160a01b0316816001600160a01b03167f4ab5be82436d353e61ca18726e984e561f5c1cc7c6d38b29d2553c790434705a60405160405180910390a350600d80546001600160a01b0319166001600160a01b0392909216919091179055565b612e76612569565b15612e9457604051631309a56360e01b815260040160405180910390fd5b6002546001600160a01b03163314612ebf57604051634b98449160e11b815260040160405180910390fd5b6003805460ff60a01b1916600160a01b17905560405133907f62e78cea01bee320cd4e420270b5ea74000d11b0c9f74754ebdbfc544b05a25890600090a2565b600080612f0b846138c8565b5050505090508015612f21576000915050613053565b6040516370a0823160e01b81526001600160a01b038581166004830152600091612faa918891908716906370a082319060240160206040518083038186803b158015612f6c57600080fd5b505afa158015612f80573d6000803e3d6000fd5b505050506040513d601f19601f82011682018060405250810190612fa49190614e2f565b8661134e565b5050600b546001600160a01b03888116600090815260166020526040908190205490516370a0823160e01b81528983166004820152939450613042939116906370a082319060240160206040518083038186803b15801561300a57600080fd5b505afa15801561301e573d6000803e3d6000fd5b505050506040513d601f19601f820116820180604052508101906121479190614e2f565b925082811015613050578092505b50505b9392505050565b6002546001600160a01b0316331461308557604051634b98449160e11b815260040160405180910390fd5b600c54604051600160a01b90910460ff1615808252907fc8011ac148e14ab1e8f93a022ebc29088beedc705027c8eb9514d6d69c5b23639060200160405180910390a1600c8054911515600160a01b0260ff60a01b19909216919091179055565b6002546001600160a01b0316331461311157604051634b98449160e11b815260040160405180910390fd5b6001600160a01b03811661313857604051634c267bfb60e01b815260040160405180910390fd5b600380546001600160a01b0319166001600160a01b0392909216919091179055565b600c54604080516331056e5760e21b815290516000926001600160a01b03169163c415b95c916004808301926020929190829003018186803b15801561319f57600080fd5b505afa1580156131b3573d6000803e3d6000fd5b505050506040513d601f19601f820116820180604052508101906113499190614e75565b600054610100900460ff16806131f0575060005460ff16155b61320c5760405162461bcd60e51b81526004016115c190614ff9565b600054610100900460ff1615801561322e576000805461ffff19166101011790555b6001600160a01b03821661325557604051637cb62f2b60e11b815260040160405180910390fd5b61325d6143be565b61326561442d565b600c80546001600160a81b0319166001600160a01b03841617600160a01b1790556706f05b59d3b20000600b558015611cf5576000805461ff00191690555050565b6002546001600160a01b031633146132d257604051634b98449160e11b815260040160405180910390fd5b6000816001600160a01b03166318160ddd6040518163ffffffff1660e01b815260040160206040518083038186803b15801561330d57600080fd5b505afa158015613321573d6000803e3d6000fd5b505050506040513d601f19601f820116820180604052508101906133459190614e2f565b11156133645760405163066097f160e31b815260040160405180910390fd5b61336f601182614391565b61338c576040516359c937f160e01b815260040160405180910390fd5b60166000826001600160a01b0316638230ecd66040518163ffffffff1660e01b815260040160206040518083038186803b1580156133c957600080fd5b505afa1580156133dd573d6000803e3d6000fd5b505050506040513d601f19601f820116820180604052508101906134019190614e75565b6001600160a01b03908116825260208201929092526040908101600090812080546001600160a01b03191690559051918316917f81e9205ee5a9e1289fad5baa5e74bd49d4613652eb4626bb15925bf9fdbc0feb9190a250565b6060611d066014836143b0565b600080613473613c99565b9050600061348260148561402a565b905060005b8181101561362357600061349d60148784614048565b9050836001600160a01b0316638d0dba00826001600160a01b0316638230ecd66040518163ffffffff1660e01b815260040160206040518083038186803b1580156134e757600080fd5b505afa1580156134fb573d6000803e3d6000fd5b505050506040513d601f19601f8201168201806040525081019061351f9190614e75565b6040516370a0823160e01b81526001600160a01b038a811660048301528516906370a082319060240160206040518083038186803b15801561356057600080fd5b505afa158015613574573d6000803e3d6000fd5b505050506040513d601f19601f820116820180604052508101906135989190614e2f565b6040518363ffffffff1660e01b81526004016135b5929190614eb6565b60206040518083038186803b1580156135cd57600080fd5b505afa1580156135e1573d6000803e3d6000fd5b505050506040513d601f19601f820116820180604052508101906136059190614e2f565b61360f9086614ecf565b9450508061361c90614ee7565b9050613487565b505050919050565b6002546001600160a01b0316331461365657604051634b98449160e11b815260040160405180910390fd5b6001600160a01b03811661367d5760405163fb7566d760e01b815260040160405180910390fd5b6017546001600160a01b039081169082168114156136ae57604051630333a68160e41b815260040160405180910390fd5b604080516001600160a01b038084168252841660208201527ffb7a5f1d35a7022d9d6343bfc9a25035829d0ea72da06978793c945b1d94a17f910160405180910390a150601780546001600160a01b0319166001600160a01b0392909216919091179055565b6002546001600160a01b0316331461373f57604051634b98449160e11b815260040160405180910390fd5b6000816001600160a01b03166318160ddd6040518163ffffffff1660e01b815260040160206040518083038186803b15801561377a57600080fd5b505afa15801561378e573d6000803e3d6000fd5b505050506040513d601f19601f820116820180604052508101906137b29190614e2f565b11156137d15760405163066097f160e31b815260040160405180910390fd5b6137dc600e82614391565b6137f95760405163a67d528360e01b815260040160405180910390fd5b60106000826001600160a01b0316636f307dc36040518163ffffffff1660e01b815260040160206040518083038186803b15801561383657600080fd5b505afa15801561384a573d6000803e3d6000fd5b505050506040513d601f19601f8201168201806040525081019061386e9190614e75565b6001600160a01b03908116825260208201929092526040908101600090812080546001600160a01b03191690559051918316917fe5a19a76470297a1f85f9a38f3ff148b4c8cdc1209e074dbe59db5e22eb31a3a9190a250565b60008060008060006138d986613468565b92506138e486610e04565b80851115965090945091508183106138fd576000613907565b6139078383614e5e565b905091939590929450565b60008061391d613cde565b1561393b57604051631b0e923f60e11b815260040160405180910390fd5b6002600154141561395e5760405162461bcd60e51b81526004016115c190614f7c565b60026001558461396d81610b93565b61398a5760405163a596698b60e01b815260040160405180910390fd5b8461399481610b93565b6139b15760405163a596698b60e01b815260040160405180910390fd5b600c54600160a01b900460ff166139db57604051633840404b60e21b815260040160405180910390fd5b841580613a5d57506040516370a0823160e01b81523360048201526001600160a01b038816906370a082319060240160206040518083038186803b158015613a2257600080fd5b505afa158015613a36573d6000803e3d6000fd5b505050506040513d601f19601f82011682018060405250810190613a5a9190614e2f565b85115b15613a7b5760405163ca99073960e01b815260040160405180910390fd5b604051632770a7eb60e21b81526001600160a01b03881690639dc29fac90613aa99033908990600401614eb6565b600060405180830381600087803b158015613ac357600080fd5b505af1158015613ad7573d6000803e3d6000fd5b50505050613ae68787876110a7565b90945092508215613bd757856001600160a01b03166340c10f19600c60009054906101000a90046001600160a01b03166001600160a01b031663c415b95c6040518163ffffffff1660e01b815260040160206040518083038186803b158015613b4e57600080fd5b505afa158015613b62573d6000803e3d6000fd5b505050506040513d601f19601f82011682018060405250810190613b869190614e75565b856040518363ffffffff1660e01b8152600401613ba4929190614eb6565b600060405180830381600087803b158015613bbe57600080fd5b505af1158015613bd2573d6000803e3d6000fd5b505050505b6040516340c10f1960e01b81526001600160a01b038716906340c10f1990613c059033908890600401614eb6565b600060405180830381600087803b158015613c1f57600080fd5b505af1158015613c33573d6000803e3d6000fd5b505060408051888152602081018890529081018690526001600160a01b03808a1693508a16915033907fafd74f009c0ff7627726f24b568ee5529cd297f6a7a1e43ec363443a13a584209060600160405180910390a45050600180559094909350915050565b600c5460408051637556d1c160e11b815290516000926001600160a01b03169163eaada382916004808301926020929190829003018186803b15801561319f57600080fd5b600354600090600160a81b900460ff16806113495750600c60009054906101000a90046001600160a01b03166001600160a01b031663ecf3a3f96040518163ffffffff1660e01b815260040160206040518083038186803b1580156125cd57600080fd5b6002546001600160a01b03163314613d6d57604051634b98449160e11b815260040160405180910390fd5b670de0b6b3a7640000811115613d9657604051633c2c00b560e21b815260040160405180910390fd5b600b5481811415613dba57604051630333a68160e41b815260040160405180910390fd5b60408051828152602081018490527f6d8ed4ad9ba67058e16e32fc3c8da2e3358da6cd1599e0e0fb2630d0a19fd49c910160405180910390a150600b55565b6003546001600160a01b0316338114613e255760405163038cdbad60e31b815260040160405180910390fd5b6002546040516001600160a01b038084169216907fd4459d5b8b913cab0244230fd9b1c08b6ceace7fe9230e60d0f74cbffdf849d090600090a3600280546001600160a01b039092166001600160a01b0319928316179055600380549091169055565b6000611d06600e83614084565b6060611349600e61406a565b613ea9613cde565b15613ec757604051631b0e923f60e11b815260040160405180910390fd5b6002546001600160a01b03163314613ef257604051634b98449160e11b815260040160405180910390fd5b6003805461ffff60a01b191661010160a01b17905560405133907f28b4c24cb1012c094cd2f59f98e89d791973295f8fda6eaa118022d6d318960a90600090a2565b613f3c613cde565b613f5957604051636e2cff4560e01b815260040160405180910390fd5b6002546001600160a01b03163314613f8457604051634b98449160e11b815260040160405180910390fd5b6003805460ff60a81b1916905560405133907fece7583a70a505ef0e36d4dec768f5ae597713e09c26011022599ee01abdabfc90600090a2565b600081613fcc600282615047565b613fde670de0b6b3a764000086615069565b613fe89190614ecf565b6130539190615047565b6000821580613fff575081155b1561400c57506000611d06565b670de0b6b3a7640000614020600282615047565b613fde8486615069565b6001600160a01b038116600090815260208390526040812054613053565b60006140558484846144a0565b949350505050565b60006140558484846144e7565b6060600061305383614694565b60006140558484846146f0565b6001600160a01b03811660009081526001830160205260408120541515613053565b6140fe846323b872dd60e01b8585856040516024016140c793929190614e92565b60408051601f198184030181529190526020810180516001600160e01b03166001600160e01b03199093169290921790915261477e565b50505050565b80158061418d5750604051636eb1769f60e11b81523060048201526001600160a01b03838116602483015284169063dd62ed3e9060440160206040518083038186803b15801561415357600080fd5b505afa158015614167573d6000803e3d6000fd5b505050506040513d601f19601f8201168201806040525081019061418b9190614e2f565b155b6141f85760405162461bcd60e51b815260206004820152603660248201527f5361666545524332303a20617070726f76652066726f6d206e6f6e2d7a65726f60448201527520746f206e6f6e2d7a65726f20616c6c6f77616e636560501b60648201526084016115c1565b6126258363095ea7b360e01b84846040516024016140c7929190614eb6565b6000613053836001600160a01b038416614850565b6002546001600160a01b0316331461425757604051634b98449160e11b815260040160405180910390fd5b565b804710156142a95760405162461bcd60e51b815260206004820152601d60248201527f416464726573733a20696e73756666696369656e742062616c616e636500000060448201526064016115c1565b6000826001600160a01b03168260405160006040518083038185875af1925050503d80600081146142f6576040519150601f19603f3d011682016040523d82523d6000602084013e6142fb565b606091505b50509050806126255760405162461bcd60e51b815260206004820152603a60248201527f416464726573733a20756e61626c6520746f2073656e642076616c75652c207260448201527f6563697069656e74206d6179206861766520726576657274656400000000000060648201526084016115c1565b6126258363a9059cbb60e01b84846040516024016140c7929190614eb6565b6000613053836001600160a01b03841661489f565b6000611d06825490565b606060006140558484614992565b600054610100900460ff16806143d7575060005460ff16155b6143f35760405162461bcd60e51b81526004016115c190614ff9565b600054610100900460ff16158015614415576000805461ffff19166101011790555b6001805580156110a4576000805461ff001916905550565b600054610100900460ff1680614446575060005460ff16155b6144625760405162461bcd60e51b81526004016115c190614ff9565b600054610100900460ff16158015614484576000805461ffff19166101011790555b61448c614a07565b80156110a4576000805461ff001916905550565b6001600160a01b03821660009081526020849052604081208054839081106144ca576144ca615088565b6000918252602090912001546001600160a01b0316949350505050565b6001600160a01b0380831660009081526020858152604080832093851683526001909301905290812054801561468a576000614524600183614e5e565b6001600160a01b0386166000908152602088905260408120549192509061454d90600190614e5e565b9050818114614609576001600160a01b038616600090815260208890526040812080548390811061458057614580615088565b60009182526020808320909101546001600160a01b038a81168452918b905260409092208054919092169250829190859081106145bf576145bf615088565b600091825260208083209190910180546001600160a01b0319166001600160a01b0394851617905589831682528a8152604080832094909316825260019390930190925290208390555b6001600160a01b03861660009081526020889052604090208054806146305761463061509e565b60008281526020808220830160001990810180546001600160a01b03191690559092019092556001600160a01b03888116835289825260408084209189168452600191820190925290822091909155935061305392505050565b6000915050613053565b6060816000018054806020026020016040519081016040528092919081815260200182805480156146e457602002820191906000526020600020905b8154815260200190600101908083116146d0575b50505050509050919050565b6001600160a01b038083166000908152602085815260408083209385168352600190930190529081205461477657506001600160a01b0382811660009081526020858152604080832080546001808201835582865284862090910180546001600160a01b0319169688169687179055815495855290810190925290912091909155613053565b506000613053565b60006147d3826040518060400160405280602081526020017f5361666545524332303a206c6f772d6c6576656c2063616c6c206661696c6564815250856001600160a01b0316614ab29092919063ffffffff16565b80519091501561262557808060200190518101906147f19190614fd7565b6126255760405162461bcd60e51b815260206004820152602a60248201527f5361666545524332303a204552433230206f7065726174696f6e20646964206e6044820152691bdd081cdd58d8d9595960b21b60648201526084016115c1565b600081815260018301602052604081205461489757508154600181810184556000848152602080822090930184905584548482528286019093526040902091909155611d06565b506000611d06565b600081815260018301602052604081205480156149885760006148c3600183614e5e565b85549091506000906148d790600190614e5e565b905081811461493c5760008660000182815481106148f7576148f7615088565b906000526020600020015490508087600001848154811061491a5761491a615088565b6000918252602080832090910192909255918252600188019052604090208390555b855486908061494d5761494d61509e565b600190038181906000526020600020016000905590558560010160008681526020019081526020016000206000905560019350505050611d06565b6000915050611d06565b6001600160a01b038116600090815260208381526040918290208054835181840281018401909452808452606093928301828280156149fa57602002820191906000526020600020905b81546001600160a01b031681526001909101906020018083116149dc575b5050505050905092915050565b600054610100900460ff1680614a20575060005460ff16155b614a3c5760405162461bcd60e51b81526004016115c190614ff9565b600054610100900460ff16158015614a5e576000805461ffff19166101011790555b600280546001600160a01b031916339081179091556040516000907fd4459d5b8b913cab0244230fd9b1c08b6ceace7fe9230e60d0f74cbffdf849d0908290a380156110a4576000805461ff001916905550565b6060614055848460008585843b614b0b5760405162461bcd60e51b815260206004820152601d60248201527f416464726573733a2063616c6c20746f206e6f6e2d636f6e747261637400000060448201526064016115c1565b600080866001600160a01b03168587604051614b2791906150b4565b60006040518083038185875af1925050503d8060008114614b64576040519150601f19603f3d011682016040523d82523d6000602084013e614b69565b606091505b5091509150614b79828286614b84565b979650505050505050565b60608315614b93575081613053565b825115614ba35782518084602001fd5b8160405162461bcd60e51b81526004016115c19190614dfc565b6001600160a01b03811681146110a457600080fd5b600060208284031215614be457600080fd5b813561305381614bbd565b600060208284031215614c0157600080fd5b5035919050565b600080600060608486031215614c1d57600080fd5b8335614c2881614bbd565b92506020840135614c3881614bbd565b929592945050506040919091013590565b6020808252825182820181905260009190848201906040850190845b81811015614c8a5783516001600160a01b031683529284019291840191600101614c65565b50909695505050505050565b600080600060608486031215614cab57600080fd5b8335614cb681614bbd565b9250602084013591506040840135614ccd81614bbd565b809150509250925092565b60008060008060808587031215614cee57600080fd5b8435614cf981614bbd565b93506020850135614d0981614bbd565b9250604085013591506060850135614d2081614bbd565b939692955090935050565b60008060008060008060c08789031215614d4457600080fd5b8635614d4f81614bbd565b95506020870135614d5f81614bbd565b94506040870135614d6f81614bbd565b959894975094956060810135955060808101359460a0909101359350915050565b600080600060608486031215614da557600080fd5b8335614db081614bbd565b92506020840135614dc081614bbd565b91506040840135614ccd81614bbd565b60005b83811015614deb578181015183820152602001614dd3565b838111156140fe5750506000910152565b6020815260008251806020840152614e1b816040850160208701614dd0565b601f01601f19169190910160400192915050565b600060208284031215614e4157600080fd5b5051919050565b634e487b7160e01b600052601160045260246000fd5b600082821015614e7057614e70614e48565b500390565b600060208284031215614e8757600080fd5b815161305381614bbd565b6001600160a01b039384168152919092166020820152604081019190915260600190565b6001600160a01b03929092168252602082015260400190565b60008219821115614ee257614ee2614e48565b500190565b6000600019821415614efb57614efb614e48565b5060010190565b80516001600160801b0381168114614f1957600080fd5b919050565b60008060408385031215614f3157600080fd5b614f3a83614f02565b9150614f4860208401614f02565b90509250929050565b60006001600160801b03808316818516808303821115614f7357614f73614e48565b01949350505050565b6020808252601f908201527f5265656e7472616e637947756172643a207265656e7472616e742063616c6c00604082015260600190565b60008060408385031215614fc657600080fd5b505080516020909101519092909150565b600060208284031215614fe957600080fd5b8151801515811461305357600080fd5b6020808252602e908201527f496e697469616c697a61626c653a20636f6e747261637420697320616c72656160408201526d191e481a5b9a5d1a585b1a5e995960921b606082015260800190565b60008261506457634e487b7160e01b600052601260045260246000fd5b500490565b600081600019048311821515161561508357615083614e48565b500290565b634e487b7160e01b600052603260045260246000fd5b634e487b7160e01b600052603160045260246000fd5b600082516150c6818460208701614dd0565b919091019291505056fea2646970667358221220332a506a9909fdcb00623b5da572f36aa187458def330a62e9a17b0503a3901464736f6c63430008090033",
  "devdoc": {
    "kind": "dev",
    "methods": {
      "addDebtToken(address)": {
        "details": "Must keep `debtTokenOf` mapping updated"
      },
      "addToDebtTokensOfAccount(address)": {
        "details": "This function is called from `DebtToken` when user's balance changes from `0`The caller should ensure to not pass `address(0)` as `_account`",
        "params": {
          "account_": "The account address"
        }
      },
      "addToDepositTokensOfAccount(address)": {
        "details": "This function is called from `DepositToken` when user's balance changes from `0`The caller should ensure to not pass `address(0)` as `_account`",
        "params": {
          "account_": "The account address"
        }
      },
      "debtOf(address)": {
        "params": {
          "account_": "The account to check"
        },
        "returns": {
          "_debtInUsd": "The debt value in USD"
        }
      },
      "debtPositionOf(address)": {
        "params": {
          "account_": "The account to check"
        },
        "returns": {
          "_debtInUsd": "The total debt in USD",
          "_depositInUsd": "The total collateral deposited in USD",
          "_isHealthy": "Whether the account's position is healthy",
          "_issuableInUsd": "The amount of debt (is USD) that is free (i.e. can be used to issue synthetic tokens)",
          "_issuableLimitInUsd": "The max amount of debt (is USD) that can be created (considering collateral factors)"
        }
      },
      "depositOf(address)": {
        "params": {
          "account_": "The account to check"
        },
        "returns": {
          "_depositInUsd": "The total deposit value in USD among all collaterals",
          "_issuableLimitInUsd": "The max value in USD that can be used to issue synthetic tokens"
        }
      },
      "doesDebtTokenExist(address)": {
        "params": {
          "debtToken_": "Asset to check"
        },
        "returns": {
          "_0": "true if exist"
        }
      },
      "doesDepositTokenExist(address)": {
        "params": {
          "depositToken_": "Asset to check"
        },
        "returns": {
          "_0": "true if exist"
        }
      },
      "doesSyntheticTokenExist(address)": {
        "params": {
          "syntheticToken_": "Asset to check"
        },
        "returns": {
          "_0": "true if exist"
        }
      },
      "getDebtTokens()": {
        "details": "WARNING: This operation will copy the entire storage to memory, which can be quite expensive. This is designed to mostly be used by view accessors that are queried without any gas fees."
      },
      "getDebtTokensOfAccount(address)": {
        "details": "WARNING: This operation will copy the entire storage to memory, which can be quite expensive. This is designed to mostly be used by view accessors that are queried without any gas fees."
      },
      "getDepositTokens()": {
        "details": "WARNING: This operation will copy the entire storage to memory, which can be quite expensive. This is designed to mostly be used by view accessors that are queried without any gas fees."
      },
      "getDepositTokensOfAccount(address)": {
        "details": "WARNING: This operation will copy the entire storage to memory, which can be quite expensive. This is designed to mostly be used by view accessors that are queried without any gas fees."
      },
      "leverage(address,address,address,uint256,uint256,uint256)": {
        "params": {
          "amountIn_": "The amount to deposit",
          "depositAmountMin_": "The min final deposit amount (slippage)",
          "depositToken_": "The collateral to deposit",
          "leverage_": "The leverage X param (e.g. 1.5e18 for 1.5X)",
          "syntheticToken_": "The msAsset to mint",
          "tokenIn_": "The token to transfer"
        }
      },
      "liquidate(address,address,uint256,address)": {
        "params": {
          "account_": "The account with an unhealthy position",
          "amountToRepay_": "The amount to repay in synthetic token",
          "depositToken_": "The collateral to seize from",
          "syntheticToken_": "The msAsset to use for repayment"
        },
        "returns": {
          "_fee": "Share of `_totalSeized` collected as fee",
          "_toLiquidator": "Share of `_totalSeized` sent to the liquidator",
          "_totalSeized": "Total deposit amount seized from the liquidated account"
        }
      },
      "open()": {
        "details": "Open contract operations, if contract is in shutdown state"
      },
      "pause()": {
        "details": "Suspend deposit feature, if contract is not paused."
      },
      "quoteLiquidateIn(address,uint256,address)": {
        "params": {
          "depositToken_": "Collateral's deposit token",
          "syntheticToken_": "Synth for repayment",
          "totalToSeize_": "Collateral total amount to size"
        },
        "returns": {
          "_amountToRepay": "Synth amount to burn",
          "_fee": "The fee amount to collect",
          "_toLiquidator": "Seized amount to the liquidator"
        }
      },
      "quoteLiquidateMax(address,address,address)": {
        "details": "I.e. Considers the min amount between collateral's balance and `maxLiquidable` param",
        "params": {
          "account_": "The account to liquidate",
          "depositToken_": "Collateral's deposit token",
          "syntheticToken_": "Synth for repayment"
        },
        "returns": {
          "_maxAmountToRepay": "Synth amount to burn"
        }
      },
      "quoteLiquidateOut(address,uint256,address)": {
        "params": {
          "amountToRepay_": "Synth amount to burn",
          "depositToken_": "Collateral's deposit token",
          "syntheticToken_": "Synth for repayment"
        },
        "returns": {
          "_fee": "The fee amount to collect",
          "_toLiquidator": "Seized amount to the liquidator",
          "_totalToSeize": "Collateral total amount to size"
        }
      },
      "quoteSwapIn(address,address,uint256)": {
        "params": {
          "amountOut_": "Amount out",
          "syntheticTokenIn_": "Synth in",
          "syntheticTokenOut_": "Synth out"
        },
        "returns": {
          "_amountIn": "Amount in",
          "_fee": "Fee to charge in `syntheticTokenOut_`"
        }
      },
      "quoteSwapOut(address,address,uint256)": {
        "params": {
          "amountIn_": "Amount in",
          "syntheticTokenIn_": "Synth in",
          "syntheticTokenOut_": "Synth out"
        },
        "returns": {
          "_amountOut": "Amount out",
          "_fee": "Fee to charge in `syntheticTokenOut_`"
        }
      },
      "removeDebtToken(address)": {
        "details": "Must keep `debtTokenOf` mapping updated"
      },
      "removeFromDebtTokensOfAccount(address)": {
        "details": "This function is called from `DebtToken` when user's balance changes to `0`The caller should ensure to not pass `address(0)` as `_account`",
        "params": {
          "account_": "The account address"
        }
      },
      "removeFromDepositTokensOfAccount(address)": {
        "details": "This function is called from `DepositToken` when user's balance changes to `0`The caller should ensure to not pass `address(0)` as `_account`",
        "params": {
          "account_": "The account address"
        }
      },
      "shutdown()": {
        "details": "Suspend all features (issue, repay, deposit, withdraw, liquidate and swap), if not already shutdown."
      },
      "swap(address,address,uint256)": {
        "params": {
          "amountIn_": "Amount to swap",
          "syntheticTokenIn_": "Synthetic token to sell",
          "syntheticTokenOut_": "Synthetic token to buy"
        }
      },
      "sweep(address,address,uint256)": {
        "params": {
          "amount_": "The amount to send",
          "to_": "The recipient of the transfer",
          "token_": "The token to transfer"
        }
      },
      "transferGovernorship(address)": {
        "details": "Can only be called by the current owner.",
        "params": {
          "proposedGovernor_": "The new proposed governor"
        }
      },
      "unpause()": {
        "details": "Unpause contract operations, allow only if contract is paused and not shutdown."
      }
    },
    "title": "Pool contract",
    "version": 1
  },
  "userdoc": {
    "events": {
      "DebtFloorUpdated(uint256,uint256)": {
        "notice": "Emitted when protocol liquidation fee is updated"
      },
      "DebtTokenAdded(address)": {
        "notice": "Emitted when debt token is enabled"
      },
      "DebtTokenRemoved(address)": {
        "notice": "Emitted when debt token is disabled"
      },
      "DepositTokenAdded(address)": {
        "notice": "Emitted when deposit token is enabled"
      },
      "DepositTokenRemoved(address)": {
        "notice": "Emitted when deposit token is disabled"
      },
      "FeeProviderUpdated(address,address)": {
        "notice": "Emitted when fee provider contract is updated"
      },
      "MaxLiquidableUpdated(uint256,uint256)": {
        "notice": "Emitted when maxLiquidable (liquidation cap) is updated"
      },
      "Open(address)": {
        "notice": "Emitted when contract is turned on"
      },
      "Paused(address)": {
        "notice": "Emitted when contract is paused"
      },
      "PositionLiquidated(address,address,address,uint256,uint256,uint256)": {
        "notice": "Emitted when a position is liquidated"
      },
      "RewardsDistributorAdded(address)": {
        "notice": "Emitted when rewards distributor contract is added"
      },
      "RewardsDistributorRemoved(address)": {
        "notice": "Emitted when rewards distributor contract is removed"
      },
      "Shutdown(address)": {
        "notice": "Emitted when contract is shuted down"
      },
      "SwapActiveUpdated(bool)": {
        "notice": "Emitted when the swap active flag is updated"
      },
      "SwapperUpdated(address,address)": {
        "notice": "Emitted when swapper contract is updated"
      },
      "SyntheticTokenSwapped(address,address,address,uint256,uint256,uint256)": {
        "notice": "Emitted when synthetic token is swapped"
      },
      "TreasuryUpdated(address,address)": {
        "notice": "Emitted when treasury contract is updated"
      },
      "Unpaused(address)": {
        "notice": "Emitted when contract is unpaused"
      }
    },
    "kind": "user",
    "methods": {
      "MAX_TOKENS_PER_USER()": {
        "notice": "Maximum tokens per pool a user may have"
      },
      "acceptGovernorship()": {
        "notice": "Allows new governor to accept governorship of the contract."
      },
      "addDebtToken(address)": {
        "notice": "Add debt token to offerings"
      },
      "addDepositToken(address)": {
        "notice": "Add deposit token (i.e. collateral) to Synth"
      },
      "addRewardsDistributor(address)": {
        "notice": "Add a RewardsDistributor contract"
      },
      "addToDebtTokensOfAccount(address)": {
        "notice": "Add a debt token to the per-account list"
      },
      "addToDepositTokensOfAccount(address)": {
        "notice": "Add a deposit token to the per-account list"
      },
      "debtFloorInUsd()": {
        "notice": "The debt floor (in USD) for each synthetic token This parameters is used to keep incentive for liquidators (i.e. cover gas and provide enough profit)"
      },
      "debtOf(address)": {
        "notice": "Get account's debt by querying latest prices from oracles"
      },
      "debtPositionOf(address)": {
        "notice": "Returns whether the debt position from an account is healthy"
      },
      "debtTokenOf(address)": {
        "notice": "Get the debt token's address from given synthetic asset"
      },
      "depositOf(address)": {
        "notice": "Get account's total collateral deposited by querying latest prices from oracles"
      },
      "depositTokenOf(address)": {
        "notice": "Get the deposit token's address from given underlying asset"
      },
      "doesDebtTokenExist(address)": {
        "notice": "Check if token is part of the debt offerings"
      },
      "doesDepositTokenExist(address)": {
        "notice": "Check if collateral is supported"
      },
      "doesSyntheticTokenExist(address)": {
        "notice": "Check if token is part of the synthetic offerings"
      },
      "everythingStopped()": {
        "notice": "Return `true` if contract is shutdown"
      },
      "feeCollector()": {
        "notice": "Returns fee collector address"
      },
      "feeProvider()": {
        "notice": "FeeProvider contract"
      },
      "getDebtTokens()": {
        "notice": "Get all debt tokens"
      },
      "getDebtTokensOfAccount(address)": {
        "notice": "Get all debt tokens"
      },
      "getDepositTokens()": {
        "notice": "Get all deposit tokens"
      },
      "getDepositTokensOfAccount(address)": {
        "notice": "Get deposit tokens of an account"
      },
      "getRewardsDistributors()": {
        "notice": "Get all rewards distributors"
      },
      "governor()": {
        "notice": "The governor"
      },
      "isSwapActive()": {
        "notice": "Swap feature on/off flag"
      },
      "leverage(address,address,address,uint256,uint256,uint256)": {
        "notice": "Leverage yield position"
      },
      "liquidate(address,address,uint256,address)": {
        "notice": "Burn synthetic token, unlock deposit token and send liquidator incentive"
      },
      "masterOracle()": {
        "notice": "Get MasterOracle contract"
      },
      "maxLiquidable()": {
        "notice": "The max percent of the debt allowed to liquidate"
      },
      "paused()": {
        "notice": "Return `true` if contract is paused"
      },
      "poolRegistry()": {
        "notice": "PoolRegistry"
      },
      "proposedGovernor()": {
        "notice": "The proposed governor"
      },
      "quoteLiquidateIn(address,uint256,address)": {
        "notice": "Quote synth  `_amountToRepay` in order to seize `totalToSeized_`"
      },
      "quoteLiquidateMax(address,address,address)": {
        "notice": "Quote max allowed synth to repay"
      },
      "quoteLiquidateOut(address,uint256,address)": {
        "notice": "Quote collateral  `totalToSeized_` by repaying `amountToRepay_`"
      },
      "quoteSwapIn(address,address,uint256)": {
        "notice": "Quote `_amountIn` to get `amountOut_`"
      },
      "quoteSwapOut(address,address,uint256)": {
        "notice": "Quote `amountOut_` get from `amountIn_`"
      },
      "removeDebtToken(address)": {
        "notice": "Remove debt token from offerings"
      },
      "removeDepositToken(address)": {
        "notice": "Remove deposit token (i.e. collateral) from Synth"
      },
      "removeFromDebtTokensOfAccount(address)": {
        "notice": "Remove a debt token from the per-account list"
      },
      "removeFromDepositTokensOfAccount(address)": {
        "notice": "Remove a deposit token from the per-account list"
      },
      "removeRewardsDistributor(address)": {
        "notice": "Remove a RewardsDistributor contract"
      },
      "swap(address,address,uint256)": {
        "notice": "Swap synthetic tokens"
      },
      "swapper()": {
        "notice": "Swapper contract"
      },
      "sweep(address,address,uint256)": {
        "notice": "ERC20 recovery in case of stuck tokens due direct transfers to the contract address."
      },
      "toggleIsSwapActive()": {
        "notice": "Turn swap on/off"
      },
      "transferGovernorship(address)": {
        "notice": "Transfers governorship of the contract to a new account (`proposedGovernor`)."
      },
      "treasury()": {
        "notice": "Treasury contract"
      },
      "updateDebtFloor(uint256)": {
        "notice": "Update debt floor"
      },
      "updateFeeProvider(address)": {
        "notice": "Update FeeProvider contract"
      },
      "updateMaxLiquidable(uint256)": {
        "notice": "Update maxLiquidable (liquidation cap)"
      },
      "updateSwapper(address)": {
        "notice": "Update swapper contract"
      },
      "updateTreasury(address)": {
        "notice": "Update treasury contract - will migrate funds to the new contract"
      }
    },
    "version": 1
  },
  "storageLayout": {
    "storage": [
      {
        "astId": 9846,
        "contract": "contracts/Pool.sol:Pool",
        "label": "_initialized",
        "offset": 0,
        "slot": "0",
        "type": "t_bool"
      },
      {
        "astId": 9849,
        "contract": "contracts/Pool.sol:Pool",
        "label": "_initializing",
        "offset": 1,
        "slot": "0",
        "type": "t_bool"
      },
      {
        "astId": 9900,
        "contract": "contracts/Pool.sol:Pool",
        "label": "_status",
        "offset": 0,
        "slot": "1",
        "type": "t_uint256"
      },
      {
        "astId": 8719,
        "contract": "contracts/Pool.sol:Pool",
        "label": "governor",
        "offset": 0,
        "slot": "2",
        "type": "t_address"
      },
      {
        "astId": 8722,
        "contract": "contracts/Pool.sol:Pool",
        "label": "proposedGovernor",
        "offset": 0,
        "slot": "3",
        "type": "t_address"
      },
      {
        "astId": 16623,
        "contract": "contracts/Pool.sol:Pool",
        "label": "_paused",
        "offset": 20,
        "slot": "3",
        "type": "t_bool"
      },
      {
        "astId": 16625,
        "contract": "contracts/Pool.sol:Pool",
        "label": "_everythingStopped",
        "offset": 21,
        "slot": "3",
        "type": "t_bool"
      },
      {
        "astId": 15339,
        "contract": "contracts/Pool.sol:Pool",
        "label": "debtFloorInUsd",
        "offset": 0,
        "slot": "4",
        "type": "t_uint256"
      },
      {
        "astId": 15341,
        "contract": "contracts/Pool.sol:Pool",
        "label": "depositFee__DEPRECATED",
        "offset": 0,
        "slot": "5",
        "type": "t_uint256"
      },
      {
        "astId": 15343,
        "contract": "contracts/Pool.sol:Pool",
        "label": "issueFee__DEPRECATED",
        "offset": 0,
        "slot": "6",
        "type": "t_uint256"
      },
      {
        "astId": 15345,
        "contract": "contracts/Pool.sol:Pool",
        "label": "withdrawFee__DEPRECATED",
        "offset": 0,
        "slot": "7",
        "type": "t_uint256"
      },
      {
        "astId": 15347,
        "contract": "contracts/Pool.sol:Pool",
        "label": "repayFee__DEPRECATED",
        "offset": 0,
        "slot": "8",
        "type": "t_uint256"
      },
      {
        "astId": 15349,
        "contract": "contracts/Pool.sol:Pool",
        "label": "swapFee__DEPRECATED",
        "offset": 0,
        "slot": "9",
        "type": "t_uint256"
      },
      {
        "astId": 15351,
        "contract": "contracts/Pool.sol:Pool",
        "label": "liquidationFees__DEPRECATED",
        "offset": 0,
        "slot": "10",
        "type": "t_uint256"
      },
      {
        "astId": 15355,
        "contract": "contracts/Pool.sol:Pool",
        "label": "maxLiquidable",
        "offset": 0,
        "slot": "11",
        "type": "t_uint256"
      },
      {
        "astId": 15360,
        "contract": "contracts/Pool.sol:Pool",
        "label": "poolRegistry",
        "offset": 0,
        "slot": "12",
        "type": "t_contract(IPoolRegistry)13032"
      },
      {
        "astId": 15364,
        "contract": "contracts/Pool.sol:Pool",
        "label": "isSwapActive",
        "offset": 20,
        "slot": "12",
        "type": "t_bool"
      },
      {
        "astId": 15369,
        "contract": "contracts/Pool.sol:Pool",
        "label": "treasury",
        "offset": 0,
        "slot": "13",
        "type": "t_contract(ITreasury)13233"
      },
      {
        "astId": 15373,
        "contract": "contracts/Pool.sol:Pool",
        "label": "depositTokens",
        "offset": 0,
        "slot": "14",
        "type": "t_struct(AddressSet)11976_storage"
      },
      {
        "astId": 15381,
        "contract": "contracts/Pool.sol:Pool",
        "label": "depositTokenOf",
        "offset": 0,
        "slot": "16",
        "type": "t_mapping(t_contract(IERC20)10555,t_contract(IDepositToken)12528)"
      },
      {
        "astId": 15385,
        "contract": "contracts/Pool.sol:Pool",
        "label": "debtTokens",
        "offset": 0,
        "slot": "17",
        "type": "t_struct(AddressSet)11976_storage"
      },
      {
        "astId": 15389,
        "contract": "contracts/Pool.sol:Pool",
        "label": "depositTokensOfAccount",
        "offset": 0,
        "slot": "19",
        "type": "t_struct(AddressSet)13432_storage"
      },
      {
        "astId": 15393,
        "contract": "contracts/Pool.sol:Pool",
        "label": "debtTokensOfAccount",
        "offset": 0,
        "slot": "20",
        "type": "t_struct(AddressSet)13432_storage"
      },
      {
        "astId": 15398,
        "contract": "contracts/Pool.sol:Pool",
        "label": "rewardsDistributors__DEPRECATED",
        "offset": 0,
        "slot": "21",
        "type": "t_array(t_contract(IRewardsDistributor)13163)dyn_storage"
      },
      {
        "astId": 15406,
        "contract": "contracts/Pool.sol:Pool",
        "label": "debtTokenOf",
        "offset": 0,
        "slot": "22",
        "type": "t_mapping(t_contract(ISyntheticToken)13218,t_contract(IDebtToken)12407)"
      },
      {
        "astId": 15413,
        "contract": "contracts/Pool.sol:Pool",
        "label": "swapper",
        "offset": 0,
        "slot": "23",
        "type": "t_contract(ISwapper)13380"
      },
      {
        "astId": 15418,
        "contract": "contracts/Pool.sol:Pool",
        "label": "feeProvider",
        "offset": 0,
        "slot": "24",
        "type": "t_contract(IFeeProvider)12576"
      },
      {
        "astId": 15422,
        "contract": "contracts/Pool.sol:Pool",
        "label": "rewardsDistributors",
        "offset": 0,
        "slot": "25",
        "type": "t_struct(AddressSet)11976_storage"
      }
    ],
    "types": {
      "t_address": {
        "encoding": "inplace",
        "label": "address",
        "numberOfBytes": "20"
      },
      "t_array(t_address)dyn_storage": {
        "base": "t_address",
        "encoding": "dynamic_array",
        "label": "address[]",
        "numberOfBytes": "32"
      },
      "t_array(t_bytes32)dyn_storage": {
        "base": "t_bytes32",
        "encoding": "dynamic_array",
        "label": "bytes32[]",
        "numberOfBytes": "32"
      },
      "t_array(t_contract(IRewardsDistributor)13163)dyn_storage": {
        "base": "t_contract(IRewardsDistributor)13163",
        "encoding": "dynamic_array",
        "label": "contract IRewardsDistributor[]",
        "numberOfBytes": "32"
      },
      "t_bool": {
        "encoding": "inplace",
        "label": "bool",
        "numberOfBytes": "1"
      },
      "t_bytes32": {
        "encoding": "inplace",
        "label": "bytes32",
        "numberOfBytes": "32"
      },
      "t_contract(IDebtToken)12407": {
        "encoding": "inplace",
        "label": "contract IDebtToken",
        "numberOfBytes": "20"
      },
      "t_contract(IDepositToken)12528": {
        "encoding": "inplace",
        "label": "contract IDepositToken",
        "numberOfBytes": "20"
      },
      "t_contract(IERC20)10555": {
        "encoding": "inplace",
        "label": "contract IERC20",
        "numberOfBytes": "20"
      },
      "t_contract(IFeeProvider)12576": {
        "encoding": "inplace",
        "label": "contract IFeeProvider",
        "numberOfBytes": "20"
      },
      "t_contract(IPoolRegistry)13032": {
        "encoding": "inplace",
        "label": "contract IPoolRegistry",
        "numberOfBytes": "20"
      },
      "t_contract(IRewardsDistributor)13163": {
        "encoding": "inplace",
        "label": "contract IRewardsDistributor",
        "numberOfBytes": "20"
      },
      "t_contract(ISwapper)13380": {
        "encoding": "inplace",
        "label": "contract ISwapper",
        "numberOfBytes": "20"
      },
      "t_contract(ISyntheticToken)13218": {
        "encoding": "inplace",
        "label": "contract ISyntheticToken",
        "numberOfBytes": "20"
      },
      "t_contract(ITreasury)13233": {
        "encoding": "inplace",
        "label": "contract ITreasury",
        "numberOfBytes": "20"
      },
      "t_mapping(t_address,t_struct(Set)13426_storage)": {
        "encoding": "mapping",
        "key": "t_address",
        "label": "mapping(address => struct MappedEnumerableSet.Set)",
        "numberOfBytes": "32",
        "value": "t_struct(Set)13426_storage"
      },
      "t_mapping(t_address,t_uint256)": {
        "encoding": "mapping",
        "key": "t_address",
        "label": "mapping(address => uint256)",
        "numberOfBytes": "32",
        "value": "t_uint256"
      },
      "t_mapping(t_bytes32,t_uint256)": {
        "encoding": "mapping",
        "key": "t_bytes32",
        "label": "mapping(bytes32 => uint256)",
        "numberOfBytes": "32",
        "value": "t_uint256"
      },
      "t_mapping(t_contract(IERC20)10555,t_contract(IDepositToken)12528)": {
        "encoding": "mapping",
        "key": "t_contract(IERC20)10555",
        "label": "mapping(contract IERC20 => contract IDepositToken)",
        "numberOfBytes": "32",
        "value": "t_contract(IDepositToken)12528"
      },
      "t_mapping(t_contract(ISyntheticToken)13218,t_contract(IDebtToken)12407)": {
        "encoding": "mapping",
        "key": "t_contract(ISyntheticToken)13218",
        "label": "mapping(contract ISyntheticToken => contract IDebtToken)",
        "numberOfBytes": "32",
        "value": "t_contract(IDebtToken)12407"
      },
      "t_struct(AddressSet)11976_storage": {
        "encoding": "inplace",
        "label": "struct EnumerableSet.AddressSet",
        "members": [
          {
            "astId": 11975,
            "contract": "contracts/Pool.sol:Pool",
            "label": "_inner",
            "offset": 0,
            "slot": "0",
            "type": "t_struct(Set)11675_storage"
          }
        ],
        "numberOfBytes": "64"
      },
      "t_struct(AddressSet)13432_storage": {
        "encoding": "inplace",
        "label": "struct MappedEnumerableSet.AddressSet",
        "members": [
          {
            "astId": 13431,
            "contract": "contracts/Pool.sol:Pool",
            "label": "_ofAddress",
            "offset": 0,
            "slot": "0",
            "type": "t_mapping(t_address,t_struct(Set)13426_storage)"
          }
        ],
        "numberOfBytes": "32"
      },
      "t_struct(Set)11675_storage": {
        "encoding": "inplace",
        "label": "struct EnumerableSet.Set",
        "members": [
          {
            "astId": 11670,
            "contract": "contracts/Pool.sol:Pool",
            "label": "_values",
            "offset": 0,
            "slot": "0",
            "type": "t_array(t_bytes32)dyn_storage"
          },
          {
            "astId": 11674,
            "contract": "contracts/Pool.sol:Pool",
            "label": "_indexes",
            "offset": 0,
            "slot": "1",
            "type": "t_mapping(t_bytes32,t_uint256)"
          }
        ],
        "numberOfBytes": "64"
      },
      "t_struct(Set)13426_storage": {
        "encoding": "inplace",
        "label": "struct MappedEnumerableSet.Set",
        "members": [
          {
            "astId": 13421,
            "contract": "contracts/Pool.sol:Pool",
            "label": "_values",
            "offset": 0,
            "slot": "0",
            "type": "t_array(t_address)dyn_storage"
          },
          {
            "astId": 13425,
            "contract": "contracts/Pool.sol:Pool",
            "label": "_indexes",
            "offset": 0,
            "slot": "1",
            "type": "t_mapping(t_address,t_uint256)"
          }
        ],
        "numberOfBytes": "64"
      },
      "t_uint256": {
        "encoding": "inplace",
        "label": "uint256",
        "numberOfBytes": "32"
      }
    }
  }
}