{
  "address": "0xbaf4eAED7CC1Cbb3d6f2f3B89493dbb9764E8B44",
  "abi": [
    {
      "anonymous": false,
      "inputs": [
        {
          "indexed": true,
          "internalType": "address",
          "name": "oldFeeCollector",
          "type": "address"
        },
        {
          "indexed": true,
          "internalType": "address",
          "name": "newFeeCollector",
          "type": "address"
        }
      ],
      "name": "FeeCollectorUpdated",
      "type": "event"
    },
    {
      "anonymous": false,
      "inputs": [
        {
          "indexed": true,
          "internalType": "contract IMasterOracle",
          "name": "oldOracle",
          "type": "address"
        },
        {
          "indexed": true,
          "internalType": "contract IMasterOracle",
          "name": "newOracle",
          "type": "address"
        }
      ],
      "name": "MasterOracleUpdated",
      "type": "event"
    },
    {
      "anonymous": false,
      "inputs": [
        {
          "indexed": false,
          "internalType": "address",
          "name": "caller",
          "type": "address"
        }
      ],
      "name": "Open",
      "type": "event"
    },
    {
      "anonymous": false,
      "inputs": [
        {
          "indexed": false,
          "internalType": "address",
          "name": "caller",
          "type": "address"
        }
      ],
      "name": "Paused",
      "type": "event"
    },
    {
      "anonymous": false,
      "inputs": [
        {
          "indexed": false,
          "internalType": "address",
          "name": "pool",
          "type": "address"
        }
      ],
      "name": "PoolRegistered",
      "type": "event"
    },
    {
      "anonymous": false,
      "inputs": [
        {
          "indexed": false,
          "internalType": "address",
          "name": "pool",
          "type": "address"
        }
      ],
      "name": "PoolUnregistered",
      "type": "event"
    },
    {
      "anonymous": false,
      "inputs": [
        {
          "indexed": false,
          "internalType": "address",
          "name": "caller",
          "type": "address"
        }
      ],
      "name": "Shutdown",
      "type": "event"
    },
    {
      "anonymous": false,
      "inputs": [
        {
          "indexed": false,
          "internalType": "address",
          "name": "caller",
          "type": "address"
        }
      ],
      "name": "Unpaused",
      "type": "event"
    },
    {
      "anonymous": false,
      "inputs": [
        {
          "indexed": true,
          "internalType": "address",
          "name": "previousGovernor",
          "type": "address"
        },
        {
          "indexed": true,
          "internalType": "address",
          "name": "proposedGovernor",
          "type": "address"
        }
      ],
      "name": "UpdatedGovernor",
      "type": "event"
    },
    {
      "stateMutability": "payable",
      "type": "fallback"
    },
    {
      "inputs": [],
      "name": "VERSION",
      "outputs": [
        {
          "internalType": "string",
          "name": "",
          "type": "string"
        }
      ],
      "stateMutability": "view",
      "type": "function"
    },
    {
      "inputs": [],
      "name": "acceptGovernorship",
      "outputs": [],
      "stateMutability": "nonpayable",
      "type": "function"
    },
    {
      "inputs": [],
      "name": "everythingStopped",
      "outputs": [
        {
          "internalType": "bool",
          "name": "",
          "type": "bool"
        }
      ],
      "stateMutability": "view",
      "type": "function"
    },
    {
      "inputs": [],
      "name": "feeCollector",
      "outputs": [
        {
          "internalType": "address",
          "name": "",
          "type": "address"
        }
      ],
      "stateMutability": "view",
      "type": "function"
    },
    {
      "inputs": [],
      "name": "getPools",
      "outputs": [
        {
          "internalType": "address[]",
          "name": "",
          "type": "address[]"
        }
      ],
      "stateMutability": "view",
      "type": "function"
    },
    {
      "inputs": [],
      "name": "governor",
      "outputs": [
        {
          "internalType": "address",
          "name": "",
          "type": "address"
        }
      ],
      "stateMutability": "view",
      "type": "function"
    },
    {
      "inputs": [
        {
          "internalType": "contract IMasterOracle",
          "name": "masterOracle_",
          "type": "address"
        },
        {
          "internalType": "address",
          "name": "feeCollector_",
          "type": "address"
        }
      ],
      "name": "initialize",
      "outputs": [],
      "stateMutability": "nonpayable",
      "type": "function"
    },
    {
      "inputs": [],
      "name": "masterOracle",
      "outputs": [
        {
          "internalType": "contract IMasterOracle",
          "name": "",
          "type": "address"
        }
      ],
      "stateMutability": "view",
      "type": "function"
    },
    {
      "inputs": [],
      "name": "open",
      "outputs": [],
      "stateMutability": "nonpayable",
      "type": "function"
    },
    {
      "inputs": [],
      "name": "pause",
      "outputs": [],
      "stateMutability": "nonpayable",
      "type": "function"
    },
    {
      "inputs": [],
      "name": "paused",
      "outputs": [
        {
          "internalType": "bool",
          "name": "",
          "type": "bool"
        }
      ],
      "stateMutability": "view",
      "type": "function"
    },
    {
      "inputs": [
        {
          "internalType": "address",
          "name": "pool_",
          "type": "address"
        }
      ],
      "name": "poolExists",
      "outputs": [
        {
          "internalType": "bool",
          "name": "",
          "type": "bool"
        }
      ],
      "stateMutability": "view",
      "type": "function"
    },
    {
      "inputs": [],
      "name": "proposedGovernor",
      "outputs": [
        {
          "internalType": "address",
          "name": "",
          "type": "address"
        }
      ],
      "stateMutability": "view",
      "type": "function"
    },
    {
      "inputs": [
        {
          "internalType": "address",
          "name": "pool_",
          "type": "address"
        }
      ],
      "name": "registerPool",
      "outputs": [],
      "stateMutability": "nonpayable",
      "type": "function"
    },
    {
      "inputs": [],
      "name": "shutdown",
      "outputs": [],
      "stateMutability": "nonpayable",
      "type": "function"
    },
    {
      "inputs": [
        {
          "internalType": "contract IERC20",
          "name": "token_",
          "type": "address"
        },
        {
          "internalType": "address",
          "name": "to_",
          "type": "address"
        },
        {
          "internalType": "uint256",
          "name": "amount_",
          "type": "uint256"
        }
      ],
      "name": "sweep",
      "outputs": [],
      "stateMutability": "nonpayable",
      "type": "function"
    },
    {
      "inputs": [
        {
          "internalType": "address",
          "name": "proposedGovernor_",
          "type": "address"
        }
      ],
      "name": "transferGovernorship",
      "outputs": [],
      "stateMutability": "nonpayable",
      "type": "function"
    },
    {
      "inputs": [],
      "name": "unpause",
      "outputs": [],
      "stateMutability": "nonpayable",
      "type": "function"
    },
    {
      "inputs": [
        {
          "internalType": "address",
          "name": "pool_",
          "type": "address"
        }
      ],
      "name": "unregisterPool",
      "outputs": [],
      "stateMutability": "nonpayable",
      "type": "function"
    },
    {
      "inputs": [
        {
          "internalType": "address",
          "name": "newFeeCollector_",
          "type": "address"
        }
      ],
      "name": "updateFeeCollector",
      "outputs": [],
      "stateMutability": "nonpayable",
      "type": "function"
    },
    {
      "inputs": [
        {
          "internalType": "contract IMasterOracle",
          "name": "newMasterOracle_",
          "type": "address"
        }
      ],
      "name": "updateMasterOracle",
      "outputs": [],
      "stateMutability": "nonpayable",
      "type": "function"
    },
    {
      "stateMutability": "payable",
      "type": "receive"
    }
  ],
  "transactionHash": "0x19e4399a5839274074fb5103815022dd33177f42f813a2d6b3fd011c47c94607",
  "args": [],
  "numDeployments": 1,
  "solcInputHash": "8f9ac8ece838b75cf20cef638b1903fd",
  "bytecode": "0x608060405234801561001057600080fd5b50600280546001600160a01b031916339081179091556040516000907fd4459d5b8b913cab0244230fd9b1c08b6ceace7fe9230e60d0f74cbffdf849d0908290a3611874806100606000396000f3fe60806040526004361061012e5760003560e01c8063abd90846116100ab578063eaada3821161006f578063eaada382146103af578063ecf3a3f9146103cf578063f3b27bc3146103ee578063fc0e74d114610403578063fcfff16f14610418578063ffa1ad741461042d57610176565b8063abd908461461030f578063ada61cc31461032f578063b6aa515b1461034f578063c415b95c1461036f578063d2c35ce81461038f57610176565b806362c06767116100f257806362c0676714610278578063673a2a1f146102985780638456cb59146102ba5780638a11a370146102cf578063abc9b45e146102ef57610176565b80630c340a24146101b55780631e1c6a07146101f25780633f4ba83a14610222578063485cc955146102395780635c975abb1461025957610176565b366101765760405162461bcd60e51b81526020600482015260136024820152721c9958d95a5d994b5b9bdd0b585b1b1bddd959606a1b60448201526064015b60405180910390fd5b60405162461bcd60e51b815260206004820152601460248201527319985b1b189858dacb5b9bdd0b585b1b1bddd95960621b604482015260640161016d565b3480156101c157600080fd5b506002546101d5906001600160a01b031681565b6040516001600160a01b0390911681526020015b60405180910390f35b3480156101fe57600080fd5b5061021261020d3660046115f4565b61046b565b60405190151581526020016101e9565b34801561022e57600080fd5b5061023761047e565b005b34801561024557600080fd5b50610237610254366004611611565b610576565b34801561026557600080fd5b50600354600160a01b900460ff16610212565b34801561028457600080fd5b5061023761029336600461164a565b6106b9565b3480156102a457600080fd5b506102ad6106ed565b6040516101e9919061168b565b3480156102c657600080fd5b506102376106fe565b3480156102db57600080fd5b506003546101d5906001600160a01b031681565b3480156102fb57600080fd5b5061023761030a3660046115f4565b6107ae565b34801561031b57600080fd5b5061023761032a3660046115f4565b6108d9565b34801561033b57600080fd5b5061023761034a3660046115f4565b6109d7565b34801561035b57600080fd5b5061023761036a3660046115f4565b610a82565b34801561037b57600080fd5b506007546101d5906001600160a01b031681565b34801561039b57600080fd5b506102376103aa3660046115f4565b610b24565b3480156103bb57600080fd5b506006546101d5906001600160a01b031681565b3480156103db57600080fd5b50600354600160a81b900460ff16610212565b3480156103fa57600080fd5b50610237610c55565b34801561040f57600080fd5b50610237610d13565b34801561042457600080fd5b50610237610dc7565b34801561043957600080fd5b5061045e604051806040016040528060058152602001640312e302e360dc1b81525081565b6040516101e99190611708565b6000610478600483610e76565b92915050565b600354600160a01b900460ff166104c45760405162461bcd60e51b815260206004820152600a6024820152691b9bdd0b5c185d5cd95960b21b604482015260640161016d565b600354600160a81b900460ff16156105095760405162461bcd60e51b815260206004820152600860248201526739b43aba3237bbb760c11b604482015260640161016d565b6002546001600160a01b031633146105335760405162461bcd60e51b815260040161016d9061173b565b6003805460ff60a01b191690556040513381527f5db9ee0a495bf2e6ff9c91a7834c1ba4fdd244a5e8aa4e537bd38aeae4b073aa906020015b60405180910390a1565b600054610100900460ff168061058f575060005460ff16155b6105ab5760405162461bcd60e51b815260040161016d90611761565b600054610100900460ff161580156105cd576000805461ffff19166101011790555b6001600160a01b0383166106145760405162461bcd60e51b815260206004820152600e60248201526d1bdc9858db194b5a5ccb5b9d5b1b60921b604482015260640161016d565b6001600160a01b0382166106625760405162461bcd60e51b81526020600482015260156024820152741999594b58dbdb1b1958dd1bdc8b5a5ccb5b9d5b1b605a1b604482015260640161016d565b61066a610e9b565b610672610f0b565b600680546001600160a01b038086166001600160a01b031992831617909255600780549285169290911691909117905580156106b4576000805461ff00191690555b505050565b6106c1610f7e565b6001600160a01b0383166106d9576106b48282610faa565b6106b46001600160a01b03841683836110c3565b60606106f96004611115565b905090565b600354600160a01b900460ff16156107415760405162461bcd60e51b81526020600482015260066024820152651c185d5cd95960d21b604482015260640161016d565b6002546001600160a01b0316331461076b5760405162461bcd60e51b815260040161016d9061173b565b6003805460ff60a01b1916600160a01b1790556040513381527f62e78cea01bee320cd4e420270b5ea74000d11b0c9f74754ebdbfc544b05a2589060200161056c565b6002546001600160a01b031633146107d85760405162461bcd60e51b815260040161016d9061173b565b6001600160a01b0381166108205760405162461bcd60e51b815260206004820152600f60248201526e1859191c995cdccb5a5ccb5b9d5b1b608a1b604482015260640161016d565b6006546001600160a01b039081169082168114156108765760405162461bcd60e51b81526020600482015260136024820152721b995dcb5cd85b594b585ccb58dd5c9c995b9d606a1b604482015260640161016d565b816001600160a01b0316816001600160a01b03167fc96bca3f57d35a1057a3357bced51fac157918147faa56845639671c516ec69c60405160405180910390a350600680546001600160a01b0319166001600160a01b0392909216919091179055565b6002546001600160a01b031633146109035760405162461bcd60e51b815260040161016d9061173b565b6001600160a01b03811661094b5760405162461bcd60e51b815260206004820152600f60248201526e1859191c995cdccb5a5ccb5b9d5b1b608a1b604482015260640161016d565b610956600482611122565b6109975760405162461bcd60e51b8152602060048201526012602482015271185b1c9958591e4b5c9959da5cdd195c995960721b604482015260640161016d565b6040516001600160a01b03821681527f9cc152f4650ca2829a210a21551537f4cc4d48c2611ec06974f835e911921b90906020015b60405180910390a150565b6002546001600160a01b03163314610a015760405162461bcd60e51b815260040161016d9061173b565b610a0c600482611137565b610a495760405162461bcd60e51b815260206004820152600e60248201526d1b9bdd0b5c9959da5cdd195c995960921b604482015260640161016d565b6040516001600160a01b03821681527f40b4682eb75339ed6d38b8616410eeadc61be24c86778de5067c2b0af3c99af6906020016109cc565b6002546001600160a01b03163314610aac5760405162461bcd60e51b815260040161016d9061173b565b6001600160a01b038116610b025760405162461bcd60e51b815260206004820152601960248201527f70726f706f7365642d676f7665726e6f722d69732d7a65726f00000000000000604482015260640161016d565b600380546001600160a01b0319166001600160a01b0392909216919091179055565b6002546001600160a01b03163314610b4e5760405162461bcd60e51b815260040161016d9061173b565b6001600160a01b038116610b9c5760405162461bcd60e51b81526020600482015260156024820152741999594b58dbdb1b1958dd1bdc8b5a5ccb5b9d5b1b605a1b604482015260640161016d565b6007546001600160a01b03908116908216811415610bf25760405162461bcd60e51b81526020600482015260136024820152721b995dcb5cd85b594b585ccb58dd5c9c995b9d606a1b604482015260640161016d565b816001600160a01b0316816001600160a01b03167f5d16ad41baeb009cd23eb8f6c7cde5c2e0cd5acf4a33926ab488875c37c37f3860405160405180910390a350600780546001600160a01b0319166001600160a01b0392909216919091179055565b6003546001600160a01b0316338114610cb05760405162461bcd60e51b815260206004820152601960248201527f6e6f742d7468652d70726f706f7365642d676f7665726e6f7200000000000000604482015260640161016d565b6002546040516001600160a01b038084169216907fd4459d5b8b913cab0244230fd9b1c08b6ceace7fe9230e60d0f74cbffdf849d090600090a3600280546001600160a01b039092166001600160a01b0319928316179055600380549091169055565b600354600160a81b900460ff1615610d585760405162461bcd60e51b815260206004820152600860248201526739b43aba3237bbb760c11b604482015260640161016d565b6002546001600160a01b03163314610d825760405162461bcd60e51b815260040161016d9061173b565b6003805461ffff60a01b191661010160a01b1790556040513381527f28b4c24cb1012c094cd2f59f98e89d791973295f8fda6eaa118022d6d318960a9060200161056c565b600354600160a81b900460ff16610e0f5760405162461bcd60e51b815260206004820152600c60248201526b3737ba16b9b43aba3237bbb760a11b604482015260640161016d565b6002546001600160a01b03163314610e395760405162461bcd60e51b815260040161016d9061173b565b6003805460ff60a81b191690556040513381527fece7583a70a505ef0e36d4dec768f5ae597713e09c26011022599ee01abdabfc9060200161056c565b6001600160a01b038116600090815260018301602052604081205415155b9392505050565b600054610100900460ff1680610eb4575060005460ff16155b610ed05760405162461bcd60e51b815260040161016d90611761565b600054610100900460ff16158015610ef2576000805461ffff19166101011790555b600180558015610f08576000805461ff00191690555b50565b600054610100900460ff1680610f24575060005460ff16155b610f405760405162461bcd60e51b815260040161016d90611761565b600054610100900460ff16158015610f62576000805461ffff19166101011790555b610f6a61114c565b8015610f08576000805461ff001916905550565b6002546001600160a01b03163314610fa85760405162461bcd60e51b815260040161016d9061173b565b565b80471015610ffa5760405162461bcd60e51b815260206004820152601d60248201527f416464726573733a20696e73756666696369656e742062616c616e6365000000604482015260640161016d565b6000826001600160a01b03168260405160006040518083038185875af1925050503d8060008114611047576040519150601f19603f3d011682016040523d82523d6000602084013e61104c565b606091505b50509050806106b45760405162461bcd60e51b815260206004820152603a60248201527f416464726573733a20756e61626c6520746f2073656e642076616c75652c207260448201527f6563697069656e74206d61792068617665207265766572746564000000000000606482015260840161016d565b604080516001600160a01b038416602482015260448082018490528251808303909101815260649091019091526020810180516001600160e01b031663a9059cbb60e01b1790526106b49084906111f7565b60606000610e94836112c9565b6000610e94836001600160a01b038416611325565b6000610e94836001600160a01b038416611374565b600054610100900460ff1680611165575060005460ff16155b6111815760405162461bcd60e51b815260040161016d90611761565b600054610100900460ff161580156111a3576000805461ffff19166101011790555b600280546001600160a01b031916339081179091556040516000907fd4459d5b8b913cab0244230fd9b1c08b6ceace7fe9230e60d0f74cbffdf849d0908290a38015610f08576000805461ff001916905550565b600061124c826040518060400160405280602081526020017f5361666545524332303a206c6f772d6c6576656c2063616c6c206661696c6564815250856001600160a01b03166114679092919063ffffffff16565b8051909150156106b4578080602001905181019061126a91906117af565b6106b45760405162461bcd60e51b815260206004820152602a60248201527f5361666545524332303a204552433230206f7065726174696f6e20646964206e6044820152691bdd081cdd58d8d9595960b21b606482015260840161016d565b60608160000180548060200260200160405190810160405280929190818152602001828054801561131957602002820191906000526020600020905b815481526020019060010190808311611305575b50505050509050919050565b600081815260018301602052604081205461136c57508154600181810184556000848152602080822090930184905584548482528286019093526040902091909155610478565b506000610478565b6000818152600183016020526040812054801561145d5760006113986001836117d1565b85549091506000906113ac906001906117d1565b90508181146114115760008660000182815481106113cc576113cc6117f6565b90600052602060002001549050808760000184815481106113ef576113ef6117f6565b6000918252602080832090910192909255918252600188019052604090208390555b85548690806114225761142261180c565b600190038181906000526020600020016000905590558560010160008681526020019081526020016000206000905560019350505050610478565b6000915050610478565b6060611476848460008561147e565b949350505050565b6060824710156114df5760405162461bcd60e51b815260206004820152602660248201527f416464726573733a20696e73756666696369656e742062616c616e636520666f6044820152651c8818d85b1b60d21b606482015260840161016d565b843b61152d5760405162461bcd60e51b815260206004820152601d60248201527f416464726573733a2063616c6c20746f206e6f6e2d636f6e7472616374000000604482015260640161016d565b600080866001600160a01b031685876040516115499190611822565b60006040518083038185875af1925050503d8060008114611586576040519150601f19603f3d011682016040523d82523d6000602084013e61158b565b606091505b509150915061159b8282866115a6565b979650505050505050565b606083156115b5575081610e94565b8251156115c55782518084602001fd5b8160405162461bcd60e51b815260040161016d9190611708565b6001600160a01b0381168114610f0857600080fd5b60006020828403121561160657600080fd5b8135610e94816115df565b6000806040838503121561162457600080fd5b823561162f816115df565b9150602083013561163f816115df565b809150509250929050565b60008060006060848603121561165f57600080fd5b833561166a816115df565b9250602084013561167a816115df565b929592945050506040919091013590565b6020808252825182820181905260009190848201906040850190845b818110156116cc5783516001600160a01b0316835292840192918401916001016116a7565b50909695505050505050565b60005b838110156116f35781810151838201526020016116db565b83811115611702576000848401525b50505050565b60208152600082518060208401526117278160408501602087016116d8565b601f01601f19169190910160400192915050565b6020808252600c908201526b3737ba16b3b7bb32b93737b960a11b604082015260600190565b6020808252602e908201527f496e697469616c697a61626c653a20636f6e747261637420697320616c72656160408201526d191e481a5b9a5d1a585b1a5e995960921b606082015260800190565b6000602082840312156117c157600080fd5b81518015158114610e9457600080fd5b6000828210156117f157634e487b7160e01b600052601160045260246000fd5b500390565b634e487b7160e01b600052603260045260246000fd5b634e487b7160e01b600052603160045260246000fd5b600082516118348184602087016116d8565b919091019291505056fea26469706673582212204da2b7aeb53f580e4ed34007e565b701d2b4826f5a5fe8094cdc2806098e434d64736f6c63430008090033",
  "devdoc": {
    "kind": "dev",
    "methods": {
      "acceptGovernorship()": {
        "details": "Allows new governor to accept governorship of the contract."
      },
      "getPools()": {
        "details": "WARNING: This operation will copy the entire storage to memory, which can be quite expensive. This is designed to mostly be used by view accessors that are queried without any gas fees."
      },
      "open()": {
        "details": "Open contract operations, if contract is in shutdown state"
      },
      "pause()": {
        "details": "Pause contract operations, if contract is not paused."
      },
      "poolExists(address)": {
        "params": {
          "pool_": "Pool to check"
        },
        "returns": {
          "_0": "true if exists"
        }
      },
      "shutdown()": {
        "details": "Shutdown contract operations, if not already shutdown."
      },
      "sweep(address,address,uint256)": {
        "params": {
          "amount_": "The amount to send",
          "to_": "The recipient of the transfer",
          "token_": "The token to transfer"
        }
      },
      "transferGovernorship(address)": {
        "details": "Transfers governorship of the contract to a new account (`proposedGovernor`). Can only be called by the current owner."
      },
      "unpause()": {
        "details": "Unpause contract operations, allow only if contract is paused and not shutdown."
      }
    },
    "title": "PoolRegistry contract",
    "version": 1
  },
  "userdoc": {
    "events": {
      "FeeCollectorUpdated(address,address)": {
        "notice": "Emitted when fee collector is updated"
      },
      "MasterOracleUpdated(address,address)": {
        "notice": "Emitted when master oracle contract is updated"
      },
      "Open(address)": {
        "notice": "Emitted when contract is turned on"
      },
      "Paused(address)": {
        "notice": "Emitted when contract is paused"
      },
      "PoolRegistered(address)": {
        "notice": "Emitted when a pool is registered"
      },
      "PoolUnregistered(address)": {
        "notice": "Emitted when a pool is unregistered"
      },
      "Shutdown(address)": {
        "notice": "Emitted when contract is shuted down"
      },
      "Unpaused(address)": {
        "notice": "Emitted when contract is unpaused"
      }
    },
    "kind": "user",
    "methods": {
      "everythingStopped()": {
        "notice": "Return `true` if contract is shutdown"
      },
      "feeCollector()": {
        "notice": "Fee collector address"
      },
      "getPools()": {
        "notice": "Get all pools"
      },
      "masterOracle()": {
        "notice": "Prices oracle"
      },
      "paused()": {
        "notice": "Return `true` if contract is paused"
      },
      "poolExists(address)": {
        "notice": "Check if pool is registered"
      },
      "registerPool(address)": {
        "notice": "Register pool"
      },
      "sweep(address,address,uint256)": {
        "notice": "ERC20 recovery in case of stuck tokens due direct transfers to the contract address."
      },
      "unregisterPool(address)": {
        "notice": "Unregister pool"
      },
      "updateFeeCollector(address)": {
        "notice": "Update fee collector"
      },
      "updateMasterOracle(address)": {
        "notice": "Update master oracle contract"
      }
    },
    "version": 1
  },
  "storageLayout": {
    "storage": [
      {
        "astId": 7177,
        "contract": "contracts/PoolRegistry.sol:PoolRegistry",
        "label": "_initialized",
        "offset": 0,
        "slot": "0",
        "type": "t_bool"
      },
      {
        "astId": 7180,
        "contract": "contracts/PoolRegistry.sol:PoolRegistry",
        "label": "_initializing",
        "offset": 1,
        "slot": "0",
        "type": "t_bool"
      },
      {
        "astId": 7231,
        "contract": "contracts/PoolRegistry.sol:PoolRegistry",
        "label": "_status",
        "offset": 0,
        "slot": "1",
        "type": "t_uint256"
      },
      {
        "astId": 6006,
        "contract": "contracts/PoolRegistry.sol:PoolRegistry",
        "label": "governor",
        "offset": 0,
        "slot": "2",
        "type": "t_address"
      },
      {
        "astId": 6008,
        "contract": "contracts/PoolRegistry.sol:PoolRegistry",
        "label": "proposedGovernor",
        "offset": 0,
        "slot": "3",
        "type": "t_address"
      },
      {
        "astId": 14541,
        "contract": "contracts/PoolRegistry.sol:PoolRegistry",
        "label": "_paused",
        "offset": 20,
        "slot": "3",
        "type": "t_bool"
      },
      {
        "astId": 14543,
        "contract": "contracts/PoolRegistry.sol:PoolRegistry",
        "label": "_everythingStopped",
        "offset": 21,
        "slot": "3",
        "type": "t_bool"
      },
      {
        "astId": 13053,
        "contract": "contracts/PoolRegistry.sol:PoolRegistry",
        "label": "pools",
        "offset": 0,
        "slot": "4",
        "type": "t_struct(AddressSet)9307_storage"
      },
      {
        "astId": 13057,
        "contract": "contracts/PoolRegistry.sol:PoolRegistry",
        "label": "masterOracle",
        "offset": 0,
        "slot": "6",
        "type": "t_contract(IMasterOracle)11333"
      },
      {
        "astId": 13060,
        "contract": "contracts/PoolRegistry.sol:PoolRegistry",
        "label": "feeCollector",
        "offset": 0,
        "slot": "7",
        "type": "t_address"
      }
    ],
    "types": {
      "t_address": {
        "encoding": "inplace",
        "label": "address",
        "numberOfBytes": "20"
      },
      "t_array(t_bytes32)dyn_storage": {
        "base": "t_bytes32",
        "encoding": "dynamic_array",
        "label": "bytes32[]",
        "numberOfBytes": "32"
      },
      "t_bool": {
        "encoding": "inplace",
        "label": "bool",
        "numberOfBytes": "1"
      },
      "t_bytes32": {
        "encoding": "inplace",
        "label": "bytes32",
        "numberOfBytes": "32"
      },
      "t_contract(IMasterOracle)11333": {
        "encoding": "inplace",
        "label": "contract IMasterOracle",
        "numberOfBytes": "20"
      },
      "t_mapping(t_bytes32,t_uint256)": {
        "encoding": "mapping",
        "key": "t_bytes32",
        "label": "mapping(bytes32 => uint256)",
        "numberOfBytes": "32",
        "value": "t_uint256"
      },
      "t_struct(AddressSet)9307_storage": {
        "encoding": "inplace",
        "label": "struct EnumerableSet.AddressSet",
        "members": [
          {
            "astId": 9306,
            "contract": "contracts/PoolRegistry.sol:PoolRegistry",
            "label": "_inner",
            "offset": 0,
            "slot": "0",
            "type": "t_struct(Set)9006_storage"
          }
        ],
        "numberOfBytes": "64"
      },
      "t_struct(Set)9006_storage": {
        "encoding": "inplace",
        "label": "struct EnumerableSet.Set",
        "members": [
          {
            "astId": 9001,
            "contract": "contracts/PoolRegistry.sol:PoolRegistry",
            "label": "_values",
            "offset": 0,
            "slot": "0",
            "type": "t_array(t_bytes32)dyn_storage"
          },
          {
            "astId": 9005,
            "contract": "contracts/PoolRegistry.sol:PoolRegistry",
            "label": "_indexes",
            "offset": 0,
            "slot": "1",
            "type": "t_mapping(t_bytes32,t_uint256)"
          }
        ],
        "numberOfBytes": "64"
      },
      "t_uint256": {
        "encoding": "inplace",
        "label": "uint256",
        "numberOfBytes": "32"
      }
    }
  }
}