{
  "address": "0xf03BEe24f66531aEcE33B837b36190EF904242FA",
  "abi": [
    {
      "inputs": [],
      "stateMutability": "nonpayable",
      "type": "constructor"
    },
    {
      "inputs": [],
      "name": "AddressIsNull",
      "type": "error"
    },
    {
      "inputs": [],
      "name": "AlreadyRegistered",
      "type": "error"
    },
    {
      "inputs": [],
      "name": "FallbackIsNotAllowed",
      "type": "error"
    },
    {
      "inputs": [],
      "name": "FeeCollectorIsNull",
      "type": "error"
    },
    {
      "inputs": [],
      "name": "IsNotPaused",
      "type": "error"
    },
    {
      "inputs": [],
      "name": "IsNotShutdown",
      "type": "error"
    },
    {
      "inputs": [],
      "name": "IsPaused",
      "type": "error"
    },
    {
      "inputs": [],
      "name": "IsShutdown",
      "type": "error"
    },
    {
      "inputs": [],
      "name": "NativeTokenGatewayIsNull",
      "type": "error"
    },
    {
      "inputs": [],
      "name": "NewValueIsSameAsCurrent",
      "type": "error"
    },
    {
      "inputs": [],
      "name": "OracleIsNull",
      "type": "error"
    },
    {
      "inputs": [],
      "name": "ProposedGovernorIsNull",
      "type": "error"
    },
    {
      "inputs": [],
      "name": "ReceiveIsNotAllowed",
      "type": "error"
    },
    {
      "inputs": [],
      "name": "SenderIsNotGovernor",
      "type": "error"
    },
    {
      "inputs": [],
      "name": "SenderIsNotTheProposedGovernor",
      "type": "error"
    },
    {
      "inputs": [],
      "name": "UnregisteredPool",
      "type": "error"
    },
    {
      "anonymous": false,
      "inputs": [
        {
          "indexed": false,
          "internalType": "contract ICrossChainDispatcher",
          "name": "oldCrossChainDispatcher",
          "type": "address"
        },
        {
          "indexed": false,
          "internalType": "contract ICrossChainDispatcher",
          "name": "newCrossChainDispatcher",
          "type": "address"
        }
      ],
      "name": "CrossChainDispatcherUpdated",
      "type": "event"
    },
    {
      "anonymous": false,
      "inputs": [
        {
          "indexed": true,
          "internalType": "address",
          "name": "oldFeeCollector",
          "type": "address"
        },
        {
          "indexed": true,
          "internalType": "address",
          "name": "newFeeCollector",
          "type": "address"
        }
      ],
      "name": "FeeCollectorUpdated",
      "type": "event"
    },
    {
      "anonymous": false,
      "inputs": [
        {
          "indexed": false,
          "internalType": "uint8",
          "name": "version",
          "type": "uint8"
        }
      ],
      "name": "Initialized",
      "type": "event"
    },
    {
      "anonymous": false,
      "inputs": [
        {
          "indexed": true,
          "internalType": "contract IMasterOracle",
          "name": "oldOracle",
          "type": "address"
        },
        {
          "indexed": true,
          "internalType": "contract IMasterOracle",
          "name": "newOracle",
          "type": "address"
        }
      ],
      "name": "MasterOracleUpdated",
      "type": "event"
    },
    {
      "anonymous": false,
      "inputs": [
        {
          "indexed": true,
          "internalType": "address",
          "name": "oldGateway",
          "type": "address"
        },
        {
          "indexed": true,
          "internalType": "address",
          "name": "newGateway",
          "type": "address"
        }
      ],
      "name": "NativeTokenGatewayUpdated",
      "type": "event"
    },
    {
      "anonymous": false,
      "inputs": [
        {
          "indexed": true,
          "internalType": "address",
          "name": "caller",
          "type": "address"
        }
      ],
      "name": "Open",
      "type": "event"
    },
    {
      "anonymous": false,
      "inputs": [
        {
          "indexed": true,
          "internalType": "address",
          "name": "caller",
          "type": "address"
        }
      ],
      "name": "Paused",
      "type": "event"
    },
    {
      "anonymous": false,
      "inputs": [
        {
          "indexed": true,
          "internalType": "uint256",
          "name": "id",
          "type": "uint256"
        },
        {
          "indexed": true,
          "internalType": "address",
          "name": "pool",
          "type": "address"
        }
      ],
      "name": "PoolRegistered",
      "type": "event"
    },
    {
      "anonymous": false,
      "inputs": [
        {
          "indexed": true,
          "internalType": "uint256",
          "name": "id",
          "type": "uint256"
        },
        {
          "indexed": true,
          "internalType": "address",
          "name": "pool",
          "type": "address"
        }
      ],
      "name": "PoolUnregistered",
      "type": "event"
    },
    {
      "anonymous": false,
      "inputs": [
        {
          "indexed": false,
          "internalType": "contract IQuoter",
          "name": "oldQuoter",
          "type": "address"
        },
        {
          "indexed": false,
          "internalType": "contract IQuoter",
          "name": "newQuoter",
          "type": "address"
        }
      ],
      "name": "QuoterUpdated",
      "type": "event"
    },
    {
      "anonymous": false,
      "inputs": [
        {
          "indexed": true,
          "internalType": "address",
          "name": "caller",
          "type": "address"
        }
      ],
      "name": "Shutdown",
      "type": "event"
    },
    {
      "anonymous": false,
      "inputs": [
        {
          "indexed": false,
          "internalType": "contract ISwapper",
          "name": "oldSwapFee",
          "type": "address"
        },
        {
          "indexed": false,
          "internalType": "contract ISwapper",
          "name": "newSwapFee",
          "type": "address"
        }
      ],
      "name": "SwapperUpdated",
      "type": "event"
    },
    {
      "anonymous": false,
      "inputs": [
        {
          "indexed": true,
          "internalType": "address",
          "name": "caller",
          "type": "address"
        }
      ],
      "name": "Unpaused",
      "type": "event"
    },
    {
      "anonymous": false,
      "inputs": [
        {
          "indexed": true,
          "internalType": "address",
          "name": "previousGovernor",
          "type": "address"
        },
        {
          "indexed": true,
          "internalType": "address",
          "name": "proposedGovernor",
          "type": "address"
        }
      ],
      "name": "UpdatedGovernor",
      "type": "event"
    },
    {
      "stateMutability": "payable",
      "type": "fallback"
    },
    {
      "inputs": [],
      "name": "VERSION",
      "outputs": [
        {
          "internalType": "string",
          "name": "",
          "type": "string"
        }
      ],
      "stateMutability": "view",
      "type": "function"
    },
    {
      "inputs": [],
      "name": "acceptGovernorship",
      "outputs": [],
      "stateMutability": "nonpayable",
      "type": "function"
    },
    {
      "inputs": [],
      "name": "crossChainDispatcher",
      "outputs": [
        {
          "internalType": "contract ICrossChainDispatcher",
          "name": "",
          "type": "address"
        }
      ],
      "stateMutability": "view",
      "type": "function"
    },
    {
      "inputs": [
        {
          "internalType": "contract ISyntheticToken",
          "name": "syntheticToken_",
          "type": "address"
        }
      ],
      "name": "doesSyntheticTokenExist",
      "outputs": [
        {
          "internalType": "bool",
          "name": "_exists",
          "type": "bool"
        }
      ],
      "stateMutability": "view",
      "type": "function"
    },
    {
      "inputs": [],
      "name": "everythingStopped",
      "outputs": [
        {
          "internalType": "bool",
          "name": "",
          "type": "bool"
        }
      ],
      "stateMutability": "view",
      "type": "function"
    },
    {
      "inputs": [],
      "name": "feeCollector",
      "outputs": [
        {
          "internalType": "address",
          "name": "",
          "type": "address"
        }
      ],
      "stateMutability": "view",
      "type": "function"
    },
    {
      "inputs": [],
      "name": "getPools",
      "outputs": [
        {
          "internalType": "address[]",
          "name": "",
          "type": "address[]"
        }
      ],
      "stateMutability": "view",
      "type": "function"
    },
    {
      "inputs": [],
      "name": "governor",
      "outputs": [
        {
          "internalType": "address",
          "name": "",
          "type": "address"
        }
      ],
      "stateMutability": "view",
      "type": "function"
    },
    {
      "inputs": [
        {
          "internalType": "address",
          "name": "",
          "type": "address"
        }
      ],
      "name": "idOfPool",
      "outputs": [
        {
          "internalType": "uint256",
          "name": "",
          "type": "uint256"
        }
      ],
      "stateMutability": "view",
      "type": "function"
    },
    {
      "inputs": [
        {
          "internalType": "contract IMasterOracle",
          "name": "masterOracle_",
          "type": "address"
        },
        {
          "internalType": "address",
          "name": "feeCollector_",
          "type": "address"
        }
      ],
      "name": "initialize",
      "outputs": [],
      "stateMutability": "nonpayable",
      "type": "function"
    },
    {
      "inputs": [
        {
          "internalType": "address",
          "name": "pool_",
          "type": "address"
        }
      ],
      "name": "isPoolRegistered",
      "outputs": [
        {
          "internalType": "bool",
          "name": "",
          "type": "bool"
        }
      ],
      "stateMutability": "view",
      "type": "function"
    },
    {
      "inputs": [],
      "name": "masterOracle",
      "outputs": [
        {
          "internalType": "contract IMasterOracle",
          "name": "",
          "type": "address"
        }
      ],
      "stateMutability": "view",
      "type": "function"
    },
    {
      "inputs": [],
      "name": "nativeTokenGateway",
      "outputs": [
        {
          "internalType": "address",
          "name": "",
          "type": "address"
        }
      ],
      "stateMutability": "view",
      "type": "function"
    },
    {
      "inputs": [],
      "name": "nextPoolId",
      "outputs": [
        {
          "internalType": "uint256",
          "name": "",
          "type": "uint256"
        }
      ],
      "stateMutability": "view",
      "type": "function"
    },
    {
      "inputs": [],
      "name": "open",
      "outputs": [],
      "stateMutability": "nonpayable",
      "type": "function"
    },
    {
      "inputs": [],
      "name": "pause",
      "outputs": [],
      "stateMutability": "nonpayable",
      "type": "function"
    },
    {
      "inputs": [],
      "name": "paused",
      "outputs": [
        {
          "internalType": "bool",
          "name": "",
          "type": "bool"
        }
      ],
      "stateMutability": "view",
      "type": "function"
    },
    {
      "inputs": [],
      "name": "proposedGovernor",
      "outputs": [
        {
          "internalType": "address",
          "name": "",
          "type": "address"
        }
      ],
      "stateMutability": "view",
      "type": "function"
    },
    {
      "inputs": [],
      "name": "quoter",
      "outputs": [
        {
          "internalType": "contract IQuoter",
          "name": "",
          "type": "address"
        }
      ],
      "stateMutability": "view",
      "type": "function"
    },
    {
      "inputs": [
        {
          "internalType": "address",
          "name": "pool_",
          "type": "address"
        }
      ],
      "name": "registerPool",
      "outputs": [],
      "stateMutability": "nonpayable",
      "type": "function"
    },
    {
      "inputs": [],
      "name": "shutdown",
      "outputs": [],
      "stateMutability": "nonpayable",
      "type": "function"
    },
    {
      "inputs": [],
      "name": "swapper",
      "outputs": [
        {
          "internalType": "contract ISwapper",
          "name": "",
          "type": "address"
        }
      ],
      "stateMutability": "view",
      "type": "function"
    },
    {
      "inputs": [
        {
          "internalType": "contract IERC20",
          "name": "token_",
          "type": "address"
        },
        {
          "internalType": "address",
          "name": "to_",
          "type": "address"
        },
        {
          "internalType": "uint256",
          "name": "amount_",
          "type": "uint256"
        }
      ],
      "name": "sweep",
      "outputs": [],
      "stateMutability": "nonpayable",
      "type": "function"
    },
    {
      "inputs": [
        {
          "internalType": "address",
          "name": "proposedGovernor_",
          "type": "address"
        }
      ],
      "name": "transferGovernorship",
      "outputs": [],
      "stateMutability": "nonpayable",
      "type": "function"
    },
    {
      "inputs": [],
      "name": "unpause",
      "outputs": [],
      "stateMutability": "nonpayable",
      "type": "function"
    },
    {
      "inputs": [
        {
          "internalType": "address",
          "name": "pool_",
          "type": "address"
        }
      ],
      "name": "unregisterPool",
      "outputs": [],
      "stateMutability": "nonpayable",
      "type": "function"
    },
    {
      "inputs": [
        {
          "internalType": "contract ICrossChainDispatcher",
          "name": "crossChainDispatcher_",
          "type": "address"
        }
      ],
      "name": "updateCrossChainDispatcher",
      "outputs": [],
      "stateMutability": "nonpayable",
      "type": "function"
    },
    {
      "inputs": [
        {
          "internalType": "address",
          "name": "newFeeCollector_",
          "type": "address"
        }
      ],
      "name": "updateFeeCollector",
      "outputs": [],
      "stateMutability": "nonpayable",
      "type": "function"
    },
    {
      "inputs": [
        {
          "internalType": "contract IMasterOracle",
          "name": "newMasterOracle_",
          "type": "address"
        }
      ],
      "name": "updateMasterOracle",
      "outputs": [],
      "stateMutability": "nonpayable",
      "type": "function"
    },
    {
      "inputs": [
        {
          "internalType": "address",
          "name": "newGateway_",
          "type": "address"
        }
      ],
      "name": "updateNativeTokenGateway",
      "outputs": [],
      "stateMutability": "nonpayable",
      "type": "function"
    },
    {
      "inputs": [
        {
          "internalType": "contract IQuoter",
          "name": "newQuoter_",
          "type": "address"
        }
      ],
      "name": "updateQuoter",
      "outputs": [],
      "stateMutability": "nonpayable",
      "type": "function"
    },
    {
      "inputs": [
        {
          "internalType": "contract ISwapper",
          "name": "newSwapper_",
          "type": "address"
        }
      ],
      "name": "updateSwapper",
      "outputs": [],
      "stateMutability": "nonpayable",
      "type": "function"
    },
    {
      "stateMutability": "payable",
      "type": "receive"
    }
  ],
  "transactionHash": "0xb1b1822a410b92dec3d2b6b7d6efc63c845b83a69ce4822bd0013addab52e12c",
  "args": [],
  "numDeployments": 4,
  "solcInputHash": "545cb6254fd08cfae8ffa56eab2faa67",
  "bytecode": "0x60806040523480156200001157600080fd5b50600280546001600160a01b031916339081179091556040516000907fd4459d5b8b913cab0244230fd9b1c08b6ceace7fe9230e60d0f74cbffdf849d0908290a36200005c62000062565b62000192565b6200006e60ff62000071565b50565b60008054610100900460ff16156200010a578160ff166001148015620000aa5750620000a8306200018360201b620012e71760201c565b155b620001025760405162461bcd60e51b815260206004820152602e602482015260008051602062001f2683398151915260448201526d191e481a5b9a5d1a585b1a5e995960921b60648201526084015b60405180910390fd5b506000919050565b60005460ff808416911610620001695760405162461bcd60e51b815260206004820152602e602482015260008051602062001f2683398151915260448201526d191e481a5b9a5d1a585b1a5e995960921b6064820152608401620000f9565b506000805460ff191660ff92909216919091179055600190565b6001600160a01b03163b151590565b611d8480620001a26000396000f3fe6080604052600436106101e75760003560e01c80638a11a37011610102578063d2c35ce811610095578063f3b27bc311610064578063f3b27bc3146105c8578063fc0e74d1146105dd578063fcfff16f146105f2578063ffa1ad741461060757610205565b8063d2c35ce814610549578063d3033c3914610569578063eaada38214610589578063ecf3a3f9146105a957610205565b8063b6aa515b116100d1578063b6aa515b146104c9578063c415b95c146104e9578063c673bdaf14610509578063c6bbd5a71461052957610205565b80638a11a37014610449578063abc9b45e14610469578063abd9084614610489578063ada61cc3146104a957610205565b8063426172d61161017a578063673a2a1f11610149578063673a2a1f146103d257806374042229146103f45780638456cb591461041457806386ca38101461042957610205565b8063426172d614610353578063485cc955146103735780635c975abb1461039357806362c06767146103b257610205565b80632b3297f9116101b65780632b3297f9146102cf57806332c615b4146102ef57806336074a061461030f5780633f4ba83a1461033c57610205565b80630c340a241461021e57806318e561311461025b578063193d7d841461027f5780631a0dd00b1461029f57610205565b3661020557604051636436c22d60e11b815260040160405180910390fd5b60405163a0152e6360e01b815260040160405180910390fd5b34801561022a57600080fd5b5060025461023e906001600160a01b031681565b6040516001600160a01b0390911681526020015b60405180910390f35b34801561026757600080fd5b50610271600a5481565b604051908152602001610252565b34801561028b57600080fd5b5060085461023e906001600160a01b031681565b3480156102ab57600080fd5b506102bf6102ba366004611abc565b610645565b6040519015158152602001610252565b3480156102db57600080fd5b50600b5461023e906001600160a01b031681565b3480156102fb57600080fd5b50600d5461023e906001600160a01b031681565b34801561031b57600080fd5b5061027161032a366004611abc565b60096020526000908152604090205481565b34801561034857600080fd5b5061035161070b565b005b34801561035f57600080fd5b5061035161036e366004611abc565b6107c5565b34801561037f57600080fd5b5061035161038e366004611ad9565b6108ae565b34801561039f57600080fd5b50600354600160a01b900460ff166102bf565b3480156103be57600080fd5b506103516103cd366004611b12565b6109b0565b3480156103de57600080fd5b506103e76109e4565b6040516102529190611b53565b34801561040057600080fd5b5061035161040f366004611abc565b6109f5565b34801561042057600080fd5b50610351610adb565b34801561043557600080fd5b50610351610444366004611abc565b610b71565b34801561045557600080fd5b5060035461023e906001600160a01b031681565b34801561047557600080fd5b50610351610484366004611abc565b610c5a565b34801561049557600080fd5b506103516104a4366004611abc565b610d40565b3480156104b557600080fd5b506103516104c4366004611abc565b610e44565b3480156104d557600080fd5b506103516104e4366004611abc565b610edb565b3480156104f557600080fd5b5060075461023e906001600160a01b031681565b34801561051557600080fd5b506102bf610524366004611abc565b610f4f565b34801561053557600080fd5b50600c5461023e906001600160a01b031681565b34801561055557600080fd5b50610351610564366004611abc565b610f62565b34801561057557600080fd5b50610351610584366004611abc565b611048565b34801561059557600080fd5b5060065461023e906001600160a01b031681565b3480156105b557600080fd5b50600354600160a81b900460ff166102bf565b3480156105d457600080fd5b50610351611131565b3480156105e957600080fd5b506103516111c0565b3480156105fe57600080fd5b50610351611258565b34801561061357600080fd5b50610638604051806040016040528060058152602001640312e332e360dc1b81525081565b6040516102529190611bd0565b60008061065260046112f6565b905060005b818110156107045761066a600482611300565b604051631a0dd00b60e01b81526001600160a01b0386811660048301529190911690631a0dd00b9060240160206040518083038186803b1580156106ad57600080fd5b505afa1580156106c1573d6000803e3d6000fd5b505050506040513d601f19601f820116820180604052508101906106e59190611c03565b156106f4575060019392505050565b6106fd81611c3b565b9050610657565b5050919050565b600354600160a01b900460ff166107355760405163bc871ce560e01b815260040160405180910390fd5b600354600160a81b900460ff161561076057604051631b0e923f60e11b815260040160405180910390fd5b6002546001600160a01b0316331461078b57604051634b98449160e11b815260040160405180910390fd5b6003805460ff60a01b1916905560405133907f5db9ee0a495bf2e6ff9c91a7834c1ba4fdd244a5e8aa4e537bd38aeae4b073aa90600090a2565b6002546001600160a01b031633146107f057604051634b98449160e11b815260040160405180910390fd5b6001600160a01b0381166108175760405163fb7566d760e01b815260040160405180910390fd5b600c546001600160a01b0390811690821681141561084857604051630333a68160e41b815260040160405180910390fd5b604080516001600160a01b038084168252841660208201527ff7248061c47e1cf157db85f3c9bac5cb0007cbb8867be0807f6dcdb7eb8f5268910160405180910390a150600c80546001600160a01b0319166001600160a01b0392909216919091179055565b60006108ba6001611313565b905080156108d2576000805461ff0019166101001790555b6001600160a01b0383166108f957604051634cc5e93360e11b815260040160405180910390fd5b6001600160a01b0382166109205760405163d7d925af60e01b815260040160405180910390fd5b6109286113a4565b6109306113d5565b600680546001600160a01b038086166001600160a01b03199283161790925560078054928516929091169190911790556001600a5580156109ab576000805461ff0019169055604051600181527f7f26b83ff96e1f2b6a682f133852f6798a09c465da95921460cefb38474024989060200160405180910390a15b505050565b6109b8611404565b6001600160a01b0383166109d0576109ab828261142f565b6109ab6001600160a01b0384168383611548565b60606109f0600461159a565b905090565b6002546001600160a01b03163314610a2057604051634b98449160e11b815260040160405180910390fd5b6001600160a01b038116610a4757604051632b8962df60e21b815260040160405180910390fd5b6008546001600160a01b03908116908216811415610a7857604051630333a68160e41b815260040160405180910390fd5b816001600160a01b0316816001600160a01b03167f981f8692d39ed552e61144c73b1f608b9f86a04d56656a1dc248cc21dfce42c360405160405180910390a350600880546001600160a01b0319166001600160a01b0392909216919091179055565b600354600160a01b900460ff1615610b0657604051631309a56360e01b815260040160405180910390fd5b6002546001600160a01b03163314610b3157604051634b98449160e11b815260040160405180910390fd5b6003805460ff60a01b1916600160a01b17905560405133907f62e78cea01bee320cd4e420270b5ea74000d11b0c9f74754ebdbfc544b05a25890600090a2565b6002546001600160a01b03163314610b9c57604051634b98449160e11b815260040160405180910390fd5b6001600160a01b038116610bc35760405163fb7566d760e01b815260040160405180910390fd5b600d546001600160a01b03908116908216811415610bf457604051630333a68160e41b815260040160405180910390fd5b604080516001600160a01b038084168252841660208201527fb38ca65e0a787c95b1f6dc474c79d07d88f1056150380bbcf3411cbecc14552c910160405180910390a150600d80546001600160a01b0319166001600160a01b0392909216919091179055565b6002546001600160a01b03163314610c8557604051634b98449160e11b815260040160405180910390fd5b6001600160a01b038116610cac57604051634cc5e93360e11b815260040160405180910390fd5b6006546001600160a01b03908116908216811415610cdd57604051630333a68160e41b815260040160405180910390fd5b816001600160a01b0316816001600160a01b03167fc96bca3f57d35a1057a3357bced51fac157918147faa56845639671c516ec69c60405160405180910390a350600680546001600160a01b0319166001600160a01b0392909216919091179055565b6002546001600160a01b03163314610d6b57604051634b98449160e11b815260040160405180910390fd5b6001600160a01b038116610d925760405163fb7566d760e01b815260040160405180910390fd5b610d9d6004826115a7565b610dba57604051630ea075bf60e21b815260040160405180910390fd5b6001600160a01b03811660009081526009602052604090205480610e0a57600a8054906000610de883611c3b565b909155506001600160a01b038316600090815260096020526040902081905590505b6040516001600160a01b0383169082907f403a01572a6930b9303134960bb6e5d695084d389779d4554842553846135ffd90600090a35050565b6002546001600160a01b03163314610e6f57604051634b98449160e11b815260040160405180910390fd5b610e7a6004826115bc565b610e9757604051630282c45560e31b815260040160405180910390fd5b6001600160a01b03811660008181526009602052604080822054905190917ff8a85b30c450aae09b266730946d2e1c61a36e77d194bf4e50205060a816307991a350565b6002546001600160a01b03163314610f0657604051634b98449160e11b815260040160405180910390fd5b6001600160a01b038116610f2d57604051634c267bfb60e01b815260040160405180910390fd5b600380546001600160a01b0319166001600160a01b0392909216919091179055565b6000610f5c6004836115d1565b92915050565b6002546001600160a01b03163314610f8d57604051634b98449160e11b815260040160405180910390fd5b6001600160a01b038116610fb45760405163d7d925af60e01b815260040160405180910390fd5b6007546001600160a01b03908116908216811415610fe557604051630333a68160e41b815260040160405180910390fd5b816001600160a01b0316816001600160a01b03167f5d16ad41baeb009cd23eb8f6c7cde5c2e0cd5acf4a33926ab488875c37c37f3860405160405180910390a350600780546001600160a01b0319166001600160a01b0392909216919091179055565b6002546001600160a01b0316331461107357604051634b98449160e11b815260040160405180910390fd5b6001600160a01b03811661109a5760405163fb7566d760e01b815260040160405180910390fd5b600b546001600160a01b039081169082168114156110cb57604051630333a68160e41b815260040160405180910390fd5b604080516001600160a01b038084168252841660208201527ffb7a5f1d35a7022d9d6343bfc9a25035829d0ea72da06978793c945b1d94a17f910160405180910390a150600b80546001600160a01b0319166001600160a01b0392909216919091179055565b6003546001600160a01b031633811461115d5760405163038cdbad60e31b815260040160405180910390fd5b6002546040516001600160a01b038084169216907fd4459d5b8b913cab0244230fd9b1c08b6ceace7fe9230e60d0f74cbffdf849d090600090a3600280546001600160a01b039092166001600160a01b0319928316179055600380549091169055565b600354600160a81b900460ff16156111eb57604051631b0e923f60e11b815260040160405180910390fd5b6002546001600160a01b0316331461121657604051634b98449160e11b815260040160405180910390fd5b6003805461ffff60a01b191661010160a01b17905560405133907f28b4c24cb1012c094cd2f59f98e89d791973295f8fda6eaa118022d6d318960a90600090a2565b600354600160a81b900460ff1661128257604051636e2cff4560e01b815260040160405180910390fd5b6002546001600160a01b031633146112ad57604051634b98449160e11b815260040160405180910390fd5b6003805460ff60a81b1916905560405133907fece7583a70a505ef0e36d4dec768f5ae597713e09c26011022599ee01abdabfc90600090a2565b6001600160a01b03163b151590565b6000610f5c825490565b600061130c83836115f3565b9392505050565b60008054610100900460ff1615611363578160ff1660011480156113365750303b155b61135b5760405162461bcd60e51b815260040161135290611c56565b60405180910390fd5b506000919050565b60005460ff80841691161061138a5760405162461bcd60e51b815260040161135290611c56565b506000805460ff191660ff92909216919091179055600190565b600054610100900460ff166113cb5760405162461bcd60e51b815260040161135290611ca4565b6113d361161d565b565b600054610100900460ff166113fc5760405162461bcd60e51b815260040161135290611ca4565b6113d361164a565b6002546001600160a01b031633146113d357604051634b98449160e11b815260040160405180910390fd5b8047101561147f5760405162461bcd60e51b815260206004820152601d60248201527f416464726573733a20696e73756666696369656e742062616c616e63650000006044820152606401611352565b6000826001600160a01b03168260405160006040518083038185875af1925050503d80600081146114cc576040519150601f19603f3d011682016040523d82523d6000602084013e6114d1565b606091505b50509050806109ab5760405162461bcd60e51b815260206004820152603a60248201527f416464726573733a20756e61626c6520746f2073656e642076616c75652c207260448201527f6563697069656e74206d617920686176652072657665727465640000000000006064820152608401611352565b604080516001600160a01b038416602482015260448082018490528251808303909101815260649091019091526020810180516001600160e01b031663a9059cbb60e01b1790526109ab9084906116b3565b6060600061130c83611785565b600061130c836001600160a01b0384166117e1565b600061130c836001600160a01b038416611830565b6001600160a01b0381166000908152600183016020526040812054151561130c565b600082600001828154811061160a5761160a611cef565b9060005260206000200154905092915050565b600054610100900460ff166116445760405162461bcd60e51b815260040161135290611ca4565b60018055565b600054610100900460ff166116715760405162461bcd60e51b815260040161135290611ca4565b600280546001600160a01b031916339081179091556040516000907fd4459d5b8b913cab0244230fd9b1c08b6ceace7fe9230e60d0f74cbffdf849d0908290a3565b6000611708826040518060400160405280602081526020017f5361666545524332303a206c6f772d6c6576656c2063616c6c206661696c6564815250856001600160a01b03166119239092919063ffffffff16565b8051909150156109ab57808060200190518101906117269190611c03565b6109ab5760405162461bcd60e51b815260206004820152602a60248201527f5361666545524332303a204552433230206f7065726174696f6e20646964206e6044820152691bdd081cdd58d8d9595960b21b6064820152608401611352565b6060816000018054806020026020016040519081016040528092919081815260200182805480156117d557602002820191906000526020600020905b8154815260200190600101908083116117c1575b50505050509050919050565b600081815260018301602052604081205461182857508154600181810184556000848152602080822090930184905584548482528286019093526040902091909155610f5c565b506000610f5c565b60008181526001830160205260408120548015611919576000611854600183611d05565b855490915060009061186890600190611d05565b90508181146118cd57600086600001828154811061188857611888611cef565b90600052602060002001549050808760000184815481106118ab576118ab611cef565b6000918252602080832090910192909255918252600188019052604090208390555b85548690806118de576118de611d1c565b600190038181906000526020600020016000905590558560010160008681526020019081526020016000206000905560019350505050610f5c565b6000915050610f5c565b6060611932848460008561193a565b949350505050565b60608247101561199b5760405162461bcd60e51b815260206004820152602660248201527f416464726573733a20696e73756666696369656e742062616c616e636520666f6044820152651c8818d85b1b60d21b6064820152608401611352565b6001600160a01b0385163b6119f25760405162461bcd60e51b815260206004820152601d60248201527f416464726573733a2063616c6c20746f206e6f6e2d636f6e74726163740000006044820152606401611352565b600080866001600160a01b03168587604051611a0e9190611d32565b60006040518083038185875af1925050503d8060008114611a4b576040519150601f19603f3d011682016040523d82523d6000602084013e611a50565b606091505b5091509150611a60828286611a6b565b979650505050505050565b60608315611a7a57508161130c565b825115611a8a5782518084602001fd5b8160405162461bcd60e51b81526004016113529190611bd0565b6001600160a01b0381168114611ab957600080fd5b50565b600060208284031215611ace57600080fd5b813561130c81611aa4565b60008060408385031215611aec57600080fd5b8235611af781611aa4565b91506020830135611b0781611aa4565b809150509250929050565b600080600060608486031215611b2757600080fd5b8335611b3281611aa4565b92506020840135611b4281611aa4565b929592945050506040919091013590565b6020808252825182820181905260009190848201906040850190845b81811015611b945783516001600160a01b031683529284019291840191600101611b6f565b50909695505050505050565b60005b83811015611bbb578181015183820152602001611ba3565b83811115611bca576000848401525b50505050565b6020815260008251806020840152611bef816040850160208701611ba0565b601f01601f19169190910160400192915050565b600060208284031215611c1557600080fd5b8151801515811461130c57600080fd5b634e487b7160e01b600052601160045260246000fd5b6000600019821415611c4f57611c4f611c25565b5060010190565b6020808252602e908201527f496e697469616c697a61626c653a20636f6e747261637420697320616c72656160408201526d191e481a5b9a5d1a585b1a5e995960921b606082015260800190565b6020808252602b908201527f496e697469616c697a61626c653a20636f6e7472616374206973206e6f74206960408201526a6e697469616c697a696e6760a81b606082015260800190565b634e487b7160e01b600052603260045260246000fd5b600082821015611d1757611d17611c25565b500390565b634e487b7160e01b600052603160045260246000fd5b60008251611d44818460208701611ba0565b919091019291505056fea2646970667358221220757ea16ea4dfbf0e8236ed29f820ca777200648184ed6e6ed373baf00050a8db64736f6c63430008090033496e697469616c697a61626c653a20636f6e747261637420697320616c726561",
  "devdoc": {
    "kind": "dev",
    "methods": {
      "doesSyntheticTokenExist(address)": {
        "params": {
          "syntheticToken_": "Asset to check"
        },
        "returns": {
          "_exists": "Return true if exists"
        }
      },
      "getPools()": {
        "details": "WARNING: This operation will copy the entire storage to memory, which can be quite expensive. This is designed to mostly be used by view accessors that are queried without any gas fees."
      },
      "isPoolRegistered(address)": {
        "params": {
          "pool_": "Pool to check"
        },
        "returns": {
          "_0": "true if exists"
        }
      },
      "open()": {
        "details": "Open contract operations, if contract is in shutdown state"
      },
      "pause()": {
        "details": "Suspend deposit feature, if contract is not paused."
      },
      "shutdown()": {
        "details": "Suspend all features (issue, repay, deposit, withdraw, liquidate and swap), if not already shutdown."
      },
      "sweep(address,address,uint256)": {
        "params": {
          "amount_": "The amount to send",
          "to_": "The recipient of the transfer",
          "token_": "The token to transfer"
        }
      },
      "transferGovernorship(address)": {
        "details": "Can only be called by the current owner.",
        "params": {
          "proposedGovernor_": "The new proposed governor"
        }
      },
      "unpause()": {
        "details": "Unpause contract operations, allow only if contract is paused and not shutdown."
      }
    },
    "title": "PoolRegistry contract",
    "version": 1
  },
  "userdoc": {
    "events": {
      "CrossChainDispatcherUpdated(address,address)": {
        "notice": "Emitted when Cross-chain dispatcher contract is updated"
      },
      "FeeCollectorUpdated(address,address)": {
        "notice": "Emitted when fee collector is updated"
      },
      "MasterOracleUpdated(address,address)": {
        "notice": "Emitted when master oracle contract is updated"
      },
      "NativeTokenGatewayUpdated(address,address)": {
        "notice": "Emitted when native token gateway is updated"
      },
      "Open(address)": {
        "notice": "Emitted when contract is turned on"
      },
      "Paused(address)": {
        "notice": "Emitted when contract is paused"
      },
      "PoolRegistered(uint256,address)": {
        "notice": "Emitted when a pool is registered"
      },
      "PoolUnregistered(uint256,address)": {
        "notice": "Emitted when a pool is unregistered"
      },
      "QuoterUpdated(address,address)": {
        "notice": "Emitted when Quoter contract is updated"
      },
      "Shutdown(address)": {
        "notice": "Emitted when contract is shuted down"
      },
      "SwapperUpdated(address,address)": {
        "notice": "Emitted when Swapper contract is updated"
      },
      "Unpaused(address)": {
        "notice": "Emitted when contract is unpaused"
      }
    },
    "kind": "user",
    "methods": {
      "acceptGovernorship()": {
        "notice": "Allows new governor to accept governorship of the contract."
      },
      "crossChainDispatcher()": {
        "notice": "The Cross-chain dispatcher contract"
      },
      "doesSyntheticTokenExist(address)": {
        "notice": "Check if any pool has the token as part of its offerings"
      },
      "everythingStopped()": {
        "notice": "Return `true` if contract is shutdown"
      },
      "feeCollector()": {
        "notice": "Fee collector address"
      },
      "getPools()": {
        "notice": "Get all pools"
      },
      "governor()": {
        "notice": "The governor"
      },
      "idOfPool(address)": {
        "notice": "Map of the ids of the pools"
      },
      "isPoolRegistered(address)": {
        "notice": "Check if pool is registered"
      },
      "masterOracle()": {
        "notice": "Prices' oracle"
      },
      "nativeTokenGateway()": {
        "notice": "Native token gateway address"
      },
      "nextPoolId()": {
        "notice": "Counter of ids of the pools"
      },
      "paused()": {
        "notice": "Return `true` if contract is paused"
      },
      "proposedGovernor()": {
        "notice": "The proposed governor"
      },
      "quoter()": {
        "notice": "The Quoter contract"
      },
      "registerPool(address)": {
        "notice": "Register pool"
      },
      "swapper()": {
        "notice": "Swapper contract"
      },
      "sweep(address,address,uint256)": {
        "notice": "ERC20 recovery in case of stuck tokens due direct transfers to the contract address."
      },
      "transferGovernorship(address)": {
        "notice": "Transfers governorship of the contract to a new account (`proposedGovernor`)."
      },
      "unregisterPool(address)": {
        "notice": "Unregister pool"
      },
      "updateCrossChainDispatcher(address)": {
        "notice": "Update Cross-chain dispatcher contract"
      },
      "updateFeeCollector(address)": {
        "notice": "Update fee collector"
      },
      "updateMasterOracle(address)": {
        "notice": "Update master oracle contract"
      },
      "updateNativeTokenGateway(address)": {
        "notice": "Update native token gateway"
      },
      "updateQuoter(address)": {
        "notice": "Update Quoter contract"
      },
      "updateSwapper(address)": {
        "notice": "Update Swapper contract"
      }
    },
    "version": 1
  },
  "storageLayout": {
    "storage": [
      {
        "astId": 19514,
        "contract": "contracts/PoolRegistry.sol:PoolRegistry",
        "label": "_initialized",
        "offset": 0,
        "slot": "0",
        "type": "t_uint8"
      },
      {
        "astId": 19517,
        "contract": "contracts/PoolRegistry.sol:PoolRegistry",
        "label": "_initializing",
        "offset": 1,
        "slot": "0",
        "type": "t_bool"
      },
      {
        "astId": 33193,
        "contract": "contracts/PoolRegistry.sol:PoolRegistry",
        "label": "_status",
        "offset": 0,
        "slot": "1",
        "type": "t_uint256"
      },
      {
        "astId": 13865,
        "contract": "contracts/PoolRegistry.sol:PoolRegistry",
        "label": "governor",
        "offset": 0,
        "slot": "2",
        "type": "t_address"
      },
      {
        "astId": 13868,
        "contract": "contracts/PoolRegistry.sol:PoolRegistry",
        "label": "proposedGovernor",
        "offset": 0,
        "slot": "3",
        "type": "t_address"
      },
      {
        "astId": 32815,
        "contract": "contracts/PoolRegistry.sol:PoolRegistry",
        "label": "_paused",
        "offset": 20,
        "slot": "3",
        "type": "t_bool"
      },
      {
        "astId": 32817,
        "contract": "contracts/PoolRegistry.sol:PoolRegistry",
        "label": "_everythingStopped",
        "offset": 21,
        "slot": "3",
        "type": "t_bool"
      },
      {
        "astId": 30783,
        "contract": "contracts/PoolRegistry.sol:PoolRegistry",
        "label": "pools",
        "offset": 0,
        "slot": "4",
        "type": "t_struct(AddressSet)23523_storage"
      },
      {
        "astId": 30788,
        "contract": "contracts/PoolRegistry.sol:PoolRegistry",
        "label": "masterOracle",
        "offset": 0,
        "slot": "6",
        "type": "t_contract(IMasterOracle)28265"
      },
      {
        "astId": 30792,
        "contract": "contracts/PoolRegistry.sol:PoolRegistry",
        "label": "feeCollector",
        "offset": 0,
        "slot": "7",
        "type": "t_address"
      },
      {
        "astId": 30796,
        "contract": "contracts/PoolRegistry.sol:PoolRegistry",
        "label": "nativeTokenGateway",
        "offset": 0,
        "slot": "8",
        "type": "t_address"
      },
      {
        "astId": 30802,
        "contract": "contracts/PoolRegistry.sol:PoolRegistry",
        "label": "idOfPool",
        "offset": 0,
        "slot": "9",
        "type": "t_mapping(t_address,t_uint256)"
      },
      {
        "astId": 30806,
        "contract": "contracts/PoolRegistry.sol:PoolRegistry",
        "label": "nextPoolId",
        "offset": 0,
        "slot": "10",
        "type": "t_uint256"
      },
      {
        "astId": 30810,
        "contract": "contracts/PoolRegistry.sol:PoolRegistry",
        "label": "swapper",
        "offset": 0,
        "slot": "11",
        "type": "t_contract(ISwapper)28350"
      },
      {
        "astId": 30817,
        "contract": "contracts/PoolRegistry.sol:PoolRegistry",
        "label": "quoter",
        "offset": 0,
        "slot": "12",
        "type": "t_contract(IQuoter)27830"
      },
      {
        "astId": 30821,
        "contract": "contracts/PoolRegistry.sol:PoolRegistry",
        "label": "crossChainDispatcher",
        "offset": 0,
        "slot": "13",
        "type": "t_contract(ICrossChainDispatcher)26961"
      }
    ],
    "types": {
      "t_address": {
        "encoding": "inplace",
        "label": "address",
        "numberOfBytes": "20"
      },
      "t_array(t_bytes32)dyn_storage": {
        "base": "t_bytes32",
        "encoding": "dynamic_array",
        "label": "bytes32[]",
        "numberOfBytes": "32"
      },
      "t_bool": {
        "encoding": "inplace",
        "label": "bool",
        "numberOfBytes": "1"
      },
      "t_bytes32": {
        "encoding": "inplace",
        "label": "bytes32",
        "numberOfBytes": "32"
      },
      "t_contract(ICrossChainDispatcher)26961": {
        "encoding": "inplace",
        "label": "contract ICrossChainDispatcher",
        "numberOfBytes": "20"
      },
      "t_contract(IMasterOracle)28265": {
        "encoding": "inplace",
        "label": "contract IMasterOracle",
        "numberOfBytes": "20"
      },
      "t_contract(IQuoter)27830": {
        "encoding": "inplace",
        "label": "contract IQuoter",
        "numberOfBytes": "20"
      },
      "t_contract(ISwapper)28350": {
        "encoding": "inplace",
        "label": "contract ISwapper",
        "numberOfBytes": "20"
      },
      "t_mapping(t_address,t_uint256)": {
        "encoding": "mapping",
        "key": "t_address",
        "label": "mapping(address => uint256)",
        "numberOfBytes": "32",
        "value": "t_uint256"
      },
      "t_mapping(t_bytes32,t_uint256)": {
        "encoding": "mapping",
        "key": "t_bytes32",
        "label": "mapping(bytes32 => uint256)",
        "numberOfBytes": "32",
        "value": "t_uint256"
      },
      "t_struct(AddressSet)23523_storage": {
        "encoding": "inplace",
        "label": "struct EnumerableSet.AddressSet",
        "members": [
          {
            "astId": 23522,
            "contract": "contracts/PoolRegistry.sol:PoolRegistry",
            "label": "_inner",
            "offset": 0,
            "slot": "0",
            "type": "t_struct(Set)23222_storage"
          }
        ],
        "numberOfBytes": "64"
      },
      "t_struct(Set)23222_storage": {
        "encoding": "inplace",
        "label": "struct EnumerableSet.Set",
        "members": [
          {
            "astId": 23217,
            "contract": "contracts/PoolRegistry.sol:PoolRegistry",
            "label": "_values",
            "offset": 0,
            "slot": "0",
            "type": "t_array(t_bytes32)dyn_storage"
          },
          {
            "astId": 23221,
            "contract": "contracts/PoolRegistry.sol:PoolRegistry",
            "label": "_indexes",
            "offset": 0,
            "slot": "1",
            "type": "t_mapping(t_bytes32,t_uint256)"
          }
        ],
        "numberOfBytes": "64"
      },
      "t_uint256": {
        "encoding": "inplace",
        "label": "uint256",
        "numberOfBytes": "32"
      },
      "t_uint8": {
        "encoding": "inplace",
        "label": "uint8",
        "numberOfBytes": "1"
      }
    }
  }
}