{
  "address": "0x6394152946dc3E0bABAA474eE9d366ef31f959c0",
  "abi": [
    {
      "inputs": [],
      "name": "AddressIsNull",
      "type": "error"
    },
    {
      "inputs": [],
      "name": "AlreadyRegistered",
      "type": "error"
    },
    {
      "inputs": [],
      "name": "FallbackIsNotAllowed",
      "type": "error"
    },
    {
      "inputs": [],
      "name": "FeeCollectorIsNull",
      "type": "error"
    },
    {
      "inputs": [],
      "name": "IsNotPaused",
      "type": "error"
    },
    {
      "inputs": [],
      "name": "IsNotShutdown",
      "type": "error"
    },
    {
      "inputs": [],
      "name": "IsPaused",
      "type": "error"
    },
    {
      "inputs": [],
      "name": "IsShutdown",
      "type": "error"
    },
    {
      "inputs": [],
      "name": "NativeTokenGatewayIsNull",
      "type": "error"
    },
    {
      "inputs": [],
      "name": "NewValueIsSameAsCurrent",
      "type": "error"
    },
    {
      "inputs": [],
      "name": "OracleIsNull",
      "type": "error"
    },
    {
      "inputs": [],
      "name": "ProposedGovernorIsNull",
      "type": "error"
    },
    {
      "inputs": [],
      "name": "ReceiveIsNotAllowed",
      "type": "error"
    },
    {
      "inputs": [],
      "name": "SenderIsNotGovernor",
      "type": "error"
    },
    {
      "inputs": [],
      "name": "SenderIsNotTheProposedGovernor",
      "type": "error"
    },
    {
      "inputs": [],
      "name": "UnregisteredPool",
      "type": "error"
    },
    {
      "anonymous": false,
      "inputs": [
        {
          "indexed": true,
          "internalType": "address",
          "name": "oldFeeCollector",
          "type": "address"
        },
        {
          "indexed": true,
          "internalType": "address",
          "name": "newFeeCollector",
          "type": "address"
        }
      ],
      "name": "FeeCollectorUpdated",
      "type": "event"
    },
    {
      "anonymous": false,
      "inputs": [
        {
          "indexed": true,
          "internalType": "contract IMasterOracle",
          "name": "oldOracle",
          "type": "address"
        },
        {
          "indexed": true,
          "internalType": "contract IMasterOracle",
          "name": "newOracle",
          "type": "address"
        }
      ],
      "name": "MasterOracleUpdated",
      "type": "event"
    },
    {
      "anonymous": false,
      "inputs": [
        {
          "indexed": true,
          "internalType": "address",
          "name": "oldGateway",
          "type": "address"
        },
        {
          "indexed": true,
          "internalType": "address",
          "name": "newGateway",
          "type": "address"
        }
      ],
      "name": "NativeTokenGatewayUpdated",
      "type": "event"
    },
    {
      "anonymous": false,
      "inputs": [
        {
          "indexed": true,
          "internalType": "address",
          "name": "caller",
          "type": "address"
        }
      ],
      "name": "Open",
      "type": "event"
    },
    {
      "anonymous": false,
      "inputs": [
        {
          "indexed": true,
          "internalType": "address",
          "name": "caller",
          "type": "address"
        }
      ],
      "name": "Paused",
      "type": "event"
    },
    {
      "anonymous": false,
      "inputs": [
        {
          "indexed": true,
          "internalType": "uint256",
          "name": "id",
          "type": "uint256"
        },
        {
          "indexed": true,
          "internalType": "address",
          "name": "pool",
          "type": "address"
        }
      ],
      "name": "PoolRegistered",
      "type": "event"
    },
    {
      "anonymous": false,
      "inputs": [
        {
          "indexed": true,
          "internalType": "uint256",
          "name": "id",
          "type": "uint256"
        },
        {
          "indexed": true,
          "internalType": "address",
          "name": "pool",
          "type": "address"
        }
      ],
      "name": "PoolUnregistered",
      "type": "event"
    },
    {
      "anonymous": false,
      "inputs": [
        {
          "indexed": true,
          "internalType": "address",
          "name": "caller",
          "type": "address"
        }
      ],
      "name": "Shutdown",
      "type": "event"
    },
    {
      "anonymous": false,
      "inputs": [
        {
          "indexed": true,
          "internalType": "address",
          "name": "caller",
          "type": "address"
        }
      ],
      "name": "Unpaused",
      "type": "event"
    },
    {
      "anonymous": false,
      "inputs": [
        {
          "indexed": true,
          "internalType": "address",
          "name": "previousGovernor",
          "type": "address"
        },
        {
          "indexed": true,
          "internalType": "address",
          "name": "proposedGovernor",
          "type": "address"
        }
      ],
      "name": "UpdatedGovernor",
      "type": "event"
    },
    {
      "stateMutability": "payable",
      "type": "fallback"
    },
    {
      "inputs": [],
      "name": "VERSION",
      "outputs": [
        {
          "internalType": "string",
          "name": "",
          "type": "string"
        }
      ],
      "stateMutability": "view",
      "type": "function"
    },
    {
      "inputs": [],
      "name": "acceptGovernorship",
      "outputs": [],
      "stateMutability": "nonpayable",
      "type": "function"
    },
    {
      "inputs": [],
      "name": "everythingStopped",
      "outputs": [
        {
          "internalType": "bool",
          "name": "",
          "type": "bool"
        }
      ],
      "stateMutability": "view",
      "type": "function"
    },
    {
      "inputs": [],
      "name": "feeCollector",
      "outputs": [
        {
          "internalType": "address",
          "name": "",
          "type": "address"
        }
      ],
      "stateMutability": "view",
      "type": "function"
    },
    {
      "inputs": [],
      "name": "getPools",
      "outputs": [
        {
          "internalType": "address[]",
          "name": "",
          "type": "address[]"
        }
      ],
      "stateMutability": "view",
      "type": "function"
    },
    {
      "inputs": [],
      "name": "governor",
      "outputs": [
        {
          "internalType": "address",
          "name": "",
          "type": "address"
        }
      ],
      "stateMutability": "view",
      "type": "function"
    },
    {
      "inputs": [
        {
          "internalType": "address",
          "name": "",
          "type": "address"
        }
      ],
      "name": "idOfPool",
      "outputs": [
        {
          "internalType": "uint256",
          "name": "",
          "type": "uint256"
        }
      ],
      "stateMutability": "view",
      "type": "function"
    },
    {
      "inputs": [
        {
          "internalType": "contract IMasterOracle",
          "name": "masterOracle_",
          "type": "address"
        },
        {
          "internalType": "address",
          "name": "feeCollector_",
          "type": "address"
        }
      ],
      "name": "initialize",
      "outputs": [],
      "stateMutability": "nonpayable",
      "type": "function"
    },
    {
      "inputs": [
        {
          "internalType": "address",
          "name": "pool_",
          "type": "address"
        }
      ],
      "name": "isPoolRegistered",
      "outputs": [
        {
          "internalType": "bool",
          "name": "",
          "type": "bool"
        }
      ],
      "stateMutability": "view",
      "type": "function"
    },
    {
      "inputs": [],
      "name": "masterOracle",
      "outputs": [
        {
          "internalType": "contract IMasterOracle",
          "name": "",
          "type": "address"
        }
      ],
      "stateMutability": "view",
      "type": "function"
    },
    {
      "inputs": [],
      "name": "nativeTokenGateway",
      "outputs": [
        {
          "internalType": "address",
          "name": "",
          "type": "address"
        }
      ],
      "stateMutability": "view",
      "type": "function"
    },
    {
      "inputs": [],
      "name": "nextPoolId",
      "outputs": [
        {
          "internalType": "uint256",
          "name": "",
          "type": "uint256"
        }
      ],
      "stateMutability": "view",
      "type": "function"
    },
    {
      "inputs": [],
      "name": "open",
      "outputs": [],
      "stateMutability": "nonpayable",
      "type": "function"
    },
    {
      "inputs": [],
      "name": "pause",
      "outputs": [],
      "stateMutability": "nonpayable",
      "type": "function"
    },
    {
      "inputs": [],
      "name": "paused",
      "outputs": [
        {
          "internalType": "bool",
          "name": "",
          "type": "bool"
        }
      ],
      "stateMutability": "view",
      "type": "function"
    },
    {
      "inputs": [],
      "name": "proposedGovernor",
      "outputs": [
        {
          "internalType": "address",
          "name": "",
          "type": "address"
        }
      ],
      "stateMutability": "view",
      "type": "function"
    },
    {
      "inputs": [
        {
          "internalType": "address",
          "name": "pool_",
          "type": "address"
        }
      ],
      "name": "registerPool",
      "outputs": [],
      "stateMutability": "nonpayable",
      "type": "function"
    },
    {
      "inputs": [],
      "name": "shutdown",
      "outputs": [],
      "stateMutability": "nonpayable",
      "type": "function"
    },
    {
      "inputs": [
        {
          "internalType": "contract IERC20",
          "name": "token_",
          "type": "address"
        },
        {
          "internalType": "address",
          "name": "to_",
          "type": "address"
        },
        {
          "internalType": "uint256",
          "name": "amount_",
          "type": "uint256"
        }
      ],
      "name": "sweep",
      "outputs": [],
      "stateMutability": "nonpayable",
      "type": "function"
    },
    {
      "inputs": [
        {
          "internalType": "address",
          "name": "proposedGovernor_",
          "type": "address"
        }
      ],
      "name": "transferGovernorship",
      "outputs": [],
      "stateMutability": "nonpayable",
      "type": "function"
    },
    {
      "inputs": [],
      "name": "unpause",
      "outputs": [],
      "stateMutability": "nonpayable",
      "type": "function"
    },
    {
      "inputs": [
        {
          "internalType": "address",
          "name": "pool_",
          "type": "address"
        }
      ],
      "name": "unregisterPool",
      "outputs": [],
      "stateMutability": "nonpayable",
      "type": "function"
    },
    {
      "inputs": [
        {
          "internalType": "address",
          "name": "newFeeCollector_",
          "type": "address"
        }
      ],
      "name": "updateFeeCollector",
      "outputs": [],
      "stateMutability": "nonpayable",
      "type": "function"
    },
    {
      "inputs": [
        {
          "internalType": "contract IMasterOracle",
          "name": "newMasterOracle_",
          "type": "address"
        }
      ],
      "name": "updateMasterOracle",
      "outputs": [],
      "stateMutability": "nonpayable",
      "type": "function"
    },
    {
      "inputs": [
        {
          "internalType": "address",
          "name": "newGateway_",
          "type": "address"
        }
      ],
      "name": "updateNativeTokenGateway",
      "outputs": [],
      "stateMutability": "nonpayable",
      "type": "function"
    },
    {
      "stateMutability": "payable",
      "type": "receive"
    }
  ],
  "transactionHash": "0x07fbafc58da1def4a78717ed5004bbe09af50ad74ab2126e52580a735d85ab27",
  "args": [],
  "numDeployments": 2,
  "solcInputHash": "23d8f9f96a6eb0ccf1492c78a903110c",
  "bytecode": "0x608060405234801561001057600080fd5b50600280546001600160a01b031916339081179091556040516000907fd4459d5b8b913cab0244230fd9b1c08b6ceace7fe9230e60d0f74cbffdf849d0908290a361180d806100606000396000f3fe60806040526004361061016a5760003560e01c8063abc9b45e116100d1578063d2c35ce81161008a578063f3b27bc311610064578063f3b27bc314610467578063fc0e74d11461047c578063fcfff16f14610491578063ffa1ad74146104a657610188565b8063d2c35ce814610408578063eaada38214610428578063ecf3a3f91461044857610188565b8063abc9b45e14610348578063abd9084614610368578063ada61cc314610388578063b6aa515b146103a8578063c415b95c146103c8578063c673bdaf146103e857610188565b80635c975abb116101235780635c975abb1461028657806362c06767146102b1578063673a2a1f146102d157806374042229146102f35780638456cb59146103135780638a11a3701461032857610188565b80630c340a24146101a157806318e56131146101de578063193d7d841461020257806336074a06146102225780633f4ba83a1461024f578063485cc9551461026657610188565b3661018857604051636436c22d60e11b815260040160405180910390fd5b60405163a0152e6360e01b815260040160405180910390fd5b3480156101ad57600080fd5b506002546101c1906001600160a01b031681565b6040516001600160a01b0390911681526020015b60405180910390f35b3480156101ea57600080fd5b506101f4600a5481565b6040519081526020016101d5565b34801561020e57600080fd5b506008546101c1906001600160a01b031681565b34801561022e57600080fd5b506101f461023d366004611590565b60096020526000908152604090205481565b34801561025b57600080fd5b506102646104e4565b005b34801561027257600080fd5b506102646102813660046115ad565b61059e565b34801561029257600080fd5b50600354600160a01b900460ff165b60405190151581526020016101d5565b3480156102bd57600080fd5b506102646102cc3660046115e6565b6106a8565b3480156102dd57600080fd5b506102e66106dc565b6040516101d59190611627565b3480156102ff57600080fd5b5061026461030e366004611590565b6106ed565b34801561031f57600080fd5b506102646107d3565b34801561033457600080fd5b506003546101c1906001600160a01b031681565b34801561035457600080fd5b50610264610363366004611590565b610869565b34801561037457600080fd5b50610264610383366004611590565b61094f565b34801561039457600080fd5b506102646103a3366004611590565b610a53565b3480156103b457600080fd5b506102646103c3366004611590565b610aea565b3480156103d457600080fd5b506007546101c1906001600160a01b031681565b3480156103f457600080fd5b506102a1610403366004611590565b610b5e565b34801561041457600080fd5b50610264610423366004611590565b610b71565b34801561043457600080fd5b506006546101c1906001600160a01b031681565b34801561045457600080fd5b50600354600160a81b900460ff166102a1565b34801561047357600080fd5b50610264610c57565b34801561048857600080fd5b50610264610ce6565b34801561049d57600080fd5b50610264610d7e565b3480156104b257600080fd5b506104d7604051806040016040528060058152602001640312e312e360dc1b81525081565b6040516101d591906116a4565b600354600160a01b900460ff1661050e5760405163bc871ce560e01b815260040160405180910390fd5b600354600160a81b900460ff161561053957604051631b0e923f60e11b815260040160405180910390fd5b6002546001600160a01b0316331461056457604051634b98449160e11b815260040160405180910390fd5b6003805460ff60a01b1916905560405133907f5db9ee0a495bf2e6ff9c91a7834c1ba4fdd244a5e8aa4e537bd38aeae4b073aa90600090a2565b600054610100900460ff16806105b7575060005460ff16155b6105dc5760405162461bcd60e51b81526004016105d3906116d7565b60405180910390fd5b600054610100900460ff161580156105fe576000805461ffff19166101011790555b6001600160a01b03831661062557604051634cc5e93360e11b815260040160405180910390fd5b6001600160a01b03821661064c5760405163d7d925af60e01b815260040160405180910390fd5b610654610e0d565b61065c610e7d565b600680546001600160a01b038086166001600160a01b03199283161790925560078054928516929091169190911790556001600a5580156106a3576000805461ff00191690555b505050565b6106b0610ef0565b6001600160a01b0383166106c8576106a38282610f1d565b6106a36001600160a01b0384168383611036565b60606106e86004611088565b905090565b6002546001600160a01b0316331461071857604051634b98449160e11b815260040160405180910390fd5b6001600160a01b03811661073f57604051632b8962df60e21b815260040160405180910390fd5b6008546001600160a01b0390811690821681141561077057604051630333a68160e41b815260040160405180910390fd5b816001600160a01b0316816001600160a01b03167f981f8692d39ed552e61144c73b1f608b9f86a04d56656a1dc248cc21dfce42c360405160405180910390a350600880546001600160a01b0319166001600160a01b0392909216919091179055565b600354600160a01b900460ff16156107fe57604051631309a56360e01b815260040160405180910390fd5b6002546001600160a01b0316331461082957604051634b98449160e11b815260040160405180910390fd5b6003805460ff60a01b1916600160a01b17905560405133907f62e78cea01bee320cd4e420270b5ea74000d11b0c9f74754ebdbfc544b05a25890600090a2565b6002546001600160a01b0316331461089457604051634b98449160e11b815260040160405180910390fd5b6001600160a01b0381166108bb57604051634cc5e93360e11b815260040160405180910390fd5b6006546001600160a01b039081169082168114156108ec57604051630333a68160e41b815260040160405180910390fd5b816001600160a01b0316816001600160a01b03167fc96bca3f57d35a1057a3357bced51fac157918147faa56845639671c516ec69c60405160405180910390a350600680546001600160a01b0319166001600160a01b0392909216919091179055565b6002546001600160a01b0316331461097a57604051634b98449160e11b815260040160405180910390fd5b6001600160a01b0381166109a15760405163fb7566d760e01b815260040160405180910390fd5b6109ac60048261109c565b6109c957604051630ea075bf60e21b815260040160405180910390fd5b6001600160a01b03811660009081526009602052604090205480610a1957600a80549060006109f78361173b565b909155506001600160a01b038316600090815260096020526040902081905590505b6040516001600160a01b0383169082907f403a01572a6930b9303134960bb6e5d695084d389779d4554842553846135ffd90600090a35050565b6002546001600160a01b03163314610a7e57604051634b98449160e11b815260040160405180910390fd5b610a896004826110b1565b610aa657604051630282c45560e31b815260040160405180910390fd5b6001600160a01b03811660008181526009602052604080822054905190917ff8a85b30c450aae09b266730946d2e1c61a36e77d194bf4e50205060a816307991a350565b6002546001600160a01b03163314610b1557604051634b98449160e11b815260040160405180910390fd5b6001600160a01b038116610b3c57604051634c267bfb60e01b815260040160405180910390fd5b600380546001600160a01b0319166001600160a01b0392909216919091179055565b6000610b6b6004836110c6565b92915050565b6002546001600160a01b03163314610b9c57604051634b98449160e11b815260040160405180910390fd5b6001600160a01b038116610bc35760405163d7d925af60e01b815260040160405180910390fd5b6007546001600160a01b03908116908216811415610bf457604051630333a68160e41b815260040160405180910390fd5b816001600160a01b0316816001600160a01b03167f5d16ad41baeb009cd23eb8f6c7cde5c2e0cd5acf4a33926ab488875c37c37f3860405160405180910390a350600780546001600160a01b0319166001600160a01b0392909216919091179055565b6003546001600160a01b0316338114610c835760405163038cdbad60e31b815260040160405180910390fd5b6002546040516001600160a01b038084169216907fd4459d5b8b913cab0244230fd9b1c08b6ceace7fe9230e60d0f74cbffdf849d090600090a3600280546001600160a01b039092166001600160a01b0319928316179055600380549091169055565b600354600160a81b900460ff1615610d1157604051631b0e923f60e11b815260040160405180910390fd5b6002546001600160a01b03163314610d3c57604051634b98449160e11b815260040160405180910390fd5b6003805461ffff60a01b191661010160a01b17905560405133907f28b4c24cb1012c094cd2f59f98e89d791973295f8fda6eaa118022d6d318960a90600090a2565b600354600160a81b900460ff16610da857604051636e2cff4560e01b815260040160405180910390fd5b6002546001600160a01b03163314610dd357604051634b98449160e11b815260040160405180910390fd5b6003805460ff60a81b1916905560405133907fece7583a70a505ef0e36d4dec768f5ae597713e09c26011022599ee01abdabfc90600090a2565b600054610100900460ff1680610e26575060005460ff16155b610e425760405162461bcd60e51b81526004016105d3906116d7565b600054610100900460ff16158015610e64576000805461ffff19166101011790555b600180558015610e7a576000805461ff00191690555b50565b600054610100900460ff1680610e96575060005460ff16155b610eb25760405162461bcd60e51b81526004016105d3906116d7565b600054610100900460ff16158015610ed4576000805461ffff19166101011790555b610edc6110e8565b8015610e7a576000805461ff001916905550565b6002546001600160a01b03163314610f1b57604051634b98449160e11b815260040160405180910390fd5b565b80471015610f6d5760405162461bcd60e51b815260206004820152601d60248201527f416464726573733a20696e73756666696369656e742062616c616e636500000060448201526064016105d3565b6000826001600160a01b03168260405160006040518083038185875af1925050503d8060008114610fba576040519150601f19603f3d011682016040523d82523d6000602084013e610fbf565b606091505b50509050806106a35760405162461bcd60e51b815260206004820152603a60248201527f416464726573733a20756e61626c6520746f2073656e642076616c75652c207260448201527f6563697069656e74206d6179206861766520726576657274656400000000000060648201526084016105d3565b604080516001600160a01b038416602482015260448082018490528251808303909101815260649091019091526020810180516001600160e01b031663a9059cbb60e01b1790526106a3908490611193565b6060600061109583611265565b9392505050565b6000611095836001600160a01b0384166112c1565b6000611095836001600160a01b038416611310565b6001600160a01b03811660009081526001830160205260408120541515611095565b600054610100900460ff1680611101575060005460ff16155b61111d5760405162461bcd60e51b81526004016105d3906116d7565b600054610100900460ff1615801561113f576000805461ffff19166101011790555b600280546001600160a01b031916339081179091556040516000907fd4459d5b8b913cab0244230fd9b1c08b6ceace7fe9230e60d0f74cbffdf849d0908290a38015610e7a576000805461ff001916905550565b60006111e8826040518060400160405280602081526020017f5361666545524332303a206c6f772d6c6576656c2063616c6c206661696c6564815250856001600160a01b03166114039092919063ffffffff16565b8051909150156106a357808060200190518101906112069190611756565b6106a35760405162461bcd60e51b815260206004820152602a60248201527f5361666545524332303a204552433230206f7065726174696f6e20646964206e6044820152691bdd081cdd58d8d9595960b21b60648201526084016105d3565b6060816000018054806020026020016040519081016040528092919081815260200182805480156112b557602002820191906000526020600020905b8154815260200190600101908083116112a1575b50505050509050919050565b600081815260018301602052604081205461130857508154600181810184556000848152602080822090930184905584548482528286019093526040902091909155610b6b565b506000610b6b565b600081815260018301602052604081205480156113f9576000611334600183611778565b855490915060009061134890600190611778565b90508181146113ad5760008660000182815481106113685761136861178f565b906000526020600020015490508087600001848154811061138b5761138b61178f565b6000918252602080832090910192909255918252600188019052604090208390555b85548690806113be576113be6117a5565b600190038181906000526020600020016000905590558560010160008681526020019081526020016000206000905560019350505050610b6b565b6000915050610b6b565b6060611412848460008561141a565b949350505050565b60608247101561147b5760405162461bcd60e51b815260206004820152602660248201527f416464726573733a20696e73756666696369656e742062616c616e636520666f6044820152651c8818d85b1b60d21b60648201526084016105d3565b843b6114c95760405162461bcd60e51b815260206004820152601d60248201527f416464726573733a2063616c6c20746f206e6f6e2d636f6e747261637400000060448201526064016105d3565b600080866001600160a01b031685876040516114e591906117bb565b60006040518083038185875af1925050503d8060008114611522576040519150601f19603f3d011682016040523d82523d6000602084013e611527565b606091505b5091509150611537828286611542565b979650505050505050565b60608315611551575081611095565b8251156115615782518084602001fd5b8160405162461bcd60e51b81526004016105d391906116a4565b6001600160a01b0381168114610e7a57600080fd5b6000602082840312156115a257600080fd5b81356110958161157b565b600080604083850312156115c057600080fd5b82356115cb8161157b565b915060208301356115db8161157b565b809150509250929050565b6000806000606084860312156115fb57600080fd5b83356116068161157b565b925060208401356116168161157b565b929592945050506040919091013590565b6020808252825182820181905260009190848201906040850190845b818110156116685783516001600160a01b031683529284019291840191600101611643565b50909695505050505050565b60005b8381101561168f578181015183820152602001611677565b8381111561169e576000848401525b50505050565b60208152600082518060208401526116c3816040850160208701611674565b601f01601f19169190910160400192915050565b6020808252602e908201527f496e697469616c697a61626c653a20636f6e747261637420697320616c72656160408201526d191e481a5b9a5d1a585b1a5e995960921b606082015260800190565b634e487b7160e01b600052601160045260246000fd5b600060001982141561174f5761174f611725565b5060010190565b60006020828403121561176857600080fd5b8151801515811461109557600080fd5b60008282101561178a5761178a611725565b500390565b634e487b7160e01b600052603260045260246000fd5b634e487b7160e01b600052603160045260246000fd5b600082516117cd818460208701611674565b919091019291505056fea264697066735822122069c57f2dbcc8ad9f242746f3d1f86cea383a23590e70248f6183a8c1ea22b7c564736f6c63430008090033",
  "devdoc": {
    "kind": "dev",
    "methods": {
      "getPools()": {
        "details": "WARNING: This operation will copy the entire storage to memory, which can be quite expensive. This is designed to mostly be used by view accessors that are queried without any gas fees."
      },
      "isPoolRegistered(address)": {
        "params": {
          "pool_": "Pool to check"
        },
        "returns": {
          "_0": "true if exists"
        }
      },
      "open()": {
        "details": "Open contract operations, if contract is in shutdown state"
      },
      "pause()": {
        "details": "Suspend deposit feature, if contract is not paused."
      },
      "shutdown()": {
        "details": "Suspend all features (issue, repay, deposit, withdraw, liquidate and swap), if not already shutdown."
      },
      "sweep(address,address,uint256)": {
        "params": {
          "amount_": "The amount to send",
          "to_": "The recipient of the transfer",
          "token_": "The token to transfer"
        }
      },
      "transferGovernorship(address)": {
        "details": "Can only be called by the current owner.",
        "params": {
          "proposedGovernor_": "The new proposed governor"
        }
      },
      "unpause()": {
        "details": "Unpause contract operations, allow only if contract is paused and not shutdown."
      }
    },
    "title": "PoolRegistry contract",
    "version": 1
  },
  "userdoc": {
    "events": {
      "FeeCollectorUpdated(address,address)": {
        "notice": "Emitted when fee collector is updated"
      },
      "MasterOracleUpdated(address,address)": {
        "notice": "Emitted when master oracle contract is updated"
      },
      "NativeTokenGatewayUpdated(address,address)": {
        "notice": "Emitted when native token gateway is updated"
      },
      "Open(address)": {
        "notice": "Emitted when contract is turned on"
      },
      "Paused(address)": {
        "notice": "Emitted when contract is paused"
      },
      "PoolRegistered(uint256,address)": {
        "notice": "Emitted when a pool is registered"
      },
      "PoolUnregistered(uint256,address)": {
        "notice": "Emitted when a pool is unregistered"
      },
      "Shutdown(address)": {
        "notice": "Emitted when contract is shuted down"
      },
      "Unpaused(address)": {
        "notice": "Emitted when contract is unpaused"
      }
    },
    "kind": "user",
    "methods": {
      "acceptGovernorship()": {
        "notice": "Allows new governor to accept governorship of the contract."
      },
      "everythingStopped()": {
        "notice": "Return `true` if contract is shutdown"
      },
      "feeCollector()": {
        "notice": "Fee collector address"
      },
      "getPools()": {
        "notice": "Get all pools"
      },
      "governor()": {
        "notice": "The governor"
      },
      "idOfPool(address)": {
        "notice": "Map of the ids of the pools"
      },
      "isPoolRegistered(address)": {
        "notice": "Check if pool is registered"
      },
      "masterOracle()": {
        "notice": "Prices' oracle"
      },
      "nativeTokenGateway()": {
        "notice": "Native token gateway address"
      },
      "nextPoolId()": {
        "notice": "Counter of ids of the pools"
      },
      "paused()": {
        "notice": "Return `true` if contract is paused"
      },
      "proposedGovernor()": {
        "notice": "The proposed governor"
      },
      "registerPool(address)": {
        "notice": "Register pool"
      },
      "sweep(address,address,uint256)": {
        "notice": "ERC20 recovery in case of stuck tokens due direct transfers to the contract address."
      },
      "transferGovernorship(address)": {
        "notice": "Transfers governorship of the contract to a new account (`proposedGovernor`)."
      },
      "unregisterPool(address)": {
        "notice": "Unregister pool"
      },
      "updateFeeCollector(address)": {
        "notice": "Update fee collector"
      },
      "updateMasterOracle(address)": {
        "notice": "Update master oracle contract"
      },
      "updateNativeTokenGateway(address)": {
        "notice": "Update native token gateway"
      }
    },
    "version": 1
  },
  "storageLayout": {
    "storage": [
      {
        "astId": 9846,
        "contract": "contracts/PoolRegistry.sol:PoolRegistry",
        "label": "_initialized",
        "offset": 0,
        "slot": "0",
        "type": "t_bool"
      },
      {
        "astId": 9849,
        "contract": "contracts/PoolRegistry.sol:PoolRegistry",
        "label": "_initializing",
        "offset": 1,
        "slot": "0",
        "type": "t_bool"
      },
      {
        "astId": 9900,
        "contract": "contracts/PoolRegistry.sol:PoolRegistry",
        "label": "_status",
        "offset": 0,
        "slot": "1",
        "type": "t_uint256"
      },
      {
        "astId": 8719,
        "contract": "contracts/PoolRegistry.sol:PoolRegistry",
        "label": "governor",
        "offset": 0,
        "slot": "2",
        "type": "t_address"
      },
      {
        "astId": 8722,
        "contract": "contracts/PoolRegistry.sol:PoolRegistry",
        "label": "proposedGovernor",
        "offset": 0,
        "slot": "3",
        "type": "t_address"
      },
      {
        "astId": 16623,
        "contract": "contracts/PoolRegistry.sol:PoolRegistry",
        "label": "_paused",
        "offset": 20,
        "slot": "3",
        "type": "t_bool"
      },
      {
        "astId": 16625,
        "contract": "contracts/PoolRegistry.sol:PoolRegistry",
        "label": "_everythingStopped",
        "offset": 21,
        "slot": "3",
        "type": "t_bool"
      },
      {
        "astId": 15304,
        "contract": "contracts/PoolRegistry.sol:PoolRegistry",
        "label": "pools",
        "offset": 0,
        "slot": "4",
        "type": "t_struct(AddressSet)11976_storage"
      },
      {
        "astId": 15309,
        "contract": "contracts/PoolRegistry.sol:PoolRegistry",
        "label": "masterOracle",
        "offset": 0,
        "slot": "6",
        "type": "t_contract(IMasterOracle)13342"
      },
      {
        "astId": 15313,
        "contract": "contracts/PoolRegistry.sol:PoolRegistry",
        "label": "feeCollector",
        "offset": 0,
        "slot": "7",
        "type": "t_address"
      },
      {
        "astId": 15317,
        "contract": "contracts/PoolRegistry.sol:PoolRegistry",
        "label": "nativeTokenGateway",
        "offset": 0,
        "slot": "8",
        "type": "t_address"
      },
      {
        "astId": 15323,
        "contract": "contracts/PoolRegistry.sol:PoolRegistry",
        "label": "idOfPool",
        "offset": 0,
        "slot": "9",
        "type": "t_mapping(t_address,t_uint256)"
      },
      {
        "astId": 15327,
        "contract": "contracts/PoolRegistry.sol:PoolRegistry",
        "label": "nextPoolId",
        "offset": 0,
        "slot": "10",
        "type": "t_uint256"
      }
    ],
    "types": {
      "t_address": {
        "encoding": "inplace",
        "label": "address",
        "numberOfBytes": "20"
      },
      "t_array(t_bytes32)dyn_storage": {
        "base": "t_bytes32",
        "encoding": "dynamic_array",
        "label": "bytes32[]",
        "numberOfBytes": "32"
      },
      "t_bool": {
        "encoding": "inplace",
        "label": "bool",
        "numberOfBytes": "1"
      },
      "t_bytes32": {
        "encoding": "inplace",
        "label": "bytes32",
        "numberOfBytes": "32"
      },
      "t_contract(IMasterOracle)13342": {
        "encoding": "inplace",
        "label": "contract IMasterOracle",
        "numberOfBytes": "20"
      },
      "t_mapping(t_address,t_uint256)": {
        "encoding": "mapping",
        "key": "t_address",
        "label": "mapping(address => uint256)",
        "numberOfBytes": "32",
        "value": "t_uint256"
      },
      "t_mapping(t_bytes32,t_uint256)": {
        "encoding": "mapping",
        "key": "t_bytes32",
        "label": "mapping(bytes32 => uint256)",
        "numberOfBytes": "32",
        "value": "t_uint256"
      },
      "t_struct(AddressSet)11976_storage": {
        "encoding": "inplace",
        "label": "struct EnumerableSet.AddressSet",
        "members": [
          {
            "astId": 11975,
            "contract": "contracts/PoolRegistry.sol:PoolRegistry",
            "label": "_inner",
            "offset": 0,
            "slot": "0",
            "type": "t_struct(Set)11675_storage"
          }
        ],
        "numberOfBytes": "64"
      },
      "t_struct(Set)11675_storage": {
        "encoding": "inplace",
        "label": "struct EnumerableSet.Set",
        "members": [
          {
            "astId": 11670,
            "contract": "contracts/PoolRegistry.sol:PoolRegistry",
            "label": "_values",
            "offset": 0,
            "slot": "0",
            "type": "t_array(t_bytes32)dyn_storage"
          },
          {
            "astId": 11674,
            "contract": "contracts/PoolRegistry.sol:PoolRegistry",
            "label": "_indexes",
            "offset": 0,
            "slot": "1",
            "type": "t_mapping(t_bytes32,t_uint256)"
          }
        ],
        "numberOfBytes": "64"
      },
      "t_uint256": {
        "encoding": "inplace",
        "label": "uint256",
        "numberOfBytes": "32"
      }
    }
  }
}