{
  "address": "0x2A00Cf0e99DE1198736EF5B9650873216005650d",
  "abi": [
    {
      "inputs": [],
      "stateMutability": "nonpayable",
      "type": "constructor"
    },
    {
      "inputs": [],
      "name": "AddressIsNull",
      "type": "error"
    },
    {
      "anonymous": false,
      "inputs": [
        {
          "indexed": false,
          "internalType": "uint8",
          "name": "version",
          "type": "uint8"
        }
      ],
      "name": "Initialized",
      "type": "event"
    },
    {
      "inputs": [],
      "name": "LZ_ADAPTER_PARAMS_VERSION",
      "outputs": [
        {
          "internalType": "uint16",
          "name": "",
          "type": "uint16"
        }
      ],
      "stateMutability": "view",
      "type": "function"
    },
    {
      "inputs": [],
      "name": "PT_SEND_AND_CALL",
      "outputs": [
        {
          "internalType": "uint16",
          "name": "",
          "type": "uint16"
        }
      ],
      "stateMutability": "view",
      "type": "function"
    },
    {
      "inputs": [],
      "name": "SG_TYPE_SWAP_REMOTE",
      "outputs": [
        {
          "internalType": "uint8",
          "name": "",
          "type": "uint8"
        }
      ],
      "stateMutability": "view",
      "type": "function"
    },
    {
      "inputs": [],
      "name": "VERSION",
      "outputs": [
        {
          "internalType": "string",
          "name": "",
          "type": "string"
        }
      ],
      "stateMutability": "view",
      "type": "function"
    },
    {
      "inputs": [
        {
          "internalType": "uint16",
          "name": "srcChainId_",
          "type": "uint16"
        },
        {
          "internalType": "uint16",
          "name": "dstChainId_",
          "type": "uint16"
        }
      ],
      "name": "getFlashRepaySwapAndCallbackLzArgs",
      "outputs": [
        {
          "internalType": "bytes",
          "name": "_lzArgs",
          "type": "bytes"
        }
      ],
      "stateMutability": "view",
      "type": "function"
    },
    {
      "inputs": [
        {
          "internalType": "uint16",
          "name": "srcChainId_",
          "type": "uint16"
        },
        {
          "internalType": "uint16",
          "name": "dstChainId_",
          "type": "uint16"
        }
      ],
      "name": "getLeverageSwapAndCallbackLzArgs",
      "outputs": [
        {
          "internalType": "bytes",
          "name": "_lzArgs",
          "type": "bytes"
        }
      ],
      "stateMutability": "view",
      "type": "function"
    },
    {
      "inputs": [
        {
          "internalType": "contract IPoolRegistry",
          "name": "poolRegistry_",
          "type": "address"
        }
      ],
      "name": "initialize",
      "outputs": [],
      "stateMutability": "nonpayable",
      "type": "function"
    },
    {
      "inputs": [],
      "name": "poolRegistry",
      "outputs": [
        {
          "internalType": "contract IPoolRegistry",
          "name": "",
          "type": "address"
        }
      ],
      "stateMutability": "view",
      "type": "function"
    },
    {
      "inputs": [
        {
          "internalType": "contract IProxyOFT",
          "name": "proxyOFT_",
          "type": "address"
        },
        {
          "internalType": "bytes",
          "name": "lzArgs_",
          "type": "bytes"
        }
      ],
      "name": "quoteCrossChainFlashRepayNativeFee",
      "outputs": [
        {
          "internalType": "uint256",
          "name": "_nativeFee",
          "type": "uint256"
        }
      ],
      "stateMutability": "view",
      "type": "function"
    },
    {
      "inputs": [
        {
          "internalType": "contract IProxyOFT",
          "name": "proxyOFT_",
          "type": "address"
        },
        {
          "internalType": "bytes",
          "name": "lzArgs_",
          "type": "bytes"
        }
      ],
      "name": "quoteCrossChainLeverageNativeFee",
      "outputs": [
        {
          "internalType": "uint256",
          "name": "_nativeFee",
          "type": "uint256"
        }
      ],
      "stateMutability": "view",
      "type": "function"
    },
    {
      "inputs": [
        {
          "internalType": "uint16",
          "name": "srcChainId_",
          "type": "uint16"
        }
      ],
      "name": "quoteFlashRepayCallbackNativeFee",
      "outputs": [
        {
          "internalType": "uint256",
          "name": "_callbackTxNativeFee",
          "type": "uint256"
        }
      ],
      "stateMutability": "view",
      "type": "function"
    },
    {
      "inputs": [
        {
          "internalType": "uint16",
          "name": "srcChainId_",
          "type": "uint16"
        }
      ],
      "name": "quoteLeverageCallbackNativeFee",
      "outputs": [
        {
          "internalType": "uint256",
          "name": "_callbackTxNativeFee",
          "type": "uint256"
        }
      ],
      "stateMutability": "view",
      "type": "function"
    }
  ],
  "transactionHash": "0x1d735386075ffd64c26aea352c91d6b285ac9a10e05dfa89451ef9955016c2a5",
  "args": [],
  "numDeployments": 1,
  "solcInputHash": "545cb6254fd08cfae8ffa56eab2faa67",
  "bytecode": "0x60806040523480156200001157600080fd5b506200001c62000022565b62000152565b6200002e60ff62000031565b50565b60008054610100900460ff1615620000ca578160ff1660011480156200006a575062000068306200014360201b62000da31760201c565b155b620000c25760405162461bcd60e51b815260206004820152602e60248201526000805160206200172f83398151915260448201526d191e481a5b9a5d1a585b1a5e995960921b60648201526084015b60405180910390fd5b506000919050565b60005460ff808416911610620001295760405162461bcd60e51b815260206004820152602e60248201526000805160206200172f83398151915260448201526d191e481a5b9a5d1a585b1a5e995960921b6064820152608401620000b9565b506000805460ff191660ff92909216919091179055600190565b6001600160a01b03163b151590565b6115cd80620001626000396000f3fe608060405234801561001057600080fd5b50600436106100b45760003560e01c8063cca8e39a11610071578063cca8e39a14610176578063d81e47d314610189578063e6a20ae61461019c578063e762fc3c146101b7578063eb9f7f18146101ca578063ffa1ad74146101d257600080fd5b806348dab843146100b95780634fbedeac146100e25780639a47014a14610103578063ab39c79414610116578063afcff50f14610130578063c4d66de814610161575b600080fd5b6100cc6100c73660046110cd565b6101f6565b6040516100d99190611153565b60405180910390f35b6100f56100f036600461117b565b610289565b6040519081526020016100d9565b6100cc6101113660046110cd565b6104c2565b61011e600181565b60405160ff90911681526020016100d9565b600054610149906201000090046001600160a01b031681565b6040516001600160a01b0390911681526020016100d9565b61017461016f366004611200565b610511565b005b6100f561018436600461121d565b6105c8565b6100f561019736600461121d565b61095d565b6101a4600181565b60405161ffff90911681526020016100d9565b6100f56101c536600461117b565b610b42565b6101a4600281565b6100cc604051806040016040528060058152602001640312e332e360dc1b81525081565b606061028282610205856105c8565b61020d610db2565b6001600160a01b031663e7f4c16b6040518163ffffffff1660e01b815260040160206040518083038186803b15801561024557600080fd5b505afa158015610259573d6000803e3d6000fd5b505050506040513d601f19601f8201168201806040525081019061027d9190611252565b610e3e565b9392505050565b6000806000806102ce86868080601f016020809104026020016040519081016040528093929190818152602001838380828437600092019190915250610e8392505050565b6040516001627dd58f60e11b0319815261ffff8416600482015292955090935091506000906001600160a01b0389169063ff0454e29060240160206040518083038186803b15801561031f57600080fd5b505afa158015610333573d6000803e3d6000fd5b505050506040513d601f19601f82011682018060405250810190610357919061126d565b604051602001610367919061128a565b6040516020818303038152906040529050610380610db2565b6001600160a01b0316633352b6086040518163ffffffff1660e01b815260040160206040518083038186803b1580156103b857600080fd5b505afa1580156103cc573d6000803e3d6000fd5b505050506040513d601f19601f820116820180604052508101906103f0919061126d565b6001600160a01b0316630a512369856001846104216001600160a01b03806000196001600160a01b03600019610ea9565b60405180606001604052808967ffffffffffffffff1681526020018a8152602001888152506040518663ffffffff1660e01b81526004016104669594939291906112a7565b604080518083038186803b15801561047d57600080fd5b505afa158015610491573d6000803e3d6000fd5b505050506040513d601f19601f820116820180604052508101906104b5919061131d565b5098975050505050505050565b6060610282826104d18561095d565b6104d9610db2565b6001600160a01b031663e3d47ece6040518163ffffffff1660e01b815260040160206040518083038186803b15801561024557600080fd5b600061051d6001610f18565b90508015610535576000805461ff0019166101001790555b6001600160a01b03821661055c5760405163fb7566d760e01b815260040160405180910390fd5b6000805462010000600160b01b031916620100006001600160a01b0385160217905580156105c4576000805461ff0019169055604051600181527f7f26b83ff96e1f2b6a682f133852f6798a09c465da95921460cefb38474024989060200160405180910390a15b5050565b6000806105d3610db2565b90506000816001600160a01b03166362491b356040518163ffffffff1660e01b815260040160206040518083038186803b15801561061057600080fd5b505afa158015610624573d6000803e3d6000fd5b505050506040513d601f19601f820116820180604052508101906106489190611252565b9050600060013360405160200161065f919061128a565b6040516020818303038152906040526001600160a01b03604051602001610686919061128a565b6040516020818303038152906040526000196106ac6001600160a01b0380600019610fae565b866040516020016106c296959493929190611341565b6040516020818303038152906040529050826001600160a01b0316633352b6086040518163ffffffff1660e01b815260040160206040518083038186803b15801561070c57600080fd5b505afa158015610720573d6000803e3d6000fd5b505050506040513d601f19601f82011682018060405250810190610744919061126d565b6001600160a01b031663e0b63dee6040518163ffffffff1660e01b815260040160206040518083038186803b15801561077c57600080fd5b505afa158015610790573d6000803e3d6000fd5b505050506040513d601f19601f820116820180604052508101906107b4919061126d565b6001600160a01b03166307968db16040518163ffffffff1660e01b815260040160206040518083038186803b1580156107ec57600080fd5b505afa158015610800573d6000803e3d6000fd5b505050506040513d601f19601f82011682018060405250810190610824919061126d565b6001600160a01b03166340a7bb10863084600060028867ffffffffffffffff168a6001600160a01b0316636c77d24f6040518163ffffffff1660e01b815260040160206040518083038186803b15801561087d57600080fd5b505afa158015610891573d6000803e3d6000fd5b505050506040513d601f19601f820116820180604052508101906108b591906113a8565b6108bf91906113c1565b6000806040516020016108d594939291906113e7565b6040516020818303038152906040526040518663ffffffff1660e01b8152600401610904959493929190611423565b604080518083038186803b15801561091b57600080fd5b505afa15801561092f573d6000803e3d6000fd5b505050506040513d601f19601f82011682018060405250810190610953919061131d565b5095945050505050565b600080610968610db2565b9050806001600160a01b0316633352b6086040518163ffffffff1660e01b815260040160206040518083038186803b1580156109a357600080fd5b505afa1580156109b7573d6000803e3d6000fd5b505050506040513d601f19601f820116820180604052508101906109db919061126d565b6001600160a01b0316630a5123698460016001600160a01b03604051602001610a04919061128a565b604051602081830303815290604052610a266001600160a01b03600019610ff1565b6040518060600160405280886001600160a01b0316630b211f0f6040518163ffffffff1660e01b815260040160206040518083038186803b158015610a6a57600080fd5b505afa158015610a7e573d6000803e3d6000fd5b505050506040513d601f19601f82011682018060405250810190610aa29190611252565b67ffffffffffffffff16815260200160008152602001604051806020016040528060008152508152506040518663ffffffff1660e01b8152600401610aeb9594939291906112a7565b604080518083038186803b158015610b0257600080fd5b505afa158015610b16573d6000803e3d6000fd5b505050506040513d601f19601f82011682018060405250810190610b3a919061131d565b509392505050565b60008060006060806000610b6c6001600160a01b0380600019806001600160a01b03600019611042565b92506000610baf89898080601f016020809104026020016040519081016040528093929190818152602001838380828437600092019190915250610e8392505050565b6040516001627dd58f60e11b0319815261ffff84166004820152929850935091506001600160a01b038b169063ff0454e29060240160206040518083038186803b158015610bfc57600080fd5b505afa158015610c10573d6000803e3d6000fd5b505050506040513d601f19601f82011682018060405250810190610c34919061126d565b945060028267ffffffffffffffff16610c4b610db2565b6001600160a01b0316636c77d24f6040518163ffffffff1660e01b815260040160206040518083038186803b158015610c8357600080fd5b505afa158015610c97573d6000803e3d6000fd5b505050506040513d601f19601f82011682018060405250810190610cbb91906113a8565b610cc591906113c1565b8287604051602001610cda94939291906113e7565b604051602081830303815290604052925050886001600160a01b031663c8598dca8686604051602001610d0d919061128a565b60405160208183030381529060405260001987866000896040518863ffffffff1660e01b8152600401610d469796959493929190611477565b604080518083038186803b158015610d5d57600080fd5b505afa158015610d71573d6000803e3d6000fd5b505050506040513d601f19601f82011682018060405250810190610d95919061131d565b509998505050505050505050565b6001600160a01b03163b151590565b60008060029054906101000a90046001600160a01b03166001600160a01b03166332c615b46040518163ffffffff1660e01b815260040160206040518083038186803b158015610e0157600080fd5b505afa158015610e15573d6000803e3d6000fd5b505050506040513d601f19601f82011682018060405250810190610e39919061126d565b905090565b6040805161ffff8516602082015290810183905267ffffffffffffffff8216606082810191909152906080015b60405160208183030381529060405290509392505050565b600080600083806020019051810190610e9c91906114e6565b9250925092509193909250565b604080516001600160a01b038781166020830152868116828401526060808301879052908516608083015260a08083018590528351808403909101815260c0830190935291610efe916002919060e001611525565b604051602081830303815290604052905095945050505050565b60008054610100900460ff1615610f68578160ff166001148015610f3b5750303b155b610f605760405162461bcd60e51b8152600401610f5790611549565b60405180910390fd5b506000919050565b60005460ff808416911610610f8f5760405162461bcd60e51b8152600401610f5790611549565b506000805460ff191660ff92909216919091179055600190565b919050565b604080516001600160a01b03858116602083015284168183015260608082018490528251808303820181526080830190935291610e6b916002919060a001611525565b604080516001600160a01b0384166020820152808201839052815180820383018152606080830190935261102b9160019190608001611525565b604051602081830303815290604052905092915050565b604080516001600160a01b0388811660208301528781168284015260608083018890526080830187905290851660a083015260c08083018590528351808403909101815260e083019093529161109f916001919061010001611525565b60405160208183030381529060405290509695505050505050565b61ffff811681146110ca57600080fd5b50565b600080604083850312156110e057600080fd5b82356110eb816110ba565b915060208301356110fb816110ba565b809150509250929050565b6000815180845260005b8181101561112c57602081850181015186830182015201611110565b8181111561113e576000602083870101525b50601f01601f19169290920160200192915050565b6020815260006102826020830184611106565b6001600160a01b03811681146110ca57600080fd5b60008060006040848603121561119057600080fd5b833561119b81611166565b9250602084013567ffffffffffffffff808211156111b857600080fd5b818601915086601f8301126111cc57600080fd5b8135818111156111db57600080fd5b8760208285010111156111ed57600080fd5b6020830194508093505050509250925092565b60006020828403121561121257600080fd5b813561028281611166565b60006020828403121561122f57600080fd5b8135610282816110ba565b805167ffffffffffffffff81168114610fa957600080fd5b60006020828403121561126457600080fd5b6102828261123a565b60006020828403121561127f57600080fd5b815161028281611166565b60609190911b6bffffffffffffffffffffffff1916815260140190565b61ffff8616815260ff8516602082015260a0604082015260006112cd60a0830186611106565b82810360608401526112df8186611106565b9050828103608084015283518152602084015160208201526040840151606060408301526113106060830182611106565b9998505050505050505050565b6000806040838503121561133057600080fd5b505080516020909101519092909150565b61ffff8716815260c06020820152600061135e60c0830188611106565b82810360408401526113708188611106565b9050856060840152828103608084015261138a8186611106565b91505067ffffffffffffffff831660a0830152979650505050505050565b6000602082840312156113ba57600080fd5b5051919050565b600082198211156113e257634e487b7160e01b600052601160045260246000fd5b500190565b60f09490941b6001600160f01b03191684526002840192909252602283015260601b6bffffffffffffffffffffffff1916604282015260560190565b61ffff861681526001600160a01b038516602082015260a06040820181905260009061145190830186611106565b8415156060840152828103608084015261146b8185611106565b98975050505050505050565b61ffff8816815260e06020820152600061149460e0830189611106565b87604084015282810360608401526114ac8188611106565b905067ffffffffffffffff8616608084015284151560a084015282810360c08401526114d88185611106565b9a9950505050505050505050565b6000806000606084860312156114fb57600080fd5b8351611506816110ba565b6020850151909350915061151c6040850161123a565b90509250925092565b60ff831681526040602082015260006115416040830184611106565b949350505050565b6020808252602e908201527f496e697469616c697a61626c653a20636f6e747261637420697320616c72656160408201526d191e481a5b9a5d1a585b1a5e995960921b60608201526080019056fea2646970667358221220bfbe23d7d6510714e067876ac59d002a9a7554bd8ccb9727b4f7ceae77304da064736f6c63430008090033496e697469616c697a61626c653a20636f6e747261637420697320616c726561",
  "devdoc": {
    "kind": "dev",
    "methods": {
      "getFlashRepaySwapAndCallbackLzArgs(uint16,uint16)": {
        "details": "Must be called on the chain where the swap will be executed (a.k.a. destination chain)",
        "params": {
          "dstChainId_": "Destination chain's LZ id (i.e. chain used for swap)",
          "srcChainId_": "Source chain's LZ id (i.e. user-facing chain)"
        }
      },
      "getLeverageSwapAndCallbackLzArgs(uint16,uint16)": {
        "details": "Must be called on the chain where the swap will be executed (a.k.a. destination chain)",
        "params": {
          "dstChainId_": "Destination chain's LZ id (i.e. chain used for swap)",
          "srcChainId_": "Source chain's LZ id (i.e. user-facing chain)"
        }
      },
      "quoteCrossChainFlashRepayNativeFee(address,bytes)": {
        "params": {
          "lzArgs_": "The LZ args for swap transaction (See: `getFlashRepaySwapAndCallbackLzArgs()`)",
          "proxyOFT_": "The synthetic token's Proxy OFT contract"
        },
        "returns": {
          "_nativeFee": "The fee in native coin"
        }
      },
      "quoteCrossChainLeverageNativeFee(address,bytes)": {
        "params": {
          "lzArgs_": "The LZ args for swap transaction (See: `getLeverageSwapAndCallbackLzArgs()`)",
          "proxyOFT_": "The synthetic token's Proxy OFT contract"
        },
        "returns": {
          "_nativeFee": "The fee in native coin"
        }
      },
      "quoteFlashRepayCallbackNativeFee(uint16)": {
        "params": {
          "srcChainId_": "Source chain's LZ id (i.e. user-facing chain)"
        },
        "returns": {
          "_callbackTxNativeFee": "The fee in native coin"
        }
      },
      "quoteLeverageCallbackNativeFee(uint16)": {
        "params": {
          "srcChainId_": "Source chain's LZ id (i.e. user-facing chain)"
        },
        "returns": {
          "_callbackTxNativeFee": "The fee in native coin"
        }
      }
    },
    "stateVariables": {
      "LZ_ADAPTER_PARAMS_VERSION": {
        "details": "LayerZero adapter param version See more: https://layerzero.gitbook.io/docs/evm-guides/advanced/relayer-adapter-parameters"
      },
      "PT_SEND_AND_CALL": {
        "details": "OFT packet type"
      },
      "SG_TYPE_SWAP_REMOTE": {
        "details": "Stargate swap function type See more: https://stargateprotocol.gitbook.io/stargate/developers/function-types"
      }
    },
    "title": "Quoter contract",
    "version": 1
  },
  "userdoc": {
    "kind": "user",
    "methods": {
      "getFlashRepaySwapAndCallbackLzArgs(uint16,uint16)": {
        "notice": "Get LZ args for the swap and callback's trigger execution"
      },
      "getLeverageSwapAndCallbackLzArgs(uint16,uint16)": {
        "notice": "Get LZ args for the swap and callback's trigger execution"
      },
      "poolRegistry()": {
        "notice": "The pool registry contract"
      },
      "quoteCrossChainFlashRepayNativeFee(address,bytes)": {
        "notice": "Get the LZ (native) fee for the `triggerFlashRepay()` call"
      },
      "quoteCrossChainLeverageNativeFee(address,bytes)": {
        "notice": "Get the LZ (native) fee for the `triggerLeverageSwap()` call"
      },
      "quoteFlashRepayCallbackNativeFee(uint16)": {
        "notice": "Get the LZ (native) fee for the `crossChainFlashRepayCallback()` call"
      },
      "quoteLeverageCallbackNativeFee(uint16)": {
        "notice": "Get the LZ (native) fee for the `crossChainLeverageCallback()` call"
      }
    },
    "version": 1
  },
  "storageLayout": {
    "storage": [
      {
        "astId": 19514,
        "contract": "contracts/Quoter.sol:Quoter",
        "label": "_initialized",
        "offset": 0,
        "slot": "0",
        "type": "t_uint8"
      },
      {
        "astId": 19517,
        "contract": "contracts/Quoter.sol:Quoter",
        "label": "_initializing",
        "offset": 1,
        "slot": "0",
        "type": "t_bool"
      },
      {
        "astId": 30945,
        "contract": "contracts/Quoter.sol:Quoter",
        "label": "poolRegistry",
        "offset": 2,
        "slot": "0",
        "type": "t_contract(IPoolRegistry)27760"
      }
    ],
    "types": {
      "t_bool": {
        "encoding": "inplace",
        "label": "bool",
        "numberOfBytes": "1"
      },
      "t_contract(IPoolRegistry)27760": {
        "encoding": "inplace",
        "label": "contract IPoolRegistry",
        "numberOfBytes": "20"
      },
      "t_uint8": {
        "encoding": "inplace",
        "label": "uint8",
        "numberOfBytes": "1"
      }
    }
  }
}