{
  "address": "0xb975a3813AaCC7c9A8b61BFf5c3a0276154dDa2e",
  "abi": [
    {
      "inputs": [],
      "name": "ArraysLengthDoNotMatch",
      "type": "error"
    },
    {
      "inputs": [],
      "name": "DistributorDoesNotExist",
      "type": "error"
    },
    {
      "inputs": [],
      "name": "FallbackIsNotAllowed",
      "type": "error"
    },
    {
      "inputs": [],
      "name": "InvalidToken",
      "type": "error"
    },
    {
      "inputs": [],
      "name": "PoolAddressIsNull",
      "type": "error"
    },
    {
      "inputs": [],
      "name": "ReachedMaxRewardTokens",
      "type": "error"
    },
    {
      "inputs": [],
      "name": "ReceiveIsNotAllowed",
      "type": "error"
    },
    {
      "inputs": [],
      "name": "RewardTokenIsNull",
      "type": "error"
    },
    {
      "inputs": [],
      "name": "SenderIsNotGovernor",
      "type": "error"
    },
    {
      "anonymous": false,
      "inputs": [
        {
          "indexed": true,
          "internalType": "address",
          "name": "account",
          "type": "address"
        },
        {
          "indexed": false,
          "internalType": "uint256",
          "name": "amount",
          "type": "uint256"
        }
      ],
      "name": "RewardClaimed",
      "type": "event"
    },
    {
      "anonymous": false,
      "inputs": [
        {
          "indexed": false,
          "internalType": "uint224",
          "name": "newIndex",
          "type": "uint224"
        },
        {
          "indexed": false,
          "internalType": "uint32",
          "name": "newTimestamp",
          "type": "uint32"
        }
      ],
      "name": "TokenIndexUpdated",
      "type": "event"
    },
    {
      "anonymous": false,
      "inputs": [
        {
          "indexed": true,
          "internalType": "contract IERC20",
          "name": "token",
          "type": "address"
        },
        {
          "indexed": false,
          "internalType": "uint256",
          "name": "oldSpeed",
          "type": "uint256"
        },
        {
          "indexed": false,
          "internalType": "uint256",
          "name": "newSpeed",
          "type": "uint256"
        }
      ],
      "name": "TokenSpeedUpdated",
      "type": "event"
    },
    {
      "anonymous": false,
      "inputs": [
        {
          "indexed": true,
          "internalType": "contract IERC20",
          "name": "token",
          "type": "address"
        },
        {
          "indexed": true,
          "internalType": "address",
          "name": "account",
          "type": "address"
        },
        {
          "indexed": false,
          "internalType": "uint256",
          "name": "tokensDelta",
          "type": "uint256"
        },
        {
          "indexed": false,
          "internalType": "uint256",
          "name": "supplyIndex",
          "type": "uint256"
        }
      ],
      "name": "TokensAccruedUpdated",
      "type": "event"
    },
    {
      "stateMutability": "payable",
      "type": "fallback"
    },
    {
      "inputs": [],
      "name": "INITIAL_INDEX",
      "outputs": [
        {
          "internalType": "uint224",
          "name": "",
          "type": "uint224"
        }
      ],
      "stateMutability": "view",
      "type": "function"
    },
    {
      "inputs": [],
      "name": "MAX_REWARD_TOKENS",
      "outputs": [
        {
          "internalType": "uint224",
          "name": "",
          "type": "uint224"
        }
      ],
      "stateMutability": "view",
      "type": "function"
    },
    {
      "inputs": [
        {
          "internalType": "contract IERC20",
          "name": "",
          "type": "address"
        },
        {
          "internalType": "address",
          "name": "",
          "type": "address"
        }
      ],
      "name": "accountIndexOf",
      "outputs": [
        {
          "internalType": "uint256",
          "name": "",
          "type": "uint256"
        }
      ],
      "stateMutability": "view",
      "type": "function"
    },
    {
      "inputs": [
        {
          "internalType": "address",
          "name": "account_",
          "type": "address"
        },
        {
          "internalType": "contract IERC20[]",
          "name": "tokens_",
          "type": "address[]"
        }
      ],
      "name": "claimRewards",
      "outputs": [],
      "stateMutability": "nonpayable",
      "type": "function"
    },
    {
      "inputs": [
        {
          "internalType": "address[]",
          "name": "accounts_",
          "type": "address[]"
        },
        {
          "internalType": "contract IERC20[]",
          "name": "tokens_",
          "type": "address[]"
        }
      ],
      "name": "claimRewards",
      "outputs": [],
      "stateMutability": "nonpayable",
      "type": "function"
    },
    {
      "inputs": [
        {
          "internalType": "address",
          "name": "account_",
          "type": "address"
        }
      ],
      "name": "claimRewards",
      "outputs": [],
      "stateMutability": "nonpayable",
      "type": "function"
    },
    {
      "inputs": [
        {
          "internalType": "address",
          "name": "account_",
          "type": "address"
        }
      ],
      "name": "claimable",
      "outputs": [
        {
          "internalType": "uint256",
          "name": "_claimable",
          "type": "uint256"
        }
      ],
      "stateMutability": "view",
      "type": "function"
    },
    {
      "inputs": [
        {
          "internalType": "address",
          "name": "account_",
          "type": "address"
        },
        {
          "internalType": "contract IERC20",
          "name": "token_",
          "type": "address"
        }
      ],
      "name": "claimable",
      "outputs": [
        {
          "internalType": "uint256",
          "name": "_claimable",
          "type": "uint256"
        }
      ],
      "stateMutability": "view",
      "type": "function"
    },
    {
      "inputs": [],
      "name": "governor",
      "outputs": [
        {
          "internalType": "address",
          "name": "_governor",
          "type": "address"
        }
      ],
      "stateMutability": "view",
      "type": "function"
    },
    {
      "inputs": [
        {
          "internalType": "contract IPool",
          "name": "pool_",
          "type": "address"
        },
        {
          "internalType": "contract IERC20",
          "name": "rewardToken_",
          "type": "address"
        }
      ],
      "name": "initialize",
      "outputs": [],
      "stateMutability": "nonpayable",
      "type": "function"
    },
    {
      "inputs": [],
      "name": "pool",
      "outputs": [
        {
          "internalType": "contract IPool",
          "name": "",
          "type": "address"
        }
      ],
      "stateMutability": "view",
      "type": "function"
    },
    {
      "inputs": [],
      "name": "rewardToken",
      "outputs": [
        {
          "internalType": "contract IERC20",
          "name": "",
          "type": "address"
        }
      ],
      "stateMutability": "view",
      "type": "function"
    },
    {
      "inputs": [
        {
          "internalType": "contract IERC20",
          "name": "token_",
          "type": "address"
        },
        {
          "internalType": "address",
          "name": "to_",
          "type": "address"
        },
        {
          "internalType": "uint256",
          "name": "amount_",
          "type": "uint256"
        }
      ],
      "name": "sweep",
      "outputs": [],
      "stateMutability": "nonpayable",
      "type": "function"
    },
    {
      "inputs": [
        {
          "internalType": "contract IERC20",
          "name": "",
          "type": "address"
        }
      ],
      "name": "tokenSpeeds",
      "outputs": [
        {
          "internalType": "uint256",
          "name": "",
          "type": "uint256"
        }
      ],
      "stateMutability": "view",
      "type": "function"
    },
    {
      "inputs": [
        {
          "internalType": "contract IERC20",
          "name": "",
          "type": "address"
        }
      ],
      "name": "tokenStates",
      "outputs": [
        {
          "internalType": "uint224",
          "name": "index",
          "type": "uint224"
        },
        {
          "internalType": "uint32",
          "name": "timestamp",
          "type": "uint32"
        }
      ],
      "stateMutability": "view",
      "type": "function"
    },
    {
      "inputs": [
        {
          "internalType": "uint256",
          "name": "",
          "type": "uint256"
        }
      ],
      "name": "tokens",
      "outputs": [
        {
          "internalType": "contract IERC20",
          "name": "",
          "type": "address"
        }
      ],
      "stateMutability": "view",
      "type": "function"
    },
    {
      "inputs": [
        {
          "internalType": "address",
          "name": "",
          "type": "address"
        }
      ],
      "name": "tokensAccruedOf",
      "outputs": [
        {
          "internalType": "uint256",
          "name": "",
          "type": "uint256"
        }
      ],
      "stateMutability": "view",
      "type": "function"
    },
    {
      "inputs": [
        {
          "internalType": "contract IERC20",
          "name": "token_",
          "type": "address"
        },
        {
          "internalType": "address",
          "name": "account_",
          "type": "address"
        }
      ],
      "name": "updateBeforeMintOrBurn",
      "outputs": [],
      "stateMutability": "nonpayable",
      "type": "function"
    },
    {
      "inputs": [
        {
          "internalType": "contract IERC20",
          "name": "token_",
          "type": "address"
        },
        {
          "internalType": "address",
          "name": "from_",
          "type": "address"
        },
        {
          "internalType": "address",
          "name": "to_",
          "type": "address"
        }
      ],
      "name": "updateBeforeTransfer",
      "outputs": [],
      "stateMutability": "nonpayable",
      "type": "function"
    },
    {
      "inputs": [
        {
          "internalType": "contract IERC20",
          "name": "token_",
          "type": "address"
        },
        {
          "internalType": "uint256",
          "name": "newSpeed_",
          "type": "uint256"
        }
      ],
      "name": "updateTokenSpeed",
      "outputs": [],
      "stateMutability": "nonpayable",
      "type": "function"
    },
    {
      "inputs": [
        {
          "internalType": "contract IERC20[]",
          "name": "tokens_",
          "type": "address[]"
        },
        {
          "internalType": "uint256[]",
          "name": "speeds_",
          "type": "uint256[]"
        }
      ],
      "name": "updateTokenSpeeds",
      "outputs": [],
      "stateMutability": "nonpayable",
      "type": "function"
    },
    {
      "stateMutability": "payable",
      "type": "receive"
    }
  ],
  "transactionHash": "0x055a1f150c9c6e2545639d0acec1539572ed27d10fef2d121abeebb2f3d4be1e",
  "args": [],
  "numDeployments": 1,
  "solcInputHash": "90a16760c1e9eb3a1fb6ca594389bd73",
  "bytecode": "0x608060405234801561001057600080fd5b50612204806100206000396000f3fe60806040526004361061012e5760003560e01c80635d0cde97116100ab578063aa6299751161006f578063aa629975146103c8578063b17b23a0146103f5578063b9afda2d14610415578063d4570c1c14610435578063ef5cfb8c14610455578063f7c618c1146104755761014c565b80635d0cde97146102f357806362c067671461030857806389cb096a14610328578063a0cfa0dd1461037b578063a428d9c8146103a85761014c565b80631b30f0c0116100f25780631b30f0c0146102535780632026ffa314610273578063402914f514610293578063485cc955146102b35780634f64b2be146102d35761014c565b8063013bc51c1461016557806301bc3acb146101b05780630c340a24146101d2578063160c3a03146101ff57806316f0115b146102335761014c565b3661014c57604051636436c22d60e11b815260040160405180910390fd5b60405163a0152e6360e01b815260040160405180910390fd5b34801561017157600080fd5b5061019d610180366004611b82565b603860209081526000928352604080842090915290825290205481565b6040519081526020015b60405180910390f35b3480156101bc57600080fd5b506101d06101cb366004611c07565b610495565b005b3480156101de57600080fd5b506101e761055a565b6040516001600160a01b0390911681526020016101a7565b34801561020b57600080fd5b5061021b670de0b6b3a764000081565b6040516001600160e01b0390911681526020016101a7565b34801561023f57600080fd5b506002546101e7906001600160a01b031681565b34801561025f57600080fd5b506101d061026e366004611b82565b6105dc565b34801561027f57600080fd5b506101d061028e366004611d52565b61061a565b34801561029f57600080fd5b5061019d6102ae366004611da2565b61067f565b3480156102bf57600080fd5b506101d06102ce366004611b82565b6106e0565b3480156102df57600080fd5b506101e76102ee366004611dbf565b6107a9565b3480156102ff57600080fd5b5061021b601481565b34801561031457600080fd5b506101d0610323366004611dd8565b6107d3565b34801561033457600080fd5b5061036d610343366004611da2565b6037602052600090815260409020546001600160e01b03811690600160e01b900463ffffffff1682565b6040516101a7929190611e19565b34801561038757600080fd5b5061019d610396366004611da2565b60366020526000908152604090205481565b3480156103b457600080fd5b506101d06103c3366004611e38565b610807565b3480156103d457600080fd5b5061019d6103e3366004611da2565b60396020526000908152604090205481565b34801561040157600080fd5b506101d0610410366004611ef0565b61098c565b34801561042157600080fd5b506101d0610430366004611f3b565b6109d0565b34801561044157600080fd5b5061019d610450366004611b82565b610a13565b34801561046157600080fd5b506101d0610470366004611da2565b610ae6565b34801561048157600080fd5b506034546101e7906001600160a01b031681565b61049d61055a565b6001600160a01b0316336001600160a01b0316146104ce57604051634b98449160e11b815260040160405180910390fd5b828181146104ef57604051631dc1520760e31b815260040160405180910390fd5b60005b818110156105525761054286868381811061050f5761050f611f67565b90506020020160208101906105249190611da2565b85858481811061053657610536611f67565b90506020020135610b4d565b61054b81611f93565b90506104f2565b505050505050565b6002546040805163030d028960e21b815290516000926001600160a01b031691630c340a24916004808301926020929190829003018186803b15801561059f57600080fd5b505afa1580156105b3573d6000803e3d6000fd5b505050506040513d601f19601f820116820180604052508101906105d79190611fae565b905090565b6001600160a01b0382166000908152603760205260409020546001600160e01b0316156106165761060c82610f55565b61061682826110cc565b5050565b60408051600180825281830190925260009160208083019080368337019050509050828160008151811061065057610650611f67565b60200260200101906001600160a01b031690816001600160a01b03168152505061067a8183610807565b505050565b6000805b6035548110156106da576106be83603583815481106106a4576106a4611f67565b6000918252602090912001546001600160a01b0316610a13565b6106c89083611fcb565b91506106d381611f93565b9050610683565b50919050565b600054610100900460ff16806106f9575060005460ff16155b61071e5760405162461bcd60e51b815260040161071590611fe3565b60405180910390fd5b600054610100900460ff16158015610740576000805461ffff19166101011790555b6001600160a01b03821661076757604051636d4b163760e11b815260040160405180910390fd5b61076f61119e565b6107788361120d565b603480546001600160a01b0319166001600160a01b038416179055801561067a576000805461ff0019169055505050565b603581815481106107b957600080fd5b6000918252602090912001546001600160a01b0316905081565b6107db6112bb565b6001600160a01b0383166107f35761067a82826112f6565b61067a6001600160a01b038416838361140f565b6002600154141561085a5760405162461bcd60e51b815260206004820152601f60248201527f5265656e7472616e637947756172643a207265656e7472616e742063616c6c006044820152606401610715565b60026001558151815160005b8181101561091557600084828151811061088257610882611f67565b6020908102919091018101516001600160a01b038116600090815260379092526040909120549091506001600160e01b031615610904576108c281610f55565b60005b84811015610902576108f0828883815181106108e3576108e3611f67565b60200260200101516110cc565b806108fa81611f93565b9150506108c5565b505b5061090e81611f93565b9050610866565b5060005b8281101561098157600085828151811061093557610935611f67565b6020026020010151905061096e8160396000846001600160a01b03166001600160a01b0316815260200190815260200160002054611461565b508061097981611f93565b915050610919565b505060018055505050565b6001600160a01b0383166000908152603760205260409020546001600160e01b03161561067a576109bc83610f55565b6109c683836110cc565b61067a83826110cc565b6109d861055a565b6001600160a01b0316336001600160a01b031614610a0957604051634b98449160e11b815260040160405180910390fd5b6106168282610b4d565b6001600160a01b03811660009081526037602090815260408083208151808301909252546001600160e01b0381168252600160e01b900463ffffffff16918101919091528180610a638386611568565b915091506000826001600160e01b0316118015610a86575060008163ffffffff16115b15610ab6576040518060400160405280836001600160e01b031681526020018263ffffffff168152509250610acf565b63ffffffff811615610acf5763ffffffff811660208401525b610ada8386886116bb565b98975050505050505050565b610b4a816035805480602002602001604051908101604052809291908181526020018280548015610b4057602002820191906000526020600020905b81546001600160a01b03168152600190910190602001808311610b22575b505050505061061a565b50565b600080600260009054906101000a90046001600160a01b03166001600160a01b0316633605b51b6040518163ffffffff1660e01b815260040160006040518083038186803b158015610b9e57600080fd5b505afa158015610bb2573d6000803e3d6000fd5b505050506040513d6000823e601f3d908101601f19168201604052610bda9190810190612031565b805190915060005b81811015610c3657306001600160a01b0316838281518110610c0657610c06611f67565b60200260200101516001600160a01b03161415610c265760019350610c36565b610c2f81611f93565b9050610be2565b5082610c5557604051634757a01f60e01b815260040160405180910390fd5b6002546040516308a00b1f60e31b81526001600160a01b03808816600483015287921690819063450058f89060240160206040518083038186803b158015610c9c57600080fd5b505afa158015610cb0573d6000803e3d6000fd5b505050506040513d601f19601f82011682018060405250810190610cd491906120c0565b158015610d575750604051633e25dee160e21b81526001600160a01b03838116600483015282169063f8977b849060240160206040518083038186803b158015610d1d57600080fd5b505afa158015610d31573d6000803e3d6000fd5b505050506040513d601f19601f82011682018060405250810190610d5591906120c0565b155b15610d755760405163c1ab6dc160e01b815260040160405180910390fd5b6001600160a01b0387166000908152603660205260409020548015610da257610d9d88610f55565b610eee565b8615610eee576001600160a01b0388166000908152603760205260409020546001600160e01b0316610eaa5760355460141415610df257604051639e8b4a2160e01b815260040160405180910390fd5b6040518060400160405280670de0b6b3a76400006001600160e01b03168152602001610e1d426117da565b63ffffffff9081169091526001600160a01b038a166000818152603760209081526040822085519590910151909316600160e01b026001600160e01b03909416939093179091556035805460018101825592527fcfa4bec1d3298408bb5afcfcd9c430549c5b31f8aa5c5848151c0a55f473c34d90910180546001600160a01b0319169091179055610eee565b610eb3426117da565b6001600160a01b0389166000908152603760205260409020805463ffffffff92909216600160e01b026001600160e01b039092169190911790555b868114610f4b576001600160a01b0388166000818152603660209081526040918290208a905581518481529081018a90527f07295410ddc875d5ff9b778ece2c279c9b91abeefd296803662b28cf6ad33c08910160405180910390a25b5050505050505050565b6001600160a01b0381166000908152603760209081526040808320815180830190925280546001600160e01b0381168352600160e01b900463ffffffff16928201929092529091908190610fa99085611568565b915091506000826001600160e01b0316118015610fcc575060008163ffffffff16115b1561105d576040805180820182526001600160e01b03808516825263ffffffff80851660208085019182526001600160a01b038a166000908152603790915285902093519051909116600160e01b029116179055517f883d8b44a1f0e651bb0d11a8e962de03c77a351328bbeb12b702e5632288ee6f906110509084908490611e19565b60405180910390a16110c6565b63ffffffff8116156110c657825463ffffffff8216600160e01b026001600160e01b0391821681811786556040517f883d8b44a1f0e651bb0d11a8e962de03c77a351328bbeb12b702e5632288ee6f936110bd9316909117908490611e19565b60405180910390a15b50505050565b6001600160a01b03821660009081526037602090815260408083208151808301909252546001600160e01b0381168252600160e01b900463ffffffff16918101919091528190819061111f9086866116bb565b6001600160a01b038881166000818152603860209081526040808320948c16808452948252808320889055603982529182902085905581518681529081018790529598509396509194509290917f49abdf3748a8d465b0d3d5d126dab076f5109ea80b761c4c1c45b2710165087b910160405180910390a35050505050565b600054610100900460ff16806111b7575060005460ff16155b6111d35760405162461bcd60e51b815260040161071590611fe3565b600054610100900460ff161580156111f5576000805461ffff19166101011790555b600180558015610b4a576000805461ff001916905550565b600054610100900460ff1680611226575060005460ff16155b6112425760405162461bcd60e51b815260040161071590611fe3565b600054610100900460ff16158015611264576000805461ffff19166101011790555b6001600160a01b03821661128b5760405163724f500960e01b815260040160405180910390fd5b600280546001600160a01b0319166001600160a01b0384161790558015610616576000805461ff00191690555050565b6112c361055a565b6001600160a01b0316336001600160a01b0316146112f457604051634b98449160e11b815260040160405180910390fd5b565b804710156113465760405162461bcd60e51b815260206004820152601d60248201527f416464726573733a20696e73756666696369656e742062616c616e63650000006044820152606401610715565b6000826001600160a01b03168260405160006040518083038185875af1925050503d8060008114611393576040519150601f19603f3d011682016040523d82523d6000602084013e611398565b606091505b505090508061067a5760405162461bcd60e51b815260206004820152603a60248201527f416464726573733a20756e61626c6520746f2073656e642076616c75652c207260448201527f6563697069656e74206d617920686176652072657665727465640000000000006064820152608401610715565b604080516001600160a01b038416602482015260448082018490528251808303909101815260649091019091526020810180516001600160e01b031663a9059cbb60e01b17905261067a908490611843565b6034546040516370a0823160e01b81523060048201526001600160a01b039091169060009082906370a082319060240160206040518083038186803b1580156114a957600080fd5b505afa1580156114bd573d6000803e3d6000fd5b505050506040513d601f19601f820116820180604052508101906114e191906120e2565b90506000831180156114f35750808311155b156110c6576001600160a01b0380851660009081526039602052604081205561151f908316858561140f565b836001600160a01b03167f106f923f993c2149d49b4255ff723acafa1f2d94393f561d3eda32ae348f72418460405161155a91815260200190565b60405180910390a250505050565b6001600160a01b038116600090815260366020908152604082205490840151829190829061159c9063ffffffff16426120fb565b90506000811180156115ae5750600082115b15611688576000856001600160a01b03166318160ddd6040518163ffffffff1660e01b815260040160206040518083038186803b1580156115ee57600080fd5b505afa158015611602573d6000803e3d6000fd5b505050506040513d601f19601f8201168201806040525081019061162691906120e2565b905060006116348484612112565b90506000808311611646576000611650565b6116508284611915565b9050611673818a600001516001600160e01b031661166e9190611fcb565b611952565b965061167e426117da565b95505050506116b2565b6000811180156116a1575085516001600160e01b031615155b156116b2576116af426117da565b92505b50509250929050565b82516001600160a01b0380841660009081526038602090815260408083209386168352929052908120546001600160e01b03909216918190801580156117015750600084115b156117115750670de0b6b3a76400005b600061171d82866120fb565b6040516370a0823160e01b81526001600160a01b0388811660048301529192506117a6918391908a16906370a082319060240160206040518083038186803b15801561176857600080fd5b505afa15801561177c573d6000803e3d6000fd5b505050506040513d601f19601f820116820180604052508101906117a091906120e2565b906119bb565b6001600160a01b0387166000908152603960205260409020549094506117cd908590611fcb565b9250505093509350939050565b600063ffffffff82111561183f5760405162461bcd60e51b815260206004820152602660248201527f53616665436173743a2076616c756520646f65736e27742066697420696e203360448201526532206269747360d01b6064820152608401610715565b5090565b6000611898826040518060400160405280602081526020017f5361666545524332303a206c6f772d6c6576656c2063616c6c206661696c6564815250856001600160a01b03166119f39092919063ffffffff16565b80519091501561067a57808060200190518101906118b691906120c0565b61067a5760405162461bcd60e51b815260206004820152602a60248201527f5361666545524332303a204552433230206f7065726174696f6e20646964206e6044820152691bdd081cdd58d8d9595960b21b6064820152608401610715565b600081611923600282612131565b611935670de0b6b3a764000086612112565b61193f9190611fcb565b6119499190612131565b90505b92915050565b60006001600160e01b0382111561183f5760405162461bcd60e51b815260206004820152602760248201527f53616665436173743a2076616c756520646f65736e27742066697420696e20326044820152663234206269747360c81b6064820152608401610715565b60008215806119c8575081155b156119d55750600061194c565b670de0b6b3a76400006119e9600282612131565b6119358486612112565b6060611a028484600085611a0c565b90505b9392505050565b606082471015611a6d5760405162461bcd60e51b815260206004820152602660248201527f416464726573733a20696e73756666696369656e742062616c616e636520666f6044820152651c8818d85b1b60d21b6064820152608401610715565b843b611abb5760405162461bcd60e51b815260206004820152601d60248201527f416464726573733a2063616c6c20746f206e6f6e2d636f6e74726163740000006044820152606401610715565b600080866001600160a01b03168587604051611ad7919061217f565b60006040518083038185875af1925050503d8060008114611b14576040519150601f19603f3d011682016040523d82523d6000602084013e611b19565b606091505b5091509150611b29828286611b34565b979650505050505050565b60608315611b43575081611a05565b825115611b535782518084602001fd5b8160405162461bcd60e51b8152600401610715919061219b565b6001600160a01b0381168114610b4a57600080fd5b60008060408385031215611b9557600080fd5b8235611ba081611b6d565b91506020830135611bb081611b6d565b809150509250929050565b60008083601f840112611bcd57600080fd5b50813567ffffffffffffffff811115611be557600080fd5b6020830191508360208260051b8501011115611c0057600080fd5b9250929050565b60008060008060408587031215611c1d57600080fd5b843567ffffffffffffffff80821115611c3557600080fd5b611c4188838901611bbb565b90965094506020870135915080821115611c5a57600080fd5b50611c6787828801611bbb565b95989497509550505050565b634e487b7160e01b600052604160045260246000fd5b604051601f8201601f1916810167ffffffffffffffff81118282101715611cb257611cb2611c73565b604052919050565b600067ffffffffffffffff821115611cd457611cd4611c73565b5060051b60200190565b600082601f830112611cef57600080fd5b81356020611d04611cff83611cba565b611c89565b82815260059290921b84018101918181019086841115611d2357600080fd5b8286015b84811015611d47578035611d3a81611b6d565b8352918301918301611d27565b509695505050505050565b60008060408385031215611d6557600080fd5b8235611d7081611b6d565b9150602083013567ffffffffffffffff811115611d8c57600080fd5b611d9885828601611cde565b9150509250929050565b600060208284031215611db457600080fd5b8135611a0581611b6d565b600060208284031215611dd157600080fd5b5035919050565b600080600060608486031215611ded57600080fd5b8335611df881611b6d565b92506020840135611e0881611b6d565b929592945050506040919091013590565b6001600160e01b0392909216825263ffffffff16602082015260400190565b60008060408385031215611e4b57600080fd5b823567ffffffffffffffff80821115611e6357600080fd5b818501915085601f830112611e7757600080fd5b81356020611e87611cff83611cba565b82815260059290921b84018101918181019089841115611ea657600080fd5b948201945b83861015611ecd578535611ebe81611b6d565b82529482019490820190611eab565b96505086013592505080821115611ee357600080fd5b50611d9885828601611cde565b600080600060608486031215611f0557600080fd5b8335611f1081611b6d565b92506020840135611f2081611b6d565b91506040840135611f3081611b6d565b809150509250925092565b60008060408385031215611f4e57600080fd5b8235611f5981611b6d565b946020939093013593505050565b634e487b7160e01b600052603260045260246000fd5b634e487b7160e01b600052601160045260246000fd5b6000600019821415611fa757611fa7611f7d565b5060010190565b600060208284031215611fc057600080fd5b8151611a0581611b6d565b60008219821115611fde57611fde611f7d565b500190565b6020808252602e908201527f496e697469616c697a61626c653a20636f6e747261637420697320616c72656160408201526d191e481a5b9a5d1a585b1a5e995960921b606082015260800190565b6000602080838503121561204457600080fd5b825167ffffffffffffffff81111561205b57600080fd5b8301601f8101851361206c57600080fd5b805161207a611cff82611cba565b81815260059190911b8201830190838101908783111561209957600080fd5b928401925b82841015611b295783516120b181611b6d565b8252928401929084019061209e565b6000602082840312156120d257600080fd5b81518015158114611a0557600080fd5b6000602082840312156120f457600080fd5b5051919050565b60008282101561210d5761210d611f7d565b500390565b600081600019048311821515161561212c5761212c611f7d565b500290565b60008261214e57634e487b7160e01b600052601260045260246000fd5b500490565b60005b8381101561216e578181015183820152602001612156565b838111156110c65750506000910152565b60008251612191818460208701612153565b9190910192915050565b60208152600082518060208401526121ba816040850160208701612153565b601f01601f1916919091016040019291505056fea264697066735822122029fe0b45a20bf8c324840f560540d7776ec9496270a51a0af150da1e0d44ba5664736f6c63430008090033",
  "devdoc": {
    "kind": "dev",
    "methods": {
      "governor()": {
        "returns": {
          "_governor": "The governor"
        }
      },
      "sweep(address,address,uint256)": {
        "params": {
          "amount_": "The amount to send",
          "to_": "The recipient of the transfer",
          "token_": "The token to transfer"
        }
      },
      "updateBeforeMintOrBurn(address,address)": {
        "details": "Called by DepositToken and DebtToken contracts This function also may be called by anyone to update stored indexes"
      },
      "updateBeforeTransfer(address,address,address)": {
        "details": "Called by DepositToken and DebtToken contracts"
      }
    },
    "title": "RewardsDistributor contract",
    "version": 1
  },
  "userdoc": {
    "events": {
      "RewardClaimed(address,uint256)": {
        "notice": "Emitted when reward is claimed"
      },
      "TokenIndexUpdated(uint224,uint32)": {
        "notice": "Emitted when updating token index"
      },
      "TokenSpeedUpdated(address,uint256,uint256)": {
        "notice": "Emitted when updating token speed"
      },
      "TokensAccruedUpdated(address,address,uint256,uint256)": {
        "notice": "Emitted when updating accrued token"
      }
    },
    "kind": "user",
    "methods": {
      "INITIAL_INDEX()": {
        "notice": "The initial index"
      },
      "MAX_REWARD_TOKENS()": {
        "notice": "Max reward tokens to avoid DoS scenario"
      },
      "accountIndexOf(address,address)": {
        "notice": "The supply index for each token for each account as of the last time they accrued token"
      },
      "claimRewards(address)": {
        "notice": "Claim tokens accrued by account in all tokens"
      },
      "claimRewards(address,address[])": {
        "notice": "Claim tokens accrued by account in the specified tokens"
      },
      "claimRewards(address[],address[])": {
        "notice": "Claim tokens accrued by the accounts in the specified tokens"
      },
      "claimable(address)": {
        "notice": "Returns claimable amount consider all tokens"
      },
      "claimable(address,address)": {
        "notice": "Returns updated claimable amount for given token"
      },
      "governor()": {
        "notice": "Get the governor"
      },
      "pool()": {
        "notice": "Pool contract"
      },
      "rewardToken()": {
        "notice": "The token to reward"
      },
      "sweep(address,address,uint256)": {
        "notice": "ERC20 recovery in case of stuck tokens due direct transfers to the contract address."
      },
      "tokenSpeeds(address)": {
        "notice": "The amount of token distributed for each token per second"
      },
      "tokenStates(address)": {
        "notice": "The reward state for each token"
      },
      "tokens(uint256)": {
        "notice": "Track tokens for reward"
      },
      "tokensAccruedOf(address)": {
        "notice": "The token accrued but not yet transferred to each user"
      },
      "updateBeforeMintOrBurn(address,address)": {
        "notice": "Update indexes on pre-mint and pre-burn"
      },
      "updateBeforeTransfer(address,address,address)": {
        "notice": "Update indexes on pre-transfer"
      },
      "updateTokenSpeed(address,uint256)": {
        "notice": "Update speed for a single deposit token"
      },
      "updateTokenSpeeds(address[],uint256[])": {
        "notice": "Update token speeds"
      }
    },
    "version": 1
  },
  "storageLayout": {
    "storage": [
      {
        "astId": 7824,
        "contract": "contracts/RewardsDistributor.sol:RewardsDistributor",
        "label": "_initialized",
        "offset": 0,
        "slot": "0",
        "type": "t_bool"
      },
      {
        "astId": 7827,
        "contract": "contracts/RewardsDistributor.sol:RewardsDistributor",
        "label": "_initializing",
        "offset": 1,
        "slot": "0",
        "type": "t_bool"
      },
      {
        "astId": 7878,
        "contract": "contracts/RewardsDistributor.sol:RewardsDistributor",
        "label": "_status",
        "offset": 0,
        "slot": "1",
        "type": "t_uint256"
      },
      {
        "astId": 7707,
        "contract": "contracts/RewardsDistributor.sol:RewardsDistributor",
        "label": "pool",
        "offset": 0,
        "slot": "2",
        "type": "t_contract(IPool)10334"
      },
      {
        "astId": 7817,
        "contract": "contracts/RewardsDistributor.sol:RewardsDistributor",
        "label": "__gap",
        "offset": 0,
        "slot": "3",
        "type": "t_array(t_uint256)49_storage"
      },
      {
        "astId": 12098,
        "contract": "contracts/RewardsDistributor.sol:RewardsDistributor",
        "label": "rewardToken",
        "offset": 0,
        "slot": "52",
        "type": "t_contract(IERC20)7987"
      },
      {
        "astId": 12104,
        "contract": "contracts/RewardsDistributor.sol:RewardsDistributor",
        "label": "tokens",
        "offset": 0,
        "slot": "53",
        "type": "t_array(t_contract(IERC20)7987)dyn_storage"
      },
      {
        "astId": 12111,
        "contract": "contracts/RewardsDistributor.sol:RewardsDistributor",
        "label": "tokenSpeeds",
        "offset": 0,
        "slot": "54",
        "type": "t_mapping(t_contract(IERC20)7987,t_uint256)"
      },
      {
        "astId": 12119,
        "contract": "contracts/RewardsDistributor.sol:RewardsDistributor",
        "label": "tokenStates",
        "offset": 0,
        "slot": "55",
        "type": "t_mapping(t_contract(IERC20)7987,t_struct(TokenState)12093_storage)"
      },
      {
        "astId": 12128,
        "contract": "contracts/RewardsDistributor.sol:RewardsDistributor",
        "label": "accountIndexOf",
        "offset": 0,
        "slot": "56",
        "type": "t_mapping(t_contract(IERC20)7987,t_mapping(t_address,t_uint256))"
      },
      {
        "astId": 12134,
        "contract": "contracts/RewardsDistributor.sol:RewardsDistributor",
        "label": "tokensAccruedOf",
        "offset": 0,
        "slot": "57",
        "type": "t_mapping(t_address,t_uint256)"
      }
    ],
    "types": {
      "t_address": {
        "encoding": "inplace",
        "label": "address",
        "numberOfBytes": "20"
      },
      "t_array(t_contract(IERC20)7987)dyn_storage": {
        "base": "t_contract(IERC20)7987",
        "encoding": "dynamic_array",
        "label": "contract IERC20[]",
        "numberOfBytes": "32"
      },
      "t_array(t_uint256)49_storage": {
        "base": "t_uint256",
        "encoding": "inplace",
        "label": "uint256[49]",
        "numberOfBytes": "1568"
      },
      "t_bool": {
        "encoding": "inplace",
        "label": "bool",
        "numberOfBytes": "1"
      },
      "t_contract(IERC20)7987": {
        "encoding": "inplace",
        "label": "contract IERC20",
        "numberOfBytes": "20"
      },
      "t_contract(IPool)10334": {
        "encoding": "inplace",
        "label": "contract IPool",
        "numberOfBytes": "20"
      },
      "t_mapping(t_address,t_uint256)": {
        "encoding": "mapping",
        "key": "t_address",
        "label": "mapping(address => uint256)",
        "numberOfBytes": "32",
        "value": "t_uint256"
      },
      "t_mapping(t_contract(IERC20)7987,t_mapping(t_address,t_uint256))": {
        "encoding": "mapping",
        "key": "t_contract(IERC20)7987",
        "label": "mapping(contract IERC20 => mapping(address => uint256))",
        "numberOfBytes": "32",
        "value": "t_mapping(t_address,t_uint256)"
      },
      "t_mapping(t_contract(IERC20)7987,t_struct(TokenState)12093_storage)": {
        "encoding": "mapping",
        "key": "t_contract(IERC20)7987",
        "label": "mapping(contract IERC20 => struct RewardsDistributorStorageV1.TokenState)",
        "numberOfBytes": "32",
        "value": "t_struct(TokenState)12093_storage"
      },
      "t_mapping(t_contract(IERC20)7987,t_uint256)": {
        "encoding": "mapping",
        "key": "t_contract(IERC20)7987",
        "label": "mapping(contract IERC20 => uint256)",
        "numberOfBytes": "32",
        "value": "t_uint256"
      },
      "t_struct(TokenState)12093_storage": {
        "encoding": "inplace",
        "label": "struct RewardsDistributorStorageV1.TokenState",
        "members": [
          {
            "astId": 12090,
            "contract": "contracts/RewardsDistributor.sol:RewardsDistributor",
            "label": "index",
            "offset": 0,
            "slot": "0",
            "type": "t_uint224"
          },
          {
            "astId": 12092,
            "contract": "contracts/RewardsDistributor.sol:RewardsDistributor",
            "label": "timestamp",
            "offset": 28,
            "slot": "0",
            "type": "t_uint32"
          }
        ],
        "numberOfBytes": "32"
      },
      "t_uint224": {
        "encoding": "inplace",
        "label": "uint224",
        "numberOfBytes": "28"
      },
      "t_uint256": {
        "encoding": "inplace",
        "label": "uint256",
        "numberOfBytes": "32"
      },
      "t_uint32": {
        "encoding": "inplace",
        "label": "uint32",
        "numberOfBytes": "4"
      }
    }
  }
}