{
  "address": "0x025347F4CC7865068dE5A139951411084E7bCAD7",
  "abi": [
    {
      "anonymous": false,
      "inputs": [
        {
          "indexed": false,
          "internalType": "address",
          "name": "account",
          "type": "address"
        },
        {
          "indexed": false,
          "internalType": "uint256",
          "name": "amount",
          "type": "uint256"
        }
      ],
      "name": "RewardClaimed",
      "type": "event"
    },
    {
      "anonymous": false,
      "inputs": [
        {
          "indexed": true,
          "internalType": "contract IERC20",
          "name": "token",
          "type": "address"
        },
        {
          "indexed": false,
          "internalType": "uint256",
          "name": "oldSpeed",
          "type": "uint256"
        },
        {
          "indexed": false,
          "internalType": "uint256",
          "name": "newSpeed",
          "type": "uint256"
        }
      ],
      "name": "TokenSpeedUpdated",
      "type": "event"
    },
    {
      "anonymous": false,
      "inputs": [
        {
          "indexed": true,
          "internalType": "contract IERC20",
          "name": "token",
          "type": "address"
        },
        {
          "indexed": true,
          "internalType": "address",
          "name": "account",
          "type": "address"
        },
        {
          "indexed": false,
          "internalType": "uint256",
          "name": "tokensDelta",
          "type": "uint256"
        },
        {
          "indexed": false,
          "internalType": "uint256",
          "name": "supplyIndex",
          "type": "uint256"
        }
      ],
      "name": "TokensAccruedUpdated",
      "type": "event"
    },
    {
      "stateMutability": "payable",
      "type": "fallback"
    },
    {
      "inputs": [],
      "name": "INITIAL_INDEX",
      "outputs": [
        {
          "internalType": "uint224",
          "name": "",
          "type": "uint224"
        }
      ],
      "stateMutability": "view",
      "type": "function"
    },
    {
      "inputs": [],
      "name": "MAX_REWARD_TOKENS",
      "outputs": [
        {
          "internalType": "uint224",
          "name": "",
          "type": "uint224"
        }
      ],
      "stateMutability": "view",
      "type": "function"
    },
    {
      "inputs": [
        {
          "internalType": "contract IERC20",
          "name": "",
          "type": "address"
        },
        {
          "internalType": "address",
          "name": "",
          "type": "address"
        }
      ],
      "name": "accountIndexOf",
      "outputs": [
        {
          "internalType": "uint256",
          "name": "",
          "type": "uint256"
        }
      ],
      "stateMutability": "view",
      "type": "function"
    },
    {
      "inputs": [
        {
          "internalType": "address",
          "name": "account_",
          "type": "address"
        },
        {
          "internalType": "contract IERC20[]",
          "name": "tokens_",
          "type": "address[]"
        }
      ],
      "name": "claimRewards",
      "outputs": [],
      "stateMutability": "nonpayable",
      "type": "function"
    },
    {
      "inputs": [
        {
          "internalType": "address[]",
          "name": "accounts_",
          "type": "address[]"
        },
        {
          "internalType": "contract IERC20[]",
          "name": "tokens_",
          "type": "address[]"
        }
      ],
      "name": "claimRewards",
      "outputs": [],
      "stateMutability": "nonpayable",
      "type": "function"
    },
    {
      "inputs": [
        {
          "internalType": "address",
          "name": "account_",
          "type": "address"
        }
      ],
      "name": "claimRewards",
      "outputs": [],
      "stateMutability": "nonpayable",
      "type": "function"
    },
    {
      "inputs": [],
      "name": "governor",
      "outputs": [
        {
          "internalType": "address",
          "name": "_governor",
          "type": "address"
        }
      ],
      "stateMutability": "view",
      "type": "function"
    },
    {
      "inputs": [
        {
          "internalType": "contract IPool",
          "name": "pool_",
          "type": "address"
        },
        {
          "internalType": "contract IERC20",
          "name": "rewardToken_",
          "type": "address"
        }
      ],
      "name": "initialize",
      "outputs": [],
      "stateMutability": "nonpayable",
      "type": "function"
    },
    {
      "inputs": [],
      "name": "pool",
      "outputs": [
        {
          "internalType": "contract IPool",
          "name": "",
          "type": "address"
        }
      ],
      "stateMutability": "view",
      "type": "function"
    },
    {
      "inputs": [],
      "name": "rewardToken",
      "outputs": [
        {
          "internalType": "contract IERC20",
          "name": "",
          "type": "address"
        }
      ],
      "stateMutability": "view",
      "type": "function"
    },
    {
      "inputs": [
        {
          "internalType": "contract IERC20",
          "name": "token_",
          "type": "address"
        },
        {
          "internalType": "address",
          "name": "to_",
          "type": "address"
        },
        {
          "internalType": "uint256",
          "name": "amount_",
          "type": "uint256"
        }
      ],
      "name": "sweep",
      "outputs": [],
      "stateMutability": "nonpayable",
      "type": "function"
    },
    {
      "inputs": [
        {
          "internalType": "contract IERC20",
          "name": "",
          "type": "address"
        }
      ],
      "name": "tokenSpeeds",
      "outputs": [
        {
          "internalType": "uint256",
          "name": "",
          "type": "uint256"
        }
      ],
      "stateMutability": "view",
      "type": "function"
    },
    {
      "inputs": [
        {
          "internalType": "contract IERC20",
          "name": "",
          "type": "address"
        }
      ],
      "name": "tokenStates",
      "outputs": [
        {
          "internalType": "uint224",
          "name": "index",
          "type": "uint224"
        },
        {
          "internalType": "uint32",
          "name": "timestamp",
          "type": "uint32"
        }
      ],
      "stateMutability": "view",
      "type": "function"
    },
    {
      "inputs": [
        {
          "internalType": "uint256",
          "name": "",
          "type": "uint256"
        }
      ],
      "name": "tokens",
      "outputs": [
        {
          "internalType": "contract IERC20",
          "name": "",
          "type": "address"
        }
      ],
      "stateMutability": "view",
      "type": "function"
    },
    {
      "inputs": [
        {
          "internalType": "address",
          "name": "",
          "type": "address"
        }
      ],
      "name": "tokensAccruedOf",
      "outputs": [
        {
          "internalType": "uint256",
          "name": "",
          "type": "uint256"
        }
      ],
      "stateMutability": "view",
      "type": "function"
    },
    {
      "inputs": [
        {
          "internalType": "contract IERC20",
          "name": "token_",
          "type": "address"
        },
        {
          "internalType": "address",
          "name": "account_",
          "type": "address"
        }
      ],
      "name": "updateBeforeMintOrBurn",
      "outputs": [],
      "stateMutability": "nonpayable",
      "type": "function"
    },
    {
      "inputs": [
        {
          "internalType": "contract IERC20",
          "name": "token_",
          "type": "address"
        },
        {
          "internalType": "address",
          "name": "from_",
          "type": "address"
        },
        {
          "internalType": "address",
          "name": "to_",
          "type": "address"
        }
      ],
      "name": "updateBeforeTransfer",
      "outputs": [],
      "stateMutability": "nonpayable",
      "type": "function"
    },
    {
      "inputs": [
        {
          "internalType": "contract IERC20",
          "name": "token_",
          "type": "address"
        },
        {
          "internalType": "uint256",
          "name": "newSpeed_",
          "type": "uint256"
        }
      ],
      "name": "updateTokenSpeed",
      "outputs": [],
      "stateMutability": "nonpayable",
      "type": "function"
    },
    {
      "inputs": [
        {
          "internalType": "contract IERC20[]",
          "name": "tokens_",
          "type": "address[]"
        },
        {
          "internalType": "uint256[]",
          "name": "speeds_",
          "type": "uint256[]"
        }
      ],
      "name": "updateTokenSpeeds",
      "outputs": [],
      "stateMutability": "nonpayable",
      "type": "function"
    },
    {
      "stateMutability": "payable",
      "type": "receive"
    }
  ],
  "transactionHash": "0x7efea8a4c2fa1f3262dd4a5941fa7215efd2a7bb9096ae239eb0e2eb3621a238",
  "args": [],
  "numDeployments": 1,
  "solcInputHash": "8f9ac8ece838b75cf20cef638b1903fd",
  "bytecode": "0x608060405234801561001057600080fd5b5061204d806100206000396000f3fe6080604052600436106101185760003560e01c80635d0cde97116100a0578063aa62997511610064578063aa629975146103f8578063b17b23a014610425578063b9afda2d14610445578063ef5cfb8c14610465578063f7c618c11461048557610160565b80635d0cde971461030d57806362c067671461032257806389cb096a14610342578063a0cfa0dd146103ab578063a428d9c8146103d857610160565b806316f0115b116100e757806316f0115b1461026d5780631b30f0c01461028d5780632026ffa3146102ad578063485cc955146102cd5780634f64b2be146102ed57610160565b8063013bc51c1461019f57806301bc3acb146101ea5780630c340a241461020c578063160c3a031461023957610160565b366101605760405162461bcd60e51b81526020600482015260136024820152721c9958d95a5d994b5b9bdd0b585b1b1bddd959606a1b60448201526064015b60405180910390fd5b60405162461bcd60e51b815260206004820152601460248201527319985b1b189858dacb5b9bdd0b585b1b1bddd95960621b6044820152606401610157565b3480156101ab57600080fd5b506101d76101ba3660046119c4565b603860209081526000928352604080842090915290825290205481565b6040519081526020015b60405180910390f35b3480156101f657600080fd5b5061020a610205366004611a49565b6104a5565b005b34801561021857600080fd5b50610221610588565b6040516001600160a01b0390911681526020016101e1565b34801561024557600080fd5b50610255670de0b6b3a764000081565b6040516001600160e01b0390911681526020016101e1565b34801561027957600080fd5b50600254610221906001600160a01b031681565b34801561029957600080fd5b5061020a6102a83660046119c4565b61060a565b3480156102b957600080fd5b5061020a6102c8366004611b94565b610648565b3480156102d957600080fd5b5061020a6102e83660046119c4565b6106ad565b3480156102f957600080fd5b50610221610308366004611be4565b610793565b34801561031957600080fd5b50610255601481565b34801561032e57600080fd5b5061020a61033d366004611bfd565b6107bd565b34801561034e57600080fd5b5061038761035d366004611c3e565b6037602052600090815260409020546001600160e01b03811690600160e01b900463ffffffff1682565b604080516001600160e01b03909316835263ffffffff9091166020830152016101e1565b3480156103b757600080fd5b506101d76103c6366004611c3e565b60366020526000908152604090205481565b3480156103e457600080fd5b5061020a6103f3366004611c5b565b6107f1565b34801561040457600080fd5b506101d7610413366004611c3e565b60396020526000908152604090205481565b34801561043157600080fd5b5061020a610440366004611d13565b610976565b34801561045157600080fd5b5061020a610460366004611d5e565b6109ba565b34801561047157600080fd5b5061020a610480366004611c3e565b6109fc565b34801561049157600080fd5b50603454610221906001600160a01b031681565b6104ad610588565b6001600160a01b0316336001600160a01b0316146104dd5760405162461bcd60e51b815260040161015790611d8a565b8281811461051d5760405162461bcd60e51b815260206004820152600d60248201526c1a5b9d985b1a590b5a5b9c1d5d609a1b6044820152606401610157565b60005b818110156105805761057086868381811061053d5761053d611db0565b90506020020160208101906105529190611c3e565b85858481811061056457610564611db0565b90506020020135610a63565b61057981611ddc565b9050610520565b505050505050565b6002546040805163030d028960e21b815290516000926001600160a01b031691630c340a24916004808301926020929190829003018186803b1580156105cd57600080fd5b505afa1580156105e1573d6000803e3d6000fd5b505050506040513d601f19601f820116820180604052508101906106059190611df7565b905090565b6001600160a01b0382166000908152603760205260409020546001600160e01b0316156106445761063a82610eda565b61064482826110b5565b5050565b60408051600180825281830190925260009160208083019080368337019050509050828160008151811061067e5761067e611db0565b60200260200101906001600160a01b031690816001600160a01b0316815250506106a881836107f1565b505050565b600054610100900460ff16806106c6575060005460ff16155b6106e25760405162461bcd60e51b815260040161015790611e14565b600054610100900460ff16158015610704576000805461ffff19166101011790555b6001600160a01b0382166107515760405162461bcd60e51b81526020600482015260146024820152731c995dd85c990b5d1bdad95b8b5a5ccb5b9d5b1b60621b6044820152606401610157565b61075961122e565b6107628361129d565b603480546001600160a01b0319166001600160a01b03841617905580156106a8576000805461ff0019169055505050565b603581815481106107a357600080fd5b6000918252602090912001546001600160a01b0316905081565b6107c5611371565b6001600160a01b0383166107dd576106a882826113ab565b6106a86001600160a01b03841683836114c4565b600260015414156108445760405162461bcd60e51b815260206004820152601f60248201527f5265656e7472616e637947756172643a207265656e7472616e742063616c6c006044820152606401610157565b60026001558151815160005b818110156108ff57600084828151811061086c5761086c611db0565b6020908102919091018101516001600160a01b038116600090815260379092526040909120549091506001600160e01b0316156108ee576108ac81610eda565b60005b848110156108ec576108da828883815181106108cd576108cd611db0565b60200260200101516110b5565b806108e481611ddc565b9150506108af565b505b506108f881611ddc565b9050610850565b5060005b8281101561096b57600085828151811061091f5761091f611db0565b602002602001015190506109588160396000846001600160a01b03166001600160a01b0316815260200190815260200160002054611516565b508061096381611ddc565b915050610903565b505060018055505050565b6001600160a01b0383166000908152603760205260409020546001600160e01b0316156106a8576109a683610eda565b6109b083836110b5565b6106a883826110b5565b6109c2610588565b6001600160a01b0316336001600160a01b0316146109f25760405162461bcd60e51b815260040161015790611d8a565b6106448282610a63565b610a60816035805480602002602001604051908101604052809291908181526020018280548015610a5657602002820191906000526020600020905b81546001600160a01b03168152600190910190602001808311610a38575b5050505050610648565b50565b600080600260009054906101000a90046001600160a01b03166001600160a01b0316633605b51b6040518163ffffffff1660e01b815260040160006040518083038186803b158015610ab457600080fd5b505afa158015610ac8573d6000803e3d6000fd5b505050506040513d6000823e601f3d908101601f19168201604052610af09190810190611e62565b805190915060005b81811015610b4c57306001600160a01b0316838281518110610b1c57610b1c611db0565b60200260200101516001600160a01b03161415610b3c5760019350610b4c565b610b4581611ddc565b9050610af8565b5082610b925760405162461bcd60e51b8152602060048201526015602482015274191a5cdd1c9a589d5d1bdc8b5b9bdd0b5859191959605a1b6044820152606401610157565b60025460405163020484bb60e11b81526001600160a01b03808816600483015287921690819063040909769060240160206040518083038186803b158015610bd957600080fd5b505afa158015610bed573d6000803e3d6000fd5b505050506040513d601f19601f82011682018060405250810190610c119190611ef1565b80610c905750604051633af5be4760e01b81526001600160a01b038381166004830152821690633af5be479060240160206040518083038186803b158015610c5857600080fd5b505afa158015610c6c573d6000803e3d6000fd5b505050506040513d601f19601f82011682018060405250810190610c909190611ef1565b610ccc5760405162461bcd60e51b815260206004820152600d60248201526c34b73b30b634b216ba37b5b2b760991b6044820152606401610157565b6001600160a01b0387166000908152603660205260409020548015610cf957610cf488610eda565b610e73565b8615610e73576001600160a01b0388166000908152603760205260409020546001600160e01b0316610e2f57603554601411610d775760405162461bcd60e51b815260206004820152601960248201527f726561636865642d6d61782d7265776172642d746f6b656e73000000000000006044820152606401610157565b6040518060400160405280670de0b6b3a76400006001600160e01b03168152602001610da24261161c565b63ffffffff9081169091526001600160a01b038a166000818152603760209081526040822085519590910151909316600160e01b026001600160e01b03909416939093179091556035805460018101825592527fcfa4bec1d3298408bb5afcfcd9c430549c5b31f8aa5c5848151c0a55f473c34d90910180546001600160a01b0319169091179055610e73565b610e384261161c565b6001600160a01b0389166000908152603760205260409020805463ffffffff92909216600160e01b026001600160e01b039092169190911790555b868114610ed0576001600160a01b0388166000818152603660209081526040918290208a905581518481529081018a90527f07295410ddc875d5ff9b778ece2c279c9b91abeefd296803662b28cf6ad33c08910160405180910390a25b5050505050505050565b6001600160a01b03811660009081526037602090815260408083206036909252822054815491929091610f1a90600160e01b900463ffffffff1642611f13565b9050600081118015610f2c5750600082115b15611068576000846001600160a01b03166318160ddd6040518163ffffffff1660e01b815260040160206040518083038186803b158015610f6c57600080fd5b505afa158015610f80573d6000803e3d6000fd5b505050506040513d601f19601f82011682018060405250810190610fa49190611f2a565b90506000610fb28484611f43565b90506000808311610fc4576000610fce565b610fce8284611685565b8654909150600090610fea9083906001600160e01b0316611f62565b90506040518060400160405280611000836116c2565b6001600160e01b031681526020016110174261161c565b63ffffffff9081169091526001600160a01b038a16600090815260376020908152604090912083519390910151909116600160e01b026001600160e01b03909216919091179055506110af92505050565b600081118015611081575082546001600160e01b031615155b156110af5761108f4261161c565b835463ffffffff91909116600160e01b026001600160e01b039091161783555b50505050565b6001600160a01b0382811660009081526037602090815260408083205460388352818420948616845293909152902080546001600160e01b039092169081905590801580156111045750600082115b156111145750670de0b6b3a76400005b60006111208284611f13565b6040516370a0823160e01b81526001600160a01b0386811660048301529192506000916111ab9184918916906370a082319060240160206040518083038186803b15801561116d57600080fd5b505afa158015611181573d6000803e3d6000fd5b505050506040513d601f19601f820116820180604052508101906111a59190611f2a565b9061172b565b6001600160a01b0386166000908152603960205260408120805492935083929091906111d8908490611f62565b909155505060408051828152602081018690526001600160a01b0380881692908916917f49abdf3748a8d465b0d3d5d126dab076f5109ea80b761c4c1c45b2710165087b910160405180910390a3505050505050565b600054610100900460ff1680611247575060005460ff16155b6112635760405162461bcd60e51b815260040161015790611e14565b600054610100900460ff16158015611285576000805461ffff19166101011790555b600180558015610a60576000805461ff001916905550565b600054610100900460ff16806112b6575060005460ff16155b6112d25760405162461bcd60e51b815260040161015790611e14565b600054610100900460ff161580156112f4576000805461ffff19166101011790555b6001600160a01b0382166113415760405162461bcd60e51b8152602060048201526014602482015273706f6f6c2d616464726573732d69732d7a65726f60601b6044820152606401610157565b600280546001600160a01b0319166001600160a01b0384161790558015610644576000805461ff00191690555050565b611379610588565b6001600160a01b0316336001600160a01b0316146113a95760405162461bcd60e51b815260040161015790611d8a565b565b804710156113fb5760405162461bcd60e51b815260206004820152601d60248201527f416464726573733a20696e73756666696369656e742062616c616e63650000006044820152606401610157565b6000826001600160a01b03168260405160006040518083038185875af1925050503d8060008114611448576040519150601f19603f3d011682016040523d82523d6000602084013e61144d565b606091505b50509050806106a85760405162461bcd60e51b815260206004820152603a60248201527f416464726573733a20756e61626c6520746f2073656e642076616c75652c207260448201527f6563697069656e74206d617920686176652072657665727465640000000000006064820152608401610157565b604080516001600160a01b038416602482015260448082018490528251808303909101815260649091019091526020810180516001600160e01b031663a9059cbb60e01b1790526106a8908490611763565b6034546040516370a0823160e01b81523060048201526001600160a01b039091169060009082906370a082319060240160206040518083038186803b15801561155e57600080fd5b505afa158015611572573d6000803e3d6000fd5b505050506040513d601f19601f820116820180604052508101906115969190611f2a565b90506000831180156115a85750808311155b156110af576001600160a01b038085166000908152603960205260408120556115d490831685856114c4565b604080516001600160a01b0386168152602081018590527f106f923f993c2149d49b4255ff723acafa1f2d94393f561d3eda32ae348f7241910160405180910390a150505050565b600063ffffffff8211156116815760405162461bcd60e51b815260206004820152602660248201527f53616665436173743a2076616c756520646f65736e27742066697420696e203360448201526532206269747360d01b6064820152608401610157565b5090565b600081611693600282611f7a565b6116a5670de0b6b3a764000086611f43565b6116af9190611f62565b6116b99190611f7a565b90505b92915050565b60006001600160e01b038211156116815760405162461bcd60e51b815260206004820152602760248201527f53616665436173743a2076616c756520646f65736e27742066697420696e20326044820152663234206269747360c81b6064820152608401610157565b6000821580611738575081155b15611745575060006116bc565b670de0b6b3a7640000611759600282611f7a565b6116a58486611f43565b60006117b8826040518060400160405280602081526020017f5361666545524332303a206c6f772d6c6576656c2063616c6c206661696c6564815250856001600160a01b03166118359092919063ffffffff16565b8051909150156106a857808060200190518101906117d69190611ef1565b6106a85760405162461bcd60e51b815260206004820152602a60248201527f5361666545524332303a204552433230206f7065726174696f6e20646964206e6044820152691bdd081cdd58d8d9595960b21b6064820152608401610157565b6060611844848460008561184e565b90505b9392505050565b6060824710156118af5760405162461bcd60e51b815260206004820152602660248201527f416464726573733a20696e73756666696369656e742062616c616e636520666f6044820152651c8818d85b1b60d21b6064820152608401610157565b843b6118fd5760405162461bcd60e51b815260206004820152601d60248201527f416464726573733a2063616c6c20746f206e6f6e2d636f6e74726163740000006044820152606401610157565b600080866001600160a01b031685876040516119199190611fc8565b60006040518083038185875af1925050503d8060008114611956576040519150601f19603f3d011682016040523d82523d6000602084013e61195b565b606091505b509150915061196b828286611976565b979650505050505050565b60608315611985575081611847565b8251156119955782518084602001fd5b8160405162461bcd60e51b81526004016101579190611fe4565b6001600160a01b0381168114610a6057600080fd5b600080604083850312156119d757600080fd5b82356119e2816119af565b915060208301356119f2816119af565b809150509250929050565b60008083601f840112611a0f57600080fd5b50813567ffffffffffffffff811115611a2757600080fd5b6020830191508360208260051b8501011115611a4257600080fd5b9250929050565b60008060008060408587031215611a5f57600080fd5b843567ffffffffffffffff80821115611a7757600080fd5b611a83888389016119fd565b90965094506020870135915080821115611a9c57600080fd5b50611aa9878288016119fd565b95989497509550505050565b634e487b7160e01b600052604160045260246000fd5b604051601f8201601f1916810167ffffffffffffffff81118282101715611af457611af4611ab5565b604052919050565b600067ffffffffffffffff821115611b1657611b16611ab5565b5060051b60200190565b600082601f830112611b3157600080fd5b81356020611b46611b4183611afc565b611acb565b82815260059290921b84018101918181019086841115611b6557600080fd5b8286015b84811015611b89578035611b7c816119af565b8352918301918301611b69565b509695505050505050565b60008060408385031215611ba757600080fd5b8235611bb2816119af565b9150602083013567ffffffffffffffff811115611bce57600080fd5b611bda85828601611b20565b9150509250929050565b600060208284031215611bf657600080fd5b5035919050565b600080600060608486031215611c1257600080fd5b8335611c1d816119af565b92506020840135611c2d816119af565b929592945050506040919091013590565b600060208284031215611c5057600080fd5b8135611847816119af565b60008060408385031215611c6e57600080fd5b823567ffffffffffffffff80821115611c8657600080fd5b818501915085601f830112611c9a57600080fd5b81356020611caa611b4183611afc565b82815260059290921b84018101918181019089841115611cc957600080fd5b948201945b83861015611cf0578535611ce1816119af565b82529482019490820190611cce565b96505086013592505080821115611d0657600080fd5b50611bda85828601611b20565b600080600060608486031215611d2857600080fd5b8335611d33816119af565b92506020840135611d43816119af565b91506040840135611d53816119af565b809150509250925092565b60008060408385031215611d7157600080fd5b8235611d7c816119af565b946020939093013593505050565b6020808252600c908201526b3737ba16b3b7bb32b93737b960a11b604082015260600190565b634e487b7160e01b600052603260045260246000fd5b634e487b7160e01b600052601160045260246000fd5b6000600019821415611df057611df0611dc6565b5060010190565b600060208284031215611e0957600080fd5b8151611847816119af565b6020808252602e908201527f496e697469616c697a61626c653a20636f6e747261637420697320616c72656160408201526d191e481a5b9a5d1a585b1a5e995960921b606082015260800190565b60006020808385031215611e7557600080fd5b825167ffffffffffffffff811115611e8c57600080fd5b8301601f81018513611e9d57600080fd5b8051611eab611b4182611afc565b81815260059190911b82018301908381019087831115611eca57600080fd5b928401925b8284101561196b578351611ee2816119af565b82529284019290840190611ecf565b600060208284031215611f0357600080fd5b8151801515811461184757600080fd5b600082821015611f2557611f25611dc6565b500390565b600060208284031215611f3c57600080fd5b5051919050565b6000816000190483118215151615611f5d57611f5d611dc6565b500290565b60008219821115611f7557611f75611dc6565b500190565b600082611f9757634e487b7160e01b600052601260045260246000fd5b500490565b60005b83811015611fb7578181015183820152602001611f9f565b838111156110af5750506000910152565b60008251611fda818460208701611f9c565b9190910192915050565b6020815260008251806020840152612003816040850160208701611f9c565b601f01601f1916919091016040019291505056fea26469706673582212204f7d7664623205c6fa5d799b5f3c3a72d0989bb244c2bc4c1d8453c667358dd664736f6c63430008090033",
  "devdoc": {
    "kind": "dev",
    "methods": {
      "sweep(address,address,uint256)": {
        "params": {
          "amount_": "The amount to send",
          "to_": "The recipient of the transfer",
          "token_": "The token to transfer"
        }
      },
      "updateBeforeMintOrBurn(address,address)": {
        "details": "Called by DepositToken and DebtToken contracts"
      },
      "updateBeforeTransfer(address,address,address)": {
        "details": "Called by DepositToken and DebtToken contracts"
      }
    },
    "title": "RewardsDistributor contract",
    "version": 1
  },
  "userdoc": {
    "events": {
      "RewardClaimed(address,uint256)": {
        "notice": "Emitted when reward is claimed"
      },
      "TokenSpeedUpdated(address,uint256,uint256)": {
        "notice": "Emitted when updating token speed"
      },
      "TokensAccruedUpdated(address,address,uint256,uint256)": {
        "notice": "Emitted when updating accrued token"
      }
    },
    "kind": "user",
    "methods": {
      "INITIAL_INDEX()": {
        "notice": "The initial index"
      },
      "MAX_REWARD_TOKENS()": {
        "notice": "Max reward tokens to avoid DoS scenario"
      },
      "accountIndexOf(address,address)": {
        "notice": "The supply index for each token for each account as of the last time they accrued token"
      },
      "claimRewards(address)": {
        "notice": "Claim tokens accrued by account in all tokens"
      },
      "claimRewards(address,address[])": {
        "notice": "Claim tokens accrued by account in the specified tokens"
      },
      "claimRewards(address[],address[])": {
        "notice": "Claim tokens accrued by the accounts in the specified tokens"
      },
      "pool()": {
        "notice": "Pool contract"
      },
      "rewardToken()": {
        "notice": "The token to reward"
      },
      "sweep(address,address,uint256)": {
        "notice": "ERC20 recovery in case of stuck tokens due direct transfers to the contract address."
      },
      "tokenSpeeds(address)": {
        "notice": "The amount of token distributed for each token per second"
      },
      "tokenStates(address)": {
        "notice": "The reward state for each token"
      },
      "tokens(uint256)": {
        "notice": "Track tokens for reward"
      },
      "tokensAccruedOf(address)": {
        "notice": "The token accrued but not yet transferred to each user"
      },
      "updateBeforeMintOrBurn(address,address)": {
        "notice": "Update indexes on pre-mint and pre-burn"
      },
      "updateBeforeTransfer(address,address,address)": {
        "notice": "Update indexes on pre-transfer"
      },
      "updateTokenSpeed(address,uint256)": {
        "notice": "Update speed for a single deposit token"
      },
      "updateTokenSpeeds(address[],uint256[])": {
        "notice": "Update token speeds"
      }
    },
    "version": 1
  },
  "storageLayout": {
    "storage": [
      {
        "astId": 7177,
        "contract": "contracts/RewardsDistributor.sol:RewardsDistributor",
        "label": "_initialized",
        "offset": 0,
        "slot": "0",
        "type": "t_bool"
      },
      {
        "astId": 7180,
        "contract": "contracts/RewardsDistributor.sol:RewardsDistributor",
        "label": "_initializing",
        "offset": 1,
        "slot": "0",
        "type": "t_bool"
      },
      {
        "astId": 7231,
        "contract": "contracts/RewardsDistributor.sol:RewardsDistributor",
        "label": "_status",
        "offset": 0,
        "slot": "1",
        "type": "t_uint256"
      },
      {
        "astId": 6148,
        "contract": "contracts/RewardsDistributor.sol:RewardsDistributor",
        "label": "pool",
        "offset": 0,
        "slot": "2",
        "type": "t_contract(IPool)11091"
      },
      {
        "astId": 6256,
        "contract": "contracts/RewardsDistributor.sol:RewardsDistributor",
        "label": "__gap",
        "offset": 0,
        "slot": "3",
        "type": "t_array(t_uint256)49_storage"
      },
      {
        "astId": 13159,
        "contract": "contracts/RewardsDistributor.sol:RewardsDistributor",
        "label": "rewardToken",
        "offset": 0,
        "slot": "52",
        "type": "t_contract(IERC20)7886"
      },
      {
        "astId": 13164,
        "contract": "contracts/RewardsDistributor.sol:RewardsDistributor",
        "label": "tokens",
        "offset": 0,
        "slot": "53",
        "type": "t_array(t_contract(IERC20)7886)dyn_storage"
      },
      {
        "astId": 13170,
        "contract": "contracts/RewardsDistributor.sol:RewardsDistributor",
        "label": "tokenSpeeds",
        "offset": 0,
        "slot": "54",
        "type": "t_mapping(t_contract(IERC20)7886,t_uint256)"
      },
      {
        "astId": 13177,
        "contract": "contracts/RewardsDistributor.sol:RewardsDistributor",
        "label": "tokenStates",
        "offset": 0,
        "slot": "55",
        "type": "t_mapping(t_contract(IERC20)7886,t_struct(TokenState)13155_storage)"
      },
      {
        "astId": 13185,
        "contract": "contracts/RewardsDistributor.sol:RewardsDistributor",
        "label": "accountIndexOf",
        "offset": 0,
        "slot": "56",
        "type": "t_mapping(t_contract(IERC20)7886,t_mapping(t_address,t_uint256))"
      },
      {
        "astId": 13190,
        "contract": "contracts/RewardsDistributor.sol:RewardsDistributor",
        "label": "tokensAccruedOf",
        "offset": 0,
        "slot": "57",
        "type": "t_mapping(t_address,t_uint256)"
      }
    ],
    "types": {
      "t_address": {
        "encoding": "inplace",
        "label": "address",
        "numberOfBytes": "20"
      },
      "t_array(t_contract(IERC20)7886)dyn_storage": {
        "base": "t_contract(IERC20)7886",
        "encoding": "dynamic_array",
        "label": "contract IERC20[]",
        "numberOfBytes": "32"
      },
      "t_array(t_uint256)49_storage": {
        "base": "t_uint256",
        "encoding": "inplace",
        "label": "uint256[49]",
        "numberOfBytes": "1568"
      },
      "t_bool": {
        "encoding": "inplace",
        "label": "bool",
        "numberOfBytes": "1"
      },
      "t_contract(IERC20)7886": {
        "encoding": "inplace",
        "label": "contract IERC20",
        "numberOfBytes": "20"
      },
      "t_contract(IPool)11091": {
        "encoding": "inplace",
        "label": "contract IPool",
        "numberOfBytes": "20"
      },
      "t_mapping(t_address,t_uint256)": {
        "encoding": "mapping",
        "key": "t_address",
        "label": "mapping(address => uint256)",
        "numberOfBytes": "32",
        "value": "t_uint256"
      },
      "t_mapping(t_contract(IERC20)7886,t_mapping(t_address,t_uint256))": {
        "encoding": "mapping",
        "key": "t_contract(IERC20)7886",
        "label": "mapping(contract IERC20 => mapping(address => uint256))",
        "numberOfBytes": "32",
        "value": "t_mapping(t_address,t_uint256)"
      },
      "t_mapping(t_contract(IERC20)7886,t_struct(TokenState)13155_storage)": {
        "encoding": "mapping",
        "key": "t_contract(IERC20)7886",
        "label": "mapping(contract IERC20 => struct RewardsDistributorStorageV1.TokenState)",
        "numberOfBytes": "32",
        "value": "t_struct(TokenState)13155_storage"
      },
      "t_mapping(t_contract(IERC20)7886,t_uint256)": {
        "encoding": "mapping",
        "key": "t_contract(IERC20)7886",
        "label": "mapping(contract IERC20 => uint256)",
        "numberOfBytes": "32",
        "value": "t_uint256"
      },
      "t_struct(TokenState)13155_storage": {
        "encoding": "inplace",
        "label": "struct RewardsDistributorStorageV1.TokenState",
        "members": [
          {
            "astId": 13152,
            "contract": "contracts/RewardsDistributor.sol:RewardsDistributor",
            "label": "index",
            "offset": 0,
            "slot": "0",
            "type": "t_uint224"
          },
          {
            "astId": 13154,
            "contract": "contracts/RewardsDistributor.sol:RewardsDistributor",
            "label": "timestamp",
            "offset": 28,
            "slot": "0",
            "type": "t_uint32"
          }
        ],
        "numberOfBytes": "32"
      },
      "t_uint224": {
        "encoding": "inplace",
        "label": "uint224",
        "numberOfBytes": "28"
      },
      "t_uint256": {
        "encoding": "inplace",
        "label": "uint256",
        "numberOfBytes": "32"
      },
      "t_uint32": {
        "encoding": "inplace",
        "label": "uint32",
        "numberOfBytes": "4"
      }
    }
  }
}