{
  "address": "0xF68431Ee10b20A4F8d0C23592e7bbd22a3124A53",
  "abi": [
    {
      "inputs": [],
      "stateMutability": "nonpayable",
      "type": "constructor"
    },
    {
      "inputs": [],
      "name": "AddressIsNull",
      "type": "error"
    },
    {
      "inputs": [],
      "name": "ArraysLengthDoNotMatch",
      "type": "error"
    },
    {
      "inputs": [],
      "name": "DistributorDoesNotExist",
      "type": "error"
    },
    {
      "inputs": [],
      "name": "InvalidToken",
      "type": "error"
    },
    {
      "inputs": [],
      "name": "NotTokenSpeedKeeper",
      "type": "error"
    },
    {
      "inputs": [],
      "name": "PoolAddressIsNull",
      "type": "error"
    },
    {
      "inputs": [],
      "name": "ReachedMaxRewardTokens",
      "type": "error"
    },
    {
      "inputs": [],
      "name": "RewardTokenIsNull",
      "type": "error"
    },
    {
      "inputs": [],
      "name": "SenderIsNotGovernor",
      "type": "error"
    },
    {
      "anonymous": false,
      "inputs": [
        {
          "indexed": false,
          "internalType": "uint8",
          "name": "version",
          "type": "uint8"
        }
      ],
      "name": "Initialized",
      "type": "event"
    },
    {
      "anonymous": false,
      "inputs": [
        {
          "indexed": true,
          "internalType": "address",
          "name": "account",
          "type": "address"
        },
        {
          "indexed": false,
          "internalType": "uint256",
          "name": "amount",
          "type": "uint256"
        }
      ],
      "name": "RewardClaimed",
      "type": "event"
    },
    {
      "anonymous": false,
      "inputs": [
        {
          "indexed": false,
          "internalType": "uint224",
          "name": "newIndex",
          "type": "uint224"
        },
        {
          "indexed": false,
          "internalType": "uint32",
          "name": "newTimestamp",
          "type": "uint32"
        }
      ],
      "name": "TokenIndexUpdated",
      "type": "event"
    },
    {
      "anonymous": false,
      "inputs": [
        {
          "indexed": true,
          "internalType": "contract IERC20",
          "name": "token",
          "type": "address"
        },
        {
          "indexed": false,
          "internalType": "uint256",
          "name": "oldSpeed",
          "type": "uint256"
        },
        {
          "indexed": false,
          "internalType": "uint256",
          "name": "newSpeed",
          "type": "uint256"
        }
      ],
      "name": "TokenSpeedUpdated",
      "type": "event"
    },
    {
      "anonymous": false,
      "inputs": [
        {
          "indexed": true,
          "internalType": "contract IERC20",
          "name": "token",
          "type": "address"
        },
        {
          "indexed": true,
          "internalType": "address",
          "name": "account",
          "type": "address"
        },
        {
          "indexed": false,
          "internalType": "uint256",
          "name": "tokensDelta",
          "type": "uint256"
        },
        {
          "indexed": false,
          "internalType": "uint256",
          "name": "supplyIndex",
          "type": "uint256"
        }
      ],
      "name": "TokensAccruedUpdated",
      "type": "event"
    },
    {
      "inputs": [],
      "name": "INITIAL_INDEX",
      "outputs": [
        {
          "internalType": "uint224",
          "name": "",
          "type": "uint224"
        }
      ],
      "stateMutability": "view",
      "type": "function"
    },
    {
      "inputs": [],
      "name": "MAX_REWARD_TOKENS",
      "outputs": [
        {
          "internalType": "uint224",
          "name": "",
          "type": "uint224"
        }
      ],
      "stateMutability": "view",
      "type": "function"
    },
    {
      "inputs": [],
      "name": "VERSION",
      "outputs": [
        {
          "internalType": "string",
          "name": "",
          "type": "string"
        }
      ],
      "stateMutability": "view",
      "type": "function"
    },
    {
      "inputs": [
        {
          "internalType": "contract IERC20",
          "name": "",
          "type": "address"
        },
        {
          "internalType": "address",
          "name": "",
          "type": "address"
        }
      ],
      "name": "accountIndexOf",
      "outputs": [
        {
          "internalType": "uint256",
          "name": "",
          "type": "uint256"
        }
      ],
      "stateMutability": "view",
      "type": "function"
    },
    {
      "inputs": [
        {
          "internalType": "address",
          "name": "account_",
          "type": "address"
        },
        {
          "internalType": "contract IERC20[]",
          "name": "tokens_",
          "type": "address[]"
        }
      ],
      "name": "claimRewards",
      "outputs": [],
      "stateMutability": "nonpayable",
      "type": "function"
    },
    {
      "inputs": [
        {
          "internalType": "address[]",
          "name": "accounts_",
          "type": "address[]"
        },
        {
          "internalType": "contract IERC20[]",
          "name": "tokens_",
          "type": "address[]"
        }
      ],
      "name": "claimRewards",
      "outputs": [],
      "stateMutability": "nonpayable",
      "type": "function"
    },
    {
      "inputs": [
        {
          "internalType": "address",
          "name": "account_",
          "type": "address"
        }
      ],
      "name": "claimRewards",
      "outputs": [],
      "stateMutability": "nonpayable",
      "type": "function"
    },
    {
      "inputs": [
        {
          "internalType": "address",
          "name": "account_",
          "type": "address"
        }
      ],
      "name": "claimable",
      "outputs": [
        {
          "internalType": "uint256",
          "name": "_claimable",
          "type": "uint256"
        }
      ],
      "stateMutability": "view",
      "type": "function"
    },
    {
      "inputs": [
        {
          "internalType": "address",
          "name": "",
          "type": "address"
        },
        {
          "internalType": "contract IERC20",
          "name": "",
          "type": "address"
        }
      ],
      "name": "claimable",
      "outputs": [
        {
          "internalType": "uint256",
          "name": "",
          "type": "uint256"
        }
      ],
      "stateMutability": "view",
      "type": "function"
    },
    {
      "inputs": [],
      "name": "governor",
      "outputs": [
        {
          "internalType": "address",
          "name": "_governor",
          "type": "address"
        }
      ],
      "stateMutability": "view",
      "type": "function"
    },
    {
      "inputs": [
        {
          "internalType": "contract IPool",
          "name": "pool_",
          "type": "address"
        },
        {
          "internalType": "contract IERC20",
          "name": "rewardToken_",
          "type": "address"
        }
      ],
      "name": "initialize",
      "outputs": [],
      "stateMutability": "nonpayable",
      "type": "function"
    },
    {
      "inputs": [],
      "name": "pool",
      "outputs": [
        {
          "internalType": "contract IPool",
          "name": "",
          "type": "address"
        }
      ],
      "stateMutability": "view",
      "type": "function"
    },
    {
      "inputs": [],
      "name": "rewardToken",
      "outputs": [
        {
          "internalType": "contract IERC20",
          "name": "",
          "type": "address"
        }
      ],
      "stateMutability": "view",
      "type": "function"
    },
    {
      "inputs": [
        {
          "internalType": "contract IDepositToken",
          "name": "depositToken_",
          "type": "address"
        }
      ],
      "name": "syncTokenSpeed",
      "outputs": [],
      "stateMutability": "nonpayable",
      "type": "function"
    },
    {
      "inputs": [],
      "name": "tokenSpeedKeeper",
      "outputs": [
        {
          "internalType": "address",
          "name": "",
          "type": "address"
        }
      ],
      "stateMutability": "view",
      "type": "function"
    },
    {
      "inputs": [
        {
          "internalType": "contract IERC20",
          "name": "",
          "type": "address"
        }
      ],
      "name": "tokenSpeeds",
      "outputs": [
        {
          "internalType": "uint256",
          "name": "",
          "type": "uint256"
        }
      ],
      "stateMutability": "view",
      "type": "function"
    },
    {
      "inputs": [
        {
          "internalType": "contract IERC20",
          "name": "",
          "type": "address"
        }
      ],
      "name": "tokenStates",
      "outputs": [
        {
          "internalType": "uint224",
          "name": "index",
          "type": "uint224"
        },
        {
          "internalType": "uint32",
          "name": "timestamp",
          "type": "uint32"
        }
      ],
      "stateMutability": "view",
      "type": "function"
    },
    {
      "inputs": [
        {
          "internalType": "uint256",
          "name": "",
          "type": "uint256"
        }
      ],
      "name": "tokens",
      "outputs": [
        {
          "internalType": "contract IERC20",
          "name": "",
          "type": "address"
        }
      ],
      "stateMutability": "view",
      "type": "function"
    },
    {
      "inputs": [
        {
          "internalType": "address",
          "name": "",
          "type": "address"
        }
      ],
      "name": "tokensAccruedOf",
      "outputs": [
        {
          "internalType": "uint256",
          "name": "",
          "type": "uint256"
        }
      ],
      "stateMutability": "view",
      "type": "function"
    },
    {
      "inputs": [
        {
          "internalType": "contract IERC20",
          "name": "token_",
          "type": "address"
        },
        {
          "internalType": "address",
          "name": "account_",
          "type": "address"
        }
      ],
      "name": "updateBeforeMintOrBurn",
      "outputs": [],
      "stateMutability": "nonpayable",
      "type": "function"
    },
    {
      "inputs": [
        {
          "internalType": "contract IERC20",
          "name": "token_",
          "type": "address"
        },
        {
          "internalType": "address",
          "name": "from_",
          "type": "address"
        },
        {
          "internalType": "address",
          "name": "to_",
          "type": "address"
        }
      ],
      "name": "updateBeforeTransfer",
      "outputs": [],
      "stateMutability": "nonpayable",
      "type": "function"
    },
    {
      "inputs": [
        {
          "internalType": "contract IERC20",
          "name": "token_",
          "type": "address"
        },
        {
          "internalType": "uint256",
          "name": "newSpeed_",
          "type": "uint256"
        }
      ],
      "name": "updateTokenSpeed",
      "outputs": [],
      "stateMutability": "nonpayable",
      "type": "function"
    },
    {
      "inputs": [
        {
          "internalType": "address",
          "name": "keeper_",
          "type": "address"
        }
      ],
      "name": "updateTokenSpeedKeeper",
      "outputs": [],
      "stateMutability": "nonpayable",
      "type": "function"
    },
    {
      "inputs": [
        {
          "internalType": "contract IERC20[]",
          "name": "tokens_",
          "type": "address[]"
        },
        {
          "internalType": "uint256[]",
          "name": "speeds_",
          "type": "uint256[]"
        }
      ],
      "name": "updateTokenSpeeds",
      "outputs": [],
      "stateMutability": "nonpayable",
      "type": "function"
    }
  ],
  "transactionHash": "0xdab925a27649dbadfe58ee7f418a2cc2850de160800db460790d010be309f0ed",
  "args": [],
  "numDeployments": 4,
  "solcInputHash": "545cb6254fd08cfae8ffa56eab2faa67",
  "bytecode": "0x60806040523480156200001157600080fd5b506200001c62000022565b62000152565b6200002e60ff62000031565b50565b60008054610100900460ff1615620000ca578160ff1660011480156200006a575062000068306200014360201b62000d8c1760201c565b155b620000c25760405162461bcd60e51b815260206004820152602e60248201526000805160206200253983398151915260448201526d191e481a5b9a5d1a585b1a5e995960921b60648201526084015b60405180910390fd5b506000919050565b60005460ff808416911610620001295760405162461bcd60e51b815260206004820152602e60248201526000805160206200253983398151915260448201526d191e481a5b9a5d1a585b1a5e995960921b6064820152608401620000b9565b506000805460ff191660ff92909216919091179055600190565b6001600160a01b03163b151590565b6123d780620001626000396000f3fe608060405234801561001057600080fd5b50600436106101585760003560e01c80634f64b2be116100c3578063b17b23a01161007c578063b17b23a014610343578063b9afda2d14610356578063d4570c1c14610369578063ef5cfb8c1461037c578063f7c618c11461038f578063ffa1ad74146103a257600080fd5b80634f64b2be1461028f5780635d0cde97146102a257806389cb096a146102aa578063a0cfa0dd146102f0578063a428d9c814610310578063aa6299751461032357600080fd5b80631b30f0c0116101155780631b30f0c01461021d5780632026ffa3146102305780633ddc9ce314610243578063402914f514610256578063485cc955146102695780634b38585a1461027c57600080fd5b8063013bc51c1461015d57806301bc3acb1461019b57806306b997ea146101b05780630c340a24146101db578063160c3a03146101e357806316f0115b1461020a575b600080fd5b61018861016b366004611d4b565b603860209081526000928352604080842090915290825290205481565b6040519081526020015b60405180910390f35b6101ae6101a9366004611dd0565b6103d3565b005b603a546101c3906001600160a01b031681565b6040516001600160a01b039091168152602001610192565b6101c3610498565b6101f2670de0b6b3a764000081565b6040516001600160e01b039091168152602001610192565b6002546101c3906001600160a01b031681565b6101ae61022b366004611d4b565b61051a565b6101ae61023e366004611f1b565b610558565b6101ae610251366004611f6b565b6105bd565b610188610264366004611f6b565b6108f6565b6101ae610277366004611d4b565b61096e565b6101ae61028a366004611f6b565b610a2f565b6101c361029d366004611f88565b610ab1565b6101f2601481565b6102e26102b8366004611f6b565b6037602052600090815260409020546001600160e01b03811690600160e01b900463ffffffff1682565b604051610192929190611fa1565b6101886102fe366004611f6b565b60366020526000908152604090205481565b6101ae61031e366004611fc0565b610adb565b610188610331366004611f6b565b60396020526000908152604090205481565b6101ae610351366004612078565b610c65565b6101ae6103643660046120c3565b610ca9565b610188610377366004611d4b565b610cec565b6101ae61038a366004611f6b565b610d25565b6034546101c3906001600160a01b031681565b6103c6604051806040016040528060058152602001640312e332e360dc1b81525081565b604051610192919061211b565b6103db610498565b6001600160a01b0316336001600160a01b03161461040c57604051634b98449160e11b815260040160405180910390fd5b8281811461042d57604051631dc1520760e31b815260040160405180910390fd5b60005b818110156104905761048086868381811061044d5761044d61214e565b90506020020160208101906104629190611f6b565b8585848181106104745761047461214e565b90506020020135610d9b565b6104898161217a565b9050610430565b505050505050565b6002546040805163030d028960e21b815290516000926001600160a01b031691630c340a24916004808301926020929190829003018186803b1580156104dd57600080fd5b505afa1580156104f1573d6000803e3d6000fd5b505050506040513d601f19601f820116820180604052508101906105159190612195565b905090565b6001600160a01b0382166000908152603760205260409020546001600160e01b0316156105545761054a826111a3565b61055482826112e6565b5050565b60408051600180825281830190925260009160208083019080368337019050509050828160008151811061058e5761058e61214e565b60200260200101906001600160a01b031690816001600160a01b0316815250506105b88183610adb565b505050565b603a546001600160a01b031633146105e8576040516355bbb60960e11b815260040160405180910390fd5b6000816001600160a01b0316636f307dc36040518163ffffffff1660e01b815260040160206040518083038186803b15801561062357600080fd5b505afa158015610637573d6000803e3d6000fd5b505050506040513d601f19601f8201168201806040525081019061065b9190612195565b90506000816001600160a01b0316638bc6beb26040518163ffffffff1660e01b815260040160206040518083038186803b15801561069857600080fd5b505afa1580156106ac573d6000803e3d6000fd5b505050506040513d601f19601f820116820180604052508101906106d09190612195565b90506000826001600160a01b03166318160ddd6040518163ffffffff1660e01b815260040160206040518083038186803b15801561070d57600080fd5b505afa158015610721573d6000803e3d6000fd5b505050506040513d601f19601f8201168201806040525081019061074591906121b2565b836001600160a01b03166370a08231600260009054906101000a90046001600160a01b03166001600160a01b03166361d027b36040518163ffffffff1660e01b815260040160206040518083038186803b1580156107a257600080fd5b505afa1580156107b6573d6000803e3d6000fd5b505050506040513d601f19601f820116820180604052508101906107da9190612195565b6040516001600160e01b031960e084901b1681526001600160a01b03909116600482015260240160206040518083038186803b15801561081957600080fd5b505afa15801561082d573d6000803e3d6000fd5b505050506040513d601f19601f8201168201806040525081019061085191906121b2565b603454604051633d3b260360e01b81526001600160a01b03918216600482015290851690633d3b260390602401602060405180830381600087803b15801561089857600080fd5b505af11580156108ac573d6000803e3d6000fd5b505050506040513d601f19601f820116820180604052508101906108d091906121b2565b6108da91906121cb565b6108e491906121ea565b90506108f08482610d9b565b50505050565b6001600160a01b038116600090815260396020526040812054905b6035548110156109685761094c83603583815481106109325761093261214e565b6000918252602090912001546001600160a01b03166113da565b610956908361220c565b91506109618161217a565b9050610911565b50919050565b600061097a60016114ac565b90508015610992576000805461ff0019166101001790555b6001600160a01b0382166109b957604051636d4b163760e11b815260040160405180910390fd5b6109c1611534565b6109ca83611565565b603480546001600160a01b0319166001600160a01b03841617905580156105b8576000805461ff0019169055604051600181527f7f26b83ff96e1f2b6a682f133852f6798a09c465da95921460cefb38474024989060200160405180910390a1505050565b610a37610498565b6001600160a01b0316336001600160a01b031614610a6857604051634b98449160e11b815260040160405180910390fd5b6001600160a01b038116610a8f5760405163fb7566d760e01b815260040160405180910390fd5b603a80546001600160a01b0319166001600160a01b0392909216919091179055565b60358181548110610ac157600080fd5b6000918252602090912001546001600160a01b0316905081565b60026001541415610b335760405162461bcd60e51b815260206004820152601f60248201527f5265656e7472616e637947756172643a207265656e7472616e742063616c6c0060448201526064015b60405180910390fd5b60026001558151815160005b81811015610bee576000848281518110610b5b57610b5b61214e565b6020908102919091018101516001600160a01b038116600090815260379092526040909120549091506001600160e01b031615610bdd57610b9b816111a3565b60005b84811015610bdb57610bc982888381518110610bbc57610bbc61214e565b60200260200101516112e6565b80610bd38161217a565b915050610b9e565b505b50610be78161217a565b9050610b3f565b5060005b82811015610c5a576000858281518110610c0e57610c0e61214e565b60200260200101519050610c478160396000846001600160a01b03166001600160a01b03168152602001908152602001600020546115d5565b5080610c528161217a565b915050610bf2565b505060018055505050565b6001600160a01b0383166000908152603760205260409020546001600160e01b0316156105b857610c95836111a3565b610c9f83836112e6565b6105b883826112e6565b610cb1610498565b6001600160a01b0316336001600160a01b031614610ce257604051634b98449160e11b815260040160405180910390fd5b6105548282610d9b565b60405162461bcd60e51b815260206004820152600b60248201526a155b9cdd5c1c1bdc9d195960aa1b6044820152600090606401610b2a565b610d89816035805480602002602001604051908101604052809291908181526020018280548015610d7f57602002820191906000526020600020905b81546001600160a01b03168152600190910190602001808311610d61575b5050505050610558565b50565b6001600160a01b03163b151590565b600080600260009054906101000a90046001600160a01b03166001600160a01b0316633605b51b6040518163ffffffff1660e01b815260040160006040518083038186803b158015610dec57600080fd5b505afa158015610e00573d6000803e3d6000fd5b505050506040513d6000823e601f3d908101601f19168201604052610e289190810190612224565b805190915060005b81811015610e8457306001600160a01b0316838281518110610e5457610e5461214e565b60200260200101516001600160a01b03161415610e745760019350610e84565b610e7d8161217a565b9050610e30565b5082610ea357604051634757a01f60e01b815260040160405180910390fd5b6002546040516308a00b1f60e31b81526001600160a01b03808816600483015287921690819063450058f89060240160206040518083038186803b158015610eea57600080fd5b505afa158015610efe573d6000803e3d6000fd5b505050506040513d601f19601f82011682018060405250810190610f2291906122b3565b158015610fa55750604051633e25dee160e21b81526001600160a01b03838116600483015282169063f8977b849060240160206040518083038186803b158015610f6b57600080fd5b505afa158015610f7f573d6000803e3d6000fd5b505050506040513d601f19601f82011682018060405250810190610fa391906122b3565b155b15610fc35760405163c1ab6dc160e01b815260040160405180910390fd5b6001600160a01b0387166000908152603660205260409020548015610ff057610feb886111a3565b61113c565b861561113c576001600160a01b0388166000908152603760205260409020546001600160e01b03166110f8576035546014141561104057604051639e8b4a2160e01b815260040160405180910390fd5b6040518060400160405280670de0b6b3a76400006001600160e01b0316815260200161106b426116dc565b63ffffffff9081169091526001600160a01b038a166000818152603760209081526040822085519590910151909316600160e01b026001600160e01b03909416939093179091556035805460018101825592527fcfa4bec1d3298408bb5afcfcd9c430549c5b31f8aa5c5848151c0a55f473c34d90910180546001600160a01b031916909117905561113c565b611101426116dc565b6001600160a01b0389166000908152603760205260409020805463ffffffff92909216600160e01b026001600160e01b039092169190911790555b868114611199576001600160a01b0388166000818152603660209081526040918290208a905581518481529081018a90527f07295410ddc875d5ff9b778ece2c279c9b91abeefd296803662b28cf6ad33c08910160405180910390a25b5050505050505050565b6001600160a01b0381166000908152603760209081526040808320815180830190925280546001600160e01b0381168352600160e01b900463ffffffff169282019290925290919081906111f79085611745565b915091506000826001600160e01b031611801561121a575060008163ffffffff16115b156112785763ffffffff8116600160e01b026001600160e01b0383161783556040517f883d8b44a1f0e651bb0d11a8e962de03c77a351328bbeb12b702e5632288ee6f9061126b9084908490611fa1565b60405180910390a16108f0565b63ffffffff8116156108f057825463ffffffff8216600160e01b026001600160e01b0391821681811786556040517f883d8b44a1f0e651bb0d11a8e962de03c77a351328bbeb12b702e5632288ee6f936112d89316909117908490611fa1565b60405180910390a150505050565b6001600160a01b03821660009081526037602090815260408083208151808301909252546001600160e01b0381168252600160e01b900463ffffffff16918101919091528190611337908585611898565b6001600160a01b0380871660009081526038602090815260408083209389168352928152828220859055603990522054919350915061137790829061220c565b6001600160a01b038481166000818152603960209081526040918290209490945580518581529384018690529092918716917f49abdf3748a8d465b0d3d5d126dab076f5109ea80b761c4c1c45b2710165087b910160405180910390a350505050565b6001600160a01b03811660009081526037602090815260408083208151808301909252546001600160e01b0381168252600160e01b900463ffffffff1691810191909152818061142a8386611745565b915091506000826001600160e01b031611801561144d575060008163ffffffff16115b1561147d576040518060400160405280836001600160e01b031681526020018263ffffffff168152509250611496565b63ffffffff8116156114965763ffffffff811660208401525b6114a1838688611898565b979650505050505050565b60008054610100900460ff16156114f3578160ff1660011480156114cf5750303b155b6114eb5760405162461bcd60e51b8152600401610b2a906122d5565b506000919050565b60005460ff80841691161061151a5760405162461bcd60e51b8152600401610b2a906122d5565b506000805460ff191660ff92909216919091179055600190565b600054610100900460ff1661155b5760405162461bcd60e51b8152600401610b2a90612323565b611563611994565b565b600054610100900460ff1661158c5760405162461bcd60e51b8152600401610b2a90612323565b6001600160a01b0381166115b35760405163724f500960e01b815260040160405180910390fd5b600280546001600160a01b0319166001600160a01b0392909216919091179055565b6034546040516370a0823160e01b81523060048201526001600160a01b039091169060009082906370a082319060240160206040518083038186803b15801561161d57600080fd5b505afa158015611631573d6000803e3d6000fd5b505050506040513d601f19601f8201168201806040525081019061165591906121b2565b90506000831180156116675750808311155b156108f0576001600160a01b0380851660009081526039602052604081205561169390831685856119c1565b836001600160a01b03167f106f923f993c2149d49b4255ff723acafa1f2d94393f561d3eda32ae348f7241846040516116ce91815260200190565b60405180910390a250505050565b600063ffffffff8211156117415760405162461bcd60e51b815260206004820152602660248201527f53616665436173743a2076616c756520646f65736e27742066697420696e203360448201526532206269747360d01b6064820152608401610b2a565b5090565b6001600160a01b03811660009081526036602090815260408220549084015182919082906117799063ffffffff164261236e565b905060008111801561178b5750600082115b15611865576000856001600160a01b03166318160ddd6040518163ffffffff1660e01b815260040160206040518083038186803b1580156117cb57600080fd5b505afa1580156117df573d6000803e3d6000fd5b505050506040513d601f19601f8201168201806040525081019061180391906121b2565b9050600061181184846121cb565b9050600080831161182357600061182d565b61182d8284611a13565b9050611850818a600001516001600160e01b031661184b919061220c565b611a50565b965061185b426116dc565b955050505061188f565b60008111801561187e575085516001600160e01b031615155b1561188f5761188c426116dc565b92505b50509250929050565b82516001600160a01b0380841660009081526038602090815260408083209386168352929052908120546001600160e01b0390921691801580156118e35750670de0b6b3a764000083115b156118f35750670de0b6b3a76400005b60006118ff828561236e565b6040516370a0823160e01b81526001600160a01b038781166004830152919250611988918391908916906370a082319060240160206040518083038186803b15801561194a57600080fd5b505afa15801561195e573d6000803e3d6000fd5b505050506040513d601f19601f8201168201806040525081019061198291906121b2565b90611ab9565b92505050935093915050565b600054610100900460ff166119bb5760405162461bcd60e51b8152600401610b2a90612323565b60018055565b604080516001600160a01b038416602482015260448082018490528251808303909101815260649091019091526020810180516001600160e01b031663a9059cbb60e01b1790526105b8908490611af1565b600081611a216002826121ea565b611a33670de0b6b3a7640000866121cb565b611a3d919061220c565b611a4791906121ea565b90505b92915050565b60006001600160e01b038211156117415760405162461bcd60e51b815260206004820152602760248201527f53616665436173743a2076616c756520646f65736e27742066697420696e20326044820152663234206269747360c81b6064820152608401610b2a565b6000821580611ac6575081155b15611ad357506000611a4a565b670de0b6b3a7640000611ae76002826121ea565b611a3384866121cb565b6000611b46826040518060400160405280602081526020017f5361666545524332303a206c6f772d6c6576656c2063616c6c206661696c6564815250856001600160a01b0316611bc39092919063ffffffff16565b8051909150156105b85780806020019051810190611b6491906122b3565b6105b85760405162461bcd60e51b815260206004820152602a60248201527f5361666545524332303a204552433230206f7065726174696f6e20646964206e6044820152691bdd081cdd58d8d9595960b21b6064820152608401610b2a565b6060611bd28484600085611bdc565b90505b9392505050565b606082471015611c3d5760405162461bcd60e51b815260206004820152602660248201527f416464726573733a20696e73756666696369656e742062616c616e636520666f6044820152651c8818d85b1b60d21b6064820152608401610b2a565b6001600160a01b0385163b611c945760405162461bcd60e51b815260206004820152601d60248201527f416464726573733a2063616c6c20746f206e6f6e2d636f6e74726163740000006044820152606401610b2a565b600080866001600160a01b03168587604051611cb09190612385565b60006040518083038185875af1925050503d8060008114611ced576040519150601f19603f3d011682016040523d82523d6000602084013e611cf2565b606091505b50915091506114a182828660608315611d0c575081611bd5565b825115611d1c5782518084602001fd5b8160405162461bcd60e51b8152600401610b2a919061211b565b6001600160a01b0381168114610d8957600080fd5b60008060408385031215611d5e57600080fd5b8235611d6981611d36565b91506020830135611d7981611d36565b809150509250929050565b60008083601f840112611d9657600080fd5b50813567ffffffffffffffff811115611dae57600080fd5b6020830191508360208260051b8501011115611dc957600080fd5b9250929050565b60008060008060408587031215611de657600080fd5b843567ffffffffffffffff80821115611dfe57600080fd5b611e0a88838901611d84565b90965094506020870135915080821115611e2357600080fd5b50611e3087828801611d84565b95989497509550505050565b634e487b7160e01b600052604160045260246000fd5b604051601f8201601f1916810167ffffffffffffffff81118282101715611e7b57611e7b611e3c565b604052919050565b600067ffffffffffffffff821115611e9d57611e9d611e3c565b5060051b60200190565b600082601f830112611eb857600080fd5b81356020611ecd611ec883611e83565b611e52565b82815260059290921b84018101918181019086841115611eec57600080fd5b8286015b84811015611f10578035611f0381611d36565b8352918301918301611ef0565b509695505050505050565b60008060408385031215611f2e57600080fd5b8235611f3981611d36565b9150602083013567ffffffffffffffff811115611f5557600080fd5b611f6185828601611ea7565b9150509250929050565b600060208284031215611f7d57600080fd5b8135611bd581611d36565b600060208284031215611f9a57600080fd5b5035919050565b6001600160e01b0392909216825263ffffffff16602082015260400190565b60008060408385031215611fd357600080fd5b823567ffffffffffffffff80821115611feb57600080fd5b818501915085601f830112611fff57600080fd5b8135602061200f611ec883611e83565b82815260059290921b8401810191818101908984111561202e57600080fd5b948201945b8386101561205557853561204681611d36565b82529482019490820190612033565b9650508601359250508082111561206b57600080fd5b50611f6185828601611ea7565b60008060006060848603121561208d57600080fd5b833561209881611d36565b925060208401356120a881611d36565b915060408401356120b881611d36565b809150509250925092565b600080604083850312156120d657600080fd5b82356120e181611d36565b946020939093013593505050565b60005b8381101561210a5781810151838201526020016120f2565b838111156108f05750506000910152565b602081526000825180602084015261213a8160408501602087016120ef565b601f01601f19169190910160400192915050565b634e487b7160e01b600052603260045260246000fd5b634e487b7160e01b600052601160045260246000fd5b600060001982141561218e5761218e612164565b5060010190565b6000602082840312156121a757600080fd5b8151611bd581611d36565b6000602082840312156121c457600080fd5b5051919050565b60008160001904831182151516156121e5576121e5612164565b500290565b60008261220757634e487b7160e01b600052601260045260246000fd5b500490565b6000821982111561221f5761221f612164565b500190565b6000602080838503121561223757600080fd5b825167ffffffffffffffff81111561224e57600080fd5b8301601f8101851361225f57600080fd5b805161226d611ec882611e83565b81815260059190911b8201830190838101908783111561228c57600080fd5b928401925b828410156114a15783516122a481611d36565b82529284019290840190612291565b6000602082840312156122c557600080fd5b81518015158114611bd557600080fd5b6020808252602e908201527f496e697469616c697a61626c653a20636f6e747261637420697320616c72656160408201526d191e481a5b9a5d1a585b1a5e995960921b606082015260800190565b6020808252602b908201527f496e697469616c697a61626c653a20636f6e7472616374206973206e6f74206960408201526a6e697469616c697a696e6760a81b606082015260800190565b60008282101561238057612380612164565b500390565b600082516123978184602087016120ef565b919091019291505056fea26469706673582212206fc0161455f2049672db6de648bd7eda876d1a805daf91f61208891c6d635f1e64736f6c63430008090033496e697469616c697a61626c653a20636f6e747261637420697320616c726561",
  "devdoc": {
    "kind": "dev",
    "methods": {
      "claimable(address,address)": {
        "details": "Removing this function will change interface and will result updating other contracts using interface."
      },
      "governor()": {
        "returns": {
          "_governor": "The governor"
        }
      },
      "updateBeforeMintOrBurn(address,address)": {
        "details": "Called by DepositToken and DebtToken contracts This function also may be called by anyone to update stored indexes"
      },
      "updateBeforeTransfer(address,address,address)": {
        "details": "Called by DepositToken and DebtToken contracts"
      }
    },
    "title": "RewardsDistributor contract",
    "version": 1
  },
  "userdoc": {
    "events": {
      "RewardClaimed(address,uint256)": {
        "notice": "Emitted when reward is claimed"
      },
      "TokenIndexUpdated(uint224,uint32)": {
        "notice": "Emitted when updating token index"
      },
      "TokenSpeedUpdated(address,uint256,uint256)": {
        "notice": "Emitted when updating token speed"
      },
      "TokensAccruedUpdated(address,address,uint256,uint256)": {
        "notice": "Emitted when updating accrued token"
      }
    },
    "kind": "user",
    "methods": {
      "INITIAL_INDEX()": {
        "notice": "The initial index"
      },
      "MAX_REWARD_TOKENS()": {
        "notice": "Max reward tokens to avoid DoS scenario"
      },
      "accountIndexOf(address,address)": {
        "notice": "The supply index for each token for each account as of the last time they accrued token"
      },
      "claimRewards(address)": {
        "notice": "Claim tokens accrued by account in all tokens"
      },
      "claimRewards(address,address[])": {
        "notice": "Claim tokens accrued by account in the specified tokens"
      },
      "claimRewards(address[],address[])": {
        "notice": "Claim tokens accrued by the accounts in the specified tokens"
      },
      "claimable(address)": {
        "notice": "Returns claimable amount consider all tokens"
      },
      "claimable(address,address)": {
        "notice": "Returns updated claimable amount for given token"
      },
      "governor()": {
        "notice": "Get the governor"
      },
      "pool()": {
        "notice": "Pool contract"
      },
      "rewardToken()": {
        "notice": "The token to reward"
      },
      "syncTokenSpeed(address)": {
        "notice": "This is temporary fix to keep tokenSpeed and rewardRate from Vesper in sync."
      },
      "tokenSpeeds(address)": {
        "notice": "The amount of token distributed for each token per second"
      },
      "tokenStates(address)": {
        "notice": "The reward state for each token"
      },
      "tokens(uint256)": {
        "notice": "Track tokens for reward"
      },
      "tokensAccruedOf(address)": {
        "notice": "The token accrued but not yet transferred to each user"
      },
      "updateBeforeMintOrBurn(address,address)": {
        "notice": "Update indexes on pre-mint and pre-burn"
      },
      "updateBeforeTransfer(address,address,address)": {
        "notice": "Update indexes on pre-transfer"
      },
      "updateTokenSpeed(address,uint256)": {
        "notice": "Update speed for a single deposit token"
      },
      "updateTokenSpeedKeeper(address)": {
        "notice": "This function is part of temporary fix to keep tokenSpeed and rewardRate in sync."
      },
      "updateTokenSpeeds(address[],uint256[])": {
        "notice": "Update token speeds"
      }
    },
    "version": 1
  },
  "storageLayout": {
    "storage": [
      {
        "astId": 19514,
        "contract": "contracts/RewardsDistributor.sol:RewardsDistributor",
        "label": "_initialized",
        "offset": 0,
        "slot": "0",
        "type": "t_uint8"
      },
      {
        "astId": 19517,
        "contract": "contracts/RewardsDistributor.sol:RewardsDistributor",
        "label": "_initializing",
        "offset": 1,
        "slot": "0",
        "type": "t_bool"
      },
      {
        "astId": 33193,
        "contract": "contracts/RewardsDistributor.sol:RewardsDistributor",
        "label": "_status",
        "offset": 0,
        "slot": "1",
        "type": "t_uint256"
      },
      {
        "astId": 14015,
        "contract": "contracts/RewardsDistributor.sol:RewardsDistributor",
        "label": "pool",
        "offset": 0,
        "slot": "2",
        "type": "t_contract(IPool)27664"
      },
      {
        "astId": 14117,
        "contract": "contracts/RewardsDistributor.sol:RewardsDistributor",
        "label": "__gap",
        "offset": 0,
        "slot": "3",
        "type": "t_array(t_uint256)49_storage"
      },
      {
        "astId": 30961,
        "contract": "contracts/RewardsDistributor.sol:RewardsDistributor",
        "label": "rewardToken",
        "offset": 0,
        "slot": "52",
        "type": "t_contract(IERC20)21685"
      },
      {
        "astId": 30967,
        "contract": "contracts/RewardsDistributor.sol:RewardsDistributor",
        "label": "tokens",
        "offset": 0,
        "slot": "53",
        "type": "t_array(t_contract(IERC20)21685)dyn_storage"
      },
      {
        "astId": 30974,
        "contract": "contracts/RewardsDistributor.sol:RewardsDistributor",
        "label": "tokenSpeeds",
        "offset": 0,
        "slot": "54",
        "type": "t_mapping(t_contract(IERC20)21685,t_uint256)"
      },
      {
        "astId": 30982,
        "contract": "contracts/RewardsDistributor.sol:RewardsDistributor",
        "label": "tokenStates",
        "offset": 0,
        "slot": "55",
        "type": "t_mapping(t_contract(IERC20)21685,t_struct(TokenState)30956_storage)"
      },
      {
        "astId": 30991,
        "contract": "contracts/RewardsDistributor.sol:RewardsDistributor",
        "label": "accountIndexOf",
        "offset": 0,
        "slot": "56",
        "type": "t_mapping(t_contract(IERC20)21685,t_mapping(t_address,t_uint256))"
      },
      {
        "astId": 30997,
        "contract": "contracts/RewardsDistributor.sol:RewardsDistributor",
        "label": "tokensAccruedOf",
        "offset": 0,
        "slot": "57",
        "type": "t_mapping(t_address,t_uint256)"
      },
      {
        "astId": 31002,
        "contract": "contracts/RewardsDistributor.sol:RewardsDistributor",
        "label": "tokenSpeedKeeper",
        "offset": 0,
        "slot": "58",
        "type": "t_address"
      }
    ],
    "types": {
      "t_address": {
        "encoding": "inplace",
        "label": "address",
        "numberOfBytes": "20"
      },
      "t_array(t_contract(IERC20)21685)dyn_storage": {
        "base": "t_contract(IERC20)21685",
        "encoding": "dynamic_array",
        "label": "contract IERC20[]",
        "numberOfBytes": "32"
      },
      "t_array(t_uint256)49_storage": {
        "base": "t_uint256",
        "encoding": "inplace",
        "label": "uint256[49]",
        "numberOfBytes": "1568"
      },
      "t_bool": {
        "encoding": "inplace",
        "label": "bool",
        "numberOfBytes": "1"
      },
      "t_contract(IERC20)21685": {
        "encoding": "inplace",
        "label": "contract IERC20",
        "numberOfBytes": "20"
      },
      "t_contract(IPool)27664": {
        "encoding": "inplace",
        "label": "contract IPool",
        "numberOfBytes": "20"
      },
      "t_mapping(t_address,t_uint256)": {
        "encoding": "mapping",
        "key": "t_address",
        "label": "mapping(address => uint256)",
        "numberOfBytes": "32",
        "value": "t_uint256"
      },
      "t_mapping(t_contract(IERC20)21685,t_mapping(t_address,t_uint256))": {
        "encoding": "mapping",
        "key": "t_contract(IERC20)21685",
        "label": "mapping(contract IERC20 => mapping(address => uint256))",
        "numberOfBytes": "32",
        "value": "t_mapping(t_address,t_uint256)"
      },
      "t_mapping(t_contract(IERC20)21685,t_struct(TokenState)30956_storage)": {
        "encoding": "mapping",
        "key": "t_contract(IERC20)21685",
        "label": "mapping(contract IERC20 => struct RewardsDistributorStorageV1.TokenState)",
        "numberOfBytes": "32",
        "value": "t_struct(TokenState)30956_storage"
      },
      "t_mapping(t_contract(IERC20)21685,t_uint256)": {
        "encoding": "mapping",
        "key": "t_contract(IERC20)21685",
        "label": "mapping(contract IERC20 => uint256)",
        "numberOfBytes": "32",
        "value": "t_uint256"
      },
      "t_struct(TokenState)30956_storage": {
        "encoding": "inplace",
        "label": "struct RewardsDistributorStorageV1.TokenState",
        "members": [
          {
            "astId": 30953,
            "contract": "contracts/RewardsDistributor.sol:RewardsDistributor",
            "label": "index",
            "offset": 0,
            "slot": "0",
            "type": "t_uint224"
          },
          {
            "astId": 30955,
            "contract": "contracts/RewardsDistributor.sol:RewardsDistributor",
            "label": "timestamp",
            "offset": 28,
            "slot": "0",
            "type": "t_uint32"
          }
        ],
        "numberOfBytes": "32"
      },
      "t_uint224": {
        "encoding": "inplace",
        "label": "uint224",
        "numberOfBytes": "28"
      },
      "t_uint256": {
        "encoding": "inplace",
        "label": "uint256",
        "numberOfBytes": "32"
      },
      "t_uint32": {
        "encoding": "inplace",
        "label": "uint32",
        "numberOfBytes": "4"
      },
      "t_uint8": {
        "encoding": "inplace",
        "label": "uint8",
        "numberOfBytes": "1"
      }
    }
  }
}