{
  "address": "0x1cf68D953188e2073d4B0783Fd2829c21ec162C4",
  "abi": [
    {
      "inputs": [],
      "stateMutability": "nonpayable",
      "type": "constructor"
    },
    {
      "inputs": [],
      "name": "AddressIsNull",
      "type": "error"
    },
    {
      "inputs": [],
      "name": "AmountExceedsAllowance",
      "type": "error"
    },
    {
      "inputs": [],
      "name": "ApproveFromTheZeroAddress",
      "type": "error"
    },
    {
      "inputs": [],
      "name": "ApproveToTheZeroAddress",
      "type": "error"
    },
    {
      "inputs": [],
      "name": "BurnAmountExceedsBalance",
      "type": "error"
    },
    {
      "inputs": [],
      "name": "BurnFromTheZeroAddress",
      "type": "error"
    },
    {
      "inputs": [],
      "name": "DecimalsIsNull",
      "type": "error"
    },
    {
      "inputs": [],
      "name": "DecreasedAllowanceBelowZero",
      "type": "error"
    },
    {
      "inputs": [],
      "name": "MintToTheZeroAddress",
      "type": "error"
    },
    {
      "inputs": [],
      "name": "NameIsNull",
      "type": "error"
    },
    {
      "inputs": [],
      "name": "NewValueIsSameAsCurrent",
      "type": "error"
    },
    {
      "inputs": [],
      "name": "PoolRegistryIsNull",
      "type": "error"
    },
    {
      "inputs": [],
      "name": "SenderCanNotBurn",
      "type": "error"
    },
    {
      "inputs": [],
      "name": "SenderCanNotMint",
      "type": "error"
    },
    {
      "inputs": [],
      "name": "SenderCanNotSeize",
      "type": "error"
    },
    {
      "inputs": [],
      "name": "SenderIsNotGovernor",
      "type": "error"
    },
    {
      "inputs": [],
      "name": "SurpassMaxBridgingSupply",
      "type": "error"
    },
    {
      "inputs": [],
      "name": "SurpassMaxSynthSupply",
      "type": "error"
    },
    {
      "inputs": [],
      "name": "SymbolIsNull",
      "type": "error"
    },
    {
      "inputs": [],
      "name": "SyntheticIsInactive",
      "type": "error"
    },
    {
      "inputs": [],
      "name": "TransferAmountExceedsBalance",
      "type": "error"
    },
    {
      "inputs": [],
      "name": "TransferFromTheZeroAddress",
      "type": "error"
    },
    {
      "inputs": [],
      "name": "TransferToTheZeroAddress",
      "type": "error"
    },
    {
      "anonymous": false,
      "inputs": [
        {
          "indexed": true,
          "internalType": "address",
          "name": "owner",
          "type": "address"
        },
        {
          "indexed": true,
          "internalType": "address",
          "name": "spender",
          "type": "address"
        },
        {
          "indexed": false,
          "internalType": "uint256",
          "name": "value",
          "type": "uint256"
        }
      ],
      "name": "Approval",
      "type": "event"
    },
    {
      "anonymous": false,
      "inputs": [
        {
          "indexed": false,
          "internalType": "uint8",
          "name": "version",
          "type": "uint8"
        }
      ],
      "name": "Initialized",
      "type": "event"
    },
    {
      "anonymous": false,
      "inputs": [
        {
          "indexed": false,
          "internalType": "uint256",
          "name": "oldMaxBridgedInSupply",
          "type": "uint256"
        },
        {
          "indexed": false,
          "internalType": "uint256",
          "name": "newMaxBridgedInSupply",
          "type": "uint256"
        }
      ],
      "name": "MaxBridgedInSupplyUpdated",
      "type": "event"
    },
    {
      "anonymous": false,
      "inputs": [
        {
          "indexed": false,
          "internalType": "uint256",
          "name": "oldMaxBridgedOutSupply",
          "type": "uint256"
        },
        {
          "indexed": false,
          "internalType": "uint256",
          "name": "newMaxBridgedOutSupply",
          "type": "uint256"
        }
      ],
      "name": "MaxBridgedOutSupplyUpdated",
      "type": "event"
    },
    {
      "anonymous": false,
      "inputs": [
        {
          "indexed": false,
          "internalType": "uint256",
          "name": "oldMaxTotalSupply",
          "type": "uint256"
        },
        {
          "indexed": false,
          "internalType": "uint256",
          "name": "newMaxTotalSupply",
          "type": "uint256"
        }
      ],
      "name": "MaxTotalSupplyUpdated",
      "type": "event"
    },
    {
      "anonymous": false,
      "inputs": [
        {
          "indexed": false,
          "internalType": "contract IProxyOFT",
          "name": "oldProxyOFT",
          "type": "address"
        },
        {
          "indexed": false,
          "internalType": "contract IProxyOFT",
          "name": "newProxyOFT",
          "type": "address"
        }
      ],
      "name": "ProxyOFTUpdated",
      "type": "event"
    },
    {
      "anonymous": false,
      "inputs": [
        {
          "indexed": false,
          "internalType": "bool",
          "name": "newActive",
          "type": "bool"
        }
      ],
      "name": "SyntheticTokenActiveUpdated",
      "type": "event"
    },
    {
      "anonymous": false,
      "inputs": [
        {
          "indexed": true,
          "internalType": "address",
          "name": "from",
          "type": "address"
        },
        {
          "indexed": true,
          "internalType": "address",
          "name": "to",
          "type": "address"
        },
        {
          "indexed": false,
          "internalType": "uint256",
          "name": "value",
          "type": "uint256"
        }
      ],
      "name": "Transfer",
      "type": "event"
    },
    {
      "inputs": [],
      "name": "VERSION",
      "outputs": [
        {
          "internalType": "string",
          "name": "",
          "type": "string"
        }
      ],
      "stateMutability": "view",
      "type": "function"
    },
    {
      "inputs": [
        {
          "internalType": "address",
          "name": "",
          "type": "address"
        },
        {
          "internalType": "address",
          "name": "",
          "type": "address"
        }
      ],
      "name": "allowance",
      "outputs": [
        {
          "internalType": "uint256",
          "name": "",
          "type": "uint256"
        }
      ],
      "stateMutability": "view",
      "type": "function"
    },
    {
      "inputs": [
        {
          "internalType": "address",
          "name": "spender_",
          "type": "address"
        },
        {
          "internalType": "uint256",
          "name": "amount_",
          "type": "uint256"
        }
      ],
      "name": "approve",
      "outputs": [
        {
          "internalType": "bool",
          "name": "",
          "type": "bool"
        }
      ],
      "stateMutability": "nonpayable",
      "type": "function"
    },
    {
      "inputs": [
        {
          "internalType": "address",
          "name": "",
          "type": "address"
        }
      ],
      "name": "balanceOf",
      "outputs": [
        {
          "internalType": "uint256",
          "name": "",
          "type": "uint256"
        }
      ],
      "stateMutability": "view",
      "type": "function"
    },
    {
      "inputs": [],
      "name": "bridgedInSupply",
      "outputs": [
        {
          "internalType": "uint256",
          "name": "_supply",
          "type": "uint256"
        }
      ],
      "stateMutability": "view",
      "type": "function"
    },
    {
      "inputs": [],
      "name": "bridgedOutSupply",
      "outputs": [
        {
          "internalType": "uint256",
          "name": "_supply",
          "type": "uint256"
        }
      ],
      "stateMutability": "view",
      "type": "function"
    },
    {
      "inputs": [
        {
          "internalType": "address",
          "name": "from_",
          "type": "address"
        },
        {
          "internalType": "uint256",
          "name": "amount_",
          "type": "uint256"
        }
      ],
      "name": "burn",
      "outputs": [],
      "stateMutability": "nonpayable",
      "type": "function"
    },
    {
      "inputs": [],
      "name": "decimals",
      "outputs": [
        {
          "internalType": "uint8",
          "name": "",
          "type": "uint8"
        }
      ],
      "stateMutability": "view",
      "type": "function"
    },
    {
      "inputs": [
        {
          "internalType": "address",
          "name": "spender_",
          "type": "address"
        },
        {
          "internalType": "uint256",
          "name": "subtractedValue_",
          "type": "uint256"
        }
      ],
      "name": "decreaseAllowance",
      "outputs": [
        {
          "internalType": "bool",
          "name": "",
          "type": "bool"
        }
      ],
      "stateMutability": "nonpayable",
      "type": "function"
    },
    {
      "inputs": [
        {
          "internalType": "address",
          "name": "spender_",
          "type": "address"
        },
        {
          "internalType": "uint256",
          "name": "addedValue_",
          "type": "uint256"
        }
      ],
      "name": "increaseAllowance",
      "outputs": [
        {
          "internalType": "bool",
          "name": "",
          "type": "bool"
        }
      ],
      "stateMutability": "nonpayable",
      "type": "function"
    },
    {
      "inputs": [
        {
          "internalType": "string",
          "name": "name_",
          "type": "string"
        },
        {
          "internalType": "string",
          "name": "symbol_",
          "type": "string"
        },
        {
          "internalType": "uint8",
          "name": "decimals_",
          "type": "uint8"
        },
        {
          "internalType": "contract IPoolRegistry",
          "name": "poolRegistry_",
          "type": "address"
        }
      ],
      "name": "initialize",
      "outputs": [],
      "stateMutability": "nonpayable",
      "type": "function"
    },
    {
      "inputs": [],
      "name": "isActive",
      "outputs": [
        {
          "internalType": "bool",
          "name": "",
          "type": "bool"
        }
      ],
      "stateMutability": "view",
      "type": "function"
    },
    {
      "inputs": [],
      "name": "maxBridgedInSupply",
      "outputs": [
        {
          "internalType": "uint256",
          "name": "",
          "type": "uint256"
        }
      ],
      "stateMutability": "view",
      "type": "function"
    },
    {
      "inputs": [],
      "name": "maxBridgedOutSupply",
      "outputs": [
        {
          "internalType": "uint256",
          "name": "",
          "type": "uint256"
        }
      ],
      "stateMutability": "view",
      "type": "function"
    },
    {
      "inputs": [],
      "name": "maxTotalSupply",
      "outputs": [
        {
          "internalType": "uint256",
          "name": "",
          "type": "uint256"
        }
      ],
      "stateMutability": "view",
      "type": "function"
    },
    {
      "inputs": [
        {
          "internalType": "address",
          "name": "to_",
          "type": "address"
        },
        {
          "internalType": "uint256",
          "name": "amount_",
          "type": "uint256"
        }
      ],
      "name": "mint",
      "outputs": [],
      "stateMutability": "nonpayable",
      "type": "function"
    },
    {
      "inputs": [],
      "name": "name",
      "outputs": [
        {
          "internalType": "string",
          "name": "",
          "type": "string"
        }
      ],
      "stateMutability": "view",
      "type": "function"
    },
    {
      "inputs": [],
      "name": "poolRegistry",
      "outputs": [
        {
          "internalType": "contract IPoolRegistry",
          "name": "",
          "type": "address"
        }
      ],
      "stateMutability": "view",
      "type": "function"
    },
    {
      "inputs": [],
      "name": "proxyOFT",
      "outputs": [
        {
          "internalType": "contract IProxyOFT",
          "name": "",
          "type": "address"
        }
      ],
      "stateMutability": "view",
      "type": "function"
    },
    {
      "inputs": [
        {
          "internalType": "address",
          "name": "from_",
          "type": "address"
        },
        {
          "internalType": "address",
          "name": "to_",
          "type": "address"
        },
        {
          "internalType": "uint256",
          "name": "amount_",
          "type": "uint256"
        }
      ],
      "name": "seize",
      "outputs": [],
      "stateMutability": "nonpayable",
      "type": "function"
    },
    {
      "inputs": [],
      "name": "symbol",
      "outputs": [
        {
          "internalType": "string",
          "name": "",
          "type": "string"
        }
      ],
      "stateMutability": "view",
      "type": "function"
    },
    {
      "inputs": [],
      "name": "toggleIsActive",
      "outputs": [],
      "stateMutability": "nonpayable",
      "type": "function"
    },
    {
      "inputs": [],
      "name": "totalBridgedIn",
      "outputs": [
        {
          "internalType": "uint256",
          "name": "",
          "type": "uint256"
        }
      ],
      "stateMutability": "view",
      "type": "function"
    },
    {
      "inputs": [],
      "name": "totalBridgedOut",
      "outputs": [
        {
          "internalType": "uint256",
          "name": "",
          "type": "uint256"
        }
      ],
      "stateMutability": "view",
      "type": "function"
    },
    {
      "inputs": [],
      "name": "totalSupply",
      "outputs": [
        {
          "internalType": "uint256",
          "name": "",
          "type": "uint256"
        }
      ],
      "stateMutability": "view",
      "type": "function"
    },
    {
      "inputs": [
        {
          "internalType": "address",
          "name": "recipient_",
          "type": "address"
        },
        {
          "internalType": "uint256",
          "name": "amount_",
          "type": "uint256"
        }
      ],
      "name": "transfer",
      "outputs": [
        {
          "internalType": "bool",
          "name": "",
          "type": "bool"
        }
      ],
      "stateMutability": "nonpayable",
      "type": "function"
    },
    {
      "inputs": [
        {
          "internalType": "address",
          "name": "sender_",
          "type": "address"
        },
        {
          "internalType": "address",
          "name": "recipient_",
          "type": "address"
        },
        {
          "internalType": "uint256",
          "name": "amount_",
          "type": "uint256"
        }
      ],
      "name": "transferFrom",
      "outputs": [
        {
          "internalType": "bool",
          "name": "",
          "type": "bool"
        }
      ],
      "stateMutability": "nonpayable",
      "type": "function"
    },
    {
      "inputs": [
        {
          "internalType": "uint256",
          "name": "maxBridgedInSupply_",
          "type": "uint256"
        }
      ],
      "name": "updateMaxBridgedInSupply",
      "outputs": [],
      "stateMutability": "nonpayable",
      "type": "function"
    },
    {
      "inputs": [
        {
          "internalType": "uint256",
          "name": "maxBridgedOutSupply_",
          "type": "uint256"
        }
      ],
      "name": "updateMaxBridgedOutSupply",
      "outputs": [],
      "stateMutability": "nonpayable",
      "type": "function"
    },
    {
      "inputs": [
        {
          "internalType": "uint256",
          "name": "newMaxTotalSupply_",
          "type": "uint256"
        }
      ],
      "name": "updateMaxTotalSupply",
      "outputs": [],
      "stateMutability": "nonpayable",
      "type": "function"
    },
    {
      "inputs": [
        {
          "internalType": "contract IProxyOFT",
          "name": "newProxyOFT_",
          "type": "address"
        }
      ],
      "name": "updateProxyOFT",
      "outputs": [],
      "stateMutability": "nonpayable",
      "type": "function"
    }
  ],
  "transactionHash": "0x1284db0fe782c078000a9da883cfd04140ab6799d9442213a73fcde3e2e7d603",
  "args": [],
  "numDeployments": 4,
  "solcInputHash": "545cb6254fd08cfae8ffa56eab2faa67",
  "bytecode": "0x60806040523480156200001157600080fd5b506200001c62000022565b62000152565b6200002e60ff62000031565b50565b60008054610100900460ff1615620000ca578160ff1660011480156200006a575062000068306200014360201b62000e991760201c565b155b620000c25760405162461bcd60e51b815260206004820152602e602482015260008051602062001bab83398151915260448201526d191e481a5b9a5d1a585b1a5e995960921b60648201526084015b60405180910390fd5b506000919050565b60005460ff808416911610620001295760405162461bcd60e51b815260206004820152602e602482015260008051602062001bab83398151915260448201526d191e481a5b9a5d1a585b1a5e995960921b6064820152608401620000b9565b506000805460ff191660ff92909216919091179055600190565b6001600160a01b03163b151590565b611a4980620001626000396000f3fe608060405234801561001057600080fd5b50600436106101e55760003560e01c80639163dd5f1161010f578063cbfa94de116100a2578063dd20d4f411610071578063dd20d4f4146103e7578063dd62ed3e146103fa578063de7ea79d14610425578063ffa1ad741461043857600080fd5b8063cbfa94de146103bb578063cd2e9866146103ce578063d2593329146103d7578063d2f09685146103df57600080fd5b8063a457c2d7116100de578063a457c2d71461036f578063a9059cbb14610382578063afcff50f14610395578063b2a02ff1146103a857600080fd5b80639163dd5f1461033957806393a04f131461034157806395d89b41146103545780639dc29fac1461035c57600080fd5b80632ab4d05211610187578063395093511161015657806339509351146102c857806340c10f19146102db5780636d1bb8f7146102ee57806370a082311461031957600080fd5b80632ab4d052146102875780632bb42183146102905780632f068bf114610299578063313ce567146102a257600080fd5b806318160ddd116101c357806318160ddd146102405780631ac571dd1461025757806322f3e2d41461026057806323b872dd1461027457600080fd5b806306fdde03146101ea578063095ea7b314610208578063172f50a41461022b575b600080fd5b6101f261045c565b6040516101ff91906116d2565b60405180910390f35b61021b61021636600461173f565b6104ea565b60405190151581526020016101ff565b61023e61023936600461176b565b610500565b005b61024960055481565b6040519081526020016101ff565b610249600b5481565b60075461021b90600160a01b900460ff1681565b61021b610282366004611784565b61061a565b61024960065481565b61024960095481565b610249600c5481565b6007546102b690600160a81b900460ff1681565b60405160ff90911681526020016101ff565b61021b6102d636600461173f565b61068b565b61023e6102e936600461173f565b6106c7565b600854610301906001600160a01b031681565b6040516001600160a01b0390911681526020016101ff565b6102496103273660046117c5565b60036020526000908152604090205481565b610249610724565b61023e61034f36600461176b565b61074c565b6101f2610866565b61023e61036a36600461173f565b610873565b61021b61037d36600461173f565b6108cc565b61021b61039036600461173f565b610928565b600754610301906001600160a01b031681565b61023e6103b6366004611784565b610935565b61023e6103c93660046117c5565b61097c565b610249600a5481565b61023e610af1565b610249610c09565b61023e6103f536600461176b565b610c25565b6102496104083660046117e9565b600460209081526000928352604080842090915290825290205481565b61023e61043336600461186b565b610d3f565b6101f2604051806040016040528060058152602001640312e332e360dc1b81525081565b6001805461046990611906565b80601f016020809104026020016040519081016040528092919081815260200182805461049590611906565b80156104e25780601f106104b7576101008083540402835291602001916104e2565b820191906000526020600020905b8154815290600101906020018083116104c557829003601f168201915b505050505081565b60006104f7338484610ea8565b50600192915050565b600760009054906101000a90046001600160a01b03166001600160a01b0316630c340a246040518163ffffffff1660e01b815260040160206040518083038186803b15801561054e57600080fd5b505afa158015610562573d6000803e3d6000fd5b505050506040513d601f19601f820116820180604052508101906105869190611941565b6001600160a01b0316336001600160a01b0316146105b757604051634b98449160e11b815260040160405180910390fd5b600654818114156105db57604051630333a68160e41b815260040160405180910390fd5b60408051828152602081018490527fc58cd6132bb46df23d468939c03dd023b74b509aaa6b04c39d5a6461c65963bd910160405180910390a150600655565b6001600160a01b038316600090815260046020908152604080832033845290915281205460001981146106755782811015610668576040516303814af160e61b815260040160405180910390fd5b6106758533858403610ea8565b610680858585610f58565b506001949350505050565b3360008181526004602090815260408083206001600160a01b038716845290915281205490916104f79185906106c2908690611974565b610ea8565b6008546001600160a01b031633141580156106e757506106e561104e565b155b80156106f857506106f6611144565b155b156107165760405163168504c160e21b815260040160405180910390fd5b6107208282611348565b5050565b600954600a54600091908082111561074757610740818361198c565b9250505090565b505090565b600760009054906101000a90046001600160a01b03166001600160a01b0316630c340a246040518163ffffffff1660e01b815260040160206040518083038186803b15801561079a57600080fd5b505afa1580156107ae573d6000803e3d6000fd5b505050506040513d601f19601f820116820180604052508101906107d29190611941565b6001600160a01b0316336001600160a01b03161461080357604051634b98449160e11b815260040160405180910390fd5b600b548181141561082757604051630333a68160e41b815260040160405180910390fd5b60408051828152602081018490527feacf40fa755daf182276c22cc2ad53893a50e8d3d4c73132308548febf636764910160405180910390a150600b55565b6002805461046990611906565b6008546001600160a01b03163314158015610893575061089161104e565b155b80156108a457506108a2611144565b155b156108c25760405163848003b560e01b815260040160405180910390fd5b610720828261149b565b3360009081526004602090815260408083206001600160a01b0386168452909152812054828110156109115760405163189dd6af60e31b815260040160405180910390fd5b61091e3385858403610ea8565b5060019392505050565b60006104f7338484610f58565b61093d61104e565b15801561094f575061094d611144565b155b1561096c576040516249987f60e01b815260040160405180910390fd5b610977838383610f58565b505050565b600760009054906101000a90046001600160a01b03166001600160a01b0316630c340a246040518163ffffffff1660e01b815260040160206040518083038186803b1580156109ca57600080fd5b505afa1580156109de573d6000803e3d6000fd5b505050506040513d601f19601f82011682018060405250810190610a029190611941565b6001600160a01b0316336001600160a01b031614610a3357604051634b98449160e11b815260040160405180910390fd5b6001600160a01b038116610a5a5760405163fb7566d760e01b815260040160405180910390fd5b6008546001600160a01b03908116908216811415610a8b57604051630333a68160e41b815260040160405180910390fd5b604080516001600160a01b038084168252841660208201527fef71fdb6fc3b4bdacae0b7871edf00279c204dc041134e4304cf93935cf07af7910160405180910390a150600880546001600160a01b0319166001600160a01b0392909216919091179055565b600760009054906101000a90046001600160a01b03166001600160a01b0316630c340a246040518163ffffffff1660e01b815260040160206040518083038186803b158015610b3f57600080fd5b505afa158015610b53573d6000803e3d6000fd5b505050506040513d601f19601f82011682018060405250810190610b779190611941565b6001600160a01b0316336001600160a01b031614610ba857604051634b98449160e11b815260040160405180910390fd5b600754604051600160a01b90910460ff1615808252907f79e35d0afb37464963b458a448d257d695a4dc4406dc45df01e4c7b38e2732cb9060200160405180910390a160078054911515600160a01b0260ff60a01b19909216919091179055565b600954600a54600091908181111561074757610740828261198c565b600760009054906101000a90046001600160a01b03166001600160a01b0316630c340a246040518163ffffffff1660e01b815260040160206040518083038186803b158015610c7357600080fd5b505afa158015610c87573d6000803e3d6000fd5b505050506040513d601f19601f82011682018060405250810190610cab9190611941565b6001600160a01b0316336001600160a01b031614610cdc57604051634b98449160e11b815260040160405180910390fd5b600c5481811415610d0057604051630333a68160e41b815260040160405180910390fd5b60408051828152602081018490527ff0d21a56ee8d766c9055580b458227594b5f2d86aa9087573908bea9dc4ca3d6910160405180910390a150600c55565b6000610d4b60016115a8565b90508015610d63576000805461ff0019166101001790555b85610d8157604051636e83f50760e01b815260040160405180910390fd5b83610d9f576040516330507cff60e11b815260040160405180910390fd5b60ff8316610dc057604051634dc4784160e11b815260040160405180910390fd5b6001600160a01b038216610de757604051637cb62f2b60e11b815260040160405180910390fd5b600780546001600160a01b0319166001600160a01b038416179055610e0e60018888611639565b50610e1b60028686611639565b506007805460ff60a01b1960ff8616600160a81b021661ffff60a01b1990911617600160a01b1790556000196006558015610e90576000805461ff0019169055604051600181527f7f26b83ff96e1f2b6a682f133852f6798a09c465da95921460cefb38474024989060200160405180910390a15b50505050505050565b6001600160a01b03163b151590565b6001600160a01b038316610ecf576040516356fdae6560e11b815260040160405180910390fd5b6001600160a01b038216610ef65760405163b2fa1ef360e01b815260040160405180910390fd5b6001600160a01b0383811660008181526004602090815260408083209487168084529482529182902085905590518481527f8c5be1e5ebec7d5bd14f71427d1e84f3dd0314c0f7b2291e5b200ac8c7c3b92591015b60405180910390a3505050565b6001600160a01b038316610f7f57604051630240531760e41b815260040160405180910390fd5b6001600160a01b038216610fa65760405163671d1add60e11b815260040160405180910390fd5b6001600160a01b03831660009081526003602052604090205481811015610fe057604051635dd58b8b60e01b815260040160405180910390fd5b6001600160a01b0380851660008181526003602052604080822086860390559286168082529083902080548601905591517fddf252ad1be2c89b69c2b068fc378daa952ba7f163c4a11628f55a4df523b3ef906110409086815260200190565b60405180910390a350505050565b60075460405163c673bdaf60e01b81523360048201526000916001600160a01b03169063c673bdaf9060240160206040518083038186803b15801561109257600080fd5b505afa1580156110a6573d6000803e3d6000fd5b505050506040513d601f19601f820116820180604052508101906110ca91906119a3565b801561113f5750604051631a0dd00b60e01b81523060048201523390631a0dd00b9060240160206040518083038186803b15801561110757600080fd5b505afa15801561111b573d6000803e3d6000fd5b505050506040513d601f19601f8201168201806040525081019061113f91906119a3565b905090565b600080336001600160a01b03166316f0115b6040518163ffffffff1660e01b815260040160206040518083038186803b15801561118057600080fd5b505afa158015611194573d6000803e3d6000fd5b505050506040513d601f19601f820116820180604052508101906111b89190611941565b60075460405163c673bdaf60e01b81526001600160a01b03808416600483015292935091169063c673bdaf9060240160206040518083038186803b1580156111ff57600080fd5b505afa158015611213573d6000803e3d6000fd5b505050506040513d601f19601f8201168201806040525081019061123791906119a3565b80156112b557506040516308a00b1f60e31b81523360048201526001600160a01b0382169063450058f89060240160206040518083038186803b15801561127d57600080fd5b505afa158015611291573d6000803e3d6000fd5b505050506040513d601f19601f820116820180604052508101906112b591906119a3565b80156113425750306001600160a01b0316336001600160a01b0316638230ecd66040518163ffffffff1660e01b815260040160206040518083038186803b1580156112ff57600080fd5b505afa158015611313573d6000803e3d6000fd5b505050506040513d601f19601f820116820180604052508101906113379190611941565b6001600160a01b0316145b91505090565b600754600160a01b900460ff16611372576040516303127d9160e31b815260040160405180910390fd5b6001600160a01b0382166113995760405163c96c2a0b60e01b815260040160405180910390fd5b6008546001600160a01b03163314156113ed5780600960008282546113be9190611974565b9091555050600b546113ce610724565b11156113ed57604051639da48d2560e01b815260040160405180910390fd5b80600560008282546113ff9190611974565b90915550506006546005541115611429576040516309e0f0fd60e31b815260040160405180910390fd5b6001600160a01b03821660009081526003602052604081208054839290611451908490611974565b90915550506040518181526001600160a01b038316906000907fddf252ad1be2c89b69c2b068fc378daa952ba7f163c4a11628f55a4df523b3ef9060200160405180910390a35050565b6001600160a01b0382166114c2576040516304fca6bd60e41b815260040160405180910390fd5b6008546001600160a01b03163314156115165780600a60008282546114e79190611974565b9091555050600c546114f7610c09565b111561151657604051639da48d2560e01b815260040160405180910390fd5b6001600160a01b0382166000908152600360205260409020548181101561155057604051630bba337f60e11b815260040160405180910390fd5b6001600160a01b03831660008181526003602090815260408083208686039055600580548790039055518581529192917fddf252ad1be2c89b69c2b068fc378daa952ba7f163c4a11628f55a4df523b3ef9101610f4b565b60008054610100900460ff16156115f8578160ff1660011480156115cb5750303b155b6115f05760405162461bcd60e51b81526004016115e7906119c5565b60405180910390fd5b506000919050565b60005460ff80841691161061161f5760405162461bcd60e51b81526004016115e7906119c5565b506000805460ff191660ff92909216919091179055600190565b82805461164590611906565b90600052602060002090601f01602090048101928261166757600085556116ad565b82601f106116805782800160ff198235161785556116ad565b828001600101855582156116ad579182015b828111156116ad578235825591602001919060010190611692565b506116b99291506116bd565b5090565b5b808211156116b957600081556001016116be565b600060208083528351808285015260005b818110156116ff578581018301518582016040015282016116e3565b81811115611711576000604083870101525b50601f01601f1916929092016040019392505050565b6001600160a01b038116811461173c57600080fd5b50565b6000806040838503121561175257600080fd5b823561175d81611727565b946020939093013593505050565b60006020828403121561177d57600080fd5b5035919050565b60008060006060848603121561179957600080fd5b83356117a481611727565b925060208401356117b481611727565b929592945050506040919091013590565b6000602082840312156117d757600080fd5b81356117e281611727565b9392505050565b600080604083850312156117fc57600080fd5b823561180781611727565b9150602083013561181781611727565b809150509250929050565b60008083601f84011261183457600080fd5b50813567ffffffffffffffff81111561184c57600080fd5b60208301915083602082850101111561186457600080fd5b9250929050565b6000806000806000806080878903121561188457600080fd5b863567ffffffffffffffff8082111561189c57600080fd5b6118a88a838b01611822565b909850965060208901359150808211156118c157600080fd5b506118ce89828a01611822565b909550935050604087013560ff811681146118e857600080fd5b915060608701356118f881611727565b809150509295509295509295565b600181811c9082168061191a57607f821691505b6020821081141561193b57634e487b7160e01b600052602260045260246000fd5b50919050565b60006020828403121561195357600080fd5b81516117e281611727565b634e487b7160e01b600052601160045260246000fd5b600082198211156119875761198761195e565b500190565b60008282101561199e5761199e61195e565b500390565b6000602082840312156119b557600080fd5b815180151581146117e257600080fd5b6020808252602e908201527f496e697469616c697a61626c653a20636f6e747261637420697320616c72656160408201526d191e481a5b9a5d1a585b1a5e995960921b60608201526080019056fea2646970667358221220fe2c5d87e3cfd2a2e82c7d947314d83b4e5c872ba97d2e5a9732e508636f4a0a64736f6c63430008090033496e697469616c697a61626c653a20636f6e747261637420697320616c726561",
  "devdoc": {
    "kind": "dev",
    "methods": {
      "bridgedInSupply()": {
        "details": "The supply is calculated using `MAX(totalBridgedIn - totalBridgedOut, 0)`"
      },
      "bridgedOutSupply()": {
        "details": "The supply is calculated using `MAX(totalBridgedOut - totalBridgedIn, 0)`"
      },
      "burn(address,uint256)": {
        "params": {
          "amount_": "The amount to burn",
          "from_": "The account to burn from"
        }
      },
      "mint(address,uint256)": {
        "params": {
          "amount_": "The amount to mint",
          "to_": "The account to mint to"
        }
      },
      "seize(address,address,uint256)": {
        "details": "Same as _transfer",
        "params": {
          "amount_": "The amount to seize",
          "to_": "The beneficiary account"
        }
      },
      "transfer(address,uint256)": {
        "details": "Moves `amount` tokens from the caller's account to `recipient`. Returns a boolean value indicating whether the operation succeeded. Emits a {Transfer} event."
      },
      "transferFrom(address,address,uint256)": {
        "details": "Moves `amount` tokens from `sender` to `recipient` using the allowance mechanism. `amount` is then deducted from the caller's allowance. Returns a boolean value indicating whether the operation succeeded. Emits a {Transfer} event."
      },
      "updateMaxTotalSupply(uint256)": {
        "params": {
          "newMaxTotalSupply_": "The new max total supply"
        }
      },
      "updateProxyOFT(address)": {
        "params": {
          "newProxyOFT_": "Address of new ProxyOFT"
        }
      }
    },
    "title": "Synthetic Token contract",
    "version": 1
  },
  "userdoc": {
    "events": {
      "MaxBridgedInSupplyUpdated(uint256,uint256)": {
        "notice": "Emitted when max bridged-in supply is updated"
      },
      "MaxBridgedOutSupplyUpdated(uint256,uint256)": {
        "notice": "Emitted when max bridged-out supply is updated"
      },
      "MaxTotalSupplyUpdated(uint256,uint256)": {
        "notice": "Emitted when max total supply is updated"
      },
      "ProxyOFTUpdated(address,address)": {
        "notice": "Emitted when proxyOFT is updated"
      },
      "SyntheticTokenActiveUpdated(bool)": {
        "notice": "Emitted when active flag is updated"
      }
    },
    "kind": "user",
    "methods": {
      "approve(address,uint256)": {
        "notice": "Set `amount` as the allowance of `spender` over the caller's tokens"
      },
      "bridgedInSupply()": {
        "notice": "Get net bridged-in circulating supply"
      },
      "bridgedOutSupply()": {
        "notice": "Get net bridged-out circulating supply"
      },
      "burn(address,uint256)": {
        "notice": "Burn synthetic token"
      },
      "decimals()": {
        "notice": "The decimals of the token"
      },
      "decreaseAllowance(address,uint256)": {
        "notice": "Atomically decrease the allowance granted to `spender` by the caller"
      },
      "increaseAllowance(address,uint256)": {
        "notice": "Atomically increase the allowance granted to `spender` by the caller"
      },
      "isActive()": {
        "notice": "If true, disables msAsset minting globally"
      },
      "maxBridgedInSupply()": {
        "notice": "Maximum allowed bridged-in (mint-related) supply"
      },
      "maxBridgedOutSupply()": {
        "notice": "Maximum allowed bridged-out (burn-related) supply"
      },
      "maxTotalSupply()": {
        "notice": "The supply cap"
      },
      "mint(address,uint256)": {
        "notice": "Mint synthetic token"
      },
      "name()": {
        "notice": "The name of the token"
      },
      "proxyOFT()": {
        "notice": "The ProxyOFT contract"
      },
      "seize(address,address,uint256)": {
        "notice": "Seize synthetic tokens"
      },
      "symbol()": {
        "notice": "The symbol of the token"
      },
      "toggleIsActive()": {
        "notice": "Enable/Disable Synthetic Token"
      },
      "totalBridgedIn()": {
        "notice": "Track amount received cross-chain"
      },
      "totalBridgedOut()": {
        "notice": "Track amount sent cross-chain"
      },
      "updateMaxBridgedInSupply(uint256)": {
        "notice": "Update max bridged-in supply"
      },
      "updateMaxBridgedOutSupply(uint256)": {
        "notice": "Update max bridged-out supply"
      },
      "updateMaxTotalSupply(uint256)": {
        "notice": "Update max total supply"
      },
      "updateProxyOFT(address)": {
        "notice": "Update proxyOFT"
      }
    },
    "version": 1
  },
  "storageLayout": {
    "storage": [
      {
        "astId": 19514,
        "contract": "contracts/SyntheticToken.sol:SyntheticToken",
        "label": "_initialized",
        "offset": 0,
        "slot": "0",
        "type": "t_uint8"
      },
      {
        "astId": 19517,
        "contract": "contracts/SyntheticToken.sol:SyntheticToken",
        "label": "_initializing",
        "offset": 1,
        "slot": "0",
        "type": "t_bool"
      },
      {
        "astId": 31067,
        "contract": "contracts/SyntheticToken.sol:SyntheticToken",
        "label": "name",
        "offset": 0,
        "slot": "1",
        "type": "t_string_storage"
      },
      {
        "astId": 31071,
        "contract": "contracts/SyntheticToken.sol:SyntheticToken",
        "label": "symbol",
        "offset": 0,
        "slot": "2",
        "type": "t_string_storage"
      },
      {
        "astId": 31077,
        "contract": "contracts/SyntheticToken.sol:SyntheticToken",
        "label": "balanceOf",
        "offset": 0,
        "slot": "3",
        "type": "t_mapping(t_address,t_uint256)"
      },
      {
        "astId": 31085,
        "contract": "contracts/SyntheticToken.sol:SyntheticToken",
        "label": "allowance",
        "offset": 0,
        "slot": "4",
        "type": "t_mapping(t_address,t_mapping(t_address,t_uint256))"
      },
      {
        "astId": 31089,
        "contract": "contracts/SyntheticToken.sol:SyntheticToken",
        "label": "totalSupply",
        "offset": 0,
        "slot": "5",
        "type": "t_uint256"
      },
      {
        "astId": 31093,
        "contract": "contracts/SyntheticToken.sol:SyntheticToken",
        "label": "maxTotalSupply",
        "offset": 0,
        "slot": "6",
        "type": "t_uint256"
      },
      {
        "astId": 31098,
        "contract": "contracts/SyntheticToken.sol:SyntheticToken",
        "label": "poolRegistry",
        "offset": 0,
        "slot": "7",
        "type": "t_contract(IPoolRegistry)27760"
      },
      {
        "astId": 31102,
        "contract": "contracts/SyntheticToken.sol:SyntheticToken",
        "label": "isActive",
        "offset": 20,
        "slot": "7",
        "type": "t_bool"
      },
      {
        "astId": 31106,
        "contract": "contracts/SyntheticToken.sol:SyntheticToken",
        "label": "decimals",
        "offset": 21,
        "slot": "7",
        "type": "t_uint8"
      },
      {
        "astId": 31111,
        "contract": "contracts/SyntheticToken.sol:SyntheticToken",
        "label": "proxyOFT",
        "offset": 0,
        "slot": "8",
        "type": "t_contract(IProxyOFT)27773"
      },
      {
        "astId": 31114,
        "contract": "contracts/SyntheticToken.sol:SyntheticToken",
        "label": "totalBridgedIn",
        "offset": 0,
        "slot": "9",
        "type": "t_uint256"
      },
      {
        "astId": 31117,
        "contract": "contracts/SyntheticToken.sol:SyntheticToken",
        "label": "totalBridgedOut",
        "offset": 0,
        "slot": "10",
        "type": "t_uint256"
      },
      {
        "astId": 31120,
        "contract": "contracts/SyntheticToken.sol:SyntheticToken",
        "label": "maxBridgedInSupply",
        "offset": 0,
        "slot": "11",
        "type": "t_uint256"
      },
      {
        "astId": 31123,
        "contract": "contracts/SyntheticToken.sol:SyntheticToken",
        "label": "maxBridgedOutSupply",
        "offset": 0,
        "slot": "12",
        "type": "t_uint256"
      }
    ],
    "types": {
      "t_address": {
        "encoding": "inplace",
        "label": "address",
        "numberOfBytes": "20"
      },
      "t_bool": {
        "encoding": "inplace",
        "label": "bool",
        "numberOfBytes": "1"
      },
      "t_contract(IPoolRegistry)27760": {
        "encoding": "inplace",
        "label": "contract IPoolRegistry",
        "numberOfBytes": "20"
      },
      "t_contract(IProxyOFT)27773": {
        "encoding": "inplace",
        "label": "contract IProxyOFT",
        "numberOfBytes": "20"
      },
      "t_mapping(t_address,t_mapping(t_address,t_uint256))": {
        "encoding": "mapping",
        "key": "t_address",
        "label": "mapping(address => mapping(address => uint256))",
        "numberOfBytes": "32",
        "value": "t_mapping(t_address,t_uint256)"
      },
      "t_mapping(t_address,t_uint256)": {
        "encoding": "mapping",
        "key": "t_address",
        "label": "mapping(address => uint256)",
        "numberOfBytes": "32",
        "value": "t_uint256"
      },
      "t_string_storage": {
        "encoding": "bytes",
        "label": "string",
        "numberOfBytes": "32"
      },
      "t_uint256": {
        "encoding": "inplace",
        "label": "uint256",
        "numberOfBytes": "32"
      },
      "t_uint8": {
        "encoding": "inplace",
        "label": "uint8",
        "numberOfBytes": "1"
      }
    }
  }
}