{
  "address": "0x1F39F9639b1a5A32bCD896c2b68128F7B64F72Fa",
  "abi": [
    {
      "inputs": [],
      "name": "AddressIsNull",
      "type": "error"
    },
    {
      "inputs": [],
      "name": "AmountIsZero",
      "type": "error"
    },
    {
      "inputs": [],
      "name": "FallbackIsNotAllowed",
      "type": "error"
    },
    {
      "inputs": [],
      "name": "PoolAddressIsNull",
      "type": "error"
    },
    {
      "inputs": [],
      "name": "ReceiveIsNotAllowed",
      "type": "error"
    },
    {
      "inputs": [],
      "name": "RecipientIsNull",
      "type": "error"
    },
    {
      "inputs": [],
      "name": "SenderIsNotDepositToken",
      "type": "error"
    },
    {
      "inputs": [],
      "name": "SenderIsNotGovernor",
      "type": "error"
    },
    {
      "inputs": [],
      "name": "SenderIsNotPool",
      "type": "error"
    },
    {
      "stateMutability": "payable",
      "type": "fallback"
    },
    {
      "inputs": [],
      "name": "VERSION",
      "outputs": [
        {
          "internalType": "string",
          "name": "",
          "type": "string"
        }
      ],
      "stateMutability": "view",
      "type": "function"
    },
    {
      "inputs": [],
      "name": "governor",
      "outputs": [
        {
          "internalType": "address",
          "name": "_governor",
          "type": "address"
        }
      ],
      "stateMutability": "view",
      "type": "function"
    },
    {
      "inputs": [
        {
          "internalType": "contract IPool",
          "name": "pool_",
          "type": "address"
        }
      ],
      "name": "initialize",
      "outputs": [],
      "stateMutability": "nonpayable",
      "type": "function"
    },
    {
      "inputs": [
        {
          "internalType": "address",
          "name": "newTreasury_",
          "type": "address"
        }
      ],
      "name": "migrateTo",
      "outputs": [],
      "stateMutability": "nonpayable",
      "type": "function"
    },
    {
      "inputs": [],
      "name": "pool",
      "outputs": [
        {
          "internalType": "contract IPool",
          "name": "",
          "type": "address"
        }
      ],
      "stateMutability": "view",
      "type": "function"
    },
    {
      "inputs": [
        {
          "internalType": "address",
          "name": "to_",
          "type": "address"
        },
        {
          "internalType": "uint256",
          "name": "amount_",
          "type": "uint256"
        }
      ],
      "name": "pull",
      "outputs": [],
      "stateMutability": "nonpayable",
      "type": "function"
    },
    {
      "inputs": [
        {
          "internalType": "contract IERC20",
          "name": "token_",
          "type": "address"
        },
        {
          "internalType": "address",
          "name": "to_",
          "type": "address"
        },
        {
          "internalType": "uint256",
          "name": "amount_",
          "type": "uint256"
        }
      ],
      "name": "sweep",
      "outputs": [],
      "stateMutability": "nonpayable",
      "type": "function"
    },
    {
      "stateMutability": "payable",
      "type": "receive"
    }
  ],
  "transactionHash": "0xeee2fdcbf74e6bd2a676c660712e8d6d66bbbea988b35c29ad66aaad06613e0f",
  "args": [],
  "numDeployments": 1,
  "solcInputHash": "90a16760c1e9eb3a1fb6ca594389bd73",
  "bytecode": "0x608060405234801561001057600080fd5b50610f12806100206000396000f3fe6080604052600436106100745760003560e01c806362c067671161004e57806362c067671461011f578063c4d66de81461013f578063f2d5d56b1461015f578063ffa1ad741461017f57610092565b80630c340a24146100ab57806316f0115b146100dd5780634ddaf8f2146100fd57610092565b3661009257604051636436c22d60e11b815260040160405180910390fd5b60405163a0152e6360e01b815260040160405180910390fd5b3480156100b757600080fd5b506100c06101bd565b6040516001600160a01b0390911681526020015b60405180910390f35b3480156100e957600080fd5b506002546100c0906001600160a01b031681565b34801561010957600080fd5b5061011d610118366004610c07565b61023f565b005b34801561012b57600080fd5b5061011d61013a366004610c24565b61045f565b34801561014b57600080fd5b5061011d61015a366004610c07565b610498565b34801561016b57600080fd5b5061011d61017a366004610c65565b61051f565b34801561018b57600080fd5b506101b0604051806040016040528060058152602001640312e302e360dc1b81525081565b6040516100d49190610cbd565b6002546040805163030d028960e21b815290516000926001600160a01b031691630c340a24916004808301926020929190829003018186803b15801561020257600080fd5b505afa158015610216573d6000803e3d6000fd5b505050506040513d601f19601f8201168201806040525081019061023a9190610d00565b905090565b6002546001600160a01b0316331461026a5760405163531f2aa960e11b815260040160405180910390fd5b6001600160a01b0381166102915760405163fb7566d760e01b815260040160405180910390fd5b6002546040805163fb01600d60e01b815290516000926001600160a01b03169163fb01600d9160048083019286929190829003018186803b1580156102d557600080fd5b505afa1580156102e9573d6000803e3d6000fd5b505050506040513d6000823e601f3d908101601f191682016040526103119190810190610d33565b805190915060005b8181101561045957600083828151811061033557610335610df8565b60200260200101516001600160a01b0316636f307dc36040518163ffffffff1660e01b815260040160206040518083038186803b15801561037557600080fd5b505afa158015610389573d6000803e3d6000fd5b505050506040513d601f19601f820116820180604052508101906103ad9190610d00565b6040516370a0823160e01b81523060048201529091506000906001600160a01b038316906370a082319060240160206040518083038186803b1580156103f257600080fd5b505afa158015610406573d6000803e3d6000fd5b505050506040513d601f19601f8201168201806040525081019061042a9190610e0e565b90508015610446576104466001600160a01b03831687836106e2565b50508061045290610e27565b9050610319565b50505050565b610467610734565b6001600160a01b0383166104845761047f828261076f565b505050565b61047f6001600160a01b03841683836106e2565b600054610100900460ff16806104b1575060005460ff16155b6104d65760405162461bcd60e51b81526004016104cd90610e50565b60405180910390fd5b600054610100900460ff161580156104f8576000805461ffff19166101011790555b610500610888565b610509826108f8565b801561051b576000805461ff00191690555b5050565b600260015414156105725760405162461bcd60e51b815260206004820152601f60248201527f5265656e7472616e637947756172643a207265656e7472616e742063616c6c0060448201526064016104cd565b6002600181905554604051633e25dee160e21b81523360048201526001600160a01b039091169063f8977b849060240160206040518083038186803b1580156105ba57600080fd5b505afa1580156105ce573d6000803e3d6000fd5b505050506040513d601f19601f820116820180604052508101906105f29190610e9e565b61060f576040516326688ebb60e11b815260040160405180910390fd5b6001600160a01b03821661063657604051634c96446b60e01b815260040160405180910390fd5b80610654576040516310eb483f60e21b815260040160405180910390fd5b6106da8282336001600160a01b0316636f307dc36040518163ffffffff1660e01b815260040160206040518083038186803b15801561069257600080fd5b505afa1580156106a6573d6000803e3d6000fd5b505050506040513d601f19601f820116820180604052508101906106ca9190610d00565b6001600160a01b031691906106e2565b505060018055565b604080516001600160a01b038416602482015260448082018490528251808303909101815260649091019091526020810180516001600160e01b031663a9059cbb60e01b17905261047f9084906109a6565b61073c6101bd565b6001600160a01b0316336001600160a01b03161461076d57604051634b98449160e11b815260040160405180910390fd5b565b804710156107bf5760405162461bcd60e51b815260206004820152601d60248201527f416464726573733a20696e73756666696369656e742062616c616e636500000060448201526064016104cd565b6000826001600160a01b03168260405160006040518083038185875af1925050503d806000811461080c576040519150601f19603f3d011682016040523d82523d6000602084013e610811565b606091505b505090508061047f5760405162461bcd60e51b815260206004820152603a60248201527f416464726573733a20756e61626c6520746f2073656e642076616c75652c207260448201527f6563697069656e74206d6179206861766520726576657274656400000000000060648201526084016104cd565b600054610100900460ff16806108a1575060005460ff16155b6108bd5760405162461bcd60e51b81526004016104cd90610e50565b600054610100900460ff161580156108df576000805461ffff19166101011790555b6001805580156108f5576000805461ff00191690555b50565b600054610100900460ff1680610911575060005460ff16155b61092d5760405162461bcd60e51b81526004016104cd90610e50565b600054610100900460ff1615801561094f576000805461ffff19166101011790555b6001600160a01b0382166109765760405163724f500960e01b815260040160405180910390fd5b600280546001600160a01b0319166001600160a01b038416179055801561051b576000805461ff00191690555050565b60006109fb826040518060400160405280602081526020017f5361666545524332303a206c6f772d6c6576656c2063616c6c206661696c6564815250856001600160a01b0316610a789092919063ffffffff16565b80519091501561047f5780806020019051810190610a199190610e9e565b61047f5760405162461bcd60e51b815260206004820152602a60248201527f5361666545524332303a204552433230206f7065726174696f6e20646964206e6044820152691bdd081cdd58d8d9595960b21b60648201526084016104cd565b6060610a878484600085610a91565b90505b9392505050565b606082471015610af25760405162461bcd60e51b815260206004820152602660248201527f416464726573733a20696e73756666696369656e742062616c616e636520666f6044820152651c8818d85b1b60d21b60648201526084016104cd565b843b610b405760405162461bcd60e51b815260206004820152601d60248201527f416464726573733a2063616c6c20746f206e6f6e2d636f6e747261637400000060448201526064016104cd565b600080866001600160a01b03168587604051610b5c9190610ec0565b60006040518083038185875af1925050503d8060008114610b99576040519150601f19603f3d011682016040523d82523d6000602084013e610b9e565b606091505b5091509150610bae828286610bb9565b979650505050505050565b60608315610bc8575081610a8a565b825115610bd85782518084602001fd5b8160405162461bcd60e51b81526004016104cd9190610cbd565b6001600160a01b03811681146108f557600080fd5b600060208284031215610c1957600080fd5b8135610a8a81610bf2565b600080600060608486031215610c3957600080fd5b8335610c4481610bf2565b92506020840135610c5481610bf2565b929592945050506040919091013590565b60008060408385031215610c7857600080fd5b8235610c8381610bf2565b946020939093013593505050565b60005b83811015610cac578181015183820152602001610c94565b838111156104595750506000910152565b6020815260008251806020840152610cdc816040850160208701610c91565b601f01601f19169190910160400192915050565b8051610cfb81610bf2565b919050565b600060208284031215610d1257600080fd5b8151610a8a81610bf2565b634e487b7160e01b600052604160045260246000fd5b60006020808385031215610d4657600080fd5b825167ffffffffffffffff80821115610d5e57600080fd5b818501915085601f830112610d7257600080fd5b815181811115610d8457610d84610d1d565b8060051b604051601f19603f83011681018181108582111715610da957610da9610d1d565b604052918252848201925083810185019188831115610dc757600080fd5b938501935b82851015610dec57610ddd85610cf0565b84529385019392850192610dcc565b98975050505050505050565b634e487b7160e01b600052603260045260246000fd5b600060208284031215610e2057600080fd5b5051919050565b6000600019821415610e4957634e487b7160e01b600052601160045260246000fd5b5060010190565b6020808252602e908201527f496e697469616c697a61626c653a20636f6e747261637420697320616c72656160408201526d191e481a5b9a5d1a585b1a5e995960921b606082015260800190565b600060208284031215610eb057600080fd5b81518015158114610a8a57600080fd5b60008251610ed2818460208701610c91565b919091019291505056fea2646970667358221220630f428d1d97104eea8f98d489cc085c46644d2ce4a35403ff9fdc908aed4b6764736f6c63430008090033",
  "devdoc": {
    "kind": "dev",
    "methods": {
      "governor()": {
        "returns": {
          "_governor": "The governor"
        }
      },
      "migrateTo(address)": {
        "details": "This function can become too expensive depending on the length of the arrays",
        "params": {
          "newTreasury_": "The new treasury"
        }
      },
      "pull(address,uint256)": {
        "params": {
          "amount_": "The transfer amount",
          "to_": "The transfer recipient"
        }
      },
      "sweep(address,address,uint256)": {
        "params": {
          "amount_": "The amount to send",
          "to_": "The recipient of the transfer",
          "token_": "The token to transfer"
        }
      }
    },
    "title": "Treasury contract",
    "version": 1
  },
  "userdoc": {
    "kind": "user",
    "methods": {
      "governor()": {
        "notice": "Get the governor"
      },
      "migrateTo(address)": {
        "notice": "Transfer all funds to another contract"
      },
      "pool()": {
        "notice": "Pool contract"
      },
      "pull(address,uint256)": {
        "notice": "Pull token from the Treasury"
      },
      "sweep(address,address,uint256)": {
        "notice": "ERC20 recovery in case of stuck tokens due direct transfers to the contract address."
      }
    },
    "version": 1
  },
  "storageLayout": {
    "storage": [
      {
        "astId": 7824,
        "contract": "contracts/Treasury.sol:Treasury",
        "label": "_initialized",
        "offset": 0,
        "slot": "0",
        "type": "t_bool"
      },
      {
        "astId": 7827,
        "contract": "contracts/Treasury.sol:Treasury",
        "label": "_initializing",
        "offset": 1,
        "slot": "0",
        "type": "t_bool"
      },
      {
        "astId": 7878,
        "contract": "contracts/Treasury.sol:Treasury",
        "label": "_status",
        "offset": 0,
        "slot": "1",
        "type": "t_uint256"
      },
      {
        "astId": 7707,
        "contract": "contracts/Treasury.sol:Treasury",
        "label": "pool",
        "offset": 0,
        "slot": "2",
        "type": "t_contract(IPool)10334"
      },
      {
        "astId": 7817,
        "contract": "contracts/Treasury.sol:Treasury",
        "label": "__gap",
        "offset": 0,
        "slot": "3",
        "type": "t_array(t_uint256)49_storage"
      }
    ],
    "types": {
      "t_array(t_uint256)49_storage": {
        "base": "t_uint256",
        "encoding": "inplace",
        "label": "uint256[49]",
        "numberOfBytes": "1568"
      },
      "t_bool": {
        "encoding": "inplace",
        "label": "bool",
        "numberOfBytes": "1"
      },
      "t_contract(IPool)10334": {
        "encoding": "inplace",
        "label": "contract IPool",
        "numberOfBytes": "20"
      },
      "t_uint256": {
        "encoding": "inplace",
        "label": "uint256",
        "numberOfBytes": "32"
      }
    }
  }
}