{
  "address": "0xBB40D96aB45f13904737b6261fbfc48b1F245573",
  "abi": [
    {
      "inputs": [],
      "stateMutability": "nonpayable",
      "type": "constructor"
    },
    {
      "inputs": [],
      "name": "AddressIsNull",
      "type": "error"
    },
    {
      "inputs": [],
      "name": "AmountIsZero",
      "type": "error"
    },
    {
      "inputs": [],
      "name": "PoolAddressIsNull",
      "type": "error"
    },
    {
      "inputs": [],
      "name": "RecipientIsNull",
      "type": "error"
    },
    {
      "inputs": [],
      "name": "SenderIsNotDepositToken",
      "type": "error"
    },
    {
      "inputs": [],
      "name": "SenderIsNotGovernor",
      "type": "error"
    },
    {
      "inputs": [],
      "name": "SenderIsNotPool",
      "type": "error"
    },
    {
      "anonymous": false,
      "inputs": [
        {
          "indexed": false,
          "internalType": "uint8",
          "name": "version",
          "type": "uint8"
        }
      ],
      "name": "Initialized",
      "type": "event"
    },
    {
      "inputs": [],
      "name": "VERSION",
      "outputs": [
        {
          "internalType": "string",
          "name": "",
          "type": "string"
        }
      ],
      "stateMutability": "view",
      "type": "function"
    },
    {
      "inputs": [
        {
          "internalType": "contract IVPool",
          "name": "vPool_",
          "type": "address"
        },
        {
          "internalType": "address",
          "name": "to_",
          "type": "address"
        }
      ],
      "name": "claimFromVesper",
      "outputs": [],
      "stateMutability": "nonpayable",
      "type": "function"
    },
    {
      "inputs": [],
      "name": "governor",
      "outputs": [
        {
          "internalType": "address",
          "name": "_governor",
          "type": "address"
        }
      ],
      "stateMutability": "view",
      "type": "function"
    },
    {
      "inputs": [
        {
          "internalType": "contract IPool",
          "name": "pool_",
          "type": "address"
        }
      ],
      "name": "initialize",
      "outputs": [],
      "stateMutability": "nonpayable",
      "type": "function"
    },
    {
      "inputs": [
        {
          "internalType": "address",
          "name": "newTreasury_",
          "type": "address"
        }
      ],
      "name": "migrateTo",
      "outputs": [],
      "stateMutability": "nonpayable",
      "type": "function"
    },
    {
      "inputs": [],
      "name": "pool",
      "outputs": [
        {
          "internalType": "contract IPool",
          "name": "",
          "type": "address"
        }
      ],
      "stateMutability": "view",
      "type": "function"
    },
    {
      "inputs": [
        {
          "internalType": "address",
          "name": "to_",
          "type": "address"
        },
        {
          "internalType": "uint256",
          "name": "amount_",
          "type": "uint256"
        }
      ],
      "name": "pull",
      "outputs": [],
      "stateMutability": "nonpayable",
      "type": "function"
    }
  ],
  "transactionHash": "0x3f71fda5c658aca1a2310be0610cb3863ba1290ab4232148e7526e6a65fb45c6",
  "args": [],
  "numDeployments": 4,
  "solcInputHash": "545cb6254fd08cfae8ffa56eab2faa67",
  "bytecode": "0x60806040523480156200001157600080fd5b506200001c62000022565b62000152565b6200002e60ff62000031565b50565b60008054610100900460ff1615620000ca578160ff1660011480156200006a575062000068306200014360201b620009ee1760201c565b155b620000c25760405162461bcd60e51b815260206004820152602e6024820152600080516020620012e683398151915260448201526d191e481a5b9a5d1a585b1a5e995960921b60648201526084015b60405180910390fd5b506000919050565b60005460ff808416911610620001295760405162461bcd60e51b815260206004820152602e6024820152600080516020620012e683398151915260448201526d191e481a5b9a5d1a585b1a5e995960921b6064820152608401620000b9565b506000805460ff191660ff92909216919091179055600190565b6001600160a01b03163b151590565b61118480620001626000396000f3fe608060405234801561001057600080fd5b506004361061007d5760003560e01c8063c4d66de81161005b578063c4d66de8146100cf578063f2d5d56b146100e2578063f4ef8fcc146100f5578063ffa1ad741461010857600080fd5b80630c340a241461008257806316f0115b146100a75780634ddaf8f2146100ba575b600080fd5b61008a610139565b6040516001600160a01b0390911681526020015b60405180910390f35b60025461008a906001600160a01b031681565b6100cd6100c8366004610e1c565b6101bb565b005b6100cd6100dd366004610e1c565b6103db565b6100cd6100f0366004610e39565b61045a565b6100cd610103366004610e65565b610622565b61012c604051806040016040528060058152602001640312e332e360dc1b81525081565b60405161009e9190610eca565b6002546040805163030d028960e21b815290516000926001600160a01b031691630c340a24916004808301926020929190829003018186803b15801561017e57600080fd5b505afa158015610192573d6000803e3d6000fd5b505050506040513d601f19601f820116820180604052508101906101b69190610f08565b905090565b6002546001600160a01b031633146101e65760405163531f2aa960e11b815260040160405180910390fd5b6001600160a01b03811661020d5760405163fb7566d760e01b815260040160405180910390fd5b6002546040805163fb01600d60e01b815290516000926001600160a01b03169163fb01600d9160048083019286929190829003018186803b15801561025157600080fd5b505afa158015610265573d6000803e3d6000fd5b505050506040513d6000823e601f3d908101601f1916820160405261028d9190810190610f3b565b805190915060005b818110156103d55760008382815181106102b1576102b1611000565b60200260200101516001600160a01b0316636f307dc36040518163ffffffff1660e01b815260040160206040518083038186803b1580156102f157600080fd5b505afa158015610305573d6000803e3d6000fd5b505050506040513d601f19601f820116820180604052508101906103299190610f08565b6040516370a0823160e01b81523060048201529091506000906001600160a01b038316906370a082319060240160206040518083038186803b15801561036e57600080fd5b505afa158015610382573d6000803e3d6000fd5b505050506040513d601f19601f820116820180604052508101906103a69190611016565b905080156103c2576103c26001600160a01b03831687836109fd565b5050806103ce90611045565b9050610295565b50505050565b60006103e76001610a54565b905080156103ff576000805461ff0019166101001790555b610407610ae1565b61041082610b12565b8015610456576000805461ff0019169055604051600181527f7f26b83ff96e1f2b6a682f133852f6798a09c465da95921460cefb38474024989060200160405180910390a15b5050565b600260015414156104b25760405162461bcd60e51b815260206004820152601f60248201527f5265656e7472616e637947756172643a207265656e7472616e742063616c6c0060448201526064015b60405180910390fd5b6002600181905554604051633e25dee160e21b81523360048201526001600160a01b039091169063f8977b849060240160206040518083038186803b1580156104fa57600080fd5b505afa15801561050e573d6000803e3d6000fd5b505050506040513d601f19601f820116820180604052508101906105329190611060565b61054f576040516326688ebb60e11b815260040160405180910390fd5b6001600160a01b03821661057657604051634c96446b60e01b815260040160405180910390fd5b80610594576040516310eb483f60e21b815260040160405180910390fd5b61061a8282336001600160a01b0316636f307dc36040518163ffffffff1660e01b815260040160206040518083038186803b1580156105d257600080fd5b505afa1580156105e6573d6000803e3d6000fd5b505050506040513d601f19601f8201168201806040525081019061060a9190610f08565b6001600160a01b031691906109fd565b505060018055565b61062a610139565b6001600160a01b0316336001600160a01b03161461065b57604051634b98449160e11b815260040160405180910390fd5b6000826001600160a01b0316638bc6beb26040518163ffffffff1660e01b815260040160206040518083038186803b15801561069657600080fd5b505afa1580156106aa573d6000803e3d6000fd5b505050506040513d601f19601f820116820180604052508101906106ce9190610f08565b60405163632447c960e01b81523060048201529091506001600160a01b0382169063632447c990602401600060405180830381600087803b15801561071257600080fd5b505af1158015610726573d6000803e3d6000fd5b505060405163d279c19160e01b81523060048201526001600160a01b038416925063d279c1919150602401600060405180830381600087803b15801561076b57600080fd5b505af115801561077f573d6000803e3d6000fd5b505050506000816001600160a01b031663c4f59f9b6040518163ffffffff1660e01b815260040160006040518083038186803b1580156107be57600080fd5b505afa1580156107d2573d6000803e3d6000fd5b505050506040513d6000823e601f3d908101601f191682016040526107fa9190810190610f3b565b805190915060005b818110156109e657600083828151811061081e5761081e611000565b60209081029190910101516040516370a0823160e01b81523060048201529091506000906001600160a01b038316906370a082319060240160206040518083038186803b15801561086e57600080fd5b505afa158015610882573d6000803e3d6000fd5b505050506040513d601f19601f820116820180604052508101906108a69190611016565b6002546040516343e6ee4360e11b81526001600160a01b038581166004830152929350600092909116906387cddc869060240160206040518083038186803b1580156108f157600080fd5b505afa158015610905573d6000803e3d6000fd5b505050506040513d601f19601f820116820180604052508101906109299190610f08565b90506001600160a01b038116156109b857806001600160a01b03166318160ddd6040518163ffffffff1660e01b815260040160206040518083038186803b15801561097357600080fd5b505afa158015610987573d6000803e3d6000fd5b505050506040513d601f19601f820116820180604052508101906109ab9190611016565b6109b59083611082565b91505b81156109d2576109d26001600160a01b03841689846109fd565b505050806109df90611045565b9050610802565b505050505050565b6001600160a01b03163b151590565b604080516001600160a01b038416602482015260448082018490528251808303909101815260649091019091526020810180516001600160e01b031663a9059cbb60e01b179052610a4f908490610b82565b505050565b60008054610100900460ff1615610a9b578160ff166001148015610a775750303b155b610a935760405162461bcd60e51b81526004016104a990611099565b506000919050565b60005460ff808416911610610ac25760405162461bcd60e51b81526004016104a990611099565b506000805460ff191660ff92909216919091179055600190565b919050565b600054610100900460ff16610b085760405162461bcd60e51b81526004016104a9906110e7565b610b10610c54565b565b600054610100900460ff16610b395760405162461bcd60e51b81526004016104a9906110e7565b6001600160a01b038116610b605760405163724f500960e01b815260040160405180910390fd5b600280546001600160a01b0319166001600160a01b0392909216919091179055565b6000610bd7826040518060400160405280602081526020017f5361666545524332303a206c6f772d6c6576656c2063616c6c206661696c6564815250856001600160a01b0316610c819092919063ffffffff16565b805190915015610a4f5780806020019051810190610bf59190611060565b610a4f5760405162461bcd60e51b815260206004820152602a60248201527f5361666545524332303a204552433230206f7065726174696f6e20646964206e6044820152691bdd081cdd58d8d9595960b21b60648201526084016104a9565b600054610100900460ff16610c7b5760405162461bcd60e51b81526004016104a9906110e7565b60018055565b6060610c908484600085610c9a565b90505b9392505050565b606082471015610cfb5760405162461bcd60e51b815260206004820152602660248201527f416464726573733a20696e73756666696369656e742062616c616e636520666f6044820152651c8818d85b1b60d21b60648201526084016104a9565b6001600160a01b0385163b610d525760405162461bcd60e51b815260206004820152601d60248201527f416464726573733a2063616c6c20746f206e6f6e2d636f6e747261637400000060448201526064016104a9565b600080866001600160a01b03168587604051610d6e9190611132565b60006040518083038185875af1925050503d8060008114610dab576040519150601f19603f3d011682016040523d82523d6000602084013e610db0565b606091505b5091509150610dc0828286610dcb565b979650505050505050565b60608315610dda575081610c93565b825115610dea5782518084602001fd5b8160405162461bcd60e51b81526004016104a99190610eca565b6001600160a01b0381168114610e1957600080fd5b50565b600060208284031215610e2e57600080fd5b8135610c9381610e04565b60008060408385031215610e4c57600080fd5b8235610e5781610e04565b946020939093013593505050565b60008060408385031215610e7857600080fd5b8235610e8381610e04565b91506020830135610e9381610e04565b809150509250929050565b60005b83811015610eb9578181015183820152602001610ea1565b838111156103d55750506000910152565b6020815260008251806020840152610ee9816040850160208701610e9e565b601f01601f19169190910160400192915050565b8051610adc81610e04565b600060208284031215610f1a57600080fd5b8151610c9381610e04565b634e487b7160e01b600052604160045260246000fd5b60006020808385031215610f4e57600080fd5b825167ffffffffffffffff80821115610f6657600080fd5b818501915085601f830112610f7a57600080fd5b815181811115610f8c57610f8c610f25565b8060051b604051601f19603f83011681018181108582111715610fb157610fb1610f25565b604052918252848201925083810185019188831115610fcf57600080fd5b938501935b82851015610ff457610fe585610efd565b84529385019392850192610fd4565b98975050505050505050565b634e487b7160e01b600052603260045260246000fd5b60006020828403121561102857600080fd5b5051919050565b634e487b7160e01b600052601160045260246000fd5b60006000198214156110595761105961102f565b5060010190565b60006020828403121561107257600080fd5b81518015158114610c9357600080fd5b6000828210156110945761109461102f565b500390565b6020808252602e908201527f496e697469616c697a61626c653a20636f6e747261637420697320616c72656160408201526d191e481a5b9a5d1a585b1a5e995960921b606082015260800190565b6020808252602b908201527f496e697469616c697a61626c653a20636f6e7472616374206973206e6f74206960408201526a6e697469616c697a696e6760a81b606082015260800190565b60008251611144818460208701610e9e565b919091019291505056fea26469706673582212209c7e316cf67a3616b42e6290488e98909cc674f769e2428fa70bac4967be315d64736f6c63430008090033496e697469616c697a61626c653a20636f6e747261637420697320616c726561",
  "devdoc": {
    "kind": "dev",
    "methods": {
      "claimFromVesper(address,address)": {
        "params": {
          "to_": "The transfer recipient",
          "vPool_": "The Vesper pool to collect rewards from"
        }
      },
      "governor()": {
        "returns": {
          "_governor": "The governor"
        }
      },
      "migrateTo(address)": {
        "details": "This function can become too expensive depending on the length of the arrays",
        "params": {
          "newTreasury_": "The new treasury"
        }
      },
      "pull(address,uint256)": {
        "params": {
          "amount_": "The transfer amount",
          "to_": "The transfer recipient"
        }
      }
    },
    "title": "Treasury contract",
    "version": 1
  },
  "userdoc": {
    "kind": "user",
    "methods": {
      "claimFromVesper(address,address)": {
        "notice": "Claim and withdraw rewards from Vesper"
      },
      "governor()": {
        "notice": "Get the governor"
      },
      "migrateTo(address)": {
        "notice": "Transfer all funds to another contract"
      },
      "pool()": {
        "notice": "Pool contract"
      },
      "pull(address,uint256)": {
        "notice": "Pull token from the Treasury"
      }
    },
    "version": 1
  },
  "storageLayout": {
    "storage": [
      {
        "astId": 19514,
        "contract": "contracts/Treasury.sol:Treasury",
        "label": "_initialized",
        "offset": 0,
        "slot": "0",
        "type": "t_uint8"
      },
      {
        "astId": 19517,
        "contract": "contracts/Treasury.sol:Treasury",
        "label": "_initializing",
        "offset": 1,
        "slot": "0",
        "type": "t_bool"
      },
      {
        "astId": 33193,
        "contract": "contracts/Treasury.sol:Treasury",
        "label": "_status",
        "offset": 0,
        "slot": "1",
        "type": "t_uint256"
      },
      {
        "astId": 14015,
        "contract": "contracts/Treasury.sol:Treasury",
        "label": "pool",
        "offset": 0,
        "slot": "2",
        "type": "t_contract(IPool)27664"
      },
      {
        "astId": 14117,
        "contract": "contracts/Treasury.sol:Treasury",
        "label": "__gap",
        "offset": 0,
        "slot": "3",
        "type": "t_array(t_uint256)49_storage"
      }
    ],
    "types": {
      "t_array(t_uint256)49_storage": {
        "base": "t_uint256",
        "encoding": "inplace",
        "label": "uint256[49]",
        "numberOfBytes": "1568"
      },
      "t_bool": {
        "encoding": "inplace",
        "label": "bool",
        "numberOfBytes": "1"
      },
      "t_contract(IPool)27664": {
        "encoding": "inplace",
        "label": "contract IPool",
        "numberOfBytes": "20"
      },
      "t_uint256": {
        "encoding": "inplace",
        "label": "uint256",
        "numberOfBytes": "32"
      },
      "t_uint8": {
        "encoding": "inplace",
        "label": "uint8",
        "numberOfBytes": "1"
      }
    }
  }
}